{
	"data": {
		"bytecode": {
			"linkReferences": {},
			"object": "60806040526000600160006101000a81548160ff02191690831515021790555060006001806101000a81548160ff02191690831515021790555034801561004557600080fd5b50613834806100556000396000f3fe6080604052600436106101235760003560e01c806392467776116100a0578063c137878411610064578063c137878414610488578063c6044c46146104b1578063e6bd0aa4146104da578063f23a6e6114610503578063fc0f392d146105405761016d565b806392467776146103a3578063a0b7967b146103cc578063abe3219c146103f7578063ad3ad70914610422578063bc197c811461044b5761016d565b806334f94047116100e757806334f94047146102ae57806339125215146102d75780635a953d0a14610300578063736c0d5b146103295780637df73e27146103665761016d565b806301ffc9a7146101b75780630dcd7a6c146101f4578063150b7a021461021d578063158ef93e1461025a5780632da03409146102855761016d565b3661016d57600034111561016b577f6e89d517057028190560dd200cf6bf792842861353d1173761dfa362e1c133f03334604051610162929190611c6a565b60405180910390a15b005b60003411156101b5577f6e89d517057028190560dd200cf6bf792842861353d1173761dfa362e1c133f033346000366040516101ac9493929190611cf3565b60405180910390a15b005b3480156101c357600080fd5b506101de60048036038101906101d99190611d9f565b610557565b6040516101eb9190611de7565b60405180910390f35b34801561020057600080fd5b5061021b60048036038101906102169190611ebf565b6105d1565b005b34801561022957600080fd5b50610244600480360381019061023f919061208f565b610679565b6040516102519190612121565b60405180910390f35b34801561026657600080fd5b5061026f61068d565b60405161027c9190611de7565b60405180910390f35b34801561029157600080fd5b506102ac60048036038101906102a7919061217a565b61069e565b005b3480156102ba57600080fd5b506102d560048036038101906102d09190612210565b61075b565b005b3480156102e357600080fd5b506102fe60048036038101906102f99190612284565b61081e565b005b34801561030c57600080fd5b5061032760048036038101906103229190612353565b6109b6565b005b34801561033557600080fd5b50610350600480360381019061034b91906123a6565b610a76565b60405161035d9190611de7565b60405180910390f35b34801561037257600080fd5b5061038d600480360381019061038891906123a6565b610a96565b60405161039a9190611de7565b60405180910390f35b3480156103af57600080fd5b506103ca60048036038101906103c591906123ff565b610aeb565b005b3480156103d857600080fd5b506103e1610ba8565b6040516103ee919061243f565b60405180910390f35b34801561040357600080fd5b5061040c610c18565b6040516104199190611de7565b60405180910390f35b34801561042e57600080fd5b50610449600480360381019061044491906124b0565b610c2b565b005b34801561045757600080fd5b50610472600480360381019061046d919061258c565b610e3d565b60405161047f9190612121565b60405180910390f35b34801561049457600080fd5b506104af60048036038101906104aa91906123ff565b610e55565b005b3480156104bd57600080fd5b506104d860048036038101906104d39190612668565b610f12565b005b3480156104e657600080fd5b5061050160048036038101906104fc9190612353565b611104565b005b34801561050f57600080fd5b5061052a600480360381019061052591906126b5565b6111c4565b6040516105379190612121565b60405180910390f35b34801561054c57600080fd5b506105556111da565b005b60007f4e2312e0000000000000000000000000000000000000000000000000000000007bffffffffffffffffffffffffffffffffffffffffffffffffffffffff1916827bffffffffffffffffffffffffffffffffffffffffffffffffffffffff191614806105ca57506105c982611275565b5b9050919050565b6105da33610a96565b610619576040517f08c379a0000000000000000000000000000000000000000000000000000000008152600401610610906127ac565b60405180910390fd5b60006106236112df565b888888888860405160200161063d969594939291906128af565b60405160208183030381529060405280519060200120905061066388828585898961131c565b5061066f8689896114e0565b5050505050505050565b600063150b7a0260e01b9050949350505050565b60018054906101000a900460ff1681565b6106a733610a96565b6106e6576040517f08c379a00000000000000000000000000000000000000000000000000000000081526004016106dd906127ac565b60405180910390fd5b60008290508073ffffffffffffffffffffffffffffffffffffffff16633ef13367836040518263ffffffff1660e01b8152600401610724919061291b565b600060405180830381600087803b15801561073e57600080fd5b505af1158015610752573d6000803e3d6000fd5b50505050505050565b61076433610a96565b6107a3576040517f08c379a000000000000000000000000000000000000000000000000000000000815260040161079a906127ac565b60405180910390fd5b60008490508073ffffffffffffffffffffffffffffffffffffffff1663c6a2dd248585856040518463ffffffff1660e01b81526004016107e5939291906129a8565b600060405180830381600087803b1580156107ff57600080fd5b505af1158015610813573d6000803e3d6000fd5b505050505050505050565b61082733610a96565b610866576040517f08c379a000000000000000000000000000000000000000000000000000000000815260040161085d906127ac565b60405180910390fd5b6000610870611616565b89898989898960405160200161088c9796959493929190612a0a565b60405160208183030381529060405280519060200120905060006108b48a8386868a8a61131c565b905060008a73ffffffffffffffffffffffffffffffffffffffff168a8a8a6040516108e0929190612a74565b60006040518083038185875af1925050503d806000811461091d576040519150601f19603f3d011682016040523d82523d6000602084013e610922565b606091505b5050905080610966576040517f08c379a000000000000000000000000000000000000000000000000000000000815260040161095d90612ad9565b60405180910390fd5b7f59bed9ab5d78073465dd642a9e3e76dfdb7d53bcae9d09df7d0b8f5234d5a8063383858e8e8e8e6040516109a19796959493929190612b12565b60405180910390a15050505050505050505050565b6109bf33610a96565b6109fe576040517f08c379a00000000000000000000000000000000000000000000000000000000081526004016109f5906127ac565b60405180910390fd5b60008390508073ffffffffffffffffffffffffffffffffffffffff1663159e44d784846040518363ffffffff1660e01b8152600401610a3e929190612b7c565b600060405180830381600087803b158015610a5857600080fd5b505af1158015610a6c573d6000803e3d6000fd5b5050505050505050565b60006020528060005260406000206000915054906101000a900460ff1681565b60008060008373ffffffffffffffffffffffffffffffffffffffff1673ffffffffffffffffffffffffffffffffffffffff16815260200190815260200160002060009054906101000a900460ff169050919050565b610af433610a96565b610b33576040517f08c379a0000000000000000000000000000000000000000000000000000000008152600401610b2a906127ac565b60405180910390fd5b60008290508073ffffffffffffffffffffffffffffffffffffffff16638acc01be836040518263ffffffff1660e01b8152600401610b719190611de7565b600060405180830381600087803b158015610b8b57600080fd5b505af1158015610b9f573d6000803e3d6000fd5b50505050505050565b6000806000905060005b600a811015610c045781600282600a8110610bd057610bcf612ba5565b5b01541115610bf157600281600a8110610bec57610beb612ba5565b5b015491505b8080610bfc90612c03565b915050610bb2565b50600181610c129190612c4c565b91505090565b600160009054906101000a900460ff1681565b610c3433610a96565b610c73576040517f08c379a0000000000000000000000000000000000000000000000000000000008152600401610c6a906127ac565b60405180910390fd5b6000888890501415610cba576040517f08c379a0000000000000000000000000000000000000000000000000000000008152600401610cb190612cee565b60405180910390fd5b858590508888905014610d02576040517f08c379a0000000000000000000000000000000000000000000000000000000008152600401610cf990612d5a565b60405180910390fd5b6101008888905010610d49576040517f08c379a0000000000000000000000000000000000000000000000000000000008152600401610d4090612dc6565b60405180910390fd5b6000610d53611653565b898989898989604051602001610d6f9796959493929190612f0a565b604051602081830303815290604052805190602001209050600160009054906101000a900460ff1615610dd7576040517f08c379a0000000000000000000000000000000000000000000000000000000008152600401610dce90612fad565b60405180910390fd5b6000610de860008386868a8a61131c565b9050610df68a8a8a8a611690565b7fe4c9047a729726b729cf4fa62c95ef9a434bbaf206a7ea0c7c77515db1584022338284604051610e2993929190612fcd565b60405180910390a150505050505050505050565b600063bc197c8160e01b905098975050505050505050565b610e5e33610a96565b610e9d576040517f08c379a0000000000000000000000000000000000000000000000000000000008152600401610e94906127ac565b60405180910390fd5b60008290508073ffffffffffffffffffffffffffffffffffffffff1663c59f9f19836040518263ffffffff1660e01b8152600401610edb9190611de7565b600060405180830381600087803b158015610ef557600080fd5b505af1158015610f09573d6000803e3d6000fd5b50505050505050565b60018054906101000a900460ff1615610f60576040517f08c379a0000000000000000000000000000000000000000000000000000000008152600401610f5790613050565b60405180910390fd5b60038282905014610fa6576040517f08c379a0000000000000000000000000000000000000000000000000000000008152600401610f9d906130bc565b60405180910390fd5b60005b828290508160ff1610156110e557600073ffffffffffffffffffffffffffffffffffffffff1683838360ff16818110610fe557610fe4612ba5565b5b9050602002016020810190610ffa91906123a6565b73ffffffffffffffffffffffffffffffffffffffff161415611051576040517f08c379a000000000000000000000000000000000000000000000000000000000815260040161104890613128565b60405180910390fd5b600160008085858560ff1681811061106c5761106b612ba5565b5b905060200201602081019061108191906123a6565b73ffffffffffffffffffffffffffffffffffffffff1673ffffffffffffffffffffffffffffffffffffffff16815260200190815260200160002060006101000a81548160ff02191690831515021790555080806110dd90613155565b915050610fa9565b5060018060016101000a81548160ff0219169083151502179055505050565b61110d33610a96565b61114c576040517f08c379a0000000000000000000000000000000000000000000000000000000008152600401611143906127ac565b60405180910390fd5b60008390508073ffffffffffffffffffffffffffffffffffffffff16638972c17c84846040518363ffffffff1660e01b815260040161118c929190612b7c565b600060405180830381600087803b1580156111a657600080fd5b505af11580156111ba573d6000803e3d6000fd5b5050505050505050565b600063f23a6e6160e01b90509695505050505050565b6111e333610a96565b611222576040517f08c379a0000000000000000000000000000000000000000000000000000000008152600401611219906127ac565b60405180910390fd5b60018060006101000a81548160ff0219169083151502179055507f0909e8f76a4fd3e970f2eaef56c0ee6dfaf8b87c5b8d3f56ffce78e825a911573360405161126b919061291b565b60405180910390a1565b60007f01ffc9a7000000000000000000000000000000000000000000000000000000007bffffffffffffffffffffffffffffffffffffffffffffffffffffffff1916827bffffffffffffffffffffffffffffffffffffffffffffffffffffffff1916149050919050565b60606040518060400160405280600581526020017f4552433230000000000000000000000000000000000000000000000000000000815250905090565b60008061136d8787878080601f016020809104026020016040519081016040528093929190818152602001838380828437600081840152601f19601f8201169050808301925050505050505061187c565b9050600160009054906101000a900460ff161580611390575061138f88610a96565b5b6113cf576040517f08c379a00000000000000000000000000000000000000000000000000000000081526004016113c6906131cb565b60405180910390fd5b42841015611412576040517f08c379a000000000000000000000000000000000000000000000000000000000815260040161140990613237565b60405180910390fd5b61141b836119bb565b61142481610a96565b611463576040517f08c379a000000000000000000000000000000000000000000000000000000000815260040161145a90613128565b60405180910390fd5b3373ffffffffffffffffffffffffffffffffffffffff168173ffffffffffffffffffffffffffffffffffffffff1614156114d2576040517f08c379a00000000000000000000000000000000000000000000000000000000081526004016114c9906132a3565b60405180910390fd5b809150509695505050505050565b6000808473ffffffffffffffffffffffffffffffffffffffff1663a9059cbb8585604051602401611512929190612b7c565b6040516020818303038152906040529060e01b6020820180517bffffffffffffffffffffffffffffffffffffffffffffffffffffffff838183161783525050505060405161156091906132ff565b6000604051808303816000865af19150503d806000811461159d576040519150601f19603f3d011682016040523d82523d6000602084013e6115a2565b606091505b50915091508180156115d057506000815114806115cf5750808060200190518101906115ce919061332b565b5b5b61160f576040517f08c379a0000000000000000000000000000000000000000000000000000000008152600401611606906133ca565b60405180910390fd5b5050505050565b60606040518060400160405280600581526020017f4554484552000000000000000000000000000000000000000000000000000000815250905090565b60606040518060400160405280600b81526020017f45544845522d4261746368000000000000000000000000000000000000000000815250905090565b60005b84849050811015611875578282828181106116b1576116b0612ba5565b5b905060200201354710156116fa576040517f08c379a00000000000000000000000000000000000000000000000000000000081526004016116f190613436565b60405180910390fd5b600085858381811061170f5761170e612ba5565b5b905060200201602081019061172491906123a6565b73ffffffffffffffffffffffffffffffffffffffff1684848481811061174d5761174c612ba5565b5b9050602002013560405161176090613479565b60006040518083038185875af1925050503d806000811461179d576040519150601f19603f3d011682016040523d82523d6000602084013e6117a2565b606091505b50509050806117e6576040517f08c379a00000000000000000000000000000000000000000000000000000000081526004016117dd906134da565b60405180910390fd5b7fc42fa155158786a1dd6ccc3a785f35845467353c3cc700e0e31a79f90e22227d3387878581811061181b5761181a612ba5565b5b905060200201602081019061183091906123a6565b86868681811061184357611842612ba5565b5b90506020020135604051611859939291906134fa565b60405180910390a150808061186d90612c03565b915050611693565b5050505050565b600060418251146118c2576040517f08c379a00000000000000000000000000000000000000000000000000000000081526004016118b99061357d565b60405180910390fd5b6000806000602085015192506040850151915060ff6041860151169050601b8160ff1610156118fb57601b816118f8919061359d565b90505b7f7fffffffffffffffffffffffffffffff5d576e7357a4501ddfe92f46681b20a08260001c1115611961576040517f08c379a000000000000000000000000000000000000000000000000000000000815260040161195890613646565b60405180910390fd5b600186828585604051600081526020016040526040516119849493929190613675565b6020604051602081039080840390855afa1580156119a6573d6000803e3d6000fd5b50505060206040510351935050505092915050565b6119c433610a96565b611a03576040517f08c379a00000000000000000000000000000000000000000000000000000000081526004016119fa906127ac565b60405180910390fd5b6000806002600a806020026040519081016040528092919082600a8015611a3f576020028201915b815481526020019060010190808311611a2b575b5050505050905060005b600a811015611af957838282600a8110611a6657611a65612ba5565b5b60200201511415611aac576040517f08c379a0000000000000000000000000000000000000000000000000000000008152600401611aa390613706565b60405180910390fd5b8183600a8110611abf57611abe612ba5565b5b60200201518282600a8110611ad757611ad6612ba5565b5b60200201511015611ae6578092505b8080611af190612c03565b915050611a49565b508082600a8110611b0d57611b0c612ba5565b5b60200201518311611b53576040517f08c379a0000000000000000000000000000000000000000000000000000000008152600401611b4a90613772565b60405180910390fd5b6127108183600a8110611b6957611b68612ba5565b5b6020020151611b789190612c4c565b831115611bba576040517f08c379a0000000000000000000000000000000000000000000000000000000008152600401611bb1906137de565b60405180910390fd5b82600283600a8110611bcf57611bce612ba5565b5b0181905550505050565b600073ffffffffffffffffffffffffffffffffffffffff82169050919050565b6000611c0482611bd9565b9050919050565b611c1481611bf9565b82525050565b6000819050919050565b611c2d81611c1a565b82525050565b600082825260208201905092915050565b50565b6000611c54600083611c33565b9150611c5f82611c44565b600082019050919050565b6000606082019050611c7f6000830185611c0b565b611c8c6020830184611c24565b8181036040830152611c9d81611c47565b90509392505050565b82818337600083830152505050565b6000601f19601f8301169050919050565b6000611cd28385611c33565b9350611cdf838584611ca6565b611ce883611cb5565b840190509392505050565b6000606082019050611d086000830187611c0b565b611d156020830186611c24565b8181036040830152611d28818486611cc6565b905095945050505050565b6000604051905090565b600080fd5b600080fd5b60007fffffffff0000000000000000000000000000000000000000000000000000000082169050919050565b611d7c81611d47565b8114611d8757600080fd5b50565b600081359050611d9981611d73565b92915050565b600060208284031215611db557611db4611d3d565b5b6000611dc384828501611d8a565b91505092915050565b60008115159050919050565b611de181611dcc565b82525050565b6000602082019050611dfc6000830184611dd8565b92915050565b611e0b81611bf9565b8114611e1657600080fd5b50565b600081359050611e2881611e02565b92915050565b611e3781611c1a565b8114611e4257600080fd5b50565b600081359050611e5481611e2e565b92915050565b600080fd5b600080fd5b600080fd5b60008083601f840112611e7f57611e7e611e5a565b5b8235905067ffffffffffffffff811115611e9c57611e9b611e5f565b5b602083019150836001820283011115611eb857611eb7611e64565b5b9250929050565b600080600080600080600060c0888a031215611ede57611edd611d3d565b5b6000611eec8a828b01611e19565b9750506020611efd8a828b01611e45565b9650506040611f0e8a828b01611e19565b9550506060611f1f8a828b01611e45565b9450506080611f308a828b01611e45565b93505060a088013567ffffffffffffffff811115611f5157611f50611d42565b5b611f5d8a828b01611e69565b925092505092959891949750929550565b600080fd5b7f4e487b7100000000000000000000000000000000000000000000000000000000600052604160045260246000fd5b611fab82611cb5565b810181811067ffffffffffffffff82111715611fca57611fc9611f73565b5b80604052505050565b6000611fdd611d33565b9050611fe98282611fa2565b919050565b600067ffffffffffffffff82111561200957612008611f73565b5b61201282611cb5565b9050602081019050919050565b600061203261202d84611fee565b611fd3565b90508281526020810184848401111561204e5761204d611f6e565b5b612059848285611ca6565b509392505050565b600082601f83011261207657612075611e5a565b5b813561208684826020860161201f565b91505092915050565b600080600080608085870312156120a9576120a8611d3d565b5b60006120b787828801611e19565b94505060206120c887828801611e19565b93505060406120d987828801611e45565b925050606085013567ffffffffffffffff8111156120fa576120f9611d42565b5b61210687828801612061565b91505092959194509250565b61211b81611d47565b82525050565b60006020820190506121366000830184612112565b92915050565b600061214782611bd9565b9050919050565b6121578161213c565b811461216257600080fd5b50565b6000813590506121748161214e565b92915050565b6000806040838503121561219157612190611d3d565b5b600061219f85828601612165565b92505060206121b085828601611e19565b9150509250929050565b60008083601f8401126121d0576121cf611e5a565b5b8235905067ffffffffffffffff8111156121ed576121ec611e5f565b5b60208301915083602082028301111561220957612208611e64565b5b9250929050565b6000806000806060858703121561222a57612229611d3d565b5b600061223887828801612165565b945050602061224987828801611e19565b935050604085013567ffffffffffffffff81111561226a57612269611d42565b5b612276878288016121ba565b925092505092959194509250565b60008060008060008060008060c0898b0312156122a4576122a3611d3d565b5b60006122b28b828c01611e19565b98505060206122c38b828c01611e45565b975050604089013567ffffffffffffffff8111156122e4576122e3611d42565b5b6122f08b828c01611e69565b965096505060606123038b828c01611e45565b94505060806123148b828c01611e45565b93505060a089013567ffffffffffffffff81111561233557612334611d42565b5b6123418b828c01611e69565b92509250509295985092959890939650565b60008060006060848603121561236c5761236b611d3d565b5b600061237a86828701612165565b935050602061238b86828701611e19565b925050604061239c86828701611e45565b9150509250925092565b6000602082840312156123bc576123bb611d3d565b5b60006123ca84828501611e19565b91505092915050565b6123dc81611dcc565b81146123e757600080fd5b50565b6000813590506123f9816123d3565b92915050565b6000806040838503121561241657612415611d3d565b5b600061242485828601611e19565b9250506020612435858286016123ea565b9150509250929050565b60006020820190506124546000830184611c24565b92915050565b60008083601f8401126124705761246f611e5a565b5b8235905067ffffffffffffffff81111561248d5761248c611e5f565b5b6020830191508360208202830111156124a9576124a8611e64565b5b9250929050565b60008060008060008060008060a0898b0312156124d0576124cf611d3d565b5b600089013567ffffffffffffffff8111156124ee576124ed611d42565b5b6124fa8b828c0161245a565b9850985050602089013567ffffffffffffffff81111561251d5761251c611d42565b5b6125298b828c016121ba565b9650965050604061253c8b828c01611e45565b945050606061254d8b828c01611e45565b935050608089013567ffffffffffffffff81111561256e5761256d611d42565b5b61257a8b828c01611e69565b92509250509295985092959890939650565b60008060008060008060008060a0898b0312156125ac576125ab611d3d565b5b60006125ba8b828c01611e19565b98505060206125cb8b828c01611e19565b975050604089013567ffffffffffffffff8111156125ec576125eb611d42565b5b6125f88b828c016121ba565b9650965050606089013567ffffffffffffffff81111561261b5761261a611d42565b5b6126278b828c016121ba565b9450945050608089013567ffffffffffffffff81111561264a57612649611d42565b5b6126568b828c01611e69565b92509250509295985092959890939650565b6000806020838503121561267f5761267e611d3d565b5b600083013567ffffffffffffffff81111561269d5761269c611d42565b5b6126a98582860161245a565b92509250509250929050565b60008060008060008060a087890312156126d2576126d1611d3d565b5b60006126e089828a01611e19565b96505060206126f189828a01611e19565b955050604061270289828a01611e45565b945050606061271389828a01611e45565b935050608087013567ffffffffffffffff81111561273457612733611d42565b5b61274089828a01611e69565b92509250509295509295509295565b600082825260208201905092915050565b7f4e6f6e2d7369676e657220696e206f6e6c795369676e6572206d6574686f6400600082015250565b6000612796601f8361274f565b91506127a182612760565b602082019050919050565b600060208201905081810360008301526127c581612789565b9050919050565b600081519050919050565b600081905092915050565b60005b838110156128005780820151818401526020810190506127e5565b8381111561280f576000848401525b50505050565b6000612820826127cc565b61282a81856127d7565b935061283a8185602086016127e2565b80840191505092915050565b60008160601b9050919050565b600061285e82612846565b9050919050565b600061287082612853565b9050919050565b61288861288382611bf9565b612865565b82525050565b6000819050919050565b6128a96128a482611c1a565b61288e565b82525050565b60006128bb8289612815565b91506128c78288612877565b6014820191506128d78287612898565b6020820191506128e78286612877565b6014820191506128f78285612898565b6020820191506129078284612898565b602082019150819050979650505050505050565b60006020820190506129306000830184611c0b565b92915050565b600082825260208201905092915050565b600080fd5b60006129588385612936565b93507f07ffffffffffffffffffffffffffffffffffffffffffffffffffffffffffffff83111561298b5761298a612947565b5b60208302925061299c838584611ca6565b82840190509392505050565b60006040820190506129bd6000830186611c0b565b81810360208301526129d081848661294c565b9050949350505050565b600081905092915050565b60006129f183856129da565b93506129fe838584611ca6565b82840190509392505050565b6000612a16828a612815565b9150612a228289612877565b601482019150612a328288612898565b602082019150612a438286886129e5565b9150612a4f8285612898565b602082019150612a5f8284612898565b60208201915081905098975050505050505050565b6000612a818284866129e5565b91508190509392505050565b7f43616c6c20657865637574696f6e206661696c65640000000000000000000000600082015250565b6000612ac360158361274f565b9150612ace82612a8d565b602082019050919050565b60006020820190508181036000830152612af281612ab6565b9050919050565b6000819050919050565b612b0c81612af9565b82525050565b600060c082019050612b27600083018a611c0b565b612b346020830189611c0b565b612b416040830188612b03565b612b4e6060830187611c0b565b612b5b6080830186611c24565b81810360a0830152612b6e818486611cc6565b905098975050505050505050565b6000604082019050612b916000830185611c0b565b612b9e6020830184611c24565b9392505050565b7f4e487b7100000000000000000000000000000000000000000000000000000000600052603260045260246000fd5b7f4e487b7100000000000000000000000000000000000000000000000000000000600052601160045260246000fd5b6000612c0e82611c1a565b91507fffffffffffffffffffffffffffffffffffffffffffffffffffffffffffffffff821415612c4157612c40612bd4565b5b600182019050919050565b6000612c5782611c1a565b9150612c6283611c1a565b9250827fffffffffffffffffffffffffffffffffffffffffffffffffffffffffffffffff03821115612c9757612c96612bd4565b5b828201905092915050565b7f4e6f7420656e6f75676820726563697069656e74730000000000000000000000600082015250565b6000612cd860158361274f565b9150612ce382612ca2565b602082019050919050565b60006020820190508181036000830152612d0781612ccb565b9050919050565b7f556e657175616c20726563697069656e747320616e642076616c756573000000600082015250565b6000612d44601d8361274f565b9150612d4f82612d0e565b602082019050919050565b60006020820190508181036000830152612d7381612d37565b9050919050565b7f546f6f206d616e7920726563697069656e74732c206d61782032353500000000600082015250565b6000612db0601c8361274f565b9150612dbb82612d7a565b602082019050919050565b60006020820190508181036000830152612ddf81612da3565b9050919050565b600081905092915050565b6000819050919050565b612e0481611bf9565b82525050565b6000612e168383612dfb565b60208301905092915050565b6000612e316020840184611e19565b905092915050565b6000602082019050919050565b6000612e528385612de6565b9350612e5d82612df1565b8060005b85811015612e9657612e738284612e22565b612e7d8882612e0a565b9750612e8883612e39565b925050600181019050612e61565b5085925050509392505050565b600081905092915050565b6000612eba8385612ea3565b93507f07ffffffffffffffffffffffffffffffffffffffffffffffffffffffffffffff831115612eed57612eec612947565b5b602083029250612efe838584611ca6565b82840190509392505050565b6000612f16828a612815565b9150612f2382888a612e46565b9150612f30828688612eae565b9150612f3c8285612898565b602082019150612f4c8284612898565b60208201915081905098975050505050505050565b7f426174636820696e2073616665206d6f64650000000000000000000000000000600082015250565b6000612f9760128361274f565b9150612fa282612f61565b602082019050919050565b60006020820190508181036000830152612fc681612f8a565b9050919050565b6000606082019050612fe26000830186611c0b565b612fef6020830185611c0b565b612ffc6040830184612b03565b949350505050565b7f436f6e747261637420616c726561647920696e697469616c697a656400000000600082015250565b600061303a601c8361274f565b915061304582613004565b602082019050919050565b600060208201905081810360008301526130698161302d565b9050919050565b7f496e76616c6964206e756d626572206f66207369676e65727300000000000000600082015250565b60006130a660198361274f565b91506130b182613070565b602082019050919050565b600060208201905081810360008301526130d581613099565b9050919050565b7f496e76616c6964207369676e6572000000000000000000000000000000000000600082015250565b6000613112600e8361274f565b915061311d826130dc565b602082019050919050565b6000602082019050818103600083015261314181613105565b9050919050565b600060ff82169050919050565b600061316082613148565b915060ff82141561317457613173612bd4565b5b600182019050919050565b7f45787465726e616c207472616e7366657220696e2073616665206d6f64650000600082015250565b60006131b5601e8361274f565b91506131c08261317f565b602082019050919050565b600060208201905081810360008301526131e4816131a8565b9050919050565b7f5472616e73616374696f6e206578706972656400000000000000000000000000600082015250565b600061322160138361274f565b915061322c826131eb565b602082019050919050565b6000602082019050818103600083015261325081613214565b9050919050565b7f5369676e6572732063616e6e6f7420626520657175616c000000000000000000600082015250565b600061328d60178361274f565b915061329882613257565b602082019050919050565b600060208201905081810360008301526132bc81613280565b9050919050565b600081519050919050565b60006132d9826132c3565b6132e381856129da565b93506132f38185602086016127e2565b80840191505092915050565b600061330b82846132ce565b915081905092915050565b600081519050613325816123d3565b92915050565b60006020828403121561334157613340611d3d565b5b600061334f84828501613316565b91505092915050565b7f5472616e7366657248656c7065723a3a736166655472616e736665723a20747260008201527f616e73666572206661696c656400000000000000000000000000000000000000602082015250565b60006133b4602d8361274f565b91506133bf82613358565b604082019050919050565b600060208201905081810360008301526133e3816133a7565b9050919050565b7f496e73756666696369656e742066756e64730000000000000000000000000000600082015250565b600061342060128361274f565b915061342b826133ea565b602082019050919050565b6000602082019050818103600083015261344f81613413565b9050919050565b60006134636000836129da565b915061346e82611c44565b600082019050919050565b600061348482613456565b9150819050919050565b7f43616c6c206661696c6564000000000000000000000000000000000000000000600082015250565b60006134c4600b8361274f565b91506134cf8261348e565b602082019050919050565b600060208201905081810360008301526134f3816134b7565b9050919050565b600060608201905061350f6000830186611c0b565b61351c6020830185611c0b565b6135296040830184611c24565b949350505050565b7f496e76616c6964207369676e6174757265202d2077726f6e67206c656e677468600082015250565b600061356760208361274f565b915061357282613531565b602082019050919050565b600060208201905081810360008301526135968161355a565b9050919050565b60006135a882613148565b91506135b383613148565b92508260ff038211156135c9576135c8612bd4565b5b828201905092915050565b7f45434453413a20696e76616c6964207369676e6174757265202773272076616c60008201527f7565000000000000000000000000000000000000000000000000000000000000602082015250565b600061363060228361274f565b915061363b826135d4565b604082019050919050565b6000602082019050818103600083015261365f81613623565b9050919050565b61366f81613148565b82525050565b600060808201905061368a6000830187612b03565b6136976020830186613666565b6136a46040830185612b03565b6136b16060830184612b03565b95945050505050565b7f53657175656e636520494420616c726561647920757365640000000000000000600082015250565b60006136f060188361274f565b91506136fb826136ba565b602082019050919050565b6000602082019050818103600083015261371f816136e3565b9050919050565b7f53657175656e63652049442062656c6f772077696e646f770000000000000000600082015250565b600061375c60188361274f565b915061376782613726565b602082019050919050565b6000602082019050818103600083015261378b8161374f565b9050919050565b7f53657175656e63652049442061626f7665206d6178696d756d00000000000000600082015250565b60006137c860198361274f565b91506137d382613792565b602082019050919050565b600060208201905081810360008301526137f7816137bb565b905091905056fea26469706673582212202b3aadfb47e4cfc48a7db3705868c20cbd544a38d3b428efa7500f44578265dc64736f6c634300080a0033",
			"opcodes": "PUSH1 0x80 PUSH1 0x40 MSTORE PUSH1 0x0 PUSH1 0x1 PUSH1 0x0 PUSH2 0x100 EXP DUP2 SLOAD DUP2 PUSH1 0xFF MUL NOT AND SWAP1 DUP4 ISZERO ISZERO MUL OR SWAP1 SSTORE POP PUSH1 0x0 PUSH1 0x1 DUP1 PUSH2 0x100 EXP DUP2 SLOAD DUP2 PUSH1 0xFF MUL NOT AND SWAP1 DUP4 ISZERO ISZERO MUL OR SWAP1 SSTORE POP CALLVALUE DUP1 ISZERO PUSH2 0x45 JUMPI PUSH1 0x0 DUP1 REVERT JUMPDEST POP PUSH2 0x3834 DUP1 PUSH2 0x55 PUSH1 0x0 CODECOPY PUSH1 0x0 RETURN INVALID PUSH1 0x80 PUSH1 0x40 MSTORE PUSH1 0x4 CALLDATASIZE LT PUSH2 0x123 JUMPI PUSH1 0x0 CALLDATALOAD PUSH1 0xE0 SHR DUP1 PUSH4 0x92467776 GT PUSH2 0xA0 JUMPI DUP1 PUSH4 0xC1378784 GT PUSH2 0x64 JUMPI DUP1 PUSH4 0xC1378784 EQ PUSH2 0x488 JUMPI DUP1 PUSH4 0xC6044C46 EQ PUSH2 0x4B1 JUMPI DUP1 PUSH4 0xE6BD0AA4 EQ PUSH2 0x4DA JUMPI DUP1 PUSH4 0xF23A6E61 EQ PUSH2 0x503 JUMPI DUP1 PUSH4 0xFC0F392D EQ PUSH2 0x540 JUMPI PUSH2 0x16D JUMP JUMPDEST DUP1 PUSH4 0x92467776 EQ PUSH2 0x3A3 JUMPI DUP1 PUSH4 0xA0B7967B EQ PUSH2 0x3CC JUMPI DUP1 PUSH4 0xABE3219C EQ PUSH2 0x3F7 JUMPI DUP1 PUSH4 0xAD3AD709 EQ PUSH2 0x422 JUMPI DUP1 PUSH4 0xBC197C81 EQ PUSH2 0x44B JUMPI PUSH2 0x16D JUMP JUMPDEST DUP1 PUSH4 0x34F94047 GT PUSH2 0xE7 JUMPI DUP1 PUSH4 0x34F94047 EQ PUSH2 0x2AE JUMPI DUP1 PUSH4 0x39125215 EQ PUSH2 0x2D7 JUMPI DUP1 PUSH4 0x5A953D0A EQ PUSH2 0x300 JUMPI DUP1 PUSH4 0x736C0D5B EQ PUSH2 0x329 JUMPI DUP1 PUSH4 0x7DF73E27 EQ PUSH2 0x366 JUMPI PUSH2 0x16D JUMP JUMPDEST DUP1 PUSH4 0x1FFC9A7 EQ PUSH2 0x1B7 JUMPI DUP1 PUSH4 0xDCD7A6C EQ PUSH2 0x1F4 JUMPI DUP1 PUSH4 0x150B7A02 EQ PUSH2 0x21D JUMPI DUP1 PUSH4 0x158EF93E EQ PUSH2 0x25A JUMPI DUP1 PUSH4 0x2DA03409 EQ PUSH2 0x285 JUMPI PUSH2 0x16D JUMP JUMPDEST CALLDATASIZE PUSH2 0x16D JUMPI PUSH1 0x0 CALLVALUE GT ISZERO PUSH2 0x16B JUMPI PUSH32 0x6E89D517057028190560DD200CF6BF792842861353D1173761DFA362E1C133F0 CALLER CALLVALUE PUSH1 0x40 MLOAD PUSH2 0x162 SWAP3 SWAP2 SWAP1 PUSH2 0x1C6A JUMP JUMPDEST PUSH1 0x40 MLOAD DUP1 SWAP2 SUB SWAP1 LOG1 JUMPDEST STOP JUMPDEST PUSH1 0x0 CALLVALUE GT ISZERO PUSH2 0x1B5 JUMPI PUSH32 0x6E89D517057028190560DD200CF6BF792842861353D1173761DFA362E1C133F0 CALLER CALLVALUE PUSH1 0x0 CALLDATASIZE PUSH1 0x40 MLOAD PUSH2 0x1AC SWAP5 SWAP4 SWAP3 SWAP2 SWAP1 PUSH2 0x1CF3 JUMP JUMPDEST PUSH1 0x40 MLOAD DUP1 SWAP2 SUB SWAP1 LOG1 JUMPDEST STOP JUMPDEST CALLVALUE DUP1 ISZERO PUSH2 0x1C3 JUMPI PUSH1 0x0 DUP1 REVERT JUMPDEST POP PUSH2 0x1DE PUSH1 0x4 DUP1 CALLDATASIZE SUB DUP2 ADD SWAP1 PUSH2 0x1D9 SWAP2 SWAP1 PUSH2 0x1D9F JUMP JUMPDEST PUSH2 0x557 JUMP JUMPDEST PUSH1 0x40 MLOAD PUSH2 0x1EB SWAP2 SWAP1 PUSH2 0x1DE7 JUMP JUMPDEST PUSH1 0x40 MLOAD DUP1 SWAP2 SUB SWAP1 RETURN JUMPDEST CALLVALUE DUP1 ISZERO PUSH2 0x200 JUMPI PUSH1 0x0 DUP1 REVERT JUMPDEST POP PUSH2 0x21B PUSH1 0x4 DUP1 CALLDATASIZE SUB DUP2 ADD SWAP1 PUSH2 0x216 SWAP2 SWAP1 PUSH2 0x1EBF JUMP JUMPDEST PUSH2 0x5D1 JUMP JUMPDEST STOP JUMPDEST CALLVALUE DUP1 ISZERO PUSH2 0x229 JUMPI PUSH1 0x0 DUP1 REVERT JUMPDEST POP PUSH2 0x244 PUSH1 0x4 DUP1 CALLDATASIZE SUB DUP2 ADD SWAP1 PUSH2 0x23F SWAP2 SWAP1 PUSH2 0x208F JUMP JUMPDEST PUSH2 0x679 JUMP JUMPDEST PUSH1 0x40 MLOAD PUSH2 0x251 SWAP2 SWAP1 PUSH2 0x2121 JUMP JUMPDEST PUSH1 0x40 MLOAD DUP1 SWAP2 SUB SWAP1 RETURN JUMPDEST CALLVALUE DUP1 ISZERO PUSH2 0x266 JUMPI PUSH1 0x0 DUP1 REVERT JUMPDEST POP PUSH2 0x26F PUSH2 0x68D JUMP JUMPDEST PUSH1 0x40 MLOAD PUSH2 0x27C SWAP2 SWAP1 PUSH2 0x1DE7 JUMP JUMPDEST PUSH1 0x40 MLOAD DUP1 SWAP2 SUB SWAP1 RETURN JUMPDEST CALLVALUE DUP1 ISZERO PUSH2 0x291 JUMPI PUSH1 0x0 DUP1 REVERT JUMPDEST POP PUSH2 0x2AC PUSH1 0x4 DUP1 CALLDATASIZE SUB DUP2 ADD SWAP1 PUSH2 0x2A7 SWAP2 SWAP1 PUSH2 0x217A JUMP JUMPDEST PUSH2 0x69E JUMP JUMPDEST STOP JUMPDEST CALLVALUE DUP1 ISZERO PUSH2 0x2BA JUMPI PUSH1 0x0 DUP1 REVERT JUMPDEST POP PUSH2 0x2D5 PUSH1 0x4 DUP1 CALLDATASIZE SUB DUP2 ADD SWAP1 PUSH2 0x2D0 SWAP2 SWAP1 PUSH2 0x2210 JUMP JUMPDEST PUSH2 0x75B JUMP JUMPDEST STOP JUMPDEST CALLVALUE DUP1 ISZERO PUSH2 0x2E3 JUMPI PUSH1 0x0 DUP1 REVERT JUMPDEST POP PUSH2 0x2FE PUSH1 0x4 DUP1 CALLDATASIZE SUB DUP2 ADD SWAP1 PUSH2 0x2F9 SWAP2 SWAP1 PUSH2 0x2284 JUMP JUMPDEST PUSH2 0x81E JUMP JUMPDEST STOP JUMPDEST CALLVALUE DUP1 ISZERO PUSH2 0x30C JUMPI PUSH1 0x0 DUP1 REVERT JUMPDEST POP PUSH2 0x327 PUSH1 0x4 DUP1 CALLDATASIZE SUB DUP2 ADD SWAP1 PUSH2 0x322 SWAP2 SWAP1 PUSH2 0x2353 JUMP JUMPDEST PUSH2 0x9B6 JUMP JUMPDEST STOP JUMPDEST CALLVALUE DUP1 ISZERO PUSH2 0x335 JUMPI PUSH1 0x0 DUP1 REVERT JUMPDEST POP PUSH2 0x350 PUSH1 0x4 DUP1 CALLDATASIZE SUB DUP2 ADD SWAP1 PUSH2 0x34B SWAP2 SWAP1 PUSH2 0x23A6 JUMP JUMPDEST PUSH2 0xA76 JUMP JUMPDEST PUSH1 0x40 MLOAD PUSH2 0x35D SWAP2 SWAP1 PUSH2 0x1DE7 JUMP JUMPDEST PUSH1 0x40 MLOAD DUP1 SWAP2 SUB SWAP1 RETURN JUMPDEST CALLVALUE DUP1 ISZERO PUSH2 0x372 JUMPI PUSH1 0x0 DUP1 REVERT JUMPDEST POP PUSH2 0x38D PUSH1 0x4 DUP1 CALLDATASIZE SUB DUP2 ADD SWAP1 PUSH2 0x388 SWAP2 SWAP1 PUSH2 0x23A6 JUMP JUMPDEST PUSH2 0xA96 JUMP JUMPDEST PUSH1 0x40 MLOAD PUSH2 0x39A SWAP2 SWAP1 PUSH2 0x1DE7 JUMP JUMPDEST PUSH1 0x40 MLOAD DUP1 SWAP2 SUB SWAP1 RETURN JUMPDEST CALLVALUE DUP1 ISZERO PUSH2 0x3AF JUMPI PUSH1 0x0 DUP1 REVERT JUMPDEST POP PUSH2 0x3CA PUSH1 0x4 DUP1 CALLDATASIZE SUB DUP2 ADD SWAP1 PUSH2 0x3C5 SWAP2 SWAP1 PUSH2 0x23FF JUMP JUMPDEST PUSH2 0xAEB JUMP JUMPDEST STOP JUMPDEST CALLVALUE DUP1 ISZERO PUSH2 0x3D8 JUMPI PUSH1 0x0 DUP1 REVERT JUMPDEST POP PUSH2 0x3E1 PUSH2 0xBA8 JUMP JUMPDEST PUSH1 0x40 MLOAD PUSH2 0x3EE SWAP2 SWAP1 PUSH2 0x243F JUMP JUMPDEST PUSH1 0x40 MLOAD DUP1 SWAP2 SUB SWAP1 RETURN JUMPDEST CALLVALUE DUP1 ISZERO PUSH2 0x403 JUMPI PUSH1 0x0 DUP1 REVERT JUMPDEST POP PUSH2 0x40C PUSH2 0xC18 JUMP JUMPDEST PUSH1 0x40 MLOAD PUSH2 0x419 SWAP2 SWAP1 PUSH2 0x1DE7 JUMP JUMPDEST PUSH1 0x40 MLOAD DUP1 SWAP2 SUB SWAP1 RETURN JUMPDEST CALLVALUE DUP1 ISZERO PUSH2 0x42E JUMPI PUSH1 0x0 DUP1 REVERT JUMPDEST POP PUSH2 0x449 PUSH1 0x4 DUP1 CALLDATASIZE SUB DUP2 ADD SWAP1 PUSH2 0x444 SWAP2 SWAP1 PUSH2 0x24B0 JUMP JUMPDEST PUSH2 0xC2B JUMP JUMPDEST STOP JUMPDEST CALLVALUE DUP1 ISZERO PUSH2 0x457 JUMPI PUSH1 0x0 DUP1 REVERT JUMPDEST POP PUSH2 0x472 PUSH1 0x4 DUP1 CALLDATASIZE SUB DUP2 ADD SWAP1 PUSH2 0x46D SWAP2 SWAP1 PUSH2 0x258C JUMP JUMPDEST PUSH2 0xE3D JUMP JUMPDEST PUSH1 0x40 MLOAD PUSH2 0x47F SWAP2 SWAP1 PUSH2 0x2121 JUMP JUMPDEST PUSH1 0x40 MLOAD DUP1 SWAP2 SUB SWAP1 RETURN JUMPDEST CALLVALUE DUP1 ISZERO PUSH2 0x494 JUMPI PUSH1 0x0 DUP1 REVERT JUMPDEST POP PUSH2 0x4AF PUSH1 0x4 DUP1 CALLDATASIZE SUB DUP2 ADD SWAP1 PUSH2 0x4AA SWAP2 SWAP1 PUSH2 0x23FF JUMP JUMPDEST PUSH2 0xE55 JUMP JUMPDEST STOP JUMPDEST CALLVALUE DUP1 ISZERO PUSH2 0x4BD JUMPI PUSH1 0x0 DUP1 REVERT JUMPDEST POP PUSH2 0x4D8 PUSH1 0x4 DUP1 CALLDATASIZE SUB DUP2 ADD SWAP1 PUSH2 0x4D3 SWAP2 SWAP1 PUSH2 0x2668 JUMP JUMPDEST PUSH2 0xF12 JUMP JUMPDEST STOP JUMPDEST CALLVALUE DUP1 ISZERO PUSH2 0x4E6 JUMPI PUSH1 0x0 DUP1 REVERT JUMPDEST POP PUSH2 0x501 PUSH1 0x4 DUP1 CALLDATASIZE SUB DUP2 ADD SWAP1 PUSH2 0x4FC SWAP2 SWAP1 PUSH2 0x2353 JUMP JUMPDEST PUSH2 0x1104 JUMP JUMPDEST STOP JUMPDEST CALLVALUE DUP1 ISZERO PUSH2 0x50F JUMPI PUSH1 0x0 DUP1 REVERT JUMPDEST POP PUSH2 0x52A PUSH1 0x4 DUP1 CALLDATASIZE SUB DUP2 ADD SWAP1 PUSH2 0x525 SWAP2 SWAP1 PUSH2 0x26B5 JUMP JUMPDEST PUSH2 0x11C4 JUMP JUMPDEST PUSH1 0x40 MLOAD PUSH2 0x537 SWAP2 SWAP1 PUSH2 0x2121 JUMP JUMPDEST PUSH1 0x40 MLOAD DUP1 SWAP2 SUB SWAP1 RETURN JUMPDEST CALLVALUE DUP1 ISZERO PUSH2 0x54C JUMPI PUSH1 0x0 DUP1 REVERT JUMPDEST POP PUSH2 0x555 PUSH2 0x11DA JUMP JUMPDEST STOP JUMPDEST PUSH1 0x0 PUSH32 0x4E2312E000000000000000000000000000000000000000000000000000000000 PUSH28 0xFFFFFFFFFFFFFFFFFFFFFFFFFFFFFFFFFFFFFFFFFFFFFFFFFFFFFFFF NOT AND DUP3 PUSH28 0xFFFFFFFFFFFFFFFFFFFFFFFFFFFFFFFFFFFFFFFFFFFFFFFFFFFFFFFF NOT AND EQ DUP1 PUSH2 0x5CA JUMPI POP PUSH2 0x5C9 DUP3 PUSH2 0x1275 JUMP JUMPDEST JUMPDEST SWAP1 POP SWAP2 SWAP1 POP JUMP JUMPDEST PUSH2 0x5DA CALLER PUSH2 0xA96 JUMP JUMPDEST PUSH2 0x619 JUMPI PUSH1 0x40 MLOAD PUSH32 0x8C379A000000000000000000000000000000000000000000000000000000000 DUP2 MSTORE PUSH1 0x4 ADD PUSH2 0x610 SWAP1 PUSH2 0x27AC JUMP JUMPDEST PUSH1 0x40 MLOAD DUP1 SWAP2 SUB SWAP1 REVERT JUMPDEST PUSH1 0x0 PUSH2 0x623 PUSH2 0x12DF JUMP JUMPDEST DUP9 DUP9 DUP9 DUP9 DUP9 PUSH1 0x40 MLOAD PUSH1 0x20 ADD PUSH2 0x63D SWAP7 SWAP6 SWAP5 SWAP4 SWAP3 SWAP2 SWAP1 PUSH2 0x28AF JUMP JUMPDEST PUSH1 0x40 MLOAD PUSH1 0x20 DUP2 DUP4 SUB SUB DUP2 MSTORE SWAP1 PUSH1 0x40 MSTORE DUP1 MLOAD SWAP1 PUSH1 0x20 ADD KECCAK256 SWAP1 POP PUSH2 0x663 DUP9 DUP3 DUP6 DUP6 DUP10 DUP10 PUSH2 0x131C JUMP JUMPDEST POP PUSH2 0x66F DUP7 DUP10 DUP10 PUSH2 0x14E0 JUMP JUMPDEST POP POP POP POP POP POP POP POP JUMP JUMPDEST PUSH1 0x0 PUSH4 0x150B7A02 PUSH1 0xE0 SHL SWAP1 POP SWAP5 SWAP4 POP POP POP POP JUMP JUMPDEST PUSH1 0x1 DUP1 SLOAD SWAP1 PUSH2 0x100 EXP SWAP1 DIV PUSH1 0xFF AND DUP2 JUMP JUMPDEST PUSH2 0x6A7 CALLER PUSH2 0xA96 JUMP JUMPDEST PUSH2 0x6E6 JUMPI PUSH1 0x40 MLOAD PUSH32 0x8C379A000000000000000000000000000000000000000000000000000000000 DUP2 MSTORE PUSH1 0x4 ADD PUSH2 0x6DD SWAP1 PUSH2 0x27AC JUMP JUMPDEST PUSH1 0x40 MLOAD DUP1 SWAP2 SUB SWAP1 REVERT JUMPDEST PUSH1 0x0 DUP3 SWAP1 POP DUP1 PUSH20 0xFFFFFFFFFFFFFFFFFFFFFFFFFFFFFFFFFFFFFFFF AND PUSH4 0x3EF13367 DUP4 PUSH1 0x40 MLOAD DUP3 PUSH4 0xFFFFFFFF AND PUSH1 0xE0 SHL DUP2 MSTORE PUSH1 0x4 ADD PUSH2 0x724 SWAP2 SWAP1 PUSH2 0x291B JUMP JUMPDEST PUSH1 0x0 PUSH1 0x40 MLOAD DUP1 DUP4 SUB DUP2 PUSH1 0x0 DUP8 DUP1 EXTCODESIZE ISZERO DUP1 ISZERO PUSH2 0x73E JUMPI PUSH1 0x0 DUP1 REVERT JUMPDEST POP GAS CALL ISZERO DUP1 ISZERO PUSH2 0x752 JUMPI RETURNDATASIZE PUSH1 0x0 DUP1 RETURNDATACOPY RETURNDATASIZE PUSH1 0x0 REVERT JUMPDEST POP POP POP POP POP POP POP JUMP JUMPDEST PUSH2 0x764 CALLER PUSH2 0xA96 JUMP JUMPDEST PUSH2 0x7A3 JUMPI PUSH1 0x40 MLOAD PUSH32 0x8C379A000000000000000000000000000000000000000000000000000000000 DUP2 MSTORE PUSH1 0x4 ADD PUSH2 0x79A SWAP1 PUSH2 0x27AC JUMP JUMPDEST PUSH1 0x40 MLOAD DUP1 SWAP2 SUB SWAP1 REVERT JUMPDEST PUSH1 0x0 DUP5 SWAP1 POP DUP1 PUSH20 0xFFFFFFFFFFFFFFFFFFFFFFFFFFFFFFFFFFFFFFFF AND PUSH4 0xC6A2DD24 DUP6 DUP6 DUP6 PUSH1 0x40 MLOAD DUP5 PUSH4 0xFFFFFFFF AND PUSH1 0xE0 SHL DUP2 MSTORE PUSH1 0x4 ADD PUSH2 0x7E5 SWAP4 SWAP3 SWAP2 SWAP1 PUSH2 0x29A8 JUMP JUMPDEST PUSH1 0x0 PUSH1 0x40 MLOAD DUP1 DUP4 SUB DUP2 PUSH1 0x0 DUP8 DUP1 EXTCODESIZE ISZERO DUP1 ISZERO PUSH2 0x7FF JUMPI PUSH1 0x0 DUP1 REVERT JUMPDEST POP GAS CALL ISZERO DUP1 ISZERO PUSH2 0x813 JUMPI RETURNDATASIZE PUSH1 0x0 DUP1 RETURNDATACOPY RETURNDATASIZE PUSH1 0x0 REVERT JUMPDEST POP POP POP POP POP POP POP POP POP JUMP JUMPDEST PUSH2 0x827 CALLER PUSH2 0xA96 JUMP JUMPDEST PUSH2 0x866 JUMPI PUSH1 0x40 MLOAD PUSH32 0x8C379A000000000000000000000000000000000000000000000000000000000 DUP2 MSTORE PUSH1 0x4 ADD PUSH2 0x85D SWAP1 PUSH2 0x27AC JUMP JUMPDEST PUSH1 0x40 MLOAD DUP1 SWAP2 SUB SWAP1 REVERT JUMPDEST PUSH1 0x0 PUSH2 0x870 PUSH2 0x1616 JUMP JUMPDEST DUP10 DUP10 DUP10 DUP10 DUP10 DUP10 PUSH1 0x40 MLOAD PUSH1 0x20 ADD PUSH2 0x88C SWAP8 SWAP7 SWAP6 SWAP5 SWAP4 SWAP3 SWAP2 SWAP1 PUSH2 0x2A0A JUMP JUMPDEST PUSH1 0x40 MLOAD PUSH1 0x20 DUP2 DUP4 SUB SUB DUP2 MSTORE SWAP1 PUSH1 0x40 MSTORE DUP1 MLOAD SWAP1 PUSH1 0x20 ADD KECCAK256 SWAP1 POP PUSH1 0x0 PUSH2 0x8B4 DUP11 DUP4 DUP7 DUP7 DUP11 DUP11 PUSH2 0x131C JUMP JUMPDEST SWAP1 POP PUSH1 0x0 DUP11 PUSH20 0xFFFFFFFFFFFFFFFFFFFFFFFFFFFFFFFFFFFFFFFF AND DUP11 DUP11 DUP11 PUSH1 0x40 MLOAD PUSH2 0x8E0 SWAP3 SWAP2 SWAP1 PUSH2 0x2A74 JUMP JUMPDEST PUSH1 0x0 PUSH1 0x40 MLOAD DUP1 DUP4 SUB DUP2 DUP6 DUP8 GAS CALL SWAP3 POP POP POP RETURNDATASIZE DUP1 PUSH1 0x0 DUP2 EQ PUSH2 0x91D JUMPI PUSH1 0x40 MLOAD SWAP2 POP PUSH1 0x1F NOT PUSH1 0x3F RETURNDATASIZE ADD AND DUP3 ADD PUSH1 0x40 MSTORE RETURNDATASIZE DUP3 MSTORE RETURNDATASIZE PUSH1 0x0 PUSH1 0x20 DUP5 ADD RETURNDATACOPY PUSH2 0x922 JUMP JUMPDEST PUSH1 0x60 SWAP2 POP JUMPDEST POP POP SWAP1 POP DUP1 PUSH2 0x966 JUMPI PUSH1 0x40 MLOAD PUSH32 0x8C379A000000000000000000000000000000000000000000000000000000000 DUP2 MSTORE PUSH1 0x4 ADD PUSH2 0x95D SWAP1 PUSH2 0x2AD9 JUMP JUMPDEST PUSH1 0x40 MLOAD DUP1 SWAP2 SUB SWAP1 REVERT JUMPDEST PUSH32 0x59BED9AB5D78073465DD642A9E3E76DFDB7D53BCAE9D09DF7D0B8F5234D5A806 CALLER DUP4 DUP6 DUP15 DUP15 DUP15 DUP15 PUSH1 0x40 MLOAD PUSH2 0x9A1 SWAP8 SWAP7 SWAP6 SWAP5 SWAP4 SWAP3 SWAP2 SWAP1 PUSH2 0x2B12 JUMP JUMPDEST PUSH1 0x40 MLOAD DUP1 SWAP2 SUB SWAP1 LOG1 POP POP POP POP POP POP POP POP POP POP POP JUMP JUMPDEST PUSH2 0x9BF CALLER PUSH2 0xA96 JUMP JUMPDEST PUSH2 0x9FE JUMPI PUSH1 0x40 MLOAD PUSH32 0x8C379A000000000000000000000000000000000000000000000000000000000 DUP2 MSTORE PUSH1 0x4 ADD PUSH2 0x9F5 SWAP1 PUSH2 0x27AC JUMP JUMPDEST PUSH1 0x40 MLOAD DUP1 SWAP2 SUB SWAP1 REVERT JUMPDEST PUSH1 0x0 DUP4 SWAP1 POP DUP1 PUSH20 0xFFFFFFFFFFFFFFFFFFFFFFFFFFFFFFFFFFFFFFFF AND PUSH4 0x159E44D7 DUP5 DUP5 PUSH1 0x40 MLOAD DUP4 PUSH4 0xFFFFFFFF AND PUSH1 0xE0 SHL DUP2 MSTORE PUSH1 0x4 ADD PUSH2 0xA3E SWAP3 SWAP2 SWAP1 PUSH2 0x2B7C JUMP JUMPDEST PUSH1 0x0 PUSH1 0x40 MLOAD DUP1 DUP4 SUB DUP2 PUSH1 0x0 DUP8 DUP1 EXTCODESIZE ISZERO DUP1 ISZERO PUSH2 0xA58 JUMPI PUSH1 0x0 DUP1 REVERT JUMPDEST POP GAS CALL ISZERO DUP1 ISZERO PUSH2 0xA6C JUMPI RETURNDATASIZE PUSH1 0x0 DUP1 RETURNDATACOPY RETURNDATASIZE PUSH1 0x0 REVERT JUMPDEST POP POP POP POP POP POP POP POP JUMP JUMPDEST PUSH1 0x0 PUSH1 0x20 MSTORE DUP1 PUSH1 0x0 MSTORE PUSH1 0x40 PUSH1 0x0 KECCAK256 PUSH1 0x0 SWAP2 POP SLOAD SWAP1 PUSH2 0x100 EXP SWAP1 DIV PUSH1 0xFF AND DUP2 JUMP JUMPDEST PUSH1 0x0 DUP1 PUSH1 0x0 DUP4 PUSH20 0xFFFFFFFFFFFFFFFFFFFFFFFFFFFFFFFFFFFFFFFF AND PUSH20 0xFFFFFFFFFFFFFFFFFFFFFFFFFFFFFFFFFFFFFFFF AND DUP2 MSTORE PUSH1 0x20 ADD SWAP1 DUP2 MSTORE PUSH1 0x20 ADD PUSH1 0x0 KECCAK256 PUSH1 0x0 SWAP1 SLOAD SWAP1 PUSH2 0x100 EXP SWAP1 DIV PUSH1 0xFF AND SWAP1 POP SWAP2 SWAP1 POP JUMP JUMPDEST PUSH2 0xAF4 CALLER PUSH2 0xA96 JUMP JUMPDEST PUSH2 0xB33 JUMPI PUSH1 0x40 MLOAD PUSH32 0x8C379A000000000000000000000000000000000000000000000000000000000 DUP2 MSTORE PUSH1 0x4 ADD PUSH2 0xB2A SWAP1 PUSH2 0x27AC JUMP JUMPDEST PUSH1 0x40 MLOAD DUP1 SWAP2 SUB SWAP1 REVERT JUMPDEST PUSH1 0x0 DUP3 SWAP1 POP DUP1 PUSH20 0xFFFFFFFFFFFFFFFFFFFFFFFFFFFFFFFFFFFFFFFF AND PUSH4 0x8ACC01BE DUP4 PUSH1 0x40 MLOAD DUP3 PUSH4 0xFFFFFFFF AND PUSH1 0xE0 SHL DUP2 MSTORE PUSH1 0x4 ADD PUSH2 0xB71 SWAP2 SWAP1 PUSH2 0x1DE7 JUMP JUMPDEST PUSH1 0x0 PUSH1 0x40 MLOAD DUP1 DUP4 SUB DUP2 PUSH1 0x0 DUP8 DUP1 EXTCODESIZE ISZERO DUP1 ISZERO PUSH2 0xB8B JUMPI PUSH1 0x0 DUP1 REVERT JUMPDEST POP GAS CALL ISZERO DUP1 ISZERO PUSH2 0xB9F JUMPI RETURNDATASIZE PUSH1 0x0 DUP1 RETURNDATACOPY RETURNDATASIZE PUSH1 0x0 REVERT JUMPDEST POP POP POP POP POP POP POP JUMP JUMPDEST PUSH1 0x0 DUP1 PUSH1 0x0 SWAP1 POP PUSH1 0x0 JUMPDEST PUSH1 0xA DUP2 LT ISZERO PUSH2 0xC04 JUMPI DUP2 PUSH1 0x2 DUP3 PUSH1 0xA DUP2 LT PUSH2 0xBD0 JUMPI PUSH2 0xBCF PUSH2 0x2BA5 JUMP JUMPDEST JUMPDEST ADD SLOAD GT ISZERO PUSH2 0xBF1 JUMPI PUSH1 0x2 DUP2 PUSH1 0xA DUP2 LT PUSH2 0xBEC JUMPI PUSH2 0xBEB PUSH2 0x2BA5 JUMP JUMPDEST JUMPDEST ADD SLOAD SWAP2 POP JUMPDEST DUP1 DUP1 PUSH2 0xBFC SWAP1 PUSH2 0x2C03 JUMP JUMPDEST SWAP2 POP POP PUSH2 0xBB2 JUMP JUMPDEST POP PUSH1 0x1 DUP2 PUSH2 0xC12 SWAP2 SWAP1 PUSH2 0x2C4C JUMP JUMPDEST SWAP2 POP POP SWAP1 JUMP JUMPDEST PUSH1 0x1 PUSH1 0x0 SWAP1 SLOAD SWAP1 PUSH2 0x100 EXP SWAP1 DIV PUSH1 0xFF AND DUP2 JUMP JUMPDEST PUSH2 0xC34 CALLER PUSH2 0xA96 JUMP JUMPDEST PUSH2 0xC73 JUMPI PUSH1 0x40 MLOAD PUSH32 0x8C379A000000000000000000000000000000000000000000000000000000000 DUP2 MSTORE PUSH1 0x4 ADD PUSH2 0xC6A SWAP1 PUSH2 0x27AC JUMP JUMPDEST PUSH1 0x40 MLOAD DUP1 SWAP2 SUB SWAP1 REVERT JUMPDEST PUSH1 0x0 DUP9 DUP9 SWAP1 POP EQ ISZERO PUSH2 0xCBA JUMPI PUSH1 0x40 MLOAD PUSH32 0x8C379A000000000000000000000000000000000000000000000000000000000 DUP2 MSTORE PUSH1 0x4 ADD PUSH2 0xCB1 SWAP1 PUSH2 0x2CEE JUMP JUMPDEST PUSH1 0x40 MLOAD DUP1 SWAP2 SUB SWAP1 REVERT JUMPDEST DUP6 DUP6 SWAP1 POP DUP9 DUP9 SWAP1 POP EQ PUSH2 0xD02 JUMPI PUSH1 0x40 MLOAD PUSH32 0x8C379A000000000000000000000000000000000000000000000000000000000 DUP2 MSTORE PUSH1 0x4 ADD PUSH2 0xCF9 SWAP1 PUSH2 0x2D5A JUMP JUMPDEST PUSH1 0x40 MLOAD DUP1 SWAP2 SUB SWAP1 REVERT JUMPDEST PUSH2 0x100 DUP9 DUP9 SWAP1 POP LT PUSH2 0xD49 JUMPI PUSH1 0x40 MLOAD PUSH32 0x8C379A000000000000000000000000000000000000000000000000000000000 DUP2 MSTORE PUSH1 0x4 ADD PUSH2 0xD40 SWAP1 PUSH2 0x2DC6 JUMP JUMPDEST PUSH1 0x40 MLOAD DUP1 SWAP2 SUB SWAP1 REVERT JUMPDEST PUSH1 0x0 PUSH2 0xD53 PUSH2 0x1653 JUMP JUMPDEST DUP10 DUP10 DUP10 DUP10 DUP10 DUP10 PUSH1 0x40 MLOAD PUSH1 0x20 ADD PUSH2 0xD6F SWAP8 SWAP7 SWAP6 SWAP5 SWAP4 SWAP3 SWAP2 SWAP1 PUSH2 0x2F0A JUMP JUMPDEST PUSH1 0x40 MLOAD PUSH1 0x20 DUP2 DUP4 SUB SUB DUP2 MSTORE SWAP1 PUSH1 0x40 MSTORE DUP1 MLOAD SWAP1 PUSH1 0x20 ADD KECCAK256 SWAP1 POP PUSH1 0x1 PUSH1 0x0 SWAP1 SLOAD SWAP1 PUSH2 0x100 EXP SWAP1 DIV PUSH1 0xFF AND ISZERO PUSH2 0xDD7 JUMPI PUSH1 0x40 MLOAD PUSH32 0x8C379A000000000000000000000000000000000000000000000000000000000 DUP2 MSTORE PUSH1 0x4 ADD PUSH2 0xDCE SWAP1 PUSH2 0x2FAD JUMP JUMPDEST PUSH1 0x40 MLOAD DUP1 SWAP2 SUB SWAP1 REVERT JUMPDEST PUSH1 0x0 PUSH2 0xDE8 PUSH1 0x0 DUP4 DUP7 DUP7 DUP11 DUP11 PUSH2 0x131C JUMP JUMPDEST SWAP1 POP PUSH2 0xDF6 DUP11 DUP11 DUP11 DUP11 PUSH2 0x1690 JUMP JUMPDEST PUSH32 0xE4C9047A729726B729CF4FA62C95EF9A434BBAF206A7EA0C7C77515DB1584022 CALLER DUP3 DUP5 PUSH1 0x40 MLOAD PUSH2 0xE29 SWAP4 SWAP3 SWAP2 SWAP1 PUSH2 0x2FCD JUMP JUMPDEST PUSH1 0x40 MLOAD DUP1 SWAP2 SUB SWAP1 LOG1 POP POP POP POP POP POP POP POP POP POP JUMP JUMPDEST PUSH1 0x0 PUSH4 0xBC197C81 PUSH1 0xE0 SHL SWAP1 POP SWAP9 SWAP8 POP POP POP POP POP POP POP POP JUMP JUMPDEST PUSH2 0xE5E CALLER PUSH2 0xA96 JUMP JUMPDEST PUSH2 0xE9D JUMPI PUSH1 0x40 MLOAD PUSH32 0x8C379A000000000000000000000000000000000000000000000000000000000 DUP2 MSTORE PUSH1 0x4 ADD PUSH2 0xE94 SWAP1 PUSH2 0x27AC JUMP JUMPDEST PUSH1 0x40 MLOAD DUP1 SWAP2 SUB SWAP1 REVERT JUMPDEST PUSH1 0x0 DUP3 SWAP1 POP DUP1 PUSH20 0xFFFFFFFFFFFFFFFFFFFFFFFFFFFFFFFFFFFFFFFF AND PUSH4 0xC59F9F19 DUP4 PUSH1 0x40 MLOAD DUP3 PUSH4 0xFFFFFFFF AND PUSH1 0xE0 SHL DUP2 MSTORE PUSH1 0x4 ADD PUSH2 0xEDB SWAP2 SWAP1 PUSH2 0x1DE7 JUMP JUMPDEST PUSH1 0x0 PUSH1 0x40 MLOAD DUP1 DUP4 SUB DUP2 PUSH1 0x0 DUP8 DUP1 EXTCODESIZE ISZERO DUP1 ISZERO PUSH2 0xEF5 JUMPI PUSH1 0x0 DUP1 REVERT JUMPDEST POP GAS CALL ISZERO DUP1 ISZERO PUSH2 0xF09 JUMPI RETURNDATASIZE PUSH1 0x0 DUP1 RETURNDATACOPY RETURNDATASIZE PUSH1 0x0 REVERT JUMPDEST POP POP POP POP POP POP POP JUMP JUMPDEST PUSH1 0x1 DUP1 SLOAD SWAP1 PUSH2 0x100 EXP SWAP1 DIV PUSH1 0xFF AND ISZERO PUSH2 0xF60 JUMPI PUSH1 0x40 MLOAD PUSH32 0x8C379A000000000000000000000000000000000000000000000000000000000 DUP2 MSTORE PUSH1 0x4 ADD PUSH2 0xF57 SWAP1 PUSH2 0x3050 JUMP JUMPDEST PUSH1 0x40 MLOAD DUP1 SWAP2 SUB SWAP1 REVERT JUMPDEST PUSH1 0x3 DUP3 DUP3 SWAP1 POP EQ PUSH2 0xFA6 JUMPI PUSH1 0x40 MLOAD PUSH32 0x8C379A000000000000000000000000000000000000000000000000000000000 DUP2 MSTORE PUSH1 0x4 ADD PUSH2 0xF9D SWAP1 PUSH2 0x30BC JUMP JUMPDEST PUSH1 0x40 MLOAD DUP1 SWAP2 SUB SWAP1 REVERT JUMPDEST PUSH1 0x0 JUMPDEST DUP3 DUP3 SWAP1 POP DUP2 PUSH1 0xFF AND LT ISZERO PUSH2 0x10E5 JUMPI PUSH1 0x0 PUSH20 0xFFFFFFFFFFFFFFFFFFFFFFFFFFFFFFFFFFFFFFFF AND DUP4 DUP4 DUP4 PUSH1 0xFF AND DUP2 DUP2 LT PUSH2 0xFE5 JUMPI PUSH2 0xFE4 PUSH2 0x2BA5 JUMP JUMPDEST JUMPDEST SWAP1 POP PUSH1 0x20 MUL ADD PUSH1 0x20 DUP2 ADD SWAP1 PUSH2 0xFFA SWAP2 SWAP1 PUSH2 0x23A6 JUMP JUMPDEST PUSH20 0xFFFFFFFFFFFFFFFFFFFFFFFFFFFFFFFFFFFFFFFF AND EQ ISZERO PUSH2 0x1051 JUMPI PUSH1 0x40 MLOAD PUSH32 0x8C379A000000000000000000000000000000000000000000000000000000000 DUP2 MSTORE PUSH1 0x4 ADD PUSH2 0x1048 SWAP1 PUSH2 0x3128 JUMP JUMPDEST PUSH1 0x40 MLOAD DUP1 SWAP2 SUB SWAP1 REVERT JUMPDEST PUSH1 0x1 PUSH1 0x0 DUP1 DUP6 DUP6 DUP6 PUSH1 0xFF AND DUP2 DUP2 LT PUSH2 0x106C JUMPI PUSH2 0x106B PUSH2 0x2BA5 JUMP JUMPDEST JUMPDEST SWAP1 POP PUSH1 0x20 MUL ADD PUSH1 0x20 DUP2 ADD SWAP1 PUSH2 0x1081 SWAP2 SWAP1 PUSH2 0x23A6 JUMP JUMPDEST PUSH20 0xFFFFFFFFFFFFFFFFFFFFFFFFFFFFFFFFFFFFFFFF AND PUSH20 0xFFFFFFFFFFFFFFFFFFFFFFFFFFFFFFFFFFFFFFFF AND DUP2 MSTORE PUSH1 0x20 ADD SWAP1 DUP2 MSTORE PUSH1 0x20 ADD PUSH1 0x0 KECCAK256 PUSH1 0x0 PUSH2 0x100 EXP DUP2 SLOAD DUP2 PUSH1 0xFF MUL NOT AND SWAP1 DUP4 ISZERO ISZERO MUL OR SWAP1 SSTORE POP DUP1 DUP1 PUSH2 0x10DD SWAP1 PUSH2 0x3155 JUMP JUMPDEST SWAP2 POP POP PUSH2 0xFA9 JUMP JUMPDEST POP PUSH1 0x1 DUP1 PUSH1 0x1 PUSH2 0x100 EXP DUP2 SLOAD DUP2 PUSH1 0xFF MUL NOT AND SWAP1 DUP4 ISZERO ISZERO MUL OR SWAP1 SSTORE POP POP POP JUMP JUMPDEST PUSH2 0x110D CALLER PUSH2 0xA96 JUMP JUMPDEST PUSH2 0x114C JUMPI PUSH1 0x40 MLOAD PUSH32 0x8C379A000000000000000000000000000000000000000000000000000000000 DUP2 MSTORE PUSH1 0x4 ADD PUSH2 0x1143 SWAP1 PUSH2 0x27AC JUMP JUMPDEST PUSH1 0x40 MLOAD DUP1 SWAP2 SUB SWAP1 REVERT JUMPDEST PUSH1 0x0 DUP4 SWAP1 POP DUP1 PUSH20 0xFFFFFFFFFFFFFFFFFFFFFFFFFFFFFFFFFFFFFFFF AND PUSH4 0x8972C17C DUP5 DUP5 PUSH1 0x40 MLOAD DUP4 PUSH4 0xFFFFFFFF AND PUSH1 0xE0 SHL DUP2 MSTORE PUSH1 0x4 ADD PUSH2 0x118C SWAP3 SWAP2 SWAP1 PUSH2 0x2B7C JUMP JUMPDEST PUSH1 0x0 PUSH1 0x40 MLOAD DUP1 DUP4 SUB DUP2 PUSH1 0x0 DUP8 DUP1 EXTCODESIZE ISZERO DUP1 ISZERO PUSH2 0x11A6 JUMPI PUSH1 0x0 DUP1 REVERT JUMPDEST POP GAS CALL ISZERO DUP1 ISZERO PUSH2 0x11BA JUMPI RETURNDATASIZE PUSH1 0x0 DUP1 RETURNDATACOPY RETURNDATASIZE PUSH1 0x0 REVERT JUMPDEST POP POP POP POP POP POP POP POP JUMP JUMPDEST PUSH1 0x0 PUSH4 0xF23A6E61 PUSH1 0xE0 SHL SWAP1 POP SWAP7 SWAP6 POP POP POP POP POP POP JUMP JUMPDEST PUSH2 0x11E3 CALLER PUSH2 0xA96 JUMP JUMPDEST PUSH2 0x1222 JUMPI PUSH1 0x40 MLOAD PUSH32 0x8C379A000000000000000000000000000000000000000000000000000000000 DUP2 MSTORE PUSH1 0x4 ADD PUSH2 0x1219 SWAP1 PUSH2 0x27AC JUMP JUMPDEST PUSH1 0x40 MLOAD DUP1 SWAP2 SUB SWAP1 REVERT JUMPDEST PUSH1 0x1 DUP1 PUSH1 0x0 PUSH2 0x100 EXP DUP2 SLOAD DUP2 PUSH1 0xFF MUL NOT AND SWAP1 DUP4 ISZERO ISZERO MUL OR SWAP1 SSTORE POP PUSH32 0x909E8F76A4FD3E970F2EAEF56C0EE6DFAF8B87C5B8D3F56FFCE78E825A91157 CALLER PUSH1 0x40 MLOAD PUSH2 0x126B SWAP2 SWAP1 PUSH2 0x291B JUMP JUMPDEST PUSH1 0x40 MLOAD DUP1 SWAP2 SUB SWAP1 LOG1 JUMP JUMPDEST PUSH1 0x0 PUSH32 0x1FFC9A700000000000000000000000000000000000000000000000000000000 PUSH28 0xFFFFFFFFFFFFFFFFFFFFFFFFFFFFFFFFFFFFFFFFFFFFFFFFFFFFFFFF NOT AND DUP3 PUSH28 0xFFFFFFFFFFFFFFFFFFFFFFFFFFFFFFFFFFFFFFFFFFFFFFFFFFFFFFFF NOT AND EQ SWAP1 POP SWAP2 SWAP1 POP JUMP JUMPDEST PUSH1 0x60 PUSH1 0x40 MLOAD DUP1 PUSH1 0x40 ADD PUSH1 0x40 MSTORE DUP1 PUSH1 0x5 DUP2 MSTORE PUSH1 0x20 ADD PUSH32 0x4552433230000000000000000000000000000000000000000000000000000000 DUP2 MSTORE POP SWAP1 POP SWAP1 JUMP JUMPDEST PUSH1 0x0 DUP1 PUSH2 0x136D DUP8 DUP8 DUP8 DUP1 DUP1 PUSH1 0x1F ADD PUSH1 0x20 DUP1 SWAP2 DIV MUL PUSH1 0x20 ADD PUSH1 0x40 MLOAD SWAP1 DUP2 ADD PUSH1 0x40 MSTORE DUP1 SWAP4 SWAP3 SWAP2 SWAP1 DUP2 DUP2 MSTORE PUSH1 0x20 ADD DUP4 DUP4 DUP1 DUP3 DUP5 CALLDATACOPY PUSH1 0x0 DUP2 DUP5 ADD MSTORE PUSH1 0x1F NOT PUSH1 0x1F DUP3 ADD AND SWAP1 POP DUP1 DUP4 ADD SWAP3 POP POP POP POP POP POP POP PUSH2 0x187C JUMP JUMPDEST SWAP1 POP PUSH1 0x1 PUSH1 0x0 SWAP1 SLOAD SWAP1 PUSH2 0x100 EXP SWAP1 DIV PUSH1 0xFF AND ISZERO DUP1 PUSH2 0x1390 JUMPI POP PUSH2 0x138F DUP9 PUSH2 0xA96 JUMP JUMPDEST JUMPDEST PUSH2 0x13CF JUMPI PUSH1 0x40 MLOAD PUSH32 0x8C379A000000000000000000000000000000000000000000000000000000000 DUP2 MSTORE PUSH1 0x4 ADD PUSH2 0x13C6 SWAP1 PUSH2 0x31CB JUMP JUMPDEST PUSH1 0x40 MLOAD DUP1 SWAP2 SUB SWAP1 REVERT JUMPDEST TIMESTAMP DUP5 LT ISZERO PUSH2 0x1412 JUMPI PUSH1 0x40 MLOAD PUSH32 0x8C379A000000000000000000000000000000000000000000000000000000000 DUP2 MSTORE PUSH1 0x4 ADD PUSH2 0x1409 SWAP1 PUSH2 0x3237 JUMP JUMPDEST PUSH1 0x40 MLOAD DUP1 SWAP2 SUB SWAP1 REVERT JUMPDEST PUSH2 0x141B DUP4 PUSH2 0x19BB JUMP JUMPDEST PUSH2 0x1424 DUP2 PUSH2 0xA96 JUMP JUMPDEST PUSH2 0x1463 JUMPI PUSH1 0x40 MLOAD PUSH32 0x8C379A000000000000000000000000000000000000000000000000000000000 DUP2 MSTORE PUSH1 0x4 ADD PUSH2 0x145A SWAP1 PUSH2 0x3128 JUMP JUMPDEST PUSH1 0x40 MLOAD DUP1 SWAP2 SUB SWAP1 REVERT JUMPDEST CALLER PUSH20 0xFFFFFFFFFFFFFFFFFFFFFFFFFFFFFFFFFFFFFFFF AND DUP2 PUSH20 0xFFFFFFFFFFFFFFFFFFFFFFFFFFFFFFFFFFFFFFFF AND EQ ISZERO PUSH2 0x14D2 JUMPI PUSH1 0x40 MLOAD PUSH32 0x8C379A000000000000000000000000000000000000000000000000000000000 DUP2 MSTORE PUSH1 0x4 ADD PUSH2 0x14C9 SWAP1 PUSH2 0x32A3 JUMP JUMPDEST PUSH1 0x40 MLOAD DUP1 SWAP2 SUB SWAP1 REVERT JUMPDEST DUP1 SWAP2 POP POP SWAP7 SWAP6 POP POP POP POP POP POP JUMP JUMPDEST PUSH1 0x0 DUP1 DUP5 PUSH20 0xFFFFFFFFFFFFFFFFFFFFFFFFFFFFFFFFFFFFFFFF AND PUSH4 0xA9059CBB DUP6 DUP6 PUSH1 0x40 MLOAD PUSH1 0x24 ADD PUSH2 0x1512 SWAP3 SWAP2 SWAP1 PUSH2 0x2B7C JUMP JUMPDEST PUSH1 0x40 MLOAD PUSH1 0x20 DUP2 DUP4 SUB SUB DUP2 MSTORE SWAP1 PUSH1 0x40 MSTORE SWAP1 PUSH1 0xE0 SHL PUSH1 0x20 DUP3 ADD DUP1 MLOAD PUSH28 0xFFFFFFFFFFFFFFFFFFFFFFFFFFFFFFFFFFFFFFFFFFFFFFFFFFFFFFFF DUP4 DUP2 DUP4 AND OR DUP4 MSTORE POP POP POP POP PUSH1 0x40 MLOAD PUSH2 0x1560 SWAP2 SWAP1 PUSH2 0x32FF JUMP JUMPDEST PUSH1 0x0 PUSH1 0x40 MLOAD DUP1 DUP4 SUB DUP2 PUSH1 0x0 DUP7 GAS CALL SWAP2 POP POP RETURNDATASIZE DUP1 PUSH1 0x0 DUP2 EQ PUSH2 0x159D JUMPI PUSH1 0x40 MLOAD SWAP2 POP PUSH1 0x1F NOT PUSH1 0x3F RETURNDATASIZE ADD AND DUP3 ADD PUSH1 0x40 MSTORE RETURNDATASIZE DUP3 MSTORE RETURNDATASIZE PUSH1 0x0 PUSH1 0x20 DUP5 ADD RETURNDATACOPY PUSH2 0x15A2 JUMP JUMPDEST PUSH1 0x60 SWAP2 POP JUMPDEST POP SWAP2 POP SWAP2 POP DUP2 DUP1 ISZERO PUSH2 0x15D0 JUMPI POP PUSH1 0x0 DUP2 MLOAD EQ DUP1 PUSH2 0x15CF JUMPI POP DUP1 DUP1 PUSH1 0x20 ADD SWAP1 MLOAD DUP2 ADD SWAP1 PUSH2 0x15CE SWAP2 SWAP1 PUSH2 0x332B JUMP JUMPDEST JUMPDEST JUMPDEST PUSH2 0x160F JUMPI PUSH1 0x40 MLOAD PUSH32 0x8C379A000000000000000000000000000000000000000000000000000000000 DUP2 MSTORE PUSH1 0x4 ADD PUSH2 0x1606 SWAP1 PUSH2 0x33CA JUMP JUMPDEST PUSH1 0x40 MLOAD DUP1 SWAP2 SUB SWAP1 REVERT JUMPDEST POP POP POP POP POP JUMP JUMPDEST PUSH1 0x60 PUSH1 0x40 MLOAD DUP1 PUSH1 0x40 ADD PUSH1 0x40 MSTORE DUP1 PUSH1 0x5 DUP2 MSTORE PUSH1 0x20 ADD PUSH32 0x4554484552000000000000000000000000000000000000000000000000000000 DUP2 MSTORE POP SWAP1 POP SWAP1 JUMP JUMPDEST PUSH1 0x60 PUSH1 0x40 MLOAD DUP1 PUSH1 0x40 ADD PUSH1 0x40 MSTORE DUP1 PUSH1 0xB DUP2 MSTORE PUSH1 0x20 ADD PUSH32 0x45544845522D4261746368000000000000000000000000000000000000000000 DUP2 MSTORE POP SWAP1 POP SWAP1 JUMP JUMPDEST PUSH1 0x0 JUMPDEST DUP5 DUP5 SWAP1 POP DUP2 LT ISZERO PUSH2 0x1875 JUMPI DUP3 DUP3 DUP3 DUP2 DUP2 LT PUSH2 0x16B1 JUMPI PUSH2 0x16B0 PUSH2 0x2BA5 JUMP JUMPDEST JUMPDEST SWAP1 POP PUSH1 0x20 MUL ADD CALLDATALOAD SELFBALANCE LT ISZERO PUSH2 0x16FA JUMPI PUSH1 0x40 MLOAD PUSH32 0x8C379A000000000000000000000000000000000000000000000000000000000 DUP2 MSTORE PUSH1 0x4 ADD PUSH2 0x16F1 SWAP1 PUSH2 0x3436 JUMP JUMPDEST PUSH1 0x40 MLOAD DUP1 SWAP2 SUB SWAP1 REVERT JUMPDEST PUSH1 0x0 DUP6 DUP6 DUP4 DUP2 DUP2 LT PUSH2 0x170F JUMPI PUSH2 0x170E PUSH2 0x2BA5 JUMP JUMPDEST JUMPDEST SWAP1 POP PUSH1 0x20 MUL ADD PUSH1 0x20 DUP2 ADD SWAP1 PUSH2 0x1724 SWAP2 SWAP1 PUSH2 0x23A6 JUMP JUMPDEST PUSH20 0xFFFFFFFFFFFFFFFFFFFFFFFFFFFFFFFFFFFFFFFF AND DUP5 DUP5 DUP5 DUP2 DUP2 LT PUSH2 0x174D JUMPI PUSH2 0x174C PUSH2 0x2BA5 JUMP JUMPDEST JUMPDEST SWAP1 POP PUSH1 0x20 MUL ADD CALLDATALOAD PUSH1 0x40 MLOAD PUSH2 0x1760 SWAP1 PUSH2 0x3479 JUMP JUMPDEST PUSH1 0x0 PUSH1 0x40 MLOAD DUP1 DUP4 SUB DUP2 DUP6 DUP8 GAS CALL SWAP3 POP POP POP RETURNDATASIZE DUP1 PUSH1 0x0 DUP2 EQ PUSH2 0x179D JUMPI PUSH1 0x40 MLOAD SWAP2 POP PUSH1 0x1F NOT PUSH1 0x3F RETURNDATASIZE ADD AND DUP3 ADD PUSH1 0x40 MSTORE RETURNDATASIZE DUP3 MSTORE RETURNDATASIZE PUSH1 0x0 PUSH1 0x20 DUP5 ADD RETURNDATACOPY PUSH2 0x17A2 JUMP JUMPDEST PUSH1 0x60 SWAP2 POP JUMPDEST POP POP SWAP1 POP DUP1 PUSH2 0x17E6 JUMPI PUSH1 0x40 MLOAD PUSH32 0x8C379A000000000000000000000000000000000000000000000000000000000 DUP2 MSTORE PUSH1 0x4 ADD PUSH2 0x17DD SWAP1 PUSH2 0x34DA JUMP JUMPDEST PUSH1 0x40 MLOAD DUP1 SWAP2 SUB SWAP1 REVERT JUMPDEST PUSH32 0xC42FA155158786A1DD6CCC3A785F35845467353C3CC700E0E31A79F90E22227D CALLER DUP8 DUP8 DUP6 DUP2 DUP2 LT PUSH2 0x181B JUMPI PUSH2 0x181A PUSH2 0x2BA5 JUMP JUMPDEST JUMPDEST SWAP1 POP PUSH1 0x20 MUL ADD PUSH1 0x20 DUP2 ADD SWAP1 PUSH2 0x1830 SWAP2 SWAP1 PUSH2 0x23A6 JUMP JUMPDEST DUP7 DUP7 DUP7 DUP2 DUP2 LT PUSH2 0x1843 JUMPI PUSH2 0x1842 PUSH2 0x2BA5 JUMP JUMPDEST JUMPDEST SWAP1 POP PUSH1 0x20 MUL ADD CALLDATALOAD PUSH1 0x40 MLOAD PUSH2 0x1859 SWAP4 SWAP3 SWAP2 SWAP1 PUSH2 0x34FA JUMP JUMPDEST PUSH1 0x40 MLOAD DUP1 SWAP2 SUB SWAP1 LOG1 POP DUP1 DUP1 PUSH2 0x186D SWAP1 PUSH2 0x2C03 JUMP JUMPDEST SWAP2 POP POP PUSH2 0x1693 JUMP JUMPDEST POP POP POP POP POP JUMP JUMPDEST PUSH1 0x0 PUSH1 0x41 DUP3 MLOAD EQ PUSH2 0x18C2 JUMPI PUSH1 0x40 MLOAD PUSH32 0x8C379A000000000000000000000000000000000000000000000000000000000 DUP2 MSTORE PUSH1 0x4 ADD PUSH2 0x18B9 SWAP1 PUSH2 0x357D JUMP JUMPDEST PUSH1 0x40 MLOAD DUP1 SWAP2 SUB SWAP1 REVERT JUMPDEST PUSH1 0x0 DUP1 PUSH1 0x0 PUSH1 0x20 DUP6 ADD MLOAD SWAP3 POP PUSH1 0x40 DUP6 ADD MLOAD SWAP2 POP PUSH1 0xFF PUSH1 0x41 DUP7 ADD MLOAD AND SWAP1 POP PUSH1 0x1B DUP2 PUSH1 0xFF AND LT ISZERO PUSH2 0x18FB JUMPI PUSH1 0x1B DUP2 PUSH2 0x18F8 SWAP2 SWAP1 PUSH2 0x359D JUMP JUMPDEST SWAP1 POP JUMPDEST PUSH32 0x7FFFFFFFFFFFFFFFFFFFFFFFFFFFFFFF5D576E7357A4501DDFE92F46681B20A0 DUP3 PUSH1 0x0 SHR GT ISZERO PUSH2 0x1961 JUMPI PUSH1 0x40 MLOAD PUSH32 0x8C379A000000000000000000000000000000000000000000000000000000000 DUP2 MSTORE PUSH1 0x4 ADD PUSH2 0x1958 SWAP1 PUSH2 0x3646 JUMP JUMPDEST PUSH1 0x40 MLOAD DUP1 SWAP2 SUB SWAP1 REVERT JUMPDEST PUSH1 0x1 DUP7 DUP3 DUP6 DUP6 PUSH1 0x40 MLOAD PUSH1 0x0 DUP2 MSTORE PUSH1 0x20 ADD PUSH1 0x40 MSTORE PUSH1 0x40 MLOAD PUSH2 0x1984 SWAP5 SWAP4 SWAP3 SWAP2 SWAP1 PUSH2 0x3675 JUMP JUMPDEST PUSH1 0x20 PUSH1 0x40 MLOAD PUSH1 0x20 DUP2 SUB SWAP1 DUP1 DUP5 SUB SWAP1 DUP6 GAS STATICCALL ISZERO DUP1 ISZERO PUSH2 0x19A6 JUMPI RETURNDATASIZE PUSH1 0x0 DUP1 RETURNDATACOPY RETURNDATASIZE PUSH1 0x0 REVERT JUMPDEST POP POP POP PUSH1 0x20 PUSH1 0x40 MLOAD SUB MLOAD SWAP4 POP POP POP POP SWAP3 SWAP2 POP POP JUMP JUMPDEST PUSH2 0x19C4 CALLER PUSH2 0xA96 JUMP JUMPDEST PUSH2 0x1A03 JUMPI PUSH1 0x40 MLOAD PUSH32 0x8C379A000000000000000000000000000000000000000000000000000000000 DUP2 MSTORE PUSH1 0x4 ADD PUSH2 0x19FA SWAP1 PUSH2 0x27AC JUMP JUMPDEST PUSH1 0x40 MLOAD DUP1 SWAP2 SUB SWAP1 REVERT JUMPDEST PUSH1 0x0 DUP1 PUSH1 0x2 PUSH1 0xA DUP1 PUSH1 0x20 MUL PUSH1 0x40 MLOAD SWAP1 DUP2 ADD PUSH1 0x40 MSTORE DUP1 SWAP3 SWAP2 SWAP1 DUP3 PUSH1 0xA DUP1 ISZERO PUSH2 0x1A3F JUMPI PUSH1 0x20 MUL DUP3 ADD SWAP2 JUMPDEST DUP2 SLOAD DUP2 MSTORE PUSH1 0x20 ADD SWAP1 PUSH1 0x1 ADD SWAP1 DUP1 DUP4 GT PUSH2 0x1A2B JUMPI JUMPDEST POP POP POP POP POP SWAP1 POP PUSH1 0x0 JUMPDEST PUSH1 0xA DUP2 LT ISZERO PUSH2 0x1AF9 JUMPI DUP4 DUP3 DUP3 PUSH1 0xA DUP2 LT PUSH2 0x1A66 JUMPI PUSH2 0x1A65 PUSH2 0x2BA5 JUMP JUMPDEST JUMPDEST PUSH1 0x20 MUL ADD MLOAD EQ ISZERO PUSH2 0x1AAC JUMPI PUSH1 0x40 MLOAD PUSH32 0x8C379A000000000000000000000000000000000000000000000000000000000 DUP2 MSTORE PUSH1 0x4 ADD PUSH2 0x1AA3 SWAP1 PUSH2 0x3706 JUMP JUMPDEST PUSH1 0x40 MLOAD DUP1 SWAP2 SUB SWAP1 REVERT JUMPDEST DUP2 DUP4 PUSH1 0xA DUP2 LT PUSH2 0x1ABF JUMPI PUSH2 0x1ABE PUSH2 0x2BA5 JUMP JUMPDEST JUMPDEST PUSH1 0x20 MUL ADD MLOAD DUP3 DUP3 PUSH1 0xA DUP2 LT PUSH2 0x1AD7 JUMPI PUSH2 0x1AD6 PUSH2 0x2BA5 JUMP JUMPDEST JUMPDEST PUSH1 0x20 MUL ADD MLOAD LT ISZERO PUSH2 0x1AE6 JUMPI DUP1 SWAP3 POP JUMPDEST DUP1 DUP1 PUSH2 0x1AF1 SWAP1 PUSH2 0x2C03 JUMP JUMPDEST SWAP2 POP POP PUSH2 0x1A49 JUMP JUMPDEST POP DUP1 DUP3 PUSH1 0xA DUP2 LT PUSH2 0x1B0D JUMPI PUSH2 0x1B0C PUSH2 0x2BA5 JUMP JUMPDEST JUMPDEST PUSH1 0x20 MUL ADD MLOAD DUP4 GT PUSH2 0x1B53 JUMPI PUSH1 0x40 MLOAD PUSH32 0x8C379A000000000000000000000000000000000000000000000000000000000 DUP2 MSTORE PUSH1 0x4 ADD PUSH2 0x1B4A SWAP1 PUSH2 0x3772 JUMP JUMPDEST PUSH1 0x40 MLOAD DUP1 SWAP2 SUB SWAP1 REVERT JUMPDEST PUSH2 0x2710 DUP2 DUP4 PUSH1 0xA DUP2 LT PUSH2 0x1B69 JUMPI PUSH2 0x1B68 PUSH2 0x2BA5 JUMP JUMPDEST JUMPDEST PUSH1 0x20 MUL ADD MLOAD PUSH2 0x1B78 SWAP2 SWAP1 PUSH2 0x2C4C JUMP JUMPDEST DUP4 GT ISZERO PUSH2 0x1BBA JUMPI PUSH1 0x40 MLOAD PUSH32 0x8C379A000000000000000000000000000000000000000000000000000000000 DUP2 MSTORE PUSH1 0x4 ADD PUSH2 0x1BB1 SWAP1 PUSH2 0x37DE JUMP JUMPDEST PUSH1 0x40 MLOAD DUP1 SWAP2 SUB SWAP1 REVERT JUMPDEST DUP3 PUSH1 0x2 DUP4 PUSH1 0xA DUP2 LT PUSH2 0x1BCF JUMPI PUSH2 0x1BCE PUSH2 0x2BA5 JUMP JUMPDEST JUMPDEST ADD DUP2 SWAP1 SSTORE POP POP POP POP JUMP JUMPDEST PUSH1 0x0 PUSH20 0xFFFFFFFFFFFFFFFFFFFFFFFFFFFFFFFFFFFFFFFF DUP3 AND SWAP1 POP SWAP2 SWAP1 POP JUMP JUMPDEST PUSH1 0x0 PUSH2 0x1C04 DUP3 PUSH2 0x1BD9 JUMP JUMPDEST SWAP1 POP SWAP2 SWAP1 POP JUMP JUMPDEST PUSH2 0x1C14 DUP2 PUSH2 0x1BF9 JUMP JUMPDEST DUP3 MSTORE POP POP JUMP JUMPDEST PUSH1 0x0 DUP2 SWAP1 POP SWAP2 SWAP1 POP JUMP JUMPDEST PUSH2 0x1C2D DUP2 PUSH2 0x1C1A JUMP JUMPDEST DUP3 MSTORE POP POP JUMP JUMPDEST PUSH1 0x0 DUP3 DUP3 MSTORE PUSH1 0x20 DUP3 ADD SWAP1 POP SWAP3 SWAP2 POP POP JUMP JUMPDEST POP JUMP JUMPDEST PUSH1 0x0 PUSH2 0x1C54 PUSH1 0x0 DUP4 PUSH2 0x1C33 JUMP JUMPDEST SWAP2 POP PUSH2 0x1C5F DUP3 PUSH2 0x1C44 JUMP JUMPDEST PUSH1 0x0 DUP3 ADD SWAP1 POP SWAP2 SWAP1 POP JUMP JUMPDEST PUSH1 0x0 PUSH1 0x60 DUP3 ADD SWAP1 POP PUSH2 0x1C7F PUSH1 0x0 DUP4 ADD DUP6 PUSH2 0x1C0B JUMP JUMPDEST PUSH2 0x1C8C PUSH1 0x20 DUP4 ADD DUP5 PUSH2 0x1C24 JUMP JUMPDEST DUP2 DUP2 SUB PUSH1 0x40 DUP4 ADD MSTORE PUSH2 0x1C9D DUP2 PUSH2 0x1C47 JUMP JUMPDEST SWAP1 POP SWAP4 SWAP3 POP POP POP JUMP JUMPDEST DUP3 DUP2 DUP4 CALLDATACOPY PUSH1 0x0 DUP4 DUP4 ADD MSTORE POP POP POP JUMP JUMPDEST PUSH1 0x0 PUSH1 0x1F NOT PUSH1 0x1F DUP4 ADD AND SWAP1 POP SWAP2 SWAP1 POP JUMP JUMPDEST PUSH1 0x0 PUSH2 0x1CD2 DUP4 DUP6 PUSH2 0x1C33 JUMP JUMPDEST SWAP4 POP PUSH2 0x1CDF DUP4 DUP6 DUP5 PUSH2 0x1CA6 JUMP JUMPDEST PUSH2 0x1CE8 DUP4 PUSH2 0x1CB5 JUMP JUMPDEST DUP5 ADD SWAP1 POP SWAP4 SWAP3 POP POP POP JUMP JUMPDEST PUSH1 0x0 PUSH1 0x60 DUP3 ADD SWAP1 POP PUSH2 0x1D08 PUSH1 0x0 DUP4 ADD DUP8 PUSH2 0x1C0B JUMP JUMPDEST PUSH2 0x1D15 PUSH1 0x20 DUP4 ADD DUP7 PUSH2 0x1C24 JUMP JUMPDEST DUP2 DUP2 SUB PUSH1 0x40 DUP4 ADD MSTORE PUSH2 0x1D28 DUP2 DUP5 DUP7 PUSH2 0x1CC6 JUMP JUMPDEST SWAP1 POP SWAP6 SWAP5 POP POP POP POP POP JUMP JUMPDEST PUSH1 0x0 PUSH1 0x40 MLOAD SWAP1 POP SWAP1 JUMP JUMPDEST PUSH1 0x0 DUP1 REVERT JUMPDEST PUSH1 0x0 DUP1 REVERT JUMPDEST PUSH1 0x0 PUSH32 0xFFFFFFFF00000000000000000000000000000000000000000000000000000000 DUP3 AND SWAP1 POP SWAP2 SWAP1 POP JUMP JUMPDEST PUSH2 0x1D7C DUP2 PUSH2 0x1D47 JUMP JUMPDEST DUP2 EQ PUSH2 0x1D87 JUMPI PUSH1 0x0 DUP1 REVERT JUMPDEST POP JUMP JUMPDEST PUSH1 0x0 DUP2 CALLDATALOAD SWAP1 POP PUSH2 0x1D99 DUP2 PUSH2 0x1D73 JUMP JUMPDEST SWAP3 SWAP2 POP POP JUMP JUMPDEST PUSH1 0x0 PUSH1 0x20 DUP3 DUP5 SUB SLT ISZERO PUSH2 0x1DB5 JUMPI PUSH2 0x1DB4 PUSH2 0x1D3D JUMP JUMPDEST JUMPDEST PUSH1 0x0 PUSH2 0x1DC3 DUP5 DUP3 DUP6 ADD PUSH2 0x1D8A JUMP JUMPDEST SWAP2 POP POP SWAP3 SWAP2 POP POP JUMP JUMPDEST PUSH1 0x0 DUP2 ISZERO ISZERO SWAP1 POP SWAP2 SWAP1 POP JUMP JUMPDEST PUSH2 0x1DE1 DUP2 PUSH2 0x1DCC JUMP JUMPDEST DUP3 MSTORE POP POP JUMP JUMPDEST PUSH1 0x0 PUSH1 0x20 DUP3 ADD SWAP1 POP PUSH2 0x1DFC PUSH1 0x0 DUP4 ADD DUP5 PUSH2 0x1DD8 JUMP JUMPDEST SWAP3 SWAP2 POP POP JUMP JUMPDEST PUSH2 0x1E0B DUP2 PUSH2 0x1BF9 JUMP JUMPDEST DUP2 EQ PUSH2 0x1E16 JUMPI PUSH1 0x0 DUP1 REVERT JUMPDEST POP JUMP JUMPDEST PUSH1 0x0 DUP2 CALLDATALOAD SWAP1 POP PUSH2 0x1E28 DUP2 PUSH2 0x1E02 JUMP JUMPDEST SWAP3 SWAP2 POP POP JUMP JUMPDEST PUSH2 0x1E37 DUP2 PUSH2 0x1C1A JUMP JUMPDEST DUP2 EQ PUSH2 0x1E42 JUMPI PUSH1 0x0 DUP1 REVERT JUMPDEST POP JUMP JUMPDEST PUSH1 0x0 DUP2 CALLDATALOAD SWAP1 POP PUSH2 0x1E54 DUP2 PUSH2 0x1E2E JUMP JUMPDEST SWAP3 SWAP2 POP POP JUMP JUMPDEST PUSH1 0x0 DUP1 REVERT JUMPDEST PUSH1 0x0 DUP1 REVERT JUMPDEST PUSH1 0x0 DUP1 REVERT JUMPDEST PUSH1 0x0 DUP1 DUP4 PUSH1 0x1F DUP5 ADD SLT PUSH2 0x1E7F JUMPI PUSH2 0x1E7E PUSH2 0x1E5A JUMP JUMPDEST JUMPDEST DUP3 CALLDATALOAD SWAP1 POP PUSH8 0xFFFFFFFFFFFFFFFF DUP2 GT ISZERO PUSH2 0x1E9C JUMPI PUSH2 0x1E9B PUSH2 0x1E5F JUMP JUMPDEST JUMPDEST PUSH1 0x20 DUP4 ADD SWAP2 POP DUP4 PUSH1 0x1 DUP3 MUL DUP4 ADD GT ISZERO PUSH2 0x1EB8 JUMPI PUSH2 0x1EB7 PUSH2 0x1E64 JUMP JUMPDEST JUMPDEST SWAP3 POP SWAP3 SWAP1 POP JUMP JUMPDEST PUSH1 0x0 DUP1 PUSH1 0x0 DUP1 PUSH1 0x0 DUP1 PUSH1 0x0 PUSH1 0xC0 DUP9 DUP11 SUB SLT ISZERO PUSH2 0x1EDE JUMPI PUSH2 0x1EDD PUSH2 0x1D3D JUMP JUMPDEST JUMPDEST PUSH1 0x0 PUSH2 0x1EEC DUP11 DUP3 DUP12 ADD PUSH2 0x1E19 JUMP JUMPDEST SWAP8 POP POP PUSH1 0x20 PUSH2 0x1EFD DUP11 DUP3 DUP12 ADD PUSH2 0x1E45 JUMP JUMPDEST SWAP7 POP POP PUSH1 0x40 PUSH2 0x1F0E DUP11 DUP3 DUP12 ADD PUSH2 0x1E19 JUMP JUMPDEST SWAP6 POP POP PUSH1 0x60 PUSH2 0x1F1F DUP11 DUP3 DUP12 ADD PUSH2 0x1E45 JUMP JUMPDEST SWAP5 POP POP PUSH1 0x80 PUSH2 0x1F30 DUP11 DUP3 DUP12 ADD PUSH2 0x1E45 JUMP JUMPDEST SWAP4 POP POP PUSH1 0xA0 DUP9 ADD CALLDATALOAD PUSH8 0xFFFFFFFFFFFFFFFF DUP2 GT ISZERO PUSH2 0x1F51 JUMPI PUSH2 0x1F50 PUSH2 0x1D42 JUMP JUMPDEST JUMPDEST PUSH2 0x1F5D DUP11 DUP3 DUP12 ADD PUSH2 0x1E69 JUMP JUMPDEST SWAP3 POP SWAP3 POP POP SWAP3 SWAP6 SWAP9 SWAP2 SWAP5 SWAP8 POP SWAP3 SWAP6 POP JUMP JUMPDEST PUSH1 0x0 DUP1 REVERT JUMPDEST PUSH32 0x4E487B7100000000000000000000000000000000000000000000000000000000 PUSH1 0x0 MSTORE PUSH1 0x41 PUSH1 0x4 MSTORE PUSH1 0x24 PUSH1 0x0 REVERT JUMPDEST PUSH2 0x1FAB DUP3 PUSH2 0x1CB5 JUMP JUMPDEST DUP2 ADD DUP2 DUP2 LT PUSH8 0xFFFFFFFFFFFFFFFF DUP3 GT OR ISZERO PUSH2 0x1FCA JUMPI PUSH2 0x1FC9 PUSH2 0x1F73 JUMP JUMPDEST JUMPDEST DUP1 PUSH1 0x40 MSTORE POP POP POP JUMP JUMPDEST PUSH1 0x0 PUSH2 0x1FDD PUSH2 0x1D33 JUMP JUMPDEST SWAP1 POP PUSH2 0x1FE9 DUP3 DUP3 PUSH2 0x1FA2 JUMP JUMPDEST SWAP2 SWAP1 POP JUMP JUMPDEST PUSH1 0x0 PUSH8 0xFFFFFFFFFFFFFFFF DUP3 GT ISZERO PUSH2 0x2009 JUMPI PUSH2 0x2008 PUSH2 0x1F73 JUMP JUMPDEST JUMPDEST PUSH2 0x2012 DUP3 PUSH2 0x1CB5 JUMP JUMPDEST SWAP1 POP PUSH1 0x20 DUP2 ADD SWAP1 POP SWAP2 SWAP1 POP JUMP JUMPDEST PUSH1 0x0 PUSH2 0x2032 PUSH2 0x202D DUP5 PUSH2 0x1FEE JUMP JUMPDEST PUSH2 0x1FD3 JUMP JUMPDEST SWAP1 POP DUP3 DUP2 MSTORE PUSH1 0x20 DUP2 ADD DUP5 DUP5 DUP5 ADD GT ISZERO PUSH2 0x204E JUMPI PUSH2 0x204D PUSH2 0x1F6E JUMP JUMPDEST JUMPDEST PUSH2 0x2059 DUP5 DUP3 DUP6 PUSH2 0x1CA6 JUMP JUMPDEST POP SWAP4 SWAP3 POP POP POP JUMP JUMPDEST PUSH1 0x0 DUP3 PUSH1 0x1F DUP4 ADD SLT PUSH2 0x2076 JUMPI PUSH2 0x2075 PUSH2 0x1E5A JUMP JUMPDEST JUMPDEST DUP2 CALLDATALOAD PUSH2 0x2086 DUP5 DUP3 PUSH1 0x20 DUP7 ADD PUSH2 0x201F JUMP JUMPDEST SWAP2 POP POP SWAP3 SWAP2 POP POP JUMP JUMPDEST PUSH1 0x0 DUP1 PUSH1 0x0 DUP1 PUSH1 0x80 DUP6 DUP8 SUB SLT ISZERO PUSH2 0x20A9 JUMPI PUSH2 0x20A8 PUSH2 0x1D3D JUMP JUMPDEST JUMPDEST PUSH1 0x0 PUSH2 0x20B7 DUP8 DUP3 DUP9 ADD PUSH2 0x1E19 JUMP JUMPDEST SWAP5 POP POP PUSH1 0x20 PUSH2 0x20C8 DUP8 DUP3 DUP9 ADD PUSH2 0x1E19 JUMP JUMPDEST SWAP4 POP POP PUSH1 0x40 PUSH2 0x20D9 DUP8 DUP3 DUP9 ADD PUSH2 0x1E45 JUMP JUMPDEST SWAP3 POP POP PUSH1 0x60 DUP6 ADD CALLDATALOAD PUSH8 0xFFFFFFFFFFFFFFFF DUP2 GT ISZERO PUSH2 0x20FA JUMPI PUSH2 0x20F9 PUSH2 0x1D42 JUMP JUMPDEST JUMPDEST PUSH2 0x2106 DUP8 DUP3 DUP9 ADD PUSH2 0x2061 JUMP JUMPDEST SWAP2 POP POP SWAP3 SWAP6 SWAP2 SWAP5 POP SWAP3 POP JUMP JUMPDEST PUSH2 0x211B DUP2 PUSH2 0x1D47 JUMP JUMPDEST DUP3 MSTORE POP POP JUMP JUMPDEST PUSH1 0x0 PUSH1 0x20 DUP3 ADD SWAP1 POP PUSH2 0x2136 PUSH1 0x0 DUP4 ADD DUP5 PUSH2 0x2112 JUMP JUMPDEST SWAP3 SWAP2 POP POP JUMP JUMPDEST PUSH1 0x0 PUSH2 0x2147 DUP3 PUSH2 0x1BD9 JUMP JUMPDEST SWAP1 POP SWAP2 SWAP1 POP JUMP JUMPDEST PUSH2 0x2157 DUP2 PUSH2 0x213C JUMP JUMPDEST DUP2 EQ PUSH2 0x2162 JUMPI PUSH1 0x0 DUP1 REVERT JUMPDEST POP JUMP JUMPDEST PUSH1 0x0 DUP2 CALLDATALOAD SWAP1 POP PUSH2 0x2174 DUP2 PUSH2 0x214E JUMP JUMPDEST SWAP3 SWAP2 POP POP JUMP JUMPDEST PUSH1 0x0 DUP1 PUSH1 0x40 DUP4 DUP6 SUB SLT ISZERO PUSH2 0x2191 JUMPI PUSH2 0x2190 PUSH2 0x1D3D JUMP JUMPDEST JUMPDEST PUSH1 0x0 PUSH2 0x219F DUP6 DUP3 DUP7 ADD PUSH2 0x2165 JUMP JUMPDEST SWAP3 POP POP PUSH1 0x20 PUSH2 0x21B0 DUP6 DUP3 DUP7 ADD PUSH2 0x1E19 JUMP JUMPDEST SWAP2 POP POP SWAP3 POP SWAP3 SWAP1 POP JUMP JUMPDEST PUSH1 0x0 DUP1 DUP4 PUSH1 0x1F DUP5 ADD SLT PUSH2 0x21D0 JUMPI PUSH2 0x21CF PUSH2 0x1E5A JUMP JUMPDEST JUMPDEST DUP3 CALLDATALOAD SWAP1 POP PUSH8 0xFFFFFFFFFFFFFFFF DUP2 GT ISZERO PUSH2 0x21ED JUMPI PUSH2 0x21EC PUSH2 0x1E5F JUMP JUMPDEST JUMPDEST PUSH1 0x20 DUP4 ADD SWAP2 POP DUP4 PUSH1 0x20 DUP3 MUL DUP4 ADD GT ISZERO PUSH2 0x2209 JUMPI PUSH2 0x2208 PUSH2 0x1E64 JUMP JUMPDEST JUMPDEST SWAP3 POP SWAP3 SWAP1 POP JUMP JUMPDEST PUSH1 0x0 DUP1 PUSH1 0x0 DUP1 PUSH1 0x60 DUP6 DUP8 SUB SLT ISZERO PUSH2 0x222A JUMPI PUSH2 0x2229 PUSH2 0x1D3D JUMP JUMPDEST JUMPDEST PUSH1 0x0 PUSH2 0x2238 DUP8 DUP3 DUP9 ADD PUSH2 0x2165 JUMP JUMPDEST SWAP5 POP POP PUSH1 0x20 PUSH2 0x2249 DUP8 DUP3 DUP9 ADD PUSH2 0x1E19 JUMP JUMPDEST SWAP4 POP POP PUSH1 0x40 DUP6 ADD CALLDATALOAD PUSH8 0xFFFFFFFFFFFFFFFF DUP2 GT ISZERO PUSH2 0x226A JUMPI PUSH2 0x2269 PUSH2 0x1D42 JUMP JUMPDEST JUMPDEST PUSH2 0x2276 DUP8 DUP3 DUP9 ADD PUSH2 0x21BA JUMP JUMPDEST SWAP3 POP SWAP3 POP POP SWAP3 SWAP6 SWAP2 SWAP5 POP SWAP3 POP JUMP JUMPDEST PUSH1 0x0 DUP1 PUSH1 0x0 DUP1 PUSH1 0x0 DUP1 PUSH1 0x0 DUP1 PUSH1 0xC0 DUP10 DUP12 SUB SLT ISZERO PUSH2 0x22A4 JUMPI PUSH2 0x22A3 PUSH2 0x1D3D JUMP JUMPDEST JUMPDEST PUSH1 0x0 PUSH2 0x22B2 DUP12 DUP3 DUP13 ADD PUSH2 0x1E19 JUMP JUMPDEST SWAP9 POP POP PUSH1 0x20 PUSH2 0x22C3 DUP12 DUP3 DUP13 ADD PUSH2 0x1E45 JUMP JUMPDEST SWAP8 POP POP PUSH1 0x40 DUP10 ADD CALLDATALOAD PUSH8 0xFFFFFFFFFFFFFFFF DUP2 GT ISZERO PUSH2 0x22E4 JUMPI PUSH2 0x22E3 PUSH2 0x1D42 JUMP JUMPDEST JUMPDEST PUSH2 0x22F0 DUP12 DUP3 DUP13 ADD PUSH2 0x1E69 JUMP JUMPDEST SWAP7 POP SWAP7 POP POP PUSH1 0x60 PUSH2 0x2303 DUP12 DUP3 DUP13 ADD PUSH2 0x1E45 JUMP JUMPDEST SWAP5 POP POP PUSH1 0x80 PUSH2 0x2314 DUP12 DUP3 DUP13 ADD PUSH2 0x1E45 JUMP JUMPDEST SWAP4 POP POP PUSH1 0xA0 DUP10 ADD CALLDATALOAD PUSH8 0xFFFFFFFFFFFFFFFF DUP2 GT ISZERO PUSH2 0x2335 JUMPI PUSH2 0x2334 PUSH2 0x1D42 JUMP JUMPDEST JUMPDEST PUSH2 0x2341 DUP12 DUP3 DUP13 ADD PUSH2 0x1E69 JUMP JUMPDEST SWAP3 POP SWAP3 POP POP SWAP3 SWAP6 SWAP9 POP SWAP3 SWAP6 SWAP9 SWAP1 SWAP4 SWAP7 POP JUMP JUMPDEST PUSH1 0x0 DUP1 PUSH1 0x0 PUSH1 0x60 DUP5 DUP7 SUB SLT ISZERO PUSH2 0x236C JUMPI PUSH2 0x236B PUSH2 0x1D3D JUMP JUMPDEST JUMPDEST PUSH1 0x0 PUSH2 0x237A DUP7 DUP3 DUP8 ADD PUSH2 0x2165 JUMP JUMPDEST SWAP4 POP POP PUSH1 0x20 PUSH2 0x238B DUP7 DUP3 DUP8 ADD PUSH2 0x1E19 JUMP JUMPDEST SWAP3 POP POP PUSH1 0x40 PUSH2 0x239C DUP7 DUP3 DUP8 ADD PUSH2 0x1E45 JUMP JUMPDEST SWAP2 POP POP SWAP3 POP SWAP3 POP SWAP3 JUMP JUMPDEST PUSH1 0x0 PUSH1 0x20 DUP3 DUP5 SUB SLT ISZERO PUSH2 0x23BC JUMPI PUSH2 0x23BB PUSH2 0x1D3D JUMP JUMPDEST JUMPDEST PUSH1 0x0 PUSH2 0x23CA DUP5 DUP3 DUP6 ADD PUSH2 0x1E19 JUMP JUMPDEST SWAP2 POP POP SWAP3 SWAP2 POP POP JUMP JUMPDEST PUSH2 0x23DC DUP2 PUSH2 0x1DCC JUMP JUMPDEST DUP2 EQ PUSH2 0x23E7 JUMPI PUSH1 0x0 DUP1 REVERT JUMPDEST POP JUMP JUMPDEST PUSH1 0x0 DUP2 CALLDATALOAD SWAP1 POP PUSH2 0x23F9 DUP2 PUSH2 0x23D3 JUMP JUMPDEST SWAP3 SWAP2 POP POP JUMP JUMPDEST PUSH1 0x0 DUP1 PUSH1 0x40 DUP4 DUP6 SUB SLT ISZERO PUSH2 0x2416 JUMPI PUSH2 0x2415 PUSH2 0x1D3D JUMP JUMPDEST JUMPDEST PUSH1 0x0 PUSH2 0x2424 DUP6 DUP3 DUP7 ADD PUSH2 0x1E19 JUMP JUMPDEST SWAP3 POP POP PUSH1 0x20 PUSH2 0x2435 DUP6 DUP3 DUP7 ADD PUSH2 0x23EA JUMP JUMPDEST SWAP2 POP POP SWAP3 POP SWAP3 SWAP1 POP JUMP JUMPDEST PUSH1 0x0 PUSH1 0x20 DUP3 ADD SWAP1 POP PUSH2 0x2454 PUSH1 0x0 DUP4 ADD DUP5 PUSH2 0x1C24 JUMP JUMPDEST SWAP3 SWAP2 POP POP JUMP JUMPDEST PUSH1 0x0 DUP1 DUP4 PUSH1 0x1F DUP5 ADD SLT PUSH2 0x2470 JUMPI PUSH2 0x246F PUSH2 0x1E5A JUMP JUMPDEST JUMPDEST DUP3 CALLDATALOAD SWAP1 POP PUSH8 0xFFFFFFFFFFFFFFFF DUP2 GT ISZERO PUSH2 0x248D JUMPI PUSH2 0x248C PUSH2 0x1E5F JUMP JUMPDEST JUMPDEST PUSH1 0x20 DUP4 ADD SWAP2 POP DUP4 PUSH1 0x20 DUP3 MUL DUP4 ADD GT ISZERO PUSH2 0x24A9 JUMPI PUSH2 0x24A8 PUSH2 0x1E64 JUMP JUMPDEST JUMPDEST SWAP3 POP SWAP3 SWAP1 POP JUMP JUMPDEST PUSH1 0x0 DUP1 PUSH1 0x0 DUP1 PUSH1 0x0 DUP1 PUSH1 0x0 DUP1 PUSH1 0xA0 DUP10 DUP12 SUB SLT ISZERO PUSH2 0x24D0 JUMPI PUSH2 0x24CF PUSH2 0x1D3D JUMP JUMPDEST JUMPDEST PUSH1 0x0 DUP10 ADD CALLDATALOAD PUSH8 0xFFFFFFFFFFFFFFFF DUP2 GT ISZERO PUSH2 0x24EE JUMPI PUSH2 0x24ED PUSH2 0x1D42 JUMP JUMPDEST JUMPDEST PUSH2 0x24FA DUP12 DUP3 DUP13 ADD PUSH2 0x245A JUMP JUMPDEST SWAP9 POP SWAP9 POP POP PUSH1 0x20 DUP10 ADD CALLDATALOAD PUSH8 0xFFFFFFFFFFFFFFFF DUP2 GT ISZERO PUSH2 0x251D JUMPI PUSH2 0x251C PUSH2 0x1D42 JUMP JUMPDEST JUMPDEST PUSH2 0x2529 DUP12 DUP3 DUP13 ADD PUSH2 0x21BA JUMP JUMPDEST SWAP7 POP SWAP7 POP POP PUSH1 0x40 PUSH2 0x253C DUP12 DUP3 DUP13 ADD PUSH2 0x1E45 JUMP JUMPDEST SWAP5 POP POP PUSH1 0x60 PUSH2 0x254D DUP12 DUP3 DUP13 ADD PUSH2 0x1E45 JUMP JUMPDEST SWAP4 POP POP PUSH1 0x80 DUP10 ADD CALLDATALOAD PUSH8 0xFFFFFFFFFFFFFFFF DUP2 GT ISZERO PUSH2 0x256E JUMPI PUSH2 0x256D PUSH2 0x1D42 JUMP JUMPDEST JUMPDEST PUSH2 0x257A DUP12 DUP3 DUP13 ADD PUSH2 0x1E69 JUMP JUMPDEST SWAP3 POP SWAP3 POP POP SWAP3 SWAP6 SWAP9 POP SWAP3 SWAP6 SWAP9 SWAP1 SWAP4 SWAP7 POP JUMP JUMPDEST PUSH1 0x0 DUP1 PUSH1 0x0 DUP1 PUSH1 0x0 DUP1 PUSH1 0x0 DUP1 PUSH1 0xA0 DUP10 DUP12 SUB SLT ISZERO PUSH2 0x25AC JUMPI PUSH2 0x25AB PUSH2 0x1D3D JUMP JUMPDEST JUMPDEST PUSH1 0x0 PUSH2 0x25BA DUP12 DUP3 DUP13 ADD PUSH2 0x1E19 JUMP JUMPDEST SWAP9 POP POP PUSH1 0x20 PUSH2 0x25CB DUP12 DUP3 DUP13 ADD PUSH2 0x1E19 JUMP JUMPDEST SWAP8 POP POP PUSH1 0x40 DUP10 ADD CALLDATALOAD PUSH8 0xFFFFFFFFFFFFFFFF DUP2 GT ISZERO PUSH2 0x25EC JUMPI PUSH2 0x25EB PUSH2 0x1D42 JUMP JUMPDEST JUMPDEST PUSH2 0x25F8 DUP12 DUP3 DUP13 ADD PUSH2 0x21BA JUMP JUMPDEST SWAP7 POP SWAP7 POP POP PUSH1 0x60 DUP10 ADD CALLDATALOAD PUSH8 0xFFFFFFFFFFFFFFFF DUP2 GT ISZERO PUSH2 0x261B JUMPI PUSH2 0x261A PUSH2 0x1D42 JUMP JUMPDEST JUMPDEST PUSH2 0x2627 DUP12 DUP3 DUP13 ADD PUSH2 0x21BA JUMP JUMPDEST SWAP5 POP SWAP5 POP POP PUSH1 0x80 DUP10 ADD CALLDATALOAD PUSH8 0xFFFFFFFFFFFFFFFF DUP2 GT ISZERO PUSH2 0x264A JUMPI PUSH2 0x2649 PUSH2 0x1D42 JUMP JUMPDEST JUMPDEST PUSH2 0x2656 DUP12 DUP3 DUP13 ADD PUSH2 0x1E69 JUMP JUMPDEST SWAP3 POP SWAP3 POP POP SWAP3 SWAP6 SWAP9 POP SWAP3 SWAP6 SWAP9 SWAP1 SWAP4 SWAP7 POP JUMP JUMPDEST PUSH1 0x0 DUP1 PUSH1 0x20 DUP4 DUP6 SUB SLT ISZERO PUSH2 0x267F JUMPI PUSH2 0x267E PUSH2 0x1D3D JUMP JUMPDEST JUMPDEST PUSH1 0x0 DUP4 ADD CALLDATALOAD PUSH8 0xFFFFFFFFFFFFFFFF DUP2 GT ISZERO PUSH2 0x269D JUMPI PUSH2 0x269C PUSH2 0x1D42 JUMP JUMPDEST JUMPDEST PUSH2 0x26A9 DUP6 DUP3 DUP7 ADD PUSH2 0x245A JUMP JUMPDEST SWAP3 POP SWAP3 POP POP SWAP3 POP SWAP3 SWAP1 POP JUMP JUMPDEST PUSH1 0x0 DUP1 PUSH1 0x0 DUP1 PUSH1 0x0 DUP1 PUSH1 0xA0 DUP8 DUP10 SUB SLT ISZERO PUSH2 0x26D2 JUMPI PUSH2 0x26D1 PUSH2 0x1D3D JUMP JUMPDEST JUMPDEST PUSH1 0x0 PUSH2 0x26E0 DUP10 DUP3 DUP11 ADD PUSH2 0x1E19 JUMP JUMPDEST SWAP7 POP POP PUSH1 0x20 PUSH2 0x26F1 DUP10 DUP3 DUP11 ADD PUSH2 0x1E19 JUMP JUMPDEST SWAP6 POP POP PUSH1 0x40 PUSH2 0x2702 DUP10 DUP3 DUP11 ADD PUSH2 0x1E45 JUMP JUMPDEST SWAP5 POP POP PUSH1 0x60 PUSH2 0x2713 DUP10 DUP3 DUP11 ADD PUSH2 0x1E45 JUMP JUMPDEST SWAP4 POP POP PUSH1 0x80 DUP8 ADD CALLDATALOAD PUSH8 0xFFFFFFFFFFFFFFFF DUP2 GT ISZERO PUSH2 0x2734 JUMPI PUSH2 0x2733 PUSH2 0x1D42 JUMP JUMPDEST JUMPDEST PUSH2 0x2740 DUP10 DUP3 DUP11 ADD PUSH2 0x1E69 JUMP JUMPDEST SWAP3 POP SWAP3 POP POP SWAP3 SWAP6 POP SWAP3 SWAP6 POP SWAP3 SWAP6 JUMP JUMPDEST PUSH1 0x0 DUP3 DUP3 MSTORE PUSH1 0x20 DUP3 ADD SWAP1 POP SWAP3 SWAP2 POP POP JUMP JUMPDEST PUSH32 0x4E6F6E2D7369676E657220696E206F6E6C795369676E6572206D6574686F6400 PUSH1 0x0 DUP3 ADD MSTORE POP JUMP JUMPDEST PUSH1 0x0 PUSH2 0x2796 PUSH1 0x1F DUP4 PUSH2 0x274F JUMP JUMPDEST SWAP2 POP PUSH2 0x27A1 DUP3 PUSH2 0x2760 JUMP JUMPDEST PUSH1 0x20 DUP3 ADD SWAP1 POP SWAP2 SWAP1 POP JUMP JUMPDEST PUSH1 0x0 PUSH1 0x20 DUP3 ADD SWAP1 POP DUP2 DUP2 SUB PUSH1 0x0 DUP4 ADD MSTORE PUSH2 0x27C5 DUP2 PUSH2 0x2789 JUMP JUMPDEST SWAP1 POP SWAP2 SWAP1 POP JUMP JUMPDEST PUSH1 0x0 DUP2 MLOAD SWAP1 POP SWAP2 SWAP1 POP JUMP JUMPDEST PUSH1 0x0 DUP2 SWAP1 POP SWAP3 SWAP2 POP POP JUMP JUMPDEST PUSH1 0x0 JUMPDEST DUP4 DUP2 LT ISZERO PUSH2 0x2800 JUMPI DUP1 DUP3 ADD MLOAD DUP2 DUP5 ADD MSTORE PUSH1 0x20 DUP2 ADD SWAP1 POP PUSH2 0x27E5 JUMP JUMPDEST DUP4 DUP2 GT ISZERO PUSH2 0x280F JUMPI PUSH1 0x0 DUP5 DUP5 ADD MSTORE JUMPDEST POP POP POP POP JUMP JUMPDEST PUSH1 0x0 PUSH2 0x2820 DUP3 PUSH2 0x27CC JUMP JUMPDEST PUSH2 0x282A DUP2 DUP6 PUSH2 0x27D7 JUMP JUMPDEST SWAP4 POP PUSH2 0x283A DUP2 DUP6 PUSH1 0x20 DUP7 ADD PUSH2 0x27E2 JUMP JUMPDEST DUP1 DUP5 ADD SWAP2 POP POP SWAP3 SWAP2 POP POP JUMP JUMPDEST PUSH1 0x0 DUP2 PUSH1 0x60 SHL SWAP1 POP SWAP2 SWAP1 POP JUMP JUMPDEST PUSH1 0x0 PUSH2 0x285E DUP3 PUSH2 0x2846 JUMP JUMPDEST SWAP1 POP SWAP2 SWAP1 POP JUMP JUMPDEST PUSH1 0x0 PUSH2 0x2870 DUP3 PUSH2 0x2853 JUMP JUMPDEST SWAP1 POP SWAP2 SWAP1 POP JUMP JUMPDEST PUSH2 0x2888 PUSH2 0x2883 DUP3 PUSH2 0x1BF9 JUMP JUMPDEST PUSH2 0x2865 JUMP JUMPDEST DUP3 MSTORE POP POP JUMP JUMPDEST PUSH1 0x0 DUP2 SWAP1 POP SWAP2 SWAP1 POP JUMP JUMPDEST PUSH2 0x28A9 PUSH2 0x28A4 DUP3 PUSH2 0x1C1A JUMP JUMPDEST PUSH2 0x288E JUMP JUMPDEST DUP3 MSTORE POP POP JUMP JUMPDEST PUSH1 0x0 PUSH2 0x28BB DUP3 DUP10 PUSH2 0x2815 JUMP JUMPDEST SWAP2 POP PUSH2 0x28C7 DUP3 DUP9 PUSH2 0x2877 JUMP JUMPDEST PUSH1 0x14 DUP3 ADD SWAP2 POP PUSH2 0x28D7 DUP3 DUP8 PUSH2 0x2898 JUMP JUMPDEST PUSH1 0x20 DUP3 ADD SWAP2 POP PUSH2 0x28E7 DUP3 DUP7 PUSH2 0x2877 JUMP JUMPDEST PUSH1 0x14 DUP3 ADD SWAP2 POP PUSH2 0x28F7 DUP3 DUP6 PUSH2 0x2898 JUMP JUMPDEST PUSH1 0x20 DUP3 ADD SWAP2 POP PUSH2 0x2907 DUP3 DUP5 PUSH2 0x2898 JUMP JUMPDEST PUSH1 0x20 DUP3 ADD SWAP2 POP DUP2 SWAP1 POP SWAP8 SWAP7 POP POP POP POP POP POP POP JUMP JUMPDEST PUSH1 0x0 PUSH1 0x20 DUP3 ADD SWAP1 POP PUSH2 0x2930 PUSH1 0x0 DUP4 ADD DUP5 PUSH2 0x1C0B JUMP JUMPDEST SWAP3 SWAP2 POP POP JUMP JUMPDEST PUSH1 0x0 DUP3 DUP3 MSTORE PUSH1 0x20 DUP3 ADD SWAP1 POP SWAP3 SWAP2 POP POP JUMP JUMPDEST PUSH1 0x0 DUP1 REVERT JUMPDEST PUSH1 0x0 PUSH2 0x2958 DUP4 DUP6 PUSH2 0x2936 JUMP JUMPDEST SWAP4 POP PUSH32 0x7FFFFFFFFFFFFFFFFFFFFFFFFFFFFFFFFFFFFFFFFFFFFFFFFFFFFFFFFFFFFFF DUP4 GT ISZERO PUSH2 0x298B JUMPI PUSH2 0x298A PUSH2 0x2947 JUMP JUMPDEST JUMPDEST PUSH1 0x20 DUP4 MUL SWAP3 POP PUSH2 0x299C DUP4 DUP6 DUP5 PUSH2 0x1CA6 JUMP JUMPDEST DUP3 DUP5 ADD SWAP1 POP SWAP4 SWAP3 POP POP POP JUMP JUMPDEST PUSH1 0x0 PUSH1 0x40 DUP3 ADD SWAP1 POP PUSH2 0x29BD PUSH1 0x0 DUP4 ADD DUP7 PUSH2 0x1C0B JUMP JUMPDEST DUP2 DUP2 SUB PUSH1 0x20 DUP4 ADD MSTORE PUSH2 0x29D0 DUP2 DUP5 DUP7 PUSH2 0x294C JUMP JUMPDEST SWAP1 POP SWAP5 SWAP4 POP POP POP POP JUMP JUMPDEST PUSH1 0x0 DUP2 SWAP1 POP SWAP3 SWAP2 POP POP JUMP JUMPDEST PUSH1 0x0 PUSH2 0x29F1 DUP4 DUP6 PUSH2 0x29DA JUMP JUMPDEST SWAP4 POP PUSH2 0x29FE DUP4 DUP6 DUP5 PUSH2 0x1CA6 JUMP JUMPDEST DUP3 DUP5 ADD SWAP1 POP SWAP4 SWAP3 POP POP POP JUMP JUMPDEST PUSH1 0x0 PUSH2 0x2A16 DUP3 DUP11 PUSH2 0x2815 JUMP JUMPDEST SWAP2 POP PUSH2 0x2A22 DUP3 DUP10 PUSH2 0x2877 JUMP JUMPDEST PUSH1 0x14 DUP3 ADD SWAP2 POP PUSH2 0x2A32 DUP3 DUP9 PUSH2 0x2898 JUMP JUMPDEST PUSH1 0x20 DUP3 ADD SWAP2 POP PUSH2 0x2A43 DUP3 DUP7 DUP9 PUSH2 0x29E5 JUMP JUMPDEST SWAP2 POP PUSH2 0x2A4F DUP3 DUP6 PUSH2 0x2898 JUMP JUMPDEST PUSH1 0x20 DUP3 ADD SWAP2 POP PUSH2 0x2A5F DUP3 DUP5 PUSH2 0x2898 JUMP JUMPDEST PUSH1 0x20 DUP3 ADD SWAP2 POP DUP2 SWAP1 POP SWAP9 SWAP8 POP POP POP POP POP POP POP POP JUMP JUMPDEST PUSH1 0x0 PUSH2 0x2A81 DUP3 DUP5 DUP7 PUSH2 0x29E5 JUMP JUMPDEST SWAP2 POP DUP2 SWAP1 POP SWAP4 SWAP3 POP POP POP JUMP JUMPDEST PUSH32 0x43616C6C20657865637574696F6E206661696C65640000000000000000000000 PUSH1 0x0 DUP3 ADD MSTORE POP JUMP JUMPDEST PUSH1 0x0 PUSH2 0x2AC3 PUSH1 0x15 DUP4 PUSH2 0x274F JUMP JUMPDEST SWAP2 POP PUSH2 0x2ACE DUP3 PUSH2 0x2A8D JUMP JUMPDEST PUSH1 0x20 DUP3 ADD SWAP1 POP SWAP2 SWAP1 POP JUMP JUMPDEST PUSH1 0x0 PUSH1 0x20 DUP3 ADD SWAP1 POP DUP2 DUP2 SUB PUSH1 0x0 DUP4 ADD MSTORE PUSH2 0x2AF2 DUP2 PUSH2 0x2AB6 JUMP JUMPDEST SWAP1 POP SWAP2 SWAP1 POP JUMP JUMPDEST PUSH1 0x0 DUP2 SWAP1 POP SWAP2 SWAP1 POP JUMP JUMPDEST PUSH2 0x2B0C DUP2 PUSH2 0x2AF9 JUMP JUMPDEST DUP3 MSTORE POP POP JUMP JUMPDEST PUSH1 0x0 PUSH1 0xC0 DUP3 ADD SWAP1 POP PUSH2 0x2B27 PUSH1 0x0 DUP4 ADD DUP11 PUSH2 0x1C0B JUMP JUMPDEST PUSH2 0x2B34 PUSH1 0x20 DUP4 ADD DUP10 PUSH2 0x1C0B JUMP JUMPDEST PUSH2 0x2B41 PUSH1 0x40 DUP4 ADD DUP9 PUSH2 0x2B03 JUMP JUMPDEST PUSH2 0x2B4E PUSH1 0x60 DUP4 ADD DUP8 PUSH2 0x1C0B JUMP JUMPDEST PUSH2 0x2B5B PUSH1 0x80 DUP4 ADD DUP7 PUSH2 0x1C24 JUMP JUMPDEST DUP2 DUP2 SUB PUSH1 0xA0 DUP4 ADD MSTORE PUSH2 0x2B6E DUP2 DUP5 DUP7 PUSH2 0x1CC6 JUMP JUMPDEST SWAP1 POP SWAP9 SWAP8 POP POP POP POP POP POP POP POP JUMP JUMPDEST PUSH1 0x0 PUSH1 0x40 DUP3 ADD SWAP1 POP PUSH2 0x2B91 PUSH1 0x0 DUP4 ADD DUP6 PUSH2 0x1C0B JUMP JUMPDEST PUSH2 0x2B9E PUSH1 0x20 DUP4 ADD DUP5 PUSH2 0x1C24 JUMP JUMPDEST SWAP4 SWAP3 POP POP POP JUMP JUMPDEST PUSH32 0x4E487B7100000000000000000000000000000000000000000000000000000000 PUSH1 0x0 MSTORE PUSH1 0x32 PUSH1 0x4 MSTORE PUSH1 0x24 PUSH1 0x0 REVERT JUMPDEST PUSH32 0x4E487B7100000000000000000000000000000000000000000000000000000000 PUSH1 0x0 MSTORE PUSH1 0x11 PUSH1 0x4 MSTORE PUSH1 0x24 PUSH1 0x0 REVERT JUMPDEST PUSH1 0x0 PUSH2 0x2C0E DUP3 PUSH2 0x1C1A JUMP JUMPDEST SWAP2 POP PUSH32 0xFFFFFFFFFFFFFFFFFFFFFFFFFFFFFFFFFFFFFFFFFFFFFFFFFFFFFFFFFFFFFFFF DUP3 EQ ISZERO PUSH2 0x2C41 JUMPI PUSH2 0x2C40 PUSH2 0x2BD4 JUMP JUMPDEST JUMPDEST PUSH1 0x1 DUP3 ADD SWAP1 POP SWAP2 SWAP1 POP JUMP JUMPDEST PUSH1 0x0 PUSH2 0x2C57 DUP3 PUSH2 0x1C1A JUMP JUMPDEST SWAP2 POP PUSH2 0x2C62 DUP4 PUSH2 0x1C1A JUMP JUMPDEST SWAP3 POP DUP3 PUSH32 0xFFFFFFFFFFFFFFFFFFFFFFFFFFFFFFFFFFFFFFFFFFFFFFFFFFFFFFFFFFFFFFFF SUB DUP3 GT ISZERO PUSH2 0x2C97 JUMPI PUSH2 0x2C96 PUSH2 0x2BD4 JUMP JUMPDEST JUMPDEST DUP3 DUP3 ADD SWAP1 POP SWAP3 SWAP2 POP POP JUMP JUMPDEST PUSH32 0x4E6F7420656E6F75676820726563697069656E74730000000000000000000000 PUSH1 0x0 DUP3 ADD MSTORE POP JUMP JUMPDEST PUSH1 0x0 PUSH2 0x2CD8 PUSH1 0x15 DUP4 PUSH2 0x274F JUMP JUMPDEST SWAP2 POP PUSH2 0x2CE3 DUP3 PUSH2 0x2CA2 JUMP JUMPDEST PUSH1 0x20 DUP3 ADD SWAP1 POP SWAP2 SWAP1 POP JUMP JUMPDEST PUSH1 0x0 PUSH1 0x20 DUP3 ADD SWAP1 POP DUP2 DUP2 SUB PUSH1 0x0 DUP4 ADD MSTORE PUSH2 0x2D07 DUP2 PUSH2 0x2CCB JUMP JUMPDEST SWAP1 POP SWAP2 SWAP1 POP JUMP JUMPDEST PUSH32 0x556E657175616C20726563697069656E747320616E642076616C756573000000 PUSH1 0x0 DUP3 ADD MSTORE POP JUMP JUMPDEST PUSH1 0x0 PUSH2 0x2D44 PUSH1 0x1D DUP4 PUSH2 0x274F JUMP JUMPDEST SWAP2 POP PUSH2 0x2D4F DUP3 PUSH2 0x2D0E JUMP JUMPDEST PUSH1 0x20 DUP3 ADD SWAP1 POP SWAP2 SWAP1 POP JUMP JUMPDEST PUSH1 0x0 PUSH1 0x20 DUP3 ADD SWAP1 POP DUP2 DUP2 SUB PUSH1 0x0 DUP4 ADD MSTORE PUSH2 0x2D73 DUP2 PUSH2 0x2D37 JUMP JUMPDEST SWAP1 POP SWAP2 SWAP1 POP JUMP JUMPDEST PUSH32 0x546F6F206D616E7920726563697069656E74732C206D61782032353500000000 PUSH1 0x0 DUP3 ADD MSTORE POP JUMP JUMPDEST PUSH1 0x0 PUSH2 0x2DB0 PUSH1 0x1C DUP4 PUSH2 0x274F JUMP JUMPDEST SWAP2 POP PUSH2 0x2DBB DUP3 PUSH2 0x2D7A JUMP JUMPDEST PUSH1 0x20 DUP3 ADD SWAP1 POP SWAP2 SWAP1 POP JUMP JUMPDEST PUSH1 0x0 PUSH1 0x20 DUP3 ADD SWAP1 POP DUP2 DUP2 SUB PUSH1 0x0 DUP4 ADD MSTORE PUSH2 0x2DDF DUP2 PUSH2 0x2DA3 JUMP JUMPDEST SWAP1 POP SWAP2 SWAP1 POP JUMP JUMPDEST PUSH1 0x0 DUP2 SWAP1 POP SWAP3 SWAP2 POP POP JUMP JUMPDEST PUSH1 0x0 DUP2 SWAP1 POP SWAP2 SWAP1 POP JUMP JUMPDEST PUSH2 0x2E04 DUP2 PUSH2 0x1BF9 JUMP JUMPDEST DUP3 MSTORE POP POP JUMP JUMPDEST PUSH1 0x0 PUSH2 0x2E16 DUP4 DUP4 PUSH2 0x2DFB JUMP JUMPDEST PUSH1 0x20 DUP4 ADD SWAP1 POP SWAP3 SWAP2 POP POP JUMP JUMPDEST PUSH1 0x0 PUSH2 0x2E31 PUSH1 0x20 DUP5 ADD DUP5 PUSH2 0x1E19 JUMP JUMPDEST SWAP1 POP SWAP3 SWAP2 POP POP JUMP JUMPDEST PUSH1 0x0 PUSH1 0x20 DUP3 ADD SWAP1 POP SWAP2 SWAP1 POP JUMP JUMPDEST PUSH1 0x0 PUSH2 0x2E52 DUP4 DUP6 PUSH2 0x2DE6 JUMP JUMPDEST SWAP4 POP PUSH2 0x2E5D DUP3 PUSH2 0x2DF1 JUMP JUMPDEST DUP1 PUSH1 0x0 JUMPDEST DUP6 DUP2 LT ISZERO PUSH2 0x2E96 JUMPI PUSH2 0x2E73 DUP3 DUP5 PUSH2 0x2E22 JUMP JUMPDEST PUSH2 0x2E7D DUP9 DUP3 PUSH2 0x2E0A JUMP JUMPDEST SWAP8 POP PUSH2 0x2E88 DUP4 PUSH2 0x2E39 JUMP JUMPDEST SWAP3 POP POP PUSH1 0x1 DUP2 ADD SWAP1 POP PUSH2 0x2E61 JUMP JUMPDEST POP DUP6 SWAP3 POP POP POP SWAP4 SWAP3 POP POP POP JUMP JUMPDEST PUSH1 0x0 DUP2 SWAP1 POP SWAP3 SWAP2 POP POP JUMP JUMPDEST PUSH1 0x0 PUSH2 0x2EBA DUP4 DUP6 PUSH2 0x2EA3 JUMP JUMPDEST SWAP4 POP PUSH32 0x7FFFFFFFFFFFFFFFFFFFFFFFFFFFFFFFFFFFFFFFFFFFFFFFFFFFFFFFFFFFFFF DUP4 GT ISZERO PUSH2 0x2EED JUMPI PUSH2 0x2EEC PUSH2 0x2947 JUMP JUMPDEST JUMPDEST PUSH1 0x20 DUP4 MUL SWAP3 POP PUSH2 0x2EFE DUP4 DUP6 DUP5 PUSH2 0x1CA6 JUMP JUMPDEST DUP3 DUP5 ADD SWAP1 POP SWAP4 SWAP3 POP POP POP JUMP JUMPDEST PUSH1 0x0 PUSH2 0x2F16 DUP3 DUP11 PUSH2 0x2815 JUMP JUMPDEST SWAP2 POP PUSH2 0x2F23 DUP3 DUP9 DUP11 PUSH2 0x2E46 JUMP JUMPDEST SWAP2 POP PUSH2 0x2F30 DUP3 DUP7 DUP9 PUSH2 0x2EAE JUMP JUMPDEST SWAP2 POP PUSH2 0x2F3C DUP3 DUP6 PUSH2 0x2898 JUMP JUMPDEST PUSH1 0x20 DUP3 ADD SWAP2 POP PUSH2 0x2F4C DUP3 DUP5 PUSH2 0x2898 JUMP JUMPDEST PUSH1 0x20 DUP3 ADD SWAP2 POP DUP2 SWAP1 POP SWAP9 SWAP8 POP POP POP POP POP POP POP POP JUMP JUMPDEST PUSH32 0x426174636820696E2073616665206D6F64650000000000000000000000000000 PUSH1 0x0 DUP3 ADD MSTORE POP JUMP JUMPDEST PUSH1 0x0 PUSH2 0x2F97 PUSH1 0x12 DUP4 PUSH2 0x274F JUMP JUMPDEST SWAP2 POP PUSH2 0x2FA2 DUP3 PUSH2 0x2F61 JUMP JUMPDEST PUSH1 0x20 DUP3 ADD SWAP1 POP SWAP2 SWAP1 POP JUMP JUMPDEST PUSH1 0x0 PUSH1 0x20 DUP3 ADD SWAP1 POP DUP2 DUP2 SUB PUSH1 0x0 DUP4 ADD MSTORE PUSH2 0x2FC6 DUP2 PUSH2 0x2F8A JUMP JUMPDEST SWAP1 POP SWAP2 SWAP1 POP JUMP JUMPDEST PUSH1 0x0 PUSH1 0x60 DUP3 ADD SWAP1 POP PUSH2 0x2FE2 PUSH1 0x0 DUP4 ADD DUP7 PUSH2 0x1C0B JUMP JUMPDEST PUSH2 0x2FEF PUSH1 0x20 DUP4 ADD DUP6 PUSH2 0x1C0B JUMP JUMPDEST PUSH2 0x2FFC PUSH1 0x40 DUP4 ADD DUP5 PUSH2 0x2B03 JUMP JUMPDEST SWAP5 SWAP4 POP POP POP POP JUMP JUMPDEST PUSH32 0x436F6E747261637420616C726561647920696E697469616C697A656400000000 PUSH1 0x0 DUP3 ADD MSTORE POP JUMP JUMPDEST PUSH1 0x0 PUSH2 0x303A PUSH1 0x1C DUP4 PUSH2 0x274F JUMP JUMPDEST SWAP2 POP PUSH2 0x3045 DUP3 PUSH2 0x3004 JUMP JUMPDEST PUSH1 0x20 DUP3 ADD SWAP1 POP SWAP2 SWAP1 POP JUMP JUMPDEST PUSH1 0x0 PUSH1 0x20 DUP3 ADD SWAP1 POP DUP2 DUP2 SUB PUSH1 0x0 DUP4 ADD MSTORE PUSH2 0x3069 DUP2 PUSH2 0x302D JUMP JUMPDEST SWAP1 POP SWAP2 SWAP1 POP JUMP JUMPDEST PUSH32 0x496E76616C6964206E756D626572206F66207369676E65727300000000000000 PUSH1 0x0 DUP3 ADD MSTORE POP JUMP JUMPDEST PUSH1 0x0 PUSH2 0x30A6 PUSH1 0x19 DUP4 PUSH2 0x274F JUMP JUMPDEST SWAP2 POP PUSH2 0x30B1 DUP3 PUSH2 0x3070 JUMP JUMPDEST PUSH1 0x20 DUP3 ADD SWAP1 POP SWAP2 SWAP1 POP JUMP JUMPDEST PUSH1 0x0 PUSH1 0x20 DUP3 ADD SWAP1 POP DUP2 DUP2 SUB PUSH1 0x0 DUP4 ADD MSTORE PUSH2 0x30D5 DUP2 PUSH2 0x3099 JUMP JUMPDEST SWAP1 POP SWAP2 SWAP1 POP JUMP JUMPDEST PUSH32 0x496E76616C6964207369676E6572000000000000000000000000000000000000 PUSH1 0x0 DUP3 ADD MSTORE POP JUMP JUMPDEST PUSH1 0x0 PUSH2 0x3112 PUSH1 0xE DUP4 PUSH2 0x274F JUMP JUMPDEST SWAP2 POP PUSH2 0x311D DUP3 PUSH2 0x30DC JUMP JUMPDEST PUSH1 0x20 DUP3 ADD SWAP1 POP SWAP2 SWAP1 POP JUMP JUMPDEST PUSH1 0x0 PUSH1 0x20 DUP3 ADD SWAP1 POP DUP2 DUP2 SUB PUSH1 0x0 DUP4 ADD MSTORE PUSH2 0x3141 DUP2 PUSH2 0x3105 JUMP JUMPDEST SWAP1 POP SWAP2 SWAP1 POP JUMP JUMPDEST PUSH1 0x0 PUSH1 0xFF DUP3 AND SWAP1 POP SWAP2 SWAP1 POP JUMP JUMPDEST PUSH1 0x0 PUSH2 0x3160 DUP3 PUSH2 0x3148 JUMP JUMPDEST SWAP2 POP PUSH1 0xFF DUP3 EQ ISZERO PUSH2 0x3174 JUMPI PUSH2 0x3173 PUSH2 0x2BD4 JUMP JUMPDEST JUMPDEST PUSH1 0x1 DUP3 ADD SWAP1 POP SWAP2 SWAP1 POP JUMP JUMPDEST PUSH32 0x45787465726E616C207472616E7366657220696E2073616665206D6F64650000 PUSH1 0x0 DUP3 ADD MSTORE POP JUMP JUMPDEST PUSH1 0x0 PUSH2 0x31B5 PUSH1 0x1E DUP4 PUSH2 0x274F JUMP JUMPDEST SWAP2 POP PUSH2 0x31C0 DUP3 PUSH2 0x317F JUMP JUMPDEST PUSH1 0x20 DUP3 ADD SWAP1 POP SWAP2 SWAP1 POP JUMP JUMPDEST PUSH1 0x0 PUSH1 0x20 DUP3 ADD SWAP1 POP DUP2 DUP2 SUB PUSH1 0x0 DUP4 ADD MSTORE PUSH2 0x31E4 DUP2 PUSH2 0x31A8 JUMP JUMPDEST SWAP1 POP SWAP2 SWAP1 POP JUMP JUMPDEST PUSH32 0x5472616E73616374696F6E206578706972656400000000000000000000000000 PUSH1 0x0 DUP3 ADD MSTORE POP JUMP JUMPDEST PUSH1 0x0 PUSH2 0x3221 PUSH1 0x13 DUP4 PUSH2 0x274F JUMP JUMPDEST SWAP2 POP PUSH2 0x322C DUP3 PUSH2 0x31EB JUMP JUMPDEST PUSH1 0x20 DUP3 ADD SWAP1 POP SWAP2 SWAP1 POP JUMP JUMPDEST PUSH1 0x0 PUSH1 0x20 DUP3 ADD SWAP1 POP DUP2 DUP2 SUB PUSH1 0x0 DUP4 ADD MSTORE PUSH2 0x3250 DUP2 PUSH2 0x3214 JUMP JUMPDEST SWAP1 POP SWAP2 SWAP1 POP JUMP JUMPDEST PUSH32 0x5369676E6572732063616E6E6F7420626520657175616C000000000000000000 PUSH1 0x0 DUP3 ADD MSTORE POP JUMP JUMPDEST PUSH1 0x0 PUSH2 0x328D PUSH1 0x17 DUP4 PUSH2 0x274F JUMP JUMPDEST SWAP2 POP PUSH2 0x3298 DUP3 PUSH2 0x3257 JUMP JUMPDEST PUSH1 0x20 DUP3 ADD SWAP1 POP SWAP2 SWAP1 POP JUMP JUMPDEST PUSH1 0x0 PUSH1 0x20 DUP3 ADD SWAP1 POP DUP2 DUP2 SUB PUSH1 0x0 DUP4 ADD MSTORE PUSH2 0x32BC DUP2 PUSH2 0x3280 JUMP JUMPDEST SWAP1 POP SWAP2 SWAP1 POP JUMP JUMPDEST PUSH1 0x0 DUP2 MLOAD SWAP1 POP SWAP2 SWAP1 POP JUMP JUMPDEST PUSH1 0x0 PUSH2 0x32D9 DUP3 PUSH2 0x32C3 JUMP JUMPDEST PUSH2 0x32E3 DUP2 DUP6 PUSH2 0x29DA JUMP JUMPDEST SWAP4 POP PUSH2 0x32F3 DUP2 DUP6 PUSH1 0x20 DUP7 ADD PUSH2 0x27E2 JUMP JUMPDEST DUP1 DUP5 ADD SWAP2 POP POP SWAP3 SWAP2 POP POP JUMP JUMPDEST PUSH1 0x0 PUSH2 0x330B DUP3 DUP5 PUSH2 0x32CE JUMP JUMPDEST SWAP2 POP DUP2 SWAP1 POP SWAP3 SWAP2 POP POP JUMP JUMPDEST PUSH1 0x0 DUP2 MLOAD SWAP1 POP PUSH2 0x3325 DUP2 PUSH2 0x23D3 JUMP JUMPDEST SWAP3 SWAP2 POP POP JUMP JUMPDEST PUSH1 0x0 PUSH1 0x20 DUP3 DUP5 SUB SLT ISZERO PUSH2 0x3341 JUMPI PUSH2 0x3340 PUSH2 0x1D3D JUMP JUMPDEST JUMPDEST PUSH1 0x0 PUSH2 0x334F DUP5 DUP3 DUP6 ADD PUSH2 0x3316 JUMP JUMPDEST SWAP2 POP POP SWAP3 SWAP2 POP POP JUMP JUMPDEST PUSH32 0x5472616E7366657248656C7065723A3A736166655472616E736665723A207472 PUSH1 0x0 DUP3 ADD MSTORE PUSH32 0x616E73666572206661696C656400000000000000000000000000000000000000 PUSH1 0x20 DUP3 ADD MSTORE POP JUMP JUMPDEST PUSH1 0x0 PUSH2 0x33B4 PUSH1 0x2D DUP4 PUSH2 0x274F JUMP JUMPDEST SWAP2 POP PUSH2 0x33BF DUP3 PUSH2 0x3358 JUMP JUMPDEST PUSH1 0x40 DUP3 ADD SWAP1 POP SWAP2 SWAP1 POP JUMP JUMPDEST PUSH1 0x0 PUSH1 0x20 DUP3 ADD SWAP1 POP DUP2 DUP2 SUB PUSH1 0x0 DUP4 ADD MSTORE PUSH2 0x33E3 DUP2 PUSH2 0x33A7 JUMP JUMPDEST SWAP1 POP SWAP2 SWAP1 POP JUMP JUMPDEST PUSH32 0x496E73756666696369656E742066756E64730000000000000000000000000000 PUSH1 0x0 DUP3 ADD MSTORE POP JUMP JUMPDEST PUSH1 0x0 PUSH2 0x3420 PUSH1 0x12 DUP4 PUSH2 0x274F JUMP JUMPDEST SWAP2 POP PUSH2 0x342B DUP3 PUSH2 0x33EA JUMP JUMPDEST PUSH1 0x20 DUP3 ADD SWAP1 POP SWAP2 SWAP1 POP JUMP JUMPDEST PUSH1 0x0 PUSH1 0x20 DUP3 ADD SWAP1 POP DUP2 DUP2 SUB PUSH1 0x0 DUP4 ADD MSTORE PUSH2 0x344F DUP2 PUSH2 0x3413 JUMP JUMPDEST SWAP1 POP SWAP2 SWAP1 POP JUMP JUMPDEST PUSH1 0x0 PUSH2 0x3463 PUSH1 0x0 DUP4 PUSH2 0x29DA JUMP JUMPDEST SWAP2 POP PUSH2 0x346E DUP3 PUSH2 0x1C44 JUMP JUMPDEST PUSH1 0x0 DUP3 ADD SWAP1 POP SWAP2 SWAP1 POP JUMP JUMPDEST PUSH1 0x0 PUSH2 0x3484 DUP3 PUSH2 0x3456 JUMP JUMPDEST SWAP2 POP DUP2 SWAP1 POP SWAP2 SWAP1 POP JUMP JUMPDEST PUSH32 0x43616C6C206661696C6564000000000000000000000000000000000000000000 PUSH1 0x0 DUP3 ADD MSTORE POP JUMP JUMPDEST PUSH1 0x0 PUSH2 0x34C4 PUSH1 0xB DUP4 PUSH2 0x274F JUMP JUMPDEST SWAP2 POP PUSH2 0x34CF DUP3 PUSH2 0x348E JUMP JUMPDEST PUSH1 0x20 DUP3 ADD SWAP1 POP SWAP2 SWAP1 POP JUMP JUMPDEST PUSH1 0x0 PUSH1 0x20 DUP3 ADD SWAP1 POP DUP2 DUP2 SUB PUSH1 0x0 DUP4 ADD MSTORE PUSH2 0x34F3 DUP2 PUSH2 0x34B7 JUMP JUMPDEST SWAP1 POP SWAP2 SWAP1 POP JUMP JUMPDEST PUSH1 0x0 PUSH1 0x60 DUP3 ADD SWAP1 POP PUSH2 0x350F PUSH1 0x0 DUP4 ADD DUP7 PUSH2 0x1C0B JUMP JUMPDEST PUSH2 0x351C PUSH1 0x20 DUP4 ADD DUP6 PUSH2 0x1C0B JUMP JUMPDEST PUSH2 0x3529 PUSH1 0x40 DUP4 ADD DUP5 PUSH2 0x1C24 JUMP JUMPDEST SWAP5 SWAP4 POP POP POP POP JUMP JUMPDEST PUSH32 0x496E76616C6964207369676E6174757265202D2077726F6E67206C656E677468 PUSH1 0x0 DUP3 ADD MSTORE POP JUMP JUMPDEST PUSH1 0x0 PUSH2 0x3567 PUSH1 0x20 DUP4 PUSH2 0x274F JUMP JUMPDEST SWAP2 POP PUSH2 0x3572 DUP3 PUSH2 0x3531 JUMP JUMPDEST PUSH1 0x20 DUP3 ADD SWAP1 POP SWAP2 SWAP1 POP JUMP JUMPDEST PUSH1 0x0 PUSH1 0x20 DUP3 ADD SWAP1 POP DUP2 DUP2 SUB PUSH1 0x0 DUP4 ADD MSTORE PUSH2 0x3596 DUP2 PUSH2 0x355A JUMP JUMPDEST SWAP1 POP SWAP2 SWAP1 POP JUMP JUMPDEST PUSH1 0x0 PUSH2 0x35A8 DUP3 PUSH2 0x3148 JUMP JUMPDEST SWAP2 POP PUSH2 0x35B3 DUP4 PUSH2 0x3148 JUMP JUMPDEST SWAP3 POP DUP3 PUSH1 0xFF SUB DUP3 GT ISZERO PUSH2 0x35C9 JUMPI PUSH2 0x35C8 PUSH2 0x2BD4 JUMP JUMPDEST JUMPDEST DUP3 DUP3 ADD SWAP1 POP SWAP3 SWAP2 POP POP JUMP JUMPDEST PUSH32 0x45434453413A20696E76616C6964207369676E6174757265202773272076616C PUSH1 0x0 DUP3 ADD MSTORE PUSH32 0x7565000000000000000000000000000000000000000000000000000000000000 PUSH1 0x20 DUP3 ADD MSTORE POP JUMP JUMPDEST PUSH1 0x0 PUSH2 0x3630 PUSH1 0x22 DUP4 PUSH2 0x274F JUMP JUMPDEST SWAP2 POP PUSH2 0x363B DUP3 PUSH2 0x35D4 JUMP JUMPDEST PUSH1 0x40 DUP3 ADD SWAP1 POP SWAP2 SWAP1 POP JUMP JUMPDEST PUSH1 0x0 PUSH1 0x20 DUP3 ADD SWAP1 POP DUP2 DUP2 SUB PUSH1 0x0 DUP4 ADD MSTORE PUSH2 0x365F DUP2 PUSH2 0x3623 JUMP JUMPDEST SWAP1 POP SWAP2 SWAP1 POP JUMP JUMPDEST PUSH2 0x366F DUP2 PUSH2 0x3148 JUMP JUMPDEST DUP3 MSTORE POP POP JUMP JUMPDEST PUSH1 0x0 PUSH1 0x80 DUP3 ADD SWAP1 POP PUSH2 0x368A PUSH1 0x0 DUP4 ADD DUP8 PUSH2 0x2B03 JUMP JUMPDEST PUSH2 0x3697 PUSH1 0x20 DUP4 ADD DUP7 PUSH2 0x3666 JUMP JUMPDEST PUSH2 0x36A4 PUSH1 0x40 DUP4 ADD DUP6 PUSH2 0x2B03 JUMP JUMPDEST PUSH2 0x36B1 PUSH1 0x60 DUP4 ADD DUP5 PUSH2 0x2B03 JUMP JUMPDEST SWAP6 SWAP5 POP POP POP POP POP JUMP JUMPDEST PUSH32 0x53657175656E636520494420616C726561647920757365640000000000000000 PUSH1 0x0 DUP3 ADD MSTORE POP JUMP JUMPDEST PUSH1 0x0 PUSH2 0x36F0 PUSH1 0x18 DUP4 PUSH2 0x274F JUMP JUMPDEST SWAP2 POP PUSH2 0x36FB DUP3 PUSH2 0x36BA JUMP JUMPDEST PUSH1 0x20 DUP3 ADD SWAP1 POP SWAP2 SWAP1 POP JUMP JUMPDEST PUSH1 0x0 PUSH1 0x20 DUP3 ADD SWAP1 POP DUP2 DUP2 SUB PUSH1 0x0 DUP4 ADD MSTORE PUSH2 0x371F DUP2 PUSH2 0x36E3 JUMP JUMPDEST SWAP1 POP SWAP2 SWAP1 POP JUMP JUMPDEST PUSH32 0x53657175656E63652049442062656C6F772077696E646F770000000000000000 PUSH1 0x0 DUP3 ADD MSTORE POP JUMP JUMPDEST PUSH1 0x0 PUSH2 0x375C PUSH1 0x18 DUP4 PUSH2 0x274F JUMP JUMPDEST SWAP2 POP PUSH2 0x3767 DUP3 PUSH2 0x3726 JUMP JUMPDEST PUSH1 0x20 DUP3 ADD SWAP1 POP SWAP2 SWAP1 POP JUMP JUMPDEST PUSH1 0x0 PUSH1 0x20 DUP3 ADD SWAP1 POP DUP2 DUP2 SUB PUSH1 0x0 DUP4 ADD MSTORE PUSH2 0x378B DUP2 PUSH2 0x374F JUMP JUMPDEST SWAP1 POP SWAP2 SWAP1 POP JUMP JUMPDEST PUSH32 0x53657175656E63652049442061626F7665206D6178696D756D00000000000000 PUSH1 0x0 DUP3 ADD MSTORE POP JUMP JUMPDEST PUSH1 0x0 PUSH2 0x37C8 PUSH1 0x19 DUP4 PUSH2 0x274F JUMP JUMPDEST SWAP2 POP PUSH2 0x37D3 DUP3 PUSH2 0x3792 JUMP JUMPDEST PUSH1 0x20 DUP3 ADD SWAP1 POP SWAP2 SWAP1 POP JUMP JUMPDEST PUSH1 0x0 PUSH1 0x20 DUP3 ADD SWAP1 POP DUP2 DUP2 SUB PUSH1 0x0 DUP4 ADD MSTORE PUSH2 0x37F7 DUP2 PUSH2 0x37BB JUMP JUMPDEST SWAP1 POP SWAP2 SWAP1 POP JUMP INVALID LOG2 PUSH5 0x6970667358 0x22 SLT KECCAK256 0x2B GASPRICE 0xAD 0xFB SELFBALANCE 0xE4 0xCF 0xC4 DUP11 PUSH30 0xB3705868C20CBD544A38D3B428EFA7500F44578265DC64736F6C63430008 EXP STOP CALLER "
		},
		"gasEstimates": {
			"creation": {
				"codeDepositCost": "2877600",
				"executionCost": "51730",
				"totalCost": "2929330"
			},
			"external": {
				"": "infinite",
				"activateSafeMode()": "28045",
				"batchFlushERC1155ForwarderTokens(address,address,uint256[])": "infinite",
				"flushERC1155ForwarderTokens(address,address,uint256)": "infinite",
				"flushERC721ForwarderTokens(address,address,uint256)": "infinite",
				"flushForwarderTokens(address,address)": "infinite",
				"getNextSequenceId()": "infinite",
				"init(address[])": "infinite",
				"initialized()": "2608",
				"isSigner(address)": "2994",
				"onERC1155BatchReceived(address,address,uint256[],uint256[],bytes)": "infinite",
				"onERC1155Received(address,address,uint256,uint256,bytes)": "infinite",
				"onERC721Received(address,address,uint256,bytes)": "infinite",
				"safeMode()": "2538",
				"sendMultiSig(address,uint256,bytes,uint256,uint256,bytes)": "infinite",
				"sendMultiSigBatch(address[],uint256[],uint256,uint256,bytes)": "infinite",
				"sendMultiSigToken(address,uint256,address,uint256,uint256,bytes)": "infinite",
				"setAutoFlush1155(address,bool)": "infinite",
				"setAutoFlush721(address,bool)": "infinite",
				"signers(address)": "2934",
				"supportsInterface(bytes4)": "751"
			},
			"internal": {
				"batchTransfer(address[] calldata,uint256[] calldata)": "infinite",
				"getBatchNetworkId()": "infinite",
				"getNetworkId()": "infinite",
				"getTokenNetworkId()": "infinite",
				"recoverAddressFromSignature(bytes32,bytes memory)": "infinite",
				"tryInsertSequenceId(uint256)": "infinite",
				"verifyMultiSig(address,bytes32,bytes calldata,uint256,uint256)": "infinite"
			}
		},
		"methodIdentifiers": {
			"activateSafeMode()": "fc0f392d",
			"batchFlushERC1155ForwarderTokens(address,address,uint256[])": "34f94047",
			"flushERC1155ForwarderTokens(address,address,uint256)": "e6bd0aa4",
			"flushERC721ForwarderTokens(address,address,uint256)": "5a953d0a",
			"flushForwarderTokens(address,address)": "2da03409",
			"getNextSequenceId()": "a0b7967b",
			"init(address[])": "c6044c46",
			"initialized()": "158ef93e",
			"isSigner(address)": "7df73e27",
			"onERC1155BatchReceived(address,address,uint256[],uint256[],bytes)": "bc197c81",
			"onERC1155Received(address,address,uint256,uint256,bytes)": "f23a6e61",
			"onERC721Received(address,address,uint256,bytes)": "150b7a02",
			"safeMode()": "abe3219c",
			"sendMultiSig(address,uint256,bytes,uint256,uint256,bytes)": "39125215",
			"sendMultiSigBatch(address[],uint256[],uint256,uint256,bytes)": "ad3ad709",
			"sendMultiSigToken(address,uint256,address,uint256,uint256,bytes)": "0dcd7a6c",
			"setAutoFlush1155(address,bool)": "92467776",
			"setAutoFlush721(address,bool)": "c1378784",
			"signers(address)": "736c0d5b",
			"supportsInterface(bytes4)": "01ffc9a7"
		}
	},
	"abi": [
		{
			"anonymous": false,
			"inputs": [
				{
					"indexed": false,
					"internalType": "address",
					"name": "msgSender",
					"type": "address"
				},
				{
					"indexed": false,
					"internalType": "address",
					"name": "otherSigner",
					"type": "address"
				},
				{
					"indexed": false,
					"internalType": "bytes32",
					"name": "operation",
					"type": "bytes32"
				}
			],
			"name": "BatchTransacted",
			"type": "event"
		},
		{
			"anonymous": false,
			"inputs": [
				{
					"indexed": false,
					"internalType": "address",
					"name": "sender",
					"type": "address"
				},
				{
					"indexed": false,
					"internalType": "address",
					"name": "recipient",
					"type": "address"
				},
				{
					"indexed": false,
					"internalType": "uint256",
					"name": "value",
					"type": "uint256"
				}
			],
			"name": "BatchTransfer",
			"type": "event"
		},
		{
			"anonymous": false,
			"inputs": [
				{
					"indexed": false,
					"internalType": "address",
					"name": "from",
					"type": "address"
				},
				{
					"indexed": false,
					"internalType": "uint256",
					"name": "value",
					"type": "uint256"
				},
				{
					"indexed": false,
					"internalType": "bytes",
					"name": "data",
					"type": "bytes"
				}
			],
			"name": "Deposited",
			"type": "event"
		},
		{
			"anonymous": false,
			"inputs": [
				{
					"indexed": false,
					"internalType": "address",
					"name": "msgSender",
					"type": "address"
				}
			],
			"name": "SafeModeActivated",
			"type": "event"
		},
		{
			"anonymous": false,
			"inputs": [
				{
					"indexed": false,
					"internalType": "address",
					"name": "msgSender",
					"type": "address"
				},
				{
					"indexed": false,
					"internalType": "address",
					"name": "otherSigner",
					"type": "address"
				},
				{
					"indexed": false,
					"internalType": "bytes32",
					"name": "operation",
					"type": "bytes32"
				},
				{
					"indexed": false,
					"internalType": "address",
					"name": "toAddress",
					"type": "address"
				},
				{
					"indexed": false,
					"internalType": "uint256",
					"name": "value",
					"type": "uint256"
				},
				{
					"indexed": false,
					"internalType": "bytes",
					"name": "data",
					"type": "bytes"
				}
			],
			"name": "Transacted",
			"type": "event"
		},
		{
			"stateMutability": "payable",
			"type": "fallback"
		},
		{
			"inputs": [],
			"name": "activateSafeMode",
			"outputs": [],
			"stateMutability": "nonpayable",
			"type": "function"
		},
		{
			"inputs": [
				{
					"internalType": "address payable",
					"name": "forwarderAddress",
					"type": "address"
				},
				{
					"internalType": "address",
					"name": "tokenContractAddress",
					"type": "address"
				},
				{
					"internalType": "uint256[]",
					"name": "tokenIds",
					"type": "uint256[]"
				}
			],
			"name": "batchFlushERC1155ForwarderTokens",
			"outputs": [],
			"stateMutability": "nonpayable",
			"type": "function"
		},
		{
			"inputs": [
				{
					"internalType": "address payable",
					"name": "forwarderAddress",
					"type": "address"
				},
				{
					"internalType": "address",
					"name": "tokenContractAddress",
					"type": "address"
				},
				{
					"internalType": "uint256",
					"name": "tokenId",
					"type": "uint256"
				}
			],
			"name": "flushERC1155ForwarderTokens",
			"outputs": [],
			"stateMutability": "nonpayable",
			"type": "function"
		},
		{
			"inputs": [
				{
					"internalType": "address payable",
					"name": "forwarderAddress",
					"type": "address"
				},
				{
					"internalType": "address",
					"name": "tokenContractAddress",
					"type": "address"
				},
				{
					"internalType": "uint256",
					"name": "tokenId",
					"type": "uint256"
				}
			],
			"name": "flushERC721ForwarderTokens",
			"outputs": [],
			"stateMutability": "nonpayable",
			"type": "function"
		},
		{
			"inputs": [
				{
					"internalType": "address payable",
					"name": "forwarderAddress",
					"type": "address"
				},
				{
					"internalType": "address",
					"name": "tokenContractAddress",
					"type": "address"
				}
			],
			"name": "flushForwarderTokens",
			"outputs": [],
			"stateMutability": "nonpayable",
			"type": "function"
		},
		{
			"inputs": [],
			"name": "getNextSequenceId",
			"outputs": [
				{
					"internalType": "uint256",
					"name": "",
					"type": "uint256"
				}
			],
			"stateMutability": "view",
			"type": "function"
		},
		{
			"inputs": [
				{
					"internalType": "address[]",
					"name": "allowedSigners",
					"type": "address[]"
				}
			],
			"name": "init",
			"outputs": [],
			"stateMutability": "nonpayable",
			"type": "function"
		},
		{
			"inputs": [],
			"name": "initialized",
			"outputs": [
				{
					"internalType": "bool",
					"name": "",
					"type": "bool"
				}
			],
			"stateMutability": "view",
			"type": "function"
		},
		{
			"inputs": [
				{
					"internalType": "address",
					"name": "signer",
					"type": "address"
				}
			],
			"name": "isSigner",
			"outputs": [
				{
					"internalType": "bool",
					"name": "",
					"type": "bool"
				}
			],
			"stateMutability": "view",
			"type": "function"
		},
		{
			"inputs": [
				{
					"internalType": "address",
					"name": "_operator",
					"type": "address"
				},
				{
					"internalType": "address",
					"name": "_from",
					"type": "address"
				},
				{
					"internalType": "uint256[]",
					"name": "ids",
					"type": "uint256[]"
				},
				{
					"internalType": "uint256[]",
					"name": "values",
					"type": "uint256[]"
				},
				{
					"internalType": "bytes",
					"name": "data",
					"type": "bytes"
				}
			],
			"name": "onERC1155BatchReceived",
			"outputs": [
				{
					"internalType": "bytes4",
					"name": "",
					"type": "bytes4"
				}
			],
			"stateMutability": "nonpayable",
			"type": "function"
		},
		{
			"inputs": [
				{
					"internalType": "address",
					"name": "_operator",
					"type": "address"
				},
				{
					"internalType": "address",
					"name": "_from",
					"type": "address"
				},
				{
					"internalType": "uint256",
					"name": "id",
					"type": "uint256"
				},
				{
					"internalType": "uint256",
					"name": "value",
					"type": "uint256"
				},
				{
					"internalType": "bytes",
					"name": "data",
					"type": "bytes"
				}
			],
			"name": "onERC1155Received",
			"outputs": [
				{
					"internalType": "bytes4",
					"name": "",
					"type": "bytes4"
				}
			],
			"stateMutability": "nonpayable",
			"type": "function"
		},
		{
			"inputs": [
				{
					"internalType": "address",
					"name": "_operator",
					"type": "address"
				},
				{
					"internalType": "address",
					"name": "_from",
					"type": "address"
				},
				{
					"internalType": "uint256",
					"name": "_tokenId",
					"type": "uint256"
				},
				{
					"internalType": "bytes",
					"name": "_data",
					"type": "bytes"
				}
			],
			"name": "onERC721Received",
			"outputs": [
				{
					"internalType": "bytes4",
					"name": "",
					"type": "bytes4"
				}
			],
			"stateMutability": "nonpayable",
			"type": "function"
		},
		{
			"inputs": [],
			"name": "safeMode",
			"outputs": [
				{
					"internalType": "bool",
					"name": "",
					"type": "bool"
				}
			],
			"stateMutability": "view",
			"type": "function"
		},
		{
			"inputs": [
				{
					"internalType": "address",
					"name": "toAddress",
					"type": "address"
				},
				{
					"internalType": "uint256",
					"name": "value",
					"type": "uint256"
				},
				{
					"internalType": "bytes",
					"name": "data",
					"type": "bytes"
				},
				{
					"internalType": "uint256",
					"name": "expireTime",
					"type": "uint256"
				},
				{
					"internalType": "uint256",
					"name": "sequenceId",
					"type": "uint256"
				},
				{
					"internalType": "bytes",
					"name": "signature",
					"type": "bytes"
				}
			],
			"name": "sendMultiSig",
			"outputs": [],
			"stateMutability": "nonpayable",
			"type": "function"
		},
		{
			"inputs": [
				{
					"internalType": "address[]",
					"name": "recipients",
					"type": "address[]"
				},
				{
					"internalType": "uint256[]",
					"name": "values",
					"type": "uint256[]"
				},
				{
					"internalType": "uint256",
					"name": "expireTime",
					"type": "uint256"
				},
				{
					"internalType": "uint256",
					"name": "sequenceId",
					"type": "uint256"
				},
				{
					"internalType": "bytes",
					"name": "signature",
					"type": "bytes"
				}
			],
			"name": "sendMultiSigBatch",
			"outputs": [],
			"stateMutability": "nonpayable",
			"type": "function"
		},
		{
			"inputs": [
				{
					"internalType": "address",
					"name": "toAddress",
					"type": "address"
				},
				{
					"internalType": "uint256",
					"name": "value",
					"type": "uint256"
				},
				{
					"internalType": "address",
					"name": "tokenContractAddress",
					"type": "address"
				},
				{
					"internalType": "uint256",
					"name": "expireTime",
					"type": "uint256"
				},
				{
					"internalType": "uint256",
					"name": "sequenceId",
					"type": "uint256"
				},
				{
					"internalType": "bytes",
					"name": "signature",
					"type": "bytes"
				}
			],
			"name": "sendMultiSigToken",
			"outputs": [],
			"stateMutability": "nonpayable",
			"type": "function"
		},
		{
			"inputs": [
				{
					"internalType": "address",
					"name": "forwarderAddress",
					"type": "address"
				},
				{
					"internalType": "bool",
					"name": "autoFlush",
					"type": "bool"
				}
			],
			"name": "setAutoFlush1155",
			"outputs": [],
			"stateMutability": "nonpayable",
			"type": "function"
		},
		{
			"inputs": [
				{
					"internalType": "address",
					"name": "forwarderAddress",
					"type": "address"
				},
				{
					"internalType": "bool",
					"name": "autoFlush",
					"type": "bool"
				}
			],
			"name": "setAutoFlush721",
			"outputs": [],
			"stateMutability": "nonpayable",
			"type": "function"
		},
		{
			"inputs": [
				{
					"internalType": "address",
					"name": "",
					"type": "address"
				}
			],
			"name": "signers",
			"outputs": [
				{
					"internalType": "bool",
					"name": "",
					"type": "bool"
				}
			],
			"stateMutability": "view",
			"type": "function"
		},
		{
			"inputs": [
				{
					"internalType": "bytes4",
					"name": "interfaceId",
					"type": "bytes4"
				}
			],
			"name": "supportsInterface",
			"outputs": [
				{
					"internalType": "bool",
					"name": "",
					"type": "bool"
				}
			],
			"stateMutability": "view",
			"type": "function"
		},
		{
			"stateMutability": "payable",
			"type": "receive"
		}
	]
}