{
	"contracts/TestVerify.sol": {
		"TestVerify": {
			"abi": [
				{
					"inputs": [],
					"stateMutability": "nonpayable",
					"type": "constructor"
				},
				{
					"inputs": [
						{
							"components": [
								{
									"internalType": "address",
									"name": "to",
									"type": "address"
								},
								{
									"internalType": "uint256[]",
									"name": "amounts",
									"type": "uint256[]"
								},
								{
									"internalType": "bytes32[]",
									"name": "merkleProof",
									"type": "bytes32[]"
								},
								{
									"internalType": "bytes",
									"name": "signature",
									"type": "bytes"
								}
							],
							"internalType": "struct TestVerify.HachiTicket",
							"name": "_ticket",
							"type": "tuple"
						}
					],
					"name": "_hash",
					"outputs": [
						{
							"internalType": "bytes32",
							"name": "",
							"type": "bytes32"
						}
					],
					"stateMutability": "view",
					"type": "function"
				},
				{
					"inputs": [
						{
							"components": [
								{
									"internalType": "address",
									"name": "to",
									"type": "address"
								},
								{
									"internalType": "uint256[]",
									"name": "amounts",
									"type": "uint256[]"
								},
								{
									"internalType": "bytes32[]",
									"name": "merkleProof",
									"type": "bytes32[]"
								},
								{
									"internalType": "bytes",
									"name": "signature",
									"type": "bytes"
								}
							],
							"internalType": "struct TestVerify.HachiTicket",
							"name": "_ticket",
							"type": "tuple"
						}
					],
					"name": "verifySigner",
					"outputs": [
						{
							"internalType": "address",
							"name": "",
							"type": "address"
						}
					],
					"stateMutability": "view",
					"type": "function"
				}
			],
			"devdoc": {
				"kind": "dev",
				"methods": {},
				"version": 1
			},
			"evm": {
				"assembly": "    /* \"contracts/TestVerify.sol\":193:1138  contract TestVerify is EIP712 {... */\n  mstore(0x40, 0x0140)\n    /* \"contracts/TestVerify.sol\":482:553  constructor()... */\n  callvalue\n  dup1\n  iszero\n  tag_1\n  jumpi\n  0x00\n  dup1\n  revert\ntag_1:\n  pop\n    /* \"contracts/TestVerify.sol\":507:521  SIGNING_DOMAIN */\n  0x40\n  dup1\n  mload\n  dup1\n  dup3\n  add\n  dup3\n  mstore\n  0x0b\n  dup2\n  mstore\n  shl(0xa8, 0x48616368694e6674536967)\n  0x20\n  dup1\n  dup4\n  add\n  swap2\n  dup3\n  mstore\n    /* \"contracts/TestVerify.sol\":523:540  SIGNATURE_VERSION */\n  dup4\n  mload\n  dup1\n  dup6\n  add\n  swap1\n  swap5\n  mstore\n  0x01\n  dup5\n  mstore\n  shl(0xf8, 0x31)\n  swap1\n  dup5\n  add\n  mstore\n    /* \"@openzeppelin/contracts/utils/cryptography/draft-EIP712.sol\":2541:2563  keccak256(bytes(name)) */\n  dup2\n  mload\n  swap1\n  keccak256\n    /* \"@openzeppelin/contracts/utils/cryptography/draft-EIP712.sol\":2778:2803  _HASHED_NAME = hashedName */\n  0xe0\n  dup2\n  swap1\n  mstore\n    /* \"@openzeppelin/contracts/utils/cryptography/draft-EIP712.sol\":2597:2622  keccak256(bytes(version)) */\n  0xc89efdaa54c0f20c7adf612882df0950f5a951637e0307cdcb4c672f298b8bc6\n    /* \"@openzeppelin/contracts/utils/cryptography/draft-EIP712.sol\":2813:2844  _HASHED_VERSION = hashedVersion */\n  0x0100\n  dup2\n  swap1\n  mstore\n    /* \"@openzeppelin/contracts/utils/cryptography/draft-EIP712.sol\":2873:2886  block.chainid */\n  chainid\n    /* \"@openzeppelin/contracts/utils/cryptography/draft-EIP712.sol\":2854:2886  _CACHED_CHAIN_ID = block.chainid */\n  0xa0\n  mstore\n    /* \"contracts/TestVerify.sol\":507:521  SIGNING_DOMAIN */\n  swap2\n  swap3\n    /* \"contracts/TestVerify.sol\":523:540  SIGNATURE_VERSION */\n  swap2\n    /* \"@openzeppelin/contracts/utils/cryptography/draft-EIP712.sol\":2651:2768  keccak256(... */\n  0x8b73c3c69bb8fe3d512ecc4cf759cc79239f7b179b0ffacaa9a75d522b39400f\n    /* \"@openzeppelin/contracts/utils/cryptography/draft-EIP712.sol\":2923:2981  _buildDomainSeparator(typeHash, hashedName, hashedVersion) */\n  tag_5\n    /* \"@openzeppelin/contracts/utils/cryptography/draft-EIP712.sol\":2651:2768  keccak256(... */\n  dup2\n    /* \"@openzeppelin/contracts/utils/cryptography/draft-EIP712.sol\":2541:2563  keccak256(bytes(name)) */\n  dup5\n    /* \"@openzeppelin/contracts/utils/cryptography/draft-EIP712.sol\":2597:2622  keccak256(bytes(version)) */\n  dup5\n    /* \"@openzeppelin/contracts/utils/cryptography/draft-EIP712.sol\":3633:3706  abi.encode(typeHash, nameHash, versionHash, block.chainid, address(this)) */\n  0x40\n  dup1\n  mload\n  0x20\n  dup2\n  add\n    /* \"#utility.yul\":273:298   */\n  dup6\n  swap1\n  mstore\n    /* \"#utility.yul\":314:332   */\n  swap1\n  dup2\n  add\n    /* \"#utility.yul\":307:341   */\n  dup4\n  swap1\n  mstore\n    /* \"#utility.yul\":357:375   */\n  0x60\n  dup2\n  add\n    /* \"#utility.yul\":350:384   */\n  dup3\n  swap1\n  mstore\n    /* \"@openzeppelin/contracts/utils/cryptography/draft-EIP712.sol\":3677:3690  block.chainid */\n  chainid\n    /* \"#utility.yul\":400:418   */\n  0x80\n  dup3\n  add\n    /* \"#utility.yul\":393:427   */\n  mstore\n    /* \"@openzeppelin/contracts/utils/cryptography/draft-EIP712.sol\":3700:3704  this */\n  address\n    /* \"#utility.yul\":443:462   */\n  0xa0\n  dup3\n  add\n    /* \"#utility.yul\":436:497   */\n  mstore\n    /* \"@openzeppelin/contracts/utils/cryptography/draft-EIP712.sol\":3597:3604  bytes32 */\n  0x00\n  swap1\n    /* \"#utility.yul\":245:264   */\n  0xc0\n  add\n    /* \"@openzeppelin/contracts/utils/cryptography/draft-EIP712.sol\":3633:3706  abi.encode(typeHash, nameHash, versionHash, block.chainid, address(this)) */\n  mload(0x40)\n  0x20\n  dup2\n  dup4\n  sub\n  sub\n  dup2\n  mstore\n  swap1\n  0x40\n  mstore\n    /* \"@openzeppelin/contracts/utils/cryptography/draft-EIP712.sol\":3623:3707  keccak256(abi.encode(typeHash, nameHash, versionHash, block.chainid, address(this))) */\n  dup1\n  mload\n  swap1\n  0x20\n  add\n  keccak256\n    /* \"@openzeppelin/contracts/utils/cryptography/draft-EIP712.sol\":3616:3707  return keccak256(abi.encode(typeHash, nameHash, versionHash, block.chainid, address(this))) */\n  swap1\n  pop\n    /* \"@openzeppelin/contracts/utils/cryptography/draft-EIP712.sol\":3457:3714  function _buildDomainSeparator(... */\n  swap4\n  swap3\n  pop\n  pop\n  pop\n  jump\n    /* \"@openzeppelin/contracts/utils/cryptography/draft-EIP712.sol\":2923:2981  _buildDomainSeparator(typeHash, hashedName, hashedVersion) */\ntag_5:\n    /* \"@openzeppelin/contracts/utils/cryptography/draft-EIP712.sol\":2896:2981  _CACHED_DOMAIN_SEPARATOR = _buildDomainSeparator(typeHash, hashedName, hashedVersion) */\n  0x80\n  mstore\n    /* \"@openzeppelin/contracts/utils/cryptography/draft-EIP712.sol\":3014:3018  this */\n  address\n    /* \"@openzeppelin/contracts/utils/cryptography/draft-EIP712.sol\":2991:3019  _CACHED_THIS = address(this) */\n  0xc0\n  mstore\n    /* \"@openzeppelin/contracts/utils/cryptography/draft-EIP712.sol\":3029:3050  _TYPE_HASH = typeHash */\n  0x0120\n  mstore\n  pop\n    /* \"contracts/TestVerify.sol\":193:1138  contract TestVerify is EIP712 {... */\n  tag_12\n  swap3\n  pop\n  pop\n  pop\n  jump\n    /* \"#utility.yul\":14:503   */\ntag_12:\n    /* \"contracts/TestVerify.sol\":193:1138  contract TestVerify is EIP712 {... */\n  mload(0x80)\n  mload(0xa0)\n  mload(0xc0)\n  mload(0xe0)\n  mload(0x0100)\n  mload(0x0120)\n  codecopy(0x00, dataOffset(sub_0), dataSize(sub_0))\n  0x00\n  assignImmutable(\"0x8c92e2e72e7997816d62b0c03c0b21c46605af4c276e6d0637f7e77158832bca\")\n  0x00\n  assignImmutable(\"0xc7087a93770541a54b276c354f6d56c80647702e0edc6c1d5ee9aeacf01dfad8\")\n  0x00\n  assignImmutable(\"0x954b846e373da6e2d86e60934c6fb4929a5d4ad23ca448303f22db28783db296\")\n  0x00\n  assignImmutable(\"0x9ef31662fdafe5ade9dc48fd4724c04f17232ac2ae4e5ea3da9c2a310c4aba3c\")\n  0x00\n  assignImmutable(\"0xae3f42c075651cd672386e7fa64476ebefa89324c3c225495e52b74374d0bc80\")\n  0x00\n  assignImmutable(\"0x9459a54a9dc1a91201f12e123a36391197edb81156a93e7e6bc8a3c17589bb36\")\n  return(0x00, dataSize(sub_0))\nstop\n\nsub_0: assembly {\n        /* \"contracts/TestVerify.sol\":193:1138  contract TestVerify is EIP712 {... */\n      mstore(0x40, 0x80)\n      callvalue\n      dup1\n      iszero\n      tag_1\n      jumpi\n      0x00\n      dup1\n      revert\n    tag_1:\n      pop\n      jumpi(tag_2, lt(calldatasize, 0x04))\n      shr(0xe0, calldataload(0x00))\n      dup1\n      0x15adc8fc\n      eq\n      tag_3\n      jumpi\n      dup1\n      0xac7efdd7\n      eq\n      tag_4\n      jumpi\n    tag_2:\n      0x00\n      dup1\n      revert\n        /* \"contracts/TestVerify.sol\":752:1134  function _hash(HachiTicket calldata _ticket) public view returns (bytes32) {... */\n    tag_3:\n      tag_5\n      tag_6\n      calldatasize\n      0x04\n      tag_7\n      jump\t// in\n    tag_6:\n      tag_8\n      jump\t// in\n    tag_5:\n      mload(0x40)\n        /* \"#utility.yul\":555:580   */\n      swap1\n      dup2\n      mstore\n        /* \"#utility.yul\":543:545   */\n      0x20\n        /* \"#utility.yul\":528:546   */\n      add\n        /* \"contracts/TestVerify.sol\":752:1134  function _hash(HachiTicket calldata _ticket) public view returns (bytes32) {... */\n    tag_9:\n      mload(0x40)\n      dup1\n      swap2\n      sub\n      swap1\n      return\n        /* \"contracts/TestVerify.sol\":559:746  function verifySigner(HachiTicket calldata _ticket) public view returns (address) {... */\n    tag_4:\n      tag_11\n      tag_12\n      calldatasize\n      0x04\n      tag_7\n      jump\t// in\n    tag_12:\n      tag_13\n      jump\t// in\n    tag_11:\n      mload(0x40)\n      sub(shl(0xa0, 0x01), 0x01)\n        /* \"#utility.yul\":755:787   */\n      swap1\n      swap2\n      and\n        /* \"#utility.yul\":737:788   */\n      dup2\n      mstore\n        /* \"#utility.yul\":725:727   */\n      0x20\n        /* \"#utility.yul\":710:728   */\n      add\n        /* \"contracts/TestVerify.sol\":559:746  function verifySigner(HachiTicket calldata _ticket) public view returns (address) {... */\n      tag_9\n        /* \"#utility.yul\":591:794   */\n      jump\n        /* \"contracts/TestVerify.sol\":752:1134  function _hash(HachiTicket calldata _ticket) public view returns (bytes32) {... */\n    tag_8:\n        /* \"contracts/TestVerify.sol\":818:825  bytes32 */\n      0x00\n        /* \"contracts/TestVerify.sol\":844:1127  _hashTypedDataV4(keccak256(abi.encode(... */\n      tag_17\n        /* \"contracts/TestVerify.sol\":895:971  keccak256(\"HachiTicket(address to,uint256[] amounts,bytes32[] merkleProof)\") */\n      0x798f2fc7cec67eb8a3e992f2d864cc1f56f87a6e9130d64fe2b2d7693eca2d2b\n        /* \"contracts/TestVerify.sol\":985:995  _ticket.to */\n      tag_18\n      0x20\n      dup6\n      add\n        /* \"contracts/TestVerify.sol\":985:992  _ticket */\n      dup6\n        /* \"contracts/TestVerify.sol\":985:995  _ticket.to */\n      tag_19\n      jump\t// in\n    tag_18:\n        /* \"contracts/TestVerify.sol\":1036:1051  _ticket.amounts */\n      tag_20\n      0x20\n      dup7\n      add\n        /* \"contracts/TestVerify.sol\":1036:1043  _ticket */\n      dup7\n        /* \"contracts/TestVerify.sol\":1036:1051  _ticket.amounts */\n      tag_21\n      jump\t// in\n    tag_20:\n        /* \"contracts/TestVerify.sol\":1019:1052  abi.encodePacked(_ticket.amounts) */\n      add(0x20, mload(0x40))\n      tag_22\n      swap3\n      swap2\n      swap1\n      tag_23\n      jump\t// in\n    tag_22:\n      mload(0x40)\n      0x20\n      dup2\n      dup4\n      sub\n      sub\n      dup2\n      mstore\n      swap1\n      0x40\n      mstore\n        /* \"contracts/TestVerify.sol\":1009:1053  keccak256(abi.encodePacked(_ticket.amounts)) */\n      dup1\n      mload\n      swap1\n      0x20\n      add\n      keccak256\n        /* \"contracts/TestVerify.sol\":1094:1101  _ticket */\n      dup6\n        /* \"contracts/TestVerify.sol\":1094:1113  _ticket.merkleProof */\n      dup1\n      0x40\n      add\n      swap1\n      tag_24\n      swap2\n      swap1\n      tag_21\n      jump\t// in\n    tag_24:\n        /* \"contracts/TestVerify.sol\":1077:1114  abi.encodePacked(_ticket.merkleProof) */\n      add(0x20, mload(0x40))\n      tag_26\n      swap3\n      swap2\n      swap1\n      tag_23\n      jump\t// in\n    tag_26:\n      mload(0x40)\n      0x20\n      dup2\n      dup4\n      sub\n      sub\n      dup2\n      mstore\n      swap1\n      0x40\n      mstore\n        /* \"contracts/TestVerify.sol\":1067:1115  keccak256(abi.encodePacked(_ticket.merkleProof)) */\n      dup1\n      mload\n      swap1\n      0x20\n      add\n      keccak256\n        /* \"contracts/TestVerify.sol\":871:1125  abi.encode(... */\n      add(0x20, mload(0x40))\n      tag_28\n      swap5\n      swap4\n      swap3\n      swap2\n      swap1\n        /* \"#utility.yul\":3260:3285   */\n      swap4\n      dup5\n      mstore\n      sub(shl(0xa0, 0x01), 0x01)\n        /* \"#utility.yul\":3321:3353   */\n      swap3\n      swap1\n      swap3\n      and\n        /* \"#utility.yul\":3316:3318   */\n      0x20\n        /* \"#utility.yul\":3301:3319   */\n      dup5\n      add\n        /* \"#utility.yul\":3294:3354   */\n      mstore\n        /* \"#utility.yul\":3385:3387   */\n      0x40\n        /* \"#utility.yul\":3370:3388   */\n      dup4\n      add\n        /* \"#utility.yul\":3363:3397   */\n      mstore\n        /* \"#utility.yul\":3428:3430   */\n      0x60\n        /* \"#utility.yul\":3413:3431   */\n      dup3\n      add\n        /* \"#utility.yul\":3406:3440   */\n      mstore\n        /* \"#utility.yul\":3247:3250   */\n      0x80\n        /* \"#utility.yul\":3232:3251   */\n      add\n      swap1\n        /* \"#utility.yul\":3029:3446   */\n      jump\n        /* \"contracts/TestVerify.sol\":871:1125  abi.encode(... */\n    tag_28:\n      mload(0x40)\n      0x20\n      dup2\n      dup4\n      sub\n      sub\n      dup2\n      mstore\n      swap1\n      0x40\n      mstore\n        /* \"contracts/TestVerify.sol\":861:1126  keccak256(abi.encode(... */\n      dup1\n      mload\n      swap1\n      0x20\n      add\n      keccak256\n        /* \"contracts/TestVerify.sol\":844:860  _hashTypedDataV4 */\n      tag_30\n        /* \"contracts/TestVerify.sol\":844:1127  _hashTypedDataV4(keccak256(abi.encode(... */\n      jump\t// in\n    tag_17:\n        /* \"contracts/TestVerify.sol\":837:1127  return _hashTypedDataV4(keccak256(abi.encode(... */\n      swap3\n        /* \"contracts/TestVerify.sol\":752:1134  function _hash(HachiTicket calldata _ticket) public view returns (bytes32) {... */\n      swap2\n      pop\n      pop\n      jump\t// out\n        /* \"contracts/TestVerify.sol\":559:746  function verifySigner(HachiTicket calldata _ticket) public view returns (address) {... */\n    tag_13:\n        /* \"contracts/TestVerify.sol\":632:639  address */\n      0x00\n        /* \"contracts/TestVerify.sol\":651:665  bytes32 digest */\n      dup1\n        /* \"contracts/TestVerify.sol\":668:682  _hash(_ticket) */\n      tag_32\n        /* \"contracts/TestVerify.sol\":674:681  _ticket */\n      dup4\n        /* \"contracts/TestVerify.sol\":668:673  _hash */\n      tag_8\n        /* \"contracts/TestVerify.sol\":668:682  _hash(_ticket) */\n      jump\t// in\n    tag_32:\n        /* \"contracts/TestVerify.sol\":651:682  bytes32 digest = _hash(_ticket) */\n      swap1\n      pop\n        /* \"contracts/TestVerify.sol\":699:739  ECDSA.recover(digest, _ticket.signature) */\n      tag_33\n        /* \"contracts/TestVerify.sol\":651:682  bytes32 digest = _hash(_ticket) */\n      dup2\n        /* \"contracts/TestVerify.sol\":721:738  _ticket.signature */\n      tag_34\n      0x60\n      dup7\n      add\n        /* \"contracts/TestVerify.sol\":721:728  _ticket */\n      dup7\n        /* \"contracts/TestVerify.sol\":721:738  _ticket.signature */\n      tag_35\n      jump\t// in\n    tag_34:\n        /* \"contracts/TestVerify.sol\":699:739  ECDSA.recover(digest, _ticket.signature) */\n      dup1\n      dup1\n      0x1f\n      add\n      0x20\n      dup1\n      swap2\n      div\n      mul\n      0x20\n      add\n      mload(0x40)\n      swap1\n      dup2\n      add\n      0x40\n      mstore\n      dup1\n      swap4\n      swap3\n      swap2\n      swap1\n      dup2\n      dup2\n      mstore\n      0x20\n      add\n      dup4\n      dup4\n      dup1\n      dup3\n      dup5\n      calldatacopy\n      0x00\n      swap3\n      add\n      swap2\n      swap1\n      swap2\n      mstore\n      pop\n        /* \"contracts/TestVerify.sol\":699:712  ECDSA.recover */\n      tag_36\n      swap3\n      pop\n      pop\n      pop\n        /* \"contracts/TestVerify.sol\":699:739  ECDSA.recover(digest, _ticket.signature) */\n      jump\t// in\n    tag_33:\n        /* \"contracts/TestVerify.sol\":692:739  return ECDSA.recover(digest, _ticket.signature) */\n      swap4\n        /* \"contracts/TestVerify.sol\":559:746  function verifySigner(HachiTicket calldata _ticket) public view returns (address) {... */\n      swap3\n      pop\n      pop\n      pop\n      jump\t// out\n        /* \"@openzeppelin/contracts/utils/cryptography/draft-EIP712.sol\":4339:4504  function _hashTypedDataV4(bytes32 structHash) internal view virtual returns (bytes32) {... */\n    tag_30:\n        /* \"@openzeppelin/contracts/utils/cryptography/draft-EIP712.sol\":4416:4423  bytes32 */\n      0x00\n        /* \"@openzeppelin/contracts/utils/cryptography/draft-EIP712.sol\":4442:4497  ECDSA.toTypedDataHash(_domainSeparatorV4(), structHash) */\n      tag_17\n        /* \"@openzeppelin/contracts/utils/cryptography/draft-EIP712.sol\":4464:4484  _domainSeparatorV4() */\n      tag_39\n        /* \"@openzeppelin/contracts/utils/cryptography/draft-EIP712.sol\":4464:4482  _domainSeparatorV4 */\n      tag_40\n        /* \"@openzeppelin/contracts/utils/cryptography/draft-EIP712.sol\":4464:4484  _domainSeparatorV4() */\n      jump\t// in\n    tag_39:\n        /* \"@openzeppelin/contracts/utils/cryptography/draft-EIP712.sol\":4486:4496  structHash */\n      dup4\n        /* \"@openzeppelin/contracts/utils/cryptography/ECDSA.sol\":9226:9283  abi.encodePacked(\"\\x19\\x01\", domainSeparator, structHash) */\n      mload(0x40)\n      shl(0xf0, 0x1901)\n      0x20\n      dup3\n      add\n        /* \"#utility.yul\":4235:4262   */\n      mstore\n        /* \"#utility.yul\":4278:4289   */\n      0x22\n      dup2\n      add\n        /* \"#utility.yul\":4271:4298   */\n      dup4\n      swap1\n      mstore\n        /* \"#utility.yul\":4314:4326   */\n      0x42\n      dup2\n      add\n        /* \"#utility.yul\":4307:4335   */\n      dup3\n      swap1\n      mstore\n        /* \"@openzeppelin/contracts/utils/cryptography/ECDSA.sol\":9190:9197  bytes32 */\n      0x00\n      swap1\n        /* \"#utility.yul\":4351:4363   */\n      0x62\n      add\n        /* \"@openzeppelin/contracts/utils/cryptography/ECDSA.sol\":9226:9283  abi.encodePacked(\"\\x19\\x01\", domainSeparator, structHash) */\n      mload(0x40)\n      0x20\n      dup2\n      dup4\n      sub\n      sub\n      dup2\n      mstore\n      swap1\n      0x40\n      mstore\n        /* \"@openzeppelin/contracts/utils/cryptography/ECDSA.sol\":9216:9284  keccak256(abi.encodePacked(\"\\x19\\x01\", domainSeparator, structHash)) */\n      dup1\n      mload\n      swap1\n      0x20\n      add\n      keccak256\n        /* \"@openzeppelin/contracts/utils/cryptography/ECDSA.sol\":9209:9284  return keccak256(abi.encodePacked(\"\\x19\\x01\", domainSeparator, structHash)) */\n      swap1\n      pop\n        /* \"@openzeppelin/contracts/utils/cryptography/ECDSA.sol\":9097:9291  function toTypedDataHash(bytes32 domainSeparator, bytes32 structHash) internal pure returns (bytes32) {... */\n      swap3\n      swap2\n      pop\n      pop\n      jump\n        /* \"@openzeppelin/contracts/utils/cryptography/ECDSA.sol\":4308:4535  function recover(bytes32 hash, bytes memory signature) internal pure returns (address) {... */\n    tag_36:\n        /* \"@openzeppelin/contracts/utils/cryptography/ECDSA.sol\":4386:4393  address */\n      0x00\n        /* \"@openzeppelin/contracts/utils/cryptography/ECDSA.sol\":4406:4423  address recovered */\n      dup1\n        /* \"@openzeppelin/contracts/utils/cryptography/ECDSA.sol\":4425:4443  RecoverError error */\n      0x00\n        /* \"@openzeppelin/contracts/utils/cryptography/ECDSA.sol\":4447:4474  tryRecover(hash, signature) */\n      tag_43\n        /* \"@openzeppelin/contracts/utils/cryptography/ECDSA.sol\":4458:4462  hash */\n      dup6\n        /* \"@openzeppelin/contracts/utils/cryptography/ECDSA.sol\":4464:4473  signature */\n      dup6\n        /* \"@openzeppelin/contracts/utils/cryptography/ECDSA.sol\":4447:4457  tryRecover */\n      tag_44\n        /* \"@openzeppelin/contracts/utils/cryptography/ECDSA.sol\":4447:4474  tryRecover(hash, signature) */\n      jump\t// in\n    tag_43:\n        /* \"@openzeppelin/contracts/utils/cryptography/ECDSA.sol\":4405:4474  (address recovered, RecoverError error) = tryRecover(hash, signature) */\n      swap2\n      pop\n      swap2\n      pop\n        /* \"@openzeppelin/contracts/utils/cryptography/ECDSA.sol\":4484:4502  _throwError(error) */\n      tag_45\n        /* \"@openzeppelin/contracts/utils/cryptography/ECDSA.sol\":4496:4501  error */\n      dup2\n        /* \"@openzeppelin/contracts/utils/cryptography/ECDSA.sol\":4484:4495  _throwError */\n      tag_46\n        /* \"@openzeppelin/contracts/utils/cryptography/ECDSA.sol\":4484:4502  _throwError(error) */\n      jump\t// in\n    tag_45:\n      pop\n        /* \"@openzeppelin/contracts/utils/cryptography/ECDSA.sol\":4519:4528  recovered */\n      swap4\n        /* \"@openzeppelin/contracts/utils/cryptography/ECDSA.sol\":4308:4535  function recover(bytes32 hash, bytes memory signature) internal pure returns (address) {... */\n      swap3\n      pop\n      pop\n      pop\n      jump\t// out\n        /* \"@openzeppelin/contracts/utils/cryptography/draft-EIP712.sol\":3143:3451  function _domainSeparatorV4() internal view returns (bytes32) {... */\n    tag_40:\n        /* \"@openzeppelin/contracts/utils/cryptography/draft-EIP712.sol\":3196:3203  bytes32 */\n      0x00\n        /* \"@openzeppelin/contracts/utils/cryptography/draft-EIP712.sol\":3227:3231  this */\n      address\n      sub(shl(0xa0, 0x01), 0x01)\n        /* \"@openzeppelin/contracts/utils/cryptography/draft-EIP712.sol\":3236:3248  _CACHED_THIS */\n      immutable(\"0x9ef31662fdafe5ade9dc48fd4724c04f17232ac2ae4e5ea3da9c2a310c4aba3c\")\n        /* \"@openzeppelin/contracts/utils/cryptography/draft-EIP712.sol\":3219:3248  address(this) == _CACHED_THIS */\n      and\n      eq\n        /* \"@openzeppelin/contracts/utils/cryptography/draft-EIP712.sol\":3219:3285  address(this) == _CACHED_THIS && block.chainid == _CACHED_CHAIN_ID */\n      dup1\n      iszero\n      tag_48\n      jumpi\n      pop\n        /* \"@openzeppelin/contracts/utils/cryptography/draft-EIP712.sol\":3269:3285  _CACHED_CHAIN_ID */\n      immutable(\"0xae3f42c075651cd672386e7fa64476ebefa89324c3c225495e52b74374d0bc80\")\n        /* \"@openzeppelin/contracts/utils/cryptography/draft-EIP712.sol\":3252:3265  block.chainid */\n      chainid\n        /* \"@openzeppelin/contracts/utils/cryptography/draft-EIP712.sol\":3252:3285  block.chainid == _CACHED_CHAIN_ID */\n      eq\n        /* \"@openzeppelin/contracts/utils/cryptography/draft-EIP712.sol\":3219:3285  address(this) == _CACHED_THIS && block.chainid == _CACHED_CHAIN_ID */\n    tag_48:\n        /* \"@openzeppelin/contracts/utils/cryptography/draft-EIP712.sol\":3215:3445  if (address(this) == _CACHED_THIS && block.chainid == _CACHED_CHAIN_ID) {... */\n      iszero\n      tag_49\n      jumpi\n      pop\n        /* \"@openzeppelin/contracts/utils/cryptography/draft-EIP712.sol\":3308:3332  _CACHED_DOMAIN_SEPARATOR */\n      immutable(\"0x9459a54a9dc1a91201f12e123a36391197edb81156a93e7e6bc8a3c17589bb36\")\n      swap1\n        /* \"@openzeppelin/contracts/utils/cryptography/draft-EIP712.sol\":3143:3451  function _domainSeparatorV4() internal view returns (bytes32) {... */\n      jump\t// out\n        /* \"@openzeppelin/contracts/utils/cryptography/draft-EIP712.sol\":3215:3445  if (address(this) == _CACHED_THIS && block.chainid == _CACHED_CHAIN_ID) {... */\n    tag_49:\n      pop\n        /* \"@openzeppelin/contracts/utils/cryptography/draft-EIP712.sol\":3633:3706  abi.encode(typeHash, nameHash, versionHash, block.chainid, address(this)) */\n      0x40\n      dup1\n      mload\n        /* \"@openzeppelin/contracts/utils/cryptography/draft-EIP712.sol\":3392:3402  _TYPE_HASH */\n      immutable(\"0x8c92e2e72e7997816d62b0c03c0b21c46605af4c276e6d0637f7e77158832bca\")\n        /* \"@openzeppelin/contracts/utils/cryptography/draft-EIP712.sol\":3633:3706  abi.encode(typeHash, nameHash, versionHash, block.chainid, address(this)) */\n      0x20\n      dup1\n      dup4\n      add\n        /* \"#utility.yul\":6284:6309   */\n      swap2\n      swap1\n      swap2\n      mstore\n        /* \"@openzeppelin/contracts/utils/cryptography/draft-EIP712.sol\":3404:3416  _HASHED_NAME */\n      immutable(\"0x954b846e373da6e2d86e60934c6fb4929a5d4ad23ca448303f22db28783db296\")\n        /* \"#utility.yul\":6325:6343   */\n      dup3\n      dup5\n      add\n        /* \"#utility.yul\":6318:6352   */\n      mstore\n        /* \"@openzeppelin/contracts/utils/cryptography/draft-EIP712.sol\":3418:3433  _HASHED_VERSION */\n      immutable(\"0xc7087a93770541a54b276c354f6d56c80647702e0edc6c1d5ee9aeacf01dfad8\")\n        /* \"#utility.yul\":6368:6386   */\n      0x60\n      dup4\n      add\n        /* \"#utility.yul\":6361:6395   */\n      mstore\n        /* \"@openzeppelin/contracts/utils/cryptography/draft-EIP712.sol\":3677:3690  block.chainid */\n      chainid\n        /* \"#utility.yul\":6411:6429   */\n      0x80\n      dup4\n      add\n        /* \"#utility.yul\":6404:6438   */\n      mstore\n        /* \"@openzeppelin/contracts/utils/cryptography/draft-EIP712.sol\":3700:3704  this */\n      address\n        /* \"#utility.yul\":6454:6473   */\n      0xa0\n      dup1\n      dup5\n      add\n        /* \"#utility.yul\":6447:6508   */\n      swap2\n      swap1\n      swap2\n      mstore\n        /* \"@openzeppelin/contracts/utils/cryptography/draft-EIP712.sol\":3633:3706  abi.encode(typeHash, nameHash, versionHash, block.chainid, address(this)) */\n      dup4\n      mload\n      dup1\n      dup5\n      sub\n      swap1\n      swap2\n      add\n      dup2\n      mstore\n        /* \"#utility.yul\":6256:6275   */\n      0xc0\n      swap1\n      swap3\n      add\n        /* \"@openzeppelin/contracts/utils/cryptography/draft-EIP712.sol\":3633:3706  abi.encode(typeHash, nameHash, versionHash, block.chainid, address(this)) */\n      swap1\n      swap3\n      mstore\n        /* \"@openzeppelin/contracts/utils/cryptography/draft-EIP712.sol\":3623:3707  keccak256(abi.encode(typeHash, nameHash, versionHash, block.chainid, address(this))) */\n      dup1\n      mload\n      swap2\n      add\n      keccak256\n      swap1\n        /* \"@openzeppelin/contracts/utils/cryptography/draft-EIP712.sol\":3143:3451  function _domainSeparatorV4() internal view returns (bytes32) {... */\n      jump\t// out\n        /* \"@openzeppelin/contracts/utils/cryptography/ECDSA.sol\":2243:3522  function tryRecover(bytes32 hash, bytes memory signature) internal pure returns (address, RecoverError) {... */\n    tag_44:\n        /* \"@openzeppelin/contracts/utils/cryptography/ECDSA.sol\":2324:2331  address */\n      0x00\n        /* \"@openzeppelin/contracts/utils/cryptography/ECDSA.sol\":2333:2345  RecoverError */\n      dup1\n        /* \"@openzeppelin/contracts/utils/cryptography/ECDSA.sol\":2554:2563  signature */\n      dup3\n        /* \"@openzeppelin/contracts/utils/cryptography/ECDSA.sol\":2554:2570  signature.length */\n      mload\n        /* \"@openzeppelin/contracts/utils/cryptography/ECDSA.sol\":2574:2576  65 */\n      0x41\n        /* \"@openzeppelin/contracts/utils/cryptography/ECDSA.sol\":2554:2576  signature.length == 65 */\n      sub\n        /* \"@openzeppelin/contracts/utils/cryptography/ECDSA.sol\":2550:3516  if (signature.length == 65) {... */\n      tag_57\n      jumpi\n        /* \"@openzeppelin/contracts/utils/cryptography/ECDSA.sol\":2843:2847  0x20 */\n      0x20\n        /* \"@openzeppelin/contracts/utils/cryptography/ECDSA.sol\":2828:2848  add(signature, 0x20) */\n      dup4\n      add\n        /* \"@openzeppelin/contracts/utils/cryptography/ECDSA.sol\":2822:2849  mload(add(signature, 0x20)) */\n      mload\n        /* \"@openzeppelin/contracts/utils/cryptography/ECDSA.sol\":2892:2896  0x40 */\n      0x40\n        /* \"@openzeppelin/contracts/utils/cryptography/ECDSA.sol\":2877:2897  add(signature, 0x40) */\n      dup5\n      add\n        /* \"@openzeppelin/contracts/utils/cryptography/ECDSA.sol\":2871:2898  mload(add(signature, 0x40)) */\n      mload\n        /* \"@openzeppelin/contracts/utils/cryptography/ECDSA.sol\":2949:2953  0x60 */\n      0x60\n        /* \"@openzeppelin/contracts/utils/cryptography/ECDSA.sol\":2934:2954  add(signature, 0x60) */\n      dup6\n      add\n        /* \"@openzeppelin/contracts/utils/cryptography/ECDSA.sol\":2928:2955  mload(add(signature, 0x60)) */\n      mload\n        /* \"@openzeppelin/contracts/utils/cryptography/ECDSA.sol\":2592:2601  bytes32 r */\n      0x00\n        /* \"@openzeppelin/contracts/utils/cryptography/ECDSA.sol\":2920:2956  byte(0, mload(add(signature, 0x60))) */\n      byte\n        /* \"@openzeppelin/contracts/utils/cryptography/ECDSA.sol\":2990:3015  tryRecover(hash, v, r, s) */\n      tag_58\n        /* \"@openzeppelin/contracts/utils/cryptography/ECDSA.sol\":3001:3005  hash */\n      dup8\n        /* \"@openzeppelin/contracts/utils/cryptography/ECDSA.sol\":2920:2956  byte(0, mload(add(signature, 0x60))) */\n      dup3\n        /* \"@openzeppelin/contracts/utils/cryptography/ECDSA.sol\":2822:2849  mload(add(signature, 0x20)) */\n      dup6\n        /* \"@openzeppelin/contracts/utils/cryptography/ECDSA.sol\":2871:2898  mload(add(signature, 0x40)) */\n      dup6\n        /* \"@openzeppelin/contracts/utils/cryptography/ECDSA.sol\":2990:3000  tryRecover */\n      tag_59\n        /* \"@openzeppelin/contracts/utils/cryptography/ECDSA.sol\":2990:3015  tryRecover(hash, v, r, s) */\n      jump\t// in\n    tag_58:\n        /* \"@openzeppelin/contracts/utils/cryptography/ECDSA.sol\":2983:3015  return tryRecover(hash, v, r, s) */\n      swap5\n      pop\n      swap5\n      pop\n      pop\n      pop\n      pop\n      jump(tag_64)\n        /* \"@openzeppelin/contracts/utils/cryptography/ECDSA.sol\":2550:3516  if (signature.length == 65) {... */\n    tag_57:\n        /* \"@openzeppelin/contracts/utils/cryptography/ECDSA.sol\":3036:3045  signature */\n      dup3\n        /* \"@openzeppelin/contracts/utils/cryptography/ECDSA.sol\":3036:3052  signature.length */\n      mload\n        /* \"@openzeppelin/contracts/utils/cryptography/ECDSA.sol\":3056:3058  64 */\n      0x40\n        /* \"@openzeppelin/contracts/utils/cryptography/ECDSA.sol\":3036:3058  signature.length == 64 */\n      sub\n        /* \"@openzeppelin/contracts/utils/cryptography/ECDSA.sol\":3032:3516  if (signature.length == 64) {... */\n      tag_61\n      jumpi\n        /* \"@openzeppelin/contracts/utils/cryptography/ECDSA.sol\":3305:3309  0x20 */\n      0x20\n        /* \"@openzeppelin/contracts/utils/cryptography/ECDSA.sol\":3290:3310  add(signature, 0x20) */\n      dup4\n      add\n        /* \"@openzeppelin/contracts/utils/cryptography/ECDSA.sol\":3284:3311  mload(add(signature, 0x20)) */\n      mload\n        /* \"@openzeppelin/contracts/utils/cryptography/ECDSA.sol\":3355:3359  0x40 */\n      0x40\n        /* \"@openzeppelin/contracts/utils/cryptography/ECDSA.sol\":3340:3360  add(signature, 0x40) */\n      dup5\n      add\n        /* \"@openzeppelin/contracts/utils/cryptography/ECDSA.sol\":3334:3361  mload(add(signature, 0x40)) */\n      mload\n        /* \"@openzeppelin/contracts/utils/cryptography/ECDSA.sol\":3395:3418  tryRecover(hash, r, vs) */\n      tag_62\n        /* \"@openzeppelin/contracts/utils/cryptography/ECDSA.sol\":3406:3410  hash */\n      dup7\n        /* \"@openzeppelin/contracts/utils/cryptography/ECDSA.sol\":3284:3311  mload(add(signature, 0x20)) */\n      dup4\n        /* \"@openzeppelin/contracts/utils/cryptography/ECDSA.sol\":3334:3361  mload(add(signature, 0x40)) */\n      dup4\n        /* \"@openzeppelin/contracts/utils/cryptography/ECDSA.sol\":3395:3405  tryRecover */\n      tag_63\n        /* \"@openzeppelin/contracts/utils/cryptography/ECDSA.sol\":3395:3418  tryRecover(hash, r, vs) */\n      jump\t// in\n    tag_62:\n        /* \"@openzeppelin/contracts/utils/cryptography/ECDSA.sol\":3388:3418  return tryRecover(hash, r, vs) */\n      swap4\n      pop\n      swap4\n      pop\n      pop\n      pop\n      jump(tag_64)\n        /* \"@openzeppelin/contracts/utils/cryptography/ECDSA.sol\":3032:3516  if (signature.length == 64) {... */\n    tag_61:\n      pop\n        /* \"@openzeppelin/contracts/utils/cryptography/ECDSA.sol\":3465:3466  0 */\n      0x00\n      swap1\n      pop\n        /* \"@openzeppelin/contracts/utils/cryptography/ECDSA.sol\":3469:3504  RecoverError.InvalidSignatureLength */\n      0x02\n        /* \"@openzeppelin/contracts/utils/cryptography/ECDSA.sol\":3032:3516  if (signature.length == 64) {... */\n    tag_64:\n        /* \"@openzeppelin/contracts/utils/cryptography/ECDSA.sol\":2243:3522  function tryRecover(bytes32 hash, bytes memory signature) internal pure returns (address, RecoverError) {... */\n      swap3\n      pop\n      swap3\n      swap1\n      pop\n      jump\t// out\n        /* \"@openzeppelin/contracts/utils/cryptography/ECDSA.sol\":548:1179  function _throwError(RecoverError error) private pure {... */\n    tag_46:\n        /* \"@openzeppelin/contracts/utils/cryptography/ECDSA.sol\":625:645  RecoverError.NoError */\n      0x00\n        /* \"@openzeppelin/contracts/utils/cryptography/ECDSA.sol\":616:621  error */\n      dup2\n        /* \"@openzeppelin/contracts/utils/cryptography/ECDSA.sol\":616:645  error == RecoverError.NoError */\n      0x04\n      dup2\n      gt\n      iszero\n      tag_70\n      jumpi\n      tag_70\n      tag_68\n      jump\t// in\n    tag_70:\n      sub\n        /* \"@openzeppelin/contracts/utils/cryptography/ECDSA.sol\":612:1173  if (error == RecoverError.NoError) {... */\n      tag_71\n      jumpi\n        /* \"@openzeppelin/contracts/utils/cryptography/ECDSA.sol\":548:1179  function _throwError(RecoverError error) private pure {... */\n      pop\n      jump\t// out\n        /* \"@openzeppelin/contracts/utils/cryptography/ECDSA.sol\":612:1173  if (error == RecoverError.NoError) {... */\n    tag_71:\n        /* \"@openzeppelin/contracts/utils/cryptography/ECDSA.sol\":721:750  RecoverError.InvalidSignature */\n      0x01\n        /* \"@openzeppelin/contracts/utils/cryptography/ECDSA.sol\":712:717  error */\n      dup2\n        /* \"@openzeppelin/contracts/utils/cryptography/ECDSA.sol\":712:750  error == RecoverError.InvalidSignature */\n      0x04\n      dup2\n      gt\n      iszero\n      tag_76\n      jumpi\n      tag_76\n      tag_68\n      jump\t// in\n    tag_76:\n      sub\n        /* \"@openzeppelin/contracts/utils/cryptography/ECDSA.sol\":708:1173  if (error == RecoverError.InvalidSignature) {... */\n      tag_77\n      jumpi\n        /* \"@openzeppelin/contracts/utils/cryptography/ECDSA.sol\":766:800  revert(\"ECDSA: invalid signature\") */\n      mload(0x40)\n      shl(0xe5, 0x461bcd)\n      dup2\n      mstore\n        /* \"#utility.yul\":4708:4710   */\n      0x20\n        /* \"@openzeppelin/contracts/utils/cryptography/ECDSA.sol\":766:800  revert(\"ECDSA: invalid signature\") */\n      0x04\n      dup3\n      add\n        /* \"#utility.yul\":4690:4711   */\n      mstore\n        /* \"#utility.yul\":4747:4749   */\n      0x18\n        /* \"#utility.yul\":4727:4745   */\n      0x24\n      dup3\n      add\n        /* \"#utility.yul\":4720:4750   */\n      mstore\n        /* \"#utility.yul\":4786:4812   */\n      0x45434453413a20696e76616c6964207369676e61747572650000000000000000\n        /* \"#utility.yul\":4766:4784   */\n      0x44\n      dup3\n      add\n        /* \"#utility.yul\":4759:4813   */\n      mstore\n        /* \"#utility.yul\":4830:4848   */\n      0x64\n      add\n        /* \"@openzeppelin/contracts/utils/cryptography/ECDSA.sol\":766:800  revert(\"ECDSA: invalid signature\") */\n    tag_78:\n      mload(0x40)\n      dup1\n      swap2\n      sub\n      swap1\n      revert\n        /* \"@openzeppelin/contracts/utils/cryptography/ECDSA.sol\":708:1173  if (error == RecoverError.InvalidSignature) {... */\n    tag_77:\n        /* \"@openzeppelin/contracts/utils/cryptography/ECDSA.sol\":830:865  RecoverError.InvalidSignatureLength */\n      0x02\n        /* \"@openzeppelin/contracts/utils/cryptography/ECDSA.sol\":821:826  error */\n      dup2\n        /* \"@openzeppelin/contracts/utils/cryptography/ECDSA.sol\":821:865  error == RecoverError.InvalidSignatureLength */\n      0x04\n      dup2\n      gt\n      iszero\n      tag_84\n      jumpi\n      tag_84\n      tag_68\n      jump\t// in\n    tag_84:\n      sub\n        /* \"@openzeppelin/contracts/utils/cryptography/ECDSA.sol\":817:1173  if (error == RecoverError.InvalidSignatureLength) {... */\n      tag_85\n      jumpi\n        /* \"@openzeppelin/contracts/utils/cryptography/ECDSA.sol\":881:922  revert(\"ECDSA: invalid signature length\") */\n      mload(0x40)\n      shl(0xe5, 0x461bcd)\n      dup2\n      mstore\n        /* \"#utility.yul\":5061:5063   */\n      0x20\n        /* \"@openzeppelin/contracts/utils/cryptography/ECDSA.sol\":881:922  revert(\"ECDSA: invalid signature length\") */\n      0x04\n      dup3\n      add\n        /* \"#utility.yul\":5043:5064   */\n      mstore\n        /* \"#utility.yul\":5100:5102   */\n      0x1f\n        /* \"#utility.yul\":5080:5098   */\n      0x24\n      dup3\n      add\n        /* \"#utility.yul\":5073:5103   */\n      mstore\n        /* \"#utility.yul\":5139:5172   */\n      0x45434453413a20696e76616c6964207369676e6174757265206c656e67746800\n        /* \"#utility.yul\":5119:5137   */\n      0x44\n      dup3\n      add\n        /* \"#utility.yul\":5112:5173   */\n      mstore\n        /* \"#utility.yul\":5190:5208   */\n      0x64\n      add\n        /* \"@openzeppelin/contracts/utils/cryptography/ECDSA.sol\":881:922  revert(\"ECDSA: invalid signature length\") */\n      tag_78\n        /* \"#utility.yul\":4859:5214   */\n      jump\n        /* \"@openzeppelin/contracts/utils/cryptography/ECDSA.sol\":817:1173  if (error == RecoverError.InvalidSignatureLength) {... */\n    tag_85:\n        /* \"@openzeppelin/contracts/utils/cryptography/ECDSA.sol\":952:982  RecoverError.InvalidSignatureS */\n      0x03\n        /* \"@openzeppelin/contracts/utils/cryptography/ECDSA.sol\":943:948  error */\n      dup2\n        /* \"@openzeppelin/contracts/utils/cryptography/ECDSA.sol\":943:982  error == RecoverError.InvalidSignatureS */\n      0x04\n      dup2\n      gt\n      iszero\n      tag_92\n      jumpi\n      tag_92\n      tag_68\n      jump\t// in\n    tag_92:\n      sub\n        /* \"@openzeppelin/contracts/utils/cryptography/ECDSA.sol\":939:1173  if (error == RecoverError.InvalidSignatureS) {... */\n      tag_93\n      jumpi\n        /* \"@openzeppelin/contracts/utils/cryptography/ECDSA.sol\":998:1042  revert(\"ECDSA: invalid signature 's' value\") */\n      mload(0x40)\n      shl(0xe5, 0x461bcd)\n      dup2\n      mstore\n        /* \"#utility.yul\":5421:5423   */\n      0x20\n        /* \"@openzeppelin/contracts/utils/cryptography/ECDSA.sol\":998:1042  revert(\"ECDSA: invalid signature 's' value\") */\n      0x04\n      dup3\n      add\n        /* \"#utility.yul\":5403:5424   */\n      mstore\n        /* \"#utility.yul\":5460:5462   */\n      0x22\n        /* \"#utility.yul\":5440:5458   */\n      0x24\n      dup3\n      add\n        /* \"#utility.yul\":5433:5463   */\n      mstore\n        /* \"#utility.yul\":5499:5533   */\n      0x45434453413a20696e76616c6964207369676e6174757265202773272076616c\n        /* \"#utility.yul\":5479:5497   */\n      0x44\n      dup3\n      add\n        /* \"#utility.yul\":5472:5534   */\n      mstore\n      shl(0xf0, 0x7565)\n        /* \"#utility.yul\":5550:5568   */\n      0x64\n      dup3\n      add\n        /* \"#utility.yul\":5543:5575   */\n      mstore\n        /* \"#utility.yul\":5592:5611   */\n      0x84\n      add\n        /* \"@openzeppelin/contracts/utils/cryptography/ECDSA.sol\":998:1042  revert(\"ECDSA: invalid signature 's' value\") */\n      tag_78\n        /* \"#utility.yul\":5219:5617   */\n      jump\n        /* \"@openzeppelin/contracts/utils/cryptography/ECDSA.sol\":939:1173  if (error == RecoverError.InvalidSignatureS) {... */\n    tag_93:\n        /* \"@openzeppelin/contracts/utils/cryptography/ECDSA.sol\":1072:1102  RecoverError.InvalidSignatureV */\n      0x04\n        /* \"@openzeppelin/contracts/utils/cryptography/ECDSA.sol\":1063:1068  error */\n      dup2\n        /* \"@openzeppelin/contracts/utils/cryptography/ECDSA.sol\":1063:1102  error == RecoverError.InvalidSignatureV */\n      0x04\n      dup2\n      gt\n      iszero\n      tag_100\n      jumpi\n      tag_100\n      tag_68\n      jump\t// in\n    tag_100:\n      sub\n        /* \"@openzeppelin/contracts/utils/cryptography/ECDSA.sol\":1059:1173  if (error == RecoverError.InvalidSignatureV) {... */\n      tag_101\n      jumpi\n        /* \"@openzeppelin/contracts/utils/cryptography/ECDSA.sol\":1118:1162  revert(\"ECDSA: invalid signature 'v' value\") */\n      mload(0x40)\n      shl(0xe5, 0x461bcd)\n      dup2\n      mstore\n        /* \"#utility.yul\":5824:5826   */\n      0x20\n        /* \"@openzeppelin/contracts/utils/cryptography/ECDSA.sol\":1118:1162  revert(\"ECDSA: invalid signature 'v' value\") */\n      0x04\n      dup3\n      add\n        /* \"#utility.yul\":5806:5827   */\n      mstore\n        /* \"#utility.yul\":5863:5865   */\n      0x22\n        /* \"#utility.yul\":5843:5861   */\n      0x24\n      dup3\n      add\n        /* \"#utility.yul\":5836:5866   */\n      mstore\n        /* \"#utility.yul\":5902:5936   */\n      0x45434453413a20696e76616c6964207369676e6174757265202776272076616c\n        /* \"#utility.yul\":5882:5900   */\n      0x44\n      dup3\n      add\n        /* \"#utility.yul\":5875:5937   */\n      mstore\n      shl(0xf0, 0x7565)\n        /* \"#utility.yul\":5953:5971   */\n      0x64\n      dup3\n      add\n        /* \"#utility.yul\":5946:5978   */\n      mstore\n        /* \"#utility.yul\":5995:6014   */\n      0x84\n      add\n        /* \"@openzeppelin/contracts/utils/cryptography/ECDSA.sol\":1118:1162  revert(\"ECDSA: invalid signature 'v' value\") */\n      tag_78\n        /* \"#utility.yul\":5622:6020   */\n      jump\n        /* \"@openzeppelin/contracts/utils/cryptography/ECDSA.sol\":1059:1173  if (error == RecoverError.InvalidSignatureV) {... */\n    tag_101:\n        /* \"@openzeppelin/contracts/utils/cryptography/ECDSA.sol\":548:1179  function _throwError(RecoverError error) private pure {... */\n      pop\n      jump\t// out\n        /* \"@openzeppelin/contracts/utils/cryptography/ECDSA.sol\":5716:7319  function tryRecover(... */\n    tag_59:\n        /* \"@openzeppelin/contracts/utils/cryptography/ECDSA.sol\":5842:5849  address */\n      0x00\n      dup1\n        /* \"@openzeppelin/contracts/utils/cryptography/ECDSA.sol\":6766:6832  0x7FFFFFFFFFFFFFFFFFFFFFFFFFFFFFFF5D576E7357A4501DDFE92F46681B20A0 */\n      0x7fffffffffffffffffffffffffffffff5d576e7357a4501ddfe92f46681b20a0\n        /* \"@openzeppelin/contracts/utils/cryptography/ECDSA.sol\":6753:6832  uint256(s) > 0x7FFFFFFFFFFFFFFFFFFFFFFFFFFFFFFF5D576E7357A4501DDFE92F46681B20A0 */\n      dup4\n      gt\n        /* \"@openzeppelin/contracts/utils/cryptography/ECDSA.sol\":6749:6910  if (uint256(s) > 0x7FFFFFFFFFFFFFFFFFFFFFFFFFFFFFFF5D576E7357A4501DDFE92F46681B20A0) {... */\n      iszero\n      tag_108\n      jumpi\n      pop\n        /* \"@openzeppelin/contracts/utils/cryptography/ECDSA.sol\":6864:6865  0 */\n      0x00\n      swap1\n      pop\n        /* \"@openzeppelin/contracts/utils/cryptography/ECDSA.sol\":6868:6898  RecoverError.InvalidSignatureS */\n      0x03\n        /* \"@openzeppelin/contracts/utils/cryptography/ECDSA.sol\":6848:6899  return (address(0), RecoverError.InvalidSignatureS) */\n      jump(tag_107)\n        /* \"@openzeppelin/contracts/utils/cryptography/ECDSA.sol\":6749:6910  if (uint256(s) > 0x7FFFFFFFFFFFFFFFFFFFFFFFFFFFFFFF5D576E7357A4501DDFE92F46681B20A0) {... */\n    tag_108:\n        /* \"@openzeppelin/contracts/utils/cryptography/ECDSA.sol\":6923:6924  v */\n      dup5\n        /* \"@openzeppelin/contracts/utils/cryptography/ECDSA.sol\":6923:6930  v != 27 */\n      0xff\n      and\n        /* \"@openzeppelin/contracts/utils/cryptography/ECDSA.sol\":6928:6930  27 */\n      0x1b\n        /* \"@openzeppelin/contracts/utils/cryptography/ECDSA.sol\":6923:6930  v != 27 */\n      eq\n      iszero\n        /* \"@openzeppelin/contracts/utils/cryptography/ECDSA.sol\":6923:6941  v != 27 && v != 28 */\n      dup1\n      iszero\n      tag_109\n      jumpi\n      pop\n        /* \"@openzeppelin/contracts/utils/cryptography/ECDSA.sol\":6934:6935  v */\n      dup5\n        /* \"@openzeppelin/contracts/utils/cryptography/ECDSA.sol\":6934:6941  v != 28 */\n      0xff\n      and\n        /* \"@openzeppelin/contracts/utils/cryptography/ECDSA.sol\":6939:6941  28 */\n      0x1c\n        /* \"@openzeppelin/contracts/utils/cryptography/ECDSA.sol\":6934:6941  v != 28 */\n      eq\n      iszero\n        /* \"@openzeppelin/contracts/utils/cryptography/ECDSA.sol\":6923:6941  v != 27 && v != 28 */\n    tag_109:\n        /* \"@openzeppelin/contracts/utils/cryptography/ECDSA.sol\":6919:7019  if (v != 27 && v != 28) {... */\n      iszero\n      tag_110\n      jumpi\n      pop\n        /* \"@openzeppelin/contracts/utils/cryptography/ECDSA.sol\":6973:6974  0 */\n      0x00\n      swap1\n      pop\n        /* \"@openzeppelin/contracts/utils/cryptography/ECDSA.sol\":6977:7007  RecoverError.InvalidSignatureV */\n      0x04\n        /* \"@openzeppelin/contracts/utils/cryptography/ECDSA.sol\":6957:7008  return (address(0), RecoverError.InvalidSignatureV) */\n      jump(tag_107)\n        /* \"@openzeppelin/contracts/utils/cryptography/ECDSA.sol\":6919:7019  if (v != 27 && v != 28) {... */\n    tag_110:\n        /* \"@openzeppelin/contracts/utils/cryptography/ECDSA.sol\":7130:7154  ecrecover(hash, v, r, s) */\n      0x40\n      dup1\n      mload\n        /* \"@openzeppelin/contracts/utils/cryptography/ECDSA.sol\":7113:7127  address signer */\n      0x00\n        /* \"@openzeppelin/contracts/utils/cryptography/ECDSA.sol\":7130:7154  ecrecover(hash, v, r, s) */\n      dup1\n      dup3\n      mstore\n      0x20\n      dup3\n      add\n      dup1\n      dup5\n      mstore\n        /* \"#utility.yul\":6746:6771   */\n      dup10\n      swap1\n      mstore\n        /* \"#utility.yul\":6819:6823   */\n      0xff\n        /* \"#utility.yul\":6807:6824   */\n      dup9\n      and\n        /* \"#utility.yul\":6787:6805   */\n      swap3\n      dup3\n      add\n        /* \"#utility.yul\":6780:6825   */\n      swap3\n      swap1\n      swap3\n      mstore\n        /* \"#utility.yul\":6841:6859   */\n      0x60\n      dup2\n      add\n        /* \"#utility.yul\":6834:6868   */\n      dup7\n      swap1\n      mstore\n        /* \"#utility.yul\":6884:6902   */\n      0x80\n      dup2\n      add\n        /* \"#utility.yul\":6877:6911   */\n      dup6\n      swap1\n      mstore\n        /* \"@openzeppelin/contracts/utils/cryptography/ECDSA.sol\":7130:7154  ecrecover(hash, v, r, s) */\n      0x01\n      swap1\n        /* \"#utility.yul\":6718:6737   */\n      0xa0\n      add\n        /* \"@openzeppelin/contracts/utils/cryptography/ECDSA.sol\":7130:7154  ecrecover(hash, v, r, s) */\n      0x20\n      mload(0x40)\n      0x20\n      dup2\n      sub\n      swap1\n      dup1\n      dup5\n      sub\n      swap1\n      dup6\n      gas\n      staticcall\n      iszero\n      dup1\n      iszero\n      tag_114\n      jumpi\n      returndatasize\n      0x00\n      dup1\n      returndatacopy\n      revert(0x00, returndatasize)\n    tag_114:\n      pop\n      pop\n      mload(add(not(0x1f), mload(0x40)))\n      swap2\n      pop\n      pop\n      sub(shl(0xa0, 0x01), 0x01)\n        /* \"@openzeppelin/contracts/utils/cryptography/ECDSA.sol\":7168:7188  signer == address(0) */\n      dup2\n      and\n        /* \"@openzeppelin/contracts/utils/cryptography/ECDSA.sol\":7164:7265  if (signer == address(0)) {... */\n      tag_115\n      jumpi\n        /* \"@openzeppelin/contracts/utils/cryptography/ECDSA.sol\":7220:7221  0 */\n      0x00\n        /* \"@openzeppelin/contracts/utils/cryptography/ECDSA.sol\":7224:7253  RecoverError.InvalidSignature */\n      0x01\n        /* \"@openzeppelin/contracts/utils/cryptography/ECDSA.sol\":7204:7254  return (address(0), RecoverError.InvalidSignature) */\n      swap3\n      pop\n      swap3\n      pop\n      pop\n      jump(tag_107)\n        /* \"@openzeppelin/contracts/utils/cryptography/ECDSA.sol\":7164:7265  if (signer == address(0)) {... */\n    tag_115:\n        /* \"@openzeppelin/contracts/utils/cryptography/ECDSA.sol\":7283:7289  signer */\n      swap2\n      pop\n        /* \"@openzeppelin/contracts/utils/cryptography/ECDSA.sol\":7291:7311  RecoverError.NoError */\n      0x00\n      swap1\n      pop\n        /* \"@openzeppelin/contracts/utils/cryptography/ECDSA.sol\":5716:7319  function tryRecover(... */\n    tag_107:\n      swap5\n      pop\n      swap5\n      swap3\n      pop\n      pop\n      pop\n      jump\t// out\n        /* \"@openzeppelin/contracts/utils/cryptography/ECDSA.sol\":4789:5125  function tryRecover(... */\n    tag_63:\n        /* \"@openzeppelin/contracts/utils/cryptography/ECDSA.sol\":4899:4906  address */\n      0x00\n      dup1\n      sub(shl(0xff, 0x01), 0x01)\n        /* \"@openzeppelin/contracts/utils/cryptography/ECDSA.sol\":4944:5024  vs & bytes32(0x7fffffffffffffffffffffffffffffffffffffffffffffffffffffffffffffff) */\n      dup4\n      and\n        /* \"@openzeppelin/contracts/utils/cryptography/ECDSA.sol\":4899:4906  address */\n      dup2\n        /* \"@openzeppelin/contracts/utils/cryptography/ECDSA.sol\":5050:5075  (uint256(vs) >> 255) + 27 */\n      tag_117\n        /* \"@openzeppelin/contracts/utils/cryptography/ECDSA.sol\":5066:5069  255 */\n      0xff\n        /* \"@openzeppelin/contracts/utils/cryptography/ECDSA.sol\":5051:5069  uint256(vs) >> 255 */\n      dup7\n      swap1\n      shr\n        /* \"@openzeppelin/contracts/utils/cryptography/ECDSA.sol\":5073:5075  27 */\n      0x1b\n        /* \"@openzeppelin/contracts/utils/cryptography/ECDSA.sol\":5050:5075  (uint256(vs) >> 255) + 27 */\n      tag_118\n      jump\t// in\n    tag_117:\n        /* \"@openzeppelin/contracts/utils/cryptography/ECDSA.sol\":5034:5076  uint8 v = uint8((uint256(vs) >> 255) + 27) */\n      swap1\n      pop\n        /* \"@openzeppelin/contracts/utils/cryptography/ECDSA.sol\":5093:5118  tryRecover(hash, v, r, s) */\n      tag_119\n        /* \"@openzeppelin/contracts/utils/cryptography/ECDSA.sol\":5104:5108  hash */\n      dup8\n        /* \"@openzeppelin/contracts/utils/cryptography/ECDSA.sol\":5110:5111  v */\n      dup3\n        /* \"@openzeppelin/contracts/utils/cryptography/ECDSA.sol\":5113:5114  r */\n      dup9\n        /* \"@openzeppelin/contracts/utils/cryptography/ECDSA.sol\":5116:5117  s */\n      dup6\n        /* \"@openzeppelin/contracts/utils/cryptography/ECDSA.sol\":5093:5103  tryRecover */\n      tag_59\n        /* \"@openzeppelin/contracts/utils/cryptography/ECDSA.sol\":5093:5118  tryRecover(hash, v, r, s) */\n      jump\t// in\n    tag_119:\n        /* \"@openzeppelin/contracts/utils/cryptography/ECDSA.sol\":5086:5118  return tryRecover(hash, v, r, s) */\n      swap4\n      pop\n      swap4\n      pop\n      pop\n      pop\n        /* \"@openzeppelin/contracts/utils/cryptography/ECDSA.sol\":4789:5125  function tryRecover(... */\n      swap4\n      pop\n      swap4\n      swap2\n      pop\n      pop\n      jump\t// out\n        /* \"#utility.yul\":14:404   */\n    tag_7:\n        /* \"#utility.yul\":103:109   */\n      0x00\n        /* \"#utility.yul\":156:158   */\n      0x20\n        /* \"#utility.yul\":144:153   */\n      dup3\n        /* \"#utility.yul\":135:142   */\n      dup5\n        /* \"#utility.yul\":131:154   */\n      sub\n        /* \"#utility.yul\":127:159   */\n      slt\n        /* \"#utility.yul\":124:176   */\n      iszero\n      tag_123\n      jumpi\n        /* \"#utility.yul\":172:173   */\n      0x00\n        /* \"#utility.yul\":169:170   */\n      dup1\n        /* \"#utility.yul\":162:174   */\n      revert\n        /* \"#utility.yul\":124:176   */\n    tag_123:\n        /* \"#utility.yul\":212:221   */\n      dup2\n        /* \"#utility.yul\":199:222   */\n      calldataload\n        /* \"#utility.yul\":245:263   */\n      0xffffffffffffffff\n        /* \"#utility.yul\":237:243   */\n      dup2\n        /* \"#utility.yul\":234:264   */\n      gt\n        /* \"#utility.yul\":231:281   */\n      iszero\n      tag_124\n      jumpi\n        /* \"#utility.yul\":277:278   */\n      0x00\n        /* \"#utility.yul\":274:275   */\n      dup1\n        /* \"#utility.yul\":267:279   */\n      revert\n        /* \"#utility.yul\":231:281   */\n    tag_124:\n        /* \"#utility.yul\":300:322   */\n      dup3\n      add\n        /* \"#utility.yul\":356:359   */\n      0x80\n        /* \"#utility.yul\":338:354   */\n      dup2\n      dup6\n      sub\n        /* \"#utility.yul\":334:360   */\n      slt\n        /* \"#utility.yul\":331:377   */\n      iszero\n      tag_33\n      jumpi\n        /* \"#utility.yul\":373:374   */\n      0x00\n        /* \"#utility.yul\":370:371   */\n      dup1\n        /* \"#utility.yul\":363:375   */\n      revert\n        /* \"#utility.yul\":799:1085   */\n    tag_19:\n        /* \"#utility.yul\":858:864   */\n      0x00\n        /* \"#utility.yul\":911:913   */\n      0x20\n        /* \"#utility.yul\":899:908   */\n      dup3\n        /* \"#utility.yul\":890:897   */\n      dup5\n        /* \"#utility.yul\":886:909   */\n      sub\n        /* \"#utility.yul\":882:914   */\n      slt\n        /* \"#utility.yul\":879:931   */\n      iszero\n      tag_129\n      jumpi\n        /* \"#utility.yul\":927:928   */\n      0x00\n        /* \"#utility.yul\":924:925   */\n      dup1\n        /* \"#utility.yul\":917:929   */\n      revert\n        /* \"#utility.yul\":879:931   */\n    tag_129:\n        /* \"#utility.yul\":953:976   */\n      dup2\n      calldataload\n      sub(shl(0xa0, 0x01), 0x01)\n        /* \"#utility.yul\":1005:1036   */\n      dup2\n      and\n        /* \"#utility.yul\":995:1037   */\n      dup2\n      eq\n        /* \"#utility.yul\":985:1055   */\n      tag_33\n      jumpi\n        /* \"#utility.yul\":1051:1052   */\n      0x00\n        /* \"#utility.yul\":1048:1049   */\n      dup1\n        /* \"#utility.yul\":1041:1053   */\n      revert\n        /* \"#utility.yul\":1090:1635   */\n    tag_21:\n        /* \"#utility.yul\":1183:1187   */\n      0x00\n        /* \"#utility.yul\":1189:1195   */\n      dup1\n        /* \"#utility.yul\":1249:1260   */\n      dup4\n        /* \"#utility.yul\":1236:1261   */\n      calldataload\n        /* \"#utility.yul\":1343:1345   */\n      0x1e\n        /* \"#utility.yul\":1339:1346   */\n      not\n        /* \"#utility.yul\":1328:1336   */\n      dup5\n        /* \"#utility.yul\":1312:1326   */\n      calldatasize\n        /* \"#utility.yul\":1308:1337   */\n      sub\n        /* \"#utility.yul\":1304:1347   */\n      add\n        /* \"#utility.yul\":1284:1302   */\n      dup2\n        /* \"#utility.yul\":1280:1348   */\n      slt\n        /* \"#utility.yul\":1270:1366   */\n      tag_132\n      jumpi\n        /* \"#utility.yul\":1362:1363   */\n      0x00\n        /* \"#utility.yul\":1359:1360   */\n      dup1\n        /* \"#utility.yul\":1352:1364   */\n      revert\n        /* \"#utility.yul\":1270:1366   */\n    tag_132:\n        /* \"#utility.yul\":1389:1422   */\n      dup4\n      add\n        /* \"#utility.yul\":1441:1461   */\n      dup1\n      calldataload\n      swap2\n      pop\n        /* \"#utility.yul\":1484:1502   */\n      0xffffffffffffffff\n        /* \"#utility.yul\":1473:1503   */\n      dup3\n      gt\n        /* \"#utility.yul\":1470:1520   */\n      iszero\n      tag_133\n      jumpi\n        /* \"#utility.yul\":1516:1517   */\n      0x00\n        /* \"#utility.yul\":1513:1514   */\n      dup1\n        /* \"#utility.yul\":1506:1518   */\n      revert\n        /* \"#utility.yul\":1470:1520   */\n    tag_133:\n        /* \"#utility.yul\":1549:1553   */\n      0x20\n        /* \"#utility.yul\":1537:1554   */\n      add\n      swap2\n      pop\n        /* \"#utility.yul\":1600:1601   */\n      0x05\n        /* \"#utility.yul\":1596:1610   */\n      dup2\n      swap1\n      shl\n        /* \"#utility.yul\":1580:1594   */\n      calldatasize\n        /* \"#utility.yul\":1576:1611   */\n      sub\n        /* \"#utility.yul\":1566:1612   */\n      dup3\n      sgt\n        /* \"#utility.yul\":1563:1629   */\n      iszero\n      tag_64\n      jumpi\n        /* \"#utility.yul\":1625:1626   */\n      0x00\n        /* \"#utility.yul\":1622:1623   */\n      dup1\n        /* \"#utility.yul\":1615:1627   */\n      revert\n        /* \"#utility.yul\":1640:1944   */\n    tag_120:\n        /* \"#utility.yul\":1710:1713   */\n      0x00\n      sub(shl(0xfb, 0x01), 0x01)\n        /* \"#utility.yul\":1731:1762   */\n      dup4\n      gt\n        /* \"#utility.yul\":1728:1779   */\n      iszero\n      tag_136\n      jumpi\n        /* \"#utility.yul\":1775:1776   */\n      0x00\n        /* \"#utility.yul\":1772:1773   */\n      dup1\n        /* \"#utility.yul\":1765:1777   */\n      revert\n        /* \"#utility.yul\":1728:1779   */\n    tag_136:\n        /* \"#utility.yul\":1811:1817   */\n      dup3\n        /* \"#utility.yul\":1808:1809   */\n      0x05\n        /* \"#utility.yul\":1804:1818   */\n      shl\n        /* \"#utility.yul\":1852:1860   */\n      dup1\n        /* \"#utility.yul\":1845:1850   */\n      dup4\n        /* \"#utility.yul\":1840:1843   */\n      dup7\n        /* \"#utility.yul\":1827:1861   */\n      calldatacopy\n        /* \"#utility.yul\":1918:1919   */\n      0x00\n        /* \"#utility.yul\":1880:1898   */\n      swap5\n      add\n        /* \"#utility.yul\":1907:1920   */\n      swap4\n      dup5\n      mstore\n      pop\n        /* \"#utility.yul\":1880:1898   */\n      swap2\n      swap3\n        /* \"#utility.yul\":1640:1944   */\n      swap2\n      pop\n      pop\n      jump\t// out\n        /* \"#utility.yul\":1949:2209   */\n    tag_23:\n        /* \"#utility.yul\":2120:2123   */\n      0x00\n        /* \"#utility.yul\":2145:2203   */\n      tag_138\n        /* \"#utility.yul\":2199:2202   */\n      dup3\n        /* \"#utility.yul\":2191:2197   */\n      dup5\n        /* \"#utility.yul\":2183:2189   */\n      dup7\n        /* \"#utility.yul\":2145:2203   */\n      tag_120\n      jump\t// in\n    tag_138:\n        /* \"#utility.yul\":2138:2203   */\n      swap5\n        /* \"#utility.yul\":1949:2209   */\n      swap4\n      pop\n      pop\n      pop\n      pop\n      jump\t// out\n        /* \"#utility.yul\":3451:3972   */\n    tag_35:\n        /* \"#utility.yul\":3528:3532   */\n      0x00\n        /* \"#utility.yul\":3534:3540   */\n      dup1\n        /* \"#utility.yul\":3594:3605   */\n      dup4\n        /* \"#utility.yul\":3581:3606   */\n      calldataload\n        /* \"#utility.yul\":3688:3690   */\n      0x1e\n        /* \"#utility.yul\":3684:3691   */\n      not\n        /* \"#utility.yul\":3673:3681   */\n      dup5\n        /* \"#utility.yul\":3657:3671   */\n      calldatasize\n        /* \"#utility.yul\":3653:3682   */\n      sub\n        /* \"#utility.yul\":3649:3692   */\n      add\n        /* \"#utility.yul\":3629:3647   */\n      dup2\n        /* \"#utility.yul\":3625:3693   */\n      slt\n        /* \"#utility.yul\":3615:3711   */\n      tag_147\n      jumpi\n        /* \"#utility.yul\":3707:3708   */\n      0x00\n        /* \"#utility.yul\":3704:3705   */\n      dup1\n        /* \"#utility.yul\":3697:3709   */\n      revert\n        /* \"#utility.yul\":3615:3711   */\n    tag_147:\n        /* \"#utility.yul\":3734:3767   */\n      dup4\n      add\n        /* \"#utility.yul\":3786:3806   */\n      dup1\n      calldataload\n      swap2\n      pop\n        /* \"#utility.yul\":3829:3847   */\n      0xffffffffffffffff\n        /* \"#utility.yul\":3818:3848   */\n      dup3\n      gt\n        /* \"#utility.yul\":3815:3865   */\n      iszero\n      tag_148\n      jumpi\n        /* \"#utility.yul\":3861:3862   */\n      0x00\n        /* \"#utility.yul\":3858:3859   */\n      dup1\n        /* \"#utility.yul\":3851:3863   */\n      revert\n        /* \"#utility.yul\":3815:3865   */\n    tag_148:\n        /* \"#utility.yul\":3894:3898   */\n      0x20\n        /* \"#utility.yul\":3882:3899   */\n      add\n      swap2\n      pop\n        /* \"#utility.yul\":3925:3939   */\n      calldatasize\n        /* \"#utility.yul\":3921:3948   */\n      dup2\n      swap1\n      sub\n        /* \"#utility.yul\":3911:3949   */\n      dup3\n      sgt\n        /* \"#utility.yul\":3908:3966   */\n      iszero\n      tag_64\n      jumpi\n        /* \"#utility.yul\":3962:3963   */\n      0x00\n        /* \"#utility.yul\":3959:3960   */\n      dup1\n        /* \"#utility.yul\":3952:3964   */\n      revert\n        /* \"#utility.yul\":4374:4501   */\n    tag_68:\n        /* \"#utility.yul\":4435:4445   */\n      0x4e487b71\n        /* \"#utility.yul\":4430:4433   */\n      0xe0\n        /* \"#utility.yul\":4426:4446   */\n      shl\n        /* \"#utility.yul\":4423:4424   */\n      0x00\n        /* \"#utility.yul\":4416:4447   */\n      mstore\n        /* \"#utility.yul\":4466:4470   */\n      0x21\n        /* \"#utility.yul\":4463:4464   */\n      0x04\n        /* \"#utility.yul\":4456:4471   */\n      mstore\n        /* \"#utility.yul\":4490:4494   */\n      0x24\n        /* \"#utility.yul\":4487:4488   */\n      0x00\n        /* \"#utility.yul\":4480:4495   */\n      revert\n        /* \"#utility.yul\":6922:7147   */\n    tag_118:\n        /* \"#utility.yul\":6962:6965   */\n      0x00\n        /* \"#utility.yul\":6993:6994   */\n      dup3\n        /* \"#utility.yul\":6989:6995   */\n      not\n        /* \"#utility.yul\":6986:6987   */\n      dup3\n        /* \"#utility.yul\":6983:6996   */\n      gt\n        /* \"#utility.yul\":6980:7116   */\n      iszero\n      tag_159\n      jumpi\n        /* \"#utility.yul\":7038:7048   */\n      0x4e487b71\n        /* \"#utility.yul\":7033:7036   */\n      0xe0\n        /* \"#utility.yul\":7029:7049   */\n      shl\n        /* \"#utility.yul\":7026:7027   */\n      0x00\n        /* \"#utility.yul\":7019:7050   */\n      mstore\n        /* \"#utility.yul\":7073:7077   */\n      0x11\n        /* \"#utility.yul\":7070:7071   */\n      0x04\n        /* \"#utility.yul\":7063:7078   */\n      mstore\n        /* \"#utility.yul\":7101:7105   */\n      0x24\n        /* \"#utility.yul\":7098:7099   */\n      0x00\n        /* \"#utility.yul\":7091:7106   */\n      revert\n        /* \"#utility.yul\":6980:7116   */\n    tag_159:\n      pop\n        /* \"#utility.yul\":7132:7141   */\n      add\n      swap1\n        /* \"#utility.yul\":6922:7147   */\n      jump\t// out\n\n    auxdata: 0xa2646970667358221220078b63336cd195283874e43b843926e51bee1722334671d68127436588b0e5fc64736f6c634300080e0033\n}\n",
				"bytecode": {
					"linkReferences": {},
					"object": "61014060405234801561001157600080fd5b50604080518082018252600b81526a48616368694e667453696760a81b6020808301918252835180850190945260018452603160f81b908401528151902060e08190527fc89efdaa54c0f20c7adf612882df0950f5a951637e0307cdcb4c672f298b8bc66101008190524660a0529192917f8b73c3c69bb8fe3d512ecc4cf759cc79239f7b179b0ffacaa9a75d522b39400f6100f28184846040805160208101859052908101839052606081018290524660808201523060a082015260009060c0016040516020818303038152906040528051906020012090509392505050565b6080523060c052610120525061010792505050565b60805160a05160c05160e051610100516101205161087161015660003960006102d901526000610328015260006103030152600061025c01526000610286015260006102b001526108716000f3fe608060405234801561001057600080fd5b50600436106100365760003560e01c806315adc8fc1461003b578063ac7efdd714610061575b600080fd5b61004e6100493660046106c8565b61008c565b6040519081526020015b60405180910390f35b61007461006f3660046106c8565b61017d565b6040516001600160a01b039091168152602001610058565b60006101777f798f2fc7cec67eb8a3e992f2d864cc1f56f87a6e9130d64fe2b2d7693eca2d2b6100bf6020850185610703565b6100cc602086018661072c565b6040516020016100dd9291906107a3565b60405160208183030381529060405280519060200120858060400190610103919061072c565b6040516020016101149291906107a3565b6040516020818303038152906040528051906020012060405160200161015c94939291909384526001600160a01b039290921660208401526040830152606082015260800190565b604051602081830303815290604052805190602001206101dd565b92915050565b6000806101898361008c565b90506101d68161019c60608601866107b8565b8080601f01602080910402602001604051908101604052809392919081815260200183838082843760009201919091525061022b92505050565b9392505050565b60006101776101ea61024f565b8360405161190160f01b6020820152602281018390526042810182905260009060620160405160208183030381529060405280519060200120905092915050565b600080600061023a8585610376565b91509150610247816103e4565b509392505050565b6000306001600160a01b037f0000000000000000000000000000000000000000000000000000000000000000161480156102a857507f000000000000000000000000000000000000000000000000000000000000000046145b156102d257507f000000000000000000000000000000000000000000000000000000000000000090565b50604080517f00000000000000000000000000000000000000000000000000000000000000006020808301919091527f0000000000000000000000000000000000000000000000000000000000000000828401527f000000000000000000000000000000000000000000000000000000000000000060608301524660808301523060a0808401919091528351808403909101815260c0909201909252805191012090565b60008082516041036103ac5760208301516040840151606085015160001a6103a0878285856105a2565b945094505050506103dd565b82516040036103d557602083015160408401516103ca86838361068f565b9350935050506103dd565b506000905060025b9250929050565b60008160048111156103f8576103f86107ff565b036104005750565b6001816004811115610414576104146107ff565b036104665760405162461bcd60e51b815260206004820152601860248201527f45434453413a20696e76616c6964207369676e6174757265000000000000000060448201526064015b60405180910390fd5b600281600481111561047a5761047a6107ff565b036104c75760405162461bcd60e51b815260206004820152601f60248201527f45434453413a20696e76616c6964207369676e6174757265206c656e67746800604482015260640161045d565b60038160048111156104db576104db6107ff565b036105335760405162461bcd60e51b815260206004820152602260248201527f45434453413a20696e76616c6964207369676e6174757265202773272076616c604482015261756560f01b606482015260840161045d565b6004816004811115610547576105476107ff565b0361059f5760405162461bcd60e51b815260206004820152602260248201527f45434453413a20696e76616c6964207369676e6174757265202776272076616c604482015261756560f01b606482015260840161045d565b50565b6000807f7fffffffffffffffffffffffffffffff5d576e7357a4501ddfe92f46681b20a08311156105d95750600090506003610686565b8460ff16601b141580156105f157508460ff16601c14155b156106025750600090506004610686565b6040805160008082526020820180845289905260ff881692820192909252606081018690526080810185905260019060a0016020604051602081039080840390855afa158015610656573d6000803e3d6000fd5b5050604051601f1901519150506001600160a01b03811661067f57600060019250925050610686565b9150600090505b94509492505050565b6000806001600160ff1b038316816106ac60ff86901c601b610815565b90506106ba878288856105a2565b935093505050935093915050565b6000602082840312156106da57600080fd5b813567ffffffffffffffff8111156106f157600080fd5b8201608081850312156101d657600080fd5b60006020828403121561071557600080fd5b81356001600160a01b03811681146101d657600080fd5b6000808335601e1984360301811261074357600080fd5b83018035915067ffffffffffffffff82111561075e57600080fd5b6020019150600581901b36038213156103dd57600080fd5b60006001600160fb1b0383111561078c57600080fd5b8260051b8083863760009401938452509192915050565b60006107b0828486610776565b949350505050565b6000808335601e198436030181126107cf57600080fd5b83018035915067ffffffffffffffff8211156107ea57600080fd5b6020019150368190038213156103dd57600080fd5b634e487b7160e01b600052602160045260246000fd5b6000821982111561083657634e487b7160e01b600052601160045260246000fd5b50019056fea2646970667358221220078b63336cd195283874e43b843926e51bee1722334671d68127436588b0e5fc64736f6c634300080e0033",
					"opcodes": "PUSH2 0x140 PUSH1 0x40 MSTORE CALLVALUE DUP1 ISZERO PUSH2 0x11 JUMPI PUSH1 0x0 DUP1 REVERT JUMPDEST POP PUSH1 0x40 DUP1 MLOAD DUP1 DUP3 ADD DUP3 MSTORE PUSH1 0xB DUP2 MSTORE PUSH11 0x48616368694E6674536967 PUSH1 0xA8 SHL PUSH1 0x20 DUP1 DUP4 ADD SWAP2 DUP3 MSTORE DUP4 MLOAD DUP1 DUP6 ADD SWAP1 SWAP5 MSTORE PUSH1 0x1 DUP5 MSTORE PUSH1 0x31 PUSH1 0xF8 SHL SWAP1 DUP5 ADD MSTORE DUP2 MLOAD SWAP1 KECCAK256 PUSH1 0xE0 DUP2 SWAP1 MSTORE PUSH32 0xC89EFDAA54C0F20C7ADF612882DF0950F5A951637E0307CDCB4C672F298B8BC6 PUSH2 0x100 DUP2 SWAP1 MSTORE CHAINID PUSH1 0xA0 MSTORE SWAP2 SWAP3 SWAP2 PUSH32 0x8B73C3C69BB8FE3D512ECC4CF759CC79239F7B179B0FFACAA9A75D522B39400F PUSH2 0xF2 DUP2 DUP5 DUP5 PUSH1 0x40 DUP1 MLOAD PUSH1 0x20 DUP2 ADD DUP6 SWAP1 MSTORE SWAP1 DUP2 ADD DUP4 SWAP1 MSTORE PUSH1 0x60 DUP2 ADD DUP3 SWAP1 MSTORE CHAINID PUSH1 0x80 DUP3 ADD MSTORE ADDRESS PUSH1 0xA0 DUP3 ADD MSTORE PUSH1 0x0 SWAP1 PUSH1 0xC0 ADD PUSH1 0x40 MLOAD PUSH1 0x20 DUP2 DUP4 SUB SUB DUP2 MSTORE SWAP1 PUSH1 0x40 MSTORE DUP1 MLOAD SWAP1 PUSH1 0x20 ADD KECCAK256 SWAP1 POP SWAP4 SWAP3 POP POP POP JUMP JUMPDEST PUSH1 0x80 MSTORE ADDRESS PUSH1 0xC0 MSTORE PUSH2 0x120 MSTORE POP PUSH2 0x107 SWAP3 POP POP POP JUMP JUMPDEST PUSH1 0x80 MLOAD PUSH1 0xA0 MLOAD PUSH1 0xC0 MLOAD PUSH1 0xE0 MLOAD PUSH2 0x100 MLOAD PUSH2 0x120 MLOAD PUSH2 0x871 PUSH2 0x156 PUSH1 0x0 CODECOPY PUSH1 0x0 PUSH2 0x2D9 ADD MSTORE PUSH1 0x0 PUSH2 0x328 ADD MSTORE PUSH1 0x0 PUSH2 0x303 ADD MSTORE PUSH1 0x0 PUSH2 0x25C ADD MSTORE PUSH1 0x0 PUSH2 0x286 ADD MSTORE PUSH1 0x0 PUSH2 0x2B0 ADD MSTORE PUSH2 0x871 PUSH1 0x0 RETURN INVALID PUSH1 0x80 PUSH1 0x40 MSTORE CALLVALUE DUP1 ISZERO PUSH2 0x10 JUMPI PUSH1 0x0 DUP1 REVERT JUMPDEST POP PUSH1 0x4 CALLDATASIZE LT PUSH2 0x36 JUMPI PUSH1 0x0 CALLDATALOAD PUSH1 0xE0 SHR DUP1 PUSH4 0x15ADC8FC EQ PUSH2 0x3B JUMPI DUP1 PUSH4 0xAC7EFDD7 EQ PUSH2 0x61 JUMPI JUMPDEST PUSH1 0x0 DUP1 REVERT JUMPDEST PUSH2 0x4E PUSH2 0x49 CALLDATASIZE PUSH1 0x4 PUSH2 0x6C8 JUMP JUMPDEST PUSH2 0x8C JUMP JUMPDEST PUSH1 0x40 MLOAD SWAP1 DUP2 MSTORE PUSH1 0x20 ADD JUMPDEST PUSH1 0x40 MLOAD DUP1 SWAP2 SUB SWAP1 RETURN JUMPDEST PUSH2 0x74 PUSH2 0x6F CALLDATASIZE PUSH1 0x4 PUSH2 0x6C8 JUMP JUMPDEST PUSH2 0x17D JUMP JUMPDEST PUSH1 0x40 MLOAD PUSH1 0x1 PUSH1 0x1 PUSH1 0xA0 SHL SUB SWAP1 SWAP2 AND DUP2 MSTORE PUSH1 0x20 ADD PUSH2 0x58 JUMP JUMPDEST PUSH1 0x0 PUSH2 0x177 PUSH32 0x798F2FC7CEC67EB8A3E992F2D864CC1F56F87A6E9130D64FE2B2D7693ECA2D2B PUSH2 0xBF PUSH1 0x20 DUP6 ADD DUP6 PUSH2 0x703 JUMP JUMPDEST PUSH2 0xCC PUSH1 0x20 DUP7 ADD DUP7 PUSH2 0x72C JUMP JUMPDEST PUSH1 0x40 MLOAD PUSH1 0x20 ADD PUSH2 0xDD SWAP3 SWAP2 SWAP1 PUSH2 0x7A3 JUMP JUMPDEST PUSH1 0x40 MLOAD PUSH1 0x20 DUP2 DUP4 SUB SUB DUP2 MSTORE SWAP1 PUSH1 0x40 MSTORE DUP1 MLOAD SWAP1 PUSH1 0x20 ADD KECCAK256 DUP6 DUP1 PUSH1 0x40 ADD SWAP1 PUSH2 0x103 SWAP2 SWAP1 PUSH2 0x72C JUMP JUMPDEST PUSH1 0x40 MLOAD PUSH1 0x20 ADD PUSH2 0x114 SWAP3 SWAP2 SWAP1 PUSH2 0x7A3 JUMP JUMPDEST PUSH1 0x40 MLOAD PUSH1 0x20 DUP2 DUP4 SUB SUB DUP2 MSTORE SWAP1 PUSH1 0x40 MSTORE DUP1 MLOAD SWAP1 PUSH1 0x20 ADD KECCAK256 PUSH1 0x40 MLOAD PUSH1 0x20 ADD PUSH2 0x15C SWAP5 SWAP4 SWAP3 SWAP2 SWAP1 SWAP4 DUP5 MSTORE PUSH1 0x1 PUSH1 0x1 PUSH1 0xA0 SHL SUB SWAP3 SWAP1 SWAP3 AND PUSH1 0x20 DUP5 ADD MSTORE PUSH1 0x40 DUP4 ADD MSTORE PUSH1 0x60 DUP3 ADD MSTORE PUSH1 0x80 ADD SWAP1 JUMP JUMPDEST PUSH1 0x40 MLOAD PUSH1 0x20 DUP2 DUP4 SUB SUB DUP2 MSTORE SWAP1 PUSH1 0x40 MSTORE DUP1 MLOAD SWAP1 PUSH1 0x20 ADD KECCAK256 PUSH2 0x1DD JUMP JUMPDEST SWAP3 SWAP2 POP POP JUMP JUMPDEST PUSH1 0x0 DUP1 PUSH2 0x189 DUP4 PUSH2 0x8C JUMP JUMPDEST SWAP1 POP PUSH2 0x1D6 DUP2 PUSH2 0x19C PUSH1 0x60 DUP7 ADD DUP7 PUSH2 0x7B8 JUMP JUMPDEST DUP1 DUP1 PUSH1 0x1F ADD PUSH1 0x20 DUP1 SWAP2 DIV MUL PUSH1 0x20 ADD PUSH1 0x40 MLOAD SWAP1 DUP2 ADD PUSH1 0x40 MSTORE DUP1 SWAP4 SWAP3 SWAP2 SWAP1 DUP2 DUP2 MSTORE PUSH1 0x20 ADD DUP4 DUP4 DUP1 DUP3 DUP5 CALLDATACOPY PUSH1 0x0 SWAP3 ADD SWAP2 SWAP1 SWAP2 MSTORE POP PUSH2 0x22B SWAP3 POP POP POP JUMP JUMPDEST SWAP4 SWAP3 POP POP POP JUMP JUMPDEST PUSH1 0x0 PUSH2 0x177 PUSH2 0x1EA PUSH2 0x24F JUMP JUMPDEST DUP4 PUSH1 0x40 MLOAD PUSH2 0x1901 PUSH1 0xF0 SHL PUSH1 0x20 DUP3 ADD MSTORE PUSH1 0x22 DUP2 ADD DUP4 SWAP1 MSTORE PUSH1 0x42 DUP2 ADD DUP3 SWAP1 MSTORE PUSH1 0x0 SWAP1 PUSH1 0x62 ADD PUSH1 0x40 MLOAD PUSH1 0x20 DUP2 DUP4 SUB SUB DUP2 MSTORE SWAP1 PUSH1 0x40 MSTORE DUP1 MLOAD SWAP1 PUSH1 0x20 ADD KECCAK256 SWAP1 POP SWAP3 SWAP2 POP POP JUMP JUMPDEST PUSH1 0x0 DUP1 PUSH1 0x0 PUSH2 0x23A DUP6 DUP6 PUSH2 0x376 JUMP JUMPDEST SWAP2 POP SWAP2 POP PUSH2 0x247 DUP2 PUSH2 0x3E4 JUMP JUMPDEST POP SWAP4 SWAP3 POP POP POP JUMP JUMPDEST PUSH1 0x0 ADDRESS PUSH1 0x1 PUSH1 0x1 PUSH1 0xA0 SHL SUB PUSH32 0x0 AND EQ DUP1 ISZERO PUSH2 0x2A8 JUMPI POP PUSH32 0x0 CHAINID EQ JUMPDEST ISZERO PUSH2 0x2D2 JUMPI POP PUSH32 0x0 SWAP1 JUMP JUMPDEST POP PUSH1 0x40 DUP1 MLOAD PUSH32 0x0 PUSH1 0x20 DUP1 DUP4 ADD SWAP2 SWAP1 SWAP2 MSTORE PUSH32 0x0 DUP3 DUP5 ADD MSTORE PUSH32 0x0 PUSH1 0x60 DUP4 ADD MSTORE CHAINID PUSH1 0x80 DUP4 ADD MSTORE ADDRESS PUSH1 0xA0 DUP1 DUP5 ADD SWAP2 SWAP1 SWAP2 MSTORE DUP4 MLOAD DUP1 DUP5 SUB SWAP1 SWAP2 ADD DUP2 MSTORE PUSH1 0xC0 SWAP1 SWAP3 ADD SWAP1 SWAP3 MSTORE DUP1 MLOAD SWAP2 ADD KECCAK256 SWAP1 JUMP JUMPDEST PUSH1 0x0 DUP1 DUP3 MLOAD PUSH1 0x41 SUB PUSH2 0x3AC JUMPI PUSH1 0x20 DUP4 ADD MLOAD PUSH1 0x40 DUP5 ADD MLOAD PUSH1 0x60 DUP6 ADD MLOAD PUSH1 0x0 BYTE PUSH2 0x3A0 DUP8 DUP3 DUP6 DUP6 PUSH2 0x5A2 JUMP JUMPDEST SWAP5 POP SWAP5 POP POP POP POP PUSH2 0x3DD JUMP JUMPDEST DUP3 MLOAD PUSH1 0x40 SUB PUSH2 0x3D5 JUMPI PUSH1 0x20 DUP4 ADD MLOAD PUSH1 0x40 DUP5 ADD MLOAD PUSH2 0x3CA DUP7 DUP4 DUP4 PUSH2 0x68F JUMP JUMPDEST SWAP4 POP SWAP4 POP POP POP PUSH2 0x3DD JUMP JUMPDEST POP PUSH1 0x0 SWAP1 POP PUSH1 0x2 JUMPDEST SWAP3 POP SWAP3 SWAP1 POP JUMP JUMPDEST PUSH1 0x0 DUP2 PUSH1 0x4 DUP2 GT ISZERO PUSH2 0x3F8 JUMPI PUSH2 0x3F8 PUSH2 0x7FF JUMP JUMPDEST SUB PUSH2 0x400 JUMPI POP JUMP JUMPDEST PUSH1 0x1 DUP2 PUSH1 0x4 DUP2 GT ISZERO PUSH2 0x414 JUMPI PUSH2 0x414 PUSH2 0x7FF JUMP JUMPDEST SUB PUSH2 0x466 JUMPI PUSH1 0x40 MLOAD PUSH3 0x461BCD PUSH1 0xE5 SHL DUP2 MSTORE PUSH1 0x20 PUSH1 0x4 DUP3 ADD MSTORE PUSH1 0x18 PUSH1 0x24 DUP3 ADD MSTORE PUSH32 0x45434453413A20696E76616C6964207369676E61747572650000000000000000 PUSH1 0x44 DUP3 ADD MSTORE PUSH1 0x64 ADD JUMPDEST PUSH1 0x40 MLOAD DUP1 SWAP2 SUB SWAP1 REVERT JUMPDEST PUSH1 0x2 DUP2 PUSH1 0x4 DUP2 GT ISZERO PUSH2 0x47A JUMPI PUSH2 0x47A PUSH2 0x7FF JUMP JUMPDEST SUB PUSH2 0x4C7 JUMPI PUSH1 0x40 MLOAD PUSH3 0x461BCD PUSH1 0xE5 SHL DUP2 MSTORE PUSH1 0x20 PUSH1 0x4 DUP3 ADD MSTORE PUSH1 0x1F PUSH1 0x24 DUP3 ADD MSTORE PUSH32 0x45434453413A20696E76616C6964207369676E6174757265206C656E67746800 PUSH1 0x44 DUP3 ADD MSTORE PUSH1 0x64 ADD PUSH2 0x45D JUMP JUMPDEST PUSH1 0x3 DUP2 PUSH1 0x4 DUP2 GT ISZERO PUSH2 0x4DB JUMPI PUSH2 0x4DB PUSH2 0x7FF JUMP JUMPDEST SUB PUSH2 0x533 JUMPI PUSH1 0x40 MLOAD PUSH3 0x461BCD PUSH1 0xE5 SHL DUP2 MSTORE PUSH1 0x20 PUSH1 0x4 DUP3 ADD MSTORE PUSH1 0x22 PUSH1 0x24 DUP3 ADD MSTORE PUSH32 0x45434453413A20696E76616C6964207369676E6174757265202773272076616C PUSH1 0x44 DUP3 ADD MSTORE PUSH2 0x7565 PUSH1 0xF0 SHL PUSH1 0x64 DUP3 ADD MSTORE PUSH1 0x84 ADD PUSH2 0x45D JUMP JUMPDEST PUSH1 0x4 DUP2 PUSH1 0x4 DUP2 GT ISZERO PUSH2 0x547 JUMPI PUSH2 0x547 PUSH2 0x7FF JUMP JUMPDEST SUB PUSH2 0x59F JUMPI PUSH1 0x40 MLOAD PUSH3 0x461BCD PUSH1 0xE5 SHL DUP2 MSTORE PUSH1 0x20 PUSH1 0x4 DUP3 ADD MSTORE PUSH1 0x22 PUSH1 0x24 DUP3 ADD MSTORE PUSH32 0x45434453413A20696E76616C6964207369676E6174757265202776272076616C PUSH1 0x44 DUP3 ADD MSTORE PUSH2 0x7565 PUSH1 0xF0 SHL PUSH1 0x64 DUP3 ADD MSTORE PUSH1 0x84 ADD PUSH2 0x45D JUMP JUMPDEST POP JUMP JUMPDEST PUSH1 0x0 DUP1 PUSH32 0x7FFFFFFFFFFFFFFFFFFFFFFFFFFFFFFF5D576E7357A4501DDFE92F46681B20A0 DUP4 GT ISZERO PUSH2 0x5D9 JUMPI POP PUSH1 0x0 SWAP1 POP PUSH1 0x3 PUSH2 0x686 JUMP JUMPDEST DUP5 PUSH1 0xFF AND PUSH1 0x1B EQ ISZERO DUP1 ISZERO PUSH2 0x5F1 JUMPI POP DUP5 PUSH1 0xFF AND PUSH1 0x1C EQ ISZERO JUMPDEST ISZERO PUSH2 0x602 JUMPI POP PUSH1 0x0 SWAP1 POP PUSH1 0x4 PUSH2 0x686 JUMP JUMPDEST PUSH1 0x40 DUP1 MLOAD PUSH1 0x0 DUP1 DUP3 MSTORE PUSH1 0x20 DUP3 ADD DUP1 DUP5 MSTORE DUP10 SWAP1 MSTORE PUSH1 0xFF DUP9 AND SWAP3 DUP3 ADD SWAP3 SWAP1 SWAP3 MSTORE PUSH1 0x60 DUP2 ADD DUP7 SWAP1 MSTORE PUSH1 0x80 DUP2 ADD DUP6 SWAP1 MSTORE PUSH1 0x1 SWAP1 PUSH1 0xA0 ADD PUSH1 0x20 PUSH1 0x40 MLOAD PUSH1 0x20 DUP2 SUB SWAP1 DUP1 DUP5 SUB SWAP1 DUP6 GAS STATICCALL ISZERO DUP1 ISZERO PUSH2 0x656 JUMPI RETURNDATASIZE PUSH1 0x0 DUP1 RETURNDATACOPY RETURNDATASIZE PUSH1 0x0 REVERT JUMPDEST POP POP PUSH1 0x40 MLOAD PUSH1 0x1F NOT ADD MLOAD SWAP2 POP POP PUSH1 0x1 PUSH1 0x1 PUSH1 0xA0 SHL SUB DUP2 AND PUSH2 0x67F JUMPI PUSH1 0x0 PUSH1 0x1 SWAP3 POP SWAP3 POP POP PUSH2 0x686 JUMP JUMPDEST SWAP2 POP PUSH1 0x0 SWAP1 POP JUMPDEST SWAP5 POP SWAP5 SWAP3 POP POP POP JUMP JUMPDEST PUSH1 0x0 DUP1 PUSH1 0x1 PUSH1 0x1 PUSH1 0xFF SHL SUB DUP4 AND DUP2 PUSH2 0x6AC PUSH1 0xFF DUP7 SWAP1 SHR PUSH1 0x1B PUSH2 0x815 JUMP JUMPDEST SWAP1 POP PUSH2 0x6BA DUP8 DUP3 DUP9 DUP6 PUSH2 0x5A2 JUMP JUMPDEST SWAP4 POP SWAP4 POP POP POP SWAP4 POP SWAP4 SWAP2 POP POP JUMP JUMPDEST PUSH1 0x0 PUSH1 0x20 DUP3 DUP5 SUB SLT ISZERO PUSH2 0x6DA JUMPI PUSH1 0x0 DUP1 REVERT JUMPDEST DUP2 CALLDATALOAD PUSH8 0xFFFFFFFFFFFFFFFF DUP2 GT ISZERO PUSH2 0x6F1 JUMPI PUSH1 0x0 DUP1 REVERT JUMPDEST DUP3 ADD PUSH1 0x80 DUP2 DUP6 SUB SLT ISZERO PUSH2 0x1D6 JUMPI PUSH1 0x0 DUP1 REVERT JUMPDEST PUSH1 0x0 PUSH1 0x20 DUP3 DUP5 SUB SLT ISZERO PUSH2 0x715 JUMPI PUSH1 0x0 DUP1 REVERT JUMPDEST DUP2 CALLDATALOAD PUSH1 0x1 PUSH1 0x1 PUSH1 0xA0 SHL SUB DUP2 AND DUP2 EQ PUSH2 0x1D6 JUMPI PUSH1 0x0 DUP1 REVERT JUMPDEST PUSH1 0x0 DUP1 DUP4 CALLDATALOAD PUSH1 0x1E NOT DUP5 CALLDATASIZE SUB ADD DUP2 SLT PUSH2 0x743 JUMPI PUSH1 0x0 DUP1 REVERT JUMPDEST DUP4 ADD DUP1 CALLDATALOAD SWAP2 POP PUSH8 0xFFFFFFFFFFFFFFFF DUP3 GT ISZERO PUSH2 0x75E JUMPI PUSH1 0x0 DUP1 REVERT JUMPDEST PUSH1 0x20 ADD SWAP2 POP PUSH1 0x5 DUP2 SWAP1 SHL CALLDATASIZE SUB DUP3 SGT ISZERO PUSH2 0x3DD JUMPI PUSH1 0x0 DUP1 REVERT JUMPDEST PUSH1 0x0 PUSH1 0x1 PUSH1 0x1 PUSH1 0xFB SHL SUB DUP4 GT ISZERO PUSH2 0x78C JUMPI PUSH1 0x0 DUP1 REVERT JUMPDEST DUP3 PUSH1 0x5 SHL DUP1 DUP4 DUP7 CALLDATACOPY PUSH1 0x0 SWAP5 ADD SWAP4 DUP5 MSTORE POP SWAP2 SWAP3 SWAP2 POP POP JUMP JUMPDEST PUSH1 0x0 PUSH2 0x7B0 DUP3 DUP5 DUP7 PUSH2 0x776 JUMP JUMPDEST SWAP5 SWAP4 POP POP POP POP JUMP JUMPDEST PUSH1 0x0 DUP1 DUP4 CALLDATALOAD PUSH1 0x1E NOT DUP5 CALLDATASIZE SUB ADD DUP2 SLT PUSH2 0x7CF JUMPI PUSH1 0x0 DUP1 REVERT JUMPDEST DUP4 ADD DUP1 CALLDATALOAD SWAP2 POP PUSH8 0xFFFFFFFFFFFFFFFF DUP3 GT ISZERO PUSH2 0x7EA JUMPI PUSH1 0x0 DUP1 REVERT JUMPDEST PUSH1 0x20 ADD SWAP2 POP CALLDATASIZE DUP2 SWAP1 SUB DUP3 SGT ISZERO PUSH2 0x3DD JUMPI PUSH1 0x0 DUP1 REVERT JUMPDEST PUSH4 0x4E487B71 PUSH1 0xE0 SHL PUSH1 0x0 MSTORE PUSH1 0x21 PUSH1 0x4 MSTORE PUSH1 0x24 PUSH1 0x0 REVERT JUMPDEST PUSH1 0x0 DUP3 NOT DUP3 GT ISZERO PUSH2 0x836 JUMPI PUSH4 0x4E487B71 PUSH1 0xE0 SHL PUSH1 0x0 MSTORE PUSH1 0x11 PUSH1 0x4 MSTORE PUSH1 0x24 PUSH1 0x0 REVERT JUMPDEST POP ADD SWAP1 JUMP INVALID LOG2 PUSH5 0x6970667358 0x22 SLT KECCAK256 SMOD DUP12 PUSH4 0x336CD195 0x28 CODESIZE PUSH21 0xE43B843926E51BEE1722334671D68127436588B0E5 0xFC PUSH5 0x736F6C6343 STOP ADDMOD 0xE STOP CALLER "
				},
				"gasEstimates": {
					"creation": {
						"codeDepositCost": "432200",
						"executionCost": "infinite",
						"totalCost": "infinite"
					},
					"external": {
						"_hash((address,uint256[],bytes32[],bytes))": "infinite",
						"verifySigner((address,uint256[],bytes32[],bytes))": "infinite"
					}
				},
				"methodIdentifiers": {
					"_hash((address,uint256[],bytes32[],bytes))": "15adc8fc",
					"verifySigner((address,uint256[],bytes32[],bytes))": "ac7efdd7"
				}
			},
			"storageLayout": {
				"storage": [],
				"types": null
			},
			"userdoc": {
				"kind": "user",
				"methods": {},
				"version": 1
			}
		}
	}
}