{
	"contracts/TestVerify.sol": {
		"TestVerify": {
			"abi": [
				{
					"inputs": [],
					"stateMutability": "nonpayable",
					"type": "constructor"
				},
				{
					"inputs": [
						{
							"components": [
								{
									"internalType": "address",
									"name": "to",
									"type": "address"
								},
								{
									"internalType": "uint256[]",
									"name": "amounts",
									"type": "uint256[]"
								},
								{
									"internalType": "bytes32[]",
									"name": "merkleProof",
									"type": "bytes32[]"
								},
								{
									"internalType": "bytes",
									"name": "signature",
									"type": "bytes"
								}
							],
							"internalType": "struct TestVerify.HachiTicket",
							"name": "_ticket",
							"type": "tuple"
						}
					],
					"name": "_hash",
					"outputs": [
						{
							"internalType": "bytes32",
							"name": "",
							"type": "bytes32"
						}
					],
					"stateMutability": "view",
					"type": "function"
				},
				{
					"inputs": [
						{
							"internalType": "address",
							"name": "_to",
							"type": "address"
						},
						{
							"internalType": "uint256[]",
							"name": "_amounts",
							"type": "uint256[]"
						},
						{
							"internalType": "bytes32[]",
							"name": "_merkleProof",
							"type": "bytes32[]"
						}
					],
					"name": "testHash",
					"outputs": [
						{
							"internalType": "bytes32",
							"name": "",
							"type": "bytes32"
						}
					],
					"stateMutability": "view",
					"type": "function"
				},
				{
					"inputs": [
						{
							"components": [
								{
									"internalType": "address",
									"name": "to",
									"type": "address"
								},
								{
									"internalType": "uint256[]",
									"name": "amounts",
									"type": "uint256[]"
								},
								{
									"internalType": "bytes32[]",
									"name": "merkleProof",
									"type": "bytes32[]"
								},
								{
									"internalType": "bytes",
									"name": "signature",
									"type": "bytes"
								}
							],
							"internalType": "struct TestVerify.HachiTicket",
							"name": "_ticket",
							"type": "tuple"
						}
					],
					"name": "verifySigner",
					"outputs": [
						{
							"internalType": "address",
							"name": "",
							"type": "address"
						}
					],
					"stateMutability": "view",
					"type": "function"
				}
			],
			"devdoc": {
				"kind": "dev",
				"methods": {},
				"version": 1
			},
			"evm": {
				"assembly": "    /* \"contracts/TestVerify.sol\":193:1558  contract TestVerify is EIP712 {... */\n  mstore(0x40, 0x0140)\n    /* \"contracts/TestVerify.sol\":482:553  constructor()... */\n  callvalue\n  dup1\n  iszero\n  tag_1\n  jumpi\n  0x00\n  dup1\n  revert\ntag_1:\n  pop\n    /* \"contracts/TestVerify.sol\":507:521  SIGNING_DOMAIN */\n  0x40\n  dup1\n  mload\n  dup1\n  dup3\n  add\n  dup3\n  mstore\n  0x0b\n  dup2\n  mstore\n  shl(0xa8, 0x48616368694e6674536967)\n  0x20\n  dup1\n  dup4\n  add\n  swap2\n  dup3\n  mstore\n    /* \"contracts/TestVerify.sol\":523:540  SIGNATURE_VERSION */\n  dup4\n  mload\n  dup1\n  dup6\n  add\n  swap1\n  swap5\n  mstore\n  0x01\n  dup5\n  mstore\n  shl(0xf8, 0x31)\n  swap1\n  dup5\n  add\n  mstore\n    /* \"@openzeppelin/contracts/utils/cryptography/draft-EIP712.sol\":2541:2563  keccak256(bytes(name)) */\n  dup2\n  mload\n  swap1\n  keccak256\n    /* \"@openzeppelin/contracts/utils/cryptography/draft-EIP712.sol\":2778:2803  _HASHED_NAME = hashedName */\n  0xe0\n  dup2\n  swap1\n  mstore\n    /* \"@openzeppelin/contracts/utils/cryptography/draft-EIP712.sol\":2597:2622  keccak256(bytes(version)) */\n  0xc89efdaa54c0f20c7adf612882df0950f5a951637e0307cdcb4c672f298b8bc6\n    /* \"@openzeppelin/contracts/utils/cryptography/draft-EIP712.sol\":2813:2844  _HASHED_VERSION = hashedVersion */\n  0x0100\n  dup2\n  swap1\n  mstore\n    /* \"@openzeppelin/contracts/utils/cryptography/draft-EIP712.sol\":2873:2886  block.chainid */\n  chainid\n    /* \"@openzeppelin/contracts/utils/cryptography/draft-EIP712.sol\":2854:2886  _CACHED_CHAIN_ID = block.chainid */\n  0xa0\n  mstore\n    /* \"contracts/TestVerify.sol\":507:521  SIGNING_DOMAIN */\n  swap2\n  swap3\n    /* \"contracts/TestVerify.sol\":523:540  SIGNATURE_VERSION */\n  swap2\n    /* \"@openzeppelin/contracts/utils/cryptography/draft-EIP712.sol\":2651:2768  keccak256(... */\n  0x8b73c3c69bb8fe3d512ecc4cf759cc79239f7b179b0ffacaa9a75d522b39400f\n    /* \"@openzeppelin/contracts/utils/cryptography/draft-EIP712.sol\":2923:2981  _buildDomainSeparator(typeHash, hashedName, hashedVersion) */\n  tag_5\n    /* \"@openzeppelin/contracts/utils/cryptography/draft-EIP712.sol\":2651:2768  keccak256(... */\n  dup2\n    /* \"@openzeppelin/contracts/utils/cryptography/draft-EIP712.sol\":2541:2563  keccak256(bytes(name)) */\n  dup5\n    /* \"@openzeppelin/contracts/utils/cryptography/draft-EIP712.sol\":2597:2622  keccak256(bytes(version)) */\n  dup5\n    /* \"@openzeppelin/contracts/utils/cryptography/draft-EIP712.sol\":3633:3706  abi.encode(typeHash, nameHash, versionHash, block.chainid, address(this)) */\n  0x40\n  dup1\n  mload\n  0x20\n  dup2\n  add\n    /* \"#utility.yul\":273:298   */\n  dup6\n  swap1\n  mstore\n    /* \"#utility.yul\":314:332   */\n  swap1\n  dup2\n  add\n    /* \"#utility.yul\":307:341   */\n  dup4\n  swap1\n  mstore\n    /* \"#utility.yul\":357:375   */\n  0x60\n  dup2\n  add\n    /* \"#utility.yul\":350:384   */\n  dup3\n  swap1\n  mstore\n    /* \"@openzeppelin/contracts/utils/cryptography/draft-EIP712.sol\":3677:3690  block.chainid */\n  chainid\n    /* \"#utility.yul\":400:418   */\n  0x80\n  dup3\n  add\n    /* \"#utility.yul\":393:427   */\n  mstore\n    /* \"@openzeppelin/contracts/utils/cryptography/draft-EIP712.sol\":3700:3704  this */\n  address\n    /* \"#utility.yul\":443:462   */\n  0xa0\n  dup3\n  add\n    /* \"#utility.yul\":436:497   */\n  mstore\n    /* \"@openzeppelin/contracts/utils/cryptography/draft-EIP712.sol\":3597:3604  bytes32 */\n  0x00\n  swap1\n    /* \"#utility.yul\":245:264   */\n  0xc0\n  add\n    /* \"@openzeppelin/contracts/utils/cryptography/draft-EIP712.sol\":3633:3706  abi.encode(typeHash, nameHash, versionHash, block.chainid, address(this)) */\n  mload(0x40)\n  0x20\n  dup2\n  dup4\n  sub\n  sub\n  dup2\n  mstore\n  swap1\n  0x40\n  mstore\n    /* \"@openzeppelin/contracts/utils/cryptography/draft-EIP712.sol\":3623:3707  keccak256(abi.encode(typeHash, nameHash, versionHash, block.chainid, address(this))) */\n  dup1\n  mload\n  swap1\n  0x20\n  add\n  keccak256\n    /* \"@openzeppelin/contracts/utils/cryptography/draft-EIP712.sol\":3616:3707  return keccak256(abi.encode(typeHash, nameHash, versionHash, block.chainid, address(this))) */\n  swap1\n  pop\n    /* \"@openzeppelin/contracts/utils/cryptography/draft-EIP712.sol\":3457:3714  function _buildDomainSeparator(... */\n  swap4\n  swap3\n  pop\n  pop\n  pop\n  jump\n    /* \"@openzeppelin/contracts/utils/cryptography/draft-EIP712.sol\":2923:2981  _buildDomainSeparator(typeHash, hashedName, hashedVersion) */\ntag_5:\n    /* \"@openzeppelin/contracts/utils/cryptography/draft-EIP712.sol\":2896:2981  _CACHED_DOMAIN_SEPARATOR = _buildDomainSeparator(typeHash, hashedName, hashedVersion) */\n  0x80\n  mstore\n    /* \"@openzeppelin/contracts/utils/cryptography/draft-EIP712.sol\":3014:3018  this */\n  address\n    /* \"@openzeppelin/contracts/utils/cryptography/draft-EIP712.sol\":2991:3019  _CACHED_THIS = address(this) */\n  0xc0\n  mstore\n    /* \"@openzeppelin/contracts/utils/cryptography/draft-EIP712.sol\":3029:3050  _TYPE_HASH = typeHash */\n  0x0120\n  mstore\n  pop\n    /* \"contracts/TestVerify.sol\":193:1558  contract TestVerify is EIP712 {... */\n  tag_12\n  swap3\n  pop\n  pop\n  pop\n  jump\n    /* \"#utility.yul\":14:503   */\ntag_12:\n    /* \"contracts/TestVerify.sol\":193:1558  contract TestVerify is EIP712 {... */\n  mload(0x80)\n  mload(0xa0)\n  mload(0xc0)\n  mload(0xe0)\n  mload(0x0100)\n  mload(0x0120)\n  codecopy(0x00, dataOffset(sub_0), dataSize(sub_0))\n  0x00\n  assignImmutable(\"0x8c92e2e72e7997816d62b0c03c0b21c46605af4c276e6d0637f7e77158832bca\")\n  0x00\n  assignImmutable(\"0xc7087a93770541a54b276c354f6d56c80647702e0edc6c1d5ee9aeacf01dfad8\")\n  0x00\n  assignImmutable(\"0x954b846e373da6e2d86e60934c6fb4929a5d4ad23ca448303f22db28783db296\")\n  0x00\n  assignImmutable(\"0x9ef31662fdafe5ade9dc48fd4724c04f17232ac2ae4e5ea3da9c2a310c4aba3c\")\n  0x00\n  assignImmutable(\"0xae3f42c075651cd672386e7fa64476ebefa89324c3c225495e52b74374d0bc80\")\n  0x00\n  assignImmutable(\"0x9459a54a9dc1a91201f12e123a36391197edb81156a93e7e6bc8a3c17589bb36\")\n  return(0x00, dataSize(sub_0))\nstop\n\nsub_0: assembly {\n        /* \"contracts/TestVerify.sol\":193:1558  contract TestVerify is EIP712 {... */\n      mstore(0x40, 0x80)\n      callvalue\n      dup1\n      iszero\n      tag_1\n      jumpi\n      0x00\n      dup1\n      revert\n    tag_1:\n      pop\n      jumpi(tag_2, lt(calldatasize, 0x04))\n      shr(0xe0, calldataload(0x00))\n      dup1\n      0x15adc8fc\n      eq\n      tag_3\n      jumpi\n      dup1\n      0x31201217\n      eq\n      tag_4\n      jumpi\n      dup1\n      0xac7efdd7\n      eq\n      tag_5\n      jumpi\n    tag_2:\n      0x00\n      dup1\n      revert\n        /* \"contracts/TestVerify.sol\":752:1134  function _hash(HachiTicket calldata _ticket) public view returns (bytes32) {... */\n    tag_3:\n      tag_6\n      tag_7\n      calldatasize\n      0x04\n      tag_8\n      jump\t// in\n    tag_7:\n      tag_9\n      jump\t// in\n    tag_6:\n      mload(0x40)\n        /* \"#utility.yul\":555:580   */\n      swap1\n      dup2\n      mstore\n        /* \"#utility.yul\":543:545   */\n      0x20\n        /* \"#utility.yul\":528:546   */\n      add\n        /* \"contracts/TestVerify.sol\":752:1134  function _hash(HachiTicket calldata _ticket) public view returns (bytes32) {... */\n    tag_10:\n      mload(0x40)\n      dup1\n      swap2\n      sub\n      swap1\n      return\n        /* \"contracts/TestVerify.sol\":1140:1549  function testHash(address _to, uint256[] calldata _amounts, bytes32[] calldata _merkleProof) public view returns (bytes32) {... */\n    tag_4:\n      tag_6\n      tag_13\n      calldatasize\n      0x04\n      tag_14\n      jump\t// in\n    tag_13:\n      tag_15\n      jump\t// in\n        /* \"contracts/TestVerify.sol\":559:746  function verifySigner(HachiTicket calldata _ticket) public view returns (address) {... */\n    tag_5:\n      tag_17\n      tag_18\n      calldatasize\n      0x04\n      tag_8\n      jump\t// in\n    tag_18:\n      tag_19\n      jump\t// in\n    tag_17:\n      mload(0x40)\n      sub(shl(0xa0, 0x01), 0x01)\n        /* \"#utility.yul\":2157:2189   */\n      swap1\n      swap2\n      and\n        /* \"#utility.yul\":2139:2190   */\n      dup2\n      mstore\n        /* \"#utility.yul\":2127:2129   */\n      0x20\n        /* \"#utility.yul\":2112:2130   */\n      add\n        /* \"contracts/TestVerify.sol\":559:746  function verifySigner(HachiTicket calldata _ticket) public view returns (address) {... */\n      tag_10\n        /* \"#utility.yul\":1993:2196   */\n      jump\n        /* \"contracts/TestVerify.sol\":752:1134  function _hash(HachiTicket calldata _ticket) public view returns (bytes32) {... */\n    tag_9:\n        /* \"contracts/TestVerify.sol\":818:825  bytes32 */\n      0x00\n        /* \"contracts/TestVerify.sol\":844:1127  _hashTypedDataV4(keccak256(abi.encode(... */\n      tag_23\n        /* \"contracts/TestVerify.sol\":895:971  keccak256(\"HachiTicket(address to,uint256[] amounts,bytes32[] merkleProof)\") */\n      0x798f2fc7cec67eb8a3e992f2d864cc1f56f87a6e9130d64fe2b2d7693eca2d2b\n        /* \"contracts/TestVerify.sol\":985:995  _ticket.to */\n      tag_24\n      0x20\n      dup6\n      add\n        /* \"contracts/TestVerify.sol\":985:992  _ticket */\n      dup6\n        /* \"contracts/TestVerify.sol\":985:995  _ticket.to */\n      tag_25\n      jump\t// in\n    tag_24:\n        /* \"contracts/TestVerify.sol\":1036:1051  _ticket.amounts */\n      tag_26\n      0x20\n      dup7\n      add\n        /* \"contracts/TestVerify.sol\":1036:1043  _ticket */\n      dup7\n        /* \"contracts/TestVerify.sol\":1036:1051  _ticket.amounts */\n      tag_27\n      jump\t// in\n    tag_26:\n        /* \"contracts/TestVerify.sol\":1019:1052  abi.encodePacked(_ticket.amounts) */\n      add(0x20, mload(0x40))\n      tag_28\n      swap3\n      swap2\n      swap1\n      tag_29\n      jump\t// in\n    tag_28:\n      mload(0x40)\n      0x20\n      dup2\n      dup4\n      sub\n      sub\n      dup2\n      mstore\n      swap1\n      0x40\n      mstore\n        /* \"contracts/TestVerify.sol\":1009:1053  keccak256(abi.encodePacked(_ticket.amounts)) */\n      dup1\n      mload\n      swap1\n      0x20\n      add\n      keccak256\n        /* \"contracts/TestVerify.sol\":1094:1101  _ticket */\n      dup6\n        /* \"contracts/TestVerify.sol\":1094:1113  _ticket.merkleProof */\n      dup1\n      0x40\n      add\n      swap1\n      tag_30\n      swap2\n      swap1\n      tag_27\n      jump\t// in\n    tag_30:\n        /* \"contracts/TestVerify.sol\":1077:1114  abi.encodePacked(_ticket.merkleProof) */\n      add(0x20, mload(0x40))\n      tag_32\n      swap3\n      swap2\n      swap1\n      tag_29\n      jump\t// in\n    tag_32:\n      mload(0x40)\n      0x20\n      dup2\n      dup4\n      sub\n      sub\n      dup2\n      mstore\n      swap1\n      0x40\n      mstore\n        /* \"contracts/TestVerify.sol\":1067:1115  keccak256(abi.encodePacked(_ticket.merkleProof)) */\n      dup1\n      mload\n      swap1\n      0x20\n      add\n      keccak256\n        /* \"contracts/TestVerify.sol\":871:1125  abi.encode(... */\n      add(0x20, mload(0x40))\n      tag_34\n      swap5\n      swap4\n      swap3\n      swap2\n      swap1\n        /* \"#utility.yul\":4562:4587   */\n      swap4\n      dup5\n      mstore\n      sub(shl(0xa0, 0x01), 0x01)\n        /* \"#utility.yul\":4623:4655   */\n      swap3\n      swap1\n      swap3\n      and\n        /* \"#utility.yul\":4618:4620   */\n      0x20\n        /* \"#utility.yul\":4603:4621   */\n      dup5\n      add\n        /* \"#utility.yul\":4596:4656   */\n      mstore\n        /* \"#utility.yul\":4687:4689   */\n      0x40\n        /* \"#utility.yul\":4672:4690   */\n      dup4\n      add\n        /* \"#utility.yul\":4665:4699   */\n      mstore\n        /* \"#utility.yul\":4730:4732   */\n      0x60\n        /* \"#utility.yul\":4715:4733   */\n      dup3\n      add\n        /* \"#utility.yul\":4708:4742   */\n      mstore\n        /* \"#utility.yul\":4549:4552   */\n      0x80\n        /* \"#utility.yul\":4534:4553   */\n      add\n      swap1\n        /* \"#utility.yul\":4331:4748   */\n      jump\n        /* \"contracts/TestVerify.sol\":871:1125  abi.encode(... */\n    tag_34:\n      mload(0x40)\n      0x20\n      dup2\n      dup4\n      sub\n      sub\n      dup2\n      mstore\n      swap1\n      0x40\n      mstore\n        /* \"contracts/TestVerify.sol\":861:1126  keccak256(abi.encode(... */\n      dup1\n      mload\n      swap1\n      0x20\n      add\n      keccak256\n        /* \"contracts/TestVerify.sol\":844:860  _hashTypedDataV4 */\n      tag_36\n        /* \"contracts/TestVerify.sol\":844:1127  _hashTypedDataV4(keccak256(abi.encode(... */\n      jump\t// in\n    tag_23:\n        /* \"contracts/TestVerify.sol\":837:1127  return _hashTypedDataV4(keccak256(abi.encode(... */\n      swap3\n        /* \"contracts/TestVerify.sol\":752:1134  function _hash(HachiTicket calldata _ticket) public view returns (bytes32) {... */\n      swap2\n      pop\n      pop\n      jump\t// out\n        /* \"contracts/TestVerify.sol\":1140:1549  function testHash(address _to, uint256[] calldata _amounts, bytes32[] calldata _merkleProof) public view returns (bytes32) {... */\n    tag_15:\n        /* \"contracts/TestVerify.sol\":1254:1261  bytes32 */\n      0x00\n        /* \"contracts/TestVerify.sol\":1280:1542  _hashTypedDataV4(keccak256(abi.encode(... */\n      tag_38\n        /* \"contracts/TestVerify.sol\":1331:1407  keccak256(\"HachiTicket(address to,uint256[] amounts,bytes32[] merkleProof)\") */\n      0x798f2fc7cec67eb8a3e992f2d864cc1f56f87a6e9130d64fe2b2d7693eca2d2b\n        /* \"contracts/TestVerify.sol\":1421:1424  _to */\n      dup8\n        /* \"contracts/TestVerify.sol\":1465:1473  _amounts */\n      dup8\n      dup8\n        /* \"contracts/TestVerify.sol\":1448:1474  abi.encodePacked(_amounts) */\n      add(0x20, mload(0x40))\n      tag_39\n      swap3\n      swap2\n      swap1\n      tag_29\n      jump\t// in\n    tag_39:\n      mload(0x40)\n      0x20\n      dup2\n      dup4\n      sub\n      sub\n      dup2\n      mstore\n      swap1\n      0x40\n      mstore\n        /* \"contracts/TestVerify.sol\":1438:1475  keccak256(abi.encodePacked(_amounts)) */\n      dup1\n      mload\n      swap1\n      0x20\n      add\n      keccak256\n        /* \"contracts/TestVerify.sol\":1516:1528  _merkleProof */\n      dup7\n      dup7\n        /* \"contracts/TestVerify.sol\":1499:1529  abi.encodePacked(_merkleProof) */\n      add(0x20, mload(0x40))\n      tag_32\n      swap3\n      swap2\n      swap1\n      tag_29\n      jump\t// in\n        /* \"contracts/TestVerify.sol\":1280:1542  _hashTypedDataV4(keccak256(abi.encode(... */\n    tag_38:\n        /* \"contracts/TestVerify.sol\":1273:1542  return _hashTypedDataV4(keccak256(abi.encode(... */\n      swap7\n        /* \"contracts/TestVerify.sol\":1140:1549  function testHash(address _to, uint256[] calldata _amounts, bytes32[] calldata _merkleProof) public view returns (bytes32) {... */\n      swap6\n      pop\n      pop\n      pop\n      pop\n      pop\n      pop\n      jump\t// out\n        /* \"contracts/TestVerify.sol\":559:746  function verifySigner(HachiTicket calldata _ticket) public view returns (address) {... */\n    tag_19:\n        /* \"contracts/TestVerify.sol\":632:639  address */\n      0x00\n        /* \"contracts/TestVerify.sol\":651:665  bytes32 digest */\n      dup1\n        /* \"contracts/TestVerify.sol\":668:682  _hash(_ticket) */\n      tag_43\n        /* \"contracts/TestVerify.sol\":674:681  _ticket */\n      dup4\n        /* \"contracts/TestVerify.sol\":668:673  _hash */\n      tag_9\n        /* \"contracts/TestVerify.sol\":668:682  _hash(_ticket) */\n      jump\t// in\n    tag_43:\n        /* \"contracts/TestVerify.sol\":651:682  bytes32 digest = _hash(_ticket) */\n      swap1\n      pop\n        /* \"contracts/TestVerify.sol\":699:739  ECDSA.recover(digest, _ticket.signature) */\n      tag_44\n        /* \"contracts/TestVerify.sol\":651:682  bytes32 digest = _hash(_ticket) */\n      dup2\n        /* \"contracts/TestVerify.sol\":721:738  _ticket.signature */\n      tag_45\n      0x60\n      dup7\n      add\n        /* \"contracts/TestVerify.sol\":721:728  _ticket */\n      dup7\n        /* \"contracts/TestVerify.sol\":721:738  _ticket.signature */\n      tag_46\n      jump\t// in\n    tag_45:\n        /* \"contracts/TestVerify.sol\":699:739  ECDSA.recover(digest, _ticket.signature) */\n      dup1\n      dup1\n      0x1f\n      add\n      0x20\n      dup1\n      swap2\n      div\n      mul\n      0x20\n      add\n      mload(0x40)\n      swap1\n      dup2\n      add\n      0x40\n      mstore\n      dup1\n      swap4\n      swap3\n      swap2\n      swap1\n      dup2\n      dup2\n      mstore\n      0x20\n      add\n      dup4\n      dup4\n      dup1\n      dup3\n      dup5\n      calldatacopy\n      0x00\n      swap3\n      add\n      swap2\n      swap1\n      swap2\n      mstore\n      pop\n        /* \"contracts/TestVerify.sol\":699:712  ECDSA.recover */\n      tag_47\n      swap3\n      pop\n      pop\n      pop\n        /* \"contracts/TestVerify.sol\":699:739  ECDSA.recover(digest, _ticket.signature) */\n      jump\t// in\n    tag_44:\n        /* \"contracts/TestVerify.sol\":692:739  return ECDSA.recover(digest, _ticket.signature) */\n      swap4\n        /* \"contracts/TestVerify.sol\":559:746  function verifySigner(HachiTicket calldata _ticket) public view returns (address) {... */\n      swap3\n      pop\n      pop\n      pop\n      jump\t// out\n        /* \"@openzeppelin/contracts/utils/cryptography/draft-EIP712.sol\":4339:4504  function _hashTypedDataV4(bytes32 structHash) internal view virtual returns (bytes32) {... */\n    tag_36:\n        /* \"@openzeppelin/contracts/utils/cryptography/draft-EIP712.sol\":4416:4423  bytes32 */\n      0x00\n        /* \"@openzeppelin/contracts/utils/cryptography/draft-EIP712.sol\":4442:4497  ECDSA.toTypedDataHash(_domainSeparatorV4(), structHash) */\n      tag_23\n        /* \"@openzeppelin/contracts/utils/cryptography/draft-EIP712.sol\":4464:4484  _domainSeparatorV4() */\n      tag_50\n        /* \"@openzeppelin/contracts/utils/cryptography/draft-EIP712.sol\":4464:4482  _domainSeparatorV4 */\n      tag_51\n        /* \"@openzeppelin/contracts/utils/cryptography/draft-EIP712.sol\":4464:4484  _domainSeparatorV4() */\n      jump\t// in\n    tag_50:\n        /* \"@openzeppelin/contracts/utils/cryptography/draft-EIP712.sol\":4486:4496  structHash */\n      dup4\n        /* \"@openzeppelin/contracts/utils/cryptography/ECDSA.sol\":9226:9283  abi.encodePacked(\"\\x19\\x01\", domainSeparator, structHash) */\n      mload(0x40)\n      shl(0xf0, 0x1901)\n      0x20\n      dup3\n      add\n        /* \"#utility.yul\":5537:5564   */\n      mstore\n        /* \"#utility.yul\":5580:5591   */\n      0x22\n      dup2\n      add\n        /* \"#utility.yul\":5573:5600   */\n      dup4\n      swap1\n      mstore\n        /* \"#utility.yul\":5616:5628   */\n      0x42\n      dup2\n      add\n        /* \"#utility.yul\":5609:5637   */\n      dup3\n      swap1\n      mstore\n        /* \"@openzeppelin/contracts/utils/cryptography/ECDSA.sol\":9190:9197  bytes32 */\n      0x00\n      swap1\n        /* \"#utility.yul\":5653:5665   */\n      0x62\n      add\n        /* \"@openzeppelin/contracts/utils/cryptography/ECDSA.sol\":9226:9283  abi.encodePacked(\"\\x19\\x01\", domainSeparator, structHash) */\n      mload(0x40)\n      0x20\n      dup2\n      dup4\n      sub\n      sub\n      dup2\n      mstore\n      swap1\n      0x40\n      mstore\n        /* \"@openzeppelin/contracts/utils/cryptography/ECDSA.sol\":9216:9284  keccak256(abi.encodePacked(\"\\x19\\x01\", domainSeparator, structHash)) */\n      dup1\n      mload\n      swap1\n      0x20\n      add\n      keccak256\n        /* \"@openzeppelin/contracts/utils/cryptography/ECDSA.sol\":9209:9284  return keccak256(abi.encodePacked(\"\\x19\\x01\", domainSeparator, structHash)) */\n      swap1\n      pop\n        /* \"@openzeppelin/contracts/utils/cryptography/ECDSA.sol\":9097:9291  function toTypedDataHash(bytes32 domainSeparator, bytes32 structHash) internal pure returns (bytes32) {... */\n      swap3\n      swap2\n      pop\n      pop\n      jump\n        /* \"@openzeppelin/contracts/utils/cryptography/ECDSA.sol\":4308:4535  function recover(bytes32 hash, bytes memory signature) internal pure returns (address) {... */\n    tag_47:\n        /* \"@openzeppelin/contracts/utils/cryptography/ECDSA.sol\":4386:4393  address */\n      0x00\n        /* \"@openzeppelin/contracts/utils/cryptography/ECDSA.sol\":4406:4423  address recovered */\n      dup1\n        /* \"@openzeppelin/contracts/utils/cryptography/ECDSA.sol\":4425:4443  RecoverError error */\n      0x00\n        /* \"@openzeppelin/contracts/utils/cryptography/ECDSA.sol\":4447:4474  tryRecover(hash, signature) */\n      tag_54\n        /* \"@openzeppelin/contracts/utils/cryptography/ECDSA.sol\":4458:4462  hash */\n      dup6\n        /* \"@openzeppelin/contracts/utils/cryptography/ECDSA.sol\":4464:4473  signature */\n      dup6\n        /* \"@openzeppelin/contracts/utils/cryptography/ECDSA.sol\":4447:4457  tryRecover */\n      tag_55\n        /* \"@openzeppelin/contracts/utils/cryptography/ECDSA.sol\":4447:4474  tryRecover(hash, signature) */\n      jump\t// in\n    tag_54:\n        /* \"@openzeppelin/contracts/utils/cryptography/ECDSA.sol\":4405:4474  (address recovered, RecoverError error) = tryRecover(hash, signature) */\n      swap2\n      pop\n      swap2\n      pop\n        /* \"@openzeppelin/contracts/utils/cryptography/ECDSA.sol\":4484:4502  _throwError(error) */\n      tag_56\n        /* \"@openzeppelin/contracts/utils/cryptography/ECDSA.sol\":4496:4501  error */\n      dup2\n        /* \"@openzeppelin/contracts/utils/cryptography/ECDSA.sol\":4484:4495  _throwError */\n      tag_57\n        /* \"@openzeppelin/contracts/utils/cryptography/ECDSA.sol\":4484:4502  _throwError(error) */\n      jump\t// in\n    tag_56:\n      pop\n        /* \"@openzeppelin/contracts/utils/cryptography/ECDSA.sol\":4519:4528  recovered */\n      swap4\n        /* \"@openzeppelin/contracts/utils/cryptography/ECDSA.sol\":4308:4535  function recover(bytes32 hash, bytes memory signature) internal pure returns (address) {... */\n      swap3\n      pop\n      pop\n      pop\n      jump\t// out\n        /* \"@openzeppelin/contracts/utils/cryptography/draft-EIP712.sol\":3143:3451  function _domainSeparatorV4() internal view returns (bytes32) {... */\n    tag_51:\n        /* \"@openzeppelin/contracts/utils/cryptography/draft-EIP712.sol\":3196:3203  bytes32 */\n      0x00\n        /* \"@openzeppelin/contracts/utils/cryptography/draft-EIP712.sol\":3227:3231  this */\n      address\n      sub(shl(0xa0, 0x01), 0x01)\n        /* \"@openzeppelin/contracts/utils/cryptography/draft-EIP712.sol\":3236:3248  _CACHED_THIS */\n      immutable(\"0x9ef31662fdafe5ade9dc48fd4724c04f17232ac2ae4e5ea3da9c2a310c4aba3c\")\n        /* \"@openzeppelin/contracts/utils/cryptography/draft-EIP712.sol\":3219:3248  address(this) == _CACHED_THIS */\n      and\n      eq\n        /* \"@openzeppelin/contracts/utils/cryptography/draft-EIP712.sol\":3219:3285  address(this) == _CACHED_THIS && block.chainid == _CACHED_CHAIN_ID */\n      dup1\n      iszero\n      tag_59\n      jumpi\n      pop\n        /* \"@openzeppelin/contracts/utils/cryptography/draft-EIP712.sol\":3269:3285  _CACHED_CHAIN_ID */\n      immutable(\"0xae3f42c075651cd672386e7fa64476ebefa89324c3c225495e52b74374d0bc80\")\n        /* \"@openzeppelin/contracts/utils/cryptography/draft-EIP712.sol\":3252:3265  block.chainid */\n      chainid\n        /* \"@openzeppelin/contracts/utils/cryptography/draft-EIP712.sol\":3252:3285  block.chainid == _CACHED_CHAIN_ID */\n      eq\n        /* \"@openzeppelin/contracts/utils/cryptography/draft-EIP712.sol\":3219:3285  address(this) == _CACHED_THIS && block.chainid == _CACHED_CHAIN_ID */\n    tag_59:\n        /* \"@openzeppelin/contracts/utils/cryptography/draft-EIP712.sol\":3215:3445  if (address(this) == _CACHED_THIS && block.chainid == _CACHED_CHAIN_ID) {... */\n      iszero\n      tag_60\n      jumpi\n      pop\n        /* \"@openzeppelin/contracts/utils/cryptography/draft-EIP712.sol\":3308:3332  _CACHED_DOMAIN_SEPARATOR */\n      immutable(\"0x9459a54a9dc1a91201f12e123a36391197edb81156a93e7e6bc8a3c17589bb36\")\n      swap1\n        /* \"@openzeppelin/contracts/utils/cryptography/draft-EIP712.sol\":3143:3451  function _domainSeparatorV4() internal view returns (bytes32) {... */\n      jump\t// out\n        /* \"@openzeppelin/contracts/utils/cryptography/draft-EIP712.sol\":3215:3445  if (address(this) == _CACHED_THIS && block.chainid == _CACHED_CHAIN_ID) {... */\n    tag_60:\n      pop\n        /* \"@openzeppelin/contracts/utils/cryptography/draft-EIP712.sol\":3633:3706  abi.encode(typeHash, nameHash, versionHash, block.chainid, address(this)) */\n      0x40\n      dup1\n      mload\n        /* \"@openzeppelin/contracts/utils/cryptography/draft-EIP712.sol\":3392:3402  _TYPE_HASH */\n      immutable(\"0x8c92e2e72e7997816d62b0c03c0b21c46605af4c276e6d0637f7e77158832bca\")\n        /* \"@openzeppelin/contracts/utils/cryptography/draft-EIP712.sol\":3633:3706  abi.encode(typeHash, nameHash, versionHash, block.chainid, address(this)) */\n      0x20\n      dup1\n      dup4\n      add\n        /* \"#utility.yul\":7586:7611   */\n      swap2\n      swap1\n      swap2\n      mstore\n        /* \"@openzeppelin/contracts/utils/cryptography/draft-EIP712.sol\":3404:3416  _HASHED_NAME */\n      immutable(\"0x954b846e373da6e2d86e60934c6fb4929a5d4ad23ca448303f22db28783db296\")\n        /* \"#utility.yul\":7627:7645   */\n      dup3\n      dup5\n      add\n        /* \"#utility.yul\":7620:7654   */\n      mstore\n        /* \"@openzeppelin/contracts/utils/cryptography/draft-EIP712.sol\":3418:3433  _HASHED_VERSION */\n      immutable(\"0xc7087a93770541a54b276c354f6d56c80647702e0edc6c1d5ee9aeacf01dfad8\")\n        /* \"#utility.yul\":7670:7688   */\n      0x60\n      dup4\n      add\n        /* \"#utility.yul\":7663:7697   */\n      mstore\n        /* \"@openzeppelin/contracts/utils/cryptography/draft-EIP712.sol\":3677:3690  block.chainid */\n      chainid\n        /* \"#utility.yul\":7713:7731   */\n      0x80\n      dup4\n      add\n        /* \"#utility.yul\":7706:7740   */\n      mstore\n        /* \"@openzeppelin/contracts/utils/cryptography/draft-EIP712.sol\":3700:3704  this */\n      address\n        /* \"#utility.yul\":7756:7775   */\n      0xa0\n      dup1\n      dup5\n      add\n        /* \"#utility.yul\":7749:7810   */\n      swap2\n      swap1\n      swap2\n      mstore\n        /* \"@openzeppelin/contracts/utils/cryptography/draft-EIP712.sol\":3633:3706  abi.encode(typeHash, nameHash, versionHash, block.chainid, address(this)) */\n      dup4\n      mload\n      dup1\n      dup5\n      sub\n      swap1\n      swap2\n      add\n      dup2\n      mstore\n        /* \"#utility.yul\":7558:7577   */\n      0xc0\n      swap1\n      swap3\n      add\n        /* \"@openzeppelin/contracts/utils/cryptography/draft-EIP712.sol\":3633:3706  abi.encode(typeHash, nameHash, versionHash, block.chainid, address(this)) */\n      swap1\n      swap3\n      mstore\n        /* \"@openzeppelin/contracts/utils/cryptography/draft-EIP712.sol\":3623:3707  keccak256(abi.encode(typeHash, nameHash, versionHash, block.chainid, address(this))) */\n      dup1\n      mload\n      swap2\n      add\n      keccak256\n      swap1\n        /* \"@openzeppelin/contracts/utils/cryptography/draft-EIP712.sol\":3143:3451  function _domainSeparatorV4() internal view returns (bytes32) {... */\n      jump\t// out\n        /* \"@openzeppelin/contracts/utils/cryptography/ECDSA.sol\":2243:3522  function tryRecover(bytes32 hash, bytes memory signature) internal pure returns (address, RecoverError) {... */\n    tag_55:\n        /* \"@openzeppelin/contracts/utils/cryptography/ECDSA.sol\":2324:2331  address */\n      0x00\n        /* \"@openzeppelin/contracts/utils/cryptography/ECDSA.sol\":2333:2345  RecoverError */\n      dup1\n        /* \"@openzeppelin/contracts/utils/cryptography/ECDSA.sol\":2554:2563  signature */\n      dup3\n        /* \"@openzeppelin/contracts/utils/cryptography/ECDSA.sol\":2554:2570  signature.length */\n      mload\n        /* \"@openzeppelin/contracts/utils/cryptography/ECDSA.sol\":2574:2576  65 */\n      0x41\n        /* \"@openzeppelin/contracts/utils/cryptography/ECDSA.sol\":2554:2576  signature.length == 65 */\n      sub\n        /* \"@openzeppelin/contracts/utils/cryptography/ECDSA.sol\":2550:3516  if (signature.length == 65) {... */\n      tag_68\n      jumpi\n        /* \"@openzeppelin/contracts/utils/cryptography/ECDSA.sol\":2843:2847  0x20 */\n      0x20\n        /* \"@openzeppelin/contracts/utils/cryptography/ECDSA.sol\":2828:2848  add(signature, 0x20) */\n      dup4\n      add\n        /* \"@openzeppelin/contracts/utils/cryptography/ECDSA.sol\":2822:2849  mload(add(signature, 0x20)) */\n      mload\n        /* \"@openzeppelin/contracts/utils/cryptography/ECDSA.sol\":2892:2896  0x40 */\n      0x40\n        /* \"@openzeppelin/contracts/utils/cryptography/ECDSA.sol\":2877:2897  add(signature, 0x40) */\n      dup5\n      add\n        /* \"@openzeppelin/contracts/utils/cryptography/ECDSA.sol\":2871:2898  mload(add(signature, 0x40)) */\n      mload\n        /* \"@openzeppelin/contracts/utils/cryptography/ECDSA.sol\":2949:2953  0x60 */\n      0x60\n        /* \"@openzeppelin/contracts/utils/cryptography/ECDSA.sol\":2934:2954  add(signature, 0x60) */\n      dup6\n      add\n        /* \"@openzeppelin/contracts/utils/cryptography/ECDSA.sol\":2928:2955  mload(add(signature, 0x60)) */\n      mload\n        /* \"@openzeppelin/contracts/utils/cryptography/ECDSA.sol\":2592:2601  bytes32 r */\n      0x00\n        /* \"@openzeppelin/contracts/utils/cryptography/ECDSA.sol\":2920:2956  byte(0, mload(add(signature, 0x60))) */\n      byte\n        /* \"@openzeppelin/contracts/utils/cryptography/ECDSA.sol\":2990:3015  tryRecover(hash, v, r, s) */\n      tag_69\n        /* \"@openzeppelin/contracts/utils/cryptography/ECDSA.sol\":3001:3005  hash */\n      dup8\n        /* \"@openzeppelin/contracts/utils/cryptography/ECDSA.sol\":2920:2956  byte(0, mload(add(signature, 0x60))) */\n      dup3\n        /* \"@openzeppelin/contracts/utils/cryptography/ECDSA.sol\":2822:2849  mload(add(signature, 0x20)) */\n      dup6\n        /* \"@openzeppelin/contracts/utils/cryptography/ECDSA.sol\":2871:2898  mload(add(signature, 0x40)) */\n      dup6\n        /* \"@openzeppelin/contracts/utils/cryptography/ECDSA.sol\":2990:3000  tryRecover */\n      tag_70\n        /* \"@openzeppelin/contracts/utils/cryptography/ECDSA.sol\":2990:3015  tryRecover(hash, v, r, s) */\n      jump\t// in\n    tag_69:\n        /* \"@openzeppelin/contracts/utils/cryptography/ECDSA.sol\":2983:3015  return tryRecover(hash, v, r, s) */\n      swap5\n      pop\n      swap5\n      pop\n      pop\n      pop\n      pop\n      jump(tag_75)\n        /* \"@openzeppelin/contracts/utils/cryptography/ECDSA.sol\":2550:3516  if (signature.length == 65) {... */\n    tag_68:\n        /* \"@openzeppelin/contracts/utils/cryptography/ECDSA.sol\":3036:3045  signature */\n      dup3\n        /* \"@openzeppelin/contracts/utils/cryptography/ECDSA.sol\":3036:3052  signature.length */\n      mload\n        /* \"@openzeppelin/contracts/utils/cryptography/ECDSA.sol\":3056:3058  64 */\n      0x40\n        /* \"@openzeppelin/contracts/utils/cryptography/ECDSA.sol\":3036:3058  signature.length == 64 */\n      sub\n        /* \"@openzeppelin/contracts/utils/cryptography/ECDSA.sol\":3032:3516  if (signature.length == 64) {... */\n      tag_72\n      jumpi\n        /* \"@openzeppelin/contracts/utils/cryptography/ECDSA.sol\":3305:3309  0x20 */\n      0x20\n        /* \"@openzeppelin/contracts/utils/cryptography/ECDSA.sol\":3290:3310  add(signature, 0x20) */\n      dup4\n      add\n        /* \"@openzeppelin/contracts/utils/cryptography/ECDSA.sol\":3284:3311  mload(add(signature, 0x20)) */\n      mload\n        /* \"@openzeppelin/contracts/utils/cryptography/ECDSA.sol\":3355:3359  0x40 */\n      0x40\n        /* \"@openzeppelin/contracts/utils/cryptography/ECDSA.sol\":3340:3360  add(signature, 0x40) */\n      dup5\n      add\n        /* \"@openzeppelin/contracts/utils/cryptography/ECDSA.sol\":3334:3361  mload(add(signature, 0x40)) */\n      mload\n        /* \"@openzeppelin/contracts/utils/cryptography/ECDSA.sol\":3395:3418  tryRecover(hash, r, vs) */\n      tag_73\n        /* \"@openzeppelin/contracts/utils/cryptography/ECDSA.sol\":3406:3410  hash */\n      dup7\n        /* \"@openzeppelin/contracts/utils/cryptography/ECDSA.sol\":3284:3311  mload(add(signature, 0x20)) */\n      dup4\n        /* \"@openzeppelin/contracts/utils/cryptography/ECDSA.sol\":3334:3361  mload(add(signature, 0x40)) */\n      dup4\n        /* \"@openzeppelin/contracts/utils/cryptography/ECDSA.sol\":3395:3405  tryRecover */\n      tag_74\n        /* \"@openzeppelin/contracts/utils/cryptography/ECDSA.sol\":3395:3418  tryRecover(hash, r, vs) */\n      jump\t// in\n    tag_73:\n        /* \"@openzeppelin/contracts/utils/cryptography/ECDSA.sol\":3388:3418  return tryRecover(hash, r, vs) */\n      swap4\n      pop\n      swap4\n      pop\n      pop\n      pop\n      jump(tag_75)\n        /* \"@openzeppelin/contracts/utils/cryptography/ECDSA.sol\":3032:3516  if (signature.length == 64) {... */\n    tag_72:\n      pop\n        /* \"@openzeppelin/contracts/utils/cryptography/ECDSA.sol\":3465:3466  0 */\n      0x00\n      swap1\n      pop\n        /* \"@openzeppelin/contracts/utils/cryptography/ECDSA.sol\":3469:3504  RecoverError.InvalidSignatureLength */\n      0x02\n        /* \"@openzeppelin/contracts/utils/cryptography/ECDSA.sol\":3032:3516  if (signature.length == 64) {... */\n    tag_75:\n        /* \"@openzeppelin/contracts/utils/cryptography/ECDSA.sol\":2243:3522  function tryRecover(bytes32 hash, bytes memory signature) internal pure returns (address, RecoverError) {... */\n      swap3\n      pop\n      swap3\n      swap1\n      pop\n      jump\t// out\n        /* \"@openzeppelin/contracts/utils/cryptography/ECDSA.sol\":548:1179  function _throwError(RecoverError error) private pure {... */\n    tag_57:\n        /* \"@openzeppelin/contracts/utils/cryptography/ECDSA.sol\":625:645  RecoverError.NoError */\n      0x00\n        /* \"@openzeppelin/contracts/utils/cryptography/ECDSA.sol\":616:621  error */\n      dup2\n        /* \"@openzeppelin/contracts/utils/cryptography/ECDSA.sol\":616:645  error == RecoverError.NoError */\n      0x04\n      dup2\n      gt\n      iszero\n      tag_81\n      jumpi\n      tag_81\n      tag_79\n      jump\t// in\n    tag_81:\n      sub\n        /* \"@openzeppelin/contracts/utils/cryptography/ECDSA.sol\":612:1173  if (error == RecoverError.NoError) {... */\n      tag_82\n      jumpi\n        /* \"@openzeppelin/contracts/utils/cryptography/ECDSA.sol\":548:1179  function _throwError(RecoverError error) private pure {... */\n      pop\n      jump\t// out\n        /* \"@openzeppelin/contracts/utils/cryptography/ECDSA.sol\":612:1173  if (error == RecoverError.NoError) {... */\n    tag_82:\n        /* \"@openzeppelin/contracts/utils/cryptography/ECDSA.sol\":721:750  RecoverError.InvalidSignature */\n      0x01\n        /* \"@openzeppelin/contracts/utils/cryptography/ECDSA.sol\":712:717  error */\n      dup2\n        /* \"@openzeppelin/contracts/utils/cryptography/ECDSA.sol\":712:750  error == RecoverError.InvalidSignature */\n      0x04\n      dup2\n      gt\n      iszero\n      tag_87\n      jumpi\n      tag_87\n      tag_79\n      jump\t// in\n    tag_87:\n      sub\n        /* \"@openzeppelin/contracts/utils/cryptography/ECDSA.sol\":708:1173  if (error == RecoverError.InvalidSignature) {... */\n      tag_88\n      jumpi\n        /* \"@openzeppelin/contracts/utils/cryptography/ECDSA.sol\":766:800  revert(\"ECDSA: invalid signature\") */\n      mload(0x40)\n      shl(0xe5, 0x461bcd)\n      dup2\n      mstore\n        /* \"#utility.yul\":6010:6012   */\n      0x20\n        /* \"@openzeppelin/contracts/utils/cryptography/ECDSA.sol\":766:800  revert(\"ECDSA: invalid signature\") */\n      0x04\n      dup3\n      add\n        /* \"#utility.yul\":5992:6013   */\n      mstore\n        /* \"#utility.yul\":6049:6051   */\n      0x18\n        /* \"#utility.yul\":6029:6047   */\n      0x24\n      dup3\n      add\n        /* \"#utility.yul\":6022:6052   */\n      mstore\n        /* \"#utility.yul\":6088:6114   */\n      0x45434453413a20696e76616c6964207369676e61747572650000000000000000\n        /* \"#utility.yul\":6068:6086   */\n      0x44\n      dup3\n      add\n        /* \"#utility.yul\":6061:6115   */\n      mstore\n        /* \"#utility.yul\":6132:6150   */\n      0x64\n      add\n        /* \"@openzeppelin/contracts/utils/cryptography/ECDSA.sol\":766:800  revert(\"ECDSA: invalid signature\") */\n    tag_89:\n      mload(0x40)\n      dup1\n      swap2\n      sub\n      swap1\n      revert\n        /* \"@openzeppelin/contracts/utils/cryptography/ECDSA.sol\":708:1173  if (error == RecoverError.InvalidSignature) {... */\n    tag_88:\n        /* \"@openzeppelin/contracts/utils/cryptography/ECDSA.sol\":830:865  RecoverError.InvalidSignatureLength */\n      0x02\n        /* \"@openzeppelin/contracts/utils/cryptography/ECDSA.sol\":821:826  error */\n      dup2\n        /* \"@openzeppelin/contracts/utils/cryptography/ECDSA.sol\":821:865  error == RecoverError.InvalidSignatureLength */\n      0x04\n      dup2\n      gt\n      iszero\n      tag_95\n      jumpi\n      tag_95\n      tag_79\n      jump\t// in\n    tag_95:\n      sub\n        /* \"@openzeppelin/contracts/utils/cryptography/ECDSA.sol\":817:1173  if (error == RecoverError.InvalidSignatureLength) {... */\n      tag_96\n      jumpi\n        /* \"@openzeppelin/contracts/utils/cryptography/ECDSA.sol\":881:922  revert(\"ECDSA: invalid signature length\") */\n      mload(0x40)\n      shl(0xe5, 0x461bcd)\n      dup2\n      mstore\n        /* \"#utility.yul\":6363:6365   */\n      0x20\n        /* \"@openzeppelin/contracts/utils/cryptography/ECDSA.sol\":881:922  revert(\"ECDSA: invalid signature length\") */\n      0x04\n      dup3\n      add\n        /* \"#utility.yul\":6345:6366   */\n      mstore\n        /* \"#utility.yul\":6402:6404   */\n      0x1f\n        /* \"#utility.yul\":6382:6400   */\n      0x24\n      dup3\n      add\n        /* \"#utility.yul\":6375:6405   */\n      mstore\n        /* \"#utility.yul\":6441:6474   */\n      0x45434453413a20696e76616c6964207369676e6174757265206c656e67746800\n        /* \"#utility.yul\":6421:6439   */\n      0x44\n      dup3\n      add\n        /* \"#utility.yul\":6414:6475   */\n      mstore\n        /* \"#utility.yul\":6492:6510   */\n      0x64\n      add\n        /* \"@openzeppelin/contracts/utils/cryptography/ECDSA.sol\":881:922  revert(\"ECDSA: invalid signature length\") */\n      tag_89\n        /* \"#utility.yul\":6161:6516   */\n      jump\n        /* \"@openzeppelin/contracts/utils/cryptography/ECDSA.sol\":817:1173  if (error == RecoverError.InvalidSignatureLength) {... */\n    tag_96:\n        /* \"@openzeppelin/contracts/utils/cryptography/ECDSA.sol\":952:982  RecoverError.InvalidSignatureS */\n      0x03\n        /* \"@openzeppelin/contracts/utils/cryptography/ECDSA.sol\":943:948  error */\n      dup2\n        /* \"@openzeppelin/contracts/utils/cryptography/ECDSA.sol\":943:982  error == RecoverError.InvalidSignatureS */\n      0x04\n      dup2\n      gt\n      iszero\n      tag_103\n      jumpi\n      tag_103\n      tag_79\n      jump\t// in\n    tag_103:\n      sub\n        /* \"@openzeppelin/contracts/utils/cryptography/ECDSA.sol\":939:1173  if (error == RecoverError.InvalidSignatureS) {... */\n      tag_104\n      jumpi\n        /* \"@openzeppelin/contracts/utils/cryptography/ECDSA.sol\":998:1042  revert(\"ECDSA: invalid signature 's' value\") */\n      mload(0x40)\n      shl(0xe5, 0x461bcd)\n      dup2\n      mstore\n        /* \"#utility.yul\":6723:6725   */\n      0x20\n        /* \"@openzeppelin/contracts/utils/cryptography/ECDSA.sol\":998:1042  revert(\"ECDSA: invalid signature 's' value\") */\n      0x04\n      dup3\n      add\n        /* \"#utility.yul\":6705:6726   */\n      mstore\n        /* \"#utility.yul\":6762:6764   */\n      0x22\n        /* \"#utility.yul\":6742:6760   */\n      0x24\n      dup3\n      add\n        /* \"#utility.yul\":6735:6765   */\n      mstore\n        /* \"#utility.yul\":6801:6835   */\n      0x45434453413a20696e76616c6964207369676e6174757265202773272076616c\n        /* \"#utility.yul\":6781:6799   */\n      0x44\n      dup3\n      add\n        /* \"#utility.yul\":6774:6836   */\n      mstore\n      shl(0xf0, 0x7565)\n        /* \"#utility.yul\":6852:6870   */\n      0x64\n      dup3\n      add\n        /* \"#utility.yul\":6845:6877   */\n      mstore\n        /* \"#utility.yul\":6894:6913   */\n      0x84\n      add\n        /* \"@openzeppelin/contracts/utils/cryptography/ECDSA.sol\":998:1042  revert(\"ECDSA: invalid signature 's' value\") */\n      tag_89\n        /* \"#utility.yul\":6521:6919   */\n      jump\n        /* \"@openzeppelin/contracts/utils/cryptography/ECDSA.sol\":939:1173  if (error == RecoverError.InvalidSignatureS) {... */\n    tag_104:\n        /* \"@openzeppelin/contracts/utils/cryptography/ECDSA.sol\":1072:1102  RecoverError.InvalidSignatureV */\n      0x04\n        /* \"@openzeppelin/contracts/utils/cryptography/ECDSA.sol\":1063:1068  error */\n      dup2\n        /* \"@openzeppelin/contracts/utils/cryptography/ECDSA.sol\":1063:1102  error == RecoverError.InvalidSignatureV */\n      0x04\n      dup2\n      gt\n      iszero\n      tag_111\n      jumpi\n      tag_111\n      tag_79\n      jump\t// in\n    tag_111:\n      sub\n        /* \"@openzeppelin/contracts/utils/cryptography/ECDSA.sol\":1059:1173  if (error == RecoverError.InvalidSignatureV) {... */\n      tag_112\n      jumpi\n        /* \"@openzeppelin/contracts/utils/cryptography/ECDSA.sol\":1118:1162  revert(\"ECDSA: invalid signature 'v' value\") */\n      mload(0x40)\n      shl(0xe5, 0x461bcd)\n      dup2\n      mstore\n        /* \"#utility.yul\":7126:7128   */\n      0x20\n        /* \"@openzeppelin/contracts/utils/cryptography/ECDSA.sol\":1118:1162  revert(\"ECDSA: invalid signature 'v' value\") */\n      0x04\n      dup3\n      add\n        /* \"#utility.yul\":7108:7129   */\n      mstore\n        /* \"#utility.yul\":7165:7167   */\n      0x22\n        /* \"#utility.yul\":7145:7163   */\n      0x24\n      dup3\n      add\n        /* \"#utility.yul\":7138:7168   */\n      mstore\n        /* \"#utility.yul\":7204:7238   */\n      0x45434453413a20696e76616c6964207369676e6174757265202776272076616c\n        /* \"#utility.yul\":7184:7202   */\n      0x44\n      dup3\n      add\n        /* \"#utility.yul\":7177:7239   */\n      mstore\n      shl(0xf0, 0x7565)\n        /* \"#utility.yul\":7255:7273   */\n      0x64\n      dup3\n      add\n        /* \"#utility.yul\":7248:7280   */\n      mstore\n        /* \"#utility.yul\":7297:7316   */\n      0x84\n      add\n        /* \"@openzeppelin/contracts/utils/cryptography/ECDSA.sol\":1118:1162  revert(\"ECDSA: invalid signature 'v' value\") */\n      tag_89\n        /* \"#utility.yul\":6924:7322   */\n      jump\n        /* \"@openzeppelin/contracts/utils/cryptography/ECDSA.sol\":1059:1173  if (error == RecoverError.InvalidSignatureV) {... */\n    tag_112:\n        /* \"@openzeppelin/contracts/utils/cryptography/ECDSA.sol\":548:1179  function _throwError(RecoverError error) private pure {... */\n      pop\n      jump\t// out\n        /* \"@openzeppelin/contracts/utils/cryptography/ECDSA.sol\":5716:7319  function tryRecover(... */\n    tag_70:\n        /* \"@openzeppelin/contracts/utils/cryptography/ECDSA.sol\":5842:5849  address */\n      0x00\n      dup1\n        /* \"@openzeppelin/contracts/utils/cryptography/ECDSA.sol\":6766:6832  0x7FFFFFFFFFFFFFFFFFFFFFFFFFFFFFFF5D576E7357A4501DDFE92F46681B20A0 */\n      0x7fffffffffffffffffffffffffffffff5d576e7357a4501ddfe92f46681b20a0\n        /* \"@openzeppelin/contracts/utils/cryptography/ECDSA.sol\":6753:6832  uint256(s) > 0x7FFFFFFFFFFFFFFFFFFFFFFFFFFFFFFF5D576E7357A4501DDFE92F46681B20A0 */\n      dup4\n      gt\n        /* \"@openzeppelin/contracts/utils/cryptography/ECDSA.sol\":6749:6910  if (uint256(s) > 0x7FFFFFFFFFFFFFFFFFFFFFFFFFFFFFFF5D576E7357A4501DDFE92F46681B20A0) {... */\n      iszero\n      tag_119\n      jumpi\n      pop\n        /* \"@openzeppelin/contracts/utils/cryptography/ECDSA.sol\":6864:6865  0 */\n      0x00\n      swap1\n      pop\n        /* \"@openzeppelin/contracts/utils/cryptography/ECDSA.sol\":6868:6898  RecoverError.InvalidSignatureS */\n      0x03\n        /* \"@openzeppelin/contracts/utils/cryptography/ECDSA.sol\":6848:6899  return (address(0), RecoverError.InvalidSignatureS) */\n      jump(tag_118)\n        /* \"@openzeppelin/contracts/utils/cryptography/ECDSA.sol\":6749:6910  if (uint256(s) > 0x7FFFFFFFFFFFFFFFFFFFFFFFFFFFFFFF5D576E7357A4501DDFE92F46681B20A0) {... */\n    tag_119:\n        /* \"@openzeppelin/contracts/utils/cryptography/ECDSA.sol\":6923:6924  v */\n      dup5\n        /* \"@openzeppelin/contracts/utils/cryptography/ECDSA.sol\":6923:6930  v != 27 */\n      0xff\n      and\n        /* \"@openzeppelin/contracts/utils/cryptography/ECDSA.sol\":6928:6930  27 */\n      0x1b\n        /* \"@openzeppelin/contracts/utils/cryptography/ECDSA.sol\":6923:6930  v != 27 */\n      eq\n      iszero\n        /* \"@openzeppelin/contracts/utils/cryptography/ECDSA.sol\":6923:6941  v != 27 && v != 28 */\n      dup1\n      iszero\n      tag_120\n      jumpi\n      pop\n        /* \"@openzeppelin/contracts/utils/cryptography/ECDSA.sol\":6934:6935  v */\n      dup5\n        /* \"@openzeppelin/contracts/utils/cryptography/ECDSA.sol\":6934:6941  v != 28 */\n      0xff\n      and\n        /* \"@openzeppelin/contracts/utils/cryptography/ECDSA.sol\":6939:6941  28 */\n      0x1c\n        /* \"@openzeppelin/contracts/utils/cryptography/ECDSA.sol\":6934:6941  v != 28 */\n      eq\n      iszero\n        /* \"@openzeppelin/contracts/utils/cryptography/ECDSA.sol\":6923:6941  v != 27 && v != 28 */\n    tag_120:\n        /* \"@openzeppelin/contracts/utils/cryptography/ECDSA.sol\":6919:7019  if (v != 27 && v != 28) {... */\n      iszero\n      tag_121\n      jumpi\n      pop\n        /* \"@openzeppelin/contracts/utils/cryptography/ECDSA.sol\":6973:6974  0 */\n      0x00\n      swap1\n      pop\n        /* \"@openzeppelin/contracts/utils/cryptography/ECDSA.sol\":6977:7007  RecoverError.InvalidSignatureV */\n      0x04\n        /* \"@openzeppelin/contracts/utils/cryptography/ECDSA.sol\":6957:7008  return (address(0), RecoverError.InvalidSignatureV) */\n      jump(tag_118)\n        /* \"@openzeppelin/contracts/utils/cryptography/ECDSA.sol\":6919:7019  if (v != 27 && v != 28) {... */\n    tag_121:\n        /* \"@openzeppelin/contracts/utils/cryptography/ECDSA.sol\":7130:7154  ecrecover(hash, v, r, s) */\n      0x40\n      dup1\n      mload\n        /* \"@openzeppelin/contracts/utils/cryptography/ECDSA.sol\":7113:7127  address signer */\n      0x00\n        /* \"@openzeppelin/contracts/utils/cryptography/ECDSA.sol\":7130:7154  ecrecover(hash, v, r, s) */\n      dup1\n      dup3\n      mstore\n      0x20\n      dup3\n      add\n      dup1\n      dup5\n      mstore\n        /* \"#utility.yul\":8048:8073   */\n      dup10\n      swap1\n      mstore\n        /* \"#utility.yul\":8121:8125   */\n      0xff\n        /* \"#utility.yul\":8109:8126   */\n      dup9\n      and\n        /* \"#utility.yul\":8089:8107   */\n      swap3\n      dup3\n      add\n        /* \"#utility.yul\":8082:8127   */\n      swap3\n      swap1\n      swap3\n      mstore\n        /* \"#utility.yul\":8143:8161   */\n      0x60\n      dup2\n      add\n        /* \"#utility.yul\":8136:8170   */\n      dup7\n      swap1\n      mstore\n        /* \"#utility.yul\":8186:8204   */\n      0x80\n      dup2\n      add\n        /* \"#utility.yul\":8179:8213   */\n      dup6\n      swap1\n      mstore\n        /* \"@openzeppelin/contracts/utils/cryptography/ECDSA.sol\":7130:7154  ecrecover(hash, v, r, s) */\n      0x01\n      swap1\n        /* \"#utility.yul\":8020:8039   */\n      0xa0\n      add\n        /* \"@openzeppelin/contracts/utils/cryptography/ECDSA.sol\":7130:7154  ecrecover(hash, v, r, s) */\n      0x20\n      mload(0x40)\n      0x20\n      dup2\n      sub\n      swap1\n      dup1\n      dup5\n      sub\n      swap1\n      dup6\n      gas\n      staticcall\n      iszero\n      dup1\n      iszero\n      tag_125\n      jumpi\n      returndatasize\n      0x00\n      dup1\n      returndatacopy\n      revert(0x00, returndatasize)\n    tag_125:\n      pop\n      pop\n      mload(add(not(0x1f), mload(0x40)))\n      swap2\n      pop\n      pop\n      sub(shl(0xa0, 0x01), 0x01)\n        /* \"@openzeppelin/contracts/utils/cryptography/ECDSA.sol\":7168:7188  signer == address(0) */\n      dup2\n      and\n        /* \"@openzeppelin/contracts/utils/cryptography/ECDSA.sol\":7164:7265  if (signer == address(0)) {... */\n      tag_126\n      jumpi\n        /* \"@openzeppelin/contracts/utils/cryptography/ECDSA.sol\":7220:7221  0 */\n      0x00\n        /* \"@openzeppelin/contracts/utils/cryptography/ECDSA.sol\":7224:7253  RecoverError.InvalidSignature */\n      0x01\n        /* \"@openzeppelin/contracts/utils/cryptography/ECDSA.sol\":7204:7254  return (address(0), RecoverError.InvalidSignature) */\n      swap3\n      pop\n      swap3\n      pop\n      pop\n      jump(tag_118)\n        /* \"@openzeppelin/contracts/utils/cryptography/ECDSA.sol\":7164:7265  if (signer == address(0)) {... */\n    tag_126:\n        /* \"@openzeppelin/contracts/utils/cryptography/ECDSA.sol\":7283:7289  signer */\n      swap2\n      pop\n        /* \"@openzeppelin/contracts/utils/cryptography/ECDSA.sol\":7291:7311  RecoverError.NoError */\n      0x00\n      swap1\n      pop\n        /* \"@openzeppelin/contracts/utils/cryptography/ECDSA.sol\":5716:7319  function tryRecover(... */\n    tag_118:\n      swap5\n      pop\n      swap5\n      swap3\n      pop\n      pop\n      pop\n      jump\t// out\n        /* \"@openzeppelin/contracts/utils/cryptography/ECDSA.sol\":4789:5125  function tryRecover(... */\n    tag_74:\n        /* \"@openzeppelin/contracts/utils/cryptography/ECDSA.sol\":4899:4906  address */\n      0x00\n      dup1\n      sub(shl(0xff, 0x01), 0x01)\n        /* \"@openzeppelin/contracts/utils/cryptography/ECDSA.sol\":4944:5024  vs & bytes32(0x7fffffffffffffffffffffffffffffffffffffffffffffffffffffffffffffff) */\n      dup4\n      and\n        /* \"@openzeppelin/contracts/utils/cryptography/ECDSA.sol\":4899:4906  address */\n      dup2\n        /* \"@openzeppelin/contracts/utils/cryptography/ECDSA.sol\":5050:5075  (uint256(vs) >> 255) + 27 */\n      tag_128\n        /* \"@openzeppelin/contracts/utils/cryptography/ECDSA.sol\":5066:5069  255 */\n      0xff\n        /* \"@openzeppelin/contracts/utils/cryptography/ECDSA.sol\":5051:5069  uint256(vs) >> 255 */\n      dup7\n      swap1\n      shr\n        /* \"@openzeppelin/contracts/utils/cryptography/ECDSA.sol\":5073:5075  27 */\n      0x1b\n        /* \"@openzeppelin/contracts/utils/cryptography/ECDSA.sol\":5050:5075  (uint256(vs) >> 255) + 27 */\n      tag_129\n      jump\t// in\n    tag_128:\n        /* \"@openzeppelin/contracts/utils/cryptography/ECDSA.sol\":5034:5076  uint8 v = uint8((uint256(vs) >> 255) + 27) */\n      swap1\n      pop\n        /* \"@openzeppelin/contracts/utils/cryptography/ECDSA.sol\":5093:5118  tryRecover(hash, v, r, s) */\n      tag_130\n        /* \"@openzeppelin/contracts/utils/cryptography/ECDSA.sol\":5104:5108  hash */\n      dup8\n        /* \"@openzeppelin/contracts/utils/cryptography/ECDSA.sol\":5110:5111  v */\n      dup3\n        /* \"@openzeppelin/contracts/utils/cryptography/ECDSA.sol\":5113:5114  r */\n      dup9\n        /* \"@openzeppelin/contracts/utils/cryptography/ECDSA.sol\":5116:5117  s */\n      dup6\n        /* \"@openzeppelin/contracts/utils/cryptography/ECDSA.sol\":5093:5103  tryRecover */\n      tag_70\n        /* \"@openzeppelin/contracts/utils/cryptography/ECDSA.sol\":5093:5118  tryRecover(hash, v, r, s) */\n      jump\t// in\n    tag_130:\n        /* \"@openzeppelin/contracts/utils/cryptography/ECDSA.sol\":5086:5118  return tryRecover(hash, v, r, s) */\n      swap4\n      pop\n      swap4\n      pop\n      pop\n      pop\n        /* \"@openzeppelin/contracts/utils/cryptography/ECDSA.sol\":4789:5125  function tryRecover(... */\n      swap4\n      pop\n      swap4\n      swap2\n      pop\n      pop\n      jump\t// out\n        /* \"#utility.yul\":14:404   */\n    tag_8:\n        /* \"#utility.yul\":103:109   */\n      0x00\n        /* \"#utility.yul\":156:158   */\n      0x20\n        /* \"#utility.yul\":144:153   */\n      dup3\n        /* \"#utility.yul\":135:142   */\n      dup5\n        /* \"#utility.yul\":131:154   */\n      sub\n        /* \"#utility.yul\":127:159   */\n      slt\n        /* \"#utility.yul\":124:176   */\n      iszero\n      tag_136\n      jumpi\n        /* \"#utility.yul\":172:173   */\n      0x00\n        /* \"#utility.yul\":169:170   */\n      dup1\n        /* \"#utility.yul\":162:174   */\n      revert\n        /* \"#utility.yul\":124:176   */\n    tag_136:\n        /* \"#utility.yul\":212:221   */\n      dup2\n        /* \"#utility.yul\":199:222   */\n      calldataload\n        /* \"#utility.yul\":245:263   */\n      0xffffffffffffffff\n        /* \"#utility.yul\":237:243   */\n      dup2\n        /* \"#utility.yul\":234:264   */\n      gt\n        /* \"#utility.yul\":231:281   */\n      iszero\n      tag_137\n      jumpi\n        /* \"#utility.yul\":277:278   */\n      0x00\n        /* \"#utility.yul\":274:275   */\n      dup1\n        /* \"#utility.yul\":267:279   */\n      revert\n        /* \"#utility.yul\":231:281   */\n    tag_137:\n        /* \"#utility.yul\":300:322   */\n      dup3\n      add\n        /* \"#utility.yul\":356:359   */\n      0x80\n        /* \"#utility.yul\":338:354   */\n      dup2\n      dup6\n      sub\n        /* \"#utility.yul\":334:360   */\n      slt\n        /* \"#utility.yul\":331:377   */\n      iszero\n      tag_44\n      jumpi\n        /* \"#utility.yul\":373:374   */\n      0x00\n        /* \"#utility.yul\":370:371   */\n      dup1\n        /* \"#utility.yul\":363:375   */\n      revert\n        /* \"#utility.yul\":591:764   */\n    tag_131:\n        /* \"#utility.yul\":659:679   */\n      dup1\n      calldataload\n      sub(shl(0xa0, 0x01), 0x01)\n        /* \"#utility.yul\":708:739   */\n      dup2\n      and\n        /* \"#utility.yul\":698:740   */\n      dup2\n      eq\n        /* \"#utility.yul\":688:758   */\n      tag_141\n      jumpi\n        /* \"#utility.yul\":754:755   */\n      0x00\n        /* \"#utility.yul\":751:752   */\n      dup1\n        /* \"#utility.yul\":744:756   */\n      revert\n        /* \"#utility.yul\":688:758   */\n    tag_141:\n        /* \"#utility.yul\":591:764   */\n      swap2\n      swap1\n      pop\n      jump\t// out\n        /* \"#utility.yul\":769:1136   */\n    tag_132:\n        /* \"#utility.yul\":832:840   */\n      0x00\n        /* \"#utility.yul\":842:848   */\n      dup1\n        /* \"#utility.yul\":896:899   */\n      dup4\n        /* \"#utility.yul\":889:893   */\n      0x1f\n        /* \"#utility.yul\":881:887   */\n      dup5\n        /* \"#utility.yul\":877:894   */\n      add\n        /* \"#utility.yul\":873:900   */\n      slt\n        /* \"#utility.yul\":863:918   */\n      tag_143\n      jumpi\n        /* \"#utility.yul\":914:915   */\n      0x00\n        /* \"#utility.yul\":911:912   */\n      dup1\n        /* \"#utility.yul\":904:916   */\n      revert\n        /* \"#utility.yul\":863:918   */\n    tag_143:\n      pop\n        /* \"#utility.yul\":937:957   */\n      dup2\n      calldataload\n        /* \"#utility.yul\":980:998   */\n      0xffffffffffffffff\n        /* \"#utility.yul\":969:999   */\n      dup2\n      gt\n        /* \"#utility.yul\":966:1016   */\n      iszero\n      tag_144\n      jumpi\n        /* \"#utility.yul\":1012:1013   */\n      0x00\n        /* \"#utility.yul\":1009:1010   */\n      dup1\n        /* \"#utility.yul\":1002:1014   */\n      revert\n        /* \"#utility.yul\":966:1016   */\n    tag_144:\n        /* \"#utility.yul\":1049:1053   */\n      0x20\n        /* \"#utility.yul\":1041:1047   */\n      dup4\n        /* \"#utility.yul\":1037:1054   */\n      add\n        /* \"#utility.yul\":1025:1054   */\n      swap2\n      pop\n        /* \"#utility.yul\":1109:1112   */\n      dup4\n        /* \"#utility.yul\":1102:1106   */\n      0x20\n        /* \"#utility.yul\":1092:1098   */\n      dup3\n        /* \"#utility.yul\":1089:1090   */\n      0x05\n        /* \"#utility.yul\":1085:1099   */\n      shl\n        /* \"#utility.yul\":1077:1083   */\n      dup6\n        /* \"#utility.yul\":1073:1100   */\n      add\n        /* \"#utility.yul\":1069:1107   */\n      add\n        /* \"#utility.yul\":1066:1113   */\n      gt\n        /* \"#utility.yul\":1063:1130   */\n      iszero\n      tag_75\n      jumpi\n        /* \"#utility.yul\":1126:1127   */\n      0x00\n        /* \"#utility.yul\":1123:1124   */\n      dup1\n        /* \"#utility.yul\":1116:1128   */\n      revert\n        /* \"#utility.yul\":1141:1988   */\n    tag_14:\n        /* \"#utility.yul\":1272:1278   */\n      0x00\n        /* \"#utility.yul\":1280:1286   */\n      dup1\n        /* \"#utility.yul\":1288:1294   */\n      0x00\n        /* \"#utility.yul\":1296:1302   */\n      dup1\n        /* \"#utility.yul\":1304:1310   */\n      0x00\n        /* \"#utility.yul\":1357:1359   */\n      0x60\n        /* \"#utility.yul\":1345:1354   */\n      dup7\n        /* \"#utility.yul\":1336:1343   */\n      dup9\n        /* \"#utility.yul\":1332:1355   */\n      sub\n        /* \"#utility.yul\":1328:1360   */\n      slt\n        /* \"#utility.yul\":1325:1377   */\n      iszero\n      tag_147\n      jumpi\n        /* \"#utility.yul\":1373:1374   */\n      0x00\n        /* \"#utility.yul\":1370:1371   */\n      dup1\n        /* \"#utility.yul\":1363:1375   */\n      revert\n        /* \"#utility.yul\":1325:1377   */\n    tag_147:\n        /* \"#utility.yul\":1396:1425   */\n      tag_148\n        /* \"#utility.yul\":1415:1424   */\n      dup7\n        /* \"#utility.yul\":1396:1425   */\n      tag_131\n      jump\t// in\n    tag_148:\n        /* \"#utility.yul\":1386:1425   */\n      swap5\n      pop\n        /* \"#utility.yul\":1476:1478   */\n      0x20\n        /* \"#utility.yul\":1465:1474   */\n      dup7\n        /* \"#utility.yul\":1461:1479   */\n      add\n        /* \"#utility.yul\":1448:1480   */\n      calldataload\n        /* \"#utility.yul\":1499:1517   */\n      0xffffffffffffffff\n        /* \"#utility.yul\":1540:1542   */\n      dup1\n        /* \"#utility.yul\":1532:1538   */\n      dup3\n        /* \"#utility.yul\":1529:1543   */\n      gt\n        /* \"#utility.yul\":1526:1560   */\n      iszero\n      tag_149\n      jumpi\n        /* \"#utility.yul\":1556:1557   */\n      0x00\n        /* \"#utility.yul\":1553:1554   */\n      dup1\n        /* \"#utility.yul\":1546:1558   */\n      revert\n        /* \"#utility.yul\":1526:1560   */\n    tag_149:\n        /* \"#utility.yul\":1595:1665   */\n      tag_150\n        /* \"#utility.yul\":1657:1664   */\n      dup10\n        /* \"#utility.yul\":1648:1654   */\n      dup4\n        /* \"#utility.yul\":1637:1646   */\n      dup11\n        /* \"#utility.yul\":1633:1655   */\n      add\n        /* \"#utility.yul\":1595:1665   */\n      tag_132\n      jump\t// in\n    tag_150:\n        /* \"#utility.yul\":1684:1692   */\n      swap1\n      swap7\n      pop\n        /* \"#utility.yul\":1569:1665   */\n      swap5\n      pop\n        /* \"#utility.yul\":1772:1774   */\n      0x40\n        /* \"#utility.yul\":1757:1775   */\n      dup9\n      add\n        /* \"#utility.yul\":1744:1776   */\n      calldataload\n      swap2\n      pop\n        /* \"#utility.yul\":1788:1804   */\n      dup1\n      dup3\n      gt\n        /* \"#utility.yul\":1785:1821   */\n      iszero\n      tag_151\n      jumpi\n        /* \"#utility.yul\":1817:1818   */\n      0x00\n        /* \"#utility.yul\":1814:1815   */\n      dup1\n        /* \"#utility.yul\":1807:1819   */\n      revert\n        /* \"#utility.yul\":1785:1821   */\n    tag_151:\n      pop\n        /* \"#utility.yul\":1856:1928   */\n      tag_152\n        /* \"#utility.yul\":1920:1927   */\n      dup9\n        /* \"#utility.yul\":1909:1917   */\n      dup3\n        /* \"#utility.yul\":1898:1907   */\n      dup10\n        /* \"#utility.yul\":1894:1918   */\n      add\n        /* \"#utility.yul\":1856:1928   */\n      tag_132\n      jump\t// in\n    tag_152:\n        /* \"#utility.yul\":1141:1988   */\n      swap7\n      swap10\n      swap6\n      swap9\n      pop\n      swap4\n      swap7\n      pop\n        /* \"#utility.yul\":1947:1955   */\n      swap3\n      swap5\n        /* \"#utility.yul\":1830:1928   */\n      swap4\n        /* \"#utility.yul\":1141:1988   */\n      swap3\n      pop\n      pop\n      pop\n      jump\t// out\n        /* \"#utility.yul\":2201:2387   */\n    tag_25:\n        /* \"#utility.yul\":2260:2266   */\n      0x00\n        /* \"#utility.yul\":2313:2315   */\n      0x20\n        /* \"#utility.yul\":2301:2310   */\n      dup3\n        /* \"#utility.yul\":2292:2299   */\n      dup5\n        /* \"#utility.yul\":2288:2311   */\n      sub\n        /* \"#utility.yul\":2284:2316   */\n      slt\n        /* \"#utility.yul\":2281:2333   */\n      iszero\n      tag_155\n      jumpi\n        /* \"#utility.yul\":2329:2330   */\n      0x00\n        /* \"#utility.yul\":2326:2327   */\n      dup1\n        /* \"#utility.yul\":2319:2331   */\n      revert\n        /* \"#utility.yul\":2281:2333   */\n    tag_155:\n        /* \"#utility.yul\":2352:2381   */\n      tag_44\n        /* \"#utility.yul\":2371:2380   */\n      dup3\n        /* \"#utility.yul\":2352:2381   */\n      tag_131\n      jump\t// in\n        /* \"#utility.yul\":2392:2937   */\n    tag_27:\n        /* \"#utility.yul\":2485:2489   */\n      0x00\n        /* \"#utility.yul\":2491:2497   */\n      dup1\n        /* \"#utility.yul\":2551:2562   */\n      dup4\n        /* \"#utility.yul\":2538:2563   */\n      calldataload\n        /* \"#utility.yul\":2645:2647   */\n      0x1e\n        /* \"#utility.yul\":2641:2648   */\n      not\n        /* \"#utility.yul\":2630:2638   */\n      dup5\n        /* \"#utility.yul\":2614:2628   */\n      calldatasize\n        /* \"#utility.yul\":2610:2639   */\n      sub\n        /* \"#utility.yul\":2606:2649   */\n      add\n        /* \"#utility.yul\":2586:2604   */\n      dup2\n        /* \"#utility.yul\":2582:2650   */\n      slt\n        /* \"#utility.yul\":2572:2668   */\n      tag_158\n      jumpi\n        /* \"#utility.yul\":2664:2665   */\n      0x00\n        /* \"#utility.yul\":2661:2662   */\n      dup1\n        /* \"#utility.yul\":2654:2666   */\n      revert\n        /* \"#utility.yul\":2572:2668   */\n    tag_158:\n        /* \"#utility.yul\":2691:2724   */\n      dup4\n      add\n        /* \"#utility.yul\":2743:2763   */\n      dup1\n      calldataload\n      swap2\n      pop\n        /* \"#utility.yul\":2786:2804   */\n      0xffffffffffffffff\n        /* \"#utility.yul\":2775:2805   */\n      dup3\n      gt\n        /* \"#utility.yul\":2772:2822   */\n      iszero\n      tag_159\n      jumpi\n        /* \"#utility.yul\":2818:2819   */\n      0x00\n        /* \"#utility.yul\":2815:2816   */\n      dup1\n        /* \"#utility.yul\":2808:2820   */\n      revert\n        /* \"#utility.yul\":2772:2822   */\n    tag_159:\n        /* \"#utility.yul\":2851:2855   */\n      0x20\n        /* \"#utility.yul\":2839:2856   */\n      add\n      swap2\n      pop\n        /* \"#utility.yul\":2902:2903   */\n      0x05\n        /* \"#utility.yul\":2898:2912   */\n      dup2\n      swap1\n      shl\n        /* \"#utility.yul\":2882:2896   */\n      calldatasize\n        /* \"#utility.yul\":2878:2913   */\n      sub\n        /* \"#utility.yul\":2868:2914   */\n      dup3\n      sgt\n        /* \"#utility.yul\":2865:2931   */\n      iszero\n      tag_75\n      jumpi\n        /* \"#utility.yul\":2927:2928   */\n      0x00\n        /* \"#utility.yul\":2924:2925   */\n      dup1\n        /* \"#utility.yul\":2917:2929   */\n      revert\n        /* \"#utility.yul\":2942:3246   */\n    tag_133:\n        /* \"#utility.yul\":3012:3015   */\n      0x00\n      sub(shl(0xfb, 0x01), 0x01)\n        /* \"#utility.yul\":3033:3064   */\n      dup4\n      gt\n        /* \"#utility.yul\":3030:3081   */\n      iszero\n      tag_162\n      jumpi\n        /* \"#utility.yul\":3077:3078   */\n      0x00\n        /* \"#utility.yul\":3074:3075   */\n      dup1\n        /* \"#utility.yul\":3067:3079   */\n      revert\n        /* \"#utility.yul\":3030:3081   */\n    tag_162:\n        /* \"#utility.yul\":3113:3119   */\n      dup3\n        /* \"#utility.yul\":3110:3111   */\n      0x05\n        /* \"#utility.yul\":3106:3120   */\n      shl\n        /* \"#utility.yul\":3154:3162   */\n      dup1\n        /* \"#utility.yul\":3147:3152   */\n      dup4\n        /* \"#utility.yul\":3142:3145   */\n      dup7\n        /* \"#utility.yul\":3129:3163   */\n      calldatacopy\n        /* \"#utility.yul\":3220:3221   */\n      0x00\n        /* \"#utility.yul\":3182:3200   */\n      swap5\n      add\n        /* \"#utility.yul\":3209:3222   */\n      swap4\n      dup5\n      mstore\n      pop\n        /* \"#utility.yul\":3182:3200   */\n      swap2\n      swap3\n        /* \"#utility.yul\":2942:3246   */\n      swap2\n      pop\n      pop\n      jump\t// out\n        /* \"#utility.yul\":3251:3511   */\n    tag_29:\n        /* \"#utility.yul\":3422:3425   */\n      0x00\n        /* \"#utility.yul\":3447:3505   */\n      tag_164\n        /* \"#utility.yul\":3501:3504   */\n      dup3\n        /* \"#utility.yul\":3493:3499   */\n      dup5\n        /* \"#utility.yul\":3485:3491   */\n      dup7\n        /* \"#utility.yul\":3447:3505   */\n      tag_133\n      jump\t// in\n    tag_164:\n        /* \"#utility.yul\":3440:3505   */\n      swap5\n        /* \"#utility.yul\":3251:3511   */\n      swap4\n      pop\n      pop\n      pop\n      pop\n      jump\t// out\n        /* \"#utility.yul\":4753:5274   */\n    tag_46:\n        /* \"#utility.yul\":4830:4834   */\n      0x00\n        /* \"#utility.yul\":4836:4842   */\n      dup1\n        /* \"#utility.yul\":4896:4907   */\n      dup4\n        /* \"#utility.yul\":4883:4908   */\n      calldataload\n        /* \"#utility.yul\":4990:4992   */\n      0x1e\n        /* \"#utility.yul\":4986:4993   */\n      not\n        /* \"#utility.yul\":4975:4983   */\n      dup5\n        /* \"#utility.yul\":4959:4973   */\n      calldatasize\n        /* \"#utility.yul\":4955:4984   */\n      sub\n        /* \"#utility.yul\":4951:4994   */\n      add\n        /* \"#utility.yul\":4931:4949   */\n      dup2\n        /* \"#utility.yul\":4927:4995   */\n      slt\n        /* \"#utility.yul\":4917:5013   */\n      tag_173\n      jumpi\n        /* \"#utility.yul\":5009:5010   */\n      0x00\n        /* \"#utility.yul\":5006:5007   */\n      dup1\n        /* \"#utility.yul\":4999:5011   */\n      revert\n        /* \"#utility.yul\":4917:5013   */\n    tag_173:\n        /* \"#utility.yul\":5036:5069   */\n      dup4\n      add\n        /* \"#utility.yul\":5088:5108   */\n      dup1\n      calldataload\n      swap2\n      pop\n        /* \"#utility.yul\":5131:5149   */\n      0xffffffffffffffff\n        /* \"#utility.yul\":5120:5150   */\n      dup3\n      gt\n        /* \"#utility.yul\":5117:5167   */\n      iszero\n      tag_174\n      jumpi\n        /* \"#utility.yul\":5163:5164   */\n      0x00\n        /* \"#utility.yul\":5160:5161   */\n      dup1\n        /* \"#utility.yul\":5153:5165   */\n      revert\n        /* \"#utility.yul\":5117:5167   */\n    tag_174:\n        /* \"#utility.yul\":5196:5200   */\n      0x20\n        /* \"#utility.yul\":5184:5201   */\n      add\n      swap2\n      pop\n        /* \"#utility.yul\":5227:5241   */\n      calldatasize\n        /* \"#utility.yul\":5223:5250   */\n      dup2\n      swap1\n      sub\n        /* \"#utility.yul\":5213:5251   */\n      dup3\n      sgt\n        /* \"#utility.yul\":5210:5268   */\n      iszero\n      tag_75\n      jumpi\n        /* \"#utility.yul\":5264:5265   */\n      0x00\n        /* \"#utility.yul\":5261:5262   */\n      dup1\n        /* \"#utility.yul\":5254:5266   */\n      revert\n        /* \"#utility.yul\":5676:5803   */\n    tag_79:\n        /* \"#utility.yul\":5737:5747   */\n      0x4e487b71\n        /* \"#utility.yul\":5732:5735   */\n      0xe0\n        /* \"#utility.yul\":5728:5748   */\n      shl\n        /* \"#utility.yul\":5725:5726   */\n      0x00\n        /* \"#utility.yul\":5718:5749   */\n      mstore\n        /* \"#utility.yul\":5768:5772   */\n      0x21\n        /* \"#utility.yul\":5765:5766   */\n      0x04\n        /* \"#utility.yul\":5758:5773   */\n      mstore\n        /* \"#utility.yul\":5792:5796   */\n      0x24\n        /* \"#utility.yul\":5789:5790   */\n      0x00\n        /* \"#utility.yul\":5782:5797   */\n      revert\n        /* \"#utility.yul\":8224:8449   */\n    tag_129:\n        /* \"#utility.yul\":8264:8267   */\n      0x00\n        /* \"#utility.yul\":8295:8296   */\n      dup3\n        /* \"#utility.yul\":8291:8297   */\n      not\n        /* \"#utility.yul\":8288:8289   */\n      dup3\n        /* \"#utility.yul\":8285:8298   */\n      gt\n        /* \"#utility.yul\":8282:8418   */\n      iszero\n      tag_185\n      jumpi\n        /* \"#utility.yul\":8340:8350   */\n      0x4e487b71\n        /* \"#utility.yul\":8335:8338   */\n      0xe0\n        /* \"#utility.yul\":8331:8351   */\n      shl\n        /* \"#utility.yul\":8328:8329   */\n      0x00\n        /* \"#utility.yul\":8321:8352   */\n      mstore\n        /* \"#utility.yul\":8375:8379   */\n      0x11\n        /* \"#utility.yul\":8372:8373   */\n      0x04\n        /* \"#utility.yul\":8365:8380   */\n      mstore\n        /* \"#utility.yul\":8403:8407   */\n      0x24\n        /* \"#utility.yul\":8400:8401   */\n      0x00\n        /* \"#utility.yul\":8393:8408   */\n      revert\n        /* \"#utility.yul\":8282:8418   */\n    tag_185:\n      pop\n        /* \"#utility.yul\":8434:8443   */\n      add\n      swap1\n        /* \"#utility.yul\":8224:8449   */\n      jump\t// out\n\n    auxdata: 0xa26469706673582212204bc067aaf666dac70fa64dfe34a817cf8a5df9fd290f4d5629a93ece627d576c64736f6c634300080e0033\n}\n",
				"bytecode": {
					"linkReferences": {},
					"object": "61014060405234801561001157600080fd5b50604080518082018252600b81526a48616368694e667453696760a81b6020808301918252835180850190945260018452603160f81b908401528151902060e08190527fc89efdaa54c0f20c7adf612882df0950f5a951637e0307cdcb4c672f298b8bc66101008190524660a0529192917f8b73c3c69bb8fe3d512ecc4cf759cc79239f7b179b0ffacaa9a75d522b39400f6100f28184846040805160208101859052908101839052606081018290524660808201523060a082015260009060c0016040516020818303038152906040528051906020012090509392505050565b6080523060c052610120525061010792505050565b60805160a05160c05160e05161010051610120516109d06101566000396000610364015260006103b30152600061038e015260006102e7015260006103110152600061033b01526109d06000f3fe608060405234801561001057600080fd5b50600436106100415760003560e01c806315adc8fc14610046578063312012171461006c578063ac7efdd71461007f575b600080fd5b610059610054366004610753565b6100aa565b6040519081526020015b60405180910390f35b61005961007a3660046107ef565b61019b565b61009261008d366004610753565b610208565b6040516001600160a01b039091168152602001610063565b60006101957f798f2fc7cec67eb8a3e992f2d864cc1f56f87a6e9130d64fe2b2d7693eca2d2b6100dd6020850185610870565b6100ea602086018661088b565b6040516020016100fb929190610902565b60405160208183030381529060405280519060200120858060400190610121919061088b565b604051602001610132929190610902565b6040516020818303038152906040528051906020012060405160200161017a94939291909384526001600160a01b039290921660208401526040830152606082015260800190565b60405160208183030381529060405280519060200120610268565b92915050565b60006101fe7f798f2fc7cec67eb8a3e992f2d864cc1f56f87a6e9130d64fe2b2d7693eca2d2b8787876040516020016101d5929190610902565b604051602081830303815290604052805190602001208686604051602001610132929190610902565b9695505050505050565b600080610214836100aa565b9050610261816102276060860186610917565b8080601f0160208091040260200160405190810160405280939291908181526020018383808284376000920191909152506102b692505050565b9392505050565b60006101956102756102da565b8360405161190160f01b6020820152602281018390526042810182905260009060620160405160208183030381529060405280519060200120905092915050565b60008060006102c58585610401565b915091506102d28161046f565b509392505050565b6000306001600160a01b037f00000000000000000000000000000000000000000000000000000000000000001614801561033357507f000000000000000000000000000000000000000000000000000000000000000046145b1561035d57507f000000000000000000000000000000000000000000000000000000000000000090565b50604080517f00000000000000000000000000000000000000000000000000000000000000006020808301919091527f0000000000000000000000000000000000000000000000000000000000000000828401527f000000000000000000000000000000000000000000000000000000000000000060608301524660808301523060a0808401919091528351808403909101815260c0909201909252805191012090565b60008082516041036104375760208301516040840151606085015160001a61042b8782858561062d565b94509450505050610468565b8251604003610460576020830151604084015161045586838361071a565b935093505050610468565b506000905060025b9250929050565b60008160048111156104835761048361095e565b0361048b5750565b600181600481111561049f5761049f61095e565b036104f15760405162461bcd60e51b815260206004820152601860248201527f45434453413a20696e76616c6964207369676e6174757265000000000000000060448201526064015b60405180910390fd5b60028160048111156105055761050561095e565b036105525760405162461bcd60e51b815260206004820152601f60248201527f45434453413a20696e76616c6964207369676e6174757265206c656e6774680060448201526064016104e8565b60038160048111156105665761056661095e565b036105be5760405162461bcd60e51b815260206004820152602260248201527f45434453413a20696e76616c6964207369676e6174757265202773272076616c604482015261756560f01b60648201526084016104e8565b60048160048111156105d2576105d261095e565b0361062a5760405162461bcd60e51b815260206004820152602260248201527f45434453413a20696e76616c6964207369676e6174757265202776272076616c604482015261756560f01b60648201526084016104e8565b50565b6000807f7fffffffffffffffffffffffffffffff5d576e7357a4501ddfe92f46681b20a08311156106645750600090506003610711565b8460ff16601b1415801561067c57508460ff16601c14155b1561068d5750600090506004610711565b6040805160008082526020820180845289905260ff881692820192909252606081018690526080810185905260019060a0016020604051602081039080840390855afa1580156106e1573d6000803e3d6000fd5b5050604051601f1901519150506001600160a01b03811661070a57600060019250925050610711565b9150600090505b94509492505050565b6000806001600160ff1b0383168161073760ff86901c601b610974565b90506107458782888561062d565b935093505050935093915050565b60006020828403121561076557600080fd5b813567ffffffffffffffff81111561077c57600080fd5b82016080818503121561026157600080fd5b80356001600160a01b03811681146107a557600080fd5b919050565b60008083601f8401126107bc57600080fd5b50813567ffffffffffffffff8111156107d457600080fd5b6020830191508360208260051b850101111561046857600080fd5b60008060008060006060868803121561080757600080fd5b6108108661078e565b9450602086013567ffffffffffffffff8082111561082d57600080fd5b61083989838a016107aa565b9096509450604088013591508082111561085257600080fd5b5061085f888289016107aa565b969995985093965092949392505050565b60006020828403121561088257600080fd5b6102618261078e565b6000808335601e198436030181126108a257600080fd5b83018035915067ffffffffffffffff8211156108bd57600080fd5b6020019150600581901b360382131561046857600080fd5b60006001600160fb1b038311156108eb57600080fd5b8260051b8083863760009401938452509192915050565b600061090f8284866108d5565b949350505050565b6000808335601e1984360301811261092e57600080fd5b83018035915067ffffffffffffffff82111561094957600080fd5b60200191503681900382131561046857600080fd5b634e487b7160e01b600052602160045260246000fd5b6000821982111561099557634e487b7160e01b600052601160045260246000fd5b50019056fea26469706673582212204bc067aaf666dac70fa64dfe34a817cf8a5df9fd290f4d5629a93ece627d576c64736f6c634300080e0033",
					"opcodes": "PUSH2 0x140 PUSH1 0x40 MSTORE CALLVALUE DUP1 ISZERO PUSH2 0x11 JUMPI PUSH1 0x0 DUP1 REVERT JUMPDEST POP PUSH1 0x40 DUP1 MLOAD DUP1 DUP3 ADD DUP3 MSTORE PUSH1 0xB DUP2 MSTORE PUSH11 0x48616368694E6674536967 PUSH1 0xA8 SHL PUSH1 0x20 DUP1 DUP4 ADD SWAP2 DUP3 MSTORE DUP4 MLOAD DUP1 DUP6 ADD SWAP1 SWAP5 MSTORE PUSH1 0x1 DUP5 MSTORE PUSH1 0x31 PUSH1 0xF8 SHL SWAP1 DUP5 ADD MSTORE DUP2 MLOAD SWAP1 KECCAK256 PUSH1 0xE0 DUP2 SWAP1 MSTORE PUSH32 0xC89EFDAA54C0F20C7ADF612882DF0950F5A951637E0307CDCB4C672F298B8BC6 PUSH2 0x100 DUP2 SWAP1 MSTORE CHAINID PUSH1 0xA0 MSTORE SWAP2 SWAP3 SWAP2 PUSH32 0x8B73C3C69BB8FE3D512ECC4CF759CC79239F7B179B0FFACAA9A75D522B39400F PUSH2 0xF2 DUP2 DUP5 DUP5 PUSH1 0x40 DUP1 MLOAD PUSH1 0x20 DUP2 ADD DUP6 SWAP1 MSTORE SWAP1 DUP2 ADD DUP4 SWAP1 MSTORE PUSH1 0x60 DUP2 ADD DUP3 SWAP1 MSTORE CHAINID PUSH1 0x80 DUP3 ADD MSTORE ADDRESS PUSH1 0xA0 DUP3 ADD MSTORE PUSH1 0x0 SWAP1 PUSH1 0xC0 ADD PUSH1 0x40 MLOAD PUSH1 0x20 DUP2 DUP4 SUB SUB DUP2 MSTORE SWAP1 PUSH1 0x40 MSTORE DUP1 MLOAD SWAP1 PUSH1 0x20 ADD KECCAK256 SWAP1 POP SWAP4 SWAP3 POP POP POP JUMP JUMPDEST PUSH1 0x80 MSTORE ADDRESS PUSH1 0xC0 MSTORE PUSH2 0x120 MSTORE POP PUSH2 0x107 SWAP3 POP POP POP JUMP JUMPDEST PUSH1 0x80 MLOAD PUSH1 0xA0 MLOAD PUSH1 0xC0 MLOAD PUSH1 0xE0 MLOAD PUSH2 0x100 MLOAD PUSH2 0x120 MLOAD PUSH2 0x9D0 PUSH2 0x156 PUSH1 0x0 CODECOPY PUSH1 0x0 PUSH2 0x364 ADD MSTORE PUSH1 0x0 PUSH2 0x3B3 ADD MSTORE PUSH1 0x0 PUSH2 0x38E ADD MSTORE PUSH1 0x0 PUSH2 0x2E7 ADD MSTORE PUSH1 0x0 PUSH2 0x311 ADD MSTORE PUSH1 0x0 PUSH2 0x33B ADD MSTORE PUSH2 0x9D0 PUSH1 0x0 RETURN INVALID PUSH1 0x80 PUSH1 0x40 MSTORE CALLVALUE DUP1 ISZERO PUSH2 0x10 JUMPI PUSH1 0x0 DUP1 REVERT JUMPDEST POP PUSH1 0x4 CALLDATASIZE LT PUSH2 0x41 JUMPI PUSH1 0x0 CALLDATALOAD PUSH1 0xE0 SHR DUP1 PUSH4 0x15ADC8FC EQ PUSH2 0x46 JUMPI DUP1 PUSH4 0x31201217 EQ PUSH2 0x6C JUMPI DUP1 PUSH4 0xAC7EFDD7 EQ PUSH2 0x7F JUMPI JUMPDEST PUSH1 0x0 DUP1 REVERT JUMPDEST PUSH2 0x59 PUSH2 0x54 CALLDATASIZE PUSH1 0x4 PUSH2 0x753 JUMP JUMPDEST PUSH2 0xAA JUMP JUMPDEST PUSH1 0x40 MLOAD SWAP1 DUP2 MSTORE PUSH1 0x20 ADD JUMPDEST PUSH1 0x40 MLOAD DUP1 SWAP2 SUB SWAP1 RETURN JUMPDEST PUSH2 0x59 PUSH2 0x7A CALLDATASIZE PUSH1 0x4 PUSH2 0x7EF JUMP JUMPDEST PUSH2 0x19B JUMP JUMPDEST PUSH2 0x92 PUSH2 0x8D CALLDATASIZE PUSH1 0x4 PUSH2 0x753 JUMP JUMPDEST PUSH2 0x208 JUMP JUMPDEST PUSH1 0x40 MLOAD PUSH1 0x1 PUSH1 0x1 PUSH1 0xA0 SHL SUB SWAP1 SWAP2 AND DUP2 MSTORE PUSH1 0x20 ADD PUSH2 0x63 JUMP JUMPDEST PUSH1 0x0 PUSH2 0x195 PUSH32 0x798F2FC7CEC67EB8A3E992F2D864CC1F56F87A6E9130D64FE2B2D7693ECA2D2B PUSH2 0xDD PUSH1 0x20 DUP6 ADD DUP6 PUSH2 0x870 JUMP JUMPDEST PUSH2 0xEA PUSH1 0x20 DUP7 ADD DUP7 PUSH2 0x88B JUMP JUMPDEST PUSH1 0x40 MLOAD PUSH1 0x20 ADD PUSH2 0xFB SWAP3 SWAP2 SWAP1 PUSH2 0x902 JUMP JUMPDEST PUSH1 0x40 MLOAD PUSH1 0x20 DUP2 DUP4 SUB SUB DUP2 MSTORE SWAP1 PUSH1 0x40 MSTORE DUP1 MLOAD SWAP1 PUSH1 0x20 ADD KECCAK256 DUP6 DUP1 PUSH1 0x40 ADD SWAP1 PUSH2 0x121 SWAP2 SWAP1 PUSH2 0x88B JUMP JUMPDEST PUSH1 0x40 MLOAD PUSH1 0x20 ADD PUSH2 0x132 SWAP3 SWAP2 SWAP1 PUSH2 0x902 JUMP JUMPDEST PUSH1 0x40 MLOAD PUSH1 0x20 DUP2 DUP4 SUB SUB DUP2 MSTORE SWAP1 PUSH1 0x40 MSTORE DUP1 MLOAD SWAP1 PUSH1 0x20 ADD KECCAK256 PUSH1 0x40 MLOAD PUSH1 0x20 ADD PUSH2 0x17A SWAP5 SWAP4 SWAP3 SWAP2 SWAP1 SWAP4 DUP5 MSTORE PUSH1 0x1 PUSH1 0x1 PUSH1 0xA0 SHL SUB SWAP3 SWAP1 SWAP3 AND PUSH1 0x20 DUP5 ADD MSTORE PUSH1 0x40 DUP4 ADD MSTORE PUSH1 0x60 DUP3 ADD MSTORE PUSH1 0x80 ADD SWAP1 JUMP JUMPDEST PUSH1 0x40 MLOAD PUSH1 0x20 DUP2 DUP4 SUB SUB DUP2 MSTORE SWAP1 PUSH1 0x40 MSTORE DUP1 MLOAD SWAP1 PUSH1 0x20 ADD KECCAK256 PUSH2 0x268 JUMP JUMPDEST SWAP3 SWAP2 POP POP JUMP JUMPDEST PUSH1 0x0 PUSH2 0x1FE PUSH32 0x798F2FC7CEC67EB8A3E992F2D864CC1F56F87A6E9130D64FE2B2D7693ECA2D2B DUP8 DUP8 DUP8 PUSH1 0x40 MLOAD PUSH1 0x20 ADD PUSH2 0x1D5 SWAP3 SWAP2 SWAP1 PUSH2 0x902 JUMP JUMPDEST PUSH1 0x40 MLOAD PUSH1 0x20 DUP2 DUP4 SUB SUB DUP2 MSTORE SWAP1 PUSH1 0x40 MSTORE DUP1 MLOAD SWAP1 PUSH1 0x20 ADD KECCAK256 DUP7 DUP7 PUSH1 0x40 MLOAD PUSH1 0x20 ADD PUSH2 0x132 SWAP3 SWAP2 SWAP1 PUSH2 0x902 JUMP JUMPDEST SWAP7 SWAP6 POP POP POP POP POP POP JUMP JUMPDEST PUSH1 0x0 DUP1 PUSH2 0x214 DUP4 PUSH2 0xAA JUMP JUMPDEST SWAP1 POP PUSH2 0x261 DUP2 PUSH2 0x227 PUSH1 0x60 DUP7 ADD DUP7 PUSH2 0x917 JUMP JUMPDEST DUP1 DUP1 PUSH1 0x1F ADD PUSH1 0x20 DUP1 SWAP2 DIV MUL PUSH1 0x20 ADD PUSH1 0x40 MLOAD SWAP1 DUP2 ADD PUSH1 0x40 MSTORE DUP1 SWAP4 SWAP3 SWAP2 SWAP1 DUP2 DUP2 MSTORE PUSH1 0x20 ADD DUP4 DUP4 DUP1 DUP3 DUP5 CALLDATACOPY PUSH1 0x0 SWAP3 ADD SWAP2 SWAP1 SWAP2 MSTORE POP PUSH2 0x2B6 SWAP3 POP POP POP JUMP JUMPDEST SWAP4 SWAP3 POP POP POP JUMP JUMPDEST PUSH1 0x0 PUSH2 0x195 PUSH2 0x275 PUSH2 0x2DA JUMP JUMPDEST DUP4 PUSH1 0x40 MLOAD PUSH2 0x1901 PUSH1 0xF0 SHL PUSH1 0x20 DUP3 ADD MSTORE PUSH1 0x22 DUP2 ADD DUP4 SWAP1 MSTORE PUSH1 0x42 DUP2 ADD DUP3 SWAP1 MSTORE PUSH1 0x0 SWAP1 PUSH1 0x62 ADD PUSH1 0x40 MLOAD PUSH1 0x20 DUP2 DUP4 SUB SUB DUP2 MSTORE SWAP1 PUSH1 0x40 MSTORE DUP1 MLOAD SWAP1 PUSH1 0x20 ADD KECCAK256 SWAP1 POP SWAP3 SWAP2 POP POP JUMP JUMPDEST PUSH1 0x0 DUP1 PUSH1 0x0 PUSH2 0x2C5 DUP6 DUP6 PUSH2 0x401 JUMP JUMPDEST SWAP2 POP SWAP2 POP PUSH2 0x2D2 DUP2 PUSH2 0x46F JUMP JUMPDEST POP SWAP4 SWAP3 POP POP POP JUMP JUMPDEST PUSH1 0x0 ADDRESS PUSH1 0x1 PUSH1 0x1 PUSH1 0xA0 SHL SUB PUSH32 0x0 AND EQ DUP1 ISZERO PUSH2 0x333 JUMPI POP PUSH32 0x0 CHAINID EQ JUMPDEST ISZERO PUSH2 0x35D JUMPI POP PUSH32 0x0 SWAP1 JUMP JUMPDEST POP PUSH1 0x40 DUP1 MLOAD PUSH32 0x0 PUSH1 0x20 DUP1 DUP4 ADD SWAP2 SWAP1 SWAP2 MSTORE PUSH32 0x0 DUP3 DUP5 ADD MSTORE PUSH32 0x0 PUSH1 0x60 DUP4 ADD MSTORE CHAINID PUSH1 0x80 DUP4 ADD MSTORE ADDRESS PUSH1 0xA0 DUP1 DUP5 ADD SWAP2 SWAP1 SWAP2 MSTORE DUP4 MLOAD DUP1 DUP5 SUB SWAP1 SWAP2 ADD DUP2 MSTORE PUSH1 0xC0 SWAP1 SWAP3 ADD SWAP1 SWAP3 MSTORE DUP1 MLOAD SWAP2 ADD KECCAK256 SWAP1 JUMP JUMPDEST PUSH1 0x0 DUP1 DUP3 MLOAD PUSH1 0x41 SUB PUSH2 0x437 JUMPI PUSH1 0x20 DUP4 ADD MLOAD PUSH1 0x40 DUP5 ADD MLOAD PUSH1 0x60 DUP6 ADD MLOAD PUSH1 0x0 BYTE PUSH2 0x42B DUP8 DUP3 DUP6 DUP6 PUSH2 0x62D JUMP JUMPDEST SWAP5 POP SWAP5 POP POP POP POP PUSH2 0x468 JUMP JUMPDEST DUP3 MLOAD PUSH1 0x40 SUB PUSH2 0x460 JUMPI PUSH1 0x20 DUP4 ADD MLOAD PUSH1 0x40 DUP5 ADD MLOAD PUSH2 0x455 DUP7 DUP4 DUP4 PUSH2 0x71A JUMP JUMPDEST SWAP4 POP SWAP4 POP POP POP PUSH2 0x468 JUMP JUMPDEST POP PUSH1 0x0 SWAP1 POP PUSH1 0x2 JUMPDEST SWAP3 POP SWAP3 SWAP1 POP JUMP JUMPDEST PUSH1 0x0 DUP2 PUSH1 0x4 DUP2 GT ISZERO PUSH2 0x483 JUMPI PUSH2 0x483 PUSH2 0x95E JUMP JUMPDEST SUB PUSH2 0x48B JUMPI POP JUMP JUMPDEST PUSH1 0x1 DUP2 PUSH1 0x4 DUP2 GT ISZERO PUSH2 0x49F JUMPI PUSH2 0x49F PUSH2 0x95E JUMP JUMPDEST SUB PUSH2 0x4F1 JUMPI PUSH1 0x40 MLOAD PUSH3 0x461BCD PUSH1 0xE5 SHL DUP2 MSTORE PUSH1 0x20 PUSH1 0x4 DUP3 ADD MSTORE PUSH1 0x18 PUSH1 0x24 DUP3 ADD MSTORE PUSH32 0x45434453413A20696E76616C6964207369676E61747572650000000000000000 PUSH1 0x44 DUP3 ADD MSTORE PUSH1 0x64 ADD JUMPDEST PUSH1 0x40 MLOAD DUP1 SWAP2 SUB SWAP1 REVERT JUMPDEST PUSH1 0x2 DUP2 PUSH1 0x4 DUP2 GT ISZERO PUSH2 0x505 JUMPI PUSH2 0x505 PUSH2 0x95E JUMP JUMPDEST SUB PUSH2 0x552 JUMPI PUSH1 0x40 MLOAD PUSH3 0x461BCD PUSH1 0xE5 SHL DUP2 MSTORE PUSH1 0x20 PUSH1 0x4 DUP3 ADD MSTORE PUSH1 0x1F PUSH1 0x24 DUP3 ADD MSTORE PUSH32 0x45434453413A20696E76616C6964207369676E6174757265206C656E67746800 PUSH1 0x44 DUP3 ADD MSTORE PUSH1 0x64 ADD PUSH2 0x4E8 JUMP JUMPDEST PUSH1 0x3 DUP2 PUSH1 0x4 DUP2 GT ISZERO PUSH2 0x566 JUMPI PUSH2 0x566 PUSH2 0x95E JUMP JUMPDEST SUB PUSH2 0x5BE JUMPI PUSH1 0x40 MLOAD PUSH3 0x461BCD PUSH1 0xE5 SHL DUP2 MSTORE PUSH1 0x20 PUSH1 0x4 DUP3 ADD MSTORE PUSH1 0x22 PUSH1 0x24 DUP3 ADD MSTORE PUSH32 0x45434453413A20696E76616C6964207369676E6174757265202773272076616C PUSH1 0x44 DUP3 ADD MSTORE PUSH2 0x7565 PUSH1 0xF0 SHL PUSH1 0x64 DUP3 ADD MSTORE PUSH1 0x84 ADD PUSH2 0x4E8 JUMP JUMPDEST PUSH1 0x4 DUP2 PUSH1 0x4 DUP2 GT ISZERO PUSH2 0x5D2 JUMPI PUSH2 0x5D2 PUSH2 0x95E JUMP JUMPDEST SUB PUSH2 0x62A JUMPI PUSH1 0x40 MLOAD PUSH3 0x461BCD PUSH1 0xE5 SHL DUP2 MSTORE PUSH1 0x20 PUSH1 0x4 DUP3 ADD MSTORE PUSH1 0x22 PUSH1 0x24 DUP3 ADD MSTORE PUSH32 0x45434453413A20696E76616C6964207369676E6174757265202776272076616C PUSH1 0x44 DUP3 ADD MSTORE PUSH2 0x7565 PUSH1 0xF0 SHL PUSH1 0x64 DUP3 ADD MSTORE PUSH1 0x84 ADD PUSH2 0x4E8 JUMP JUMPDEST POP JUMP JUMPDEST PUSH1 0x0 DUP1 PUSH32 0x7FFFFFFFFFFFFFFFFFFFFFFFFFFFFFFF5D576E7357A4501DDFE92F46681B20A0 DUP4 GT ISZERO PUSH2 0x664 JUMPI POP PUSH1 0x0 SWAP1 POP PUSH1 0x3 PUSH2 0x711 JUMP JUMPDEST DUP5 PUSH1 0xFF AND PUSH1 0x1B EQ ISZERO DUP1 ISZERO PUSH2 0x67C JUMPI POP DUP5 PUSH1 0xFF AND PUSH1 0x1C EQ ISZERO JUMPDEST ISZERO PUSH2 0x68D JUMPI POP PUSH1 0x0 SWAP1 POP PUSH1 0x4 PUSH2 0x711 JUMP JUMPDEST PUSH1 0x40 DUP1 MLOAD PUSH1 0x0 DUP1 DUP3 MSTORE PUSH1 0x20 DUP3 ADD DUP1 DUP5 MSTORE DUP10 SWAP1 MSTORE PUSH1 0xFF DUP9 AND SWAP3 DUP3 ADD SWAP3 SWAP1 SWAP3 MSTORE PUSH1 0x60 DUP2 ADD DUP7 SWAP1 MSTORE PUSH1 0x80 DUP2 ADD DUP6 SWAP1 MSTORE PUSH1 0x1 SWAP1 PUSH1 0xA0 ADD PUSH1 0x20 PUSH1 0x40 MLOAD PUSH1 0x20 DUP2 SUB SWAP1 DUP1 DUP5 SUB SWAP1 DUP6 GAS STATICCALL ISZERO DUP1 ISZERO PUSH2 0x6E1 JUMPI RETURNDATASIZE PUSH1 0x0 DUP1 RETURNDATACOPY RETURNDATASIZE PUSH1 0x0 REVERT JUMPDEST POP POP PUSH1 0x40 MLOAD PUSH1 0x1F NOT ADD MLOAD SWAP2 POP POP PUSH1 0x1 PUSH1 0x1 PUSH1 0xA0 SHL SUB DUP2 AND PUSH2 0x70A JUMPI PUSH1 0x0 PUSH1 0x1 SWAP3 POP SWAP3 POP POP PUSH2 0x711 JUMP JUMPDEST SWAP2 POP PUSH1 0x0 SWAP1 POP JUMPDEST SWAP5 POP SWAP5 SWAP3 POP POP POP JUMP JUMPDEST PUSH1 0x0 DUP1 PUSH1 0x1 PUSH1 0x1 PUSH1 0xFF SHL SUB DUP4 AND DUP2 PUSH2 0x737 PUSH1 0xFF DUP7 SWAP1 SHR PUSH1 0x1B PUSH2 0x974 JUMP JUMPDEST SWAP1 POP PUSH2 0x745 DUP8 DUP3 DUP9 DUP6 PUSH2 0x62D JUMP JUMPDEST SWAP4 POP SWAP4 POP POP POP SWAP4 POP SWAP4 SWAP2 POP POP JUMP JUMPDEST PUSH1 0x0 PUSH1 0x20 DUP3 DUP5 SUB SLT ISZERO PUSH2 0x765 JUMPI PUSH1 0x0 DUP1 REVERT JUMPDEST DUP2 CALLDATALOAD PUSH8 0xFFFFFFFFFFFFFFFF DUP2 GT ISZERO PUSH2 0x77C JUMPI PUSH1 0x0 DUP1 REVERT JUMPDEST DUP3 ADD PUSH1 0x80 DUP2 DUP6 SUB SLT ISZERO PUSH2 0x261 JUMPI PUSH1 0x0 DUP1 REVERT JUMPDEST DUP1 CALLDATALOAD PUSH1 0x1 PUSH1 0x1 PUSH1 0xA0 SHL SUB DUP2 AND DUP2 EQ PUSH2 0x7A5 JUMPI PUSH1 0x0 DUP1 REVERT JUMPDEST SWAP2 SWAP1 POP JUMP JUMPDEST PUSH1 0x0 DUP1 DUP4 PUSH1 0x1F DUP5 ADD SLT PUSH2 0x7BC JUMPI PUSH1 0x0 DUP1 REVERT JUMPDEST POP DUP2 CALLDATALOAD PUSH8 0xFFFFFFFFFFFFFFFF DUP2 GT ISZERO PUSH2 0x7D4 JUMPI PUSH1 0x0 DUP1 REVERT JUMPDEST PUSH1 0x20 DUP4 ADD SWAP2 POP DUP4 PUSH1 0x20 DUP3 PUSH1 0x5 SHL DUP6 ADD ADD GT ISZERO PUSH2 0x468 JUMPI PUSH1 0x0 DUP1 REVERT JUMPDEST PUSH1 0x0 DUP1 PUSH1 0x0 DUP1 PUSH1 0x0 PUSH1 0x60 DUP7 DUP9 SUB SLT ISZERO PUSH2 0x807 JUMPI PUSH1 0x0 DUP1 REVERT JUMPDEST PUSH2 0x810 DUP7 PUSH2 0x78E JUMP JUMPDEST SWAP5 POP PUSH1 0x20 DUP7 ADD CALLDATALOAD PUSH8 0xFFFFFFFFFFFFFFFF DUP1 DUP3 GT ISZERO PUSH2 0x82D JUMPI PUSH1 0x0 DUP1 REVERT JUMPDEST PUSH2 0x839 DUP10 DUP4 DUP11 ADD PUSH2 0x7AA JUMP JUMPDEST SWAP1 SWAP7 POP SWAP5 POP PUSH1 0x40 DUP9 ADD CALLDATALOAD SWAP2 POP DUP1 DUP3 GT ISZERO PUSH2 0x852 JUMPI PUSH1 0x0 DUP1 REVERT JUMPDEST POP PUSH2 0x85F DUP9 DUP3 DUP10 ADD PUSH2 0x7AA JUMP JUMPDEST SWAP7 SWAP10 SWAP6 SWAP9 POP SWAP4 SWAP7 POP SWAP3 SWAP5 SWAP4 SWAP3 POP POP POP JUMP JUMPDEST PUSH1 0x0 PUSH1 0x20 DUP3 DUP5 SUB SLT ISZERO PUSH2 0x882 JUMPI PUSH1 0x0 DUP1 REVERT JUMPDEST PUSH2 0x261 DUP3 PUSH2 0x78E JUMP JUMPDEST PUSH1 0x0 DUP1 DUP4 CALLDATALOAD PUSH1 0x1E NOT DUP5 CALLDATASIZE SUB ADD DUP2 SLT PUSH2 0x8A2 JUMPI PUSH1 0x0 DUP1 REVERT JUMPDEST DUP4 ADD DUP1 CALLDATALOAD SWAP2 POP PUSH8 0xFFFFFFFFFFFFFFFF DUP3 GT ISZERO PUSH2 0x8BD JUMPI PUSH1 0x0 DUP1 REVERT JUMPDEST PUSH1 0x20 ADD SWAP2 POP PUSH1 0x5 DUP2 SWAP1 SHL CALLDATASIZE SUB DUP3 SGT ISZERO PUSH2 0x468 JUMPI PUSH1 0x0 DUP1 REVERT JUMPDEST PUSH1 0x0 PUSH1 0x1 PUSH1 0x1 PUSH1 0xFB SHL SUB DUP4 GT ISZERO PUSH2 0x8EB JUMPI PUSH1 0x0 DUP1 REVERT JUMPDEST DUP3 PUSH1 0x5 SHL DUP1 DUP4 DUP7 CALLDATACOPY PUSH1 0x0 SWAP5 ADD SWAP4 DUP5 MSTORE POP SWAP2 SWAP3 SWAP2 POP POP JUMP JUMPDEST PUSH1 0x0 PUSH2 0x90F DUP3 DUP5 DUP7 PUSH2 0x8D5 JUMP JUMPDEST SWAP5 SWAP4 POP POP POP POP JUMP JUMPDEST PUSH1 0x0 DUP1 DUP4 CALLDATALOAD PUSH1 0x1E NOT DUP5 CALLDATASIZE SUB ADD DUP2 SLT PUSH2 0x92E JUMPI PUSH1 0x0 DUP1 REVERT JUMPDEST DUP4 ADD DUP1 CALLDATALOAD SWAP2 POP PUSH8 0xFFFFFFFFFFFFFFFF DUP3 GT ISZERO PUSH2 0x949 JUMPI PUSH1 0x0 DUP1 REVERT JUMPDEST PUSH1 0x20 ADD SWAP2 POP CALLDATASIZE DUP2 SWAP1 SUB DUP3 SGT ISZERO PUSH2 0x468 JUMPI PUSH1 0x0 DUP1 REVERT JUMPDEST PUSH4 0x4E487B71 PUSH1 0xE0 SHL PUSH1 0x0 MSTORE PUSH1 0x21 PUSH1 0x4 MSTORE PUSH1 0x24 PUSH1 0x0 REVERT JUMPDEST PUSH1 0x0 DUP3 NOT DUP3 GT ISZERO PUSH2 0x995 JUMPI PUSH4 0x4E487B71 PUSH1 0xE0 SHL PUSH1 0x0 MSTORE PUSH1 0x11 PUSH1 0x4 MSTORE PUSH1 0x24 PUSH1 0x0 REVERT JUMPDEST POP ADD SWAP1 JUMP INVALID LOG2 PUSH5 0x6970667358 0x22 SLT KECCAK256 0x4B 0xC0 PUSH8 0xAAF666DAC70FA64D INVALID CALLVALUE 0xA8 OR 0xCF DUP11 0x5D 0xF9 REVERT 0x29 0xF 0x4D JUMP 0x29 0xA9 RETURNDATACOPY 0xCE PUSH3 0x7D576C PUSH5 0x736F6C6343 STOP ADDMOD 0xE STOP CALLER "
				},
				"gasEstimates": {
					"creation": {
						"codeDepositCost": "502400",
						"executionCost": "infinite",
						"totalCost": "infinite"
					},
					"external": {
						"_hash((address,uint256[],bytes32[],bytes))": "infinite",
						"testHash(address,uint256[],bytes32[])": "infinite",
						"verifySigner((address,uint256[],bytes32[],bytes))": "infinite"
					}
				},
				"methodIdentifiers": {
					"_hash((address,uint256[],bytes32[],bytes))": "15adc8fc",
					"testHash(address,uint256[],bytes32[])": "31201217",
					"verifySigner((address,uint256[],bytes32[],bytes))": "ac7efdd7"
				}
			},
			"storageLayout": {
				"storage": [],
				"types": null
			},
			"userdoc": {
				"kind": "user",
				"methods": {},
				"version": 1
			}
		}
	}
}