{
	"contracts/HACHIWallet.sol": {
		"HachiWallet": {
			"abi": [
				{
					"inputs": [
						{
							"internalType": "address[]",
							"name": "_address",
							"type": "address[]"
						},
						{
							"internalType": "uint256[]",
							"name": "_shares",
							"type": "uint256[]"
						}
					],
					"stateMutability": "nonpayable",
					"type": "constructor"
				},
				{
					"anonymous": false,
					"inputs": [
						{
							"indexed": true,
							"internalType": "contract IERC20",
							"name": "token",
							"type": "address"
						},
						{
							"indexed": false,
							"internalType": "address",
							"name": "to",
							"type": "address"
						},
						{
							"indexed": false,
							"internalType": "uint256",
							"name": "amount",
							"type": "uint256"
						}
					],
					"name": "ERC20PaymentReleased",
					"type": "event"
				},
				{
					"anonymous": false,
					"inputs": [
						{
							"indexed": false,
							"internalType": "address",
							"name": "account",
							"type": "address"
						},
						{
							"indexed": false,
							"internalType": "uint256",
							"name": "shares",
							"type": "uint256"
						}
					],
					"name": "PayeeAdded",
					"type": "event"
				},
				{
					"anonymous": false,
					"inputs": [
						{
							"indexed": false,
							"internalType": "address",
							"name": "from",
							"type": "address"
						},
						{
							"indexed": false,
							"internalType": "uint256",
							"name": "amount",
							"type": "uint256"
						}
					],
					"name": "PaymentReceived",
					"type": "event"
				},
				{
					"anonymous": false,
					"inputs": [
						{
							"indexed": false,
							"internalType": "address",
							"name": "to",
							"type": "address"
						},
						{
							"indexed": false,
							"internalType": "uint256",
							"name": "amount",
							"type": "uint256"
						}
					],
					"name": "PaymentReleased",
					"type": "event"
				},
				{
					"inputs": [
						{
							"internalType": "uint256",
							"name": "index",
							"type": "uint256"
						}
					],
					"name": "payee",
					"outputs": [
						{
							"internalType": "address",
							"name": "",
							"type": "address"
						}
					],
					"stateMutability": "view",
					"type": "function"
				},
				{
					"inputs": [
						{
							"internalType": "address payable",
							"name": "account",
							"type": "address"
						}
					],
					"name": "release",
					"outputs": [],
					"stateMutability": "nonpayable",
					"type": "function"
				},
				{
					"inputs": [
						{
							"internalType": "contract IERC20",
							"name": "token",
							"type": "address"
						},
						{
							"internalType": "address",
							"name": "account",
							"type": "address"
						}
					],
					"name": "release",
					"outputs": [],
					"stateMutability": "nonpayable",
					"type": "function"
				},
				{
					"inputs": [
						{
							"internalType": "contract IERC20",
							"name": "token",
							"type": "address"
						},
						{
							"internalType": "address",
							"name": "account",
							"type": "address"
						}
					],
					"name": "released",
					"outputs": [
						{
							"internalType": "uint256",
							"name": "",
							"type": "uint256"
						}
					],
					"stateMutability": "view",
					"type": "function"
				},
				{
					"inputs": [
						{
							"internalType": "address",
							"name": "account",
							"type": "address"
						}
					],
					"name": "released",
					"outputs": [
						{
							"internalType": "uint256",
							"name": "",
							"type": "uint256"
						}
					],
					"stateMutability": "view",
					"type": "function"
				},
				{
					"inputs": [
						{
							"internalType": "address",
							"name": "account",
							"type": "address"
						}
					],
					"name": "shares",
					"outputs": [
						{
							"internalType": "uint256",
							"name": "",
							"type": "uint256"
						}
					],
					"stateMutability": "view",
					"type": "function"
				},
				{
					"inputs": [
						{
							"internalType": "contract IERC20",
							"name": "token",
							"type": "address"
						}
					],
					"name": "totalReleased",
					"outputs": [
						{
							"internalType": "uint256",
							"name": "",
							"type": "uint256"
						}
					],
					"stateMutability": "view",
					"type": "function"
				},
				{
					"inputs": [],
					"name": "totalReleased",
					"outputs": [
						{
							"internalType": "uint256",
							"name": "",
							"type": "uint256"
						}
					],
					"stateMutability": "view",
					"type": "function"
				},
				{
					"inputs": [],
					"name": "totalShares",
					"outputs": [
						{
							"internalType": "uint256",
							"name": "",
							"type": "uint256"
						}
					],
					"stateMutability": "view",
					"type": "function"
				},
				{
					"stateMutability": "payable",
					"type": "receive"
				}
			],
			"devdoc": {
				"kind": "dev",
				"methods": {
					"payee(uint256)": {
						"details": "Getter for the address of the payee number `index`."
					},
					"release(address)": {
						"details": "Triggers a transfer to `account` of the amount of Ether they are owed, according to their percentage of the total shares and their previous withdrawals."
					},
					"release(address,address)": {
						"details": "Triggers a transfer to `account` of the amount of `token` tokens they are owed, according to their percentage of the total shares and their previous withdrawals. `token` must be the address of an IERC20 contract."
					},
					"released(address)": {
						"details": "Getter for the amount of Ether already released to a payee."
					},
					"released(address,address)": {
						"details": "Getter for the amount of `token` tokens already released to a payee. `token` should be the address of an IERC20 contract."
					},
					"shares(address)": {
						"details": "Getter for the amount of shares held by an account."
					},
					"totalReleased()": {
						"details": "Getter for the total amount of Ether already released."
					},
					"totalReleased(address)": {
						"details": "Getter for the total amount of `token` already released. `token` should be the address of an IERC20 contract."
					},
					"totalShares()": {
						"details": "Getter for the total shares held by payees."
					}
				},
				"version": 1
			},
			"evm": {
				"assembly": "    /* \"contracts/HACHIWallet.sol\":122:306  contract HachiWallet is PaymentSplitter {... */\n  mstore(0x40, 0x80)\n    /* \"contracts/HACHIWallet.sol\":169:304  constructor(... */\n  callvalue\n  dup1\n  iszero\n  tag_1\n  jumpi\n  0x00\n  dup1\n  revert\ntag_1:\n  pop\n  mload(0x40)\n  sub(codesize, bytecodeSize)\n  dup1\n  bytecodeSize\n  dup4\n  codecopy\n  dup2\n  add\n  0x40\n  dup2\n  swap1\n  mstore\n  tag_2\n  swap2\n  tag_3\n  jump\t// in\ntag_2:\n    /* \"contracts/HACHIWallet.sol\":278:286  _address */\n  dup2\n    /* \"contracts/HACHIWallet.sol\":288:295  _shares */\n  dup2\n    /* \"@openzeppelin/contracts/finance/PaymentSplitter.sol\":2434:2441  shares_ */\n  dup1\n    /* \"@openzeppelin/contracts/finance/PaymentSplitter.sol\":2434:2448  shares_.length */\n  mload\n    /* \"@openzeppelin/contracts/finance/PaymentSplitter.sol\":2417:2423  payees */\n  dup3\n    /* \"@openzeppelin/contracts/finance/PaymentSplitter.sol\":2417:2430  payees.length */\n  mload\n    /* \"@openzeppelin/contracts/finance/PaymentSplitter.sol\":2417:2448  payees.length == shares_.length */\n  eq\n    /* \"@openzeppelin/contracts/finance/PaymentSplitter.sol\":2409:2503  require(payees.length == shares_.length, \"PaymentSplitter: payees and shares length mismatch\") */\n  tag_7\n  jumpi\n  mload(0x40)\n  shl(0xe5, 0x461bcd)\n  dup2\n  mstore\n    /* \"#utility.yul\":2803:2805   */\n  0x20\n    /* \"@openzeppelin/contracts/finance/PaymentSplitter.sol\":2409:2503  require(payees.length == shares_.length, \"PaymentSplitter: payees and shares length mismatch\") */\n  0x04\n  dup3\n  add\n    /* \"#utility.yul\":2785:2806   */\n  mstore\n    /* \"#utility.yul\":2842:2844   */\n  0x32\n    /* \"#utility.yul\":2822:2840   */\n  0x24\n  dup3\n  add\n    /* \"#utility.yul\":2815:2845   */\n  mstore\n    /* \"#utility.yul\":2881:2915   */\n  0x5061796d656e7453706c69747465723a2070617965657320616e642073686172\n    /* \"#utility.yul\":2861:2879   */\n  0x44\n  dup3\n  add\n    /* \"#utility.yul\":2854:2916   */\n  mstore\n  shl(0x73, 0x0cae640d8cadccee8d040dad2e6dac2e8c6d)\n    /* \"#utility.yul\":2932:2950   */\n  0x64\n  dup3\n  add\n    /* \"#utility.yul\":2925:2973   */\n  mstore\n    /* \"#utility.yul\":2990:3009   */\n  0x84\n  add\n    /* \"@openzeppelin/contracts/finance/PaymentSplitter.sol\":2409:2503  require(payees.length == shares_.length, \"PaymentSplitter: payees and shares length mismatch\") */\ntag_8:\n  mload(0x40)\n  dup1\n  swap2\n  sub\n  swap1\n  revert\ntag_7:\n    /* \"@openzeppelin/contracts/finance/PaymentSplitter.sol\":2537:2538  0 */\n  0x00\n    /* \"@openzeppelin/contracts/finance/PaymentSplitter.sol\":2521:2527  payees */\n  dup3\n    /* \"@openzeppelin/contracts/finance/PaymentSplitter.sol\":2521:2534  payees.length */\n  mload\n    /* \"@openzeppelin/contracts/finance/PaymentSplitter.sol\":2521:2538  payees.length > 0 */\n  gt\n    /* \"@openzeppelin/contracts/finance/PaymentSplitter.sol\":2513:2569  require(payees.length > 0, \"PaymentSplitter: no payees\") */\n  tag_10\n  jumpi\n  mload(0x40)\n  shl(0xe5, 0x461bcd)\n  dup2\n  mstore\n    /* \"#utility.yul\":3222:3224   */\n  0x20\n    /* \"@openzeppelin/contracts/finance/PaymentSplitter.sol\":2513:2569  require(payees.length > 0, \"PaymentSplitter: no payees\") */\n  0x04\n  dup3\n  add\n    /* \"#utility.yul\":3204:3225   */\n  mstore\n    /* \"#utility.yul\":3261:3263   */\n  0x1a\n    /* \"#utility.yul\":3241:3259   */\n  0x24\n  dup3\n  add\n    /* \"#utility.yul\":3234:3264   */\n  mstore\n    /* \"#utility.yul\":3300:3328   */\n  0x5061796d656e7453706c69747465723a206e6f20706179656573000000000000\n    /* \"#utility.yul\":3280:3298   */\n  0x44\n  dup3\n  add\n    /* \"#utility.yul\":3273:3329   */\n  mstore\n    /* \"#utility.yul\":3346:3364   */\n  0x64\n  add\n    /* \"@openzeppelin/contracts/finance/PaymentSplitter.sol\":2513:2569  require(payees.length > 0, \"PaymentSplitter: no payees\") */\n  tag_8\n    /* \"#utility.yul\":3020:3370   */\n  jump\n    /* \"@openzeppelin/contracts/finance/PaymentSplitter.sol\":2513:2569  require(payees.length > 0, \"PaymentSplitter: no payees\") */\ntag_10:\n    /* \"@openzeppelin/contracts/finance/PaymentSplitter.sol\":2585:2594  uint256 i */\n  0x00\n    /* \"@openzeppelin/contracts/finance/PaymentSplitter.sol\":2580:2681  for (uint256 i = 0; i < payees.length; i++) {... */\ntag_13:\n    /* \"@openzeppelin/contracts/finance/PaymentSplitter.sol\":2604:2610  payees */\n  dup3\n    /* \"@openzeppelin/contracts/finance/PaymentSplitter.sol\":2604:2617  payees.length */\n  mload\n    /* \"@openzeppelin/contracts/finance/PaymentSplitter.sol\":2600:2601  i */\n  dup2\n    /* \"@openzeppelin/contracts/finance/PaymentSplitter.sol\":2600:2617  i < payees.length */\n  lt\n    /* \"@openzeppelin/contracts/finance/PaymentSplitter.sol\":2580:2681  for (uint256 i = 0; i < payees.length; i++) {... */\n  iszero\n  tag_14\n  jumpi\n    /* \"@openzeppelin/contracts/finance/PaymentSplitter.sol\":2638:2670  _addPayee(payees[i], shares_[i]) */\n  tag_16\n    /* \"@openzeppelin/contracts/finance/PaymentSplitter.sol\":2648:2654  payees */\n  dup4\n    /* \"@openzeppelin/contracts/finance/PaymentSplitter.sol\":2655:2656  i */\n  dup3\n    /* \"@openzeppelin/contracts/finance/PaymentSplitter.sol\":2648:2657  payees[i] */\n  dup2\n  mload\n  dup2\n  lt\n  tag_18\n  jumpi\n  tag_18\n  tag_19\n  jump\t// in\ntag_18:\n  0x20\n  mul\n  0x20\n  add\n  add\n  mload\n    /* \"@openzeppelin/contracts/finance/PaymentSplitter.sol\":2659:2666  shares_ */\n  dup4\n    /* \"@openzeppelin/contracts/finance/PaymentSplitter.sol\":2667:2668  i */\n  dup4\n    /* \"@openzeppelin/contracts/finance/PaymentSplitter.sol\":2659:2669  shares_[i] */\n  dup2\n  mload\n  dup2\n  lt\n  tag_21\n  jumpi\n  tag_21\n  tag_19\n  jump\t// in\ntag_21:\n  0x20\n  mul\n  0x20\n  add\n  add\n  mload\n    /* \"@openzeppelin/contracts/finance/PaymentSplitter.sol\":2638:2647  _addPayee */\n  shl(0x20, tag_22)\n    /* \"@openzeppelin/contracts/finance/PaymentSplitter.sol\":2638:2670  _addPayee(payees[i], shares_[i]) */\n  0x20\n  shr\n  jump\t// in\ntag_16:\n    /* \"@openzeppelin/contracts/finance/PaymentSplitter.sol\":2619:2622  i++ */\n  dup1\n  tag_23\n  dup2\n  tag_24\n  jump\t// in\ntag_23:\n  swap2\n  pop\n  pop\n    /* \"@openzeppelin/contracts/finance/PaymentSplitter.sol\":2580:2681  for (uint256 i = 0; i < payees.length; i++) {... */\n  jump(tag_13)\ntag_14:\n  pop\n    /* \"@openzeppelin/contracts/finance/PaymentSplitter.sol\":2328:2687  constructor(address[] memory payees, uint256[] memory shares_) payable {... */\n  pop\n  pop\n    /* \"contracts/HACHIWallet.sol\":169:304  constructor(... */\n  pop\n  pop\n    /* \"contracts/HACHIWallet.sol\":122:306  contract HachiWallet is PaymentSplitter {... */\n  jump(tag_47)\n    /* \"@openzeppelin/contracts/finance/PaymentSplitter.sol\":7018:7482  function _addPayee(address account, uint256 shares_) private {... */\ntag_22:\n  sub(shl(0xa0, 0x01), 0x01)\n    /* \"@openzeppelin/contracts/finance/PaymentSplitter.sol\":7097:7118  account != address(0) */\n  dup3\n  and\n    /* \"@openzeppelin/contracts/finance/PaymentSplitter.sol\":7089:7167  require(account != address(0), \"PaymentSplitter: account is the zero address\") */\n  tag_28\n  jumpi\n  mload(0x40)\n  shl(0xe5, 0x461bcd)\n  dup2\n  mstore\n    /* \"#utility.yul\":3981:3983   */\n  0x20\n    /* \"@openzeppelin/contracts/finance/PaymentSplitter.sol\":7089:7167  require(account != address(0), \"PaymentSplitter: account is the zero address\") */\n  0x04\n  dup3\n  add\n    /* \"#utility.yul\":3963:3984   */\n  mstore\n    /* \"#utility.yul\":4020:4022   */\n  0x2c\n    /* \"#utility.yul\":4000:4018   */\n  0x24\n  dup3\n  add\n    /* \"#utility.yul\":3993:4023   */\n  mstore\n    /* \"#utility.yul\":4059:4093   */\n  0x5061796d656e7453706c69747465723a206163636f756e742069732074686520\n    /* \"#utility.yul\":4039:4057   */\n  0x44\n  dup3\n  add\n    /* \"#utility.yul\":4032:4094   */\n  mstore\n  shl(0xa0, 0x7a65726f2061646472657373)\n    /* \"#utility.yul\":4110:4128   */\n  0x64\n  dup3\n  add\n    /* \"#utility.yul\":4103:4145   */\n  mstore\n    /* \"#utility.yul\":4162:4181   */\n  0x84\n  add\n    /* \"@openzeppelin/contracts/finance/PaymentSplitter.sol\":7089:7167  require(account != address(0), \"PaymentSplitter: account is the zero address\") */\n  tag_8\n    /* \"#utility.yul\":3779:4187   */\n  jump\n    /* \"@openzeppelin/contracts/finance/PaymentSplitter.sol\":7089:7167  require(account != address(0), \"PaymentSplitter: account is the zero address\") */\ntag_28:\n    /* \"@openzeppelin/contracts/finance/PaymentSplitter.sol\":7195:7196  0 */\n  0x00\n    /* \"@openzeppelin/contracts/finance/PaymentSplitter.sol\":7185:7192  shares_ */\n  dup2\n    /* \"@openzeppelin/contracts/finance/PaymentSplitter.sol\":7185:7196  shares_ > 0 */\n  gt\n    /* \"@openzeppelin/contracts/finance/PaymentSplitter.sol\":7177:7230  require(shares_ > 0, \"PaymentSplitter: shares are 0\") */\n  tag_31\n  jumpi\n  mload(0x40)\n  shl(0xe5, 0x461bcd)\n  dup2\n  mstore\n    /* \"#utility.yul\":4394:4396   */\n  0x20\n    /* \"@openzeppelin/contracts/finance/PaymentSplitter.sol\":7177:7230  require(shares_ > 0, \"PaymentSplitter: shares are 0\") */\n  0x04\n  dup3\n  add\n    /* \"#utility.yul\":4376:4397   */\n  mstore\n    /* \"#utility.yul\":4433:4435   */\n  0x1d\n    /* \"#utility.yul\":4413:4431   */\n  0x24\n  dup3\n  add\n    /* \"#utility.yul\":4406:4436   */\n  mstore\n    /* \"#utility.yul\":4472:4503   */\n  0x5061796d656e7453706c69747465723a20736861726573206172652030000000\n    /* \"#utility.yul\":4452:4470   */\n  0x44\n  dup3\n  add\n    /* \"#utility.yul\":4445:4504   */\n  mstore\n    /* \"#utility.yul\":4521:4539   */\n  0x64\n  add\n    /* \"@openzeppelin/contracts/finance/PaymentSplitter.sol\":7177:7230  require(shares_ > 0, \"PaymentSplitter: shares are 0\") */\n  tag_8\n    /* \"#utility.yul\":4192:4545   */\n  jump\n    /* \"@openzeppelin/contracts/finance/PaymentSplitter.sol\":7177:7230  require(shares_ > 0, \"PaymentSplitter: shares are 0\") */\ntag_31:\n  sub(shl(0xa0, 0x01), 0x01)\n    /* \"@openzeppelin/contracts/finance/PaymentSplitter.sol\":7248:7264  _shares[account] */\n  dup3\n  and\n  0x00\n  swap1\n  dup2\n  mstore\n    /* \"@openzeppelin/contracts/finance/PaymentSplitter.sol\":7248:7255  _shares */\n  0x02\n    /* \"@openzeppelin/contracts/finance/PaymentSplitter.sol\":7248:7264  _shares[account] */\n  0x20\n  mstore\n  0x40\n  swap1\n  keccak256\n  sload\n    /* \"@openzeppelin/contracts/finance/PaymentSplitter.sol\":7248:7269  _shares[account] == 0 */\n  iszero\n    /* \"@openzeppelin/contracts/finance/PaymentSplitter.sol\":7240:7317  require(_shares[account] == 0, \"PaymentSplitter: account already has shares\") */\n  tag_34\n  jumpi\n  mload(0x40)\n  shl(0xe5, 0x461bcd)\n  dup2\n  mstore\n    /* \"#utility.yul\":4752:4754   */\n  0x20\n    /* \"@openzeppelin/contracts/finance/PaymentSplitter.sol\":7240:7317  require(_shares[account] == 0, \"PaymentSplitter: account already has shares\") */\n  0x04\n  dup3\n  add\n    /* \"#utility.yul\":4734:4755   */\n  mstore\n    /* \"#utility.yul\":4791:4793   */\n  0x2b\n    /* \"#utility.yul\":4771:4789   */\n  0x24\n  dup3\n  add\n    /* \"#utility.yul\":4764:4794   */\n  mstore\n    /* \"#utility.yul\":4830:4864   */\n  0x5061796d656e7453706c69747465723a206163636f756e7420616c7265616479\n    /* \"#utility.yul\":4810:4828   */\n  0x44\n  dup3\n  add\n    /* \"#utility.yul\":4803:4865   */\n  mstore\n  shl(0xa8, 0x2068617320736861726573)\n    /* \"#utility.yul\":4881:4899   */\n  0x64\n  dup3\n  add\n    /* \"#utility.yul\":4874:4915   */\n  mstore\n    /* \"#utility.yul\":4932:4951   */\n  0x84\n  add\n    /* \"@openzeppelin/contracts/finance/PaymentSplitter.sol\":7240:7317  require(_shares[account] == 0, \"PaymentSplitter: account already has shares\") */\n  tag_8\n    /* \"#utility.yul\":4550:4957   */\n  jump\n    /* \"@openzeppelin/contracts/finance/PaymentSplitter.sol\":7240:7317  require(_shares[account] == 0, \"PaymentSplitter: account already has shares\") */\ntag_34:\n    /* \"@openzeppelin/contracts/finance/PaymentSplitter.sol\":7328:7335  _payees */\n  0x04\n    /* \"@openzeppelin/contracts/finance/PaymentSplitter.sol\":7328:7349  _payees.push(account) */\n  dup1\n  sload\n  0x01\n  dup2\n  add\n  swap1\n  swap2\n  sstore\n  0x8a35acfbc15ff81a39ae7d344fd709f28e8600b4aa8c65c6b64bfe7fe36bd19b\n  add\n  dup1\n  sload\n  not(sub(shl(0xa0, 0x01), 0x01))\n  and\n  sub(shl(0xa0, 0x01), 0x01)\n  dup5\n  and\n  swap1\n  dup2\n  or\n  swap1\n  swap2\n  sstore\n  0x00\n    /* \"@openzeppelin/contracts/finance/PaymentSplitter.sol\":7359:7375  _shares[account] */\n  swap1\n  dup2\n  mstore\n    /* \"@openzeppelin/contracts/finance/PaymentSplitter.sol\":7359:7366  _shares */\n  0x02\n    /* \"@openzeppelin/contracts/finance/PaymentSplitter.sol\":7328:7349  _payees.push(account) */\n  0x20\n    /* \"@openzeppelin/contracts/finance/PaymentSplitter.sol\":7359:7375  _shares[account] */\n  mstore\n  0x40\n  dup2\n  keccak256\n    /* \"@openzeppelin/contracts/finance/PaymentSplitter.sol\":7359:7385  _shares[account] = shares_ */\n  dup3\n  swap1\n  sstore\n    /* \"@openzeppelin/contracts/finance/PaymentSplitter.sol\":7410:7422  _totalShares */\n  sload\n    /* \"@openzeppelin/contracts/finance/PaymentSplitter.sol\":7410:7432  _totalShares + shares_ */\n  tag_38\n  swap1\n    /* \"@openzeppelin/contracts/finance/PaymentSplitter.sol\":7359:7385  _shares[account] = shares_ */\n  dup3\n  swap1\n    /* \"@openzeppelin/contracts/finance/PaymentSplitter.sol\":7410:7432  _totalShares + shares_ */\n  tag_39\n  jump\t// in\ntag_38:\n    /* \"@openzeppelin/contracts/finance/PaymentSplitter.sol\":7395:7407  _totalShares */\n  0x00\n    /* \"@openzeppelin/contracts/finance/PaymentSplitter.sol\":7395:7432  _totalShares = _totalShares + shares_ */\n  sstore\n    /* \"@openzeppelin/contracts/finance/PaymentSplitter.sol\":7447:7475  PayeeAdded(account, shares_) */\n  0x40\n  dup1\n  mload\n  sub(shl(0xa0, 0x01), 0x01)\n    /* \"#utility.yul\":5287:5319   */\n  dup5\n  and\n    /* \"#utility.yul\":5269:5320   */\n  dup2\n  mstore\n    /* \"#utility.yul\":5351:5353   */\n  0x20\n    /* \"#utility.yul\":5336:5354   */\n  dup2\n  add\n    /* \"#utility.yul\":5329:5363   */\n  dup4\n  swap1\n  mstore\n    /* \"@openzeppelin/contracts/finance/PaymentSplitter.sol\":7447:7475  PayeeAdded(account, shares_) */\n  0x40c340f65e17194d14ddddb073d3c9f888e3cb52b5aae0c6c7706b4fbc905fac\n  swap2\n    /* \"#utility.yul\":5242:5260   */\n  add\n    /* \"@openzeppelin/contracts/finance/PaymentSplitter.sol\":7447:7475  PayeeAdded(account, shares_) */\n  mload(0x40)\n  dup1\n  swap2\n  sub\n  swap1\n  log1\n    /* \"@openzeppelin/contracts/finance/PaymentSplitter.sol\":7018:7482  function _addPayee(address account, uint256 shares_) private {... */\n  pop\n  pop\n  jump\t// out\n    /* \"#utility.yul\":14:141   */\ntag_42:\n    /* \"#utility.yul\":75:85   */\n  0x4e487b71\n    /* \"#utility.yul\":70:73   */\n  0xe0\n    /* \"#utility.yul\":66:86   */\n  shl\n    /* \"#utility.yul\":63:64   */\n  0x00\n    /* \"#utility.yul\":56:87   */\n  mstore\n    /* \"#utility.yul\":106:110   */\n  0x41\n    /* \"#utility.yul\":103:104   */\n  0x04\n    /* \"#utility.yul\":96:111   */\n  mstore\n    /* \"#utility.yul\":130:134   */\n  0x24\n    /* \"#utility.yul\":127:128   */\n  0x00\n    /* \"#utility.yul\":120:135   */\n  revert\n    /* \"#utility.yul\":146:421   */\ntag_43:\n    /* \"#utility.yul\":217:219   */\n  0x40\n    /* \"#utility.yul\":211:220   */\n  mload\n    /* \"#utility.yul\":282:284   */\n  0x1f\n    /* \"#utility.yul\":263:276   */\n  dup3\n  add\n  not(0x1f)\n    /* \"#utility.yul\":259:286   */\n  and\n    /* \"#utility.yul\":247:287   */\n  dup2\n  add\n  sub(shl(0x40, 0x01), 0x01)\n    /* \"#utility.yul\":302:336   */\n  dup2\n  gt\n    /* \"#utility.yul\":338:360   */\n  dup3\n  dup3\n  lt\n    /* \"#utility.yul\":299:361   */\n  or\n    /* \"#utility.yul\":296:384   */\n  iszero\n  tag_51\n  jumpi\n    /* \"#utility.yul\":364:382   */\n  tag_51\n  tag_42\n  jump\t// in\ntag_51:\n    /* \"#utility.yul\":400:402   */\n  0x40\n    /* \"#utility.yul\":393:415   */\n  mstore\n    /* \"#utility.yul\":146:421   */\n  swap2\n  swap1\n  pop\n  jump\t// out\n    /* \"#utility.yul\":426:609   */\ntag_44:\n    /* \"#utility.yul\":486:490   */\n  0x00\n  sub(shl(0x40, 0x01), 0x01)\n    /* \"#utility.yul\":508:538   */\n  dup3\n  gt\n    /* \"#utility.yul\":505:561   */\n  iszero\n  tag_54\n  jumpi\n    /* \"#utility.yul\":541:559   */\n  tag_54\n  tag_42\n  jump\t// in\ntag_54:\n  pop\n    /* \"#utility.yul\":586:587   */\n  0x05\n    /* \"#utility.yul\":582:596   */\n  shl\n    /* \"#utility.yul\":598:602   */\n  0x20\n    /* \"#utility.yul\":578:603   */\n  add\n  swap1\n    /* \"#utility.yul\":426:609   */\n  jump\t// out\n    /* \"#utility.yul\":614:1273   */\ntag_45:\n    /* \"#utility.yul\":679:684   */\n  0x00\n    /* \"#utility.yul\":732:735   */\n  dup3\n    /* \"#utility.yul\":725:729   */\n  0x1f\n    /* \"#utility.yul\":717:723   */\n  dup4\n    /* \"#utility.yul\":713:730   */\n  add\n    /* \"#utility.yul\":709:736   */\n  slt\n    /* \"#utility.yul\":699:754   */\n  tag_56\n  jumpi\n    /* \"#utility.yul\":750:751   */\n  0x00\n    /* \"#utility.yul\":747:748   */\n  dup1\n    /* \"#utility.yul\":740:752   */\n  revert\n    /* \"#utility.yul\":699:754   */\ntag_56:\n    /* \"#utility.yul\":779:785   */\n  dup2\n    /* \"#utility.yul\":773:786   */\n  mload\n    /* \"#utility.yul\":805:809   */\n  0x20\n    /* \"#utility.yul\":829:889   */\n  tag_57\n    /* \"#utility.yul\":845:888   */\n  tag_58\n    /* \"#utility.yul\":885:887   */\n  dup4\n    /* \"#utility.yul\":845:888   */\n  tag_44\n  jump\t// in\ntag_58:\n    /* \"#utility.yul\":829:889   */\n  tag_43\n  jump\t// in\ntag_57:\n    /* \"#utility.yul\":923:938   */\n  dup3\n  dup2\n  mstore\n    /* \"#utility.yul\":1009:1010   */\n  0x05\n    /* \"#utility.yul\":1005:1015   */\n  swap3\n  swap1\n  swap3\n  shl\n    /* \"#utility.yul\":993:1016   */\n  dup5\n  add\n    /* \"#utility.yul\":989:1021   */\n  dup2\n  add\n  swap2\n    /* \"#utility.yul\":954:966   */\n  dup2\n  dup2\n  add\n  swap1\n    /* \"#utility.yul\":1033:1048   */\n  dup7\n  dup5\n  gt\n    /* \"#utility.yul\":1030:1065   */\n  iszero\n  tag_59\n  jumpi\n    /* \"#utility.yul\":1061:1062   */\n  0x00\n    /* \"#utility.yul\":1058:1059   */\n  dup1\n    /* \"#utility.yul\":1051:1063   */\n  revert\n    /* \"#utility.yul\":1030:1065   */\ntag_59:\n    /* \"#utility.yul\":1097:1099   */\n  dup3\n    /* \"#utility.yul\":1089:1095   */\n  dup7\n    /* \"#utility.yul\":1085:1100   */\n  add\n    /* \"#utility.yul\":1109:1244   */\ntag_60:\n    /* \"#utility.yul\":1125:1131   */\n  dup5\n    /* \"#utility.yul\":1120:1123   */\n  dup2\n    /* \"#utility.yul\":1117:1132   */\n  lt\n    /* \"#utility.yul\":1109:1244   */\n  iszero\n  tag_62\n  jumpi\n    /* \"#utility.yul\":1191:1201   */\n  dup1\n  mload\n    /* \"#utility.yul\":1179:1202   */\n  dup4\n  mstore\n    /* \"#utility.yul\":1222:1234   */\n  swap2\n  dup4\n  add\n  swap2\n    /* \"#utility.yul\":1142:1154   */\n  dup4\n  add\n    /* \"#utility.yul\":1109:1244   */\n  jump(tag_60)\ntag_62:\n  pop\n    /* \"#utility.yul\":1262:1267   */\n  swap7\n    /* \"#utility.yul\":614:1273   */\n  swap6\n  pop\n  pop\n  pop\n  pop\n  pop\n  pop\n  jump\t// out\n    /* \"#utility.yul\":1278:2596   */\ntag_3:\n    /* \"#utility.yul\":1407:1413   */\n  0x00\n    /* \"#utility.yul\":1415:1421   */\n  dup1\n    /* \"#utility.yul\":1468:1470   */\n  0x40\n    /* \"#utility.yul\":1456:1465   */\n  dup4\n    /* \"#utility.yul\":1447:1454   */\n  dup6\n    /* \"#utility.yul\":1443:1466   */\n  sub\n    /* \"#utility.yul\":1439:1471   */\n  slt\n    /* \"#utility.yul\":1436:1488   */\n  iszero\n  tag_64\n  jumpi\n    /* \"#utility.yul\":1484:1485   */\n  0x00\n    /* \"#utility.yul\":1481:1482   */\n  dup1\n    /* \"#utility.yul\":1474:1486   */\n  revert\n    /* \"#utility.yul\":1436:1488   */\ntag_64:\n    /* \"#utility.yul\":1511:1527   */\n  dup3\n  mload\n  sub(shl(0x40, 0x01), 0x01)\n    /* \"#utility.yul\":1576:1590   */\n  dup1\n  dup3\n  gt\n    /* \"#utility.yul\":1573:1607   */\n  iszero\n  tag_65\n  jumpi\n    /* \"#utility.yul\":1603:1604   */\n  0x00\n    /* \"#utility.yul\":1600:1601   */\n  dup1\n    /* \"#utility.yul\":1593:1605   */\n  revert\n    /* \"#utility.yul\":1573:1607   */\ntag_65:\n    /* \"#utility.yul\":1641:1647   */\n  dup2\n    /* \"#utility.yul\":1630:1639   */\n  dup6\n    /* \"#utility.yul\":1626:1648   */\n  add\n    /* \"#utility.yul\":1616:1648   */\n  swap2\n  pop\n    /* \"#utility.yul\":1686:1693   */\n  dup6\n    /* \"#utility.yul\":1679:1683   */\n  0x1f\n    /* \"#utility.yul\":1675:1677   */\n  dup4\n    /* \"#utility.yul\":1671:1684   */\n  add\n    /* \"#utility.yul\":1667:1694   */\n  slt\n    /* \"#utility.yul\":1657:1712   */\n  tag_66\n  jumpi\n    /* \"#utility.yul\":1708:1709   */\n  0x00\n    /* \"#utility.yul\":1705:1706   */\n  dup1\n    /* \"#utility.yul\":1698:1710   */\n  revert\n    /* \"#utility.yul\":1657:1712   */\ntag_66:\n    /* \"#utility.yul\":1737:1739   */\n  dup2\n    /* \"#utility.yul\":1731:1740   */\n  mload\n    /* \"#utility.yul\":1759:1763   */\n  0x20\n    /* \"#utility.yul\":1783:1843   */\n  tag_67\n    /* \"#utility.yul\":1799:1842   */\n  tag_58\n    /* \"#utility.yul\":1839:1841   */\n  dup4\n    /* \"#utility.yul\":1799:1842   */\n  tag_44\n  jump\t// in\n    /* \"#utility.yul\":1783:1843   */\ntag_67:\n    /* \"#utility.yul\":1877:1892   */\n  dup3\n  dup2\n  mstore\n    /* \"#utility.yul\":1959:1960   */\n  0x05\n    /* \"#utility.yul\":1955:1965   */\n  swap3\n  swap1\n  swap3\n  shl\n    /* \"#utility.yul\":1947:1966   */\n  dup5\n  add\n    /* \"#utility.yul\":1943:1971   */\n  dup2\n  add\n  swap2\n    /* \"#utility.yul\":1908:1920   */\n  dup2\n  dup2\n  add\n  swap1\n    /* \"#utility.yul\":1983:2002   */\n  dup10\n  dup5\n  gt\n    /* \"#utility.yul\":1980:2019   */\n  iszero\n  tag_69\n  jumpi\n    /* \"#utility.yul\":2015:2016   */\n  0x00\n    /* \"#utility.yul\":2012:2013   */\n  dup1\n    /* \"#utility.yul\":2005:2017   */\n  revert\n    /* \"#utility.yul\":1980:2019   */\ntag_69:\n    /* \"#utility.yul\":2039:2050   */\n  swap5\n  dup3\n  add\n  swap5\n    /* \"#utility.yul\":2059:2378   */\ntag_70:\n    /* \"#utility.yul\":2075:2081   */\n  dup4\n    /* \"#utility.yul\":2070:2073   */\n  dup7\n    /* \"#utility.yul\":2067:2082   */\n  lt\n    /* \"#utility.yul\":2059:2378   */\n  iszero\n  tag_72\n  jumpi\n    /* \"#utility.yul\":2142:2152   */\n  dup6\n  mload\n  sub(shl(0xa0, 0x01), 0x01)\n    /* \"#utility.yul\":2185:2216   */\n  dup2\n  and\n    /* \"#utility.yul\":2175:2217   */\n  dup2\n  eq\n    /* \"#utility.yul\":2165:2305   */\n  tag_73\n  jumpi\n    /* \"#utility.yul\":2259:2260   */\n  0x00\n    /* \"#utility.yul\":2288:2290   */\n  dup1\n    /* \"#utility.yul\":2284:2286   */\n  dup2\n    /* \"#utility.yul\":2277:2291   */\n  revert\n    /* \"#utility.yul\":2165:2305   */\ntag_73:\n    /* \"#utility.yul\":2318:2336   */\n  dup3\n  mstore\n    /* \"#utility.yul\":2092:2104   */\n  swap5\n  dup3\n  add\n  swap5\n    /* \"#utility.yul\":2356:2368   */\n  swap1\n  dup3\n  add\n  swap1\n    /* \"#utility.yul\":2059:2378   */\n  jump(tag_70)\ntag_72:\n    /* \"#utility.yul\":2433:2451   */\n  swap2\n  dup9\n  add\n    /* \"#utility.yul\":2427:2452   */\n  mload\n    /* \"#utility.yul\":2397:2402   */\n  swap2\n  swap7\n  pop\n    /* \"#utility.yul\":2427:2452   */\n  swap1\n  swap4\n  pop\n  pop\n  pop\n    /* \"#utility.yul\":2464:2480   */\n  dup1\n  dup3\n  gt\n    /* \"#utility.yul\":2461:2497   */\n  iszero\n  tag_74\n  jumpi\n    /* \"#utility.yul\":2493:2494   */\n  0x00\n    /* \"#utility.yul\":2490:2491   */\n  dup1\n    /* \"#utility.yul\":2483:2495   */\n  revert\n    /* \"#utility.yul\":2461:2497   */\ntag_74:\n  pop\n    /* \"#utility.yul\":2516:2590   */\n  tag_75\n    /* \"#utility.yul\":2582:2589   */\n  dup6\n    /* \"#utility.yul\":2571:2579   */\n  dup3\n    /* \"#utility.yul\":2560:2569   */\n  dup7\n    /* \"#utility.yul\":2556:2580   */\n  add\n    /* \"#utility.yul\":2516:2590   */\n  tag_45\n  jump\t// in\ntag_75:\n    /* \"#utility.yul\":2506:2590   */\n  swap2\n  pop\n  pop\n    /* \"#utility.yul\":1278:2596   */\n  swap3\n  pop\n  swap3\n  swap1\n  pop\n  jump\t// out\n    /* \"#utility.yul\":3375:3502   */\ntag_19:\n    /* \"#utility.yul\":3436:3446   */\n  0x4e487b71\n    /* \"#utility.yul\":3431:3434   */\n  0xe0\n    /* \"#utility.yul\":3427:3447   */\n  shl\n    /* \"#utility.yul\":3424:3425   */\n  0x00\n    /* \"#utility.yul\":3417:3448   */\n  mstore\n    /* \"#utility.yul\":3467:3471   */\n  0x32\n    /* \"#utility.yul\":3464:3465   */\n  0x04\n    /* \"#utility.yul\":3457:3472   */\n  mstore\n    /* \"#utility.yul\":3491:3495   */\n  0x24\n    /* \"#utility.yul\":3488:3489   */\n  0x00\n    /* \"#utility.yul\":3481:3496   */\n  revert\n    /* \"#utility.yul\":3507:3634   */\ntag_46:\n    /* \"#utility.yul\":3568:3578   */\n  0x4e487b71\n    /* \"#utility.yul\":3563:3566   */\n  0xe0\n    /* \"#utility.yul\":3559:3579   */\n  shl\n    /* \"#utility.yul\":3556:3557   */\n  0x00\n    /* \"#utility.yul\":3549:3580   */\n  mstore\n    /* \"#utility.yul\":3599:3603   */\n  0x11\n    /* \"#utility.yul\":3596:3597   */\n  0x04\n    /* \"#utility.yul\":3589:3604   */\n  mstore\n    /* \"#utility.yul\":3623:3627   */\n  0x24\n    /* \"#utility.yul\":3620:3621   */\n  0x00\n    /* \"#utility.yul\":3613:3628   */\n  revert\n    /* \"#utility.yul\":3639:3774   */\ntag_24:\n    /* \"#utility.yul\":3678:3681   */\n  0x00\n    /* \"#utility.yul\":3699:3716   */\n  0x01\n  dup3\n  add\n    /* \"#utility.yul\":3696:3739   */\n  tag_82\n  jumpi\n    /* \"#utility.yul\":3719:3737   */\n  tag_82\n  tag_46\n  jump\t// in\ntag_82:\n  pop\n    /* \"#utility.yul\":3766:3767   */\n  0x01\n    /* \"#utility.yul\":3755:3768   */\n  add\n  swap1\n    /* \"#utility.yul\":3639:3774   */\n  jump\t// out\n    /* \"#utility.yul\":4962:5090   */\ntag_39:\n    /* \"#utility.yul\":5002:5005   */\n  0x00\n    /* \"#utility.yul\":5033:5034   */\n  dup3\n    /* \"#utility.yul\":5029:5035   */\n  not\n    /* \"#utility.yul\":5026:5027   */\n  dup3\n    /* \"#utility.yul\":5023:5036   */\n  gt\n    /* \"#utility.yul\":5020:5059   */\n  iszero\n  tag_88\n  jumpi\n    /* \"#utility.yul\":5039:5057   */\n  tag_88\n  tag_46\n  jump\t// in\ntag_88:\n  pop\n    /* \"#utility.yul\":5075:5084   */\n  add\n  swap1\n    /* \"#utility.yul\":4962:5090   */\n  jump\t// out\n    /* \"#utility.yul\":5095:5369   */\ntag_47:\n    /* \"contracts/HACHIWallet.sol\":122:306  contract HachiWallet is PaymentSplitter {... */\n  dataSize(sub_0)\n  dup1\n  dataOffset(sub_0)\n  0x00\n  codecopy\n  0x00\n  return\nstop\n\nsub_0: assembly {\n        /* \"contracts/HACHIWallet.sol\":122:306  contract HachiWallet is PaymentSplitter {... */\n      mstore(0x40, 0x80)\n      jumpi(tag_1, lt(calldatasize, 0x04))\n      shr(0xe0, calldataload(0x00))\n      dup1\n      0x8b83209b\n      gt\n      tag_12\n      jumpi\n      dup1\n      0x8b83209b\n      eq\n      tag_7\n      jumpi\n      dup1\n      0x9852595c\n      eq\n      tag_8\n      jumpi\n      dup1\n      0xce7c2ac2\n      eq\n      tag_9\n      jumpi\n      dup1\n      0xd79779b2\n      eq\n      tag_10\n      jumpi\n      dup1\n      0xe33b7de3\n      eq\n      tag_11\n      jumpi\n      0x00\n      dup1\n      revert\n    tag_12:\n      dup1\n      0x19165587\n      eq\n      tag_3\n      jumpi\n      dup1\n      0x3a98ef39\n      eq\n      tag_4\n      jumpi\n      dup1\n      0x406072a9\n      eq\n      tag_5\n      jumpi\n      dup1\n      0x48b75044\n      eq\n      tag_6\n      jumpi\n      0x00\n      dup1\n      revert\n    tag_1:\n      jumpi(tag_2, calldatasize)\n        /* \"@openzeppelin/contracts/finance/PaymentSplitter.sol\":3249:3289  PaymentReceived(_msgSender(), msg.value) */\n      0x6ef95f06320e7a25a04a175ca677b7052bdd97131872c2192525a629f51be770\n        /* \"@openzeppelin/contracts/utils/Context.sol\":719:729  msg.sender */\n      caller\n        /* \"@openzeppelin/contracts/finance/PaymentSplitter.sol\":3249:3289  PaymentReceived(_msgSender(), msg.value) */\n      0x40\n      dup1\n      mload\n      sub(shl(0xa0, 0x01), 0x01)\n        /* \"#utility.yul\":206:238   */\n      swap1\n      swap3\n      and\n        /* \"#utility.yul\":188:239   */\n      dup3\n      mstore\n        /* \"@openzeppelin/contracts/finance/PaymentSplitter.sol\":3279:3288  msg.value */\n      callvalue\n        /* \"#utility.yul\":270:272   */\n      0x20\n        /* \"#utility.yul\":255:273   */\n      dup4\n      add\n        /* \"#utility.yul\":248:282   */\n      mstore\n        /* \"#utility.yul\":161:179   */\n      add\n        /* \"@openzeppelin/contracts/finance/PaymentSplitter.sol\":3249:3289  PaymentReceived(_msgSender(), msg.value) */\n      mload(0x40)\n      dup1\n      swap2\n      sub\n      swap1\n      log1\n        /* \"contracts/HACHIWallet.sol\":122:306  contract HachiWallet is PaymentSplitter {... */\n      stop\n    tag_2:\n      0x00\n      dup1\n      revert\n        /* \"@openzeppelin/contracts/finance/PaymentSplitter.sol\":4977:5530  function release(address payable account) public virtual {... */\n    tag_3:\n      callvalue\n      dup1\n      iszero\n      tag_19\n      jumpi\n      0x00\n      dup1\n      revert\n    tag_19:\n      pop\n      tag_20\n      tag_21\n      calldatasize\n      0x04\n      tag_22\n      jump\t// in\n    tag_21:\n      tag_23\n      jump\t// in\n    tag_20:\n      stop\n        /* \"@openzeppelin/contracts/finance/PaymentSplitter.sol\":3374:3463  function totalShares() public view returns (uint256) {... */\n    tag_4:\n      callvalue\n      dup1\n      iszero\n      tag_24\n      jumpi\n      0x00\n      dup1\n      revert\n    tag_24:\n      pop\n        /* \"@openzeppelin/contracts/finance/PaymentSplitter.sol\":3418:3425  uint256 */\n      0x00\n        /* \"@openzeppelin/contracts/finance/PaymentSplitter.sol\":3444:3456  _totalShares */\n      sload\n        /* \"@openzeppelin/contracts/finance/PaymentSplitter.sol\":3374:3463  function totalShares() public view returns (uint256) {... */\n    tag_25:\n      mload(0x40)\n        /* \"#utility.yul\":851:876   */\n      swap1\n      dup2\n      mstore\n        /* \"#utility.yul\":839:841   */\n      0x20\n        /* \"#utility.yul\":824:842   */\n      add\n        /* \"@openzeppelin/contracts/finance/PaymentSplitter.sol\":3374:3463  function totalShares() public view returns (uint256) {... */\n    tag_27:\n      mload(0x40)\n      dup1\n      swap2\n      sub\n      swap1\n      return\n        /* \"@openzeppelin/contracts/finance/PaymentSplitter.sol\":4466:4599  function released(IERC20 token, address account) public view returns (uint256) {... */\n    tag_5:\n      callvalue\n      dup1\n      iszero\n      tag_29\n      jumpi\n      0x00\n      dup1\n      revert\n    tag_29:\n      pop\n      tag_25\n      tag_31\n      calldatasize\n      0x04\n      tag_32\n      jump\t// in\n    tag_31:\n      sub(shl(0xa0, 0x01), 0x01)\n        /* \"@openzeppelin/contracts/finance/PaymentSplitter.sol\":4562:4583  _erc20Released[token] */\n      swap2\n      dup3\n      and\n        /* \"@openzeppelin/contracts/finance/PaymentSplitter.sol\":4536:4543  uint256 */\n      0x00\n        /* \"@openzeppelin/contracts/finance/PaymentSplitter.sol\":4562:4583  _erc20Released[token] */\n      swap1\n      dup2\n      mstore\n        /* \"@openzeppelin/contracts/finance/PaymentSplitter.sol\":4562:4576  _erc20Released */\n      0x06\n        /* \"@openzeppelin/contracts/finance/PaymentSplitter.sol\":4562:4583  _erc20Released[token] */\n      0x20\n      swap1\n      dup2\n      mstore\n      0x40\n      dup1\n      dup4\n      keccak256\n        /* \"@openzeppelin/contracts/finance/PaymentSplitter.sol\":4562:4592  _erc20Released[token][account] */\n      swap4\n      swap1\n      swap5\n      and\n      dup3\n      mstore\n      swap2\n      swap1\n      swap2\n      mstore\n      keccak256\n      sload\n      swap1\n        /* \"@openzeppelin/contracts/finance/PaymentSplitter.sol\":4466:4599  function released(IERC20 token, address account) public view returns (uint256) {... */\n      jump\n        /* \"@openzeppelin/contracts/finance/PaymentSplitter.sol\":5791:6419  function release(IERC20 token, address account) public virtual {... */\n    tag_6:\n      callvalue\n      dup1\n      iszero\n      tag_35\n      jumpi\n      0x00\n      dup1\n      revert\n    tag_35:\n      pop\n      tag_20\n      tag_37\n      calldatasize\n      0x04\n      tag_32\n      jump\t// in\n    tag_37:\n      tag_38\n      jump\t// in\n        /* \"@openzeppelin/contracts/finance/PaymentSplitter.sol\":4685:4783  function payee(uint256 index) public view returns (address) {... */\n    tag_7:\n      callvalue\n      dup1\n      iszero\n      tag_39\n      jumpi\n      0x00\n      dup1\n      revert\n    tag_39:\n      pop\n      tag_40\n      tag_41\n      calldatasize\n      0x04\n      tag_42\n      jump\t// in\n    tag_41:\n      tag_43\n      jump\t// in\n    tag_40:\n      mload(0x40)\n      sub(shl(0xa0, 0x01), 0x01)\n        /* \"#utility.yul\":1659:1691   */\n      swap1\n      swap2\n      and\n        /* \"#utility.yul\":1641:1692   */\n      dup2\n      mstore\n        /* \"#utility.yul\":1629:1631   */\n      0x20\n        /* \"#utility.yul\":1614:1632   */\n      add\n        /* \"@openzeppelin/contracts/finance/PaymentSplitter.sol\":4685:4783  function payee(uint256 index) public view returns (address) {... */\n      tag_27\n        /* \"#utility.yul\":1495:1698   */\n      jump\n        /* \"@openzeppelin/contracts/finance/PaymentSplitter.sol\":4196:4303  function released(address account) public view returns (uint256) {... */\n    tag_8:\n      callvalue\n      dup1\n      iszero\n      tag_46\n      jumpi\n      0x00\n      dup1\n      revert\n    tag_46:\n      pop\n      tag_25\n      tag_48\n      calldatasize\n      0x04\n      tag_22\n      jump\t// in\n    tag_48:\n      sub(shl(0xa0, 0x01), 0x01)\n        /* \"@openzeppelin/contracts/finance/PaymentSplitter.sol\":4278:4296  _released[account] */\n      and\n        /* \"@openzeppelin/contracts/finance/PaymentSplitter.sol\":4252:4259  uint256 */\n      0x00\n        /* \"@openzeppelin/contracts/finance/PaymentSplitter.sol\":4278:4296  _released[account] */\n      swap1\n      dup2\n      mstore\n        /* \"@openzeppelin/contracts/finance/PaymentSplitter.sol\":4278:4287  _released */\n      0x03\n        /* \"@openzeppelin/contracts/finance/PaymentSplitter.sol\":4278:4296  _released[account] */\n      0x20\n      mstore\n      0x40\n      swap1\n      keccak256\n      sload\n      swap1\n        /* \"@openzeppelin/contracts/finance/PaymentSplitter.sol\":4196:4303  function released(address account) public view returns (uint256) {... */\n      jump\n        /* \"@openzeppelin/contracts/finance/PaymentSplitter.sol\":3999:4102  function shares(address account) public view returns (uint256) {... */\n    tag_9:\n      callvalue\n      dup1\n      iszero\n      tag_52\n      jumpi\n      0x00\n      dup1\n      revert\n    tag_52:\n      pop\n      tag_25\n      tag_54\n      calldatasize\n      0x04\n      tag_22\n      jump\t// in\n    tag_54:\n      sub(shl(0xa0, 0x01), 0x01)\n        /* \"@openzeppelin/contracts/finance/PaymentSplitter.sol\":4079:4095  _shares[account] */\n      and\n        /* \"@openzeppelin/contracts/finance/PaymentSplitter.sol\":4053:4060  uint256 */\n      0x00\n        /* \"@openzeppelin/contracts/finance/PaymentSplitter.sol\":4079:4095  _shares[account] */\n      swap1\n      dup2\n      mstore\n        /* \"@openzeppelin/contracts/finance/PaymentSplitter.sol\":4079:4086  _shares */\n      0x02\n        /* \"@openzeppelin/contracts/finance/PaymentSplitter.sol\":4079:4095  _shares[account] */\n      0x20\n      mstore\n      0x40\n      swap1\n      keccak256\n      sload\n      swap1\n        /* \"@openzeppelin/contracts/finance/PaymentSplitter.sol\":3999:4102  function shares(address account) public view returns (uint256) {... */\n      jump\n        /* \"@openzeppelin/contracts/finance/PaymentSplitter.sol\":3796:3913  function totalReleased(IERC20 token) public view returns (uint256) {... */\n    tag_10:\n      callvalue\n      dup1\n      iszero\n      tag_57\n      jumpi\n      0x00\n      dup1\n      revert\n    tag_57:\n      pop\n      tag_25\n      tag_59\n      calldatasize\n      0x04\n      tag_22\n      jump\t// in\n    tag_59:\n      sub(shl(0xa0, 0x01), 0x01)\n        /* \"@openzeppelin/contracts/finance/PaymentSplitter.sol\":3880:3906  _erc20TotalReleased[token] */\n      and\n        /* \"@openzeppelin/contracts/finance/PaymentSplitter.sol\":3854:3861  uint256 */\n      0x00\n        /* \"@openzeppelin/contracts/finance/PaymentSplitter.sol\":3880:3906  _erc20TotalReleased[token] */\n      swap1\n      dup2\n      mstore\n        /* \"@openzeppelin/contracts/finance/PaymentSplitter.sol\":3880:3899  _erc20TotalReleased */\n      0x05\n        /* \"@openzeppelin/contracts/finance/PaymentSplitter.sol\":3880:3906  _erc20TotalReleased[token] */\n      0x20\n      mstore\n      0x40\n      swap1\n      keccak256\n      sload\n      swap1\n        /* \"@openzeppelin/contracts/finance/PaymentSplitter.sol\":3796:3913  function totalReleased(IERC20 token) public view returns (uint256) {... */\n      jump\n        /* \"@openzeppelin/contracts/finance/PaymentSplitter.sol\":3552:3645  function totalReleased() public view returns (uint256) {... */\n    tag_11:\n      callvalue\n      dup1\n      iszero\n      tag_63\n      jumpi\n      0x00\n      dup1\n      revert\n    tag_63:\n      pop\n        /* \"@openzeppelin/contracts/finance/PaymentSplitter.sol\":3624:3638  _totalReleased */\n      sload(0x01)\n        /* \"@openzeppelin/contracts/finance/PaymentSplitter.sol\":3552:3645  function totalReleased() public view returns (uint256) {... */\n      jump(tag_25)\n        /* \"@openzeppelin/contracts/finance/PaymentSplitter.sol\":4977:5530  function release(address payable account) public virtual {... */\n    tag_23:\n      sub(shl(0xa0, 0x01), 0x01)\n        /* \"@openzeppelin/contracts/finance/PaymentSplitter.sol\":5052:5068  _shares[account] */\n      dup2\n      and\n        /* \"@openzeppelin/contracts/finance/PaymentSplitter.sol\":5071:5072  0 */\n      0x00\n        /* \"@openzeppelin/contracts/finance/PaymentSplitter.sol\":5052:5068  _shares[account] */\n      swap1\n      dup2\n      mstore\n        /* \"@openzeppelin/contracts/finance/PaymentSplitter.sol\":5052:5059  _shares */\n      0x02\n        /* \"@openzeppelin/contracts/finance/PaymentSplitter.sol\":5052:5068  _shares[account] */\n      0x20\n      mstore\n      0x40\n      swap1\n      keccak256\n      sload\n        /* \"@openzeppelin/contracts/finance/PaymentSplitter.sol\":5044:5115  require(_shares[account] > 0, \"PaymentSplitter: account has no shares\") */\n      tag_69\n      jumpi\n      mload(0x40)\n      shl(0xe5, 0x461bcd)\n      dup2\n      mstore\n      0x04\n      add\n      tag_70\n      swap1\n      tag_71\n      jump\t// in\n    tag_70:\n      mload(0x40)\n      dup1\n      swap2\n      sub\n      swap1\n      revert\n    tag_69:\n        /* \"@openzeppelin/contracts/finance/PaymentSplitter.sol\":5126:5147  uint256 totalReceived */\n      0x00\n        /* \"@openzeppelin/contracts/finance/PaymentSplitter.sol\":5174:5189  totalReleased() */\n      tag_72\n        /* \"@openzeppelin/contracts/finance/PaymentSplitter.sol\":3624:3638  _totalReleased */\n      sload(0x01)\n      swap1\n        /* \"@openzeppelin/contracts/finance/PaymentSplitter.sol\":3552:3645  function totalReleased() public view returns (uint256) {... */\n      jump\n        /* \"@openzeppelin/contracts/finance/PaymentSplitter.sol\":5174:5189  totalReleased() */\n    tag_72:\n        /* \"@openzeppelin/contracts/finance/PaymentSplitter.sol\":5150:5189  address(this).balance + totalReleased() */\n      tag_73\n      swap1\n        /* \"@openzeppelin/contracts/finance/PaymentSplitter.sol\":5150:5171  address(this).balance */\n      selfbalance\n        /* \"@openzeppelin/contracts/finance/PaymentSplitter.sol\":5150:5189  address(this).balance + totalReleased() */\n      tag_74\n      jump\t// in\n    tag_73:\n        /* \"@openzeppelin/contracts/finance/PaymentSplitter.sol\":5126:5189  uint256 totalReceived = address(this).balance + totalReleased() */\n      swap1\n      pop\n        /* \"@openzeppelin/contracts/finance/PaymentSplitter.sol\":5199:5214  uint256 payment */\n      0x00\n        /* \"@openzeppelin/contracts/finance/PaymentSplitter.sol\":5217:5275  _pendingPayment(account, totalReceived, released(account)) */\n      tag_75\n        /* \"@openzeppelin/contracts/finance/PaymentSplitter.sol\":5233:5240  account */\n      dup4\n        /* \"@openzeppelin/contracts/finance/PaymentSplitter.sol\":5242:5255  totalReceived */\n      dup4\n        /* \"@openzeppelin/contracts/finance/PaymentSplitter.sol\":5257:5274  released(account) */\n      tag_76\n        /* \"@openzeppelin/contracts/finance/PaymentSplitter.sol\":5266:5273  account */\n      dup7\n      sub(shl(0xa0, 0x01), 0x01)\n        /* \"@openzeppelin/contracts/finance/PaymentSplitter.sol\":4278:4296  _released[account] */\n      and\n        /* \"@openzeppelin/contracts/finance/PaymentSplitter.sol\":4252:4259  uint256 */\n      0x00\n        /* \"@openzeppelin/contracts/finance/PaymentSplitter.sol\":4278:4296  _released[account] */\n      swap1\n      dup2\n      mstore\n        /* \"@openzeppelin/contracts/finance/PaymentSplitter.sol\":4278:4287  _released */\n      0x03\n        /* \"@openzeppelin/contracts/finance/PaymentSplitter.sol\":4278:4296  _released[account] */\n      0x20\n      mstore\n      0x40\n      swap1\n      keccak256\n      sload\n      swap1\n        /* \"@openzeppelin/contracts/finance/PaymentSplitter.sol\":4196:4303  function released(address account) public view returns (uint256) {... */\n      jump\n        /* \"@openzeppelin/contracts/finance/PaymentSplitter.sol\":5257:5274  released(account) */\n    tag_76:\n        /* \"@openzeppelin/contracts/finance/PaymentSplitter.sol\":5217:5232  _pendingPayment */\n      tag_77\n        /* \"@openzeppelin/contracts/finance/PaymentSplitter.sol\":5217:5275  _pendingPayment(account, totalReceived, released(account)) */\n      jump\t// in\n    tag_75:\n        /* \"@openzeppelin/contracts/finance/PaymentSplitter.sol\":5199:5275  uint256 payment = _pendingPayment(account, totalReceived, released(account)) */\n      swap1\n      pop\n        /* \"@openzeppelin/contracts/finance/PaymentSplitter.sol\":5294:5301  payment */\n      dup1\n        /* \"@openzeppelin/contracts/finance/PaymentSplitter.sol\":5305:5306  0 */\n      0x00\n        /* \"@openzeppelin/contracts/finance/PaymentSplitter.sol\":5294:5306  payment != 0 */\n      sub\n        /* \"@openzeppelin/contracts/finance/PaymentSplitter.sol\":5286:5354  require(payment != 0, \"PaymentSplitter: account is not due payment\") */\n      tag_78\n      jumpi\n      mload(0x40)\n      shl(0xe5, 0x461bcd)\n      dup2\n      mstore\n      0x04\n      add\n      tag_70\n      swap1\n      tag_80\n      jump\t// in\n    tag_78:\n      sub(shl(0xa0, 0x01), 0x01)\n        /* \"@openzeppelin/contracts/finance/PaymentSplitter.sol\":5365:5383  _released[account] */\n      dup4\n      and\n      0x00\n      swap1\n      dup2\n      mstore\n        /* \"@openzeppelin/contracts/finance/PaymentSplitter.sol\":5365:5374  _released */\n      0x03\n        /* \"@openzeppelin/contracts/finance/PaymentSplitter.sol\":5365:5383  _released[account] */\n      0x20\n      mstore\n      0x40\n      dup2\n      keccak256\n        /* \"@openzeppelin/contracts/finance/PaymentSplitter.sol\":5365:5394  _released[account] += payment */\n      dup1\n      sload\n        /* \"@openzeppelin/contracts/finance/PaymentSplitter.sol\":5387:5394  payment */\n      dup4\n      swap3\n        /* \"@openzeppelin/contracts/finance/PaymentSplitter.sol\":5365:5383  _released[account] */\n      swap1\n        /* \"@openzeppelin/contracts/finance/PaymentSplitter.sol\":5365:5394  _released[account] += payment */\n      tag_81\n      swap1\n        /* \"@openzeppelin/contracts/finance/PaymentSplitter.sol\":5387:5394  payment */\n      dup5\n      swap1\n        /* \"@openzeppelin/contracts/finance/PaymentSplitter.sol\":5365:5394  _released[account] += payment */\n      tag_74\n      jump\t// in\n    tag_81:\n      swap3\n      pop\n      pop\n      dup2\n      swap1\n      sstore\n      pop\n        /* \"@openzeppelin/contracts/finance/PaymentSplitter.sol\":5422:5429  payment */\n      dup1\n        /* \"@openzeppelin/contracts/finance/PaymentSplitter.sol\":5404:5418  _totalReleased */\n      0x01\n      0x00\n        /* \"@openzeppelin/contracts/finance/PaymentSplitter.sol\":5404:5429  _totalReleased += payment */\n      dup3\n      dup3\n      sload\n      tag_82\n      swap2\n      swap1\n      tag_74\n      jump\t// in\n    tag_82:\n      swap1\n      swap2\n      sstore\n      pop\n        /* \"@openzeppelin/contracts/finance/PaymentSplitter.sol\":5440:5475  Address.sendValue(account, payment) */\n      tag_83\n      swap1\n      pop\n        /* \"@openzeppelin/contracts/finance/PaymentSplitter.sol\":5458:5465  account */\n      dup4\n        /* \"@openzeppelin/contracts/finance/PaymentSplitter.sol\":5467:5474  payment */\n      dup3\n        /* \"@openzeppelin/contracts/finance/PaymentSplitter.sol\":5440:5457  Address.sendValue */\n      tag_84\n        /* \"@openzeppelin/contracts/finance/PaymentSplitter.sol\":5440:5475  Address.sendValue(account, payment) */\n      jump\t// in\n    tag_83:\n        /* \"@openzeppelin/contracts/finance/PaymentSplitter.sol\":5490:5523  PaymentReleased(account, payment) */\n      0x40\n      dup1\n      mload\n      sub(shl(0xa0, 0x01), 0x01)\n        /* \"#utility.yul\":206:238   */\n      dup6\n      and\n        /* \"#utility.yul\":188:239   */\n      dup2\n      mstore\n        /* \"#utility.yul\":270:272   */\n      0x20\n        /* \"#utility.yul\":255:273   */\n      dup2\n      add\n        /* \"#utility.yul\":248:282   */\n      dup4\n      swap1\n      mstore\n        /* \"@openzeppelin/contracts/finance/PaymentSplitter.sol\":5490:5523  PaymentReleased(account, payment) */\n      0xdf20fd1e76bc69d672e4814fafb2c449bba3a5369d8359adf9e05e6fde87b056\n      swap2\n        /* \"#utility.yul\":161:179   */\n      add\n        /* \"@openzeppelin/contracts/finance/PaymentSplitter.sol\":5490:5523  PaymentReleased(account, payment) */\n      mload(0x40)\n      dup1\n      swap2\n      sub\n      swap1\n      log1\n        /* \"@openzeppelin/contracts/finance/PaymentSplitter.sol\":5034:5530  {... */\n      pop\n      pop\n        /* \"@openzeppelin/contracts/finance/PaymentSplitter.sol\":4977:5530  function release(address payable account) public virtual {... */\n      pop\n      jump\t// out\n        /* \"@openzeppelin/contracts/finance/PaymentSplitter.sol\":5791:6419  function release(IERC20 token, address account) public virtual {... */\n    tag_38:\n      sub(shl(0xa0, 0x01), 0x01)\n        /* \"@openzeppelin/contracts/finance/PaymentSplitter.sol\":5872:5888  _shares[account] */\n      dup2\n      and\n        /* \"@openzeppelin/contracts/finance/PaymentSplitter.sol\":5891:5892  0 */\n      0x00\n        /* \"@openzeppelin/contracts/finance/PaymentSplitter.sol\":5872:5888  _shares[account] */\n      swap1\n      dup2\n      mstore\n        /* \"@openzeppelin/contracts/finance/PaymentSplitter.sol\":5872:5879  _shares */\n      0x02\n        /* \"@openzeppelin/contracts/finance/PaymentSplitter.sol\":5872:5888  _shares[account] */\n      0x20\n      mstore\n      0x40\n      swap1\n      keccak256\n      sload\n        /* \"@openzeppelin/contracts/finance/PaymentSplitter.sol\":5864:5935  require(_shares[account] > 0, \"PaymentSplitter: account has no shares\") */\n      tag_90\n      jumpi\n      mload(0x40)\n      shl(0xe5, 0x461bcd)\n      dup2\n      mstore\n      0x04\n      add\n      tag_70\n      swap1\n      tag_71\n      jump\t// in\n    tag_90:\n      sub(shl(0xa0, 0x01), 0x01)\n        /* \"@openzeppelin/contracts/finance/PaymentSplitter.sol\":3880:3906  _erc20TotalReleased[token] */\n      dup3\n      and\n        /* \"@openzeppelin/contracts/finance/PaymentSplitter.sol\":5946:5967  uint256 totalReceived */\n      0x00\n        /* \"@openzeppelin/contracts/finance/PaymentSplitter.sol\":3880:3906  _erc20TotalReleased[token] */\n      swap1\n      dup2\n      mstore\n        /* \"@openzeppelin/contracts/finance/PaymentSplitter.sol\":3880:3899  _erc20TotalReleased */\n      0x05\n        /* \"@openzeppelin/contracts/finance/PaymentSplitter.sol\":3880:3906  _erc20TotalReleased[token] */\n      0x20\n      mstore\n      0x40\n      dup2\n      keccak256\n      sload\n        /* \"@openzeppelin/contracts/finance/PaymentSplitter.sol\":5970:6000  token.balanceOf(address(this)) */\n      mload(0x40)\n      shl(0xe0, 0x70a08231)\n      dup2\n      mstore\n        /* \"@openzeppelin/contracts/finance/PaymentSplitter.sol\":5994:5998  this */\n      address\n        /* \"@openzeppelin/contracts/finance/PaymentSplitter.sol\":5970:6000  token.balanceOf(address(this)) */\n      0x04\n      dup3\n      add\n        /* \"#utility.yul\":1641:1692   */\n      mstore\n      sub(shl(0xa0, 0x01), 0x01)\n        /* \"@openzeppelin/contracts/finance/PaymentSplitter.sol\":5970:5985  token.balanceOf */\n      dup6\n      and\n      swap1\n      0x70a08231\n      swap1\n        /* \"#utility.yul\":1614:1632   */\n      0x24\n      add\n        /* \"@openzeppelin/contracts/finance/PaymentSplitter.sol\":5970:6000  token.balanceOf(address(this)) */\n      0x20\n      mload(0x40)\n      dup1\n      dup4\n      sub\n      dup2\n      dup7\n      gas\n      staticcall\n      iszero\n      dup1\n      iszero\n      tag_95\n      jumpi\n      returndatasize\n      0x00\n      dup1\n      returndatacopy\n      revert(0x00, returndatasize)\n    tag_95:\n      pop\n      pop\n      pop\n      pop\n      mload(0x40)\n      returndatasize\n      not(0x1f)\n      0x1f\n      dup3\n      add\n      and\n      dup3\n      add\n      dup1\n      0x40\n      mstore\n      pop\n      dup2\n      add\n      swap1\n      tag_96\n      swap2\n      swap1\n      tag_97\n      jump\t// in\n    tag_96:\n        /* \"@openzeppelin/contracts/finance/PaymentSplitter.sol\":5970:6023  token.balanceOf(address(this)) + totalReleased(token) */\n      tag_98\n      swap2\n      swap1\n      tag_74\n      jump\t// in\n    tag_98:\n        /* \"@openzeppelin/contracts/finance/PaymentSplitter.sol\":5946:6023  uint256 totalReceived = token.balanceOf(address(this)) + totalReleased(token) */\n      swap1\n      pop\n        /* \"@openzeppelin/contracts/finance/PaymentSplitter.sol\":6033:6048  uint256 payment */\n      0x00\n        /* \"@openzeppelin/contracts/finance/PaymentSplitter.sol\":6051:6116  _pendingPayment(account, totalReceived, released(token, account)) */\n      tag_99\n        /* \"@openzeppelin/contracts/finance/PaymentSplitter.sol\":6067:6074  account */\n      dup4\n        /* \"@openzeppelin/contracts/finance/PaymentSplitter.sol\":6076:6089  totalReceived */\n      dup4\n        /* \"@openzeppelin/contracts/finance/PaymentSplitter.sol\":6091:6115  released(token, account) */\n      tag_76\n        /* \"@openzeppelin/contracts/finance/PaymentSplitter.sol\":6100:6105  token */\n      dup8\n        /* \"@openzeppelin/contracts/finance/PaymentSplitter.sol\":6107:6114  account */\n      dup8\n      sub(shl(0xa0, 0x01), 0x01)\n        /* \"@openzeppelin/contracts/finance/PaymentSplitter.sol\":4562:4583  _erc20Released[token] */\n      swap2\n      dup3\n      and\n        /* \"@openzeppelin/contracts/finance/PaymentSplitter.sol\":4536:4543  uint256 */\n      0x00\n        /* \"@openzeppelin/contracts/finance/PaymentSplitter.sol\":4562:4583  _erc20Released[token] */\n      swap1\n      dup2\n      mstore\n        /* \"@openzeppelin/contracts/finance/PaymentSplitter.sol\":4562:4576  _erc20Released */\n      0x06\n        /* \"@openzeppelin/contracts/finance/PaymentSplitter.sol\":4562:4583  _erc20Released[token] */\n      0x20\n      swap1\n      dup2\n      mstore\n      0x40\n      dup1\n      dup4\n      keccak256\n        /* \"@openzeppelin/contracts/finance/PaymentSplitter.sol\":4562:4592  _erc20Released[token][account] */\n      swap4\n      swap1\n      swap5\n      and\n      dup3\n      mstore\n      swap2\n      swap1\n      swap2\n      mstore\n      keccak256\n      sload\n      swap1\n        /* \"@openzeppelin/contracts/finance/PaymentSplitter.sol\":4466:4599  function released(IERC20 token, address account) public view returns (uint256) {... */\n      jump\n        /* \"@openzeppelin/contracts/finance/PaymentSplitter.sol\":6051:6116  _pendingPayment(account, totalReceived, released(token, account)) */\n    tag_99:\n        /* \"@openzeppelin/contracts/finance/PaymentSplitter.sol\":6033:6116  uint256 payment = _pendingPayment(account, totalReceived, released(token, account)) */\n      swap1\n      pop\n        /* \"@openzeppelin/contracts/finance/PaymentSplitter.sol\":6135:6142  payment */\n      dup1\n        /* \"@openzeppelin/contracts/finance/PaymentSplitter.sol\":6146:6147  0 */\n      0x00\n        /* \"@openzeppelin/contracts/finance/PaymentSplitter.sol\":6135:6147  payment != 0 */\n      sub\n        /* \"@openzeppelin/contracts/finance/PaymentSplitter.sol\":6127:6195  require(payment != 0, \"PaymentSplitter: account is not due payment\") */\n      tag_101\n      jumpi\n      mload(0x40)\n      shl(0xe5, 0x461bcd)\n      dup2\n      mstore\n      0x04\n      add\n      tag_70\n      swap1\n      tag_80\n      jump\t// in\n    tag_101:\n      sub(shl(0xa0, 0x01), 0x01)\n        /* \"@openzeppelin/contracts/finance/PaymentSplitter.sol\":6206:6227  _erc20Released[token] */\n      dup1\n      dup6\n      and\n      0x00\n      swap1\n      dup2\n      mstore\n        /* \"@openzeppelin/contracts/finance/PaymentSplitter.sol\":6206:6220  _erc20Released */\n      0x06\n        /* \"@openzeppelin/contracts/finance/PaymentSplitter.sol\":6206:6227  _erc20Released[token] */\n      0x20\n      swap1\n      dup2\n      mstore\n      0x40\n      dup1\n      dup4\n      keccak256\n        /* \"@openzeppelin/contracts/finance/PaymentSplitter.sol\":6206:6236  _erc20Released[token][account] */\n      swap4\n      dup8\n      and\n      dup4\n      mstore\n      swap3\n      swap1\n      mstore\n      swap1\n      dup2\n      keccak256\n        /* \"@openzeppelin/contracts/finance/PaymentSplitter.sol\":6206:6247  _erc20Released[token][account] += payment */\n      dup1\n      sload\n        /* \"@openzeppelin/contracts/finance/PaymentSplitter.sol\":6240:6247  payment */\n      dup4\n      swap3\n        /* \"@openzeppelin/contracts/finance/PaymentSplitter.sol\":6206:6227  _erc20Released[token] */\n      swap1\n        /* \"@openzeppelin/contracts/finance/PaymentSplitter.sol\":6206:6247  _erc20Released[token][account] += payment */\n      tag_103\n      swap1\n        /* \"@openzeppelin/contracts/finance/PaymentSplitter.sol\":6240:6247  payment */\n      dup5\n      swap1\n        /* \"@openzeppelin/contracts/finance/PaymentSplitter.sol\":6206:6247  _erc20Released[token][account] += payment */\n      tag_74\n      jump\t// in\n    tag_103:\n      swap1\n      swap2\n      sstore\n      pop\n      pop\n      sub(shl(0xa0, 0x01), 0x01)\n        /* \"@openzeppelin/contracts/finance/PaymentSplitter.sol\":6257:6283  _erc20TotalReleased[token] */\n      dup5\n      and\n      0x00\n      swap1\n      dup2\n      mstore\n        /* \"@openzeppelin/contracts/finance/PaymentSplitter.sol\":6257:6276  _erc20TotalReleased */\n      0x05\n        /* \"@openzeppelin/contracts/finance/PaymentSplitter.sol\":6257:6283  _erc20TotalReleased[token] */\n      0x20\n      mstore\n      0x40\n      dup2\n      keccak256\n        /* \"@openzeppelin/contracts/finance/PaymentSplitter.sol\":6257:6294  _erc20TotalReleased[token] += payment */\n      dup1\n      sload\n        /* \"@openzeppelin/contracts/finance/PaymentSplitter.sol\":6287:6294  payment */\n      dup4\n      swap3\n        /* \"@openzeppelin/contracts/finance/PaymentSplitter.sol\":6257:6283  _erc20TotalReleased[token] */\n      swap1\n        /* \"@openzeppelin/contracts/finance/PaymentSplitter.sol\":6257:6294  _erc20TotalReleased[token] += payment */\n      tag_104\n      swap1\n        /* \"@openzeppelin/contracts/finance/PaymentSplitter.sol\":6287:6294  payment */\n      dup5\n      swap1\n        /* \"@openzeppelin/contracts/finance/PaymentSplitter.sol\":6257:6294  _erc20TotalReleased[token] += payment */\n      tag_74\n      jump\t// in\n    tag_104:\n      swap1\n      swap2\n      sstore\n      pop\n        /* \"@openzeppelin/contracts/finance/PaymentSplitter.sol\":6305:6352  SafeERC20.safeTransfer(token, account, payment) */\n      tag_105\n      swap1\n      pop\n        /* \"@openzeppelin/contracts/finance/PaymentSplitter.sol\":6328:6333  token */\n      dup5\n        /* \"@openzeppelin/contracts/finance/PaymentSplitter.sol\":6335:6342  account */\n      dup5\n        /* \"@openzeppelin/contracts/finance/PaymentSplitter.sol\":6344:6351  payment */\n      dup4\n        /* \"@openzeppelin/contracts/finance/PaymentSplitter.sol\":6305:6327  SafeERC20.safeTransfer */\n      tag_106\n        /* \"@openzeppelin/contracts/finance/PaymentSplitter.sol\":6305:6352  SafeERC20.safeTransfer(token, account, payment) */\n      jump\t// in\n    tag_105:\n        /* \"@openzeppelin/contracts/finance/PaymentSplitter.sol\":6367:6412  ERC20PaymentReleased(token, account, payment) */\n      0x40\n      dup1\n      mload\n      sub(shl(0xa0, 0x01), 0x01)\n        /* \"#utility.yul\":206:238   */\n      dup6\n      dup2\n      and\n        /* \"#utility.yul\":188:239   */\n      dup3\n      mstore\n        /* \"#utility.yul\":270:272   */\n      0x20\n        /* \"#utility.yul\":255:273   */\n      dup3\n      add\n        /* \"#utility.yul\":248:282   */\n      dup5\n      swap1\n      mstore\n        /* \"@openzeppelin/contracts/finance/PaymentSplitter.sol\":6367:6412  ERC20PaymentReleased(token, account, payment) */\n      dup7\n      and\n      swap2\n      0x3be5b7a71e84ed12875d241991c70855ac5817d847039e17a9d895c1ceb0f18a\n      swap2\n        /* \"#utility.yul\":161:179   */\n      add\n        /* \"@openzeppelin/contracts/finance/PaymentSplitter.sol\":6367:6412  ERC20PaymentReleased(token, account, payment) */\n      mload(0x40)\n      dup1\n      swap2\n      sub\n      swap1\n      log2\n        /* \"@openzeppelin/contracts/finance/PaymentSplitter.sol\":5854:6419  {... */\n      pop\n      pop\n        /* \"@openzeppelin/contracts/finance/PaymentSplitter.sol\":5791:6419  function release(IERC20 token, address account) public virtual {... */\n      pop\n      pop\n      jump\t// out\n        /* \"@openzeppelin/contracts/finance/PaymentSplitter.sol\":4685:4783  function payee(uint256 index) public view returns (address) {... */\n    tag_43:\n        /* \"@openzeppelin/contracts/finance/PaymentSplitter.sol\":4736:4743  address */\n      0x00\n        /* \"@openzeppelin/contracts/finance/PaymentSplitter.sol\":4762:4769  _payees */\n      0x04\n        /* \"@openzeppelin/contracts/finance/PaymentSplitter.sol\":4770:4775  index */\n      dup3\n        /* \"@openzeppelin/contracts/finance/PaymentSplitter.sol\":4762:4776  _payees[index] */\n      dup2\n      sload\n      dup2\n      lt\n      tag_110\n      jumpi\n      tag_110\n      tag_111\n      jump\t// in\n    tag_110:\n      0x00\n      swap2\n      dup3\n      mstore\n      0x20\n      swap1\n      swap2\n      keccak256\n      add\n      sload\n      sub(shl(0xa0, 0x01), 0x01)\n      and\n      swap3\n        /* \"@openzeppelin/contracts/finance/PaymentSplitter.sol\":4685:4783  function payee(uint256 index) public view returns (address) {... */\n      swap2\n      pop\n      pop\n      jump\t// out\n        /* \"@openzeppelin/contracts/finance/PaymentSplitter.sol\":6591:6833  function _pendingPayment(... */\n    tag_77:\n        /* \"@openzeppelin/contracts/finance/PaymentSplitter.sol\":6733:6740  uint256 */\n      0x00\n        /* \"@openzeppelin/contracts/finance/PaymentSplitter.sol\":6796:6808  _totalShares */\n      dup1\n      sload\n      sub(shl(0xa0, 0x01), 0x01)\n        /* \"@openzeppelin/contracts/finance/PaymentSplitter.sol\":6776:6792  _shares[account] */\n      dup6\n      and\n      dup3\n      mstore\n        /* \"@openzeppelin/contracts/finance/PaymentSplitter.sol\":6776:6783  _shares */\n      0x02\n        /* \"@openzeppelin/contracts/finance/PaymentSplitter.sol\":6776:6792  _shares[account] */\n      0x20\n      mstore\n      0x40\n      dup3\n      keccak256\n      sload\n        /* \"@openzeppelin/contracts/finance/PaymentSplitter.sol\":6811:6826  alreadyReleased */\n      dup4\n      swap2\n        /* \"@openzeppelin/contracts/finance/PaymentSplitter.sol\":6796:6808  _totalShares */\n      swap1\n        /* \"@openzeppelin/contracts/finance/PaymentSplitter.sol\":6760:6792  totalReceived * _shares[account] */\n      tag_118\n      swap1\n        /* \"@openzeppelin/contracts/finance/PaymentSplitter.sol\":6760:6773  totalReceived */\n      dup7\n        /* \"@openzeppelin/contracts/finance/PaymentSplitter.sol\":6760:6792  totalReceived * _shares[account] */\n      tag_119\n      jump\t// in\n    tag_118:\n        /* \"@openzeppelin/contracts/finance/PaymentSplitter.sol\":6759:6808  (totalReceived * _shares[account]) / _totalShares */\n      tag_120\n      swap2\n      swap1\n      tag_121\n      jump\t// in\n    tag_120:\n        /* \"@openzeppelin/contracts/finance/PaymentSplitter.sol\":6759:6826  (totalReceived * _shares[account]) / _totalShares - alreadyReleased */\n      tag_122\n      swap2\n      swap1\n      tag_123\n      jump\t// in\n    tag_122:\n        /* \"@openzeppelin/contracts/finance/PaymentSplitter.sol\":6752:6826  return (totalReceived * _shares[account]) / _totalShares - alreadyReleased */\n      swap1\n      pop\n        /* \"@openzeppelin/contracts/finance/PaymentSplitter.sol\":6591:6833  function _pendingPayment(... */\n    tag_117:\n      swap4\n      swap3\n      pop\n      pop\n      pop\n      jump\t// out\n        /* \"@openzeppelin/contracts/utils/Address.sol\":2412:2724  function sendValue(address payable recipient, uint256 amount) internal {... */\n    tag_84:\n        /* \"@openzeppelin/contracts/utils/Address.sol\":2526:2532  amount */\n      dup1\n        /* \"@openzeppelin/contracts/utils/Address.sol\":2501:2522  address(this).balance */\n      selfbalance\n        /* \"@openzeppelin/contracts/utils/Address.sol\":2501:2532  address(this).balance >= amount */\n      lt\n      iszero\n        /* \"@openzeppelin/contracts/utils/Address.sol\":2493:2566  require(address(this).balance >= amount, \"Address: insufficient balance\") */\n      tag_125\n      jumpi\n      mload(0x40)\n      shl(0xe5, 0x461bcd)\n      dup2\n      mstore\n        /* \"#utility.yul\":4656:4658   */\n      0x20\n        /* \"@openzeppelin/contracts/utils/Address.sol\":2493:2566  require(address(this).balance >= amount, \"Address: insufficient balance\") */\n      0x04\n      dup3\n      add\n        /* \"#utility.yul\":4638:4659   */\n      mstore\n        /* \"#utility.yul\":4695:4697   */\n      0x1d\n        /* \"#utility.yul\":4675:4693   */\n      0x24\n      dup3\n      add\n        /* \"#utility.yul\":4668:4698   */\n      mstore\n        /* \"#utility.yul\":4734:4765   */\n      0x416464726573733a20696e73756666696369656e742062616c616e6365000000\n        /* \"#utility.yul\":4714:4732   */\n      0x44\n      dup3\n      add\n        /* \"#utility.yul\":4707:4766   */\n      mstore\n        /* \"#utility.yul\":4783:4801   */\n      0x64\n      add\n        /* \"@openzeppelin/contracts/utils/Address.sol\":2493:2566  require(address(this).balance >= amount, \"Address: insufficient balance\") */\n      tag_70\n        /* \"#utility.yul\":4454:4807   */\n      jump\n        /* \"@openzeppelin/contracts/utils/Address.sol\":2493:2566  require(address(this).balance >= amount, \"Address: insufficient balance\") */\n    tag_125:\n        /* \"@openzeppelin/contracts/utils/Address.sol\":2578:2590  bool success */\n      0x00\n        /* \"@openzeppelin/contracts/utils/Address.sol\":2596:2605  recipient */\n      dup3\n      sub(shl(0xa0, 0x01), 0x01)\n        /* \"@openzeppelin/contracts/utils/Address.sol\":2596:2610  recipient.call */\n      and\n        /* \"@openzeppelin/contracts/utils/Address.sol\":2618:2624  amount */\n      dup3\n        /* \"@openzeppelin/contracts/utils/Address.sol\":2596:2629  recipient.call{value: amount}(\"\") */\n      mload(0x40)\n      0x00\n      mload(0x40)\n      dup1\n      dup4\n      sub\n      dup2\n      dup6\n      dup8\n      gas\n      call\n      swap3\n      pop\n      pop\n      pop\n      returndatasize\n      dup1\n      0x00\n      dup2\n      eq\n      tag_132\n      jumpi\n      mload(0x40)\n      swap2\n      pop\n      and(add(returndatasize, 0x3f), not(0x1f))\n      dup3\n      add\n      0x40\n      mstore\n      returndatasize\n      dup3\n      mstore\n      returndatasize\n      0x00\n      0x20\n      dup5\n      add\n      returndatacopy\n      jump(tag_131)\n    tag_132:\n      0x60\n      swap2\n      pop\n    tag_131:\n      pop\n        /* \"@openzeppelin/contracts/utils/Address.sol\":2577:2629  (bool success, ) = recipient.call{value: amount}(\"\") */\n      pop\n      swap1\n      pop\n        /* \"@openzeppelin/contracts/utils/Address.sol\":2647:2654  success */\n      dup1\n        /* \"@openzeppelin/contracts/utils/Address.sol\":2639:2717  require(success, \"Address: unable to send value, recipient may have reverted\") */\n      tag_133\n      jumpi\n      mload(0x40)\n      shl(0xe5, 0x461bcd)\n      dup2\n      mstore\n        /* \"#utility.yul\":5224:5226   */\n      0x20\n        /* \"@openzeppelin/contracts/utils/Address.sol\":2639:2717  require(success, \"Address: unable to send value, recipient may have reverted\") */\n      0x04\n      dup3\n      add\n        /* \"#utility.yul\":5206:5227   */\n      mstore\n        /* \"#utility.yul\":5263:5265   */\n      0x3a\n        /* \"#utility.yul\":5243:5261   */\n      0x24\n      dup3\n      add\n        /* \"#utility.yul\":5236:5266   */\n      mstore\n        /* \"#utility.yul\":5302:5336   */\n      0x416464726573733a20756e61626c6520746f2073656e642076616c75652c2072\n        /* \"#utility.yul\":5282:5300   */\n      0x44\n      dup3\n      add\n        /* \"#utility.yul\":5275:5337   */\n      mstore\n        /* \"#utility.yul\":5373:5401   */\n      0x6563697069656e74206d61792068617665207265766572746564000000000000\n        /* \"#utility.yul\":5353:5371   */\n      0x64\n      dup3\n      add\n        /* \"#utility.yul\":5346:5402   */\n      mstore\n        /* \"#utility.yul\":5419:5438   */\n      0x84\n      add\n        /* \"@openzeppelin/contracts/utils/Address.sol\":2639:2717  require(success, \"Address: unable to send value, recipient may have reverted\") */\n      tag_70\n        /* \"#utility.yul\":5022:5444   */\n      jump\n        /* \"@openzeppelin/contracts/utils/Address.sol\":2639:2717  require(success, \"Address: unable to send value, recipient may have reverted\") */\n    tag_133:\n        /* \"@openzeppelin/contracts/utils/Address.sol\":2483:2724  {... */\n      pop\n        /* \"@openzeppelin/contracts/utils/Address.sol\":2412:2724  function sendValue(address payable recipient, uint256 amount) internal {... */\n      pop\n      pop\n      jump\t// out\n        /* \"@openzeppelin/contracts/token/ERC20/utils/SafeERC20.sol\":701:906  function safeTransfer(... */\n    tag_106:\n        /* \"@openzeppelin/contracts/token/ERC20/utils/SafeERC20.sol\":840:898  abi.encodeWithSelector(token.transfer.selector, to, value) */\n      0x40\n      dup1\n      mload\n      sub(shl(0xa0, 0x01), 0x01)\n        /* \"#utility.yul\":206:238   */\n      dup5\n      dup2\n      and\n        /* \"@openzeppelin/contracts/token/ERC20/utils/SafeERC20.sol\":840:898  abi.encodeWithSelector(token.transfer.selector, to, value) */\n      0x24\n      dup4\n      add\n        /* \"#utility.yul\":188:239   */\n      mstore\n        /* \"#utility.yul\":255:273   */\n      0x44\n      dup1\n      dup4\n      add\n        /* \"#utility.yul\":248:282   */\n      dup6\n      swap1\n      mstore\n        /* \"@openzeppelin/contracts/token/ERC20/utils/SafeERC20.sol\":840:898  abi.encodeWithSelector(token.transfer.selector, to, value) */\n      dup4\n      mload\n      dup1\n      dup5\n      sub\n      swap1\n      swap2\n      add\n      dup2\n      mstore\n        /* \"#utility.yul\":161:179   */\n      0x64\n      swap1\n      swap3\n      add\n        /* \"@openzeppelin/contracts/token/ERC20/utils/SafeERC20.sol\":840:898  abi.encodeWithSelector(token.transfer.selector, to, value) */\n      dup4\n      mstore\n      0x20\n      dup1\n      dup4\n      add\n      dup1\n      mload\n      sub(shl(0xe0, 0x01), 0x01)\n      and\n      shl(0xe0, 0xa9059cbb)\n      or\n      swap1\n      mstore\n        /* \"@openzeppelin/contracts/token/ERC20/utils/SafeERC20.sol\":3652:3721  address(token).functionCall(data, \"SafeERC20: low-level call failed\") */\n      dup4\n      mload\n      dup1\n      dup6\n      add\n      swap1\n      swap5\n      mstore\n      dup1\n      dup5\n      mstore\n      0x5361666545524332303a206c6f772d6c6576656c2063616c6c206661696c6564\n      swap1\n      dup5\n      add\n      mstore\n        /* \"@openzeppelin/contracts/token/ERC20/utils/SafeERC20.sol\":813:899  _callOptionalReturn(token, abi.encodeWithSelector(token.transfer.selector, to, value)) */\n      tag_133\n      swap3\n        /* \"@openzeppelin/contracts/token/ERC20/utils/SafeERC20.sol\":833:838  token */\n      dup7\n      swap3\n        /* \"@openzeppelin/contracts/token/ERC20/utils/SafeERC20.sol\":840:898  abi.encodeWithSelector(token.transfer.selector, to, value) */\n      swap2\n      0x00\n      swap2\n        /* \"@openzeppelin/contracts/token/ERC20/utils/SafeERC20.sol\":3652:3721  address(token).functionCall(data, \"SafeERC20: low-level call failed\") */\n      tag_141\n      swap2\n        /* \"@openzeppelin/contracts/token/ERC20/utils/SafeERC20.sol\":3652:3679  address(token).functionCall */\n      dup6\n      and\n      swap1\n        /* \"@openzeppelin/contracts/token/ERC20/utils/SafeERC20.sol\":840:898  abi.encodeWithSelector(token.transfer.selector, to, value) */\n      dup5\n      swap1\n        /* \"@openzeppelin/contracts/token/ERC20/utils/SafeERC20.sol\":3652:3679  address(token).functionCall */\n      tag_142\n        /* \"@openzeppelin/contracts/token/ERC20/utils/SafeERC20.sol\":3652:3721  address(token).functionCall(data, \"SafeERC20: low-level call failed\") */\n      jump\t// in\n    tag_141:\n        /* \"@openzeppelin/contracts/token/ERC20/utils/SafeERC20.sol\":3735:3752  returndata.length */\n      dup1\n      mload\n        /* \"@openzeppelin/contracts/token/ERC20/utils/SafeERC20.sol\":3626:3721  bytes memory returndata = address(token).functionCall(data, \"SafeERC20: low-level call failed\") */\n      swap1\n      swap2\n      pop\n        /* \"@openzeppelin/contracts/token/ERC20/utils/SafeERC20.sol\":3735:3756  returndata.length > 0 */\n      iszero\n        /* \"@openzeppelin/contracts/token/ERC20/utils/SafeERC20.sol\":3731:3907  if (returndata.length > 0) {... */\n      tag_133\n      jumpi\n        /* \"@openzeppelin/contracts/token/ERC20/utils/SafeERC20.sol\":3830:3840  returndata */\n      dup1\n        /* \"@openzeppelin/contracts/token/ERC20/utils/SafeERC20.sol\":3819:3849  abi.decode(returndata, (bool)) */\n      dup1\n      0x20\n      add\n      swap1\n      mload\n      dup2\n      add\n      swap1\n      tag_144\n      swap2\n      swap1\n      tag_145\n      jump\t// in\n    tag_144:\n        /* \"@openzeppelin/contracts/token/ERC20/utils/SafeERC20.sol\":3811:3896  require(abi.decode(returndata, (bool)), \"SafeERC20: ERC20 operation did not succeed\") */\n      tag_133\n      jumpi\n      mload(0x40)\n      shl(0xe5, 0x461bcd)\n      dup2\n      mstore\n        /* \"#utility.yul\":5933:5935   */\n      0x20\n        /* \"@openzeppelin/contracts/token/ERC20/utils/SafeERC20.sol\":3811:3896  require(abi.decode(returndata, (bool)), \"SafeERC20: ERC20 operation did not succeed\") */\n      0x04\n      dup3\n      add\n        /* \"#utility.yul\":5915:5936   */\n      mstore\n        /* \"#utility.yul\":5972:5974   */\n      0x2a\n        /* \"#utility.yul\":5952:5970   */\n      0x24\n      dup3\n      add\n        /* \"#utility.yul\":5945:5975   */\n      mstore\n        /* \"#utility.yul\":6011:6045   */\n      0x5361666545524332303a204552433230206f7065726174696f6e20646964206e\n        /* \"#utility.yul\":5991:6009   */\n      0x44\n      dup3\n      add\n        /* \"#utility.yul\":5984:6046   */\n      mstore\n      shl(0xb2, 0x1bdd081cdd58d8d95959)\n        /* \"#utility.yul\":6062:6080   */\n      0x64\n      dup3\n      add\n        /* \"#utility.yul\":6055:6095   */\n      mstore\n        /* \"#utility.yul\":6112:6131   */\n      0x84\n      add\n        /* \"@openzeppelin/contracts/token/ERC20/utils/SafeERC20.sol\":3811:3896  require(abi.decode(returndata, (bool)), \"SafeERC20: ERC20 operation did not succeed\") */\n      tag_70\n        /* \"#utility.yul\":5731:6137   */\n      jump\n        /* \"@openzeppelin/contracts/utils/Address.sol\":3861:4084  function functionCall(... */\n    tag_142:\n        /* \"@openzeppelin/contracts/utils/Address.sol\":3994:4006  bytes memory */\n      0x60\n        /* \"@openzeppelin/contracts/utils/Address.sol\":4025:4077  functionCallWithValue(target, data, 0, errorMessage) */\n      tag_122\n        /* \"@openzeppelin/contracts/utils/Address.sol\":4047:4053  target */\n      dup5\n        /* \"@openzeppelin/contracts/utils/Address.sol\":4055:4059  data */\n      dup5\n        /* \"@openzeppelin/contracts/utils/Address.sol\":4061:4062  0 */\n      0x00\n        /* \"@openzeppelin/contracts/utils/Address.sol\":4064:4076  errorMessage */\n      dup6\n        /* \"@openzeppelin/contracts/utils/Address.sol\":3994:4006  bytes memory */\n      dup6\n      sub(shl(0xa0, 0x01), 0x01)\n        /* \"@openzeppelin/contracts/utils/Address.sol\":1465:1484  account.code.length */\n      dup6\n      and\n      extcodesize\n        /* \"@openzeppelin/contracts/utils/Address.sol\":5228:5288  require(isContract(target), \"Address: call to non-contract\") */\n      tag_158\n      jumpi\n      mload(0x40)\n      shl(0xe5, 0x461bcd)\n      dup2\n      mstore\n        /* \"#utility.yul\":6751:6753   */\n      0x20\n        /* \"@openzeppelin/contracts/utils/Address.sol\":5228:5288  require(isContract(target), \"Address: call to non-contract\") */\n      0x04\n      dup3\n      add\n        /* \"#utility.yul\":6733:6754   */\n      mstore\n        /* \"#utility.yul\":6790:6792   */\n      0x1d\n        /* \"#utility.yul\":6770:6788   */\n      0x24\n      dup3\n      add\n        /* \"#utility.yul\":6763:6793   */\n      mstore\n        /* \"#utility.yul\":6829:6860   */\n      0x416464726573733a2063616c6c20746f206e6f6e2d636f6e7472616374000000\n        /* \"#utility.yul\":6809:6827   */\n      0x44\n      dup3\n      add\n        /* \"#utility.yul\":6802:6861   */\n      mstore\n        /* \"#utility.yul\":6878:6896   */\n      0x64\n      add\n        /* \"@openzeppelin/contracts/utils/Address.sol\":5228:5288  require(isContract(target), \"Address: call to non-contract\") */\n      tag_70\n        /* \"#utility.yul\":6549:6902   */\n      jump\n        /* \"@openzeppelin/contracts/utils/Address.sol\":5228:5288  require(isContract(target), \"Address: call to non-contract\") */\n    tag_158:\n        /* \"@openzeppelin/contracts/utils/Address.sol\":5300:5312  bool success */\n      0x00\n        /* \"@openzeppelin/contracts/utils/Address.sol\":5314:5337  bytes memory returndata */\n      dup1\n        /* \"@openzeppelin/contracts/utils/Address.sol\":5341:5347  target */\n      dup7\n      sub(shl(0xa0, 0x01), 0x01)\n        /* \"@openzeppelin/contracts/utils/Address.sol\":5341:5352  target.call */\n      and\n        /* \"@openzeppelin/contracts/utils/Address.sol\":5360:5365  value */\n      dup6\n        /* \"@openzeppelin/contracts/utils/Address.sol\":5367:5371  data */\n      dup8\n        /* \"@openzeppelin/contracts/utils/Address.sol\":5341:5372  target.call{value: value}(data) */\n      mload(0x40)\n      tag_161\n      swap2\n      swap1\n      tag_162\n      jump\t// in\n    tag_161:\n      0x00\n      mload(0x40)\n      dup1\n      dup4\n      sub\n      dup2\n      dup6\n      dup8\n      gas\n      call\n      swap3\n      pop\n      pop\n      pop\n      returndatasize\n      dup1\n      0x00\n      dup2\n      eq\n      tag_165\n      jumpi\n      mload(0x40)\n      swap2\n      pop\n      and(add(returndatasize, 0x3f), not(0x1f))\n      dup3\n      add\n      0x40\n      mstore\n      returndatasize\n      dup3\n      mstore\n      returndatasize\n      0x00\n      0x20\n      dup5\n      add\n      returndatacopy\n      jump(tag_164)\n    tag_165:\n      0x60\n      swap2\n      pop\n    tag_164:\n      pop\n        /* \"@openzeppelin/contracts/utils/Address.sol\":5299:5372  (bool success, bytes memory returndata) = target.call{value: value}(data) */\n      swap2\n      pop\n      swap2\n      pop\n        /* \"@openzeppelin/contracts/utils/Address.sol\":5389:5440  verifyCallResult(success, returndata, errorMessage) */\n      tag_166\n        /* \"@openzeppelin/contracts/utils/Address.sol\":5406:5413  success */\n      dup3\n        /* \"@openzeppelin/contracts/utils/Address.sol\":5415:5425  returndata */\n      dup3\n        /* \"@openzeppelin/contracts/utils/Address.sol\":5427:5439  errorMessage */\n      dup7\n        /* \"@openzeppelin/contracts/utils/Address.sol\":5389:5405  verifyCallResult */\n      tag_167\n        /* \"@openzeppelin/contracts/utils/Address.sol\":5389:5440  verifyCallResult(success, returndata, errorMessage) */\n      jump\t// in\n    tag_166:\n        /* \"@openzeppelin/contracts/utils/Address.sol\":5382:5440  return verifyCallResult(success, returndata, errorMessage) */\n      swap8\n        /* \"@openzeppelin/contracts/utils/Address.sol\":4948:5447  function functionCallWithValue(... */\n      swap7\n      pop\n      pop\n      pop\n      pop\n      pop\n      pop\n      pop\n      jump\t// out\n        /* \"@openzeppelin/contracts/utils/Address.sol\":7561:8253  function verifyCallResult(... */\n    tag_167:\n        /* \"@openzeppelin/contracts/utils/Address.sol\":7707:7719  bytes memory */\n      0x60\n        /* \"@openzeppelin/contracts/utils/Address.sol\":7735:7742  success */\n      dup4\n        /* \"@openzeppelin/contracts/utils/Address.sol\":7731:8247  if (success) {... */\n      iszero\n      tag_170\n      jumpi\n      pop\n        /* \"@openzeppelin/contracts/utils/Address.sol\":7765:7775  returndata */\n      dup2\n        /* \"@openzeppelin/contracts/utils/Address.sol\":7758:7775  return returndata */\n      jump(tag_117)\n        /* \"@openzeppelin/contracts/utils/Address.sol\":7731:8247  if (success) {... */\n    tag_170:\n        /* \"@openzeppelin/contracts/utils/Address.sol\":7876:7893  returndata.length */\n      dup3\n      mload\n        /* \"@openzeppelin/contracts/utils/Address.sol\":7876:7897  returndata.length > 0 */\n      iszero\n        /* \"@openzeppelin/contracts/utils/Address.sol\":7872:8237  if (returndata.length > 0) {... */\n      tag_172\n      jumpi\n        /* \"@openzeppelin/contracts/utils/Address.sol\":8070:8080  returndata */\n      dup3\n        /* \"@openzeppelin/contracts/utils/Address.sol\":8064:8081  mload(returndata) */\n      mload\n        /* \"@openzeppelin/contracts/utils/Address.sol\":8130:8145  returndata_size */\n      dup1\n        /* \"@openzeppelin/contracts/utils/Address.sol\":8117:8127  returndata */\n      dup5\n        /* \"@openzeppelin/contracts/utils/Address.sol\":8113:8115  32 */\n      0x20\n        /* \"@openzeppelin/contracts/utils/Address.sol\":8109:8128  add(32, returndata) */\n      add\n        /* \"@openzeppelin/contracts/utils/Address.sol\":8102:8146  revert(add(32, returndata), returndata_size) */\n      revert\n        /* \"@openzeppelin/contracts/utils/Address.sol\":7872:8237  if (returndata.length > 0) {... */\n    tag_172:\n        /* \"@openzeppelin/contracts/utils/Address.sol\":8209:8221  errorMessage */\n      dup2\n        /* \"@openzeppelin/contracts/utils/Address.sol\":8202:8222  revert(errorMessage) */\n      mload(0x40)\n      shl(0xe5, 0x461bcd)\n      dup2\n      mstore\n      0x04\n      add\n      tag_70\n      swap2\n      swap1\n      tag_175\n      jump\t// in\n        /* \"#utility.yul\":293:432   */\n    tag_176:\n      sub(shl(0xa0, 0x01), 0x01)\n        /* \"#utility.yul\":376:407   */\n      dup2\n      and\n        /* \"#utility.yul\":366:408   */\n      dup2\n      eq\n        /* \"#utility.yul\":356:426   */\n      tag_182\n      jumpi\n        /* \"#utility.yul\":422:423   */\n      0x00\n        /* \"#utility.yul\":419:420   */\n      dup1\n        /* \"#utility.yul\":412:424   */\n      revert\n        /* \"#utility.yul\":356:426   */\n    tag_182:\n        /* \"#utility.yul\":293:432   */\n      pop\n      jump\t// out\n        /* \"#utility.yul\":437:700   */\n    tag_22:\n        /* \"#utility.yul\":504:510   */\n      0x00\n        /* \"#utility.yul\":557:559   */\n      0x20\n        /* \"#utility.yul\":545:554   */\n      dup3\n        /* \"#utility.yul\":536:543   */\n      dup5\n        /* \"#utility.yul\":532:555   */\n      sub\n        /* \"#utility.yul\":528:560   */\n      slt\n        /* \"#utility.yul\":525:577   */\n      iszero\n      tag_184\n      jumpi\n        /* \"#utility.yul\":573:574   */\n      0x00\n        /* \"#utility.yul\":570:571   */\n      dup1\n        /* \"#utility.yul\":563:575   */\n      revert\n        /* \"#utility.yul\":525:577   */\n    tag_184:\n        /* \"#utility.yul\":612:621   */\n      dup2\n        /* \"#utility.yul\":599:622   */\n      calldataload\n        /* \"#utility.yul\":631:670   */\n      tag_117\n        /* \"#utility.yul\":664:669   */\n      dup2\n        /* \"#utility.yul\":631:670   */\n      tag_176\n      jump\t// in\n        /* \"#utility.yul\":887:1305   */\n    tag_32:\n        /* \"#utility.yul\":969:975   */\n      0x00\n        /* \"#utility.yul\":977:983   */\n      dup1\n        /* \"#utility.yul\":1030:1032   */\n      0x40\n        /* \"#utility.yul\":1018:1027   */\n      dup4\n        /* \"#utility.yul\":1009:1016   */\n      dup6\n        /* \"#utility.yul\":1005:1028   */\n      sub\n        /* \"#utility.yul\":1001:1033   */\n      slt\n        /* \"#utility.yul\":998:1050   */\n      iszero\n      tag_188\n      jumpi\n        /* \"#utility.yul\":1046:1047   */\n      0x00\n        /* \"#utility.yul\":1043:1044   */\n      dup1\n        /* \"#utility.yul\":1036:1048   */\n      revert\n        /* \"#utility.yul\":998:1050   */\n    tag_188:\n        /* \"#utility.yul\":1085:1094   */\n      dup3\n        /* \"#utility.yul\":1072:1095   */\n      calldataload\n        /* \"#utility.yul\":1104:1143   */\n      tag_189\n        /* \"#utility.yul\":1137:1142   */\n      dup2\n        /* \"#utility.yul\":1104:1143   */\n      tag_176\n      jump\t// in\n    tag_189:\n        /* \"#utility.yul\":1162:1167   */\n      swap2\n      pop\n        /* \"#utility.yul\":1219:1221   */\n      0x20\n        /* \"#utility.yul\":1204:1222   */\n      dup4\n      add\n        /* \"#utility.yul\":1191:1223   */\n      calldataload\n        /* \"#utility.yul\":1232:1273   */\n      tag_190\n        /* \"#utility.yul\":1191:1223   */\n      dup2\n        /* \"#utility.yul\":1232:1273   */\n      tag_176\n      jump\t// in\n    tag_190:\n        /* \"#utility.yul\":1292:1299   */\n      dup1\n        /* \"#utility.yul\":1282:1299   */\n      swap2\n      pop\n      pop\n        /* \"#utility.yul\":887:1305   */\n      swap3\n      pop\n      swap3\n      swap1\n      pop\n      jump\t// out\n        /* \"#utility.yul\":1310:1490   */\n    tag_42:\n        /* \"#utility.yul\":1369:1375   */\n      0x00\n        /* \"#utility.yul\":1422:1424   */\n      0x20\n        /* \"#utility.yul\":1410:1419   */\n      dup3\n        /* \"#utility.yul\":1401:1408   */\n      dup5\n        /* \"#utility.yul\":1397:1420   */\n      sub\n        /* \"#utility.yul\":1393:1425   */\n      slt\n        /* \"#utility.yul\":1390:1442   */\n      iszero\n      tag_192\n      jumpi\n        /* \"#utility.yul\":1438:1439   */\n      0x00\n        /* \"#utility.yul\":1435:1436   */\n      dup1\n        /* \"#utility.yul\":1428:1440   */\n      revert\n        /* \"#utility.yul\":1390:1442   */\n    tag_192:\n      pop\n        /* \"#utility.yul\":1461:1484   */\n      calldataload\n      swap2\n        /* \"#utility.yul\":1310:1490   */\n      swap1\n      pop\n      jump\t// out\n        /* \"#utility.yul\":2237:2639   */\n    tag_71:\n        /* \"#utility.yul\":2439:2441   */\n      0x20\n        /* \"#utility.yul\":2421:2442   */\n      dup1\n      dup3\n      mstore\n        /* \"#utility.yul\":2478:2480   */\n      0x26\n        /* \"#utility.yul\":2458:2476   */\n      swap1\n      dup3\n      add\n        /* \"#utility.yul\":2451:2481   */\n      mstore\n        /* \"#utility.yul\":2517:2551   */\n      0x5061796d656e7453706c69747465723a206163636f756e7420686173206e6f20\n        /* \"#utility.yul\":2512:2514   */\n      0x40\n        /* \"#utility.yul\":2497:2515   */\n      dup3\n      add\n        /* \"#utility.yul\":2490:2552   */\n      mstore\n      shl(0xd0, 0x736861726573)\n        /* \"#utility.yul\":2583:2585   */\n      0x60\n        /* \"#utility.yul\":2568:2586   */\n      dup3\n      add\n        /* \"#utility.yul\":2561:2597   */\n      mstore\n        /* \"#utility.yul\":2629:2632   */\n      0x80\n        /* \"#utility.yul\":2614:2633   */\n      add\n      swap1\n        /* \"#utility.yul\":2237:2639   */\n      jump\t// out\n        /* \"#utility.yul\":2644:2771   */\n    tag_177:\n        /* \"#utility.yul\":2705:2715   */\n      0x4e487b71\n        /* \"#utility.yul\":2700:2703   */\n      0xe0\n        /* \"#utility.yul\":2696:2716   */\n      shl\n        /* \"#utility.yul\":2693:2694   */\n      0x00\n        /* \"#utility.yul\":2686:2717   */\n      mstore\n        /* \"#utility.yul\":2736:2740   */\n      0x11\n        /* \"#utility.yul\":2733:2734   */\n      0x04\n        /* \"#utility.yul\":2726:2741   */\n      mstore\n        /* \"#utility.yul\":2760:2764   */\n      0x24\n        /* \"#utility.yul\":2757:2758   */\n      0x00\n        /* \"#utility.yul\":2750:2765   */\n      revert\n        /* \"#utility.yul\":2776:2904   */\n    tag_74:\n        /* \"#utility.yul\":2816:2819   */\n      0x00\n        /* \"#utility.yul\":2847:2848   */\n      dup3\n        /* \"#utility.yul\":2843:2849   */\n      not\n        /* \"#utility.yul\":2840:2841   */\n      dup3\n        /* \"#utility.yul\":2837:2850   */\n      gt\n        /* \"#utility.yul\":2834:2873   */\n      iszero\n      tag_204\n      jumpi\n        /* \"#utility.yul\":2853:2871   */\n      tag_204\n      tag_177\n      jump\t// in\n    tag_204:\n      pop\n        /* \"#utility.yul\":2889:2898   */\n      add\n      swap1\n        /* \"#utility.yul\":2776:2904   */\n      jump\t// out\n        /* \"#utility.yul\":2909:3316   */\n    tag_80:\n        /* \"#utility.yul\":3111:3113   */\n      0x20\n        /* \"#utility.yul\":3093:3114   */\n      dup1\n      dup3\n      mstore\n        /* \"#utility.yul\":3150:3152   */\n      0x2b\n        /* \"#utility.yul\":3130:3148   */\n      swap1\n      dup3\n      add\n        /* \"#utility.yul\":3123:3153   */\n      mstore\n        /* \"#utility.yul\":3189:3223   */\n      0x5061796d656e7453706c69747465723a206163636f756e74206973206e6f7420\n        /* \"#utility.yul\":3184:3186   */\n      0x40\n        /* \"#utility.yul\":3169:3187   */\n      dup3\n      add\n        /* \"#utility.yul\":3162:3224   */\n      mstore\n      shl(0xaa, 0x191d59481c185e5b595b9d)\n        /* \"#utility.yul\":3255:3257   */\n      0x60\n        /* \"#utility.yul\":3240:3258   */\n      dup3\n      add\n        /* \"#utility.yul\":3233:3274   */\n      mstore\n        /* \"#utility.yul\":3306:3309   */\n      0x80\n        /* \"#utility.yul\":3291:3310   */\n      add\n      swap1\n        /* \"#utility.yul\":2909:3316   */\n      jump\t// out\n        /* \"#utility.yul\":3608:3792   */\n    tag_97:\n        /* \"#utility.yul\":3678:3684   */\n      0x00\n        /* \"#utility.yul\":3731:3733   */\n      0x20\n        /* \"#utility.yul\":3719:3728   */\n      dup3\n        /* \"#utility.yul\":3710:3717   */\n      dup5\n        /* \"#utility.yul\":3706:3729   */\n      sub\n        /* \"#utility.yul\":3702:3734   */\n      slt\n        /* \"#utility.yul\":3699:3751   */\n      iszero\n      tag_208\n      jumpi\n        /* \"#utility.yul\":3747:3748   */\n      0x00\n        /* \"#utility.yul\":3744:3745   */\n      dup1\n        /* \"#utility.yul\":3737:3749   */\n      revert\n        /* \"#utility.yul\":3699:3751   */\n    tag_208:\n      pop\n        /* \"#utility.yul\":3770:3786   */\n      mload\n      swap2\n        /* \"#utility.yul\":3608:3792   */\n      swap1\n      pop\n      jump\t// out\n        /* \"#utility.yul\":3797:3924   */\n    tag_111:\n        /* \"#utility.yul\":3858:3868   */\n      0x4e487b71\n        /* \"#utility.yul\":3853:3856   */\n      0xe0\n        /* \"#utility.yul\":3849:3869   */\n      shl\n        /* \"#utility.yul\":3846:3847   */\n      0x00\n        /* \"#utility.yul\":3839:3870   */\n      mstore\n        /* \"#utility.yul\":3889:3893   */\n      0x32\n        /* \"#utility.yul\":3886:3887   */\n      0x04\n        /* \"#utility.yul\":3879:3894   */\n      mstore\n        /* \"#utility.yul\":3913:3917   */\n      0x24\n        /* \"#utility.yul\":3910:3911   */\n      0x00\n        /* \"#utility.yul\":3903:3918   */\n      revert\n        /* \"#utility.yul\":3929:4097   */\n    tag_119:\n        /* \"#utility.yul\":3969:3976   */\n      0x00\n        /* \"#utility.yul\":4035:4036   */\n      dup2\n        /* \"#utility.yul\":4031:4032   */\n      0x00\n        /* \"#utility.yul\":4027:4033   */\n      not\n        /* \"#utility.yul\":4023:4037   */\n      div\n        /* \"#utility.yul\":4020:4021   */\n      dup4\n        /* \"#utility.yul\":4017:4038   */\n      gt\n        /* \"#utility.yul\":4012:4013   */\n      dup3\n        /* \"#utility.yul\":4005:4014   */\n      iszero\n        /* \"#utility.yul\":3998:4015   */\n      iszero\n        /* \"#utility.yul\":3994:4039   */\n      and\n        /* \"#utility.yul\":3991:4062   */\n      iszero\n      tag_212\n      jumpi\n        /* \"#utility.yul\":4042:4060   */\n      tag_212\n      tag_177\n      jump\t// in\n    tag_212:\n      pop\n        /* \"#utility.yul\":4082:4091   */\n      mul\n      swap1\n        /* \"#utility.yul\":3929:4097   */\n      jump\t// out\n        /* \"#utility.yul\":4102:4319   */\n    tag_121:\n        /* \"#utility.yul\":4142:4143   */\n      0x00\n        /* \"#utility.yul\":4168:4169   */\n      dup3\n        /* \"#utility.yul\":4158:4290   */\n      tag_214\n      jumpi\n        /* \"#utility.yul\":4212:4222   */\n      0x4e487b71\n        /* \"#utility.yul\":4207:4210   */\n      0xe0\n        /* \"#utility.yul\":4203:4223   */\n      shl\n        /* \"#utility.yul\":4200:4201   */\n      0x00\n        /* \"#utility.yul\":4193:4224   */\n      mstore\n        /* \"#utility.yul\":4247:4251   */\n      0x12\n        /* \"#utility.yul\":4244:4245   */\n      0x04\n        /* \"#utility.yul\":4237:4252   */\n      mstore\n        /* \"#utility.yul\":4275:4279   */\n      0x24\n        /* \"#utility.yul\":4272:4273   */\n      0x00\n        /* \"#utility.yul\":4265:4280   */\n      revert\n        /* \"#utility.yul\":4158:4290   */\n    tag_214:\n      pop\n        /* \"#utility.yul\":4304:4313   */\n      div\n      swap1\n        /* \"#utility.yul\":4102:4319   */\n      jump\t// out\n        /* \"#utility.yul\":4324:4449   */\n    tag_123:\n        /* \"#utility.yul\":4364:4368   */\n      0x00\n        /* \"#utility.yul\":4392:4393   */\n      dup3\n        /* \"#utility.yul\":4389:4390   */\n      dup3\n        /* \"#utility.yul\":4386:4394   */\n      lt\n        /* \"#utility.yul\":4383:4417   */\n      iszero\n      tag_217\n      jumpi\n        /* \"#utility.yul\":4397:4415   */\n      tag_217\n      tag_177\n      jump\t// in\n    tag_217:\n      pop\n        /* \"#utility.yul\":4434:4443   */\n      sub\n      swap1\n        /* \"#utility.yul\":4324:4449   */\n      jump\t// out\n        /* \"#utility.yul\":5449:5726   */\n    tag_145:\n        /* \"#utility.yul\":5516:5522   */\n      0x00\n        /* \"#utility.yul\":5569:5571   */\n      0x20\n        /* \"#utility.yul\":5557:5566   */\n      dup3\n        /* \"#utility.yul\":5548:5555   */\n      dup5\n        /* \"#utility.yul\":5544:5567   */\n      sub\n        /* \"#utility.yul\":5540:5572   */\n      slt\n        /* \"#utility.yul\":5537:5589   */\n      iszero\n      tag_222\n      jumpi\n        /* \"#utility.yul\":5585:5586   */\n      0x00\n        /* \"#utility.yul\":5582:5583   */\n      dup1\n        /* \"#utility.yul\":5575:5587   */\n      revert\n        /* \"#utility.yul\":5537:5589   */\n    tag_222:\n        /* \"#utility.yul\":5617:5626   */\n      dup2\n        /* \"#utility.yul\":5611:5627   */\n      mload\n        /* \"#utility.yul\":5670:5675   */\n      dup1\n        /* \"#utility.yul\":5663:5676   */\n      iszero\n        /* \"#utility.yul\":5656:5677   */\n      iszero\n        /* \"#utility.yul\":5649:5654   */\n      dup2\n        /* \"#utility.yul\":5646:5678   */\n      eq\n        /* \"#utility.yul\":5636:5696   */\n      tag_117\n      jumpi\n        /* \"#utility.yul\":5692:5693   */\n      0x00\n        /* \"#utility.yul\":5689:5690   */\n      dup1\n        /* \"#utility.yul\":5682:5694   */\n      revert\n        /* \"#utility.yul\":6907:7165   */\n    tag_178:\n        /* \"#utility.yul\":6979:6980   */\n      0x00\n        /* \"#utility.yul\":6989:7102   */\n    tag_228:\n        /* \"#utility.yul\":7003:7009   */\n      dup4\n        /* \"#utility.yul\":7000:7001   */\n      dup2\n        /* \"#utility.yul\":6997:7010   */\n      lt\n        /* \"#utility.yul\":6989:7102   */\n      iszero\n      tag_230\n      jumpi\n        /* \"#utility.yul\":7079:7090   */\n      dup2\n      dup2\n      add\n        /* \"#utility.yul\":7073:7091   */\n      mload\n        /* \"#utility.yul\":7060:7071   */\n      dup4\n      dup3\n      add\n        /* \"#utility.yul\":7053:7092   */\n      mstore\n        /* \"#utility.yul\":7025:7027   */\n      0x20\n        /* \"#utility.yul\":7018:7028   */\n      add\n        /* \"#utility.yul\":6989:7102   */\n      jump(tag_228)\n    tag_230:\n        /* \"#utility.yul\":7120:7126   */\n      dup4\n        /* \"#utility.yul\":7117:7118   */\n      dup2\n        /* \"#utility.yul\":7114:7127   */\n      gt\n        /* \"#utility.yul\":7111:7159   */\n      iszero\n      tag_231\n      jumpi\n        /* \"#utility.yul\":7155:7156   */\n      0x00\n        /* \"#utility.yul\":7146:7152   */\n      dup5\n        /* \"#utility.yul\":7141:7144   */\n      dup5\n        /* \"#utility.yul\":7137:7153   */\n      add\n        /* \"#utility.yul\":7130:7157   */\n      mstore\n        /* \"#utility.yul\":7111:7159   */\n    tag_231:\n      pop\n        /* \"#utility.yul\":6907:7165   */\n      pop\n      pop\n      pop\n      jump\t// out\n        /* \"#utility.yul\":7170:7444   */\n    tag_162:\n        /* \"#utility.yul\":7299:7302   */\n      0x00\n        /* \"#utility.yul\":7337:7343   */\n      dup3\n        /* \"#utility.yul\":7331:7344   */\n      mload\n        /* \"#utility.yul\":7353:7406   */\n      tag_233\n        /* \"#utility.yul\":7399:7405   */\n      dup2\n        /* \"#utility.yul\":7394:7397   */\n      dup5\n        /* \"#utility.yul\":7387:7391   */\n      0x20\n        /* \"#utility.yul\":7379:7385   */\n      dup8\n        /* \"#utility.yul\":7375:7392   */\n      add\n        /* \"#utility.yul\":7353:7406   */\n      tag_178\n      jump\t// in\n    tag_233:\n        /* \"#utility.yul\":7422:7438   */\n      swap2\n      swap1\n      swap2\n      add\n      swap3\n        /* \"#utility.yul\":7170:7444   */\n      swap2\n      pop\n      pop\n      jump\t// out\n        /* \"#utility.yul\":7449:7832   */\n    tag_175:\n        /* \"#utility.yul\":7598:7600   */\n      0x20\n        /* \"#utility.yul\":7587:7596   */\n      dup2\n        /* \"#utility.yul\":7580:7601   */\n      mstore\n        /* \"#utility.yul\":7561:7565   */\n      0x00\n        /* \"#utility.yul\":7630:7636   */\n      dup3\n        /* \"#utility.yul\":7624:7637   */\n      mload\n        /* \"#utility.yul\":7673:7679   */\n      dup1\n        /* \"#utility.yul\":7668:7670   */\n      0x20\n        /* \"#utility.yul\":7657:7666   */\n      dup5\n        /* \"#utility.yul\":7653:7671   */\n      add\n        /* \"#utility.yul\":7646:7680   */\n      mstore\n        /* \"#utility.yul\":7689:7755   */\n      tag_235\n        /* \"#utility.yul\":7748:7754   */\n      dup2\n        /* \"#utility.yul\":7743:7745   */\n      0x40\n        /* \"#utility.yul\":7732:7741   */\n      dup6\n        /* \"#utility.yul\":7728:7746   */\n      add\n        /* \"#utility.yul\":7723:7725   */\n      0x20\n        /* \"#utility.yul\":7715:7721   */\n      dup8\n        /* \"#utility.yul\":7711:7726   */\n      add\n        /* \"#utility.yul\":7689:7755   */\n      tag_178\n      jump\t// in\n    tag_235:\n        /* \"#utility.yul\":7816:7818   */\n      0x1f\n        /* \"#utility.yul\":7795:7810   */\n      add\n      not(0x1f)\n        /* \"#utility.yul\":7791:7820   */\n      and\n        /* \"#utility.yul\":7776:7821   */\n      swap2\n      swap1\n      swap2\n      add\n        /* \"#utility.yul\":7823:7825   */\n      0x40\n        /* \"#utility.yul\":7772:7826   */\n      add\n      swap3\n        /* \"#utility.yul\":7449:7832   */\n      swap2\n      pop\n      pop\n      jump\t// out\n\n    auxdata: 0xa26469706673582212208e3bab7d306247b2f252665514d8dfdc6a82b5524e73d48eb50529b09b56d21064736f6c634300080d0033\n}\n",
				"bytecode": {
					"linkReferences": {},
					"object": "60806040523480156200001157600080fd5b506040516200117238038062001172833981016040819052620000349162000440565b81818051825114620000a85760405162461bcd60e51b815260206004820152603260248201527f5061796d656e7453706c69747465723a2070617965657320616e6420736861726044820152710cae640d8cadccee8d040dad2e6dac2e8c6d60731b60648201526084015b60405180910390fd5b6000825111620000fb5760405162461bcd60e51b815260206004820152601a60248201527f5061796d656e7453706c69747465723a206e6f2070617965657300000000000060448201526064016200009f565b60005b82518110156200016757620001528382815181106200012157620001216200051e565b60200260200101518383815181106200013e576200013e6200051e565b60200260200101516200017260201b60201c565b806200015e816200054a565b915050620000fe565b505050505062000581565b6001600160a01b038216620001df5760405162461bcd60e51b815260206004820152602c60248201527f5061796d656e7453706c69747465723a206163636f756e74206973207468652060448201526b7a65726f206164647265737360a01b60648201526084016200009f565b60008111620002315760405162461bcd60e51b815260206004820152601d60248201527f5061796d656e7453706c69747465723a2073686172657320617265203000000060448201526064016200009f565b6001600160a01b03821660009081526002602052604090205415620002ad5760405162461bcd60e51b815260206004820152602b60248201527f5061796d656e7453706c69747465723a206163636f756e7420616c726561647960448201526a206861732073686172657360a81b60648201526084016200009f565b60048054600181019091557f8a35acfbc15ff81a39ae7d344fd709f28e8600b4aa8c65c6b64bfe7fe36bd19b0180546001600160a01b0319166001600160a01b0384169081179091556000908152600260205260408120829055546200031590829062000566565b600055604080516001600160a01b0384168152602081018390527f40c340f65e17194d14ddddb073d3c9f888e3cb52b5aae0c6c7706b4fbc905fac910160405180910390a15050565b634e487b7160e01b600052604160045260246000fd5b604051601f8201601f191681016001600160401b03811182821017156200039f576200039f6200035e565b604052919050565b60006001600160401b03821115620003c357620003c36200035e565b5060051b60200190565b600082601f830112620003df57600080fd5b81516020620003f8620003f283620003a7565b62000374565b82815260059290921b840181019181810190868411156200041857600080fd5b8286015b848110156200043557805183529183019183016200041c565b509695505050505050565b600080604083850312156200045457600080fd5b82516001600160401b03808211156200046c57600080fd5b818501915085601f8301126200048157600080fd5b8151602062000494620003f283620003a7565b82815260059290921b84018101918181019089841115620004b457600080fd5b948201945b83861015620004eb5785516001600160a01b0381168114620004db5760008081fd5b82529482019490820190620004b9565b918801519196509093505050808211156200050557600080fd5b506200051485828601620003cd565b9150509250929050565b634e487b7160e01b600052603260045260246000fd5b634e487b7160e01b600052601160045260246000fd5b6000600182016200055f576200055f62000534565b5060010190565b600082198211156200057c576200057c62000534565b500190565b610be180620005916000396000f3fe60806040526004361061008a5760003560e01c80638b83209b116100595780638b83209b146101845780639852595c146101bc578063ce7c2ac2146101f2578063d79779b214610228578063e33b7de31461025e57600080fd5b806319165587146100d85780633a98ef39146100fa578063406072a91461011e57806348b750441461016457600080fd5b366100d3577f6ef95f06320e7a25a04a175ca677b7052bdd97131872c2192525a629f51be77033604080516001600160a01b0390921682523460208301520160405180910390a1005b600080fd5b3480156100e457600080fd5b506100f86100f3366004610955565b610273565b005b34801561010657600080fd5b506000545b6040519081526020015b60405180910390f35b34801561012a57600080fd5b5061010b610139366004610972565b6001600160a01b03918216600090815260066020908152604080832093909416825291909152205490565b34801561017057600080fd5b506100f861017f366004610972565b6103ad565b34801561019057600080fd5b506101a461019f3660046109ab565b610589565b6040516001600160a01b039091168152602001610115565b3480156101c857600080fd5b5061010b6101d7366004610955565b6001600160a01b031660009081526003602052604090205490565b3480156101fe57600080fd5b5061010b61020d366004610955565b6001600160a01b031660009081526002602052604090205490565b34801561023457600080fd5b5061010b610243366004610955565b6001600160a01b031660009081526005602052604090205490565b34801561026a57600080fd5b5060015461010b565b6001600160a01b0381166000908152600260205260409020546102b15760405162461bcd60e51b81526004016102a8906109c4565b60405180910390fd5b60006102bc60015490565b6102c69047610a20565b905060006102f383836102ee866001600160a01b031660009081526003602052604090205490565b6105b9565b9050806000036103155760405162461bcd60e51b81526004016102a890610a38565b6001600160a01b0383166000908152600360205260408120805483929061033d908490610a20565b9250508190555080600160008282546103569190610a20565b90915550610366905083826105fe565b604080516001600160a01b0385168152602081018390527fdf20fd1e76bc69d672e4814fafb2c449bba3a5369d8359adf9e05e6fde87b056910160405180910390a1505050565b6001600160a01b0381166000908152600260205260409020546103e25760405162461bcd60e51b81526004016102a8906109c4565b6001600160a01b0382166000908152600560205260408120546040516370a0823160e01b81523060048201526001600160a01b038516906370a0823190602401602060405180830381865afa15801561043f573d6000803e3d6000fd5b505050506040513d601f19601f820116820180604052508101906104639190610a83565b61046d9190610a20565b905060006104a683836102ee87876001600160a01b03918216600090815260066020908152604080832093909416825291909152205490565b9050806000036104c85760405162461bcd60e51b81526004016102a890610a38565b6001600160a01b038085166000908152600660209081526040808320938716835292905290812080548392906104ff908490610a20565b90915550506001600160a01b0384166000908152600560205260408120805483929061052c908490610a20565b9091555061053d905084848361071c565b604080516001600160a01b038581168252602082018490528616917f3be5b7a71e84ed12875d241991c70855ac5817d847039e17a9d895c1ceb0f18a910160405180910390a250505050565b60006004828154811061059e5761059e610a9c565b6000918252602090912001546001600160a01b031692915050565b600080546001600160a01b0385168252600260205260408220548391906105e09086610ab2565b6105ea9190610ad1565b6105f49190610af3565b90505b9392505050565b8047101561064e5760405162461bcd60e51b815260206004820152601d60248201527f416464726573733a20696e73756666696369656e742062616c616e636500000060448201526064016102a8565b6000826001600160a01b03168260405160006040518083038185875af1925050503d806000811461069b576040519150601f19603f3d011682016040523d82523d6000602084013e6106a0565b606091505b50509050806107175760405162461bcd60e51b815260206004820152603a60248201527f416464726573733a20756e61626c6520746f2073656e642076616c75652c207260448201527f6563697069656e74206d6179206861766520726576657274656400000000000060648201526084016102a8565b505050565b604080516001600160a01b03848116602483015260448083018590528351808403909101815260649092018352602080830180516001600160e01b031663a9059cbb60e01b17905283518085019094528084527f5361666545524332303a206c6f772d6c6576656c2063616c6c206661696c656490840152610717928692916000916107ac918516908490610829565b80519091501561071757808060200190518101906107ca9190610b0a565b6107175760405162461bcd60e51b815260206004820152602a60248201527f5361666545524332303a204552433230206f7065726174696f6e20646964206e6044820152691bdd081cdd58d8d9595960b21b60648201526084016102a8565b60606105f48484600085856001600160a01b0385163b61088b5760405162461bcd60e51b815260206004820152601d60248201527f416464726573733a2063616c6c20746f206e6f6e2d636f6e747261637400000060448201526064016102a8565b600080866001600160a01b031685876040516108a79190610b5c565b60006040518083038185875af1925050503d80600081146108e4576040519150601f19603f3d011682016040523d82523d6000602084013e6108e9565b606091505b50915091506108f9828286610904565b979650505050505050565b606083156109135750816105f7565b8251156109235782518084602001fd5b8160405162461bcd60e51b81526004016102a89190610b78565b6001600160a01b038116811461095257600080fd5b50565b60006020828403121561096757600080fd5b81356105f78161093d565b6000806040838503121561098557600080fd5b82356109908161093d565b915060208301356109a08161093d565b809150509250929050565b6000602082840312156109bd57600080fd5b5035919050565b60208082526026908201527f5061796d656e7453706c69747465723a206163636f756e7420686173206e6f2060408201526573686172657360d01b606082015260800190565b634e487b7160e01b600052601160045260246000fd5b60008219821115610a3357610a33610a0a565b500190565b6020808252602b908201527f5061796d656e7453706c69747465723a206163636f756e74206973206e6f742060408201526a191d59481c185e5b595b9d60aa1b606082015260800190565b600060208284031215610a9557600080fd5b5051919050565b634e487b7160e01b600052603260045260246000fd5b6000816000190483118215151615610acc57610acc610a0a565b500290565b600082610aee57634e487b7160e01b600052601260045260246000fd5b500490565b600082821015610b0557610b05610a0a565b500390565b600060208284031215610b1c57600080fd5b815180151581146105f757600080fd5b60005b83811015610b47578181015183820152602001610b2f565b83811115610b56576000848401525b50505050565b60008251610b6e818460208701610b2c565b9190910192915050565b6020815260008251806020840152610b97816040850160208701610b2c565b601f01601f1916919091016040019291505056fea26469706673582212208e3bab7d306247b2f252665514d8dfdc6a82b5524e73d48eb50529b09b56d21064736f6c634300080d0033",
					"opcodes": "PUSH1 0x80 PUSH1 0x40 MSTORE CALLVALUE DUP1 ISZERO PUSH3 0x11 JUMPI PUSH1 0x0 DUP1 REVERT JUMPDEST POP PUSH1 0x40 MLOAD PUSH3 0x1172 CODESIZE SUB DUP1 PUSH3 0x1172 DUP4 CODECOPY DUP2 ADD PUSH1 0x40 DUP2 SWAP1 MSTORE PUSH3 0x34 SWAP2 PUSH3 0x440 JUMP JUMPDEST DUP2 DUP2 DUP1 MLOAD DUP3 MLOAD EQ PUSH3 0xA8 JUMPI PUSH1 0x40 MLOAD PUSH3 0x461BCD PUSH1 0xE5 SHL DUP2 MSTORE PUSH1 0x20 PUSH1 0x4 DUP3 ADD MSTORE PUSH1 0x32 PUSH1 0x24 DUP3 ADD MSTORE PUSH32 0x5061796D656E7453706C69747465723A2070617965657320616E642073686172 PUSH1 0x44 DUP3 ADD MSTORE PUSH18 0xCAE640D8CADCCEE8D040DAD2E6DAC2E8C6D PUSH1 0x73 SHL PUSH1 0x64 DUP3 ADD MSTORE PUSH1 0x84 ADD JUMPDEST PUSH1 0x40 MLOAD DUP1 SWAP2 SUB SWAP1 REVERT JUMPDEST PUSH1 0x0 DUP3 MLOAD GT PUSH3 0xFB JUMPI PUSH1 0x40 MLOAD PUSH3 0x461BCD PUSH1 0xE5 SHL DUP2 MSTORE PUSH1 0x20 PUSH1 0x4 DUP3 ADD MSTORE PUSH1 0x1A PUSH1 0x24 DUP3 ADD MSTORE PUSH32 0x5061796D656E7453706C69747465723A206E6F20706179656573000000000000 PUSH1 0x44 DUP3 ADD MSTORE PUSH1 0x64 ADD PUSH3 0x9F JUMP JUMPDEST PUSH1 0x0 JUMPDEST DUP3 MLOAD DUP2 LT ISZERO PUSH3 0x167 JUMPI PUSH3 0x152 DUP4 DUP3 DUP2 MLOAD DUP2 LT PUSH3 0x121 JUMPI PUSH3 0x121 PUSH3 0x51E JUMP JUMPDEST PUSH1 0x20 MUL PUSH1 0x20 ADD ADD MLOAD DUP4 DUP4 DUP2 MLOAD DUP2 LT PUSH3 0x13E JUMPI PUSH3 0x13E PUSH3 0x51E JUMP JUMPDEST PUSH1 0x20 MUL PUSH1 0x20 ADD ADD MLOAD PUSH3 0x172 PUSH1 0x20 SHL PUSH1 0x20 SHR JUMP JUMPDEST DUP1 PUSH3 0x15E DUP2 PUSH3 0x54A JUMP JUMPDEST SWAP2 POP POP PUSH3 0xFE JUMP JUMPDEST POP POP POP POP POP PUSH3 0x581 JUMP JUMPDEST PUSH1 0x1 PUSH1 0x1 PUSH1 0xA0 SHL SUB DUP3 AND PUSH3 0x1DF JUMPI PUSH1 0x40 MLOAD PUSH3 0x461BCD PUSH1 0xE5 SHL DUP2 MSTORE PUSH1 0x20 PUSH1 0x4 DUP3 ADD MSTORE PUSH1 0x2C PUSH1 0x24 DUP3 ADD MSTORE PUSH32 0x5061796D656E7453706C69747465723A206163636F756E742069732074686520 PUSH1 0x44 DUP3 ADD MSTORE PUSH12 0x7A65726F2061646472657373 PUSH1 0xA0 SHL PUSH1 0x64 DUP3 ADD MSTORE PUSH1 0x84 ADD PUSH3 0x9F JUMP JUMPDEST PUSH1 0x0 DUP2 GT PUSH3 0x231 JUMPI PUSH1 0x40 MLOAD PUSH3 0x461BCD PUSH1 0xE5 SHL DUP2 MSTORE PUSH1 0x20 PUSH1 0x4 DUP3 ADD MSTORE PUSH1 0x1D PUSH1 0x24 DUP3 ADD MSTORE PUSH32 0x5061796D656E7453706C69747465723A20736861726573206172652030000000 PUSH1 0x44 DUP3 ADD MSTORE PUSH1 0x64 ADD PUSH3 0x9F JUMP JUMPDEST PUSH1 0x1 PUSH1 0x1 PUSH1 0xA0 SHL SUB DUP3 AND PUSH1 0x0 SWAP1 DUP2 MSTORE PUSH1 0x2 PUSH1 0x20 MSTORE PUSH1 0x40 SWAP1 KECCAK256 SLOAD ISZERO PUSH3 0x2AD JUMPI PUSH1 0x40 MLOAD PUSH3 0x461BCD PUSH1 0xE5 SHL DUP2 MSTORE PUSH1 0x20 PUSH1 0x4 DUP3 ADD MSTORE PUSH1 0x2B PUSH1 0x24 DUP3 ADD MSTORE PUSH32 0x5061796D656E7453706C69747465723A206163636F756E7420616C7265616479 PUSH1 0x44 DUP3 ADD MSTORE PUSH11 0x2068617320736861726573 PUSH1 0xA8 SHL PUSH1 0x64 DUP3 ADD MSTORE PUSH1 0x84 ADD PUSH3 0x9F JUMP JUMPDEST PUSH1 0x4 DUP1 SLOAD PUSH1 0x1 DUP2 ADD SWAP1 SWAP2 SSTORE PUSH32 0x8A35ACFBC15FF81A39AE7D344FD709F28E8600B4AA8C65C6B64BFE7FE36BD19B ADD DUP1 SLOAD PUSH1 0x1 PUSH1 0x1 PUSH1 0xA0 SHL SUB NOT AND PUSH1 0x1 PUSH1 0x1 PUSH1 0xA0 SHL SUB DUP5 AND SWAP1 DUP2 OR SWAP1 SWAP2 SSTORE PUSH1 0x0 SWAP1 DUP2 MSTORE PUSH1 0x2 PUSH1 0x20 MSTORE PUSH1 0x40 DUP2 KECCAK256 DUP3 SWAP1 SSTORE SLOAD PUSH3 0x315 SWAP1 DUP3 SWAP1 PUSH3 0x566 JUMP JUMPDEST PUSH1 0x0 SSTORE PUSH1 0x40 DUP1 MLOAD PUSH1 0x1 PUSH1 0x1 PUSH1 0xA0 SHL SUB DUP5 AND DUP2 MSTORE PUSH1 0x20 DUP2 ADD DUP4 SWAP1 MSTORE PUSH32 0x40C340F65E17194D14DDDDB073D3C9F888E3CB52B5AAE0C6C7706B4FBC905FAC SWAP2 ADD PUSH1 0x40 MLOAD DUP1 SWAP2 SUB SWAP1 LOG1 POP POP JUMP JUMPDEST PUSH4 0x4E487B71 PUSH1 0xE0 SHL PUSH1 0x0 MSTORE PUSH1 0x41 PUSH1 0x4 MSTORE PUSH1 0x24 PUSH1 0x0 REVERT JUMPDEST PUSH1 0x40 MLOAD PUSH1 0x1F DUP3 ADD PUSH1 0x1F NOT AND DUP2 ADD PUSH1 0x1 PUSH1 0x1 PUSH1 0x40 SHL SUB DUP2 GT DUP3 DUP3 LT OR ISZERO PUSH3 0x39F JUMPI PUSH3 0x39F PUSH3 0x35E JUMP JUMPDEST PUSH1 0x40 MSTORE SWAP2 SWAP1 POP JUMP JUMPDEST PUSH1 0x0 PUSH1 0x1 PUSH1 0x1 PUSH1 0x40 SHL SUB DUP3 GT ISZERO PUSH3 0x3C3 JUMPI PUSH3 0x3C3 PUSH3 0x35E JUMP JUMPDEST POP PUSH1 0x5 SHL PUSH1 0x20 ADD SWAP1 JUMP JUMPDEST PUSH1 0x0 DUP3 PUSH1 0x1F DUP4 ADD SLT PUSH3 0x3DF JUMPI PUSH1 0x0 DUP1 REVERT JUMPDEST DUP2 MLOAD PUSH1 0x20 PUSH3 0x3F8 PUSH3 0x3F2 DUP4 PUSH3 0x3A7 JUMP JUMPDEST PUSH3 0x374 JUMP JUMPDEST DUP3 DUP2 MSTORE PUSH1 0x5 SWAP3 SWAP1 SWAP3 SHL DUP5 ADD DUP2 ADD SWAP2 DUP2 DUP2 ADD SWAP1 DUP7 DUP5 GT ISZERO PUSH3 0x418 JUMPI PUSH1 0x0 DUP1 REVERT JUMPDEST DUP3 DUP7 ADD JUMPDEST DUP5 DUP2 LT ISZERO PUSH3 0x435 JUMPI DUP1 MLOAD DUP4 MSTORE SWAP2 DUP4 ADD SWAP2 DUP4 ADD PUSH3 0x41C JUMP JUMPDEST POP SWAP7 SWAP6 POP POP POP POP POP POP JUMP JUMPDEST PUSH1 0x0 DUP1 PUSH1 0x40 DUP4 DUP6 SUB SLT ISZERO PUSH3 0x454 JUMPI PUSH1 0x0 DUP1 REVERT JUMPDEST DUP3 MLOAD PUSH1 0x1 PUSH1 0x1 PUSH1 0x40 SHL SUB DUP1 DUP3 GT ISZERO PUSH3 0x46C JUMPI PUSH1 0x0 DUP1 REVERT JUMPDEST DUP2 DUP6 ADD SWAP2 POP DUP6 PUSH1 0x1F DUP4 ADD SLT PUSH3 0x481 JUMPI PUSH1 0x0 DUP1 REVERT JUMPDEST DUP2 MLOAD PUSH1 0x20 PUSH3 0x494 PUSH3 0x3F2 DUP4 PUSH3 0x3A7 JUMP JUMPDEST DUP3 DUP2 MSTORE PUSH1 0x5 SWAP3 SWAP1 SWAP3 SHL DUP5 ADD DUP2 ADD SWAP2 DUP2 DUP2 ADD SWAP1 DUP10 DUP5 GT ISZERO PUSH3 0x4B4 JUMPI PUSH1 0x0 DUP1 REVERT JUMPDEST SWAP5 DUP3 ADD SWAP5 JUMPDEST DUP4 DUP7 LT ISZERO PUSH3 0x4EB JUMPI DUP6 MLOAD PUSH1 0x1 PUSH1 0x1 PUSH1 0xA0 SHL SUB DUP2 AND DUP2 EQ PUSH3 0x4DB JUMPI PUSH1 0x0 DUP1 DUP2 REVERT JUMPDEST DUP3 MSTORE SWAP5 DUP3 ADD SWAP5 SWAP1 DUP3 ADD SWAP1 PUSH3 0x4B9 JUMP JUMPDEST SWAP2 DUP9 ADD MLOAD SWAP2 SWAP7 POP SWAP1 SWAP4 POP POP POP DUP1 DUP3 GT ISZERO PUSH3 0x505 JUMPI PUSH1 0x0 DUP1 REVERT JUMPDEST POP PUSH3 0x514 DUP6 DUP3 DUP7 ADD PUSH3 0x3CD JUMP JUMPDEST SWAP2 POP POP SWAP3 POP SWAP3 SWAP1 POP JUMP JUMPDEST PUSH4 0x4E487B71 PUSH1 0xE0 SHL PUSH1 0x0 MSTORE PUSH1 0x32 PUSH1 0x4 MSTORE PUSH1 0x24 PUSH1 0x0 REVERT JUMPDEST PUSH4 0x4E487B71 PUSH1 0xE0 SHL PUSH1 0x0 MSTORE PUSH1 0x11 PUSH1 0x4 MSTORE PUSH1 0x24 PUSH1 0x0 REVERT JUMPDEST PUSH1 0x0 PUSH1 0x1 DUP3 ADD PUSH3 0x55F JUMPI PUSH3 0x55F PUSH3 0x534 JUMP JUMPDEST POP PUSH1 0x1 ADD SWAP1 JUMP JUMPDEST PUSH1 0x0 DUP3 NOT DUP3 GT ISZERO PUSH3 0x57C JUMPI PUSH3 0x57C PUSH3 0x534 JUMP JUMPDEST POP ADD SWAP1 JUMP JUMPDEST PUSH2 0xBE1 DUP1 PUSH3 0x591 PUSH1 0x0 CODECOPY PUSH1 0x0 RETURN INVALID PUSH1 0x80 PUSH1 0x40 MSTORE PUSH1 0x4 CALLDATASIZE LT PUSH2 0x8A JUMPI PUSH1 0x0 CALLDATALOAD PUSH1 0xE0 SHR DUP1 PUSH4 0x8B83209B GT PUSH2 0x59 JUMPI DUP1 PUSH4 0x8B83209B EQ PUSH2 0x184 JUMPI DUP1 PUSH4 0x9852595C EQ PUSH2 0x1BC JUMPI DUP1 PUSH4 0xCE7C2AC2 EQ PUSH2 0x1F2 JUMPI DUP1 PUSH4 0xD79779B2 EQ PUSH2 0x228 JUMPI DUP1 PUSH4 0xE33B7DE3 EQ PUSH2 0x25E JUMPI PUSH1 0x0 DUP1 REVERT JUMPDEST DUP1 PUSH4 0x19165587 EQ PUSH2 0xD8 JUMPI DUP1 PUSH4 0x3A98EF39 EQ PUSH2 0xFA JUMPI DUP1 PUSH4 0x406072A9 EQ PUSH2 0x11E JUMPI DUP1 PUSH4 0x48B75044 EQ PUSH2 0x164 JUMPI PUSH1 0x0 DUP1 REVERT JUMPDEST CALLDATASIZE PUSH2 0xD3 JUMPI PUSH32 0x6EF95F06320E7A25A04A175CA677B7052BDD97131872C2192525A629F51BE770 CALLER PUSH1 0x40 DUP1 MLOAD PUSH1 0x1 PUSH1 0x1 PUSH1 0xA0 SHL SUB SWAP1 SWAP3 AND DUP3 MSTORE CALLVALUE PUSH1 0x20 DUP4 ADD MSTORE ADD PUSH1 0x40 MLOAD DUP1 SWAP2 SUB SWAP1 LOG1 STOP JUMPDEST PUSH1 0x0 DUP1 REVERT JUMPDEST CALLVALUE DUP1 ISZERO PUSH2 0xE4 JUMPI PUSH1 0x0 DUP1 REVERT JUMPDEST POP PUSH2 0xF8 PUSH2 0xF3 CALLDATASIZE PUSH1 0x4 PUSH2 0x955 JUMP JUMPDEST PUSH2 0x273 JUMP JUMPDEST STOP JUMPDEST CALLVALUE DUP1 ISZERO PUSH2 0x106 JUMPI PUSH1 0x0 DUP1 REVERT JUMPDEST POP PUSH1 0x0 SLOAD JUMPDEST PUSH1 0x40 MLOAD SWAP1 DUP2 MSTORE PUSH1 0x20 ADD JUMPDEST PUSH1 0x40 MLOAD DUP1 SWAP2 SUB SWAP1 RETURN JUMPDEST CALLVALUE DUP1 ISZERO PUSH2 0x12A JUMPI PUSH1 0x0 DUP1 REVERT JUMPDEST POP PUSH2 0x10B PUSH2 0x139 CALLDATASIZE PUSH1 0x4 PUSH2 0x972 JUMP JUMPDEST PUSH1 0x1 PUSH1 0x1 PUSH1 0xA0 SHL SUB SWAP2 DUP3 AND PUSH1 0x0 SWAP1 DUP2 MSTORE PUSH1 0x6 PUSH1 0x20 SWAP1 DUP2 MSTORE PUSH1 0x40 DUP1 DUP4 KECCAK256 SWAP4 SWAP1 SWAP5 AND DUP3 MSTORE SWAP2 SWAP1 SWAP2 MSTORE KECCAK256 SLOAD SWAP1 JUMP JUMPDEST CALLVALUE DUP1 ISZERO PUSH2 0x170 JUMPI PUSH1 0x0 DUP1 REVERT JUMPDEST POP PUSH2 0xF8 PUSH2 0x17F CALLDATASIZE PUSH1 0x4 PUSH2 0x972 JUMP JUMPDEST PUSH2 0x3AD JUMP JUMPDEST CALLVALUE DUP1 ISZERO PUSH2 0x190 JUMPI PUSH1 0x0 DUP1 REVERT JUMPDEST POP PUSH2 0x1A4 PUSH2 0x19F CALLDATASIZE PUSH1 0x4 PUSH2 0x9AB JUMP JUMPDEST PUSH2 0x589 JUMP JUMPDEST PUSH1 0x40 MLOAD PUSH1 0x1 PUSH1 0x1 PUSH1 0xA0 SHL SUB SWAP1 SWAP2 AND DUP2 MSTORE PUSH1 0x20 ADD PUSH2 0x115 JUMP JUMPDEST CALLVALUE DUP1 ISZERO PUSH2 0x1C8 JUMPI PUSH1 0x0 DUP1 REVERT JUMPDEST POP PUSH2 0x10B PUSH2 0x1D7 CALLDATASIZE PUSH1 0x4 PUSH2 0x955 JUMP JUMPDEST PUSH1 0x1 PUSH1 0x1 PUSH1 0xA0 SHL SUB AND PUSH1 0x0 SWAP1 DUP2 MSTORE PUSH1 0x3 PUSH1 0x20 MSTORE PUSH1 0x40 SWAP1 KECCAK256 SLOAD SWAP1 JUMP JUMPDEST CALLVALUE DUP1 ISZERO PUSH2 0x1FE JUMPI PUSH1 0x0 DUP1 REVERT JUMPDEST POP PUSH2 0x10B PUSH2 0x20D CALLDATASIZE PUSH1 0x4 PUSH2 0x955 JUMP JUMPDEST PUSH1 0x1 PUSH1 0x1 PUSH1 0xA0 SHL SUB AND PUSH1 0x0 SWAP1 DUP2 MSTORE PUSH1 0x2 PUSH1 0x20 MSTORE PUSH1 0x40 SWAP1 KECCAK256 SLOAD SWAP1 JUMP JUMPDEST CALLVALUE DUP1 ISZERO PUSH2 0x234 JUMPI PUSH1 0x0 DUP1 REVERT JUMPDEST POP PUSH2 0x10B PUSH2 0x243 CALLDATASIZE PUSH1 0x4 PUSH2 0x955 JUMP JUMPDEST PUSH1 0x1 PUSH1 0x1 PUSH1 0xA0 SHL SUB AND PUSH1 0x0 SWAP1 DUP2 MSTORE PUSH1 0x5 PUSH1 0x20 MSTORE PUSH1 0x40 SWAP1 KECCAK256 SLOAD SWAP1 JUMP JUMPDEST CALLVALUE DUP1 ISZERO PUSH2 0x26A JUMPI PUSH1 0x0 DUP1 REVERT JUMPDEST POP PUSH1 0x1 SLOAD PUSH2 0x10B JUMP JUMPDEST PUSH1 0x1 PUSH1 0x1 PUSH1 0xA0 SHL SUB DUP2 AND PUSH1 0x0 SWAP1 DUP2 MSTORE PUSH1 0x2 PUSH1 0x20 MSTORE PUSH1 0x40 SWAP1 KECCAK256 SLOAD PUSH2 0x2B1 JUMPI PUSH1 0x40 MLOAD PUSH3 0x461BCD PUSH1 0xE5 SHL DUP2 MSTORE PUSH1 0x4 ADD PUSH2 0x2A8 SWAP1 PUSH2 0x9C4 JUMP JUMPDEST PUSH1 0x40 MLOAD DUP1 SWAP2 SUB SWAP1 REVERT JUMPDEST PUSH1 0x0 PUSH2 0x2BC PUSH1 0x1 SLOAD SWAP1 JUMP JUMPDEST PUSH2 0x2C6 SWAP1 SELFBALANCE PUSH2 0xA20 JUMP JUMPDEST SWAP1 POP PUSH1 0x0 PUSH2 0x2F3 DUP4 DUP4 PUSH2 0x2EE DUP7 PUSH1 0x1 PUSH1 0x1 PUSH1 0xA0 SHL SUB AND PUSH1 0x0 SWAP1 DUP2 MSTORE PUSH1 0x3 PUSH1 0x20 MSTORE PUSH1 0x40 SWAP1 KECCAK256 SLOAD SWAP1 JUMP JUMPDEST PUSH2 0x5B9 JUMP JUMPDEST SWAP1 POP DUP1 PUSH1 0x0 SUB PUSH2 0x315 JUMPI PUSH1 0x40 MLOAD PUSH3 0x461BCD PUSH1 0xE5 SHL DUP2 MSTORE PUSH1 0x4 ADD PUSH2 0x2A8 SWAP1 PUSH2 0xA38 JUMP JUMPDEST PUSH1 0x1 PUSH1 0x1 PUSH1 0xA0 SHL SUB DUP4 AND PUSH1 0x0 SWAP1 DUP2 MSTORE PUSH1 0x3 PUSH1 0x20 MSTORE PUSH1 0x40 DUP2 KECCAK256 DUP1 SLOAD DUP4 SWAP3 SWAP1 PUSH2 0x33D SWAP1 DUP5 SWAP1 PUSH2 0xA20 JUMP JUMPDEST SWAP3 POP POP DUP2 SWAP1 SSTORE POP DUP1 PUSH1 0x1 PUSH1 0x0 DUP3 DUP3 SLOAD PUSH2 0x356 SWAP2 SWAP1 PUSH2 0xA20 JUMP JUMPDEST SWAP1 SWAP2 SSTORE POP PUSH2 0x366 SWAP1 POP DUP4 DUP3 PUSH2 0x5FE JUMP JUMPDEST PUSH1 0x40 DUP1 MLOAD PUSH1 0x1 PUSH1 0x1 PUSH1 0xA0 SHL SUB DUP6 AND DUP2 MSTORE PUSH1 0x20 DUP2 ADD DUP4 SWAP1 MSTORE PUSH32 0xDF20FD1E76BC69D672E4814FAFB2C449BBA3A5369D8359ADF9E05E6FDE87B056 SWAP2 ADD PUSH1 0x40 MLOAD DUP1 SWAP2 SUB SWAP1 LOG1 POP POP POP JUMP JUMPDEST PUSH1 0x1 PUSH1 0x1 PUSH1 0xA0 SHL SUB DUP2 AND PUSH1 0x0 SWAP1 DUP2 MSTORE PUSH1 0x2 PUSH1 0x20 MSTORE PUSH1 0x40 SWAP1 KECCAK256 SLOAD PUSH2 0x3E2 JUMPI PUSH1 0x40 MLOAD PUSH3 0x461BCD PUSH1 0xE5 SHL DUP2 MSTORE PUSH1 0x4 ADD PUSH2 0x2A8 SWAP1 PUSH2 0x9C4 JUMP JUMPDEST PUSH1 0x1 PUSH1 0x1 PUSH1 0xA0 SHL SUB DUP3 AND PUSH1 0x0 SWAP1 DUP2 MSTORE PUSH1 0x5 PUSH1 0x20 MSTORE PUSH1 0x40 DUP2 KECCAK256 SLOAD PUSH1 0x40 MLOAD PUSH4 0x70A08231 PUSH1 0xE0 SHL DUP2 MSTORE ADDRESS PUSH1 0x4 DUP3 ADD MSTORE PUSH1 0x1 PUSH1 0x1 PUSH1 0xA0 SHL SUB DUP6 AND SWAP1 PUSH4 0x70A08231 SWAP1 PUSH1 0x24 ADD PUSH1 0x20 PUSH1 0x40 MLOAD DUP1 DUP4 SUB DUP2 DUP7 GAS STATICCALL ISZERO DUP1 ISZERO PUSH2 0x43F JUMPI RETURNDATASIZE PUSH1 0x0 DUP1 RETURNDATACOPY RETURNDATASIZE PUSH1 0x0 REVERT JUMPDEST POP POP POP POP PUSH1 0x40 MLOAD RETURNDATASIZE PUSH1 0x1F NOT PUSH1 0x1F DUP3 ADD AND DUP3 ADD DUP1 PUSH1 0x40 MSTORE POP DUP2 ADD SWAP1 PUSH2 0x463 SWAP2 SWAP1 PUSH2 0xA83 JUMP JUMPDEST PUSH2 0x46D SWAP2 SWAP1 PUSH2 0xA20 JUMP JUMPDEST SWAP1 POP PUSH1 0x0 PUSH2 0x4A6 DUP4 DUP4 PUSH2 0x2EE DUP8 DUP8 PUSH1 0x1 PUSH1 0x1 PUSH1 0xA0 SHL SUB SWAP2 DUP3 AND PUSH1 0x0 SWAP1 DUP2 MSTORE PUSH1 0x6 PUSH1 0x20 SWAP1 DUP2 MSTORE PUSH1 0x40 DUP1 DUP4 KECCAK256 SWAP4 SWAP1 SWAP5 AND DUP3 MSTORE SWAP2 SWAP1 SWAP2 MSTORE KECCAK256 SLOAD SWAP1 JUMP JUMPDEST SWAP1 POP DUP1 PUSH1 0x0 SUB PUSH2 0x4C8 JUMPI PUSH1 0x40 MLOAD PUSH3 0x461BCD PUSH1 0xE5 SHL DUP2 MSTORE PUSH1 0x4 ADD PUSH2 0x2A8 SWAP1 PUSH2 0xA38 JUMP JUMPDEST PUSH1 0x1 PUSH1 0x1 PUSH1 0xA0 SHL SUB DUP1 DUP6 AND PUSH1 0x0 SWAP1 DUP2 MSTORE PUSH1 0x6 PUSH1 0x20 SWAP1 DUP2 MSTORE PUSH1 0x40 DUP1 DUP4 KECCAK256 SWAP4 DUP8 AND DUP4 MSTORE SWAP3 SWAP1 MSTORE SWAP1 DUP2 KECCAK256 DUP1 SLOAD DUP4 SWAP3 SWAP1 PUSH2 0x4FF SWAP1 DUP5 SWAP1 PUSH2 0xA20 JUMP JUMPDEST SWAP1 SWAP2 SSTORE POP POP PUSH1 0x1 PUSH1 0x1 PUSH1 0xA0 SHL SUB DUP5 AND PUSH1 0x0 SWAP1 DUP2 MSTORE PUSH1 0x5 PUSH1 0x20 MSTORE PUSH1 0x40 DUP2 KECCAK256 DUP1 SLOAD DUP4 SWAP3 SWAP1 PUSH2 0x52C SWAP1 DUP5 SWAP1 PUSH2 0xA20 JUMP JUMPDEST SWAP1 SWAP2 SSTORE POP PUSH2 0x53D SWAP1 POP DUP5 DUP5 DUP4 PUSH2 0x71C JUMP JUMPDEST PUSH1 0x40 DUP1 MLOAD PUSH1 0x1 PUSH1 0x1 PUSH1 0xA0 SHL SUB DUP6 DUP2 AND DUP3 MSTORE PUSH1 0x20 DUP3 ADD DUP5 SWAP1 MSTORE DUP7 AND SWAP2 PUSH32 0x3BE5B7A71E84ED12875D241991C70855AC5817D847039E17A9D895C1CEB0F18A SWAP2 ADD PUSH1 0x40 MLOAD DUP1 SWAP2 SUB SWAP1 LOG2 POP POP POP POP JUMP JUMPDEST PUSH1 0x0 PUSH1 0x4 DUP3 DUP2 SLOAD DUP2 LT PUSH2 0x59E JUMPI PUSH2 0x59E PUSH2 0xA9C JUMP JUMPDEST PUSH1 0x0 SWAP2 DUP3 MSTORE PUSH1 0x20 SWAP1 SWAP2 KECCAK256 ADD SLOAD PUSH1 0x1 PUSH1 0x1 PUSH1 0xA0 SHL SUB AND SWAP3 SWAP2 POP POP JUMP JUMPDEST PUSH1 0x0 DUP1 SLOAD PUSH1 0x1 PUSH1 0x1 PUSH1 0xA0 SHL SUB DUP6 AND DUP3 MSTORE PUSH1 0x2 PUSH1 0x20 MSTORE PUSH1 0x40 DUP3 KECCAK256 SLOAD DUP4 SWAP2 SWAP1 PUSH2 0x5E0 SWAP1 DUP7 PUSH2 0xAB2 JUMP JUMPDEST PUSH2 0x5EA SWAP2 SWAP1 PUSH2 0xAD1 JUMP JUMPDEST PUSH2 0x5F4 SWAP2 SWAP1 PUSH2 0xAF3 JUMP JUMPDEST SWAP1 POP JUMPDEST SWAP4 SWAP3 POP POP POP JUMP JUMPDEST DUP1 SELFBALANCE LT ISZERO PUSH2 0x64E JUMPI PUSH1 0x40 MLOAD PUSH3 0x461BCD PUSH1 0xE5 SHL DUP2 MSTORE PUSH1 0x20 PUSH1 0x4 DUP3 ADD MSTORE PUSH1 0x1D PUSH1 0x24 DUP3 ADD MSTORE PUSH32 0x416464726573733A20696E73756666696369656E742062616C616E6365000000 PUSH1 0x44 DUP3 ADD MSTORE PUSH1 0x64 ADD PUSH2 0x2A8 JUMP JUMPDEST PUSH1 0x0 DUP3 PUSH1 0x1 PUSH1 0x1 PUSH1 0xA0 SHL SUB AND DUP3 PUSH1 0x40 MLOAD PUSH1 0x0 PUSH1 0x40 MLOAD DUP1 DUP4 SUB DUP2 DUP6 DUP8 GAS CALL SWAP3 POP POP POP RETURNDATASIZE DUP1 PUSH1 0x0 DUP2 EQ PUSH2 0x69B JUMPI PUSH1 0x40 MLOAD SWAP2 POP PUSH1 0x1F NOT PUSH1 0x3F RETURNDATASIZE ADD AND DUP3 ADD PUSH1 0x40 MSTORE RETURNDATASIZE DUP3 MSTORE RETURNDATASIZE PUSH1 0x0 PUSH1 0x20 DUP5 ADD RETURNDATACOPY PUSH2 0x6A0 JUMP JUMPDEST PUSH1 0x60 SWAP2 POP JUMPDEST POP POP SWAP1 POP DUP1 PUSH2 0x717 JUMPI PUSH1 0x40 MLOAD PUSH3 0x461BCD PUSH1 0xE5 SHL DUP2 MSTORE PUSH1 0x20 PUSH1 0x4 DUP3 ADD MSTORE PUSH1 0x3A PUSH1 0x24 DUP3 ADD MSTORE PUSH32 0x416464726573733A20756E61626C6520746F2073656E642076616C75652C2072 PUSH1 0x44 DUP3 ADD MSTORE PUSH32 0x6563697069656E74206D61792068617665207265766572746564000000000000 PUSH1 0x64 DUP3 ADD MSTORE PUSH1 0x84 ADD PUSH2 0x2A8 JUMP JUMPDEST POP POP POP JUMP JUMPDEST PUSH1 0x40 DUP1 MLOAD PUSH1 0x1 PUSH1 0x1 PUSH1 0xA0 SHL SUB DUP5 DUP2 AND PUSH1 0x24 DUP4 ADD MSTORE PUSH1 0x44 DUP1 DUP4 ADD DUP6 SWAP1 MSTORE DUP4 MLOAD DUP1 DUP5 SUB SWAP1 SWAP2 ADD DUP2 MSTORE PUSH1 0x64 SWAP1 SWAP3 ADD DUP4 MSTORE PUSH1 0x20 DUP1 DUP4 ADD DUP1 MLOAD PUSH1 0x1 PUSH1 0x1 PUSH1 0xE0 SHL SUB AND PUSH4 0xA9059CBB PUSH1 0xE0 SHL OR SWAP1 MSTORE DUP4 MLOAD DUP1 DUP6 ADD SWAP1 SWAP5 MSTORE DUP1 DUP5 MSTORE PUSH32 0x5361666545524332303A206C6F772D6C6576656C2063616C6C206661696C6564 SWAP1 DUP5 ADD MSTORE PUSH2 0x717 SWAP3 DUP7 SWAP3 SWAP2 PUSH1 0x0 SWAP2 PUSH2 0x7AC SWAP2 DUP6 AND SWAP1 DUP5 SWAP1 PUSH2 0x829 JUMP JUMPDEST DUP1 MLOAD SWAP1 SWAP2 POP ISZERO PUSH2 0x717 JUMPI DUP1 DUP1 PUSH1 0x20 ADD SWAP1 MLOAD DUP2 ADD SWAP1 PUSH2 0x7CA SWAP2 SWAP1 PUSH2 0xB0A JUMP JUMPDEST PUSH2 0x717 JUMPI PUSH1 0x40 MLOAD PUSH3 0x461BCD PUSH1 0xE5 SHL DUP2 MSTORE PUSH1 0x20 PUSH1 0x4 DUP3 ADD MSTORE PUSH1 0x2A PUSH1 0x24 DUP3 ADD MSTORE PUSH32 0x5361666545524332303A204552433230206F7065726174696F6E20646964206E PUSH1 0x44 DUP3 ADD MSTORE PUSH10 0x1BDD081CDD58D8D95959 PUSH1 0xB2 SHL PUSH1 0x64 DUP3 ADD MSTORE PUSH1 0x84 ADD PUSH2 0x2A8 JUMP JUMPDEST PUSH1 0x60 PUSH2 0x5F4 DUP5 DUP5 PUSH1 0x0 DUP6 DUP6 PUSH1 0x1 PUSH1 0x1 PUSH1 0xA0 SHL SUB DUP6 AND EXTCODESIZE PUSH2 0x88B JUMPI PUSH1 0x40 MLOAD PUSH3 0x461BCD PUSH1 0xE5 SHL DUP2 MSTORE PUSH1 0x20 PUSH1 0x4 DUP3 ADD MSTORE PUSH1 0x1D PUSH1 0x24 DUP3 ADD MSTORE PUSH32 0x416464726573733A2063616C6C20746F206E6F6E2D636F6E7472616374000000 PUSH1 0x44 DUP3 ADD MSTORE PUSH1 0x64 ADD PUSH2 0x2A8 JUMP JUMPDEST PUSH1 0x0 DUP1 DUP7 PUSH1 0x1 PUSH1 0x1 PUSH1 0xA0 SHL SUB AND DUP6 DUP8 PUSH1 0x40 MLOAD PUSH2 0x8A7 SWAP2 SWAP1 PUSH2 0xB5C JUMP JUMPDEST PUSH1 0x0 PUSH1 0x40 MLOAD DUP1 DUP4 SUB DUP2 DUP6 DUP8 GAS CALL SWAP3 POP POP POP RETURNDATASIZE DUP1 PUSH1 0x0 DUP2 EQ PUSH2 0x8E4 JUMPI PUSH1 0x40 MLOAD SWAP2 POP PUSH1 0x1F NOT PUSH1 0x3F RETURNDATASIZE ADD AND DUP3 ADD PUSH1 0x40 MSTORE RETURNDATASIZE DUP3 MSTORE RETURNDATASIZE PUSH1 0x0 PUSH1 0x20 DUP5 ADD RETURNDATACOPY PUSH2 0x8E9 JUMP JUMPDEST PUSH1 0x60 SWAP2 POP JUMPDEST POP SWAP2 POP SWAP2 POP PUSH2 0x8F9 DUP3 DUP3 DUP7 PUSH2 0x904 JUMP JUMPDEST SWAP8 SWAP7 POP POP POP POP POP POP POP JUMP JUMPDEST PUSH1 0x60 DUP4 ISZERO PUSH2 0x913 JUMPI POP DUP2 PUSH2 0x5F7 JUMP JUMPDEST DUP3 MLOAD ISZERO PUSH2 0x923 JUMPI DUP3 MLOAD DUP1 DUP5 PUSH1 0x20 ADD REVERT JUMPDEST DUP2 PUSH1 0x40 MLOAD PUSH3 0x461BCD PUSH1 0xE5 SHL DUP2 MSTORE PUSH1 0x4 ADD PUSH2 0x2A8 SWAP2 SWAP1 PUSH2 0xB78 JUMP JUMPDEST PUSH1 0x1 PUSH1 0x1 PUSH1 0xA0 SHL SUB DUP2 AND DUP2 EQ PUSH2 0x952 JUMPI PUSH1 0x0 DUP1 REVERT JUMPDEST POP JUMP JUMPDEST PUSH1 0x0 PUSH1 0x20 DUP3 DUP5 SUB SLT ISZERO PUSH2 0x967 JUMPI PUSH1 0x0 DUP1 REVERT JUMPDEST DUP2 CALLDATALOAD PUSH2 0x5F7 DUP2 PUSH2 0x93D JUMP JUMPDEST PUSH1 0x0 DUP1 PUSH1 0x40 DUP4 DUP6 SUB SLT ISZERO PUSH2 0x985 JUMPI PUSH1 0x0 DUP1 REVERT JUMPDEST DUP3 CALLDATALOAD PUSH2 0x990 DUP2 PUSH2 0x93D JUMP JUMPDEST SWAP2 POP PUSH1 0x20 DUP4 ADD CALLDATALOAD PUSH2 0x9A0 DUP2 PUSH2 0x93D JUMP JUMPDEST DUP1 SWAP2 POP POP SWAP3 POP SWAP3 SWAP1 POP JUMP JUMPDEST PUSH1 0x0 PUSH1 0x20 DUP3 DUP5 SUB SLT ISZERO PUSH2 0x9BD JUMPI PUSH1 0x0 DUP1 REVERT JUMPDEST POP CALLDATALOAD SWAP2 SWAP1 POP JUMP JUMPDEST PUSH1 0x20 DUP1 DUP3 MSTORE PUSH1 0x26 SWAP1 DUP3 ADD MSTORE PUSH32 0x5061796D656E7453706C69747465723A206163636F756E7420686173206E6F20 PUSH1 0x40 DUP3 ADD MSTORE PUSH6 0x736861726573 PUSH1 0xD0 SHL PUSH1 0x60 DUP3 ADD MSTORE PUSH1 0x80 ADD SWAP1 JUMP JUMPDEST PUSH4 0x4E487B71 PUSH1 0xE0 SHL PUSH1 0x0 MSTORE PUSH1 0x11 PUSH1 0x4 MSTORE PUSH1 0x24 PUSH1 0x0 REVERT JUMPDEST PUSH1 0x0 DUP3 NOT DUP3 GT ISZERO PUSH2 0xA33 JUMPI PUSH2 0xA33 PUSH2 0xA0A JUMP JUMPDEST POP ADD SWAP1 JUMP JUMPDEST PUSH1 0x20 DUP1 DUP3 MSTORE PUSH1 0x2B SWAP1 DUP3 ADD MSTORE PUSH32 0x5061796D656E7453706C69747465723A206163636F756E74206973206E6F7420 PUSH1 0x40 DUP3 ADD MSTORE PUSH11 0x191D59481C185E5B595B9D PUSH1 0xAA SHL PUSH1 0x60 DUP3 ADD MSTORE PUSH1 0x80 ADD SWAP1 JUMP JUMPDEST PUSH1 0x0 PUSH1 0x20 DUP3 DUP5 SUB SLT ISZERO PUSH2 0xA95 JUMPI PUSH1 0x0 DUP1 REVERT JUMPDEST POP MLOAD SWAP2 SWAP1 POP JUMP JUMPDEST PUSH4 0x4E487B71 PUSH1 0xE0 SHL PUSH1 0x0 MSTORE PUSH1 0x32 PUSH1 0x4 MSTORE PUSH1 0x24 PUSH1 0x0 REVERT JUMPDEST PUSH1 0x0 DUP2 PUSH1 0x0 NOT DIV DUP4 GT DUP3 ISZERO ISZERO AND ISZERO PUSH2 0xACC JUMPI PUSH2 0xACC PUSH2 0xA0A JUMP JUMPDEST POP MUL SWAP1 JUMP JUMPDEST PUSH1 0x0 DUP3 PUSH2 0xAEE JUMPI PUSH4 0x4E487B71 PUSH1 0xE0 SHL PUSH1 0x0 MSTORE PUSH1 0x12 PUSH1 0x4 MSTORE PUSH1 0x24 PUSH1 0x0 REVERT JUMPDEST POP DIV SWAP1 JUMP JUMPDEST PUSH1 0x0 DUP3 DUP3 LT ISZERO PUSH2 0xB05 JUMPI PUSH2 0xB05 PUSH2 0xA0A JUMP JUMPDEST POP SUB SWAP1 JUMP JUMPDEST PUSH1 0x0 PUSH1 0x20 DUP3 DUP5 SUB SLT ISZERO PUSH2 0xB1C JUMPI PUSH1 0x0 DUP1 REVERT JUMPDEST DUP2 MLOAD DUP1 ISZERO ISZERO DUP2 EQ PUSH2 0x5F7 JUMPI PUSH1 0x0 DUP1 REVERT JUMPDEST PUSH1 0x0 JUMPDEST DUP4 DUP2 LT ISZERO PUSH2 0xB47 JUMPI DUP2 DUP2 ADD MLOAD DUP4 DUP3 ADD MSTORE PUSH1 0x20 ADD PUSH2 0xB2F JUMP JUMPDEST DUP4 DUP2 GT ISZERO PUSH2 0xB56 JUMPI PUSH1 0x0 DUP5 DUP5 ADD MSTORE JUMPDEST POP POP POP POP JUMP JUMPDEST PUSH1 0x0 DUP3 MLOAD PUSH2 0xB6E DUP2 DUP5 PUSH1 0x20 DUP8 ADD PUSH2 0xB2C JUMP JUMPDEST SWAP2 SWAP1 SWAP2 ADD SWAP3 SWAP2 POP POP JUMP JUMPDEST PUSH1 0x20 DUP2 MSTORE PUSH1 0x0 DUP3 MLOAD DUP1 PUSH1 0x20 DUP5 ADD MSTORE PUSH2 0xB97 DUP2 PUSH1 0x40 DUP6 ADD PUSH1 0x20 DUP8 ADD PUSH2 0xB2C JUMP JUMPDEST PUSH1 0x1F ADD PUSH1 0x1F NOT AND SWAP2 SWAP1 SWAP2 ADD PUSH1 0x40 ADD SWAP3 SWAP2 POP POP JUMP INVALID LOG2 PUSH5 0x6970667358 0x22 SLT KECCAK256 DUP15 EXTCODESIZE 0xAB PUSH30 0x306247B2F252665514D8DFDC6A82B5524E73D48EB50529B09B56D2106473 PUSH16 0x6C634300080D00330000000000000000 "
				},
				"gasEstimates": {
					"creation": {
						"codeDepositCost": "608200",
						"executionCost": "infinite",
						"totalCost": "infinite"
					},
					"external": {
						"payee(uint256)": "4619",
						"release(address)": "infinite",
						"release(address,address)": "infinite",
						"released(address)": "2542",
						"released(address,address)": "infinite",
						"shares(address)": "2564",
						"totalReleased()": "2369",
						"totalReleased(address)": "2586",
						"totalShares()": "2293"
					}
				},
				"methodIdentifiers": {
					"payee(uint256)": "8b83209b",
					"release(address)": "19165587",
					"release(address,address)": "48b75044",
					"released(address)": "9852595c",
					"released(address,address)": "406072a9",
					"shares(address)": "ce7c2ac2",
					"totalReleased()": "e33b7de3",
					"totalReleased(address)": "d79779b2",
					"totalShares()": "3a98ef39"
				}
			},
			"storageLayout": {
				"storage": [
					{
						"astId": 36,
						"contract": "contracts/HACHIWallet.sol:HachiWallet",
						"label": "_totalShares",
						"offset": 0,
						"slot": "0",
						"type": "t_uint256"
					},
					{
						"astId": 38,
						"contract": "contracts/HACHIWallet.sol:HachiWallet",
						"label": "_totalReleased",
						"offset": 0,
						"slot": "1",
						"type": "t_uint256"
					},
					{
						"astId": 42,
						"contract": "contracts/HACHIWallet.sol:HachiWallet",
						"label": "_shares",
						"offset": 0,
						"slot": "2",
						"type": "t_mapping(t_address,t_uint256)"
					},
					{
						"astId": 46,
						"contract": "contracts/HACHIWallet.sol:HachiWallet",
						"label": "_released",
						"offset": 0,
						"slot": "3",
						"type": "t_mapping(t_address,t_uint256)"
					},
					{
						"astId": 49,
						"contract": "contracts/HACHIWallet.sol:HachiWallet",
						"label": "_payees",
						"offset": 0,
						"slot": "4",
						"type": "t_array(t_address)dyn_storage"
					},
					{
						"astId": 54,
						"contract": "contracts/HACHIWallet.sol:HachiWallet",
						"label": "_erc20TotalReleased",
						"offset": 0,
						"slot": "5",
						"type": "t_mapping(t_contract(IERC20)518,t_uint256)"
					},
					{
						"astId": 61,
						"contract": "contracts/HACHIWallet.sol:HachiWallet",
						"label": "_erc20Released",
						"offset": 0,
						"slot": "6",
						"type": "t_mapping(t_contract(IERC20)518,t_mapping(t_address,t_uint256))"
					}
				],
				"types": {
					"t_address": {
						"encoding": "inplace",
						"label": "address",
						"numberOfBytes": "20"
					},
					"t_array(t_address)dyn_storage": {
						"base": "t_address",
						"encoding": "dynamic_array",
						"label": "address[]",
						"numberOfBytes": "32"
					},
					"t_contract(IERC20)518": {
						"encoding": "inplace",
						"label": "contract IERC20",
						"numberOfBytes": "20"
					},
					"t_mapping(t_address,t_uint256)": {
						"encoding": "mapping",
						"key": "t_address",
						"label": "mapping(address => uint256)",
						"numberOfBytes": "32",
						"value": "t_uint256"
					},
					"t_mapping(t_contract(IERC20)518,t_mapping(t_address,t_uint256))": {
						"encoding": "mapping",
						"key": "t_contract(IERC20)518",
						"label": "mapping(contract IERC20 => mapping(address => uint256))",
						"numberOfBytes": "32",
						"value": "t_mapping(t_address,t_uint256)"
					},
					"t_mapping(t_contract(IERC20)518,t_uint256)": {
						"encoding": "mapping",
						"key": "t_contract(IERC20)518",
						"label": "mapping(contract IERC20 => uint256)",
						"numberOfBytes": "32",
						"value": "t_uint256"
					},
					"t_uint256": {
						"encoding": "inplace",
						"label": "uint256",
						"numberOfBytes": "32"
					}
				}
			},
			"userdoc": {
				"kind": "user",
				"methods": {},
				"version": 1
			}
		}
	}
}