{
	"contracts/HACHIVerifySigner.sol": {
		"HachiVerifySigner": {
			"abi": [
				{
					"inputs": [],
					"stateMutability": "nonpayable",
					"type": "constructor"
				},
				{
					"inputs": [
						{
							"components": [
								{
									"internalType": "uint256[]",
									"name": "tokenId",
									"type": "uint256[]"
								},
								{
									"internalType": "uint256[]",
									"name": "amounts",
									"type": "uint256[]"
								},
								{
									"internalType": "address",
									"name": "to",
									"type": "address"
								},
								{
									"internalType": "bytes",
									"name": "signature",
									"type": "bytes"
								},
								{
									"internalType": "bytes32[]",
									"name": "merkleProof",
									"type": "bytes32[]"
								}
							],
							"internalType": "struct TicketStruct.HachiTicket",
							"name": "_ticket",
							"type": "tuple"
						}
					],
					"name": "verifySigner",
					"outputs": [
						{
							"internalType": "address",
							"name": "",
							"type": "address"
						}
					],
					"stateMutability": "view",
					"type": "function"
				}
			],
			"devdoc": {
				"kind": "dev",
				"methods": {},
				"version": 1
			},
			"evm": {
				"assembly": "    /* \"contracts/HACHIVerifySigner.sol\":224:1058  contract HachiVerifySigner is EIP712 {... */\n  mstore(0x40, 0x0140)\n    /* \"contracts/HACHIVerifySigner.sol\":381:452  constructor()... */\n  callvalue\n  dup1\n  iszero\n  tag_1\n  jumpi\n  0x00\n  dup1\n  revert\ntag_1:\n  pop\n    /* \"contracts/HACHIVerifySigner.sol\":410:424  SIGNING_DOMAIN */\n  0x40\n  dup1\n  mload\n  dup1\n  dup3\n  add\n  dup3\n  mstore\n  0x0b\n  dup2\n  mstore\n  shl(0xa8, 0x48616368694e6674536967)\n  0x20\n  dup1\n  dup4\n  add\n  swap2\n  dup3\n  mstore\n    /* \"contracts/HACHIVerifySigner.sol\":426:443  SIGNATURE_VERSION */\n  dup4\n  mload\n  dup1\n  dup6\n  add\n  swap1\n  swap5\n  mstore\n  0x01\n  dup5\n  mstore\n  shl(0xf8, 0x31)\n  swap1\n  dup5\n  add\n  mstore\n    /* \"@openzeppelin/contracts/utils/cryptography/draft-EIP712.sol\":2541:2563  keccak256(bytes(name)) */\n  dup2\n  mload\n  swap1\n  keccak256\n    /* \"@openzeppelin/contracts/utils/cryptography/draft-EIP712.sol\":2778:2803  _HASHED_NAME = hashedName */\n  0xe0\n  dup2\n  swap1\n  mstore\n    /* \"@openzeppelin/contracts/utils/cryptography/draft-EIP712.sol\":2597:2622  keccak256(bytes(version)) */\n  0xc89efdaa54c0f20c7adf612882df0950f5a951637e0307cdcb4c672f298b8bc6\n    /* \"@openzeppelin/contracts/utils/cryptography/draft-EIP712.sol\":2813:2844  _HASHED_VERSION = hashedVersion */\n  0x0100\n  dup2\n  swap1\n  mstore\n    /* \"@openzeppelin/contracts/utils/cryptography/draft-EIP712.sol\":2873:2886  block.chainid */\n  chainid\n    /* \"@openzeppelin/contracts/utils/cryptography/draft-EIP712.sol\":2854:2886  _CACHED_CHAIN_ID = block.chainid */\n  0xa0\n  mstore\n    /* \"contracts/HACHIVerifySigner.sol\":410:424  SIGNING_DOMAIN */\n  swap2\n  swap3\n    /* \"contracts/HACHIVerifySigner.sol\":426:443  SIGNATURE_VERSION */\n  swap2\n    /* \"@openzeppelin/contracts/utils/cryptography/draft-EIP712.sol\":2651:2768  keccak256(... */\n  0x8b73c3c69bb8fe3d512ecc4cf759cc79239f7b179b0ffacaa9a75d522b39400f\n    /* \"@openzeppelin/contracts/utils/cryptography/draft-EIP712.sol\":2923:2981  _buildDomainSeparator(typeHash, hashedName, hashedVersion) */\n  tag_5\n    /* \"@openzeppelin/contracts/utils/cryptography/draft-EIP712.sol\":2651:2768  keccak256(... */\n  dup2\n    /* \"@openzeppelin/contracts/utils/cryptography/draft-EIP712.sol\":2541:2563  keccak256(bytes(name)) */\n  dup5\n    /* \"@openzeppelin/contracts/utils/cryptography/draft-EIP712.sol\":2597:2622  keccak256(bytes(version)) */\n  dup5\n    /* \"@openzeppelin/contracts/utils/cryptography/draft-EIP712.sol\":3633:3706  abi.encode(typeHash, nameHash, versionHash, block.chainid, address(this)) */\n  0x40\n  dup1\n  mload\n  0x20\n  dup2\n  add\n    /* \"#utility.yul\":273:298   */\n  dup6\n  swap1\n  mstore\n    /* \"#utility.yul\":314:332   */\n  swap1\n  dup2\n  add\n    /* \"#utility.yul\":307:341   */\n  dup4\n  swap1\n  mstore\n    /* \"#utility.yul\":357:375   */\n  0x60\n  dup2\n  add\n    /* \"#utility.yul\":350:384   */\n  dup3\n  swap1\n  mstore\n    /* \"@openzeppelin/contracts/utils/cryptography/draft-EIP712.sol\":3677:3690  block.chainid */\n  chainid\n    /* \"#utility.yul\":400:418   */\n  0x80\n  dup3\n  add\n    /* \"#utility.yul\":393:427   */\n  mstore\n    /* \"@openzeppelin/contracts/utils/cryptography/draft-EIP712.sol\":3700:3704  this */\n  address\n    /* \"#utility.yul\":443:462   */\n  0xa0\n  dup3\n  add\n    /* \"#utility.yul\":436:497   */\n  mstore\n    /* \"@openzeppelin/contracts/utils/cryptography/draft-EIP712.sol\":3597:3604  bytes32 */\n  0x00\n  swap1\n    /* \"#utility.yul\":245:264   */\n  0xc0\n  add\n    /* \"@openzeppelin/contracts/utils/cryptography/draft-EIP712.sol\":3633:3706  abi.encode(typeHash, nameHash, versionHash, block.chainid, address(this)) */\n  mload(0x40)\n  0x20\n  dup2\n  dup4\n  sub\n  sub\n  dup2\n  mstore\n  swap1\n  0x40\n  mstore\n    /* \"@openzeppelin/contracts/utils/cryptography/draft-EIP712.sol\":3623:3707  keccak256(abi.encode(typeHash, nameHash, versionHash, block.chainid, address(this))) */\n  dup1\n  mload\n  swap1\n  0x20\n  add\n  keccak256\n    /* \"@openzeppelin/contracts/utils/cryptography/draft-EIP712.sol\":3616:3707  return keccak256(abi.encode(typeHash, nameHash, versionHash, block.chainid, address(this))) */\n  swap1\n  pop\n    /* \"@openzeppelin/contracts/utils/cryptography/draft-EIP712.sol\":3457:3714  function _buildDomainSeparator(... */\n  swap4\n  swap3\n  pop\n  pop\n  pop\n  jump\n    /* \"@openzeppelin/contracts/utils/cryptography/draft-EIP712.sol\":2923:2981  _buildDomainSeparator(typeHash, hashedName, hashedVersion) */\ntag_5:\n    /* \"@openzeppelin/contracts/utils/cryptography/draft-EIP712.sol\":2896:2981  _CACHED_DOMAIN_SEPARATOR = _buildDomainSeparator(typeHash, hashedName, hashedVersion) */\n  0x80\n  mstore\n    /* \"@openzeppelin/contracts/utils/cryptography/draft-EIP712.sol\":3014:3018  this */\n  address\n    /* \"@openzeppelin/contracts/utils/cryptography/draft-EIP712.sol\":2991:3019  _CACHED_THIS = address(this) */\n  0xc0\n  mstore\n    /* \"@openzeppelin/contracts/utils/cryptography/draft-EIP712.sol\":3029:3050  _TYPE_HASH = typeHash */\n  0x0120\n  mstore\n  pop\n    /* \"contracts/HACHIVerifySigner.sol\":224:1058  contract HachiVerifySigner is EIP712 {... */\n  tag_12\n  swap3\n  pop\n  pop\n  pop\n  jump\n    /* \"#utility.yul\":14:503   */\ntag_12:\n    /* \"contracts/HACHIVerifySigner.sol\":224:1058  contract HachiVerifySigner is EIP712 {... */\n  mload(0x80)\n  mload(0xa0)\n  mload(0xc0)\n  mload(0xe0)\n  mload(0x0100)\n  mload(0x0120)\n  codecopy(0x00, dataOffset(sub_0), dataSize(sub_0))\n  0x00\n  assignImmutable(\"0x8c92e2e72e7997816d62b0c03c0b21c46605af4c276e6d0637f7e77158832bca\")\n  0x00\n  assignImmutable(\"0xc7087a93770541a54b276c354f6d56c80647702e0edc6c1d5ee9aeacf01dfad8\")\n  0x00\n  assignImmutable(\"0x954b846e373da6e2d86e60934c6fb4929a5d4ad23ca448303f22db28783db296\")\n  0x00\n  assignImmutable(\"0x9ef31662fdafe5ade9dc48fd4724c04f17232ac2ae4e5ea3da9c2a310c4aba3c\")\n  0x00\n  assignImmutable(\"0xae3f42c075651cd672386e7fa64476ebefa89324c3c225495e52b74374d0bc80\")\n  0x00\n  assignImmutable(\"0x9459a54a9dc1a91201f12e123a36391197edb81156a93e7e6bc8a3c17589bb36\")\n  return(0x00, dataSize(sub_0))\nstop\n\nsub_0: assembly {\n        /* \"contracts/HACHIVerifySigner.sol\":224:1058  contract HachiVerifySigner is EIP712 {... */\n      mstore(0x40, 0x80)\n      callvalue\n      dup1\n      iszero\n      tag_1\n      jumpi\n      0x00\n      dup1\n      revert\n    tag_1:\n      pop\n      jumpi(tag_2, lt(calldatasize, 0x04))\n      shr(0xe0, calldataload(0x00))\n      dup1\n      0x440944de\n      eq\n      tag_3\n      jumpi\n    tag_2:\n      0x00\n      dup1\n      revert\n        /* \"contracts/HACHIVerifySigner.sol\":461:661  function verifySigner(TicketStruct.HachiTicket calldata _ticket) public view returns (address) {... */\n    tag_3:\n      tag_4\n      tag_5\n      calldatasize\n      0x04\n      tag_6\n      jump\t// in\n    tag_5:\n      tag_7\n      jump\t// in\n    tag_4:\n      mload(0x40)\n      sub(shl(0xa0, 0x01), 0x01)\n        /* \"#utility.yul\":573:605   */\n      swap1\n      swap2\n      and\n        /* \"#utility.yul\":555:606   */\n      dup2\n      mstore\n        /* \"#utility.yul\":543:545   */\n      0x20\n        /* \"#utility.yul\":528:546   */\n      add\n        /* \"contracts/HACHIVerifySigner.sol\":461:661  function verifySigner(TicketStruct.HachiTicket calldata _ticket) public view returns (address) {... */\n      mload(0x40)\n      dup1\n      swap2\n      sub\n      swap1\n      return\n    tag_7:\n        /* \"contracts/HACHIVerifySigner.sol\":547:554  address */\n      0x00\n        /* \"contracts/HACHIVerifySigner.sol\":566:580  bytes32 digest */\n      dup1\n        /* \"contracts/HACHIVerifySigner.sol\":583:597  _hash(_ticket) */\n      tag_11\n        /* \"contracts/HACHIVerifySigner.sol\":589:596  _ticket */\n      dup4\n        /* \"contracts/HACHIVerifySigner.sol\":583:588  _hash */\n      tag_12\n        /* \"contracts/HACHIVerifySigner.sol\":583:597  _hash(_ticket) */\n      jump\t// in\n    tag_11:\n        /* \"contracts/HACHIVerifySigner.sol\":566:597  bytes32 digest = _hash(_ticket) */\n      swap1\n      pop\n        /* \"contracts/HACHIVerifySigner.sol\":614:654  ECDSA.recover(digest, _ticket.signature) */\n      tag_13\n        /* \"contracts/HACHIVerifySigner.sol\":566:597  bytes32 digest = _hash(_ticket) */\n      dup2\n        /* \"contracts/HACHIVerifySigner.sol\":636:653  _ticket.signature */\n      tag_14\n      0x60\n      dup7\n      add\n        /* \"contracts/HACHIVerifySigner.sol\":636:643  _ticket */\n      dup7\n        /* \"contracts/HACHIVerifySigner.sol\":636:653  _ticket.signature */\n      tag_15\n      jump\t// in\n    tag_14:\n        /* \"contracts/HACHIVerifySigner.sol\":614:654  ECDSA.recover(digest, _ticket.signature) */\n      dup1\n      dup1\n      0x1f\n      add\n      0x20\n      dup1\n      swap2\n      div\n      mul\n      0x20\n      add\n      mload(0x40)\n      swap1\n      dup2\n      add\n      0x40\n      mstore\n      dup1\n      swap4\n      swap3\n      swap2\n      swap1\n      dup2\n      dup2\n      mstore\n      0x20\n      add\n      dup4\n      dup4\n      dup1\n      dup3\n      dup5\n      calldatacopy\n      0x00\n      swap3\n      add\n      swap2\n      swap1\n      swap2\n      mstore\n      pop\n        /* \"contracts/HACHIVerifySigner.sol\":614:627  ECDSA.recover */\n      tag_16\n      swap3\n      pop\n      pop\n      pop\n        /* \"contracts/HACHIVerifySigner.sol\":614:654  ECDSA.recover(digest, _ticket.signature) */\n      jump\t// in\n    tag_13:\n        /* \"contracts/HACHIVerifySigner.sol\":607:654  return ECDSA.recover(digest, _ticket.signature) */\n      swap4\n        /* \"contracts/HACHIVerifySigner.sol\":461:661  function verifySigner(TicketStruct.HachiTicket calldata _ticket) public view returns (address) {... */\n      swap3\n      pop\n      pop\n      pop\n      jump\t// out\n        /* \"contracts/HACHIVerifySigner.sol\":667:1056  function _hash(TicketStruct.HachiTicket calldata _ticket) internal view returns (bytes32) {... */\n    tag_12:\n        /* \"contracts/HACHIVerifySigner.sol\":748:755  bytes32 */\n      0x00\n        /* \"contracts/HACHIVerifySigner.sol\":774:1049  _hashTypedDataV4(keccak256(abi.encode(... */\n      tag_18\n        /* \"contracts/HACHIVerifySigner.sol\":825:897  keccak256(\"HachiTicket(uint256[] tokenId,uint256[] amounts,address to)\") */\n      0xe19885d28550f6608f275384a83ec228a423408e0fb086a71652471be2a24f14\n        /* \"contracts/HACHIVerifySigner.sol\":938:953  _ticket.tokenId */\n      tag_19\n        /* \"contracts/HACHIVerifySigner.sol\":938:945  _ticket */\n      dup5\n      dup1\n        /* \"contracts/HACHIVerifySigner.sol\":938:953  _ticket.tokenId */\n      tag_20\n      jump\t// in\n    tag_19:\n        /* \"contracts/HACHIVerifySigner.sol\":921:954  abi.encodePacked(_ticket.tokenId) */\n      add(0x20, mload(0x40))\n      tag_21\n      swap3\n      swap2\n      swap1\n      tag_22\n      jump\t// in\n    tag_21:\n      mload(0x40)\n      0x20\n      dup2\n      dup4\n      sub\n      sub\n      dup2\n      mstore\n      swap1\n      0x40\n      mstore\n        /* \"contracts/HACHIVerifySigner.sol\":911:955  keccak256(abi.encodePacked(_ticket.tokenId)) */\n      dup1\n      mload\n      swap1\n      0x20\n      add\n      keccak256\n        /* \"contracts/HACHIVerifySigner.sol\":996:1003  _ticket */\n      dup5\n        /* \"contracts/HACHIVerifySigner.sol\":996:1011  _ticket.amounts */\n      dup1\n      0x20\n      add\n      swap1\n      tag_23\n      swap2\n      swap1\n      tag_20\n      jump\t// in\n    tag_23:\n        /* \"contracts/HACHIVerifySigner.sol\":979:1012  abi.encodePacked(_ticket.amounts) */\n      add(0x20, mload(0x40))\n      tag_24\n      swap3\n      swap2\n      swap1\n      tag_22\n      jump\t// in\n    tag_24:\n      mload(0x40)\n      0x20\n      dup2\n      dup4\n      sub\n      sub\n      dup2\n      mstore\n      swap1\n      0x40\n      mstore\n        /* \"contracts/HACHIVerifySigner.sol\":969:1013  keccak256(abi.encodePacked(_ticket.amounts)) */\n      dup1\n      mload\n      swap1\n      0x20\n      add\n      keccak256\n        /* \"contracts/HACHIVerifySigner.sol\":1027:1034  _ticket */\n      dup6\n        /* \"contracts/HACHIVerifySigner.sol\":1027:1037  _ticket.to */\n      0x40\n      add\n      0x20\n      dup2\n      add\n      swap1\n      tag_25\n      swap2\n      swap1\n      tag_26\n      jump\t// in\n    tag_25:\n        /* \"contracts/HACHIVerifySigner.sol\":801:1047  abi.encode(... */\n      0x40\n      dup1\n      mload\n      0x20\n      dup2\n      add\n        /* \"#utility.yul\":2620:2645   */\n      swap6\n      swap1\n      swap6\n      mstore\n        /* \"#utility.yul\":2661:2679   */\n      dup5\n      add\n        /* \"#utility.yul\":2654:2688   */\n      swap3\n      swap1\n      swap3\n      mstore\n        /* \"#utility.yul\":2704:2722   */\n      0x60\n      dup4\n      add\n        /* \"#utility.yul\":2697:2731   */\n      mstore\n      sub(shl(0xa0, 0x01), 0x01)\n        /* \"#utility.yul\":2767:2799   */\n      and\n        /* \"#utility.yul\":2747:2765   */\n      0x80\n      dup3\n      add\n        /* \"#utility.yul\":2740:2800   */\n      mstore\n        /* \"#utility.yul\":2592:2611   */\n      0xa0\n      add\n        /* \"contracts/HACHIVerifySigner.sol\":801:1047  abi.encode(... */\n      mload(0x40)\n      0x20\n      dup2\n      dup4\n      sub\n      sub\n      dup2\n      mstore\n      swap1\n      0x40\n      mstore\n        /* \"contracts/HACHIVerifySigner.sol\":791:1048  keccak256(abi.encode(... */\n      dup1\n      mload\n      swap1\n      0x20\n      add\n      keccak256\n        /* \"contracts/HACHIVerifySigner.sol\":774:790  _hashTypedDataV4 */\n      tag_29\n        /* \"contracts/HACHIVerifySigner.sol\":774:1049  _hashTypedDataV4(keccak256(abi.encode(... */\n      jump\t// in\n    tag_18:\n        /* \"contracts/HACHIVerifySigner.sol\":767:1049  return _hashTypedDataV4(keccak256(abi.encode(... */\n      swap3\n        /* \"contracts/HACHIVerifySigner.sol\":667:1056  function _hash(TicketStruct.HachiTicket calldata _ticket) internal view returns (bytes32) {... */\n      swap2\n      pop\n      pop\n      jump\t// out\n        /* \"@openzeppelin/contracts/utils/cryptography/ECDSA.sol\":4308:4535  function recover(bytes32 hash, bytes memory signature) internal pure returns (address) {... */\n    tag_16:\n        /* \"@openzeppelin/contracts/utils/cryptography/ECDSA.sol\":4386:4393  address */\n      0x00\n        /* \"@openzeppelin/contracts/utils/cryptography/ECDSA.sol\":4406:4423  address recovered */\n      dup1\n        /* \"@openzeppelin/contracts/utils/cryptography/ECDSA.sol\":4425:4443  RecoverError error */\n      0x00\n        /* \"@openzeppelin/contracts/utils/cryptography/ECDSA.sol\":4447:4474  tryRecover(hash, signature) */\n      tag_31\n        /* \"@openzeppelin/contracts/utils/cryptography/ECDSA.sol\":4458:4462  hash */\n      dup6\n        /* \"@openzeppelin/contracts/utils/cryptography/ECDSA.sol\":4464:4473  signature */\n      dup6\n        /* \"@openzeppelin/contracts/utils/cryptography/ECDSA.sol\":4447:4457  tryRecover */\n      tag_32\n        /* \"@openzeppelin/contracts/utils/cryptography/ECDSA.sol\":4447:4474  tryRecover(hash, signature) */\n      jump\t// in\n    tag_31:\n        /* \"@openzeppelin/contracts/utils/cryptography/ECDSA.sol\":4405:4474  (address recovered, RecoverError error) = tryRecover(hash, signature) */\n      swap2\n      pop\n      swap2\n      pop\n        /* \"@openzeppelin/contracts/utils/cryptography/ECDSA.sol\":4484:4502  _throwError(error) */\n      tag_33\n        /* \"@openzeppelin/contracts/utils/cryptography/ECDSA.sol\":4496:4501  error */\n      dup2\n        /* \"@openzeppelin/contracts/utils/cryptography/ECDSA.sol\":4484:4495  _throwError */\n      tag_34\n        /* \"@openzeppelin/contracts/utils/cryptography/ECDSA.sol\":4484:4502  _throwError(error) */\n      jump\t// in\n    tag_33:\n      pop\n        /* \"@openzeppelin/contracts/utils/cryptography/ECDSA.sol\":4519:4528  recovered */\n      swap4\n        /* \"@openzeppelin/contracts/utils/cryptography/ECDSA.sol\":4308:4535  function recover(bytes32 hash, bytes memory signature) internal pure returns (address) {... */\n      swap3\n      pop\n      pop\n      pop\n      jump\t// out\n        /* \"@openzeppelin/contracts/utils/cryptography/draft-EIP712.sol\":4339:4504  function _hashTypedDataV4(bytes32 structHash) internal view virtual returns (bytes32) {... */\n    tag_29:\n        /* \"@openzeppelin/contracts/utils/cryptography/draft-EIP712.sol\":4416:4423  bytes32 */\n      0x00\n        /* \"@openzeppelin/contracts/utils/cryptography/draft-EIP712.sol\":4442:4497  ECDSA.toTypedDataHash(_domainSeparatorV4(), structHash) */\n      tag_18\n        /* \"@openzeppelin/contracts/utils/cryptography/draft-EIP712.sol\":4464:4484  _domainSeparatorV4() */\n      tag_37\n        /* \"@openzeppelin/contracts/utils/cryptography/draft-EIP712.sol\":4464:4482  _domainSeparatorV4 */\n      tag_38\n        /* \"@openzeppelin/contracts/utils/cryptography/draft-EIP712.sol\":4464:4484  _domainSeparatorV4() */\n      jump\t// in\n    tag_37:\n        /* \"@openzeppelin/contracts/utils/cryptography/draft-EIP712.sol\":4486:4496  structHash */\n      dup4\n        /* \"@openzeppelin/contracts/utils/cryptography/ECDSA.sol\":9226:9283  abi.encodePacked(\"\\x19\\x01\", domainSeparator, structHash) */\n      mload(0x40)\n      shl(0xf0, 0x1901)\n      0x20\n      dup3\n      add\n        /* \"#utility.yul\":4720:4747   */\n      mstore\n        /* \"#utility.yul\":4763:4774   */\n      0x22\n      dup2\n      add\n        /* \"#utility.yul\":4756:4783   */\n      dup4\n      swap1\n      mstore\n        /* \"#utility.yul\":4799:4811   */\n      0x42\n      dup2\n      add\n        /* \"#utility.yul\":4792:4820   */\n      dup3\n      swap1\n      mstore\n        /* \"@openzeppelin/contracts/utils/cryptography/ECDSA.sol\":9190:9197  bytes32 */\n      0x00\n      swap1\n        /* \"#utility.yul\":4836:4848   */\n      0x62\n      add\n        /* \"@openzeppelin/contracts/utils/cryptography/ECDSA.sol\":9226:9283  abi.encodePacked(\"\\x19\\x01\", domainSeparator, structHash) */\n      mload(0x40)\n      0x20\n      dup2\n      dup4\n      sub\n      sub\n      dup2\n      mstore\n      swap1\n      0x40\n      mstore\n        /* \"@openzeppelin/contracts/utils/cryptography/ECDSA.sol\":9216:9284  keccak256(abi.encodePacked(\"\\x19\\x01\", domainSeparator, structHash)) */\n      dup1\n      mload\n      swap1\n      0x20\n      add\n      keccak256\n        /* \"@openzeppelin/contracts/utils/cryptography/ECDSA.sol\":9209:9284  return keccak256(abi.encodePacked(\"\\x19\\x01\", domainSeparator, structHash)) */\n      swap1\n      pop\n        /* \"@openzeppelin/contracts/utils/cryptography/ECDSA.sol\":9097:9291  function toTypedDataHash(bytes32 domainSeparator, bytes32 structHash) internal pure returns (bytes32) {... */\n      swap3\n      swap2\n      pop\n      pop\n      jump\n        /* \"@openzeppelin/contracts/utils/cryptography/ECDSA.sol\":2243:3522  function tryRecover(bytes32 hash, bytes memory signature) internal pure returns (address, RecoverError) {... */\n    tag_32:\n        /* \"@openzeppelin/contracts/utils/cryptography/ECDSA.sol\":2324:2331  address */\n      0x00\n        /* \"@openzeppelin/contracts/utils/cryptography/ECDSA.sol\":2333:2345  RecoverError */\n      dup1\n        /* \"@openzeppelin/contracts/utils/cryptography/ECDSA.sol\":2554:2563  signature */\n      dup3\n        /* \"@openzeppelin/contracts/utils/cryptography/ECDSA.sol\":2554:2570  signature.length */\n      mload\n        /* \"@openzeppelin/contracts/utils/cryptography/ECDSA.sol\":2574:2576  65 */\n      0x41\n        /* \"@openzeppelin/contracts/utils/cryptography/ECDSA.sol\":2554:2576  signature.length == 65 */\n      sub\n        /* \"@openzeppelin/contracts/utils/cryptography/ECDSA.sol\":2550:3516  if (signature.length == 65) {... */\n      tag_41\n      jumpi\n        /* \"@openzeppelin/contracts/utils/cryptography/ECDSA.sol\":2843:2847  0x20 */\n      0x20\n        /* \"@openzeppelin/contracts/utils/cryptography/ECDSA.sol\":2828:2848  add(signature, 0x20) */\n      dup4\n      add\n        /* \"@openzeppelin/contracts/utils/cryptography/ECDSA.sol\":2822:2849  mload(add(signature, 0x20)) */\n      mload\n        /* \"@openzeppelin/contracts/utils/cryptography/ECDSA.sol\":2892:2896  0x40 */\n      0x40\n        /* \"@openzeppelin/contracts/utils/cryptography/ECDSA.sol\":2877:2897  add(signature, 0x40) */\n      dup5\n      add\n        /* \"@openzeppelin/contracts/utils/cryptography/ECDSA.sol\":2871:2898  mload(add(signature, 0x40)) */\n      mload\n        /* \"@openzeppelin/contracts/utils/cryptography/ECDSA.sol\":2949:2953  0x60 */\n      0x60\n        /* \"@openzeppelin/contracts/utils/cryptography/ECDSA.sol\":2934:2954  add(signature, 0x60) */\n      dup6\n      add\n        /* \"@openzeppelin/contracts/utils/cryptography/ECDSA.sol\":2928:2955  mload(add(signature, 0x60)) */\n      mload\n        /* \"@openzeppelin/contracts/utils/cryptography/ECDSA.sol\":2592:2601  bytes32 r */\n      0x00\n        /* \"@openzeppelin/contracts/utils/cryptography/ECDSA.sol\":2920:2956  byte(0, mload(add(signature, 0x60))) */\n      byte\n        /* \"@openzeppelin/contracts/utils/cryptography/ECDSA.sol\":2990:3015  tryRecover(hash, v, r, s) */\n      tag_42\n        /* \"@openzeppelin/contracts/utils/cryptography/ECDSA.sol\":3001:3005  hash */\n      dup8\n        /* \"@openzeppelin/contracts/utils/cryptography/ECDSA.sol\":2920:2956  byte(0, mload(add(signature, 0x60))) */\n      dup3\n        /* \"@openzeppelin/contracts/utils/cryptography/ECDSA.sol\":2822:2849  mload(add(signature, 0x20)) */\n      dup6\n        /* \"@openzeppelin/contracts/utils/cryptography/ECDSA.sol\":2871:2898  mload(add(signature, 0x40)) */\n      dup6\n        /* \"@openzeppelin/contracts/utils/cryptography/ECDSA.sol\":2990:3000  tryRecover */\n      tag_43\n        /* \"@openzeppelin/contracts/utils/cryptography/ECDSA.sol\":2990:3015  tryRecover(hash, v, r, s) */\n      jump\t// in\n    tag_42:\n        /* \"@openzeppelin/contracts/utils/cryptography/ECDSA.sol\":2983:3015  return tryRecover(hash, v, r, s) */\n      swap5\n      pop\n      swap5\n      pop\n      pop\n      pop\n      pop\n      jump(tag_48)\n        /* \"@openzeppelin/contracts/utils/cryptography/ECDSA.sol\":2550:3516  if (signature.length == 65) {... */\n    tag_41:\n        /* \"@openzeppelin/contracts/utils/cryptography/ECDSA.sol\":3036:3045  signature */\n      dup3\n        /* \"@openzeppelin/contracts/utils/cryptography/ECDSA.sol\":3036:3052  signature.length */\n      mload\n        /* \"@openzeppelin/contracts/utils/cryptography/ECDSA.sol\":3056:3058  64 */\n      0x40\n        /* \"@openzeppelin/contracts/utils/cryptography/ECDSA.sol\":3036:3058  signature.length == 64 */\n      sub\n        /* \"@openzeppelin/contracts/utils/cryptography/ECDSA.sol\":3032:3516  if (signature.length == 64) {... */\n      tag_45\n      jumpi\n        /* \"@openzeppelin/contracts/utils/cryptography/ECDSA.sol\":3305:3309  0x20 */\n      0x20\n        /* \"@openzeppelin/contracts/utils/cryptography/ECDSA.sol\":3290:3310  add(signature, 0x20) */\n      dup4\n      add\n        /* \"@openzeppelin/contracts/utils/cryptography/ECDSA.sol\":3284:3311  mload(add(signature, 0x20)) */\n      mload\n        /* \"@openzeppelin/contracts/utils/cryptography/ECDSA.sol\":3355:3359  0x40 */\n      0x40\n        /* \"@openzeppelin/contracts/utils/cryptography/ECDSA.sol\":3340:3360  add(signature, 0x40) */\n      dup5\n      add\n        /* \"@openzeppelin/contracts/utils/cryptography/ECDSA.sol\":3334:3361  mload(add(signature, 0x40)) */\n      mload\n        /* \"@openzeppelin/contracts/utils/cryptography/ECDSA.sol\":3395:3418  tryRecover(hash, r, vs) */\n      tag_46\n        /* \"@openzeppelin/contracts/utils/cryptography/ECDSA.sol\":3406:3410  hash */\n      dup7\n        /* \"@openzeppelin/contracts/utils/cryptography/ECDSA.sol\":3284:3311  mload(add(signature, 0x20)) */\n      dup4\n        /* \"@openzeppelin/contracts/utils/cryptography/ECDSA.sol\":3334:3361  mload(add(signature, 0x40)) */\n      dup4\n        /* \"@openzeppelin/contracts/utils/cryptography/ECDSA.sol\":3395:3405  tryRecover */\n      tag_47\n        /* \"@openzeppelin/contracts/utils/cryptography/ECDSA.sol\":3395:3418  tryRecover(hash, r, vs) */\n      jump\t// in\n    tag_46:\n        /* \"@openzeppelin/contracts/utils/cryptography/ECDSA.sol\":3388:3418  return tryRecover(hash, r, vs) */\n      swap4\n      pop\n      swap4\n      pop\n      pop\n      pop\n      jump(tag_48)\n        /* \"@openzeppelin/contracts/utils/cryptography/ECDSA.sol\":3032:3516  if (signature.length == 64) {... */\n    tag_45:\n      pop\n        /* \"@openzeppelin/contracts/utils/cryptography/ECDSA.sol\":3465:3466  0 */\n      0x00\n      swap1\n      pop\n        /* \"@openzeppelin/contracts/utils/cryptography/ECDSA.sol\":3469:3504  RecoverError.InvalidSignatureLength */\n      0x02\n        /* \"@openzeppelin/contracts/utils/cryptography/ECDSA.sol\":3032:3516  if (signature.length == 64) {... */\n    tag_48:\n        /* \"@openzeppelin/contracts/utils/cryptography/ECDSA.sol\":2243:3522  function tryRecover(bytes32 hash, bytes memory signature) internal pure returns (address, RecoverError) {... */\n      swap3\n      pop\n      swap3\n      swap1\n      pop\n      jump\t// out\n        /* \"@openzeppelin/contracts/utils/cryptography/ECDSA.sol\":548:1179  function _throwError(RecoverError error) private pure {... */\n    tag_34:\n        /* \"@openzeppelin/contracts/utils/cryptography/ECDSA.sol\":625:645  RecoverError.NoError */\n      0x00\n        /* \"@openzeppelin/contracts/utils/cryptography/ECDSA.sol\":616:621  error */\n      dup2\n        /* \"@openzeppelin/contracts/utils/cryptography/ECDSA.sol\":616:645  error == RecoverError.NoError */\n      0x04\n      dup2\n      gt\n      iszero\n      tag_54\n      jumpi\n      tag_54\n      tag_52\n      jump\t// in\n    tag_54:\n      sub\n        /* \"@openzeppelin/contracts/utils/cryptography/ECDSA.sol\":612:1173  if (error == RecoverError.NoError) {... */\n      tag_55\n      jumpi\n        /* \"@openzeppelin/contracts/utils/cryptography/ECDSA.sol\":548:1179  function _throwError(RecoverError error) private pure {... */\n      pop\n      jump\t// out\n        /* \"@openzeppelin/contracts/utils/cryptography/ECDSA.sol\":612:1173  if (error == RecoverError.NoError) {... */\n    tag_55:\n        /* \"@openzeppelin/contracts/utils/cryptography/ECDSA.sol\":721:750  RecoverError.InvalidSignature */\n      0x01\n        /* \"@openzeppelin/contracts/utils/cryptography/ECDSA.sol\":712:717  error */\n      dup2\n        /* \"@openzeppelin/contracts/utils/cryptography/ECDSA.sol\":712:750  error == RecoverError.InvalidSignature */\n      0x04\n      dup2\n      gt\n      iszero\n      tag_60\n      jumpi\n      tag_60\n      tag_52\n      jump\t// in\n    tag_60:\n      sub\n        /* \"@openzeppelin/contracts/utils/cryptography/ECDSA.sol\":708:1173  if (error == RecoverError.InvalidSignature) {... */\n      tag_61\n      jumpi\n        /* \"@openzeppelin/contracts/utils/cryptography/ECDSA.sol\":766:800  revert(\"ECDSA: invalid signature\") */\n      mload(0x40)\n      shl(0xe5, 0x461bcd)\n      dup2\n      mstore\n        /* \"#utility.yul\":3145:3147   */\n      0x20\n        /* \"@openzeppelin/contracts/utils/cryptography/ECDSA.sol\":766:800  revert(\"ECDSA: invalid signature\") */\n      0x04\n      dup3\n      add\n        /* \"#utility.yul\":3127:3148   */\n      mstore\n        /* \"#utility.yul\":3184:3186   */\n      0x18\n        /* \"#utility.yul\":3164:3182   */\n      0x24\n      dup3\n      add\n        /* \"#utility.yul\":3157:3187   */\n      mstore\n        /* \"#utility.yul\":3223:3249   */\n      0x45434453413a20696e76616c6964207369676e61747572650000000000000000\n        /* \"#utility.yul\":3203:3221   */\n      0x44\n      dup3\n      add\n        /* \"#utility.yul\":3196:3250   */\n      mstore\n        /* \"#utility.yul\":3267:3285   */\n      0x64\n      add\n        /* \"@openzeppelin/contracts/utils/cryptography/ECDSA.sol\":766:800  revert(\"ECDSA: invalid signature\") */\n    tag_62:\n      mload(0x40)\n      dup1\n      swap2\n      sub\n      swap1\n      revert\n        /* \"@openzeppelin/contracts/utils/cryptography/ECDSA.sol\":708:1173  if (error == RecoverError.InvalidSignature) {... */\n    tag_61:\n        /* \"@openzeppelin/contracts/utils/cryptography/ECDSA.sol\":830:865  RecoverError.InvalidSignatureLength */\n      0x02\n        /* \"@openzeppelin/contracts/utils/cryptography/ECDSA.sol\":821:826  error */\n      dup2\n        /* \"@openzeppelin/contracts/utils/cryptography/ECDSA.sol\":821:865  error == RecoverError.InvalidSignatureLength */\n      0x04\n      dup2\n      gt\n      iszero\n      tag_68\n      jumpi\n      tag_68\n      tag_52\n      jump\t// in\n    tag_68:\n      sub\n        /* \"@openzeppelin/contracts/utils/cryptography/ECDSA.sol\":817:1173  if (error == RecoverError.InvalidSignatureLength) {... */\n      tag_69\n      jumpi\n        /* \"@openzeppelin/contracts/utils/cryptography/ECDSA.sol\":881:922  revert(\"ECDSA: invalid signature length\") */\n      mload(0x40)\n      shl(0xe5, 0x461bcd)\n      dup2\n      mstore\n        /* \"#utility.yul\":3498:3500   */\n      0x20\n        /* \"@openzeppelin/contracts/utils/cryptography/ECDSA.sol\":881:922  revert(\"ECDSA: invalid signature length\") */\n      0x04\n      dup3\n      add\n        /* \"#utility.yul\":3480:3501   */\n      mstore\n        /* \"#utility.yul\":3537:3539   */\n      0x1f\n        /* \"#utility.yul\":3517:3535   */\n      0x24\n      dup3\n      add\n        /* \"#utility.yul\":3510:3540   */\n      mstore\n        /* \"#utility.yul\":3576:3609   */\n      0x45434453413a20696e76616c6964207369676e6174757265206c656e67746800\n        /* \"#utility.yul\":3556:3574   */\n      0x44\n      dup3\n      add\n        /* \"#utility.yul\":3549:3610   */\n      mstore\n        /* \"#utility.yul\":3627:3645   */\n      0x64\n      add\n        /* \"@openzeppelin/contracts/utils/cryptography/ECDSA.sol\":881:922  revert(\"ECDSA: invalid signature length\") */\n      tag_62\n        /* \"#utility.yul\":3296:3651   */\n      jump\n        /* \"@openzeppelin/contracts/utils/cryptography/ECDSA.sol\":817:1173  if (error == RecoverError.InvalidSignatureLength) {... */\n    tag_69:\n        /* \"@openzeppelin/contracts/utils/cryptography/ECDSA.sol\":952:982  RecoverError.InvalidSignatureS */\n      0x03\n        /* \"@openzeppelin/contracts/utils/cryptography/ECDSA.sol\":943:948  error */\n      dup2\n        /* \"@openzeppelin/contracts/utils/cryptography/ECDSA.sol\":943:982  error == RecoverError.InvalidSignatureS */\n      0x04\n      dup2\n      gt\n      iszero\n      tag_76\n      jumpi\n      tag_76\n      tag_52\n      jump\t// in\n    tag_76:\n      sub\n        /* \"@openzeppelin/contracts/utils/cryptography/ECDSA.sol\":939:1173  if (error == RecoverError.InvalidSignatureS) {... */\n      tag_77\n      jumpi\n        /* \"@openzeppelin/contracts/utils/cryptography/ECDSA.sol\":998:1042  revert(\"ECDSA: invalid signature 's' value\") */\n      mload(0x40)\n      shl(0xe5, 0x461bcd)\n      dup2\n      mstore\n        /* \"#utility.yul\":3858:3860   */\n      0x20\n        /* \"@openzeppelin/contracts/utils/cryptography/ECDSA.sol\":998:1042  revert(\"ECDSA: invalid signature 's' value\") */\n      0x04\n      dup3\n      add\n        /* \"#utility.yul\":3840:3861   */\n      mstore\n        /* \"#utility.yul\":3897:3899   */\n      0x22\n        /* \"#utility.yul\":3877:3895   */\n      0x24\n      dup3\n      add\n        /* \"#utility.yul\":3870:3900   */\n      mstore\n        /* \"#utility.yul\":3936:3970   */\n      0x45434453413a20696e76616c6964207369676e6174757265202773272076616c\n        /* \"#utility.yul\":3916:3934   */\n      0x44\n      dup3\n      add\n        /* \"#utility.yul\":3909:3971   */\n      mstore\n      shl(0xf0, 0x7565)\n        /* \"#utility.yul\":3987:4005   */\n      0x64\n      dup3\n      add\n        /* \"#utility.yul\":3980:4012   */\n      mstore\n        /* \"#utility.yul\":4029:4048   */\n      0x84\n      add\n        /* \"@openzeppelin/contracts/utils/cryptography/ECDSA.sol\":998:1042  revert(\"ECDSA: invalid signature 's' value\") */\n      tag_62\n        /* \"#utility.yul\":3656:4054   */\n      jump\n        /* \"@openzeppelin/contracts/utils/cryptography/ECDSA.sol\":939:1173  if (error == RecoverError.InvalidSignatureS) {... */\n    tag_77:\n        /* \"@openzeppelin/contracts/utils/cryptography/ECDSA.sol\":1072:1102  RecoverError.InvalidSignatureV */\n      0x04\n        /* \"@openzeppelin/contracts/utils/cryptography/ECDSA.sol\":1063:1068  error */\n      dup2\n        /* \"@openzeppelin/contracts/utils/cryptography/ECDSA.sol\":1063:1102  error == RecoverError.InvalidSignatureV */\n      0x04\n      dup2\n      gt\n      iszero\n      tag_84\n      jumpi\n      tag_84\n      tag_52\n      jump\t// in\n    tag_84:\n      sub\n        /* \"@openzeppelin/contracts/utils/cryptography/ECDSA.sol\":1059:1173  if (error == RecoverError.InvalidSignatureV) {... */\n      tag_85\n      jumpi\n        /* \"@openzeppelin/contracts/utils/cryptography/ECDSA.sol\":1118:1162  revert(\"ECDSA: invalid signature 'v' value\") */\n      mload(0x40)\n      shl(0xe5, 0x461bcd)\n      dup2\n      mstore\n        /* \"#utility.yul\":4261:4263   */\n      0x20\n        /* \"@openzeppelin/contracts/utils/cryptography/ECDSA.sol\":1118:1162  revert(\"ECDSA: invalid signature 'v' value\") */\n      0x04\n      dup3\n      add\n        /* \"#utility.yul\":4243:4264   */\n      mstore\n        /* \"#utility.yul\":4300:4302   */\n      0x22\n        /* \"#utility.yul\":4280:4298   */\n      0x24\n      dup3\n      add\n        /* \"#utility.yul\":4273:4303   */\n      mstore\n        /* \"#utility.yul\":4339:4373   */\n      0x45434453413a20696e76616c6964207369676e6174757265202776272076616c\n        /* \"#utility.yul\":4319:4337   */\n      0x44\n      dup3\n      add\n        /* \"#utility.yul\":4312:4374   */\n      mstore\n      shl(0xf0, 0x7565)\n        /* \"#utility.yul\":4390:4408   */\n      0x64\n      dup3\n      add\n        /* \"#utility.yul\":4383:4415   */\n      mstore\n        /* \"#utility.yul\":4432:4451   */\n      0x84\n      add\n        /* \"@openzeppelin/contracts/utils/cryptography/ECDSA.sol\":1118:1162  revert(\"ECDSA: invalid signature 'v' value\") */\n      tag_62\n        /* \"#utility.yul\":4059:4457   */\n      jump\n        /* \"@openzeppelin/contracts/utils/cryptography/ECDSA.sol\":1059:1173  if (error == RecoverError.InvalidSignatureV) {... */\n    tag_85:\n        /* \"@openzeppelin/contracts/utils/cryptography/ECDSA.sol\":548:1179  function _throwError(RecoverError error) private pure {... */\n      pop\n      jump\t// out\n        /* \"@openzeppelin/contracts/utils/cryptography/draft-EIP712.sol\":3143:3451  function _domainSeparatorV4() internal view returns (bytes32) {... */\n    tag_38:\n        /* \"@openzeppelin/contracts/utils/cryptography/draft-EIP712.sol\":3196:3203  bytes32 */\n      0x00\n        /* \"@openzeppelin/contracts/utils/cryptography/draft-EIP712.sol\":3227:3231  this */\n      address\n      sub(shl(0xa0, 0x01), 0x01)\n        /* \"@openzeppelin/contracts/utils/cryptography/draft-EIP712.sol\":3236:3248  _CACHED_THIS */\n      immutable(\"0x9ef31662fdafe5ade9dc48fd4724c04f17232ac2ae4e5ea3da9c2a310c4aba3c\")\n        /* \"@openzeppelin/contracts/utils/cryptography/draft-EIP712.sol\":3219:3248  address(this) == _CACHED_THIS */\n      and\n      eq\n        /* \"@openzeppelin/contracts/utils/cryptography/draft-EIP712.sol\":3219:3285  address(this) == _CACHED_THIS && block.chainid == _CACHED_CHAIN_ID */\n      dup1\n      iszero\n      tag_89\n      jumpi\n      pop\n        /* \"@openzeppelin/contracts/utils/cryptography/draft-EIP712.sol\":3269:3285  _CACHED_CHAIN_ID */\n      immutable(\"0xae3f42c075651cd672386e7fa64476ebefa89324c3c225495e52b74374d0bc80\")\n        /* \"@openzeppelin/contracts/utils/cryptography/draft-EIP712.sol\":3252:3265  block.chainid */\n      chainid\n        /* \"@openzeppelin/contracts/utils/cryptography/draft-EIP712.sol\":3252:3285  block.chainid == _CACHED_CHAIN_ID */\n      eq\n        /* \"@openzeppelin/contracts/utils/cryptography/draft-EIP712.sol\":3219:3285  address(this) == _CACHED_THIS && block.chainid == _CACHED_CHAIN_ID */\n    tag_89:\n        /* \"@openzeppelin/contracts/utils/cryptography/draft-EIP712.sol\":3215:3445  if (address(this) == _CACHED_THIS && block.chainid == _CACHED_CHAIN_ID) {... */\n      iszero\n      tag_90\n      jumpi\n      pop\n        /* \"@openzeppelin/contracts/utils/cryptography/draft-EIP712.sol\":3308:3332  _CACHED_DOMAIN_SEPARATOR */\n      immutable(\"0x9459a54a9dc1a91201f12e123a36391197edb81156a93e7e6bc8a3c17589bb36\")\n      swap1\n        /* \"@openzeppelin/contracts/utils/cryptography/draft-EIP712.sol\":3143:3451  function _domainSeparatorV4() internal view returns (bytes32) {... */\n      jump\t// out\n        /* \"@openzeppelin/contracts/utils/cryptography/draft-EIP712.sol\":3215:3445  if (address(this) == _CACHED_THIS && block.chainid == _CACHED_CHAIN_ID) {... */\n    tag_90:\n      pop\n        /* \"@openzeppelin/contracts/utils/cryptography/draft-EIP712.sol\":3633:3706  abi.encode(typeHash, nameHash, versionHash, block.chainid, address(this)) */\n      0x40\n      dup1\n      mload\n        /* \"@openzeppelin/contracts/utils/cryptography/draft-EIP712.sol\":3392:3402  _TYPE_HASH */\n      immutable(\"0x8c92e2e72e7997816d62b0c03c0b21c46605af4c276e6d0637f7e77158832bca\")\n        /* \"@openzeppelin/contracts/utils/cryptography/draft-EIP712.sol\":3633:3706  abi.encode(typeHash, nameHash, versionHash, block.chainid, address(this)) */\n      0x20\n      dup1\n      dup4\n      add\n        /* \"#utility.yul\":5751:5776   */\n      swap2\n      swap1\n      swap2\n      mstore\n        /* \"@openzeppelin/contracts/utils/cryptography/draft-EIP712.sol\":3404:3416  _HASHED_NAME */\n      immutable(\"0x954b846e373da6e2d86e60934c6fb4929a5d4ad23ca448303f22db28783db296\")\n        /* \"#utility.yul\":5792:5810   */\n      dup3\n      dup5\n      add\n        /* \"#utility.yul\":5785:5819   */\n      mstore\n        /* \"@openzeppelin/contracts/utils/cryptography/draft-EIP712.sol\":3418:3433  _HASHED_VERSION */\n      immutable(\"0xc7087a93770541a54b276c354f6d56c80647702e0edc6c1d5ee9aeacf01dfad8\")\n        /* \"#utility.yul\":5835:5853   */\n      0x60\n      dup4\n      add\n        /* \"#utility.yul\":5828:5862   */\n      mstore\n        /* \"@openzeppelin/contracts/utils/cryptography/draft-EIP712.sol\":3677:3690  block.chainid */\n      chainid\n        /* \"#utility.yul\":5878:5896   */\n      0x80\n      dup4\n      add\n        /* \"#utility.yul\":5871:5905   */\n      mstore\n        /* \"@openzeppelin/contracts/utils/cryptography/draft-EIP712.sol\":3700:3704  this */\n      address\n        /* \"#utility.yul\":5921:5940   */\n      0xa0\n      dup1\n      dup5\n      add\n        /* \"#utility.yul\":5914:5975   */\n      swap2\n      swap1\n      swap2\n      mstore\n        /* \"@openzeppelin/contracts/utils/cryptography/draft-EIP712.sol\":3633:3706  abi.encode(typeHash, nameHash, versionHash, block.chainid, address(this)) */\n      dup4\n      mload\n      dup1\n      dup5\n      sub\n      swap1\n      swap2\n      add\n      dup2\n      mstore\n        /* \"#utility.yul\":5723:5742   */\n      0xc0\n      swap1\n      swap3\n      add\n        /* \"@openzeppelin/contracts/utils/cryptography/draft-EIP712.sol\":3633:3706  abi.encode(typeHash, nameHash, versionHash, block.chainid, address(this)) */\n      swap1\n      swap3\n      mstore\n        /* \"@openzeppelin/contracts/utils/cryptography/draft-EIP712.sol\":3623:3707  keccak256(abi.encode(typeHash, nameHash, versionHash, block.chainid, address(this))) */\n      dup1\n      mload\n      swap2\n      add\n      keccak256\n      swap1\n        /* \"@openzeppelin/contracts/utils/cryptography/draft-EIP712.sol\":3143:3451  function _domainSeparatorV4() internal view returns (bytes32) {... */\n      jump\t// out\n        /* \"@openzeppelin/contracts/utils/cryptography/ECDSA.sol\":5716:7319  function tryRecover(... */\n    tag_43:\n        /* \"@openzeppelin/contracts/utils/cryptography/ECDSA.sol\":5842:5849  address */\n      0x00\n      dup1\n        /* \"@openzeppelin/contracts/utils/cryptography/ECDSA.sol\":6766:6832  0x7FFFFFFFFFFFFFFFFFFFFFFFFFFFFFFF5D576E7357A4501DDFE92F46681B20A0 */\n      0x7fffffffffffffffffffffffffffffff5d576e7357a4501ddfe92f46681b20a0\n        /* \"@openzeppelin/contracts/utils/cryptography/ECDSA.sol\":6753:6832  uint256(s) > 0x7FFFFFFFFFFFFFFFFFFFFFFFFFFFFFFF5D576E7357A4501DDFE92F46681B20A0 */\n      dup4\n      gt\n        /* \"@openzeppelin/contracts/utils/cryptography/ECDSA.sol\":6749:6910  if (uint256(s) > 0x7FFFFFFFFFFFFFFFFFFFFFFFFFFFFFFF5D576E7357A4501DDFE92F46681B20A0) {... */\n      iszero\n      tag_98\n      jumpi\n      pop\n        /* \"@openzeppelin/contracts/utils/cryptography/ECDSA.sol\":6864:6865  0 */\n      0x00\n      swap1\n      pop\n        /* \"@openzeppelin/contracts/utils/cryptography/ECDSA.sol\":6868:6898  RecoverError.InvalidSignatureS */\n      0x03\n        /* \"@openzeppelin/contracts/utils/cryptography/ECDSA.sol\":6848:6899  return (address(0), RecoverError.InvalidSignatureS) */\n      jump(tag_97)\n        /* \"@openzeppelin/contracts/utils/cryptography/ECDSA.sol\":6749:6910  if (uint256(s) > 0x7FFFFFFFFFFFFFFFFFFFFFFFFFFFFFFF5D576E7357A4501DDFE92F46681B20A0) {... */\n    tag_98:\n        /* \"@openzeppelin/contracts/utils/cryptography/ECDSA.sol\":6923:6924  v */\n      dup5\n        /* \"@openzeppelin/contracts/utils/cryptography/ECDSA.sol\":6923:6930  v != 27 */\n      0xff\n      and\n        /* \"@openzeppelin/contracts/utils/cryptography/ECDSA.sol\":6928:6930  27 */\n      0x1b\n        /* \"@openzeppelin/contracts/utils/cryptography/ECDSA.sol\":6923:6930  v != 27 */\n      eq\n      iszero\n        /* \"@openzeppelin/contracts/utils/cryptography/ECDSA.sol\":6923:6941  v != 27 && v != 28 */\n      dup1\n      iszero\n      tag_99\n      jumpi\n      pop\n        /* \"@openzeppelin/contracts/utils/cryptography/ECDSA.sol\":6934:6935  v */\n      dup5\n        /* \"@openzeppelin/contracts/utils/cryptography/ECDSA.sol\":6934:6941  v != 28 */\n      0xff\n      and\n        /* \"@openzeppelin/contracts/utils/cryptography/ECDSA.sol\":6939:6941  28 */\n      0x1c\n        /* \"@openzeppelin/contracts/utils/cryptography/ECDSA.sol\":6934:6941  v != 28 */\n      eq\n      iszero\n        /* \"@openzeppelin/contracts/utils/cryptography/ECDSA.sol\":6923:6941  v != 27 && v != 28 */\n    tag_99:\n        /* \"@openzeppelin/contracts/utils/cryptography/ECDSA.sol\":6919:7019  if (v != 27 && v != 28) {... */\n      iszero\n      tag_100\n      jumpi\n      pop\n        /* \"@openzeppelin/contracts/utils/cryptography/ECDSA.sol\":6973:6974  0 */\n      0x00\n      swap1\n      pop\n        /* \"@openzeppelin/contracts/utils/cryptography/ECDSA.sol\":6977:7007  RecoverError.InvalidSignatureV */\n      0x04\n        /* \"@openzeppelin/contracts/utils/cryptography/ECDSA.sol\":6957:7008  return (address(0), RecoverError.InvalidSignatureV) */\n      jump(tag_97)\n        /* \"@openzeppelin/contracts/utils/cryptography/ECDSA.sol\":6919:7019  if (v != 27 && v != 28) {... */\n    tag_100:\n        /* \"@openzeppelin/contracts/utils/cryptography/ECDSA.sol\":7130:7154  ecrecover(hash, v, r, s) */\n      0x40\n      dup1\n      mload\n        /* \"@openzeppelin/contracts/utils/cryptography/ECDSA.sol\":7113:7127  address signer */\n      0x00\n        /* \"@openzeppelin/contracts/utils/cryptography/ECDSA.sol\":7130:7154  ecrecover(hash, v, r, s) */\n      dup1\n      dup3\n      mstore\n      0x20\n      dup3\n      add\n      dup1\n      dup5\n      mstore\n        /* \"#utility.yul\":5086:5111   */\n      dup10\n      swap1\n      mstore\n        /* \"#utility.yul\":5159:5163   */\n      0xff\n        /* \"#utility.yul\":5147:5164   */\n      dup9\n      and\n        /* \"#utility.yul\":5127:5145   */\n      swap3\n      dup3\n      add\n        /* \"#utility.yul\":5120:5165   */\n      swap3\n      swap1\n      swap3\n      mstore\n        /* \"#utility.yul\":5181:5199   */\n      0x60\n      dup2\n      add\n        /* \"#utility.yul\":5174:5208   */\n      dup7\n      swap1\n      mstore\n        /* \"#utility.yul\":5224:5242   */\n      0x80\n      dup2\n      add\n        /* \"#utility.yul\":5217:5251   */\n      dup6\n      swap1\n      mstore\n        /* \"@openzeppelin/contracts/utils/cryptography/ECDSA.sol\":7130:7154  ecrecover(hash, v, r, s) */\n      0x01\n      swap1\n        /* \"#utility.yul\":5058:5077   */\n      0xa0\n      add\n        /* \"@openzeppelin/contracts/utils/cryptography/ECDSA.sol\":7130:7154  ecrecover(hash, v, r, s) */\n      0x20\n      mload(0x40)\n      0x20\n      dup2\n      sub\n      swap1\n      dup1\n      dup5\n      sub\n      swap1\n      dup6\n      gas\n      staticcall\n      iszero\n      dup1\n      iszero\n      tag_104\n      jumpi\n      returndatasize\n      0x00\n      dup1\n      returndatacopy\n      revert(0x00, returndatasize)\n    tag_104:\n      pop\n      pop\n      mload(add(not(0x1f), mload(0x40)))\n      swap2\n      pop\n      pop\n      sub(shl(0xa0, 0x01), 0x01)\n        /* \"@openzeppelin/contracts/utils/cryptography/ECDSA.sol\":7168:7188  signer == address(0) */\n      dup2\n      and\n        /* \"@openzeppelin/contracts/utils/cryptography/ECDSA.sol\":7164:7265  if (signer == address(0)) {... */\n      tag_105\n      jumpi\n        /* \"@openzeppelin/contracts/utils/cryptography/ECDSA.sol\":7220:7221  0 */\n      0x00\n        /* \"@openzeppelin/contracts/utils/cryptography/ECDSA.sol\":7224:7253  RecoverError.InvalidSignature */\n      0x01\n        /* \"@openzeppelin/contracts/utils/cryptography/ECDSA.sol\":7204:7254  return (address(0), RecoverError.InvalidSignature) */\n      swap3\n      pop\n      swap3\n      pop\n      pop\n      jump(tag_97)\n        /* \"@openzeppelin/contracts/utils/cryptography/ECDSA.sol\":7164:7265  if (signer == address(0)) {... */\n    tag_105:\n        /* \"@openzeppelin/contracts/utils/cryptography/ECDSA.sol\":7283:7289  signer */\n      swap2\n      pop\n        /* \"@openzeppelin/contracts/utils/cryptography/ECDSA.sol\":7291:7311  RecoverError.NoError */\n      0x00\n      swap1\n      pop\n        /* \"@openzeppelin/contracts/utils/cryptography/ECDSA.sol\":5716:7319  function tryRecover(... */\n    tag_97:\n      swap5\n      pop\n      swap5\n      swap3\n      pop\n      pop\n      pop\n      jump\t// out\n        /* \"@openzeppelin/contracts/utils/cryptography/ECDSA.sol\":4789:5125  function tryRecover(... */\n    tag_47:\n        /* \"@openzeppelin/contracts/utils/cryptography/ECDSA.sol\":4899:4906  address */\n      0x00\n      dup1\n      sub(shl(0xff, 0x01), 0x01)\n        /* \"@openzeppelin/contracts/utils/cryptography/ECDSA.sol\":4944:5024  vs & bytes32(0x7fffffffffffffffffffffffffffffffffffffffffffffffffffffffffffffff) */\n      dup4\n      and\n        /* \"@openzeppelin/contracts/utils/cryptography/ECDSA.sol\":4899:4906  address */\n      dup2\n        /* \"@openzeppelin/contracts/utils/cryptography/ECDSA.sol\":5050:5075  (uint256(vs) >> 255) + 27 */\n      tag_107\n        /* \"@openzeppelin/contracts/utils/cryptography/ECDSA.sol\":5066:5069  255 */\n      0xff\n        /* \"@openzeppelin/contracts/utils/cryptography/ECDSA.sol\":5051:5069  uint256(vs) >> 255 */\n      dup7\n      swap1\n      shr\n        /* \"@openzeppelin/contracts/utils/cryptography/ECDSA.sol\":5073:5075  27 */\n      0x1b\n        /* \"@openzeppelin/contracts/utils/cryptography/ECDSA.sol\":5050:5075  (uint256(vs) >> 255) + 27 */\n      tag_108\n      jump\t// in\n    tag_107:\n        /* \"@openzeppelin/contracts/utils/cryptography/ECDSA.sol\":5034:5076  uint8 v = uint8((uint256(vs) >> 255) + 27) */\n      swap1\n      pop\n        /* \"@openzeppelin/contracts/utils/cryptography/ECDSA.sol\":5093:5118  tryRecover(hash, v, r, s) */\n      tag_109\n        /* \"@openzeppelin/contracts/utils/cryptography/ECDSA.sol\":5104:5108  hash */\n      dup8\n        /* \"@openzeppelin/contracts/utils/cryptography/ECDSA.sol\":5110:5111  v */\n      dup3\n        /* \"@openzeppelin/contracts/utils/cryptography/ECDSA.sol\":5113:5114  r */\n      dup9\n        /* \"@openzeppelin/contracts/utils/cryptography/ECDSA.sol\":5116:5117  s */\n      dup6\n        /* \"@openzeppelin/contracts/utils/cryptography/ECDSA.sol\":5093:5103  tryRecover */\n      tag_43\n        /* \"@openzeppelin/contracts/utils/cryptography/ECDSA.sol\":5093:5118  tryRecover(hash, v, r, s) */\n      jump\t// in\n    tag_109:\n        /* \"@openzeppelin/contracts/utils/cryptography/ECDSA.sol\":5086:5118  return tryRecover(hash, v, r, s) */\n      swap4\n      pop\n      swap4\n      pop\n      pop\n      pop\n        /* \"@openzeppelin/contracts/utils/cryptography/ECDSA.sol\":4789:5125  function tryRecover(... */\n      swap4\n      pop\n      swap4\n      swap2\n      pop\n      pop\n      jump\t// out\n        /* \"#utility.yul\":14:404   */\n    tag_6:\n        /* \"#utility.yul\":103:109   */\n      0x00\n        /* \"#utility.yul\":156:158   */\n      0x20\n        /* \"#utility.yul\":144:153   */\n      dup3\n        /* \"#utility.yul\":135:142   */\n      dup5\n        /* \"#utility.yul\":131:154   */\n      sub\n        /* \"#utility.yul\":127:159   */\n      slt\n        /* \"#utility.yul\":124:176   */\n      iszero\n      tag_115\n      jumpi\n        /* \"#utility.yul\":172:173   */\n      0x00\n        /* \"#utility.yul\":169:170   */\n      dup1\n        /* \"#utility.yul\":162:174   */\n      revert\n        /* \"#utility.yul\":124:176   */\n    tag_115:\n        /* \"#utility.yul\":212:221   */\n      dup2\n        /* \"#utility.yul\":199:222   */\n      calldataload\n        /* \"#utility.yul\":245:263   */\n      0xffffffffffffffff\n        /* \"#utility.yul\":237:243   */\n      dup2\n        /* \"#utility.yul\":234:264   */\n      gt\n        /* \"#utility.yul\":231:281   */\n      iszero\n      tag_116\n      jumpi\n        /* \"#utility.yul\":277:278   */\n      0x00\n        /* \"#utility.yul\":274:275   */\n      dup1\n        /* \"#utility.yul\":267:279   */\n      revert\n        /* \"#utility.yul\":231:281   */\n    tag_116:\n        /* \"#utility.yul\":300:322   */\n      dup3\n      add\n        /* \"#utility.yul\":356:359   */\n      0xa0\n        /* \"#utility.yul\":338:354   */\n      dup2\n      dup6\n      sub\n        /* \"#utility.yul\":334:360   */\n      slt\n        /* \"#utility.yul\":331:377   */\n      iszero\n      tag_13\n      jumpi\n        /* \"#utility.yul\":373:374   */\n      0x00\n        /* \"#utility.yul\":370:371   */\n      dup1\n        /* \"#utility.yul\":363:375   */\n      revert\n        /* \"#utility.yul\":617:1138   */\n    tag_15:\n        /* \"#utility.yul\":694:698   */\n      0x00\n        /* \"#utility.yul\":700:706   */\n      dup1\n        /* \"#utility.yul\":760:771   */\n      dup4\n        /* \"#utility.yul\":747:772   */\n      calldataload\n        /* \"#utility.yul\":854:856   */\n      0x1e\n        /* \"#utility.yul\":850:857   */\n      not\n        /* \"#utility.yul\":839:847   */\n      dup5\n        /* \"#utility.yul\":823:837   */\n      calldatasize\n        /* \"#utility.yul\":819:848   */\n      sub\n        /* \"#utility.yul\":815:858   */\n      add\n        /* \"#utility.yul\":795:813   */\n      dup2\n        /* \"#utility.yul\":791:859   */\n      slt\n        /* \"#utility.yul\":781:877   */\n      tag_120\n      jumpi\n        /* \"#utility.yul\":873:874   */\n      0x00\n        /* \"#utility.yul\":870:871   */\n      dup1\n        /* \"#utility.yul\":863:875   */\n      revert\n        /* \"#utility.yul\":781:877   */\n    tag_120:\n        /* \"#utility.yul\":900:933   */\n      dup4\n      add\n        /* \"#utility.yul\":952:972   */\n      dup1\n      calldataload\n      swap2\n      pop\n        /* \"#utility.yul\":995:1013   */\n      0xffffffffffffffff\n        /* \"#utility.yul\":984:1014   */\n      dup3\n      gt\n        /* \"#utility.yul\":981:1031   */\n      iszero\n      tag_121\n      jumpi\n        /* \"#utility.yul\":1027:1028   */\n      0x00\n        /* \"#utility.yul\":1024:1025   */\n      dup1\n        /* \"#utility.yul\":1017:1029   */\n      revert\n        /* \"#utility.yul\":981:1031   */\n    tag_121:\n        /* \"#utility.yul\":1060:1064   */\n      0x20\n        /* \"#utility.yul\":1048:1065   */\n      add\n      swap2\n      pop\n        /* \"#utility.yul\":1091:1105   */\n      calldatasize\n        /* \"#utility.yul\":1087:1114   */\n      dup2\n      swap1\n      sub\n        /* \"#utility.yul\":1077:1115   */\n      dup3\n      sgt\n        /* \"#utility.yul\":1074:1132   */\n      iszero\n      tag_48\n      jumpi\n        /* \"#utility.yul\":1128:1129   */\n      0x00\n        /* \"#utility.yul\":1125:1126   */\n      dup1\n        /* \"#utility.yul\":1118:1130   */\n      revert\n        /* \"#utility.yul\":1143:1688   */\n    tag_20:\n        /* \"#utility.yul\":1236:1240   */\n      0x00\n        /* \"#utility.yul\":1242:1248   */\n      dup1\n        /* \"#utility.yul\":1302:1313   */\n      dup4\n        /* \"#utility.yul\":1289:1314   */\n      calldataload\n        /* \"#utility.yul\":1396:1398   */\n      0x1e\n        /* \"#utility.yul\":1392:1399   */\n      not\n        /* \"#utility.yul\":1381:1389   */\n      dup5\n        /* \"#utility.yul\":1365:1379   */\n      calldatasize\n        /* \"#utility.yul\":1361:1390   */\n      sub\n        /* \"#utility.yul\":1357:1400   */\n      add\n        /* \"#utility.yul\":1337:1355   */\n      dup2\n        /* \"#utility.yul\":1333:1401   */\n      slt\n        /* \"#utility.yul\":1323:1419   */\n      tag_124\n      jumpi\n        /* \"#utility.yul\":1415:1416   */\n      0x00\n        /* \"#utility.yul\":1412:1413   */\n      dup1\n        /* \"#utility.yul\":1405:1417   */\n      revert\n        /* \"#utility.yul\":1323:1419   */\n    tag_124:\n        /* \"#utility.yul\":1442:1475   */\n      dup4\n      add\n        /* \"#utility.yul\":1494:1514   */\n      dup1\n      calldataload\n      swap2\n      pop\n        /* \"#utility.yul\":1537:1555   */\n      0xffffffffffffffff\n        /* \"#utility.yul\":1526:1556   */\n      dup3\n      gt\n        /* \"#utility.yul\":1523:1573   */\n      iszero\n      tag_125\n      jumpi\n        /* \"#utility.yul\":1569:1570   */\n      0x00\n        /* \"#utility.yul\":1566:1567   */\n      dup1\n        /* \"#utility.yul\":1559:1571   */\n      revert\n        /* \"#utility.yul\":1523:1573   */\n    tag_125:\n        /* \"#utility.yul\":1602:1606   */\n      0x20\n        /* \"#utility.yul\":1590:1607   */\n      add\n      swap2\n      pop\n        /* \"#utility.yul\":1653:1654   */\n      0x05\n        /* \"#utility.yul\":1649:1663   */\n      dup2\n      swap1\n      shl\n        /* \"#utility.yul\":1633:1647   */\n      calldatasize\n        /* \"#utility.yul\":1629:1664   */\n      sub\n        /* \"#utility.yul\":1619:1665   */\n      dup3\n      sgt\n        /* \"#utility.yul\":1616:1682   */\n      iszero\n      tag_48\n      jumpi\n        /* \"#utility.yul\":1678:1679   */\n      0x00\n        /* \"#utility.yul\":1675:1676   */\n      dup1\n        /* \"#utility.yul\":1668:1680   */\n      revert\n        /* \"#utility.yul\":1693:2093   */\n    tag_22:\n        /* \"#utility.yul\":1864:1867   */\n      0x00\n      sub(shl(0xfb, 0x01), 0x01)\n        /* \"#utility.yul\":1885:1916   */\n      dup4\n      gt\n        /* \"#utility.yul\":1882:1933   */\n      iszero\n      tag_128\n      jumpi\n        /* \"#utility.yul\":1929:1930   */\n      0x00\n        /* \"#utility.yul\":1926:1927   */\n      dup1\n        /* \"#utility.yul\":1919:1931   */\n      revert\n        /* \"#utility.yul\":1882:1933   */\n    tag_128:\n        /* \"#utility.yul\":1963:1969   */\n      dup3\n        /* \"#utility.yul\":1960:1961   */\n      0x05\n        /* \"#utility.yul\":1956:1970   */\n      shl\n        /* \"#utility.yul\":2005:2011   */\n      dup1\n        /* \"#utility.yul\":1997:2003   */\n      dup6\n        /* \"#utility.yul\":1992:1995   */\n      dup5\n        /* \"#utility.yul\":1979:2012   */\n      calldatacopy\n        /* \"#utility.yul\":2067:2068   */\n      0x00\n        /* \"#utility.yul\":2031:2047   */\n      swap3\n      add\n        /* \"#utility.yul\":2056:2069   */\n      swap2\n      dup3\n      mstore\n      pop\n        /* \"#utility.yul\":2031:2047   */\n      swap3\n        /* \"#utility.yul\":1693:2093   */\n      swap2\n      pop\n      pop\n      jump\t// out\n        /* \"#utility.yul\":2098:2384   */\n    tag_26:\n        /* \"#utility.yul\":2157:2163   */\n      0x00\n        /* \"#utility.yul\":2210:2212   */\n      0x20\n        /* \"#utility.yul\":2198:2207   */\n      dup3\n        /* \"#utility.yul\":2189:2196   */\n      dup5\n        /* \"#utility.yul\":2185:2208   */\n      sub\n        /* \"#utility.yul\":2181:2213   */\n      slt\n        /* \"#utility.yul\":2178:2230   */\n      iszero\n      tag_130\n      jumpi\n        /* \"#utility.yul\":2226:2227   */\n      0x00\n        /* \"#utility.yul\":2223:2224   */\n      dup1\n        /* \"#utility.yul\":2216:2228   */\n      revert\n        /* \"#utility.yul\":2178:2230   */\n    tag_130:\n        /* \"#utility.yul\":2252:2275   */\n      dup2\n      calldataload\n      sub(shl(0xa0, 0x01), 0x01)\n        /* \"#utility.yul\":2304:2335   */\n      dup2\n      and\n        /* \"#utility.yul\":2294:2336   */\n      dup2\n      eq\n        /* \"#utility.yul\":2284:2354   */\n      tag_13\n      jumpi\n        /* \"#utility.yul\":2350:2351   */\n      0x00\n        /* \"#utility.yul\":2347:2348   */\n      dup1\n        /* \"#utility.yul\":2340:2352   */\n      revert\n        /* \"#utility.yul\":2811:2938   */\n    tag_52:\n        /* \"#utility.yul\":2872:2882   */\n      0x4e487b71\n        /* \"#utility.yul\":2867:2870   */\n      0xe0\n        /* \"#utility.yul\":2863:2883   */\n      shl\n        /* \"#utility.yul\":2860:2861   */\n      0x00\n        /* \"#utility.yul\":2853:2884   */\n      mstore\n        /* \"#utility.yul\":2903:2907   */\n      0x21\n        /* \"#utility.yul\":2900:2901   */\n      0x04\n        /* \"#utility.yul\":2893:2908   */\n      mstore\n        /* \"#utility.yul\":2927:2931   */\n      0x24\n        /* \"#utility.yul\":2924:2925   */\n      0x00\n        /* \"#utility.yul\":2917:2932   */\n      revert\n        /* \"#utility.yul\":5262:5487   */\n    tag_108:\n        /* \"#utility.yul\":5302:5305   */\n      0x00\n        /* \"#utility.yul\":5333:5334   */\n      dup3\n        /* \"#utility.yul\":5329:5335   */\n      not\n        /* \"#utility.yul\":5326:5327   */\n      dup3\n        /* \"#utility.yul\":5323:5336   */\n      gt\n        /* \"#utility.yul\":5320:5456   */\n      iszero\n      tag_141\n      jumpi\n        /* \"#utility.yul\":5378:5388   */\n      0x4e487b71\n        /* \"#utility.yul\":5373:5376   */\n      0xe0\n        /* \"#utility.yul\":5369:5389   */\n      shl\n        /* \"#utility.yul\":5366:5367   */\n      0x00\n        /* \"#utility.yul\":5359:5390   */\n      mstore\n        /* \"#utility.yul\":5413:5417   */\n      0x11\n        /* \"#utility.yul\":5410:5411   */\n      0x04\n        /* \"#utility.yul\":5403:5418   */\n      mstore\n        /* \"#utility.yul\":5441:5445   */\n      0x24\n        /* \"#utility.yul\":5438:5439   */\n      0x00\n        /* \"#utility.yul\":5431:5446   */\n      revert\n        /* \"#utility.yul\":5320:5456   */\n    tag_141:\n      pop\n        /* \"#utility.yul\":5472:5481   */\n      add\n      swap1\n        /* \"#utility.yul\":5262:5487   */\n      jump\t// out\n\n    auxdata: 0xa264697066735822122078fb94a7a0a650a80347816fc03c997fca826c5edd3b4bcb6f609fb176e5237964736f6c634300080d0033\n}\n",
				"bytecode": {
					"linkReferences": {},
					"object": "61014060405234801561001157600080fd5b50604080518082018252600b81526a48616368694e667453696760a81b6020808301918252835180850190945260018452603160f81b908401528151902060e08190527fc89efdaa54c0f20c7adf612882df0950f5a951637e0307cdcb4c672f298b8bc66101008190524660a0529192917f8b73c3c69bb8fe3d512ecc4cf759cc79239f7b179b0ffacaa9a75d522b39400f6100f28184846040805160208101859052908101839052606081018290524660808201523060a082015260009060c0016040516020818303038152906040528051906020012090509392505050565b6080523060c052610120525061010792505050565b60805160a05160c05160e051610100516101205161082761015660003960006104d101526000610520015260006104fb015260006104540152600061047e015260006104a801526108276000f3fe608060405234801561001057600080fd5b506004361061002b5760003560e01c8063440944de14610030575b600080fd5b61004361003e366004610694565b61005f565b6040516001600160a01b03909116815260200160405180910390f35b60008061006b836100bf565b90506100b88161007e60608601866106cf565b8080601f0160208091040260200160405190810160405280939291908181526020018383808284376000920191909152506101a992505050565b9392505050565b60006101a37fe19885d28550f6608f275384a83ec228a423408e0fb086a71652471be2a24f146100ef8480610716565b604051602001610100929190610760565b604051602081830303815290604052805190602001208480602001906101269190610716565b604051602001610137929190610760565b60405160208183030381529060405280519060200120856040016020810190610160919061078c565b60408051602081019590955284019290925260608301526001600160a01b0316608082015260a001604051602081830303815290604052805190602001206101cd565b92915050565b60008060006101b8858561021b565b915091506101c581610289565b509392505050565b60006101a36101da610447565b8360405161190160f01b6020820152602281018390526042810182905260009060620160405160208183030381529060405280519060200120905092915050565b60008082516041036102515760208301516040840151606085015160001a6102458782858561056e565b94509450505050610282565b825160400361027a576020830151604084015161026f86838361065b565b935093505050610282565b506000905060025b9250929050565b600081600481111561029d5761029d6107b5565b036102a55750565b60018160048111156102b9576102b96107b5565b0361030b5760405162461bcd60e51b815260206004820152601860248201527f45434453413a20696e76616c6964207369676e6174757265000000000000000060448201526064015b60405180910390fd5b600281600481111561031f5761031f6107b5565b0361036c5760405162461bcd60e51b815260206004820152601f60248201527f45434453413a20696e76616c6964207369676e6174757265206c656e677468006044820152606401610302565b6003816004811115610380576103806107b5565b036103d85760405162461bcd60e51b815260206004820152602260248201527f45434453413a20696e76616c6964207369676e6174757265202773272076616c604482015261756560f01b6064820152608401610302565b60048160048111156103ec576103ec6107b5565b036104445760405162461bcd60e51b815260206004820152602260248201527f45434453413a20696e76616c6964207369676e6174757265202776272076616c604482015261756560f01b6064820152608401610302565b50565b6000306001600160a01b037f0000000000000000000000000000000000000000000000000000000000000000161480156104a057507f000000000000000000000000000000000000000000000000000000000000000046145b156104ca57507f000000000000000000000000000000000000000000000000000000000000000090565b50604080517f00000000000000000000000000000000000000000000000000000000000000006020808301919091527f0000000000000000000000000000000000000000000000000000000000000000828401527f000000000000000000000000000000000000000000000000000000000000000060608301524660808301523060a0808401919091528351808403909101815260c0909201909252805191012090565b6000807f7fffffffffffffffffffffffffffffff5d576e7357a4501ddfe92f46681b20a08311156105a55750600090506003610652565b8460ff16601b141580156105bd57508460ff16601c14155b156105ce5750600090506004610652565b6040805160008082526020820180845289905260ff881692820192909252606081018690526080810185905260019060a0016020604051602081039080840390855afa158015610622573d6000803e3d6000fd5b5050604051601f1901519150506001600160a01b03811661064b57600060019250925050610652565b9150600090505b94509492505050565b6000806001600160ff1b0383168161067860ff86901c601b6107cb565b90506106868782888561056e565b935093505050935093915050565b6000602082840312156106a657600080fd5b813567ffffffffffffffff8111156106bd57600080fd5b820160a081850312156100b857600080fd5b6000808335601e198436030181126106e657600080fd5b83018035915067ffffffffffffffff82111561070157600080fd5b60200191503681900382131561028257600080fd5b6000808335601e1984360301811261072d57600080fd5b83018035915067ffffffffffffffff82111561074857600080fd5b6020019150600581901b360382131561028257600080fd5b60006001600160fb1b0383111561077657600080fd5b8260051b80858437600092019182525092915050565b60006020828403121561079e57600080fd5b81356001600160a01b03811681146100b857600080fd5b634e487b7160e01b600052602160045260246000fd5b600082198211156107ec57634e487b7160e01b600052601160045260246000fd5b50019056fea264697066735822122078fb94a7a0a650a80347816fc03c997fca826c5edd3b4bcb6f609fb176e5237964736f6c634300080d0033",
					"opcodes": "PUSH2 0x140 PUSH1 0x40 MSTORE CALLVALUE DUP1 ISZERO PUSH2 0x11 JUMPI PUSH1 0x0 DUP1 REVERT JUMPDEST POP PUSH1 0x40 DUP1 MLOAD DUP1 DUP3 ADD DUP3 MSTORE PUSH1 0xB DUP2 MSTORE PUSH11 0x48616368694E6674536967 PUSH1 0xA8 SHL PUSH1 0x20 DUP1 DUP4 ADD SWAP2 DUP3 MSTORE DUP4 MLOAD DUP1 DUP6 ADD SWAP1 SWAP5 MSTORE PUSH1 0x1 DUP5 MSTORE PUSH1 0x31 PUSH1 0xF8 SHL SWAP1 DUP5 ADD MSTORE DUP2 MLOAD SWAP1 KECCAK256 PUSH1 0xE0 DUP2 SWAP1 MSTORE PUSH32 0xC89EFDAA54C0F20C7ADF612882DF0950F5A951637E0307CDCB4C672F298B8BC6 PUSH2 0x100 DUP2 SWAP1 MSTORE CHAINID PUSH1 0xA0 MSTORE SWAP2 SWAP3 SWAP2 PUSH32 0x8B73C3C69BB8FE3D512ECC4CF759CC79239F7B179B0FFACAA9A75D522B39400F PUSH2 0xF2 DUP2 DUP5 DUP5 PUSH1 0x40 DUP1 MLOAD PUSH1 0x20 DUP2 ADD DUP6 SWAP1 MSTORE SWAP1 DUP2 ADD DUP4 SWAP1 MSTORE PUSH1 0x60 DUP2 ADD DUP3 SWAP1 MSTORE CHAINID PUSH1 0x80 DUP3 ADD MSTORE ADDRESS PUSH1 0xA0 DUP3 ADD MSTORE PUSH1 0x0 SWAP1 PUSH1 0xC0 ADD PUSH1 0x40 MLOAD PUSH1 0x20 DUP2 DUP4 SUB SUB DUP2 MSTORE SWAP1 PUSH1 0x40 MSTORE DUP1 MLOAD SWAP1 PUSH1 0x20 ADD KECCAK256 SWAP1 POP SWAP4 SWAP3 POP POP POP JUMP JUMPDEST PUSH1 0x80 MSTORE ADDRESS PUSH1 0xC0 MSTORE PUSH2 0x120 MSTORE POP PUSH2 0x107 SWAP3 POP POP POP JUMP JUMPDEST PUSH1 0x80 MLOAD PUSH1 0xA0 MLOAD PUSH1 0xC0 MLOAD PUSH1 0xE0 MLOAD PUSH2 0x100 MLOAD PUSH2 0x120 MLOAD PUSH2 0x827 PUSH2 0x156 PUSH1 0x0 CODECOPY PUSH1 0x0 PUSH2 0x4D1 ADD MSTORE PUSH1 0x0 PUSH2 0x520 ADD MSTORE PUSH1 0x0 PUSH2 0x4FB ADD MSTORE PUSH1 0x0 PUSH2 0x454 ADD MSTORE PUSH1 0x0 PUSH2 0x47E ADD MSTORE PUSH1 0x0 PUSH2 0x4A8 ADD MSTORE PUSH2 0x827 PUSH1 0x0 RETURN INVALID PUSH1 0x80 PUSH1 0x40 MSTORE CALLVALUE DUP1 ISZERO PUSH2 0x10 JUMPI PUSH1 0x0 DUP1 REVERT JUMPDEST POP PUSH1 0x4 CALLDATASIZE LT PUSH2 0x2B JUMPI PUSH1 0x0 CALLDATALOAD PUSH1 0xE0 SHR DUP1 PUSH4 0x440944DE EQ PUSH2 0x30 JUMPI JUMPDEST PUSH1 0x0 DUP1 REVERT JUMPDEST PUSH2 0x43 PUSH2 0x3E CALLDATASIZE PUSH1 0x4 PUSH2 0x694 JUMP JUMPDEST PUSH2 0x5F JUMP JUMPDEST PUSH1 0x40 MLOAD PUSH1 0x1 PUSH1 0x1 PUSH1 0xA0 SHL SUB SWAP1 SWAP2 AND DUP2 MSTORE PUSH1 0x20 ADD PUSH1 0x40 MLOAD DUP1 SWAP2 SUB SWAP1 RETURN JUMPDEST PUSH1 0x0 DUP1 PUSH2 0x6B DUP4 PUSH2 0xBF JUMP JUMPDEST SWAP1 POP PUSH2 0xB8 DUP2 PUSH2 0x7E PUSH1 0x60 DUP7 ADD DUP7 PUSH2 0x6CF JUMP JUMPDEST DUP1 DUP1 PUSH1 0x1F ADD PUSH1 0x20 DUP1 SWAP2 DIV MUL PUSH1 0x20 ADD PUSH1 0x40 MLOAD SWAP1 DUP2 ADD PUSH1 0x40 MSTORE DUP1 SWAP4 SWAP3 SWAP2 SWAP1 DUP2 DUP2 MSTORE PUSH1 0x20 ADD DUP4 DUP4 DUP1 DUP3 DUP5 CALLDATACOPY PUSH1 0x0 SWAP3 ADD SWAP2 SWAP1 SWAP2 MSTORE POP PUSH2 0x1A9 SWAP3 POP POP POP JUMP JUMPDEST SWAP4 SWAP3 POP POP POP JUMP JUMPDEST PUSH1 0x0 PUSH2 0x1A3 PUSH32 0xE19885D28550F6608F275384A83EC228A423408E0FB086A71652471BE2A24F14 PUSH2 0xEF DUP5 DUP1 PUSH2 0x716 JUMP JUMPDEST PUSH1 0x40 MLOAD PUSH1 0x20 ADD PUSH2 0x100 SWAP3 SWAP2 SWAP1 PUSH2 0x760 JUMP JUMPDEST PUSH1 0x40 MLOAD PUSH1 0x20 DUP2 DUP4 SUB SUB DUP2 MSTORE SWAP1 PUSH1 0x40 MSTORE DUP1 MLOAD SWAP1 PUSH1 0x20 ADD KECCAK256 DUP5 DUP1 PUSH1 0x20 ADD SWAP1 PUSH2 0x126 SWAP2 SWAP1 PUSH2 0x716 JUMP JUMPDEST PUSH1 0x40 MLOAD PUSH1 0x20 ADD PUSH2 0x137 SWAP3 SWAP2 SWAP1 PUSH2 0x760 JUMP JUMPDEST PUSH1 0x40 MLOAD PUSH1 0x20 DUP2 DUP4 SUB SUB DUP2 MSTORE SWAP1 PUSH1 0x40 MSTORE DUP1 MLOAD SWAP1 PUSH1 0x20 ADD KECCAK256 DUP6 PUSH1 0x40 ADD PUSH1 0x20 DUP2 ADD SWAP1 PUSH2 0x160 SWAP2 SWAP1 PUSH2 0x78C JUMP JUMPDEST PUSH1 0x40 DUP1 MLOAD PUSH1 0x20 DUP2 ADD SWAP6 SWAP1 SWAP6 MSTORE DUP5 ADD SWAP3 SWAP1 SWAP3 MSTORE PUSH1 0x60 DUP4 ADD MSTORE PUSH1 0x1 PUSH1 0x1 PUSH1 0xA0 SHL SUB AND PUSH1 0x80 DUP3 ADD MSTORE PUSH1 0xA0 ADD PUSH1 0x40 MLOAD PUSH1 0x20 DUP2 DUP4 SUB SUB DUP2 MSTORE SWAP1 PUSH1 0x40 MSTORE DUP1 MLOAD SWAP1 PUSH1 0x20 ADD KECCAK256 PUSH2 0x1CD JUMP JUMPDEST SWAP3 SWAP2 POP POP JUMP JUMPDEST PUSH1 0x0 DUP1 PUSH1 0x0 PUSH2 0x1B8 DUP6 DUP6 PUSH2 0x21B JUMP JUMPDEST SWAP2 POP SWAP2 POP PUSH2 0x1C5 DUP2 PUSH2 0x289 JUMP JUMPDEST POP SWAP4 SWAP3 POP POP POP JUMP JUMPDEST PUSH1 0x0 PUSH2 0x1A3 PUSH2 0x1DA PUSH2 0x447 JUMP JUMPDEST DUP4 PUSH1 0x40 MLOAD PUSH2 0x1901 PUSH1 0xF0 SHL PUSH1 0x20 DUP3 ADD MSTORE PUSH1 0x22 DUP2 ADD DUP4 SWAP1 MSTORE PUSH1 0x42 DUP2 ADD DUP3 SWAP1 MSTORE PUSH1 0x0 SWAP1 PUSH1 0x62 ADD PUSH1 0x40 MLOAD PUSH1 0x20 DUP2 DUP4 SUB SUB DUP2 MSTORE SWAP1 PUSH1 0x40 MSTORE DUP1 MLOAD SWAP1 PUSH1 0x20 ADD KECCAK256 SWAP1 POP SWAP3 SWAP2 POP POP JUMP JUMPDEST PUSH1 0x0 DUP1 DUP3 MLOAD PUSH1 0x41 SUB PUSH2 0x251 JUMPI PUSH1 0x20 DUP4 ADD MLOAD PUSH1 0x40 DUP5 ADD MLOAD PUSH1 0x60 DUP6 ADD MLOAD PUSH1 0x0 BYTE PUSH2 0x245 DUP8 DUP3 DUP6 DUP6 PUSH2 0x56E JUMP JUMPDEST SWAP5 POP SWAP5 POP POP POP POP PUSH2 0x282 JUMP JUMPDEST DUP3 MLOAD PUSH1 0x40 SUB PUSH2 0x27A JUMPI PUSH1 0x20 DUP4 ADD MLOAD PUSH1 0x40 DUP5 ADD MLOAD PUSH2 0x26F DUP7 DUP4 DUP4 PUSH2 0x65B JUMP JUMPDEST SWAP4 POP SWAP4 POP POP POP PUSH2 0x282 JUMP JUMPDEST POP PUSH1 0x0 SWAP1 POP PUSH1 0x2 JUMPDEST SWAP3 POP SWAP3 SWAP1 POP JUMP JUMPDEST PUSH1 0x0 DUP2 PUSH1 0x4 DUP2 GT ISZERO PUSH2 0x29D JUMPI PUSH2 0x29D PUSH2 0x7B5 JUMP JUMPDEST SUB PUSH2 0x2A5 JUMPI POP JUMP JUMPDEST PUSH1 0x1 DUP2 PUSH1 0x4 DUP2 GT ISZERO PUSH2 0x2B9 JUMPI PUSH2 0x2B9 PUSH2 0x7B5 JUMP JUMPDEST SUB PUSH2 0x30B JUMPI PUSH1 0x40 MLOAD PUSH3 0x461BCD PUSH1 0xE5 SHL DUP2 MSTORE PUSH1 0x20 PUSH1 0x4 DUP3 ADD MSTORE PUSH1 0x18 PUSH1 0x24 DUP3 ADD MSTORE PUSH32 0x45434453413A20696E76616C6964207369676E61747572650000000000000000 PUSH1 0x44 DUP3 ADD MSTORE PUSH1 0x64 ADD JUMPDEST PUSH1 0x40 MLOAD DUP1 SWAP2 SUB SWAP1 REVERT JUMPDEST PUSH1 0x2 DUP2 PUSH1 0x4 DUP2 GT ISZERO PUSH2 0x31F JUMPI PUSH2 0x31F PUSH2 0x7B5 JUMP JUMPDEST SUB PUSH2 0x36C JUMPI PUSH1 0x40 MLOAD PUSH3 0x461BCD PUSH1 0xE5 SHL DUP2 MSTORE PUSH1 0x20 PUSH1 0x4 DUP3 ADD MSTORE PUSH1 0x1F PUSH1 0x24 DUP3 ADD MSTORE PUSH32 0x45434453413A20696E76616C6964207369676E6174757265206C656E67746800 PUSH1 0x44 DUP3 ADD MSTORE PUSH1 0x64 ADD PUSH2 0x302 JUMP JUMPDEST PUSH1 0x3 DUP2 PUSH1 0x4 DUP2 GT ISZERO PUSH2 0x380 JUMPI PUSH2 0x380 PUSH2 0x7B5 JUMP JUMPDEST SUB PUSH2 0x3D8 JUMPI PUSH1 0x40 MLOAD PUSH3 0x461BCD PUSH1 0xE5 SHL DUP2 MSTORE PUSH1 0x20 PUSH1 0x4 DUP3 ADD MSTORE PUSH1 0x22 PUSH1 0x24 DUP3 ADD MSTORE PUSH32 0x45434453413A20696E76616C6964207369676E6174757265202773272076616C PUSH1 0x44 DUP3 ADD MSTORE PUSH2 0x7565 PUSH1 0xF0 SHL PUSH1 0x64 DUP3 ADD MSTORE PUSH1 0x84 ADD PUSH2 0x302 JUMP JUMPDEST PUSH1 0x4 DUP2 PUSH1 0x4 DUP2 GT ISZERO PUSH2 0x3EC JUMPI PUSH2 0x3EC PUSH2 0x7B5 JUMP JUMPDEST SUB PUSH2 0x444 JUMPI PUSH1 0x40 MLOAD PUSH3 0x461BCD PUSH1 0xE5 SHL DUP2 MSTORE PUSH1 0x20 PUSH1 0x4 DUP3 ADD MSTORE PUSH1 0x22 PUSH1 0x24 DUP3 ADD MSTORE PUSH32 0x45434453413A20696E76616C6964207369676E6174757265202776272076616C PUSH1 0x44 DUP3 ADD MSTORE PUSH2 0x7565 PUSH1 0xF0 SHL PUSH1 0x64 DUP3 ADD MSTORE PUSH1 0x84 ADD PUSH2 0x302 JUMP JUMPDEST POP JUMP JUMPDEST PUSH1 0x0 ADDRESS PUSH1 0x1 PUSH1 0x1 PUSH1 0xA0 SHL SUB PUSH32 0x0 AND EQ DUP1 ISZERO PUSH2 0x4A0 JUMPI POP PUSH32 0x0 CHAINID EQ JUMPDEST ISZERO PUSH2 0x4CA JUMPI POP PUSH32 0x0 SWAP1 JUMP JUMPDEST POP PUSH1 0x40 DUP1 MLOAD PUSH32 0x0 PUSH1 0x20 DUP1 DUP4 ADD SWAP2 SWAP1 SWAP2 MSTORE PUSH32 0x0 DUP3 DUP5 ADD MSTORE PUSH32 0x0 PUSH1 0x60 DUP4 ADD MSTORE CHAINID PUSH1 0x80 DUP4 ADD MSTORE ADDRESS PUSH1 0xA0 DUP1 DUP5 ADD SWAP2 SWAP1 SWAP2 MSTORE DUP4 MLOAD DUP1 DUP5 SUB SWAP1 SWAP2 ADD DUP2 MSTORE PUSH1 0xC0 SWAP1 SWAP3 ADD SWAP1 SWAP3 MSTORE DUP1 MLOAD SWAP2 ADD KECCAK256 SWAP1 JUMP JUMPDEST PUSH1 0x0 DUP1 PUSH32 0x7FFFFFFFFFFFFFFFFFFFFFFFFFFFFFFF5D576E7357A4501DDFE92F46681B20A0 DUP4 GT ISZERO PUSH2 0x5A5 JUMPI POP PUSH1 0x0 SWAP1 POP PUSH1 0x3 PUSH2 0x652 JUMP JUMPDEST DUP5 PUSH1 0xFF AND PUSH1 0x1B EQ ISZERO DUP1 ISZERO PUSH2 0x5BD JUMPI POP DUP5 PUSH1 0xFF AND PUSH1 0x1C EQ ISZERO JUMPDEST ISZERO PUSH2 0x5CE JUMPI POP PUSH1 0x0 SWAP1 POP PUSH1 0x4 PUSH2 0x652 JUMP JUMPDEST PUSH1 0x40 DUP1 MLOAD PUSH1 0x0 DUP1 DUP3 MSTORE PUSH1 0x20 DUP3 ADD DUP1 DUP5 MSTORE DUP10 SWAP1 MSTORE PUSH1 0xFF DUP9 AND SWAP3 DUP3 ADD SWAP3 SWAP1 SWAP3 MSTORE PUSH1 0x60 DUP2 ADD DUP7 SWAP1 MSTORE PUSH1 0x80 DUP2 ADD DUP6 SWAP1 MSTORE PUSH1 0x1 SWAP1 PUSH1 0xA0 ADD PUSH1 0x20 PUSH1 0x40 MLOAD PUSH1 0x20 DUP2 SUB SWAP1 DUP1 DUP5 SUB SWAP1 DUP6 GAS STATICCALL ISZERO DUP1 ISZERO PUSH2 0x622 JUMPI RETURNDATASIZE PUSH1 0x0 DUP1 RETURNDATACOPY RETURNDATASIZE PUSH1 0x0 REVERT JUMPDEST POP POP PUSH1 0x40 MLOAD PUSH1 0x1F NOT ADD MLOAD SWAP2 POP POP PUSH1 0x1 PUSH1 0x1 PUSH1 0xA0 SHL SUB DUP2 AND PUSH2 0x64B JUMPI PUSH1 0x0 PUSH1 0x1 SWAP3 POP SWAP3 POP POP PUSH2 0x652 JUMP JUMPDEST SWAP2 POP PUSH1 0x0 SWAP1 POP JUMPDEST SWAP5 POP SWAP5 SWAP3 POP POP POP JUMP JUMPDEST PUSH1 0x0 DUP1 PUSH1 0x1 PUSH1 0x1 PUSH1 0xFF SHL SUB DUP4 AND DUP2 PUSH2 0x678 PUSH1 0xFF DUP7 SWAP1 SHR PUSH1 0x1B PUSH2 0x7CB JUMP JUMPDEST SWAP1 POP PUSH2 0x686 DUP8 DUP3 DUP9 DUP6 PUSH2 0x56E JUMP JUMPDEST SWAP4 POP SWAP4 POP POP POP SWAP4 POP SWAP4 SWAP2 POP POP JUMP JUMPDEST PUSH1 0x0 PUSH1 0x20 DUP3 DUP5 SUB SLT ISZERO PUSH2 0x6A6 JUMPI PUSH1 0x0 DUP1 REVERT JUMPDEST DUP2 CALLDATALOAD PUSH8 0xFFFFFFFFFFFFFFFF DUP2 GT ISZERO PUSH2 0x6BD JUMPI PUSH1 0x0 DUP1 REVERT JUMPDEST DUP3 ADD PUSH1 0xA0 DUP2 DUP6 SUB SLT ISZERO PUSH2 0xB8 JUMPI PUSH1 0x0 DUP1 REVERT JUMPDEST PUSH1 0x0 DUP1 DUP4 CALLDATALOAD PUSH1 0x1E NOT DUP5 CALLDATASIZE SUB ADD DUP2 SLT PUSH2 0x6E6 JUMPI PUSH1 0x0 DUP1 REVERT JUMPDEST DUP4 ADD DUP1 CALLDATALOAD SWAP2 POP PUSH8 0xFFFFFFFFFFFFFFFF DUP3 GT ISZERO PUSH2 0x701 JUMPI PUSH1 0x0 DUP1 REVERT JUMPDEST PUSH1 0x20 ADD SWAP2 POP CALLDATASIZE DUP2 SWAP1 SUB DUP3 SGT ISZERO PUSH2 0x282 JUMPI PUSH1 0x0 DUP1 REVERT JUMPDEST PUSH1 0x0 DUP1 DUP4 CALLDATALOAD PUSH1 0x1E NOT DUP5 CALLDATASIZE SUB ADD DUP2 SLT PUSH2 0x72D JUMPI PUSH1 0x0 DUP1 REVERT JUMPDEST DUP4 ADD DUP1 CALLDATALOAD SWAP2 POP PUSH8 0xFFFFFFFFFFFFFFFF DUP3 GT ISZERO PUSH2 0x748 JUMPI PUSH1 0x0 DUP1 REVERT JUMPDEST PUSH1 0x20 ADD SWAP2 POP PUSH1 0x5 DUP2 SWAP1 SHL CALLDATASIZE SUB DUP3 SGT ISZERO PUSH2 0x282 JUMPI PUSH1 0x0 DUP1 REVERT JUMPDEST PUSH1 0x0 PUSH1 0x1 PUSH1 0x1 PUSH1 0xFB SHL SUB DUP4 GT ISZERO PUSH2 0x776 JUMPI PUSH1 0x0 DUP1 REVERT JUMPDEST DUP3 PUSH1 0x5 SHL DUP1 DUP6 DUP5 CALLDATACOPY PUSH1 0x0 SWAP3 ADD SWAP2 DUP3 MSTORE POP SWAP3 SWAP2 POP POP JUMP JUMPDEST PUSH1 0x0 PUSH1 0x20 DUP3 DUP5 SUB SLT ISZERO PUSH2 0x79E JUMPI PUSH1 0x0 DUP1 REVERT JUMPDEST DUP2 CALLDATALOAD PUSH1 0x1 PUSH1 0x1 PUSH1 0xA0 SHL SUB DUP2 AND DUP2 EQ PUSH2 0xB8 JUMPI PUSH1 0x0 DUP1 REVERT JUMPDEST PUSH4 0x4E487B71 PUSH1 0xE0 SHL PUSH1 0x0 MSTORE PUSH1 0x21 PUSH1 0x4 MSTORE PUSH1 0x24 PUSH1 0x0 REVERT JUMPDEST PUSH1 0x0 DUP3 NOT DUP3 GT ISZERO PUSH2 0x7EC JUMPI PUSH4 0x4E487B71 PUSH1 0xE0 SHL PUSH1 0x0 MSTORE PUSH1 0x11 PUSH1 0x4 MSTORE PUSH1 0x24 PUSH1 0x0 REVERT JUMPDEST POP ADD SWAP1 JUMP INVALID LOG2 PUSH5 0x6970667358 0x22 SLT KECCAK256 PUSH25 0xFB94A7A0A650A80347816FC03C997FCA826C5EDD3B4BCB6F60 SWAP16 0xB1 PUSH23 0xE5237964736F6C634300080D0033000000000000000000 "
				},
				"gasEstimates": {
					"creation": {
						"codeDepositCost": "417400",
						"executionCost": "infinite",
						"totalCost": "infinite"
					},
					"external": {
						"verifySigner((uint256[],uint256[],address,bytes,bytes32[]))": "infinite"
					},
					"internal": {
						"_hash(struct TicketStruct.HachiTicket calldata)": "infinite"
					}
				},
				"methodIdentifiers": {
					"verifySigner((uint256[],uint256[],address,bytes,bytes32[]))": "440944de"
				}
			},
			"storageLayout": {
				"storage": [],
				"types": null
			},
			"userdoc": {
				"kind": "user",
				"methods": {},
				"version": 1
			}
		}
	}
}