{
	"contracts/TestVerify.sol": {
		"TestVerify": {
			"abi": [
				{
					"inputs": [],
					"stateMutability": "nonpayable",
					"type": "constructor"
				},
				{
					"inputs": [
						{
							"components": [
								{
									"internalType": "address",
									"name": "to",
									"type": "address"
								},
								{
									"internalType": "uint256[]",
									"name": "amounts",
									"type": "uint256[]"
								},
								{
									"internalType": "bytes32[]",
									"name": "merkleProof",
									"type": "bytes32[]"
								},
								{
									"internalType": "bytes",
									"name": "signature",
									"type": "bytes"
								}
							],
							"internalType": "struct TestVerify.HachiTicket",
							"name": "_ticket",
							"type": "tuple"
						}
					],
					"name": "_hash",
					"outputs": [
						{
							"internalType": "bytes32",
							"name": "",
							"type": "bytes32"
						}
					],
					"stateMutability": "view",
					"type": "function"
				},
				{
					"inputs": [
						{
							"internalType": "bytes32",
							"name": "_hash",
							"type": "bytes32"
						}
					],
					"name": "hashedData",
					"outputs": [
						{
							"internalType": "bytes32",
							"name": "",
							"type": "bytes32"
						}
					],
					"stateMutability": "view",
					"type": "function"
				},
				{
					"inputs": [
						{
							"internalType": "address",
							"name": "_to",
							"type": "address"
						},
						{
							"internalType": "uint256[]",
							"name": "_amounts",
							"type": "uint256[]"
						},
						{
							"internalType": "bytes32[]",
							"name": "_merkleProof",
							"type": "bytes32[]"
						}
					],
					"name": "structHash",
					"outputs": [
						{
							"internalType": "bytes32",
							"name": "",
							"type": "bytes32"
						}
					],
					"stateMutability": "view",
					"type": "function"
				},
				{
					"inputs": [
						{
							"internalType": "address",
							"name": "_to",
							"type": "address"
						},
						{
							"internalType": "uint256[]",
							"name": "_amounts",
							"type": "uint256[]"
						},
						{
							"internalType": "bytes32[]",
							"name": "_merkleProof",
							"type": "bytes32[]"
						}
					],
					"name": "testHash",
					"outputs": [
						{
							"internalType": "bytes32",
							"name": "",
							"type": "bytes32"
						}
					],
					"stateMutability": "view",
					"type": "function"
				},
				{
					"inputs": [
						{
							"internalType": "bytes32",
							"name": "_digest",
							"type": "bytes32"
						},
						{
							"internalType": "bytes",
							"name": "_signature",
							"type": "bytes"
						}
					],
					"name": "testSigner",
					"outputs": [
						{
							"internalType": "address",
							"name": "",
							"type": "address"
						}
					],
					"stateMutability": "pure",
					"type": "function"
				},
				{
					"inputs": [
						{
							"components": [
								{
									"internalType": "address",
									"name": "to",
									"type": "address"
								},
								{
									"internalType": "uint256[]",
									"name": "amounts",
									"type": "uint256[]"
								},
								{
									"internalType": "bytes32[]",
									"name": "merkleProof",
									"type": "bytes32[]"
								},
								{
									"internalType": "bytes",
									"name": "signature",
									"type": "bytes"
								}
							],
							"internalType": "struct TestVerify.HachiTicket",
							"name": "_ticket",
							"type": "tuple"
						}
					],
					"name": "verifySigner",
					"outputs": [
						{
							"internalType": "address",
							"name": "",
							"type": "address"
						}
					],
					"stateMutability": "view",
					"type": "function"
				}
			],
			"devdoc": {
				"kind": "dev",
				"methods": {},
				"version": 1
			},
			"evm": {
				"assembly": "    /* \"contracts/TestVerify.sol\":193:2228  contract TestVerify is EIP712 {... */\n  mstore(0x40, 0x0140)\n    /* \"contracts/TestVerify.sol\":482:553  constructor()... */\n  callvalue\n  dup1\n  iszero\n  tag_1\n  jumpi\n  0x00\n  dup1\n  revert\ntag_1:\n  pop\n    /* \"contracts/TestVerify.sol\":507:521  SIGNING_DOMAIN */\n  0x40\n  dup1\n  mload\n  dup1\n  dup3\n  add\n  dup3\n  mstore\n  0x0b\n  dup2\n  mstore\n  shl(0xa8, 0x48616368694e6674536967)\n  0x20\n  dup1\n  dup4\n  add\n  swap2\n  dup3\n  mstore\n    /* \"contracts/TestVerify.sol\":523:540  SIGNATURE_VERSION */\n  dup4\n  mload\n  dup1\n  dup6\n  add\n  swap1\n  swap5\n  mstore\n  0x01\n  dup5\n  mstore\n  shl(0xf8, 0x31)\n  swap1\n  dup5\n  add\n  mstore\n    /* \"@openzeppelin/contracts/utils/cryptography/draft-EIP712.sol\":2541:2563  keccak256(bytes(name)) */\n  dup2\n  mload\n  swap1\n  keccak256\n    /* \"@openzeppelin/contracts/utils/cryptography/draft-EIP712.sol\":2778:2803  _HASHED_NAME = hashedName */\n  0xe0\n  dup2\n  swap1\n  mstore\n    /* \"@openzeppelin/contracts/utils/cryptography/draft-EIP712.sol\":2597:2622  keccak256(bytes(version)) */\n  0xc89efdaa54c0f20c7adf612882df0950f5a951637e0307cdcb4c672f298b8bc6\n    /* \"@openzeppelin/contracts/utils/cryptography/draft-EIP712.sol\":2813:2844  _HASHED_VERSION = hashedVersion */\n  0x0100\n  dup2\n  swap1\n  mstore\n    /* \"@openzeppelin/contracts/utils/cryptography/draft-EIP712.sol\":2873:2886  block.chainid */\n  chainid\n    /* \"@openzeppelin/contracts/utils/cryptography/draft-EIP712.sol\":2854:2886  _CACHED_CHAIN_ID = block.chainid */\n  0xa0\n  mstore\n    /* \"contracts/TestVerify.sol\":507:521  SIGNING_DOMAIN */\n  swap2\n  swap3\n    /* \"contracts/TestVerify.sol\":523:540  SIGNATURE_VERSION */\n  swap2\n    /* \"@openzeppelin/contracts/utils/cryptography/draft-EIP712.sol\":2651:2768  keccak256(... */\n  0x8b73c3c69bb8fe3d512ecc4cf759cc79239f7b179b0ffacaa9a75d522b39400f\n    /* \"@openzeppelin/contracts/utils/cryptography/draft-EIP712.sol\":2923:2981  _buildDomainSeparator(typeHash, hashedName, hashedVersion) */\n  tag_5\n    /* \"@openzeppelin/contracts/utils/cryptography/draft-EIP712.sol\":2651:2768  keccak256(... */\n  dup2\n    /* \"@openzeppelin/contracts/utils/cryptography/draft-EIP712.sol\":2541:2563  keccak256(bytes(name)) */\n  dup5\n    /* \"@openzeppelin/contracts/utils/cryptography/draft-EIP712.sol\":2597:2622  keccak256(bytes(version)) */\n  dup5\n    /* \"@openzeppelin/contracts/utils/cryptography/draft-EIP712.sol\":3633:3706  abi.encode(typeHash, nameHash, versionHash, block.chainid, address(this)) */\n  0x40\n  dup1\n  mload\n  0x20\n  dup2\n  add\n    /* \"#utility.yul\":273:298   */\n  dup6\n  swap1\n  mstore\n    /* \"#utility.yul\":314:332   */\n  swap1\n  dup2\n  add\n    /* \"#utility.yul\":307:341   */\n  dup4\n  swap1\n  mstore\n    /* \"#utility.yul\":357:375   */\n  0x60\n  dup2\n  add\n    /* \"#utility.yul\":350:384   */\n  dup3\n  swap1\n  mstore\n    /* \"@openzeppelin/contracts/utils/cryptography/draft-EIP712.sol\":3677:3690  block.chainid */\n  chainid\n    /* \"#utility.yul\":400:418   */\n  0x80\n  dup3\n  add\n    /* \"#utility.yul\":393:427   */\n  mstore\n    /* \"@openzeppelin/contracts/utils/cryptography/draft-EIP712.sol\":3700:3704  this */\n  address\n    /* \"#utility.yul\":443:462   */\n  0xa0\n  dup3\n  add\n    /* \"#utility.yul\":436:497   */\n  mstore\n    /* \"@openzeppelin/contracts/utils/cryptography/draft-EIP712.sol\":3597:3604  bytes32 */\n  0x00\n  swap1\n    /* \"#utility.yul\":245:264   */\n  0xc0\n  add\n    /* \"@openzeppelin/contracts/utils/cryptography/draft-EIP712.sol\":3633:3706  abi.encode(typeHash, nameHash, versionHash, block.chainid, address(this)) */\n  mload(0x40)\n  0x20\n  dup2\n  dup4\n  sub\n  sub\n  dup2\n  mstore\n  swap1\n  0x40\n  mstore\n    /* \"@openzeppelin/contracts/utils/cryptography/draft-EIP712.sol\":3623:3707  keccak256(abi.encode(typeHash, nameHash, versionHash, block.chainid, address(this))) */\n  dup1\n  mload\n  swap1\n  0x20\n  add\n  keccak256\n    /* \"@openzeppelin/contracts/utils/cryptography/draft-EIP712.sol\":3616:3707  return keccak256(abi.encode(typeHash, nameHash, versionHash, block.chainid, address(this))) */\n  swap1\n  pop\n    /* \"@openzeppelin/contracts/utils/cryptography/draft-EIP712.sol\":3457:3714  function _buildDomainSeparator(... */\n  swap4\n  swap3\n  pop\n  pop\n  pop\n  jump\n    /* \"@openzeppelin/contracts/utils/cryptography/draft-EIP712.sol\":2923:2981  _buildDomainSeparator(typeHash, hashedName, hashedVersion) */\ntag_5:\n    /* \"@openzeppelin/contracts/utils/cryptography/draft-EIP712.sol\":2896:2981  _CACHED_DOMAIN_SEPARATOR = _buildDomainSeparator(typeHash, hashedName, hashedVersion) */\n  0x80\n  mstore\n    /* \"@openzeppelin/contracts/utils/cryptography/draft-EIP712.sol\":3014:3018  this */\n  address\n    /* \"@openzeppelin/contracts/utils/cryptography/draft-EIP712.sol\":2991:3019  _CACHED_THIS = address(this) */\n  0xc0\n  mstore\n    /* \"@openzeppelin/contracts/utils/cryptography/draft-EIP712.sol\":3029:3050  _TYPE_HASH = typeHash */\n  0x0120\n  mstore\n  pop\n    /* \"contracts/TestVerify.sol\":193:2228  contract TestVerify is EIP712 {... */\n  tag_12\n  swap3\n  pop\n  pop\n  pop\n  jump\n    /* \"#utility.yul\":14:503   */\ntag_12:\n    /* \"contracts/TestVerify.sol\":193:2228  contract TestVerify is EIP712 {... */\n  mload(0x80)\n  mload(0xa0)\n  mload(0xc0)\n  mload(0xe0)\n  mload(0x0100)\n  mload(0x0120)\n  codecopy(0x00, dataOffset(sub_0), dataSize(sub_0))\n  0x00\n  assignImmutable(\"0x8c92e2e72e7997816d62b0c03c0b21c46605af4c276e6d0637f7e77158832bca\")\n  0x00\n  assignImmutable(\"0xc7087a93770541a54b276c354f6d56c80647702e0edc6c1d5ee9aeacf01dfad8\")\n  0x00\n  assignImmutable(\"0x954b846e373da6e2d86e60934c6fb4929a5d4ad23ca448303f22db28783db296\")\n  0x00\n  assignImmutable(\"0x9ef31662fdafe5ade9dc48fd4724c04f17232ac2ae4e5ea3da9c2a310c4aba3c\")\n  0x00\n  assignImmutable(\"0xae3f42c075651cd672386e7fa64476ebefa89324c3c225495e52b74374d0bc80\")\n  0x00\n  assignImmutable(\"0x9459a54a9dc1a91201f12e123a36391197edb81156a93e7e6bc8a3c17589bb36\")\n  return(0x00, dataSize(sub_0))\nstop\n\nsub_0: assembly {\n        /* \"contracts/TestVerify.sol\":193:2228  contract TestVerify is EIP712 {... */\n      mstore(0x40, 0x80)\n      callvalue\n      dup1\n      iszero\n      tag_1\n      jumpi\n      0x00\n      dup1\n      revert\n    tag_1:\n      pop\n      jumpi(tag_2, lt(calldatasize, 0x04))\n      shr(0xe0, calldataload(0x00))\n      dup1\n      0x15adc8fc\n      eq\n      tag_3\n      jumpi\n      dup1\n      0x31201217\n      eq\n      tag_4\n      jumpi\n      dup1\n      0x34bd2c61\n      eq\n      tag_5\n      jumpi\n      dup1\n      0xac7efdd7\n      eq\n      tag_6\n      jumpi\n      dup1\n      0xb8c9ab90\n      eq\n      tag_7\n      jumpi\n      dup1\n      0xc32a1f25\n      eq\n      tag_8\n      jumpi\n    tag_2:\n      0x00\n      dup1\n      revert\n        /* \"contracts/TestVerify.sol\":752:1134  function _hash(HachiTicket calldata _ticket) public view returns (bytes32) {... */\n    tag_3:\n      tag_9\n      tag_10\n      calldatasize\n      0x04\n      tag_11\n      jump\t// in\n    tag_10:\n      tag_12\n      jump\t// in\n    tag_9:\n      mload(0x40)\n        /* \"#utility.yul\":555:580   */\n      swap1\n      dup2\n      mstore\n        /* \"#utility.yul\":543:545   */\n      0x20\n        /* \"#utility.yul\":528:546   */\n      add\n        /* \"contracts/TestVerify.sol\":752:1134  function _hash(HachiTicket calldata _ticket) public view returns (bytes32) {... */\n    tag_13:\n      mload(0x40)\n      dup1\n      swap2\n      sub\n      swap1\n      return\n        /* \"contracts/TestVerify.sol\":1140:1549  function testHash(address _to, uint256[] calldata _amounts, bytes32[] calldata _merkleProof) public view returns (bytes32) {... */\n    tag_4:\n      tag_9\n      tag_16\n      calldatasize\n      0x04\n      tag_17\n      jump\t// in\n    tag_16:\n      tag_18\n      jump\t// in\n        /* \"contracts/TestVerify.sol\":1555:1708  function testSigner(bytes32 _digest, bytes calldata _signature) public pure returns (address) {... */\n    tag_5:\n      tag_20\n      tag_21\n      calldatasize\n      0x04\n      tag_22\n      jump\t// in\n    tag_21:\n      tag_23\n      jump\t// in\n    tag_20:\n      mload(0x40)\n      sub(shl(0xa0, 0x01), 0x01)\n        /* \"#utility.yul\":2821:2853   */\n      swap1\n      swap2\n      and\n        /* \"#utility.yul\":2803:2854   */\n      dup2\n      mstore\n        /* \"#utility.yul\":2791:2793   */\n      0x20\n        /* \"#utility.yul\":2776:2794   */\n      add\n        /* \"contracts/TestVerify.sol\":1555:1708  function testSigner(bytes32 _digest, bytes calldata _signature) public pure returns (address) {... */\n      tag_13\n        /* \"#utility.yul\":2657:2860   */\n      jump\n        /* \"contracts/TestVerify.sol\":559:746  function verifySigner(HachiTicket calldata _ticket) public view returns (address) {... */\n    tag_6:\n      tag_20\n      tag_27\n      calldatasize\n      0x04\n      tag_11\n      jump\t// in\n    tag_27:\n      tag_28\n      jump\t// in\n        /* \"contracts/TestVerify.sol\":1714:2107  function structHash(address _to, uint256[] calldata _amounts, bytes32[] calldata _merkleProof) public view returns (bytes32) {... */\n    tag_7:\n      tag_9\n      tag_31\n      calldatasize\n      0x04\n      tag_17\n      jump\t// in\n    tag_31:\n      tag_32\n      jump\t// in\n        /* \"contracts/TestVerify.sol\":2113:2225  function hashedData(bytes32 _hash) public view returns (bytes32) {... */\n    tag_8:\n      tag_9\n      tag_35\n      calldatasize\n      0x04\n      tag_36\n      jump\t// in\n    tag_35:\n      tag_37\n      jump\t// in\n        /* \"contracts/TestVerify.sol\":752:1134  function _hash(HachiTicket calldata _ticket) public view returns (bytes32) {... */\n    tag_12:\n        /* \"contracts/TestVerify.sol\":818:825  bytes32 */\n      0x00\n        /* \"contracts/TestVerify.sol\":844:1127  _hashTypedDataV4(keccak256(abi.encode(... */\n      tag_40\n        /* \"contracts/TestVerify.sol\":895:971  keccak256(\"HachiTicket(address to,uint256[] amounts,bytes32[] merkleProof)\") */\n      0x798f2fc7cec67eb8a3e992f2d864cc1f56f87a6e9130d64fe2b2d7693eca2d2b\n        /* \"contracts/TestVerify.sol\":985:995  _ticket.to */\n      tag_41\n      0x20\n      dup6\n      add\n        /* \"contracts/TestVerify.sol\":985:992  _ticket */\n      dup6\n        /* \"contracts/TestVerify.sol\":985:995  _ticket.to */\n      tag_42\n      jump\t// in\n    tag_41:\n        /* \"contracts/TestVerify.sol\":1036:1051  _ticket.amounts */\n      tag_43\n      0x20\n      dup7\n      add\n        /* \"contracts/TestVerify.sol\":1036:1043  _ticket */\n      dup7\n        /* \"contracts/TestVerify.sol\":1036:1051  _ticket.amounts */\n      tag_44\n      jump\t// in\n    tag_43:\n        /* \"contracts/TestVerify.sol\":1019:1052  abi.encodePacked(_ticket.amounts) */\n      add(0x20, mload(0x40))\n      tag_45\n      swap3\n      swap2\n      swap1\n      tag_46\n      jump\t// in\n    tag_45:\n      mload(0x40)\n      0x20\n      dup2\n      dup4\n      sub\n      sub\n      dup2\n      mstore\n      swap1\n      0x40\n      mstore\n        /* \"contracts/TestVerify.sol\":1009:1053  keccak256(abi.encodePacked(_ticket.amounts)) */\n      dup1\n      mload\n      swap1\n      0x20\n      add\n      keccak256\n        /* \"contracts/TestVerify.sol\":1094:1101  _ticket */\n      dup6\n        /* \"contracts/TestVerify.sol\":1094:1113  _ticket.merkleProof */\n      dup1\n      0x40\n      add\n      swap1\n      tag_47\n      swap2\n      swap1\n      tag_44\n      jump\t// in\n    tag_47:\n        /* \"contracts/TestVerify.sol\":1077:1114  abi.encodePacked(_ticket.merkleProof) */\n      add(0x20, mload(0x40))\n      tag_49\n      swap3\n      swap2\n      swap1\n      tag_46\n      jump\t// in\n    tag_49:\n      mload(0x40)\n      0x20\n      dup2\n      dup4\n      sub\n      sub\n      dup2\n      mstore\n      swap1\n      0x40\n      mstore\n        /* \"contracts/TestVerify.sol\":1067:1115  keccak256(abi.encodePacked(_ticket.merkleProof)) */\n      dup1\n      mload\n      swap1\n      0x20\n      add\n      keccak256\n        /* \"contracts/TestVerify.sol\":871:1125  abi.encode(... */\n      add(0x20, mload(0x40))\n      tag_51\n      swap5\n      swap4\n      swap3\n      swap2\n      swap1\n        /* \"#utility.yul\":5411:5436   */\n      swap4\n      dup5\n      mstore\n      sub(shl(0xa0, 0x01), 0x01)\n        /* \"#utility.yul\":5472:5504   */\n      swap3\n      swap1\n      swap3\n      and\n        /* \"#utility.yul\":5467:5469   */\n      0x20\n        /* \"#utility.yul\":5452:5470   */\n      dup5\n      add\n        /* \"#utility.yul\":5445:5505   */\n      mstore\n        /* \"#utility.yul\":5536:5538   */\n      0x40\n        /* \"#utility.yul\":5521:5539   */\n      dup4\n      add\n        /* \"#utility.yul\":5514:5548   */\n      mstore\n        /* \"#utility.yul\":5579:5581   */\n      0x60\n        /* \"#utility.yul\":5564:5582   */\n      dup3\n      add\n        /* \"#utility.yul\":5557:5591   */\n      mstore\n        /* \"#utility.yul\":5398:5401   */\n      0x80\n        /* \"#utility.yul\":5383:5402   */\n      add\n      swap1\n        /* \"#utility.yul\":5180:5597   */\n      jump\n        /* \"contracts/TestVerify.sol\":871:1125  abi.encode(... */\n    tag_51:\n      mload(0x40)\n      0x20\n      dup2\n      dup4\n      sub\n      sub\n      dup2\n      mstore\n      swap1\n      0x40\n      mstore\n        /* \"contracts/TestVerify.sol\":861:1126  keccak256(abi.encode(... */\n      dup1\n      mload\n      swap1\n      0x20\n      add\n      keccak256\n        /* \"contracts/TestVerify.sol\":844:860  _hashTypedDataV4 */\n      tag_53\n        /* \"contracts/TestVerify.sol\":844:1127  _hashTypedDataV4(keccak256(abi.encode(... */\n      jump\t// in\n    tag_40:\n        /* \"contracts/TestVerify.sol\":837:1127  return _hashTypedDataV4(keccak256(abi.encode(... */\n      swap3\n        /* \"contracts/TestVerify.sol\":752:1134  function _hash(HachiTicket calldata _ticket) public view returns (bytes32) {... */\n      swap2\n      pop\n      pop\n      jump\t// out\n        /* \"contracts/TestVerify.sol\":1140:1549  function testHash(address _to, uint256[] calldata _amounts, bytes32[] calldata _merkleProof) public view returns (bytes32) {... */\n    tag_18:\n        /* \"contracts/TestVerify.sol\":1254:1261  bytes32 */\n      0x00\n        /* \"contracts/TestVerify.sol\":1280:1542  _hashTypedDataV4(keccak256(abi.encode(... */\n      tag_55\n        /* \"contracts/TestVerify.sol\":1331:1407  keccak256(\"HachiTicket(address to,uint256[] amounts,bytes32[] merkleProof)\") */\n      0x798f2fc7cec67eb8a3e992f2d864cc1f56f87a6e9130d64fe2b2d7693eca2d2b\n        /* \"contracts/TestVerify.sol\":1421:1424  _to */\n      dup8\n        /* \"contracts/TestVerify.sol\":1465:1473  _amounts */\n      dup8\n      dup8\n        /* \"contracts/TestVerify.sol\":1448:1474  abi.encodePacked(_amounts) */\n      add(0x20, mload(0x40))\n      tag_56\n      swap3\n      swap2\n      swap1\n      tag_46\n      jump\t// in\n    tag_56:\n      mload(0x40)\n      0x20\n      dup2\n      dup4\n      sub\n      sub\n      dup2\n      mstore\n      swap1\n      0x40\n      mstore\n        /* \"contracts/TestVerify.sol\":1438:1475  keccak256(abi.encodePacked(_amounts)) */\n      dup1\n      mload\n      swap1\n      0x20\n      add\n      keccak256\n        /* \"contracts/TestVerify.sol\":1516:1528  _merkleProof */\n      dup7\n      dup7\n        /* \"contracts/TestVerify.sol\":1499:1529  abi.encodePacked(_merkleProof) */\n      add(0x20, mload(0x40))\n      tag_49\n      swap3\n      swap2\n      swap1\n      tag_46\n      jump\t// in\n        /* \"contracts/TestVerify.sol\":1280:1542  _hashTypedDataV4(keccak256(abi.encode(... */\n    tag_55:\n        /* \"contracts/TestVerify.sol\":1273:1542  return _hashTypedDataV4(keccak256(abi.encode(... */\n      swap7\n        /* \"contracts/TestVerify.sol\":1140:1549  function testHash(address _to, uint256[] calldata _amounts, bytes32[] calldata _merkleProof) public view returns (bytes32) {... */\n      swap6\n      pop\n      pop\n      pop\n      pop\n      pop\n      pop\n      jump\t// out\n        /* \"contracts/TestVerify.sol\":1555:1708  function testSigner(bytes32 _digest, bytes calldata _signature) public pure returns (address) {... */\n    tag_23:\n        /* \"contracts/TestVerify.sol\":1640:1647  address */\n      0x00\n        /* \"contracts/TestVerify.sol\":1666:1701  ECDSA.recover(_digest, _signature ) */\n      tag_60\n        /* \"contracts/TestVerify.sol\":1680:1687  _digest */\n      dup5\n        /* \"contracts/TestVerify.sol\":1689:1699  _signature */\n      dup5\n      dup5\n        /* \"contracts/TestVerify.sol\":1666:1701  ECDSA.recover(_digest, _signature ) */\n      dup1\n      dup1\n      0x1f\n      add\n      0x20\n      dup1\n      swap2\n      div\n      mul\n      0x20\n      add\n      mload(0x40)\n      swap1\n      dup2\n      add\n      0x40\n      mstore\n      dup1\n      swap4\n      swap3\n      swap2\n      swap1\n      dup2\n      dup2\n      mstore\n      0x20\n      add\n      dup4\n      dup4\n      dup1\n      dup3\n      dup5\n      calldatacopy\n      0x00\n      swap3\n      add\n      swap2\n      swap1\n      swap2\n      mstore\n      pop\n        /* \"contracts/TestVerify.sol\":1666:1679  ECDSA.recover */\n      tag_61\n      swap3\n      pop\n      pop\n      pop\n        /* \"contracts/TestVerify.sol\":1666:1701  ECDSA.recover(_digest, _signature ) */\n      jump\t// in\n    tag_60:\n        /* \"contracts/TestVerify.sol\":1659:1701  return ECDSA.recover(_digest, _signature ) */\n      swap5\n        /* \"contracts/TestVerify.sol\":1555:1708  function testSigner(bytes32 _digest, bytes calldata _signature) public pure returns (address) {... */\n      swap4\n      pop\n      pop\n      pop\n      pop\n      jump\t// out\n        /* \"contracts/TestVerify.sol\":559:746  function verifySigner(HachiTicket calldata _ticket) public view returns (address) {... */\n    tag_28:\n        /* \"contracts/TestVerify.sol\":632:639  address */\n      0x00\n        /* \"contracts/TestVerify.sol\":651:665  bytes32 digest */\n      dup1\n        /* \"contracts/TestVerify.sol\":668:682  _hash(_ticket) */\n      tag_63\n        /* \"contracts/TestVerify.sol\":674:681  _ticket */\n      dup4\n        /* \"contracts/TestVerify.sol\":668:673  _hash */\n      tag_12\n        /* \"contracts/TestVerify.sol\":668:682  _hash(_ticket) */\n      jump\t// in\n    tag_63:\n        /* \"contracts/TestVerify.sol\":651:682  bytes32 digest = _hash(_ticket) */\n      swap1\n      pop\n        /* \"contracts/TestVerify.sol\":699:739  ECDSA.recover(digest, _ticket.signature) */\n      tag_64\n        /* \"contracts/TestVerify.sol\":651:682  bytes32 digest = _hash(_ticket) */\n      dup2\n        /* \"contracts/TestVerify.sol\":721:738  _ticket.signature */\n      tag_65\n      0x60\n      dup7\n      add\n        /* \"contracts/TestVerify.sol\":721:728  _ticket */\n      dup7\n        /* \"contracts/TestVerify.sol\":721:738  _ticket.signature */\n      tag_66\n      jump\t// in\n    tag_65:\n        /* \"contracts/TestVerify.sol\":699:739  ECDSA.recover(digest, _ticket.signature) */\n      dup1\n      dup1\n      0x1f\n      add\n      0x20\n      dup1\n      swap2\n      div\n      mul\n      0x20\n      add\n      mload(0x40)\n      swap1\n      dup2\n      add\n      0x40\n      mstore\n      dup1\n      swap4\n      swap3\n      swap2\n      swap1\n      dup2\n      dup2\n      mstore\n      0x20\n      add\n      dup4\n      dup4\n      dup1\n      dup3\n      dup5\n      calldatacopy\n      0x00\n      swap3\n      add\n      swap2\n      swap1\n      swap2\n      mstore\n      pop\n        /* \"contracts/TestVerify.sol\":699:712  ECDSA.recover */\n      tag_61\n      swap3\n      pop\n      pop\n      pop\n        /* \"contracts/TestVerify.sol\":699:739  ECDSA.recover(digest, _ticket.signature) */\n      jump\t// in\n    tag_64:\n        /* \"contracts/TestVerify.sol\":692:739  return ECDSA.recover(digest, _ticket.signature) */\n      swap4\n        /* \"contracts/TestVerify.sol\":559:746  function verifySigner(HachiTicket calldata _ticket) public view returns (address) {... */\n      swap3\n      pop\n      pop\n      pop\n      jump\t// out\n        /* \"contracts/TestVerify.sol\":1714:2107  function structHash(address _to, uint256[] calldata _amounts, bytes32[] calldata _merkleProof) public view returns (bytes32) {... */\n    tag_32:\n        /* \"contracts/TestVerify.sol\":1830:1837  bytes32 */\n      0x00\n        /* \"contracts/TestVerify.sol\":1890:1966  keccak256(\"HachiTicket(address to,uint256[] amounts,bytes32[] merkleProof)\") */\n      0x798f2fc7cec67eb8a3e992f2d864cc1f56f87a6e9130d64fe2b2d7693eca2d2b\n        /* \"contracts/TestVerify.sol\":1980:1983  _to */\n      dup7\n        /* \"contracts/TestVerify.sol\":2024:2032  _amounts */\n      dup7\n      dup7\n        /* \"contracts/TestVerify.sol\":2007:2033  abi.encodePacked(_amounts) */\n      add(0x20, mload(0x40))\n      tag_68\n      swap3\n      swap2\n      swap1\n      tag_46\n      jump\t// in\n    tag_68:\n      mload(0x40)\n      0x20\n      dup2\n      dup4\n      sub\n      sub\n      dup2\n      mstore\n      swap1\n      0x40\n      mstore\n        /* \"contracts/TestVerify.sol\":1997:2034  keccak256(abi.encodePacked(_amounts)) */\n      dup1\n      mload\n      swap1\n      0x20\n      add\n      keccak256\n        /* \"contracts/TestVerify.sol\":2075:2087  _merkleProof */\n      dup6\n      dup6\n        /* \"contracts/TestVerify.sol\":2058:2088  abi.encodePacked(_merkleProof) */\n      add(0x20, mload(0x40))\n      tag_69\n      swap3\n      swap2\n      swap1\n      tag_46\n      jump\t// in\n    tag_69:\n      mload(0x40)\n      0x20\n      dup2\n      dup4\n      sub\n      sub\n      dup2\n      mstore\n      swap1\n      0x40\n      mstore\n        /* \"contracts/TestVerify.sol\":2048:2089  keccak256(abi.encodePacked(_merkleProof)) */\n      dup1\n      mload\n      swap1\n      0x20\n      add\n      keccak256\n        /* \"contracts/TestVerify.sol\":1866:2099  abi.encode(... */\n      add(0x20, mload(0x40))\n      tag_70\n      swap5\n      swap4\n      swap3\n      swap2\n      swap1\n        /* \"#utility.yul\":5411:5436   */\n      swap4\n      dup5\n      mstore\n      sub(shl(0xa0, 0x01), 0x01)\n        /* \"#utility.yul\":5472:5504   */\n      swap3\n      swap1\n      swap3\n      and\n        /* \"#utility.yul\":5467:5469   */\n      0x20\n        /* \"#utility.yul\":5452:5470   */\n      dup5\n      add\n        /* \"#utility.yul\":5445:5505   */\n      mstore\n        /* \"#utility.yul\":5536:5538   */\n      0x40\n        /* \"#utility.yul\":5521:5539   */\n      dup4\n      add\n        /* \"#utility.yul\":5514:5548   */\n      mstore\n        /* \"#utility.yul\":5579:5581   */\n      0x60\n        /* \"#utility.yul\":5564:5582   */\n      dup3\n      add\n        /* \"#utility.yul\":5557:5591   */\n      mstore\n        /* \"#utility.yul\":5398:5401   */\n      0x80\n        /* \"#utility.yul\":5383:5402   */\n      add\n      swap1\n        /* \"#utility.yul\":5180:5597   */\n      jump\n        /* \"contracts/TestVerify.sol\":1866:2099  abi.encode(... */\n    tag_70:\n      mload(0x40)\n      0x20\n      dup2\n      dup4\n      sub\n      sub\n      dup2\n      mstore\n      swap1\n      0x40\n      mstore\n        /* \"contracts/TestVerify.sol\":1856:2100  keccak256(abi.encode(... */\n      dup1\n      mload\n      swap1\n      0x20\n      add\n      keccak256\n        /* \"contracts/TestVerify.sol\":1849:2100  return keccak256(abi.encode(... */\n      swap1\n      pop\n        /* \"contracts/TestVerify.sol\":1714:2107  function structHash(address _to, uint256[] calldata _amounts, bytes32[] calldata _merkleProof) public view returns (bytes32) {... */\n      swap6\n      swap5\n      pop\n      pop\n      pop\n      pop\n      pop\n      jump\t// out\n        /* \"contracts/TestVerify.sol\":2113:2225  function hashedData(bytes32 _hash) public view returns (bytes32) {... */\n    tag_37:\n        /* \"contracts/TestVerify.sol\":2169:2176  bytes32 */\n      0x00\n        /* \"contracts/TestVerify.sol\":2195:2218  _hashTypedDataV4(_hash) */\n      tag_40\n        /* \"contracts/TestVerify.sol\":2212:2217  _hash */\n      dup3\n        /* \"@openzeppelin/contracts/utils/cryptography/draft-EIP712.sol\":4339:4504  function _hashTypedDataV4(bytes32 structHash) internal view virtual returns (bytes32) {... */\n    tag_53:\n        /* \"@openzeppelin/contracts/utils/cryptography/draft-EIP712.sol\":4416:4423  bytes32 */\n      0x00\n        /* \"@openzeppelin/contracts/utils/cryptography/draft-EIP712.sol\":4442:4497  ECDSA.toTypedDataHash(_domainSeparatorV4(), structHash) */\n      tag_40\n        /* \"@openzeppelin/contracts/utils/cryptography/draft-EIP712.sol\":4464:4484  _domainSeparatorV4() */\n      tag_75\n        /* \"@openzeppelin/contracts/utils/cryptography/draft-EIP712.sol\":4464:4482  _domainSeparatorV4 */\n      tag_76\n        /* \"@openzeppelin/contracts/utils/cryptography/draft-EIP712.sol\":4464:4484  _domainSeparatorV4() */\n      jump\t// in\n    tag_75:\n        /* \"@openzeppelin/contracts/utils/cryptography/draft-EIP712.sol\":4486:4496  structHash */\n      dup4\n        /* \"@openzeppelin/contracts/utils/cryptography/ECDSA.sol\":9226:9283  abi.encodePacked(\"\\x19\\x01\", domainSeparator, structHash) */\n      mload(0x40)\n      shl(0xf0, 0x1901)\n      0x20\n      dup3\n      add\n        /* \"#utility.yul\":6386:6413   */\n      mstore\n        /* \"#utility.yul\":6429:6440   */\n      0x22\n      dup2\n      add\n        /* \"#utility.yul\":6422:6449   */\n      dup4\n      swap1\n      mstore\n        /* \"#utility.yul\":6465:6477   */\n      0x42\n      dup2\n      add\n        /* \"#utility.yul\":6458:6486   */\n      dup3\n      swap1\n      mstore\n        /* \"@openzeppelin/contracts/utils/cryptography/ECDSA.sol\":9190:9197  bytes32 */\n      0x00\n      swap1\n        /* \"#utility.yul\":6502:6514   */\n      0x62\n      add\n        /* \"@openzeppelin/contracts/utils/cryptography/ECDSA.sol\":9226:9283  abi.encodePacked(\"\\x19\\x01\", domainSeparator, structHash) */\n      mload(0x40)\n      0x20\n      dup2\n      dup4\n      sub\n      sub\n      dup2\n      mstore\n      swap1\n      0x40\n      mstore\n        /* \"@openzeppelin/contracts/utils/cryptography/ECDSA.sol\":9216:9284  keccak256(abi.encodePacked(\"\\x19\\x01\", domainSeparator, structHash)) */\n      dup1\n      mload\n      swap1\n      0x20\n      add\n      keccak256\n        /* \"@openzeppelin/contracts/utils/cryptography/ECDSA.sol\":9209:9284  return keccak256(abi.encodePacked(\"\\x19\\x01\", domainSeparator, structHash)) */\n      swap1\n      pop\n        /* \"@openzeppelin/contracts/utils/cryptography/ECDSA.sol\":9097:9291  function toTypedDataHash(bytes32 domainSeparator, bytes32 structHash) internal pure returns (bytes32) {... */\n      swap3\n      swap2\n      pop\n      pop\n      jump\n        /* \"@openzeppelin/contracts/utils/cryptography/ECDSA.sol\":4308:4535  function recover(bytes32 hash, bytes memory signature) internal pure returns (address) {... */\n    tag_61:\n        /* \"@openzeppelin/contracts/utils/cryptography/ECDSA.sol\":4386:4393  address */\n      0x00\n        /* \"@openzeppelin/contracts/utils/cryptography/ECDSA.sol\":4406:4423  address recovered */\n      dup1\n        /* \"@openzeppelin/contracts/utils/cryptography/ECDSA.sol\":4425:4443  RecoverError error */\n      0x00\n        /* \"@openzeppelin/contracts/utils/cryptography/ECDSA.sol\":4447:4474  tryRecover(hash, signature) */\n      tag_79\n        /* \"@openzeppelin/contracts/utils/cryptography/ECDSA.sol\":4458:4462  hash */\n      dup6\n        /* \"@openzeppelin/contracts/utils/cryptography/ECDSA.sol\":4464:4473  signature */\n      dup6\n        /* \"@openzeppelin/contracts/utils/cryptography/ECDSA.sol\":4447:4457  tryRecover */\n      tag_80\n        /* \"@openzeppelin/contracts/utils/cryptography/ECDSA.sol\":4447:4474  tryRecover(hash, signature) */\n      jump\t// in\n    tag_79:\n        /* \"@openzeppelin/contracts/utils/cryptography/ECDSA.sol\":4405:4474  (address recovered, RecoverError error) = tryRecover(hash, signature) */\n      swap2\n      pop\n      swap2\n      pop\n        /* \"@openzeppelin/contracts/utils/cryptography/ECDSA.sol\":4484:4502  _throwError(error) */\n      tag_81\n        /* \"@openzeppelin/contracts/utils/cryptography/ECDSA.sol\":4496:4501  error */\n      dup2\n        /* \"@openzeppelin/contracts/utils/cryptography/ECDSA.sol\":4484:4495  _throwError */\n      tag_82\n        /* \"@openzeppelin/contracts/utils/cryptography/ECDSA.sol\":4484:4502  _throwError(error) */\n      jump\t// in\n    tag_81:\n      pop\n        /* \"@openzeppelin/contracts/utils/cryptography/ECDSA.sol\":4519:4528  recovered */\n      swap4\n        /* \"@openzeppelin/contracts/utils/cryptography/ECDSA.sol\":4308:4535  function recover(bytes32 hash, bytes memory signature) internal pure returns (address) {... */\n      swap3\n      pop\n      pop\n      pop\n      jump\t// out\n        /* \"@openzeppelin/contracts/utils/cryptography/draft-EIP712.sol\":3143:3451  function _domainSeparatorV4() internal view returns (bytes32) {... */\n    tag_76:\n        /* \"@openzeppelin/contracts/utils/cryptography/draft-EIP712.sol\":3196:3203  bytes32 */\n      0x00\n        /* \"@openzeppelin/contracts/utils/cryptography/draft-EIP712.sol\":3227:3231  this */\n      address\n      sub(shl(0xa0, 0x01), 0x01)\n        /* \"@openzeppelin/contracts/utils/cryptography/draft-EIP712.sol\":3236:3248  _CACHED_THIS */\n      immutable(\"0x9ef31662fdafe5ade9dc48fd4724c04f17232ac2ae4e5ea3da9c2a310c4aba3c\")\n        /* \"@openzeppelin/contracts/utils/cryptography/draft-EIP712.sol\":3219:3248  address(this) == _CACHED_THIS */\n      and\n      eq\n        /* \"@openzeppelin/contracts/utils/cryptography/draft-EIP712.sol\":3219:3285  address(this) == _CACHED_THIS && block.chainid == _CACHED_CHAIN_ID */\n      dup1\n      iszero\n      tag_84\n      jumpi\n      pop\n        /* \"@openzeppelin/contracts/utils/cryptography/draft-EIP712.sol\":3269:3285  _CACHED_CHAIN_ID */\n      immutable(\"0xae3f42c075651cd672386e7fa64476ebefa89324c3c225495e52b74374d0bc80\")\n        /* \"@openzeppelin/contracts/utils/cryptography/draft-EIP712.sol\":3252:3265  block.chainid */\n      chainid\n        /* \"@openzeppelin/contracts/utils/cryptography/draft-EIP712.sol\":3252:3285  block.chainid == _CACHED_CHAIN_ID */\n      eq\n        /* \"@openzeppelin/contracts/utils/cryptography/draft-EIP712.sol\":3219:3285  address(this) == _CACHED_THIS && block.chainid == _CACHED_CHAIN_ID */\n    tag_84:\n        /* \"@openzeppelin/contracts/utils/cryptography/draft-EIP712.sol\":3215:3445  if (address(this) == _CACHED_THIS && block.chainid == _CACHED_CHAIN_ID) {... */\n      iszero\n      tag_85\n      jumpi\n      pop\n        /* \"@openzeppelin/contracts/utils/cryptography/draft-EIP712.sol\":3308:3332  _CACHED_DOMAIN_SEPARATOR */\n      immutable(\"0x9459a54a9dc1a91201f12e123a36391197edb81156a93e7e6bc8a3c17589bb36\")\n      swap1\n        /* \"@openzeppelin/contracts/utils/cryptography/draft-EIP712.sol\":3143:3451  function _domainSeparatorV4() internal view returns (bytes32) {... */\n      jump\t// out\n        /* \"@openzeppelin/contracts/utils/cryptography/draft-EIP712.sol\":3215:3445  if (address(this) == _CACHED_THIS && block.chainid == _CACHED_CHAIN_ID) {... */\n    tag_85:\n      pop\n        /* \"@openzeppelin/contracts/utils/cryptography/draft-EIP712.sol\":3633:3706  abi.encode(typeHash, nameHash, versionHash, block.chainid, address(this)) */\n      0x40\n      dup1\n      mload\n        /* \"@openzeppelin/contracts/utils/cryptography/draft-EIP712.sol\":3392:3402  _TYPE_HASH */\n      immutable(\"0x8c92e2e72e7997816d62b0c03c0b21c46605af4c276e6d0637f7e77158832bca\")\n        /* \"@openzeppelin/contracts/utils/cryptography/draft-EIP712.sol\":3633:3706  abi.encode(typeHash, nameHash, versionHash, block.chainid, address(this)) */\n      0x20\n      dup1\n      dup4\n      add\n        /* \"#utility.yul\":8435:8460   */\n      swap2\n      swap1\n      swap2\n      mstore\n        /* \"@openzeppelin/contracts/utils/cryptography/draft-EIP712.sol\":3404:3416  _HASHED_NAME */\n      immutable(\"0x954b846e373da6e2d86e60934c6fb4929a5d4ad23ca448303f22db28783db296\")\n        /* \"#utility.yul\":8476:8494   */\n      dup3\n      dup5\n      add\n        /* \"#utility.yul\":8469:8503   */\n      mstore\n        /* \"@openzeppelin/contracts/utils/cryptography/draft-EIP712.sol\":3418:3433  _HASHED_VERSION */\n      immutable(\"0xc7087a93770541a54b276c354f6d56c80647702e0edc6c1d5ee9aeacf01dfad8\")\n        /* \"#utility.yul\":8519:8537   */\n      0x60\n      dup4\n      add\n        /* \"#utility.yul\":8512:8546   */\n      mstore\n        /* \"@openzeppelin/contracts/utils/cryptography/draft-EIP712.sol\":3677:3690  block.chainid */\n      chainid\n        /* \"#utility.yul\":8562:8580   */\n      0x80\n      dup4\n      add\n        /* \"#utility.yul\":8555:8589   */\n      mstore\n        /* \"@openzeppelin/contracts/utils/cryptography/draft-EIP712.sol\":3700:3704  this */\n      address\n        /* \"#utility.yul\":8605:8624   */\n      0xa0\n      dup1\n      dup5\n      add\n        /* \"#utility.yul\":8598:8659   */\n      swap2\n      swap1\n      swap2\n      mstore\n        /* \"@openzeppelin/contracts/utils/cryptography/draft-EIP712.sol\":3633:3706  abi.encode(typeHash, nameHash, versionHash, block.chainid, address(this)) */\n      dup4\n      mload\n      dup1\n      dup5\n      sub\n      swap1\n      swap2\n      add\n      dup2\n      mstore\n        /* \"#utility.yul\":8407:8426   */\n      0xc0\n      swap1\n      swap3\n      add\n        /* \"@openzeppelin/contracts/utils/cryptography/draft-EIP712.sol\":3633:3706  abi.encode(typeHash, nameHash, versionHash, block.chainid, address(this)) */\n      swap1\n      swap3\n      mstore\n        /* \"@openzeppelin/contracts/utils/cryptography/draft-EIP712.sol\":3623:3707  keccak256(abi.encode(typeHash, nameHash, versionHash, block.chainid, address(this))) */\n      dup1\n      mload\n      swap2\n      add\n      keccak256\n      swap1\n        /* \"@openzeppelin/contracts/utils/cryptography/draft-EIP712.sol\":3143:3451  function _domainSeparatorV4() internal view returns (bytes32) {... */\n      jump\t// out\n        /* \"@openzeppelin/contracts/utils/cryptography/ECDSA.sol\":2243:3522  function tryRecover(bytes32 hash, bytes memory signature) internal pure returns (address, RecoverError) {... */\n    tag_80:\n        /* \"@openzeppelin/contracts/utils/cryptography/ECDSA.sol\":2324:2331  address */\n      0x00\n        /* \"@openzeppelin/contracts/utils/cryptography/ECDSA.sol\":2333:2345  RecoverError */\n      dup1\n        /* \"@openzeppelin/contracts/utils/cryptography/ECDSA.sol\":2554:2563  signature */\n      dup3\n        /* \"@openzeppelin/contracts/utils/cryptography/ECDSA.sol\":2554:2570  signature.length */\n      mload\n        /* \"@openzeppelin/contracts/utils/cryptography/ECDSA.sol\":2574:2576  65 */\n      0x41\n        /* \"@openzeppelin/contracts/utils/cryptography/ECDSA.sol\":2554:2576  signature.length == 65 */\n      sub\n        /* \"@openzeppelin/contracts/utils/cryptography/ECDSA.sol\":2550:3516  if (signature.length == 65) {... */\n      tag_93\n      jumpi\n        /* \"@openzeppelin/contracts/utils/cryptography/ECDSA.sol\":2843:2847  0x20 */\n      0x20\n        /* \"@openzeppelin/contracts/utils/cryptography/ECDSA.sol\":2828:2848  add(signature, 0x20) */\n      dup4\n      add\n        /* \"@openzeppelin/contracts/utils/cryptography/ECDSA.sol\":2822:2849  mload(add(signature, 0x20)) */\n      mload\n        /* \"@openzeppelin/contracts/utils/cryptography/ECDSA.sol\":2892:2896  0x40 */\n      0x40\n        /* \"@openzeppelin/contracts/utils/cryptography/ECDSA.sol\":2877:2897  add(signature, 0x40) */\n      dup5\n      add\n        /* \"@openzeppelin/contracts/utils/cryptography/ECDSA.sol\":2871:2898  mload(add(signature, 0x40)) */\n      mload\n        /* \"@openzeppelin/contracts/utils/cryptography/ECDSA.sol\":2949:2953  0x60 */\n      0x60\n        /* \"@openzeppelin/contracts/utils/cryptography/ECDSA.sol\":2934:2954  add(signature, 0x60) */\n      dup6\n      add\n        /* \"@openzeppelin/contracts/utils/cryptography/ECDSA.sol\":2928:2955  mload(add(signature, 0x60)) */\n      mload\n        /* \"@openzeppelin/contracts/utils/cryptography/ECDSA.sol\":2592:2601  bytes32 r */\n      0x00\n        /* \"@openzeppelin/contracts/utils/cryptography/ECDSA.sol\":2920:2956  byte(0, mload(add(signature, 0x60))) */\n      byte\n        /* \"@openzeppelin/contracts/utils/cryptography/ECDSA.sol\":2990:3015  tryRecover(hash, v, r, s) */\n      tag_94\n        /* \"@openzeppelin/contracts/utils/cryptography/ECDSA.sol\":3001:3005  hash */\n      dup8\n        /* \"@openzeppelin/contracts/utils/cryptography/ECDSA.sol\":2920:2956  byte(0, mload(add(signature, 0x60))) */\n      dup3\n        /* \"@openzeppelin/contracts/utils/cryptography/ECDSA.sol\":2822:2849  mload(add(signature, 0x20)) */\n      dup6\n        /* \"@openzeppelin/contracts/utils/cryptography/ECDSA.sol\":2871:2898  mload(add(signature, 0x40)) */\n      dup6\n        /* \"@openzeppelin/contracts/utils/cryptography/ECDSA.sol\":2990:3000  tryRecover */\n      tag_95\n        /* \"@openzeppelin/contracts/utils/cryptography/ECDSA.sol\":2990:3015  tryRecover(hash, v, r, s) */\n      jump\t// in\n    tag_94:\n        /* \"@openzeppelin/contracts/utils/cryptography/ECDSA.sol\":2983:3015  return tryRecover(hash, v, r, s) */\n      swap5\n      pop\n      swap5\n      pop\n      pop\n      pop\n      pop\n      jump(tag_100)\n        /* \"@openzeppelin/contracts/utils/cryptography/ECDSA.sol\":2550:3516  if (signature.length == 65) {... */\n    tag_93:\n        /* \"@openzeppelin/contracts/utils/cryptography/ECDSA.sol\":3036:3045  signature */\n      dup3\n        /* \"@openzeppelin/contracts/utils/cryptography/ECDSA.sol\":3036:3052  signature.length */\n      mload\n        /* \"@openzeppelin/contracts/utils/cryptography/ECDSA.sol\":3056:3058  64 */\n      0x40\n        /* \"@openzeppelin/contracts/utils/cryptography/ECDSA.sol\":3036:3058  signature.length == 64 */\n      sub\n        /* \"@openzeppelin/contracts/utils/cryptography/ECDSA.sol\":3032:3516  if (signature.length == 64) {... */\n      tag_97\n      jumpi\n        /* \"@openzeppelin/contracts/utils/cryptography/ECDSA.sol\":3305:3309  0x20 */\n      0x20\n        /* \"@openzeppelin/contracts/utils/cryptography/ECDSA.sol\":3290:3310  add(signature, 0x20) */\n      dup4\n      add\n        /* \"@openzeppelin/contracts/utils/cryptography/ECDSA.sol\":3284:3311  mload(add(signature, 0x20)) */\n      mload\n        /* \"@openzeppelin/contracts/utils/cryptography/ECDSA.sol\":3355:3359  0x40 */\n      0x40\n        /* \"@openzeppelin/contracts/utils/cryptography/ECDSA.sol\":3340:3360  add(signature, 0x40) */\n      dup5\n      add\n        /* \"@openzeppelin/contracts/utils/cryptography/ECDSA.sol\":3334:3361  mload(add(signature, 0x40)) */\n      mload\n        /* \"@openzeppelin/contracts/utils/cryptography/ECDSA.sol\":3395:3418  tryRecover(hash, r, vs) */\n      tag_98\n        /* \"@openzeppelin/contracts/utils/cryptography/ECDSA.sol\":3406:3410  hash */\n      dup7\n        /* \"@openzeppelin/contracts/utils/cryptography/ECDSA.sol\":3284:3311  mload(add(signature, 0x20)) */\n      dup4\n        /* \"@openzeppelin/contracts/utils/cryptography/ECDSA.sol\":3334:3361  mload(add(signature, 0x40)) */\n      dup4\n        /* \"@openzeppelin/contracts/utils/cryptography/ECDSA.sol\":3395:3405  tryRecover */\n      tag_99\n        /* \"@openzeppelin/contracts/utils/cryptography/ECDSA.sol\":3395:3418  tryRecover(hash, r, vs) */\n      jump\t// in\n    tag_98:\n        /* \"@openzeppelin/contracts/utils/cryptography/ECDSA.sol\":3388:3418  return tryRecover(hash, r, vs) */\n      swap4\n      pop\n      swap4\n      pop\n      pop\n      pop\n      jump(tag_100)\n        /* \"@openzeppelin/contracts/utils/cryptography/ECDSA.sol\":3032:3516  if (signature.length == 64) {... */\n    tag_97:\n      pop\n        /* \"@openzeppelin/contracts/utils/cryptography/ECDSA.sol\":3465:3466  0 */\n      0x00\n      swap1\n      pop\n        /* \"@openzeppelin/contracts/utils/cryptography/ECDSA.sol\":3469:3504  RecoverError.InvalidSignatureLength */\n      0x02\n        /* \"@openzeppelin/contracts/utils/cryptography/ECDSA.sol\":3032:3516  if (signature.length == 64) {... */\n    tag_100:\n        /* \"@openzeppelin/contracts/utils/cryptography/ECDSA.sol\":2243:3522  function tryRecover(bytes32 hash, bytes memory signature) internal pure returns (address, RecoverError) {... */\n      swap3\n      pop\n      swap3\n      swap1\n      pop\n      jump\t// out\n        /* \"@openzeppelin/contracts/utils/cryptography/ECDSA.sol\":548:1179  function _throwError(RecoverError error) private pure {... */\n    tag_82:\n        /* \"@openzeppelin/contracts/utils/cryptography/ECDSA.sol\":625:645  RecoverError.NoError */\n      0x00\n        /* \"@openzeppelin/contracts/utils/cryptography/ECDSA.sol\":616:621  error */\n      dup2\n        /* \"@openzeppelin/contracts/utils/cryptography/ECDSA.sol\":616:645  error == RecoverError.NoError */\n      0x04\n      dup2\n      gt\n      iszero\n      tag_106\n      jumpi\n      tag_106\n      tag_104\n      jump\t// in\n    tag_106:\n      sub\n        /* \"@openzeppelin/contracts/utils/cryptography/ECDSA.sol\":612:1173  if (error == RecoverError.NoError) {... */\n      tag_107\n      jumpi\n        /* \"@openzeppelin/contracts/utils/cryptography/ECDSA.sol\":548:1179  function _throwError(RecoverError error) private pure {... */\n      pop\n      jump\t// out\n        /* \"@openzeppelin/contracts/utils/cryptography/ECDSA.sol\":612:1173  if (error == RecoverError.NoError) {... */\n    tag_107:\n        /* \"@openzeppelin/contracts/utils/cryptography/ECDSA.sol\":721:750  RecoverError.InvalidSignature */\n      0x01\n        /* \"@openzeppelin/contracts/utils/cryptography/ECDSA.sol\":712:717  error */\n      dup2\n        /* \"@openzeppelin/contracts/utils/cryptography/ECDSA.sol\":712:750  error == RecoverError.InvalidSignature */\n      0x04\n      dup2\n      gt\n      iszero\n      tag_112\n      jumpi\n      tag_112\n      tag_104\n      jump\t// in\n    tag_112:\n      sub\n        /* \"@openzeppelin/contracts/utils/cryptography/ECDSA.sol\":708:1173  if (error == RecoverError.InvalidSignature) {... */\n      tag_113\n      jumpi\n        /* \"@openzeppelin/contracts/utils/cryptography/ECDSA.sol\":766:800  revert(\"ECDSA: invalid signature\") */\n      mload(0x40)\n      shl(0xe5, 0x461bcd)\n      dup2\n      mstore\n        /* \"#utility.yul\":6859:6861   */\n      0x20\n        /* \"@openzeppelin/contracts/utils/cryptography/ECDSA.sol\":766:800  revert(\"ECDSA: invalid signature\") */\n      0x04\n      dup3\n      add\n        /* \"#utility.yul\":6841:6862   */\n      mstore\n        /* \"#utility.yul\":6898:6900   */\n      0x18\n        /* \"#utility.yul\":6878:6896   */\n      0x24\n      dup3\n      add\n        /* \"#utility.yul\":6871:6901   */\n      mstore\n        /* \"#utility.yul\":6937:6963   */\n      0x45434453413a20696e76616c6964207369676e61747572650000000000000000\n        /* \"#utility.yul\":6917:6935   */\n      0x44\n      dup3\n      add\n        /* \"#utility.yul\":6910:6964   */\n      mstore\n        /* \"#utility.yul\":6981:6999   */\n      0x64\n      add\n        /* \"@openzeppelin/contracts/utils/cryptography/ECDSA.sol\":766:800  revert(\"ECDSA: invalid signature\") */\n    tag_114:\n      mload(0x40)\n      dup1\n      swap2\n      sub\n      swap1\n      revert\n        /* \"@openzeppelin/contracts/utils/cryptography/ECDSA.sol\":708:1173  if (error == RecoverError.InvalidSignature) {... */\n    tag_113:\n        /* \"@openzeppelin/contracts/utils/cryptography/ECDSA.sol\":830:865  RecoverError.InvalidSignatureLength */\n      0x02\n        /* \"@openzeppelin/contracts/utils/cryptography/ECDSA.sol\":821:826  error */\n      dup2\n        /* \"@openzeppelin/contracts/utils/cryptography/ECDSA.sol\":821:865  error == RecoverError.InvalidSignatureLength */\n      0x04\n      dup2\n      gt\n      iszero\n      tag_120\n      jumpi\n      tag_120\n      tag_104\n      jump\t// in\n    tag_120:\n      sub\n        /* \"@openzeppelin/contracts/utils/cryptography/ECDSA.sol\":817:1173  if (error == RecoverError.InvalidSignatureLength) {... */\n      tag_121\n      jumpi\n        /* \"@openzeppelin/contracts/utils/cryptography/ECDSA.sol\":881:922  revert(\"ECDSA: invalid signature length\") */\n      mload(0x40)\n      shl(0xe5, 0x461bcd)\n      dup2\n      mstore\n        /* \"#utility.yul\":7212:7214   */\n      0x20\n        /* \"@openzeppelin/contracts/utils/cryptography/ECDSA.sol\":881:922  revert(\"ECDSA: invalid signature length\") */\n      0x04\n      dup3\n      add\n        /* \"#utility.yul\":7194:7215   */\n      mstore\n        /* \"#utility.yul\":7251:7253   */\n      0x1f\n        /* \"#utility.yul\":7231:7249   */\n      0x24\n      dup3\n      add\n        /* \"#utility.yul\":7224:7254   */\n      mstore\n        /* \"#utility.yul\":7290:7323   */\n      0x45434453413a20696e76616c6964207369676e6174757265206c656e67746800\n        /* \"#utility.yul\":7270:7288   */\n      0x44\n      dup3\n      add\n        /* \"#utility.yul\":7263:7324   */\n      mstore\n        /* \"#utility.yul\":7341:7359   */\n      0x64\n      add\n        /* \"@openzeppelin/contracts/utils/cryptography/ECDSA.sol\":881:922  revert(\"ECDSA: invalid signature length\") */\n      tag_114\n        /* \"#utility.yul\":7010:7365   */\n      jump\n        /* \"@openzeppelin/contracts/utils/cryptography/ECDSA.sol\":817:1173  if (error == RecoverError.InvalidSignatureLength) {... */\n    tag_121:\n        /* \"@openzeppelin/contracts/utils/cryptography/ECDSA.sol\":952:982  RecoverError.InvalidSignatureS */\n      0x03\n        /* \"@openzeppelin/contracts/utils/cryptography/ECDSA.sol\":943:948  error */\n      dup2\n        /* \"@openzeppelin/contracts/utils/cryptography/ECDSA.sol\":943:982  error == RecoverError.InvalidSignatureS */\n      0x04\n      dup2\n      gt\n      iszero\n      tag_128\n      jumpi\n      tag_128\n      tag_104\n      jump\t// in\n    tag_128:\n      sub\n        /* \"@openzeppelin/contracts/utils/cryptography/ECDSA.sol\":939:1173  if (error == RecoverError.InvalidSignatureS) {... */\n      tag_129\n      jumpi\n        /* \"@openzeppelin/contracts/utils/cryptography/ECDSA.sol\":998:1042  revert(\"ECDSA: invalid signature 's' value\") */\n      mload(0x40)\n      shl(0xe5, 0x461bcd)\n      dup2\n      mstore\n        /* \"#utility.yul\":7572:7574   */\n      0x20\n        /* \"@openzeppelin/contracts/utils/cryptography/ECDSA.sol\":998:1042  revert(\"ECDSA: invalid signature 's' value\") */\n      0x04\n      dup3\n      add\n        /* \"#utility.yul\":7554:7575   */\n      mstore\n        /* \"#utility.yul\":7611:7613   */\n      0x22\n        /* \"#utility.yul\":7591:7609   */\n      0x24\n      dup3\n      add\n        /* \"#utility.yul\":7584:7614   */\n      mstore\n        /* \"#utility.yul\":7650:7684   */\n      0x45434453413a20696e76616c6964207369676e6174757265202773272076616c\n        /* \"#utility.yul\":7630:7648   */\n      0x44\n      dup3\n      add\n        /* \"#utility.yul\":7623:7685   */\n      mstore\n      shl(0xf0, 0x7565)\n        /* \"#utility.yul\":7701:7719   */\n      0x64\n      dup3\n      add\n        /* \"#utility.yul\":7694:7726   */\n      mstore\n        /* \"#utility.yul\":7743:7762   */\n      0x84\n      add\n        /* \"@openzeppelin/contracts/utils/cryptography/ECDSA.sol\":998:1042  revert(\"ECDSA: invalid signature 's' value\") */\n      tag_114\n        /* \"#utility.yul\":7370:7768   */\n      jump\n        /* \"@openzeppelin/contracts/utils/cryptography/ECDSA.sol\":939:1173  if (error == RecoverError.InvalidSignatureS) {... */\n    tag_129:\n        /* \"@openzeppelin/contracts/utils/cryptography/ECDSA.sol\":1072:1102  RecoverError.InvalidSignatureV */\n      0x04\n        /* \"@openzeppelin/contracts/utils/cryptography/ECDSA.sol\":1063:1068  error */\n      dup2\n        /* \"@openzeppelin/contracts/utils/cryptography/ECDSA.sol\":1063:1102  error == RecoverError.InvalidSignatureV */\n      0x04\n      dup2\n      gt\n      iszero\n      tag_136\n      jumpi\n      tag_136\n      tag_104\n      jump\t// in\n    tag_136:\n      sub\n        /* \"@openzeppelin/contracts/utils/cryptography/ECDSA.sol\":1059:1173  if (error == RecoverError.InvalidSignatureV) {... */\n      tag_137\n      jumpi\n        /* \"@openzeppelin/contracts/utils/cryptography/ECDSA.sol\":1118:1162  revert(\"ECDSA: invalid signature 'v' value\") */\n      mload(0x40)\n      shl(0xe5, 0x461bcd)\n      dup2\n      mstore\n        /* \"#utility.yul\":7975:7977   */\n      0x20\n        /* \"@openzeppelin/contracts/utils/cryptography/ECDSA.sol\":1118:1162  revert(\"ECDSA: invalid signature 'v' value\") */\n      0x04\n      dup3\n      add\n        /* \"#utility.yul\":7957:7978   */\n      mstore\n        /* \"#utility.yul\":8014:8016   */\n      0x22\n        /* \"#utility.yul\":7994:8012   */\n      0x24\n      dup3\n      add\n        /* \"#utility.yul\":7987:8017   */\n      mstore\n        /* \"#utility.yul\":8053:8087   */\n      0x45434453413a20696e76616c6964207369676e6174757265202776272076616c\n        /* \"#utility.yul\":8033:8051   */\n      0x44\n      dup3\n      add\n        /* \"#utility.yul\":8026:8088   */\n      mstore\n      shl(0xf0, 0x7565)\n        /* \"#utility.yul\":8104:8122   */\n      0x64\n      dup3\n      add\n        /* \"#utility.yul\":8097:8129   */\n      mstore\n        /* \"#utility.yul\":8146:8165   */\n      0x84\n      add\n        /* \"@openzeppelin/contracts/utils/cryptography/ECDSA.sol\":1118:1162  revert(\"ECDSA: invalid signature 'v' value\") */\n      tag_114\n        /* \"#utility.yul\":7773:8171   */\n      jump\n        /* \"@openzeppelin/contracts/utils/cryptography/ECDSA.sol\":1059:1173  if (error == RecoverError.InvalidSignatureV) {... */\n    tag_137:\n        /* \"@openzeppelin/contracts/utils/cryptography/ECDSA.sol\":548:1179  function _throwError(RecoverError error) private pure {... */\n      pop\n      jump\t// out\n        /* \"@openzeppelin/contracts/utils/cryptography/ECDSA.sol\":5716:7319  function tryRecover(... */\n    tag_95:\n        /* \"@openzeppelin/contracts/utils/cryptography/ECDSA.sol\":5842:5849  address */\n      0x00\n      dup1\n        /* \"@openzeppelin/contracts/utils/cryptography/ECDSA.sol\":6766:6832  0x7FFFFFFFFFFFFFFFFFFFFFFFFFFFFFFF5D576E7357A4501DDFE92F46681B20A0 */\n      0x7fffffffffffffffffffffffffffffff5d576e7357a4501ddfe92f46681b20a0\n        /* \"@openzeppelin/contracts/utils/cryptography/ECDSA.sol\":6753:6832  uint256(s) > 0x7FFFFFFFFFFFFFFFFFFFFFFFFFFFFFFF5D576E7357A4501DDFE92F46681B20A0 */\n      dup4\n      gt\n        /* \"@openzeppelin/contracts/utils/cryptography/ECDSA.sol\":6749:6910  if (uint256(s) > 0x7FFFFFFFFFFFFFFFFFFFFFFFFFFFFFFF5D576E7357A4501DDFE92F46681B20A0) {... */\n      iszero\n      tag_144\n      jumpi\n      pop\n        /* \"@openzeppelin/contracts/utils/cryptography/ECDSA.sol\":6864:6865  0 */\n      0x00\n      swap1\n      pop\n        /* \"@openzeppelin/contracts/utils/cryptography/ECDSA.sol\":6868:6898  RecoverError.InvalidSignatureS */\n      0x03\n        /* \"@openzeppelin/contracts/utils/cryptography/ECDSA.sol\":6848:6899  return (address(0), RecoverError.InvalidSignatureS) */\n      jump(tag_143)\n        /* \"@openzeppelin/contracts/utils/cryptography/ECDSA.sol\":6749:6910  if (uint256(s) > 0x7FFFFFFFFFFFFFFFFFFFFFFFFFFFFFFF5D576E7357A4501DDFE92F46681B20A0) {... */\n    tag_144:\n        /* \"@openzeppelin/contracts/utils/cryptography/ECDSA.sol\":6923:6924  v */\n      dup5\n        /* \"@openzeppelin/contracts/utils/cryptography/ECDSA.sol\":6923:6930  v != 27 */\n      0xff\n      and\n        /* \"@openzeppelin/contracts/utils/cryptography/ECDSA.sol\":6928:6930  27 */\n      0x1b\n        /* \"@openzeppelin/contracts/utils/cryptography/ECDSA.sol\":6923:6930  v != 27 */\n      eq\n      iszero\n        /* \"@openzeppelin/contracts/utils/cryptography/ECDSA.sol\":6923:6941  v != 27 && v != 28 */\n      dup1\n      iszero\n      tag_145\n      jumpi\n      pop\n        /* \"@openzeppelin/contracts/utils/cryptography/ECDSA.sol\":6934:6935  v */\n      dup5\n        /* \"@openzeppelin/contracts/utils/cryptography/ECDSA.sol\":6934:6941  v != 28 */\n      0xff\n      and\n        /* \"@openzeppelin/contracts/utils/cryptography/ECDSA.sol\":6939:6941  28 */\n      0x1c\n        /* \"@openzeppelin/contracts/utils/cryptography/ECDSA.sol\":6934:6941  v != 28 */\n      eq\n      iszero\n        /* \"@openzeppelin/contracts/utils/cryptography/ECDSA.sol\":6923:6941  v != 27 && v != 28 */\n    tag_145:\n        /* \"@openzeppelin/contracts/utils/cryptography/ECDSA.sol\":6919:7019  if (v != 27 && v != 28) {... */\n      iszero\n      tag_146\n      jumpi\n      pop\n        /* \"@openzeppelin/contracts/utils/cryptography/ECDSA.sol\":6973:6974  0 */\n      0x00\n      swap1\n      pop\n        /* \"@openzeppelin/contracts/utils/cryptography/ECDSA.sol\":6977:7007  RecoverError.InvalidSignatureV */\n      0x04\n        /* \"@openzeppelin/contracts/utils/cryptography/ECDSA.sol\":6957:7008  return (address(0), RecoverError.InvalidSignatureV) */\n      jump(tag_143)\n        /* \"@openzeppelin/contracts/utils/cryptography/ECDSA.sol\":6919:7019  if (v != 27 && v != 28) {... */\n    tag_146:\n        /* \"@openzeppelin/contracts/utils/cryptography/ECDSA.sol\":7130:7154  ecrecover(hash, v, r, s) */\n      0x40\n      dup1\n      mload\n        /* \"@openzeppelin/contracts/utils/cryptography/ECDSA.sol\":7113:7127  address signer */\n      0x00\n        /* \"@openzeppelin/contracts/utils/cryptography/ECDSA.sol\":7130:7154  ecrecover(hash, v, r, s) */\n      dup1\n      dup3\n      mstore\n      0x20\n      dup3\n      add\n      dup1\n      dup5\n      mstore\n        /* \"#utility.yul\":8897:8922   */\n      dup10\n      swap1\n      mstore\n        /* \"#utility.yul\":8970:8974   */\n      0xff\n        /* \"#utility.yul\":8958:8975   */\n      dup9\n      and\n        /* \"#utility.yul\":8938:8956   */\n      swap3\n      dup3\n      add\n        /* \"#utility.yul\":8931:8976   */\n      swap3\n      swap1\n      swap3\n      mstore\n        /* \"#utility.yul\":8992:9010   */\n      0x60\n      dup2\n      add\n        /* \"#utility.yul\":8985:9019   */\n      dup7\n      swap1\n      mstore\n        /* \"#utility.yul\":9035:9053   */\n      0x80\n      dup2\n      add\n        /* \"#utility.yul\":9028:9062   */\n      dup6\n      swap1\n      mstore\n        /* \"@openzeppelin/contracts/utils/cryptography/ECDSA.sol\":7130:7154  ecrecover(hash, v, r, s) */\n      0x01\n      swap1\n        /* \"#utility.yul\":8869:8888   */\n      0xa0\n      add\n        /* \"@openzeppelin/contracts/utils/cryptography/ECDSA.sol\":7130:7154  ecrecover(hash, v, r, s) */\n      0x20\n      mload(0x40)\n      0x20\n      dup2\n      sub\n      swap1\n      dup1\n      dup5\n      sub\n      swap1\n      dup6\n      gas\n      staticcall\n      iszero\n      dup1\n      iszero\n      tag_150\n      jumpi\n      returndatasize\n      0x00\n      dup1\n      returndatacopy\n      revert(0x00, returndatasize)\n    tag_150:\n      pop\n      pop\n      mload(add(not(0x1f), mload(0x40)))\n      swap2\n      pop\n      pop\n      sub(shl(0xa0, 0x01), 0x01)\n        /* \"@openzeppelin/contracts/utils/cryptography/ECDSA.sol\":7168:7188  signer == address(0) */\n      dup2\n      and\n        /* \"@openzeppelin/contracts/utils/cryptography/ECDSA.sol\":7164:7265  if (signer == address(0)) {... */\n      tag_151\n      jumpi\n        /* \"@openzeppelin/contracts/utils/cryptography/ECDSA.sol\":7220:7221  0 */\n      0x00\n        /* \"@openzeppelin/contracts/utils/cryptography/ECDSA.sol\":7224:7253  RecoverError.InvalidSignature */\n      0x01\n        /* \"@openzeppelin/contracts/utils/cryptography/ECDSA.sol\":7204:7254  return (address(0), RecoverError.InvalidSignature) */\n      swap3\n      pop\n      swap3\n      pop\n      pop\n      jump(tag_143)\n        /* \"@openzeppelin/contracts/utils/cryptography/ECDSA.sol\":7164:7265  if (signer == address(0)) {... */\n    tag_151:\n        /* \"@openzeppelin/contracts/utils/cryptography/ECDSA.sol\":7283:7289  signer */\n      swap2\n      pop\n        /* \"@openzeppelin/contracts/utils/cryptography/ECDSA.sol\":7291:7311  RecoverError.NoError */\n      0x00\n      swap1\n      pop\n        /* \"@openzeppelin/contracts/utils/cryptography/ECDSA.sol\":5716:7319  function tryRecover(... */\n    tag_143:\n      swap5\n      pop\n      swap5\n      swap3\n      pop\n      pop\n      pop\n      jump\t// out\n        /* \"@openzeppelin/contracts/utils/cryptography/ECDSA.sol\":4789:5125  function tryRecover(... */\n    tag_99:\n        /* \"@openzeppelin/contracts/utils/cryptography/ECDSA.sol\":4899:4906  address */\n      0x00\n      dup1\n      sub(shl(0xff, 0x01), 0x01)\n        /* \"@openzeppelin/contracts/utils/cryptography/ECDSA.sol\":4944:5024  vs & bytes32(0x7fffffffffffffffffffffffffffffffffffffffffffffffffffffffffffffff) */\n      dup4\n      and\n        /* \"@openzeppelin/contracts/utils/cryptography/ECDSA.sol\":4899:4906  address */\n      dup2\n        /* \"@openzeppelin/contracts/utils/cryptography/ECDSA.sol\":5050:5075  (uint256(vs) >> 255) + 27 */\n      tag_153\n        /* \"@openzeppelin/contracts/utils/cryptography/ECDSA.sol\":5066:5069  255 */\n      0xff\n        /* \"@openzeppelin/contracts/utils/cryptography/ECDSA.sol\":5051:5069  uint256(vs) >> 255 */\n      dup7\n      swap1\n      shr\n        /* \"@openzeppelin/contracts/utils/cryptography/ECDSA.sol\":5073:5075  27 */\n      0x1b\n        /* \"@openzeppelin/contracts/utils/cryptography/ECDSA.sol\":5050:5075  (uint256(vs) >> 255) + 27 */\n      tag_154\n      jump\t// in\n    tag_153:\n        /* \"@openzeppelin/contracts/utils/cryptography/ECDSA.sol\":5034:5076  uint8 v = uint8((uint256(vs) >> 255) + 27) */\n      swap1\n      pop\n        /* \"@openzeppelin/contracts/utils/cryptography/ECDSA.sol\":5093:5118  tryRecover(hash, v, r, s) */\n      tag_155\n        /* \"@openzeppelin/contracts/utils/cryptography/ECDSA.sol\":5104:5108  hash */\n      dup8\n        /* \"@openzeppelin/contracts/utils/cryptography/ECDSA.sol\":5110:5111  v */\n      dup3\n        /* \"@openzeppelin/contracts/utils/cryptography/ECDSA.sol\":5113:5114  r */\n      dup9\n        /* \"@openzeppelin/contracts/utils/cryptography/ECDSA.sol\":5116:5117  s */\n      dup6\n        /* \"@openzeppelin/contracts/utils/cryptography/ECDSA.sol\":5093:5103  tryRecover */\n      tag_95\n        /* \"@openzeppelin/contracts/utils/cryptography/ECDSA.sol\":5093:5118  tryRecover(hash, v, r, s) */\n      jump\t// in\n    tag_155:\n        /* \"@openzeppelin/contracts/utils/cryptography/ECDSA.sol\":5086:5118  return tryRecover(hash, v, r, s) */\n      swap4\n      pop\n      swap4\n      pop\n      pop\n      pop\n        /* \"@openzeppelin/contracts/utils/cryptography/ECDSA.sol\":4789:5125  function tryRecover(... */\n      swap4\n      pop\n      swap4\n      swap2\n      pop\n      pop\n      jump\t// out\n        /* \"#utility.yul\":14:404   */\n    tag_11:\n        /* \"#utility.yul\":103:109   */\n      0x00\n        /* \"#utility.yul\":156:158   */\n      0x20\n        /* \"#utility.yul\":144:153   */\n      dup3\n        /* \"#utility.yul\":135:142   */\n      dup5\n        /* \"#utility.yul\":131:154   */\n      sub\n        /* \"#utility.yul\":127:159   */\n      slt\n        /* \"#utility.yul\":124:176   */\n      iszero\n      tag_161\n      jumpi\n        /* \"#utility.yul\":172:173   */\n      0x00\n        /* \"#utility.yul\":169:170   */\n      dup1\n        /* \"#utility.yul\":162:174   */\n      revert\n        /* \"#utility.yul\":124:176   */\n    tag_161:\n        /* \"#utility.yul\":212:221   */\n      dup2\n        /* \"#utility.yul\":199:222   */\n      calldataload\n        /* \"#utility.yul\":245:263   */\n      0xffffffffffffffff\n        /* \"#utility.yul\":237:243   */\n      dup2\n        /* \"#utility.yul\":234:264   */\n      gt\n        /* \"#utility.yul\":231:281   */\n      iszero\n      tag_162\n      jumpi\n        /* \"#utility.yul\":277:278   */\n      0x00\n        /* \"#utility.yul\":274:275   */\n      dup1\n        /* \"#utility.yul\":267:279   */\n      revert\n        /* \"#utility.yul\":231:281   */\n    tag_162:\n        /* \"#utility.yul\":300:322   */\n      dup3\n      add\n        /* \"#utility.yul\":356:359   */\n      0x80\n        /* \"#utility.yul\":338:354   */\n      dup2\n      dup6\n      sub\n        /* \"#utility.yul\":334:360   */\n      slt\n        /* \"#utility.yul\":331:377   */\n      iszero\n      tag_64\n      jumpi\n        /* \"#utility.yul\":373:374   */\n      0x00\n        /* \"#utility.yul\":370:371   */\n      dup1\n        /* \"#utility.yul\":363:375   */\n      revert\n        /* \"#utility.yul\":591:764   */\n    tag_156:\n        /* \"#utility.yul\":659:679   */\n      dup1\n      calldataload\n      sub(shl(0xa0, 0x01), 0x01)\n        /* \"#utility.yul\":708:739   */\n      dup2\n      and\n        /* \"#utility.yul\":698:740   */\n      dup2\n      eq\n        /* \"#utility.yul\":688:758   */\n      tag_166\n      jumpi\n        /* \"#utility.yul\":754:755   */\n      0x00\n        /* \"#utility.yul\":751:752   */\n      dup1\n        /* \"#utility.yul\":744:756   */\n      revert\n        /* \"#utility.yul\":688:758   */\n    tag_166:\n        /* \"#utility.yul\":591:764   */\n      swap2\n      swap1\n      pop\n      jump\t// out\n        /* \"#utility.yul\":769:1136   */\n    tag_157:\n        /* \"#utility.yul\":832:840   */\n      0x00\n        /* \"#utility.yul\":842:848   */\n      dup1\n        /* \"#utility.yul\":896:899   */\n      dup4\n        /* \"#utility.yul\":889:893   */\n      0x1f\n        /* \"#utility.yul\":881:887   */\n      dup5\n        /* \"#utility.yul\":877:894   */\n      add\n        /* \"#utility.yul\":873:900   */\n      slt\n        /* \"#utility.yul\":863:918   */\n      tag_168\n      jumpi\n        /* \"#utility.yul\":914:915   */\n      0x00\n        /* \"#utility.yul\":911:912   */\n      dup1\n        /* \"#utility.yul\":904:916   */\n      revert\n        /* \"#utility.yul\":863:918   */\n    tag_168:\n      pop\n        /* \"#utility.yul\":937:957   */\n      dup2\n      calldataload\n        /* \"#utility.yul\":980:998   */\n      0xffffffffffffffff\n        /* \"#utility.yul\":969:999   */\n      dup2\n      gt\n        /* \"#utility.yul\":966:1016   */\n      iszero\n      tag_169\n      jumpi\n        /* \"#utility.yul\":1012:1013   */\n      0x00\n        /* \"#utility.yul\":1009:1010   */\n      dup1\n        /* \"#utility.yul\":1002:1014   */\n      revert\n        /* \"#utility.yul\":966:1016   */\n    tag_169:\n        /* \"#utility.yul\":1049:1053   */\n      0x20\n        /* \"#utility.yul\":1041:1047   */\n      dup4\n        /* \"#utility.yul\":1037:1054   */\n      add\n        /* \"#utility.yul\":1025:1054   */\n      swap2\n      pop\n        /* \"#utility.yul\":1109:1112   */\n      dup4\n        /* \"#utility.yul\":1102:1106   */\n      0x20\n        /* \"#utility.yul\":1092:1098   */\n      dup3\n        /* \"#utility.yul\":1089:1090   */\n      0x05\n        /* \"#utility.yul\":1085:1099   */\n      shl\n        /* \"#utility.yul\":1077:1083   */\n      dup6\n        /* \"#utility.yul\":1073:1100   */\n      add\n        /* \"#utility.yul\":1069:1107   */\n      add\n        /* \"#utility.yul\":1066:1113   */\n      gt\n        /* \"#utility.yul\":1063:1130   */\n      iszero\n      tag_100\n      jumpi\n        /* \"#utility.yul\":1126:1127   */\n      0x00\n        /* \"#utility.yul\":1123:1124   */\n      dup1\n        /* \"#utility.yul\":1116:1128   */\n      revert\n        /* \"#utility.yul\":1141:1988   */\n    tag_17:\n        /* \"#utility.yul\":1272:1278   */\n      0x00\n        /* \"#utility.yul\":1280:1286   */\n      dup1\n        /* \"#utility.yul\":1288:1294   */\n      0x00\n        /* \"#utility.yul\":1296:1302   */\n      dup1\n        /* \"#utility.yul\":1304:1310   */\n      0x00\n        /* \"#utility.yul\":1357:1359   */\n      0x60\n        /* \"#utility.yul\":1345:1354   */\n      dup7\n        /* \"#utility.yul\":1336:1343   */\n      dup9\n        /* \"#utility.yul\":1332:1355   */\n      sub\n        /* \"#utility.yul\":1328:1360   */\n      slt\n        /* \"#utility.yul\":1325:1377   */\n      iszero\n      tag_172\n      jumpi\n        /* \"#utility.yul\":1373:1374   */\n      0x00\n        /* \"#utility.yul\":1370:1371   */\n      dup1\n        /* \"#utility.yul\":1363:1375   */\n      revert\n        /* \"#utility.yul\":1325:1377   */\n    tag_172:\n        /* \"#utility.yul\":1396:1425   */\n      tag_173\n        /* \"#utility.yul\":1415:1424   */\n      dup7\n        /* \"#utility.yul\":1396:1425   */\n      tag_156\n      jump\t// in\n    tag_173:\n        /* \"#utility.yul\":1386:1425   */\n      swap5\n      pop\n        /* \"#utility.yul\":1476:1478   */\n      0x20\n        /* \"#utility.yul\":1465:1474   */\n      dup7\n        /* \"#utility.yul\":1461:1479   */\n      add\n        /* \"#utility.yul\":1448:1480   */\n      calldataload\n        /* \"#utility.yul\":1499:1517   */\n      0xffffffffffffffff\n        /* \"#utility.yul\":1540:1542   */\n      dup1\n        /* \"#utility.yul\":1532:1538   */\n      dup3\n        /* \"#utility.yul\":1529:1543   */\n      gt\n        /* \"#utility.yul\":1526:1560   */\n      iszero\n      tag_174\n      jumpi\n        /* \"#utility.yul\":1556:1557   */\n      0x00\n        /* \"#utility.yul\":1553:1554   */\n      dup1\n        /* \"#utility.yul\":1546:1558   */\n      revert\n        /* \"#utility.yul\":1526:1560   */\n    tag_174:\n        /* \"#utility.yul\":1595:1665   */\n      tag_175\n        /* \"#utility.yul\":1657:1664   */\n      dup10\n        /* \"#utility.yul\":1648:1654   */\n      dup4\n        /* \"#utility.yul\":1637:1646   */\n      dup11\n        /* \"#utility.yul\":1633:1655   */\n      add\n        /* \"#utility.yul\":1595:1665   */\n      tag_157\n      jump\t// in\n    tag_175:\n        /* \"#utility.yul\":1684:1692   */\n      swap1\n      swap7\n      pop\n        /* \"#utility.yul\":1569:1665   */\n      swap5\n      pop\n        /* \"#utility.yul\":1772:1774   */\n      0x40\n        /* \"#utility.yul\":1757:1775   */\n      dup9\n      add\n        /* \"#utility.yul\":1744:1776   */\n      calldataload\n      swap2\n      pop\n        /* \"#utility.yul\":1788:1804   */\n      dup1\n      dup3\n      gt\n        /* \"#utility.yul\":1785:1821   */\n      iszero\n      tag_176\n      jumpi\n        /* \"#utility.yul\":1817:1818   */\n      0x00\n        /* \"#utility.yul\":1814:1815   */\n      dup1\n        /* \"#utility.yul\":1807:1819   */\n      revert\n        /* \"#utility.yul\":1785:1821   */\n    tag_176:\n      pop\n        /* \"#utility.yul\":1856:1928   */\n      tag_177\n        /* \"#utility.yul\":1920:1927   */\n      dup9\n        /* \"#utility.yul\":1909:1917   */\n      dup3\n        /* \"#utility.yul\":1898:1907   */\n      dup10\n        /* \"#utility.yul\":1894:1918   */\n      add\n        /* \"#utility.yul\":1856:1928   */\n      tag_157\n      jump\t// in\n    tag_177:\n        /* \"#utility.yul\":1141:1988   */\n      swap7\n      swap10\n      swap6\n      swap9\n      pop\n      swap4\n      swap7\n      pop\n        /* \"#utility.yul\":1947:1955   */\n      swap3\n      swap5\n        /* \"#utility.yul\":1830:1928   */\n      swap4\n        /* \"#utility.yul\":1141:1988   */\n      swap3\n      pop\n      pop\n      pop\n      jump\t// out\n        /* \"#utility.yul\":1993:2652   */\n    tag_22:\n        /* \"#utility.yul\":2072:2078   */\n      0x00\n        /* \"#utility.yul\":2080:2086   */\n      dup1\n        /* \"#utility.yul\":2088:2094   */\n      0x00\n        /* \"#utility.yul\":2141:2143   */\n      0x40\n        /* \"#utility.yul\":2129:2138   */\n      dup5\n        /* \"#utility.yul\":2120:2127   */\n      dup7\n        /* \"#utility.yul\":2116:2139   */\n      sub\n        /* \"#utility.yul\":2112:2144   */\n      slt\n        /* \"#utility.yul\":2109:2161   */\n      iszero\n      tag_179\n      jumpi\n        /* \"#utility.yul\":2157:2158   */\n      0x00\n        /* \"#utility.yul\":2154:2155   */\n      dup1\n        /* \"#utility.yul\":2147:2159   */\n      revert\n        /* \"#utility.yul\":2109:2161   */\n    tag_179:\n        /* \"#utility.yul\":2193:2202   */\n      dup4\n        /* \"#utility.yul\":2180:2203   */\n      calldataload\n        /* \"#utility.yul\":2170:2203   */\n      swap3\n      pop\n        /* \"#utility.yul\":2254:2256   */\n      0x20\n        /* \"#utility.yul\":2243:2252   */\n      dup5\n        /* \"#utility.yul\":2239:2257   */\n      add\n        /* \"#utility.yul\":2226:2258   */\n      calldataload\n        /* \"#utility.yul\":2277:2295   */\n      0xffffffffffffffff\n        /* \"#utility.yul\":2318:2320   */\n      dup1\n        /* \"#utility.yul\":2310:2316   */\n      dup3\n        /* \"#utility.yul\":2307:2321   */\n      gt\n        /* \"#utility.yul\":2304:2338   */\n      iszero\n      tag_180\n      jumpi\n        /* \"#utility.yul\":2334:2335   */\n      0x00\n        /* \"#utility.yul\":2331:2332   */\n      dup1\n        /* \"#utility.yul\":2324:2336   */\n      revert\n        /* \"#utility.yul\":2304:2338   */\n    tag_180:\n        /* \"#utility.yul\":2372:2378   */\n      dup2\n        /* \"#utility.yul\":2361:2370   */\n      dup7\n        /* \"#utility.yul\":2357:2379   */\n      add\n        /* \"#utility.yul\":2347:2379   */\n      swap2\n      pop\n        /* \"#utility.yul\":2417:2424   */\n      dup7\n        /* \"#utility.yul\":2410:2414   */\n      0x1f\n        /* \"#utility.yul\":2406:2408   */\n      dup4\n        /* \"#utility.yul\":2402:2415   */\n      add\n        /* \"#utility.yul\":2398:2425   */\n      slt\n        /* \"#utility.yul\":2388:2443   */\n      tag_181\n      jumpi\n        /* \"#utility.yul\":2439:2440   */\n      0x00\n        /* \"#utility.yul\":2436:2437   */\n      dup1\n        /* \"#utility.yul\":2429:2441   */\n      revert\n        /* \"#utility.yul\":2388:2443   */\n    tag_181:\n        /* \"#utility.yul\":2479:2481   */\n      dup2\n        /* \"#utility.yul\":2466:2482   */\n      calldataload\n        /* \"#utility.yul\":2505:2507   */\n      dup2\n        /* \"#utility.yul\":2497:2503   */\n      dup2\n        /* \"#utility.yul\":2494:2508   */\n      gt\n        /* \"#utility.yul\":2491:2525   */\n      iszero\n      tag_182\n      jumpi\n        /* \"#utility.yul\":2521:2522   */\n      0x00\n        /* \"#utility.yul\":2518:2519   */\n      dup1\n        /* \"#utility.yul\":2511:2523   */\n      revert\n        /* \"#utility.yul\":2491:2525   */\n    tag_182:\n        /* \"#utility.yul\":2566:2573   */\n      dup8\n        /* \"#utility.yul\":2561:2563   */\n      0x20\n        /* \"#utility.yul\":2552:2558   */\n      dup3\n        /* \"#utility.yul\":2548:2550   */\n      dup6\n        /* \"#utility.yul\":2544:2559   */\n      add\n        /* \"#utility.yul\":2540:2564   */\n      add\n        /* \"#utility.yul\":2537:2574   */\n      gt\n        /* \"#utility.yul\":2534:2591   */\n      iszero\n      tag_183\n      jumpi\n        /* \"#utility.yul\":2587:2588   */\n      0x00\n        /* \"#utility.yul\":2584:2585   */\n      dup1\n        /* \"#utility.yul\":2577:2589   */\n      revert\n        /* \"#utility.yul\":2534:2591   */\n    tag_183:\n        /* \"#utility.yul\":2618:2620   */\n      0x20\n        /* \"#utility.yul\":2614:2616   */\n      dup4\n        /* \"#utility.yul\":2610:2621   */\n      add\n        /* \"#utility.yul\":2600:2621   */\n      swap5\n      pop\n        /* \"#utility.yul\":2640:2646   */\n      dup1\n        /* \"#utility.yul\":2630:2646   */\n      swap4\n      pop\n      pop\n      pop\n      pop\n        /* \"#utility.yul\":1993:2652   */\n      swap3\n      pop\n      swap3\n      pop\n      swap3\n      jump\t// out\n        /* \"#utility.yul\":2865:3045   */\n    tag_36:\n        /* \"#utility.yul\":2924:2930   */\n      0x00\n        /* \"#utility.yul\":2977:2979   */\n      0x20\n        /* \"#utility.yul\":2965:2974   */\n      dup3\n        /* \"#utility.yul\":2956:2963   */\n      dup5\n        /* \"#utility.yul\":2952:2975   */\n      sub\n        /* \"#utility.yul\":2948:2980   */\n      slt\n        /* \"#utility.yul\":2945:2997   */\n      iszero\n      tag_186\n      jumpi\n        /* \"#utility.yul\":2993:2994   */\n      0x00\n        /* \"#utility.yul\":2990:2991   */\n      dup1\n        /* \"#utility.yul\":2983:2995   */\n      revert\n        /* \"#utility.yul\":2945:2997   */\n    tag_186:\n      pop\n        /* \"#utility.yul\":3016:3039   */\n      calldataload\n      swap2\n        /* \"#utility.yul\":2865:3045   */\n      swap1\n      pop\n      jump\t// out\n        /* \"#utility.yul\":3050:3236   */\n    tag_42:\n        /* \"#utility.yul\":3109:3115   */\n      0x00\n        /* \"#utility.yul\":3162:3164   */\n      0x20\n        /* \"#utility.yul\":3150:3159   */\n      dup3\n        /* \"#utility.yul\":3141:3148   */\n      dup5\n        /* \"#utility.yul\":3137:3160   */\n      sub\n        /* \"#utility.yul\":3133:3165   */\n      slt\n        /* \"#utility.yul\":3130:3182   */\n      iszero\n      tag_188\n      jumpi\n        /* \"#utility.yul\":3178:3179   */\n      0x00\n        /* \"#utility.yul\":3175:3176   */\n      dup1\n        /* \"#utility.yul\":3168:3180   */\n      revert\n        /* \"#utility.yul\":3130:3182   */\n    tag_188:\n        /* \"#utility.yul\":3201:3230   */\n      tag_64\n        /* \"#utility.yul\":3220:3229   */\n      dup3\n        /* \"#utility.yul\":3201:3230   */\n      tag_156\n      jump\t// in\n        /* \"#utility.yul\":3241:3786   */\n    tag_44:\n        /* \"#utility.yul\":3334:3338   */\n      0x00\n        /* \"#utility.yul\":3340:3346   */\n      dup1\n        /* \"#utility.yul\":3400:3411   */\n      dup4\n        /* \"#utility.yul\":3387:3412   */\n      calldataload\n        /* \"#utility.yul\":3494:3496   */\n      0x1e\n        /* \"#utility.yul\":3490:3497   */\n      not\n        /* \"#utility.yul\":3479:3487   */\n      dup5\n        /* \"#utility.yul\":3463:3477   */\n      calldatasize\n        /* \"#utility.yul\":3459:3488   */\n      sub\n        /* \"#utility.yul\":3455:3498   */\n      add\n        /* \"#utility.yul\":3435:3453   */\n      dup2\n        /* \"#utility.yul\":3431:3499   */\n      slt\n        /* \"#utility.yul\":3421:3517   */\n      tag_191\n      jumpi\n        /* \"#utility.yul\":3513:3514   */\n      0x00\n        /* \"#utility.yul\":3510:3511   */\n      dup1\n        /* \"#utility.yul\":3503:3515   */\n      revert\n        /* \"#utility.yul\":3421:3517   */\n    tag_191:\n        /* \"#utility.yul\":3540:3573   */\n      dup4\n      add\n        /* \"#utility.yul\":3592:3612   */\n      dup1\n      calldataload\n      swap2\n      pop\n        /* \"#utility.yul\":3635:3653   */\n      0xffffffffffffffff\n        /* \"#utility.yul\":3624:3654   */\n      dup3\n      gt\n        /* \"#utility.yul\":3621:3671   */\n      iszero\n      tag_192\n      jumpi\n        /* \"#utility.yul\":3667:3668   */\n      0x00\n        /* \"#utility.yul\":3664:3665   */\n      dup1\n        /* \"#utility.yul\":3657:3669   */\n      revert\n        /* \"#utility.yul\":3621:3671   */\n    tag_192:\n        /* \"#utility.yul\":3700:3704   */\n      0x20\n        /* \"#utility.yul\":3688:3705   */\n      add\n      swap2\n      pop\n        /* \"#utility.yul\":3751:3752   */\n      0x05\n        /* \"#utility.yul\":3747:3761   */\n      dup2\n      swap1\n      shl\n        /* \"#utility.yul\":3731:3745   */\n      calldatasize\n        /* \"#utility.yul\":3727:3762   */\n      sub\n        /* \"#utility.yul\":3717:3763   */\n      dup3\n      sgt\n        /* \"#utility.yul\":3714:3780   */\n      iszero\n      tag_100\n      jumpi\n        /* \"#utility.yul\":3776:3777   */\n      0x00\n        /* \"#utility.yul\":3773:3774   */\n      dup1\n        /* \"#utility.yul\":3766:3778   */\n      revert\n        /* \"#utility.yul\":3791:4095   */\n    tag_158:\n        /* \"#utility.yul\":3861:3864   */\n      0x00\n      sub(shl(0xfb, 0x01), 0x01)\n        /* \"#utility.yul\":3882:3913   */\n      dup4\n      gt\n        /* \"#utility.yul\":3879:3930   */\n      iszero\n      tag_195\n      jumpi\n        /* \"#utility.yul\":3926:3927   */\n      0x00\n        /* \"#utility.yul\":3923:3924   */\n      dup1\n        /* \"#utility.yul\":3916:3928   */\n      revert\n        /* \"#utility.yul\":3879:3930   */\n    tag_195:\n        /* \"#utility.yul\":3962:3968   */\n      dup3\n        /* \"#utility.yul\":3959:3960   */\n      0x05\n        /* \"#utility.yul\":3955:3969   */\n      shl\n        /* \"#utility.yul\":4003:4011   */\n      dup1\n        /* \"#utility.yul\":3996:4001   */\n      dup4\n        /* \"#utility.yul\":3991:3994   */\n      dup7\n        /* \"#utility.yul\":3978:4012   */\n      calldatacopy\n        /* \"#utility.yul\":4069:4070   */\n      0x00\n        /* \"#utility.yul\":4031:4049   */\n      swap5\n      add\n        /* \"#utility.yul\":4058:4071   */\n      swap4\n      dup5\n      mstore\n      pop\n        /* \"#utility.yul\":4031:4049   */\n      swap2\n      swap3\n        /* \"#utility.yul\":3791:4095   */\n      swap2\n      pop\n      pop\n      jump\t// out\n        /* \"#utility.yul\":4100:4360   */\n    tag_46:\n        /* \"#utility.yul\":4271:4274   */\n      0x00\n        /* \"#utility.yul\":4296:4354   */\n      tag_60\n        /* \"#utility.yul\":4350:4353   */\n      dup3\n        /* \"#utility.yul\":4342:4348   */\n      dup5\n        /* \"#utility.yul\":4334:4340   */\n      dup7\n        /* \"#utility.yul\":4296:4354   */\n      tag_158\n      jump\t// in\n        /* \"#utility.yul\":5602:6123   */\n    tag_66:\n        /* \"#utility.yul\":5679:5683   */\n      0x00\n        /* \"#utility.yul\":5685:5691   */\n      dup1\n        /* \"#utility.yul\":5745:5756   */\n      dup4\n        /* \"#utility.yul\":5732:5757   */\n      calldataload\n        /* \"#utility.yul\":5839:5841   */\n      0x1e\n        /* \"#utility.yul\":5835:5842   */\n      not\n        /* \"#utility.yul\":5824:5832   */\n      dup5\n        /* \"#utility.yul\":5808:5822   */\n      calldatasize\n        /* \"#utility.yul\":5804:5833   */\n      sub\n        /* \"#utility.yul\":5800:5843   */\n      add\n        /* \"#utility.yul\":5780:5798   */\n      dup2\n        /* \"#utility.yul\":5776:5844   */\n      slt\n        /* \"#utility.yul\":5766:5862   */\n      tag_206\n      jumpi\n        /* \"#utility.yul\":5858:5859   */\n      0x00\n        /* \"#utility.yul\":5855:5856   */\n      dup1\n        /* \"#utility.yul\":5848:5860   */\n      revert\n        /* \"#utility.yul\":5766:5862   */\n    tag_206:\n        /* \"#utility.yul\":5885:5918   */\n      dup4\n      add\n        /* \"#utility.yul\":5937:5957   */\n      dup1\n      calldataload\n      swap2\n      pop\n        /* \"#utility.yul\":5980:5998   */\n      0xffffffffffffffff\n        /* \"#utility.yul\":5969:5999   */\n      dup3\n      gt\n        /* \"#utility.yul\":5966:6016   */\n      iszero\n      tag_207\n      jumpi\n        /* \"#utility.yul\":6012:6013   */\n      0x00\n        /* \"#utility.yul\":6009:6010   */\n      dup1\n        /* \"#utility.yul\":6002:6014   */\n      revert\n        /* \"#utility.yul\":5966:6016   */\n    tag_207:\n        /* \"#utility.yul\":6045:6049   */\n      0x20\n        /* \"#utility.yul\":6033:6050   */\n      add\n      swap2\n      pop\n        /* \"#utility.yul\":6076:6090   */\n      calldatasize\n        /* \"#utility.yul\":6072:6099   */\n      dup2\n      swap1\n      sub\n        /* \"#utility.yul\":6062:6100   */\n      dup3\n      sgt\n        /* \"#utility.yul\":6059:6117   */\n      iszero\n      tag_100\n      jumpi\n        /* \"#utility.yul\":6113:6114   */\n      0x00\n        /* \"#utility.yul\":6110:6111   */\n      dup1\n        /* \"#utility.yul\":6103:6115   */\n      revert\n        /* \"#utility.yul\":6525:6652   */\n    tag_104:\n        /* \"#utility.yul\":6586:6596   */\n      0x4e487b71\n        /* \"#utility.yul\":6581:6584   */\n      0xe0\n        /* \"#utility.yul\":6577:6597   */\n      shl\n        /* \"#utility.yul\":6574:6575   */\n      0x00\n        /* \"#utility.yul\":6567:6598   */\n      mstore\n        /* \"#utility.yul\":6617:6621   */\n      0x21\n        /* \"#utility.yul\":6614:6615   */\n      0x04\n        /* \"#utility.yul\":6607:6622   */\n      mstore\n        /* \"#utility.yul\":6641:6645   */\n      0x24\n        /* \"#utility.yul\":6638:6639   */\n      0x00\n        /* \"#utility.yul\":6631:6646   */\n      revert\n        /* \"#utility.yul\":9073:9298   */\n    tag_154:\n        /* \"#utility.yul\":9113:9116   */\n      0x00\n        /* \"#utility.yul\":9144:9145   */\n      dup3\n        /* \"#utility.yul\":9140:9146   */\n      not\n        /* \"#utility.yul\":9137:9138   */\n      dup3\n        /* \"#utility.yul\":9134:9147   */\n      gt\n        /* \"#utility.yul\":9131:9267   */\n      iszero\n      tag_218\n      jumpi\n        /* \"#utility.yul\":9189:9199   */\n      0x4e487b71\n        /* \"#utility.yul\":9184:9187   */\n      0xe0\n        /* \"#utility.yul\":9180:9200   */\n      shl\n        /* \"#utility.yul\":9177:9178   */\n      0x00\n        /* \"#utility.yul\":9170:9201   */\n      mstore\n        /* \"#utility.yul\":9224:9228   */\n      0x11\n        /* \"#utility.yul\":9221:9222   */\n      0x04\n        /* \"#utility.yul\":9214:9229   */\n      mstore\n        /* \"#utility.yul\":9252:9256   */\n      0x24\n        /* \"#utility.yul\":9249:9250   */\n      0x00\n        /* \"#utility.yul\":9242:9257   */\n      revert\n        /* \"#utility.yul\":9131:9267   */\n    tag_218:\n      pop\n        /* \"#utility.yul\":9283:9292   */\n      add\n      swap1\n        /* \"#utility.yul\":9073:9298   */\n      jump\t// out\n\n    auxdata: 0xa2646970667358221220072df3f6d90f71a76d561d1bd048c0d69542449606330ea3e1e3df366141d5d064736f6c634300080e0033\n}\n",
				"bytecode": {
					"linkReferences": {},
					"object": "61014060405234801561001157600080fd5b50604080518082018252600b81526a48616368694e667453696760a81b6020808301918252835180850190945260018452603160f81b908401528151902060e08190527fc89efdaa54c0f20c7adf612882df0950f5a951637e0307cdcb4c672f298b8bc66101008190524660a0529192917f8b73c3c69bb8fe3d512ecc4cf759cc79239f7b179b0ffacaa9a75d522b39400f6100f28184846040805160208101859052908101839052606081018290524660808201523060a082015260009060c0016040516020818303038152906040528051906020012090509392505050565b6080523060c052610120525061010792505050565b60805160a05160c05160e0516101005161012051610bd161015660003960006104d801526000610527015260006105020152600061045b01526000610485015260006104af0152610bd16000f3fe608060405234801561001057600080fd5b50600436106100625760003560e01c806315adc8fc14610067578063312012171461008d57806334bd2c61146100a0578063ac7efdd7146100cb578063b8c9ab90146100de578063c32a1f25146100f1575b600080fd5b61007a6100753660046108c7565b610104565b6040519081526020015b60405180910390f35b61007a61009b366004610963565b6101f5565b6100b36100ae3660046109e4565b610262565b6040516001600160a01b039091168152602001610084565b6100b36100d93660046108c7565b6102ac565b61007a6100ec366004610963565b61030c565b61007a6100ff366004610a60565b6103d5565b60006101ef7f798f2fc7cec67eb8a3e992f2d864cc1f56f87a6e9130d64fe2b2d7693eca2d2b6101376020850185610a79565b6101446020860186610a94565b604051602001610155929190610b0b565b6040516020818303038152906040528051906020012085806040019061017b9190610a94565b60405160200161018c929190610b0b565b604051602081830303815290604052805190602001206040516020016101d494939291909384526001600160a01b039290921660208401526040830152606082015260800190565b604051602081830303815290604052805190602001206103dc565b92915050565b60006102587f798f2fc7cec67eb8a3e992f2d864cc1f56f87a6e9130d64fe2b2d7693eca2d2b87878760405160200161022f929190610b0b565b60405160208183030381529060405280519060200120868660405160200161018c929190610b0b565b9695505050505050565b60006102a48484848080601f01602080910402602001604051908101604052809392919081815260200183838082843760009201919091525061042a92505050565b949350505050565b6000806102b883610104565b9050610305816102cb6060860186610b18565b8080601f01602080910402602001604051908101604052809392919081815260200183838082843760009201919091525061042a92505050565b9392505050565b60007f798f2fc7cec67eb8a3e992f2d864cc1f56f87a6e9130d64fe2b2d7693eca2d2b868686604051602001610343929190610b0b565b60405160208183030381529060405280519060200120858560405160200161036c929190610b0b565b604051602081830303815290604052805190602001206040516020016103b494939291909384526001600160a01b039290921660208401526040830152606082015260800190565b60405160208183030381529060405280519060200120905095945050505050565b60006101ef825b60006101ef6103e961044e565b8360405161190160f01b6020820152602281018390526042810182905260009060620160405160208183030381529060405280519060200120905092915050565b60008060006104398585610575565b91509150610446816105e3565b509392505050565b6000306001600160a01b037f0000000000000000000000000000000000000000000000000000000000000000161480156104a757507f000000000000000000000000000000000000000000000000000000000000000046145b156104d157507f000000000000000000000000000000000000000000000000000000000000000090565b50604080517f00000000000000000000000000000000000000000000000000000000000000006020808301919091527f0000000000000000000000000000000000000000000000000000000000000000828401527f000000000000000000000000000000000000000000000000000000000000000060608301524660808301523060a0808401919091528351808403909101815260c0909201909252805191012090565b60008082516041036105ab5760208301516040840151606085015160001a61059f878285856107a1565b945094505050506105dc565b82516040036105d457602083015160408401516105c986838361088e565b9350935050506105dc565b506000905060025b9250929050565b60008160048111156105f7576105f7610b5f565b036105ff5750565b600181600481111561061357610613610b5f565b036106655760405162461bcd60e51b815260206004820152601860248201527f45434453413a20696e76616c6964207369676e6174757265000000000000000060448201526064015b60405180910390fd5b600281600481111561067957610679610b5f565b036106c65760405162461bcd60e51b815260206004820152601f60248201527f45434453413a20696e76616c6964207369676e6174757265206c656e67746800604482015260640161065c565b60038160048111156106da576106da610b5f565b036107325760405162461bcd60e51b815260206004820152602260248201527f45434453413a20696e76616c6964207369676e6174757265202773272076616c604482015261756560f01b606482015260840161065c565b600481600481111561074657610746610b5f565b0361079e5760405162461bcd60e51b815260206004820152602260248201527f45434453413a20696e76616c6964207369676e6174757265202776272076616c604482015261756560f01b606482015260840161065c565b50565b6000807f7fffffffffffffffffffffffffffffff5d576e7357a4501ddfe92f46681b20a08311156107d85750600090506003610885565b8460ff16601b141580156107f057508460ff16601c14155b156108015750600090506004610885565b6040805160008082526020820180845289905260ff881692820192909252606081018690526080810185905260019060a0016020604051602081039080840390855afa158015610855573d6000803e3d6000fd5b5050604051601f1901519150506001600160a01b03811661087e57600060019250925050610885565b9150600090505b94509492505050565b6000806001600160ff1b038316816108ab60ff86901c601b610b75565b90506108b9878288856107a1565b935093505050935093915050565b6000602082840312156108d957600080fd5b813567ffffffffffffffff8111156108f057600080fd5b82016080818503121561030557600080fd5b80356001600160a01b038116811461091957600080fd5b919050565b60008083601f84011261093057600080fd5b50813567ffffffffffffffff81111561094857600080fd5b6020830191508360208260051b85010111156105dc57600080fd5b60008060008060006060868803121561097b57600080fd5b61098486610902565b9450602086013567ffffffffffffffff808211156109a157600080fd5b6109ad89838a0161091e565b909650945060408801359150808211156109c657600080fd5b506109d38882890161091e565b969995985093965092949392505050565b6000806000604084860312156109f957600080fd5b83359250602084013567ffffffffffffffff80821115610a1857600080fd5b818601915086601f830112610a2c57600080fd5b813581811115610a3b57600080fd5b876020828501011115610a4d57600080fd5b6020830194508093505050509250925092565b600060208284031215610a7257600080fd5b5035919050565b600060208284031215610a8b57600080fd5b61030582610902565b6000808335601e19843603018112610aab57600080fd5b83018035915067ffffffffffffffff821115610ac657600080fd5b6020019150600581901b36038213156105dc57600080fd5b60006001600160fb1b03831115610af457600080fd5b8260051b8083863760009401938452509192915050565b60006102a4828486610ade565b6000808335601e19843603018112610b2f57600080fd5b83018035915067ffffffffffffffff821115610b4a57600080fd5b6020019150368190038213156105dc57600080fd5b634e487b7160e01b600052602160045260246000fd5b60008219821115610b9657634e487b7160e01b600052601160045260246000fd5b50019056fea2646970667358221220072df3f6d90f71a76d561d1bd048c0d69542449606330ea3e1e3df366141d5d064736f6c634300080e0033",
					"opcodes": "PUSH2 0x140 PUSH1 0x40 MSTORE CALLVALUE DUP1 ISZERO PUSH2 0x11 JUMPI PUSH1 0x0 DUP1 REVERT JUMPDEST POP PUSH1 0x40 DUP1 MLOAD DUP1 DUP3 ADD DUP3 MSTORE PUSH1 0xB DUP2 MSTORE PUSH11 0x48616368694E6674536967 PUSH1 0xA8 SHL PUSH1 0x20 DUP1 DUP4 ADD SWAP2 DUP3 MSTORE DUP4 MLOAD DUP1 DUP6 ADD SWAP1 SWAP5 MSTORE PUSH1 0x1 DUP5 MSTORE PUSH1 0x31 PUSH1 0xF8 SHL SWAP1 DUP5 ADD MSTORE DUP2 MLOAD SWAP1 KECCAK256 PUSH1 0xE0 DUP2 SWAP1 MSTORE PUSH32 0xC89EFDAA54C0F20C7ADF612882DF0950F5A951637E0307CDCB4C672F298B8BC6 PUSH2 0x100 DUP2 SWAP1 MSTORE CHAINID PUSH1 0xA0 MSTORE SWAP2 SWAP3 SWAP2 PUSH32 0x8B73C3C69BB8FE3D512ECC4CF759CC79239F7B179B0FFACAA9A75D522B39400F PUSH2 0xF2 DUP2 DUP5 DUP5 PUSH1 0x40 DUP1 MLOAD PUSH1 0x20 DUP2 ADD DUP6 SWAP1 MSTORE SWAP1 DUP2 ADD DUP4 SWAP1 MSTORE PUSH1 0x60 DUP2 ADD DUP3 SWAP1 MSTORE CHAINID PUSH1 0x80 DUP3 ADD MSTORE ADDRESS PUSH1 0xA0 DUP3 ADD MSTORE PUSH1 0x0 SWAP1 PUSH1 0xC0 ADD PUSH1 0x40 MLOAD PUSH1 0x20 DUP2 DUP4 SUB SUB DUP2 MSTORE SWAP1 PUSH1 0x40 MSTORE DUP1 MLOAD SWAP1 PUSH1 0x20 ADD KECCAK256 SWAP1 POP SWAP4 SWAP3 POP POP POP JUMP JUMPDEST PUSH1 0x80 MSTORE ADDRESS PUSH1 0xC0 MSTORE PUSH2 0x120 MSTORE POP PUSH2 0x107 SWAP3 POP POP POP JUMP JUMPDEST PUSH1 0x80 MLOAD PUSH1 0xA0 MLOAD PUSH1 0xC0 MLOAD PUSH1 0xE0 MLOAD PUSH2 0x100 MLOAD PUSH2 0x120 MLOAD PUSH2 0xBD1 PUSH2 0x156 PUSH1 0x0 CODECOPY PUSH1 0x0 PUSH2 0x4D8 ADD MSTORE PUSH1 0x0 PUSH2 0x527 ADD MSTORE PUSH1 0x0 PUSH2 0x502 ADD MSTORE PUSH1 0x0 PUSH2 0x45B ADD MSTORE PUSH1 0x0 PUSH2 0x485 ADD MSTORE PUSH1 0x0 PUSH2 0x4AF ADD MSTORE PUSH2 0xBD1 PUSH1 0x0 RETURN INVALID PUSH1 0x80 PUSH1 0x40 MSTORE CALLVALUE DUP1 ISZERO PUSH2 0x10 JUMPI PUSH1 0x0 DUP1 REVERT JUMPDEST POP PUSH1 0x4 CALLDATASIZE LT PUSH2 0x62 JUMPI PUSH1 0x0 CALLDATALOAD PUSH1 0xE0 SHR DUP1 PUSH4 0x15ADC8FC EQ PUSH2 0x67 JUMPI DUP1 PUSH4 0x31201217 EQ PUSH2 0x8D JUMPI DUP1 PUSH4 0x34BD2C61 EQ PUSH2 0xA0 JUMPI DUP1 PUSH4 0xAC7EFDD7 EQ PUSH2 0xCB JUMPI DUP1 PUSH4 0xB8C9AB90 EQ PUSH2 0xDE JUMPI DUP1 PUSH4 0xC32A1F25 EQ PUSH2 0xF1 JUMPI JUMPDEST PUSH1 0x0 DUP1 REVERT JUMPDEST PUSH2 0x7A PUSH2 0x75 CALLDATASIZE PUSH1 0x4 PUSH2 0x8C7 JUMP JUMPDEST PUSH2 0x104 JUMP JUMPDEST PUSH1 0x40 MLOAD SWAP1 DUP2 MSTORE PUSH1 0x20 ADD JUMPDEST PUSH1 0x40 MLOAD DUP1 SWAP2 SUB SWAP1 RETURN JUMPDEST PUSH2 0x7A PUSH2 0x9B CALLDATASIZE PUSH1 0x4 PUSH2 0x963 JUMP JUMPDEST PUSH2 0x1F5 JUMP JUMPDEST PUSH2 0xB3 PUSH2 0xAE CALLDATASIZE PUSH1 0x4 PUSH2 0x9E4 JUMP JUMPDEST PUSH2 0x262 JUMP JUMPDEST PUSH1 0x40 MLOAD PUSH1 0x1 PUSH1 0x1 PUSH1 0xA0 SHL SUB SWAP1 SWAP2 AND DUP2 MSTORE PUSH1 0x20 ADD PUSH2 0x84 JUMP JUMPDEST PUSH2 0xB3 PUSH2 0xD9 CALLDATASIZE PUSH1 0x4 PUSH2 0x8C7 JUMP JUMPDEST PUSH2 0x2AC JUMP JUMPDEST PUSH2 0x7A PUSH2 0xEC CALLDATASIZE PUSH1 0x4 PUSH2 0x963 JUMP JUMPDEST PUSH2 0x30C JUMP JUMPDEST PUSH2 0x7A PUSH2 0xFF CALLDATASIZE PUSH1 0x4 PUSH2 0xA60 JUMP JUMPDEST PUSH2 0x3D5 JUMP JUMPDEST PUSH1 0x0 PUSH2 0x1EF PUSH32 0x798F2FC7CEC67EB8A3E992F2D864CC1F56F87A6E9130D64FE2B2D7693ECA2D2B PUSH2 0x137 PUSH1 0x20 DUP6 ADD DUP6 PUSH2 0xA79 JUMP JUMPDEST PUSH2 0x144 PUSH1 0x20 DUP7 ADD DUP7 PUSH2 0xA94 JUMP JUMPDEST PUSH1 0x40 MLOAD PUSH1 0x20 ADD PUSH2 0x155 SWAP3 SWAP2 SWAP1 PUSH2 0xB0B JUMP JUMPDEST PUSH1 0x40 MLOAD PUSH1 0x20 DUP2 DUP4 SUB SUB DUP2 MSTORE SWAP1 PUSH1 0x40 MSTORE DUP1 MLOAD SWAP1 PUSH1 0x20 ADD KECCAK256 DUP6 DUP1 PUSH1 0x40 ADD SWAP1 PUSH2 0x17B SWAP2 SWAP1 PUSH2 0xA94 JUMP JUMPDEST PUSH1 0x40 MLOAD PUSH1 0x20 ADD PUSH2 0x18C SWAP3 SWAP2 SWAP1 PUSH2 0xB0B JUMP JUMPDEST PUSH1 0x40 MLOAD PUSH1 0x20 DUP2 DUP4 SUB SUB DUP2 MSTORE SWAP1 PUSH1 0x40 MSTORE DUP1 MLOAD SWAP1 PUSH1 0x20 ADD KECCAK256 PUSH1 0x40 MLOAD PUSH1 0x20 ADD PUSH2 0x1D4 SWAP5 SWAP4 SWAP3 SWAP2 SWAP1 SWAP4 DUP5 MSTORE PUSH1 0x1 PUSH1 0x1 PUSH1 0xA0 SHL SUB SWAP3 SWAP1 SWAP3 AND PUSH1 0x20 DUP5 ADD MSTORE PUSH1 0x40 DUP4 ADD MSTORE PUSH1 0x60 DUP3 ADD MSTORE PUSH1 0x80 ADD SWAP1 JUMP JUMPDEST PUSH1 0x40 MLOAD PUSH1 0x20 DUP2 DUP4 SUB SUB DUP2 MSTORE SWAP1 PUSH1 0x40 MSTORE DUP1 MLOAD SWAP1 PUSH1 0x20 ADD KECCAK256 PUSH2 0x3DC JUMP JUMPDEST SWAP3 SWAP2 POP POP JUMP JUMPDEST PUSH1 0x0 PUSH2 0x258 PUSH32 0x798F2FC7CEC67EB8A3E992F2D864CC1F56F87A6E9130D64FE2B2D7693ECA2D2B DUP8 DUP8 DUP8 PUSH1 0x40 MLOAD PUSH1 0x20 ADD PUSH2 0x22F SWAP3 SWAP2 SWAP1 PUSH2 0xB0B JUMP JUMPDEST PUSH1 0x40 MLOAD PUSH1 0x20 DUP2 DUP4 SUB SUB DUP2 MSTORE SWAP1 PUSH1 0x40 MSTORE DUP1 MLOAD SWAP1 PUSH1 0x20 ADD KECCAK256 DUP7 DUP7 PUSH1 0x40 MLOAD PUSH1 0x20 ADD PUSH2 0x18C SWAP3 SWAP2 SWAP1 PUSH2 0xB0B JUMP JUMPDEST SWAP7 SWAP6 POP POP POP POP POP POP JUMP JUMPDEST PUSH1 0x0 PUSH2 0x2A4 DUP5 DUP5 DUP5 DUP1 DUP1 PUSH1 0x1F ADD PUSH1 0x20 DUP1 SWAP2 DIV MUL PUSH1 0x20 ADD PUSH1 0x40 MLOAD SWAP1 DUP2 ADD PUSH1 0x40 MSTORE DUP1 SWAP4 SWAP3 SWAP2 SWAP1 DUP2 DUP2 MSTORE PUSH1 0x20 ADD DUP4 DUP4 DUP1 DUP3 DUP5 CALLDATACOPY PUSH1 0x0 SWAP3 ADD SWAP2 SWAP1 SWAP2 MSTORE POP PUSH2 0x42A SWAP3 POP POP POP JUMP JUMPDEST SWAP5 SWAP4 POP POP POP POP JUMP JUMPDEST PUSH1 0x0 DUP1 PUSH2 0x2B8 DUP4 PUSH2 0x104 JUMP JUMPDEST SWAP1 POP PUSH2 0x305 DUP2 PUSH2 0x2CB PUSH1 0x60 DUP7 ADD DUP7 PUSH2 0xB18 JUMP JUMPDEST DUP1 DUP1 PUSH1 0x1F ADD PUSH1 0x20 DUP1 SWAP2 DIV MUL PUSH1 0x20 ADD PUSH1 0x40 MLOAD SWAP1 DUP2 ADD PUSH1 0x40 MSTORE DUP1 SWAP4 SWAP3 SWAP2 SWAP1 DUP2 DUP2 MSTORE PUSH1 0x20 ADD DUP4 DUP4 DUP1 DUP3 DUP5 CALLDATACOPY PUSH1 0x0 SWAP3 ADD SWAP2 SWAP1 SWAP2 MSTORE POP PUSH2 0x42A SWAP3 POP POP POP JUMP JUMPDEST SWAP4 SWAP3 POP POP POP JUMP JUMPDEST PUSH1 0x0 PUSH32 0x798F2FC7CEC67EB8A3E992F2D864CC1F56F87A6E9130D64FE2B2D7693ECA2D2B DUP7 DUP7 DUP7 PUSH1 0x40 MLOAD PUSH1 0x20 ADD PUSH2 0x343 SWAP3 SWAP2 SWAP1 PUSH2 0xB0B JUMP JUMPDEST PUSH1 0x40 MLOAD PUSH1 0x20 DUP2 DUP4 SUB SUB DUP2 MSTORE SWAP1 PUSH1 0x40 MSTORE DUP1 MLOAD SWAP1 PUSH1 0x20 ADD KECCAK256 DUP6 DUP6 PUSH1 0x40 MLOAD PUSH1 0x20 ADD PUSH2 0x36C SWAP3 SWAP2 SWAP1 PUSH2 0xB0B JUMP JUMPDEST PUSH1 0x40 MLOAD PUSH1 0x20 DUP2 DUP4 SUB SUB DUP2 MSTORE SWAP1 PUSH1 0x40 MSTORE DUP1 MLOAD SWAP1 PUSH1 0x20 ADD KECCAK256 PUSH1 0x40 MLOAD PUSH1 0x20 ADD PUSH2 0x3B4 SWAP5 SWAP4 SWAP3 SWAP2 SWAP1 SWAP4 DUP5 MSTORE PUSH1 0x1 PUSH1 0x1 PUSH1 0xA0 SHL SUB SWAP3 SWAP1 SWAP3 AND PUSH1 0x20 DUP5 ADD MSTORE PUSH1 0x40 DUP4 ADD MSTORE PUSH1 0x60 DUP3 ADD MSTORE PUSH1 0x80 ADD SWAP1 JUMP JUMPDEST PUSH1 0x40 MLOAD PUSH1 0x20 DUP2 DUP4 SUB SUB DUP2 MSTORE SWAP1 PUSH1 0x40 MSTORE DUP1 MLOAD SWAP1 PUSH1 0x20 ADD KECCAK256 SWAP1 POP SWAP6 SWAP5 POP POP POP POP POP JUMP JUMPDEST PUSH1 0x0 PUSH2 0x1EF DUP3 JUMPDEST PUSH1 0x0 PUSH2 0x1EF PUSH2 0x3E9 PUSH2 0x44E JUMP JUMPDEST DUP4 PUSH1 0x40 MLOAD PUSH2 0x1901 PUSH1 0xF0 SHL PUSH1 0x20 DUP3 ADD MSTORE PUSH1 0x22 DUP2 ADD DUP4 SWAP1 MSTORE PUSH1 0x42 DUP2 ADD DUP3 SWAP1 MSTORE PUSH1 0x0 SWAP1 PUSH1 0x62 ADD PUSH1 0x40 MLOAD PUSH1 0x20 DUP2 DUP4 SUB SUB DUP2 MSTORE SWAP1 PUSH1 0x40 MSTORE DUP1 MLOAD SWAP1 PUSH1 0x20 ADD KECCAK256 SWAP1 POP SWAP3 SWAP2 POP POP JUMP JUMPDEST PUSH1 0x0 DUP1 PUSH1 0x0 PUSH2 0x439 DUP6 DUP6 PUSH2 0x575 JUMP JUMPDEST SWAP2 POP SWAP2 POP PUSH2 0x446 DUP2 PUSH2 0x5E3 JUMP JUMPDEST POP SWAP4 SWAP3 POP POP POP JUMP JUMPDEST PUSH1 0x0 ADDRESS PUSH1 0x1 PUSH1 0x1 PUSH1 0xA0 SHL SUB PUSH32 0x0 AND EQ DUP1 ISZERO PUSH2 0x4A7 JUMPI POP PUSH32 0x0 CHAINID EQ JUMPDEST ISZERO PUSH2 0x4D1 JUMPI POP PUSH32 0x0 SWAP1 JUMP JUMPDEST POP PUSH1 0x40 DUP1 MLOAD PUSH32 0x0 PUSH1 0x20 DUP1 DUP4 ADD SWAP2 SWAP1 SWAP2 MSTORE PUSH32 0x0 DUP3 DUP5 ADD MSTORE PUSH32 0x0 PUSH1 0x60 DUP4 ADD MSTORE CHAINID PUSH1 0x80 DUP4 ADD MSTORE ADDRESS PUSH1 0xA0 DUP1 DUP5 ADD SWAP2 SWAP1 SWAP2 MSTORE DUP4 MLOAD DUP1 DUP5 SUB SWAP1 SWAP2 ADD DUP2 MSTORE PUSH1 0xC0 SWAP1 SWAP3 ADD SWAP1 SWAP3 MSTORE DUP1 MLOAD SWAP2 ADD KECCAK256 SWAP1 JUMP JUMPDEST PUSH1 0x0 DUP1 DUP3 MLOAD PUSH1 0x41 SUB PUSH2 0x5AB JUMPI PUSH1 0x20 DUP4 ADD MLOAD PUSH1 0x40 DUP5 ADD MLOAD PUSH1 0x60 DUP6 ADD MLOAD PUSH1 0x0 BYTE PUSH2 0x59F DUP8 DUP3 DUP6 DUP6 PUSH2 0x7A1 JUMP JUMPDEST SWAP5 POP SWAP5 POP POP POP POP PUSH2 0x5DC JUMP JUMPDEST DUP3 MLOAD PUSH1 0x40 SUB PUSH2 0x5D4 JUMPI PUSH1 0x20 DUP4 ADD MLOAD PUSH1 0x40 DUP5 ADD MLOAD PUSH2 0x5C9 DUP7 DUP4 DUP4 PUSH2 0x88E JUMP JUMPDEST SWAP4 POP SWAP4 POP POP POP PUSH2 0x5DC JUMP JUMPDEST POP PUSH1 0x0 SWAP1 POP PUSH1 0x2 JUMPDEST SWAP3 POP SWAP3 SWAP1 POP JUMP JUMPDEST PUSH1 0x0 DUP2 PUSH1 0x4 DUP2 GT ISZERO PUSH2 0x5F7 JUMPI PUSH2 0x5F7 PUSH2 0xB5F JUMP JUMPDEST SUB PUSH2 0x5FF JUMPI POP JUMP JUMPDEST PUSH1 0x1 DUP2 PUSH1 0x4 DUP2 GT ISZERO PUSH2 0x613 JUMPI PUSH2 0x613 PUSH2 0xB5F JUMP JUMPDEST SUB PUSH2 0x665 JUMPI PUSH1 0x40 MLOAD PUSH3 0x461BCD PUSH1 0xE5 SHL DUP2 MSTORE PUSH1 0x20 PUSH1 0x4 DUP3 ADD MSTORE PUSH1 0x18 PUSH1 0x24 DUP3 ADD MSTORE PUSH32 0x45434453413A20696E76616C6964207369676E61747572650000000000000000 PUSH1 0x44 DUP3 ADD MSTORE PUSH1 0x64 ADD JUMPDEST PUSH1 0x40 MLOAD DUP1 SWAP2 SUB SWAP1 REVERT JUMPDEST PUSH1 0x2 DUP2 PUSH1 0x4 DUP2 GT ISZERO PUSH2 0x679 JUMPI PUSH2 0x679 PUSH2 0xB5F JUMP JUMPDEST SUB PUSH2 0x6C6 JUMPI PUSH1 0x40 MLOAD PUSH3 0x461BCD PUSH1 0xE5 SHL DUP2 MSTORE PUSH1 0x20 PUSH1 0x4 DUP3 ADD MSTORE PUSH1 0x1F PUSH1 0x24 DUP3 ADD MSTORE PUSH32 0x45434453413A20696E76616C6964207369676E6174757265206C656E67746800 PUSH1 0x44 DUP3 ADD MSTORE PUSH1 0x64 ADD PUSH2 0x65C JUMP JUMPDEST PUSH1 0x3 DUP2 PUSH1 0x4 DUP2 GT ISZERO PUSH2 0x6DA JUMPI PUSH2 0x6DA PUSH2 0xB5F JUMP JUMPDEST SUB PUSH2 0x732 JUMPI PUSH1 0x40 MLOAD PUSH3 0x461BCD PUSH1 0xE5 SHL DUP2 MSTORE PUSH1 0x20 PUSH1 0x4 DUP3 ADD MSTORE PUSH1 0x22 PUSH1 0x24 DUP3 ADD MSTORE PUSH32 0x45434453413A20696E76616C6964207369676E6174757265202773272076616C PUSH1 0x44 DUP3 ADD MSTORE PUSH2 0x7565 PUSH1 0xF0 SHL PUSH1 0x64 DUP3 ADD MSTORE PUSH1 0x84 ADD PUSH2 0x65C JUMP JUMPDEST PUSH1 0x4 DUP2 PUSH1 0x4 DUP2 GT ISZERO PUSH2 0x746 JUMPI PUSH2 0x746 PUSH2 0xB5F JUMP JUMPDEST SUB PUSH2 0x79E JUMPI PUSH1 0x40 MLOAD PUSH3 0x461BCD PUSH1 0xE5 SHL DUP2 MSTORE PUSH1 0x20 PUSH1 0x4 DUP3 ADD MSTORE PUSH1 0x22 PUSH1 0x24 DUP3 ADD MSTORE PUSH32 0x45434453413A20696E76616C6964207369676E6174757265202776272076616C PUSH1 0x44 DUP3 ADD MSTORE PUSH2 0x7565 PUSH1 0xF0 SHL PUSH1 0x64 DUP3 ADD MSTORE PUSH1 0x84 ADD PUSH2 0x65C JUMP JUMPDEST POP JUMP JUMPDEST PUSH1 0x0 DUP1 PUSH32 0x7FFFFFFFFFFFFFFFFFFFFFFFFFFFFFFF5D576E7357A4501DDFE92F46681B20A0 DUP4 GT ISZERO PUSH2 0x7D8 JUMPI POP PUSH1 0x0 SWAP1 POP PUSH1 0x3 PUSH2 0x885 JUMP JUMPDEST DUP5 PUSH1 0xFF AND PUSH1 0x1B EQ ISZERO DUP1 ISZERO PUSH2 0x7F0 JUMPI POP DUP5 PUSH1 0xFF AND PUSH1 0x1C EQ ISZERO JUMPDEST ISZERO PUSH2 0x801 JUMPI POP PUSH1 0x0 SWAP1 POP PUSH1 0x4 PUSH2 0x885 JUMP JUMPDEST PUSH1 0x40 DUP1 MLOAD PUSH1 0x0 DUP1 DUP3 MSTORE PUSH1 0x20 DUP3 ADD DUP1 DUP5 MSTORE DUP10 SWAP1 MSTORE PUSH1 0xFF DUP9 AND SWAP3 DUP3 ADD SWAP3 SWAP1 SWAP3 MSTORE PUSH1 0x60 DUP2 ADD DUP7 SWAP1 MSTORE PUSH1 0x80 DUP2 ADD DUP6 SWAP1 MSTORE PUSH1 0x1 SWAP1 PUSH1 0xA0 ADD PUSH1 0x20 PUSH1 0x40 MLOAD PUSH1 0x20 DUP2 SUB SWAP1 DUP1 DUP5 SUB SWAP1 DUP6 GAS STATICCALL ISZERO DUP1 ISZERO PUSH2 0x855 JUMPI RETURNDATASIZE PUSH1 0x0 DUP1 RETURNDATACOPY RETURNDATASIZE PUSH1 0x0 REVERT JUMPDEST POP POP PUSH1 0x40 MLOAD PUSH1 0x1F NOT ADD MLOAD SWAP2 POP POP PUSH1 0x1 PUSH1 0x1 PUSH1 0xA0 SHL SUB DUP2 AND PUSH2 0x87E JUMPI PUSH1 0x0 PUSH1 0x1 SWAP3 POP SWAP3 POP POP PUSH2 0x885 JUMP JUMPDEST SWAP2 POP PUSH1 0x0 SWAP1 POP JUMPDEST SWAP5 POP SWAP5 SWAP3 POP POP POP JUMP JUMPDEST PUSH1 0x0 DUP1 PUSH1 0x1 PUSH1 0x1 PUSH1 0xFF SHL SUB DUP4 AND DUP2 PUSH2 0x8AB PUSH1 0xFF DUP7 SWAP1 SHR PUSH1 0x1B PUSH2 0xB75 JUMP JUMPDEST SWAP1 POP PUSH2 0x8B9 DUP8 DUP3 DUP9 DUP6 PUSH2 0x7A1 JUMP JUMPDEST SWAP4 POP SWAP4 POP POP POP SWAP4 POP SWAP4 SWAP2 POP POP JUMP JUMPDEST PUSH1 0x0 PUSH1 0x20 DUP3 DUP5 SUB SLT ISZERO PUSH2 0x8D9 JUMPI PUSH1 0x0 DUP1 REVERT JUMPDEST DUP2 CALLDATALOAD PUSH8 0xFFFFFFFFFFFFFFFF DUP2 GT ISZERO PUSH2 0x8F0 JUMPI PUSH1 0x0 DUP1 REVERT JUMPDEST DUP3 ADD PUSH1 0x80 DUP2 DUP6 SUB SLT ISZERO PUSH2 0x305 JUMPI PUSH1 0x0 DUP1 REVERT JUMPDEST DUP1 CALLDATALOAD PUSH1 0x1 PUSH1 0x1 PUSH1 0xA0 SHL SUB DUP2 AND DUP2 EQ PUSH2 0x919 JUMPI PUSH1 0x0 DUP1 REVERT JUMPDEST SWAP2 SWAP1 POP JUMP JUMPDEST PUSH1 0x0 DUP1 DUP4 PUSH1 0x1F DUP5 ADD SLT PUSH2 0x930 JUMPI PUSH1 0x0 DUP1 REVERT JUMPDEST POP DUP2 CALLDATALOAD PUSH8 0xFFFFFFFFFFFFFFFF DUP2 GT ISZERO PUSH2 0x948 JUMPI PUSH1 0x0 DUP1 REVERT JUMPDEST PUSH1 0x20 DUP4 ADD SWAP2 POP DUP4 PUSH1 0x20 DUP3 PUSH1 0x5 SHL DUP6 ADD ADD GT ISZERO PUSH2 0x5DC JUMPI PUSH1 0x0 DUP1 REVERT JUMPDEST PUSH1 0x0 DUP1 PUSH1 0x0 DUP1 PUSH1 0x0 PUSH1 0x60 DUP7 DUP9 SUB SLT ISZERO PUSH2 0x97B JUMPI PUSH1 0x0 DUP1 REVERT JUMPDEST PUSH2 0x984 DUP7 PUSH2 0x902 JUMP JUMPDEST SWAP5 POP PUSH1 0x20 DUP7 ADD CALLDATALOAD PUSH8 0xFFFFFFFFFFFFFFFF DUP1 DUP3 GT ISZERO PUSH2 0x9A1 JUMPI PUSH1 0x0 DUP1 REVERT JUMPDEST PUSH2 0x9AD DUP10 DUP4 DUP11 ADD PUSH2 0x91E JUMP JUMPDEST SWAP1 SWAP7 POP SWAP5 POP PUSH1 0x40 DUP9 ADD CALLDATALOAD SWAP2 POP DUP1 DUP3 GT ISZERO PUSH2 0x9C6 JUMPI PUSH1 0x0 DUP1 REVERT JUMPDEST POP PUSH2 0x9D3 DUP9 DUP3 DUP10 ADD PUSH2 0x91E JUMP JUMPDEST SWAP7 SWAP10 SWAP6 SWAP9 POP SWAP4 SWAP7 POP SWAP3 SWAP5 SWAP4 SWAP3 POP POP POP JUMP JUMPDEST PUSH1 0x0 DUP1 PUSH1 0x0 PUSH1 0x40 DUP5 DUP7 SUB SLT ISZERO PUSH2 0x9F9 JUMPI PUSH1 0x0 DUP1 REVERT JUMPDEST DUP4 CALLDATALOAD SWAP3 POP PUSH1 0x20 DUP5 ADD CALLDATALOAD PUSH8 0xFFFFFFFFFFFFFFFF DUP1 DUP3 GT ISZERO PUSH2 0xA18 JUMPI PUSH1 0x0 DUP1 REVERT JUMPDEST DUP2 DUP7 ADD SWAP2 POP DUP7 PUSH1 0x1F DUP4 ADD SLT PUSH2 0xA2C JUMPI PUSH1 0x0 DUP1 REVERT JUMPDEST DUP2 CALLDATALOAD DUP2 DUP2 GT ISZERO PUSH2 0xA3B JUMPI PUSH1 0x0 DUP1 REVERT JUMPDEST DUP8 PUSH1 0x20 DUP3 DUP6 ADD ADD GT ISZERO PUSH2 0xA4D JUMPI PUSH1 0x0 DUP1 REVERT JUMPDEST PUSH1 0x20 DUP4 ADD SWAP5 POP DUP1 SWAP4 POP POP POP POP SWAP3 POP SWAP3 POP SWAP3 JUMP JUMPDEST PUSH1 0x0 PUSH1 0x20 DUP3 DUP5 SUB SLT ISZERO PUSH2 0xA72 JUMPI PUSH1 0x0 DUP1 REVERT JUMPDEST POP CALLDATALOAD SWAP2 SWAP1 POP JUMP JUMPDEST PUSH1 0x0 PUSH1 0x20 DUP3 DUP5 SUB SLT ISZERO PUSH2 0xA8B JUMPI PUSH1 0x0 DUP1 REVERT JUMPDEST PUSH2 0x305 DUP3 PUSH2 0x902 JUMP JUMPDEST PUSH1 0x0 DUP1 DUP4 CALLDATALOAD PUSH1 0x1E NOT DUP5 CALLDATASIZE SUB ADD DUP2 SLT PUSH2 0xAAB JUMPI PUSH1 0x0 DUP1 REVERT JUMPDEST DUP4 ADD DUP1 CALLDATALOAD SWAP2 POP PUSH8 0xFFFFFFFFFFFFFFFF DUP3 GT ISZERO PUSH2 0xAC6 JUMPI PUSH1 0x0 DUP1 REVERT JUMPDEST PUSH1 0x20 ADD SWAP2 POP PUSH1 0x5 DUP2 SWAP1 SHL CALLDATASIZE SUB DUP3 SGT ISZERO PUSH2 0x5DC JUMPI PUSH1 0x0 DUP1 REVERT JUMPDEST PUSH1 0x0 PUSH1 0x1 PUSH1 0x1 PUSH1 0xFB SHL SUB DUP4 GT ISZERO PUSH2 0xAF4 JUMPI PUSH1 0x0 DUP1 REVERT JUMPDEST DUP3 PUSH1 0x5 SHL DUP1 DUP4 DUP7 CALLDATACOPY PUSH1 0x0 SWAP5 ADD SWAP4 DUP5 MSTORE POP SWAP2 SWAP3 SWAP2 POP POP JUMP JUMPDEST PUSH1 0x0 PUSH2 0x2A4 DUP3 DUP5 DUP7 PUSH2 0xADE JUMP JUMPDEST PUSH1 0x0 DUP1 DUP4 CALLDATALOAD PUSH1 0x1E NOT DUP5 CALLDATASIZE SUB ADD DUP2 SLT PUSH2 0xB2F JUMPI PUSH1 0x0 DUP1 REVERT JUMPDEST DUP4 ADD DUP1 CALLDATALOAD SWAP2 POP PUSH8 0xFFFFFFFFFFFFFFFF DUP3 GT ISZERO PUSH2 0xB4A JUMPI PUSH1 0x0 DUP1 REVERT JUMPDEST PUSH1 0x20 ADD SWAP2 POP CALLDATASIZE DUP2 SWAP1 SUB DUP3 SGT ISZERO PUSH2 0x5DC JUMPI PUSH1 0x0 DUP1 REVERT JUMPDEST PUSH4 0x4E487B71 PUSH1 0xE0 SHL PUSH1 0x0 MSTORE PUSH1 0x21 PUSH1 0x4 MSTORE PUSH1 0x24 PUSH1 0x0 REVERT JUMPDEST PUSH1 0x0 DUP3 NOT DUP3 GT ISZERO PUSH2 0xB96 JUMPI PUSH4 0x4E487B71 PUSH1 0xE0 SHL PUSH1 0x0 MSTORE PUSH1 0x11 PUSH1 0x4 MSTORE PUSH1 0x24 PUSH1 0x0 REVERT JUMPDEST POP ADD SWAP1 JUMP INVALID LOG2 PUSH5 0x6970667358 0x22 SLT KECCAK256 SMOD 0x2D RETURN 0xF6 0xD9 0xF PUSH18 0xA76D561D1BD048C0D69542449606330EA3E1 0xE3 0xDF CALLDATASIZE PUSH2 0x41D5 0xD0 PUSH5 0x736F6C6343 STOP ADDMOD 0xE STOP CALLER "
				},
				"gasEstimates": {
					"creation": {
						"codeDepositCost": "605000",
						"executionCost": "infinite",
						"totalCost": "infinite"
					},
					"external": {
						"_hash((address,uint256[],bytes32[],bytes))": "infinite",
						"hashedData(bytes32)": "infinite",
						"structHash(address,uint256[],bytes32[])": "infinite",
						"testHash(address,uint256[],bytes32[])": "infinite",
						"testSigner(bytes32,bytes)": "infinite",
						"verifySigner((address,uint256[],bytes32[],bytes))": "infinite"
					}
				},
				"methodIdentifiers": {
					"_hash((address,uint256[],bytes32[],bytes))": "15adc8fc",
					"hashedData(bytes32)": "c32a1f25",
					"structHash(address,uint256[],bytes32[])": "b8c9ab90",
					"testHash(address,uint256[],bytes32[])": "31201217",
					"testSigner(bytes32,bytes)": "34bd2c61",
					"verifySigner((address,uint256[],bytes32[],bytes))": "ac7efdd7"
				}
			},
			"storageLayout": {
				"storage": [],
				"types": null
			},
			"userdoc": {
				"kind": "user",
				"methods": {},
				"version": 1
			}
		}
	}
}