{
	"contracts/HachiNFT.sol": {
		"ERC1155Ownable": {
			"abi": [
				{
					"inputs": [],
					"stateMutability": "nonpayable",
					"type": "constructor"
				},
				{
					"anonymous": false,
					"inputs": [
						{
							"indexed": true,
							"internalType": "address",
							"name": "account",
							"type": "address"
						},
						{
							"indexed": true,
							"internalType": "address",
							"name": "operator",
							"type": "address"
						},
						{
							"indexed": false,
							"internalType": "bool",
							"name": "approved",
							"type": "bool"
						}
					],
					"name": "ApprovalForAll",
					"type": "event"
				},
				{
					"anonymous": false,
					"inputs": [
						{
							"indexed": true,
							"internalType": "address",
							"name": "previousOwner",
							"type": "address"
						},
						{
							"indexed": true,
							"internalType": "address",
							"name": "newOwner",
							"type": "address"
						}
					],
					"name": "OwnershipTransferred",
					"type": "event"
				},
				{
					"anonymous": false,
					"inputs": [
						{
							"indexed": false,
							"internalType": "address",
							"name": "account",
							"type": "address"
						}
					],
					"name": "Paused",
					"type": "event"
				},
				{
					"anonymous": false,
					"inputs": [
						{
							"indexed": true,
							"internalType": "address",
							"name": "operator",
							"type": "address"
						},
						{
							"indexed": true,
							"internalType": "address",
							"name": "from",
							"type": "address"
						},
						{
							"indexed": true,
							"internalType": "address",
							"name": "to",
							"type": "address"
						},
						{
							"indexed": false,
							"internalType": "uint256[]",
							"name": "ids",
							"type": "uint256[]"
						},
						{
							"indexed": false,
							"internalType": "uint256[]",
							"name": "values",
							"type": "uint256[]"
						}
					],
					"name": "TransferBatch",
					"type": "event"
				},
				{
					"anonymous": false,
					"inputs": [
						{
							"indexed": true,
							"internalType": "address",
							"name": "operator",
							"type": "address"
						},
						{
							"indexed": true,
							"internalType": "address",
							"name": "from",
							"type": "address"
						},
						{
							"indexed": true,
							"internalType": "address",
							"name": "to",
							"type": "address"
						},
						{
							"indexed": false,
							"internalType": "uint256",
							"name": "id",
							"type": "uint256"
						},
						{
							"indexed": false,
							"internalType": "uint256",
							"name": "value",
							"type": "uint256"
						}
					],
					"name": "TransferSingle",
					"type": "event"
				},
				{
					"anonymous": false,
					"inputs": [
						{
							"indexed": false,
							"internalType": "string",
							"name": "value",
							"type": "string"
						},
						{
							"indexed": true,
							"internalType": "uint256",
							"name": "id",
							"type": "uint256"
						}
					],
					"name": "URI",
					"type": "event"
				},
				{
					"anonymous": false,
					"inputs": [
						{
							"indexed": false,
							"internalType": "address",
							"name": "account",
							"type": "address"
						}
					],
					"name": "Unpaused",
					"type": "event"
				},
				{
					"inputs": [
						{
							"internalType": "address",
							"name": "account",
							"type": "address"
						},
						{
							"internalType": "uint256",
							"name": "id",
							"type": "uint256"
						}
					],
					"name": "balanceOf",
					"outputs": [
						{
							"internalType": "uint256",
							"name": "",
							"type": "uint256"
						}
					],
					"stateMutability": "view",
					"type": "function"
				},
				{
					"inputs": [
						{
							"internalType": "address[]",
							"name": "accounts",
							"type": "address[]"
						},
						{
							"internalType": "uint256[]",
							"name": "ids",
							"type": "uint256[]"
						}
					],
					"name": "balanceOfBatch",
					"outputs": [
						{
							"internalType": "uint256[]",
							"name": "",
							"type": "uint256[]"
						}
					],
					"stateMutability": "view",
					"type": "function"
				},
				{
					"inputs": [
						{
							"internalType": "address",
							"name": "account",
							"type": "address"
						},
						{
							"internalType": "uint256",
							"name": "id",
							"type": "uint256"
						},
						{
							"internalType": "uint256",
							"name": "value",
							"type": "uint256"
						}
					],
					"name": "burn",
					"outputs": [],
					"stateMutability": "nonpayable",
					"type": "function"
				},
				{
					"inputs": [
						{
							"internalType": "address",
							"name": "account",
							"type": "address"
						},
						{
							"internalType": "uint256[]",
							"name": "ids",
							"type": "uint256[]"
						},
						{
							"internalType": "uint256[]",
							"name": "values",
							"type": "uint256[]"
						}
					],
					"name": "burnBatch",
					"outputs": [],
					"stateMutability": "nonpayable",
					"type": "function"
				},
				{
					"inputs": [
						{
							"internalType": "address",
							"name": "account",
							"type": "address"
						},
						{
							"internalType": "address",
							"name": "operator",
							"type": "address"
						}
					],
					"name": "isApprovedForAll",
					"outputs": [
						{
							"internalType": "bool",
							"name": "",
							"type": "bool"
						}
					],
					"stateMutability": "view",
					"type": "function"
				},
				{
					"inputs": [
						{
							"internalType": "address",
							"name": "account",
							"type": "address"
						},
						{
							"internalType": "uint256",
							"name": "id",
							"type": "uint256"
						},
						{
							"internalType": "uint256",
							"name": "amount",
							"type": "uint256"
						},
						{
							"internalType": "bytes",
							"name": "data",
							"type": "bytes"
						}
					],
					"name": "mint",
					"outputs": [],
					"stateMutability": "nonpayable",
					"type": "function"
				},
				{
					"inputs": [
						{
							"internalType": "address",
							"name": "to",
							"type": "address"
						},
						{
							"internalType": "uint256[]",
							"name": "ids",
							"type": "uint256[]"
						},
						{
							"internalType": "uint256[]",
							"name": "amounts",
							"type": "uint256[]"
						},
						{
							"internalType": "bytes",
							"name": "data",
							"type": "bytes"
						}
					],
					"name": "mintBatch",
					"outputs": [],
					"stateMutability": "nonpayable",
					"type": "function"
				},
				{
					"inputs": [],
					"name": "owner",
					"outputs": [
						{
							"internalType": "address",
							"name": "",
							"type": "address"
						}
					],
					"stateMutability": "view",
					"type": "function"
				},
				{
					"inputs": [],
					"name": "pause",
					"outputs": [],
					"stateMutability": "nonpayable",
					"type": "function"
				},
				{
					"inputs": [],
					"name": "paused",
					"outputs": [
						{
							"internalType": "bool",
							"name": "",
							"type": "bool"
						}
					],
					"stateMutability": "view",
					"type": "function"
				},
				{
					"inputs": [],
					"name": "renounceOwnership",
					"outputs": [],
					"stateMutability": "nonpayable",
					"type": "function"
				},
				{
					"inputs": [
						{
							"internalType": "address",
							"name": "from",
							"type": "address"
						},
						{
							"internalType": "address",
							"name": "to",
							"type": "address"
						},
						{
							"internalType": "uint256[]",
							"name": "ids",
							"type": "uint256[]"
						},
						{
							"internalType": "uint256[]",
							"name": "amounts",
							"type": "uint256[]"
						},
						{
							"internalType": "bytes",
							"name": "data",
							"type": "bytes"
						}
					],
					"name": "safeBatchTransferFrom",
					"outputs": [],
					"stateMutability": "nonpayable",
					"type": "function"
				},
				{
					"inputs": [
						{
							"internalType": "address",
							"name": "from",
							"type": "address"
						},
						{
							"internalType": "address",
							"name": "to",
							"type": "address"
						},
						{
							"internalType": "uint256",
							"name": "id",
							"type": "uint256"
						},
						{
							"internalType": "uint256",
							"name": "amount",
							"type": "uint256"
						},
						{
							"internalType": "bytes",
							"name": "data",
							"type": "bytes"
						}
					],
					"name": "safeTransferFrom",
					"outputs": [],
					"stateMutability": "nonpayable",
					"type": "function"
				},
				{
					"inputs": [
						{
							"internalType": "address",
							"name": "operator",
							"type": "address"
						},
						{
							"internalType": "bool",
							"name": "approved",
							"type": "bool"
						}
					],
					"name": "setApprovalForAll",
					"outputs": [],
					"stateMutability": "nonpayable",
					"type": "function"
				},
				{
					"inputs": [
						{
							"internalType": "string",
							"name": "newuri",
							"type": "string"
						}
					],
					"name": "setURI",
					"outputs": [],
					"stateMutability": "nonpayable",
					"type": "function"
				},
				{
					"inputs": [
						{
							"internalType": "bytes4",
							"name": "interfaceId",
							"type": "bytes4"
						}
					],
					"name": "supportsInterface",
					"outputs": [
						{
							"internalType": "bool",
							"name": "",
							"type": "bool"
						}
					],
					"stateMutability": "view",
					"type": "function"
				},
				{
					"inputs": [
						{
							"internalType": "address",
							"name": "newOwner",
							"type": "address"
						}
					],
					"name": "transferOwnership",
					"outputs": [],
					"stateMutability": "nonpayable",
					"type": "function"
				},
				{
					"inputs": [],
					"name": "unpause",
					"outputs": [],
					"stateMutability": "nonpayable",
					"type": "function"
				},
				{
					"inputs": [
						{
							"internalType": "uint256",
							"name": "",
							"type": "uint256"
						}
					],
					"name": "uri",
					"outputs": [
						{
							"internalType": "string",
							"name": "",
							"type": "string"
						}
					],
					"stateMutability": "view",
					"type": "function"
				}
			],
			"devdoc": {
				"custom:security-contact": "thesidehustlersnft@gmail.com",
				"kind": "dev",
				"methods": {
					"balanceOf(address,uint256)": {
						"details": "See {IERC1155-balanceOf}. Requirements: - `account` cannot be the zero address."
					},
					"balanceOfBatch(address[],uint256[])": {
						"details": "See {IERC1155-balanceOfBatch}. Requirements: - `accounts` and `ids` must have the same length."
					},
					"isApprovedForAll(address,address)": {
						"details": "See {IERC1155-isApprovedForAll}."
					},
					"owner()": {
						"details": "Returns the address of the current owner."
					},
					"paused()": {
						"details": "Returns true if the contract is paused, and false otherwise."
					},
					"renounceOwnership()": {
						"details": "Leaves the contract without owner. It will not be possible to call `onlyOwner` functions anymore. Can only be called by the current owner. NOTE: Renouncing ownership will leave the contract without an owner, thereby removing any functionality that is only available to the owner."
					},
					"safeBatchTransferFrom(address,address,uint256[],uint256[],bytes)": {
						"details": "See {IERC1155-safeBatchTransferFrom}."
					},
					"safeTransferFrom(address,address,uint256,uint256,bytes)": {
						"details": "See {IERC1155-safeTransferFrom}."
					},
					"setApprovalForAll(address,bool)": {
						"details": "See {IERC1155-setApprovalForAll}."
					},
					"supportsInterface(bytes4)": {
						"details": "See {IERC165-supportsInterface}."
					},
					"transferOwnership(address)": {
						"details": "Transfers ownership of the contract to a new account (`newOwner`). Can only be called by the current owner."
					},
					"uri(uint256)": {
						"details": "See {IERC1155MetadataURI-uri}. This implementation returns the same URI for *all* token types. It relies on the token type ID substitution mechanism https://eips.ethereum.org/EIPS/eip-1155#metadata[defined in the EIP]. Clients calling this function must replace the `\\{id\\}` substring with the actual token type ID."
					}
				},
				"version": 1
			},
			"evm": {
				"assembly": "    /* \"contracts/HachiNFT.sol\":366:1469  contract ERC1155Ownable is ERC1155, Ownable, Pausable, ERC1155Burnable {... */\n  mstore(0x40, 0x80)\n    /* \"contracts/HachiNFT.sol\":443:588  constructor()... */\n  callvalue\n  dup1\n  iszero\n  tag_1\n  jumpi\n  0x00\n  dup1\n  revert\ntag_1:\n  pop\n    /* \"@openzeppelin/contracts/token/ERC1155/ERC1155.sol\":1107:1169  constructor(string memory uri_) {... */\n  mload(0x40)\n  dup1\n  0xa0\n  add\n  0x40\n  mstore\n  dup1\n  0x69\n  dup2\n  mstore\n  0x20\n  add\n  data_d7df789a1796f8a81c5300713ac4aba6df6782124a85e00084983604ce823747\n  0x69\n  swap2\n  codecopy\n    /* \"@openzeppelin/contracts/token/ERC1155/ERC1155.sol\":1149:1162  _setURI(uri_) */\n  tag_7\n    /* \"@openzeppelin/contracts/token/ERC1155/ERC1155.sol\":1157:1161  uri_ */\n  dup2\n    /* \"@openzeppelin/contracts/token/ERC1155/ERC1155.sol\":1149:1156  _setURI */\n  tag_8\n    /* \"@openzeppelin/contracts/token/ERC1155/ERC1155.sol\":1149:1162  _setURI(uri_) */\n  jump\t// in\ntag_7:\n  pop\n    /* \"@openzeppelin/contracts/access/Ownable.sol\":921:953  _transferOwnership(_msgSender()) */\n  tag_10\n    /* \"@openzeppelin/contracts/utils/Context.sol\":719:729  msg.sender */\n  caller\n    /* \"@openzeppelin/contracts/access/Ownable.sol\":921:939  _transferOwnership */\n  tag_13\n    /* \"@openzeppelin/contracts/access/Ownable.sol\":921:953  _transferOwnership(_msgSender()) */\n  jump\t// in\ntag_10:\n    /* \"@openzeppelin/contracts/security/Pausable.sol\":981:988  _paused */\n  0x03\n    /* \"@openzeppelin/contracts/security/Pausable.sol\":981:996  _paused = false */\n  dup1\n  sload\n  not(shl(0xa0, 0xff))\n  and\n  swap1\n  sstore\n    /* \"contracts/HachiNFT.sol\":366:1469  contract ERC1155Ownable is ERC1155, Ownable, Pausable, ERC1155Burnable {... */\n  jump(tag_33)\n    /* \"@openzeppelin/contracts/token/ERC1155/ERC1155.sol\":8171:8257  function _setURI(string memory newuri) internal virtual {... */\ntag_8:\n    /* \"@openzeppelin/contracts/token/ERC1155/ERC1155.sol\":8237:8250  _uri = newuri */\n  dup1\n  mload\n  tag_18\n  swap1\n    /* \"@openzeppelin/contracts/token/ERC1155/ERC1155.sol\":8237:8241  _uri */\n  0x02\n  swap1\n    /* \"@openzeppelin/contracts/token/ERC1155/ERC1155.sol\":8237:8250  _uri = newuri */\n  0x20\n  dup5\n  add\n  swap1\n  tag_19\n  jump\t// in\ntag_18:\n  pop\n    /* \"@openzeppelin/contracts/token/ERC1155/ERC1155.sol\":8171:8257  function _setURI(string memory newuri) internal virtual {... */\n  pop\n  jump\t// out\n    /* \"@openzeppelin/contracts/access/Ownable.sol\":2270:2457  function _transferOwnership(address newOwner) internal virtual {... */\ntag_13:\n    /* \"@openzeppelin/contracts/access/Ownable.sol\":2362:2368  _owner */\n  0x03\n  dup1\n  sload\n  sub(shl(0xa0, 0x01), 0x01)\n    /* \"@openzeppelin/contracts/access/Ownable.sol\":2378:2395  _owner = newOwner */\n  dup4\n  dup2\n  and\n  not(sub(shl(0xa0, 0x01), 0x01))\n  dup4\n  and\n  dup2\n  or\n  swap1\n  swap4\n  sstore\n    /* \"@openzeppelin/contracts/access/Ownable.sol\":2410:2450  OwnershipTransferred(oldOwner, newOwner) */\n  mload(0x40)\n    /* \"@openzeppelin/contracts/access/Ownable.sol\":2362:2368  _owner */\n  swap2\n  and\n  swap2\n    /* \"@openzeppelin/contracts/access/Ownable.sol\":2378:2395  _owner = newOwner */\n  swap1\n    /* \"@openzeppelin/contracts/access/Ownable.sol\":2362:2368  _owner */\n  dup3\n  swap1\n    /* \"@openzeppelin/contracts/access/Ownable.sol\":2410:2450  OwnershipTransferred(oldOwner, newOwner) */\n  0x8be0079c531659141344cd1fd0a4f28419497f9722a3daafe3b4186f6b6457e0\n  swap1\n    /* \"@openzeppelin/contracts/access/Ownable.sol\":2343:2359  address oldOwner */\n  0x00\n  swap1\n    /* \"@openzeppelin/contracts/access/Ownable.sol\":2410:2450  OwnershipTransferred(oldOwner, newOwner) */\n  log3\n    /* \"@openzeppelin/contracts/access/Ownable.sol\":2333:2457  {... */\n  pop\n    /* \"@openzeppelin/contracts/access/Ownable.sol\":2270:2457  function _transferOwnership(address newOwner) internal virtual {... */\n  pop\n  jump\t// out\n    /* \"contracts/HachiNFT.sol\":366:1469  contract ERC1155Ownable is ERC1155, Ownable, Pausable, ERC1155Burnable {... */\ntag_19:\n  dup3\n  dup1\n  sload\n  tag_22\n  swap1\n  tag_23\n  jump\t// in\ntag_22:\n  swap1\n  0x00\n  mstore\n  keccak256(0x00, 0x20)\n  swap1\n  0x1f\n  add\n  0x20\n  swap1\n  div\n  dup2\n  add\n  swap3\n  dup3\n  tag_25\n  jumpi\n  0x00\n  dup6\n  sstore\n  jump(tag_28)\ntag_25:\n  dup3\n  0x1f\n  lt\n  tag_26\n  jumpi\n  dup1\n  mload\n  not(0xff)\n  and\n  dup4\n  dup1\n  add\n  or\n  dup6\n  sstore\n  jump(tag_28)\ntag_26:\n  dup3\n  dup1\n  add\n  0x01\n  add\n  dup6\n  sstore\n  dup3\n  iszero\n  tag_28\n  jumpi\n  swap2\n  dup3\n  add\ntag_27:\n  dup3\n  dup2\n  gt\n  iszero\n  tag_28\n  jumpi\n  dup3\n  mload\n  dup3\n  sstore\n  swap2\n  0x20\n  add\n  swap2\n  swap1\n  0x01\n  add\n  swap1\n  jump(tag_27)\ntag_28:\n  pop\n  tag_29\n  swap3\n  swap2\n  pop\n  tag_30\n  jump\t// in\ntag_29:\n  pop\n  swap1\n  jump\t// out\ntag_30:\ntag_31:\n  dup1\n  dup3\n  gt\n  iszero\n  tag_29\n  jumpi\n  0x00\n  dup2\n  sstore\n  0x01\n  add\n  jump(tag_31)\n    /* \"#utility.yul\":14:394   */\ntag_23:\n    /* \"#utility.yul\":93:94   */\n  0x01\n    /* \"#utility.yul\":89:101   */\n  dup2\n  dup2\n  shr\n  swap1\n    /* \"#utility.yul\":136:148   */\n  dup3\n  and\n  dup1\n    /* \"#utility.yul\":157:218   */\n  tag_35\n  jumpi\n    /* \"#utility.yul\":211:215   */\n  0x7f\n    /* \"#utility.yul\":203:209   */\n  dup3\n    /* \"#utility.yul\":199:216   */\n  and\n    /* \"#utility.yul\":189:216   */\n  swap2\n  pop\n    /* \"#utility.yul\":157:218   */\ntag_35:\n    /* \"#utility.yul\":264:266   */\n  0x20\n    /* \"#utility.yul\":256:262   */\n  dup3\n    /* \"#utility.yul\":253:267   */\n  lt\n    /* \"#utility.yul\":233:251   */\n  dup2\n    /* \"#utility.yul\":230:268   */\n  eq\n    /* \"#utility.yul\":227:388   */\n  iszero\n  tag_36\n  jumpi\n    /* \"#utility.yul\":310:320   */\n  0x4e487b71\n    /* \"#utility.yul\":305:308   */\n  0xe0\n    /* \"#utility.yul\":301:321   */\n  shl\n    /* \"#utility.yul\":298:299   */\n  0x00\n    /* \"#utility.yul\":291:322   */\n  mstore\n    /* \"#utility.yul\":345:349   */\n  0x22\n    /* \"#utility.yul\":342:343   */\n  0x04\n    /* \"#utility.yul\":335:350   */\n  mstore\n    /* \"#utility.yul\":373:377   */\n  0x24\n    /* \"#utility.yul\":370:371   */\n  0x00\n    /* \"#utility.yul\":363:378   */\n  revert\n    /* \"#utility.yul\":227:388   */\ntag_36:\n  pop\n    /* \"#utility.yul\":14:394   */\n  swap2\n  swap1\n  pop\n  jump\t// out\ntag_33:\n    /* \"contracts/HachiNFT.sol\":366:1469  contract ERC1155Ownable is ERC1155, Ownable, Pausable, ERC1155Burnable {... */\n  dataSize(sub_0)\n  dup1\n  dataOffset(sub_0)\n  0x00\n  codecopy\n  0x00\n  return\nstop\ndata_d7df789a1796f8a81c5300713ac4aba6df6782124a85e00084983604ce823747 68747470733a2f2f697066732e696f2f697066732f516d5136745a686138724d524531536a64666a5747445a6955727a5063526678784553444875514142625a4453383f66696c656e616d653d53696465487573746c65722532304261636b67726f756e642e706e67\n\nsub_0: assembly {\n        /* \"contracts/HachiNFT.sol\":366:1469  contract ERC1155Ownable is ERC1155, Ownable, Pausable, ERC1155Burnable {... */\n      mstore(0x40, 0x80)\n      callvalue\n      dup1\n      iszero\n      tag_1\n      jumpi\n      0x00\n      dup1\n      revert\n    tag_1:\n      pop\n      jumpi(tag_2, lt(calldatasize, 0x04))\n      shr(0xe0, calldataload(0x00))\n      dup1\n      0x6b20c454\n      gt\n      tag_22\n      jumpi\n      dup1\n      0xa22cb465\n      gt\n      tag_23\n      jumpi\n      dup1\n      0xa22cb465\n      eq\n      tag_17\n      jumpi\n      dup1\n      0xe985e9c5\n      eq\n      tag_18\n      jumpi\n      dup1\n      0xf242432a\n      eq\n      tag_19\n      jumpi\n      dup1\n      0xf2fde38b\n      eq\n      tag_20\n      jumpi\n      dup1\n      0xf5298aca\n      eq\n      tag_21\n      jumpi\n      0x00\n      dup1\n      revert\n    tag_23:\n      dup1\n      0x6b20c454\n      eq\n      tag_12\n      jumpi\n      dup1\n      0x715018a6\n      eq\n      tag_13\n      jumpi\n      dup1\n      0x731133e9\n      eq\n      tag_14\n      jumpi\n      dup1\n      0x8456cb59\n      eq\n      tag_15\n      jumpi\n      dup1\n      0x8da5cb5b\n      eq\n      tag_16\n      jumpi\n      0x00\n      dup1\n      revert\n    tag_22:\n      dup1\n      0x1f7fdffa\n      gt\n      tag_24\n      jumpi\n      dup1\n      0x1f7fdffa\n      eq\n      tag_7\n      jumpi\n      dup1\n      0x2eb2c2d6\n      eq\n      tag_8\n      jumpi\n      dup1\n      0x3f4ba83a\n      eq\n      tag_9\n      jumpi\n      dup1\n      0x4e1273f4\n      eq\n      tag_10\n      jumpi\n      dup1\n      0x5c975abb\n      eq\n      tag_11\n      jumpi\n      0x00\n      dup1\n      revert\n    tag_24:\n      dup1\n      0xfdd58e\n      eq\n      tag_3\n      jumpi\n      dup1\n      0x01ffc9a7\n      eq\n      tag_4\n      jumpi\n      dup1\n      0x02fe5305\n      eq\n      tag_5\n      jumpi\n      dup1\n      0x0e89341c\n      eq\n      tag_6\n      jumpi\n    tag_2:\n      0x00\n      dup1\n      revert\n        /* \"@openzeppelin/contracts/token/ERC1155/ERC1155.sol\":2185:2413  function balanceOf(address account, uint256 id) public view virtual override returns (uint256) {... */\n    tag_3:\n      tag_25\n      tag_26\n      calldatasize\n      0x04\n      tag_27\n      jump\t// in\n    tag_26:\n      tag_28\n      jump\t// in\n    tag_25:\n      mload(0x40)\n        /* \"#utility.yul\":597:622   */\n      swap1\n      dup2\n      mstore\n        /* \"#utility.yul\":585:587   */\n      0x20\n        /* \"#utility.yul\":570:588   */\n      add\n        /* \"@openzeppelin/contracts/token/ERC1155/ERC1155.sol\":2185:2413  function balanceOf(address account, uint256 id) public view virtual override returns (uint256) {... */\n    tag_29:\n      mload(0x40)\n      dup1\n      swap2\n      sub\n      swap1\n      return\n        /* \"@openzeppelin/contracts/token/ERC1155/ERC1155.sol\":1236:1541  function supportsInterface(bytes4 interfaceId) public view virtual override(ERC165, IERC165) returns (bool) {... */\n    tag_4:\n      tag_31\n      tag_32\n      calldatasize\n      0x04\n      tag_33\n      jump\t// in\n    tag_32:\n      tag_34\n      jump\t// in\n    tag_31:\n      mload(0x40)\n        /* \"#utility.yul\":1184:1198   */\n      swap1\n      iszero\n        /* \"#utility.yul\":1177:1199   */\n      iszero\n        /* \"#utility.yul\":1159:1200   */\n      dup2\n      mstore\n        /* \"#utility.yul\":1147:1149   */\n      0x20\n        /* \"#utility.yul\":1132:1150   */\n      add\n        /* \"@openzeppelin/contracts/token/ERC1155/ERC1155.sol\":1236:1541  function supportsInterface(bytes4 interfaceId) public view virtual override(ERC165, IERC165) returns (bool) {... */\n      tag_29\n        /* \"#utility.yul\":1019:1206   */\n      jump\n        /* \"contracts/HachiNFT.sol\":594:681  function setURI(string memory newuri) public onlyOwner {... */\n    tag_5:\n      tag_37\n      tag_38\n      calldatasize\n      0x04\n      tag_39\n      jump\t// in\n    tag_38:\n      tag_40\n      jump\t// in\n    tag_37:\n      stop\n        /* \"@openzeppelin/contracts/token/ERC1155/ERC1155.sol\":1940:2043  function uri(uint256) public view virtual override returns (string memory) {... */\n    tag_6:\n      tag_41\n      tag_42\n      calldatasize\n      0x04\n      tag_43\n      jump\t// in\n    tag_42:\n      tag_44\n      jump\t// in\n    tag_41:\n      mload(0x40)\n      tag_29\n      swap2\n      swap1\n      tag_46\n      jump\t// in\n        /* \"contracts/HachiNFT.sol\":991:1177  function mintBatch(address to, uint256[] memory ids, uint256[] memory amounts, bytes memory data)... */\n    tag_7:\n      tag_37\n      tag_48\n      calldatasize\n      0x04\n      tag_49\n      jump\t// in\n    tag_48:\n      tag_50\n      jump\t// in\n        /* \"@openzeppelin/contracts/token/ERC1155/ERC1155.sol\":4060:4490  function safeBatchTransferFrom(... */\n    tag_8:\n      tag_37\n      tag_52\n      calldatasize\n      0x04\n      tag_53\n      jump\t// in\n    tag_52:\n      tag_54\n      jump\t// in\n        /* \"contracts/HachiNFT.sol\":752:815  function unpause() public onlyOwner {... */\n    tag_9:\n      tag_37\n      tag_56\n      jump\t// in\n        /* \"@openzeppelin/contracts/token/ERC1155/ERC1155.sol\":2570:3078  function balanceOfBatch(address[] memory accounts, uint256[] memory ids)... */\n    tag_10:\n      tag_57\n      tag_58\n      calldatasize\n      0x04\n      tag_59\n      jump\t// in\n    tag_58:\n      tag_60\n      jump\t// in\n    tag_57:\n      mload(0x40)\n      tag_29\n      swap2\n      swap1\n      tag_62\n      jump\t// in\n        /* \"@openzeppelin/contracts/security/Pausable.sol\":1098:1182  function paused() public view virtual returns (bool) {... */\n    tag_11:\n        /* \"@openzeppelin/contracts/security/Pausable.sol\":1168:1175  _paused */\n      sload(0x03)\n      shl(0xa0, 0x01)\n      swap1\n      div\n      0xff\n      and\n        /* \"@openzeppelin/contracts/security/Pausable.sol\":1098:1182  function paused() public view virtual returns (bool) {... */\n      jump(tag_31)\n        /* \"@openzeppelin/contracts/token/ERC1155/extensions/ERC1155Burnable.sol\":709:1051  function burnBatch(... */\n    tag_12:\n      tag_37\n      tag_67\n      calldatasize\n      0x04\n      tag_68\n      jump\t// in\n    tag_67:\n      tag_69\n      jump\t// in\n        /* \"@openzeppelin/contracts/access/Ownable.sol\":1668:1769  function renounceOwnership() public virtual onlyOwner {... */\n    tag_13:\n      tag_37\n      tag_71\n      jump\t// in\n        /* \"contracts/HachiNFT.sol\":821:985  function mint(address account, uint256 id, uint256 amount, bytes memory data)... */\n    tag_14:\n      tag_37\n      tag_73\n      calldatasize\n      0x04\n      tag_74\n      jump\t// in\n    tag_73:\n      tag_75\n      jump\t// in\n        /* \"contracts/HachiNFT.sol\":687:746  function pause() public onlyOwner {... */\n    tag_15:\n      tag_37\n      tag_77\n      jump\t// in\n        /* \"@openzeppelin/contracts/access/Ownable.sol\":1036:1121  function owner() public view virtual returns (address) {... */\n    tag_16:\n        /* \"@openzeppelin/contracts/access/Ownable.sol\":1108:1114  _owner */\n      sload(0x03)\n        /* \"@openzeppelin/contracts/access/Ownable.sol\":1036:1121  function owner() public view virtual returns (address) {... */\n      mload(0x40)\n      sub(shl(0xa0, 0x01), 0x01)\n        /* \"@openzeppelin/contracts/access/Ownable.sol\":1108:1114  _owner */\n      swap1\n      swap2\n      and\n        /* \"#utility.yul\":9653:9704   */\n      dup2\n      mstore\n        /* \"#utility.yul\":9641:9643   */\n      0x20\n        /* \"#utility.yul\":9626:9644   */\n      add\n        /* \"@openzeppelin/contracts/access/Ownable.sol\":1036:1121  function owner() public view virtual returns (address) {... */\n      tag_29\n        /* \"#utility.yul\":9507:9710   */\n      jump\n        /* \"@openzeppelin/contracts/token/ERC1155/ERC1155.sol\":3146:3299  function setApprovalForAll(address operator, bool approved) public virtual override {... */\n    tag_17:\n      tag_37\n      tag_83\n      calldatasize\n      0x04\n      tag_84\n      jump\t// in\n    tag_83:\n      tag_85\n      jump\t// in\n        /* \"@openzeppelin/contracts/token/ERC1155/ERC1155.sol\":3366:3532  function isApprovedForAll(address account, address operator) public view virtual override returns (bool) {... */\n    tag_18:\n      tag_31\n      tag_87\n      calldatasize\n      0x04\n      tag_88\n      jump\t// in\n    tag_87:\n      sub(shl(0xa0, 0x01), 0x01)\n        /* \"@openzeppelin/contracts/token/ERC1155/ERC1155.sol\":3488:3515  _operatorApprovals[account] */\n      swap2\n      dup3\n      and\n        /* \"@openzeppelin/contracts/token/ERC1155/ERC1155.sol\":3465:3469  bool */\n      0x00\n        /* \"@openzeppelin/contracts/token/ERC1155/ERC1155.sol\":3488:3515  _operatorApprovals[account] */\n      swap1\n      dup2\n      mstore\n        /* \"@openzeppelin/contracts/token/ERC1155/ERC1155.sol\":3488:3506  _operatorApprovals */\n      0x01\n        /* \"@openzeppelin/contracts/token/ERC1155/ERC1155.sol\":3488:3515  _operatorApprovals[account] */\n      0x20\n      swap1\n      dup2\n      mstore\n      0x40\n      dup1\n      dup4\n      keccak256\n        /* \"@openzeppelin/contracts/token/ERC1155/ERC1155.sol\":3488:3525  _operatorApprovals[account][operator] */\n      swap4\n      swap1\n      swap5\n      and\n      dup3\n      mstore\n      swap2\n      swap1\n      swap2\n      mstore\n      keccak256\n      sload\n      0xff\n      and\n      swap1\n        /* \"@openzeppelin/contracts/token/ERC1155/ERC1155.sol\":3366:3532  function isApprovedForAll(address account, address operator) public view virtual override returns (bool) {... */\n      jump\n        /* \"@openzeppelin/contracts/token/ERC1155/ERC1155.sol\":3599:3988  function safeTransferFrom(... */\n    tag_19:\n      tag_37\n      tag_92\n      calldatasize\n      0x04\n      tag_93\n      jump\t// in\n    tag_92:\n      tag_94\n      jump\t// in\n        /* \"@openzeppelin/contracts/access/Ownable.sol\":1918:2116  function transferOwnership(address newOwner) public virtual onlyOwner {... */\n    tag_20:\n      tag_37\n      tag_96\n      calldatasize\n      0x04\n      tag_97\n      jump\t// in\n    tag_96:\n      tag_98\n      jump\t// in\n        /* \"@openzeppelin/contracts/token/ERC1155/extensions/ERC1155Burnable.sol\":393:703  function burn(... */\n    tag_21:\n      tag_37\n      tag_100\n      calldatasize\n      0x04\n      tag_101\n      jump\t// in\n    tag_100:\n      tag_102\n      jump\t// in\n        /* \"@openzeppelin/contracts/token/ERC1155/ERC1155.sol\":2185:2413  function balanceOf(address account, uint256 id) public view virtual override returns (uint256) {... */\n    tag_28:\n        /* \"@openzeppelin/contracts/token/ERC1155/ERC1155.sol\":2271:2278  uint256 */\n      0x00\n      sub(shl(0xa0, 0x01), 0x01)\n        /* \"@openzeppelin/contracts/token/ERC1155/ERC1155.sol\":2298:2319  account != address(0) */\n      dup4\n      and\n        /* \"@openzeppelin/contracts/token/ERC1155/ERC1155.sol\":2290:2367  require(account != address(0), \"ERC1155: balance query for the zero address\") */\n      tag_104\n      jumpi\n      mload(0x40)\n      shl(0xe5, 0x461bcd)\n      dup2\n      mstore\n        /* \"#utility.yul\":11663:11665   */\n      0x20\n        /* \"@openzeppelin/contracts/token/ERC1155/ERC1155.sol\":2290:2367  require(account != address(0), \"ERC1155: balance query for the zero address\") */\n      0x04\n      dup3\n      add\n        /* \"#utility.yul\":11645:11666   */\n      mstore\n        /* \"#utility.yul\":11702:11704   */\n      0x2b\n        /* \"#utility.yul\":11682:11700   */\n      0x24\n      dup3\n      add\n        /* \"#utility.yul\":11675:11705   */\n      mstore\n        /* \"#utility.yul\":11741:11775   */\n      0x455243313135353a2062616c616e636520717565727920666f7220746865207a\n        /* \"#utility.yul\":11721:11739   */\n      0x44\n      dup3\n      add\n        /* \"#utility.yul\":11714:11776   */\n      mstore\n      shl(0xa8, 0x65726f2061646472657373)\n        /* \"#utility.yul\":11792:11810   */\n      0x64\n      dup3\n      add\n        /* \"#utility.yul\":11785:11826   */\n      mstore\n        /* \"#utility.yul\":11843:11862   */\n      0x84\n      add\n        /* \"@openzeppelin/contracts/token/ERC1155/ERC1155.sol\":2290:2367  require(account != address(0), \"ERC1155: balance query for the zero address\") */\n    tag_105:\n      mload(0x40)\n      dup1\n      swap2\n      sub\n      swap1\n      revert\n    tag_104:\n      pop\n        /* \"@openzeppelin/contracts/token/ERC1155/ERC1155.sol\":2384:2393  _balances */\n      0x00\n        /* \"@openzeppelin/contracts/token/ERC1155/ERC1155.sol\":2384:2397  _balances[id] */\n      swap1\n      dup2\n      mstore\n      0x20\n      dup2\n      dup2\n      mstore\n      0x40\n      dup1\n      dup4\n      keccak256\n      sub(shl(0xa0, 0x01), 0x01)\n        /* \"@openzeppelin/contracts/token/ERC1155/ERC1155.sol\":2384:2406  _balances[id][account] */\n      swap5\n      swap1\n      swap5\n      and\n      dup4\n      mstore\n      swap3\n      swap1\n      mstore\n      keccak256\n      sload\n      swap1\n        /* \"@openzeppelin/contracts/token/ERC1155/ERC1155.sol\":2185:2413  function balanceOf(address account, uint256 id) public view virtual override returns (uint256) {... */\n      jump\t// out\n        /* \"@openzeppelin/contracts/token/ERC1155/ERC1155.sol\":1236:1541  function supportsInterface(bytes4 interfaceId) public view virtual override(ERC165, IERC165) returns (bool) {... */\n    tag_34:\n        /* \"@openzeppelin/contracts/token/ERC1155/ERC1155.sol\":1338:1342  bool */\n      0x00\n      not(sub(shl(0xe0, 0x01), 0x01))\n        /* \"@openzeppelin/contracts/token/ERC1155/ERC1155.sol\":1373:1414  interfaceId == type(IERC1155).interfaceId */\n      dup3\n      and\n      shl(0xe1, 0x6cdb3d13)\n      eq\n      dup1\n        /* \"@openzeppelin/contracts/token/ERC1155/ERC1155.sol\":1373:1482  interfaceId == type(IERC1155).interfaceId ||... */\n      tag_108\n      jumpi\n      pop\n      not(sub(shl(0xe0, 0x01), 0x01))\n        /* \"@openzeppelin/contracts/token/ERC1155/ERC1155.sol\":1430:1482  interfaceId == type(IERC1155MetadataURI).interfaceId */\n      dup3\n      and\n      shl(0xe2, 0x03a24d07)\n      eq\n        /* \"@openzeppelin/contracts/token/ERC1155/ERC1155.sol\":1373:1482  interfaceId == type(IERC1155).interfaceId ||... */\n    tag_108:\n        /* \"@openzeppelin/contracts/token/ERC1155/ERC1155.sol\":1373:1534  interfaceId == type(IERC1155).interfaceId ||... */\n      dup1\n      tag_110\n      jumpi\n      pop\n      shl(0xe0, 0x01ffc9a7)\n      not(sub(shl(0xe0, 0x01), 0x01))\n        /* \"@openzeppelin/contracts/utils/introspection/ERC165.sol\":937:977  interfaceId == type(IERC165).interfaceId */\n      dup4\n      and\n      eq\n        /* \"@openzeppelin/contracts/token/ERC1155/ERC1155.sol\":1498:1534  super.supportsInterface(interfaceId) */\n    tag_110:\n        /* \"@openzeppelin/contracts/token/ERC1155/ERC1155.sol\":1354:1534  return... */\n      swap3\n        /* \"@openzeppelin/contracts/token/ERC1155/ERC1155.sol\":1236:1541  function supportsInterface(bytes4 interfaceId) public view virtual override(ERC165, IERC165) returns (bool) {... */\n      swap2\n      pop\n      pop\n      jump\t// out\n        /* \"contracts/HachiNFT.sol\":594:681  function setURI(string memory newuri) public onlyOwner {... */\n    tag_40:\n        /* \"@openzeppelin/contracts/access/Ownable.sol\":1108:1114  _owner */\n      and(sub(shl(0xa0, 0x01), 0x01), sload(0x03))\n        /* \"@openzeppelin/contracts/utils/Context.sol\":719:729  msg.sender */\n      caller\n        /* \"@openzeppelin/contracts/access/Ownable.sol\":1248:1271  owner() == _msgSender() */\n      eq\n        /* \"@openzeppelin/contracts/access/Ownable.sol\":1240:1308  require(owner() == _msgSender(), \"Ownable: caller is not the owner\") */\n      tag_116\n      jumpi\n      mload(0x40)\n      shl(0xe5, 0x461bcd)\n      dup2\n      mstore\n      0x04\n      add\n      tag_105\n      swap1\n      tag_118\n      jump\t// in\n    tag_116:\n        /* \"contracts/HachiNFT.sol\":659:674  _setURI(newuri) */\n      tag_120\n        /* \"contracts/HachiNFT.sol\":667:673  newuri */\n      dup2\n        /* \"contracts/HachiNFT.sol\":659:666  _setURI */\n      tag_121\n        /* \"contracts/HachiNFT.sol\":659:674  _setURI(newuri) */\n      jump\t// in\n    tag_120:\n        /* \"contracts/HachiNFT.sol\":594:681  function setURI(string memory newuri) public onlyOwner {... */\n      pop\n      jump\t// out\n        /* \"@openzeppelin/contracts/token/ERC1155/ERC1155.sol\":1940:2043  function uri(uint256) public view virtual override returns (string memory) {... */\n    tag_44:\n        /* \"@openzeppelin/contracts/token/ERC1155/ERC1155.sol\":2000:2013  string memory */\n      0x60\n        /* \"@openzeppelin/contracts/token/ERC1155/ERC1155.sol\":2032:2036  _uri */\n      0x02\n        /* \"@openzeppelin/contracts/token/ERC1155/ERC1155.sol\":2025:2036  return _uri */\n      dup1\n      sload\n      tag_123\n      swap1\n      tag_124\n      jump\t// in\n    tag_123:\n      dup1\n      0x1f\n      add\n      0x20\n      dup1\n      swap2\n      div\n      mul\n      0x20\n      add\n      mload(0x40)\n      swap1\n      dup2\n      add\n      0x40\n      mstore\n      dup1\n      swap3\n      swap2\n      swap1\n      dup2\n      dup2\n      mstore\n      0x20\n      add\n      dup3\n      dup1\n      sload\n      tag_125\n      swap1\n      tag_124\n      jump\t// in\n    tag_125:\n      dup1\n      iszero\n      tag_126\n      jumpi\n      dup1\n      0x1f\n      lt\n      tag_127\n      jumpi\n      0x0100\n      dup1\n      dup4\n      sload\n      div\n      mul\n      dup4\n      mstore\n      swap2\n      0x20\n      add\n      swap2\n      jump(tag_126)\n    tag_127:\n      dup3\n      add\n      swap2\n      swap1\n      0x00\n      mstore\n      keccak256(0x00, 0x20)\n      swap1\n    tag_128:\n      dup2\n      sload\n      dup2\n      mstore\n      swap1\n      0x01\n      add\n      swap1\n      0x20\n      add\n      dup1\n      dup4\n      gt\n      tag_128\n      jumpi\n      dup3\n      swap1\n      sub\n      0x1f\n      and\n      dup3\n      add\n      swap2\n    tag_126:\n      pop\n      pop\n      pop\n      pop\n      pop\n      swap1\n      pop\n        /* \"@openzeppelin/contracts/token/ERC1155/ERC1155.sol\":1940:2043  function uri(uint256) public view virtual override returns (string memory) {... */\n      swap2\n      swap1\n      pop\n      jump\t// out\n        /* \"contracts/HachiNFT.sol\":991:1177  function mintBatch(address to, uint256[] memory ids, uint256[] memory amounts, bytes memory data)... */\n    tag_50:\n        /* \"@openzeppelin/contracts/access/Ownable.sol\":1108:1114  _owner */\n      and(sub(shl(0xa0, 0x01), 0x01), sload(0x03))\n        /* \"@openzeppelin/contracts/utils/Context.sol\":719:729  msg.sender */\n      caller\n        /* \"@openzeppelin/contracts/access/Ownable.sol\":1248:1271  owner() == _msgSender() */\n      eq\n        /* \"@openzeppelin/contracts/access/Ownable.sol\":1240:1308  require(owner() == _msgSender(), \"Ownable: caller is not the owner\") */\n      tag_132\n      jumpi\n      mload(0x40)\n      shl(0xe5, 0x461bcd)\n      dup2\n      mstore\n      0x04\n      add\n      tag_105\n      swap1\n      tag_118\n      jump\t// in\n    tag_132:\n        /* \"contracts/HachiNFT.sol\":1136:1170  _mintBatch(to, ids, amounts, data) */\n      tag_135\n        /* \"contracts/HachiNFT.sol\":1147:1149  to */\n      dup5\n        /* \"contracts/HachiNFT.sol\":1151:1154  ids */\n      dup5\n        /* \"contracts/HachiNFT.sol\":1156:1163  amounts */\n      dup5\n        /* \"contracts/HachiNFT.sol\":1165:1169  data */\n      dup5\n        /* \"contracts/HachiNFT.sol\":1136:1146  _mintBatch */\n      tag_136\n        /* \"contracts/HachiNFT.sol\":1136:1170  _mintBatch(to, ids, amounts, data) */\n      jump\t// in\n    tag_135:\n        /* \"contracts/HachiNFT.sol\":991:1177  function mintBatch(address to, uint256[] memory ids, uint256[] memory amounts, bytes memory data)... */\n      pop\n      pop\n      pop\n      pop\n      jump\t// out\n        /* \"@openzeppelin/contracts/token/ERC1155/ERC1155.sol\":4060:4490  function safeBatchTransferFrom(... */\n    tag_54:\n      sub(shl(0xa0, 0x01), 0x01)\n        /* \"@openzeppelin/contracts/token/ERC1155/ERC1155.sol\":4285:4305  from == _msgSender() */\n      dup6\n      and\n        /* \"@openzeppelin/contracts/utils/Context.sol\":719:729  msg.sender */\n      caller\n        /* \"@openzeppelin/contracts/token/ERC1155/ERC1155.sol\":4285:4305  from == _msgSender() */\n      eq\n      dup1\n        /* \"@openzeppelin/contracts/token/ERC1155/ERC1155.sol\":4285:4345  from == _msgSender() || isApprovedForAll(from, _msgSender()) */\n      tag_140\n      jumpi\n      pop\n        /* \"@openzeppelin/contracts/token/ERC1155/ERC1155.sol\":4309:4345  isApprovedForAll(from, _msgSender()) */\n      tag_140\n        /* \"@openzeppelin/contracts/token/ERC1155/ERC1155.sol\":4326:4330  from */\n      dup6\n        /* \"@openzeppelin/contracts/utils/Context.sol\":719:729  msg.sender */\n      caller\n        /* \"@openzeppelin/contracts/token/ERC1155/ERC1155.sol\":3366:3532  function isApprovedForAll(address account, address operator) public view virtual override returns (bool) {... */\n      tag_87\n      jump\t// in\n        /* \"@openzeppelin/contracts/token/ERC1155/ERC1155.sol\":4309:4345  isApprovedForAll(from, _msgSender()) */\n    tag_140:\n        /* \"@openzeppelin/contracts/token/ERC1155/ERC1155.sol\":4264:4421  require(... */\n      tag_142\n      jumpi\n      mload(0x40)\n      shl(0xe5, 0x461bcd)\n      dup2\n      mstore\n        /* \"#utility.yul\":12821:12823   */\n      0x20\n        /* \"@openzeppelin/contracts/token/ERC1155/ERC1155.sol\":4264:4421  require(... */\n      0x04\n      dup3\n      add\n        /* \"#utility.yul\":12803:12824   */\n      mstore\n        /* \"#utility.yul\":12860:12862   */\n      0x32\n        /* \"#utility.yul\":12840:12858   */\n      0x24\n      dup3\n      add\n        /* \"#utility.yul\":12833:12863   */\n      mstore\n        /* \"#utility.yul\":12899:12933   */\n      0x455243313135353a207472616e736665722063616c6c6572206973206e6f7420\n        /* \"#utility.yul\":12879:12897   */\n      0x44\n      dup3\n      add\n        /* \"#utility.yul\":12872:12934   */\n      mstore\n      shl(0x72, 0x1bdddb995c881b9bdc88185c1c1c9bdd9959)\n        /* \"#utility.yul\":12950:12968   */\n      0x64\n      dup3\n      add\n        /* \"#utility.yul\":12943:12991   */\n      mstore\n        /* \"#utility.yul\":13008:13027   */\n      0x84\n      add\n        /* \"@openzeppelin/contracts/token/ERC1155/ERC1155.sol\":4264:4421  require(... */\n      tag_105\n        /* \"#utility.yul\":12619:13033   */\n      jump\n        /* \"@openzeppelin/contracts/token/ERC1155/ERC1155.sol\":4264:4421  require(... */\n    tag_142:\n        /* \"@openzeppelin/contracts/token/ERC1155/ERC1155.sol\":4431:4483  _safeBatchTransferFrom(from, to, ids, amounts, data) */\n      tag_145\n        /* \"@openzeppelin/contracts/token/ERC1155/ERC1155.sol\":4454:4458  from */\n      dup6\n        /* \"@openzeppelin/contracts/token/ERC1155/ERC1155.sol\":4460:4462  to */\n      dup6\n        /* \"@openzeppelin/contracts/token/ERC1155/ERC1155.sol\":4464:4467  ids */\n      dup6\n        /* \"@openzeppelin/contracts/token/ERC1155/ERC1155.sol\":4469:4476  amounts */\n      dup6\n        /* \"@openzeppelin/contracts/token/ERC1155/ERC1155.sol\":4478:4482  data */\n      dup6\n        /* \"@openzeppelin/contracts/token/ERC1155/ERC1155.sol\":4431:4453  _safeBatchTransferFrom */\n      tag_146\n        /* \"@openzeppelin/contracts/token/ERC1155/ERC1155.sol\":4431:4483  _safeBatchTransferFrom(from, to, ids, amounts, data) */\n      jump\t// in\n    tag_145:\n        /* \"@openzeppelin/contracts/token/ERC1155/ERC1155.sol\":4060:4490  function safeBatchTransferFrom(... */\n      pop\n      pop\n      pop\n      pop\n      pop\n      jump\t// out\n        /* \"contracts/HachiNFT.sol\":752:815  function unpause() public onlyOwner {... */\n    tag_56:\n        /* \"@openzeppelin/contracts/access/Ownable.sol\":1108:1114  _owner */\n      and(sub(shl(0xa0, 0x01), 0x01), sload(0x03))\n        /* \"@openzeppelin/contracts/utils/Context.sol\":719:729  msg.sender */\n      caller\n        /* \"@openzeppelin/contracts/access/Ownable.sol\":1248:1271  owner() == _msgSender() */\n      eq\n        /* \"@openzeppelin/contracts/access/Ownable.sol\":1240:1308  require(owner() == _msgSender(), \"Ownable: caller is not the owner\") */\n      tag_150\n      jumpi\n      mload(0x40)\n      shl(0xe5, 0x461bcd)\n      dup2\n      mstore\n      0x04\n      add\n      tag_105\n      swap1\n      tag_118\n      jump\t// in\n    tag_150:\n        /* \"contracts/HachiNFT.sol\":798:808  _unpause() */\n      tag_153\n        /* \"contracts/HachiNFT.sol\":798:806  _unpause */\n      tag_154\n        /* \"contracts/HachiNFT.sol\":798:808  _unpause() */\n      jump\t// in\n    tag_153:\n        /* \"contracts/HachiNFT.sol\":752:815  function unpause() public onlyOwner {... */\n      jump\t// out\n        /* \"@openzeppelin/contracts/token/ERC1155/ERC1155.sol\":2570:3078  function balanceOfBatch(address[] memory accounts, uint256[] memory ids)... */\n    tag_60:\n        /* \"@openzeppelin/contracts/token/ERC1155/ERC1155.sol\":2721:2737  uint256[] memory */\n      0x60\n        /* \"@openzeppelin/contracts/token/ERC1155/ERC1155.sol\":2780:2783  ids */\n      dup2\n        /* \"@openzeppelin/contracts/token/ERC1155/ERC1155.sol\":2780:2790  ids.length */\n      mload\n        /* \"@openzeppelin/contracts/token/ERC1155/ERC1155.sol\":2761:2769  accounts */\n      dup4\n        /* \"@openzeppelin/contracts/token/ERC1155/ERC1155.sol\":2761:2776  accounts.length */\n      mload\n        /* \"@openzeppelin/contracts/token/ERC1155/ERC1155.sol\":2761:2790  accounts.length == ids.length */\n      eq\n        /* \"@openzeppelin/contracts/token/ERC1155/ERC1155.sol\":2753:2836  require(accounts.length == ids.length, \"ERC1155: accounts and ids length mismatch\") */\n      tag_156\n      jumpi\n      mload(0x40)\n      shl(0xe5, 0x461bcd)\n      dup2\n      mstore\n        /* \"#utility.yul\":13240:13242   */\n      0x20\n        /* \"@openzeppelin/contracts/token/ERC1155/ERC1155.sol\":2753:2836  require(accounts.length == ids.length, \"ERC1155: accounts and ids length mismatch\") */\n      0x04\n      dup3\n      add\n        /* \"#utility.yul\":13222:13243   */\n      mstore\n        /* \"#utility.yul\":13279:13281   */\n      0x29\n        /* \"#utility.yul\":13259:13277   */\n      0x24\n      dup3\n      add\n        /* \"#utility.yul\":13252:13282   */\n      mstore\n        /* \"#utility.yul\":13318:13352   */\n      0x455243313135353a206163636f756e747320616e6420696473206c656e677468\n        /* \"#utility.yul\":13298:13316   */\n      0x44\n      dup3\n      add\n        /* \"#utility.yul\":13291:13353   */\n      mstore\n      shl(0xbb, 0x040dad2e6dac2e8c6d)\n        /* \"#utility.yul\":13369:13387   */\n      0x64\n      dup3\n      add\n        /* \"#utility.yul\":13362:13401   */\n      mstore\n        /* \"#utility.yul\":13418:13437   */\n      0x84\n      add\n        /* \"@openzeppelin/contracts/token/ERC1155/ERC1155.sol\":2753:2836  require(accounts.length == ids.length, \"ERC1155: accounts and ids length mismatch\") */\n      tag_105\n        /* \"#utility.yul\":13038:13443   */\n      jump\n        /* \"@openzeppelin/contracts/token/ERC1155/ERC1155.sol\":2753:2836  require(accounts.length == ids.length, \"ERC1155: accounts and ids length mismatch\") */\n    tag_156:\n        /* \"@openzeppelin/contracts/token/ERC1155/ERC1155.sol\":2847:2877  uint256[] memory batchBalances */\n      0x00\n        /* \"@openzeppelin/contracts/token/ERC1155/ERC1155.sol\":2894:2902  accounts */\n      dup4\n        /* \"@openzeppelin/contracts/token/ERC1155/ERC1155.sol\":2894:2909  accounts.length */\n      mload\n        /* \"@openzeppelin/contracts/token/ERC1155/ERC1155.sol\":2880:2910  new uint256[](accounts.length) */\n      0xffffffffffffffff\n      dup2\n      gt\n      iszero\n      tag_160\n      jumpi\n      tag_160\n      tag_161\n      jump\t// in\n    tag_160:\n      mload(0x40)\n      swap1\n      dup1\n      dup3\n      mstore\n      dup1\n      0x20\n      mul\n      0x20\n      add\n      dup3\n      add\n      0x40\n      mstore\n      dup1\n      iszero\n      tag_162\n      jumpi\n      dup2\n      0x20\n      add\n      0x20\n      dup3\n      mul\n      dup1\n      calldatasize\n      dup4\n      calldatacopy\n      add\n      swap1\n      pop\n    tag_162:\n      pop\n        /* \"@openzeppelin/contracts/token/ERC1155/ERC1155.sol\":2847:2910  uint256[] memory batchBalances = new uint256[](accounts.length) */\n      swap1\n      pop\n        /* \"@openzeppelin/contracts/token/ERC1155/ERC1155.sol\":2926:2935  uint256 i */\n      0x00\n        /* \"@openzeppelin/contracts/token/ERC1155/ERC1155.sol\":2921:3041  for (uint256 i = 0; i < accounts.length; ++i) {... */\n    tag_163:\n        /* \"@openzeppelin/contracts/token/ERC1155/ERC1155.sol\":2945:2953  accounts */\n      dup5\n        /* \"@openzeppelin/contracts/token/ERC1155/ERC1155.sol\":2945:2960  accounts.length */\n      mload\n        /* \"@openzeppelin/contracts/token/ERC1155/ERC1155.sol\":2941:2942  i */\n      dup2\n        /* \"@openzeppelin/contracts/token/ERC1155/ERC1155.sol\":2941:2960  i < accounts.length */\n      lt\n        /* \"@openzeppelin/contracts/token/ERC1155/ERC1155.sol\":2921:3041  for (uint256 i = 0; i < accounts.length; ++i) {... */\n      iszero\n      tag_164\n      jumpi\n        /* \"@openzeppelin/contracts/token/ERC1155/ERC1155.sol\":3000:3030  balanceOf(accounts[i], ids[i]) */\n      tag_166\n        /* \"@openzeppelin/contracts/token/ERC1155/ERC1155.sol\":3010:3018  accounts */\n      dup6\n        /* \"@openzeppelin/contracts/token/ERC1155/ERC1155.sol\":3019:3020  i */\n      dup3\n        /* \"@openzeppelin/contracts/token/ERC1155/ERC1155.sol\":3010:3021  accounts[i] */\n      dup2\n      mload\n      dup2\n      lt\n      tag_168\n      jumpi\n      tag_168\n      tag_169\n      jump\t// in\n    tag_168:\n      0x20\n      mul\n      0x20\n      add\n      add\n      mload\n        /* \"@openzeppelin/contracts/token/ERC1155/ERC1155.sol\":3023:3026  ids */\n      dup6\n        /* \"@openzeppelin/contracts/token/ERC1155/ERC1155.sol\":3027:3028  i */\n      dup4\n        /* \"@openzeppelin/contracts/token/ERC1155/ERC1155.sol\":3023:3029  ids[i] */\n      dup2\n      mload\n      dup2\n      lt\n      tag_171\n      jumpi\n      tag_171\n      tag_169\n      jump\t// in\n    tag_171:\n      0x20\n      mul\n      0x20\n      add\n      add\n      mload\n        /* \"@openzeppelin/contracts/token/ERC1155/ERC1155.sol\":3000:3009  balanceOf */\n      tag_28\n        /* \"@openzeppelin/contracts/token/ERC1155/ERC1155.sol\":3000:3030  balanceOf(accounts[i], ids[i]) */\n      jump\t// in\n    tag_166:\n        /* \"@openzeppelin/contracts/token/ERC1155/ERC1155.sol\":2981:2994  batchBalances */\n      dup3\n        /* \"@openzeppelin/contracts/token/ERC1155/ERC1155.sol\":2995:2996  i */\n      dup3\n        /* \"@openzeppelin/contracts/token/ERC1155/ERC1155.sol\":2981:2997  batchBalances[i] */\n      dup2\n      mload\n      dup2\n      lt\n      tag_173\n      jumpi\n      tag_173\n      tag_169\n      jump\t// in\n    tag_173:\n      0x20\n      swap1\n      dup2\n      mul\n      swap2\n      swap1\n      swap2\n      add\n      add\n        /* \"@openzeppelin/contracts/token/ERC1155/ERC1155.sol\":2981:3030  batchBalances[i] = balanceOf(accounts[i], ids[i]) */\n      mstore\n        /* \"@openzeppelin/contracts/token/ERC1155/ERC1155.sol\":2962:2965  ++i */\n      tag_174\n      dup2\n      tag_175\n      jump\t// in\n    tag_174:\n      swap1\n      pop\n        /* \"@openzeppelin/contracts/token/ERC1155/ERC1155.sol\":2921:3041  for (uint256 i = 0; i < accounts.length; ++i) {... */\n      jump(tag_163)\n    tag_164:\n      pop\n        /* \"@openzeppelin/contracts/token/ERC1155/ERC1155.sol\":3058:3071  batchBalances */\n      swap4\n        /* \"@openzeppelin/contracts/token/ERC1155/ERC1155.sol\":2570:3078  function balanceOfBatch(address[] memory accounts, uint256[] memory ids)... */\n      swap3\n      pop\n      pop\n      pop\n      jump\t// out\n        /* \"@openzeppelin/contracts/token/ERC1155/extensions/ERC1155Burnable.sol\":709:1051  function burnBatch(... */\n    tag_69:\n      sub(shl(0xa0, 0x01), 0x01)\n        /* \"@openzeppelin/contracts/token/ERC1155/extensions/ERC1155Burnable.sol\":868:891  account == _msgSender() */\n      dup4\n      and\n        /* \"@openzeppelin/contracts/utils/Context.sol\":719:729  msg.sender */\n      caller\n        /* \"@openzeppelin/contracts/token/ERC1155/extensions/ERC1155Burnable.sol\":868:891  account == _msgSender() */\n      eq\n      dup1\n        /* \"@openzeppelin/contracts/token/ERC1155/extensions/ERC1155Burnable.sol\":868:934  account == _msgSender() || isApprovedForAll(account, _msgSender()) */\n      tag_180\n      jumpi\n      pop\n        /* \"@openzeppelin/contracts/token/ERC1155/extensions/ERC1155Burnable.sol\":895:934  isApprovedForAll(account, _msgSender()) */\n      tag_180\n        /* \"@openzeppelin/contracts/token/ERC1155/extensions/ERC1155Burnable.sol\":912:919  account */\n      dup4\n        /* \"@openzeppelin/contracts/utils/Context.sol\":719:729  msg.sender */\n      caller\n        /* \"@openzeppelin/contracts/token/ERC1155/ERC1155.sol\":3366:3532  function isApprovedForAll(address account, address operator) public view virtual override returns (bool) {... */\n      tag_87\n      jump\t// in\n        /* \"@openzeppelin/contracts/token/ERC1155/extensions/ERC1155Burnable.sol\":895:934  isApprovedForAll(account, _msgSender()) */\n    tag_180:\n        /* \"@openzeppelin/contracts/token/ERC1155/extensions/ERC1155Burnable.sol\":847:1001  require(... */\n      tag_182\n      jumpi\n      mload(0x40)\n      shl(0xe5, 0x461bcd)\n      dup2\n      mstore\n      0x04\n      add\n      tag_105\n      swap1\n      tag_184\n      jump\t// in\n    tag_182:\n        /* \"@openzeppelin/contracts/token/ERC1155/extensions/ERC1155Burnable.sol\":1012:1044  _burnBatch(account, ids, values) */\n      tag_185\n        /* \"@openzeppelin/contracts/token/ERC1155/extensions/ERC1155Burnable.sol\":1023:1030  account */\n      dup4\n        /* \"@openzeppelin/contracts/token/ERC1155/extensions/ERC1155Burnable.sol\":1032:1035  ids */\n      dup4\n        /* \"@openzeppelin/contracts/token/ERC1155/extensions/ERC1155Burnable.sol\":1037:1043  values */\n      dup4\n        /* \"@openzeppelin/contracts/token/ERC1155/extensions/ERC1155Burnable.sol\":1012:1022  _burnBatch */\n      tag_186\n        /* \"@openzeppelin/contracts/token/ERC1155/extensions/ERC1155Burnable.sol\":1012:1044  _burnBatch(account, ids, values) */\n      jump\t// in\n    tag_185:\n        /* \"@openzeppelin/contracts/token/ERC1155/extensions/ERC1155Burnable.sol\":709:1051  function burnBatch(... */\n      pop\n      pop\n      pop\n      jump\t// out\n        /* \"@openzeppelin/contracts/access/Ownable.sol\":1668:1769  function renounceOwnership() public virtual onlyOwner {... */\n    tag_71:\n        /* \"@openzeppelin/contracts/access/Ownable.sol\":1108:1114  _owner */\n      and(sub(shl(0xa0, 0x01), 0x01), sload(0x03))\n        /* \"@openzeppelin/contracts/utils/Context.sol\":719:729  msg.sender */\n      caller\n        /* \"@openzeppelin/contracts/access/Ownable.sol\":1248:1271  owner() == _msgSender() */\n      eq\n        /* \"@openzeppelin/contracts/access/Ownable.sol\":1240:1308  require(owner() == _msgSender(), \"Ownable: caller is not the owner\") */\n      tag_190\n      jumpi\n      mload(0x40)\n      shl(0xe5, 0x461bcd)\n      dup2\n      mstore\n      0x04\n      add\n      tag_105\n      swap1\n      tag_118\n      jump\t// in\n    tag_190:\n        /* \"@openzeppelin/contracts/access/Ownable.sol\":1732:1762  _transferOwnership(address(0)) */\n      tag_153\n        /* \"@openzeppelin/contracts/access/Ownable.sol\":1759:1760  0 */\n      0x00\n        /* \"@openzeppelin/contracts/access/Ownable.sol\":1732:1750  _transferOwnership */\n      tag_194\n        /* \"@openzeppelin/contracts/access/Ownable.sol\":1732:1762  _transferOwnership(address(0)) */\n      jump\t// in\n        /* \"contracts/HachiNFT.sol\":821:985  function mint(address account, uint256 id, uint256 amount, bytes memory data)... */\n    tag_75:\n        /* \"@openzeppelin/contracts/access/Ownable.sol\":1108:1114  _owner */\n      and(sub(shl(0xa0, 0x01), 0x01), sload(0x03))\n        /* \"@openzeppelin/contracts/utils/Context.sol\":719:729  msg.sender */\n      caller\n        /* \"@openzeppelin/contracts/access/Ownable.sol\":1248:1271  owner() == _msgSender() */\n      eq\n        /* \"@openzeppelin/contracts/access/Ownable.sol\":1240:1308  require(owner() == _msgSender(), \"Ownable: caller is not the owner\") */\n      tag_198\n      jumpi\n      mload(0x40)\n      shl(0xe5, 0x461bcd)\n      dup2\n      mstore\n      0x04\n      add\n      tag_105\n      swap1\n      tag_118\n      jump\t// in\n    tag_198:\n        /* \"contracts/HachiNFT.sol\":946:978  _mint(account, id, amount, data) */\n      tag_135\n        /* \"contracts/HachiNFT.sol\":952:959  account */\n      dup5\n        /* \"contracts/HachiNFT.sol\":961:963  id */\n      dup5\n        /* \"contracts/HachiNFT.sol\":965:971  amount */\n      dup5\n        /* \"contracts/HachiNFT.sol\":973:977  data */\n      dup5\n        /* \"contracts/HachiNFT.sol\":946:951  _mint */\n      tag_202\n        /* \"contracts/HachiNFT.sol\":946:978  _mint(account, id, amount, data) */\n      jump\t// in\n        /* \"contracts/HachiNFT.sol\":687:746  function pause() public onlyOwner {... */\n    tag_77:\n        /* \"@openzeppelin/contracts/access/Ownable.sol\":1108:1114  _owner */\n      and(sub(shl(0xa0, 0x01), 0x01), sload(0x03))\n        /* \"@openzeppelin/contracts/utils/Context.sol\":719:729  msg.sender */\n      caller\n        /* \"@openzeppelin/contracts/access/Ownable.sol\":1248:1271  owner() == _msgSender() */\n      eq\n        /* \"@openzeppelin/contracts/access/Ownable.sol\":1240:1308  require(owner() == _msgSender(), \"Ownable: caller is not the owner\") */\n      tag_206\n      jumpi\n      mload(0x40)\n      shl(0xe5, 0x461bcd)\n      dup2\n      mstore\n      0x04\n      add\n      tag_105\n      swap1\n      tag_118\n      jump\t// in\n    tag_206:\n        /* \"contracts/HachiNFT.sol\":731:739  _pause() */\n      tag_153\n        /* \"contracts/HachiNFT.sol\":731:737  _pause */\n      tag_210\n        /* \"contracts/HachiNFT.sol\":731:739  _pause() */\n      jump\t// in\n        /* \"@openzeppelin/contracts/token/ERC1155/ERC1155.sol\":3146:3299  function setApprovalForAll(address operator, bool approved) public virtual override {... */\n    tag_85:\n        /* \"@openzeppelin/contracts/token/ERC1155/ERC1155.sol\":3240:3292  _setApprovalForAll(_msgSender(), operator, approved) */\n      tag_213\n        /* \"@openzeppelin/contracts/utils/Context.sol\":719:729  msg.sender */\n      caller\n        /* \"@openzeppelin/contracts/token/ERC1155/ERC1155.sol\":3273:3281  operator */\n      dup4\n        /* \"@openzeppelin/contracts/token/ERC1155/ERC1155.sol\":3283:3291  approved */\n      dup4\n        /* \"@openzeppelin/contracts/token/ERC1155/ERC1155.sol\":3240:3258  _setApprovalForAll */\n      tag_215\n        /* \"@openzeppelin/contracts/token/ERC1155/ERC1155.sol\":3240:3292  _setApprovalForAll(_msgSender(), operator, approved) */\n      jump\t// in\n    tag_213:\n        /* \"@openzeppelin/contracts/token/ERC1155/ERC1155.sol\":3146:3299  function setApprovalForAll(address operator, bool approved) public virtual override {... */\n      pop\n      pop\n      jump\t// out\n        /* \"@openzeppelin/contracts/token/ERC1155/ERC1155.sol\":3599:3988  function safeTransferFrom(... */\n    tag_94:\n      sub(shl(0xa0, 0x01), 0x01)\n        /* \"@openzeppelin/contracts/token/ERC1155/ERC1155.sol\":3799:3819  from == _msgSender() */\n      dup6\n      and\n        /* \"@openzeppelin/contracts/utils/Context.sol\":719:729  msg.sender */\n      caller\n        /* \"@openzeppelin/contracts/token/ERC1155/ERC1155.sol\":3799:3819  from == _msgSender() */\n      eq\n      dup1\n        /* \"@openzeppelin/contracts/token/ERC1155/ERC1155.sol\":3799:3859  from == _msgSender() || isApprovedForAll(from, _msgSender()) */\n      tag_220\n      jumpi\n      pop\n        /* \"@openzeppelin/contracts/token/ERC1155/ERC1155.sol\":3823:3859  isApprovedForAll(from, _msgSender()) */\n      tag_220\n        /* \"@openzeppelin/contracts/token/ERC1155/ERC1155.sol\":3840:3844  from */\n      dup6\n        /* \"@openzeppelin/contracts/utils/Context.sol\":719:729  msg.sender */\n      caller\n        /* \"@openzeppelin/contracts/token/ERC1155/ERC1155.sol\":3366:3532  function isApprovedForAll(address account, address operator) public view virtual override returns (bool) {... */\n      tag_87\n      jump\t// in\n        /* \"@openzeppelin/contracts/token/ERC1155/ERC1155.sol\":3823:3859  isApprovedForAll(from, _msgSender()) */\n    tag_220:\n        /* \"@openzeppelin/contracts/token/ERC1155/ERC1155.sol\":3778:3926  require(... */\n      tag_222\n      jumpi\n      mload(0x40)\n      shl(0xe5, 0x461bcd)\n      dup2\n      mstore\n      0x04\n      add\n      tag_105\n      swap1\n      tag_184\n      jump\t// in\n    tag_222:\n        /* \"@openzeppelin/contracts/token/ERC1155/ERC1155.sol\":3936:3981  _safeTransferFrom(from, to, id, amount, data) */\n      tag_145\n        /* \"@openzeppelin/contracts/token/ERC1155/ERC1155.sol\":3954:3958  from */\n      dup6\n        /* \"@openzeppelin/contracts/token/ERC1155/ERC1155.sol\":3960:3962  to */\n      dup6\n        /* \"@openzeppelin/contracts/token/ERC1155/ERC1155.sol\":3964:3966  id */\n      dup6\n        /* \"@openzeppelin/contracts/token/ERC1155/ERC1155.sol\":3968:3974  amount */\n      dup6\n        /* \"@openzeppelin/contracts/token/ERC1155/ERC1155.sol\":3976:3980  data */\n      dup6\n        /* \"@openzeppelin/contracts/token/ERC1155/ERC1155.sol\":3936:3953  _safeTransferFrom */\n      tag_225\n        /* \"@openzeppelin/contracts/token/ERC1155/ERC1155.sol\":3936:3981  _safeTransferFrom(from, to, id, amount, data) */\n      jump\t// in\n        /* \"@openzeppelin/contracts/access/Ownable.sol\":1918:2116  function transferOwnership(address newOwner) public virtual onlyOwner {... */\n    tag_98:\n        /* \"@openzeppelin/contracts/access/Ownable.sol\":1108:1114  _owner */\n      and(sub(shl(0xa0, 0x01), 0x01), sload(0x03))\n        /* \"@openzeppelin/contracts/utils/Context.sol\":719:729  msg.sender */\n      caller\n        /* \"@openzeppelin/contracts/access/Ownable.sol\":1248:1271  owner() == _msgSender() */\n      eq\n        /* \"@openzeppelin/contracts/access/Ownable.sol\":1240:1308  require(owner() == _msgSender(), \"Ownable: caller is not the owner\") */\n      tag_229\n      jumpi\n      mload(0x40)\n      shl(0xe5, 0x461bcd)\n      dup2\n      mstore\n      0x04\n      add\n      tag_105\n      swap1\n      tag_118\n      jump\t// in\n    tag_229:\n      sub(shl(0xa0, 0x01), 0x01)\n        /* \"@openzeppelin/contracts/access/Ownable.sol\":2006:2028  newOwner != address(0) */\n      dup2\n      and\n        /* \"@openzeppelin/contracts/access/Ownable.sol\":1998:2071  require(newOwner != address(0), \"Ownable: new owner is the zero address\") */\n      tag_232\n      jumpi\n      mload(0x40)\n      shl(0xe5, 0x461bcd)\n      dup2\n      mstore\n        /* \"#utility.yul\":14464:14466   */\n      0x20\n        /* \"@openzeppelin/contracts/access/Ownable.sol\":1998:2071  require(newOwner != address(0), \"Ownable: new owner is the zero address\") */\n      0x04\n      dup3\n      add\n        /* \"#utility.yul\":14446:14467   */\n      mstore\n        /* \"#utility.yul\":14503:14505   */\n      0x26\n        /* \"#utility.yul\":14483:14501   */\n      0x24\n      dup3\n      add\n        /* \"#utility.yul\":14476:14506   */\n      mstore\n        /* \"#utility.yul\":14542:14576   */\n      0x4f776e61626c653a206e6577206f776e657220697320746865207a65726f2061\n        /* \"#utility.yul\":14522:14540   */\n      0x44\n      dup3\n      add\n        /* \"#utility.yul\":14515:14577   */\n      mstore\n      shl(0xd0, 0x646472657373)\n        /* \"#utility.yul\":14593:14611   */\n      0x64\n      dup3\n      add\n        /* \"#utility.yul\":14586:14622   */\n      mstore\n        /* \"#utility.yul\":14639:14658   */\n      0x84\n      add\n        /* \"@openzeppelin/contracts/access/Ownable.sol\":1998:2071  require(newOwner != address(0), \"Ownable: new owner is the zero address\") */\n      tag_105\n        /* \"#utility.yul\":14262:14664   */\n      jump\n        /* \"@openzeppelin/contracts/access/Ownable.sol\":1998:2071  require(newOwner != address(0), \"Ownable: new owner is the zero address\") */\n    tag_232:\n        /* \"@openzeppelin/contracts/access/Ownable.sol\":2081:2109  _transferOwnership(newOwner) */\n      tag_120\n        /* \"@openzeppelin/contracts/access/Ownable.sol\":2100:2108  newOwner */\n      dup2\n        /* \"@openzeppelin/contracts/access/Ownable.sol\":2081:2099  _transferOwnership */\n      tag_194\n        /* \"@openzeppelin/contracts/access/Ownable.sol\":2081:2109  _transferOwnership(newOwner) */\n      jump\t// in\n        /* \"@openzeppelin/contracts/token/ERC1155/extensions/ERC1155Burnable.sol\":393:703  function burn(... */\n    tag_102:\n      sub(shl(0xa0, 0x01), 0x01)\n        /* \"@openzeppelin/contracts/token/ERC1155/extensions/ERC1155Burnable.sol\":527:550  account == _msgSender() */\n      dup4\n      and\n        /* \"@openzeppelin/contracts/utils/Context.sol\":719:729  msg.sender */\n      caller\n        /* \"@openzeppelin/contracts/token/ERC1155/extensions/ERC1155Burnable.sol\":527:550  account == _msgSender() */\n      eq\n      dup1\n        /* \"@openzeppelin/contracts/token/ERC1155/extensions/ERC1155Burnable.sol\":527:593  account == _msgSender() || isApprovedForAll(account, _msgSender()) */\n      tag_239\n      jumpi\n      pop\n        /* \"@openzeppelin/contracts/token/ERC1155/extensions/ERC1155Burnable.sol\":554:593  isApprovedForAll(account, _msgSender()) */\n      tag_239\n        /* \"@openzeppelin/contracts/token/ERC1155/extensions/ERC1155Burnable.sol\":571:578  account */\n      dup4\n        /* \"@openzeppelin/contracts/utils/Context.sol\":719:729  msg.sender */\n      caller\n        /* \"@openzeppelin/contracts/token/ERC1155/ERC1155.sol\":3366:3532  function isApprovedForAll(address account, address operator) public view virtual override returns (bool) {... */\n      tag_87\n      jump\t// in\n        /* \"@openzeppelin/contracts/token/ERC1155/extensions/ERC1155Burnable.sol\":554:593  isApprovedForAll(account, _msgSender()) */\n    tag_239:\n        /* \"@openzeppelin/contracts/token/ERC1155/extensions/ERC1155Burnable.sol\":506:660  require(... */\n      tag_241\n      jumpi\n      mload(0x40)\n      shl(0xe5, 0x461bcd)\n      dup2\n      mstore\n      0x04\n      add\n      tag_105\n      swap1\n      tag_184\n      jump\t// in\n    tag_241:\n        /* \"@openzeppelin/contracts/token/ERC1155/extensions/ERC1155Burnable.sol\":671:696  _burn(account, id, value) */\n      tag_185\n        /* \"@openzeppelin/contracts/token/ERC1155/extensions/ERC1155Burnable.sol\":677:684  account */\n      dup4\n        /* \"@openzeppelin/contracts/token/ERC1155/extensions/ERC1155Burnable.sol\":686:688  id */\n      dup4\n        /* \"@openzeppelin/contracts/token/ERC1155/extensions/ERC1155Burnable.sol\":690:695  value */\n      dup4\n        /* \"@openzeppelin/contracts/token/ERC1155/extensions/ERC1155Burnable.sol\":671:676  _burn */\n      tag_244\n        /* \"@openzeppelin/contracts/token/ERC1155/extensions/ERC1155Burnable.sol\":671:696  _burn(account, id, value) */\n      jump\t// in\n        /* \"@openzeppelin/contracts/token/ERC1155/ERC1155.sol\":8171:8257  function _setURI(string memory newuri) internal virtual {... */\n    tag_121:\n        /* \"@openzeppelin/contracts/token/ERC1155/ERC1155.sol\":8237:8250  _uri = newuri */\n      dup1\n      mload\n      tag_213\n      swap1\n        /* \"@openzeppelin/contracts/token/ERC1155/ERC1155.sol\":8237:8241  _uri */\n      0x02\n      swap1\n        /* \"@openzeppelin/contracts/token/ERC1155/ERC1155.sol\":8237:8250  _uri = newuri */\n      0x20\n      dup5\n      add\n      swap1\n      tag_249\n      jump\t// in\n        /* \"@openzeppelin/contracts/token/ERC1155/ERC1155.sol\":9684:10475  function _mintBatch(... */\n    tag_136:\n      sub(shl(0xa0, 0x01), 0x01)\n        /* \"@openzeppelin/contracts/token/ERC1155/ERC1155.sol\":9856:9872  to != address(0) */\n      dup5\n      and\n        /* \"@openzeppelin/contracts/token/ERC1155/ERC1155.sol\":9848:9910  require(to != address(0), \"ERC1155: mint to the zero address\") */\n      tag_251\n      jumpi\n      mload(0x40)\n      shl(0xe5, 0x461bcd)\n      dup2\n      mstore\n      0x04\n      add\n      tag_105\n      swap1\n      tag_253\n      jump\t// in\n    tag_251:\n        /* \"@openzeppelin/contracts/token/ERC1155/ERC1155.sol\":9942:9949  amounts */\n      dup2\n        /* \"@openzeppelin/contracts/token/ERC1155/ERC1155.sol\":9942:9956  amounts.length */\n      mload\n        /* \"@openzeppelin/contracts/token/ERC1155/ERC1155.sol\":9928:9931  ids */\n      dup4\n        /* \"@openzeppelin/contracts/token/ERC1155/ERC1155.sol\":9928:9938  ids.length */\n      mload\n        /* \"@openzeppelin/contracts/token/ERC1155/ERC1155.sol\":9928:9956  ids.length == amounts.length */\n      eq\n        /* \"@openzeppelin/contracts/token/ERC1155/ERC1155.sol\":9920:10001  require(ids.length == amounts.length, \"ERC1155: ids and amounts length mismatch\") */\n      tag_254\n      jumpi\n      mload(0x40)\n      shl(0xe5, 0x461bcd)\n      dup2\n      mstore\n      0x04\n      add\n      tag_105\n      swap1\n      tag_256\n      jump\t// in\n    tag_254:\n        /* \"@openzeppelin/contracts/utils/Context.sol\":719:729  msg.sender */\n      caller\n        /* \"@openzeppelin/contracts/token/ERC1155/ERC1155.sol\":10054:10120  _beforeTokenTransfer(operator, address(0), to, ids, amounts, data) */\n      tag_258\n        /* \"@openzeppelin/contracts/utils/Context.sol\":719:729  msg.sender */\n      dup2\n        /* \"@openzeppelin/contracts/token/ERC1155/ERC1155.sol\":10012:10028  address operator */\n      0x00\n        /* \"@openzeppelin/contracts/token/ERC1155/ERC1155.sol\":10097:10099  to */\n      dup8\n        /* \"@openzeppelin/contracts/token/ERC1155/ERC1155.sol\":10101:10104  ids */\n      dup8\n        /* \"@openzeppelin/contracts/token/ERC1155/ERC1155.sol\":10106:10113  amounts */\n      dup8\n        /* \"@openzeppelin/contracts/token/ERC1155/ERC1155.sol\":10115:10119  data */\n      dup8\n        /* \"@openzeppelin/contracts/token/ERC1155/ERC1155.sol\":10054:10074  _beforeTokenTransfer */\n      tag_259\n        /* \"@openzeppelin/contracts/token/ERC1155/ERC1155.sol\":10054:10120  _beforeTokenTransfer(operator, address(0), to, ids, amounts, data) */\n      jump\t// in\n    tag_258:\n        /* \"@openzeppelin/contracts/token/ERC1155/ERC1155.sol\":10136:10145  uint256 i */\n      0x00\n        /* \"@openzeppelin/contracts/token/ERC1155/ERC1155.sol\":10131:10232  for (uint256 i = 0; i < ids.length; i++) {... */\n    tag_260:\n        /* \"@openzeppelin/contracts/token/ERC1155/ERC1155.sol\":10155:10158  ids */\n      dup5\n        /* \"@openzeppelin/contracts/token/ERC1155/ERC1155.sol\":10155:10165  ids.length */\n      mload\n        /* \"@openzeppelin/contracts/token/ERC1155/ERC1155.sol\":10151:10152  i */\n      dup2\n        /* \"@openzeppelin/contracts/token/ERC1155/ERC1155.sol\":10151:10165  i < ids.length */\n      lt\n        /* \"@openzeppelin/contracts/token/ERC1155/ERC1155.sol\":10131:10232  for (uint256 i = 0; i < ids.length; i++) {... */\n      iszero\n      tag_261\n      jumpi\n        /* \"@openzeppelin/contracts/token/ERC1155/ERC1155.sol\":10211:10218  amounts */\n      dup4\n        /* \"@openzeppelin/contracts/token/ERC1155/ERC1155.sol\":10219:10220  i */\n      dup2\n        /* \"@openzeppelin/contracts/token/ERC1155/ERC1155.sol\":10211:10221  amounts[i] */\n      dup2\n      mload\n      dup2\n      lt\n      tag_264\n      jumpi\n      tag_264\n      tag_169\n      jump\t// in\n    tag_264:\n      0x20\n      mul\n      0x20\n      add\n      add\n      mload\n        /* \"@openzeppelin/contracts/token/ERC1155/ERC1155.sol\":10186:10195  _balances */\n      0x00\n        /* \"@openzeppelin/contracts/token/ERC1155/ERC1155.sol\":10186:10203  _balances[ids[i]] */\n      dup1\n        /* \"@openzeppelin/contracts/token/ERC1155/ERC1155.sol\":10196:10199  ids */\n      dup8\n        /* \"@openzeppelin/contracts/token/ERC1155/ERC1155.sol\":10200:10201  i */\n      dup5\n        /* \"@openzeppelin/contracts/token/ERC1155/ERC1155.sol\":10196:10202  ids[i] */\n      dup2\n      mload\n      dup2\n      lt\n      tag_266\n      jumpi\n      tag_266\n      tag_169\n      jump\t// in\n    tag_266:\n      0x20\n      mul\n      0x20\n      add\n      add\n      mload\n        /* \"@openzeppelin/contracts/token/ERC1155/ERC1155.sol\":10186:10203  _balances[ids[i]] */\n      dup2\n      mstore\n      0x20\n      add\n      swap1\n      dup2\n      mstore\n      0x20\n      add\n      0x00\n      keccak256\n        /* \"@openzeppelin/contracts/token/ERC1155/ERC1155.sol\":10186:10207  _balances[ids[i]][to] */\n      0x00\n        /* \"@openzeppelin/contracts/token/ERC1155/ERC1155.sol\":10204:10206  to */\n      dup9\n      sub(shl(0xa0, 0x01), 0x01)\n        /* \"@openzeppelin/contracts/token/ERC1155/ERC1155.sol\":10186:10207  _balances[ids[i]][to] */\n      and\n      sub(shl(0xa0, 0x01), 0x01)\n      and\n      dup2\n      mstore\n      0x20\n      add\n      swap1\n      dup2\n      mstore\n      0x20\n      add\n      0x00\n      keccak256\n      0x00\n        /* \"@openzeppelin/contracts/token/ERC1155/ERC1155.sol\":10186:10221  _balances[ids[i]][to] += amounts[i] */\n      dup3\n      dup3\n      sload\n      tag_267\n      swap2\n      swap1\n      tag_268\n      jump\t// in\n    tag_267:\n      swap1\n      swap2\n      sstore\n      pop\n        /* \"@openzeppelin/contracts/token/ERC1155/ERC1155.sol\":10167:10170  i++ */\n      dup2\n      swap1\n      pop\n      tag_269\n      dup2\n      tag_175\n      jump\t// in\n    tag_269:\n      swap2\n      pop\n      pop\n        /* \"@openzeppelin/contracts/token/ERC1155/ERC1155.sol\":10131:10232  for (uint256 i = 0; i < ids.length; i++) {... */\n      jump(tag_260)\n    tag_261:\n      pop\n        /* \"@openzeppelin/contracts/token/ERC1155/ERC1155.sol\":10283:10285  to */\n      dup5\n      sub(shl(0xa0, 0x01), 0x01)\n        /* \"@openzeppelin/contracts/token/ERC1155/ERC1155.sol\":10247:10300  TransferBatch(operator, address(0), to, ids, amounts) */\n      and\n        /* \"@openzeppelin/contracts/token/ERC1155/ERC1155.sol\":10279:10280  0 */\n      0x00\n      sub(shl(0xa0, 0x01), 0x01)\n        /* \"@openzeppelin/contracts/token/ERC1155/ERC1155.sol\":10247:10300  TransferBatch(operator, address(0), to, ids, amounts) */\n      and\n        /* \"@openzeppelin/contracts/token/ERC1155/ERC1155.sol\":10261:10269  operator */\n      dup3\n      sub(shl(0xa0, 0x01), 0x01)\n        /* \"@openzeppelin/contracts/token/ERC1155/ERC1155.sol\":10247:10300  TransferBatch(operator, address(0), to, ids, amounts) */\n      and\n      0x4a39dc06d4c0dbc64b70af90fd698a233a518aa5d07e595d983b8c0526c8f7fb\n        /* \"@openzeppelin/contracts/token/ERC1155/ERC1155.sol\":10287:10290  ids */\n      dup8\n        /* \"@openzeppelin/contracts/token/ERC1155/ERC1155.sol\":10292:10299  amounts */\n      dup8\n        /* \"@openzeppelin/contracts/token/ERC1155/ERC1155.sol\":10247:10300  TransferBatch(operator, address(0), to, ids, amounts) */\n      mload(0x40)\n      tag_270\n      swap3\n      swap2\n      swap1\n      tag_271\n      jump\t// in\n    tag_270:\n      mload(0x40)\n      dup1\n      swap2\n      sub\n      swap1\n      log4\n        /* \"@openzeppelin/contracts/token/ERC1155/ERC1155.sol\":10387:10468  _doSafeBatchTransferAcceptanceCheck(operator, address(0), to, ids, amounts, data) */\n      tag_145\n        /* \"@openzeppelin/contracts/token/ERC1155/ERC1155.sol\":10423:10431  operator */\n      dup2\n        /* \"@openzeppelin/contracts/token/ERC1155/ERC1155.sol\":10441:10442  0 */\n      0x00\n        /* \"@openzeppelin/contracts/token/ERC1155/ERC1155.sol\":10445:10447  to */\n      dup8\n        /* \"@openzeppelin/contracts/token/ERC1155/ERC1155.sol\":10449:10452  ids */\n      dup8\n        /* \"@openzeppelin/contracts/token/ERC1155/ERC1155.sol\":10454:10461  amounts */\n      dup8\n        /* \"@openzeppelin/contracts/token/ERC1155/ERC1155.sol\":10463:10467  data */\n      dup8\n        /* \"@openzeppelin/contracts/token/ERC1155/ERC1155.sol\":10387:10422  _doSafeBatchTransferAcceptanceCheck */\n      tag_275\n        /* \"@openzeppelin/contracts/token/ERC1155/ERC1155.sol\":10387:10468  _doSafeBatchTransferAcceptanceCheck(operator, address(0), to, ids, amounts, data) */\n      jump\t// in\n        /* \"@openzeppelin/contracts/token/ERC1155/ERC1155.sol\":6233:7348  function _safeBatchTransferFrom(... */\n    tag_146:\n        /* \"@openzeppelin/contracts/token/ERC1155/ERC1155.sol\":6453:6460  amounts */\n      dup2\n        /* \"@openzeppelin/contracts/token/ERC1155/ERC1155.sol\":6453:6467  amounts.length */\n      mload\n        /* \"@openzeppelin/contracts/token/ERC1155/ERC1155.sol\":6439:6442  ids */\n      dup4\n        /* \"@openzeppelin/contracts/token/ERC1155/ERC1155.sol\":6439:6449  ids.length */\n      mload\n        /* \"@openzeppelin/contracts/token/ERC1155/ERC1155.sol\":6439:6467  ids.length == amounts.length */\n      eq\n        /* \"@openzeppelin/contracts/token/ERC1155/ERC1155.sol\":6431:6512  require(ids.length == amounts.length, \"ERC1155: ids and amounts length mismatch\") */\n      tag_277\n      jumpi\n      mload(0x40)\n      shl(0xe5, 0x461bcd)\n      dup2\n      mstore\n      0x04\n      add\n      tag_105\n      swap1\n      tag_256\n      jump\t// in\n    tag_277:\n      sub(shl(0xa0, 0x01), 0x01)\n        /* \"@openzeppelin/contracts/token/ERC1155/ERC1155.sol\":6530:6546  to != address(0) */\n      dup5\n      and\n        /* \"@openzeppelin/contracts/token/ERC1155/ERC1155.sol\":6522:6588  require(to != address(0), \"ERC1155: transfer to the zero address\") */\n      tag_279\n      jumpi\n      mload(0x40)\n      shl(0xe5, 0x461bcd)\n      dup2\n      mstore\n      0x04\n      add\n      tag_105\n      swap1\n      tag_281\n      jump\t// in\n    tag_279:\n        /* \"@openzeppelin/contracts/utils/Context.sol\":719:729  msg.sender */\n      caller\n        /* \"@openzeppelin/contracts/token/ERC1155/ERC1155.sol\":6641:6701  _beforeTokenTransfer(operator, from, to, ids, amounts, data) */\n      tag_283\n        /* \"@openzeppelin/contracts/utils/Context.sol\":719:729  msg.sender */\n      dup2\n        /* \"@openzeppelin/contracts/token/ERC1155/ERC1155.sol\":6672:6676  from */\n      dup8\n        /* \"@openzeppelin/contracts/token/ERC1155/ERC1155.sol\":6678:6680  to */\n      dup8\n        /* \"@openzeppelin/contracts/token/ERC1155/ERC1155.sol\":6682:6685  ids */\n      dup8\n        /* \"@openzeppelin/contracts/token/ERC1155/ERC1155.sol\":6687:6694  amounts */\n      dup8\n        /* \"@openzeppelin/contracts/token/ERC1155/ERC1155.sol\":6696:6700  data */\n      dup8\n        /* \"@openzeppelin/contracts/token/ERC1155/ERC1155.sol\":6641:6661  _beforeTokenTransfer */\n      tag_259\n        /* \"@openzeppelin/contracts/token/ERC1155/ERC1155.sol\":6641:6701  _beforeTokenTransfer(operator, from, to, ids, amounts, data) */\n      jump\t// in\n    tag_283:\n        /* \"@openzeppelin/contracts/token/ERC1155/ERC1155.sol\":6717:6726  uint256 i */\n      0x00\n        /* \"@openzeppelin/contracts/token/ERC1155/ERC1155.sol\":6712:7123  for (uint256 i = 0; i < ids.length; ++i) {... */\n    tag_284:\n        /* \"@openzeppelin/contracts/token/ERC1155/ERC1155.sol\":6736:6739  ids */\n      dup5\n        /* \"@openzeppelin/contracts/token/ERC1155/ERC1155.sol\":6736:6746  ids.length */\n      mload\n        /* \"@openzeppelin/contracts/token/ERC1155/ERC1155.sol\":6732:6733  i */\n      dup2\n        /* \"@openzeppelin/contracts/token/ERC1155/ERC1155.sol\":6732:6746  i < ids.length */\n      lt\n        /* \"@openzeppelin/contracts/token/ERC1155/ERC1155.sol\":6712:7123  for (uint256 i = 0; i < ids.length; ++i) {... */\n      iszero\n      tag_285\n      jumpi\n        /* \"@openzeppelin/contracts/token/ERC1155/ERC1155.sol\":6767:6777  uint256 id */\n      0x00\n        /* \"@openzeppelin/contracts/token/ERC1155/ERC1155.sol\":6780:6783  ids */\n      dup6\n        /* \"@openzeppelin/contracts/token/ERC1155/ERC1155.sol\":6784:6785  i */\n      dup3\n        /* \"@openzeppelin/contracts/token/ERC1155/ERC1155.sol\":6780:6786  ids[i] */\n      dup2\n      mload\n      dup2\n      lt\n      tag_288\n      jumpi\n      tag_288\n      tag_169\n      jump\t// in\n    tag_288:\n      0x20\n      mul\n      0x20\n      add\n      add\n      mload\n        /* \"@openzeppelin/contracts/token/ERC1155/ERC1155.sol\":6767:6786  uint256 id = ids[i] */\n      swap1\n      pop\n        /* \"@openzeppelin/contracts/token/ERC1155/ERC1155.sol\":6800:6814  uint256 amount */\n      0x00\n        /* \"@openzeppelin/contracts/token/ERC1155/ERC1155.sol\":6817:6824  amounts */\n      dup6\n        /* \"@openzeppelin/contracts/token/ERC1155/ERC1155.sol\":6825:6826  i */\n      dup4\n        /* \"@openzeppelin/contracts/token/ERC1155/ERC1155.sol\":6817:6827  amounts[i] */\n      dup2\n      mload\n      dup2\n      lt\n      tag_290\n      jumpi\n      tag_290\n      tag_169\n      jump\t// in\n    tag_290:\n      0x20\n      swap1\n      dup2\n      mul\n      swap2\n      swap1\n      swap2\n      add\n      dup2\n      add\n      mload\n        /* \"@openzeppelin/contracts/token/ERC1155/ERC1155.sol\":6842:6861  uint256 fromBalance */\n      0x00\n        /* \"@openzeppelin/contracts/token/ERC1155/ERC1155.sol\":6864:6877  _balances[id] */\n      dup5\n      dup2\n      mstore\n      dup1\n      dup4\n      mstore\n      0x40\n      dup1\n      dup3\n      keccak256\n      sub(shl(0xa0, 0x01), 0x01)\n        /* \"@openzeppelin/contracts/token/ERC1155/ERC1155.sol\":6864:6883  _balances[id][from] */\n      dup15\n      and\n      dup4\n      mstore\n      swap1\n      swap4\n      mstore\n      swap2\n      swap1\n      swap2\n      keccak256\n      sload\n        /* \"@openzeppelin/contracts/token/ERC1155/ERC1155.sol\":6817:6827  amounts[i] */\n      swap1\n      swap2\n      pop\n        /* \"@openzeppelin/contracts/token/ERC1155/ERC1155.sol\":6905:6926  fromBalance >= amount */\n      dup2\n      dup2\n      lt\n      iszero\n        /* \"@openzeppelin/contracts/token/ERC1155/ERC1155.sol\":6897:6973  require(fromBalance >= amount, \"ERC1155: insufficient balance for transfer\") */\n      tag_291\n      jumpi\n      mload(0x40)\n      shl(0xe5, 0x461bcd)\n      dup2\n      mstore\n      0x04\n      add\n      tag_105\n      swap1\n      tag_293\n      jump\t// in\n    tag_291:\n        /* \"@openzeppelin/contracts/token/ERC1155/ERC1155.sol\":7015:7024  _balances */\n      0x00\n        /* \"@openzeppelin/contracts/token/ERC1155/ERC1155.sol\":7015:7028  _balances[id] */\n      dup4\n      dup2\n      mstore\n      0x20\n      dup2\n      dup2\n      mstore\n      0x40\n      dup1\n      dup4\n      keccak256\n      sub(shl(0xa0, 0x01), 0x01)\n        /* \"@openzeppelin/contracts/token/ERC1155/ERC1155.sol\":7015:7034  _balances[id][from] */\n      dup15\n      dup2\n      and\n      dup6\n      mstore\n      swap3\n      mstore\n      dup1\n      dup4\n      keccak256\n        /* \"@openzeppelin/contracts/token/ERC1155/ERC1155.sol\":7037:7057  fromBalance - amount */\n      dup6\n      dup6\n      sub\n        /* \"@openzeppelin/contracts/token/ERC1155/ERC1155.sol\":7015:7057  _balances[id][from] = fromBalance - amount */\n      swap1\n      sstore\n        /* \"@openzeppelin/contracts/token/ERC1155/ERC1155.sol\":7085:7102  _balances[id][to] */\n      swap1\n      dup12\n      and\n      dup3\n      mstore\n      dup2\n      keccak256\n        /* \"@openzeppelin/contracts/token/ERC1155/ERC1155.sol\":7085:7112  _balances[id][to] += amount */\n      dup1\n      sload\n        /* \"@openzeppelin/contracts/token/ERC1155/ERC1155.sol\":7037:7057  fromBalance - amount */\n      dup5\n      swap3\n        /* \"@openzeppelin/contracts/token/ERC1155/ERC1155.sol\":7015:7024  _balances */\n      swap1\n        /* \"@openzeppelin/contracts/token/ERC1155/ERC1155.sol\":7085:7112  _balances[id][to] += amount */\n      tag_294\n      swap1\n        /* \"@openzeppelin/contracts/token/ERC1155/ERC1155.sol\":7037:7057  fromBalance - amount */\n      dup5\n      swap1\n        /* \"@openzeppelin/contracts/token/ERC1155/ERC1155.sol\":7085:7112  _balances[id][to] += amount */\n      tag_268\n      jump\t// in\n    tag_294:\n      swap3\n      pop\n      pop\n      dup2\n      swap1\n      sstore\n      pop\n        /* \"@openzeppelin/contracts/token/ERC1155/ERC1155.sol\":6753:7123  {... */\n      pop\n      pop\n      pop\n        /* \"@openzeppelin/contracts/token/ERC1155/ERC1155.sol\":6748:6751  ++i */\n      dup1\n      tag_295\n      swap1\n      tag_175\n      jump\t// in\n    tag_295:\n      swap1\n      pop\n        /* \"@openzeppelin/contracts/token/ERC1155/ERC1155.sol\":6712:7123  for (uint256 i = 0; i < ids.length; ++i) {... */\n      jump(tag_284)\n    tag_285:\n      pop\n        /* \"@openzeppelin/contracts/token/ERC1155/ERC1155.sol\":7168:7170  to */\n      dup5\n      sub(shl(0xa0, 0x01), 0x01)\n        /* \"@openzeppelin/contracts/token/ERC1155/ERC1155.sol\":7138:7185  TransferBatch(operator, from, to, ids, amounts) */\n      and\n        /* \"@openzeppelin/contracts/token/ERC1155/ERC1155.sol\":7162:7166  from */\n      dup7\n      sub(shl(0xa0, 0x01), 0x01)\n        /* \"@openzeppelin/contracts/token/ERC1155/ERC1155.sol\":7138:7185  TransferBatch(operator, from, to, ids, amounts) */\n      and\n        /* \"@openzeppelin/contracts/token/ERC1155/ERC1155.sol\":7152:7160  operator */\n      dup3\n      sub(shl(0xa0, 0x01), 0x01)\n        /* \"@openzeppelin/contracts/token/ERC1155/ERC1155.sol\":7138:7185  TransferBatch(operator, from, to, ids, amounts) */\n      and\n      0x4a39dc06d4c0dbc64b70af90fd698a233a518aa5d07e595d983b8c0526c8f7fb\n        /* \"@openzeppelin/contracts/token/ERC1155/ERC1155.sol\":7172:7175  ids */\n      dup8\n        /* \"@openzeppelin/contracts/token/ERC1155/ERC1155.sol\":7177:7184  amounts */\n      dup8\n        /* \"@openzeppelin/contracts/token/ERC1155/ERC1155.sol\":7138:7185  TransferBatch(operator, from, to, ids, amounts) */\n      mload(0x40)\n      tag_296\n      swap3\n      swap2\n      swap1\n      tag_271\n      jump\t// in\n    tag_296:\n      mload(0x40)\n      dup1\n      swap2\n      sub\n      swap1\n      log4\n        /* \"@openzeppelin/contracts/token/ERC1155/ERC1155.sol\":7266:7341  _doSafeBatchTransferAcceptanceCheck(operator, from, to, ids, amounts, data) */\n      tag_298\n        /* \"@openzeppelin/contracts/token/ERC1155/ERC1155.sol\":7302:7310  operator */\n      dup2\n        /* \"@openzeppelin/contracts/token/ERC1155/ERC1155.sol\":7312:7316  from */\n      dup8\n        /* \"@openzeppelin/contracts/token/ERC1155/ERC1155.sol\":7318:7320  to */\n      dup8\n        /* \"@openzeppelin/contracts/token/ERC1155/ERC1155.sol\":7322:7325  ids */\n      dup8\n        /* \"@openzeppelin/contracts/token/ERC1155/ERC1155.sol\":7327:7334  amounts */\n      dup8\n        /* \"@openzeppelin/contracts/token/ERC1155/ERC1155.sol\":7336:7340  data */\n      dup8\n        /* \"@openzeppelin/contracts/token/ERC1155/ERC1155.sol\":7266:7301  _doSafeBatchTransferAcceptanceCheck */\n      tag_275\n        /* \"@openzeppelin/contracts/token/ERC1155/ERC1155.sol\":7266:7341  _doSafeBatchTransferAcceptanceCheck(operator, from, to, ids, amounts, data) */\n      jump\t// in\n    tag_298:\n        /* \"@openzeppelin/contracts/token/ERC1155/ERC1155.sol\":6421:7348  {... */\n      pop\n        /* \"@openzeppelin/contracts/token/ERC1155/ERC1155.sol\":6233:7348  function _safeBatchTransferFrom(... */\n      pop\n      pop\n      pop\n      pop\n      pop\n      jump\t// out\n        /* \"@openzeppelin/contracts/security/Pausable.sol\":2110:2227  function _unpause() internal virtual whenPaused {... */\n    tag_154:\n        /* \"@openzeppelin/contracts/security/Pausable.sol\":1168:1175  _paused */\n      sload(0x03)\n      shl(0xa0, 0x01)\n      swap1\n      div\n      0xff\n      and\n        /* \"@openzeppelin/contracts/security/Pausable.sol\":1669:1710  require(paused(), \"Pausable: not paused\") */\n      tag_301\n      jumpi\n      mload(0x40)\n      shl(0xe5, 0x461bcd)\n      dup2\n      mstore\n        /* \"#utility.yul\":17102:17104   */\n      0x20\n        /* \"@openzeppelin/contracts/security/Pausable.sol\":1669:1710  require(paused(), \"Pausable: not paused\") */\n      0x04\n      dup3\n      add\n        /* \"#utility.yul\":17084:17105   */\n      mstore\n        /* \"#utility.yul\":17141:17143   */\n      0x14\n        /* \"#utility.yul\":17121:17139   */\n      0x24\n      dup3\n      add\n        /* \"#utility.yul\":17114:17144   */\n      mstore\n      shl(0x62, 0x14185d5cd8589b194e881b9bdd081c185d5cd959)\n        /* \"#utility.yul\":17160:17178   */\n      0x44\n      dup3\n      add\n        /* \"#utility.yul\":17153:17203   */\n      mstore\n        /* \"#utility.yul\":17220:17238   */\n      0x64\n      add\n        /* \"@openzeppelin/contracts/security/Pausable.sol\":1669:1710  require(paused(), \"Pausable: not paused\") */\n      tag_105\n        /* \"#utility.yul\":16900:17244   */\n      jump\n        /* \"@openzeppelin/contracts/security/Pausable.sol\":1669:1710  require(paused(), \"Pausable: not paused\") */\n    tag_301:\n        /* \"@openzeppelin/contracts/security/Pausable.sol\":2168:2175  _paused */\n      0x03\n        /* \"@openzeppelin/contracts/security/Pausable.sol\":2168:2183  _paused = false */\n      dup1\n      sload\n      not(shl(0xa0, 0xff))\n      and\n      swap1\n      sstore\n        /* \"@openzeppelin/contracts/security/Pausable.sol\":2198:2220  Unpaused(_msgSender()) */\n      0x5db9ee0a495bf2e6ff9c91a7834c1ba4fdd244a5e8aa4e537bd38aeae4b073aa\n        /* \"@openzeppelin/contracts/utils/Context.sol\":719:729  msg.sender */\n      caller\n        /* \"@openzeppelin/contracts/security/Pausable.sol\":2207:2219  _msgSender() */\n    tag_305:\n        /* \"@openzeppelin/contracts/security/Pausable.sol\":2198:2220  Unpaused(_msgSender()) */\n      mload(0x40)\n      sub(shl(0xa0, 0x01), 0x01)\n        /* \"#utility.yul\":9671:9703   */\n      swap1\n      swap2\n      and\n        /* \"#utility.yul\":9653:9704   */\n      dup2\n      mstore\n        /* \"#utility.yul\":9641:9643   */\n      0x20\n        /* \"#utility.yul\":9626:9644   */\n      add\n        /* \"@openzeppelin/contracts/security/Pausable.sol\":2198:2220  Unpaused(_msgSender()) */\n      mload(0x40)\n      dup1\n      swap2\n      sub\n      swap1\n      log1\n        /* \"@openzeppelin/contracts/security/Pausable.sol\":2110:2227  function _unpause() internal virtual whenPaused {... */\n      jump\t// out\n        /* \"@openzeppelin/contracts/token/ERC1155/ERC1155.sol\":11695:12638  function _burnBatch(... */\n    tag_186:\n      sub(shl(0xa0, 0x01), 0x01)\n        /* \"@openzeppelin/contracts/token/ERC1155/ERC1155.sol\":11842:11860  from != address(0) */\n      dup4\n      and\n        /* \"@openzeppelin/contracts/token/ERC1155/ERC1155.sol\":11834:11900  require(from != address(0), \"ERC1155: burn from the zero address\") */\n      tag_308\n      jumpi\n      mload(0x40)\n      shl(0xe5, 0x461bcd)\n      dup2\n      mstore\n      0x04\n      add\n      tag_105\n      swap1\n      tag_310\n      jump\t// in\n    tag_308:\n        /* \"@openzeppelin/contracts/token/ERC1155/ERC1155.sol\":11932:11939  amounts */\n      dup1\n        /* \"@openzeppelin/contracts/token/ERC1155/ERC1155.sol\":11932:11946  amounts.length */\n      mload\n        /* \"@openzeppelin/contracts/token/ERC1155/ERC1155.sol\":11918:11921  ids */\n      dup3\n        /* \"@openzeppelin/contracts/token/ERC1155/ERC1155.sol\":11918:11928  ids.length */\n      mload\n        /* \"@openzeppelin/contracts/token/ERC1155/ERC1155.sol\":11918:11946  ids.length == amounts.length */\n      eq\n        /* \"@openzeppelin/contracts/token/ERC1155/ERC1155.sol\":11910:11991  require(ids.length == amounts.length, \"ERC1155: ids and amounts length mismatch\") */\n      tag_311\n      jumpi\n      mload(0x40)\n      shl(0xe5, 0x461bcd)\n      dup2\n      mstore\n      0x04\n      add\n      tag_105\n      swap1\n      tag_256\n      jump\t// in\n    tag_311:\n        /* \"@openzeppelin/contracts/token/ERC1155/ERC1155.sol\":12002:12018  address operator */\n      0x00\n        /* \"@openzeppelin/contracts/utils/Context.sol\":719:729  msg.sender */\n      caller\n        /* \"@openzeppelin/contracts/token/ERC1155/ERC1155.sol\":12002:12033  address operator = _msgSender() */\n      swap1\n      pop\n        /* \"@openzeppelin/contracts/token/ERC1155/ERC1155.sol\":12044:12110  _beforeTokenTransfer(operator, from, address(0), ids, amounts, \"\") */\n      tag_314\n        /* \"@openzeppelin/contracts/token/ERC1155/ERC1155.sol\":12065:12073  operator */\n      dup2\n        /* \"@openzeppelin/contracts/token/ERC1155/ERC1155.sol\":12075:12079  from */\n      dup6\n        /* \"@openzeppelin/contracts/token/ERC1155/ERC1155.sol\":12089:12090  0 */\n      0x00\n        /* \"@openzeppelin/contracts/token/ERC1155/ERC1155.sol\":12093:12096  ids */\n      dup7\n        /* \"@openzeppelin/contracts/token/ERC1155/ERC1155.sol\":12098:12105  amounts */\n      dup7\n        /* \"@openzeppelin/contracts/token/ERC1155/ERC1155.sol\":12044:12110  _beforeTokenTransfer(operator, from, address(0), ids, amounts, \"\") */\n      mload(0x40)\n      dup1\n      0x20\n      add\n      0x40\n      mstore\n      dup1\n      0x00\n      dup2\n      mstore\n      pop\n        /* \"@openzeppelin/contracts/token/ERC1155/ERC1155.sol\":12044:12064  _beforeTokenTransfer */\n      tag_259\n        /* \"@openzeppelin/contracts/token/ERC1155/ERC1155.sol\":12044:12110  _beforeTokenTransfer(operator, from, address(0), ids, amounts, \"\") */\n      jump\t// in\n    tag_314:\n        /* \"@openzeppelin/contracts/token/ERC1155/ERC1155.sol\":12126:12135  uint256 i */\n      0x00\n        /* \"@openzeppelin/contracts/token/ERC1155/ERC1155.sol\":12121:12485  for (uint256 i = 0; i < ids.length; i++) {... */\n    tag_315:\n        /* \"@openzeppelin/contracts/token/ERC1155/ERC1155.sol\":12145:12148  ids */\n      dup4\n        /* \"@openzeppelin/contracts/token/ERC1155/ERC1155.sol\":12145:12155  ids.length */\n      mload\n        /* \"@openzeppelin/contracts/token/ERC1155/ERC1155.sol\":12141:12142  i */\n      dup2\n        /* \"@openzeppelin/contracts/token/ERC1155/ERC1155.sol\":12141:12155  i < ids.length */\n      lt\n        /* \"@openzeppelin/contracts/token/ERC1155/ERC1155.sol\":12121:12485  for (uint256 i = 0; i < ids.length; i++) {... */\n      iszero\n      tag_316\n      jumpi\n        /* \"@openzeppelin/contracts/token/ERC1155/ERC1155.sol\":12176:12186  uint256 id */\n      0x00\n        /* \"@openzeppelin/contracts/token/ERC1155/ERC1155.sol\":12189:12192  ids */\n      dup5\n        /* \"@openzeppelin/contracts/token/ERC1155/ERC1155.sol\":12193:12194  i */\n      dup3\n        /* \"@openzeppelin/contracts/token/ERC1155/ERC1155.sol\":12189:12195  ids[i] */\n      dup2\n      mload\n      dup2\n      lt\n      tag_319\n      jumpi\n      tag_319\n      tag_169\n      jump\t// in\n    tag_319:\n      0x20\n      mul\n      0x20\n      add\n      add\n      mload\n        /* \"@openzeppelin/contracts/token/ERC1155/ERC1155.sol\":12176:12195  uint256 id = ids[i] */\n      swap1\n      pop\n        /* \"@openzeppelin/contracts/token/ERC1155/ERC1155.sol\":12209:12223  uint256 amount */\n      0x00\n        /* \"@openzeppelin/contracts/token/ERC1155/ERC1155.sol\":12226:12233  amounts */\n      dup5\n        /* \"@openzeppelin/contracts/token/ERC1155/ERC1155.sol\":12234:12235  i */\n      dup4\n        /* \"@openzeppelin/contracts/token/ERC1155/ERC1155.sol\":12226:12236  amounts[i] */\n      dup2\n      mload\n      dup2\n      lt\n      tag_321\n      jumpi\n      tag_321\n      tag_169\n      jump\t// in\n    tag_321:\n      0x20\n      swap1\n      dup2\n      mul\n      swap2\n      swap1\n      swap2\n      add\n      dup2\n      add\n      mload\n        /* \"@openzeppelin/contracts/token/ERC1155/ERC1155.sol\":12251:12270  uint256 fromBalance */\n      0x00\n        /* \"@openzeppelin/contracts/token/ERC1155/ERC1155.sol\":12273:12286  _balances[id] */\n      dup5\n      dup2\n      mstore\n      dup1\n      dup4\n      mstore\n      0x40\n      dup1\n      dup3\n      keccak256\n      sub(shl(0xa0, 0x01), 0x01)\n        /* \"@openzeppelin/contracts/token/ERC1155/ERC1155.sol\":12273:12292  _balances[id][from] */\n      dup13\n      and\n      dup4\n      mstore\n      swap1\n      swap4\n      mstore\n      swap2\n      swap1\n      swap2\n      keccak256\n      sload\n        /* \"@openzeppelin/contracts/token/ERC1155/ERC1155.sol\":12226:12236  amounts[i] */\n      swap1\n      swap2\n      pop\n        /* \"@openzeppelin/contracts/token/ERC1155/ERC1155.sol\":12314:12335  fromBalance >= amount */\n      dup2\n      dup2\n      lt\n      iszero\n        /* \"@openzeppelin/contracts/token/ERC1155/ERC1155.sol\":12306:12376  require(fromBalance >= amount, \"ERC1155: burn amount exceeds balance\") */\n      tag_322\n      jumpi\n      mload(0x40)\n      shl(0xe5, 0x461bcd)\n      dup2\n      mstore\n      0x04\n      add\n      tag_105\n      swap1\n      tag_324\n      jump\t// in\n    tag_322:\n        /* \"@openzeppelin/contracts/token/ERC1155/ERC1155.sol\":12418:12427  _balances */\n      0x00\n        /* \"@openzeppelin/contracts/token/ERC1155/ERC1155.sol\":12418:12431  _balances[id] */\n      swap3\n      dup4\n      mstore\n      0x20\n      dup4\n      dup2\n      mstore\n      0x40\n      dup1\n      dup6\n      keccak256\n      sub(shl(0xa0, 0x01), 0x01)\n        /* \"@openzeppelin/contracts/token/ERC1155/ERC1155.sol\":12418:12437  _balances[id][from] */\n      dup12\n      and\n      dup7\n      mstore\n      swap1\n      swap2\n      mstore\n      swap1\n      swap3\n      keccak256\n        /* \"@openzeppelin/contracts/token/ERC1155/ERC1155.sol\":12440:12460  fromBalance - amount */\n      swap2\n      sub\n        /* \"@openzeppelin/contracts/token/ERC1155/ERC1155.sol\":12418:12460  _balances[id][from] = fromBalance - amount */\n      swap1\n      sstore\n        /* \"@openzeppelin/contracts/token/ERC1155/ERC1155.sol\":12157:12160  i++ */\n      dup1\n      tag_325\n      dup2\n      tag_175\n      jump\t// in\n    tag_325:\n      swap2\n      pop\n      pop\n        /* \"@openzeppelin/contracts/token/ERC1155/ERC1155.sol\":12121:12485  for (uint256 i = 0; i < ids.length; i++) {... */\n      jump(tag_315)\n    tag_316:\n      pop\n        /* \"@openzeppelin/contracts/token/ERC1155/ERC1155.sol\":12538:12539  0 */\n      0x00\n      sub(shl(0xa0, 0x01), 0x01)\n        /* \"@openzeppelin/contracts/token/ERC1155/ERC1155.sol\":12500:12555  TransferBatch(operator, from, address(0), ids, amounts) */\n      and\n        /* \"@openzeppelin/contracts/token/ERC1155/ERC1155.sol\":12524:12528  from */\n      dup5\n      sub(shl(0xa0, 0x01), 0x01)\n        /* \"@openzeppelin/contracts/token/ERC1155/ERC1155.sol\":12500:12555  TransferBatch(operator, from, address(0), ids, amounts) */\n      and\n        /* \"@openzeppelin/contracts/token/ERC1155/ERC1155.sol\":12514:12522  operator */\n      dup3\n      sub(shl(0xa0, 0x01), 0x01)\n        /* \"@openzeppelin/contracts/token/ERC1155/ERC1155.sol\":12500:12555  TransferBatch(operator, from, address(0), ids, amounts) */\n      and\n      0x4a39dc06d4c0dbc64b70af90fd698a233a518aa5d07e595d983b8c0526c8f7fb\n        /* \"@openzeppelin/contracts/token/ERC1155/ERC1155.sol\":12542:12545  ids */\n      dup7\n        /* \"@openzeppelin/contracts/token/ERC1155/ERC1155.sol\":12547:12554  amounts */\n      dup7\n        /* \"@openzeppelin/contracts/token/ERC1155/ERC1155.sol\":12500:12555  TransferBatch(operator, from, address(0), ids, amounts) */\n      mload(0x40)\n      tag_326\n      swap3\n      swap2\n      swap1\n      tag_271\n      jump\t// in\n    tag_326:\n      mload(0x40)\n      dup1\n      swap2\n      sub\n      swap1\n      log4\n        /* \"@openzeppelin/contracts/token/ERC1155/ERC1155.sol\":12566:12631  _afterTokenTransfer(operator, from, address(0), ids, amounts, \"\") */\n      0x40\n      dup1\n      mload\n      0x20\n      dup2\n      add\n      swap1\n      swap2\n      mstore\n        /* \"@openzeppelin/contracts/token/ERC1155/ERC1155.sol\":12610:12611  0 */\n      0x00\n        /* \"@openzeppelin/contracts/token/ERC1155/ERC1155.sol\":12566:12631  _afterTokenTransfer(operator, from, address(0), ids, amounts, \"\") */\n      swap1\n      mstore\n      tag_135\n        /* \"@openzeppelin/contracts/token/ERC1155/ERC1155.sol\":6233:7348  function _safeBatchTransferFrom(... */\n      jump\n        /* \"@openzeppelin/contracts/access/Ownable.sol\":2270:2457  function _transferOwnership(address newOwner) internal virtual {... */\n    tag_194:\n        /* \"@openzeppelin/contracts/access/Ownable.sol\":2362:2368  _owner */\n      0x03\n      dup1\n      sload\n      sub(shl(0xa0, 0x01), 0x01)\n        /* \"@openzeppelin/contracts/access/Ownable.sol\":2378:2395  _owner = newOwner */\n      dup4\n      dup2\n      and\n      not(sub(shl(0xa0, 0x01), 0x01))\n      dup4\n      and\n      dup2\n      or\n      swap1\n      swap4\n      sstore\n        /* \"@openzeppelin/contracts/access/Ownable.sol\":2410:2450  OwnershipTransferred(oldOwner, newOwner) */\n      mload(0x40)\n        /* \"@openzeppelin/contracts/access/Ownable.sol\":2362:2368  _owner */\n      swap2\n      and\n      swap2\n        /* \"@openzeppelin/contracts/access/Ownable.sol\":2378:2395  _owner = newOwner */\n      swap1\n        /* \"@openzeppelin/contracts/access/Ownable.sol\":2362:2368  _owner */\n      dup3\n      swap1\n        /* \"@openzeppelin/contracts/access/Ownable.sol\":2410:2450  OwnershipTransferred(oldOwner, newOwner) */\n      0x8be0079c531659141344cd1fd0a4f28419497f9722a3daafe3b4186f6b6457e0\n      swap1\n        /* \"@openzeppelin/contracts/access/Ownable.sol\":2343:2359  address oldOwner */\n      0x00\n      swap1\n        /* \"@openzeppelin/contracts/access/Ownable.sol\":2410:2450  OwnershipTransferred(oldOwner, newOwner) */\n      log3\n        /* \"@openzeppelin/contracts/access/Ownable.sol\":2333:2457  {... */\n      pop\n        /* \"@openzeppelin/contracts/access/Ownable.sol\":2270:2457  function _transferOwnership(address newOwner) internal virtual {... */\n      pop\n      jump\t// out\n        /* \"@openzeppelin/contracts/token/ERC1155/ERC1155.sol\":8630:9339  function _mint(... */\n    tag_202:\n      sub(shl(0xa0, 0x01), 0x01)\n        /* \"@openzeppelin/contracts/token/ERC1155/ERC1155.sol\":8777:8793  to != address(0) */\n      dup5\n      and\n        /* \"@openzeppelin/contracts/token/ERC1155/ERC1155.sol\":8769:8831  require(to != address(0), \"ERC1155: mint to the zero address\") */\n      tag_330\n      jumpi\n      mload(0x40)\n      shl(0xe5, 0x461bcd)\n      dup2\n      mstore\n      0x04\n      add\n      tag_105\n      swap1\n      tag_253\n      jump\t// in\n    tag_330:\n        /* \"@openzeppelin/contracts/utils/Context.sol\":719:729  msg.sender */\n      caller\n        /* \"@openzeppelin/contracts/token/ERC1155/ERC1155.sol\":8842:8858  address operator */\n      0x00\n        /* \"@openzeppelin/contracts/token/ERC1155/ERC1155.sol\":8906:8927  _asSingletonArray(id) */\n      tag_333\n        /* \"@openzeppelin/contracts/token/ERC1155/ERC1155.sol\":8924:8926  id */\n      dup6\n        /* \"@openzeppelin/contracts/token/ERC1155/ERC1155.sol\":8906:8923  _asSingletonArray */\n      tag_334\n        /* \"@openzeppelin/contracts/token/ERC1155/ERC1155.sol\":8906:8927  _asSingletonArray(id) */\n      jump\t// in\n    tag_333:\n        /* \"@openzeppelin/contracts/token/ERC1155/ERC1155.sol\":8883:8927  uint256[] memory ids = _asSingletonArray(id) */\n      swap1\n      pop\n        /* \"@openzeppelin/contracts/token/ERC1155/ERC1155.sol\":8937:8961  uint256[] memory amounts */\n      0x00\n        /* \"@openzeppelin/contracts/token/ERC1155/ERC1155.sol\":8964:8989  _asSingletonArray(amount) */\n      tag_335\n        /* \"@openzeppelin/contracts/token/ERC1155/ERC1155.sol\":8982:8988  amount */\n      dup6\n        /* \"@openzeppelin/contracts/token/ERC1155/ERC1155.sol\":8964:8981  _asSingletonArray */\n      tag_334\n        /* \"@openzeppelin/contracts/token/ERC1155/ERC1155.sol\":8964:8989  _asSingletonArray(amount) */\n      jump\t// in\n    tag_335:\n        /* \"@openzeppelin/contracts/token/ERC1155/ERC1155.sol\":8937:8989  uint256[] memory amounts = _asSingletonArray(amount) */\n      swap1\n      pop\n        /* \"@openzeppelin/contracts/token/ERC1155/ERC1155.sol\":9000:9066  _beforeTokenTransfer(operator, address(0), to, ids, amounts, data) */\n      tag_336\n        /* \"@openzeppelin/contracts/token/ERC1155/ERC1155.sol\":9021:9029  operator */\n      dup4\n        /* \"@openzeppelin/contracts/token/ERC1155/ERC1155.sol\":9039:9040  0 */\n      0x00\n        /* \"@openzeppelin/contracts/token/ERC1155/ERC1155.sol\":9043:9045  to */\n      dup10\n        /* \"@openzeppelin/contracts/token/ERC1155/ERC1155.sol\":9047:9050  ids */\n      dup6\n        /* \"@openzeppelin/contracts/token/ERC1155/ERC1155.sol\":9052:9059  amounts */\n      dup6\n        /* \"@openzeppelin/contracts/token/ERC1155/ERC1155.sol\":9061:9065  data */\n      dup10\n        /* \"@openzeppelin/contracts/token/ERC1155/ERC1155.sol\":9000:9020  _beforeTokenTransfer */\n      tag_259\n        /* \"@openzeppelin/contracts/token/ERC1155/ERC1155.sol\":9000:9066  _beforeTokenTransfer(operator, address(0), to, ids, amounts, data) */\n      jump\t// in\n    tag_336:\n        /* \"@openzeppelin/contracts/token/ERC1155/ERC1155.sol\":9077:9086  _balances */\n      0x00\n        /* \"@openzeppelin/contracts/token/ERC1155/ERC1155.sol\":9077:9090  _balances[id] */\n      dup7\n      dup2\n      mstore\n      0x20\n      dup2\n      dup2\n      mstore\n      0x40\n      dup1\n      dup4\n      keccak256\n      sub(shl(0xa0, 0x01), 0x01)\n        /* \"@openzeppelin/contracts/token/ERC1155/ERC1155.sol\":9077:9094  _balances[id][to] */\n      dup12\n      and\n      dup5\n      mstore\n      swap1\n      swap2\n      mstore\n      dup2\n      keccak256\n        /* \"@openzeppelin/contracts/token/ERC1155/ERC1155.sol\":9077:9104  _balances[id][to] += amount */\n      dup1\n      sload\n        /* \"@openzeppelin/contracts/token/ERC1155/ERC1155.sol\":9098:9104  amount */\n      dup8\n      swap3\n        /* \"@openzeppelin/contracts/token/ERC1155/ERC1155.sol\":9077:9086  _balances */\n      swap1\n        /* \"@openzeppelin/contracts/token/ERC1155/ERC1155.sol\":9077:9104  _balances[id][to] += amount */\n      tag_337\n      swap1\n        /* \"@openzeppelin/contracts/token/ERC1155/ERC1155.sol\":9098:9104  amount */\n      dup5\n      swap1\n        /* \"@openzeppelin/contracts/token/ERC1155/ERC1155.sol\":9077:9104  _balances[id][to] += amount */\n      tag_268\n      jump\t// in\n    tag_337:\n      swap1\n      swap2\n      sstore\n      pop\n      pop\n        /* \"@openzeppelin/contracts/token/ERC1155/ERC1155.sol\":9119:9171  TransferSingle(operator, address(0), to, id, amount) */\n      0x40\n      dup1\n      mload\n        /* \"#utility.yul\":18232:18257   */\n      dup8\n      dup2\n      mstore\n        /* \"#utility.yul\":18288:18290   */\n      0x20\n        /* \"#utility.yul\":18273:18291   */\n      dup2\n      add\n        /* \"#utility.yul\":18266:18300   */\n      dup8\n      swap1\n      mstore\n      sub(shl(0xa0, 0x01), 0x01)\n        /* \"@openzeppelin/contracts/token/ERC1155/ERC1155.sol\":9119:9171  TransferSingle(operator, address(0), to, id, amount) */\n      dup1\n      dup11\n      and\n      swap3\n        /* \"@openzeppelin/contracts/token/ERC1155/ERC1155.sol\":9152:9153  0 */\n      0x00\n      swap3\n        /* \"@openzeppelin/contracts/token/ERC1155/ERC1155.sol\":9119:9171  TransferSingle(operator, address(0), to, id, amount) */\n      swap2\n      dup8\n      and\n      swap2\n      0xc3d58168c5ae7397731d063d5bbf3d657854427343f4c083240f7aacaa2d0f62\n      swap2\n        /* \"#utility.yul\":18205:18223   */\n      add\n        /* \"@openzeppelin/contracts/token/ERC1155/ERC1155.sol\":9119:9171  TransferSingle(operator, address(0), to, id, amount) */\n      mload(0x40)\n      dup1\n      swap2\n      sub\n      swap1\n      log4\n        /* \"@openzeppelin/contracts/token/ERC1155/ERC1155.sol\":9258:9332  _doSafeTransferAcceptanceCheck(operator, address(0), to, id, amount, data) */\n      tag_341\n        /* \"@openzeppelin/contracts/token/ERC1155/ERC1155.sol\":9289:9297  operator */\n      dup4\n        /* \"@openzeppelin/contracts/token/ERC1155/ERC1155.sol\":9307:9308  0 */\n      0x00\n        /* \"@openzeppelin/contracts/token/ERC1155/ERC1155.sol\":9311:9313  to */\n      dup10\n        /* \"@openzeppelin/contracts/token/ERC1155/ERC1155.sol\":9315:9317  id */\n      dup10\n        /* \"@openzeppelin/contracts/token/ERC1155/ERC1155.sol\":9319:9325  amount */\n      dup10\n        /* \"@openzeppelin/contracts/token/ERC1155/ERC1155.sol\":9327:9331  data */\n      dup10\n        /* \"@openzeppelin/contracts/token/ERC1155/ERC1155.sol\":9258:9288  _doSafeTransferAcceptanceCheck */\n      tag_342\n        /* \"@openzeppelin/contracts/token/ERC1155/ERC1155.sol\":9258:9332  _doSafeTransferAcceptanceCheck(operator, address(0), to, id, amount, data) */\n      jump\t// in\n    tag_341:\n        /* \"@openzeppelin/contracts/token/ERC1155/ERC1155.sol\":8759:9339  {... */\n      pop\n      pop\n      pop\n        /* \"@openzeppelin/contracts/token/ERC1155/ERC1155.sol\":8630:9339  function _mint(... */\n      pop\n      pop\n      pop\n      pop\n      jump\t// out\n        /* \"@openzeppelin/contracts/security/Pausable.sol\":1863:1978  function _pause() internal virtual whenNotPaused {... */\n    tag_210:\n        /* \"@openzeppelin/contracts/security/Pausable.sol\":1168:1175  _paused */\n      sload(0x03)\n      shl(0xa0, 0x01)\n      swap1\n      div\n      0xff\n      and\n        /* \"@openzeppelin/contracts/security/Pausable.sol\":1411:1420  !paused() */\n      iszero\n        /* \"@openzeppelin/contracts/security/Pausable.sol\":1403:1441  require(!paused(), \"Pausable: paused\") */\n      tag_345\n      jumpi\n      mload(0x40)\n      shl(0xe5, 0x461bcd)\n      dup2\n      mstore\n        /* \"#utility.yul\":18513:18515   */\n      0x20\n        /* \"@openzeppelin/contracts/security/Pausable.sol\":1403:1441  require(!paused(), \"Pausable: paused\") */\n      0x04\n      dup3\n      add\n        /* \"#utility.yul\":18495:18516   */\n      mstore\n        /* \"#utility.yul\":18552:18554   */\n      0x10\n        /* \"#utility.yul\":18532:18550   */\n      0x24\n      dup3\n      add\n        /* \"#utility.yul\":18525:18555   */\n      mstore\n      shl(0x82, 0x14185d5cd8589b194e881c185d5cd959)\n        /* \"#utility.yul\":18571:18589   */\n      0x44\n      dup3\n      add\n        /* \"#utility.yul\":18564:18610   */\n      mstore\n        /* \"#utility.yul\":18627:18645   */\n      0x64\n      add\n        /* \"@openzeppelin/contracts/security/Pausable.sol\":1403:1441  require(!paused(), \"Pausable: paused\") */\n      tag_105\n        /* \"#utility.yul\":18311:18651   */\n      jump\n        /* \"@openzeppelin/contracts/security/Pausable.sol\":1403:1441  require(!paused(), \"Pausable: paused\") */\n    tag_345:\n        /* \"@openzeppelin/contracts/security/Pausable.sol\":1922:1929  _paused */\n      0x03\n        /* \"@openzeppelin/contracts/security/Pausable.sol\":1922:1936  _paused = true */\n      dup1\n      sload\n      not(shl(0xa0, 0xff))\n      and\n      shl(0xa0, 0x01)\n      or\n      swap1\n      sstore\n        /* \"@openzeppelin/contracts/security/Pausable.sol\":1951:1971  Paused(_msgSender()) */\n      0x62e78cea01bee320cd4e420270b5ea74000d11b0c9f74754ebdbfc544b05a258\n        /* \"@openzeppelin/contracts/security/Pausable.sol\":1958:1970  _msgSender() */\n      tag_305\n        /* \"@openzeppelin/contracts/utils/Context.sol\":719:729  msg.sender */\n      caller\n      swap1\n        /* \"@openzeppelin/contracts/utils/Context.sol\":640:736  function _msgSender() internal view virtual returns (address) {... */\n      jump\n        /* \"@openzeppelin/contracts/token/ERC1155/ERC1155.sol\":12773:13096  function _setApprovalForAll(... */\n    tag_215:\n        /* \"@openzeppelin/contracts/token/ERC1155/ERC1155.sol\":12923:12931  operator */\n      dup2\n      sub(shl(0xa0, 0x01), 0x01)\n        /* \"@openzeppelin/contracts/token/ERC1155/ERC1155.sol\":12914:12931  owner != operator */\n      and\n        /* \"@openzeppelin/contracts/token/ERC1155/ERC1155.sol\":12914:12919  owner */\n      dup4\n      sub(shl(0xa0, 0x01), 0x01)\n        /* \"@openzeppelin/contracts/token/ERC1155/ERC1155.sol\":12914:12931  owner != operator */\n      and\n      eq\n      iszero\n        /* \"@openzeppelin/contracts/token/ERC1155/ERC1155.sol\":12906:12977  require(owner != operator, \"ERC1155: setting approval status for self\") */\n      tag_352\n      jumpi\n      mload(0x40)\n      shl(0xe5, 0x461bcd)\n      dup2\n      mstore\n        /* \"#utility.yul\":18858:18860   */\n      0x20\n        /* \"@openzeppelin/contracts/token/ERC1155/ERC1155.sol\":12906:12977  require(owner != operator, \"ERC1155: setting approval status for self\") */\n      0x04\n      dup3\n      add\n        /* \"#utility.yul\":18840:18861   */\n      mstore\n        /* \"#utility.yul\":18897:18899   */\n      0x29\n        /* \"#utility.yul\":18877:18895   */\n      0x24\n      dup3\n      add\n        /* \"#utility.yul\":18870:18900   */\n      mstore\n        /* \"#utility.yul\":18936:18970   */\n      0x455243313135353a2073657474696e6720617070726f76616c20737461747573\n        /* \"#utility.yul\":18916:18934   */\n      0x44\n      dup3\n      add\n        /* \"#utility.yul\":18909:18971   */\n      mstore\n      shl(0xb9, 0x103337b91039b2b633)\n        /* \"#utility.yul\":18987:19005   */\n      0x64\n      dup3\n      add\n        /* \"#utility.yul\":18980:19019   */\n      mstore\n        /* \"#utility.yul\":19036:19055   */\n      0x84\n      add\n        /* \"@openzeppelin/contracts/token/ERC1155/ERC1155.sol\":12906:12977  require(owner != operator, \"ERC1155: setting approval status for self\") */\n      tag_105\n        /* \"#utility.yul\":18656:19061   */\n      jump\n        /* \"@openzeppelin/contracts/token/ERC1155/ERC1155.sol\":12906:12977  require(owner != operator, \"ERC1155: setting approval status for self\") */\n    tag_352:\n      sub(shl(0xa0, 0x01), 0x01)\n        /* \"@openzeppelin/contracts/token/ERC1155/ERC1155.sol\":12987:13012  _operatorApprovals[owner] */\n      dup4\n      dup2\n      and\n      0x00\n      dup2\n      dup2\n      mstore\n        /* \"@openzeppelin/contracts/token/ERC1155/ERC1155.sol\":12987:13005  _operatorApprovals */\n      0x01\n        /* \"@openzeppelin/contracts/token/ERC1155/ERC1155.sol\":12987:13012  _operatorApprovals[owner] */\n      0x20\n      swap1\n      dup2\n      mstore\n      0x40\n      dup1\n      dup4\n      keccak256\n        /* \"@openzeppelin/contracts/token/ERC1155/ERC1155.sol\":12987:13022  _operatorApprovals[owner][operator] */\n      swap5\n      dup8\n      and\n      dup1\n      dup5\n      mstore\n      swap5\n      dup3\n      mstore\n      swap2\n      dup3\n      swap1\n      keccak256\n        /* \"@openzeppelin/contracts/token/ERC1155/ERC1155.sol\":12987:13033  _operatorApprovals[owner][operator] = approved */\n      dup1\n      sload\n      not(0xff)\n      and\n      dup7\n      iszero\n      iszero\n      swap1\n      dup2\n      or\n      swap1\n      swap2\n      sstore\n        /* \"@openzeppelin/contracts/token/ERC1155/ERC1155.sol\":13048:13089  ApprovalForAll(owner, operator, approved) */\n      swap2\n      mload\n        /* \"#utility.yul\":1159:1200   */\n      swap2\n      dup3\n      mstore\n        /* \"@openzeppelin/contracts/token/ERC1155/ERC1155.sol\":13048:13089  ApprovalForAll(owner, operator, approved) */\n      0x17307eab39ab6107e8899845ad3d59bd9653f200f220920489ca2b5937696c31\n      swap2\n        /* \"#utility.yul\":1132:1150   */\n      add\n        /* \"@openzeppelin/contracts/token/ERC1155/ERC1155.sol\":13048:13089  ApprovalForAll(owner, operator, approved) */\n      mload(0x40)\n      dup1\n      swap2\n      sub\n      swap1\n      log3\n        /* \"@openzeppelin/contracts/token/ERC1155/ERC1155.sol\":12773:13096  function _setApprovalForAll(... */\n      pop\n      pop\n      pop\n      jump\t// out\n        /* \"@openzeppelin/contracts/token/ERC1155/ERC1155.sol\":4940:5887  function _safeTransferFrom(... */\n    tag_225:\n      sub(shl(0xa0, 0x01), 0x01)\n        /* \"@openzeppelin/contracts/token/ERC1155/ERC1155.sol\":5121:5137  to != address(0) */\n      dup5\n      and\n        /* \"@openzeppelin/contracts/token/ERC1155/ERC1155.sol\":5113:5179  require(to != address(0), \"ERC1155: transfer to the zero address\") */\n      tag_357\n      jumpi\n      mload(0x40)\n      shl(0xe5, 0x461bcd)\n      dup2\n      mstore\n      0x04\n      add\n      tag_105\n      swap1\n      tag_281\n      jump\t// in\n    tag_357:\n        /* \"@openzeppelin/contracts/utils/Context.sol\":719:729  msg.sender */\n      caller\n        /* \"@openzeppelin/contracts/token/ERC1155/ERC1155.sol\":5190:5206  address operator */\n      0x00\n        /* \"@openzeppelin/contracts/token/ERC1155/ERC1155.sol\":5254:5275  _asSingletonArray(id) */\n      tag_360\n        /* \"@openzeppelin/contracts/token/ERC1155/ERC1155.sol\":5272:5274  id */\n      dup6\n        /* \"@openzeppelin/contracts/token/ERC1155/ERC1155.sol\":5254:5271  _asSingletonArray */\n      tag_334\n        /* \"@openzeppelin/contracts/token/ERC1155/ERC1155.sol\":5254:5275  _asSingletonArray(id) */\n      jump\t// in\n    tag_360:\n        /* \"@openzeppelin/contracts/token/ERC1155/ERC1155.sol\":5231:5275  uint256[] memory ids = _asSingletonArray(id) */\n      swap1\n      pop\n        /* \"@openzeppelin/contracts/token/ERC1155/ERC1155.sol\":5285:5309  uint256[] memory amounts */\n      0x00\n        /* \"@openzeppelin/contracts/token/ERC1155/ERC1155.sol\":5312:5337  _asSingletonArray(amount) */\n      tag_361\n        /* \"@openzeppelin/contracts/token/ERC1155/ERC1155.sol\":5330:5336  amount */\n      dup6\n        /* \"@openzeppelin/contracts/token/ERC1155/ERC1155.sol\":5312:5329  _asSingletonArray */\n      tag_334\n        /* \"@openzeppelin/contracts/token/ERC1155/ERC1155.sol\":5312:5337  _asSingletonArray(amount) */\n      jump\t// in\n    tag_361:\n        /* \"@openzeppelin/contracts/token/ERC1155/ERC1155.sol\":5285:5337  uint256[] memory amounts = _asSingletonArray(amount) */\n      swap1\n      pop\n        /* \"@openzeppelin/contracts/token/ERC1155/ERC1155.sol\":5348:5408  _beforeTokenTransfer(operator, from, to, ids, amounts, data) */\n      tag_362\n        /* \"@openzeppelin/contracts/token/ERC1155/ERC1155.sol\":5369:5377  operator */\n      dup4\n        /* \"@openzeppelin/contracts/token/ERC1155/ERC1155.sol\":5379:5383  from */\n      dup10\n        /* \"@openzeppelin/contracts/token/ERC1155/ERC1155.sol\":5385:5387  to */\n      dup10\n        /* \"@openzeppelin/contracts/token/ERC1155/ERC1155.sol\":5389:5392  ids */\n      dup6\n        /* \"@openzeppelin/contracts/token/ERC1155/ERC1155.sol\":5394:5401  amounts */\n      dup6\n        /* \"@openzeppelin/contracts/token/ERC1155/ERC1155.sol\":5403:5407  data */\n      dup10\n        /* \"@openzeppelin/contracts/token/ERC1155/ERC1155.sol\":5348:5368  _beforeTokenTransfer */\n      tag_259\n        /* \"@openzeppelin/contracts/token/ERC1155/ERC1155.sol\":5348:5408  _beforeTokenTransfer(operator, from, to, ids, amounts, data) */\n      jump\t// in\n    tag_362:\n        /* \"@openzeppelin/contracts/token/ERC1155/ERC1155.sol\":5419:5438  uint256 fromBalance */\n      0x00\n        /* \"@openzeppelin/contracts/token/ERC1155/ERC1155.sol\":5441:5454  _balances[id] */\n      dup7\n      dup2\n      mstore\n      0x20\n      dup2\n      dup2\n      mstore\n      0x40\n      dup1\n      dup4\n      keccak256\n      sub(shl(0xa0, 0x01), 0x01)\n        /* \"@openzeppelin/contracts/token/ERC1155/ERC1155.sol\":5441:5460  _balances[id][from] */\n      dup13\n      and\n      dup5\n      mstore\n      swap1\n      swap2\n      mstore\n      swap1\n      keccak256\n      sload\n        /* \"@openzeppelin/contracts/token/ERC1155/ERC1155.sol\":5478:5499  fromBalance >= amount */\n      dup6\n      dup2\n      lt\n      iszero\n        /* \"@openzeppelin/contracts/token/ERC1155/ERC1155.sol\":5470:5546  require(fromBalance >= amount, \"ERC1155: insufficient balance for transfer\") */\n      tag_363\n      jumpi\n      mload(0x40)\n      shl(0xe5, 0x461bcd)\n      dup2\n      mstore\n      0x04\n      add\n      tag_105\n      swap1\n      tag_293\n      jump\t// in\n    tag_363:\n        /* \"@openzeppelin/contracts/token/ERC1155/ERC1155.sol\":5580:5589  _balances */\n      0x00\n        /* \"@openzeppelin/contracts/token/ERC1155/ERC1155.sol\":5580:5593  _balances[id] */\n      dup8\n      dup2\n      mstore\n      0x20\n      dup2\n      dup2\n      mstore\n      0x40\n      dup1\n      dup4\n      keccak256\n      sub(shl(0xa0, 0x01), 0x01)\n        /* \"@openzeppelin/contracts/token/ERC1155/ERC1155.sol\":5580:5599  _balances[id][from] */\n      dup14\n      dup2\n      and\n      dup6\n      mstore\n      swap3\n      mstore\n      dup1\n      dup4\n      keccak256\n        /* \"@openzeppelin/contracts/token/ERC1155/ERC1155.sol\":5602:5622  fromBalance - amount */\n      dup10\n      dup6\n      sub\n        /* \"@openzeppelin/contracts/token/ERC1155/ERC1155.sol\":5580:5622  _balances[id][from] = fromBalance - amount */\n      swap1\n      sstore\n        /* \"@openzeppelin/contracts/token/ERC1155/ERC1155.sol\":5642:5659  _balances[id][to] */\n      swap1\n      dup11\n      and\n      dup3\n      mstore\n      dup2\n      keccak256\n        /* \"@openzeppelin/contracts/token/ERC1155/ERC1155.sol\":5642:5669  _balances[id][to] += amount */\n      dup1\n      sload\n        /* \"@openzeppelin/contracts/token/ERC1155/ERC1155.sol\":5602:5622  fromBalance - amount */\n      dup9\n      swap3\n        /* \"@openzeppelin/contracts/token/ERC1155/ERC1155.sol\":5580:5589  _balances */\n      swap1\n        /* \"@openzeppelin/contracts/token/ERC1155/ERC1155.sol\":5642:5669  _balances[id][to] += amount */\n      tag_365\n      swap1\n        /* \"@openzeppelin/contracts/token/ERC1155/ERC1155.sol\":5602:5622  fromBalance - amount */\n      dup5\n      swap1\n        /* \"@openzeppelin/contracts/token/ERC1155/ERC1155.sol\":5642:5669  _balances[id][to] += amount */\n      tag_268\n      jump\t// in\n    tag_365:\n      swap1\n      swap2\n      sstore\n      pop\n      pop\n        /* \"@openzeppelin/contracts/token/ERC1155/ERC1155.sol\":5685:5731  TransferSingle(operator, from, to, id, amount) */\n      0x40\n      dup1\n      mload\n        /* \"#utility.yul\":18232:18257   */\n      dup9\n      dup2\n      mstore\n        /* \"#utility.yul\":18288:18290   */\n      0x20\n        /* \"#utility.yul\":18273:18291   */\n      dup2\n      add\n        /* \"#utility.yul\":18266:18300   */\n      dup9\n      swap1\n      mstore\n      sub(shl(0xa0, 0x01), 0x01)\n        /* \"@openzeppelin/contracts/token/ERC1155/ERC1155.sol\":5685:5731  TransferSingle(operator, from, to, id, amount) */\n      dup1\n      dup12\n      and\n      swap3\n      dup13\n      dup3\n      and\n      swap3\n      swap2\n      dup9\n      and\n      swap2\n      0xc3d58168c5ae7397731d063d5bbf3d657854427343f4c083240f7aacaa2d0f62\n      swap2\n        /* \"#utility.yul\":18205:18223   */\n      add\n        /* \"@openzeppelin/contracts/token/ERC1155/ERC1155.sol\":5685:5731  TransferSingle(operator, from, to, id, amount) */\n      mload(0x40)\n      dup1\n      swap2\n      sub\n      swap1\n      log4\n        /* \"@openzeppelin/contracts/token/ERC1155/ERC1155.sol\":5812:5880  _doSafeTransferAcceptanceCheck(operator, from, to, id, amount, data) */\n      tag_368\n        /* \"@openzeppelin/contracts/token/ERC1155/ERC1155.sol\":5843:5851  operator */\n      dup5\n        /* \"@openzeppelin/contracts/token/ERC1155/ERC1155.sol\":5853:5857  from */\n      dup11\n        /* \"@openzeppelin/contracts/token/ERC1155/ERC1155.sol\":5859:5861  to */\n      dup11\n        /* \"@openzeppelin/contracts/token/ERC1155/ERC1155.sol\":5863:5865  id */\n      dup11\n        /* \"@openzeppelin/contracts/token/ERC1155/ERC1155.sol\":5867:5873  amount */\n      dup11\n        /* \"@openzeppelin/contracts/token/ERC1155/ERC1155.sol\":5875:5879  data */\n      dup11\n        /* \"@openzeppelin/contracts/token/ERC1155/ERC1155.sol\":5812:5842  _doSafeTransferAcceptanceCheck */\n      tag_342\n        /* \"@openzeppelin/contracts/token/ERC1155/ERC1155.sol\":5812:5880  _doSafeTransferAcceptanceCheck(operator, from, to, id, amount, data) */\n      jump\t// in\n    tag_368:\n        /* \"@openzeppelin/contracts/token/ERC1155/ERC1155.sol\":5103:5887  {... */\n      pop\n      pop\n      pop\n      pop\n        /* \"@openzeppelin/contracts/token/ERC1155/ERC1155.sol\":4940:5887  function _safeTransferFrom(... */\n      pop\n      pop\n      pop\n      pop\n      pop\n      jump\t// out\n        /* \"@openzeppelin/contracts/token/ERC1155/ERC1155.sol\":10715:11501  function _burn(... */\n    tag_244:\n      sub(shl(0xa0, 0x01), 0x01)\n        /* \"@openzeppelin/contracts/token/ERC1155/ERC1155.sol\":10837:10855  from != address(0) */\n      dup4\n      and\n        /* \"@openzeppelin/contracts/token/ERC1155/ERC1155.sol\":10829:10895  require(from != address(0), \"ERC1155: burn from the zero address\") */\n      tag_370\n      jumpi\n      mload(0x40)\n      shl(0xe5, 0x461bcd)\n      dup2\n      mstore\n      0x04\n      add\n      tag_105\n      swap1\n      tag_310\n      jump\t// in\n    tag_370:\n        /* \"@openzeppelin/contracts/utils/Context.sol\":719:729  msg.sender */\n      caller\n        /* \"@openzeppelin/contracts/token/ERC1155/ERC1155.sol\":10906:10922  address operator */\n      0x00\n        /* \"@openzeppelin/contracts/token/ERC1155/ERC1155.sol\":10970:10991  _asSingletonArray(id) */\n      tag_373\n        /* \"@openzeppelin/contracts/token/ERC1155/ERC1155.sol\":10988:10990  id */\n      dup5\n        /* \"@openzeppelin/contracts/token/ERC1155/ERC1155.sol\":10970:10987  _asSingletonArray */\n      tag_334\n        /* \"@openzeppelin/contracts/token/ERC1155/ERC1155.sol\":10970:10991  _asSingletonArray(id) */\n      jump\t// in\n    tag_373:\n        /* \"@openzeppelin/contracts/token/ERC1155/ERC1155.sol\":10947:10991  uint256[] memory ids = _asSingletonArray(id) */\n      swap1\n      pop\n        /* \"@openzeppelin/contracts/token/ERC1155/ERC1155.sol\":11001:11025  uint256[] memory amounts */\n      0x00\n        /* \"@openzeppelin/contracts/token/ERC1155/ERC1155.sol\":11028:11053  _asSingletonArray(amount) */\n      tag_374\n        /* \"@openzeppelin/contracts/token/ERC1155/ERC1155.sol\":11046:11052  amount */\n      dup5\n        /* \"@openzeppelin/contracts/token/ERC1155/ERC1155.sol\":11028:11045  _asSingletonArray */\n      tag_334\n        /* \"@openzeppelin/contracts/token/ERC1155/ERC1155.sol\":11028:11053  _asSingletonArray(amount) */\n      jump\t// in\n    tag_374:\n        /* \"@openzeppelin/contracts/token/ERC1155/ERC1155.sol\":11001:11053  uint256[] memory amounts = _asSingletonArray(amount) */\n      swap1\n      pop\n        /* \"@openzeppelin/contracts/token/ERC1155/ERC1155.sol\":11064:11130  _beforeTokenTransfer(operator, from, address(0), ids, amounts, \"\") */\n      tag_375\n        /* \"@openzeppelin/contracts/token/ERC1155/ERC1155.sol\":11085:11093  operator */\n      dup4\n        /* \"@openzeppelin/contracts/token/ERC1155/ERC1155.sol\":11095:11099  from */\n      dup8\n        /* \"@openzeppelin/contracts/token/ERC1155/ERC1155.sol\":11109:11110  0 */\n      0x00\n        /* \"@openzeppelin/contracts/token/ERC1155/ERC1155.sol\":11113:11116  ids */\n      dup6\n        /* \"@openzeppelin/contracts/token/ERC1155/ERC1155.sol\":11118:11125  amounts */\n      dup6\n        /* \"@openzeppelin/contracts/token/ERC1155/ERC1155.sol\":11064:11130  _beforeTokenTransfer(operator, from, address(0), ids, amounts, \"\") */\n      mload(0x40)\n      dup1\n      0x20\n      add\n      0x40\n      mstore\n      dup1\n      0x00\n      dup2\n      mstore\n      pop\n        /* \"@openzeppelin/contracts/token/ERC1155/ERC1155.sol\":11064:11084  _beforeTokenTransfer */\n      tag_259\n        /* \"@openzeppelin/contracts/token/ERC1155/ERC1155.sol\":11064:11130  _beforeTokenTransfer(operator, from, address(0), ids, amounts, \"\") */\n      jump\t// in\n    tag_375:\n        /* \"@openzeppelin/contracts/token/ERC1155/ERC1155.sol\":11141:11160  uint256 fromBalance */\n      0x00\n        /* \"@openzeppelin/contracts/token/ERC1155/ERC1155.sol\":11163:11176  _balances[id] */\n      dup6\n      dup2\n      mstore\n      0x20\n      dup2\n      dup2\n      mstore\n      0x40\n      dup1\n      dup4\n      keccak256\n      sub(shl(0xa0, 0x01), 0x01)\n        /* \"@openzeppelin/contracts/token/ERC1155/ERC1155.sol\":11163:11182  _balances[id][from] */\n      dup11\n      and\n      dup5\n      mstore\n      swap1\n      swap2\n      mstore\n      swap1\n      keccak256\n      sload\n        /* \"@openzeppelin/contracts/token/ERC1155/ERC1155.sol\":11200:11221  fromBalance >= amount */\n      dup5\n      dup2\n      lt\n      iszero\n        /* \"@openzeppelin/contracts/token/ERC1155/ERC1155.sol\":11192:11262  require(fromBalance >= amount, \"ERC1155: burn amount exceeds balance\") */\n      tag_376\n      jumpi\n      mload(0x40)\n      shl(0xe5, 0x461bcd)\n      dup2\n      mstore\n      0x04\n      add\n      tag_105\n      swap1\n      tag_324\n      jump\t// in\n    tag_376:\n        /* \"@openzeppelin/contracts/token/ERC1155/ERC1155.sol\":11296:11305  _balances */\n      0x00\n        /* \"@openzeppelin/contracts/token/ERC1155/ERC1155.sol\":11296:11309  _balances[id] */\n      dup7\n      dup2\n      mstore\n      0x20\n      dup2\n      dup2\n      mstore\n      0x40\n      dup1\n      dup4\n      keccak256\n      sub(shl(0xa0, 0x01), 0x01)\n        /* \"@openzeppelin/contracts/token/ERC1155/ERC1155.sol\":11296:11315  _balances[id][from] */\n      dup12\n      dup2\n      and\n      dup1\n      dup7\n      mstore\n      swap2\n      dup5\n      mstore\n      dup3\n      dup6\n      keccak256\n        /* \"@openzeppelin/contracts/token/ERC1155/ERC1155.sol\":11318:11338  fromBalance - amount */\n      dup11\n      dup8\n      sub\n        /* \"@openzeppelin/contracts/token/ERC1155/ERC1155.sol\":11296:11338  _balances[id][from] = fromBalance - amount */\n      swap1\n      sstore\n        /* \"@openzeppelin/contracts/token/ERC1155/ERC1155.sol\":11364:11418  TransferSingle(operator, from, address(0), id, amount) */\n      dup3\n      mload\n        /* \"#utility.yul\":18232:18257   */\n      dup12\n      dup2\n      mstore\n        /* \"#utility.yul\":18273:18291   */\n      swap4\n      dup5\n      add\n        /* \"#utility.yul\":18266:18300   */\n      dup11\n      swap1\n      mstore\n        /* \"@openzeppelin/contracts/token/ERC1155/ERC1155.sol\":11296:11315  _balances[id][from] */\n      swap1\n      swap3\n        /* \"@openzeppelin/contracts/token/ERC1155/ERC1155.sol\":11364:11418  TransferSingle(operator, from, address(0), id, amount) */\n      swap1\n      dup9\n      and\n      swap2\n      0xc3d58168c5ae7397731d063d5bbf3d657854427343f4c083240f7aacaa2d0f62\n      swap2\n        /* \"#utility.yul\":18205:18223   */\n      add\n        /* \"@openzeppelin/contracts/token/ERC1155/ERC1155.sol\":11364:11418  TransferSingle(operator, from, address(0), id, amount) */\n      mload(0x40)\n      dup1\n      swap2\n      sub\n      swap1\n      log4\n        /* \"@openzeppelin/contracts/token/ERC1155/ERC1155.sol\":11429:11494  _afterTokenTransfer(operator, from, address(0), ids, amounts, \"\") */\n      0x40\n      dup1\n      mload\n      0x20\n      dup2\n      add\n      swap1\n      swap2\n      mstore\n        /* \"@openzeppelin/contracts/token/ERC1155/ERC1155.sol\":11473:11474  0 */\n      0x00\n        /* \"@openzeppelin/contracts/token/ERC1155/ERC1155.sol\":11429:11494  _afterTokenTransfer(operator, from, address(0), ids, amounts, \"\") */\n      swap1\n      mstore\n      tag_341\n        /* \"@openzeppelin/contracts/token/ERC1155/ERC1155.sol\":6233:7348  function _safeBatchTransferFrom(... */\n      jump\n        /* \"contracts/HachiNFT.sol\":1183:1467  function _beforeTokenTransfer(address operator, address from, address to, uint256[] memory ids, uint256[] memory amounts, bytes memory data)... */\n    tag_259:\n        /* \"@openzeppelin/contracts/security/Pausable.sol\":1168:1175  _paused */\n      sload(0x03)\n      shl(0xa0, 0x01)\n      swap1\n      div\n      0xff\n      and\n        /* \"@openzeppelin/contracts/security/Pausable.sol\":1411:1420  !paused() */\n      iszero\n        /* \"@openzeppelin/contracts/security/Pausable.sol\":1403:1441  require(!paused(), \"Pausable: paused\") */\n      tag_382\n      jumpi\n      mload(0x40)\n      shl(0xe5, 0x461bcd)\n      dup2\n      mstore\n        /* \"#utility.yul\":18513:18515   */\n      0x20\n        /* \"@openzeppelin/contracts/security/Pausable.sol\":1403:1441  require(!paused(), \"Pausable: paused\") */\n      0x04\n      dup3\n      add\n        /* \"#utility.yul\":18495:18516   */\n      mstore\n        /* \"#utility.yul\":18552:18554   */\n      0x10\n        /* \"#utility.yul\":18532:18550   */\n      0x24\n      dup3\n      add\n        /* \"#utility.yul\":18525:18555   */\n      mstore\n      shl(0x82, 0x14185d5cd8589b194e881c185d5cd959)\n        /* \"#utility.yul\":18571:18589   */\n      0x44\n      dup3\n      add\n        /* \"#utility.yul\":18564:18610   */\n      mstore\n        /* \"#utility.yul\":18627:18645   */\n      0x64\n      add\n        /* \"@openzeppelin/contracts/security/Pausable.sol\":1403:1441  require(!paused(), \"Pausable: paused\") */\n      tag_105\n        /* \"#utility.yul\":18311:18651   */\n      jump\n        /* \"@openzeppelin/contracts/security/Pausable.sol\":1403:1441  require(!paused(), \"Pausable: paused\") */\n    tag_382:\n        /* \"contracts/HachiNFT.sol\":1394:1460  super._beforeTokenTransfer(operator, from, to, ids, amounts, data) */\n      tag_298\n        /* \"@openzeppelin/contracts/token/ERC1155/ERC1155.sol\":6233:7348  function _safeBatchTransferFrom(... */\n      jump\n        /* \"@openzeppelin/contracts/token/ERC1155/ERC1155.sol\":16127:16919  function _doSafeBatchTransferAcceptanceCheck(... */\n    tag_275:\n      sub(shl(0xa0, 0x01), 0x01)\n        /* \"@openzeppelin/contracts/token/ERC1155/ERC1155.sol\":16359:16372  to.isContract */\n      dup5\n      and\n        /* \"@openzeppelin/contracts/utils/Address.sol\":1465:1484  account.code.length */\n      extcodesize\n        /* \"@openzeppelin/contracts/utils/Address.sol\":1465:1488  account.code.length > 0 */\n      iszero\n        /* \"@openzeppelin/contracts/token/ERC1155/ERC1155.sol\":16355:16913  if (to.isContract()) {... */\n      tag_298\n      jumpi\n        /* \"@openzeppelin/contracts/token/ERC1155/ERC1155.sol\":16394:16473  IERC1155Receiver(to).onERC1155BatchReceived(operator, from, ids, amounts, data) */\n      mload(0x40)\n      shl(0xe0, 0xbc197c81)\n      dup2\n      mstore\n      sub(shl(0xa0, 0x01), 0x01)\n        /* \"@openzeppelin/contracts/token/ERC1155/ERC1155.sol\":16394:16437  IERC1155Receiver(to).onERC1155BatchReceived */\n      dup6\n      and\n      swap1\n      0xbc197c81\n      swap1\n        /* \"@openzeppelin/contracts/token/ERC1155/ERC1155.sol\":16394:16473  IERC1155Receiver(to).onERC1155BatchReceived(operator, from, ids, amounts, data) */\n      tag_392\n      swap1\n        /* \"@openzeppelin/contracts/token/ERC1155/ERC1155.sol\":16438:16446  operator */\n      dup10\n      swap1\n        /* \"@openzeppelin/contracts/token/ERC1155/ERC1155.sol\":16448:16452  from */\n      dup10\n      swap1\n        /* \"@openzeppelin/contracts/token/ERC1155/ERC1155.sol\":16454:16457  ids */\n      dup9\n      swap1\n        /* \"@openzeppelin/contracts/token/ERC1155/ERC1155.sol\":16459:16466  amounts */\n      dup9\n      swap1\n        /* \"@openzeppelin/contracts/token/ERC1155/ERC1155.sol\":16468:16472  data */\n      dup9\n      swap1\n        /* \"@openzeppelin/contracts/token/ERC1155/ERC1155.sol\":16394:16473  IERC1155Receiver(to).onERC1155BatchReceived(operator, from, ids, amounts, data) */\n      0x04\n      add\n      tag_393\n      jump\t// in\n    tag_392:\n      0x20\n      mload(0x40)\n      dup1\n      dup4\n      sub\n      dup2\n      0x00\n      dup8\n      gas\n      call\n      swap3\n      pop\n      pop\n      pop\n      dup1\n      iszero\n      tag_394\n      jumpi\n      pop\n      0x40\n      dup1\n      mload\n      0x1f\n      returndatasize\n      swap1\n      dup2\n      add\n      not(0x1f)\n      and\n      dup3\n      add\n      swap1\n      swap3\n      mstore\n      tag_395\n      swap2\n      dup2\n      add\n      swap1\n      tag_396\n      jump\t// in\n    tag_395:\n      0x01\n    tag_394:\n        /* \"@openzeppelin/contracts/token/ERC1155/ERC1155.sol\":16390:16903  try IERC1155Receiver(to).onERC1155BatchReceived(operator, from, ids, amounts, data) returns (... */\n      tag_397\n      jumpi\n      tag_401\n      tag_402\n      jump\t// in\n    tag_401:\n      dup1\n      0x08c379a0\n      eq\n      iszero\n      tag_400\n      jumpi\n      pop\n      tag_403\n      tag_404\n      jump\t// in\n    tag_403:\n      dup1\n      tag_405\n      jumpi\n      pop\n      jump(tag_399)\n    tag_405:\n        /* \"@openzeppelin/contracts/token/ERC1155/ERC1155.sol\":16779:16785  reason */\n      dup1\n        /* \"@openzeppelin/contracts/token/ERC1155/ERC1155.sol\":16772:16786  revert(reason) */\n      mload(0x40)\n      shl(0xe5, 0x461bcd)\n      dup2\n      mstore\n      0x04\n      add\n      tag_105\n      swap2\n      swap1\n      tag_46\n      jump\t// in\n        /* \"@openzeppelin/contracts/token/ERC1155/ERC1155.sol\":16390:16903  try IERC1155Receiver(to).onERC1155BatchReceived(operator, from, ids, amounts, data) returns (... */\n    tag_400:\n      pop\n    tag_399:\n        /* \"@openzeppelin/contracts/token/ERC1155/ERC1155.sol\":16826:16888  revert(\"ERC1155: transfer to non ERC1155Receiver implementer\") */\n      mload(0x40)\n      shl(0xe5, 0x461bcd)\n      dup2\n      mstore\n        /* \"#utility.yul\":21214:21216   */\n      0x20\n        /* \"@openzeppelin/contracts/token/ERC1155/ERC1155.sol\":16826:16888  revert(\"ERC1155: transfer to non ERC1155Receiver implementer\") */\n      0x04\n      dup3\n      add\n        /* \"#utility.yul\":21196:21217   */\n      mstore\n        /* \"#utility.yul\":21253:21255   */\n      0x34\n        /* \"#utility.yul\":21233:21251   */\n      0x24\n      dup3\n      add\n        /* \"#utility.yul\":21226:21256   */\n      mstore\n        /* \"#utility.yul\":21292:21326   */\n      0x455243313135353a207472616e7366657220746f206e6f6e2045524331313535\n        /* \"#utility.yul\":21272:21290   */\n      0x44\n      dup3\n      add\n        /* \"#utility.yul\":21265:21327   */\n      mstore\n      shl(0x61, 0x2932b1b2b4bb32b91034b6b83632b6b2b73a32b9)\n        /* \"#utility.yul\":21343:21361   */\n      0x64\n      dup3\n      add\n        /* \"#utility.yul\":21336:21386   */\n      mstore\n        /* \"#utility.yul\":21403:21422   */\n      0x84\n      add\n        /* \"@openzeppelin/contracts/token/ERC1155/ERC1155.sol\":16826:16888  revert(\"ERC1155: transfer to non ERC1155Receiver implementer\") */\n      tag_105\n        /* \"#utility.yul\":21012:21428   */\n      jump\n        /* \"@openzeppelin/contracts/token/ERC1155/ERC1155.sol\":16390:16903  try IERC1155Receiver(to).onERC1155BatchReceived(operator, from, ids, amounts, data) returns (... */\n    tag_397:\n      not(sub(shl(0xe0, 0x01), 0x01))\n        /* \"@openzeppelin/contracts/token/ERC1155/ERC1155.sol\":16552:16612  response != IERC1155Receiver.onERC1155BatchReceived.selector */\n      dup2\n      and\n      shl(0xe0, 0xbc197c81)\n      eq\n        /* \"@openzeppelin/contracts/token/ERC1155/ERC1155.sol\":16548:16705  if (response != IERC1155Receiver.onERC1155BatchReceived.selector) {... */\n      tag_341\n      jumpi\n        /* \"@openzeppelin/contracts/token/ERC1155/ERC1155.sol\":16636:16686  revert(\"ERC1155: ERC1155Receiver rejected tokens\") */\n      mload(0x40)\n      shl(0xe5, 0x461bcd)\n      dup2\n      mstore\n      0x04\n      add\n      tag_105\n      swap1\n      tag_412\n      jump\t// in\n        /* \"@openzeppelin/contracts/token/ERC1155/ERC1155.sol\":16925:17118  function _asSingletonArray(uint256 element) private pure returns (uint256[] memory) {... */\n    tag_334:\n        /* \"@openzeppelin/contracts/token/ERC1155/ERC1155.sol\":17044:17060  new uint256[](1) */\n      0x40\n      dup1\n      mload\n        /* \"@openzeppelin/contracts/token/ERC1155/ERC1155.sol\":17058:17059  1 */\n      0x01\n        /* \"@openzeppelin/contracts/token/ERC1155/ERC1155.sol\":17044:17060  new uint256[](1) */\n      dup1\n      dup3\n      mstore\n      dup2\n      dup4\n      add\n      swap1\n      swap3\n      mstore\n        /* \"@openzeppelin/contracts/token/ERC1155/ERC1155.sol\":16991:17007  uint256[] memory */\n      0x60\n      swap2\n        /* \"@openzeppelin/contracts/token/ERC1155/ERC1155.sol\":17019:17041  uint256[] memory array */\n      0x00\n      swap2\n        /* \"@openzeppelin/contracts/token/ERC1155/ERC1155.sol\":17044:17060  new uint256[](1) */\n      swap1\n      0x20\n      dup1\n      dup4\n      add\n      swap1\n      dup1\n      calldatasize\n      dup4\n      calldatacopy\n      add\n      swap1\n      pop\n      pop\n        /* \"@openzeppelin/contracts/token/ERC1155/ERC1155.sol\":17019:17060  uint256[] memory array = new uint256[](1) */\n      swap1\n      pop\n        /* \"@openzeppelin/contracts/token/ERC1155/ERC1155.sol\":17081:17088  element */\n      dup3\n        /* \"@openzeppelin/contracts/token/ERC1155/ERC1155.sol\":17070:17075  array */\n      dup2\n        /* \"@openzeppelin/contracts/token/ERC1155/ERC1155.sol\":17076:17077  0 */\n      0x00\n        /* \"@openzeppelin/contracts/token/ERC1155/ERC1155.sol\":17070:17078  array[0] */\n      dup2\n      mload\n      dup2\n      lt\n      tag_418\n      jumpi\n      tag_418\n      tag_169\n      jump\t// in\n    tag_418:\n      0x20\n      swap1\n      dup2\n      mul\n      swap2\n      swap1\n      swap2\n      add\n      add\n        /* \"@openzeppelin/contracts/token/ERC1155/ERC1155.sol\":17070:17088  array[0] = element */\n      mstore\n        /* \"@openzeppelin/contracts/token/ERC1155/ERC1155.sol\":17106:17111  array */\n      swap3\n        /* \"@openzeppelin/contracts/token/ERC1155/ERC1155.sol\":16925:17118  function _asSingletonArray(uint256 element) private pure returns (uint256[] memory) {... */\n      swap2\n      pop\n      pop\n      jump\t// out\n        /* \"@openzeppelin/contracts/token/ERC1155/ERC1155.sol\":15396:16121  function _doSafeTransferAcceptanceCheck(... */\n    tag_342:\n      sub(shl(0xa0, 0x01), 0x01)\n        /* \"@openzeppelin/contracts/token/ERC1155/ERC1155.sol\":15603:15616  to.isContract */\n      dup5\n      and\n        /* \"@openzeppelin/contracts/utils/Address.sol\":1465:1484  account.code.length */\n      extcodesize\n        /* \"@openzeppelin/contracts/utils/Address.sol\":1465:1488  account.code.length > 0 */\n      iszero\n        /* \"@openzeppelin/contracts/token/ERC1155/ERC1155.sol\":15599:16115  if (to.isContract()) {... */\n      tag_298\n      jumpi\n        /* \"@openzeppelin/contracts/token/ERC1155/ERC1155.sol\":15638:15710  IERC1155Receiver(to).onERC1155Received(operator, from, id, amount, data) */\n      mload(0x40)\n      shl(0xe0, 0xf23a6e61)\n      dup2\n      mstore\n      sub(shl(0xa0, 0x01), 0x01)\n        /* \"@openzeppelin/contracts/token/ERC1155/ERC1155.sol\":15638:15676  IERC1155Receiver(to).onERC1155Received */\n      dup6\n      and\n      swap1\n      0xf23a6e61\n      swap1\n        /* \"@openzeppelin/contracts/token/ERC1155/ERC1155.sol\":15638:15710  IERC1155Receiver(to).onERC1155Received(operator, from, id, amount, data) */\n      tag_422\n      swap1\n        /* \"@openzeppelin/contracts/token/ERC1155/ERC1155.sol\":15677:15685  operator */\n      dup10\n      swap1\n        /* \"@openzeppelin/contracts/token/ERC1155/ERC1155.sol\":15687:15691  from */\n      dup10\n      swap1\n        /* \"@openzeppelin/contracts/token/ERC1155/ERC1155.sol\":15693:15695  id */\n      dup9\n      swap1\n        /* \"@openzeppelin/contracts/token/ERC1155/ERC1155.sol\":15697:15703  amount */\n      dup9\n      swap1\n        /* \"@openzeppelin/contracts/token/ERC1155/ERC1155.sol\":15705:15709  data */\n      dup9\n      swap1\n        /* \"@openzeppelin/contracts/token/ERC1155/ERC1155.sol\":15638:15710  IERC1155Receiver(to).onERC1155Received(operator, from, id, amount, data) */\n      0x04\n      add\n      tag_423\n      jump\t// in\n    tag_422:\n      0x20\n      mload(0x40)\n      dup1\n      dup4\n      sub\n      dup2\n      0x00\n      dup8\n      gas\n      call\n      swap3\n      pop\n      pop\n      pop\n      dup1\n      iszero\n      tag_424\n      jumpi\n      pop\n      0x40\n      dup1\n      mload\n      0x1f\n      returndatasize\n      swap1\n      dup2\n      add\n      not(0x1f)\n      and\n      dup3\n      add\n      swap1\n      swap3\n      mstore\n      tag_425\n      swap2\n      dup2\n      add\n      swap1\n      tag_396\n      jump\t// in\n    tag_425:\n      0x01\n    tag_424:\n        /* \"@openzeppelin/contracts/token/ERC1155/ERC1155.sol\":15634:16105  try IERC1155Receiver(to).onERC1155Received(operator, from, id, amount, data) returns (bytes4 response) {... */\n      tag_426\n      jumpi\n      tag_401\n      tag_402\n      jump\t// in\n    tag_426:\n      not(sub(shl(0xe0, 0x01), 0x01))\n        /* \"@openzeppelin/contracts/token/ERC1155/ERC1155.sol\":15759:15814  response != IERC1155Receiver.onERC1155Received.selector */\n      dup2\n      and\n      shl(0xe0, 0xf23a6e61)\n      eq\n        /* \"@openzeppelin/contracts/token/ERC1155/ERC1155.sol\":15755:15907  if (response != IERC1155Receiver.onERC1155Received.selector) {... */\n      tag_341\n      jumpi\n        /* \"@openzeppelin/contracts/token/ERC1155/ERC1155.sol\":15838:15888  revert(\"ERC1155: ERC1155Receiver rejected tokens\") */\n      mload(0x40)\n      shl(0xe5, 0x461bcd)\n      dup2\n      mstore\n      0x04\n      add\n      tag_105\n      swap1\n      tag_412\n      jump\t// in\n    tag_249:\n      dup3\n      dup1\n      sload\n      tag_440\n      swap1\n      tag_124\n      jump\t// in\n    tag_440:\n      swap1\n      0x00\n      mstore\n      keccak256(0x00, 0x20)\n      swap1\n      0x1f\n      add\n      0x20\n      swap1\n      div\n      dup2\n      add\n      swap3\n      dup3\n      tag_442\n      jumpi\n      0x00\n      dup6\n      sstore\n      jump(tag_445)\n    tag_442:\n      dup3\n      0x1f\n      lt\n      tag_443\n      jumpi\n      dup1\n      mload\n      not(0xff)\n      and\n      dup4\n      dup1\n      add\n      or\n      dup6\n      sstore\n      jump(tag_445)\n    tag_443:\n      dup3\n      dup1\n      add\n      0x01\n      add\n      dup6\n      sstore\n      dup3\n      iszero\n      tag_445\n      jumpi\n      swap2\n      dup3\n      add\n    tag_444:\n      dup3\n      dup2\n      gt\n      iszero\n      tag_445\n      jumpi\n      dup3\n      mload\n      dup3\n      sstore\n      swap2\n      0x20\n      add\n      swap2\n      swap1\n      0x01\n      add\n      swap1\n      jump(tag_444)\n    tag_445:\n      pop\n      tag_446\n      swap3\n      swap2\n      pop\n      tag_447\n      jump\t// in\n    tag_446:\n      pop\n      swap1\n      jump\t// out\n    tag_447:\n    tag_448:\n      dup1\n      dup3\n      gt\n      iszero\n      tag_446\n      jumpi\n      0x00\n      dup2\n      sstore\n      0x01\n      add\n      jump(tag_448)\n        /* \"#utility.yul\":14:187   */\n    tag_450:\n        /* \"#utility.yul\":82:102   */\n      dup1\n      calldataload\n      sub(shl(0xa0, 0x01), 0x01)\n        /* \"#utility.yul\":131:162   */\n      dup2\n      and\n        /* \"#utility.yul\":121:163   */\n      dup2\n      eq\n        /* \"#utility.yul\":111:181   */\n      tag_462\n      jumpi\n        /* \"#utility.yul\":177:178   */\n      0x00\n        /* \"#utility.yul\":174:175   */\n      dup1\n        /* \"#utility.yul\":167:179   */\n      revert\n        /* \"#utility.yul\":111:181   */\n    tag_462:\n        /* \"#utility.yul\":14:187   */\n      swap2\n      swap1\n      pop\n      jump\t// out\n        /* \"#utility.yul\":192:446   */\n    tag_27:\n        /* \"#utility.yul\":260:266   */\n      0x00\n        /* \"#utility.yul\":268:274   */\n      dup1\n        /* \"#utility.yul\":321:323   */\n      0x40\n        /* \"#utility.yul\":309:318   */\n      dup4\n        /* \"#utility.yul\":300:307   */\n      dup6\n        /* \"#utility.yul\":296:319   */\n      sub\n        /* \"#utility.yul\":292:324   */\n      slt\n        /* \"#utility.yul\":289:341   */\n      iszero\n      tag_464\n      jumpi\n        /* \"#utility.yul\":337:338   */\n      0x00\n        /* \"#utility.yul\":334:335   */\n      dup1\n        /* \"#utility.yul\":327:339   */\n      revert\n        /* \"#utility.yul\":289:341   */\n    tag_464:\n        /* \"#utility.yul\":360:389   */\n      tag_465\n        /* \"#utility.yul\":379:388   */\n      dup4\n        /* \"#utility.yul\":360:389   */\n      tag_450\n      jump\t// in\n    tag_465:\n        /* \"#utility.yul\":350:389   */\n      swap5\n        /* \"#utility.yul\":436:438   */\n      0x20\n        /* \"#utility.yul\":421:439   */\n      swap4\n      swap1\n      swap4\n      add\n        /* \"#utility.yul\":408:440   */\n      calldataload\n      swap4\n      pop\n      pop\n      pop\n        /* \"#utility.yul\":192:446   */\n      jump\t// out\n        /* \"#utility.yul\":633:764   */\n    tag_451:\n      not(sub(shl(0xe0, 0x01), 0x01))\n        /* \"#utility.yul\":707:739   */\n      dup2\n      and\n        /* \"#utility.yul\":697:740   */\n      dup2\n      eq\n        /* \"#utility.yul\":687:758   */\n      tag_120\n      jumpi\n        /* \"#utility.yul\":754:755   */\n      0x00\n        /* \"#utility.yul\":751:752   */\n      dup1\n        /* \"#utility.yul\":744:756   */\n      revert\n        /* \"#utility.yul\":769:1014   */\n    tag_33:\n        /* \"#utility.yul\":827:833   */\n      0x00\n        /* \"#utility.yul\":880:882   */\n      0x20\n        /* \"#utility.yul\":868:877   */\n      dup3\n        /* \"#utility.yul\":859:866   */\n      dup5\n        /* \"#utility.yul\":855:878   */\n      sub\n        /* \"#utility.yul\":851:883   */\n      slt\n        /* \"#utility.yul\":848:900   */\n      iszero\n      tag_470\n      jumpi\n        /* \"#utility.yul\":896:897   */\n      0x00\n        /* \"#utility.yul\":893:894   */\n      dup1\n        /* \"#utility.yul\":886:898   */\n      revert\n        /* \"#utility.yul\":848:900   */\n    tag_470:\n        /* \"#utility.yul\":935:944   */\n      dup2\n        /* \"#utility.yul\":922:945   */\n      calldataload\n        /* \"#utility.yul\":954:984   */\n      tag_471\n        /* \"#utility.yul\":978:983   */\n      dup2\n        /* \"#utility.yul\":954:984   */\n      tag_451\n      jump\t// in\n    tag_471:\n        /* \"#utility.yul\":1003:1008   */\n      swap4\n        /* \"#utility.yul\":769:1014   */\n      swap3\n      pop\n      pop\n      pop\n      jump\t// out\n        /* \"#utility.yul\":1211:1338   */\n    tag_161:\n        /* \"#utility.yul\":1272:1282   */\n      0x4e487b71\n        /* \"#utility.yul\":1267:1270   */\n      0xe0\n        /* \"#utility.yul\":1263:1283   */\n      shl\n        /* \"#utility.yul\":1260:1261   */\n      0x00\n        /* \"#utility.yul\":1253:1284   */\n      mstore\n        /* \"#utility.yul\":1303:1307   */\n      0x41\n        /* \"#utility.yul\":1300:1301   */\n      0x04\n        /* \"#utility.yul\":1293:1308   */\n      mstore\n        /* \"#utility.yul\":1327:1331   */\n      0x24\n        /* \"#utility.yul\":1324:1325   */\n      0x00\n        /* \"#utility.yul\":1317:1332   */\n      revert\n        /* \"#utility.yul\":1343:1592   */\n    tag_452:\n        /* \"#utility.yul\":1453:1455   */\n      0x1f\n        /* \"#utility.yul\":1434:1447   */\n      dup3\n      add\n      not(0x1f)\n        /* \"#utility.yul\":1430:1457   */\n      and\n        /* \"#utility.yul\":1418:1458   */\n      dup2\n      add\n        /* \"#utility.yul\":1488:1506   */\n      0xffffffffffffffff\n        /* \"#utility.yul\":1473:1507   */\n      dup2\n      gt\n        /* \"#utility.yul\":1509:1531   */\n      dup3\n      dup3\n      lt\n        /* \"#utility.yul\":1470:1532   */\n      or\n        /* \"#utility.yul\":1467:1555   */\n      iszero\n      tag_476\n      jumpi\n        /* \"#utility.yul\":1535:1553   */\n      tag_476\n      tag_161\n      jump\t// in\n    tag_476:\n        /* \"#utility.yul\":1571:1573   */\n      0x40\n        /* \"#utility.yul\":1564:1586   */\n      mstore\n      pop\n      pop\n        /* \"#utility.yul\":1343:1592   */\n      jump\t// out\n        /* \"#utility.yul\":1597:2066   */\n    tag_453:\n        /* \"#utility.yul\":1662:1667   */\n      0x00\n        /* \"#utility.yul\":1696:1714   */\n      0xffffffffffffffff\n        /* \"#utility.yul\":1688:1694   */\n      dup4\n        /* \"#utility.yul\":1685:1715   */\n      gt\n        /* \"#utility.yul\":1682:1738   */\n      iszero\n      tag_479\n      jumpi\n        /* \"#utility.yul\":1718:1736   */\n      tag_479\n      tag_161\n      jump\t// in\n    tag_479:\n        /* \"#utility.yul\":1767:1769   */\n      0x40\n        /* \"#utility.yul\":1761:1770   */\n      mload\n        /* \"#utility.yul\":1779:1848   */\n      tag_480\n        /* \"#utility.yul\":1836:1838   */\n      0x1f\n        /* \"#utility.yul\":1815:1830   */\n      dup6\n      add\n      not(0x1f)\n        /* \"#utility.yul\":1811:1840   */\n      and\n        /* \"#utility.yul\":1842:1846   */\n      0x20\n        /* \"#utility.yul\":1807:1847   */\n      add\n        /* \"#utility.yul\":1761:1770   */\n      dup3\n        /* \"#utility.yul\":1779:1848   */\n      tag_452\n      jump\t// in\n    tag_480:\n        /* \"#utility.yul\":1866:1872   */\n      dup1\n        /* \"#utility.yul\":1857:1872   */\n      swap2\n      pop\n        /* \"#utility.yul\":1896:1902   */\n      dup4\n        /* \"#utility.yul\":1888:1894   */\n      dup2\n        /* \"#utility.yul\":1881:1903   */\n      mstore\n        /* \"#utility.yul\":1936:1939   */\n      dup5\n        /* \"#utility.yul\":1927:1933   */\n      dup5\n        /* \"#utility.yul\":1922:1925   */\n      dup5\n        /* \"#utility.yul\":1918:1934   */\n      add\n        /* \"#utility.yul\":1915:1940   */\n      gt\n        /* \"#utility.yul\":1912:1957   */\n      iszero\n      tag_481\n      jumpi\n        /* \"#utility.yul\":1953:1954   */\n      0x00\n        /* \"#utility.yul\":1950:1951   */\n      dup1\n        /* \"#utility.yul\":1943:1955   */\n      revert\n        /* \"#utility.yul\":1912:1957   */\n    tag_481:\n        /* \"#utility.yul\":2003:2009   */\n      dup4\n        /* \"#utility.yul\":1998:2001   */\n      dup4\n        /* \"#utility.yul\":1991:1995   */\n      0x20\n        /* \"#utility.yul\":1983:1989   */\n      dup4\n        /* \"#utility.yul\":1979:1996   */\n      add\n        /* \"#utility.yul\":1966:2010   */\n      calldatacopy\n        /* \"#utility.yul\":2058:2059   */\n      0x00\n        /* \"#utility.yul\":2051:2055   */\n      0x20\n        /* \"#utility.yul\":2042:2048   */\n      dup6\n        /* \"#utility.yul\":2034:2040   */\n      dup4\n        /* \"#utility.yul\":2030:2049   */\n      add\n        /* \"#utility.yul\":2026:2056   */\n      add\n        /* \"#utility.yul\":2019:2060   */\n      mstore\n      pop\n        /* \"#utility.yul\":1597:2066   */\n      swap4\n      swap3\n      pop\n      pop\n      pop\n      jump\t// out\n        /* \"#utility.yul\":2071:2522   */\n    tag_39:\n        /* \"#utility.yul\":2140:2146   */\n      0x00\n        /* \"#utility.yul\":2193:2195   */\n      0x20\n        /* \"#utility.yul\":2181:2190   */\n      dup3\n        /* \"#utility.yul\":2172:2179   */\n      dup5\n        /* \"#utility.yul\":2168:2191   */\n      sub\n        /* \"#utility.yul\":2164:2196   */\n      slt\n        /* \"#utility.yul\":2161:2213   */\n      iszero\n      tag_483\n      jumpi\n        /* \"#utility.yul\":2209:2210   */\n      0x00\n        /* \"#utility.yul\":2206:2207   */\n      dup1\n        /* \"#utility.yul\":2199:2211   */\n      revert\n        /* \"#utility.yul\":2161:2213   */\n    tag_483:\n        /* \"#utility.yul\":2249:2258   */\n      dup2\n        /* \"#utility.yul\":2236:2259   */\n      calldataload\n        /* \"#utility.yul\":2282:2300   */\n      0xffffffffffffffff\n        /* \"#utility.yul\":2274:2280   */\n      dup2\n        /* \"#utility.yul\":2271:2301   */\n      gt\n        /* \"#utility.yul\":2268:2318   */\n      iszero\n      tag_484\n      jumpi\n        /* \"#utility.yul\":2314:2315   */\n      0x00\n        /* \"#utility.yul\":2311:2312   */\n      dup1\n        /* \"#utility.yul\":2304:2316   */\n      revert\n        /* \"#utility.yul\":2268:2318   */\n    tag_484:\n        /* \"#utility.yul\":2337:2359   */\n      dup3\n      add\n        /* \"#utility.yul\":2390:2394   */\n      0x1f\n        /* \"#utility.yul\":2382:2395   */\n      dup2\n      add\n        /* \"#utility.yul\":2378:2405   */\n      dup5\n      sgt\n        /* \"#utility.yul\":2368:2423   */\n      tag_485\n      jumpi\n        /* \"#utility.yul\":2419:2420   */\n      0x00\n        /* \"#utility.yul\":2416:2417   */\n      dup1\n        /* \"#utility.yul\":2409:2421   */\n      revert\n        /* \"#utility.yul\":2368:2423   */\n    tag_485:\n        /* \"#utility.yul\":2442:2516   */\n      tag_486\n        /* \"#utility.yul\":2508:2515   */\n      dup5\n        /* \"#utility.yul\":2503:2505   */\n      dup3\n        /* \"#utility.yul\":2490:2506   */\n      calldataload\n        /* \"#utility.yul\":2485:2487   */\n      0x20\n        /* \"#utility.yul\":2481:2483   */\n      dup5\n        /* \"#utility.yul\":2477:2488   */\n      add\n        /* \"#utility.yul\":2442:2516   */\n      tag_453\n      jump\t// in\n    tag_486:\n        /* \"#utility.yul\":2432:2516   */\n      swap5\n        /* \"#utility.yul\":2071:2522   */\n      swap4\n      pop\n      pop\n      pop\n      pop\n      jump\t// out\n        /* \"#utility.yul\":2527:2707   */\n    tag_43:\n        /* \"#utility.yul\":2586:2592   */\n      0x00\n        /* \"#utility.yul\":2639:2641   */\n      0x20\n        /* \"#utility.yul\":2627:2636   */\n      dup3\n        /* \"#utility.yul\":2618:2625   */\n      dup5\n        /* \"#utility.yul\":2614:2637   */\n      sub\n        /* \"#utility.yul\":2610:2642   */\n      slt\n        /* \"#utility.yul\":2607:2659   */\n      iszero\n      tag_488\n      jumpi\n        /* \"#utility.yul\":2655:2656   */\n      0x00\n        /* \"#utility.yul\":2652:2653   */\n      dup1\n        /* \"#utility.yul\":2645:2657   */\n      revert\n        /* \"#utility.yul\":2607:2659   */\n    tag_488:\n      pop\n        /* \"#utility.yul\":2678:2701   */\n      calldataload\n      swap2\n        /* \"#utility.yul\":2527:2707   */\n      swap1\n      pop\n      jump\t// out\n        /* \"#utility.yul\":2712:3184   */\n    tag_454:\n        /* \"#utility.yul\":2754:2757   */\n      0x00\n        /* \"#utility.yul\":2792:2797   */\n      dup2\n        /* \"#utility.yul\":2786:2798   */\n      mload\n        /* \"#utility.yul\":2819:2825   */\n      dup1\n        /* \"#utility.yul\":2814:2817   */\n      dup5\n        /* \"#utility.yul\":2807:2826   */\n      mstore\n        /* \"#utility.yul\":2844:2845   */\n      0x00\n        /* \"#utility.yul\":2854:3016   */\n    tag_490:\n        /* \"#utility.yul\":2868:2874   */\n      dup2\n        /* \"#utility.yul\":2865:2866   */\n      dup2\n        /* \"#utility.yul\":2862:2875   */\n      lt\n        /* \"#utility.yul\":2854:3016   */\n      iszero\n      tag_492\n      jumpi\n        /* \"#utility.yul\":2930:2934   */\n      0x20\n        /* \"#utility.yul\":2986:2999   */\n      dup2\n      dup6\n      add\n        /* \"#utility.yul\":2982:3004   */\n      dup2\n      add\n        /* \"#utility.yul\":2976:3005   */\n      mload\n        /* \"#utility.yul\":2958:2969   */\n      dup7\n      dup4\n      add\n        /* \"#utility.yul\":2954:2974   */\n      dup3\n      add\n        /* \"#utility.yul\":2947:3006   */\n      mstore\n        /* \"#utility.yul\":2883:2895   */\n      add\n        /* \"#utility.yul\":2854:3016   */\n      jump(tag_490)\n    tag_492:\n        /* \"#utility.yul\":3034:3040   */\n      dup2\n        /* \"#utility.yul\":3031:3032   */\n      dup2\n        /* \"#utility.yul\":3028:3041   */\n      gt\n        /* \"#utility.yul\":3025:3112   */\n      iszero\n      tag_493\n      jumpi\n        /* \"#utility.yul\":3100:3101   */\n      0x00\n        /* \"#utility.yul\":3093:3097   */\n      0x20\n        /* \"#utility.yul\":3084:3090   */\n      dup4\n        /* \"#utility.yul\":3079:3082   */\n      dup8\n        /* \"#utility.yul\":3075:3091   */\n      add\n        /* \"#utility.yul\":3071:3098   */\n      add\n        /* \"#utility.yul\":3064:3102   */\n      mstore\n        /* \"#utility.yul\":3025:3112   */\n    tag_493:\n      pop\n        /* \"#utility.yul\":3166:3168   */\n      0x1f\n        /* \"#utility.yul\":3145:3160   */\n      add\n      not(0x1f)\n        /* \"#utility.yul\":3141:3170   */\n      and\n        /* \"#utility.yul\":3132:3171   */\n      swap3\n      swap1\n      swap3\n      add\n        /* \"#utility.yul\":3173:3177   */\n      0x20\n        /* \"#utility.yul\":3128:3178   */\n      add\n      swap3\n        /* \"#utility.yul\":2712:3184   */\n      swap2\n      pop\n      pop\n      jump\t// out\n        /* \"#utility.yul\":3189:3409   */\n    tag_46:\n        /* \"#utility.yul\":3338:3340   */\n      0x20\n        /* \"#utility.yul\":3327:3336   */\n      dup2\n        /* \"#utility.yul\":3320:3341   */\n      mstore\n        /* \"#utility.yul\":3301:3305   */\n      0x00\n        /* \"#utility.yul\":3358:3403   */\n      tag_471\n        /* \"#utility.yul\":3399:3401   */\n      0x20\n        /* \"#utility.yul\":3388:3397   */\n      dup4\n        /* \"#utility.yul\":3384:3402   */\n      add\n        /* \"#utility.yul\":3376:3382   */\n      dup5\n        /* \"#utility.yul\":3358:3403   */\n      tag_454\n      jump\t// in\n        /* \"#utility.yul\":3414:3597   */\n    tag_455:\n        /* \"#utility.yul\":3474:3478   */\n      0x00\n        /* \"#utility.yul\":3507:3525   */\n      0xffffffffffffffff\n        /* \"#utility.yul\":3499:3505   */\n      dup3\n        /* \"#utility.yul\":3496:3526   */\n      gt\n        /* \"#utility.yul\":3493:3549   */\n      iszero\n      tag_498\n      jumpi\n        /* \"#utility.yul\":3529:3547   */\n      tag_498\n      tag_161\n      jump\t// in\n    tag_498:\n      pop\n        /* \"#utility.yul\":3574:3575   */\n      0x05\n        /* \"#utility.yul\":3570:3584   */\n      shl\n        /* \"#utility.yul\":3586:3590   */\n      0x20\n        /* \"#utility.yul\":3566:3591   */\n      add\n      swap1\n        /* \"#utility.yul\":3414:3597   */\n      jump\t// out\n        /* \"#utility.yul\":3602:4326   */\n    tag_456:\n        /* \"#utility.yul\":3656:3661   */\n      0x00\n        /* \"#utility.yul\":3709:3712   */\n      dup3\n        /* \"#utility.yul\":3702:3706   */\n      0x1f\n        /* \"#utility.yul\":3694:3700   */\n      dup4\n        /* \"#utility.yul\":3690:3707   */\n      add\n        /* \"#utility.yul\":3686:3713   */\n      slt\n        /* \"#utility.yul\":3676:3731   */\n      tag_500\n      jumpi\n        /* \"#utility.yul\":3727:3728   */\n      0x00\n        /* \"#utility.yul\":3724:3725   */\n      dup1\n        /* \"#utility.yul\":3717:3729   */\n      revert\n        /* \"#utility.yul\":3676:3731   */\n    tag_500:\n        /* \"#utility.yul\":3763:3769   */\n      dup2\n        /* \"#utility.yul\":3750:3770   */\n      calldataload\n        /* \"#utility.yul\":3789:3793   */\n      0x20\n        /* \"#utility.yul\":3812:3855   */\n      tag_501\n        /* \"#utility.yul\":3852:3854   */\n      dup3\n        /* \"#utility.yul\":3812:3855   */\n      tag_455\n      jump\t// in\n    tag_501:\n        /* \"#utility.yul\":3884:3886   */\n      0x40\n        /* \"#utility.yul\":3878:3887   */\n      mload\n        /* \"#utility.yul\":3896:3927   */\n      tag_502\n        /* \"#utility.yul\":3924:3926   */\n      dup3\n        /* \"#utility.yul\":3916:3922   */\n      dup3\n        /* \"#utility.yul\":3896:3927   */\n      tag_452\n      jump\t// in\n    tag_502:\n        /* \"#utility.yul\":3962:3980   */\n      dup4\n      dup2\n      mstore\n        /* \"#utility.yul\":4054:4055   */\n      0x05\n        /* \"#utility.yul\":4050:4060   */\n      swap4\n      swap1\n      swap4\n      shl\n        /* \"#utility.yul\":4038:4061   */\n      dup6\n      add\n        /* \"#utility.yul\":4034:4066   */\n      dup3\n      add\n      swap3\n        /* \"#utility.yul\":3996:4011   */\n      dup3\n      dup2\n      add\n      swap2\n      pop\n        /* \"#utility.yul\":4078:4093   */\n      dup7\n      dup5\n      gt\n        /* \"#utility.yul\":4075:4110   */\n      iszero\n      tag_503\n      jumpi\n        /* \"#utility.yul\":4106:4107   */\n      0x00\n        /* \"#utility.yul\":4103:4104   */\n      dup1\n        /* \"#utility.yul\":4096:4108   */\n      revert\n        /* \"#utility.yul\":4075:4110   */\n    tag_503:\n        /* \"#utility.yul\":4142:4144   */\n      dup3\n        /* \"#utility.yul\":4134:4140   */\n      dup7\n        /* \"#utility.yul\":4130:4145   */\n      add\n        /* \"#utility.yul\":4154:4296   */\n    tag_504:\n        /* \"#utility.yul\":4170:4176   */\n      dup5\n        /* \"#utility.yul\":4165:4168   */\n      dup2\n        /* \"#utility.yul\":4162:4177   */\n      lt\n        /* \"#utility.yul\":4154:4296   */\n      iszero\n      tag_506\n      jumpi\n        /* \"#utility.yul\":4236:4253   */\n      dup1\n      calldataload\n        /* \"#utility.yul\":4224:4254   */\n      dup4\n      mstore\n        /* \"#utility.yul\":4274:4286   */\n      swap2\n      dup4\n      add\n      swap2\n        /* \"#utility.yul\":4187:4199   */\n      dup4\n      add\n        /* \"#utility.yul\":4154:4296   */\n      jump(tag_504)\n    tag_506:\n      pop\n        /* \"#utility.yul\":4314:4320   */\n      swap7\n        /* \"#utility.yul\":3602:4326   */\n      swap6\n      pop\n      pop\n      pop\n      pop\n      pop\n      pop\n      jump\t// out\n        /* \"#utility.yul\":4331:4552   */\n    tag_457:\n        /* \"#utility.yul\":4373:4378   */\n      0x00\n        /* \"#utility.yul\":4426:4429   */\n      dup3\n        /* \"#utility.yul\":4419:4423   */\n      0x1f\n        /* \"#utility.yul\":4411:4417   */\n      dup4\n        /* \"#utility.yul\":4407:4424   */\n      add\n        /* \"#utility.yul\":4403:4430   */\n      slt\n        /* \"#utility.yul\":4393:4448   */\n      tag_508\n      jumpi\n        /* \"#utility.yul\":4444:4445   */\n      0x00\n        /* \"#utility.yul\":4441:4442   */\n      dup1\n        /* \"#utility.yul\":4434:4446   */\n      revert\n        /* \"#utility.yul\":4393:4448   */\n    tag_508:\n        /* \"#utility.yul\":4466:4546   */\n      tag_471\n        /* \"#utility.yul\":4542:4545   */\n      dup4\n        /* \"#utility.yul\":4533:4539   */\n      dup4\n        /* \"#utility.yul\":4520:4540   */\n      calldataload\n        /* \"#utility.yul\":4513:4517   */\n      0x20\n        /* \"#utility.yul\":4505:4511   */\n      dup6\n        /* \"#utility.yul\":4501:4518   */\n      add\n        /* \"#utility.yul\":4466:4546   */\n      tag_453\n      jump\t// in\n        /* \"#utility.yul\":4557:5425   */\n    tag_49:\n        /* \"#utility.yul\":4702:4708   */\n      0x00\n        /* \"#utility.yul\":4710:4716   */\n      dup1\n        /* \"#utility.yul\":4718:4724   */\n      0x00\n        /* \"#utility.yul\":4726:4732   */\n      dup1\n        /* \"#utility.yul\":4779:4782   */\n      0x80\n        /* \"#utility.yul\":4767:4776   */\n      dup6\n        /* \"#utility.yul\":4758:4765   */\n      dup8\n        /* \"#utility.yul\":4754:4777   */\n      sub\n        /* \"#utility.yul\":4750:4783   */\n      slt\n        /* \"#utility.yul\":4747:4800   */\n      iszero\n      tag_511\n      jumpi\n        /* \"#utility.yul\":4796:4797   */\n      0x00\n        /* \"#utility.yul\":4793:4794   */\n      dup1\n        /* \"#utility.yul\":4786:4798   */\n      revert\n        /* \"#utility.yul\":4747:4800   */\n    tag_511:\n        /* \"#utility.yul\":4819:4848   */\n      tag_512\n        /* \"#utility.yul\":4838:4847   */\n      dup6\n        /* \"#utility.yul\":4819:4848   */\n      tag_450\n      jump\t// in\n    tag_512:\n        /* \"#utility.yul\":4809:4848   */\n      swap4\n      pop\n        /* \"#utility.yul\":4899:4901   */\n      0x20\n        /* \"#utility.yul\":4888:4897   */\n      dup6\n        /* \"#utility.yul\":4884:4902   */\n      add\n        /* \"#utility.yul\":4871:4903   */\n      calldataload\n        /* \"#utility.yul\":4922:4940   */\n      0xffffffffffffffff\n        /* \"#utility.yul\":4963:4965   */\n      dup1\n        /* \"#utility.yul\":4955:4961   */\n      dup3\n        /* \"#utility.yul\":4952:4966   */\n      gt\n        /* \"#utility.yul\":4949:4983   */\n      iszero\n      tag_513\n      jumpi\n        /* \"#utility.yul\":4979:4980   */\n      0x00\n        /* \"#utility.yul\":4976:4977   */\n      dup1\n        /* \"#utility.yul\":4969:4981   */\n      revert\n        /* \"#utility.yul\":4949:4983   */\n    tag_513:\n        /* \"#utility.yul\":5002:5063   */\n      tag_514\n        /* \"#utility.yul\":5055:5062   */\n      dup9\n        /* \"#utility.yul\":5046:5052   */\n      dup4\n        /* \"#utility.yul\":5035:5044   */\n      dup10\n        /* \"#utility.yul\":5031:5053   */\n      add\n        /* \"#utility.yul\":5002:5063   */\n      tag_456\n      jump\t// in\n    tag_514:\n        /* \"#utility.yul\":4992:5063   */\n      swap5\n      pop\n        /* \"#utility.yul\":5116:5118   */\n      0x40\n        /* \"#utility.yul\":5105:5114   */\n      dup8\n        /* \"#utility.yul\":5101:5119   */\n      add\n        /* \"#utility.yul\":5088:5120   */\n      calldataload\n        /* \"#utility.yul\":5072:5120   */\n      swap2\n      pop\n        /* \"#utility.yul\":5145:5147   */\n      dup1\n        /* \"#utility.yul\":5135:5143   */\n      dup3\n        /* \"#utility.yul\":5132:5148   */\n      gt\n        /* \"#utility.yul\":5129:5165   */\n      iszero\n      tag_515\n      jumpi\n        /* \"#utility.yul\":5161:5162   */\n      0x00\n        /* \"#utility.yul\":5158:5159   */\n      dup1\n        /* \"#utility.yul\":5151:5163   */\n      revert\n        /* \"#utility.yul\":5129:5165   */\n    tag_515:\n        /* \"#utility.yul\":5184:5247   */\n      tag_516\n        /* \"#utility.yul\":5239:5246   */\n      dup9\n        /* \"#utility.yul\":5228:5236   */\n      dup4\n        /* \"#utility.yul\":5217:5226   */\n      dup10\n        /* \"#utility.yul\":5213:5237   */\n      add\n        /* \"#utility.yul\":5184:5247   */\n      tag_456\n      jump\t// in\n    tag_516:\n        /* \"#utility.yul\":5174:5247   */\n      swap4\n      pop\n        /* \"#utility.yul\":5300:5302   */\n      0x60\n        /* \"#utility.yul\":5289:5298   */\n      dup8\n        /* \"#utility.yul\":5285:5303   */\n      add\n        /* \"#utility.yul\":5272:5304   */\n      calldataload\n        /* \"#utility.yul\":5256:5304   */\n      swap2\n      pop\n        /* \"#utility.yul\":5329:5331   */\n      dup1\n        /* \"#utility.yul\":5319:5327   */\n      dup3\n        /* \"#utility.yul\":5316:5332   */\n      gt\n        /* \"#utility.yul\":5313:5349   */\n      iszero\n      tag_517\n      jumpi\n        /* \"#utility.yul\":5345:5346   */\n      0x00\n        /* \"#utility.yul\":5342:5343   */\n      dup1\n        /* \"#utility.yul\":5335:5347   */\n      revert\n        /* \"#utility.yul\":5313:5349   */\n    tag_517:\n      pop\n        /* \"#utility.yul\":5368:5419   */\n      tag_518\n        /* \"#utility.yul\":5411:5418   */\n      dup8\n        /* \"#utility.yul\":5400:5408   */\n      dup3\n        /* \"#utility.yul\":5389:5398   */\n      dup9\n        /* \"#utility.yul\":5385:5409   */\n      add\n        /* \"#utility.yul\":5368:5419   */\n      tag_457\n      jump\t// in\n    tag_518:\n        /* \"#utility.yul\":5358:5419   */\n      swap2\n      pop\n      pop\n        /* \"#utility.yul\":4557:5425   */\n      swap3\n      swap6\n      swap2\n      swap5\n      pop\n      swap3\n      pop\n      jump\t// out\n        /* \"#utility.yul\":5430:6373   */\n    tag_53:\n        /* \"#utility.yul\":5584:5590   */\n      0x00\n        /* \"#utility.yul\":5592:5598   */\n      dup1\n        /* \"#utility.yul\":5600:5606   */\n      0x00\n        /* \"#utility.yul\":5608:5614   */\n      dup1\n        /* \"#utility.yul\":5616:5622   */\n      0x00\n        /* \"#utility.yul\":5669:5672   */\n      0xa0\n        /* \"#utility.yul\":5657:5666   */\n      dup7\n        /* \"#utility.yul\":5648:5655   */\n      dup9\n        /* \"#utility.yul\":5644:5667   */\n      sub\n        /* \"#utility.yul\":5640:5673   */\n      slt\n        /* \"#utility.yul\":5637:5690   */\n      iszero\n      tag_520\n      jumpi\n        /* \"#utility.yul\":5686:5687   */\n      0x00\n        /* \"#utility.yul\":5683:5684   */\n      dup1\n        /* \"#utility.yul\":5676:5688   */\n      revert\n        /* \"#utility.yul\":5637:5690   */\n    tag_520:\n        /* \"#utility.yul\":5709:5738   */\n      tag_521\n        /* \"#utility.yul\":5728:5737   */\n      dup7\n        /* \"#utility.yul\":5709:5738   */\n      tag_450\n      jump\t// in\n    tag_521:\n        /* \"#utility.yul\":5699:5738   */\n      swap5\n      pop\n        /* \"#utility.yul\":5757:5795   */\n      tag_522\n        /* \"#utility.yul\":5791:5793   */\n      0x20\n        /* \"#utility.yul\":5780:5789   */\n      dup8\n        /* \"#utility.yul\":5776:5794   */\n      add\n        /* \"#utility.yul\":5757:5795   */\n      tag_450\n      jump\t// in\n    tag_522:\n        /* \"#utility.yul\":5747:5795   */\n      swap4\n      pop\n        /* \"#utility.yul\":5846:5848   */\n      0x40\n        /* \"#utility.yul\":5835:5844   */\n      dup7\n        /* \"#utility.yul\":5831:5849   */\n      add\n        /* \"#utility.yul\":5818:5850   */\n      calldataload\n        /* \"#utility.yul\":5869:5887   */\n      0xffffffffffffffff\n        /* \"#utility.yul\":5910:5912   */\n      dup1\n        /* \"#utility.yul\":5902:5908   */\n      dup3\n        /* \"#utility.yul\":5899:5913   */\n      gt\n        /* \"#utility.yul\":5896:5930   */\n      iszero\n      tag_523\n      jumpi\n        /* \"#utility.yul\":5926:5927   */\n      0x00\n        /* \"#utility.yul\":5923:5924   */\n      dup1\n        /* \"#utility.yul\":5916:5928   */\n      revert\n        /* \"#utility.yul\":5896:5930   */\n    tag_523:\n        /* \"#utility.yul\":5949:6010   */\n      tag_524\n        /* \"#utility.yul\":6002:6009   */\n      dup10\n        /* \"#utility.yul\":5993:5999   */\n      dup4\n        /* \"#utility.yul\":5982:5991   */\n      dup11\n        /* \"#utility.yul\":5978:6000   */\n      add\n        /* \"#utility.yul\":5949:6010   */\n      tag_456\n      jump\t// in\n    tag_524:\n        /* \"#utility.yul\":5939:6010   */\n      swap5\n      pop\n        /* \"#utility.yul\":6063:6065   */\n      0x60\n        /* \"#utility.yul\":6052:6061   */\n      dup9\n        /* \"#utility.yul\":6048:6066   */\n      add\n        /* \"#utility.yul\":6035:6067   */\n      calldataload\n        /* \"#utility.yul\":6019:6067   */\n      swap2\n      pop\n        /* \"#utility.yul\":6092:6094   */\n      dup1\n        /* \"#utility.yul\":6082:6090   */\n      dup3\n        /* \"#utility.yul\":6079:6095   */\n      gt\n        /* \"#utility.yul\":6076:6112   */\n      iszero\n      tag_525\n      jumpi\n        /* \"#utility.yul\":6108:6109   */\n      0x00\n        /* \"#utility.yul\":6105:6106   */\n      dup1\n        /* \"#utility.yul\":6098:6110   */\n      revert\n        /* \"#utility.yul\":6076:6112   */\n    tag_525:\n        /* \"#utility.yul\":6131:6194   */\n      tag_526\n        /* \"#utility.yul\":6186:6193   */\n      dup10\n        /* \"#utility.yul\":6175:6183   */\n      dup4\n        /* \"#utility.yul\":6164:6173   */\n      dup11\n        /* \"#utility.yul\":6160:6184   */\n      add\n        /* \"#utility.yul\":6131:6194   */\n      tag_456\n      jump\t// in\n    tag_526:\n        /* \"#utility.yul\":6121:6194   */\n      swap4\n      pop\n        /* \"#utility.yul\":6247:6250   */\n      0x80\n        /* \"#utility.yul\":6236:6245   */\n      dup9\n        /* \"#utility.yul\":6232:6251   */\n      add\n        /* \"#utility.yul\":6219:6252   */\n      calldataload\n        /* \"#utility.yul\":6203:6252   */\n      swap2\n      pop\n        /* \"#utility.yul\":6277:6279   */\n      dup1\n        /* \"#utility.yul\":6267:6275   */\n      dup3\n        /* \"#utility.yul\":6264:6280   */\n      gt\n        /* \"#utility.yul\":6261:6297   */\n      iszero\n      tag_527\n      jumpi\n        /* \"#utility.yul\":6293:6294   */\n      0x00\n        /* \"#utility.yul\":6290:6291   */\n      dup1\n        /* \"#utility.yul\":6283:6295   */\n      revert\n        /* \"#utility.yul\":6261:6297   */\n    tag_527:\n      pop\n        /* \"#utility.yul\":6316:6367   */\n      tag_528\n        /* \"#utility.yul\":6359:6366   */\n      dup9\n        /* \"#utility.yul\":6348:6356   */\n      dup3\n        /* \"#utility.yul\":6337:6346   */\n      dup10\n        /* \"#utility.yul\":6333:6357   */\n      add\n        /* \"#utility.yul\":6316:6367   */\n      tag_457\n      jump\t// in\n    tag_528:\n        /* \"#utility.yul\":6306:6367   */\n      swap2\n      pop\n      pop\n        /* \"#utility.yul\":5430:6373   */\n      swap3\n      swap6\n      pop\n      swap3\n      swap6\n      swap1\n      swap4\n      pop\n      jump\t// out\n        /* \"#utility.yul\":6378:7586   */\n    tag_59:\n        /* \"#utility.yul\":6496:6502   */\n      0x00\n        /* \"#utility.yul\":6504:6510   */\n      dup1\n        /* \"#utility.yul\":6557:6559   */\n      0x40\n        /* \"#utility.yul\":6545:6554   */\n      dup4\n        /* \"#utility.yul\":6536:6543   */\n      dup6\n        /* \"#utility.yul\":6532:6555   */\n      sub\n        /* \"#utility.yul\":6528:6560   */\n      slt\n        /* \"#utility.yul\":6525:6577   */\n      iszero\n      tag_530\n      jumpi\n        /* \"#utility.yul\":6573:6574   */\n      0x00\n        /* \"#utility.yul\":6570:6571   */\n      dup1\n        /* \"#utility.yul\":6563:6575   */\n      revert\n        /* \"#utility.yul\":6525:6577   */\n    tag_530:\n        /* \"#utility.yul\":6613:6622   */\n      dup3\n        /* \"#utility.yul\":6600:6623   */\n      calldataload\n        /* \"#utility.yul\":6642:6660   */\n      0xffffffffffffffff\n        /* \"#utility.yul\":6683:6685   */\n      dup1\n        /* \"#utility.yul\":6675:6681   */\n      dup3\n        /* \"#utility.yul\":6672:6686   */\n      gt\n        /* \"#utility.yul\":6669:6703   */\n      iszero\n      tag_531\n      jumpi\n        /* \"#utility.yul\":6699:6700   */\n      0x00\n        /* \"#utility.yul\":6696:6697   */\n      dup1\n        /* \"#utility.yul\":6689:6701   */\n      revert\n        /* \"#utility.yul\":6669:6703   */\n    tag_531:\n        /* \"#utility.yul\":6737:6743   */\n      dup2\n        /* \"#utility.yul\":6726:6735   */\n      dup6\n        /* \"#utility.yul\":6722:6744   */\n      add\n        /* \"#utility.yul\":6712:6744   */\n      swap2\n      pop\n        /* \"#utility.yul\":6782:6789   */\n      dup6\n        /* \"#utility.yul\":6775:6779   */\n      0x1f\n        /* \"#utility.yul\":6771:6773   */\n      dup4\n        /* \"#utility.yul\":6767:6780   */\n      add\n        /* \"#utility.yul\":6763:6790   */\n      slt\n        /* \"#utility.yul\":6753:6808   */\n      tag_532\n      jumpi\n        /* \"#utility.yul\":6804:6805   */\n      0x00\n        /* \"#utility.yul\":6801:6802   */\n      dup1\n        /* \"#utility.yul\":6794:6806   */\n      revert\n        /* \"#utility.yul\":6753:6808   */\n    tag_532:\n        /* \"#utility.yul\":6840:6842   */\n      dup2\n        /* \"#utility.yul\":6827:6843   */\n      calldataload\n        /* \"#utility.yul\":6862:6866   */\n      0x20\n        /* \"#utility.yul\":6885:6928   */\n      tag_533\n        /* \"#utility.yul\":6925:6927   */\n      dup3\n        /* \"#utility.yul\":6885:6928   */\n      tag_455\n      jump\t// in\n    tag_533:\n        /* \"#utility.yul\":6957:6959   */\n      0x40\n        /* \"#utility.yul\":6951:6960   */\n      mload\n        /* \"#utility.yul\":6969:7000   */\n      tag_534\n        /* \"#utility.yul\":6997:6999   */\n      dup3\n        /* \"#utility.yul\":6989:6995   */\n      dup3\n        /* \"#utility.yul\":6969:7000   */\n      tag_452\n      jump\t// in\n    tag_534:\n        /* \"#utility.yul\":7035:7053   */\n      dup4\n      dup2\n      mstore\n        /* \"#utility.yul\":7123:7124   */\n      0x05\n        /* \"#utility.yul\":7119:7129   */\n      swap4\n      swap1\n      swap4\n      shl\n        /* \"#utility.yul\":7111:7130   */\n      dup6\n      add\n        /* \"#utility.yul\":7107:7135   */\n      dup3\n      add\n      swap3\n        /* \"#utility.yul\":7069:7084   */\n      dup3\n      dup2\n      add\n      swap2\n      pop\n        /* \"#utility.yul\":7147:7166   */\n      dup10\n      dup5\n      gt\n        /* \"#utility.yul\":7144:7183   */\n      iszero\n      tag_535\n      jumpi\n        /* \"#utility.yul\":7179:7180   */\n      0x00\n        /* \"#utility.yul\":7176:7177   */\n      dup1\n        /* \"#utility.yul\":7169:7181   */\n      revert\n        /* \"#utility.yul\":7144:7183   */\n    tag_535:\n        /* \"#utility.yul\":7203:7214   */\n      swap5\n      dup3\n      add\n      swap5\n        /* \"#utility.yul\":7223:7371   */\n    tag_536:\n        /* \"#utility.yul\":7239:7245   */\n      dup4\n        /* \"#utility.yul\":7234:7237   */\n      dup7\n        /* \"#utility.yul\":7231:7246   */\n      lt\n        /* \"#utility.yul\":7223:7371   */\n      iszero\n      tag_538\n      jumpi\n        /* \"#utility.yul\":7305:7328   */\n      tag_539\n        /* \"#utility.yul\":7324:7327   */\n      dup7\n        /* \"#utility.yul\":7305:7328   */\n      tag_450\n      jump\t// in\n    tag_539:\n        /* \"#utility.yul\":7293:7329   */\n      dup3\n      mstore\n        /* \"#utility.yul\":7256:7268   */\n      swap5\n      dup3\n      add\n      swap5\n        /* \"#utility.yul\":7349:7361   */\n      swap1\n      dup3\n      add\n      swap1\n        /* \"#utility.yul\":7223:7371   */\n      jump(tag_536)\n    tag_538:\n        /* \"#utility.yul\":7390:7396   */\n      swap7\n      pop\n      pop\n        /* \"#utility.yul\":7434:7452   */\n      dup7\n      add\n        /* \"#utility.yul\":7421:7453   */\n      calldataload\n      swap3\n      pop\n      pop\n        /* \"#utility.yul\":7465:7481   */\n      dup1\n      dup3\n      gt\n        /* \"#utility.yul\":7462:7498   */\n      iszero\n      tag_540\n      jumpi\n        /* \"#utility.yul\":7494:7495   */\n      0x00\n        /* \"#utility.yul\":7491:7492   */\n      dup1\n        /* \"#utility.yul\":7484:7496   */\n      revert\n        /* \"#utility.yul\":7462:7498   */\n    tag_540:\n      pop\n        /* \"#utility.yul\":7517:7580   */\n      tag_541\n        /* \"#utility.yul\":7572:7579   */\n      dup6\n        /* \"#utility.yul\":7561:7569   */\n      dup3\n        /* \"#utility.yul\":7550:7559   */\n      dup7\n        /* \"#utility.yul\":7546:7570   */\n      add\n        /* \"#utility.yul\":7517:7580   */\n      tag_456\n      jump\t// in\n    tag_541:\n        /* \"#utility.yul\":7507:7580   */\n      swap2\n      pop\n      pop\n        /* \"#utility.yul\":6378:7586   */\n      swap3\n      pop\n      swap3\n      swap1\n      pop\n      jump\t// out\n        /* \"#utility.yul\":7591:8026   */\n    tag_458:\n        /* \"#utility.yul\":7644:7647   */\n      0x00\n        /* \"#utility.yul\":7682:7687   */\n      dup2\n        /* \"#utility.yul\":7676:7688   */\n      mload\n        /* \"#utility.yul\":7709:7715   */\n      dup1\n        /* \"#utility.yul\":7704:7707   */\n      dup5\n        /* \"#utility.yul\":7697:7716   */\n      mstore\n        /* \"#utility.yul\":7735:7739   */\n      0x20\n        /* \"#utility.yul\":7764:7766   */\n      dup1\n        /* \"#utility.yul\":7759:7762   */\n      dup6\n        /* \"#utility.yul\":7755:7767   */\n      add\n        /* \"#utility.yul\":7748:7767   */\n      swap5\n      pop\n        /* \"#utility.yul\":7801:7803   */\n      dup1\n        /* \"#utility.yul\":7794:7799   */\n      dup5\n        /* \"#utility.yul\":7790:7804   */\n      add\n        /* \"#utility.yul\":7822:7823   */\n      0x00\n        /* \"#utility.yul\":7832:8001   */\n    tag_543:\n        /* \"#utility.yul\":7846:7852   */\n      dup4\n        /* \"#utility.yul\":7843:7844   */\n      dup2\n        /* \"#utility.yul\":7840:7853   */\n      lt\n        /* \"#utility.yul\":7832:8001   */\n      iszero\n      tag_545\n      jumpi\n        /* \"#utility.yul\":7907:7920   */\n      dup2\n      mload\n        /* \"#utility.yul\":7895:7921   */\n      dup8\n      mstore\n        /* \"#utility.yul\":7941:7953   */\n      swap6\n      dup3\n      add\n      swap6\n        /* \"#utility.yul\":7976:7991   */\n      swap1\n      dup3\n      add\n      swap1\n        /* \"#utility.yul\":7868:7869   */\n      0x01\n        /* \"#utility.yul\":7861:7870   */\n      add\n        /* \"#utility.yul\":7832:8001   */\n      jump(tag_543)\n    tag_545:\n      pop\n        /* \"#utility.yul\":8017:8020   */\n      swap5\n      swap6\n        /* \"#utility.yul\":7591:8026   */\n      swap5\n      pop\n      pop\n      pop\n      pop\n      pop\n      jump\t// out\n        /* \"#utility.yul\":8031:8292   */\n    tag_62:\n        /* \"#utility.yul\":8210:8212   */\n      0x20\n        /* \"#utility.yul\":8199:8208   */\n      dup2\n        /* \"#utility.yul\":8192:8213   */\n      mstore\n        /* \"#utility.yul\":8173:8177   */\n      0x00\n        /* \"#utility.yul\":8230:8286   */\n      tag_471\n        /* \"#utility.yul\":8282:8284   */\n      0x20\n        /* \"#utility.yul\":8271:8280   */\n      dup4\n        /* \"#utility.yul\":8267:8285   */\n      add\n        /* \"#utility.yul\":8259:8265   */\n      dup5\n        /* \"#utility.yul\":8230:8286   */\n      tag_458\n      jump\t// in\n        /* \"#utility.yul\":8297:8966   */\n    tag_68:\n        /* \"#utility.yul\":8424:8430   */\n      0x00\n        /* \"#utility.yul\":8432:8438   */\n      dup1\n        /* \"#utility.yul\":8440:8446   */\n      0x00\n        /* \"#utility.yul\":8493:8495   */\n      0x60\n        /* \"#utility.yul\":8481:8490   */\n      dup5\n        /* \"#utility.yul\":8472:8479   */\n      dup7\n        /* \"#utility.yul\":8468:8491   */\n      sub\n        /* \"#utility.yul\":8464:8496   */\n      slt\n        /* \"#utility.yul\":8461:8513   */\n      iszero\n      tag_549\n      jumpi\n        /* \"#utility.yul\":8509:8510   */\n      0x00\n        /* \"#utility.yul\":8506:8507   */\n      dup1\n        /* \"#utility.yul\":8499:8511   */\n      revert\n        /* \"#utility.yul\":8461:8513   */\n    tag_549:\n        /* \"#utility.yul\":8532:8561   */\n      tag_550\n        /* \"#utility.yul\":8551:8560   */\n      dup5\n        /* \"#utility.yul\":8532:8561   */\n      tag_450\n      jump\t// in\n    tag_550:\n        /* \"#utility.yul\":8522:8561   */\n      swap3\n      pop\n        /* \"#utility.yul\":8612:8614   */\n      0x20\n        /* \"#utility.yul\":8601:8610   */\n      dup5\n        /* \"#utility.yul\":8597:8615   */\n      add\n        /* \"#utility.yul\":8584:8616   */\n      calldataload\n        /* \"#utility.yul\":8635:8653   */\n      0xffffffffffffffff\n        /* \"#utility.yul\":8676:8678   */\n      dup1\n        /* \"#utility.yul\":8668:8674   */\n      dup3\n        /* \"#utility.yul\":8665:8679   */\n      gt\n        /* \"#utility.yul\":8662:8696   */\n      iszero\n      tag_551\n      jumpi\n        /* \"#utility.yul\":8692:8693   */\n      0x00\n        /* \"#utility.yul\":8689:8690   */\n      dup1\n        /* \"#utility.yul\":8682:8694   */\n      revert\n        /* \"#utility.yul\":8662:8696   */\n    tag_551:\n        /* \"#utility.yul\":8715:8776   */\n      tag_552\n        /* \"#utility.yul\":8768:8775   */\n      dup8\n        /* \"#utility.yul\":8759:8765   */\n      dup4\n        /* \"#utility.yul\":8748:8757   */\n      dup9\n        /* \"#utility.yul\":8744:8766   */\n      add\n        /* \"#utility.yul\":8715:8776   */\n      tag_456\n      jump\t// in\n    tag_552:\n        /* \"#utility.yul\":8705:8776   */\n      swap4\n      pop\n        /* \"#utility.yul\":8829:8831   */\n      0x40\n        /* \"#utility.yul\":8818:8827   */\n      dup7\n        /* \"#utility.yul\":8814:8832   */\n      add\n        /* \"#utility.yul\":8801:8833   */\n      calldataload\n        /* \"#utility.yul\":8785:8833   */\n      swap2\n      pop\n        /* \"#utility.yul\":8858:8860   */\n      dup1\n        /* \"#utility.yul\":8848:8856   */\n      dup3\n        /* \"#utility.yul\":8845:8861   */\n      gt\n        /* \"#utility.yul\":8842:8878   */\n      iszero\n      tag_553\n      jumpi\n        /* \"#utility.yul\":8874:8875   */\n      0x00\n        /* \"#utility.yul\":8871:8872   */\n      dup1\n        /* \"#utility.yul\":8864:8876   */\n      revert\n        /* \"#utility.yul\":8842:8878   */\n    tag_553:\n      pop\n        /* \"#utility.yul\":8897:8960   */\n      tag_554\n        /* \"#utility.yul\":8952:8959   */\n      dup7\n        /* \"#utility.yul\":8941:8949   */\n      dup3\n        /* \"#utility.yul\":8930:8939   */\n      dup8\n        /* \"#utility.yul\":8926:8950   */\n      add\n        /* \"#utility.yul\":8897:8960   */\n      tag_456\n      jump\t// in\n    tag_554:\n        /* \"#utility.yul\":8887:8960   */\n      swap2\n      pop\n      pop\n        /* \"#utility.yul\":8297:8966   */\n      swap3\n      pop\n      swap3\n      pop\n      swap3\n      jump\t// out\n        /* \"#utility.yul\":8971:9502   */\n    tag_74:\n        /* \"#utility.yul\":9066:9072   */\n      0x00\n        /* \"#utility.yul\":9074:9080   */\n      dup1\n        /* \"#utility.yul\":9082:9088   */\n      0x00\n        /* \"#utility.yul\":9090:9096   */\n      dup1\n        /* \"#utility.yul\":9143:9146   */\n      0x80\n        /* \"#utility.yul\":9131:9140   */\n      dup6\n        /* \"#utility.yul\":9122:9129   */\n      dup8\n        /* \"#utility.yul\":9118:9141   */\n      sub\n        /* \"#utility.yul\":9114:9147   */\n      slt\n        /* \"#utility.yul\":9111:9164   */\n      iszero\n      tag_556\n      jumpi\n        /* \"#utility.yul\":9160:9161   */\n      0x00\n        /* \"#utility.yul\":9157:9158   */\n      dup1\n        /* \"#utility.yul\":9150:9162   */\n      revert\n        /* \"#utility.yul\":9111:9164   */\n    tag_556:\n        /* \"#utility.yul\":9183:9212   */\n      tag_557\n        /* \"#utility.yul\":9202:9211   */\n      dup6\n        /* \"#utility.yul\":9183:9212   */\n      tag_450\n      jump\t// in\n    tag_557:\n        /* \"#utility.yul\":9173:9212   */\n      swap4\n      pop\n        /* \"#utility.yul\":9259:9261   */\n      0x20\n        /* \"#utility.yul\":9248:9257   */\n      dup6\n        /* \"#utility.yul\":9244:9262   */\n      add\n        /* \"#utility.yul\":9231:9263   */\n      calldataload\n        /* \"#utility.yul\":9221:9263   */\n      swap3\n      pop\n        /* \"#utility.yul\":9310:9312   */\n      0x40\n        /* \"#utility.yul\":9299:9308   */\n      dup6\n        /* \"#utility.yul\":9295:9313   */\n      add\n        /* \"#utility.yul\":9282:9314   */\n      calldataload\n        /* \"#utility.yul\":9272:9314   */\n      swap2\n      pop\n        /* \"#utility.yul\":9365:9367   */\n      0x60\n        /* \"#utility.yul\":9354:9363   */\n      dup6\n        /* \"#utility.yul\":9350:9368   */\n      add\n        /* \"#utility.yul\":9337:9369   */\n      calldataload\n        /* \"#utility.yul\":9392:9410   */\n      0xffffffffffffffff\n        /* \"#utility.yul\":9384:9390   */\n      dup2\n        /* \"#utility.yul\":9381:9411   */\n      gt\n        /* \"#utility.yul\":9378:9428   */\n      iszero\n      tag_558\n      jumpi\n        /* \"#utility.yul\":9424:9425   */\n      0x00\n        /* \"#utility.yul\":9421:9422   */\n      dup1\n        /* \"#utility.yul\":9414:9426   */\n      revert\n        /* \"#utility.yul\":9378:9428   */\n    tag_558:\n        /* \"#utility.yul\":9447:9496   */\n      tag_518\n        /* \"#utility.yul\":9488:9495   */\n      dup8\n        /* \"#utility.yul\":9479:9485   */\n      dup3\n        /* \"#utility.yul\":9468:9477   */\n      dup9\n        /* \"#utility.yul\":9464:9486   */\n      add\n        /* \"#utility.yul\":9447:9496   */\n      tag_457\n      jump\t// in\n        /* \"#utility.yul\":9715:10062   */\n    tag_84:\n        /* \"#utility.yul\":9780:9786   */\n      0x00\n        /* \"#utility.yul\":9788:9794   */\n      dup1\n        /* \"#utility.yul\":9841:9843   */\n      0x40\n        /* \"#utility.yul\":9829:9838   */\n      dup4\n        /* \"#utility.yul\":9820:9827   */\n      dup6\n        /* \"#utility.yul\":9816:9839   */\n      sub\n        /* \"#utility.yul\":9812:9844   */\n      slt\n        /* \"#utility.yul\":9809:9861   */\n      iszero\n      tag_562\n      jumpi\n        /* \"#utility.yul\":9857:9858   */\n      0x00\n        /* \"#utility.yul\":9854:9855   */\n      dup1\n        /* \"#utility.yul\":9847:9859   */\n      revert\n        /* \"#utility.yul\":9809:9861   */\n    tag_562:\n        /* \"#utility.yul\":9880:9909   */\n      tag_563\n        /* \"#utility.yul\":9899:9908   */\n      dup4\n        /* \"#utility.yul\":9880:9909   */\n      tag_450\n      jump\t// in\n    tag_563:\n        /* \"#utility.yul\":9870:9909   */\n      swap2\n      pop\n        /* \"#utility.yul\":9959:9961   */\n      0x20\n        /* \"#utility.yul\":9948:9957   */\n      dup4\n        /* \"#utility.yul\":9944:9962   */\n      add\n        /* \"#utility.yul\":9931:9963   */\n      calldataload\n        /* \"#utility.yul\":10006:10011   */\n      dup1\n        /* \"#utility.yul\":9999:10012   */\n      iszero\n        /* \"#utility.yul\":9992:10013   */\n      iszero\n        /* \"#utility.yul\":9985:9990   */\n      dup2\n        /* \"#utility.yul\":9982:10014   */\n      eq\n        /* \"#utility.yul\":9972:10032   */\n      tag_564\n      jumpi\n        /* \"#utility.yul\":10028:10029   */\n      0x00\n        /* \"#utility.yul\":10025:10026   */\n      dup1\n        /* \"#utility.yul\":10018:10030   */\n      revert\n        /* \"#utility.yul\":9972:10032   */\n    tag_564:\n        /* \"#utility.yul\":10051:10056   */\n      dup1\n        /* \"#utility.yul\":10041:10056   */\n      swap2\n      pop\n      pop\n        /* \"#utility.yul\":9715:10062   */\n      swap3\n      pop\n      swap3\n      swap1\n      pop\n      jump\t// out\n        /* \"#utility.yul\":10067:10327   */\n    tag_88:\n        /* \"#utility.yul\":10135:10141   */\n      0x00\n        /* \"#utility.yul\":10143:10149   */\n      dup1\n        /* \"#utility.yul\":10196:10198   */\n      0x40\n        /* \"#utility.yul\":10184:10193   */\n      dup4\n        /* \"#utility.yul\":10175:10182   */\n      dup6\n        /* \"#utility.yul\":10171:10194   */\n      sub\n        /* \"#utility.yul\":10167:10199   */\n      slt\n        /* \"#utility.yul\":10164:10216   */\n      iszero\n      tag_566\n      jumpi\n        /* \"#utility.yul\":10212:10213   */\n      0x00\n        /* \"#utility.yul\":10209:10210   */\n      dup1\n        /* \"#utility.yul\":10202:10214   */\n      revert\n        /* \"#utility.yul\":10164:10216   */\n    tag_566:\n        /* \"#utility.yul\":10235:10264   */\n      tag_567\n        /* \"#utility.yul\":10254:10263   */\n      dup4\n        /* \"#utility.yul\":10235:10264   */\n      tag_450\n      jump\t// in\n    tag_567:\n        /* \"#utility.yul\":10225:10264   */\n      swap2\n      pop\n        /* \"#utility.yul\":10283:10321   */\n      tag_568\n        /* \"#utility.yul\":10317:10319   */\n      0x20\n        /* \"#utility.yul\":10306:10315   */\n      dup5\n        /* \"#utility.yul\":10302:10320   */\n      add\n        /* \"#utility.yul\":10283:10321   */\n      tag_450\n      jump\t// in\n    tag_568:\n        /* \"#utility.yul\":10273:10321   */\n      swap1\n      pop\n        /* \"#utility.yul\":10067:10327   */\n      swap3\n      pop\n      swap3\n      swap1\n      pop\n      jump\t// out\n        /* \"#utility.yul\":10332:10938   */\n    tag_93:\n        /* \"#utility.yul\":10436:10442   */\n      0x00\n        /* \"#utility.yul\":10444:10450   */\n      dup1\n        /* \"#utility.yul\":10452:10458   */\n      0x00\n        /* \"#utility.yul\":10460:10466   */\n      dup1\n        /* \"#utility.yul\":10468:10474   */\n      0x00\n        /* \"#utility.yul\":10521:10524   */\n      0xa0\n        /* \"#utility.yul\":10509:10518   */\n      dup7\n        /* \"#utility.yul\":10500:10507   */\n      dup9\n        /* \"#utility.yul\":10496:10519   */\n      sub\n        /* \"#utility.yul\":10492:10525   */\n      slt\n        /* \"#utility.yul\":10489:10542   */\n      iszero\n      tag_570\n      jumpi\n        /* \"#utility.yul\":10538:10539   */\n      0x00\n        /* \"#utility.yul\":10535:10536   */\n      dup1\n        /* \"#utility.yul\":10528:10540   */\n      revert\n        /* \"#utility.yul\":10489:10542   */\n    tag_570:\n        /* \"#utility.yul\":10561:10590   */\n      tag_571\n        /* \"#utility.yul\":10580:10589   */\n      dup7\n        /* \"#utility.yul\":10561:10590   */\n      tag_450\n      jump\t// in\n    tag_571:\n        /* \"#utility.yul\":10551:10590   */\n      swap5\n      pop\n        /* \"#utility.yul\":10609:10647   */\n      tag_572\n        /* \"#utility.yul\":10643:10645   */\n      0x20\n        /* \"#utility.yul\":10632:10641   */\n      dup8\n        /* \"#utility.yul\":10628:10646   */\n      add\n        /* \"#utility.yul\":10609:10647   */\n      tag_450\n      jump\t// in\n    tag_572:\n        /* \"#utility.yul\":10599:10647   */\n      swap4\n      pop\n        /* \"#utility.yul\":10694:10696   */\n      0x40\n        /* \"#utility.yul\":10683:10692   */\n      dup7\n        /* \"#utility.yul\":10679:10697   */\n      add\n        /* \"#utility.yul\":10666:10698   */\n      calldataload\n        /* \"#utility.yul\":10656:10698   */\n      swap3\n      pop\n        /* \"#utility.yul\":10745:10747   */\n      0x60\n        /* \"#utility.yul\":10734:10743   */\n      dup7\n        /* \"#utility.yul\":10730:10748   */\n      add\n        /* \"#utility.yul\":10717:10749   */\n      calldataload\n        /* \"#utility.yul\":10707:10749   */\n      swap2\n      pop\n        /* \"#utility.yul\":10800:10803   */\n      0x80\n        /* \"#utility.yul\":10789:10798   */\n      dup7\n        /* \"#utility.yul\":10785:10804   */\n      add\n        /* \"#utility.yul\":10772:10805   */\n      calldataload\n        /* \"#utility.yul\":10828:10846   */\n      0xffffffffffffffff\n        /* \"#utility.yul\":10820:10826   */\n      dup2\n        /* \"#utility.yul\":10817:10847   */\n      gt\n        /* \"#utility.yul\":10814:10864   */\n      iszero\n      tag_573\n      jumpi\n        /* \"#utility.yul\":10860:10861   */\n      0x00\n        /* \"#utility.yul\":10857:10858   */\n      dup1\n        /* \"#utility.yul\":10850:10862   */\n      revert\n        /* \"#utility.yul\":10814:10864   */\n    tag_573:\n        /* \"#utility.yul\":10883:10932   */\n      tag_528\n        /* \"#utility.yul\":10924:10931   */\n      dup9\n        /* \"#utility.yul\":10915:10921   */\n      dup3\n        /* \"#utility.yul\":10904:10913   */\n      dup10\n        /* \"#utility.yul\":10900:10922   */\n      add\n        /* \"#utility.yul\":10883:10932   */\n      tag_457\n      jump\t// in\n        /* \"#utility.yul\":10943:11129   */\n    tag_97:\n        /* \"#utility.yul\":11002:11008   */\n      0x00\n        /* \"#utility.yul\":11055:11057   */\n      0x20\n        /* \"#utility.yul\":11043:11052   */\n      dup3\n        /* \"#utility.yul\":11034:11041   */\n      dup5\n        /* \"#utility.yul\":11030:11053   */\n      sub\n        /* \"#utility.yul\":11026:11058   */\n      slt\n        /* \"#utility.yul\":11023:11075   */\n      iszero\n      tag_576\n      jumpi\n        /* \"#utility.yul\":11071:11072   */\n      0x00\n        /* \"#utility.yul\":11068:11069   */\n      dup1\n        /* \"#utility.yul\":11061:11073   */\n      revert\n        /* \"#utility.yul\":11023:11075   */\n    tag_576:\n        /* \"#utility.yul\":11094:11123   */\n      tag_471\n        /* \"#utility.yul\":11113:11122   */\n      dup3\n        /* \"#utility.yul\":11094:11123   */\n      tag_450\n      jump\t// in\n        /* \"#utility.yul\":11134:11456   */\n    tag_101:\n        /* \"#utility.yul\":11211:11217   */\n      0x00\n        /* \"#utility.yul\":11219:11225   */\n      dup1\n        /* \"#utility.yul\":11227:11233   */\n      0x00\n        /* \"#utility.yul\":11280:11282   */\n      0x60\n        /* \"#utility.yul\":11268:11277   */\n      dup5\n        /* \"#utility.yul\":11259:11266   */\n      dup7\n        /* \"#utility.yul\":11255:11278   */\n      sub\n        /* \"#utility.yul\":11251:11283   */\n      slt\n        /* \"#utility.yul\":11248:11300   */\n      iszero\n      tag_579\n      jumpi\n        /* \"#utility.yul\":11296:11297   */\n      0x00\n        /* \"#utility.yul\":11293:11294   */\n      dup1\n        /* \"#utility.yul\":11286:11298   */\n      revert\n        /* \"#utility.yul\":11248:11300   */\n    tag_579:\n        /* \"#utility.yul\":11319:11348   */\n      tag_580\n        /* \"#utility.yul\":11338:11347   */\n      dup5\n        /* \"#utility.yul\":11319:11348   */\n      tag_450\n      jump\t// in\n    tag_580:\n        /* \"#utility.yul\":11309:11348   */\n      swap6\n        /* \"#utility.yul\":11395:11397   */\n      0x20\n        /* \"#utility.yul\":11380:11398   */\n      dup6\n      add\n        /* \"#utility.yul\":11367:11399   */\n      calldataload\n      swap6\n      pop\n        /* \"#utility.yul\":11446:11448   */\n      0x40\n        /* \"#utility.yul\":11431:11449   */\n      swap1\n      swap5\n      add\n        /* \"#utility.yul\":11418:11450   */\n      calldataload\n      swap4\n        /* \"#utility.yul\":11134:11456   */\n      swap3\n      pop\n      pop\n      pop\n      jump\t// out\n        /* \"#utility.yul\":11873:12229   */\n    tag_118:\n        /* \"#utility.yul\":12075:12077   */\n      0x20\n        /* \"#utility.yul\":12057:12078   */\n      dup1\n      dup3\n      mstore\n        /* \"#utility.yul\":12094:12112   */\n      dup2\n      dup2\n      add\n        /* \"#utility.yul\":12087:12117   */\n      mstore\n        /* \"#utility.yul\":12153:12187   */\n      0x4f776e61626c653a2063616c6c6572206973206e6f7420746865206f776e6572\n        /* \"#utility.yul\":12148:12150   */\n      0x40\n        /* \"#utility.yul\":12133:12151   */\n      dup3\n      add\n        /* \"#utility.yul\":12126:12188   */\n      mstore\n        /* \"#utility.yul\":12220:12222   */\n      0x60\n        /* \"#utility.yul\":12205:12223   */\n      add\n      swap1\n        /* \"#utility.yul\":11873:12229   */\n      jump\t// out\n        /* \"#utility.yul\":12234:12614   */\n    tag_124:\n        /* \"#utility.yul\":12313:12314   */\n      0x01\n        /* \"#utility.yul\":12309:12321   */\n      dup2\n      dup2\n      shr\n      swap1\n        /* \"#utility.yul\":12356:12368   */\n      dup3\n      and\n      dup1\n        /* \"#utility.yul\":12377:12438   */\n      tag_584\n      jumpi\n        /* \"#utility.yul\":12431:12435   */\n      0x7f\n        /* \"#utility.yul\":12423:12429   */\n      dup3\n        /* \"#utility.yul\":12419:12436   */\n      and\n        /* \"#utility.yul\":12409:12436   */\n      swap2\n      pop\n        /* \"#utility.yul\":12377:12438   */\n    tag_584:\n        /* \"#utility.yul\":12484:12486   */\n      0x20\n        /* \"#utility.yul\":12476:12482   */\n      dup3\n        /* \"#utility.yul\":12473:12487   */\n      lt\n        /* \"#utility.yul\":12453:12471   */\n      dup2\n        /* \"#utility.yul\":12450:12488   */\n      eq\n        /* \"#utility.yul\":12447:12608   */\n      iszero\n      tag_585\n      jumpi\n        /* \"#utility.yul\":12530:12540   */\n      0x4e487b71\n        /* \"#utility.yul\":12525:12528   */\n      0xe0\n        /* \"#utility.yul\":12521:12541   */\n      shl\n        /* \"#utility.yul\":12518:12519   */\n      0x00\n        /* \"#utility.yul\":12511:12542   */\n      mstore\n        /* \"#utility.yul\":12565:12569   */\n      0x22\n        /* \"#utility.yul\":12562:12563   */\n      0x04\n        /* \"#utility.yul\":12555:12570   */\n      mstore\n        /* \"#utility.yul\":12593:12597   */\n      0x24\n        /* \"#utility.yul\":12590:12591   */\n      0x00\n        /* \"#utility.yul\":12583:12598   */\n      revert\n        /* \"#utility.yul\":12447:12608   */\n    tag_585:\n      pop\n        /* \"#utility.yul\":12234:12614   */\n      swap2\n      swap1\n      pop\n      jump\t// out\n        /* \"#utility.yul\":13448:13575   */\n    tag_169:\n        /* \"#utility.yul\":13509:13519   */\n      0x4e487b71\n        /* \"#utility.yul\":13504:13507   */\n      0xe0\n        /* \"#utility.yul\":13500:13520   */\n      shl\n        /* \"#utility.yul\":13497:13498   */\n      0x00\n        /* \"#utility.yul\":13490:13521   */\n      mstore\n        /* \"#utility.yul\":13540:13544   */\n      0x32\n        /* \"#utility.yul\":13537:13538   */\n      0x04\n        /* \"#utility.yul\":13530:13545   */\n      mstore\n        /* \"#utility.yul\":13564:13568   */\n      0x24\n        /* \"#utility.yul\":13561:13562   */\n      0x00\n        /* \"#utility.yul\":13554:13569   */\n      revert\n        /* \"#utility.yul\":13580:13707   */\n    tag_459:\n        /* \"#utility.yul\":13641:13651   */\n      0x4e487b71\n        /* \"#utility.yul\":13636:13639   */\n      0xe0\n        /* \"#utility.yul\":13632:13652   */\n      shl\n        /* \"#utility.yul\":13629:13630   */\n      0x00\n        /* \"#utility.yul\":13622:13653   */\n      mstore\n        /* \"#utility.yul\":13672:13676   */\n      0x11\n        /* \"#utility.yul\":13669:13670   */\n      0x04\n        /* \"#utility.yul\":13662:13677   */\n      mstore\n        /* \"#utility.yul\":13696:13700   */\n      0x24\n        /* \"#utility.yul\":13693:13694   */\n      0x00\n        /* \"#utility.yul\":13686:13701   */\n      revert\n        /* \"#utility.yul\":13712:13847   */\n    tag_175:\n        /* \"#utility.yul\":13751:13754   */\n      0x00\n      not(0x00)\n        /* \"#utility.yul\":13772:13789   */\n      dup3\n      eq\n        /* \"#utility.yul\":13769:13812   */\n      iszero\n      tag_592\n      jumpi\n        /* \"#utility.yul\":13792:13810   */\n      tag_592\n      tag_459\n      jump\t// in\n    tag_592:\n      pop\n        /* \"#utility.yul\":13839:13840   */\n      0x01\n        /* \"#utility.yul\":13828:13841   */\n      add\n      swap1\n        /* \"#utility.yul\":13712:13847   */\n      jump\t// out\n        /* \"#utility.yul\":13852:14257   */\n    tag_184:\n        /* \"#utility.yul\":14054:14056   */\n      0x20\n        /* \"#utility.yul\":14036:14057   */\n      dup1\n      dup3\n      mstore\n        /* \"#utility.yul\":14093:14095   */\n      0x29\n        /* \"#utility.yul\":14073:14091   */\n      swap1\n      dup3\n      add\n        /* \"#utility.yul\":14066:14096   */\n      mstore\n        /* \"#utility.yul\":14132:14166   */\n      0x455243313135353a2063616c6c6572206973206e6f74206f776e6572206e6f72\n        /* \"#utility.yul\":14127:14129   */\n      0x40\n        /* \"#utility.yul\":14112:14130   */\n      dup3\n      add\n        /* \"#utility.yul\":14105:14167   */\n      mstore\n      shl(0xba, 0x08185c1c1c9bdd9959)\n        /* \"#utility.yul\":14198:14200   */\n      0x60\n        /* \"#utility.yul\":14183:14201   */\n      dup3\n      add\n        /* \"#utility.yul\":14176:14215   */\n      mstore\n        /* \"#utility.yul\":14247:14250   */\n      0x80\n        /* \"#utility.yul\":14232:14251   */\n      add\n      swap1\n        /* \"#utility.yul\":13852:14257   */\n      jump\t// out\n        /* \"#utility.yul\":14669:15066   */\n    tag_253:\n        /* \"#utility.yul\":14871:14873   */\n      0x20\n        /* \"#utility.yul\":14853:14874   */\n      dup1\n      dup3\n      mstore\n        /* \"#utility.yul\":14910:14912   */\n      0x21\n        /* \"#utility.yul\":14890:14908   */\n      swap1\n      dup3\n      add\n        /* \"#utility.yul\":14883:14913   */\n      mstore\n        /* \"#utility.yul\":14949:14983   */\n      0x455243313135353a206d696e7420746f20746865207a65726f20616464726573\n        /* \"#utility.yul\":14944:14946   */\n      0x40\n        /* \"#utility.yul\":14929:14947   */\n      dup3\n      add\n        /* \"#utility.yul\":14922:14984   */\n      mstore\n      shl(0xf8, 0x73)\n        /* \"#utility.yul\":15015:15017   */\n      0x60\n        /* \"#utility.yul\":15000:15018   */\n      dup3\n      add\n        /* \"#utility.yul\":14993:15024   */\n      mstore\n        /* \"#utility.yul\":15056:15059   */\n      0x80\n        /* \"#utility.yul\":15041:15060   */\n      add\n      swap1\n        /* \"#utility.yul\":14669:15066   */\n      jump\t// out\n        /* \"#utility.yul\":15071:15475   */\n    tag_256:\n        /* \"#utility.yul\":15273:15275   */\n      0x20\n        /* \"#utility.yul\":15255:15276   */\n      dup1\n      dup3\n      mstore\n        /* \"#utility.yul\":15312:15314   */\n      0x28\n        /* \"#utility.yul\":15292:15310   */\n      swap1\n      dup3\n      add\n        /* \"#utility.yul\":15285:15315   */\n      mstore\n        /* \"#utility.yul\":15351:15385   */\n      0x455243313135353a2069647320616e6420616d6f756e7473206c656e67746820\n        /* \"#utility.yul\":15346:15348   */\n      0x40\n        /* \"#utility.yul\":15331:15349   */\n      dup3\n      add\n        /* \"#utility.yul\":15324:15386   */\n      mstore\n      shl(0xc3, 0x0dad2e6dac2e8c6d)\n        /* \"#utility.yul\":15417:15419   */\n      0x60\n        /* \"#utility.yul\":15402:15420   */\n      dup3\n      add\n        /* \"#utility.yul\":15395:15433   */\n      mstore\n        /* \"#utility.yul\":15465:15468   */\n      0x80\n        /* \"#utility.yul\":15450:15469   */\n      add\n      swap1\n        /* \"#utility.yul\":15071:15475   */\n      jump\t// out\n        /* \"#utility.yul\":15480:15608   */\n    tag_268:\n        /* \"#utility.yul\":15520:15523   */\n      0x00\n        /* \"#utility.yul\":15551:15552   */\n      dup3\n        /* \"#utility.yul\":15547:15553   */\n      not\n        /* \"#utility.yul\":15544:15545   */\n      dup3\n        /* \"#utility.yul\":15541:15554   */\n      gt\n        /* \"#utility.yul\":15538:15577   */\n      iszero\n      tag_599\n      jumpi\n        /* \"#utility.yul\":15557:15575   */\n      tag_599\n      tag_459\n      jump\t// in\n    tag_599:\n      pop\n        /* \"#utility.yul\":15593:15602   */\n      add\n      swap1\n        /* \"#utility.yul\":15480:15608   */\n      jump\t// out\n        /* \"#utility.yul\":15613:16078   */\n    tag_271:\n        /* \"#utility.yul\":15870:15872   */\n      0x40\n        /* \"#utility.yul\":15859:15868   */\n      dup2\n        /* \"#utility.yul\":15852:15873   */\n      mstore\n        /* \"#utility.yul\":15833:15837   */\n      0x00\n        /* \"#utility.yul\":15896:15952   */\n      tag_601\n        /* \"#utility.yul\":15948:15950   */\n      0x40\n        /* \"#utility.yul\":15937:15946   */\n      dup4\n        /* \"#utility.yul\":15933:15951   */\n      add\n        /* \"#utility.yul\":15925:15931   */\n      dup6\n        /* \"#utility.yul\":15896:15952   */\n      tag_458\n      jump\t// in\n    tag_601:\n        /* \"#utility.yul\":16000:16009   */\n      dup3\n        /* \"#utility.yul\":15992:15998   */\n      dup2\n        /* \"#utility.yul\":15988:16010   */\n      sub\n        /* \"#utility.yul\":15983:15985   */\n      0x20\n        /* \"#utility.yul\":15972:15981   */\n      dup5\n        /* \"#utility.yul\":15968:15986   */\n      add\n        /* \"#utility.yul\":15961:16011   */\n      mstore\n        /* \"#utility.yul\":16028:16072   */\n      tag_602\n        /* \"#utility.yul\":16065:16071   */\n      dup2\n        /* \"#utility.yul\":16057:16063   */\n      dup6\n        /* \"#utility.yul\":16028:16072   */\n      tag_458\n      jump\t// in\n    tag_602:\n        /* \"#utility.yul\":16020:16072   */\n      swap6\n        /* \"#utility.yul\":15613:16078   */\n      swap5\n      pop\n      pop\n      pop\n      pop\n      pop\n      jump\t// out\n        /* \"#utility.yul\":16083:16484   */\n    tag_281:\n        /* \"#utility.yul\":16285:16287   */\n      0x20\n        /* \"#utility.yul\":16267:16288   */\n      dup1\n      dup3\n      mstore\n        /* \"#utility.yul\":16324:16326   */\n      0x25\n        /* \"#utility.yul\":16304:16322   */\n      swap1\n      dup3\n      add\n        /* \"#utility.yul\":16297:16327   */\n      mstore\n        /* \"#utility.yul\":16363:16397   */\n      0x455243313135353a207472616e7366657220746f20746865207a65726f206164\n        /* \"#utility.yul\":16358:16360   */\n      0x40\n        /* \"#utility.yul\":16343:16361   */\n      dup3\n      add\n        /* \"#utility.yul\":16336:16398   */\n      mstore\n      shl(0xd8, 0x6472657373)\n        /* \"#utility.yul\":16429:16431   */\n      0x60\n        /* \"#utility.yul\":16414:16432   */\n      dup3\n      add\n        /* \"#utility.yul\":16407:16442   */\n      mstore\n        /* \"#utility.yul\":16474:16477   */\n      0x80\n        /* \"#utility.yul\":16459:16478   */\n      add\n      swap1\n        /* \"#utility.yul\":16083:16484   */\n      jump\t// out\n        /* \"#utility.yul\":16489:16895   */\n    tag_293:\n        /* \"#utility.yul\":16691:16693   */\n      0x20\n        /* \"#utility.yul\":16673:16694   */\n      dup1\n      dup3\n      mstore\n        /* \"#utility.yul\":16730:16732   */\n      0x2a\n        /* \"#utility.yul\":16710:16728   */\n      swap1\n      dup3\n      add\n        /* \"#utility.yul\":16703:16733   */\n      mstore\n        /* \"#utility.yul\":16769:16803   */\n      0x455243313135353a20696e73756666696369656e742062616c616e636520666f\n        /* \"#utility.yul\":16764:16766   */\n      0x40\n        /* \"#utility.yul\":16749:16767   */\n      dup3\n      add\n        /* \"#utility.yul\":16742:16804   */\n      mstore\n      shl(0xb1, 0x39103a3930b739b332b9)\n        /* \"#utility.yul\":16835:16837   */\n      0x60\n        /* \"#utility.yul\":16820:16838   */\n      dup3\n      add\n        /* \"#utility.yul\":16813:16853   */\n      mstore\n        /* \"#utility.yul\":16885:16888   */\n      0x80\n        /* \"#utility.yul\":16870:16889   */\n      add\n      swap1\n        /* \"#utility.yul\":16489:16895   */\n      jump\t// out\n        /* \"#utility.yul\":17249:17648   */\n    tag_310:\n        /* \"#utility.yul\":17451:17453   */\n      0x20\n        /* \"#utility.yul\":17433:17454   */\n      dup1\n      dup3\n      mstore\n        /* \"#utility.yul\":17490:17492   */\n      0x23\n        /* \"#utility.yul\":17470:17488   */\n      swap1\n      dup3\n      add\n        /* \"#utility.yul\":17463:17493   */\n      mstore\n        /* \"#utility.yul\":17529:17563   */\n      0x455243313135353a206275726e2066726f6d20746865207a65726f2061646472\n        /* \"#utility.yul\":17524:17526   */\n      0x40\n        /* \"#utility.yul\":17509:17527   */\n      dup3\n      add\n        /* \"#utility.yul\":17502:17564   */\n      mstore\n      shl(0xe8, 0x657373)\n        /* \"#utility.yul\":17595:17597   */\n      0x60\n        /* \"#utility.yul\":17580:17598   */\n      dup3\n      add\n        /* \"#utility.yul\":17573:17606   */\n      mstore\n        /* \"#utility.yul\":17638:17641   */\n      0x80\n        /* \"#utility.yul\":17623:17642   */\n      add\n      swap1\n        /* \"#utility.yul\":17249:17648   */\n      jump\t// out\n        /* \"#utility.yul\":17653:18053   */\n    tag_324:\n        /* \"#utility.yul\":17855:17857   */\n      0x20\n        /* \"#utility.yul\":17837:17858   */\n      dup1\n      dup3\n      mstore\n        /* \"#utility.yul\":17894:17896   */\n      0x24\n        /* \"#utility.yul\":17874:17892   */\n      swap1\n      dup3\n      add\n        /* \"#utility.yul\":17867:17897   */\n      mstore\n        /* \"#utility.yul\":17933:17967   */\n      0x455243313135353a206275726e20616d6f756e7420657863656564732062616c\n        /* \"#utility.yul\":17928:17930   */\n      0x40\n        /* \"#utility.yul\":17913:17931   */\n      dup3\n      add\n        /* \"#utility.yul\":17906:17968   */\n      mstore\n      shl(0xe0, 0x616e6365)\n        /* \"#utility.yul\":17999:18001   */\n      0x60\n        /* \"#utility.yul\":17984:18002   */\n      dup3\n      add\n        /* \"#utility.yul\":17977:18011   */\n      mstore\n        /* \"#utility.yul\":18043:18046   */\n      0x80\n        /* \"#utility.yul\":18028:18047   */\n      add\n      swap1\n        /* \"#utility.yul\":17653:18053   */\n      jump\t// out\n        /* \"#utility.yul\":19066:19893   */\n    tag_393:\n      sub(shl(0xa0, 0x01), 0x01)\n        /* \"#utility.yul\":19463:19478   */\n      dup7\n      dup2\n      and\n        /* \"#utility.yul\":19445:19479   */\n      dup3\n      mstore\n        /* \"#utility.yul\":19515:19530   */\n      dup6\n      and\n        /* \"#utility.yul\":19510:19512   */\n      0x20\n        /* \"#utility.yul\":19495:19513   */\n      dup3\n      add\n        /* \"#utility.yul\":19488:19531   */\n      mstore\n        /* \"#utility.yul\":19425:19428   */\n      0xa0\n        /* \"#utility.yul\":19562:19564   */\n      0x40\n        /* \"#utility.yul\":19547:19565   */\n      dup3\n      add\n        /* \"#utility.yul\":19540:19571   */\n      dup2\n      swap1\n      mstore\n        /* \"#utility.yul\":19388:19392   */\n      0x00\n      swap1\n        /* \"#utility.yul\":19594:19651   */\n      tag_612\n      swap1\n        /* \"#utility.yul\":19631:19650   */\n      dup4\n      add\n        /* \"#utility.yul\":19623:19629   */\n      dup7\n        /* \"#utility.yul\":19594:19651   */\n      tag_458\n      jump\t// in\n    tag_612:\n        /* \"#utility.yul\":19699:19708   */\n      dup3\n        /* \"#utility.yul\":19691:19697   */\n      dup2\n        /* \"#utility.yul\":19687:19709   */\n      sub\n        /* \"#utility.yul\":19682:19684   */\n      0x60\n        /* \"#utility.yul\":19671:19680   */\n      dup5\n        /* \"#utility.yul\":19667:19685   */\n      add\n        /* \"#utility.yul\":19660:19710   */\n      mstore\n        /* \"#utility.yul\":19733:19777   */\n      tag_613\n        /* \"#utility.yul\":19770:19776   */\n      dup2\n        /* \"#utility.yul\":19762:19768   */\n      dup7\n        /* \"#utility.yul\":19733:19777   */\n      tag_458\n      jump\t// in\n    tag_613:\n        /* \"#utility.yul\":19719:19777   */\n      swap1\n      pop\n        /* \"#utility.yul\":19826:19835   */\n      dup3\n        /* \"#utility.yul\":19818:19824   */\n      dup2\n        /* \"#utility.yul\":19814:19836   */\n      sub\n        /* \"#utility.yul\":19808:19811   */\n      0x80\n        /* \"#utility.yul\":19797:19806   */\n      dup5\n        /* \"#utility.yul\":19793:19812   */\n      add\n        /* \"#utility.yul\":19786:19837   */\n      mstore\n        /* \"#utility.yul\":19854:19887   */\n      tag_614\n        /* \"#utility.yul\":19880:19886   */\n      dup2\n        /* \"#utility.yul\":19872:19878   */\n      dup6\n        /* \"#utility.yul\":19854:19887   */\n      tag_454\n      jump\t// in\n    tag_614:\n        /* \"#utility.yul\":19846:19887   */\n      swap9\n        /* \"#utility.yul\":19066:19893   */\n      swap8\n      pop\n      pop\n      pop\n      pop\n      pop\n      pop\n      pop\n      pop\n      jump\t// out\n        /* \"#utility.yul\":19898:20147   */\n    tag_396:\n        /* \"#utility.yul\":19967:19973   */\n      0x00\n        /* \"#utility.yul\":20020:20022   */\n      0x20\n        /* \"#utility.yul\":20008:20017   */\n      dup3\n        /* \"#utility.yul\":19999:20006   */\n      dup5\n        /* \"#utility.yul\":19995:20018   */\n      sub\n        /* \"#utility.yul\":19991:20023   */\n      slt\n        /* \"#utility.yul\":19988:20040   */\n      iszero\n      tag_616\n      jumpi\n        /* \"#utility.yul\":20036:20037   */\n      0x00\n        /* \"#utility.yul\":20033:20034   */\n      dup1\n        /* \"#utility.yul\":20026:20038   */\n      revert\n        /* \"#utility.yul\":19988:20040   */\n    tag_616:\n        /* \"#utility.yul\":20068:20077   */\n      dup2\n        /* \"#utility.yul\":20062:20078   */\n      mload\n        /* \"#utility.yul\":20087:20117   */\n      tag_471\n        /* \"#utility.yul\":20111:20116   */\n      dup2\n        /* \"#utility.yul\":20087:20117   */\n      tag_451\n      jump\t// in\n        /* \"#utility.yul\":20152:20331   */\n    tag_402:\n        /* \"#utility.yul\":20187:20190   */\n      0x00\n        /* \"#utility.yul\":20229:20230   */\n      0x03\n        /* \"#utility.yul\":20211:20227   */\n      returndatasize\n        /* \"#utility.yul\":20208:20231   */\n      gt\n        /* \"#utility.yul\":20205:20325   */\n      iszero\n      tag_619\n      jumpi\n        /* \"#utility.yul\":20275:20276   */\n      0x04\n        /* \"#utility.yul\":20272:20273   */\n      0x00\n        /* \"#utility.yul\":20269:20270   */\n      dup1\n        /* \"#utility.yul\":20254:20277   */\n      returndatacopy\n      pop\n        /* \"#utility.yul\":20312:20313   */\n      0x00\n        /* \"#utility.yul\":20306:20314   */\n      mload\n        /* \"#utility.yul\":20301:20304   */\n      0xe0\n        /* \"#utility.yul\":20297:20315   */\n      shr\n        /* \"#utility.yul\":20205:20325   */\n    tag_619:\n        /* \"#utility.yul\":20152:20331   */\n      swap1\n      jump\t// out\n        /* \"#utility.yul\":20336:21007   */\n    tag_404:\n        /* \"#utility.yul\":20375:20378   */\n      0x00\n        /* \"#utility.yul\":20417:20421   */\n      0x44\n        /* \"#utility.yul\":20399:20415   */\n      returndatasize\n        /* \"#utility.yul\":20396:20422   */\n      lt\n        /* \"#utility.yul\":20393:20432   */\n      iszero\n      tag_621\n      jumpi\n        /* \"#utility.yul\":20336:21007   */\n      swap1\n      jump\t// out\n        /* \"#utility.yul\":20393:20432   */\n    tag_621:\n        /* \"#utility.yul\":20459:20461   */\n      0x40\n        /* \"#utility.yul\":20453:20462   */\n      mload\n      not(0x03)\n        /* \"#utility.yul\":20524:20540   */\n      returndatasize\n        /* \"#utility.yul\":20520:20545   */\n      dup2\n      add\n        /* \"#utility.yul\":20517:20518   */\n      0x04\n        /* \"#utility.yul\":20453:20462   */\n      dup4\n        /* \"#utility.yul\":20496:20546   */\n      returndatacopy\n        /* \"#utility.yul\":20575:20579   */\n      dup2\n        /* \"#utility.yul\":20569:20580   */\n      mload\n        /* \"#utility.yul\":20599:20615   */\n      returndatasize\n        /* \"#utility.yul\":20634:20652   */\n      0xffffffffffffffff\n        /* \"#utility.yul\":20705:20707   */\n      dup2\n        /* \"#utility.yul\":20698:20702   */\n      0x24\n        /* \"#utility.yul\":20690:20696   */\n      dup5\n        /* \"#utility.yul\":20686:20703   */\n      add\n        /* \"#utility.yul\":20683:20708   */\n      gt\n        /* \"#utility.yul\":20678:20680   */\n      dup2\n        /* \"#utility.yul\":20670:20676   */\n      dup5\n        /* \"#utility.yul\":20667:20681   */\n      gt\n        /* \"#utility.yul\":20664:20709   */\n      or\n        /* \"#utility.yul\":20661:20719   */\n      iszero\n      tag_622\n      jumpi\n        /* \"#utility.yul\":20712:20717   */\n      pop\n      pop\n      pop\n      pop\n      pop\n        /* \"#utility.yul\":20336:21007   */\n      swap1\n      jump\t// out\n        /* \"#utility.yul\":20661:20719   */\n    tag_622:\n        /* \"#utility.yul\":20749:20755   */\n      dup3\n        /* \"#utility.yul\":20743:20747   */\n      dup6\n        /* \"#utility.yul\":20739:20756   */\n      add\n        /* \"#utility.yul\":20728:20756   */\n      swap2\n      pop\n        /* \"#utility.yul\":20785:20788   */\n      dup2\n        /* \"#utility.yul\":20779:20789   */\n      mload\n        /* \"#utility.yul\":20812:20814   */\n      dup2\n        /* \"#utility.yul\":20804:20810   */\n      dup2\n        /* \"#utility.yul\":20801:20815   */\n      gt\n        /* \"#utility.yul\":20798:20825   */\n      iszero\n      tag_623\n      jumpi\n        /* \"#utility.yul\":20818:20823   */\n      pop\n      pop\n      pop\n      pop\n      pop\n      pop\n        /* \"#utility.yul\":20336:21007   */\n      swap1\n      jump\t// out\n        /* \"#utility.yul\":20798:20825   */\n    tag_623:\n        /* \"#utility.yul\":20902:20904   */\n      dup5\n        /* \"#utility.yul\":20883:20899   */\n      returndatasize\n        /* \"#utility.yul\":20877:20881   */\n      dup8\n        /* \"#utility.yul\":20873:20900   */\n      add\n        /* \"#utility.yul\":20869:20905   */\n      add\n        /* \"#utility.yul\":20862:20866   */\n      0x20\n        /* \"#utility.yul\":20853:20859   */\n      dup3\n        /* \"#utility.yul\":20848:20851   */\n      dup6\n        /* \"#utility.yul\":20844:20860   */\n      add\n        /* \"#utility.yul\":20840:20867   */\n      add\n        /* \"#utility.yul\":20837:20906   */\n      gt\n        /* \"#utility.yul\":20834:20916   */\n      iszero\n      tag_624\n      jumpi\n        /* \"#utility.yul\":20909:20914   */\n      pop\n      pop\n      pop\n      pop\n      pop\n      pop\n        /* \"#utility.yul\":20336:21007   */\n      swap1\n      jump\t// out\n        /* \"#utility.yul\":20834:20916   */\n    tag_624:\n        /* \"#utility.yul\":20925:20982   */\n      tag_625\n        /* \"#utility.yul\":20976:20980   */\n      0x20\n        /* \"#utility.yul\":20967:20973   */\n      dup3\n        /* \"#utility.yul\":20959:20965   */\n      dup7\n        /* \"#utility.yul\":20955:20974   */\n      add\n        /* \"#utility.yul\":20951:20981   */\n      add\n        /* \"#utility.yul\":20945:20949   */\n      dup8\n        /* \"#utility.yul\":20925:20982   */\n      tag_452\n      jump\t// in\n    tag_625:\n      pop\n        /* \"#utility.yul\":20998:21001   */\n      swap1\n      swap6\n        /* \"#utility.yul\":20336:21007   */\n      swap5\n      pop\n      pop\n      pop\n      pop\n      pop\n      jump\t// out\n        /* \"#utility.yul\":21433:21837   */\n    tag_412:\n        /* \"#utility.yul\":21635:21637   */\n      0x20\n        /* \"#utility.yul\":21617:21638   */\n      dup1\n      dup3\n      mstore\n        /* \"#utility.yul\":21674:21676   */\n      0x28\n        /* \"#utility.yul\":21654:21672   */\n      swap1\n      dup3\n      add\n        /* \"#utility.yul\":21647:21677   */\n      mstore\n        /* \"#utility.yul\":21713:21747   */\n      0x455243313135353a204552433131353552656365697665722072656a65637465\n        /* \"#utility.yul\":21708:21710   */\n      0x40\n        /* \"#utility.yul\":21693:21711   */\n      dup3\n      add\n        /* \"#utility.yul\":21686:21748   */\n      mstore\n      shl(0xc0, 0x6420746f6b656e73)\n        /* \"#utility.yul\":21779:21781   */\n      0x60\n        /* \"#utility.yul\":21764:21782   */\n      dup3\n      add\n        /* \"#utility.yul\":21757:21795   */\n      mstore\n        /* \"#utility.yul\":21827:21830   */\n      0x80\n        /* \"#utility.yul\":21812:21831   */\n      add\n      swap1\n        /* \"#utility.yul\":21433:21837   */\n      jump\t// out\n        /* \"#utility.yul\":21842:22403   */\n    tag_423:\n      sub(shl(0xa0, 0x01), 0x01)\n        /* \"#utility.yul\":22139:22154   */\n      dup7\n      dup2\n      and\n        /* \"#utility.yul\":22121:22155   */\n      dup3\n      mstore\n        /* \"#utility.yul\":22191:22206   */\n      dup6\n      and\n        /* \"#utility.yul\":22186:22188   */\n      0x20\n        /* \"#utility.yul\":22171:22189   */\n      dup3\n      add\n        /* \"#utility.yul\":22164:22207   */\n      mstore\n        /* \"#utility.yul\":22238:22240   */\n      0x40\n        /* \"#utility.yul\":22223:22241   */\n      dup2\n      add\n        /* \"#utility.yul\":22216:22250   */\n      dup5\n      swap1\n      mstore\n        /* \"#utility.yul\":22281:22283   */\n      0x60\n        /* \"#utility.yul\":22266:22284   */\n      dup2\n      add\n        /* \"#utility.yul\":22259:22293   */\n      dup4\n      swap1\n      mstore\n        /* \"#utility.yul\":22101:22104   */\n      0xa0\n        /* \"#utility.yul\":22324:22327   */\n      0x80\n        /* \"#utility.yul\":22309:22328   */\n      dup3\n      add\n        /* \"#utility.yul\":22302:22334   */\n      dup2\n      swap1\n      mstore\n        /* \"#utility.yul\":22064:22068   */\n      0x00\n      swap1\n        /* \"#utility.yul\":22351:22397   */\n      tag_629\n      swap1\n        /* \"#utility.yul\":22377:22396   */\n      dup4\n      add\n        /* \"#utility.yul\":22369:22375   */\n      dup5\n        /* \"#utility.yul\":22351:22397   */\n      tag_454\n      jump\t// in\n    tag_629:\n        /* \"#utility.yul\":22343:22397   */\n      swap8\n        /* \"#utility.yul\":21842:22403   */\n      swap7\n      pop\n      pop\n      pop\n      pop\n      pop\n      pop\n      pop\n      jump\t// out\n\n    auxdata: 0xa2646970667358221220394d42a863720e48913aba1e1e6ae9b9090e3f282e5084899b74d0507ca6032f64736f6c634300080b0033\n}\n",
				"bytecode": {
					"linkReferences": {},
					"object": "60806040523480156200001157600080fd5b506040518060a0016040528060698152602001620023c860699139620000378162000056565b5062000043336200006f565b6003805460ff60a01b19169055620001a4565b80516200006b906002906020840190620000c1565b5050565b600380546001600160a01b038381166001600160a01b0319831681179093556040519116919082907f8be0079c531659141344cd1fd0a4f28419497f9722a3daafe3b4186f6b6457e090600090a35050565b828054620000cf9062000167565b90600052602060002090601f016020900481019282620000f357600085556200013e565b82601f106200010e57805160ff19168380011785556200013e565b828001600101855582156200013e579182015b828111156200013e57825182559160200191906001019062000121565b506200014c92915062000150565b5090565b5b808211156200014c576000815560010162000151565b600181811c908216806200017c57607f821691505b602082108114156200019e57634e487b7160e01b600052602260045260246000fd5b50919050565b61221480620001b46000396000f3fe608060405234801561001057600080fd5b50600436106101205760003560e01c80636b20c454116100ad578063a22cb46511610071578063a22cb46514610254578063e985e9c514610267578063f242432a146102a3578063f2fde38b146102b6578063f5298aca146102c957600080fd5b80636b20c45414610203578063715018a614610216578063731133e91461021e5780638456cb59146102315780638da5cb5b1461023957600080fd5b80631f7fdffa116100f45780631f7fdffa146101a35780632eb2c2d6146101b65780633f4ba83a146101c95780634e1273f4146101d15780635c975abb146101f157600080fd5b8062fdd58e1461012557806301ffc9a71461014b57806302fe53051461016e5780630e89341c14610183575b600080fd5b610138610133366004611680565b6102dc565b6040519081526020015b60405180910390f35b61015e6101593660046116c0565b610373565b6040519015158152602001610142565b61018161017c366004611785565b6103c5565b005b6101966101913660046117d6565b6103fb565b604051610142919061183c565b6101816101b1366004611904565b61048f565b6101816101c436600461199d565b6104cb565b610181610562565b6101e46101df366004611a47565b610596565b6040516101429190611b4d565b600354600160a01b900460ff1661015e565b610181610211366004611b60565b6106c0565b610181610708565b61018161022c366004611bd4565b61073c565b610181610772565b6003546040516001600160a01b039091168152602001610142565b610181610262366004611c29565b6107a4565b61015e610275366004611c65565b6001600160a01b03918216600090815260016020908152604080832093909416825291909152205460ff1690565b6101816102b1366004611c98565b6107b3565b6101816102c4366004611cfd565b6107f8565b6101816102d7366004611d18565b610890565b60006001600160a01b03831661034d5760405162461bcd60e51b815260206004820152602b60248201527f455243313135353a2062616c616e636520717565727920666f7220746865207a60448201526a65726f206164647265737360a81b60648201526084015b60405180910390fd5b506000908152602081815260408083206001600160a01b03949094168352929052205490565b60006001600160e01b03198216636cdb3d1360e11b14806103a457506001600160e01b031982166303a24d0760e21b145b806103bf57506301ffc9a760e01b6001600160e01b03198316145b92915050565b6003546001600160a01b031633146103ef5760405162461bcd60e51b815260040161034490611d4b565b6103f8816108d3565b50565b60606002805461040a90611d80565b80601f016020809104026020016040519081016040528092919081815260200182805461043690611d80565b80156104835780601f1061045857610100808354040283529160200191610483565b820191906000526020600020905b81548152906001019060200180831161046657829003601f168201915b50505050509050919050565b6003546001600160a01b031633146104b95760405162461bcd60e51b815260040161034490611d4b565b6104c5848484846108e6565b50505050565b6001600160a01b0385163314806104e757506104e78533610275565b61054e5760405162461bcd60e51b815260206004820152603260248201527f455243313135353a207472616e736665722063616c6c6572206973206e6f74206044820152711bdddb995c881b9bdc88185c1c1c9bdd995960721b6064820152608401610344565b61055b8585858585610a40565b5050505050565b6003546001600160a01b0316331461058c5760405162461bcd60e51b815260040161034490611d4b565b610594610bea565b565b606081518351146105fb5760405162461bcd60e51b815260206004820152602960248201527f455243313135353a206163636f756e747320616e6420696473206c656e677468604482015268040dad2e6dac2e8c6d60bb1b6064820152608401610344565b6000835167ffffffffffffffff811115610617576106176116e4565b604051908082528060200260200182016040528015610640578160200160208202803683370190505b50905060005b84518110156106b85761068b85828151811061066457610664611dbb565b602002602001015185838151811061067e5761067e611dbb565b60200260200101516102dc565b82828151811061069d5761069d611dbb565b60209081029190910101526106b181611de7565b9050610646565b509392505050565b6001600160a01b0383163314806106dc57506106dc8333610275565b6106f85760405162461bcd60e51b815260040161034490611e02565b610703838383610c87565b505050565b6003546001600160a01b031633146107325760405162461bcd60e51b815260040161034490611d4b565b6105946000610e23565b6003546001600160a01b031633146107665760405162461bcd60e51b815260040161034490611d4b565b6104c584848484610e75565b6003546001600160a01b0316331461079c5760405162461bcd60e51b815260040161034490611d4b565b610594610f5e565b6107af338383610fe6565b5050565b6001600160a01b0385163314806107cf57506107cf8533610275565b6107eb5760405162461bcd60e51b815260040161034490611e02565b61055b85858585856110c7565b6003546001600160a01b031633146108225760405162461bcd60e51b815260040161034490611d4b565b6001600160a01b0381166108875760405162461bcd60e51b815260206004820152602660248201527f4f776e61626c653a206e6577206f776e657220697320746865207a65726f206160448201526564647265737360d01b6064820152608401610344565b6103f881610e23565b6001600160a01b0383163314806108ac57506108ac8333610275565b6108c85760405162461bcd60e51b815260040161034490611e02565b6107038383836111ff565b80516107af9060029060208401906115cb565b6001600160a01b03841661090c5760405162461bcd60e51b815260040161034490611e4b565b815183511461092d5760405162461bcd60e51b815260040161034490611e8c565b3361093d81600087878787611317565b60005b84518110156109d85783818151811061095b5761095b611dbb565b602002602001015160008087848151811061097857610978611dbb565b602002602001015181526020019081526020016000206000886001600160a01b03166001600160a01b0316815260200190815260200160002060008282546109c09190611ed4565b909155508190506109d081611de7565b915050610940565b50846001600160a01b031660006001600160a01b0316826001600160a01b03167f4a39dc06d4c0dbc64b70af90fd698a233a518aa5d07e595d983b8c0526c8f7fb8787604051610a29929190611eec565b60405180910390a461055b81600087878787611369565b8151835114610a615760405162461bcd60e51b815260040161034490611e8c565b6001600160a01b038416610a875760405162461bcd60e51b815260040161034490611f1a565b33610a96818787878787611317565b60005b8451811015610b7c576000858281518110610ab657610ab6611dbb565b602002602001015190506000858381518110610ad457610ad4611dbb565b602090810291909101810151600084815280835260408082206001600160a01b038e168352909352919091205490915081811015610b245760405162461bcd60e51b815260040161034490611f5f565b6000838152602081815260408083206001600160a01b038e8116855292528083208585039055908b16825281208054849290610b61908490611ed4565b9250508190555050505080610b7590611de7565b9050610a99565b50846001600160a01b0316866001600160a01b0316826001600160a01b03167f4a39dc06d4c0dbc64b70af90fd698a233a518aa5d07e595d983b8c0526c8f7fb8787604051610bcc929190611eec565b60405180910390a4610be2818787878787611369565b505050505050565b600354600160a01b900460ff16610c3a5760405162461bcd60e51b815260206004820152601460248201527314185d5cd8589b194e881b9bdd081c185d5cd95960621b6044820152606401610344565b6003805460ff60a01b191690557f5db9ee0a495bf2e6ff9c91a7834c1ba4fdd244a5e8aa4e537bd38aeae4b073aa335b6040516001600160a01b03909116815260200160405180910390a1565b6001600160a01b038316610cad5760405162461bcd60e51b815260040161034490611fa9565b8051825114610cce5760405162461bcd60e51b815260040161034490611e8c565b6000339050610cf181856000868660405180602001604052806000815250611317565b60005b8351811015610db6576000848281518110610d1157610d11611dbb565b602002602001015190506000848381518110610d2f57610d2f611dbb565b602090810291909101810151600084815280835260408082206001600160a01b038c168352909352919091205490915081811015610d7f5760405162461bcd60e51b815260040161034490611fec565b6000928352602083815260408085206001600160a01b038b1686529091529092209103905580610dae81611de7565b915050610cf4565b5060006001600160a01b0316846001600160a01b0316826001600160a01b03167f4a39dc06d4c0dbc64b70af90fd698a233a518aa5d07e595d983b8c0526c8f7fb8686604051610e07929190611eec565b60405180910390a46040805160208101909152600090526104c5565b600380546001600160a01b038381166001600160a01b0319831681179093556040519116919082907f8be0079c531659141344cd1fd0a4f28419497f9722a3daafe3b4186f6b6457e090600090a35050565b6001600160a01b038416610e9b5760405162461bcd60e51b815260040161034490611e4b565b336000610ea7856114c5565b90506000610eb4856114c5565b9050610ec583600089858589611317565b6000868152602081815260408083206001600160a01b038b16845290915281208054879290610ef5908490611ed4565b909155505060408051878152602081018790526001600160a01b03808a1692600092918716917fc3d58168c5ae7397731d063d5bbf3d657854427343f4c083240f7aacaa2d0f62910160405180910390a4610f5583600089898989611510565b50505050505050565b600354600160a01b900460ff1615610fab5760405162461bcd60e51b815260206004820152601060248201526f14185d5cd8589b194e881c185d5cd95960821b6044820152606401610344565b6003805460ff60a01b1916600160a01b1790557f62e78cea01bee320cd4e420270b5ea74000d11b0c9f74754ebdbfc544b05a258610c6a3390565b816001600160a01b0316836001600160a01b0316141561105a5760405162461bcd60e51b815260206004820152602960248201527f455243313135353a2073657474696e6720617070726f76616c20737461747573604482015268103337b91039b2b63360b91b6064820152608401610344565b6001600160a01b03838116600081815260016020908152604080832094871680845294825291829020805460ff191686151590811790915591519182527f17307eab39ab6107e8899845ad3d59bd9653f200f220920489ca2b5937696c31910160405180910390a3505050565b6001600160a01b0384166110ed5760405162461bcd60e51b815260040161034490611f1a565b3360006110f9856114c5565b90506000611106856114c5565b9050611116838989858589611317565b6000868152602081815260408083206001600160a01b038c168452909152902054858110156111575760405162461bcd60e51b815260040161034490611f5f565b6000878152602081815260408083206001600160a01b038d8116855292528083208985039055908a16825281208054889290611194908490611ed4565b909155505060408051888152602081018890526001600160a01b03808b16928c821692918816917fc3d58168c5ae7397731d063d5bbf3d657854427343f4c083240f7aacaa2d0f62910160405180910390a46111f4848a8a8a8a8a611510565b505050505050505050565b6001600160a01b0383166112255760405162461bcd60e51b815260040161034490611fa9565b336000611231846114c5565b9050600061123e846114c5565b905061125e83876000858560405180602001604052806000815250611317565b6000858152602081815260408083206001600160a01b038a1684529091529020548481101561129f5760405162461bcd60e51b815260040161034490611fec565b6000868152602081815260408083206001600160a01b038b81168086529184528285208a8703905582518b81529384018a90529092908816917fc3d58168c5ae7397731d063d5bbf3d657854427343f4c083240f7aacaa2d0f62910160405180910390a4604080516020810190915260009052610f55565b600354600160a01b900460ff16156113645760405162461bcd60e51b815260206004820152601060248201526f14185d5cd8589b194e881c185d5cd95960821b6044820152606401610344565b610be2565b6001600160a01b0384163b15610be25760405163bc197c8160e01b81526001600160a01b0385169063bc197c81906113ad9089908990889088908890600401612030565b6020604051808303816000875af19250505080156113e8575060408051601f3d908101601f191682019092526113e59181019061208e565b60015b611495576113f46120ab565b806308c379a0141561142e57506114096120c7565b806114145750611430565b8060405162461bcd60e51b8152600401610344919061183c565b505b60405162461bcd60e51b815260206004820152603460248201527f455243313135353a207472616e7366657220746f206e6f6e20455243313135356044820152732932b1b2b4bb32b91034b6b83632b6b2b73a32b960611b6064820152608401610344565b6001600160e01b0319811663bc197c8160e01b14610f555760405162461bcd60e51b815260040161034490612151565b604080516001808252818301909252606091600091906020808301908036833701905050905082816000815181106114ff576114ff611dbb565b602090810291909101015292915050565b6001600160a01b0384163b15610be25760405163f23a6e6160e01b81526001600160a01b0385169063f23a6e61906115549089908990889088908890600401612199565b6020604051808303816000875af192505050801561158f575060408051601f3d908101601f1916820190925261158c9181019061208e565b60015b61159b576113f46120ab565b6001600160e01b0319811663f23a6e6160e01b14610f555760405162461bcd60e51b815260040161034490612151565b8280546115d790611d80565b90600052602060002090601f0160209004810192826115f9576000855561163f565b82601f1061161257805160ff191683800117855561163f565b8280016001018555821561163f579182015b8281111561163f578251825591602001919060010190611624565b5061164b92915061164f565b5090565b5b8082111561164b5760008155600101611650565b80356001600160a01b038116811461167b57600080fd5b919050565b6000806040838503121561169357600080fd5b61169c83611664565b946020939093013593505050565b6001600160e01b0319811681146103f857600080fd5b6000602082840312156116d257600080fd5b81356116dd816116aa565b9392505050565b634e487b7160e01b600052604160045260246000fd5b601f8201601f1916810167ffffffffffffffff81118282101715611720576117206116e4565b6040525050565b600067ffffffffffffffff831115611741576117416116e4565b604051611758601f8501601f1916602001826116fa565b80915083815284848401111561176d57600080fd5b83836020830137600060208583010152509392505050565b60006020828403121561179757600080fd5b813567ffffffffffffffff8111156117ae57600080fd5b8201601f810184136117bf57600080fd5b6117ce84823560208401611727565b949350505050565b6000602082840312156117e857600080fd5b5035919050565b6000815180845260005b81811015611815576020818501810151868301820152016117f9565b81811115611827576000602083870101525b50601f01601f19169290920160200192915050565b6020815260006116dd60208301846117ef565b600067ffffffffffffffff821115611869576118696116e4565b5060051b60200190565b600082601f83011261188457600080fd5b813560206118918261184f565b60405161189e82826116fa565b83815260059390931b85018201928281019150868411156118be57600080fd5b8286015b848110156118d957803583529183019183016118c2565b509695505050505050565b600082601f8301126118f557600080fd5b6116dd83833560208501611727565b6000806000806080858703121561191a57600080fd5b61192385611664565b9350602085013567ffffffffffffffff8082111561194057600080fd5b61194c88838901611873565b9450604087013591508082111561196257600080fd5b61196e88838901611873565b9350606087013591508082111561198457600080fd5b50611991878288016118e4565b91505092959194509250565b600080600080600060a086880312156119b557600080fd5b6119be86611664565b94506119cc60208701611664565b9350604086013567ffffffffffffffff808211156119e957600080fd5b6119f589838a01611873565b94506060880135915080821115611a0b57600080fd5b611a1789838a01611873565b93506080880135915080821115611a2d57600080fd5b50611a3a888289016118e4565b9150509295509295909350565b60008060408385031215611a5a57600080fd5b823567ffffffffffffffff80821115611a7257600080fd5b818501915085601f830112611a8657600080fd5b81356020611a938261184f565b604051611aa082826116fa565b83815260059390931b8501820192828101915089841115611ac057600080fd5b948201945b83861015611ae557611ad686611664565b82529482019490820190611ac5565b96505086013592505080821115611afb57600080fd5b50611b0885828601611873565b9150509250929050565b600081518084526020808501945080840160005b83811015611b4257815187529582019590820190600101611b26565b509495945050505050565b6020815260006116dd6020830184611b12565b600080600060608486031215611b7557600080fd5b611b7e84611664565b9250602084013567ffffffffffffffff80821115611b9b57600080fd5b611ba787838801611873565b93506040860135915080821115611bbd57600080fd5b50611bca86828701611873565b9150509250925092565b60008060008060808587031215611bea57600080fd5b611bf385611664565b93506020850135925060408501359150606085013567ffffffffffffffff811115611c1d57600080fd5b611991878288016118e4565b60008060408385031215611c3c57600080fd5b611c4583611664565b915060208301358015158114611c5a57600080fd5b809150509250929050565b60008060408385031215611c7857600080fd5b611c8183611664565b9150611c8f60208401611664565b90509250929050565b600080600080600060a08688031215611cb057600080fd5b611cb986611664565b9450611cc760208701611664565b93506040860135925060608601359150608086013567ffffffffffffffff811115611cf157600080fd5b611a3a888289016118e4565b600060208284031215611d0f57600080fd5b6116dd82611664565b600080600060608486031215611d2d57600080fd5b611d3684611664565b95602085013595506040909401359392505050565b6020808252818101527f4f776e61626c653a2063616c6c6572206973206e6f7420746865206f776e6572604082015260600190565b600181811c90821680611d9457607f821691505b60208210811415611db557634e487b7160e01b600052602260045260246000fd5b50919050565b634e487b7160e01b600052603260045260246000fd5b634e487b7160e01b600052601160045260246000fd5b6000600019821415611dfb57611dfb611dd1565b5060010190565b60208082526029908201527f455243313135353a2063616c6c6572206973206e6f74206f776e6572206e6f7260408201526808185c1c1c9bdd995960ba1b606082015260800190565b60208082526021908201527f455243313135353a206d696e7420746f20746865207a65726f206164647265736040820152607360f81b606082015260800190565b60208082526028908201527f455243313135353a2069647320616e6420616d6f756e7473206c656e677468206040820152670dad2e6dac2e8c6d60c31b606082015260800190565b60008219821115611ee757611ee7611dd1565b500190565b604081526000611eff6040830185611b12565b8281036020840152611f118185611b12565b95945050505050565b60208082526025908201527f455243313135353a207472616e7366657220746f20746865207a65726f206164604082015264647265737360d81b606082015260800190565b6020808252602a908201527f455243313135353a20696e73756666696369656e742062616c616e636520666f60408201526939103a3930b739b332b960b11b606082015260800190565b60208082526023908201527f455243313135353a206275726e2066726f6d20746865207a65726f206164647260408201526265737360e81b606082015260800190565b60208082526024908201527f455243313135353a206275726e20616d6f756e7420657863656564732062616c604082015263616e636560e01b606082015260800190565b6001600160a01b0386811682528516602082015260a06040820181905260009061205c90830186611b12565b828103606084015261206e8186611b12565b9050828103608084015261208281856117ef565b98975050505050505050565b6000602082840312156120a057600080fd5b81516116dd816116aa565b600060033d11156120c45760046000803e5060005160e01c5b90565b600060443d10156120d55790565b6040516003193d81016004833e81513d67ffffffffffffffff816024840111818411171561210557505050505090565b828501915081518181111561211d5750505050505090565b843d87010160208285010111156121375750505050505090565b612146602082860101876116fa565b509095945050505050565b60208082526028908201527f455243313135353a204552433131353552656365697665722072656a656374656040820152676420746f6b656e7360c01b606082015260800190565b6001600160a01b03868116825285166020820152604081018490526060810183905260a0608082018190526000906121d3908301846117ef565b97965050505050505056fea2646970667358221220394d42a863720e48913aba1e1e6ae9b9090e3f282e5084899b74d0507ca6032f64736f6c634300080b003368747470733a2f2f697066732e696f2f697066732f516d5136745a686138724d524531536a64666a5747445a6955727a5063526678784553444875514142625a4453383f66696c656e616d653d53696465487573746c65722532304261636b67726f756e642e706e67",
					"opcodes": "PUSH1 0x80 PUSH1 0x40 MSTORE CALLVALUE DUP1 ISZERO PUSH3 0x11 JUMPI PUSH1 0x0 DUP1 REVERT JUMPDEST POP PUSH1 0x40 MLOAD DUP1 PUSH1 0xA0 ADD PUSH1 0x40 MSTORE DUP1 PUSH1 0x69 DUP2 MSTORE PUSH1 0x20 ADD PUSH3 0x23C8 PUSH1 0x69 SWAP2 CODECOPY PUSH3 0x37 DUP2 PUSH3 0x56 JUMP JUMPDEST POP PUSH3 0x43 CALLER PUSH3 0x6F JUMP JUMPDEST PUSH1 0x3 DUP1 SLOAD PUSH1 0xFF PUSH1 0xA0 SHL NOT AND SWAP1 SSTORE PUSH3 0x1A4 JUMP JUMPDEST DUP1 MLOAD PUSH3 0x6B SWAP1 PUSH1 0x2 SWAP1 PUSH1 0x20 DUP5 ADD SWAP1 PUSH3 0xC1 JUMP JUMPDEST POP POP JUMP JUMPDEST PUSH1 0x3 DUP1 SLOAD PUSH1 0x1 PUSH1 0x1 PUSH1 0xA0 SHL SUB DUP4 DUP2 AND PUSH1 0x1 PUSH1 0x1 PUSH1 0xA0 SHL SUB NOT DUP4 AND DUP2 OR SWAP1 SWAP4 SSTORE PUSH1 0x40 MLOAD SWAP2 AND SWAP2 SWAP1 DUP3 SWAP1 PUSH32 0x8BE0079C531659141344CD1FD0A4F28419497F9722A3DAAFE3B4186F6B6457E0 SWAP1 PUSH1 0x0 SWAP1 LOG3 POP POP JUMP JUMPDEST DUP3 DUP1 SLOAD PUSH3 0xCF SWAP1 PUSH3 0x167 JUMP JUMPDEST SWAP1 PUSH1 0x0 MSTORE PUSH1 0x20 PUSH1 0x0 KECCAK256 SWAP1 PUSH1 0x1F ADD PUSH1 0x20 SWAP1 DIV DUP2 ADD SWAP3 DUP3 PUSH3 0xF3 JUMPI PUSH1 0x0 DUP6 SSTORE PUSH3 0x13E JUMP JUMPDEST DUP3 PUSH1 0x1F LT PUSH3 0x10E JUMPI DUP1 MLOAD PUSH1 0xFF NOT AND DUP4 DUP1 ADD OR DUP6 SSTORE PUSH3 0x13E JUMP JUMPDEST DUP3 DUP1 ADD PUSH1 0x1 ADD DUP6 SSTORE DUP3 ISZERO PUSH3 0x13E JUMPI SWAP2 DUP3 ADD JUMPDEST DUP3 DUP2 GT ISZERO PUSH3 0x13E JUMPI DUP3 MLOAD DUP3 SSTORE SWAP2 PUSH1 0x20 ADD SWAP2 SWAP1 PUSH1 0x1 ADD SWAP1 PUSH3 0x121 JUMP JUMPDEST POP PUSH3 0x14C SWAP3 SWAP2 POP PUSH3 0x150 JUMP JUMPDEST POP SWAP1 JUMP JUMPDEST JUMPDEST DUP1 DUP3 GT ISZERO PUSH3 0x14C JUMPI PUSH1 0x0 DUP2 SSTORE PUSH1 0x1 ADD PUSH3 0x151 JUMP JUMPDEST PUSH1 0x1 DUP2 DUP2 SHR SWAP1 DUP3 AND DUP1 PUSH3 0x17C JUMPI PUSH1 0x7F DUP3 AND SWAP2 POP JUMPDEST PUSH1 0x20 DUP3 LT DUP2 EQ ISZERO PUSH3 0x19E JUMPI PUSH4 0x4E487B71 PUSH1 0xE0 SHL PUSH1 0x0 MSTORE PUSH1 0x22 PUSH1 0x4 MSTORE PUSH1 0x24 PUSH1 0x0 REVERT JUMPDEST POP SWAP2 SWAP1 POP JUMP JUMPDEST PUSH2 0x2214 DUP1 PUSH3 0x1B4 PUSH1 0x0 CODECOPY PUSH1 0x0 RETURN INVALID PUSH1 0x80 PUSH1 0x40 MSTORE CALLVALUE DUP1 ISZERO PUSH2 0x10 JUMPI PUSH1 0x0 DUP1 REVERT JUMPDEST POP PUSH1 0x4 CALLDATASIZE LT PUSH2 0x120 JUMPI PUSH1 0x0 CALLDATALOAD PUSH1 0xE0 SHR DUP1 PUSH4 0x6B20C454 GT PUSH2 0xAD JUMPI DUP1 PUSH4 0xA22CB465 GT PUSH2 0x71 JUMPI DUP1 PUSH4 0xA22CB465 EQ PUSH2 0x254 JUMPI DUP1 PUSH4 0xE985E9C5 EQ PUSH2 0x267 JUMPI DUP1 PUSH4 0xF242432A EQ PUSH2 0x2A3 JUMPI DUP1 PUSH4 0xF2FDE38B EQ PUSH2 0x2B6 JUMPI DUP1 PUSH4 0xF5298ACA EQ PUSH2 0x2C9 JUMPI PUSH1 0x0 DUP1 REVERT JUMPDEST DUP1 PUSH4 0x6B20C454 EQ PUSH2 0x203 JUMPI DUP1 PUSH4 0x715018A6 EQ PUSH2 0x216 JUMPI DUP1 PUSH4 0x731133E9 EQ PUSH2 0x21E JUMPI DUP1 PUSH4 0x8456CB59 EQ PUSH2 0x231 JUMPI DUP1 PUSH4 0x8DA5CB5B EQ PUSH2 0x239 JUMPI PUSH1 0x0 DUP1 REVERT JUMPDEST DUP1 PUSH4 0x1F7FDFFA GT PUSH2 0xF4 JUMPI DUP1 PUSH4 0x1F7FDFFA EQ PUSH2 0x1A3 JUMPI DUP1 PUSH4 0x2EB2C2D6 EQ PUSH2 0x1B6 JUMPI DUP1 PUSH4 0x3F4BA83A EQ PUSH2 0x1C9 JUMPI DUP1 PUSH4 0x4E1273F4 EQ PUSH2 0x1D1 JUMPI DUP1 PUSH4 0x5C975ABB EQ PUSH2 0x1F1 JUMPI PUSH1 0x0 DUP1 REVERT JUMPDEST DUP1 PUSH3 0xFDD58E EQ PUSH2 0x125 JUMPI DUP1 PUSH4 0x1FFC9A7 EQ PUSH2 0x14B JUMPI DUP1 PUSH4 0x2FE5305 EQ PUSH2 0x16E JUMPI DUP1 PUSH4 0xE89341C EQ PUSH2 0x183 JUMPI JUMPDEST PUSH1 0x0 DUP1 REVERT JUMPDEST PUSH2 0x138 PUSH2 0x133 CALLDATASIZE PUSH1 0x4 PUSH2 0x1680 JUMP JUMPDEST PUSH2 0x2DC JUMP JUMPDEST PUSH1 0x40 MLOAD SWAP1 DUP2 MSTORE PUSH1 0x20 ADD JUMPDEST PUSH1 0x40 MLOAD DUP1 SWAP2 SUB SWAP1 RETURN JUMPDEST PUSH2 0x15E PUSH2 0x159 CALLDATASIZE PUSH1 0x4 PUSH2 0x16C0 JUMP JUMPDEST PUSH2 0x373 JUMP JUMPDEST PUSH1 0x40 MLOAD SWAP1 ISZERO ISZERO DUP2 MSTORE PUSH1 0x20 ADD PUSH2 0x142 JUMP JUMPDEST PUSH2 0x181 PUSH2 0x17C CALLDATASIZE PUSH1 0x4 PUSH2 0x1785 JUMP JUMPDEST PUSH2 0x3C5 JUMP JUMPDEST STOP JUMPDEST PUSH2 0x196 PUSH2 0x191 CALLDATASIZE PUSH1 0x4 PUSH2 0x17D6 JUMP JUMPDEST PUSH2 0x3FB JUMP JUMPDEST PUSH1 0x40 MLOAD PUSH2 0x142 SWAP2 SWAP1 PUSH2 0x183C JUMP JUMPDEST PUSH2 0x181 PUSH2 0x1B1 CALLDATASIZE PUSH1 0x4 PUSH2 0x1904 JUMP JUMPDEST PUSH2 0x48F JUMP JUMPDEST PUSH2 0x181 PUSH2 0x1C4 CALLDATASIZE PUSH1 0x4 PUSH2 0x199D JUMP JUMPDEST PUSH2 0x4CB JUMP JUMPDEST PUSH2 0x181 PUSH2 0x562 JUMP JUMPDEST PUSH2 0x1E4 PUSH2 0x1DF CALLDATASIZE PUSH1 0x4 PUSH2 0x1A47 JUMP JUMPDEST PUSH2 0x596 JUMP JUMPDEST PUSH1 0x40 MLOAD PUSH2 0x142 SWAP2 SWAP1 PUSH2 0x1B4D JUMP JUMPDEST PUSH1 0x3 SLOAD PUSH1 0x1 PUSH1 0xA0 SHL SWAP1 DIV PUSH1 0xFF AND PUSH2 0x15E JUMP JUMPDEST PUSH2 0x181 PUSH2 0x211 CALLDATASIZE PUSH1 0x4 PUSH2 0x1B60 JUMP JUMPDEST PUSH2 0x6C0 JUMP JUMPDEST PUSH2 0x181 PUSH2 0x708 JUMP JUMPDEST PUSH2 0x181 PUSH2 0x22C CALLDATASIZE PUSH1 0x4 PUSH2 0x1BD4 JUMP JUMPDEST PUSH2 0x73C JUMP JUMPDEST PUSH2 0x181 PUSH2 0x772 JUMP JUMPDEST PUSH1 0x3 SLOAD PUSH1 0x40 MLOAD PUSH1 0x1 PUSH1 0x1 PUSH1 0xA0 SHL SUB SWAP1 SWAP2 AND DUP2 MSTORE PUSH1 0x20 ADD PUSH2 0x142 JUMP JUMPDEST PUSH2 0x181 PUSH2 0x262 CALLDATASIZE PUSH1 0x4 PUSH2 0x1C29 JUMP JUMPDEST PUSH2 0x7A4 JUMP JUMPDEST PUSH2 0x15E PUSH2 0x275 CALLDATASIZE PUSH1 0x4 PUSH2 0x1C65 JUMP JUMPDEST PUSH1 0x1 PUSH1 0x1 PUSH1 0xA0 SHL SUB SWAP2 DUP3 AND PUSH1 0x0 SWAP1 DUP2 MSTORE PUSH1 0x1 PUSH1 0x20 SWAP1 DUP2 MSTORE PUSH1 0x40 DUP1 DUP4 KECCAK256 SWAP4 SWAP1 SWAP5 AND DUP3 MSTORE SWAP2 SWAP1 SWAP2 MSTORE KECCAK256 SLOAD PUSH1 0xFF AND SWAP1 JUMP JUMPDEST PUSH2 0x181 PUSH2 0x2B1 CALLDATASIZE PUSH1 0x4 PUSH2 0x1C98 JUMP JUMPDEST PUSH2 0x7B3 JUMP JUMPDEST PUSH2 0x181 PUSH2 0x2C4 CALLDATASIZE PUSH1 0x4 PUSH2 0x1CFD JUMP JUMPDEST PUSH2 0x7F8 JUMP JUMPDEST PUSH2 0x181 PUSH2 0x2D7 CALLDATASIZE PUSH1 0x4 PUSH2 0x1D18 JUMP JUMPDEST PUSH2 0x890 JUMP JUMPDEST PUSH1 0x0 PUSH1 0x1 PUSH1 0x1 PUSH1 0xA0 SHL SUB DUP4 AND PUSH2 0x34D JUMPI PUSH1 0x40 MLOAD PUSH3 0x461BCD PUSH1 0xE5 SHL DUP2 MSTORE PUSH1 0x20 PUSH1 0x4 DUP3 ADD MSTORE PUSH1 0x2B PUSH1 0x24 DUP3 ADD MSTORE PUSH32 0x455243313135353A2062616C616E636520717565727920666F7220746865207A PUSH1 0x44 DUP3 ADD MSTORE PUSH11 0x65726F2061646472657373 PUSH1 0xA8 SHL PUSH1 0x64 DUP3 ADD MSTORE PUSH1 0x84 ADD JUMPDEST PUSH1 0x40 MLOAD DUP1 SWAP2 SUB SWAP1 REVERT JUMPDEST POP PUSH1 0x0 SWAP1 DUP2 MSTORE PUSH1 0x20 DUP2 DUP2 MSTORE PUSH1 0x40 DUP1 DUP4 KECCAK256 PUSH1 0x1 PUSH1 0x1 PUSH1 0xA0 SHL SUB SWAP5 SWAP1 SWAP5 AND DUP4 MSTORE SWAP3 SWAP1 MSTORE KECCAK256 SLOAD SWAP1 JUMP JUMPDEST PUSH1 0x0 PUSH1 0x1 PUSH1 0x1 PUSH1 0xE0 SHL SUB NOT DUP3 AND PUSH4 0x6CDB3D13 PUSH1 0xE1 SHL EQ DUP1 PUSH2 0x3A4 JUMPI POP PUSH1 0x1 PUSH1 0x1 PUSH1 0xE0 SHL SUB NOT DUP3 AND PUSH4 0x3A24D07 PUSH1 0xE2 SHL EQ JUMPDEST DUP1 PUSH2 0x3BF JUMPI POP PUSH4 0x1FFC9A7 PUSH1 0xE0 SHL PUSH1 0x1 PUSH1 0x1 PUSH1 0xE0 SHL SUB NOT DUP4 AND EQ JUMPDEST SWAP3 SWAP2 POP POP JUMP JUMPDEST PUSH1 0x3 SLOAD PUSH1 0x1 PUSH1 0x1 PUSH1 0xA0 SHL SUB AND CALLER EQ PUSH2 0x3EF JUMPI PUSH1 0x40 MLOAD PUSH3 0x461BCD PUSH1 0xE5 SHL DUP2 MSTORE PUSH1 0x4 ADD PUSH2 0x344 SWAP1 PUSH2 0x1D4B JUMP JUMPDEST PUSH2 0x3F8 DUP2 PUSH2 0x8D3 JUMP JUMPDEST POP JUMP JUMPDEST PUSH1 0x60 PUSH1 0x2 DUP1 SLOAD PUSH2 0x40A SWAP1 PUSH2 0x1D80 JUMP JUMPDEST DUP1 PUSH1 0x1F ADD PUSH1 0x20 DUP1 SWAP2 DIV MUL PUSH1 0x20 ADD PUSH1 0x40 MLOAD SWAP1 DUP2 ADD PUSH1 0x40 MSTORE DUP1 SWAP3 SWAP2 SWAP1 DUP2 DUP2 MSTORE PUSH1 0x20 ADD DUP3 DUP1 SLOAD PUSH2 0x436 SWAP1 PUSH2 0x1D80 JUMP JUMPDEST DUP1 ISZERO PUSH2 0x483 JUMPI DUP1 PUSH1 0x1F LT PUSH2 0x458 JUMPI PUSH2 0x100 DUP1 DUP4 SLOAD DIV MUL DUP4 MSTORE SWAP2 PUSH1 0x20 ADD SWAP2 PUSH2 0x483 JUMP JUMPDEST DUP3 ADD SWAP2 SWAP1 PUSH1 0x0 MSTORE PUSH1 0x20 PUSH1 0x0 KECCAK256 SWAP1 JUMPDEST DUP2 SLOAD DUP2 MSTORE SWAP1 PUSH1 0x1 ADD SWAP1 PUSH1 0x20 ADD DUP1 DUP4 GT PUSH2 0x466 JUMPI DUP3 SWAP1 SUB PUSH1 0x1F AND DUP3 ADD SWAP2 JUMPDEST POP POP POP POP POP SWAP1 POP SWAP2 SWAP1 POP JUMP JUMPDEST PUSH1 0x3 SLOAD PUSH1 0x1 PUSH1 0x1 PUSH1 0xA0 SHL SUB AND CALLER EQ PUSH2 0x4B9 JUMPI PUSH1 0x40 MLOAD PUSH3 0x461BCD PUSH1 0xE5 SHL DUP2 MSTORE PUSH1 0x4 ADD PUSH2 0x344 SWAP1 PUSH2 0x1D4B JUMP JUMPDEST PUSH2 0x4C5 DUP5 DUP5 DUP5 DUP5 PUSH2 0x8E6 JUMP JUMPDEST POP POP POP POP JUMP JUMPDEST PUSH1 0x1 PUSH1 0x1 PUSH1 0xA0 SHL SUB DUP6 AND CALLER EQ DUP1 PUSH2 0x4E7 JUMPI POP PUSH2 0x4E7 DUP6 CALLER PUSH2 0x275 JUMP JUMPDEST PUSH2 0x54E JUMPI PUSH1 0x40 MLOAD PUSH3 0x461BCD PUSH1 0xE5 SHL DUP2 MSTORE PUSH1 0x20 PUSH1 0x4 DUP3 ADD MSTORE PUSH1 0x32 PUSH1 0x24 DUP3 ADD MSTORE PUSH32 0x455243313135353A207472616E736665722063616C6C6572206973206E6F7420 PUSH1 0x44 DUP3 ADD MSTORE PUSH18 0x1BDDDB995C881B9BDC88185C1C1C9BDD9959 PUSH1 0x72 SHL PUSH1 0x64 DUP3 ADD MSTORE PUSH1 0x84 ADD PUSH2 0x344 JUMP JUMPDEST PUSH2 0x55B DUP6 DUP6 DUP6 DUP6 DUP6 PUSH2 0xA40 JUMP JUMPDEST POP POP POP POP POP JUMP JUMPDEST PUSH1 0x3 SLOAD PUSH1 0x1 PUSH1 0x1 PUSH1 0xA0 SHL SUB AND CALLER EQ PUSH2 0x58C JUMPI PUSH1 0x40 MLOAD PUSH3 0x461BCD PUSH1 0xE5 SHL DUP2 MSTORE PUSH1 0x4 ADD PUSH2 0x344 SWAP1 PUSH2 0x1D4B JUMP JUMPDEST PUSH2 0x594 PUSH2 0xBEA JUMP JUMPDEST JUMP JUMPDEST PUSH1 0x60 DUP2 MLOAD DUP4 MLOAD EQ PUSH2 0x5FB JUMPI PUSH1 0x40 MLOAD PUSH3 0x461BCD PUSH1 0xE5 SHL DUP2 MSTORE PUSH1 0x20 PUSH1 0x4 DUP3 ADD MSTORE PUSH1 0x29 PUSH1 0x24 DUP3 ADD MSTORE PUSH32 0x455243313135353A206163636F756E747320616E6420696473206C656E677468 PUSH1 0x44 DUP3 ADD MSTORE PUSH9 0x40DAD2E6DAC2E8C6D PUSH1 0xBB SHL PUSH1 0x64 DUP3 ADD MSTORE PUSH1 0x84 ADD PUSH2 0x344 JUMP JUMPDEST PUSH1 0x0 DUP4 MLOAD PUSH8 0xFFFFFFFFFFFFFFFF DUP2 GT ISZERO PUSH2 0x617 JUMPI PUSH2 0x617 PUSH2 0x16E4 JUMP JUMPDEST PUSH1 0x40 MLOAD SWAP1 DUP1 DUP3 MSTORE DUP1 PUSH1 0x20 MUL PUSH1 0x20 ADD DUP3 ADD PUSH1 0x40 MSTORE DUP1 ISZERO PUSH2 0x640 JUMPI DUP2 PUSH1 0x20 ADD PUSH1 0x20 DUP3 MUL DUP1 CALLDATASIZE DUP4 CALLDATACOPY ADD SWAP1 POP JUMPDEST POP SWAP1 POP PUSH1 0x0 JUMPDEST DUP5 MLOAD DUP2 LT ISZERO PUSH2 0x6B8 JUMPI PUSH2 0x68B DUP6 DUP3 DUP2 MLOAD DUP2 LT PUSH2 0x664 JUMPI PUSH2 0x664 PUSH2 0x1DBB JUMP JUMPDEST PUSH1 0x20 MUL PUSH1 0x20 ADD ADD MLOAD DUP6 DUP4 DUP2 MLOAD DUP2 LT PUSH2 0x67E JUMPI PUSH2 0x67E PUSH2 0x1DBB JUMP JUMPDEST PUSH1 0x20 MUL PUSH1 0x20 ADD ADD MLOAD PUSH2 0x2DC JUMP JUMPDEST DUP3 DUP3 DUP2 MLOAD DUP2 LT PUSH2 0x69D JUMPI PUSH2 0x69D PUSH2 0x1DBB JUMP JUMPDEST PUSH1 0x20 SWAP1 DUP2 MUL SWAP2 SWAP1 SWAP2 ADD ADD MSTORE PUSH2 0x6B1 DUP2 PUSH2 0x1DE7 JUMP JUMPDEST SWAP1 POP PUSH2 0x646 JUMP JUMPDEST POP SWAP4 SWAP3 POP POP POP JUMP JUMPDEST PUSH1 0x1 PUSH1 0x1 PUSH1 0xA0 SHL SUB DUP4 AND CALLER EQ DUP1 PUSH2 0x6DC JUMPI POP PUSH2 0x6DC DUP4 CALLER PUSH2 0x275 JUMP JUMPDEST PUSH2 0x6F8 JUMPI PUSH1 0x40 MLOAD PUSH3 0x461BCD PUSH1 0xE5 SHL DUP2 MSTORE PUSH1 0x4 ADD PUSH2 0x344 SWAP1 PUSH2 0x1E02 JUMP JUMPDEST PUSH2 0x703 DUP4 DUP4 DUP4 PUSH2 0xC87 JUMP JUMPDEST POP POP POP JUMP JUMPDEST PUSH1 0x3 SLOAD PUSH1 0x1 PUSH1 0x1 PUSH1 0xA0 SHL SUB AND CALLER EQ PUSH2 0x732 JUMPI PUSH1 0x40 MLOAD PUSH3 0x461BCD PUSH1 0xE5 SHL DUP2 MSTORE PUSH1 0x4 ADD PUSH2 0x344 SWAP1 PUSH2 0x1D4B JUMP JUMPDEST PUSH2 0x594 PUSH1 0x0 PUSH2 0xE23 JUMP JUMPDEST PUSH1 0x3 SLOAD PUSH1 0x1 PUSH1 0x1 PUSH1 0xA0 SHL SUB AND CALLER EQ PUSH2 0x766 JUMPI PUSH1 0x40 MLOAD PUSH3 0x461BCD PUSH1 0xE5 SHL DUP2 MSTORE PUSH1 0x4 ADD PUSH2 0x344 SWAP1 PUSH2 0x1D4B JUMP JUMPDEST PUSH2 0x4C5 DUP5 DUP5 DUP5 DUP5 PUSH2 0xE75 JUMP JUMPDEST PUSH1 0x3 SLOAD PUSH1 0x1 PUSH1 0x1 PUSH1 0xA0 SHL SUB AND CALLER EQ PUSH2 0x79C JUMPI PUSH1 0x40 MLOAD PUSH3 0x461BCD PUSH1 0xE5 SHL DUP2 MSTORE PUSH1 0x4 ADD PUSH2 0x344 SWAP1 PUSH2 0x1D4B JUMP JUMPDEST PUSH2 0x594 PUSH2 0xF5E JUMP JUMPDEST PUSH2 0x7AF CALLER DUP4 DUP4 PUSH2 0xFE6 JUMP JUMPDEST POP POP JUMP JUMPDEST PUSH1 0x1 PUSH1 0x1 PUSH1 0xA0 SHL SUB DUP6 AND CALLER EQ DUP1 PUSH2 0x7CF JUMPI POP PUSH2 0x7CF DUP6 CALLER PUSH2 0x275 JUMP JUMPDEST PUSH2 0x7EB JUMPI PUSH1 0x40 MLOAD PUSH3 0x461BCD PUSH1 0xE5 SHL DUP2 MSTORE PUSH1 0x4 ADD PUSH2 0x344 SWAP1 PUSH2 0x1E02 JUMP JUMPDEST PUSH2 0x55B DUP6 DUP6 DUP6 DUP6 DUP6 PUSH2 0x10C7 JUMP JUMPDEST PUSH1 0x3 SLOAD PUSH1 0x1 PUSH1 0x1 PUSH1 0xA0 SHL SUB AND CALLER EQ PUSH2 0x822 JUMPI PUSH1 0x40 MLOAD PUSH3 0x461BCD PUSH1 0xE5 SHL DUP2 MSTORE PUSH1 0x4 ADD PUSH2 0x344 SWAP1 PUSH2 0x1D4B JUMP JUMPDEST PUSH1 0x1 PUSH1 0x1 PUSH1 0xA0 SHL SUB DUP2 AND PUSH2 0x887 JUMPI PUSH1 0x40 MLOAD PUSH3 0x461BCD PUSH1 0xE5 SHL DUP2 MSTORE PUSH1 0x20 PUSH1 0x4 DUP3 ADD MSTORE PUSH1 0x26 PUSH1 0x24 DUP3 ADD MSTORE PUSH32 0x4F776E61626C653A206E6577206F776E657220697320746865207A65726F2061 PUSH1 0x44 DUP3 ADD MSTORE PUSH6 0x646472657373 PUSH1 0xD0 SHL PUSH1 0x64 DUP3 ADD MSTORE PUSH1 0x84 ADD PUSH2 0x344 JUMP JUMPDEST PUSH2 0x3F8 DUP2 PUSH2 0xE23 JUMP JUMPDEST PUSH1 0x1 PUSH1 0x1 PUSH1 0xA0 SHL SUB DUP4 AND CALLER EQ DUP1 PUSH2 0x8AC JUMPI POP PUSH2 0x8AC DUP4 CALLER PUSH2 0x275 JUMP JUMPDEST PUSH2 0x8C8 JUMPI PUSH1 0x40 MLOAD PUSH3 0x461BCD PUSH1 0xE5 SHL DUP2 MSTORE PUSH1 0x4 ADD PUSH2 0x344 SWAP1 PUSH2 0x1E02 JUMP JUMPDEST PUSH2 0x703 DUP4 DUP4 DUP4 PUSH2 0x11FF JUMP JUMPDEST DUP1 MLOAD PUSH2 0x7AF SWAP1 PUSH1 0x2 SWAP1 PUSH1 0x20 DUP5 ADD SWAP1 PUSH2 0x15CB JUMP JUMPDEST PUSH1 0x1 PUSH1 0x1 PUSH1 0xA0 SHL SUB DUP5 AND PUSH2 0x90C JUMPI PUSH1 0x40 MLOAD PUSH3 0x461BCD PUSH1 0xE5 SHL DUP2 MSTORE PUSH1 0x4 ADD PUSH2 0x344 SWAP1 PUSH2 0x1E4B JUMP JUMPDEST DUP2 MLOAD DUP4 MLOAD EQ PUSH2 0x92D JUMPI PUSH1 0x40 MLOAD PUSH3 0x461BCD PUSH1 0xE5 SHL DUP2 MSTORE PUSH1 0x4 ADD PUSH2 0x344 SWAP1 PUSH2 0x1E8C JUMP JUMPDEST CALLER PUSH2 0x93D DUP2 PUSH1 0x0 DUP8 DUP8 DUP8 DUP8 PUSH2 0x1317 JUMP JUMPDEST PUSH1 0x0 JUMPDEST DUP5 MLOAD DUP2 LT ISZERO PUSH2 0x9D8 JUMPI DUP4 DUP2 DUP2 MLOAD DUP2 LT PUSH2 0x95B JUMPI PUSH2 0x95B PUSH2 0x1DBB JUMP JUMPDEST PUSH1 0x20 MUL PUSH1 0x20 ADD ADD MLOAD PUSH1 0x0 DUP1 DUP8 DUP5 DUP2 MLOAD DUP2 LT PUSH2 0x978 JUMPI PUSH2 0x978 PUSH2 0x1DBB JUMP JUMPDEST PUSH1 0x20 MUL PUSH1 0x20 ADD ADD MLOAD DUP2 MSTORE PUSH1 0x20 ADD SWAP1 DUP2 MSTORE PUSH1 0x20 ADD PUSH1 0x0 KECCAK256 PUSH1 0x0 DUP9 PUSH1 0x1 PUSH1 0x1 PUSH1 0xA0 SHL SUB AND PUSH1 0x1 PUSH1 0x1 PUSH1 0xA0 SHL SUB AND DUP2 MSTORE PUSH1 0x20 ADD SWAP1 DUP2 MSTORE PUSH1 0x20 ADD PUSH1 0x0 KECCAK256 PUSH1 0x0 DUP3 DUP3 SLOAD PUSH2 0x9C0 SWAP2 SWAP1 PUSH2 0x1ED4 JUMP JUMPDEST SWAP1 SWAP2 SSTORE POP DUP2 SWAP1 POP PUSH2 0x9D0 DUP2 PUSH2 0x1DE7 JUMP JUMPDEST SWAP2 POP POP PUSH2 0x940 JUMP JUMPDEST POP DUP5 PUSH1 0x1 PUSH1 0x1 PUSH1 0xA0 SHL SUB AND PUSH1 0x0 PUSH1 0x1 PUSH1 0x1 PUSH1 0xA0 SHL SUB AND DUP3 PUSH1 0x1 PUSH1 0x1 PUSH1 0xA0 SHL SUB AND PUSH32 0x4A39DC06D4C0DBC64B70AF90FD698A233A518AA5D07E595D983B8C0526C8F7FB DUP8 DUP8 PUSH1 0x40 MLOAD PUSH2 0xA29 SWAP3 SWAP2 SWAP1 PUSH2 0x1EEC JUMP JUMPDEST PUSH1 0x40 MLOAD DUP1 SWAP2 SUB SWAP1 LOG4 PUSH2 0x55B DUP2 PUSH1 0x0 DUP8 DUP8 DUP8 DUP8 PUSH2 0x1369 JUMP JUMPDEST DUP2 MLOAD DUP4 MLOAD EQ PUSH2 0xA61 JUMPI PUSH1 0x40 MLOAD PUSH3 0x461BCD PUSH1 0xE5 SHL DUP2 MSTORE PUSH1 0x4 ADD PUSH2 0x344 SWAP1 PUSH2 0x1E8C JUMP JUMPDEST PUSH1 0x1 PUSH1 0x1 PUSH1 0xA0 SHL SUB DUP5 AND PUSH2 0xA87 JUMPI PUSH1 0x40 MLOAD PUSH3 0x461BCD PUSH1 0xE5 SHL DUP2 MSTORE PUSH1 0x4 ADD PUSH2 0x344 SWAP1 PUSH2 0x1F1A JUMP JUMPDEST CALLER PUSH2 0xA96 DUP2 DUP8 DUP8 DUP8 DUP8 DUP8 PUSH2 0x1317 JUMP JUMPDEST PUSH1 0x0 JUMPDEST DUP5 MLOAD DUP2 LT ISZERO PUSH2 0xB7C JUMPI PUSH1 0x0 DUP6 DUP3 DUP2 MLOAD DUP2 LT PUSH2 0xAB6 JUMPI PUSH2 0xAB6 PUSH2 0x1DBB JUMP JUMPDEST PUSH1 0x20 MUL PUSH1 0x20 ADD ADD MLOAD SWAP1 POP PUSH1 0x0 DUP6 DUP4 DUP2 MLOAD DUP2 LT PUSH2 0xAD4 JUMPI PUSH2 0xAD4 PUSH2 0x1DBB JUMP JUMPDEST PUSH1 0x20 SWAP1 DUP2 MUL SWAP2 SWAP1 SWAP2 ADD DUP2 ADD MLOAD PUSH1 0x0 DUP5 DUP2 MSTORE DUP1 DUP4 MSTORE PUSH1 0x40 DUP1 DUP3 KECCAK256 PUSH1 0x1 PUSH1 0x1 PUSH1 0xA0 SHL SUB DUP15 AND DUP4 MSTORE SWAP1 SWAP4 MSTORE SWAP2 SWAP1 SWAP2 KECCAK256 SLOAD SWAP1 SWAP2 POP DUP2 DUP2 LT ISZERO PUSH2 0xB24 JUMPI PUSH1 0x40 MLOAD PUSH3 0x461BCD PUSH1 0xE5 SHL DUP2 MSTORE PUSH1 0x4 ADD PUSH2 0x344 SWAP1 PUSH2 0x1F5F JUMP JUMPDEST PUSH1 0x0 DUP4 DUP2 MSTORE PUSH1 0x20 DUP2 DUP2 MSTORE PUSH1 0x40 DUP1 DUP4 KECCAK256 PUSH1 0x1 PUSH1 0x1 PUSH1 0xA0 SHL SUB DUP15 DUP2 AND DUP6 MSTORE SWAP3 MSTORE DUP1 DUP4 KECCAK256 DUP6 DUP6 SUB SWAP1 SSTORE SWAP1 DUP12 AND DUP3 MSTORE DUP2 KECCAK256 DUP1 SLOAD DUP5 SWAP3 SWAP1 PUSH2 0xB61 SWAP1 DUP5 SWAP1 PUSH2 0x1ED4 JUMP JUMPDEST SWAP3 POP POP DUP2 SWAP1 SSTORE POP POP POP POP DUP1 PUSH2 0xB75 SWAP1 PUSH2 0x1DE7 JUMP JUMPDEST SWAP1 POP PUSH2 0xA99 JUMP JUMPDEST POP DUP5 PUSH1 0x1 PUSH1 0x1 PUSH1 0xA0 SHL SUB AND DUP7 PUSH1 0x1 PUSH1 0x1 PUSH1 0xA0 SHL SUB AND DUP3 PUSH1 0x1 PUSH1 0x1 PUSH1 0xA0 SHL SUB AND PUSH32 0x4A39DC06D4C0DBC64B70AF90FD698A233A518AA5D07E595D983B8C0526C8F7FB DUP8 DUP8 PUSH1 0x40 MLOAD PUSH2 0xBCC SWAP3 SWAP2 SWAP1 PUSH2 0x1EEC JUMP JUMPDEST PUSH1 0x40 MLOAD DUP1 SWAP2 SUB SWAP1 LOG4 PUSH2 0xBE2 DUP2 DUP8 DUP8 DUP8 DUP8 DUP8 PUSH2 0x1369 JUMP JUMPDEST POP POP POP POP POP POP JUMP JUMPDEST PUSH1 0x3 SLOAD PUSH1 0x1 PUSH1 0xA0 SHL SWAP1 DIV PUSH1 0xFF AND PUSH2 0xC3A JUMPI PUSH1 0x40 MLOAD PUSH3 0x461BCD PUSH1 0xE5 SHL DUP2 MSTORE PUSH1 0x20 PUSH1 0x4 DUP3 ADD MSTORE PUSH1 0x14 PUSH1 0x24 DUP3 ADD MSTORE PUSH20 0x14185D5CD8589B194E881B9BDD081C185D5CD959 PUSH1 0x62 SHL PUSH1 0x44 DUP3 ADD MSTORE PUSH1 0x64 ADD PUSH2 0x344 JUMP JUMPDEST PUSH1 0x3 DUP1 SLOAD PUSH1 0xFF PUSH1 0xA0 SHL NOT AND SWAP1 SSTORE PUSH32 0x5DB9EE0A495BF2E6FF9C91A7834C1BA4FDD244A5E8AA4E537BD38AEAE4B073AA CALLER JUMPDEST PUSH1 0x40 MLOAD PUSH1 0x1 PUSH1 0x1 PUSH1 0xA0 SHL SUB SWAP1 SWAP2 AND DUP2 MSTORE PUSH1 0x20 ADD PUSH1 0x40 MLOAD DUP1 SWAP2 SUB SWAP1 LOG1 JUMP JUMPDEST PUSH1 0x1 PUSH1 0x1 PUSH1 0xA0 SHL SUB DUP4 AND PUSH2 0xCAD JUMPI PUSH1 0x40 MLOAD PUSH3 0x461BCD PUSH1 0xE5 SHL DUP2 MSTORE PUSH1 0x4 ADD PUSH2 0x344 SWAP1 PUSH2 0x1FA9 JUMP JUMPDEST DUP1 MLOAD DUP3 MLOAD EQ PUSH2 0xCCE JUMPI PUSH1 0x40 MLOAD PUSH3 0x461BCD PUSH1 0xE5 SHL DUP2 MSTORE PUSH1 0x4 ADD PUSH2 0x344 SWAP1 PUSH2 0x1E8C JUMP JUMPDEST PUSH1 0x0 CALLER SWAP1 POP PUSH2 0xCF1 DUP2 DUP6 PUSH1 0x0 DUP7 DUP7 PUSH1 0x40 MLOAD DUP1 PUSH1 0x20 ADD PUSH1 0x40 MSTORE DUP1 PUSH1 0x0 DUP2 MSTORE POP PUSH2 0x1317 JUMP JUMPDEST PUSH1 0x0 JUMPDEST DUP4 MLOAD DUP2 LT ISZERO PUSH2 0xDB6 JUMPI PUSH1 0x0 DUP5 DUP3 DUP2 MLOAD DUP2 LT PUSH2 0xD11 JUMPI PUSH2 0xD11 PUSH2 0x1DBB JUMP JUMPDEST PUSH1 0x20 MUL PUSH1 0x20 ADD ADD MLOAD SWAP1 POP PUSH1 0x0 DUP5 DUP4 DUP2 MLOAD DUP2 LT PUSH2 0xD2F JUMPI PUSH2 0xD2F PUSH2 0x1DBB JUMP JUMPDEST PUSH1 0x20 SWAP1 DUP2 MUL SWAP2 SWAP1 SWAP2 ADD DUP2 ADD MLOAD PUSH1 0x0 DUP5 DUP2 MSTORE DUP1 DUP4 MSTORE PUSH1 0x40 DUP1 DUP3 KECCAK256 PUSH1 0x1 PUSH1 0x1 PUSH1 0xA0 SHL SUB DUP13 AND DUP4 MSTORE SWAP1 SWAP4 MSTORE SWAP2 SWAP1 SWAP2 KECCAK256 SLOAD SWAP1 SWAP2 POP DUP2 DUP2 LT ISZERO PUSH2 0xD7F JUMPI PUSH1 0x40 MLOAD PUSH3 0x461BCD PUSH1 0xE5 SHL DUP2 MSTORE PUSH1 0x4 ADD PUSH2 0x344 SWAP1 PUSH2 0x1FEC JUMP JUMPDEST PUSH1 0x0 SWAP3 DUP4 MSTORE PUSH1 0x20 DUP4 DUP2 MSTORE PUSH1 0x40 DUP1 DUP6 KECCAK256 PUSH1 0x1 PUSH1 0x1 PUSH1 0xA0 SHL SUB DUP12 AND DUP7 MSTORE SWAP1 SWAP2 MSTORE SWAP1 SWAP3 KECCAK256 SWAP2 SUB SWAP1 SSTORE DUP1 PUSH2 0xDAE DUP2 PUSH2 0x1DE7 JUMP JUMPDEST SWAP2 POP POP PUSH2 0xCF4 JUMP JUMPDEST POP PUSH1 0x0 PUSH1 0x1 PUSH1 0x1 PUSH1 0xA0 SHL SUB AND DUP5 PUSH1 0x1 PUSH1 0x1 PUSH1 0xA0 SHL SUB AND DUP3 PUSH1 0x1 PUSH1 0x1 PUSH1 0xA0 SHL SUB AND PUSH32 0x4A39DC06D4C0DBC64B70AF90FD698A233A518AA5D07E595D983B8C0526C8F7FB DUP7 DUP7 PUSH1 0x40 MLOAD PUSH2 0xE07 SWAP3 SWAP2 SWAP1 PUSH2 0x1EEC JUMP JUMPDEST PUSH1 0x40 MLOAD DUP1 SWAP2 SUB SWAP1 LOG4 PUSH1 0x40 DUP1 MLOAD PUSH1 0x20 DUP2 ADD SWAP1 SWAP2 MSTORE PUSH1 0x0 SWAP1 MSTORE PUSH2 0x4C5 JUMP JUMPDEST PUSH1 0x3 DUP1 SLOAD PUSH1 0x1 PUSH1 0x1 PUSH1 0xA0 SHL SUB DUP4 DUP2 AND PUSH1 0x1 PUSH1 0x1 PUSH1 0xA0 SHL SUB NOT DUP4 AND DUP2 OR SWAP1 SWAP4 SSTORE PUSH1 0x40 MLOAD SWAP2 AND SWAP2 SWAP1 DUP3 SWAP1 PUSH32 0x8BE0079C531659141344CD1FD0A4F28419497F9722A3DAAFE3B4186F6B6457E0 SWAP1 PUSH1 0x0 SWAP1 LOG3 POP POP JUMP JUMPDEST PUSH1 0x1 PUSH1 0x1 PUSH1 0xA0 SHL SUB DUP5 AND PUSH2 0xE9B JUMPI PUSH1 0x40 MLOAD PUSH3 0x461BCD PUSH1 0xE5 SHL DUP2 MSTORE PUSH1 0x4 ADD PUSH2 0x344 SWAP1 PUSH2 0x1E4B JUMP JUMPDEST CALLER PUSH1 0x0 PUSH2 0xEA7 DUP6 PUSH2 0x14C5 JUMP JUMPDEST SWAP1 POP PUSH1 0x0 PUSH2 0xEB4 DUP6 PUSH2 0x14C5 JUMP JUMPDEST SWAP1 POP PUSH2 0xEC5 DUP4 PUSH1 0x0 DUP10 DUP6 DUP6 DUP10 PUSH2 0x1317 JUMP JUMPDEST PUSH1 0x0 DUP7 DUP2 MSTORE PUSH1 0x20 DUP2 DUP2 MSTORE PUSH1 0x40 DUP1 DUP4 KECCAK256 PUSH1 0x1 PUSH1 0x1 PUSH1 0xA0 SHL SUB DUP12 AND DUP5 MSTORE SWAP1 SWAP2 MSTORE DUP2 KECCAK256 DUP1 SLOAD DUP8 SWAP3 SWAP1 PUSH2 0xEF5 SWAP1 DUP5 SWAP1 PUSH2 0x1ED4 JUMP JUMPDEST SWAP1 SWAP2 SSTORE POP POP PUSH1 0x40 DUP1 MLOAD DUP8 DUP2 MSTORE PUSH1 0x20 DUP2 ADD DUP8 SWAP1 MSTORE PUSH1 0x1 PUSH1 0x1 PUSH1 0xA0 SHL SUB DUP1 DUP11 AND SWAP3 PUSH1 0x0 SWAP3 SWAP2 DUP8 AND SWAP2 PUSH32 0xC3D58168C5AE7397731D063D5BBF3D657854427343F4C083240F7AACAA2D0F62 SWAP2 ADD PUSH1 0x40 MLOAD DUP1 SWAP2 SUB SWAP1 LOG4 PUSH2 0xF55 DUP4 PUSH1 0x0 DUP10 DUP10 DUP10 DUP10 PUSH2 0x1510 JUMP JUMPDEST POP POP POP POP POP POP POP JUMP JUMPDEST PUSH1 0x3 SLOAD PUSH1 0x1 PUSH1 0xA0 SHL SWAP1 DIV PUSH1 0xFF AND ISZERO PUSH2 0xFAB JUMPI PUSH1 0x40 MLOAD PUSH3 0x461BCD PUSH1 0xE5 SHL DUP2 MSTORE PUSH1 0x20 PUSH1 0x4 DUP3 ADD MSTORE PUSH1 0x10 PUSH1 0x24 DUP3 ADD MSTORE PUSH16 0x14185D5CD8589B194E881C185D5CD959 PUSH1 0x82 SHL PUSH1 0x44 DUP3 ADD MSTORE PUSH1 0x64 ADD PUSH2 0x344 JUMP JUMPDEST PUSH1 0x3 DUP1 SLOAD PUSH1 0xFF PUSH1 0xA0 SHL NOT AND PUSH1 0x1 PUSH1 0xA0 SHL OR SWAP1 SSTORE PUSH32 0x62E78CEA01BEE320CD4E420270B5EA74000D11B0C9F74754EBDBFC544B05A258 PUSH2 0xC6A CALLER SWAP1 JUMP JUMPDEST DUP2 PUSH1 0x1 PUSH1 0x1 PUSH1 0xA0 SHL SUB AND DUP4 PUSH1 0x1 PUSH1 0x1 PUSH1 0xA0 SHL SUB AND EQ ISZERO PUSH2 0x105A JUMPI PUSH1 0x40 MLOAD PUSH3 0x461BCD PUSH1 0xE5 SHL DUP2 MSTORE PUSH1 0x20 PUSH1 0x4 DUP3 ADD MSTORE PUSH1 0x29 PUSH1 0x24 DUP3 ADD MSTORE PUSH32 0x455243313135353A2073657474696E6720617070726F76616C20737461747573 PUSH1 0x44 DUP3 ADD MSTORE PUSH9 0x103337B91039B2B633 PUSH1 0xB9 SHL PUSH1 0x64 DUP3 ADD MSTORE PUSH1 0x84 ADD PUSH2 0x344 JUMP JUMPDEST PUSH1 0x1 PUSH1 0x1 PUSH1 0xA0 SHL SUB DUP4 DUP2 AND PUSH1 0x0 DUP2 DUP2 MSTORE PUSH1 0x1 PUSH1 0x20 SWAP1 DUP2 MSTORE PUSH1 0x40 DUP1 DUP4 KECCAK256 SWAP5 DUP8 AND DUP1 DUP5 MSTORE SWAP5 DUP3 MSTORE SWAP2 DUP3 SWAP1 KECCAK256 DUP1 SLOAD PUSH1 0xFF NOT AND DUP7 ISZERO ISZERO SWAP1 DUP2 OR SWAP1 SWAP2 SSTORE SWAP2 MLOAD SWAP2 DUP3 MSTORE PUSH32 0x17307EAB39AB6107E8899845AD3D59BD9653F200F220920489CA2B5937696C31 SWAP2 ADD PUSH1 0x40 MLOAD DUP1 SWAP2 SUB SWAP1 LOG3 POP POP POP JUMP JUMPDEST PUSH1 0x1 PUSH1 0x1 PUSH1 0xA0 SHL SUB DUP5 AND PUSH2 0x10ED JUMPI PUSH1 0x40 MLOAD PUSH3 0x461BCD PUSH1 0xE5 SHL DUP2 MSTORE PUSH1 0x4 ADD PUSH2 0x344 SWAP1 PUSH2 0x1F1A JUMP JUMPDEST CALLER PUSH1 0x0 PUSH2 0x10F9 DUP6 PUSH2 0x14C5 JUMP JUMPDEST SWAP1 POP PUSH1 0x0 PUSH2 0x1106 DUP6 PUSH2 0x14C5 JUMP JUMPDEST SWAP1 POP PUSH2 0x1116 DUP4 DUP10 DUP10 DUP6 DUP6 DUP10 PUSH2 0x1317 JUMP JUMPDEST PUSH1 0x0 DUP7 DUP2 MSTORE PUSH1 0x20 DUP2 DUP2 MSTORE PUSH1 0x40 DUP1 DUP4 KECCAK256 PUSH1 0x1 PUSH1 0x1 PUSH1 0xA0 SHL SUB DUP13 AND DUP5 MSTORE SWAP1 SWAP2 MSTORE SWAP1 KECCAK256 SLOAD DUP6 DUP2 LT ISZERO PUSH2 0x1157 JUMPI PUSH1 0x40 MLOAD PUSH3 0x461BCD PUSH1 0xE5 SHL DUP2 MSTORE PUSH1 0x4 ADD PUSH2 0x344 SWAP1 PUSH2 0x1F5F JUMP JUMPDEST PUSH1 0x0 DUP8 DUP2 MSTORE PUSH1 0x20 DUP2 DUP2 MSTORE PUSH1 0x40 DUP1 DUP4 KECCAK256 PUSH1 0x1 PUSH1 0x1 PUSH1 0xA0 SHL SUB DUP14 DUP2 AND DUP6 MSTORE SWAP3 MSTORE DUP1 DUP4 KECCAK256 DUP10 DUP6 SUB SWAP1 SSTORE SWAP1 DUP11 AND DUP3 MSTORE DUP2 KECCAK256 DUP1 SLOAD DUP9 SWAP3 SWAP1 PUSH2 0x1194 SWAP1 DUP5 SWAP1 PUSH2 0x1ED4 JUMP JUMPDEST SWAP1 SWAP2 SSTORE POP POP PUSH1 0x40 DUP1 MLOAD DUP9 DUP2 MSTORE PUSH1 0x20 DUP2 ADD DUP9 SWAP1 MSTORE PUSH1 0x1 PUSH1 0x1 PUSH1 0xA0 SHL SUB DUP1 DUP12 AND SWAP3 DUP13 DUP3 AND SWAP3 SWAP2 DUP9 AND SWAP2 PUSH32 0xC3D58168C5AE7397731D063D5BBF3D657854427343F4C083240F7AACAA2D0F62 SWAP2 ADD PUSH1 0x40 MLOAD DUP1 SWAP2 SUB SWAP1 LOG4 PUSH2 0x11F4 DUP5 DUP11 DUP11 DUP11 DUP11 DUP11 PUSH2 0x1510 JUMP JUMPDEST POP POP POP POP POP POP POP POP POP JUMP JUMPDEST PUSH1 0x1 PUSH1 0x1 PUSH1 0xA0 SHL SUB DUP4 AND PUSH2 0x1225 JUMPI PUSH1 0x40 MLOAD PUSH3 0x461BCD PUSH1 0xE5 SHL DUP2 MSTORE PUSH1 0x4 ADD PUSH2 0x344 SWAP1 PUSH2 0x1FA9 JUMP JUMPDEST CALLER PUSH1 0x0 PUSH2 0x1231 DUP5 PUSH2 0x14C5 JUMP JUMPDEST SWAP1 POP PUSH1 0x0 PUSH2 0x123E DUP5 PUSH2 0x14C5 JUMP JUMPDEST SWAP1 POP PUSH2 0x125E DUP4 DUP8 PUSH1 0x0 DUP6 DUP6 PUSH1 0x40 MLOAD DUP1 PUSH1 0x20 ADD PUSH1 0x40 MSTORE DUP1 PUSH1 0x0 DUP2 MSTORE POP PUSH2 0x1317 JUMP JUMPDEST PUSH1 0x0 DUP6 DUP2 MSTORE PUSH1 0x20 DUP2 DUP2 MSTORE PUSH1 0x40 DUP1 DUP4 KECCAK256 PUSH1 0x1 PUSH1 0x1 PUSH1 0xA0 SHL SUB DUP11 AND DUP5 MSTORE SWAP1 SWAP2 MSTORE SWAP1 KECCAK256 SLOAD DUP5 DUP2 LT ISZERO PUSH2 0x129F JUMPI PUSH1 0x40 MLOAD PUSH3 0x461BCD PUSH1 0xE5 SHL DUP2 MSTORE PUSH1 0x4 ADD PUSH2 0x344 SWAP1 PUSH2 0x1FEC JUMP JUMPDEST PUSH1 0x0 DUP7 DUP2 MSTORE PUSH1 0x20 DUP2 DUP2 MSTORE PUSH1 0x40 DUP1 DUP4 KECCAK256 PUSH1 0x1 PUSH1 0x1 PUSH1 0xA0 SHL SUB DUP12 DUP2 AND DUP1 DUP7 MSTORE SWAP2 DUP5 MSTORE DUP3 DUP6 KECCAK256 DUP11 DUP8 SUB SWAP1 SSTORE DUP3 MLOAD DUP12 DUP2 MSTORE SWAP4 DUP5 ADD DUP11 SWAP1 MSTORE SWAP1 SWAP3 SWAP1 DUP9 AND SWAP2 PUSH32 0xC3D58168C5AE7397731D063D5BBF3D657854427343F4C083240F7AACAA2D0F62 SWAP2 ADD PUSH1 0x40 MLOAD DUP1 SWAP2 SUB SWAP1 LOG4 PUSH1 0x40 DUP1 MLOAD PUSH1 0x20 DUP2 ADD SWAP1 SWAP2 MSTORE PUSH1 0x0 SWAP1 MSTORE PUSH2 0xF55 JUMP JUMPDEST PUSH1 0x3 SLOAD PUSH1 0x1 PUSH1 0xA0 SHL SWAP1 DIV PUSH1 0xFF AND ISZERO PUSH2 0x1364 JUMPI PUSH1 0x40 MLOAD PUSH3 0x461BCD PUSH1 0xE5 SHL DUP2 MSTORE PUSH1 0x20 PUSH1 0x4 DUP3 ADD MSTORE PUSH1 0x10 PUSH1 0x24 DUP3 ADD MSTORE PUSH16 0x14185D5CD8589B194E881C185D5CD959 PUSH1 0x82 SHL PUSH1 0x44 DUP3 ADD MSTORE PUSH1 0x64 ADD PUSH2 0x344 JUMP JUMPDEST PUSH2 0xBE2 JUMP JUMPDEST PUSH1 0x1 PUSH1 0x1 PUSH1 0xA0 SHL SUB DUP5 AND EXTCODESIZE ISZERO PUSH2 0xBE2 JUMPI PUSH1 0x40 MLOAD PUSH4 0xBC197C81 PUSH1 0xE0 SHL DUP2 MSTORE PUSH1 0x1 PUSH1 0x1 PUSH1 0xA0 SHL SUB DUP6 AND SWAP1 PUSH4 0xBC197C81 SWAP1 PUSH2 0x13AD SWAP1 DUP10 SWAP1 DUP10 SWAP1 DUP9 SWAP1 DUP9 SWAP1 DUP9 SWAP1 PUSH1 0x4 ADD PUSH2 0x2030 JUMP JUMPDEST PUSH1 0x20 PUSH1 0x40 MLOAD DUP1 DUP4 SUB DUP2 PUSH1 0x0 DUP8 GAS CALL SWAP3 POP POP POP DUP1 ISZERO PUSH2 0x13E8 JUMPI POP PUSH1 0x40 DUP1 MLOAD PUSH1 0x1F RETURNDATASIZE SWAP1 DUP2 ADD PUSH1 0x1F NOT AND DUP3 ADD SWAP1 SWAP3 MSTORE PUSH2 0x13E5 SWAP2 DUP2 ADD SWAP1 PUSH2 0x208E JUMP JUMPDEST PUSH1 0x1 JUMPDEST PUSH2 0x1495 JUMPI PUSH2 0x13F4 PUSH2 0x20AB JUMP JUMPDEST DUP1 PUSH4 0x8C379A0 EQ ISZERO PUSH2 0x142E JUMPI POP PUSH2 0x1409 PUSH2 0x20C7 JUMP JUMPDEST DUP1 PUSH2 0x1414 JUMPI POP PUSH2 0x1430 JUMP JUMPDEST DUP1 PUSH1 0x40 MLOAD PUSH3 0x461BCD PUSH1 0xE5 SHL DUP2 MSTORE PUSH1 0x4 ADD PUSH2 0x344 SWAP2 SWAP1 PUSH2 0x183C JUMP JUMPDEST POP JUMPDEST PUSH1 0x40 MLOAD PUSH3 0x461BCD PUSH1 0xE5 SHL DUP2 MSTORE PUSH1 0x20 PUSH1 0x4 DUP3 ADD MSTORE PUSH1 0x34 PUSH1 0x24 DUP3 ADD MSTORE PUSH32 0x455243313135353A207472616E7366657220746F206E6F6E2045524331313535 PUSH1 0x44 DUP3 ADD MSTORE PUSH20 0x2932B1B2B4BB32B91034B6B83632B6B2B73A32B9 PUSH1 0x61 SHL PUSH1 0x64 DUP3 ADD MSTORE PUSH1 0x84 ADD PUSH2 0x344 JUMP JUMPDEST PUSH1 0x1 PUSH1 0x1 PUSH1 0xE0 SHL SUB NOT DUP2 AND PUSH4 0xBC197C81 PUSH1 0xE0 SHL EQ PUSH2 0xF55 JUMPI PUSH1 0x40 MLOAD PUSH3 0x461BCD PUSH1 0xE5 SHL DUP2 MSTORE PUSH1 0x4 ADD PUSH2 0x344 SWAP1 PUSH2 0x2151 JUMP JUMPDEST PUSH1 0x40 DUP1 MLOAD PUSH1 0x1 DUP1 DUP3 MSTORE DUP2 DUP4 ADD SWAP1 SWAP3 MSTORE PUSH1 0x60 SWAP2 PUSH1 0x0 SWAP2 SWAP1 PUSH1 0x20 DUP1 DUP4 ADD SWAP1 DUP1 CALLDATASIZE DUP4 CALLDATACOPY ADD SWAP1 POP POP SWAP1 POP DUP3 DUP2 PUSH1 0x0 DUP2 MLOAD DUP2 LT PUSH2 0x14FF JUMPI PUSH2 0x14FF PUSH2 0x1DBB JUMP JUMPDEST PUSH1 0x20 SWAP1 DUP2 MUL SWAP2 SWAP1 SWAP2 ADD ADD MSTORE SWAP3 SWAP2 POP POP JUMP JUMPDEST PUSH1 0x1 PUSH1 0x1 PUSH1 0xA0 SHL SUB DUP5 AND EXTCODESIZE ISZERO PUSH2 0xBE2 JUMPI PUSH1 0x40 MLOAD PUSH4 0xF23A6E61 PUSH1 0xE0 SHL DUP2 MSTORE PUSH1 0x1 PUSH1 0x1 PUSH1 0xA0 SHL SUB DUP6 AND SWAP1 PUSH4 0xF23A6E61 SWAP1 PUSH2 0x1554 SWAP1 DUP10 SWAP1 DUP10 SWAP1 DUP9 SWAP1 DUP9 SWAP1 DUP9 SWAP1 PUSH1 0x4 ADD PUSH2 0x2199 JUMP JUMPDEST PUSH1 0x20 PUSH1 0x40 MLOAD DUP1 DUP4 SUB DUP2 PUSH1 0x0 DUP8 GAS CALL SWAP3 POP POP POP DUP1 ISZERO PUSH2 0x158F JUMPI POP PUSH1 0x40 DUP1 MLOAD PUSH1 0x1F RETURNDATASIZE SWAP1 DUP2 ADD PUSH1 0x1F NOT AND DUP3 ADD SWAP1 SWAP3 MSTORE PUSH2 0x158C SWAP2 DUP2 ADD SWAP1 PUSH2 0x208E JUMP JUMPDEST PUSH1 0x1 JUMPDEST PUSH2 0x159B JUMPI PUSH2 0x13F4 PUSH2 0x20AB JUMP JUMPDEST PUSH1 0x1 PUSH1 0x1 PUSH1 0xE0 SHL SUB NOT DUP2 AND PUSH4 0xF23A6E61 PUSH1 0xE0 SHL EQ PUSH2 0xF55 JUMPI PUSH1 0x40 MLOAD PUSH3 0x461BCD PUSH1 0xE5 SHL DUP2 MSTORE PUSH1 0x4 ADD PUSH2 0x344 SWAP1 PUSH2 0x2151 JUMP JUMPDEST DUP3 DUP1 SLOAD PUSH2 0x15D7 SWAP1 PUSH2 0x1D80 JUMP JUMPDEST SWAP1 PUSH1 0x0 MSTORE PUSH1 0x20 PUSH1 0x0 KECCAK256 SWAP1 PUSH1 0x1F ADD PUSH1 0x20 SWAP1 DIV DUP2 ADD SWAP3 DUP3 PUSH2 0x15F9 JUMPI PUSH1 0x0 DUP6 SSTORE PUSH2 0x163F JUMP JUMPDEST DUP3 PUSH1 0x1F LT PUSH2 0x1612 JUMPI DUP1 MLOAD PUSH1 0xFF NOT AND DUP4 DUP1 ADD OR DUP6 SSTORE PUSH2 0x163F JUMP JUMPDEST DUP3 DUP1 ADD PUSH1 0x1 ADD DUP6 SSTORE DUP3 ISZERO PUSH2 0x163F JUMPI SWAP2 DUP3 ADD JUMPDEST DUP3 DUP2 GT ISZERO PUSH2 0x163F JUMPI DUP3 MLOAD DUP3 SSTORE SWAP2 PUSH1 0x20 ADD SWAP2 SWAP1 PUSH1 0x1 ADD SWAP1 PUSH2 0x1624 JUMP JUMPDEST POP PUSH2 0x164B SWAP3 SWAP2 POP PUSH2 0x164F JUMP JUMPDEST POP SWAP1 JUMP JUMPDEST JUMPDEST DUP1 DUP3 GT ISZERO PUSH2 0x164B JUMPI PUSH1 0x0 DUP2 SSTORE PUSH1 0x1 ADD PUSH2 0x1650 JUMP JUMPDEST DUP1 CALLDATALOAD PUSH1 0x1 PUSH1 0x1 PUSH1 0xA0 SHL SUB DUP2 AND DUP2 EQ PUSH2 0x167B JUMPI PUSH1 0x0 DUP1 REVERT JUMPDEST SWAP2 SWAP1 POP JUMP JUMPDEST PUSH1 0x0 DUP1 PUSH1 0x40 DUP4 DUP6 SUB SLT ISZERO PUSH2 0x1693 JUMPI PUSH1 0x0 DUP1 REVERT JUMPDEST PUSH2 0x169C DUP4 PUSH2 0x1664 JUMP JUMPDEST SWAP5 PUSH1 0x20 SWAP4 SWAP1 SWAP4 ADD CALLDATALOAD SWAP4 POP POP POP JUMP JUMPDEST PUSH1 0x1 PUSH1 0x1 PUSH1 0xE0 SHL SUB NOT DUP2 AND DUP2 EQ PUSH2 0x3F8 JUMPI PUSH1 0x0 DUP1 REVERT JUMPDEST PUSH1 0x0 PUSH1 0x20 DUP3 DUP5 SUB SLT ISZERO PUSH2 0x16D2 JUMPI PUSH1 0x0 DUP1 REVERT JUMPDEST DUP2 CALLDATALOAD PUSH2 0x16DD DUP2 PUSH2 0x16AA JUMP JUMPDEST SWAP4 SWAP3 POP POP POP JUMP JUMPDEST PUSH4 0x4E487B71 PUSH1 0xE0 SHL PUSH1 0x0 MSTORE PUSH1 0x41 PUSH1 0x4 MSTORE PUSH1 0x24 PUSH1 0x0 REVERT JUMPDEST PUSH1 0x1F DUP3 ADD PUSH1 0x1F NOT AND DUP2 ADD PUSH8 0xFFFFFFFFFFFFFFFF DUP2 GT DUP3 DUP3 LT OR ISZERO PUSH2 0x1720 JUMPI PUSH2 0x1720 PUSH2 0x16E4 JUMP JUMPDEST PUSH1 0x40 MSTORE POP POP JUMP JUMPDEST PUSH1 0x0 PUSH8 0xFFFFFFFFFFFFFFFF DUP4 GT ISZERO PUSH2 0x1741 JUMPI PUSH2 0x1741 PUSH2 0x16E4 JUMP JUMPDEST PUSH1 0x40 MLOAD PUSH2 0x1758 PUSH1 0x1F DUP6 ADD PUSH1 0x1F NOT AND PUSH1 0x20 ADD DUP3 PUSH2 0x16FA JUMP JUMPDEST DUP1 SWAP2 POP DUP4 DUP2 MSTORE DUP5 DUP5 DUP5 ADD GT ISZERO PUSH2 0x176D JUMPI PUSH1 0x0 DUP1 REVERT JUMPDEST DUP4 DUP4 PUSH1 0x20 DUP4 ADD CALLDATACOPY PUSH1 0x0 PUSH1 0x20 DUP6 DUP4 ADD ADD MSTORE POP SWAP4 SWAP3 POP POP POP JUMP JUMPDEST PUSH1 0x0 PUSH1 0x20 DUP3 DUP5 SUB SLT ISZERO PUSH2 0x1797 JUMPI PUSH1 0x0 DUP1 REVERT JUMPDEST DUP2 CALLDATALOAD PUSH8 0xFFFFFFFFFFFFFFFF DUP2 GT ISZERO PUSH2 0x17AE JUMPI PUSH1 0x0 DUP1 REVERT JUMPDEST DUP3 ADD PUSH1 0x1F DUP2 ADD DUP5 SGT PUSH2 0x17BF JUMPI PUSH1 0x0 DUP1 REVERT JUMPDEST PUSH2 0x17CE DUP5 DUP3 CALLDATALOAD PUSH1 0x20 DUP5 ADD PUSH2 0x1727 JUMP JUMPDEST SWAP5 SWAP4 POP POP POP POP JUMP JUMPDEST PUSH1 0x0 PUSH1 0x20 DUP3 DUP5 SUB SLT ISZERO PUSH2 0x17E8 JUMPI PUSH1 0x0 DUP1 REVERT JUMPDEST POP CALLDATALOAD SWAP2 SWAP1 POP JUMP JUMPDEST PUSH1 0x0 DUP2 MLOAD DUP1 DUP5 MSTORE PUSH1 0x0 JUMPDEST DUP2 DUP2 LT ISZERO PUSH2 0x1815 JUMPI PUSH1 0x20 DUP2 DUP6 ADD DUP2 ADD MLOAD DUP7 DUP4 ADD DUP3 ADD MSTORE ADD PUSH2 0x17F9 JUMP JUMPDEST DUP2 DUP2 GT ISZERO PUSH2 0x1827 JUMPI PUSH1 0x0 PUSH1 0x20 DUP4 DUP8 ADD ADD MSTORE JUMPDEST POP PUSH1 0x1F ADD PUSH1 0x1F NOT AND SWAP3 SWAP1 SWAP3 ADD PUSH1 0x20 ADD SWAP3 SWAP2 POP POP JUMP JUMPDEST PUSH1 0x20 DUP2 MSTORE PUSH1 0x0 PUSH2 0x16DD PUSH1 0x20 DUP4 ADD DUP5 PUSH2 0x17EF JUMP JUMPDEST PUSH1 0x0 PUSH8 0xFFFFFFFFFFFFFFFF DUP3 GT ISZERO PUSH2 0x1869 JUMPI PUSH2 0x1869 PUSH2 0x16E4 JUMP JUMPDEST POP PUSH1 0x5 SHL PUSH1 0x20 ADD SWAP1 JUMP JUMPDEST PUSH1 0x0 DUP3 PUSH1 0x1F DUP4 ADD SLT PUSH2 0x1884 JUMPI PUSH1 0x0 DUP1 REVERT JUMPDEST DUP2 CALLDATALOAD PUSH1 0x20 PUSH2 0x1891 DUP3 PUSH2 0x184F JUMP JUMPDEST PUSH1 0x40 MLOAD PUSH2 0x189E DUP3 DUP3 PUSH2 0x16FA JUMP JUMPDEST DUP4 DUP2 MSTORE PUSH1 0x5 SWAP4 SWAP1 SWAP4 SHL DUP6 ADD DUP3 ADD SWAP3 DUP3 DUP2 ADD SWAP2 POP DUP7 DUP5 GT ISZERO PUSH2 0x18BE JUMPI PUSH1 0x0 DUP1 REVERT JUMPDEST DUP3 DUP7 ADD JUMPDEST DUP5 DUP2 LT ISZERO PUSH2 0x18D9 JUMPI DUP1 CALLDATALOAD DUP4 MSTORE SWAP2 DUP4 ADD SWAP2 DUP4 ADD PUSH2 0x18C2 JUMP JUMPDEST POP SWAP7 SWAP6 POP POP POP POP POP POP JUMP JUMPDEST PUSH1 0x0 DUP3 PUSH1 0x1F DUP4 ADD SLT PUSH2 0x18F5 JUMPI PUSH1 0x0 DUP1 REVERT JUMPDEST PUSH2 0x16DD DUP4 DUP4 CALLDATALOAD PUSH1 0x20 DUP6 ADD PUSH2 0x1727 JUMP JUMPDEST PUSH1 0x0 DUP1 PUSH1 0x0 DUP1 PUSH1 0x80 DUP6 DUP8 SUB SLT ISZERO PUSH2 0x191A JUMPI PUSH1 0x0 DUP1 REVERT JUMPDEST PUSH2 0x1923 DUP6 PUSH2 0x1664 JUMP JUMPDEST SWAP4 POP PUSH1 0x20 DUP6 ADD CALLDATALOAD PUSH8 0xFFFFFFFFFFFFFFFF DUP1 DUP3 GT ISZERO PUSH2 0x1940 JUMPI PUSH1 0x0 DUP1 REVERT JUMPDEST PUSH2 0x194C DUP9 DUP4 DUP10 ADD PUSH2 0x1873 JUMP JUMPDEST SWAP5 POP PUSH1 0x40 DUP8 ADD CALLDATALOAD SWAP2 POP DUP1 DUP3 GT ISZERO PUSH2 0x1962 JUMPI PUSH1 0x0 DUP1 REVERT JUMPDEST PUSH2 0x196E DUP9 DUP4 DUP10 ADD PUSH2 0x1873 JUMP JUMPDEST SWAP4 POP PUSH1 0x60 DUP8 ADD CALLDATALOAD SWAP2 POP DUP1 DUP3 GT ISZERO PUSH2 0x1984 JUMPI PUSH1 0x0 DUP1 REVERT JUMPDEST POP PUSH2 0x1991 DUP8 DUP3 DUP9 ADD PUSH2 0x18E4 JUMP JUMPDEST SWAP2 POP POP SWAP3 SWAP6 SWAP2 SWAP5 POP SWAP3 POP JUMP JUMPDEST PUSH1 0x0 DUP1 PUSH1 0x0 DUP1 PUSH1 0x0 PUSH1 0xA0 DUP7 DUP9 SUB SLT ISZERO PUSH2 0x19B5 JUMPI PUSH1 0x0 DUP1 REVERT JUMPDEST PUSH2 0x19BE DUP7 PUSH2 0x1664 JUMP JUMPDEST SWAP5 POP PUSH2 0x19CC PUSH1 0x20 DUP8 ADD PUSH2 0x1664 JUMP JUMPDEST SWAP4 POP PUSH1 0x40 DUP7 ADD CALLDATALOAD PUSH8 0xFFFFFFFFFFFFFFFF DUP1 DUP3 GT ISZERO PUSH2 0x19E9 JUMPI PUSH1 0x0 DUP1 REVERT JUMPDEST PUSH2 0x19F5 DUP10 DUP4 DUP11 ADD PUSH2 0x1873 JUMP JUMPDEST SWAP5 POP PUSH1 0x60 DUP9 ADD CALLDATALOAD SWAP2 POP DUP1 DUP3 GT ISZERO PUSH2 0x1A0B JUMPI PUSH1 0x0 DUP1 REVERT JUMPDEST PUSH2 0x1A17 DUP10 DUP4 DUP11 ADD PUSH2 0x1873 JUMP JUMPDEST SWAP4 POP PUSH1 0x80 DUP9 ADD CALLDATALOAD SWAP2 POP DUP1 DUP3 GT ISZERO PUSH2 0x1A2D JUMPI PUSH1 0x0 DUP1 REVERT JUMPDEST POP PUSH2 0x1A3A DUP9 DUP3 DUP10 ADD PUSH2 0x18E4 JUMP JUMPDEST SWAP2 POP POP SWAP3 SWAP6 POP SWAP3 SWAP6 SWAP1 SWAP4 POP JUMP JUMPDEST PUSH1 0x0 DUP1 PUSH1 0x40 DUP4 DUP6 SUB SLT ISZERO PUSH2 0x1A5A JUMPI PUSH1 0x0 DUP1 REVERT JUMPDEST DUP3 CALLDATALOAD PUSH8 0xFFFFFFFFFFFFFFFF DUP1 DUP3 GT ISZERO PUSH2 0x1A72 JUMPI PUSH1 0x0 DUP1 REVERT JUMPDEST DUP2 DUP6 ADD SWAP2 POP DUP6 PUSH1 0x1F DUP4 ADD SLT PUSH2 0x1A86 JUMPI PUSH1 0x0 DUP1 REVERT JUMPDEST DUP2 CALLDATALOAD PUSH1 0x20 PUSH2 0x1A93 DUP3 PUSH2 0x184F JUMP JUMPDEST PUSH1 0x40 MLOAD PUSH2 0x1AA0 DUP3 DUP3 PUSH2 0x16FA JUMP JUMPDEST DUP4 DUP2 MSTORE PUSH1 0x5 SWAP4 SWAP1 SWAP4 SHL DUP6 ADD DUP3 ADD SWAP3 DUP3 DUP2 ADD SWAP2 POP DUP10 DUP5 GT ISZERO PUSH2 0x1AC0 JUMPI PUSH1 0x0 DUP1 REVERT JUMPDEST SWAP5 DUP3 ADD SWAP5 JUMPDEST DUP4 DUP7 LT ISZERO PUSH2 0x1AE5 JUMPI PUSH2 0x1AD6 DUP7 PUSH2 0x1664 JUMP JUMPDEST DUP3 MSTORE SWAP5 DUP3 ADD SWAP5 SWAP1 DUP3 ADD SWAP1 PUSH2 0x1AC5 JUMP JUMPDEST SWAP7 POP POP DUP7 ADD CALLDATALOAD SWAP3 POP POP DUP1 DUP3 GT ISZERO PUSH2 0x1AFB JUMPI PUSH1 0x0 DUP1 REVERT JUMPDEST POP PUSH2 0x1B08 DUP6 DUP3 DUP7 ADD PUSH2 0x1873 JUMP JUMPDEST SWAP2 POP POP SWAP3 POP SWAP3 SWAP1 POP JUMP JUMPDEST PUSH1 0x0 DUP2 MLOAD DUP1 DUP5 MSTORE PUSH1 0x20 DUP1 DUP6 ADD SWAP5 POP DUP1 DUP5 ADD PUSH1 0x0 JUMPDEST DUP4 DUP2 LT ISZERO PUSH2 0x1B42 JUMPI DUP2 MLOAD DUP8 MSTORE SWAP6 DUP3 ADD SWAP6 SWAP1 DUP3 ADD SWAP1 PUSH1 0x1 ADD PUSH2 0x1B26 JUMP JUMPDEST POP SWAP5 SWAP6 SWAP5 POP POP POP POP POP JUMP JUMPDEST PUSH1 0x20 DUP2 MSTORE PUSH1 0x0 PUSH2 0x16DD PUSH1 0x20 DUP4 ADD DUP5 PUSH2 0x1B12 JUMP JUMPDEST PUSH1 0x0 DUP1 PUSH1 0x0 PUSH1 0x60 DUP5 DUP7 SUB SLT ISZERO PUSH2 0x1B75 JUMPI PUSH1 0x0 DUP1 REVERT JUMPDEST PUSH2 0x1B7E DUP5 PUSH2 0x1664 JUMP JUMPDEST SWAP3 POP PUSH1 0x20 DUP5 ADD CALLDATALOAD PUSH8 0xFFFFFFFFFFFFFFFF DUP1 DUP3 GT ISZERO PUSH2 0x1B9B JUMPI PUSH1 0x0 DUP1 REVERT JUMPDEST PUSH2 0x1BA7 DUP8 DUP4 DUP9 ADD PUSH2 0x1873 JUMP JUMPDEST SWAP4 POP PUSH1 0x40 DUP7 ADD CALLDATALOAD SWAP2 POP DUP1 DUP3 GT ISZERO PUSH2 0x1BBD JUMPI PUSH1 0x0 DUP1 REVERT JUMPDEST POP PUSH2 0x1BCA DUP7 DUP3 DUP8 ADD PUSH2 0x1873 JUMP JUMPDEST SWAP2 POP POP SWAP3 POP SWAP3 POP SWAP3 JUMP JUMPDEST PUSH1 0x0 DUP1 PUSH1 0x0 DUP1 PUSH1 0x80 DUP6 DUP8 SUB SLT ISZERO PUSH2 0x1BEA JUMPI PUSH1 0x0 DUP1 REVERT JUMPDEST PUSH2 0x1BF3 DUP6 PUSH2 0x1664 JUMP JUMPDEST SWAP4 POP PUSH1 0x20 DUP6 ADD CALLDATALOAD SWAP3 POP PUSH1 0x40 DUP6 ADD CALLDATALOAD SWAP2 POP PUSH1 0x60 DUP6 ADD CALLDATALOAD PUSH8 0xFFFFFFFFFFFFFFFF DUP2 GT ISZERO PUSH2 0x1C1D JUMPI PUSH1 0x0 DUP1 REVERT JUMPDEST PUSH2 0x1991 DUP8 DUP3 DUP9 ADD PUSH2 0x18E4 JUMP JUMPDEST PUSH1 0x0 DUP1 PUSH1 0x40 DUP4 DUP6 SUB SLT ISZERO PUSH2 0x1C3C JUMPI PUSH1 0x0 DUP1 REVERT JUMPDEST PUSH2 0x1C45 DUP4 PUSH2 0x1664 JUMP JUMPDEST SWAP2 POP PUSH1 0x20 DUP4 ADD CALLDATALOAD DUP1 ISZERO ISZERO DUP2 EQ PUSH2 0x1C5A JUMPI PUSH1 0x0 DUP1 REVERT JUMPDEST DUP1 SWAP2 POP POP SWAP3 POP SWAP3 SWAP1 POP JUMP JUMPDEST PUSH1 0x0 DUP1 PUSH1 0x40 DUP4 DUP6 SUB SLT ISZERO PUSH2 0x1C78 JUMPI PUSH1 0x0 DUP1 REVERT JUMPDEST PUSH2 0x1C81 DUP4 PUSH2 0x1664 JUMP JUMPDEST SWAP2 POP PUSH2 0x1C8F PUSH1 0x20 DUP5 ADD PUSH2 0x1664 JUMP JUMPDEST SWAP1 POP SWAP3 POP SWAP3 SWAP1 POP JUMP JUMPDEST PUSH1 0x0 DUP1 PUSH1 0x0 DUP1 PUSH1 0x0 PUSH1 0xA0 DUP7 DUP9 SUB SLT ISZERO PUSH2 0x1CB0 JUMPI PUSH1 0x0 DUP1 REVERT JUMPDEST PUSH2 0x1CB9 DUP7 PUSH2 0x1664 JUMP JUMPDEST SWAP5 POP PUSH2 0x1CC7 PUSH1 0x20 DUP8 ADD PUSH2 0x1664 JUMP JUMPDEST SWAP4 POP PUSH1 0x40 DUP7 ADD CALLDATALOAD SWAP3 POP PUSH1 0x60 DUP7 ADD CALLDATALOAD SWAP2 POP PUSH1 0x80 DUP7 ADD CALLDATALOAD PUSH8 0xFFFFFFFFFFFFFFFF DUP2 GT ISZERO PUSH2 0x1CF1 JUMPI PUSH1 0x0 DUP1 REVERT JUMPDEST PUSH2 0x1A3A DUP9 DUP3 DUP10 ADD PUSH2 0x18E4 JUMP JUMPDEST PUSH1 0x0 PUSH1 0x20 DUP3 DUP5 SUB SLT ISZERO PUSH2 0x1D0F JUMPI PUSH1 0x0 DUP1 REVERT JUMPDEST PUSH2 0x16DD DUP3 PUSH2 0x1664 JUMP JUMPDEST PUSH1 0x0 DUP1 PUSH1 0x0 PUSH1 0x60 DUP5 DUP7 SUB SLT ISZERO PUSH2 0x1D2D JUMPI PUSH1 0x0 DUP1 REVERT JUMPDEST PUSH2 0x1D36 DUP5 PUSH2 0x1664 JUMP JUMPDEST SWAP6 PUSH1 0x20 DUP6 ADD CALLDATALOAD SWAP6 POP PUSH1 0x40 SWAP1 SWAP5 ADD CALLDATALOAD SWAP4 SWAP3 POP POP POP JUMP JUMPDEST PUSH1 0x20 DUP1 DUP3 MSTORE DUP2 DUP2 ADD MSTORE PUSH32 0x4F776E61626C653A2063616C6C6572206973206E6F7420746865206F776E6572 PUSH1 0x40 DUP3 ADD MSTORE PUSH1 0x60 ADD SWAP1 JUMP JUMPDEST PUSH1 0x1 DUP2 DUP2 SHR SWAP1 DUP3 AND DUP1 PUSH2 0x1D94 JUMPI PUSH1 0x7F DUP3 AND SWAP2 POP JUMPDEST PUSH1 0x20 DUP3 LT DUP2 EQ ISZERO PUSH2 0x1DB5 JUMPI PUSH4 0x4E487B71 PUSH1 0xE0 SHL PUSH1 0x0 MSTORE PUSH1 0x22 PUSH1 0x4 MSTORE PUSH1 0x24 PUSH1 0x0 REVERT JUMPDEST POP SWAP2 SWAP1 POP JUMP JUMPDEST PUSH4 0x4E487B71 PUSH1 0xE0 SHL PUSH1 0x0 MSTORE PUSH1 0x32 PUSH1 0x4 MSTORE PUSH1 0x24 PUSH1 0x0 REVERT JUMPDEST PUSH4 0x4E487B71 PUSH1 0xE0 SHL PUSH1 0x0 MSTORE PUSH1 0x11 PUSH1 0x4 MSTORE PUSH1 0x24 PUSH1 0x0 REVERT JUMPDEST PUSH1 0x0 PUSH1 0x0 NOT DUP3 EQ ISZERO PUSH2 0x1DFB JUMPI PUSH2 0x1DFB PUSH2 0x1DD1 JUMP JUMPDEST POP PUSH1 0x1 ADD SWAP1 JUMP JUMPDEST PUSH1 0x20 DUP1 DUP3 MSTORE PUSH1 0x29 SWAP1 DUP3 ADD MSTORE PUSH32 0x455243313135353A2063616C6C6572206973206E6F74206F776E6572206E6F72 PUSH1 0x40 DUP3 ADD MSTORE PUSH9 0x8185C1C1C9BDD9959 PUSH1 0xBA SHL PUSH1 0x60 DUP3 ADD MSTORE PUSH1 0x80 ADD SWAP1 JUMP JUMPDEST PUSH1 0x20 DUP1 DUP3 MSTORE PUSH1 0x21 SWAP1 DUP3 ADD MSTORE PUSH32 0x455243313135353A206D696E7420746F20746865207A65726F20616464726573 PUSH1 0x40 DUP3 ADD MSTORE PUSH1 0x73 PUSH1 0xF8 SHL PUSH1 0x60 DUP3 ADD MSTORE PUSH1 0x80 ADD SWAP1 JUMP JUMPDEST PUSH1 0x20 DUP1 DUP3 MSTORE PUSH1 0x28 SWAP1 DUP3 ADD MSTORE PUSH32 0x455243313135353A2069647320616E6420616D6F756E7473206C656E67746820 PUSH1 0x40 DUP3 ADD MSTORE PUSH8 0xDAD2E6DAC2E8C6D PUSH1 0xC3 SHL PUSH1 0x60 DUP3 ADD MSTORE PUSH1 0x80 ADD SWAP1 JUMP JUMPDEST PUSH1 0x0 DUP3 NOT DUP3 GT ISZERO PUSH2 0x1EE7 JUMPI PUSH2 0x1EE7 PUSH2 0x1DD1 JUMP JUMPDEST POP ADD SWAP1 JUMP JUMPDEST PUSH1 0x40 DUP2 MSTORE PUSH1 0x0 PUSH2 0x1EFF PUSH1 0x40 DUP4 ADD DUP6 PUSH2 0x1B12 JUMP JUMPDEST DUP3 DUP2 SUB PUSH1 0x20 DUP5 ADD MSTORE PUSH2 0x1F11 DUP2 DUP6 PUSH2 0x1B12 JUMP JUMPDEST SWAP6 SWAP5 POP POP POP POP POP JUMP JUMPDEST PUSH1 0x20 DUP1 DUP3 MSTORE PUSH1 0x25 SWAP1 DUP3 ADD MSTORE PUSH32 0x455243313135353A207472616E7366657220746F20746865207A65726F206164 PUSH1 0x40 DUP3 ADD MSTORE PUSH5 0x6472657373 PUSH1 0xD8 SHL PUSH1 0x60 DUP3 ADD MSTORE PUSH1 0x80 ADD SWAP1 JUMP JUMPDEST PUSH1 0x20 DUP1 DUP3 MSTORE PUSH1 0x2A SWAP1 DUP3 ADD MSTORE PUSH32 0x455243313135353A20696E73756666696369656E742062616C616E636520666F PUSH1 0x40 DUP3 ADD MSTORE PUSH10 0x39103A3930B739B332B9 PUSH1 0xB1 SHL PUSH1 0x60 DUP3 ADD MSTORE PUSH1 0x80 ADD SWAP1 JUMP JUMPDEST PUSH1 0x20 DUP1 DUP3 MSTORE PUSH1 0x23 SWAP1 DUP3 ADD MSTORE PUSH32 0x455243313135353A206275726E2066726F6D20746865207A65726F2061646472 PUSH1 0x40 DUP3 ADD MSTORE PUSH3 0x657373 PUSH1 0xE8 SHL PUSH1 0x60 DUP3 ADD MSTORE PUSH1 0x80 ADD SWAP1 JUMP JUMPDEST PUSH1 0x20 DUP1 DUP3 MSTORE PUSH1 0x24 SWAP1 DUP3 ADD MSTORE PUSH32 0x455243313135353A206275726E20616D6F756E7420657863656564732062616C PUSH1 0x40 DUP3 ADD MSTORE PUSH4 0x616E6365 PUSH1 0xE0 SHL PUSH1 0x60 DUP3 ADD MSTORE PUSH1 0x80 ADD SWAP1 JUMP JUMPDEST PUSH1 0x1 PUSH1 0x1 PUSH1 0xA0 SHL SUB DUP7 DUP2 AND DUP3 MSTORE DUP6 AND PUSH1 0x20 DUP3 ADD MSTORE PUSH1 0xA0 PUSH1 0x40 DUP3 ADD DUP2 SWAP1 MSTORE PUSH1 0x0 SWAP1 PUSH2 0x205C SWAP1 DUP4 ADD DUP7 PUSH2 0x1B12 JUMP JUMPDEST DUP3 DUP2 SUB PUSH1 0x60 DUP5 ADD MSTORE PUSH2 0x206E DUP2 DUP7 PUSH2 0x1B12 JUMP JUMPDEST SWAP1 POP DUP3 DUP2 SUB PUSH1 0x80 DUP5 ADD MSTORE PUSH2 0x2082 DUP2 DUP6 PUSH2 0x17EF JUMP JUMPDEST SWAP9 SWAP8 POP POP POP POP POP POP POP POP JUMP JUMPDEST PUSH1 0x0 PUSH1 0x20 DUP3 DUP5 SUB SLT ISZERO PUSH2 0x20A0 JUMPI PUSH1 0x0 DUP1 REVERT JUMPDEST DUP2 MLOAD PUSH2 0x16DD DUP2 PUSH2 0x16AA JUMP JUMPDEST PUSH1 0x0 PUSH1 0x3 RETURNDATASIZE GT ISZERO PUSH2 0x20C4 JUMPI PUSH1 0x4 PUSH1 0x0 DUP1 RETURNDATACOPY POP PUSH1 0x0 MLOAD PUSH1 0xE0 SHR JUMPDEST SWAP1 JUMP JUMPDEST PUSH1 0x0 PUSH1 0x44 RETURNDATASIZE LT ISZERO PUSH2 0x20D5 JUMPI SWAP1 JUMP JUMPDEST PUSH1 0x40 MLOAD PUSH1 0x3 NOT RETURNDATASIZE DUP2 ADD PUSH1 0x4 DUP4 RETURNDATACOPY DUP2 MLOAD RETURNDATASIZE PUSH8 0xFFFFFFFFFFFFFFFF DUP2 PUSH1 0x24 DUP5 ADD GT DUP2 DUP5 GT OR ISZERO PUSH2 0x2105 JUMPI POP POP POP POP POP SWAP1 JUMP JUMPDEST DUP3 DUP6 ADD SWAP2 POP DUP2 MLOAD DUP2 DUP2 GT ISZERO PUSH2 0x211D JUMPI POP POP POP POP POP POP SWAP1 JUMP JUMPDEST DUP5 RETURNDATASIZE DUP8 ADD ADD PUSH1 0x20 DUP3 DUP6 ADD ADD GT ISZERO PUSH2 0x2137 JUMPI POP POP POP POP POP POP SWAP1 JUMP JUMPDEST PUSH2 0x2146 PUSH1 0x20 DUP3 DUP7 ADD ADD DUP8 PUSH2 0x16FA JUMP JUMPDEST POP SWAP1 SWAP6 SWAP5 POP POP POP POP POP JUMP JUMPDEST PUSH1 0x20 DUP1 DUP3 MSTORE PUSH1 0x28 SWAP1 DUP3 ADD MSTORE PUSH32 0x455243313135353A204552433131353552656365697665722072656A65637465 PUSH1 0x40 DUP3 ADD MSTORE PUSH8 0x6420746F6B656E73 PUSH1 0xC0 SHL PUSH1 0x60 DUP3 ADD MSTORE PUSH1 0x80 ADD SWAP1 JUMP JUMPDEST PUSH1 0x1 PUSH1 0x1 PUSH1 0xA0 SHL SUB DUP7 DUP2 AND DUP3 MSTORE DUP6 AND PUSH1 0x20 DUP3 ADD MSTORE PUSH1 0x40 DUP2 ADD DUP5 SWAP1 MSTORE PUSH1 0x60 DUP2 ADD DUP4 SWAP1 MSTORE PUSH1 0xA0 PUSH1 0x80 DUP3 ADD DUP2 SWAP1 MSTORE PUSH1 0x0 SWAP1 PUSH2 0x21D3 SWAP1 DUP4 ADD DUP5 PUSH2 0x17EF JUMP JUMPDEST SWAP8 SWAP7 POP POP POP POP POP POP POP JUMP INVALID LOG2 PUSH5 0x6970667358 0x22 SLT KECCAK256 CODECOPY 0x4D TIMESTAMP 0xA8 PUSH4 0x720E4891 GASPRICE 0xBA 0x1E 0x1E PUSH11 0xE9B9090E3F282E5084899B PUSH21 0xD0507CA6032F64736F6C634300080B003368747470 PUSH20 0x3A2F2F697066732E696F2F697066732F516D5136 PUSH21 0x5A686138724D524531536A64666A5747445A695572 PUSH27 0x5063526678784553444875514142625A4453383F66696C656E616D PUSH6 0x3D5369646548 PUSH22 0x73746C65722532304261636B67726F756E642E706E67 "
				},
				"gasEstimates": {
					"creation": {
						"codeDepositCost": "1744800",
						"executionCost": "infinite",
						"totalCost": "infinite"
					},
					"external": {
						"balanceOf(address,uint256)": "2695",
						"balanceOfBatch(address[],uint256[])": "infinite",
						"burn(address,uint256,uint256)": "infinite",
						"burnBatch(address,uint256[],uint256[])": "infinite",
						"isApprovedForAll(address,address)": "infinite",
						"mint(address,uint256,uint256,bytes)": "infinite",
						"mintBatch(address,uint256[],uint256[],bytes)": "infinite",
						"owner()": "2412",
						"pause()": "29868",
						"paused()": "2432",
						"renounceOwnership()": "28162",
						"safeBatchTransferFrom(address,address,uint256[],uint256[],bytes)": "infinite",
						"safeTransferFrom(address,address,uint256,uint256,bytes)": "infinite",
						"setApprovalForAll(address,bool)": "26708",
						"setURI(string)": "infinite",
						"supportsInterface(bytes4)": "567",
						"transferOwnership(address)": "28400",
						"unpause()": "29817",
						"uri(uint256)": "infinite"
					},
					"internal": {
						"_beforeTokenTransfer(address,address,address,uint256[] memory,uint256[] memory,bytes memory)": "infinite"
					}
				},
				"methodIdentifiers": {
					"balanceOf(address,uint256)": "00fdd58e",
					"balanceOfBatch(address[],uint256[])": "4e1273f4",
					"burn(address,uint256,uint256)": "f5298aca",
					"burnBatch(address,uint256[],uint256[])": "6b20c454",
					"isApprovedForAll(address,address)": "e985e9c5",
					"mint(address,uint256,uint256,bytes)": "731133e9",
					"mintBatch(address,uint256[],uint256[],bytes)": "1f7fdffa",
					"owner()": "8da5cb5b",
					"pause()": "8456cb59",
					"paused()": "5c975abb",
					"renounceOwnership()": "715018a6",
					"safeBatchTransferFrom(address,address,uint256[],uint256[],bytes)": "2eb2c2d6",
					"safeTransferFrom(address,address,uint256,uint256,bytes)": "f242432a",
					"setApprovalForAll(address,bool)": "a22cb465",
					"setURI(string)": "02fe5305",
					"supportsInterface(bytes4)": "01ffc9a7",
					"transferOwnership(address)": "f2fde38b",
					"unpause()": "3f4ba83a",
					"uri(uint256)": "0e89341c"
				}
			},
			"storageLayout": {
				"storage": [
					{
						"astId": 222,
						"contract": "contracts/HachiNFT.sol:ERC1155Ownable",
						"label": "_balances",
						"offset": 0,
						"slot": "0",
						"type": "t_mapping(t_uint256,t_mapping(t_address,t_uint256))"
					},
					{
						"astId": 228,
						"contract": "contracts/HachiNFT.sol:ERC1155Ownable",
						"label": "_operatorApprovals",
						"offset": 0,
						"slot": "1",
						"type": "t_mapping(t_address,t_mapping(t_address,t_bool))"
					},
					{
						"astId": 230,
						"contract": "contracts/HachiNFT.sol:ERC1155Ownable",
						"label": "_uri",
						"offset": 0,
						"slot": "2",
						"type": "t_string_storage"
					},
					{
						"astId": 7,
						"contract": "contracts/HachiNFT.sol:ERC1155Ownable",
						"label": "_owner",
						"offset": 0,
						"slot": "3",
						"type": "t_address"
					},
					{
						"astId": 122,
						"contract": "contracts/HachiNFT.sol:ERC1155Ownable",
						"label": "_paused",
						"offset": 20,
						"slot": "3",
						"type": "t_bool"
					}
				],
				"types": {
					"t_address": {
						"encoding": "inplace",
						"label": "address",
						"numberOfBytes": "20"
					},
					"t_bool": {
						"encoding": "inplace",
						"label": "bool",
						"numberOfBytes": "1"
					},
					"t_mapping(t_address,t_bool)": {
						"encoding": "mapping",
						"key": "t_address",
						"label": "mapping(address => bool)",
						"numberOfBytes": "32",
						"value": "t_bool"
					},
					"t_mapping(t_address,t_mapping(t_address,t_bool))": {
						"encoding": "mapping",
						"key": "t_address",
						"label": "mapping(address => mapping(address => bool))",
						"numberOfBytes": "32",
						"value": "t_mapping(t_address,t_bool)"
					},
					"t_mapping(t_address,t_uint256)": {
						"encoding": "mapping",
						"key": "t_address",
						"label": "mapping(address => uint256)",
						"numberOfBytes": "32",
						"value": "t_uint256"
					},
					"t_mapping(t_uint256,t_mapping(t_address,t_uint256))": {
						"encoding": "mapping",
						"key": "t_uint256",
						"label": "mapping(uint256 => mapping(address => uint256))",
						"numberOfBytes": "32",
						"value": "t_mapping(t_address,t_uint256)"
					},
					"t_string_storage": {
						"encoding": "bytes",
						"label": "string",
						"numberOfBytes": "32"
					},
					"t_uint256": {
						"encoding": "inplace",
						"label": "uint256",
						"numberOfBytes": "32"
					}
				}
			},
			"userdoc": {
				"kind": "user",
				"methods": {},
				"version": 1
			}
		}
	}
}