{
	"contracts/TestVerify.sol": {
		"TestVerify": {
			"abi": [
				{
					"inputs": [],
					"stateMutability": "nonpayable",
					"type": "constructor"
				},
				{
					"inputs": [
						{
							"components": [
								{
									"internalType": "address",
									"name": "to",
									"type": "address"
								},
								{
									"internalType": "uint256[]",
									"name": "amounts",
									"type": "uint256[]"
								},
								{
									"internalType": "bytes32[]",
									"name": "merkleProof",
									"type": "bytes32[]"
								},
								{
									"internalType": "bytes",
									"name": "signature",
									"type": "bytes"
								}
							],
							"internalType": "struct TestVerify.HachiTicket",
							"name": "_ticket",
							"type": "tuple"
						}
					],
					"name": "_hash",
					"outputs": [
						{
							"internalType": "bytes32",
							"name": "",
							"type": "bytes32"
						}
					],
					"stateMutability": "view",
					"type": "function"
				},
				{
					"inputs": [
						{
							"components": [
								{
									"internalType": "address",
									"name": "to",
									"type": "address"
								},
								{
									"internalType": "uint256[]",
									"name": "amounts",
									"type": "uint256[]"
								},
								{
									"internalType": "bytes32[]",
									"name": "merkleProof",
									"type": "bytes32[]"
								},
								{
									"internalType": "bytes",
									"name": "signature",
									"type": "bytes"
								}
							],
							"internalType": "struct TestVerify.HachiTicket",
							"name": "_ticket",
							"type": "tuple"
						}
					],
					"name": "eip712Hash",
					"outputs": [
						{
							"internalType": "bytes32",
							"name": "",
							"type": "bytes32"
						}
					],
					"stateMutability": "view",
					"type": "function"
				},
				{
					"inputs": [
						{
							"internalType": "bytes32",
							"name": "_hash",
							"type": "bytes32"
						}
					],
					"name": "hashedData",
					"outputs": [
						{
							"internalType": "bytes32",
							"name": "",
							"type": "bytes32"
						}
					],
					"stateMutability": "view",
					"type": "function"
				},
				{
					"inputs": [
						{
							"components": [
								{
									"internalType": "address",
									"name": "to",
									"type": "address"
								},
								{
									"internalType": "uint256[]",
									"name": "amounts",
									"type": "uint256[]"
								},
								{
									"internalType": "bytes32[]",
									"name": "merkleProof",
									"type": "bytes32[]"
								},
								{
									"internalType": "bytes",
									"name": "signature",
									"type": "bytes"
								}
							],
							"internalType": "struct TestVerify.HachiTicket",
							"name": "_ticket",
							"type": "tuple"
						}
					],
					"name": "structHash",
					"outputs": [
						{
							"internalType": "bytes32",
							"name": "",
							"type": "bytes32"
						}
					],
					"stateMutability": "view",
					"type": "function"
				},
				{
					"inputs": [
						{
							"internalType": "bytes32",
							"name": "_digest",
							"type": "bytes32"
						},
						{
							"internalType": "bytes",
							"name": "_signature",
							"type": "bytes"
						}
					],
					"name": "testVerify",
					"outputs": [
						{
							"internalType": "address",
							"name": "",
							"type": "address"
						}
					],
					"stateMutability": "pure",
					"type": "function"
				},
				{
					"inputs": [
						{
							"components": [
								{
									"internalType": "address",
									"name": "to",
									"type": "address"
								},
								{
									"internalType": "uint256[]",
									"name": "amounts",
									"type": "uint256[]"
								},
								{
									"internalType": "bytes32[]",
									"name": "merkleProof",
									"type": "bytes32[]"
								},
								{
									"internalType": "bytes",
									"name": "signature",
									"type": "bytes"
								}
							],
							"internalType": "struct TestVerify.HachiTicket",
							"name": "_ticket",
							"type": "tuple"
						}
					],
					"name": "verifySigner",
					"outputs": [
						{
							"internalType": "address",
							"name": "",
							"type": "address"
						}
					],
					"stateMutability": "view",
					"type": "function"
				}
			],
			"devdoc": {
				"kind": "dev",
				"methods": {},
				"version": 1
			},
			"evm": {
				"assembly": "    /* \"contracts/TestVerify.sol\":193:2181  contract TestVerify is EIP712 {... */\n  mstore(0x40, 0x0140)\n    /* \"contracts/TestVerify.sol\":482:553  constructor()... */\n  callvalue\n  dup1\n  iszero\n  tag_1\n  jumpi\n  0x00\n  dup1\n  revert\ntag_1:\n  pop\n    /* \"contracts/TestVerify.sol\":507:521  SIGNING_DOMAIN */\n  0x40\n  dup1\n  mload\n  dup1\n  dup3\n  add\n  dup3\n  mstore\n  0x0b\n  dup2\n  mstore\n  shl(0xa8, 0x48616368694e6674536967)\n  0x20\n  dup1\n  dup4\n  add\n  swap2\n  dup3\n  mstore\n    /* \"contracts/TestVerify.sol\":523:540  SIGNATURE_VERSION */\n  dup4\n  mload\n  dup1\n  dup6\n  add\n  swap1\n  swap5\n  mstore\n  0x01\n  dup5\n  mstore\n  shl(0xf8, 0x31)\n  swap1\n  dup5\n  add\n  mstore\n    /* \"@openzeppelin/contracts/utils/cryptography/draft-EIP712.sol\":2541:2563  keccak256(bytes(name)) */\n  dup2\n  mload\n  swap1\n  keccak256\n    /* \"@openzeppelin/contracts/utils/cryptography/draft-EIP712.sol\":2778:2803  _HASHED_NAME = hashedName */\n  0xe0\n  dup2\n  swap1\n  mstore\n    /* \"@openzeppelin/contracts/utils/cryptography/draft-EIP712.sol\":2597:2622  keccak256(bytes(version)) */\n  0xc89efdaa54c0f20c7adf612882df0950f5a951637e0307cdcb4c672f298b8bc6\n    /* \"@openzeppelin/contracts/utils/cryptography/draft-EIP712.sol\":2813:2844  _HASHED_VERSION = hashedVersion */\n  0x0100\n  dup2\n  swap1\n  mstore\n    /* \"@openzeppelin/contracts/utils/cryptography/draft-EIP712.sol\":2873:2886  block.chainid */\n  chainid\n    /* \"@openzeppelin/contracts/utils/cryptography/draft-EIP712.sol\":2854:2886  _CACHED_CHAIN_ID = block.chainid */\n  0xa0\n  mstore\n    /* \"contracts/TestVerify.sol\":507:521  SIGNING_DOMAIN */\n  swap2\n  swap3\n    /* \"contracts/TestVerify.sol\":523:540  SIGNATURE_VERSION */\n  swap2\n    /* \"@openzeppelin/contracts/utils/cryptography/draft-EIP712.sol\":2651:2768  keccak256(... */\n  0x8b73c3c69bb8fe3d512ecc4cf759cc79239f7b179b0ffacaa9a75d522b39400f\n    /* \"@openzeppelin/contracts/utils/cryptography/draft-EIP712.sol\":2923:2981  _buildDomainSeparator(typeHash, hashedName, hashedVersion) */\n  tag_5\n    /* \"@openzeppelin/contracts/utils/cryptography/draft-EIP712.sol\":2651:2768  keccak256(... */\n  dup2\n    /* \"@openzeppelin/contracts/utils/cryptography/draft-EIP712.sol\":2541:2563  keccak256(bytes(name)) */\n  dup5\n    /* \"@openzeppelin/contracts/utils/cryptography/draft-EIP712.sol\":2597:2622  keccak256(bytes(version)) */\n  dup5\n    /* \"@openzeppelin/contracts/utils/cryptography/draft-EIP712.sol\":3633:3706  abi.encode(typeHash, nameHash, versionHash, block.chainid, address(this)) */\n  0x40\n  dup1\n  mload\n  0x20\n  dup2\n  add\n    /* \"#utility.yul\":273:298   */\n  dup6\n  swap1\n  mstore\n    /* \"#utility.yul\":314:332   */\n  swap1\n  dup2\n  add\n    /* \"#utility.yul\":307:341   */\n  dup4\n  swap1\n  mstore\n    /* \"#utility.yul\":357:375   */\n  0x60\n  dup2\n  add\n    /* \"#utility.yul\":350:384   */\n  dup3\n  swap1\n  mstore\n    /* \"@openzeppelin/contracts/utils/cryptography/draft-EIP712.sol\":3677:3690  block.chainid */\n  chainid\n    /* \"#utility.yul\":400:418   */\n  0x80\n  dup3\n  add\n    /* \"#utility.yul\":393:427   */\n  mstore\n    /* \"@openzeppelin/contracts/utils/cryptography/draft-EIP712.sol\":3700:3704  this */\n  address\n    /* \"#utility.yul\":443:462   */\n  0xa0\n  dup3\n  add\n    /* \"#utility.yul\":436:497   */\n  mstore\n    /* \"@openzeppelin/contracts/utils/cryptography/draft-EIP712.sol\":3597:3604  bytes32 */\n  0x00\n  swap1\n    /* \"#utility.yul\":245:264   */\n  0xc0\n  add\n    /* \"@openzeppelin/contracts/utils/cryptography/draft-EIP712.sol\":3633:3706  abi.encode(typeHash, nameHash, versionHash, block.chainid, address(this)) */\n  mload(0x40)\n  0x20\n  dup2\n  dup4\n  sub\n  sub\n  dup2\n  mstore\n  swap1\n  0x40\n  mstore\n    /* \"@openzeppelin/contracts/utils/cryptography/draft-EIP712.sol\":3623:3707  keccak256(abi.encode(typeHash, nameHash, versionHash, block.chainid, address(this))) */\n  dup1\n  mload\n  swap1\n  0x20\n  add\n  keccak256\n    /* \"@openzeppelin/contracts/utils/cryptography/draft-EIP712.sol\":3616:3707  return keccak256(abi.encode(typeHash, nameHash, versionHash, block.chainid, address(this))) */\n  swap1\n  pop\n    /* \"@openzeppelin/contracts/utils/cryptography/draft-EIP712.sol\":3457:3714  function _buildDomainSeparator(... */\n  swap4\n  swap3\n  pop\n  pop\n  pop\n  jump\n    /* \"@openzeppelin/contracts/utils/cryptography/draft-EIP712.sol\":2923:2981  _buildDomainSeparator(typeHash, hashedName, hashedVersion) */\ntag_5:\n    /* \"@openzeppelin/contracts/utils/cryptography/draft-EIP712.sol\":2896:2981  _CACHED_DOMAIN_SEPARATOR = _buildDomainSeparator(typeHash, hashedName, hashedVersion) */\n  0x80\n  mstore\n    /* \"@openzeppelin/contracts/utils/cryptography/draft-EIP712.sol\":3014:3018  this */\n  address\n    /* \"@openzeppelin/contracts/utils/cryptography/draft-EIP712.sol\":2991:3019  _CACHED_THIS = address(this) */\n  0xc0\n  mstore\n    /* \"@openzeppelin/contracts/utils/cryptography/draft-EIP712.sol\":3029:3050  _TYPE_HASH = typeHash */\n  0x0120\n  mstore\n  pop\n    /* \"contracts/TestVerify.sol\":193:2181  contract TestVerify is EIP712 {... */\n  tag_12\n  swap3\n  pop\n  pop\n  pop\n  jump\n    /* \"#utility.yul\":14:503   */\ntag_12:\n    /* \"contracts/TestVerify.sol\":193:2181  contract TestVerify is EIP712 {... */\n  mload(0x80)\n  mload(0xa0)\n  mload(0xc0)\n  mload(0xe0)\n  mload(0x0100)\n  mload(0x0120)\n  codecopy(0x00, dataOffset(sub_0), dataSize(sub_0))\n  0x00\n  assignImmutable(\"0x8c92e2e72e7997816d62b0c03c0b21c46605af4c276e6d0637f7e77158832bca\")\n  0x00\n  assignImmutable(\"0xc7087a93770541a54b276c354f6d56c80647702e0edc6c1d5ee9aeacf01dfad8\")\n  0x00\n  assignImmutable(\"0x954b846e373da6e2d86e60934c6fb4929a5d4ad23ca448303f22db28783db296\")\n  0x00\n  assignImmutable(\"0x9ef31662fdafe5ade9dc48fd4724c04f17232ac2ae4e5ea3da9c2a310c4aba3c\")\n  0x00\n  assignImmutable(\"0xae3f42c075651cd672386e7fa64476ebefa89324c3c225495e52b74374d0bc80\")\n  0x00\n  assignImmutable(\"0x9459a54a9dc1a91201f12e123a36391197edb81156a93e7e6bc8a3c17589bb36\")\n  return(0x00, dataSize(sub_0))\nstop\n\nsub_0: assembly {\n        /* \"contracts/TestVerify.sol\":193:2181  contract TestVerify is EIP712 {... */\n      mstore(0x40, 0x80)\n      callvalue\n      dup1\n      iszero\n      tag_1\n      jumpi\n      0x00\n      dup1\n      revert\n    tag_1:\n      pop\n      jumpi(tag_2, lt(calldatasize, 0x04))\n      shr(0xe0, calldataload(0x00))\n      dup1\n      0x0bad98cf\n      eq\n      tag_3\n      jumpi\n      dup1\n      0x15adc8fc\n      eq\n      tag_4\n      jumpi\n      dup1\n      0x2aa2d38f\n      eq\n      tag_5\n      jumpi\n      dup1\n      0x51693d64\n      eq\n      tag_4\n      jumpi\n      dup1\n      0xac7efdd7\n      eq\n      tag_7\n      jumpi\n      dup1\n      0xc32a1f25\n      eq\n      tag_8\n      jumpi\n    tag_2:\n      0x00\n      dup1\n      revert\n        /* \"contracts/TestVerify.sol\":1533:1902  function structHash(HachiTicket calldata _ticket) public view returns (bytes32) {... */\n    tag_3:\n      tag_9\n      tag_10\n      calldatasize\n      0x04\n      tag_11\n      jump\t// in\n    tag_10:\n      tag_12\n      jump\t// in\n    tag_9:\n      mload(0x40)\n        /* \"#utility.yul\":555:580   */\n      swap1\n      dup2\n      mstore\n        /* \"#utility.yul\":543:545   */\n      0x20\n        /* \"#utility.yul\":528:546   */\n      add\n        /* \"contracts/TestVerify.sol\":1533:1902  function structHash(HachiTicket calldata _ticket) public view returns (bytes32) {... */\n    tag_13:\n      mload(0x40)\n      dup1\n      swap2\n      sub\n      swap1\n      return\n        /* \"contracts/TestVerify.sol\":752:1134  function _hash(HachiTicket calldata _ticket) public view returns (bytes32) {... */\n    tag_4:\n      tag_9\n      tag_16\n      calldatasize\n      0x04\n      tag_11\n      jump\t// in\n    tag_16:\n      tag_17\n      jump\t// in\n        /* \"contracts/TestVerify.sol\":1908:2061  function testVerify(bytes32 _digest, bytes calldata _signature) public pure returns (address) {... */\n    tag_5:\n      tag_19\n      tag_20\n      calldatasize\n      0x04\n      tag_21\n      jump\t// in\n    tag_20:\n      tag_22\n      jump\t// in\n    tag_19:\n      mload(0x40)\n      sub(shl(0xa0, 0x01), 0x01)\n        /* \"#utility.yul\":1419:1451   */\n      swap1\n      swap2\n      and\n        /* \"#utility.yul\":1401:1452   */\n      dup2\n      mstore\n        /* \"#utility.yul\":1389:1391   */\n      0x20\n        /* \"#utility.yul\":1374:1392   */\n      add\n        /* \"contracts/TestVerify.sol\":1908:2061  function testVerify(bytes32 _digest, bytes calldata _signature) public pure returns (address) {... */\n      tag_13\n        /* \"#utility.yul\":1255:1458   */\n      jump\n        /* \"contracts/TestVerify.sol\":559:746  function verifySigner(HachiTicket calldata _ticket) public view returns (address) {... */\n    tag_7:\n      tag_19\n      tag_30\n      calldatasize\n      0x04\n      tag_11\n      jump\t// in\n    tag_30:\n      tag_31\n      jump\t// in\n        /* \"contracts/TestVerify.sol\":2066:2178  function hashedData(bytes32 _hash) public view returns (bytes32) {... */\n    tag_8:\n      tag_9\n      tag_34\n      calldatasize\n      0x04\n      tag_35\n      jump\t// in\n    tag_34:\n      tag_36\n      jump\t// in\n        /* \"contracts/TestVerify.sol\":1533:1902  function structHash(HachiTicket calldata _ticket) public view returns (bytes32) {... */\n    tag_12:\n        /* \"contracts/TestVerify.sol\":1604:1611  bytes32 */\n      0x00\n        /* \"contracts/TestVerify.sol\":1664:1740  keccak256(\"HachiTicket(address to,uint256[] amounts,bytes32[] merkleProof)\") */\n      0x798f2fc7cec67eb8a3e992f2d864cc1f56f87a6e9130d64fe2b2d7693eca2d2b\n        /* \"contracts/TestVerify.sol\":1754:1764  _ticket.to */\n      tag_39\n      0x20\n      dup5\n      add\n        /* \"contracts/TestVerify.sol\":1754:1761  _ticket */\n      dup5\n        /* \"contracts/TestVerify.sol\":1754:1764  _ticket.to */\n      tag_40\n      jump\t// in\n    tag_39:\n        /* \"contracts/TestVerify.sol\":1805:1820  _ticket.amounts */\n      tag_41\n      0x20\n      dup6\n      add\n        /* \"contracts/TestVerify.sol\":1805:1812  _ticket */\n      dup6\n        /* \"contracts/TestVerify.sol\":1805:1820  _ticket.amounts */\n      tag_42\n      jump\t// in\n    tag_41:\n        /* \"contracts/TestVerify.sol\":1788:1821  abi.encodePacked(_ticket.amounts) */\n      add(0x20, mload(0x40))\n      tag_43\n      swap3\n      swap2\n      swap1\n      tag_44\n      jump\t// in\n    tag_43:\n      mload(0x40)\n      0x20\n      dup2\n      dup4\n      sub\n      sub\n      dup2\n      mstore\n      swap1\n      0x40\n      mstore\n        /* \"contracts/TestVerify.sol\":1778:1822  keccak256(abi.encodePacked(_ticket.amounts)) */\n      dup1\n      mload\n      swap1\n      0x20\n      add\n      keccak256\n        /* \"contracts/TestVerify.sol\":1863:1870  _ticket */\n      dup5\n        /* \"contracts/TestVerify.sol\":1863:1882  _ticket.merkleProof */\n      dup1\n      0x40\n      add\n      swap1\n      tag_45\n      swap2\n      swap1\n      tag_42\n      jump\t// in\n    tag_45:\n        /* \"contracts/TestVerify.sol\":1846:1883  abi.encodePacked(_ticket.merkleProof) */\n      add(0x20, mload(0x40))\n      tag_47\n      swap3\n      swap2\n      swap1\n      tag_44\n      jump\t// in\n    tag_47:\n      mload(0x40)\n      0x20\n      dup2\n      dup4\n      sub\n      sub\n      dup2\n      mstore\n      swap1\n      0x40\n      mstore\n        /* \"contracts/TestVerify.sol\":1836:1884  keccak256(abi.encodePacked(_ticket.merkleProof)) */\n      dup1\n      mload\n      swap1\n      0x20\n      add\n      keccak256\n        /* \"contracts/TestVerify.sol\":1640:1894  abi.encode(... */\n      add(0x20, mload(0x40))\n      tag_49\n      swap5\n      swap4\n      swap3\n      swap2\n      swap1\n        /* \"#utility.yul\":4109:4134   */\n      swap4\n      dup5\n      mstore\n      sub(shl(0xa0, 0x01), 0x01)\n        /* \"#utility.yul\":4170:4202   */\n      swap3\n      swap1\n      swap3\n      and\n        /* \"#utility.yul\":4165:4167   */\n      0x20\n        /* \"#utility.yul\":4150:4168   */\n      dup5\n      add\n        /* \"#utility.yul\":4143:4203   */\n      mstore\n        /* \"#utility.yul\":4234:4236   */\n      0x40\n        /* \"#utility.yul\":4219:4237   */\n      dup4\n      add\n        /* \"#utility.yul\":4212:4246   */\n      mstore\n        /* \"#utility.yul\":4277:4279   */\n      0x60\n        /* \"#utility.yul\":4262:4280   */\n      dup3\n      add\n        /* \"#utility.yul\":4255:4289   */\n      mstore\n        /* \"#utility.yul\":4096:4099   */\n      0x80\n        /* \"#utility.yul\":4081:4100   */\n      add\n      swap1\n        /* \"#utility.yul\":3878:4295   */\n      jump\n        /* \"contracts/TestVerify.sol\":1640:1894  abi.encode(... */\n    tag_49:\n      mload(0x40)\n      0x20\n      dup2\n      dup4\n      sub\n      sub\n      dup2\n      mstore\n      swap1\n      0x40\n      mstore\n        /* \"contracts/TestVerify.sol\":1630:1895  keccak256(abi.encode(... */\n      dup1\n      mload\n      swap1\n      0x20\n      add\n      keccak256\n        /* \"contracts/TestVerify.sol\":1623:1895  return keccak256(abi.encode(... */\n      swap1\n      pop\n        /* \"contracts/TestVerify.sol\":1533:1902  function structHash(HachiTicket calldata _ticket) public view returns (bytes32) {... */\n      swap2\n      swap1\n      pop\n      jump\t// out\n        /* \"contracts/TestVerify.sol\":752:1134  function _hash(HachiTicket calldata _ticket) public view returns (bytes32) {... */\n    tag_17:\n        /* \"contracts/TestVerify.sol\":818:825  bytes32 */\n      0x00\n        /* \"contracts/TestVerify.sol\":844:1127  _hashTypedDataV4(keccak256(abi.encode(... */\n      tag_52\n        /* \"contracts/TestVerify.sol\":895:971  keccak256(\"HachiTicket(address to,uint256[] amounts,bytes32[] merkleProof)\") */\n      0x798f2fc7cec67eb8a3e992f2d864cc1f56f87a6e9130d64fe2b2d7693eca2d2b\n        /* \"contracts/TestVerify.sol\":985:995  _ticket.to */\n      tag_53\n      0x20\n      dup6\n      add\n        /* \"contracts/TestVerify.sol\":985:992  _ticket */\n      dup6\n        /* \"contracts/TestVerify.sol\":985:995  _ticket.to */\n      tag_40\n      jump\t// in\n    tag_53:\n        /* \"contracts/TestVerify.sol\":1036:1051  _ticket.amounts */\n      tag_54\n      0x20\n      dup7\n      add\n        /* \"contracts/TestVerify.sol\":1036:1043  _ticket */\n      dup7\n        /* \"contracts/TestVerify.sol\":1036:1051  _ticket.amounts */\n      tag_42\n      jump\t// in\n    tag_54:\n        /* \"contracts/TestVerify.sol\":1019:1052  abi.encodePacked(_ticket.amounts) */\n      add(0x20, mload(0x40))\n      tag_55\n      swap3\n      swap2\n      swap1\n      tag_44\n      jump\t// in\n    tag_55:\n      mload(0x40)\n      0x20\n      dup2\n      dup4\n      sub\n      sub\n      dup2\n      mstore\n      swap1\n      0x40\n      mstore\n        /* \"contracts/TestVerify.sol\":1009:1053  keccak256(abi.encodePacked(_ticket.amounts)) */\n      dup1\n      mload\n      swap1\n      0x20\n      add\n      keccak256\n        /* \"contracts/TestVerify.sol\":1094:1101  _ticket */\n      dup6\n        /* \"contracts/TestVerify.sol\":1094:1113  _ticket.merkleProof */\n      dup1\n      0x40\n      add\n      swap1\n      tag_56\n      swap2\n      swap1\n      tag_42\n      jump\t// in\n    tag_56:\n        /* \"contracts/TestVerify.sol\":1077:1114  abi.encodePacked(_ticket.merkleProof) */\n      add(0x20, mload(0x40))\n      tag_57\n      swap3\n      swap2\n      swap1\n      tag_44\n      jump\t// in\n    tag_57:\n      mload(0x40)\n      0x20\n      dup2\n      dup4\n      sub\n      sub\n      dup2\n      mstore\n      swap1\n      0x40\n      mstore\n        /* \"contracts/TestVerify.sol\":1067:1115  keccak256(abi.encodePacked(_ticket.merkleProof)) */\n      dup1\n      mload\n      swap1\n      0x20\n      add\n      keccak256\n        /* \"contracts/TestVerify.sol\":871:1125  abi.encode(... */\n      add(0x20, mload(0x40))\n      tag_58\n      swap5\n      swap4\n      swap3\n      swap2\n      swap1\n        /* \"#utility.yul\":4109:4134   */\n      swap4\n      dup5\n      mstore\n      sub(shl(0xa0, 0x01), 0x01)\n        /* \"#utility.yul\":4170:4202   */\n      swap3\n      swap1\n      swap3\n      and\n        /* \"#utility.yul\":4165:4167   */\n      0x20\n        /* \"#utility.yul\":4150:4168   */\n      dup5\n      add\n        /* \"#utility.yul\":4143:4203   */\n      mstore\n        /* \"#utility.yul\":4234:4236   */\n      0x40\n        /* \"#utility.yul\":4219:4237   */\n      dup4\n      add\n        /* \"#utility.yul\":4212:4246   */\n      mstore\n        /* \"#utility.yul\":4277:4279   */\n      0x60\n        /* \"#utility.yul\":4262:4280   */\n      dup3\n      add\n        /* \"#utility.yul\":4255:4289   */\n      mstore\n        /* \"#utility.yul\":4096:4099   */\n      0x80\n        /* \"#utility.yul\":4081:4100   */\n      add\n      swap1\n        /* \"#utility.yul\":3878:4295   */\n      jump\n        /* \"contracts/TestVerify.sol\":871:1125  abi.encode(... */\n    tag_58:\n      mload(0x40)\n      0x20\n      dup2\n      dup4\n      sub\n      sub\n      dup2\n      mstore\n      swap1\n      0x40\n      mstore\n        /* \"contracts/TestVerify.sol\":861:1126  keccak256(abi.encode(... */\n      dup1\n      mload\n      swap1\n      0x20\n      add\n      keccak256\n        /* \"contracts/TestVerify.sol\":844:860  _hashTypedDataV4 */\n      tag_59\n        /* \"contracts/TestVerify.sol\":844:1127  _hashTypedDataV4(keccak256(abi.encode(... */\n      jump\t// in\n    tag_52:\n        /* \"contracts/TestVerify.sol\":837:1127  return _hashTypedDataV4(keccak256(abi.encode(... */\n      swap3\n        /* \"contracts/TestVerify.sol\":752:1134  function _hash(HachiTicket calldata _ticket) public view returns (bytes32) {... */\n      swap2\n      pop\n      pop\n      jump\t// out\n        /* \"contracts/TestVerify.sol\":1908:2061  function testVerify(bytes32 _digest, bytes calldata _signature) public pure returns (address) {... */\n    tag_22:\n        /* \"contracts/TestVerify.sol\":1993:2000  address */\n      0x00\n        /* \"contracts/TestVerify.sol\":2019:2054  ECDSA.recover(_digest, _signature ) */\n      tag_61\n        /* \"contracts/TestVerify.sol\":2033:2040  _digest */\n      dup5\n        /* \"contracts/TestVerify.sol\":2042:2052  _signature */\n      dup5\n      dup5\n        /* \"contracts/TestVerify.sol\":2019:2054  ECDSA.recover(_digest, _signature ) */\n      dup1\n      dup1\n      0x1f\n      add\n      0x20\n      dup1\n      swap2\n      div\n      mul\n      0x20\n      add\n      mload(0x40)\n      swap1\n      dup2\n      add\n      0x40\n      mstore\n      dup1\n      swap4\n      swap3\n      swap2\n      swap1\n      dup2\n      dup2\n      mstore\n      0x20\n      add\n      dup4\n      dup4\n      dup1\n      dup3\n      dup5\n      calldatacopy\n      0x00\n      swap3\n      add\n      swap2\n      swap1\n      swap2\n      mstore\n      pop\n        /* \"contracts/TestVerify.sol\":2019:2032  ECDSA.recover */\n      tag_62\n      swap3\n      pop\n      pop\n      pop\n        /* \"contracts/TestVerify.sol\":2019:2054  ECDSA.recover(_digest, _signature ) */\n      jump\t// in\n    tag_61:\n        /* \"contracts/TestVerify.sol\":2012:2054  return ECDSA.recover(_digest, _signature ) */\n      swap5\n        /* \"contracts/TestVerify.sol\":1908:2061  function testVerify(bytes32 _digest, bytes calldata _signature) public pure returns (address) {... */\n      swap4\n      pop\n      pop\n      pop\n      pop\n      jump\t// out\n        /* \"contracts/TestVerify.sol\":559:746  function verifySigner(HachiTicket calldata _ticket) public view returns (address) {... */\n    tag_31:\n        /* \"contracts/TestVerify.sol\":632:639  address */\n      0x00\n        /* \"contracts/TestVerify.sol\":651:665  bytes32 digest */\n      dup1\n        /* \"contracts/TestVerify.sol\":668:682  _hash(_ticket) */\n      tag_72\n        /* \"contracts/TestVerify.sol\":674:681  _ticket */\n      dup4\n        /* \"contracts/TestVerify.sol\":668:673  _hash */\n      tag_17\n        /* \"contracts/TestVerify.sol\":668:682  _hash(_ticket) */\n      jump\t// in\n    tag_72:\n        /* \"contracts/TestVerify.sol\":651:682  bytes32 digest = _hash(_ticket) */\n      swap1\n      pop\n        /* \"contracts/TestVerify.sol\":699:739  ECDSA.recover(digest, _ticket.signature) */\n      tag_73\n        /* \"contracts/TestVerify.sol\":651:682  bytes32 digest = _hash(_ticket) */\n      dup2\n        /* \"contracts/TestVerify.sol\":721:738  _ticket.signature */\n      tag_74\n      0x60\n      dup7\n      add\n        /* \"contracts/TestVerify.sol\":721:728  _ticket */\n      dup7\n        /* \"contracts/TestVerify.sol\":721:738  _ticket.signature */\n      tag_75\n      jump\t// in\n    tag_74:\n        /* \"contracts/TestVerify.sol\":699:739  ECDSA.recover(digest, _ticket.signature) */\n      dup1\n      dup1\n      0x1f\n      add\n      0x20\n      dup1\n      swap2\n      div\n      mul\n      0x20\n      add\n      mload(0x40)\n      swap1\n      dup2\n      add\n      0x40\n      mstore\n      dup1\n      swap4\n      swap3\n      swap2\n      swap1\n      dup2\n      dup2\n      mstore\n      0x20\n      add\n      dup4\n      dup4\n      dup1\n      dup3\n      dup5\n      calldatacopy\n      0x00\n      swap3\n      add\n      swap2\n      swap1\n      swap2\n      mstore\n      pop\n        /* \"contracts/TestVerify.sol\":699:712  ECDSA.recover */\n      tag_62\n      swap3\n      pop\n      pop\n      pop\n        /* \"contracts/TestVerify.sol\":699:739  ECDSA.recover(digest, _ticket.signature) */\n      jump\t// in\n    tag_73:\n        /* \"contracts/TestVerify.sol\":692:739  return ECDSA.recover(digest, _ticket.signature) */\n      swap4\n        /* \"contracts/TestVerify.sol\":559:746  function verifySigner(HachiTicket calldata _ticket) public view returns (address) {... */\n      swap3\n      pop\n      pop\n      pop\n      jump\t// out\n        /* \"contracts/TestVerify.sol\":2066:2178  function hashedData(bytes32 _hash) public view returns (bytes32) {... */\n    tag_36:\n        /* \"contracts/TestVerify.sol\":2122:2129  bytes32 */\n      0x00\n        /* \"contracts/TestVerify.sol\":2148:2171  _hashTypedDataV4(_hash) */\n      tag_52\n        /* \"contracts/TestVerify.sol\":2165:2170  _hash */\n      dup3\n        /* \"@openzeppelin/contracts/utils/cryptography/draft-EIP712.sol\":4339:4504  function _hashTypedDataV4(bytes32 structHash) internal view virtual returns (bytes32) {... */\n    tag_59:\n        /* \"@openzeppelin/contracts/utils/cryptography/draft-EIP712.sol\":4416:4423  bytes32 */\n      0x00\n        /* \"@openzeppelin/contracts/utils/cryptography/draft-EIP712.sol\":4442:4497  ECDSA.toTypedDataHash(_domainSeparatorV4(), structHash) */\n      tag_52\n        /* \"@openzeppelin/contracts/utils/cryptography/draft-EIP712.sol\":4464:4484  _domainSeparatorV4() */\n      tag_80\n        /* \"@openzeppelin/contracts/utils/cryptography/draft-EIP712.sol\":4464:4482  _domainSeparatorV4 */\n      tag_81\n        /* \"@openzeppelin/contracts/utils/cryptography/draft-EIP712.sol\":4464:4484  _domainSeparatorV4() */\n      jump\t// in\n    tag_80:\n        /* \"@openzeppelin/contracts/utils/cryptography/draft-EIP712.sol\":4486:4496  structHash */\n      dup4\n        /* \"@openzeppelin/contracts/utils/cryptography/ECDSA.sol\":9226:9283  abi.encodePacked(\"\\x19\\x01\", domainSeparator, structHash) */\n      mload(0x40)\n      shl(0xf0, 0x1901)\n      0x20\n      dup3\n      add\n        /* \"#utility.yul\":5084:5111   */\n      mstore\n        /* \"#utility.yul\":5127:5138   */\n      0x22\n      dup2\n      add\n        /* \"#utility.yul\":5120:5147   */\n      dup4\n      swap1\n      mstore\n        /* \"#utility.yul\":5163:5175   */\n      0x42\n      dup2\n      add\n        /* \"#utility.yul\":5156:5184   */\n      dup3\n      swap1\n      mstore\n        /* \"@openzeppelin/contracts/utils/cryptography/ECDSA.sol\":9190:9197  bytes32 */\n      0x00\n      swap1\n        /* \"#utility.yul\":5200:5212   */\n      0x62\n      add\n        /* \"@openzeppelin/contracts/utils/cryptography/ECDSA.sol\":9226:9283  abi.encodePacked(\"\\x19\\x01\", domainSeparator, structHash) */\n      mload(0x40)\n      0x20\n      dup2\n      dup4\n      sub\n      sub\n      dup2\n      mstore\n      swap1\n      0x40\n      mstore\n        /* \"@openzeppelin/contracts/utils/cryptography/ECDSA.sol\":9216:9284  keccak256(abi.encodePacked(\"\\x19\\x01\", domainSeparator, structHash)) */\n      dup1\n      mload\n      swap1\n      0x20\n      add\n      keccak256\n        /* \"@openzeppelin/contracts/utils/cryptography/ECDSA.sol\":9209:9284  return keccak256(abi.encodePacked(\"\\x19\\x01\", domainSeparator, structHash)) */\n      swap1\n      pop\n        /* \"@openzeppelin/contracts/utils/cryptography/ECDSA.sol\":9097:9291  function toTypedDataHash(bytes32 domainSeparator, bytes32 structHash) internal pure returns (bytes32) {... */\n      swap3\n      swap2\n      pop\n      pop\n      jump\n        /* \"@openzeppelin/contracts/utils/cryptography/ECDSA.sol\":4308:4535  function recover(bytes32 hash, bytes memory signature) internal pure returns (address) {... */\n    tag_62:\n        /* \"@openzeppelin/contracts/utils/cryptography/ECDSA.sol\":4386:4393  address */\n      0x00\n        /* \"@openzeppelin/contracts/utils/cryptography/ECDSA.sol\":4406:4423  address recovered */\n      dup1\n        /* \"@openzeppelin/contracts/utils/cryptography/ECDSA.sol\":4425:4443  RecoverError error */\n      0x00\n        /* \"@openzeppelin/contracts/utils/cryptography/ECDSA.sol\":4447:4474  tryRecover(hash, signature) */\n      tag_84\n        /* \"@openzeppelin/contracts/utils/cryptography/ECDSA.sol\":4458:4462  hash */\n      dup6\n        /* \"@openzeppelin/contracts/utils/cryptography/ECDSA.sol\":4464:4473  signature */\n      dup6\n        /* \"@openzeppelin/contracts/utils/cryptography/ECDSA.sol\":4447:4457  tryRecover */\n      tag_85\n        /* \"@openzeppelin/contracts/utils/cryptography/ECDSA.sol\":4447:4474  tryRecover(hash, signature) */\n      jump\t// in\n    tag_84:\n        /* \"@openzeppelin/contracts/utils/cryptography/ECDSA.sol\":4405:4474  (address recovered, RecoverError error) = tryRecover(hash, signature) */\n      swap2\n      pop\n      swap2\n      pop\n        /* \"@openzeppelin/contracts/utils/cryptography/ECDSA.sol\":4484:4502  _throwError(error) */\n      tag_86\n        /* \"@openzeppelin/contracts/utils/cryptography/ECDSA.sol\":4496:4501  error */\n      dup2\n        /* \"@openzeppelin/contracts/utils/cryptography/ECDSA.sol\":4484:4495  _throwError */\n      tag_87\n        /* \"@openzeppelin/contracts/utils/cryptography/ECDSA.sol\":4484:4502  _throwError(error) */\n      jump\t// in\n    tag_86:\n      pop\n        /* \"@openzeppelin/contracts/utils/cryptography/ECDSA.sol\":4519:4528  recovered */\n      swap4\n        /* \"@openzeppelin/contracts/utils/cryptography/ECDSA.sol\":4308:4535  function recover(bytes32 hash, bytes memory signature) internal pure returns (address) {... */\n      swap3\n      pop\n      pop\n      pop\n      jump\t// out\n        /* \"@openzeppelin/contracts/utils/cryptography/draft-EIP712.sol\":3143:3451  function _domainSeparatorV4() internal view returns (bytes32) {... */\n    tag_81:\n        /* \"@openzeppelin/contracts/utils/cryptography/draft-EIP712.sol\":3196:3203  bytes32 */\n      0x00\n        /* \"@openzeppelin/contracts/utils/cryptography/draft-EIP712.sol\":3227:3231  this */\n      address\n      sub(shl(0xa0, 0x01), 0x01)\n        /* \"@openzeppelin/contracts/utils/cryptography/draft-EIP712.sol\":3236:3248  _CACHED_THIS */\n      immutable(\"0x9ef31662fdafe5ade9dc48fd4724c04f17232ac2ae4e5ea3da9c2a310c4aba3c\")\n        /* \"@openzeppelin/contracts/utils/cryptography/draft-EIP712.sol\":3219:3248  address(this) == _CACHED_THIS */\n      and\n      eq\n        /* \"@openzeppelin/contracts/utils/cryptography/draft-EIP712.sol\":3219:3285  address(this) == _CACHED_THIS && block.chainid == _CACHED_CHAIN_ID */\n      dup1\n      iszero\n      tag_89\n      jumpi\n      pop\n        /* \"@openzeppelin/contracts/utils/cryptography/draft-EIP712.sol\":3269:3285  _CACHED_CHAIN_ID */\n      immutable(\"0xae3f42c075651cd672386e7fa64476ebefa89324c3c225495e52b74374d0bc80\")\n        /* \"@openzeppelin/contracts/utils/cryptography/draft-EIP712.sol\":3252:3265  block.chainid */\n      chainid\n        /* \"@openzeppelin/contracts/utils/cryptography/draft-EIP712.sol\":3252:3285  block.chainid == _CACHED_CHAIN_ID */\n      eq\n        /* \"@openzeppelin/contracts/utils/cryptography/draft-EIP712.sol\":3219:3285  address(this) == _CACHED_THIS && block.chainid == _CACHED_CHAIN_ID */\n    tag_89:\n        /* \"@openzeppelin/contracts/utils/cryptography/draft-EIP712.sol\":3215:3445  if (address(this) == _CACHED_THIS && block.chainid == _CACHED_CHAIN_ID) {... */\n      iszero\n      tag_90\n      jumpi\n      pop\n        /* \"@openzeppelin/contracts/utils/cryptography/draft-EIP712.sol\":3308:3332  _CACHED_DOMAIN_SEPARATOR */\n      immutable(\"0x9459a54a9dc1a91201f12e123a36391197edb81156a93e7e6bc8a3c17589bb36\")\n      swap1\n        /* \"@openzeppelin/contracts/utils/cryptography/draft-EIP712.sol\":3143:3451  function _domainSeparatorV4() internal view returns (bytes32) {... */\n      jump\t// out\n        /* \"@openzeppelin/contracts/utils/cryptography/draft-EIP712.sol\":3215:3445  if (address(this) == _CACHED_THIS && block.chainid == _CACHED_CHAIN_ID) {... */\n    tag_90:\n      pop\n        /* \"@openzeppelin/contracts/utils/cryptography/draft-EIP712.sol\":3633:3706  abi.encode(typeHash, nameHash, versionHash, block.chainid, address(this)) */\n      0x40\n      dup1\n      mload\n        /* \"@openzeppelin/contracts/utils/cryptography/draft-EIP712.sol\":3392:3402  _TYPE_HASH */\n      immutable(\"0x8c92e2e72e7997816d62b0c03c0b21c46605af4c276e6d0637f7e77158832bca\")\n        /* \"@openzeppelin/contracts/utils/cryptography/draft-EIP712.sol\":3633:3706  abi.encode(typeHash, nameHash, versionHash, block.chainid, address(this)) */\n      0x20\n      dup1\n      dup4\n      add\n        /* \"#utility.yul\":7133:7158   */\n      swap2\n      swap1\n      swap2\n      mstore\n        /* \"@openzeppelin/contracts/utils/cryptography/draft-EIP712.sol\":3404:3416  _HASHED_NAME */\n      immutable(\"0x954b846e373da6e2d86e60934c6fb4929a5d4ad23ca448303f22db28783db296\")\n        /* \"#utility.yul\":7174:7192   */\n      dup3\n      dup5\n      add\n        /* \"#utility.yul\":7167:7201   */\n      mstore\n        /* \"@openzeppelin/contracts/utils/cryptography/draft-EIP712.sol\":3418:3433  _HASHED_VERSION */\n      immutable(\"0xc7087a93770541a54b276c354f6d56c80647702e0edc6c1d5ee9aeacf01dfad8\")\n        /* \"#utility.yul\":7217:7235   */\n      0x60\n      dup4\n      add\n        /* \"#utility.yul\":7210:7244   */\n      mstore\n        /* \"@openzeppelin/contracts/utils/cryptography/draft-EIP712.sol\":3677:3690  block.chainid */\n      chainid\n        /* \"#utility.yul\":7260:7278   */\n      0x80\n      dup4\n      add\n        /* \"#utility.yul\":7253:7287   */\n      mstore\n        /* \"@openzeppelin/contracts/utils/cryptography/draft-EIP712.sol\":3700:3704  this */\n      address\n        /* \"#utility.yul\":7303:7322   */\n      0xa0\n      dup1\n      dup5\n      add\n        /* \"#utility.yul\":7296:7357   */\n      swap2\n      swap1\n      swap2\n      mstore\n        /* \"@openzeppelin/contracts/utils/cryptography/draft-EIP712.sol\":3633:3706  abi.encode(typeHash, nameHash, versionHash, block.chainid, address(this)) */\n      dup4\n      mload\n      dup1\n      dup5\n      sub\n      swap1\n      swap2\n      add\n      dup2\n      mstore\n        /* \"#utility.yul\":7105:7124   */\n      0xc0\n      swap1\n      swap3\n      add\n        /* \"@openzeppelin/contracts/utils/cryptography/draft-EIP712.sol\":3633:3706  abi.encode(typeHash, nameHash, versionHash, block.chainid, address(this)) */\n      swap1\n      swap3\n      mstore\n        /* \"@openzeppelin/contracts/utils/cryptography/draft-EIP712.sol\":3623:3707  keccak256(abi.encode(typeHash, nameHash, versionHash, block.chainid, address(this))) */\n      dup1\n      mload\n      swap2\n      add\n      keccak256\n      swap1\n        /* \"@openzeppelin/contracts/utils/cryptography/draft-EIP712.sol\":3143:3451  function _domainSeparatorV4() internal view returns (bytes32) {... */\n      jump\t// out\n        /* \"@openzeppelin/contracts/utils/cryptography/ECDSA.sol\":2243:3522  function tryRecover(bytes32 hash, bytes memory signature) internal pure returns (address, RecoverError) {... */\n    tag_85:\n        /* \"@openzeppelin/contracts/utils/cryptography/ECDSA.sol\":2324:2331  address */\n      0x00\n        /* \"@openzeppelin/contracts/utils/cryptography/ECDSA.sol\":2333:2345  RecoverError */\n      dup1\n        /* \"@openzeppelin/contracts/utils/cryptography/ECDSA.sol\":2554:2563  signature */\n      dup3\n        /* \"@openzeppelin/contracts/utils/cryptography/ECDSA.sol\":2554:2570  signature.length */\n      mload\n        /* \"@openzeppelin/contracts/utils/cryptography/ECDSA.sol\":2574:2576  65 */\n      0x41\n        /* \"@openzeppelin/contracts/utils/cryptography/ECDSA.sol\":2554:2576  signature.length == 65 */\n      sub\n        /* \"@openzeppelin/contracts/utils/cryptography/ECDSA.sol\":2550:3516  if (signature.length == 65) {... */\n      tag_98\n      jumpi\n        /* \"@openzeppelin/contracts/utils/cryptography/ECDSA.sol\":2843:2847  0x20 */\n      0x20\n        /* \"@openzeppelin/contracts/utils/cryptography/ECDSA.sol\":2828:2848  add(signature, 0x20) */\n      dup4\n      add\n        /* \"@openzeppelin/contracts/utils/cryptography/ECDSA.sol\":2822:2849  mload(add(signature, 0x20)) */\n      mload\n        /* \"@openzeppelin/contracts/utils/cryptography/ECDSA.sol\":2892:2896  0x40 */\n      0x40\n        /* \"@openzeppelin/contracts/utils/cryptography/ECDSA.sol\":2877:2897  add(signature, 0x40) */\n      dup5\n      add\n        /* \"@openzeppelin/contracts/utils/cryptography/ECDSA.sol\":2871:2898  mload(add(signature, 0x40)) */\n      mload\n        /* \"@openzeppelin/contracts/utils/cryptography/ECDSA.sol\":2949:2953  0x60 */\n      0x60\n        /* \"@openzeppelin/contracts/utils/cryptography/ECDSA.sol\":2934:2954  add(signature, 0x60) */\n      dup6\n      add\n        /* \"@openzeppelin/contracts/utils/cryptography/ECDSA.sol\":2928:2955  mload(add(signature, 0x60)) */\n      mload\n        /* \"@openzeppelin/contracts/utils/cryptography/ECDSA.sol\":2592:2601  bytes32 r */\n      0x00\n        /* \"@openzeppelin/contracts/utils/cryptography/ECDSA.sol\":2920:2956  byte(0, mload(add(signature, 0x60))) */\n      byte\n        /* \"@openzeppelin/contracts/utils/cryptography/ECDSA.sol\":2990:3015  tryRecover(hash, v, r, s) */\n      tag_99\n        /* \"@openzeppelin/contracts/utils/cryptography/ECDSA.sol\":3001:3005  hash */\n      dup8\n        /* \"@openzeppelin/contracts/utils/cryptography/ECDSA.sol\":2920:2956  byte(0, mload(add(signature, 0x60))) */\n      dup3\n        /* \"@openzeppelin/contracts/utils/cryptography/ECDSA.sol\":2822:2849  mload(add(signature, 0x20)) */\n      dup6\n        /* \"@openzeppelin/contracts/utils/cryptography/ECDSA.sol\":2871:2898  mload(add(signature, 0x40)) */\n      dup6\n        /* \"@openzeppelin/contracts/utils/cryptography/ECDSA.sol\":2990:3000  tryRecover */\n      tag_100\n        /* \"@openzeppelin/contracts/utils/cryptography/ECDSA.sol\":2990:3015  tryRecover(hash, v, r, s) */\n      jump\t// in\n    tag_99:\n        /* \"@openzeppelin/contracts/utils/cryptography/ECDSA.sol\":2983:3015  return tryRecover(hash, v, r, s) */\n      swap5\n      pop\n      swap5\n      pop\n      pop\n      pop\n      pop\n      jump(tag_105)\n        /* \"@openzeppelin/contracts/utils/cryptography/ECDSA.sol\":2550:3516  if (signature.length == 65) {... */\n    tag_98:\n        /* \"@openzeppelin/contracts/utils/cryptography/ECDSA.sol\":3036:3045  signature */\n      dup3\n        /* \"@openzeppelin/contracts/utils/cryptography/ECDSA.sol\":3036:3052  signature.length */\n      mload\n        /* \"@openzeppelin/contracts/utils/cryptography/ECDSA.sol\":3056:3058  64 */\n      0x40\n        /* \"@openzeppelin/contracts/utils/cryptography/ECDSA.sol\":3036:3058  signature.length == 64 */\n      sub\n        /* \"@openzeppelin/contracts/utils/cryptography/ECDSA.sol\":3032:3516  if (signature.length == 64) {... */\n      tag_102\n      jumpi\n        /* \"@openzeppelin/contracts/utils/cryptography/ECDSA.sol\":3305:3309  0x20 */\n      0x20\n        /* \"@openzeppelin/contracts/utils/cryptography/ECDSA.sol\":3290:3310  add(signature, 0x20) */\n      dup4\n      add\n        /* \"@openzeppelin/contracts/utils/cryptography/ECDSA.sol\":3284:3311  mload(add(signature, 0x20)) */\n      mload\n        /* \"@openzeppelin/contracts/utils/cryptography/ECDSA.sol\":3355:3359  0x40 */\n      0x40\n        /* \"@openzeppelin/contracts/utils/cryptography/ECDSA.sol\":3340:3360  add(signature, 0x40) */\n      dup5\n      add\n        /* \"@openzeppelin/contracts/utils/cryptography/ECDSA.sol\":3334:3361  mload(add(signature, 0x40)) */\n      mload\n        /* \"@openzeppelin/contracts/utils/cryptography/ECDSA.sol\":3395:3418  tryRecover(hash, r, vs) */\n      tag_103\n        /* \"@openzeppelin/contracts/utils/cryptography/ECDSA.sol\":3406:3410  hash */\n      dup7\n        /* \"@openzeppelin/contracts/utils/cryptography/ECDSA.sol\":3284:3311  mload(add(signature, 0x20)) */\n      dup4\n        /* \"@openzeppelin/contracts/utils/cryptography/ECDSA.sol\":3334:3361  mload(add(signature, 0x40)) */\n      dup4\n        /* \"@openzeppelin/contracts/utils/cryptography/ECDSA.sol\":3395:3405  tryRecover */\n      tag_104\n        /* \"@openzeppelin/contracts/utils/cryptography/ECDSA.sol\":3395:3418  tryRecover(hash, r, vs) */\n      jump\t// in\n    tag_103:\n        /* \"@openzeppelin/contracts/utils/cryptography/ECDSA.sol\":3388:3418  return tryRecover(hash, r, vs) */\n      swap4\n      pop\n      swap4\n      pop\n      pop\n      pop\n      jump(tag_105)\n        /* \"@openzeppelin/contracts/utils/cryptography/ECDSA.sol\":3032:3516  if (signature.length == 64) {... */\n    tag_102:\n      pop\n        /* \"@openzeppelin/contracts/utils/cryptography/ECDSA.sol\":3465:3466  0 */\n      0x00\n      swap1\n      pop\n        /* \"@openzeppelin/contracts/utils/cryptography/ECDSA.sol\":3469:3504  RecoverError.InvalidSignatureLength */\n      0x02\n        /* \"@openzeppelin/contracts/utils/cryptography/ECDSA.sol\":3032:3516  if (signature.length == 64) {... */\n    tag_105:\n        /* \"@openzeppelin/contracts/utils/cryptography/ECDSA.sol\":2243:3522  function tryRecover(bytes32 hash, bytes memory signature) internal pure returns (address, RecoverError) {... */\n      swap3\n      pop\n      swap3\n      swap1\n      pop\n      jump\t// out\n        /* \"@openzeppelin/contracts/utils/cryptography/ECDSA.sol\":548:1179  function _throwError(RecoverError error) private pure {... */\n    tag_87:\n        /* \"@openzeppelin/contracts/utils/cryptography/ECDSA.sol\":625:645  RecoverError.NoError */\n      0x00\n        /* \"@openzeppelin/contracts/utils/cryptography/ECDSA.sol\":616:621  error */\n      dup2\n        /* \"@openzeppelin/contracts/utils/cryptography/ECDSA.sol\":616:645  error == RecoverError.NoError */\n      0x04\n      dup2\n      gt\n      iszero\n      tag_111\n      jumpi\n      tag_111\n      tag_109\n      jump\t// in\n    tag_111:\n      sub\n        /* \"@openzeppelin/contracts/utils/cryptography/ECDSA.sol\":612:1173  if (error == RecoverError.NoError) {... */\n      tag_112\n      jumpi\n        /* \"@openzeppelin/contracts/utils/cryptography/ECDSA.sol\":548:1179  function _throwError(RecoverError error) private pure {... */\n      pop\n      jump\t// out\n        /* \"@openzeppelin/contracts/utils/cryptography/ECDSA.sol\":612:1173  if (error == RecoverError.NoError) {... */\n    tag_112:\n        /* \"@openzeppelin/contracts/utils/cryptography/ECDSA.sol\":721:750  RecoverError.InvalidSignature */\n      0x01\n        /* \"@openzeppelin/contracts/utils/cryptography/ECDSA.sol\":712:717  error */\n      dup2\n        /* \"@openzeppelin/contracts/utils/cryptography/ECDSA.sol\":712:750  error == RecoverError.InvalidSignature */\n      0x04\n      dup2\n      gt\n      iszero\n      tag_117\n      jumpi\n      tag_117\n      tag_109\n      jump\t// in\n    tag_117:\n      sub\n        /* \"@openzeppelin/contracts/utils/cryptography/ECDSA.sol\":708:1173  if (error == RecoverError.InvalidSignature) {... */\n      tag_118\n      jumpi\n        /* \"@openzeppelin/contracts/utils/cryptography/ECDSA.sol\":766:800  revert(\"ECDSA: invalid signature\") */\n      mload(0x40)\n      shl(0xe5, 0x461bcd)\n      dup2\n      mstore\n        /* \"#utility.yul\":5557:5559   */\n      0x20\n        /* \"@openzeppelin/contracts/utils/cryptography/ECDSA.sol\":766:800  revert(\"ECDSA: invalid signature\") */\n      0x04\n      dup3\n      add\n        /* \"#utility.yul\":5539:5560   */\n      mstore\n        /* \"#utility.yul\":5596:5598   */\n      0x18\n        /* \"#utility.yul\":5576:5594   */\n      0x24\n      dup3\n      add\n        /* \"#utility.yul\":5569:5599   */\n      mstore\n        /* \"#utility.yul\":5635:5661   */\n      0x45434453413a20696e76616c6964207369676e61747572650000000000000000\n        /* \"#utility.yul\":5615:5633   */\n      0x44\n      dup3\n      add\n        /* \"#utility.yul\":5608:5662   */\n      mstore\n        /* \"#utility.yul\":5679:5697   */\n      0x64\n      add\n        /* \"@openzeppelin/contracts/utils/cryptography/ECDSA.sol\":766:800  revert(\"ECDSA: invalid signature\") */\n    tag_119:\n      mload(0x40)\n      dup1\n      swap2\n      sub\n      swap1\n      revert\n        /* \"@openzeppelin/contracts/utils/cryptography/ECDSA.sol\":708:1173  if (error == RecoverError.InvalidSignature) {... */\n    tag_118:\n        /* \"@openzeppelin/contracts/utils/cryptography/ECDSA.sol\":830:865  RecoverError.InvalidSignatureLength */\n      0x02\n        /* \"@openzeppelin/contracts/utils/cryptography/ECDSA.sol\":821:826  error */\n      dup2\n        /* \"@openzeppelin/contracts/utils/cryptography/ECDSA.sol\":821:865  error == RecoverError.InvalidSignatureLength */\n      0x04\n      dup2\n      gt\n      iszero\n      tag_125\n      jumpi\n      tag_125\n      tag_109\n      jump\t// in\n    tag_125:\n      sub\n        /* \"@openzeppelin/contracts/utils/cryptography/ECDSA.sol\":817:1173  if (error == RecoverError.InvalidSignatureLength) {... */\n      tag_126\n      jumpi\n        /* \"@openzeppelin/contracts/utils/cryptography/ECDSA.sol\":881:922  revert(\"ECDSA: invalid signature length\") */\n      mload(0x40)\n      shl(0xe5, 0x461bcd)\n      dup2\n      mstore\n        /* \"#utility.yul\":5910:5912   */\n      0x20\n        /* \"@openzeppelin/contracts/utils/cryptography/ECDSA.sol\":881:922  revert(\"ECDSA: invalid signature length\") */\n      0x04\n      dup3\n      add\n        /* \"#utility.yul\":5892:5913   */\n      mstore\n        /* \"#utility.yul\":5949:5951   */\n      0x1f\n        /* \"#utility.yul\":5929:5947   */\n      0x24\n      dup3\n      add\n        /* \"#utility.yul\":5922:5952   */\n      mstore\n        /* \"#utility.yul\":5988:6021   */\n      0x45434453413a20696e76616c6964207369676e6174757265206c656e67746800\n        /* \"#utility.yul\":5968:5986   */\n      0x44\n      dup3\n      add\n        /* \"#utility.yul\":5961:6022   */\n      mstore\n        /* \"#utility.yul\":6039:6057   */\n      0x64\n      add\n        /* \"@openzeppelin/contracts/utils/cryptography/ECDSA.sol\":881:922  revert(\"ECDSA: invalid signature length\") */\n      tag_119\n        /* \"#utility.yul\":5708:6063   */\n      jump\n        /* \"@openzeppelin/contracts/utils/cryptography/ECDSA.sol\":817:1173  if (error == RecoverError.InvalidSignatureLength) {... */\n    tag_126:\n        /* \"@openzeppelin/contracts/utils/cryptography/ECDSA.sol\":952:982  RecoverError.InvalidSignatureS */\n      0x03\n        /* \"@openzeppelin/contracts/utils/cryptography/ECDSA.sol\":943:948  error */\n      dup2\n        /* \"@openzeppelin/contracts/utils/cryptography/ECDSA.sol\":943:982  error == RecoverError.InvalidSignatureS */\n      0x04\n      dup2\n      gt\n      iszero\n      tag_133\n      jumpi\n      tag_133\n      tag_109\n      jump\t// in\n    tag_133:\n      sub\n        /* \"@openzeppelin/contracts/utils/cryptography/ECDSA.sol\":939:1173  if (error == RecoverError.InvalidSignatureS) {... */\n      tag_134\n      jumpi\n        /* \"@openzeppelin/contracts/utils/cryptography/ECDSA.sol\":998:1042  revert(\"ECDSA: invalid signature 's' value\") */\n      mload(0x40)\n      shl(0xe5, 0x461bcd)\n      dup2\n      mstore\n        /* \"#utility.yul\":6270:6272   */\n      0x20\n        /* \"@openzeppelin/contracts/utils/cryptography/ECDSA.sol\":998:1042  revert(\"ECDSA: invalid signature 's' value\") */\n      0x04\n      dup3\n      add\n        /* \"#utility.yul\":6252:6273   */\n      mstore\n        /* \"#utility.yul\":6309:6311   */\n      0x22\n        /* \"#utility.yul\":6289:6307   */\n      0x24\n      dup3\n      add\n        /* \"#utility.yul\":6282:6312   */\n      mstore\n        /* \"#utility.yul\":6348:6382   */\n      0x45434453413a20696e76616c6964207369676e6174757265202773272076616c\n        /* \"#utility.yul\":6328:6346   */\n      0x44\n      dup3\n      add\n        /* \"#utility.yul\":6321:6383   */\n      mstore\n      shl(0xf0, 0x7565)\n        /* \"#utility.yul\":6399:6417   */\n      0x64\n      dup3\n      add\n        /* \"#utility.yul\":6392:6424   */\n      mstore\n        /* \"#utility.yul\":6441:6460   */\n      0x84\n      add\n        /* \"@openzeppelin/contracts/utils/cryptography/ECDSA.sol\":998:1042  revert(\"ECDSA: invalid signature 's' value\") */\n      tag_119\n        /* \"#utility.yul\":6068:6466   */\n      jump\n        /* \"@openzeppelin/contracts/utils/cryptography/ECDSA.sol\":939:1173  if (error == RecoverError.InvalidSignatureS) {... */\n    tag_134:\n        /* \"@openzeppelin/contracts/utils/cryptography/ECDSA.sol\":1072:1102  RecoverError.InvalidSignatureV */\n      0x04\n        /* \"@openzeppelin/contracts/utils/cryptography/ECDSA.sol\":1063:1068  error */\n      dup2\n        /* \"@openzeppelin/contracts/utils/cryptography/ECDSA.sol\":1063:1102  error == RecoverError.InvalidSignatureV */\n      0x04\n      dup2\n      gt\n      iszero\n      tag_141\n      jumpi\n      tag_141\n      tag_109\n      jump\t// in\n    tag_141:\n      sub\n        /* \"@openzeppelin/contracts/utils/cryptography/ECDSA.sol\":1059:1173  if (error == RecoverError.InvalidSignatureV) {... */\n      tag_142\n      jumpi\n        /* \"@openzeppelin/contracts/utils/cryptography/ECDSA.sol\":1118:1162  revert(\"ECDSA: invalid signature 'v' value\") */\n      mload(0x40)\n      shl(0xe5, 0x461bcd)\n      dup2\n      mstore\n        /* \"#utility.yul\":6673:6675   */\n      0x20\n        /* \"@openzeppelin/contracts/utils/cryptography/ECDSA.sol\":1118:1162  revert(\"ECDSA: invalid signature 'v' value\") */\n      0x04\n      dup3\n      add\n        /* \"#utility.yul\":6655:6676   */\n      mstore\n        /* \"#utility.yul\":6712:6714   */\n      0x22\n        /* \"#utility.yul\":6692:6710   */\n      0x24\n      dup3\n      add\n        /* \"#utility.yul\":6685:6715   */\n      mstore\n        /* \"#utility.yul\":6751:6785   */\n      0x45434453413a20696e76616c6964207369676e6174757265202776272076616c\n        /* \"#utility.yul\":6731:6749   */\n      0x44\n      dup3\n      add\n        /* \"#utility.yul\":6724:6786   */\n      mstore\n      shl(0xf0, 0x7565)\n        /* \"#utility.yul\":6802:6820   */\n      0x64\n      dup3\n      add\n        /* \"#utility.yul\":6795:6827   */\n      mstore\n        /* \"#utility.yul\":6844:6863   */\n      0x84\n      add\n        /* \"@openzeppelin/contracts/utils/cryptography/ECDSA.sol\":1118:1162  revert(\"ECDSA: invalid signature 'v' value\") */\n      tag_119\n        /* \"#utility.yul\":6471:6869   */\n      jump\n        /* \"@openzeppelin/contracts/utils/cryptography/ECDSA.sol\":1059:1173  if (error == RecoverError.InvalidSignatureV) {... */\n    tag_142:\n        /* \"@openzeppelin/contracts/utils/cryptography/ECDSA.sol\":548:1179  function _throwError(RecoverError error) private pure {... */\n      pop\n      jump\t// out\n        /* \"@openzeppelin/contracts/utils/cryptography/ECDSA.sol\":5716:7319  function tryRecover(... */\n    tag_100:\n        /* \"@openzeppelin/contracts/utils/cryptography/ECDSA.sol\":5842:5849  address */\n      0x00\n      dup1\n        /* \"@openzeppelin/contracts/utils/cryptography/ECDSA.sol\":6766:6832  0x7FFFFFFFFFFFFFFFFFFFFFFFFFFFFFFF5D576E7357A4501DDFE92F46681B20A0 */\n      0x7fffffffffffffffffffffffffffffff5d576e7357a4501ddfe92f46681b20a0\n        /* \"@openzeppelin/contracts/utils/cryptography/ECDSA.sol\":6753:6832  uint256(s) > 0x7FFFFFFFFFFFFFFFFFFFFFFFFFFFFFFF5D576E7357A4501DDFE92F46681B20A0 */\n      dup4\n      gt\n        /* \"@openzeppelin/contracts/utils/cryptography/ECDSA.sol\":6749:6910  if (uint256(s) > 0x7FFFFFFFFFFFFFFFFFFFFFFFFFFFFFFF5D576E7357A4501DDFE92F46681B20A0) {... */\n      iszero\n      tag_149\n      jumpi\n      pop\n        /* \"@openzeppelin/contracts/utils/cryptography/ECDSA.sol\":6864:6865  0 */\n      0x00\n      swap1\n      pop\n        /* \"@openzeppelin/contracts/utils/cryptography/ECDSA.sol\":6868:6898  RecoverError.InvalidSignatureS */\n      0x03\n        /* \"@openzeppelin/contracts/utils/cryptography/ECDSA.sol\":6848:6899  return (address(0), RecoverError.InvalidSignatureS) */\n      jump(tag_148)\n        /* \"@openzeppelin/contracts/utils/cryptography/ECDSA.sol\":6749:6910  if (uint256(s) > 0x7FFFFFFFFFFFFFFFFFFFFFFFFFFFFFFF5D576E7357A4501DDFE92F46681B20A0) {... */\n    tag_149:\n        /* \"@openzeppelin/contracts/utils/cryptography/ECDSA.sol\":6923:6924  v */\n      dup5\n        /* \"@openzeppelin/contracts/utils/cryptography/ECDSA.sol\":6923:6930  v != 27 */\n      0xff\n      and\n        /* \"@openzeppelin/contracts/utils/cryptography/ECDSA.sol\":6928:6930  27 */\n      0x1b\n        /* \"@openzeppelin/contracts/utils/cryptography/ECDSA.sol\":6923:6930  v != 27 */\n      eq\n      iszero\n        /* \"@openzeppelin/contracts/utils/cryptography/ECDSA.sol\":6923:6941  v != 27 && v != 28 */\n      dup1\n      iszero\n      tag_150\n      jumpi\n      pop\n        /* \"@openzeppelin/contracts/utils/cryptography/ECDSA.sol\":6934:6935  v */\n      dup5\n        /* \"@openzeppelin/contracts/utils/cryptography/ECDSA.sol\":6934:6941  v != 28 */\n      0xff\n      and\n        /* \"@openzeppelin/contracts/utils/cryptography/ECDSA.sol\":6939:6941  28 */\n      0x1c\n        /* \"@openzeppelin/contracts/utils/cryptography/ECDSA.sol\":6934:6941  v != 28 */\n      eq\n      iszero\n        /* \"@openzeppelin/contracts/utils/cryptography/ECDSA.sol\":6923:6941  v != 27 && v != 28 */\n    tag_150:\n        /* \"@openzeppelin/contracts/utils/cryptography/ECDSA.sol\":6919:7019  if (v != 27 && v != 28) {... */\n      iszero\n      tag_151\n      jumpi\n      pop\n        /* \"@openzeppelin/contracts/utils/cryptography/ECDSA.sol\":6973:6974  0 */\n      0x00\n      swap1\n      pop\n        /* \"@openzeppelin/contracts/utils/cryptography/ECDSA.sol\":6977:7007  RecoverError.InvalidSignatureV */\n      0x04\n        /* \"@openzeppelin/contracts/utils/cryptography/ECDSA.sol\":6957:7008  return (address(0), RecoverError.InvalidSignatureV) */\n      jump(tag_148)\n        /* \"@openzeppelin/contracts/utils/cryptography/ECDSA.sol\":6919:7019  if (v != 27 && v != 28) {... */\n    tag_151:\n        /* \"@openzeppelin/contracts/utils/cryptography/ECDSA.sol\":7130:7154  ecrecover(hash, v, r, s) */\n      0x40\n      dup1\n      mload\n        /* \"@openzeppelin/contracts/utils/cryptography/ECDSA.sol\":7113:7127  address signer */\n      0x00\n        /* \"@openzeppelin/contracts/utils/cryptography/ECDSA.sol\":7130:7154  ecrecover(hash, v, r, s) */\n      dup1\n      dup3\n      mstore\n      0x20\n      dup3\n      add\n      dup1\n      dup5\n      mstore\n        /* \"#utility.yul\":7595:7620   */\n      dup10\n      swap1\n      mstore\n        /* \"#utility.yul\":7668:7672   */\n      0xff\n        /* \"#utility.yul\":7656:7673   */\n      dup9\n      and\n        /* \"#utility.yul\":7636:7654   */\n      swap3\n      dup3\n      add\n        /* \"#utility.yul\":7629:7674   */\n      swap3\n      swap1\n      swap3\n      mstore\n        /* \"#utility.yul\":7690:7708   */\n      0x60\n      dup2\n      add\n        /* \"#utility.yul\":7683:7717   */\n      dup7\n      swap1\n      mstore\n        /* \"#utility.yul\":7733:7751   */\n      0x80\n      dup2\n      add\n        /* \"#utility.yul\":7726:7760   */\n      dup6\n      swap1\n      mstore\n        /* \"@openzeppelin/contracts/utils/cryptography/ECDSA.sol\":7130:7154  ecrecover(hash, v, r, s) */\n      0x01\n      swap1\n        /* \"#utility.yul\":7567:7586   */\n      0xa0\n      add\n        /* \"@openzeppelin/contracts/utils/cryptography/ECDSA.sol\":7130:7154  ecrecover(hash, v, r, s) */\n      0x20\n      mload(0x40)\n      0x20\n      dup2\n      sub\n      swap1\n      dup1\n      dup5\n      sub\n      swap1\n      dup6\n      gas\n      staticcall\n      iszero\n      dup1\n      iszero\n      tag_155\n      jumpi\n      returndatasize\n      0x00\n      dup1\n      returndatacopy\n      revert(0x00, returndatasize)\n    tag_155:\n      pop\n      pop\n      mload(add(not(0x1f), mload(0x40)))\n      swap2\n      pop\n      pop\n      sub(shl(0xa0, 0x01), 0x01)\n        /* \"@openzeppelin/contracts/utils/cryptography/ECDSA.sol\":7168:7188  signer == address(0) */\n      dup2\n      and\n        /* \"@openzeppelin/contracts/utils/cryptography/ECDSA.sol\":7164:7265  if (signer == address(0)) {... */\n      tag_156\n      jumpi\n        /* \"@openzeppelin/contracts/utils/cryptography/ECDSA.sol\":7220:7221  0 */\n      0x00\n        /* \"@openzeppelin/contracts/utils/cryptography/ECDSA.sol\":7224:7253  RecoverError.InvalidSignature */\n      0x01\n        /* \"@openzeppelin/contracts/utils/cryptography/ECDSA.sol\":7204:7254  return (address(0), RecoverError.InvalidSignature) */\n      swap3\n      pop\n      swap3\n      pop\n      pop\n      jump(tag_148)\n        /* \"@openzeppelin/contracts/utils/cryptography/ECDSA.sol\":7164:7265  if (signer == address(0)) {... */\n    tag_156:\n        /* \"@openzeppelin/contracts/utils/cryptography/ECDSA.sol\":7283:7289  signer */\n      swap2\n      pop\n        /* \"@openzeppelin/contracts/utils/cryptography/ECDSA.sol\":7291:7311  RecoverError.NoError */\n      0x00\n      swap1\n      pop\n        /* \"@openzeppelin/contracts/utils/cryptography/ECDSA.sol\":5716:7319  function tryRecover(... */\n    tag_148:\n      swap5\n      pop\n      swap5\n      swap3\n      pop\n      pop\n      pop\n      jump\t// out\n        /* \"@openzeppelin/contracts/utils/cryptography/ECDSA.sol\":4789:5125  function tryRecover(... */\n    tag_104:\n        /* \"@openzeppelin/contracts/utils/cryptography/ECDSA.sol\":4899:4906  address */\n      0x00\n      dup1\n      sub(shl(0xff, 0x01), 0x01)\n        /* \"@openzeppelin/contracts/utils/cryptography/ECDSA.sol\":4944:5024  vs & bytes32(0x7fffffffffffffffffffffffffffffffffffffffffffffffffffffffffffffff) */\n      dup4\n      and\n        /* \"@openzeppelin/contracts/utils/cryptography/ECDSA.sol\":4899:4906  address */\n      dup2\n        /* \"@openzeppelin/contracts/utils/cryptography/ECDSA.sol\":5050:5075  (uint256(vs) >> 255) + 27 */\n      tag_158\n        /* \"@openzeppelin/contracts/utils/cryptography/ECDSA.sol\":5066:5069  255 */\n      0xff\n        /* \"@openzeppelin/contracts/utils/cryptography/ECDSA.sol\":5051:5069  uint256(vs) >> 255 */\n      dup7\n      swap1\n      shr\n        /* \"@openzeppelin/contracts/utils/cryptography/ECDSA.sol\":5073:5075  27 */\n      0x1b\n        /* \"@openzeppelin/contracts/utils/cryptography/ECDSA.sol\":5050:5075  (uint256(vs) >> 255) + 27 */\n      tag_159\n      jump\t// in\n    tag_158:\n        /* \"@openzeppelin/contracts/utils/cryptography/ECDSA.sol\":5034:5076  uint8 v = uint8((uint256(vs) >> 255) + 27) */\n      swap1\n      pop\n        /* \"@openzeppelin/contracts/utils/cryptography/ECDSA.sol\":5093:5118  tryRecover(hash, v, r, s) */\n      tag_160\n        /* \"@openzeppelin/contracts/utils/cryptography/ECDSA.sol\":5104:5108  hash */\n      dup8\n        /* \"@openzeppelin/contracts/utils/cryptography/ECDSA.sol\":5110:5111  v */\n      dup3\n        /* \"@openzeppelin/contracts/utils/cryptography/ECDSA.sol\":5113:5114  r */\n      dup9\n        /* \"@openzeppelin/contracts/utils/cryptography/ECDSA.sol\":5116:5117  s */\n      dup6\n        /* \"@openzeppelin/contracts/utils/cryptography/ECDSA.sol\":5093:5103  tryRecover */\n      tag_100\n        /* \"@openzeppelin/contracts/utils/cryptography/ECDSA.sol\":5093:5118  tryRecover(hash, v, r, s) */\n      jump\t// in\n    tag_160:\n        /* \"@openzeppelin/contracts/utils/cryptography/ECDSA.sol\":5086:5118  return tryRecover(hash, v, r, s) */\n      swap4\n      pop\n      swap4\n      pop\n      pop\n      pop\n        /* \"@openzeppelin/contracts/utils/cryptography/ECDSA.sol\":4789:5125  function tryRecover(... */\n      swap4\n      pop\n      swap4\n      swap2\n      pop\n      pop\n      jump\t// out\n        /* \"#utility.yul\":14:404   */\n    tag_11:\n        /* \"#utility.yul\":103:109   */\n      0x00\n        /* \"#utility.yul\":156:158   */\n      0x20\n        /* \"#utility.yul\":144:153   */\n      dup3\n        /* \"#utility.yul\":135:142   */\n      dup5\n        /* \"#utility.yul\":131:154   */\n      sub\n        /* \"#utility.yul\":127:159   */\n      slt\n        /* \"#utility.yul\":124:176   */\n      iszero\n      tag_164\n      jumpi\n        /* \"#utility.yul\":172:173   */\n      0x00\n        /* \"#utility.yul\":169:170   */\n      dup1\n        /* \"#utility.yul\":162:174   */\n      revert\n        /* \"#utility.yul\":124:176   */\n    tag_164:\n        /* \"#utility.yul\":212:221   */\n      dup2\n        /* \"#utility.yul\":199:222   */\n      calldataload\n        /* \"#utility.yul\":245:263   */\n      0xffffffffffffffff\n        /* \"#utility.yul\":237:243   */\n      dup2\n        /* \"#utility.yul\":234:264   */\n      gt\n        /* \"#utility.yul\":231:281   */\n      iszero\n      tag_165\n      jumpi\n        /* \"#utility.yul\":277:278   */\n      0x00\n        /* \"#utility.yul\":274:275   */\n      dup1\n        /* \"#utility.yul\":267:279   */\n      revert\n        /* \"#utility.yul\":231:281   */\n    tag_165:\n        /* \"#utility.yul\":300:322   */\n      dup3\n      add\n        /* \"#utility.yul\":356:359   */\n      0x80\n        /* \"#utility.yul\":338:354   */\n      dup2\n      dup6\n      sub\n        /* \"#utility.yul\":334:360   */\n      slt\n        /* \"#utility.yul\":331:377   */\n      iszero\n      tag_73\n      jumpi\n        /* \"#utility.yul\":373:374   */\n      0x00\n        /* \"#utility.yul\":370:371   */\n      dup1\n        /* \"#utility.yul\":363:375   */\n      revert\n        /* \"#utility.yul\":591:1250   */\n    tag_21:\n        /* \"#utility.yul\":670:676   */\n      0x00\n        /* \"#utility.yul\":678:684   */\n      dup1\n        /* \"#utility.yul\":686:692   */\n      0x00\n        /* \"#utility.yul\":739:741   */\n      0x40\n        /* \"#utility.yul\":727:736   */\n      dup5\n        /* \"#utility.yul\":718:725   */\n      dup7\n        /* \"#utility.yul\":714:737   */\n      sub\n        /* \"#utility.yul\":710:742   */\n      slt\n        /* \"#utility.yul\":707:759   */\n      iszero\n      tag_169\n      jumpi\n        /* \"#utility.yul\":755:756   */\n      0x00\n        /* \"#utility.yul\":752:753   */\n      dup1\n        /* \"#utility.yul\":745:757   */\n      revert\n        /* \"#utility.yul\":707:759   */\n    tag_169:\n        /* \"#utility.yul\":791:800   */\n      dup4\n        /* \"#utility.yul\":778:801   */\n      calldataload\n        /* \"#utility.yul\":768:801   */\n      swap3\n      pop\n        /* \"#utility.yul\":852:854   */\n      0x20\n        /* \"#utility.yul\":841:850   */\n      dup5\n        /* \"#utility.yul\":837:855   */\n      add\n        /* \"#utility.yul\":824:856   */\n      calldataload\n        /* \"#utility.yul\":875:893   */\n      0xffffffffffffffff\n        /* \"#utility.yul\":916:918   */\n      dup1\n        /* \"#utility.yul\":908:914   */\n      dup3\n        /* \"#utility.yul\":905:919   */\n      gt\n        /* \"#utility.yul\":902:936   */\n      iszero\n      tag_170\n      jumpi\n        /* \"#utility.yul\":932:933   */\n      0x00\n        /* \"#utility.yul\":929:930   */\n      dup1\n        /* \"#utility.yul\":922:934   */\n      revert\n        /* \"#utility.yul\":902:936   */\n    tag_170:\n        /* \"#utility.yul\":970:976   */\n      dup2\n        /* \"#utility.yul\":959:968   */\n      dup7\n        /* \"#utility.yul\":955:977   */\n      add\n        /* \"#utility.yul\":945:977   */\n      swap2\n      pop\n        /* \"#utility.yul\":1015:1022   */\n      dup7\n        /* \"#utility.yul\":1008:1012   */\n      0x1f\n        /* \"#utility.yul\":1004:1006   */\n      dup4\n        /* \"#utility.yul\":1000:1013   */\n      add\n        /* \"#utility.yul\":996:1023   */\n      slt\n        /* \"#utility.yul\":986:1041   */\n      tag_171\n      jumpi\n        /* \"#utility.yul\":1037:1038   */\n      0x00\n        /* \"#utility.yul\":1034:1035   */\n      dup1\n        /* \"#utility.yul\":1027:1039   */\n      revert\n        /* \"#utility.yul\":986:1041   */\n    tag_171:\n        /* \"#utility.yul\":1077:1079   */\n      dup2\n        /* \"#utility.yul\":1064:1080   */\n      calldataload\n        /* \"#utility.yul\":1103:1105   */\n      dup2\n        /* \"#utility.yul\":1095:1101   */\n      dup2\n        /* \"#utility.yul\":1092:1106   */\n      gt\n        /* \"#utility.yul\":1089:1123   */\n      iszero\n      tag_172\n      jumpi\n        /* \"#utility.yul\":1119:1120   */\n      0x00\n        /* \"#utility.yul\":1116:1117   */\n      dup1\n        /* \"#utility.yul\":1109:1121   */\n      revert\n        /* \"#utility.yul\":1089:1123   */\n    tag_172:\n        /* \"#utility.yul\":1164:1171   */\n      dup8\n        /* \"#utility.yul\":1159:1161   */\n      0x20\n        /* \"#utility.yul\":1150:1156   */\n      dup3\n        /* \"#utility.yul\":1146:1148   */\n      dup6\n        /* \"#utility.yul\":1142:1157   */\n      add\n        /* \"#utility.yul\":1138:1162   */\n      add\n        /* \"#utility.yul\":1135:1172   */\n      gt\n        /* \"#utility.yul\":1132:1189   */\n      iszero\n      tag_173\n      jumpi\n        /* \"#utility.yul\":1185:1186   */\n      0x00\n        /* \"#utility.yul\":1182:1183   */\n      dup1\n        /* \"#utility.yul\":1175:1187   */\n      revert\n        /* \"#utility.yul\":1132:1189   */\n    tag_173:\n        /* \"#utility.yul\":1216:1218   */\n      0x20\n        /* \"#utility.yul\":1212:1214   */\n      dup4\n        /* \"#utility.yul\":1208:1219   */\n      add\n        /* \"#utility.yul\":1198:1219   */\n      swap5\n      pop\n        /* \"#utility.yul\":1238:1244   */\n      dup1\n        /* \"#utility.yul\":1228:1244   */\n      swap4\n      pop\n      pop\n      pop\n      pop\n        /* \"#utility.yul\":591:1250   */\n      swap3\n      pop\n      swap3\n      pop\n      swap3\n      jump\t// out\n        /* \"#utility.yul\":1463:1643   */\n    tag_35:\n        /* \"#utility.yul\":1522:1528   */\n      0x00\n        /* \"#utility.yul\":1575:1577   */\n      0x20\n        /* \"#utility.yul\":1563:1572   */\n      dup3\n        /* \"#utility.yul\":1554:1561   */\n      dup5\n        /* \"#utility.yul\":1550:1573   */\n      sub\n        /* \"#utility.yul\":1546:1578   */\n      slt\n        /* \"#utility.yul\":1543:1595   */\n      iszero\n      tag_176\n      jumpi\n        /* \"#utility.yul\":1591:1592   */\n      0x00\n        /* \"#utility.yul\":1588:1589   */\n      dup1\n        /* \"#utility.yul\":1581:1593   */\n      revert\n        /* \"#utility.yul\":1543:1595   */\n    tag_176:\n      pop\n        /* \"#utility.yul\":1614:1637   */\n      calldataload\n      swap2\n        /* \"#utility.yul\":1463:1643   */\n      swap1\n      pop\n      jump\t// out\n        /* \"#utility.yul\":1648:1934   */\n    tag_40:\n        /* \"#utility.yul\":1707:1713   */\n      0x00\n        /* \"#utility.yul\":1760:1762   */\n      0x20\n        /* \"#utility.yul\":1748:1757   */\n      dup3\n        /* \"#utility.yul\":1739:1746   */\n      dup5\n        /* \"#utility.yul\":1735:1758   */\n      sub\n        /* \"#utility.yul\":1731:1763   */\n      slt\n        /* \"#utility.yul\":1728:1780   */\n      iszero\n      tag_178\n      jumpi\n        /* \"#utility.yul\":1776:1777   */\n      0x00\n        /* \"#utility.yul\":1773:1774   */\n      dup1\n        /* \"#utility.yul\":1766:1778   */\n      revert\n        /* \"#utility.yul\":1728:1780   */\n    tag_178:\n        /* \"#utility.yul\":1802:1825   */\n      dup2\n      calldataload\n      sub(shl(0xa0, 0x01), 0x01)\n        /* \"#utility.yul\":1854:1885   */\n      dup2\n      and\n        /* \"#utility.yul\":1844:1886   */\n      dup2\n      eq\n        /* \"#utility.yul\":1834:1904   */\n      tag_73\n      jumpi\n        /* \"#utility.yul\":1900:1901   */\n      0x00\n        /* \"#utility.yul\":1897:1898   */\n      dup1\n        /* \"#utility.yul\":1890:1902   */\n      revert\n        /* \"#utility.yul\":1939:2484   */\n    tag_42:\n        /* \"#utility.yul\":2032:2036   */\n      0x00\n        /* \"#utility.yul\":2038:2044   */\n      dup1\n        /* \"#utility.yul\":2098:2109   */\n      dup4\n        /* \"#utility.yul\":2085:2110   */\n      calldataload\n        /* \"#utility.yul\":2192:2194   */\n      0x1e\n        /* \"#utility.yul\":2188:2195   */\n      not\n        /* \"#utility.yul\":2177:2185   */\n      dup5\n        /* \"#utility.yul\":2161:2175   */\n      calldatasize\n        /* \"#utility.yul\":2157:2186   */\n      sub\n        /* \"#utility.yul\":2153:2196   */\n      add\n        /* \"#utility.yul\":2133:2151   */\n      dup2\n        /* \"#utility.yul\":2129:2197   */\n      slt\n        /* \"#utility.yul\":2119:2215   */\n      tag_181\n      jumpi\n        /* \"#utility.yul\":2211:2212   */\n      0x00\n        /* \"#utility.yul\":2208:2209   */\n      dup1\n        /* \"#utility.yul\":2201:2213   */\n      revert\n        /* \"#utility.yul\":2119:2215   */\n    tag_181:\n        /* \"#utility.yul\":2238:2271   */\n      dup4\n      add\n        /* \"#utility.yul\":2290:2310   */\n      dup1\n      calldataload\n      swap2\n      pop\n        /* \"#utility.yul\":2333:2351   */\n      0xffffffffffffffff\n        /* \"#utility.yul\":2322:2352   */\n      dup3\n      gt\n        /* \"#utility.yul\":2319:2369   */\n      iszero\n      tag_182\n      jumpi\n        /* \"#utility.yul\":2365:2366   */\n      0x00\n        /* \"#utility.yul\":2362:2363   */\n      dup1\n        /* \"#utility.yul\":2355:2367   */\n      revert\n        /* \"#utility.yul\":2319:2369   */\n    tag_182:\n        /* \"#utility.yul\":2398:2402   */\n      0x20\n        /* \"#utility.yul\":2386:2403   */\n      add\n      swap2\n      pop\n        /* \"#utility.yul\":2449:2450   */\n      0x05\n        /* \"#utility.yul\":2445:2459   */\n      dup2\n      swap1\n      shl\n        /* \"#utility.yul\":2429:2443   */\n      calldatasize\n        /* \"#utility.yul\":2425:2460   */\n      sub\n        /* \"#utility.yul\":2415:2461   */\n      dup3\n      sgt\n        /* \"#utility.yul\":2412:2478   */\n      iszero\n      tag_105\n      jumpi\n        /* \"#utility.yul\":2474:2475   */\n      0x00\n        /* \"#utility.yul\":2471:2472   */\n      dup1\n        /* \"#utility.yul\":2464:2476   */\n      revert\n        /* \"#utility.yul\":2489:2793   */\n    tag_161:\n        /* \"#utility.yul\":2559:2562   */\n      0x00\n      sub(shl(0xfb, 0x01), 0x01)\n        /* \"#utility.yul\":2580:2611   */\n      dup4\n      gt\n        /* \"#utility.yul\":2577:2628   */\n      iszero\n      tag_185\n      jumpi\n        /* \"#utility.yul\":2624:2625   */\n      0x00\n        /* \"#utility.yul\":2621:2622   */\n      dup1\n        /* \"#utility.yul\":2614:2626   */\n      revert\n        /* \"#utility.yul\":2577:2628   */\n    tag_185:\n        /* \"#utility.yul\":2660:2666   */\n      dup3\n        /* \"#utility.yul\":2657:2658   */\n      0x05\n        /* \"#utility.yul\":2653:2667   */\n      shl\n        /* \"#utility.yul\":2701:2709   */\n      dup1\n        /* \"#utility.yul\":2694:2699   */\n      dup4\n        /* \"#utility.yul\":2689:2692   */\n      dup7\n        /* \"#utility.yul\":2676:2710   */\n      calldatacopy\n        /* \"#utility.yul\":2767:2768   */\n      0x00\n        /* \"#utility.yul\":2729:2747   */\n      swap5\n      add\n        /* \"#utility.yul\":2756:2769   */\n      swap4\n      dup5\n      mstore\n      pop\n        /* \"#utility.yul\":2729:2747   */\n      swap2\n      swap3\n        /* \"#utility.yul\":2489:2793   */\n      swap2\n      pop\n      pop\n      jump\t// out\n        /* \"#utility.yul\":2798:3058   */\n    tag_44:\n        /* \"#utility.yul\":2969:2972   */\n      0x00\n        /* \"#utility.yul\":2994:3052   */\n      tag_61\n        /* \"#utility.yul\":3048:3051   */\n      dup3\n        /* \"#utility.yul\":3040:3046   */\n      dup5\n        /* \"#utility.yul\":3032:3038   */\n      dup7\n        /* \"#utility.yul\":2994:3052   */\n      tag_161\n      jump\t// in\n        /* \"#utility.yul\":4300:4821   */\n    tag_75:\n        /* \"#utility.yul\":4377:4381   */\n      0x00\n        /* \"#utility.yul\":4383:4389   */\n      dup1\n        /* \"#utility.yul\":4443:4454   */\n      dup4\n        /* \"#utility.yul\":4430:4455   */\n      calldataload\n        /* \"#utility.yul\":4537:4539   */\n      0x1e\n        /* \"#utility.yul\":4533:4540   */\n      not\n        /* \"#utility.yul\":4522:4530   */\n      dup5\n        /* \"#utility.yul\":4506:4520   */\n      calldatasize\n        /* \"#utility.yul\":4502:4531   */\n      sub\n        /* \"#utility.yul\":4498:4541   */\n      add\n        /* \"#utility.yul\":4478:4496   */\n      dup2\n        /* \"#utility.yul\":4474:4542   */\n      slt\n        /* \"#utility.yul\":4464:4560   */\n      tag_196\n      jumpi\n        /* \"#utility.yul\":4556:4557   */\n      0x00\n        /* \"#utility.yul\":4553:4554   */\n      dup1\n        /* \"#utility.yul\":4546:4558   */\n      revert\n        /* \"#utility.yul\":4464:4560   */\n    tag_196:\n        /* \"#utility.yul\":4583:4616   */\n      dup4\n      add\n        /* \"#utility.yul\":4635:4655   */\n      dup1\n      calldataload\n      swap2\n      pop\n        /* \"#utility.yul\":4678:4696   */\n      0xffffffffffffffff\n        /* \"#utility.yul\":4667:4697   */\n      dup3\n      gt\n        /* \"#utility.yul\":4664:4714   */\n      iszero\n      tag_197\n      jumpi\n        /* \"#utility.yul\":4710:4711   */\n      0x00\n        /* \"#utility.yul\":4707:4708   */\n      dup1\n        /* \"#utility.yul\":4700:4712   */\n      revert\n        /* \"#utility.yul\":4664:4714   */\n    tag_197:\n        /* \"#utility.yul\":4743:4747   */\n      0x20\n        /* \"#utility.yul\":4731:4748   */\n      add\n      swap2\n      pop\n        /* \"#utility.yul\":4774:4788   */\n      calldatasize\n        /* \"#utility.yul\":4770:4797   */\n      dup2\n      swap1\n      sub\n        /* \"#utility.yul\":4760:4798   */\n      dup3\n      sgt\n        /* \"#utility.yul\":4757:4815   */\n      iszero\n      tag_105\n      jumpi\n        /* \"#utility.yul\":4811:4812   */\n      0x00\n        /* \"#utility.yul\":4808:4809   */\n      dup1\n        /* \"#utility.yul\":4801:4813   */\n      revert\n        /* \"#utility.yul\":5223:5350   */\n    tag_109:\n        /* \"#utility.yul\":5284:5294   */\n      0x4e487b71\n        /* \"#utility.yul\":5279:5282   */\n      0xe0\n        /* \"#utility.yul\":5275:5295   */\n      shl\n        /* \"#utility.yul\":5272:5273   */\n      0x00\n        /* \"#utility.yul\":5265:5296   */\n      mstore\n        /* \"#utility.yul\":5315:5319   */\n      0x21\n        /* \"#utility.yul\":5312:5313   */\n      0x04\n        /* \"#utility.yul\":5305:5320   */\n      mstore\n        /* \"#utility.yul\":5339:5343   */\n      0x24\n        /* \"#utility.yul\":5336:5337   */\n      0x00\n        /* \"#utility.yul\":5329:5344   */\n      revert\n        /* \"#utility.yul\":7771:7996   */\n    tag_159:\n        /* \"#utility.yul\":7811:7814   */\n      0x00\n        /* \"#utility.yul\":7842:7843   */\n      dup3\n        /* \"#utility.yul\":7838:7844   */\n      not\n        /* \"#utility.yul\":7835:7836   */\n      dup3\n        /* \"#utility.yul\":7832:7845   */\n      gt\n        /* \"#utility.yul\":7829:7965   */\n      iszero\n      tag_208\n      jumpi\n        /* \"#utility.yul\":7887:7897   */\n      0x4e487b71\n        /* \"#utility.yul\":7882:7885   */\n      0xe0\n        /* \"#utility.yul\":7878:7898   */\n      shl\n        /* \"#utility.yul\":7875:7876   */\n      0x00\n        /* \"#utility.yul\":7868:7899   */\n      mstore\n        /* \"#utility.yul\":7922:7926   */\n      0x11\n        /* \"#utility.yul\":7919:7920   */\n      0x04\n        /* \"#utility.yul\":7912:7927   */\n      mstore\n        /* \"#utility.yul\":7950:7954   */\n      0x24\n        /* \"#utility.yul\":7947:7948   */\n      0x00\n        /* \"#utility.yul\":7940:7955   */\n      revert\n        /* \"#utility.yul\":7829:7965   */\n    tag_208:\n      pop\n        /* \"#utility.yul\":7981:7990   */\n      add\n      swap1\n        /* \"#utility.yul\":7771:7996   */\n      jump\t// out\n\n    auxdata: 0xa2646970667358221220304453c06c536c46365085e606f2f9369e9c846b596a4cec2709565f93e0aa1c64736f6c634300080e0033\n}\n",
				"bytecode": {
					"linkReferences": {},
					"object": "61014060405234801561001157600080fd5b50604080518082018252600b81526a48616368694e667453696760a81b6020808301918252835180850190945260018452603160f81b908401528151902060e08190527fc89efdaa54c0f20c7adf612882df0950f5a951637e0307cdcb4c672f298b8bc66101008190524660a0529192917f8b73c3c69bb8fe3d512ecc4cf759cc79239f7b179b0ffacaa9a75d522b39400f6100f28184846040805160208101859052908101839052606081018290524660808201523060a082015260009060c0016040516020818303038152906040528051906020012090509392505050565b6080523060c052610120525061010792505050565b60805160a05160c05160e0516101005161012051610a9e6101566000396000610479015260006104c8015260006104a3015260006103fc01526000610426015260006104500152610a9e6000f3fe608060405234801561001057600080fd5b50600436106100625760003560e01c80630bad98cf1461006757806315adc8fc1461008d5780632aa2d38f146100a057806351693d641461008d578063ac7efdd7146100cb578063c32a1f25146100de575b600080fd5b61007a610075366004610868565b6100f1565b6040519081526020015b60405180910390f35b61007a61009b366004610868565b6101db565b6100b36100ae3660046108a3565b6102cc565b6040516001600160a01b039091168152602001610084565b6100b36100d9366004610868565b610316565b61007a6100ec36600461091f565b610376565b60007f798f2fc7cec67eb8a3e992f2d864cc1f56f87a6e9130d64fe2b2d7693eca2d2b6101216020840184610938565b61012e6020850185610961565b60405160200161013f9291906109d8565b604051602081830303815290604052805190602001208480604001906101659190610961565b6040516020016101769291906109d8565b604051602081830303815290604052805190602001206040516020016101be94939291909384526001600160a01b039290921660208401526040830152606082015260800190565b604051602081830303815290604052805190602001209050919050565b60006102c67f798f2fc7cec67eb8a3e992f2d864cc1f56f87a6e9130d64fe2b2d7693eca2d2b61020e6020850185610938565b61021b6020860186610961565b60405160200161022c9291906109d8565b604051602081830303815290604052805190602001208580604001906102529190610961565b6040516020016102639291906109d8565b604051602081830303815290604052805190602001206040516020016102ab94939291909384526001600160a01b039290921660208401526040830152606082015260800190565b6040516020818303038152906040528051906020012061037d565b92915050565b600061030e8484848080601f0160208091040260200160405190810160405280939291908181526020018383808284376000920191909152506103cb92505050565b949350505050565b600080610322836101db565b905061036f8161033560608601866109e5565b8080601f0160208091040260200160405190810160405280939291908181526020018383808284376000920191909152506103cb92505050565b9392505050565b60006102c6825b60006102c661038a6103ef565b8360405161190160f01b6020820152602281018390526042810182905260009060620160405160208183030381529060405280519060200120905092915050565b60008060006103da8585610516565b915091506103e781610584565b509392505050565b6000306001600160a01b037f00000000000000000000000000000000000000000000000000000000000000001614801561044857507f000000000000000000000000000000000000000000000000000000000000000046145b1561047257507f000000000000000000000000000000000000000000000000000000000000000090565b50604080517f00000000000000000000000000000000000000000000000000000000000000006020808301919091527f0000000000000000000000000000000000000000000000000000000000000000828401527f000000000000000000000000000000000000000000000000000000000000000060608301524660808301523060a0808401919091528351808403909101815260c0909201909252805191012090565b600080825160410361054c5760208301516040840151606085015160001a61054087828585610742565b9450945050505061057d565b8251604003610575576020830151604084015161056a86838361082f565b93509350505061057d565b506000905060025b9250929050565b600081600481111561059857610598610a2c565b036105a05750565b60018160048111156105b4576105b4610a2c565b036106065760405162461bcd60e51b815260206004820152601860248201527f45434453413a20696e76616c6964207369676e6174757265000000000000000060448201526064015b60405180910390fd5b600281600481111561061a5761061a610a2c565b036106675760405162461bcd60e51b815260206004820152601f60248201527f45434453413a20696e76616c6964207369676e6174757265206c656e6774680060448201526064016105fd565b600381600481111561067b5761067b610a2c565b036106d35760405162461bcd60e51b815260206004820152602260248201527f45434453413a20696e76616c6964207369676e6174757265202773272076616c604482015261756560f01b60648201526084016105fd565b60048160048111156106e7576106e7610a2c565b0361073f5760405162461bcd60e51b815260206004820152602260248201527f45434453413a20696e76616c6964207369676e6174757265202776272076616c604482015261756560f01b60648201526084016105fd565b50565b6000807f7fffffffffffffffffffffffffffffff5d576e7357a4501ddfe92f46681b20a08311156107795750600090506003610826565b8460ff16601b1415801561079157508460ff16601c14155b156107a25750600090506004610826565b6040805160008082526020820180845289905260ff881692820192909252606081018690526080810185905260019060a0016020604051602081039080840390855afa1580156107f6573d6000803e3d6000fd5b5050604051601f1901519150506001600160a01b03811661081f57600060019250925050610826565b9150600090505b94509492505050565b6000806001600160ff1b0383168161084c60ff86901c601b610a42565b905061085a87828885610742565b935093505050935093915050565b60006020828403121561087a57600080fd5b813567ffffffffffffffff81111561089157600080fd5b82016080818503121561036f57600080fd5b6000806000604084860312156108b857600080fd5b83359250602084013567ffffffffffffffff808211156108d757600080fd5b818601915086601f8301126108eb57600080fd5b8135818111156108fa57600080fd5b87602082850101111561090c57600080fd5b6020830194508093505050509250925092565b60006020828403121561093157600080fd5b5035919050565b60006020828403121561094a57600080fd5b81356001600160a01b038116811461036f57600080fd5b6000808335601e1984360301811261097857600080fd5b83018035915067ffffffffffffffff82111561099357600080fd5b6020019150600581901b360382131561057d57600080fd5b60006001600160fb1b038311156109c157600080fd5b8260051b8083863760009401938452509192915050565b600061030e8284866109ab565b6000808335601e198436030181126109fc57600080fd5b83018035915067ffffffffffffffff821115610a1757600080fd5b60200191503681900382131561057d57600080fd5b634e487b7160e01b600052602160045260246000fd5b60008219821115610a6357634e487b7160e01b600052601160045260246000fd5b50019056fea2646970667358221220304453c06c536c46365085e606f2f9369e9c846b596a4cec2709565f93e0aa1c64736f6c634300080e0033",
					"opcodes": "PUSH2 0x140 PUSH1 0x40 MSTORE CALLVALUE DUP1 ISZERO PUSH2 0x11 JUMPI PUSH1 0x0 DUP1 REVERT JUMPDEST POP PUSH1 0x40 DUP1 MLOAD DUP1 DUP3 ADD DUP3 MSTORE PUSH1 0xB DUP2 MSTORE PUSH11 0x48616368694E6674536967 PUSH1 0xA8 SHL PUSH1 0x20 DUP1 DUP4 ADD SWAP2 DUP3 MSTORE DUP4 MLOAD DUP1 DUP6 ADD SWAP1 SWAP5 MSTORE PUSH1 0x1 DUP5 MSTORE PUSH1 0x31 PUSH1 0xF8 SHL SWAP1 DUP5 ADD MSTORE DUP2 MLOAD SWAP1 KECCAK256 PUSH1 0xE0 DUP2 SWAP1 MSTORE PUSH32 0xC89EFDAA54C0F20C7ADF612882DF0950F5A951637E0307CDCB4C672F298B8BC6 PUSH2 0x100 DUP2 SWAP1 MSTORE CHAINID PUSH1 0xA0 MSTORE SWAP2 SWAP3 SWAP2 PUSH32 0x8B73C3C69BB8FE3D512ECC4CF759CC79239F7B179B0FFACAA9A75D522B39400F PUSH2 0xF2 DUP2 DUP5 DUP5 PUSH1 0x40 DUP1 MLOAD PUSH1 0x20 DUP2 ADD DUP6 SWAP1 MSTORE SWAP1 DUP2 ADD DUP4 SWAP1 MSTORE PUSH1 0x60 DUP2 ADD DUP3 SWAP1 MSTORE CHAINID PUSH1 0x80 DUP3 ADD MSTORE ADDRESS PUSH1 0xA0 DUP3 ADD MSTORE PUSH1 0x0 SWAP1 PUSH1 0xC0 ADD PUSH1 0x40 MLOAD PUSH1 0x20 DUP2 DUP4 SUB SUB DUP2 MSTORE SWAP1 PUSH1 0x40 MSTORE DUP1 MLOAD SWAP1 PUSH1 0x20 ADD KECCAK256 SWAP1 POP SWAP4 SWAP3 POP POP POP JUMP JUMPDEST PUSH1 0x80 MSTORE ADDRESS PUSH1 0xC0 MSTORE PUSH2 0x120 MSTORE POP PUSH2 0x107 SWAP3 POP POP POP JUMP JUMPDEST PUSH1 0x80 MLOAD PUSH1 0xA0 MLOAD PUSH1 0xC0 MLOAD PUSH1 0xE0 MLOAD PUSH2 0x100 MLOAD PUSH2 0x120 MLOAD PUSH2 0xA9E PUSH2 0x156 PUSH1 0x0 CODECOPY PUSH1 0x0 PUSH2 0x479 ADD MSTORE PUSH1 0x0 PUSH2 0x4C8 ADD MSTORE PUSH1 0x0 PUSH2 0x4A3 ADD MSTORE PUSH1 0x0 PUSH2 0x3FC ADD MSTORE PUSH1 0x0 PUSH2 0x426 ADD MSTORE PUSH1 0x0 PUSH2 0x450 ADD MSTORE PUSH2 0xA9E PUSH1 0x0 RETURN INVALID PUSH1 0x80 PUSH1 0x40 MSTORE CALLVALUE DUP1 ISZERO PUSH2 0x10 JUMPI PUSH1 0x0 DUP1 REVERT JUMPDEST POP PUSH1 0x4 CALLDATASIZE LT PUSH2 0x62 JUMPI PUSH1 0x0 CALLDATALOAD PUSH1 0xE0 SHR DUP1 PUSH4 0xBAD98CF EQ PUSH2 0x67 JUMPI DUP1 PUSH4 0x15ADC8FC EQ PUSH2 0x8D JUMPI DUP1 PUSH4 0x2AA2D38F EQ PUSH2 0xA0 JUMPI DUP1 PUSH4 0x51693D64 EQ PUSH2 0x8D JUMPI DUP1 PUSH4 0xAC7EFDD7 EQ PUSH2 0xCB JUMPI DUP1 PUSH4 0xC32A1F25 EQ PUSH2 0xDE JUMPI JUMPDEST PUSH1 0x0 DUP1 REVERT JUMPDEST PUSH2 0x7A PUSH2 0x75 CALLDATASIZE PUSH1 0x4 PUSH2 0x868 JUMP JUMPDEST PUSH2 0xF1 JUMP JUMPDEST PUSH1 0x40 MLOAD SWAP1 DUP2 MSTORE PUSH1 0x20 ADD JUMPDEST PUSH1 0x40 MLOAD DUP1 SWAP2 SUB SWAP1 RETURN JUMPDEST PUSH2 0x7A PUSH2 0x9B CALLDATASIZE PUSH1 0x4 PUSH2 0x868 JUMP JUMPDEST PUSH2 0x1DB JUMP JUMPDEST PUSH2 0xB3 PUSH2 0xAE CALLDATASIZE PUSH1 0x4 PUSH2 0x8A3 JUMP JUMPDEST PUSH2 0x2CC JUMP JUMPDEST PUSH1 0x40 MLOAD PUSH1 0x1 PUSH1 0x1 PUSH1 0xA0 SHL SUB SWAP1 SWAP2 AND DUP2 MSTORE PUSH1 0x20 ADD PUSH2 0x84 JUMP JUMPDEST PUSH2 0xB3 PUSH2 0xD9 CALLDATASIZE PUSH1 0x4 PUSH2 0x868 JUMP JUMPDEST PUSH2 0x316 JUMP JUMPDEST PUSH2 0x7A PUSH2 0xEC CALLDATASIZE PUSH1 0x4 PUSH2 0x91F JUMP JUMPDEST PUSH2 0x376 JUMP JUMPDEST PUSH1 0x0 PUSH32 0x798F2FC7CEC67EB8A3E992F2D864CC1F56F87A6E9130D64FE2B2D7693ECA2D2B PUSH2 0x121 PUSH1 0x20 DUP5 ADD DUP5 PUSH2 0x938 JUMP JUMPDEST PUSH2 0x12E PUSH1 0x20 DUP6 ADD DUP6 PUSH2 0x961 JUMP JUMPDEST PUSH1 0x40 MLOAD PUSH1 0x20 ADD PUSH2 0x13F SWAP3 SWAP2 SWAP1 PUSH2 0x9D8 JUMP JUMPDEST PUSH1 0x40 MLOAD PUSH1 0x20 DUP2 DUP4 SUB SUB DUP2 MSTORE SWAP1 PUSH1 0x40 MSTORE DUP1 MLOAD SWAP1 PUSH1 0x20 ADD KECCAK256 DUP5 DUP1 PUSH1 0x40 ADD SWAP1 PUSH2 0x165 SWAP2 SWAP1 PUSH2 0x961 JUMP JUMPDEST PUSH1 0x40 MLOAD PUSH1 0x20 ADD PUSH2 0x176 SWAP3 SWAP2 SWAP1 PUSH2 0x9D8 JUMP JUMPDEST PUSH1 0x40 MLOAD PUSH1 0x20 DUP2 DUP4 SUB SUB DUP2 MSTORE SWAP1 PUSH1 0x40 MSTORE DUP1 MLOAD SWAP1 PUSH1 0x20 ADD KECCAK256 PUSH1 0x40 MLOAD PUSH1 0x20 ADD PUSH2 0x1BE SWAP5 SWAP4 SWAP3 SWAP2 SWAP1 SWAP4 DUP5 MSTORE PUSH1 0x1 PUSH1 0x1 PUSH1 0xA0 SHL SUB SWAP3 SWAP1 SWAP3 AND PUSH1 0x20 DUP5 ADD MSTORE PUSH1 0x40 DUP4 ADD MSTORE PUSH1 0x60 DUP3 ADD MSTORE PUSH1 0x80 ADD SWAP1 JUMP JUMPDEST PUSH1 0x40 MLOAD PUSH1 0x20 DUP2 DUP4 SUB SUB DUP2 MSTORE SWAP1 PUSH1 0x40 MSTORE DUP1 MLOAD SWAP1 PUSH1 0x20 ADD KECCAK256 SWAP1 POP SWAP2 SWAP1 POP JUMP JUMPDEST PUSH1 0x0 PUSH2 0x2C6 PUSH32 0x798F2FC7CEC67EB8A3E992F2D864CC1F56F87A6E9130D64FE2B2D7693ECA2D2B PUSH2 0x20E PUSH1 0x20 DUP6 ADD DUP6 PUSH2 0x938 JUMP JUMPDEST PUSH2 0x21B PUSH1 0x20 DUP7 ADD DUP7 PUSH2 0x961 JUMP JUMPDEST PUSH1 0x40 MLOAD PUSH1 0x20 ADD PUSH2 0x22C SWAP3 SWAP2 SWAP1 PUSH2 0x9D8 JUMP JUMPDEST PUSH1 0x40 MLOAD PUSH1 0x20 DUP2 DUP4 SUB SUB DUP2 MSTORE SWAP1 PUSH1 0x40 MSTORE DUP1 MLOAD SWAP1 PUSH1 0x20 ADD KECCAK256 DUP6 DUP1 PUSH1 0x40 ADD SWAP1 PUSH2 0x252 SWAP2 SWAP1 PUSH2 0x961 JUMP JUMPDEST PUSH1 0x40 MLOAD PUSH1 0x20 ADD PUSH2 0x263 SWAP3 SWAP2 SWAP1 PUSH2 0x9D8 JUMP JUMPDEST PUSH1 0x40 MLOAD PUSH1 0x20 DUP2 DUP4 SUB SUB DUP2 MSTORE SWAP1 PUSH1 0x40 MSTORE DUP1 MLOAD SWAP1 PUSH1 0x20 ADD KECCAK256 PUSH1 0x40 MLOAD PUSH1 0x20 ADD PUSH2 0x2AB SWAP5 SWAP4 SWAP3 SWAP2 SWAP1 SWAP4 DUP5 MSTORE PUSH1 0x1 PUSH1 0x1 PUSH1 0xA0 SHL SUB SWAP3 SWAP1 SWAP3 AND PUSH1 0x20 DUP5 ADD MSTORE PUSH1 0x40 DUP4 ADD MSTORE PUSH1 0x60 DUP3 ADD MSTORE PUSH1 0x80 ADD SWAP1 JUMP JUMPDEST PUSH1 0x40 MLOAD PUSH1 0x20 DUP2 DUP4 SUB SUB DUP2 MSTORE SWAP1 PUSH1 0x40 MSTORE DUP1 MLOAD SWAP1 PUSH1 0x20 ADD KECCAK256 PUSH2 0x37D JUMP JUMPDEST SWAP3 SWAP2 POP POP JUMP JUMPDEST PUSH1 0x0 PUSH2 0x30E DUP5 DUP5 DUP5 DUP1 DUP1 PUSH1 0x1F ADD PUSH1 0x20 DUP1 SWAP2 DIV MUL PUSH1 0x20 ADD PUSH1 0x40 MLOAD SWAP1 DUP2 ADD PUSH1 0x40 MSTORE DUP1 SWAP4 SWAP3 SWAP2 SWAP1 DUP2 DUP2 MSTORE PUSH1 0x20 ADD DUP4 DUP4 DUP1 DUP3 DUP5 CALLDATACOPY PUSH1 0x0 SWAP3 ADD SWAP2 SWAP1 SWAP2 MSTORE POP PUSH2 0x3CB SWAP3 POP POP POP JUMP JUMPDEST SWAP5 SWAP4 POP POP POP POP JUMP JUMPDEST PUSH1 0x0 DUP1 PUSH2 0x322 DUP4 PUSH2 0x1DB JUMP JUMPDEST SWAP1 POP PUSH2 0x36F DUP2 PUSH2 0x335 PUSH1 0x60 DUP7 ADD DUP7 PUSH2 0x9E5 JUMP JUMPDEST DUP1 DUP1 PUSH1 0x1F ADD PUSH1 0x20 DUP1 SWAP2 DIV MUL PUSH1 0x20 ADD PUSH1 0x40 MLOAD SWAP1 DUP2 ADD PUSH1 0x40 MSTORE DUP1 SWAP4 SWAP3 SWAP2 SWAP1 DUP2 DUP2 MSTORE PUSH1 0x20 ADD DUP4 DUP4 DUP1 DUP3 DUP5 CALLDATACOPY PUSH1 0x0 SWAP3 ADD SWAP2 SWAP1 SWAP2 MSTORE POP PUSH2 0x3CB SWAP3 POP POP POP JUMP JUMPDEST SWAP4 SWAP3 POP POP POP JUMP JUMPDEST PUSH1 0x0 PUSH2 0x2C6 DUP3 JUMPDEST PUSH1 0x0 PUSH2 0x2C6 PUSH2 0x38A PUSH2 0x3EF JUMP JUMPDEST DUP4 PUSH1 0x40 MLOAD PUSH2 0x1901 PUSH1 0xF0 SHL PUSH1 0x20 DUP3 ADD MSTORE PUSH1 0x22 DUP2 ADD DUP4 SWAP1 MSTORE PUSH1 0x42 DUP2 ADD DUP3 SWAP1 MSTORE PUSH1 0x0 SWAP1 PUSH1 0x62 ADD PUSH1 0x40 MLOAD PUSH1 0x20 DUP2 DUP4 SUB SUB DUP2 MSTORE SWAP1 PUSH1 0x40 MSTORE DUP1 MLOAD SWAP1 PUSH1 0x20 ADD KECCAK256 SWAP1 POP SWAP3 SWAP2 POP POP JUMP JUMPDEST PUSH1 0x0 DUP1 PUSH1 0x0 PUSH2 0x3DA DUP6 DUP6 PUSH2 0x516 JUMP JUMPDEST SWAP2 POP SWAP2 POP PUSH2 0x3E7 DUP2 PUSH2 0x584 JUMP JUMPDEST POP SWAP4 SWAP3 POP POP POP JUMP JUMPDEST PUSH1 0x0 ADDRESS PUSH1 0x1 PUSH1 0x1 PUSH1 0xA0 SHL SUB PUSH32 0x0 AND EQ DUP1 ISZERO PUSH2 0x448 JUMPI POP PUSH32 0x0 CHAINID EQ JUMPDEST ISZERO PUSH2 0x472 JUMPI POP PUSH32 0x0 SWAP1 JUMP JUMPDEST POP PUSH1 0x40 DUP1 MLOAD PUSH32 0x0 PUSH1 0x20 DUP1 DUP4 ADD SWAP2 SWAP1 SWAP2 MSTORE PUSH32 0x0 DUP3 DUP5 ADD MSTORE PUSH32 0x0 PUSH1 0x60 DUP4 ADD MSTORE CHAINID PUSH1 0x80 DUP4 ADD MSTORE ADDRESS PUSH1 0xA0 DUP1 DUP5 ADD SWAP2 SWAP1 SWAP2 MSTORE DUP4 MLOAD DUP1 DUP5 SUB SWAP1 SWAP2 ADD DUP2 MSTORE PUSH1 0xC0 SWAP1 SWAP3 ADD SWAP1 SWAP3 MSTORE DUP1 MLOAD SWAP2 ADD KECCAK256 SWAP1 JUMP JUMPDEST PUSH1 0x0 DUP1 DUP3 MLOAD PUSH1 0x41 SUB PUSH2 0x54C JUMPI PUSH1 0x20 DUP4 ADD MLOAD PUSH1 0x40 DUP5 ADD MLOAD PUSH1 0x60 DUP6 ADD MLOAD PUSH1 0x0 BYTE PUSH2 0x540 DUP8 DUP3 DUP6 DUP6 PUSH2 0x742 JUMP JUMPDEST SWAP5 POP SWAP5 POP POP POP POP PUSH2 0x57D JUMP JUMPDEST DUP3 MLOAD PUSH1 0x40 SUB PUSH2 0x575 JUMPI PUSH1 0x20 DUP4 ADD MLOAD PUSH1 0x40 DUP5 ADD MLOAD PUSH2 0x56A DUP7 DUP4 DUP4 PUSH2 0x82F JUMP JUMPDEST SWAP4 POP SWAP4 POP POP POP PUSH2 0x57D JUMP JUMPDEST POP PUSH1 0x0 SWAP1 POP PUSH1 0x2 JUMPDEST SWAP3 POP SWAP3 SWAP1 POP JUMP JUMPDEST PUSH1 0x0 DUP2 PUSH1 0x4 DUP2 GT ISZERO PUSH2 0x598 JUMPI PUSH2 0x598 PUSH2 0xA2C JUMP JUMPDEST SUB PUSH2 0x5A0 JUMPI POP JUMP JUMPDEST PUSH1 0x1 DUP2 PUSH1 0x4 DUP2 GT ISZERO PUSH2 0x5B4 JUMPI PUSH2 0x5B4 PUSH2 0xA2C JUMP JUMPDEST SUB PUSH2 0x606 JUMPI PUSH1 0x40 MLOAD PUSH3 0x461BCD PUSH1 0xE5 SHL DUP2 MSTORE PUSH1 0x20 PUSH1 0x4 DUP3 ADD MSTORE PUSH1 0x18 PUSH1 0x24 DUP3 ADD MSTORE PUSH32 0x45434453413A20696E76616C6964207369676E61747572650000000000000000 PUSH1 0x44 DUP3 ADD MSTORE PUSH1 0x64 ADD JUMPDEST PUSH1 0x40 MLOAD DUP1 SWAP2 SUB SWAP1 REVERT JUMPDEST PUSH1 0x2 DUP2 PUSH1 0x4 DUP2 GT ISZERO PUSH2 0x61A JUMPI PUSH2 0x61A PUSH2 0xA2C JUMP JUMPDEST SUB PUSH2 0x667 JUMPI PUSH1 0x40 MLOAD PUSH3 0x461BCD PUSH1 0xE5 SHL DUP2 MSTORE PUSH1 0x20 PUSH1 0x4 DUP3 ADD MSTORE PUSH1 0x1F PUSH1 0x24 DUP3 ADD MSTORE PUSH32 0x45434453413A20696E76616C6964207369676E6174757265206C656E67746800 PUSH1 0x44 DUP3 ADD MSTORE PUSH1 0x64 ADD PUSH2 0x5FD JUMP JUMPDEST PUSH1 0x3 DUP2 PUSH1 0x4 DUP2 GT ISZERO PUSH2 0x67B JUMPI PUSH2 0x67B PUSH2 0xA2C JUMP JUMPDEST SUB PUSH2 0x6D3 JUMPI PUSH1 0x40 MLOAD PUSH3 0x461BCD PUSH1 0xE5 SHL DUP2 MSTORE PUSH1 0x20 PUSH1 0x4 DUP3 ADD MSTORE PUSH1 0x22 PUSH1 0x24 DUP3 ADD MSTORE PUSH32 0x45434453413A20696E76616C6964207369676E6174757265202773272076616C PUSH1 0x44 DUP3 ADD MSTORE PUSH2 0x7565 PUSH1 0xF0 SHL PUSH1 0x64 DUP3 ADD MSTORE PUSH1 0x84 ADD PUSH2 0x5FD JUMP JUMPDEST PUSH1 0x4 DUP2 PUSH1 0x4 DUP2 GT ISZERO PUSH2 0x6E7 JUMPI PUSH2 0x6E7 PUSH2 0xA2C JUMP JUMPDEST SUB PUSH2 0x73F JUMPI PUSH1 0x40 MLOAD PUSH3 0x461BCD PUSH1 0xE5 SHL DUP2 MSTORE PUSH1 0x20 PUSH1 0x4 DUP3 ADD MSTORE PUSH1 0x22 PUSH1 0x24 DUP3 ADD MSTORE PUSH32 0x45434453413A20696E76616C6964207369676E6174757265202776272076616C PUSH1 0x44 DUP3 ADD MSTORE PUSH2 0x7565 PUSH1 0xF0 SHL PUSH1 0x64 DUP3 ADD MSTORE PUSH1 0x84 ADD PUSH2 0x5FD JUMP JUMPDEST POP JUMP JUMPDEST PUSH1 0x0 DUP1 PUSH32 0x7FFFFFFFFFFFFFFFFFFFFFFFFFFFFFFF5D576E7357A4501DDFE92F46681B20A0 DUP4 GT ISZERO PUSH2 0x779 JUMPI POP PUSH1 0x0 SWAP1 POP PUSH1 0x3 PUSH2 0x826 JUMP JUMPDEST DUP5 PUSH1 0xFF AND PUSH1 0x1B EQ ISZERO DUP1 ISZERO PUSH2 0x791 JUMPI POP DUP5 PUSH1 0xFF AND PUSH1 0x1C EQ ISZERO JUMPDEST ISZERO PUSH2 0x7A2 JUMPI POP PUSH1 0x0 SWAP1 POP PUSH1 0x4 PUSH2 0x826 JUMP JUMPDEST PUSH1 0x40 DUP1 MLOAD PUSH1 0x0 DUP1 DUP3 MSTORE PUSH1 0x20 DUP3 ADD DUP1 DUP5 MSTORE DUP10 SWAP1 MSTORE PUSH1 0xFF DUP9 AND SWAP3 DUP3 ADD SWAP3 SWAP1 SWAP3 MSTORE PUSH1 0x60 DUP2 ADD DUP7 SWAP1 MSTORE PUSH1 0x80 DUP2 ADD DUP6 SWAP1 MSTORE PUSH1 0x1 SWAP1 PUSH1 0xA0 ADD PUSH1 0x20 PUSH1 0x40 MLOAD PUSH1 0x20 DUP2 SUB SWAP1 DUP1 DUP5 SUB SWAP1 DUP6 GAS STATICCALL ISZERO DUP1 ISZERO PUSH2 0x7F6 JUMPI RETURNDATASIZE PUSH1 0x0 DUP1 RETURNDATACOPY RETURNDATASIZE PUSH1 0x0 REVERT JUMPDEST POP POP PUSH1 0x40 MLOAD PUSH1 0x1F NOT ADD MLOAD SWAP2 POP POP PUSH1 0x1 PUSH1 0x1 PUSH1 0xA0 SHL SUB DUP2 AND PUSH2 0x81F JUMPI PUSH1 0x0 PUSH1 0x1 SWAP3 POP SWAP3 POP POP PUSH2 0x826 JUMP JUMPDEST SWAP2 POP PUSH1 0x0 SWAP1 POP JUMPDEST SWAP5 POP SWAP5 SWAP3 POP POP POP JUMP JUMPDEST PUSH1 0x0 DUP1 PUSH1 0x1 PUSH1 0x1 PUSH1 0xFF SHL SUB DUP4 AND DUP2 PUSH2 0x84C PUSH1 0xFF DUP7 SWAP1 SHR PUSH1 0x1B PUSH2 0xA42 JUMP JUMPDEST SWAP1 POP PUSH2 0x85A DUP8 DUP3 DUP9 DUP6 PUSH2 0x742 JUMP JUMPDEST SWAP4 POP SWAP4 POP POP POP SWAP4 POP SWAP4 SWAP2 POP POP JUMP JUMPDEST PUSH1 0x0 PUSH1 0x20 DUP3 DUP5 SUB SLT ISZERO PUSH2 0x87A JUMPI PUSH1 0x0 DUP1 REVERT JUMPDEST DUP2 CALLDATALOAD PUSH8 0xFFFFFFFFFFFFFFFF DUP2 GT ISZERO PUSH2 0x891 JUMPI PUSH1 0x0 DUP1 REVERT JUMPDEST DUP3 ADD PUSH1 0x80 DUP2 DUP6 SUB SLT ISZERO PUSH2 0x36F JUMPI PUSH1 0x0 DUP1 REVERT JUMPDEST PUSH1 0x0 DUP1 PUSH1 0x0 PUSH1 0x40 DUP5 DUP7 SUB SLT ISZERO PUSH2 0x8B8 JUMPI PUSH1 0x0 DUP1 REVERT JUMPDEST DUP4 CALLDATALOAD SWAP3 POP PUSH1 0x20 DUP5 ADD CALLDATALOAD PUSH8 0xFFFFFFFFFFFFFFFF DUP1 DUP3 GT ISZERO PUSH2 0x8D7 JUMPI PUSH1 0x0 DUP1 REVERT JUMPDEST DUP2 DUP7 ADD SWAP2 POP DUP7 PUSH1 0x1F DUP4 ADD SLT PUSH2 0x8EB JUMPI PUSH1 0x0 DUP1 REVERT JUMPDEST DUP2 CALLDATALOAD DUP2 DUP2 GT ISZERO PUSH2 0x8FA JUMPI PUSH1 0x0 DUP1 REVERT JUMPDEST DUP8 PUSH1 0x20 DUP3 DUP6 ADD ADD GT ISZERO PUSH2 0x90C JUMPI PUSH1 0x0 DUP1 REVERT JUMPDEST PUSH1 0x20 DUP4 ADD SWAP5 POP DUP1 SWAP4 POP POP POP POP SWAP3 POP SWAP3 POP SWAP3 JUMP JUMPDEST PUSH1 0x0 PUSH1 0x20 DUP3 DUP5 SUB SLT ISZERO PUSH2 0x931 JUMPI PUSH1 0x0 DUP1 REVERT JUMPDEST POP CALLDATALOAD SWAP2 SWAP1 POP JUMP JUMPDEST PUSH1 0x0 PUSH1 0x20 DUP3 DUP5 SUB SLT ISZERO PUSH2 0x94A JUMPI PUSH1 0x0 DUP1 REVERT JUMPDEST DUP2 CALLDATALOAD PUSH1 0x1 PUSH1 0x1 PUSH1 0xA0 SHL SUB DUP2 AND DUP2 EQ PUSH2 0x36F JUMPI PUSH1 0x0 DUP1 REVERT JUMPDEST PUSH1 0x0 DUP1 DUP4 CALLDATALOAD PUSH1 0x1E NOT DUP5 CALLDATASIZE SUB ADD DUP2 SLT PUSH2 0x978 JUMPI PUSH1 0x0 DUP1 REVERT JUMPDEST DUP4 ADD DUP1 CALLDATALOAD SWAP2 POP PUSH8 0xFFFFFFFFFFFFFFFF DUP3 GT ISZERO PUSH2 0x993 JUMPI PUSH1 0x0 DUP1 REVERT JUMPDEST PUSH1 0x20 ADD SWAP2 POP PUSH1 0x5 DUP2 SWAP1 SHL CALLDATASIZE SUB DUP3 SGT ISZERO PUSH2 0x57D JUMPI PUSH1 0x0 DUP1 REVERT JUMPDEST PUSH1 0x0 PUSH1 0x1 PUSH1 0x1 PUSH1 0xFB SHL SUB DUP4 GT ISZERO PUSH2 0x9C1 JUMPI PUSH1 0x0 DUP1 REVERT JUMPDEST DUP3 PUSH1 0x5 SHL DUP1 DUP4 DUP7 CALLDATACOPY PUSH1 0x0 SWAP5 ADD SWAP4 DUP5 MSTORE POP SWAP2 SWAP3 SWAP2 POP POP JUMP JUMPDEST PUSH1 0x0 PUSH2 0x30E DUP3 DUP5 DUP7 PUSH2 0x9AB JUMP JUMPDEST PUSH1 0x0 DUP1 DUP4 CALLDATALOAD PUSH1 0x1E NOT DUP5 CALLDATASIZE SUB ADD DUP2 SLT PUSH2 0x9FC JUMPI PUSH1 0x0 DUP1 REVERT JUMPDEST DUP4 ADD DUP1 CALLDATALOAD SWAP2 POP PUSH8 0xFFFFFFFFFFFFFFFF DUP3 GT ISZERO PUSH2 0xA17 JUMPI PUSH1 0x0 DUP1 REVERT JUMPDEST PUSH1 0x20 ADD SWAP2 POP CALLDATASIZE DUP2 SWAP1 SUB DUP3 SGT ISZERO PUSH2 0x57D JUMPI PUSH1 0x0 DUP1 REVERT JUMPDEST PUSH4 0x4E487B71 PUSH1 0xE0 SHL PUSH1 0x0 MSTORE PUSH1 0x21 PUSH1 0x4 MSTORE PUSH1 0x24 PUSH1 0x0 REVERT JUMPDEST PUSH1 0x0 DUP3 NOT DUP3 GT ISZERO PUSH2 0xA63 JUMPI PUSH4 0x4E487B71 PUSH1 0xE0 SHL PUSH1 0x0 MSTORE PUSH1 0x11 PUSH1 0x4 MSTORE PUSH1 0x24 PUSH1 0x0 REVERT JUMPDEST POP ADD SWAP1 JUMP INVALID LOG2 PUSH5 0x6970667358 0x22 SLT KECCAK256 ADDRESS DIFFICULTY MSTORE8 0xC0 PUSH13 0x536C46365085E606F2F9369E9C DUP5 PUSH12 0x596A4CEC2709565F93E0AA1C PUSH5 0x736F6C6343 STOP ADDMOD 0xE STOP CALLER "
				},
				"gasEstimates": {
					"creation": {
						"codeDepositCost": "543600",
						"executionCost": "infinite",
						"totalCost": "infinite"
					},
					"external": {
						"_hash((address,uint256[],bytes32[],bytes))": "infinite",
						"eip712Hash((address,uint256[],bytes32[],bytes))": "infinite",
						"hashedData(bytes32)": "infinite",
						"structHash((address,uint256[],bytes32[],bytes))": "infinite",
						"testVerify(bytes32,bytes)": "infinite",
						"verifySigner((address,uint256[],bytes32[],bytes))": "infinite"
					}
				},
				"methodIdentifiers": {
					"_hash((address,uint256[],bytes32[],bytes))": "15adc8fc",
					"eip712Hash((address,uint256[],bytes32[],bytes))": "51693d64",
					"hashedData(bytes32)": "c32a1f25",
					"structHash((address,uint256[],bytes32[],bytes))": "0bad98cf",
					"testVerify(bytes32,bytes)": "2aa2d38f",
					"verifySigner((address,uint256[],bytes32[],bytes))": "ac7efdd7"
				}
			},
			"storageLayout": {
				"storage": [],
				"types": null
			},
			"userdoc": {
				"kind": "user",
				"methods": {},
				"version": 1
			}
		}
	}
}