{
	"contracts/HACHIWallet.sol": {
		"HachiWallet": {
			"abi": [
				{
					"inputs": [
						{
							"internalType": "address[]",
							"name": "_address",
							"type": "address[]"
						},
						{
							"internalType": "uint256[]",
							"name": "_shares",
							"type": "uint256[]"
						}
					],
					"stateMutability": "nonpayable",
					"type": "constructor"
				},
				{
					"anonymous": false,
					"inputs": [
						{
							"indexed": true,
							"internalType": "contract IERC20",
							"name": "token",
							"type": "address"
						},
						{
							"indexed": false,
							"internalType": "address",
							"name": "to",
							"type": "address"
						},
						{
							"indexed": false,
							"internalType": "uint256",
							"name": "amount",
							"type": "uint256"
						}
					],
					"name": "ERC20PaymentReleased",
					"type": "event"
				},
				{
					"anonymous": false,
					"inputs": [
						{
							"indexed": true,
							"internalType": "address",
							"name": "previousOwner",
							"type": "address"
						},
						{
							"indexed": true,
							"internalType": "address",
							"name": "newOwner",
							"type": "address"
						}
					],
					"name": "OwnershipTransferred",
					"type": "event"
				},
				{
					"anonymous": false,
					"inputs": [
						{
							"indexed": false,
							"internalType": "address",
							"name": "account",
							"type": "address"
						},
						{
							"indexed": false,
							"internalType": "uint256",
							"name": "shares",
							"type": "uint256"
						}
					],
					"name": "PayeeAdded",
					"type": "event"
				},
				{
					"anonymous": false,
					"inputs": [
						{
							"indexed": false,
							"internalType": "address",
							"name": "from",
							"type": "address"
						},
						{
							"indexed": false,
							"internalType": "uint256",
							"name": "amount",
							"type": "uint256"
						}
					],
					"name": "PaymentReceived",
					"type": "event"
				},
				{
					"anonymous": false,
					"inputs": [
						{
							"indexed": false,
							"internalType": "address",
							"name": "to",
							"type": "address"
						},
						{
							"indexed": false,
							"internalType": "uint256",
							"name": "amount",
							"type": "uint256"
						}
					],
					"name": "PaymentReleased",
					"type": "event"
				},
				{
					"inputs": [],
					"name": "owner",
					"outputs": [
						{
							"internalType": "address",
							"name": "",
							"type": "address"
						}
					],
					"stateMutability": "view",
					"type": "function"
				},
				{
					"inputs": [
						{
							"internalType": "uint256",
							"name": "index",
							"type": "uint256"
						}
					],
					"name": "payee",
					"outputs": [
						{
							"internalType": "address",
							"name": "",
							"type": "address"
						}
					],
					"stateMutability": "view",
					"type": "function"
				},
				{
					"inputs": [
						{
							"internalType": "address payable",
							"name": "account",
							"type": "address"
						}
					],
					"name": "release",
					"outputs": [],
					"stateMutability": "nonpayable",
					"type": "function"
				},
				{
					"inputs": [
						{
							"internalType": "contract IERC20",
							"name": "token",
							"type": "address"
						},
						{
							"internalType": "address",
							"name": "account",
							"type": "address"
						}
					],
					"name": "release",
					"outputs": [],
					"stateMutability": "nonpayable",
					"type": "function"
				},
				{
					"inputs": [
						{
							"internalType": "contract IERC20",
							"name": "token",
							"type": "address"
						},
						{
							"internalType": "address",
							"name": "account",
							"type": "address"
						}
					],
					"name": "released",
					"outputs": [
						{
							"internalType": "uint256",
							"name": "",
							"type": "uint256"
						}
					],
					"stateMutability": "view",
					"type": "function"
				},
				{
					"inputs": [
						{
							"internalType": "address",
							"name": "account",
							"type": "address"
						}
					],
					"name": "released",
					"outputs": [
						{
							"internalType": "uint256",
							"name": "",
							"type": "uint256"
						}
					],
					"stateMutability": "view",
					"type": "function"
				},
				{
					"inputs": [],
					"name": "renounceOwnership",
					"outputs": [],
					"stateMutability": "nonpayable",
					"type": "function"
				},
				{
					"inputs": [
						{
							"internalType": "address",
							"name": "account",
							"type": "address"
						}
					],
					"name": "shares",
					"outputs": [
						{
							"internalType": "uint256",
							"name": "",
							"type": "uint256"
						}
					],
					"stateMutability": "view",
					"type": "function"
				},
				{
					"inputs": [
						{
							"internalType": "contract IERC20",
							"name": "token",
							"type": "address"
						}
					],
					"name": "totalReleased",
					"outputs": [
						{
							"internalType": "uint256",
							"name": "",
							"type": "uint256"
						}
					],
					"stateMutability": "view",
					"type": "function"
				},
				{
					"inputs": [],
					"name": "totalReleased",
					"outputs": [
						{
							"internalType": "uint256",
							"name": "",
							"type": "uint256"
						}
					],
					"stateMutability": "view",
					"type": "function"
				},
				{
					"inputs": [],
					"name": "totalShares",
					"outputs": [
						{
							"internalType": "uint256",
							"name": "",
							"type": "uint256"
						}
					],
					"stateMutability": "view",
					"type": "function"
				},
				{
					"inputs": [
						{
							"internalType": "address",
							"name": "newOwner",
							"type": "address"
						}
					],
					"name": "transferOwnership",
					"outputs": [],
					"stateMutability": "nonpayable",
					"type": "function"
				},
				{
					"stateMutability": "payable",
					"type": "receive"
				}
			],
			"devdoc": {
				"kind": "dev",
				"methods": {
					"owner()": {
						"details": "Returns the address of the current owner."
					},
					"payee(uint256)": {
						"details": "Getter for the address of the payee number `index`."
					},
					"release(address)": {
						"details": "Triggers a transfer to `account` of the amount of Ether they are owed, according to their percentage of the total shares and their previous withdrawals."
					},
					"release(address,address)": {
						"details": "Triggers a transfer to `account` of the amount of `token` tokens they are owed, according to their percentage of the total shares and their previous withdrawals. `token` must be the address of an IERC20 contract."
					},
					"released(address)": {
						"details": "Getter for the amount of Ether already released to a payee."
					},
					"released(address,address)": {
						"details": "Getter for the amount of `token` tokens already released to a payee. `token` should be the address of an IERC20 contract."
					},
					"renounceOwnership()": {
						"details": "Leaves the contract without owner. It will not be possible to call `onlyOwner` functions anymore. Can only be called by the current owner. NOTE: Renouncing ownership will leave the contract without an owner, thereby removing any functionality that is only available to the owner."
					},
					"shares(address)": {
						"details": "Getter for the amount of shares held by an account."
					},
					"totalReleased()": {
						"details": "Getter for the total amount of Ether already released."
					},
					"totalReleased(address)": {
						"details": "Getter for the total amount of `token` already released. `token` should be the address of an IERC20 contract."
					},
					"totalShares()": {
						"details": "Getter for the total shares held by payees."
					},
					"transferOwnership(address)": {
						"details": "Transfers ownership of the contract to a new account (`newOwner`). Can only be called by the current owner."
					}
				},
				"version": 1
			},
			"evm": {
				"assembly": "    /* \"contracts/HACHIWallet.sol\":175:520  contract HachiWallet is PaymentSplitter, Ownable {... */\n  mstore(0x40, 0x80)\n    /* \"contracts/HACHIWallet.sol\":231:366  constructor(... */\n  callvalue\n  dup1\n  iszero\n  tag_1\n  jumpi\n  0x00\n  dup1\n  revert\ntag_1:\n  pop\n  mload(0x40)\n  sub(codesize, bytecodeSize)\n  dup1\n  bytecodeSize\n  dup4\n  codecopy\n  dup2\n  add\n  0x40\n  dup2\n  swap1\n  mstore\n  tag_2\n  swap2\n  tag_3\n  jump\t// in\ntag_2:\n    /* \"contracts/HACHIWallet.sol\":340:348  _address */\n  dup2\n    /* \"contracts/HACHIWallet.sol\":350:357  _shares */\n  dup2\n    /* \"@openzeppelin/contracts/finance/PaymentSplitter.sol\":2434:2441  shares_ */\n  dup1\n    /* \"@openzeppelin/contracts/finance/PaymentSplitter.sol\":2434:2448  shares_.length */\n  mload\n    /* \"@openzeppelin/contracts/finance/PaymentSplitter.sol\":2417:2423  payees */\n  dup3\n    /* \"@openzeppelin/contracts/finance/PaymentSplitter.sol\":2417:2430  payees.length */\n  mload\n    /* \"@openzeppelin/contracts/finance/PaymentSplitter.sol\":2417:2448  payees.length == shares_.length */\n  eq\n    /* \"@openzeppelin/contracts/finance/PaymentSplitter.sol\":2409:2503  require(payees.length == shares_.length, \"PaymentSplitter: payees and shares length mismatch\") */\n  tag_8\n  jumpi\n  mload(0x40)\n  shl(0xe5, 0x461bcd)\n  dup2\n  mstore\n    /* \"#utility.yul\":2803:2805   */\n  0x20\n    /* \"@openzeppelin/contracts/finance/PaymentSplitter.sol\":2409:2503  require(payees.length == shares_.length, \"PaymentSplitter: payees and shares length mismatch\") */\n  0x04\n  dup3\n  add\n    /* \"#utility.yul\":2785:2806   */\n  mstore\n    /* \"#utility.yul\":2842:2844   */\n  0x32\n    /* \"#utility.yul\":2822:2840   */\n  0x24\n  dup3\n  add\n    /* \"#utility.yul\":2815:2845   */\n  mstore\n    /* \"#utility.yul\":2881:2915   */\n  0x5061796d656e7453706c69747465723a2070617965657320616e642073686172\n    /* \"#utility.yul\":2861:2879   */\n  0x44\n  dup3\n  add\n    /* \"#utility.yul\":2854:2916   */\n  mstore\n  shl(0x73, 0x0cae640d8cadccee8d040dad2e6dac2e8c6d)\n    /* \"#utility.yul\":2932:2950   */\n  0x64\n  dup3\n  add\n    /* \"#utility.yul\":2925:2973   */\n  mstore\n    /* \"#utility.yul\":2990:3009   */\n  0x84\n  add\n    /* \"@openzeppelin/contracts/finance/PaymentSplitter.sol\":2409:2503  require(payees.length == shares_.length, \"PaymentSplitter: payees and shares length mismatch\") */\ntag_9:\n  mload(0x40)\n  dup1\n  swap2\n  sub\n  swap1\n  revert\ntag_8:\n    /* \"@openzeppelin/contracts/finance/PaymentSplitter.sol\":2537:2538  0 */\n  0x00\n    /* \"@openzeppelin/contracts/finance/PaymentSplitter.sol\":2521:2527  payees */\n  dup3\n    /* \"@openzeppelin/contracts/finance/PaymentSplitter.sol\":2521:2534  payees.length */\n  mload\n    /* \"@openzeppelin/contracts/finance/PaymentSplitter.sol\":2521:2538  payees.length > 0 */\n  gt\n    /* \"@openzeppelin/contracts/finance/PaymentSplitter.sol\":2513:2569  require(payees.length > 0, \"PaymentSplitter: no payees\") */\n  tag_11\n  jumpi\n  mload(0x40)\n  shl(0xe5, 0x461bcd)\n  dup2\n  mstore\n    /* \"#utility.yul\":3222:3224   */\n  0x20\n    /* \"@openzeppelin/contracts/finance/PaymentSplitter.sol\":2513:2569  require(payees.length > 0, \"PaymentSplitter: no payees\") */\n  0x04\n  dup3\n  add\n    /* \"#utility.yul\":3204:3225   */\n  mstore\n    /* \"#utility.yul\":3261:3263   */\n  0x1a\n    /* \"#utility.yul\":3241:3259   */\n  0x24\n  dup3\n  add\n    /* \"#utility.yul\":3234:3264   */\n  mstore\n    /* \"#utility.yul\":3300:3328   */\n  0x5061796d656e7453706c69747465723a206e6f20706179656573000000000000\n    /* \"#utility.yul\":3280:3298   */\n  0x44\n  dup3\n  add\n    /* \"#utility.yul\":3273:3329   */\n  mstore\n    /* \"#utility.yul\":3346:3364   */\n  0x64\n  add\n    /* \"@openzeppelin/contracts/finance/PaymentSplitter.sol\":2513:2569  require(payees.length > 0, \"PaymentSplitter: no payees\") */\n  tag_9\n    /* \"#utility.yul\":3020:3370   */\n  jump\n    /* \"@openzeppelin/contracts/finance/PaymentSplitter.sol\":2513:2569  require(payees.length > 0, \"PaymentSplitter: no payees\") */\ntag_11:\n    /* \"@openzeppelin/contracts/finance/PaymentSplitter.sol\":2585:2594  uint256 i */\n  0x00\n    /* \"@openzeppelin/contracts/finance/PaymentSplitter.sol\":2580:2681  for (uint256 i = 0; i < payees.length; i++) {... */\ntag_14:\n    /* \"@openzeppelin/contracts/finance/PaymentSplitter.sol\":2604:2610  payees */\n  dup3\n    /* \"@openzeppelin/contracts/finance/PaymentSplitter.sol\":2604:2617  payees.length */\n  mload\n    /* \"@openzeppelin/contracts/finance/PaymentSplitter.sol\":2600:2601  i */\n  dup2\n    /* \"@openzeppelin/contracts/finance/PaymentSplitter.sol\":2600:2617  i < payees.length */\n  lt\n    /* \"@openzeppelin/contracts/finance/PaymentSplitter.sol\":2580:2681  for (uint256 i = 0; i < payees.length; i++) {... */\n  iszero\n  tag_15\n  jumpi\n    /* \"@openzeppelin/contracts/finance/PaymentSplitter.sol\":2638:2670  _addPayee(payees[i], shares_[i]) */\n  tag_17\n    /* \"@openzeppelin/contracts/finance/PaymentSplitter.sol\":2648:2654  payees */\n  dup4\n    /* \"@openzeppelin/contracts/finance/PaymentSplitter.sol\":2655:2656  i */\n  dup3\n    /* \"@openzeppelin/contracts/finance/PaymentSplitter.sol\":2648:2657  payees[i] */\n  dup2\n  mload\n  dup2\n  lt\n  tag_19\n  jumpi\n  tag_19\n  tag_20\n  jump\t// in\ntag_19:\n  0x20\n  mul\n  0x20\n  add\n  add\n  mload\n    /* \"@openzeppelin/contracts/finance/PaymentSplitter.sol\":2659:2666  shares_ */\n  dup4\n    /* \"@openzeppelin/contracts/finance/PaymentSplitter.sol\":2667:2668  i */\n  dup4\n    /* \"@openzeppelin/contracts/finance/PaymentSplitter.sol\":2659:2669  shares_[i] */\n  dup2\n  mload\n  dup2\n  lt\n  tag_22\n  jumpi\n  tag_22\n  tag_20\n  jump\t// in\ntag_22:\n  0x20\n  mul\n  0x20\n  add\n  add\n  mload\n    /* \"@openzeppelin/contracts/finance/PaymentSplitter.sol\":2638:2647  _addPayee */\n  shl(0x20, tag_23)\n    /* \"@openzeppelin/contracts/finance/PaymentSplitter.sol\":2638:2670  _addPayee(payees[i], shares_[i]) */\n  0x20\n  shr\n  jump\t// in\ntag_17:\n    /* \"@openzeppelin/contracts/finance/PaymentSplitter.sol\":2619:2622  i++ */\n  dup1\n  tag_24\n  dup2\n  tag_25\n  jump\t// in\ntag_24:\n  swap2\n  pop\n  pop\n    /* \"@openzeppelin/contracts/finance/PaymentSplitter.sol\":2580:2681  for (uint256 i = 0; i < payees.length; i++) {... */\n  jump(tag_14)\ntag_15:\n  pop\n    /* \"@openzeppelin/contracts/finance/PaymentSplitter.sol\":2328:2687  constructor(address[] memory payees, uint256[] memory shares_) payable {... */\n  pop\n  pop\n    /* \"@openzeppelin/contracts/access/Ownable.sol\":921:953  _transferOwnership(_msgSender()) */\n  tag_27\n    /* \"@openzeppelin/contracts/access/Ownable.sol\":940:952  _msgSender() */\n  tag_28\n    /* \"@openzeppelin/contracts/access/Ownable.sol\":940:950  _msgSender */\n  shl(0x20, tag_29)\n    /* \"@openzeppelin/contracts/access/Ownable.sol\":940:952  _msgSender() */\n  0x20\n  shr\n  jump\t// in\ntag_28:\n    /* \"@openzeppelin/contracts/access/Ownable.sol\":921:939  _transferOwnership */\n  tag_30\n    /* \"@openzeppelin/contracts/access/Ownable.sol\":921:953  _transferOwnership(_msgSender()) */\n  jump\t// in\ntag_27:\n    /* \"contracts/HACHIWallet.sol\":231:366  constructor(... */\n  pop\n  pop\n    /* \"contracts/HACHIWallet.sol\":175:520  contract HachiWallet is PaymentSplitter, Ownable {... */\n  jump(tag_55)\n    /* \"@openzeppelin/contracts/finance/PaymentSplitter.sol\":7018:7482  function _addPayee(address account, uint256 shares_) private {... */\ntag_23:\n  sub(shl(0xa0, 0x01), 0x01)\n    /* \"@openzeppelin/contracts/finance/PaymentSplitter.sol\":7097:7118  account != address(0) */\n  dup3\n  and\n    /* \"@openzeppelin/contracts/finance/PaymentSplitter.sol\":7089:7167  require(account != address(0), \"PaymentSplitter: account is the zero address\") */\n  tag_34\n  jumpi\n  mload(0x40)\n  shl(0xe5, 0x461bcd)\n  dup2\n  mstore\n    /* \"#utility.yul\":3981:3983   */\n  0x20\n    /* \"@openzeppelin/contracts/finance/PaymentSplitter.sol\":7089:7167  require(account != address(0), \"PaymentSplitter: account is the zero address\") */\n  0x04\n  dup3\n  add\n    /* \"#utility.yul\":3963:3984   */\n  mstore\n    /* \"#utility.yul\":4020:4022   */\n  0x2c\n    /* \"#utility.yul\":4000:4018   */\n  0x24\n  dup3\n  add\n    /* \"#utility.yul\":3993:4023   */\n  mstore\n    /* \"#utility.yul\":4059:4093   */\n  0x5061796d656e7453706c69747465723a206163636f756e742069732074686520\n    /* \"#utility.yul\":4039:4057   */\n  0x44\n  dup3\n  add\n    /* \"#utility.yul\":4032:4094   */\n  mstore\n  shl(0xa0, 0x7a65726f2061646472657373)\n    /* \"#utility.yul\":4110:4128   */\n  0x64\n  dup3\n  add\n    /* \"#utility.yul\":4103:4145   */\n  mstore\n    /* \"#utility.yul\":4162:4181   */\n  0x84\n  add\n    /* \"@openzeppelin/contracts/finance/PaymentSplitter.sol\":7089:7167  require(account != address(0), \"PaymentSplitter: account is the zero address\") */\n  tag_9\n    /* \"#utility.yul\":3779:4187   */\n  jump\n    /* \"@openzeppelin/contracts/finance/PaymentSplitter.sol\":7089:7167  require(account != address(0), \"PaymentSplitter: account is the zero address\") */\ntag_34:\n    /* \"@openzeppelin/contracts/finance/PaymentSplitter.sol\":7195:7196  0 */\n  0x00\n    /* \"@openzeppelin/contracts/finance/PaymentSplitter.sol\":7185:7192  shares_ */\n  dup2\n    /* \"@openzeppelin/contracts/finance/PaymentSplitter.sol\":7185:7196  shares_ > 0 */\n  gt\n    /* \"@openzeppelin/contracts/finance/PaymentSplitter.sol\":7177:7230  require(shares_ > 0, \"PaymentSplitter: shares are 0\") */\n  tag_37\n  jumpi\n  mload(0x40)\n  shl(0xe5, 0x461bcd)\n  dup2\n  mstore\n    /* \"#utility.yul\":4394:4396   */\n  0x20\n    /* \"@openzeppelin/contracts/finance/PaymentSplitter.sol\":7177:7230  require(shares_ > 0, \"PaymentSplitter: shares are 0\") */\n  0x04\n  dup3\n  add\n    /* \"#utility.yul\":4376:4397   */\n  mstore\n    /* \"#utility.yul\":4433:4435   */\n  0x1d\n    /* \"#utility.yul\":4413:4431   */\n  0x24\n  dup3\n  add\n    /* \"#utility.yul\":4406:4436   */\n  mstore\n    /* \"#utility.yul\":4472:4503   */\n  0x5061796d656e7453706c69747465723a20736861726573206172652030000000\n    /* \"#utility.yul\":4452:4470   */\n  0x44\n  dup3\n  add\n    /* \"#utility.yul\":4445:4504   */\n  mstore\n    /* \"#utility.yul\":4521:4539   */\n  0x64\n  add\n    /* \"@openzeppelin/contracts/finance/PaymentSplitter.sol\":7177:7230  require(shares_ > 0, \"PaymentSplitter: shares are 0\") */\n  tag_9\n    /* \"#utility.yul\":4192:4545   */\n  jump\n    /* \"@openzeppelin/contracts/finance/PaymentSplitter.sol\":7177:7230  require(shares_ > 0, \"PaymentSplitter: shares are 0\") */\ntag_37:\n  sub(shl(0xa0, 0x01), 0x01)\n    /* \"@openzeppelin/contracts/finance/PaymentSplitter.sol\":7248:7264  _shares[account] */\n  dup3\n  and\n  0x00\n  swap1\n  dup2\n  mstore\n    /* \"@openzeppelin/contracts/finance/PaymentSplitter.sol\":7248:7255  _shares */\n  0x02\n    /* \"@openzeppelin/contracts/finance/PaymentSplitter.sol\":7248:7264  _shares[account] */\n  0x20\n  mstore\n  0x40\n  swap1\n  keccak256\n  sload\n    /* \"@openzeppelin/contracts/finance/PaymentSplitter.sol\":7248:7269  _shares[account] == 0 */\n  iszero\n    /* \"@openzeppelin/contracts/finance/PaymentSplitter.sol\":7240:7317  require(_shares[account] == 0, \"PaymentSplitter: account already has shares\") */\n  tag_40\n  jumpi\n  mload(0x40)\n  shl(0xe5, 0x461bcd)\n  dup2\n  mstore\n    /* \"#utility.yul\":4752:4754   */\n  0x20\n    /* \"@openzeppelin/contracts/finance/PaymentSplitter.sol\":7240:7317  require(_shares[account] == 0, \"PaymentSplitter: account already has shares\") */\n  0x04\n  dup3\n  add\n    /* \"#utility.yul\":4734:4755   */\n  mstore\n    /* \"#utility.yul\":4791:4793   */\n  0x2b\n    /* \"#utility.yul\":4771:4789   */\n  0x24\n  dup3\n  add\n    /* \"#utility.yul\":4764:4794   */\n  mstore\n    /* \"#utility.yul\":4830:4864   */\n  0x5061796d656e7453706c69747465723a206163636f756e7420616c7265616479\n    /* \"#utility.yul\":4810:4828   */\n  0x44\n  dup3\n  add\n    /* \"#utility.yul\":4803:4865   */\n  mstore\n  shl(0xa8, 0x2068617320736861726573)\n    /* \"#utility.yul\":4881:4899   */\n  0x64\n  dup3\n  add\n    /* \"#utility.yul\":4874:4915   */\n  mstore\n    /* \"#utility.yul\":4932:4951   */\n  0x84\n  add\n    /* \"@openzeppelin/contracts/finance/PaymentSplitter.sol\":7240:7317  require(_shares[account] == 0, \"PaymentSplitter: account already has shares\") */\n  tag_9\n    /* \"#utility.yul\":4550:4957   */\n  jump\n    /* \"@openzeppelin/contracts/finance/PaymentSplitter.sol\":7240:7317  require(_shares[account] == 0, \"PaymentSplitter: account already has shares\") */\ntag_40:\n    /* \"@openzeppelin/contracts/finance/PaymentSplitter.sol\":7328:7335  _payees */\n  0x04\n    /* \"@openzeppelin/contracts/finance/PaymentSplitter.sol\":7328:7349  _payees.push(account) */\n  dup1\n  sload\n  0x01\n  dup2\n  add\n  swap1\n  swap2\n  sstore\n  0x8a35acfbc15ff81a39ae7d344fd709f28e8600b4aa8c65c6b64bfe7fe36bd19b\n  add\n  dup1\n  sload\n  not(sub(shl(0xa0, 0x01), 0x01))\n  and\n  sub(shl(0xa0, 0x01), 0x01)\n  dup5\n  and\n  swap1\n  dup2\n  or\n  swap1\n  swap2\n  sstore\n  0x00\n    /* \"@openzeppelin/contracts/finance/PaymentSplitter.sol\":7359:7375  _shares[account] */\n  swap1\n  dup2\n  mstore\n    /* \"@openzeppelin/contracts/finance/PaymentSplitter.sol\":7359:7366  _shares */\n  0x02\n    /* \"@openzeppelin/contracts/finance/PaymentSplitter.sol\":7328:7349  _payees.push(account) */\n  0x20\n    /* \"@openzeppelin/contracts/finance/PaymentSplitter.sol\":7359:7375  _shares[account] */\n  mstore\n  0x40\n  dup2\n  keccak256\n    /* \"@openzeppelin/contracts/finance/PaymentSplitter.sol\":7359:7385  _shares[account] = shares_ */\n  dup3\n  swap1\n  sstore\n    /* \"@openzeppelin/contracts/finance/PaymentSplitter.sol\":7410:7422  _totalShares */\n  sload\n    /* \"@openzeppelin/contracts/finance/PaymentSplitter.sol\":7410:7432  _totalShares + shares_ */\n  tag_44\n  swap1\n    /* \"@openzeppelin/contracts/finance/PaymentSplitter.sol\":7359:7385  _shares[account] = shares_ */\n  dup3\n  swap1\n    /* \"@openzeppelin/contracts/finance/PaymentSplitter.sol\":7410:7432  _totalShares + shares_ */\n  tag_45\n  jump\t// in\ntag_44:\n    /* \"@openzeppelin/contracts/finance/PaymentSplitter.sol\":7395:7407  _totalShares */\n  0x00\n    /* \"@openzeppelin/contracts/finance/PaymentSplitter.sol\":7395:7432  _totalShares = _totalShares + shares_ */\n  sstore\n    /* \"@openzeppelin/contracts/finance/PaymentSplitter.sol\":7447:7475  PayeeAdded(account, shares_) */\n  0x40\n  dup1\n  mload\n  sub(shl(0xa0, 0x01), 0x01)\n    /* \"#utility.yul\":5287:5319   */\n  dup5\n  and\n    /* \"#utility.yul\":5269:5320   */\n  dup2\n  mstore\n    /* \"#utility.yul\":5351:5353   */\n  0x20\n    /* \"#utility.yul\":5336:5354   */\n  dup2\n  add\n    /* \"#utility.yul\":5329:5363   */\n  dup4\n  swap1\n  mstore\n    /* \"@openzeppelin/contracts/finance/PaymentSplitter.sol\":7447:7475  PayeeAdded(account, shares_) */\n  0x40c340f65e17194d14ddddb073d3c9f888e3cb52b5aae0c6c7706b4fbc905fac\n  swap2\n    /* \"#utility.yul\":5242:5260   */\n  add\n    /* \"@openzeppelin/contracts/finance/PaymentSplitter.sol\":7447:7475  PayeeAdded(account, shares_) */\n  mload(0x40)\n  dup1\n  swap2\n  sub\n  swap1\n  log1\n    /* \"@openzeppelin/contracts/finance/PaymentSplitter.sol\":7018:7482  function _addPayee(address account, uint256 shares_) private {... */\n  pop\n  pop\n  jump\t// out\n    /* \"@openzeppelin/contracts/utils/Context.sol\":640:736  function _msgSender() internal view virtual returns (address) {... */\ntag_29:\n    /* \"@openzeppelin/contracts/utils/Context.sol\":719:729  msg.sender */\n  caller\n  swap1\n    /* \"@openzeppelin/contracts/utils/Context.sol\":640:736  function _msgSender() internal view virtual returns (address) {... */\n  jump\t// out\n    /* \"@openzeppelin/contracts/access/Ownable.sol\":2270:2457  function _transferOwnership(address newOwner) internal virtual {... */\ntag_30:\n    /* \"@openzeppelin/contracts/access/Ownable.sol\":2362:2368  _owner */\n  0x07\n  dup1\n  sload\n  sub(shl(0xa0, 0x01), 0x01)\n    /* \"@openzeppelin/contracts/access/Ownable.sol\":2378:2395  _owner = newOwner */\n  dup4\n  dup2\n  and\n  not(sub(shl(0xa0, 0x01), 0x01))\n  dup4\n  and\n  dup2\n  or\n  swap1\n  swap4\n  sstore\n    /* \"@openzeppelin/contracts/access/Ownable.sol\":2410:2450  OwnershipTransferred(oldOwner, newOwner) */\n  mload(0x40)\n    /* \"@openzeppelin/contracts/access/Ownable.sol\":2362:2368  _owner */\n  swap2\n  and\n  swap2\n    /* \"@openzeppelin/contracts/access/Ownable.sol\":2378:2395  _owner = newOwner */\n  swap1\n    /* \"@openzeppelin/contracts/access/Ownable.sol\":2362:2368  _owner */\n  dup3\n  swap1\n    /* \"@openzeppelin/contracts/access/Ownable.sol\":2410:2450  OwnershipTransferred(oldOwner, newOwner) */\n  0x8be0079c531659141344cd1fd0a4f28419497f9722a3daafe3b4186f6b6457e0\n  swap1\n    /* \"@openzeppelin/contracts/access/Ownable.sol\":2343:2359  address oldOwner */\n  0x00\n  swap1\n    /* \"@openzeppelin/contracts/access/Ownable.sol\":2410:2450  OwnershipTransferred(oldOwner, newOwner) */\n  log3\n    /* \"@openzeppelin/contracts/access/Ownable.sol\":2333:2457  {... */\n  pop\n    /* \"@openzeppelin/contracts/access/Ownable.sol\":2270:2457  function _transferOwnership(address newOwner) internal virtual {... */\n  pop\n  jump\t// out\n    /* \"#utility.yul\":14:141   */\ntag_50:\n    /* \"#utility.yul\":75:85   */\n  0x4e487b71\n    /* \"#utility.yul\":70:73   */\n  0xe0\n    /* \"#utility.yul\":66:86   */\n  shl\n    /* \"#utility.yul\":63:64   */\n  0x00\n    /* \"#utility.yul\":56:87   */\n  mstore\n    /* \"#utility.yul\":106:110   */\n  0x41\n    /* \"#utility.yul\":103:104   */\n  0x04\n    /* \"#utility.yul\":96:111   */\n  mstore\n    /* \"#utility.yul\":130:134   */\n  0x24\n    /* \"#utility.yul\":127:128   */\n  0x00\n    /* \"#utility.yul\":120:135   */\n  revert\n    /* \"#utility.yul\":146:421   */\ntag_51:\n    /* \"#utility.yul\":217:219   */\n  0x40\n    /* \"#utility.yul\":211:220   */\n  mload\n    /* \"#utility.yul\":282:284   */\n  0x1f\n    /* \"#utility.yul\":263:276   */\n  dup3\n  add\n  not(0x1f)\n    /* \"#utility.yul\":259:286   */\n  and\n    /* \"#utility.yul\":247:287   */\n  dup2\n  add\n  sub(shl(0x40, 0x01), 0x01)\n    /* \"#utility.yul\":302:336   */\n  dup2\n  gt\n    /* \"#utility.yul\":338:360   */\n  dup3\n  dup3\n  lt\n    /* \"#utility.yul\":299:361   */\n  or\n    /* \"#utility.yul\":296:384   */\n  iszero\n  tag_59\n  jumpi\n    /* \"#utility.yul\":364:382   */\n  tag_59\n  tag_50\n  jump\t// in\ntag_59:\n    /* \"#utility.yul\":400:402   */\n  0x40\n    /* \"#utility.yul\":393:415   */\n  mstore\n    /* \"#utility.yul\":146:421   */\n  swap2\n  swap1\n  pop\n  jump\t// out\n    /* \"#utility.yul\":426:609   */\ntag_52:\n    /* \"#utility.yul\":486:490   */\n  0x00\n  sub(shl(0x40, 0x01), 0x01)\n    /* \"#utility.yul\":508:538   */\n  dup3\n  gt\n    /* \"#utility.yul\":505:561   */\n  iszero\n  tag_62\n  jumpi\n    /* \"#utility.yul\":541:559   */\n  tag_62\n  tag_50\n  jump\t// in\ntag_62:\n  pop\n    /* \"#utility.yul\":586:587   */\n  0x05\n    /* \"#utility.yul\":582:596   */\n  shl\n    /* \"#utility.yul\":598:602   */\n  0x20\n    /* \"#utility.yul\":578:603   */\n  add\n  swap1\n    /* \"#utility.yul\":426:609   */\n  jump\t// out\n    /* \"#utility.yul\":614:1273   */\ntag_53:\n    /* \"#utility.yul\":679:684   */\n  0x00\n    /* \"#utility.yul\":732:735   */\n  dup3\n    /* \"#utility.yul\":725:729   */\n  0x1f\n    /* \"#utility.yul\":717:723   */\n  dup4\n    /* \"#utility.yul\":713:730   */\n  add\n    /* \"#utility.yul\":709:736   */\n  slt\n    /* \"#utility.yul\":699:754   */\n  tag_64\n  jumpi\n    /* \"#utility.yul\":750:751   */\n  0x00\n    /* \"#utility.yul\":747:748   */\n  dup1\n    /* \"#utility.yul\":740:752   */\n  revert\n    /* \"#utility.yul\":699:754   */\ntag_64:\n    /* \"#utility.yul\":779:785   */\n  dup2\n    /* \"#utility.yul\":773:786   */\n  mload\n    /* \"#utility.yul\":805:809   */\n  0x20\n    /* \"#utility.yul\":829:889   */\n  tag_65\n    /* \"#utility.yul\":845:888   */\n  tag_66\n    /* \"#utility.yul\":885:887   */\n  dup4\n    /* \"#utility.yul\":845:888   */\n  tag_52\n  jump\t// in\ntag_66:\n    /* \"#utility.yul\":829:889   */\n  tag_51\n  jump\t// in\ntag_65:\n    /* \"#utility.yul\":923:938   */\n  dup3\n  dup2\n  mstore\n    /* \"#utility.yul\":1009:1010   */\n  0x05\n    /* \"#utility.yul\":1005:1015   */\n  swap3\n  swap1\n  swap3\n  shl\n    /* \"#utility.yul\":993:1016   */\n  dup5\n  add\n    /* \"#utility.yul\":989:1021   */\n  dup2\n  add\n  swap2\n    /* \"#utility.yul\":954:966   */\n  dup2\n  dup2\n  add\n  swap1\n    /* \"#utility.yul\":1033:1048   */\n  dup7\n  dup5\n  gt\n    /* \"#utility.yul\":1030:1065   */\n  iszero\n  tag_67\n  jumpi\n    /* \"#utility.yul\":1061:1062   */\n  0x00\n    /* \"#utility.yul\":1058:1059   */\n  dup1\n    /* \"#utility.yul\":1051:1063   */\n  revert\n    /* \"#utility.yul\":1030:1065   */\ntag_67:\n    /* \"#utility.yul\":1097:1099   */\n  dup3\n    /* \"#utility.yul\":1089:1095   */\n  dup7\n    /* \"#utility.yul\":1085:1100   */\n  add\n    /* \"#utility.yul\":1109:1244   */\ntag_68:\n    /* \"#utility.yul\":1125:1131   */\n  dup5\n    /* \"#utility.yul\":1120:1123   */\n  dup2\n    /* \"#utility.yul\":1117:1132   */\n  lt\n    /* \"#utility.yul\":1109:1244   */\n  iszero\n  tag_70\n  jumpi\n    /* \"#utility.yul\":1191:1201   */\n  dup1\n  mload\n    /* \"#utility.yul\":1179:1202   */\n  dup4\n  mstore\n    /* \"#utility.yul\":1222:1234   */\n  swap2\n  dup4\n  add\n  swap2\n    /* \"#utility.yul\":1142:1154   */\n  dup4\n  add\n    /* \"#utility.yul\":1109:1244   */\n  jump(tag_68)\ntag_70:\n  pop\n    /* \"#utility.yul\":1262:1267   */\n  swap7\n    /* \"#utility.yul\":614:1273   */\n  swap6\n  pop\n  pop\n  pop\n  pop\n  pop\n  pop\n  jump\t// out\n    /* \"#utility.yul\":1278:2596   */\ntag_3:\n    /* \"#utility.yul\":1407:1413   */\n  0x00\n    /* \"#utility.yul\":1415:1421   */\n  dup1\n    /* \"#utility.yul\":1468:1470   */\n  0x40\n    /* \"#utility.yul\":1456:1465   */\n  dup4\n    /* \"#utility.yul\":1447:1454   */\n  dup6\n    /* \"#utility.yul\":1443:1466   */\n  sub\n    /* \"#utility.yul\":1439:1471   */\n  slt\n    /* \"#utility.yul\":1436:1488   */\n  iszero\n  tag_72\n  jumpi\n    /* \"#utility.yul\":1484:1485   */\n  0x00\n    /* \"#utility.yul\":1481:1482   */\n  dup1\n    /* \"#utility.yul\":1474:1486   */\n  revert\n    /* \"#utility.yul\":1436:1488   */\ntag_72:\n    /* \"#utility.yul\":1511:1527   */\n  dup3\n  mload\n  sub(shl(0x40, 0x01), 0x01)\n    /* \"#utility.yul\":1576:1590   */\n  dup1\n  dup3\n  gt\n    /* \"#utility.yul\":1573:1607   */\n  iszero\n  tag_73\n  jumpi\n    /* \"#utility.yul\":1603:1604   */\n  0x00\n    /* \"#utility.yul\":1600:1601   */\n  dup1\n    /* \"#utility.yul\":1593:1605   */\n  revert\n    /* \"#utility.yul\":1573:1607   */\ntag_73:\n    /* \"#utility.yul\":1641:1647   */\n  dup2\n    /* \"#utility.yul\":1630:1639   */\n  dup6\n    /* \"#utility.yul\":1626:1648   */\n  add\n    /* \"#utility.yul\":1616:1648   */\n  swap2\n  pop\n    /* \"#utility.yul\":1686:1693   */\n  dup6\n    /* \"#utility.yul\":1679:1683   */\n  0x1f\n    /* \"#utility.yul\":1675:1677   */\n  dup4\n    /* \"#utility.yul\":1671:1684   */\n  add\n    /* \"#utility.yul\":1667:1694   */\n  slt\n    /* \"#utility.yul\":1657:1712   */\n  tag_74\n  jumpi\n    /* \"#utility.yul\":1708:1709   */\n  0x00\n    /* \"#utility.yul\":1705:1706   */\n  dup1\n    /* \"#utility.yul\":1698:1710   */\n  revert\n    /* \"#utility.yul\":1657:1712   */\ntag_74:\n    /* \"#utility.yul\":1737:1739   */\n  dup2\n    /* \"#utility.yul\":1731:1740   */\n  mload\n    /* \"#utility.yul\":1759:1763   */\n  0x20\n    /* \"#utility.yul\":1783:1843   */\n  tag_75\n    /* \"#utility.yul\":1799:1842   */\n  tag_66\n    /* \"#utility.yul\":1839:1841   */\n  dup4\n    /* \"#utility.yul\":1799:1842   */\n  tag_52\n  jump\t// in\n    /* \"#utility.yul\":1783:1843   */\ntag_75:\n    /* \"#utility.yul\":1877:1892   */\n  dup3\n  dup2\n  mstore\n    /* \"#utility.yul\":1959:1960   */\n  0x05\n    /* \"#utility.yul\":1955:1965   */\n  swap3\n  swap1\n  swap3\n  shl\n    /* \"#utility.yul\":1947:1966   */\n  dup5\n  add\n    /* \"#utility.yul\":1943:1971   */\n  dup2\n  add\n  swap2\n    /* \"#utility.yul\":1908:1920   */\n  dup2\n  dup2\n  add\n  swap1\n    /* \"#utility.yul\":1983:2002   */\n  dup10\n  dup5\n  gt\n    /* \"#utility.yul\":1980:2019   */\n  iszero\n  tag_77\n  jumpi\n    /* \"#utility.yul\":2015:2016   */\n  0x00\n    /* \"#utility.yul\":2012:2013   */\n  dup1\n    /* \"#utility.yul\":2005:2017   */\n  revert\n    /* \"#utility.yul\":1980:2019   */\ntag_77:\n    /* \"#utility.yul\":2039:2050   */\n  swap5\n  dup3\n  add\n  swap5\n    /* \"#utility.yul\":2059:2378   */\ntag_78:\n    /* \"#utility.yul\":2075:2081   */\n  dup4\n    /* \"#utility.yul\":2070:2073   */\n  dup7\n    /* \"#utility.yul\":2067:2082   */\n  lt\n    /* \"#utility.yul\":2059:2378   */\n  iszero\n  tag_80\n  jumpi\n    /* \"#utility.yul\":2142:2152   */\n  dup6\n  mload\n  sub(shl(0xa0, 0x01), 0x01)\n    /* \"#utility.yul\":2185:2216   */\n  dup2\n  and\n    /* \"#utility.yul\":2175:2217   */\n  dup2\n  eq\n    /* \"#utility.yul\":2165:2305   */\n  tag_81\n  jumpi\n    /* \"#utility.yul\":2259:2260   */\n  0x00\n    /* \"#utility.yul\":2288:2290   */\n  dup1\n    /* \"#utility.yul\":2284:2286   */\n  dup2\n    /* \"#utility.yul\":2277:2291   */\n  revert\n    /* \"#utility.yul\":2165:2305   */\ntag_81:\n    /* \"#utility.yul\":2318:2336   */\n  dup3\n  mstore\n    /* \"#utility.yul\":2092:2104   */\n  swap5\n  dup3\n  add\n  swap5\n    /* \"#utility.yul\":2356:2368   */\n  swap1\n  dup3\n  add\n  swap1\n    /* \"#utility.yul\":2059:2378   */\n  jump(tag_78)\ntag_80:\n    /* \"#utility.yul\":2433:2451   */\n  swap2\n  dup9\n  add\n    /* \"#utility.yul\":2427:2452   */\n  mload\n    /* \"#utility.yul\":2397:2402   */\n  swap2\n  swap7\n  pop\n    /* \"#utility.yul\":2427:2452   */\n  swap1\n  swap4\n  pop\n  pop\n  pop\n    /* \"#utility.yul\":2464:2480   */\n  dup1\n  dup3\n  gt\n    /* \"#utility.yul\":2461:2497   */\n  iszero\n  tag_82\n  jumpi\n    /* \"#utility.yul\":2493:2494   */\n  0x00\n    /* \"#utility.yul\":2490:2491   */\n  dup1\n    /* \"#utility.yul\":2483:2495   */\n  revert\n    /* \"#utility.yul\":2461:2497   */\ntag_82:\n  pop\n    /* \"#utility.yul\":2516:2590   */\n  tag_83\n    /* \"#utility.yul\":2582:2589   */\n  dup6\n    /* \"#utility.yul\":2571:2579   */\n  dup3\n    /* \"#utility.yul\":2560:2569   */\n  dup7\n    /* \"#utility.yul\":2556:2580   */\n  add\n    /* \"#utility.yul\":2516:2590   */\n  tag_53\n  jump\t// in\ntag_83:\n    /* \"#utility.yul\":2506:2590   */\n  swap2\n  pop\n  pop\n    /* \"#utility.yul\":1278:2596   */\n  swap3\n  pop\n  swap3\n  swap1\n  pop\n  jump\t// out\n    /* \"#utility.yul\":3375:3502   */\ntag_20:\n    /* \"#utility.yul\":3436:3446   */\n  0x4e487b71\n    /* \"#utility.yul\":3431:3434   */\n  0xe0\n    /* \"#utility.yul\":3427:3447   */\n  shl\n    /* \"#utility.yul\":3424:3425   */\n  0x00\n    /* \"#utility.yul\":3417:3448   */\n  mstore\n    /* \"#utility.yul\":3467:3471   */\n  0x32\n    /* \"#utility.yul\":3464:3465   */\n  0x04\n    /* \"#utility.yul\":3457:3472   */\n  mstore\n    /* \"#utility.yul\":3491:3495   */\n  0x24\n    /* \"#utility.yul\":3488:3489   */\n  0x00\n    /* \"#utility.yul\":3481:3496   */\n  revert\n    /* \"#utility.yul\":3507:3634   */\ntag_54:\n    /* \"#utility.yul\":3568:3578   */\n  0x4e487b71\n    /* \"#utility.yul\":3563:3566   */\n  0xe0\n    /* \"#utility.yul\":3559:3579   */\n  shl\n    /* \"#utility.yul\":3556:3557   */\n  0x00\n    /* \"#utility.yul\":3549:3580   */\n  mstore\n    /* \"#utility.yul\":3599:3603   */\n  0x11\n    /* \"#utility.yul\":3596:3597   */\n  0x04\n    /* \"#utility.yul\":3589:3604   */\n  mstore\n    /* \"#utility.yul\":3623:3627   */\n  0x24\n    /* \"#utility.yul\":3620:3621   */\n  0x00\n    /* \"#utility.yul\":3613:3628   */\n  revert\n    /* \"#utility.yul\":3639:3774   */\ntag_25:\n    /* \"#utility.yul\":3678:3681   */\n  0x00\n    /* \"#utility.yul\":3699:3716   */\n  0x01\n  dup3\n  add\n    /* \"#utility.yul\":3696:3739   */\n  tag_90\n  jumpi\n    /* \"#utility.yul\":3719:3737   */\n  tag_90\n  tag_54\n  jump\t// in\ntag_90:\n  pop\n    /* \"#utility.yul\":3766:3767   */\n  0x01\n    /* \"#utility.yul\":3755:3768   */\n  add\n  swap1\n    /* \"#utility.yul\":3639:3774   */\n  jump\t// out\n    /* \"#utility.yul\":4962:5090   */\ntag_45:\n    /* \"#utility.yul\":5002:5005   */\n  0x00\n    /* \"#utility.yul\":5033:5034   */\n  dup3\n    /* \"#utility.yul\":5029:5035   */\n  not\n    /* \"#utility.yul\":5026:5027   */\n  dup3\n    /* \"#utility.yul\":5023:5036   */\n  gt\n    /* \"#utility.yul\":5020:5059   */\n  iszero\n  tag_96\n  jumpi\n    /* \"#utility.yul\":5039:5057   */\n  tag_96\n  tag_54\n  jump\t// in\ntag_96:\n  pop\n    /* \"#utility.yul\":5075:5084   */\n  add\n  swap1\n    /* \"#utility.yul\":4962:5090   */\n  jump\t// out\n    /* \"#utility.yul\":5095:5369   */\ntag_55:\n    /* \"contracts/HACHIWallet.sol\":175:520  contract HachiWallet is PaymentSplitter, Ownable {... */\n  dataSize(sub_0)\n  dup1\n  dataOffset(sub_0)\n  0x00\n  codecopy\n  0x00\n  return\nstop\n\nsub_0: assembly {\n        /* \"contracts/HACHIWallet.sol\":175:520  contract HachiWallet is PaymentSplitter, Ownable {... */\n      mstore(0x40, 0x80)\n      jumpi(tag_1, lt(calldatasize, 0x04))\n      shr(0xe0, calldataload(0x00))\n      dup1\n      0x8da5cb5b\n      gt\n      tag_15\n      jumpi\n      dup1\n      0x8da5cb5b\n      eq\n      tag_9\n      jumpi\n      dup1\n      0x9852595c\n      eq\n      tag_10\n      jumpi\n      dup1\n      0xce7c2ac2\n      eq\n      tag_11\n      jumpi\n      dup1\n      0xd79779b2\n      eq\n      tag_12\n      jumpi\n      dup1\n      0xe33b7de3\n      eq\n      tag_13\n      jumpi\n      dup1\n      0xf2fde38b\n      eq\n      tag_14\n      jumpi\n      0x00\n      dup1\n      revert\n    tag_15:\n      dup1\n      0x19165587\n      eq\n      tag_3\n      jumpi\n      dup1\n      0x3a98ef39\n      eq\n      tag_4\n      jumpi\n      dup1\n      0x406072a9\n      eq\n      tag_5\n      jumpi\n      dup1\n      0x48b75044\n      eq\n      tag_6\n      jumpi\n      dup1\n      0x715018a6\n      eq\n      tag_7\n      jumpi\n      dup1\n      0x8b83209b\n      eq\n      tag_8\n      jumpi\n      0x00\n      dup1\n      revert\n    tag_1:\n      jumpi(tag_2, calldatasize)\n        /* \"@openzeppelin/contracts/finance/PaymentSplitter.sol\":3249:3289  PaymentReceived(_msgSender(), msg.value) */\n      0x6ef95f06320e7a25a04a175ca677b7052bdd97131872c2192525a629f51be770\n        /* \"@openzeppelin/contracts/utils/Context.sol\":719:729  msg.sender */\n      caller\n        /* \"@openzeppelin/contracts/finance/PaymentSplitter.sol\":3249:3289  PaymentReceived(_msgSender(), msg.value) */\n      0x40\n      dup1\n      mload\n      sub(shl(0xa0, 0x01), 0x01)\n        /* \"#utility.yul\":206:238   */\n      swap1\n      swap3\n      and\n        /* \"#utility.yul\":188:239   */\n      dup3\n      mstore\n        /* \"@openzeppelin/contracts/finance/PaymentSplitter.sol\":3279:3288  msg.value */\n      callvalue\n        /* \"#utility.yul\":270:272   */\n      0x20\n        /* \"#utility.yul\":255:273   */\n      dup4\n      add\n        /* \"#utility.yul\":248:282   */\n      mstore\n        /* \"#utility.yul\":161:179   */\n      add\n        /* \"@openzeppelin/contracts/finance/PaymentSplitter.sol\":3249:3289  PaymentReceived(_msgSender(), msg.value) */\n      mload(0x40)\n      dup1\n      swap2\n      sub\n      swap1\n      log1\n        /* \"contracts/HACHIWallet.sol\":175:520  contract HachiWallet is PaymentSplitter, Ownable {... */\n      stop\n    tag_2:\n      0x00\n      dup1\n      revert\n        /* \"@openzeppelin/contracts/finance/PaymentSplitter.sol\":4977:5530  function release(address payable account) public virtual {... */\n    tag_3:\n      callvalue\n      dup1\n      iszero\n      tag_22\n      jumpi\n      0x00\n      dup1\n      revert\n    tag_22:\n      pop\n      tag_23\n      tag_24\n      calldatasize\n      0x04\n      tag_25\n      jump\t// in\n    tag_24:\n      tag_26\n      jump\t// in\n    tag_23:\n      stop\n        /* \"@openzeppelin/contracts/finance/PaymentSplitter.sol\":3374:3463  function totalShares() public view returns (uint256) {... */\n    tag_4:\n      callvalue\n      dup1\n      iszero\n      tag_27\n      jumpi\n      0x00\n      dup1\n      revert\n    tag_27:\n      pop\n        /* \"@openzeppelin/contracts/finance/PaymentSplitter.sol\":3418:3425  uint256 */\n      0x00\n        /* \"@openzeppelin/contracts/finance/PaymentSplitter.sol\":3444:3456  _totalShares */\n      sload\n        /* \"@openzeppelin/contracts/finance/PaymentSplitter.sol\":3374:3463  function totalShares() public view returns (uint256) {... */\n    tag_28:\n      mload(0x40)\n        /* \"#utility.yul\":851:876   */\n      swap1\n      dup2\n      mstore\n        /* \"#utility.yul\":839:841   */\n      0x20\n        /* \"#utility.yul\":824:842   */\n      add\n        /* \"@openzeppelin/contracts/finance/PaymentSplitter.sol\":3374:3463  function totalShares() public view returns (uint256) {... */\n    tag_30:\n      mload(0x40)\n      dup1\n      swap2\n      sub\n      swap1\n      return\n        /* \"@openzeppelin/contracts/finance/PaymentSplitter.sol\":4466:4599  function released(IERC20 token, address account) public view returns (uint256) {... */\n    tag_5:\n      callvalue\n      dup1\n      iszero\n      tag_32\n      jumpi\n      0x00\n      dup1\n      revert\n    tag_32:\n      pop\n      tag_28\n      tag_34\n      calldatasize\n      0x04\n      tag_35\n      jump\t// in\n    tag_34:\n      sub(shl(0xa0, 0x01), 0x01)\n        /* \"@openzeppelin/contracts/finance/PaymentSplitter.sol\":4562:4583  _erc20Released[token] */\n      swap2\n      dup3\n      and\n        /* \"@openzeppelin/contracts/finance/PaymentSplitter.sol\":4536:4543  uint256 */\n      0x00\n        /* \"@openzeppelin/contracts/finance/PaymentSplitter.sol\":4562:4583  _erc20Released[token] */\n      swap1\n      dup2\n      mstore\n        /* \"@openzeppelin/contracts/finance/PaymentSplitter.sol\":4562:4576  _erc20Released */\n      0x06\n        /* \"@openzeppelin/contracts/finance/PaymentSplitter.sol\":4562:4583  _erc20Released[token] */\n      0x20\n      swap1\n      dup2\n      mstore\n      0x40\n      dup1\n      dup4\n      keccak256\n        /* \"@openzeppelin/contracts/finance/PaymentSplitter.sol\":4562:4592  _erc20Released[token][account] */\n      swap4\n      swap1\n      swap5\n      and\n      dup3\n      mstore\n      swap2\n      swap1\n      swap2\n      mstore\n      keccak256\n      sload\n      swap1\n        /* \"@openzeppelin/contracts/finance/PaymentSplitter.sol\":4466:4599  function released(IERC20 token, address account) public view returns (uint256) {... */\n      jump\n        /* \"@openzeppelin/contracts/finance/PaymentSplitter.sol\":5791:6419  function release(IERC20 token, address account) public virtual {... */\n    tag_6:\n      callvalue\n      dup1\n      iszero\n      tag_38\n      jumpi\n      0x00\n      dup1\n      revert\n    tag_38:\n      pop\n      tag_23\n      tag_40\n      calldatasize\n      0x04\n      tag_35\n      jump\t// in\n    tag_40:\n      tag_41\n      jump\t// in\n        /* \"@openzeppelin/contracts/access/Ownable.sol\":1668:1769  function renounceOwnership() public virtual onlyOwner {... */\n    tag_7:\n      callvalue\n      dup1\n      iszero\n      tag_42\n      jumpi\n      0x00\n      dup1\n      revert\n    tag_42:\n      pop\n      tag_23\n      tag_44\n      jump\t// in\n        /* \"@openzeppelin/contracts/finance/PaymentSplitter.sol\":4685:4783  function payee(uint256 index) public view returns (address) {... */\n    tag_8:\n      callvalue\n      dup1\n      iszero\n      tag_45\n      jumpi\n      0x00\n      dup1\n      revert\n    tag_45:\n      pop\n      tag_46\n      tag_47\n      calldatasize\n      0x04\n      tag_48\n      jump\t// in\n    tag_47:\n      tag_49\n      jump\t// in\n    tag_46:\n      mload(0x40)\n      sub(shl(0xa0, 0x01), 0x01)\n        /* \"#utility.yul\":1659:1691   */\n      swap1\n      swap2\n      and\n        /* \"#utility.yul\":1641:1692   */\n      dup2\n      mstore\n        /* \"#utility.yul\":1629:1631   */\n      0x20\n        /* \"#utility.yul\":1614:1632   */\n      add\n        /* \"@openzeppelin/contracts/finance/PaymentSplitter.sol\":4685:4783  function payee(uint256 index) public view returns (address) {... */\n      tag_30\n        /* \"#utility.yul\":1495:1698   */\n      jump\n        /* \"@openzeppelin/contracts/access/Ownable.sol\":1036:1121  function owner() public view virtual returns (address) {... */\n    tag_9:\n      callvalue\n      dup1\n      iszero\n      tag_52\n      jumpi\n      0x00\n      dup1\n      revert\n    tag_52:\n      pop\n        /* \"@openzeppelin/contracts/access/Ownable.sol\":1108:1114  _owner */\n      and(sub(shl(0xa0, 0x01), 0x01), sload(0x07))\n        /* \"@openzeppelin/contracts/access/Ownable.sol\":1036:1121  function owner() public view virtual returns (address) {... */\n      jump(tag_46)\n        /* \"@openzeppelin/contracts/finance/PaymentSplitter.sol\":4196:4303  function released(address account) public view returns (uint256) {... */\n    tag_10:\n      callvalue\n      dup1\n      iszero\n      tag_56\n      jumpi\n      0x00\n      dup1\n      revert\n    tag_56:\n      pop\n      tag_28\n      tag_58\n      calldatasize\n      0x04\n      tag_25\n      jump\t// in\n    tag_58:\n      sub(shl(0xa0, 0x01), 0x01)\n        /* \"@openzeppelin/contracts/finance/PaymentSplitter.sol\":4278:4296  _released[account] */\n      and\n        /* \"@openzeppelin/contracts/finance/PaymentSplitter.sol\":4252:4259  uint256 */\n      0x00\n        /* \"@openzeppelin/contracts/finance/PaymentSplitter.sol\":4278:4296  _released[account] */\n      swap1\n      dup2\n      mstore\n        /* \"@openzeppelin/contracts/finance/PaymentSplitter.sol\":4278:4287  _released */\n      0x03\n        /* \"@openzeppelin/contracts/finance/PaymentSplitter.sol\":4278:4296  _released[account] */\n      0x20\n      mstore\n      0x40\n      swap1\n      keccak256\n      sload\n      swap1\n        /* \"@openzeppelin/contracts/finance/PaymentSplitter.sol\":4196:4303  function released(address account) public view returns (uint256) {... */\n      jump\n        /* \"@openzeppelin/contracts/finance/PaymentSplitter.sol\":3999:4102  function shares(address account) public view returns (uint256) {... */\n    tag_11:\n      callvalue\n      dup1\n      iszero\n      tag_62\n      jumpi\n      0x00\n      dup1\n      revert\n    tag_62:\n      pop\n      tag_28\n      tag_64\n      calldatasize\n      0x04\n      tag_25\n      jump\t// in\n    tag_64:\n      sub(shl(0xa0, 0x01), 0x01)\n        /* \"@openzeppelin/contracts/finance/PaymentSplitter.sol\":4079:4095  _shares[account] */\n      and\n        /* \"@openzeppelin/contracts/finance/PaymentSplitter.sol\":4053:4060  uint256 */\n      0x00\n        /* \"@openzeppelin/contracts/finance/PaymentSplitter.sol\":4079:4095  _shares[account] */\n      swap1\n      dup2\n      mstore\n        /* \"@openzeppelin/contracts/finance/PaymentSplitter.sol\":4079:4086  _shares */\n      0x02\n        /* \"@openzeppelin/contracts/finance/PaymentSplitter.sol\":4079:4095  _shares[account] */\n      0x20\n      mstore\n      0x40\n      swap1\n      keccak256\n      sload\n      swap1\n        /* \"@openzeppelin/contracts/finance/PaymentSplitter.sol\":3999:4102  function shares(address account) public view returns (uint256) {... */\n      jump\n        /* \"@openzeppelin/contracts/finance/PaymentSplitter.sol\":3796:3913  function totalReleased(IERC20 token) public view returns (uint256) {... */\n    tag_12:\n      callvalue\n      dup1\n      iszero\n      tag_67\n      jumpi\n      0x00\n      dup1\n      revert\n    tag_67:\n      pop\n      tag_28\n      tag_69\n      calldatasize\n      0x04\n      tag_25\n      jump\t// in\n    tag_69:\n      sub(shl(0xa0, 0x01), 0x01)\n        /* \"@openzeppelin/contracts/finance/PaymentSplitter.sol\":3880:3906  _erc20TotalReleased[token] */\n      and\n        /* \"@openzeppelin/contracts/finance/PaymentSplitter.sol\":3854:3861  uint256 */\n      0x00\n        /* \"@openzeppelin/contracts/finance/PaymentSplitter.sol\":3880:3906  _erc20TotalReleased[token] */\n      swap1\n      dup2\n      mstore\n        /* \"@openzeppelin/contracts/finance/PaymentSplitter.sol\":3880:3899  _erc20TotalReleased */\n      0x05\n        /* \"@openzeppelin/contracts/finance/PaymentSplitter.sol\":3880:3906  _erc20TotalReleased[token] */\n      0x20\n      mstore\n      0x40\n      swap1\n      keccak256\n      sload\n      swap1\n        /* \"@openzeppelin/contracts/finance/PaymentSplitter.sol\":3796:3913  function totalReleased(IERC20 token) public view returns (uint256) {... */\n      jump\n        /* \"@openzeppelin/contracts/finance/PaymentSplitter.sol\":3552:3645  function totalReleased() public view returns (uint256) {... */\n    tag_13:\n      callvalue\n      dup1\n      iszero\n      tag_73\n      jumpi\n      0x00\n      dup1\n      revert\n    tag_73:\n      pop\n        /* \"@openzeppelin/contracts/finance/PaymentSplitter.sol\":3624:3638  _totalReleased */\n      sload(0x01)\n        /* \"@openzeppelin/contracts/finance/PaymentSplitter.sol\":3552:3645  function totalReleased() public view returns (uint256) {... */\n      jump(tag_28)\n        /* \"@openzeppelin/contracts/access/Ownable.sol\":1918:2116  function transferOwnership(address newOwner) public virtual onlyOwner {... */\n    tag_14:\n      callvalue\n      dup1\n      iszero\n      tag_77\n      jumpi\n      0x00\n      dup1\n      revert\n    tag_77:\n      pop\n      tag_23\n      tag_79\n      calldatasize\n      0x04\n      tag_25\n      jump\t// in\n    tag_79:\n      tag_80\n      jump\t// in\n        /* \"@openzeppelin/contracts/finance/PaymentSplitter.sol\":4977:5530  function release(address payable account) public virtual {... */\n    tag_26:\n      sub(shl(0xa0, 0x01), 0x01)\n        /* \"@openzeppelin/contracts/finance/PaymentSplitter.sol\":5052:5068  _shares[account] */\n      dup2\n      and\n        /* \"@openzeppelin/contracts/finance/PaymentSplitter.sol\":5071:5072  0 */\n      0x00\n        /* \"@openzeppelin/contracts/finance/PaymentSplitter.sol\":5052:5068  _shares[account] */\n      swap1\n      dup2\n      mstore\n        /* \"@openzeppelin/contracts/finance/PaymentSplitter.sol\":5052:5059  _shares */\n      0x02\n        /* \"@openzeppelin/contracts/finance/PaymentSplitter.sol\":5052:5068  _shares[account] */\n      0x20\n      mstore\n      0x40\n      swap1\n      keccak256\n      sload\n        /* \"@openzeppelin/contracts/finance/PaymentSplitter.sol\":5044:5115  require(_shares[account] > 0, \"PaymentSplitter: account has no shares\") */\n      tag_83\n      jumpi\n      mload(0x40)\n      shl(0xe5, 0x461bcd)\n      dup2\n      mstore\n      0x04\n      add\n      tag_84\n      swap1\n      tag_85\n      jump\t// in\n    tag_84:\n      mload(0x40)\n      dup1\n      swap2\n      sub\n      swap1\n      revert\n    tag_83:\n        /* \"@openzeppelin/contracts/finance/PaymentSplitter.sol\":5126:5147  uint256 totalReceived */\n      0x00\n        /* \"@openzeppelin/contracts/finance/PaymentSplitter.sol\":5174:5189  totalReleased() */\n      tag_86\n        /* \"@openzeppelin/contracts/finance/PaymentSplitter.sol\":3624:3638  _totalReleased */\n      sload(0x01)\n      swap1\n        /* \"@openzeppelin/contracts/finance/PaymentSplitter.sol\":3552:3645  function totalReleased() public view returns (uint256) {... */\n      jump\n        /* \"@openzeppelin/contracts/finance/PaymentSplitter.sol\":5174:5189  totalReleased() */\n    tag_86:\n        /* \"@openzeppelin/contracts/finance/PaymentSplitter.sol\":5150:5189  address(this).balance + totalReleased() */\n      tag_87\n      swap1\n        /* \"@openzeppelin/contracts/finance/PaymentSplitter.sol\":5150:5171  address(this).balance */\n      selfbalance\n        /* \"@openzeppelin/contracts/finance/PaymentSplitter.sol\":5150:5189  address(this).balance + totalReleased() */\n      tag_88\n      jump\t// in\n    tag_87:\n        /* \"@openzeppelin/contracts/finance/PaymentSplitter.sol\":5126:5189  uint256 totalReceived = address(this).balance + totalReleased() */\n      swap1\n      pop\n        /* \"@openzeppelin/contracts/finance/PaymentSplitter.sol\":5199:5214  uint256 payment */\n      0x00\n        /* \"@openzeppelin/contracts/finance/PaymentSplitter.sol\":5217:5275  _pendingPayment(account, totalReceived, released(account)) */\n      tag_89\n        /* \"@openzeppelin/contracts/finance/PaymentSplitter.sol\":5233:5240  account */\n      dup4\n        /* \"@openzeppelin/contracts/finance/PaymentSplitter.sol\":5242:5255  totalReceived */\n      dup4\n        /* \"@openzeppelin/contracts/finance/PaymentSplitter.sol\":5257:5274  released(account) */\n      tag_90\n        /* \"@openzeppelin/contracts/finance/PaymentSplitter.sol\":5266:5273  account */\n      dup7\n      sub(shl(0xa0, 0x01), 0x01)\n        /* \"@openzeppelin/contracts/finance/PaymentSplitter.sol\":4278:4296  _released[account] */\n      and\n        /* \"@openzeppelin/contracts/finance/PaymentSplitter.sol\":4252:4259  uint256 */\n      0x00\n        /* \"@openzeppelin/contracts/finance/PaymentSplitter.sol\":4278:4296  _released[account] */\n      swap1\n      dup2\n      mstore\n        /* \"@openzeppelin/contracts/finance/PaymentSplitter.sol\":4278:4287  _released */\n      0x03\n        /* \"@openzeppelin/contracts/finance/PaymentSplitter.sol\":4278:4296  _released[account] */\n      0x20\n      mstore\n      0x40\n      swap1\n      keccak256\n      sload\n      swap1\n        /* \"@openzeppelin/contracts/finance/PaymentSplitter.sol\":4196:4303  function released(address account) public view returns (uint256) {... */\n      jump\n        /* \"@openzeppelin/contracts/finance/PaymentSplitter.sol\":5257:5274  released(account) */\n    tag_90:\n        /* \"@openzeppelin/contracts/finance/PaymentSplitter.sol\":5217:5232  _pendingPayment */\n      tag_91\n        /* \"@openzeppelin/contracts/finance/PaymentSplitter.sol\":5217:5275  _pendingPayment(account, totalReceived, released(account)) */\n      jump\t// in\n    tag_89:\n        /* \"@openzeppelin/contracts/finance/PaymentSplitter.sol\":5199:5275  uint256 payment = _pendingPayment(account, totalReceived, released(account)) */\n      swap1\n      pop\n        /* \"@openzeppelin/contracts/finance/PaymentSplitter.sol\":5294:5301  payment */\n      dup1\n        /* \"@openzeppelin/contracts/finance/PaymentSplitter.sol\":5305:5306  0 */\n      0x00\n        /* \"@openzeppelin/contracts/finance/PaymentSplitter.sol\":5294:5306  payment != 0 */\n      sub\n        /* \"@openzeppelin/contracts/finance/PaymentSplitter.sol\":5286:5354  require(payment != 0, \"PaymentSplitter: account is not due payment\") */\n      tag_92\n      jumpi\n      mload(0x40)\n      shl(0xe5, 0x461bcd)\n      dup2\n      mstore\n      0x04\n      add\n      tag_84\n      swap1\n      tag_94\n      jump\t// in\n    tag_92:\n      sub(shl(0xa0, 0x01), 0x01)\n        /* \"@openzeppelin/contracts/finance/PaymentSplitter.sol\":5365:5383  _released[account] */\n      dup4\n      and\n      0x00\n      swap1\n      dup2\n      mstore\n        /* \"@openzeppelin/contracts/finance/PaymentSplitter.sol\":5365:5374  _released */\n      0x03\n        /* \"@openzeppelin/contracts/finance/PaymentSplitter.sol\":5365:5383  _released[account] */\n      0x20\n      mstore\n      0x40\n      dup2\n      keccak256\n        /* \"@openzeppelin/contracts/finance/PaymentSplitter.sol\":5365:5394  _released[account] += payment */\n      dup1\n      sload\n        /* \"@openzeppelin/contracts/finance/PaymentSplitter.sol\":5387:5394  payment */\n      dup4\n      swap3\n        /* \"@openzeppelin/contracts/finance/PaymentSplitter.sol\":5365:5383  _released[account] */\n      swap1\n        /* \"@openzeppelin/contracts/finance/PaymentSplitter.sol\":5365:5394  _released[account] += payment */\n      tag_95\n      swap1\n        /* \"@openzeppelin/contracts/finance/PaymentSplitter.sol\":5387:5394  payment */\n      dup5\n      swap1\n        /* \"@openzeppelin/contracts/finance/PaymentSplitter.sol\":5365:5394  _released[account] += payment */\n      tag_88\n      jump\t// in\n    tag_95:\n      swap3\n      pop\n      pop\n      dup2\n      swap1\n      sstore\n      pop\n        /* \"@openzeppelin/contracts/finance/PaymentSplitter.sol\":5422:5429  payment */\n      dup1\n        /* \"@openzeppelin/contracts/finance/PaymentSplitter.sol\":5404:5418  _totalReleased */\n      0x01\n      0x00\n        /* \"@openzeppelin/contracts/finance/PaymentSplitter.sol\":5404:5429  _totalReleased += payment */\n      dup3\n      dup3\n      sload\n      tag_96\n      swap2\n      swap1\n      tag_88\n      jump\t// in\n    tag_96:\n      swap1\n      swap2\n      sstore\n      pop\n        /* \"@openzeppelin/contracts/finance/PaymentSplitter.sol\":5440:5475  Address.sendValue(account, payment) */\n      tag_97\n      swap1\n      pop\n        /* \"@openzeppelin/contracts/finance/PaymentSplitter.sol\":5458:5465  account */\n      dup4\n        /* \"@openzeppelin/contracts/finance/PaymentSplitter.sol\":5467:5474  payment */\n      dup3\n        /* \"@openzeppelin/contracts/finance/PaymentSplitter.sol\":5440:5457  Address.sendValue */\n      tag_98\n        /* \"@openzeppelin/contracts/finance/PaymentSplitter.sol\":5440:5475  Address.sendValue(account, payment) */\n      jump\t// in\n    tag_97:\n        /* \"@openzeppelin/contracts/finance/PaymentSplitter.sol\":5490:5523  PaymentReleased(account, payment) */\n      0x40\n      dup1\n      mload\n      sub(shl(0xa0, 0x01), 0x01)\n        /* \"#utility.yul\":206:238   */\n      dup6\n      and\n        /* \"#utility.yul\":188:239   */\n      dup2\n      mstore\n        /* \"#utility.yul\":270:272   */\n      0x20\n        /* \"#utility.yul\":255:273   */\n      dup2\n      add\n        /* \"#utility.yul\":248:282   */\n      dup4\n      swap1\n      mstore\n        /* \"@openzeppelin/contracts/finance/PaymentSplitter.sol\":5490:5523  PaymentReleased(account, payment) */\n      0xdf20fd1e76bc69d672e4814fafb2c449bba3a5369d8359adf9e05e6fde87b056\n      swap2\n        /* \"#utility.yul\":161:179   */\n      add\n        /* \"@openzeppelin/contracts/finance/PaymentSplitter.sol\":5490:5523  PaymentReleased(account, payment) */\n      mload(0x40)\n      dup1\n      swap2\n      sub\n      swap1\n      log1\n        /* \"@openzeppelin/contracts/finance/PaymentSplitter.sol\":5034:5530  {... */\n      pop\n      pop\n        /* \"@openzeppelin/contracts/finance/PaymentSplitter.sol\":4977:5530  function release(address payable account) public virtual {... */\n      pop\n      jump\t// out\n        /* \"@openzeppelin/contracts/finance/PaymentSplitter.sol\":5791:6419  function release(IERC20 token, address account) public virtual {... */\n    tag_41:\n      sub(shl(0xa0, 0x01), 0x01)\n        /* \"@openzeppelin/contracts/finance/PaymentSplitter.sol\":5872:5888  _shares[account] */\n      dup2\n      and\n        /* \"@openzeppelin/contracts/finance/PaymentSplitter.sol\":5891:5892  0 */\n      0x00\n        /* \"@openzeppelin/contracts/finance/PaymentSplitter.sol\":5872:5888  _shares[account] */\n      swap1\n      dup2\n      mstore\n        /* \"@openzeppelin/contracts/finance/PaymentSplitter.sol\":5872:5879  _shares */\n      0x02\n        /* \"@openzeppelin/contracts/finance/PaymentSplitter.sol\":5872:5888  _shares[account] */\n      0x20\n      mstore\n      0x40\n      swap1\n      keccak256\n      sload\n        /* \"@openzeppelin/contracts/finance/PaymentSplitter.sol\":5864:5935  require(_shares[account] > 0, \"PaymentSplitter: account has no shares\") */\n      tag_104\n      jumpi\n      mload(0x40)\n      shl(0xe5, 0x461bcd)\n      dup2\n      mstore\n      0x04\n      add\n      tag_84\n      swap1\n      tag_85\n      jump\t// in\n    tag_104:\n      sub(shl(0xa0, 0x01), 0x01)\n        /* \"@openzeppelin/contracts/finance/PaymentSplitter.sol\":3880:3906  _erc20TotalReleased[token] */\n      dup3\n      and\n        /* \"@openzeppelin/contracts/finance/PaymentSplitter.sol\":5946:5967  uint256 totalReceived */\n      0x00\n        /* \"@openzeppelin/contracts/finance/PaymentSplitter.sol\":3880:3906  _erc20TotalReleased[token] */\n      swap1\n      dup2\n      mstore\n        /* \"@openzeppelin/contracts/finance/PaymentSplitter.sol\":3880:3899  _erc20TotalReleased */\n      0x05\n        /* \"@openzeppelin/contracts/finance/PaymentSplitter.sol\":3880:3906  _erc20TotalReleased[token] */\n      0x20\n      mstore\n      0x40\n      dup2\n      keccak256\n      sload\n        /* \"@openzeppelin/contracts/finance/PaymentSplitter.sol\":5970:6000  token.balanceOf(address(this)) */\n      mload(0x40)\n      shl(0xe0, 0x70a08231)\n      dup2\n      mstore\n        /* \"@openzeppelin/contracts/finance/PaymentSplitter.sol\":5994:5998  this */\n      address\n        /* \"@openzeppelin/contracts/finance/PaymentSplitter.sol\":5970:6000  token.balanceOf(address(this)) */\n      0x04\n      dup3\n      add\n        /* \"#utility.yul\":1641:1692   */\n      mstore\n      sub(shl(0xa0, 0x01), 0x01)\n        /* \"@openzeppelin/contracts/finance/PaymentSplitter.sol\":5970:5985  token.balanceOf */\n      dup6\n      and\n      swap1\n      0x70a08231\n      swap1\n        /* \"#utility.yul\":1614:1632   */\n      0x24\n      add\n        /* \"@openzeppelin/contracts/finance/PaymentSplitter.sol\":5970:6000  token.balanceOf(address(this)) */\n      0x20\n      mload(0x40)\n      dup1\n      dup4\n      sub\n      dup2\n      dup7\n      gas\n      staticcall\n      iszero\n      dup1\n      iszero\n      tag_109\n      jumpi\n      returndatasize\n      0x00\n      dup1\n      returndatacopy\n      revert(0x00, returndatasize)\n    tag_109:\n      pop\n      pop\n      pop\n      pop\n      mload(0x40)\n      returndatasize\n      not(0x1f)\n      0x1f\n      dup3\n      add\n      and\n      dup3\n      add\n      dup1\n      0x40\n      mstore\n      pop\n      dup2\n      add\n      swap1\n      tag_110\n      swap2\n      swap1\n      tag_111\n      jump\t// in\n    tag_110:\n        /* \"@openzeppelin/contracts/finance/PaymentSplitter.sol\":5970:6023  token.balanceOf(address(this)) + totalReleased(token) */\n      tag_112\n      swap2\n      swap1\n      tag_88\n      jump\t// in\n    tag_112:\n        /* \"@openzeppelin/contracts/finance/PaymentSplitter.sol\":5946:6023  uint256 totalReceived = token.balanceOf(address(this)) + totalReleased(token) */\n      swap1\n      pop\n        /* \"@openzeppelin/contracts/finance/PaymentSplitter.sol\":6033:6048  uint256 payment */\n      0x00\n        /* \"@openzeppelin/contracts/finance/PaymentSplitter.sol\":6051:6116  _pendingPayment(account, totalReceived, released(token, account)) */\n      tag_113\n        /* \"@openzeppelin/contracts/finance/PaymentSplitter.sol\":6067:6074  account */\n      dup4\n        /* \"@openzeppelin/contracts/finance/PaymentSplitter.sol\":6076:6089  totalReceived */\n      dup4\n        /* \"@openzeppelin/contracts/finance/PaymentSplitter.sol\":6091:6115  released(token, account) */\n      tag_90\n        /* \"@openzeppelin/contracts/finance/PaymentSplitter.sol\":6100:6105  token */\n      dup8\n        /* \"@openzeppelin/contracts/finance/PaymentSplitter.sol\":6107:6114  account */\n      dup8\n      sub(shl(0xa0, 0x01), 0x01)\n        /* \"@openzeppelin/contracts/finance/PaymentSplitter.sol\":4562:4583  _erc20Released[token] */\n      swap2\n      dup3\n      and\n        /* \"@openzeppelin/contracts/finance/PaymentSplitter.sol\":4536:4543  uint256 */\n      0x00\n        /* \"@openzeppelin/contracts/finance/PaymentSplitter.sol\":4562:4583  _erc20Released[token] */\n      swap1\n      dup2\n      mstore\n        /* \"@openzeppelin/contracts/finance/PaymentSplitter.sol\":4562:4576  _erc20Released */\n      0x06\n        /* \"@openzeppelin/contracts/finance/PaymentSplitter.sol\":4562:4583  _erc20Released[token] */\n      0x20\n      swap1\n      dup2\n      mstore\n      0x40\n      dup1\n      dup4\n      keccak256\n        /* \"@openzeppelin/contracts/finance/PaymentSplitter.sol\":4562:4592  _erc20Released[token][account] */\n      swap4\n      swap1\n      swap5\n      and\n      dup3\n      mstore\n      swap2\n      swap1\n      swap2\n      mstore\n      keccak256\n      sload\n      swap1\n        /* \"@openzeppelin/contracts/finance/PaymentSplitter.sol\":4466:4599  function released(IERC20 token, address account) public view returns (uint256) {... */\n      jump\n        /* \"@openzeppelin/contracts/finance/PaymentSplitter.sol\":6051:6116  _pendingPayment(account, totalReceived, released(token, account)) */\n    tag_113:\n        /* \"@openzeppelin/contracts/finance/PaymentSplitter.sol\":6033:6116  uint256 payment = _pendingPayment(account, totalReceived, released(token, account)) */\n      swap1\n      pop\n        /* \"@openzeppelin/contracts/finance/PaymentSplitter.sol\":6135:6142  payment */\n      dup1\n        /* \"@openzeppelin/contracts/finance/PaymentSplitter.sol\":6146:6147  0 */\n      0x00\n        /* \"@openzeppelin/contracts/finance/PaymentSplitter.sol\":6135:6147  payment != 0 */\n      sub\n        /* \"@openzeppelin/contracts/finance/PaymentSplitter.sol\":6127:6195  require(payment != 0, \"PaymentSplitter: account is not due payment\") */\n      tag_115\n      jumpi\n      mload(0x40)\n      shl(0xe5, 0x461bcd)\n      dup2\n      mstore\n      0x04\n      add\n      tag_84\n      swap1\n      tag_94\n      jump\t// in\n    tag_115:\n      sub(shl(0xa0, 0x01), 0x01)\n        /* \"@openzeppelin/contracts/finance/PaymentSplitter.sol\":6206:6227  _erc20Released[token] */\n      dup1\n      dup6\n      and\n      0x00\n      swap1\n      dup2\n      mstore\n        /* \"@openzeppelin/contracts/finance/PaymentSplitter.sol\":6206:6220  _erc20Released */\n      0x06\n        /* \"@openzeppelin/contracts/finance/PaymentSplitter.sol\":6206:6227  _erc20Released[token] */\n      0x20\n      swap1\n      dup2\n      mstore\n      0x40\n      dup1\n      dup4\n      keccak256\n        /* \"@openzeppelin/contracts/finance/PaymentSplitter.sol\":6206:6236  _erc20Released[token][account] */\n      swap4\n      dup8\n      and\n      dup4\n      mstore\n      swap3\n      swap1\n      mstore\n      swap1\n      dup2\n      keccak256\n        /* \"@openzeppelin/contracts/finance/PaymentSplitter.sol\":6206:6247  _erc20Released[token][account] += payment */\n      dup1\n      sload\n        /* \"@openzeppelin/contracts/finance/PaymentSplitter.sol\":6240:6247  payment */\n      dup4\n      swap3\n        /* \"@openzeppelin/contracts/finance/PaymentSplitter.sol\":6206:6227  _erc20Released[token] */\n      swap1\n        /* \"@openzeppelin/contracts/finance/PaymentSplitter.sol\":6206:6247  _erc20Released[token][account] += payment */\n      tag_117\n      swap1\n        /* \"@openzeppelin/contracts/finance/PaymentSplitter.sol\":6240:6247  payment */\n      dup5\n      swap1\n        /* \"@openzeppelin/contracts/finance/PaymentSplitter.sol\":6206:6247  _erc20Released[token][account] += payment */\n      tag_88\n      jump\t// in\n    tag_117:\n      swap1\n      swap2\n      sstore\n      pop\n      pop\n      sub(shl(0xa0, 0x01), 0x01)\n        /* \"@openzeppelin/contracts/finance/PaymentSplitter.sol\":6257:6283  _erc20TotalReleased[token] */\n      dup5\n      and\n      0x00\n      swap1\n      dup2\n      mstore\n        /* \"@openzeppelin/contracts/finance/PaymentSplitter.sol\":6257:6276  _erc20TotalReleased */\n      0x05\n        /* \"@openzeppelin/contracts/finance/PaymentSplitter.sol\":6257:6283  _erc20TotalReleased[token] */\n      0x20\n      mstore\n      0x40\n      dup2\n      keccak256\n        /* \"@openzeppelin/contracts/finance/PaymentSplitter.sol\":6257:6294  _erc20TotalReleased[token] += payment */\n      dup1\n      sload\n        /* \"@openzeppelin/contracts/finance/PaymentSplitter.sol\":6287:6294  payment */\n      dup4\n      swap3\n        /* \"@openzeppelin/contracts/finance/PaymentSplitter.sol\":6257:6283  _erc20TotalReleased[token] */\n      swap1\n        /* \"@openzeppelin/contracts/finance/PaymentSplitter.sol\":6257:6294  _erc20TotalReleased[token] += payment */\n      tag_118\n      swap1\n        /* \"@openzeppelin/contracts/finance/PaymentSplitter.sol\":6287:6294  payment */\n      dup5\n      swap1\n        /* \"@openzeppelin/contracts/finance/PaymentSplitter.sol\":6257:6294  _erc20TotalReleased[token] += payment */\n      tag_88\n      jump\t// in\n    tag_118:\n      swap1\n      swap2\n      sstore\n      pop\n        /* \"@openzeppelin/contracts/finance/PaymentSplitter.sol\":6305:6352  SafeERC20.safeTransfer(token, account, payment) */\n      tag_119\n      swap1\n      pop\n        /* \"@openzeppelin/contracts/finance/PaymentSplitter.sol\":6328:6333  token */\n      dup5\n        /* \"@openzeppelin/contracts/finance/PaymentSplitter.sol\":6335:6342  account */\n      dup5\n        /* \"@openzeppelin/contracts/finance/PaymentSplitter.sol\":6344:6351  payment */\n      dup4\n        /* \"@openzeppelin/contracts/finance/PaymentSplitter.sol\":6305:6327  SafeERC20.safeTransfer */\n      tag_120\n        /* \"@openzeppelin/contracts/finance/PaymentSplitter.sol\":6305:6352  SafeERC20.safeTransfer(token, account, payment) */\n      jump\t// in\n    tag_119:\n        /* \"@openzeppelin/contracts/finance/PaymentSplitter.sol\":6367:6412  ERC20PaymentReleased(token, account, payment) */\n      0x40\n      dup1\n      mload\n      sub(shl(0xa0, 0x01), 0x01)\n        /* \"#utility.yul\":206:238   */\n      dup6\n      dup2\n      and\n        /* \"#utility.yul\":188:239   */\n      dup3\n      mstore\n        /* \"#utility.yul\":270:272   */\n      0x20\n        /* \"#utility.yul\":255:273   */\n      dup3\n      add\n        /* \"#utility.yul\":248:282   */\n      dup5\n      swap1\n      mstore\n        /* \"@openzeppelin/contracts/finance/PaymentSplitter.sol\":6367:6412  ERC20PaymentReleased(token, account, payment) */\n      dup7\n      and\n      swap2\n      0x3be5b7a71e84ed12875d241991c70855ac5817d847039e17a9d895c1ceb0f18a\n      swap2\n        /* \"#utility.yul\":161:179   */\n      add\n        /* \"@openzeppelin/contracts/finance/PaymentSplitter.sol\":6367:6412  ERC20PaymentReleased(token, account, payment) */\n      mload(0x40)\n      dup1\n      swap2\n      sub\n      swap1\n      log2\n        /* \"@openzeppelin/contracts/finance/PaymentSplitter.sol\":5854:6419  {... */\n      pop\n      pop\n        /* \"@openzeppelin/contracts/finance/PaymentSplitter.sol\":5791:6419  function release(IERC20 token, address account) public virtual {... */\n      pop\n      pop\n      jump\t// out\n        /* \"@openzeppelin/contracts/access/Ownable.sol\":1668:1769  function renounceOwnership() public virtual onlyOwner {... */\n    tag_44:\n        /* \"@openzeppelin/contracts/access/Ownable.sol\":1108:1114  _owner */\n      and(sub(shl(0xa0, 0x01), 0x01), sload(0x07))\n        /* \"@openzeppelin/contracts/utils/Context.sol\":719:729  msg.sender */\n      caller\n        /* \"@openzeppelin/contracts/access/Ownable.sol\":1248:1271  owner() == _msgSender() */\n      eq\n        /* \"@openzeppelin/contracts/access/Ownable.sol\":1240:1308  require(owner() == _msgSender(), \"Ownable: caller is not the owner\") */\n      tag_125\n      jumpi\n      mload(0x40)\n      shl(0xe5, 0x461bcd)\n      dup2\n      mstore\n        /* \"#utility.yul\":3999:4001   */\n      0x20\n        /* \"@openzeppelin/contracts/access/Ownable.sol\":1240:1308  require(owner() == _msgSender(), \"Ownable: caller is not the owner\") */\n      0x04\n      dup3\n      add\n        /* \"#utility.yul\":3981:4002   */\n      dup2\n      swap1\n      mstore\n        /* \"#utility.yul\":4018:4036   */\n      0x24\n      dup3\n      add\n        /* \"#utility.yul\":4011:4041   */\n      mstore\n        /* \"#utility.yul\":4077:4111   */\n      0x4f776e61626c653a2063616c6c6572206973206e6f7420746865206f776e6572\n        /* \"#utility.yul\":4057:4075   */\n      0x44\n      dup3\n      add\n        /* \"#utility.yul\":4050:4112   */\n      mstore\n        /* \"#utility.yul\":4129:4147   */\n      0x64\n      add\n        /* \"@openzeppelin/contracts/access/Ownable.sol\":1240:1308  require(owner() == _msgSender(), \"Ownable: caller is not the owner\") */\n      tag_84\n        /* \"#utility.yul\":3797:4153   */\n      jump\n        /* \"@openzeppelin/contracts/access/Ownable.sol\":1240:1308  require(owner() == _msgSender(), \"Ownable: caller is not the owner\") */\n    tag_125:\n        /* \"@openzeppelin/contracts/access/Ownable.sol\":1732:1762  _transferOwnership(address(0)) */\n      tag_129\n        /* \"@openzeppelin/contracts/access/Ownable.sol\":1759:1760  0 */\n      0x00\n        /* \"@openzeppelin/contracts/access/Ownable.sol\":1732:1750  _transferOwnership */\n      tag_130\n        /* \"@openzeppelin/contracts/access/Ownable.sol\":1732:1762  _transferOwnership(address(0)) */\n      jump\t// in\n    tag_129:\n        /* \"@openzeppelin/contracts/access/Ownable.sol\":1668:1769  function renounceOwnership() public virtual onlyOwner {... */\n      jump\t// out\n        /* \"@openzeppelin/contracts/finance/PaymentSplitter.sol\":4685:4783  function payee(uint256 index) public view returns (address) {... */\n    tag_49:\n        /* \"@openzeppelin/contracts/finance/PaymentSplitter.sol\":4736:4743  address */\n      0x00\n        /* \"@openzeppelin/contracts/finance/PaymentSplitter.sol\":4762:4769  _payees */\n      0x04\n        /* \"@openzeppelin/contracts/finance/PaymentSplitter.sol\":4770:4775  index */\n      dup3\n        /* \"@openzeppelin/contracts/finance/PaymentSplitter.sol\":4762:4776  _payees[index] */\n      dup2\n      sload\n      dup2\n      lt\n      tag_133\n      jumpi\n      tag_133\n      tag_134\n      jump\t// in\n    tag_133:\n      0x00\n      swap2\n      dup3\n      mstore\n      0x20\n      swap1\n      swap2\n      keccak256\n      add\n      sload\n      sub(shl(0xa0, 0x01), 0x01)\n      and\n      swap3\n        /* \"@openzeppelin/contracts/finance/PaymentSplitter.sol\":4685:4783  function payee(uint256 index) public view returns (address) {... */\n      swap2\n      pop\n      pop\n      jump\t// out\n        /* \"@openzeppelin/contracts/access/Ownable.sol\":1918:2116  function transferOwnership(address newOwner) public virtual onlyOwner {... */\n    tag_80:\n        /* \"@openzeppelin/contracts/access/Ownable.sol\":1108:1114  _owner */\n      and(sub(shl(0xa0, 0x01), 0x01), sload(0x07))\n        /* \"@openzeppelin/contracts/utils/Context.sol\":719:729  msg.sender */\n      caller\n        /* \"@openzeppelin/contracts/access/Ownable.sol\":1248:1271  owner() == _msgSender() */\n      eq\n        /* \"@openzeppelin/contracts/access/Ownable.sol\":1240:1308  require(owner() == _msgSender(), \"Ownable: caller is not the owner\") */\n      tag_144\n      jumpi\n      mload(0x40)\n      shl(0xe5, 0x461bcd)\n      dup2\n      mstore\n        /* \"#utility.yul\":3999:4001   */\n      0x20\n        /* \"@openzeppelin/contracts/access/Ownable.sol\":1240:1308  require(owner() == _msgSender(), \"Ownable: caller is not the owner\") */\n      0x04\n      dup3\n      add\n        /* \"#utility.yul\":3981:4002   */\n      dup2\n      swap1\n      mstore\n        /* \"#utility.yul\":4018:4036   */\n      0x24\n      dup3\n      add\n        /* \"#utility.yul\":4011:4041   */\n      mstore\n        /* \"#utility.yul\":4077:4111   */\n      0x4f776e61626c653a2063616c6c6572206973206e6f7420746865206f776e6572\n        /* \"#utility.yul\":4057:4075   */\n      0x44\n      dup3\n      add\n        /* \"#utility.yul\":4050:4112   */\n      mstore\n        /* \"#utility.yul\":4129:4147   */\n      0x64\n      add\n        /* \"@openzeppelin/contracts/access/Ownable.sol\":1240:1308  require(owner() == _msgSender(), \"Ownable: caller is not the owner\") */\n      tag_84\n        /* \"#utility.yul\":3797:4153   */\n      jump\n        /* \"@openzeppelin/contracts/access/Ownable.sol\":1240:1308  require(owner() == _msgSender(), \"Ownable: caller is not the owner\") */\n    tag_144:\n      sub(shl(0xa0, 0x01), 0x01)\n        /* \"@openzeppelin/contracts/access/Ownable.sol\":2006:2028  newOwner != address(0) */\n      dup2\n      and\n        /* \"@openzeppelin/contracts/access/Ownable.sol\":1998:2071  require(newOwner != address(0), \"Ownable: new owner is the zero address\") */\n      tag_147\n      jumpi\n      mload(0x40)\n      shl(0xe5, 0x461bcd)\n      dup2\n      mstore\n        /* \"#utility.yul\":4492:4494   */\n      0x20\n        /* \"@openzeppelin/contracts/access/Ownable.sol\":1998:2071  require(newOwner != address(0), \"Ownable: new owner is the zero address\") */\n      0x04\n      dup3\n      add\n        /* \"#utility.yul\":4474:4495   */\n      mstore\n        /* \"#utility.yul\":4531:4533   */\n      0x26\n        /* \"#utility.yul\":4511:4529   */\n      0x24\n      dup3\n      add\n        /* \"#utility.yul\":4504:4534   */\n      mstore\n        /* \"#utility.yul\":4570:4604   */\n      0x4f776e61626c653a206e6577206f776e657220697320746865207a65726f2061\n        /* \"#utility.yul\":4550:4568   */\n      0x44\n      dup3\n      add\n        /* \"#utility.yul\":4543:4605   */\n      mstore\n      shl(0xd0, 0x646472657373)\n        /* \"#utility.yul\":4621:4639   */\n      0x64\n      dup3\n      add\n        /* \"#utility.yul\":4614:4650   */\n      mstore\n        /* \"#utility.yul\":4667:4686   */\n      0x84\n      add\n        /* \"@openzeppelin/contracts/access/Ownable.sol\":1998:2071  require(newOwner != address(0), \"Ownable: new owner is the zero address\") */\n      tag_84\n        /* \"#utility.yul\":4290:4692   */\n      jump\n        /* \"@openzeppelin/contracts/access/Ownable.sol\":1998:2071  require(newOwner != address(0), \"Ownable: new owner is the zero address\") */\n    tag_147:\n        /* \"@openzeppelin/contracts/access/Ownable.sol\":2081:2109  _transferOwnership(newOwner) */\n      tag_150\n        /* \"@openzeppelin/contracts/access/Ownable.sol\":2100:2108  newOwner */\n      dup2\n        /* \"@openzeppelin/contracts/access/Ownable.sol\":2081:2099  _transferOwnership */\n      tag_130\n        /* \"@openzeppelin/contracts/access/Ownable.sol\":2081:2109  _transferOwnership(newOwner) */\n      jump\t// in\n    tag_150:\n        /* \"@openzeppelin/contracts/access/Ownable.sol\":1918:2116  function transferOwnership(address newOwner) public virtual onlyOwner {... */\n      pop\n      jump\t// out\n        /* \"@openzeppelin/contracts/finance/PaymentSplitter.sol\":6591:6833  function _pendingPayment(... */\n    tag_91:\n        /* \"@openzeppelin/contracts/finance/PaymentSplitter.sol\":6733:6740  uint256 */\n      0x00\n        /* \"@openzeppelin/contracts/finance/PaymentSplitter.sol\":6796:6808  _totalShares */\n      dup1\n      sload\n      sub(shl(0xa0, 0x01), 0x01)\n        /* \"@openzeppelin/contracts/finance/PaymentSplitter.sol\":6776:6792  _shares[account] */\n      dup6\n      and\n      dup3\n      mstore\n        /* \"@openzeppelin/contracts/finance/PaymentSplitter.sol\":6776:6783  _shares */\n      0x02\n        /* \"@openzeppelin/contracts/finance/PaymentSplitter.sol\":6776:6792  _shares[account] */\n      0x20\n      mstore\n      0x40\n      dup3\n      keccak256\n      sload\n        /* \"@openzeppelin/contracts/finance/PaymentSplitter.sol\":6811:6826  alreadyReleased */\n      dup4\n      swap2\n        /* \"@openzeppelin/contracts/finance/PaymentSplitter.sol\":6796:6808  _totalShares */\n      swap1\n        /* \"@openzeppelin/contracts/finance/PaymentSplitter.sol\":6760:6792  totalReceived * _shares[account] */\n      tag_152\n      swap1\n        /* \"@openzeppelin/contracts/finance/PaymentSplitter.sol\":6760:6773  totalReceived */\n      dup7\n        /* \"@openzeppelin/contracts/finance/PaymentSplitter.sol\":6760:6792  totalReceived * _shares[account] */\n      tag_153\n      jump\t// in\n    tag_152:\n        /* \"@openzeppelin/contracts/finance/PaymentSplitter.sol\":6759:6808  (totalReceived * _shares[account]) / _totalShares */\n      tag_154\n      swap2\n      swap1\n      tag_155\n      jump\t// in\n    tag_154:\n        /* \"@openzeppelin/contracts/finance/PaymentSplitter.sol\":6759:6826  (totalReceived * _shares[account]) / _totalShares - alreadyReleased */\n      tag_156\n      swap2\n      swap1\n      tag_157\n      jump\t// in\n    tag_156:\n        /* \"@openzeppelin/contracts/finance/PaymentSplitter.sol\":6752:6826  return (totalReceived * _shares[account]) / _totalShares - alreadyReleased */\n      swap1\n      pop\n        /* \"@openzeppelin/contracts/finance/PaymentSplitter.sol\":6591:6833  function _pendingPayment(... */\n    tag_151:\n      swap4\n      swap3\n      pop\n      pop\n      pop\n      jump\t// out\n        /* \"@openzeppelin/contracts/utils/Address.sol\":2412:2724  function sendValue(address payable recipient, uint256 amount) internal {... */\n    tag_98:\n        /* \"@openzeppelin/contracts/utils/Address.sol\":2526:2532  amount */\n      dup1\n        /* \"@openzeppelin/contracts/utils/Address.sol\":2501:2522  address(this).balance */\n      selfbalance\n        /* \"@openzeppelin/contracts/utils/Address.sol\":2501:2532  address(this).balance >= amount */\n      lt\n      iszero\n        /* \"@openzeppelin/contracts/utils/Address.sol\":2493:2566  require(address(this).balance >= amount, \"Address: insufficient balance\") */\n      tag_159\n      jumpi\n      mload(0x40)\n      shl(0xe5, 0x461bcd)\n      dup2\n      mstore\n        /* \"#utility.yul\":5424:5426   */\n      0x20\n        /* \"@openzeppelin/contracts/utils/Address.sol\":2493:2566  require(address(this).balance >= amount, \"Address: insufficient balance\") */\n      0x04\n      dup3\n      add\n        /* \"#utility.yul\":5406:5427   */\n      mstore\n        /* \"#utility.yul\":5463:5465   */\n      0x1d\n        /* \"#utility.yul\":5443:5461   */\n      0x24\n      dup3\n      add\n        /* \"#utility.yul\":5436:5466   */\n      mstore\n        /* \"#utility.yul\":5502:5533   */\n      0x416464726573733a20696e73756666696369656e742062616c616e6365000000\n        /* \"#utility.yul\":5482:5500   */\n      0x44\n      dup3\n      add\n        /* \"#utility.yul\":5475:5534   */\n      mstore\n        /* \"#utility.yul\":5551:5569   */\n      0x64\n      add\n        /* \"@openzeppelin/contracts/utils/Address.sol\":2493:2566  require(address(this).balance >= amount, \"Address: insufficient balance\") */\n      tag_84\n        /* \"#utility.yul\":5222:5575   */\n      jump\n        /* \"@openzeppelin/contracts/utils/Address.sol\":2493:2566  require(address(this).balance >= amount, \"Address: insufficient balance\") */\n    tag_159:\n        /* \"@openzeppelin/contracts/utils/Address.sol\":2578:2590  bool success */\n      0x00\n        /* \"@openzeppelin/contracts/utils/Address.sol\":2596:2605  recipient */\n      dup3\n      sub(shl(0xa0, 0x01), 0x01)\n        /* \"@openzeppelin/contracts/utils/Address.sol\":2596:2610  recipient.call */\n      and\n        /* \"@openzeppelin/contracts/utils/Address.sol\":2618:2624  amount */\n      dup3\n        /* \"@openzeppelin/contracts/utils/Address.sol\":2596:2629  recipient.call{value: amount}(\"\") */\n      mload(0x40)\n      0x00\n      mload(0x40)\n      dup1\n      dup4\n      sub\n      dup2\n      dup6\n      dup8\n      gas\n      call\n      swap3\n      pop\n      pop\n      pop\n      returndatasize\n      dup1\n      0x00\n      dup2\n      eq\n      tag_166\n      jumpi\n      mload(0x40)\n      swap2\n      pop\n      and(add(returndatasize, 0x3f), not(0x1f))\n      dup3\n      add\n      0x40\n      mstore\n      returndatasize\n      dup3\n      mstore\n      returndatasize\n      0x00\n      0x20\n      dup5\n      add\n      returndatacopy\n      jump(tag_165)\n    tag_166:\n      0x60\n      swap2\n      pop\n    tag_165:\n      pop\n        /* \"@openzeppelin/contracts/utils/Address.sol\":2577:2629  (bool success, ) = recipient.call{value: amount}(\"\") */\n      pop\n      swap1\n      pop\n        /* \"@openzeppelin/contracts/utils/Address.sol\":2647:2654  success */\n      dup1\n        /* \"@openzeppelin/contracts/utils/Address.sol\":2639:2717  require(success, \"Address: unable to send value, recipient may have reverted\") */\n      tag_167\n      jumpi\n      mload(0x40)\n      shl(0xe5, 0x461bcd)\n      dup2\n      mstore\n        /* \"#utility.yul\":5992:5994   */\n      0x20\n        /* \"@openzeppelin/contracts/utils/Address.sol\":2639:2717  require(success, \"Address: unable to send value, recipient may have reverted\") */\n      0x04\n      dup3\n      add\n        /* \"#utility.yul\":5974:5995   */\n      mstore\n        /* \"#utility.yul\":6031:6033   */\n      0x3a\n        /* \"#utility.yul\":6011:6029   */\n      0x24\n      dup3\n      add\n        /* \"#utility.yul\":6004:6034   */\n      mstore\n        /* \"#utility.yul\":6070:6104   */\n      0x416464726573733a20756e61626c6520746f2073656e642076616c75652c2072\n        /* \"#utility.yul\":6050:6068   */\n      0x44\n      dup3\n      add\n        /* \"#utility.yul\":6043:6105   */\n      mstore\n        /* \"#utility.yul\":6141:6169   */\n      0x6563697069656e74206d61792068617665207265766572746564000000000000\n        /* \"#utility.yul\":6121:6139   */\n      0x64\n      dup3\n      add\n        /* \"#utility.yul\":6114:6170   */\n      mstore\n        /* \"#utility.yul\":6187:6206   */\n      0x84\n      add\n        /* \"@openzeppelin/contracts/utils/Address.sol\":2639:2717  require(success, \"Address: unable to send value, recipient may have reverted\") */\n      tag_84\n        /* \"#utility.yul\":5790:6212   */\n      jump\n        /* \"@openzeppelin/contracts/utils/Address.sol\":2639:2717  require(success, \"Address: unable to send value, recipient may have reverted\") */\n    tag_167:\n        /* \"@openzeppelin/contracts/utils/Address.sol\":2483:2724  {... */\n      pop\n        /* \"@openzeppelin/contracts/utils/Address.sol\":2412:2724  function sendValue(address payable recipient, uint256 amount) internal {... */\n      pop\n      pop\n      jump\t// out\n        /* \"@openzeppelin/contracts/token/ERC20/utils/SafeERC20.sol\":701:906  function safeTransfer(... */\n    tag_120:\n        /* \"@openzeppelin/contracts/token/ERC20/utils/SafeERC20.sol\":840:898  abi.encodeWithSelector(token.transfer.selector, to, value) */\n      0x40\n      dup1\n      mload\n      sub(shl(0xa0, 0x01), 0x01)\n        /* \"#utility.yul\":206:238   */\n      dup5\n      and\n        /* \"@openzeppelin/contracts/token/ERC20/utils/SafeERC20.sol\":840:898  abi.encodeWithSelector(token.transfer.selector, to, value) */\n      0x24\n      dup3\n      add\n        /* \"#utility.yul\":188:239   */\n      mstore\n        /* \"#utility.yul\":255:273   */\n      0x44\n      dup1\n      dup3\n      add\n        /* \"#utility.yul\":248:282   */\n      dup5\n      swap1\n      mstore\n        /* \"@openzeppelin/contracts/token/ERC20/utils/SafeERC20.sol\":840:898  abi.encodeWithSelector(token.transfer.selector, to, value) */\n      dup3\n      mload\n      dup1\n      dup4\n      sub\n      swap1\n      swap2\n      add\n      dup2\n      mstore\n        /* \"#utility.yul\":161:179   */\n      0x64\n      swap1\n      swap2\n      add\n        /* \"@openzeppelin/contracts/token/ERC20/utils/SafeERC20.sol\":840:898  abi.encodeWithSelector(token.transfer.selector, to, value) */\n      swap1\n      swap2\n      mstore\n      0x20\n      dup2\n      add\n      dup1\n      mload\n      sub(shl(0xe0, 0x01), 0x01)\n      and\n      shl(0xe0, 0xa9059cbb)\n      or\n      swap1\n      mstore\n        /* \"@openzeppelin/contracts/token/ERC20/utils/SafeERC20.sol\":813:899  _callOptionalReturn(token, abi.encodeWithSelector(token.transfer.selector, to, value)) */\n      tag_167\n      swap1\n        /* \"@openzeppelin/contracts/token/ERC20/utils/SafeERC20.sol\":833:838  token */\n      dup5\n      swap1\n        /* \"@openzeppelin/contracts/token/ERC20/utils/SafeERC20.sol\":813:832  _callOptionalReturn */\n      tag_173\n        /* \"@openzeppelin/contracts/token/ERC20/utils/SafeERC20.sol\":813:899  _callOptionalReturn(token, abi.encodeWithSelector(token.transfer.selector, to, value)) */\n      jump\t// in\n        /* \"@openzeppelin/contracts/access/Ownable.sol\":2270:2457  function _transferOwnership(address newOwner) internal virtual {... */\n    tag_130:\n        /* \"@openzeppelin/contracts/access/Ownable.sol\":2362:2368  _owner */\n      0x07\n      dup1\n      sload\n      sub(shl(0xa0, 0x01), 0x01)\n        /* \"@openzeppelin/contracts/access/Ownable.sol\":2378:2395  _owner = newOwner */\n      dup4\n      dup2\n      and\n      not(sub(shl(0xa0, 0x01), 0x01))\n      dup4\n      and\n      dup2\n      or\n      swap1\n      swap4\n      sstore\n        /* \"@openzeppelin/contracts/access/Ownable.sol\":2410:2450  OwnershipTransferred(oldOwner, newOwner) */\n      mload(0x40)\n        /* \"@openzeppelin/contracts/access/Ownable.sol\":2362:2368  _owner */\n      swap2\n      and\n      swap2\n        /* \"@openzeppelin/contracts/access/Ownable.sol\":2378:2395  _owner = newOwner */\n      swap1\n        /* \"@openzeppelin/contracts/access/Ownable.sol\":2362:2368  _owner */\n      dup3\n      swap1\n        /* \"@openzeppelin/contracts/access/Ownable.sol\":2410:2450  OwnershipTransferred(oldOwner, newOwner) */\n      0x8be0079c531659141344cd1fd0a4f28419497f9722a3daafe3b4186f6b6457e0\n      swap1\n        /* \"@openzeppelin/contracts/access/Ownable.sol\":2343:2359  address oldOwner */\n      0x00\n      swap1\n        /* \"@openzeppelin/contracts/access/Ownable.sol\":2410:2450  OwnershipTransferred(oldOwner, newOwner) */\n      log3\n        /* \"@openzeppelin/contracts/access/Ownable.sol\":2333:2457  {... */\n      pop\n        /* \"@openzeppelin/contracts/access/Ownable.sol\":2270:2457  function _transferOwnership(address newOwner) internal virtual {... */\n      pop\n      jump\t// out\n        /* \"@openzeppelin/contracts/token/ERC20/utils/SafeERC20.sol\":3207:3913  function _callOptionalReturn(IERC20 token, bytes memory data) private {... */\n    tag_173:\n        /* \"@openzeppelin/contracts/token/ERC20/utils/SafeERC20.sol\":3626:3649  bytes memory returndata */\n      0x00\n        /* \"@openzeppelin/contracts/token/ERC20/utils/SafeERC20.sol\":3652:3721  address(token).functionCall(data, \"SafeERC20: low-level call failed\") */\n      tag_176\n        /* \"@openzeppelin/contracts/token/ERC20/utils/SafeERC20.sol\":3680:3684  data */\n      dup3\n        /* \"@openzeppelin/contracts/token/ERC20/utils/SafeERC20.sol\":3652:3721  address(token).functionCall(data, \"SafeERC20: low-level call failed\") */\n      mload(0x40)\n      dup1\n      0x40\n      add\n      0x40\n      mstore\n      dup1\n      0x20\n      dup2\n      mstore\n      0x20\n      add\n      0x5361666545524332303a206c6f772d6c6576656c2063616c6c206661696c6564\n      dup2\n      mstore\n      pop\n        /* \"@openzeppelin/contracts/token/ERC20/utils/SafeERC20.sol\":3660:3665  token */\n      dup6\n      sub(shl(0xa0, 0x01), 0x01)\n        /* \"@openzeppelin/contracts/token/ERC20/utils/SafeERC20.sol\":3652:3679  address(token).functionCall */\n      and\n      tag_177\n      swap1\n        /* \"@openzeppelin/contracts/token/ERC20/utils/SafeERC20.sol\":3652:3721  address(token).functionCall(data, \"SafeERC20: low-level call failed\") */\n      swap3\n      swap2\n      swap1\n      0xffffffff\n      and\n      jump\t// in\n    tag_176:\n        /* \"@openzeppelin/contracts/token/ERC20/utils/SafeERC20.sol\":3735:3752  returndata.length */\n      dup1\n      mload\n        /* \"@openzeppelin/contracts/token/ERC20/utils/SafeERC20.sol\":3626:3721  bytes memory returndata = address(token).functionCall(data, \"SafeERC20: low-level call failed\") */\n      swap1\n      swap2\n      pop\n        /* \"@openzeppelin/contracts/token/ERC20/utils/SafeERC20.sol\":3735:3756  returndata.length > 0 */\n      iszero\n        /* \"@openzeppelin/contracts/token/ERC20/utils/SafeERC20.sol\":3731:3907  if (returndata.length > 0) {... */\n      tag_167\n      jumpi\n        /* \"@openzeppelin/contracts/token/ERC20/utils/SafeERC20.sol\":3830:3840  returndata */\n      dup1\n        /* \"@openzeppelin/contracts/token/ERC20/utils/SafeERC20.sol\":3819:3849  abi.decode(returndata, (bool)) */\n      dup1\n      0x20\n      add\n      swap1\n      mload\n      dup2\n      add\n      swap1\n      tag_179\n      swap2\n      swap1\n      tag_180\n      jump\t// in\n    tag_179:\n        /* \"@openzeppelin/contracts/token/ERC20/utils/SafeERC20.sol\":3811:3896  require(abi.decode(returndata, (bool)), \"SafeERC20: ERC20 operation did not succeed\") */\n      tag_167\n      jumpi\n      mload(0x40)\n      shl(0xe5, 0x461bcd)\n      dup2\n      mstore\n        /* \"#utility.yul\":6701:6703   */\n      0x20\n        /* \"@openzeppelin/contracts/token/ERC20/utils/SafeERC20.sol\":3811:3896  require(abi.decode(returndata, (bool)), \"SafeERC20: ERC20 operation did not succeed\") */\n      0x04\n      dup3\n      add\n        /* \"#utility.yul\":6683:6704   */\n      mstore\n        /* \"#utility.yul\":6740:6742   */\n      0x2a\n        /* \"#utility.yul\":6720:6738   */\n      0x24\n      dup3\n      add\n        /* \"#utility.yul\":6713:6743   */\n      mstore\n        /* \"#utility.yul\":6779:6813   */\n      0x5361666545524332303a204552433230206f7065726174696f6e20646964206e\n        /* \"#utility.yul\":6759:6777   */\n      0x44\n      dup3\n      add\n        /* \"#utility.yul\":6752:6814   */\n      mstore\n      shl(0xb2, 0x1bdd081cdd58d8d95959)\n        /* \"#utility.yul\":6830:6848   */\n      0x64\n      dup3\n      add\n        /* \"#utility.yul\":6823:6863   */\n      mstore\n        /* \"#utility.yul\":6880:6899   */\n      0x84\n      add\n        /* \"@openzeppelin/contracts/token/ERC20/utils/SafeERC20.sol\":3811:3896  require(abi.decode(returndata, (bool)), \"SafeERC20: ERC20 operation did not succeed\") */\n      tag_84\n        /* \"#utility.yul\":6499:6905   */\n      jump\n        /* \"@openzeppelin/contracts/utils/Address.sol\":3861:4084  function functionCall(... */\n    tag_177:\n        /* \"@openzeppelin/contracts/utils/Address.sol\":3994:4006  bytes memory */\n      0x60\n        /* \"@openzeppelin/contracts/utils/Address.sol\":4025:4077  functionCallWithValue(target, data, 0, errorMessage) */\n      tag_156\n        /* \"@openzeppelin/contracts/utils/Address.sol\":4047:4053  target */\n      dup5\n        /* \"@openzeppelin/contracts/utils/Address.sol\":4055:4059  data */\n      dup5\n        /* \"@openzeppelin/contracts/utils/Address.sol\":4061:4062  0 */\n      0x00\n        /* \"@openzeppelin/contracts/utils/Address.sol\":4064:4076  errorMessage */\n      dup6\n        /* \"@openzeppelin/contracts/utils/Address.sol\":3994:4006  bytes memory */\n      dup6\n      sub(shl(0xa0, 0x01), 0x01)\n        /* \"@openzeppelin/contracts/utils/Address.sol\":1465:1484  account.code.length */\n      dup6\n      and\n      extcodesize\n        /* \"@openzeppelin/contracts/utils/Address.sol\":5228:5288  require(isContract(target), \"Address: call to non-contract\") */\n      tag_193\n      jumpi\n      mload(0x40)\n      shl(0xe5, 0x461bcd)\n      dup2\n      mstore\n        /* \"#utility.yul\":7519:7521   */\n      0x20\n        /* \"@openzeppelin/contracts/utils/Address.sol\":5228:5288  require(isContract(target), \"Address: call to non-contract\") */\n      0x04\n      dup3\n      add\n        /* \"#utility.yul\":7501:7522   */\n      mstore\n        /* \"#utility.yul\":7558:7560   */\n      0x1d\n        /* \"#utility.yul\":7538:7556   */\n      0x24\n      dup3\n      add\n        /* \"#utility.yul\":7531:7561   */\n      mstore\n        /* \"#utility.yul\":7597:7628   */\n      0x416464726573733a2063616c6c20746f206e6f6e2d636f6e7472616374000000\n        /* \"#utility.yul\":7577:7595   */\n      0x44\n      dup3\n      add\n        /* \"#utility.yul\":7570:7629   */\n      mstore\n        /* \"#utility.yul\":7646:7664   */\n      0x64\n      add\n        /* \"@openzeppelin/contracts/utils/Address.sol\":5228:5288  require(isContract(target), \"Address: call to non-contract\") */\n      tag_84\n        /* \"#utility.yul\":7317:7670   */\n      jump\n        /* \"@openzeppelin/contracts/utils/Address.sol\":5228:5288  require(isContract(target), \"Address: call to non-contract\") */\n    tag_193:\n        /* \"@openzeppelin/contracts/utils/Address.sol\":5300:5312  bool success */\n      0x00\n        /* \"@openzeppelin/contracts/utils/Address.sol\":5314:5337  bytes memory returndata */\n      dup1\n        /* \"@openzeppelin/contracts/utils/Address.sol\":5341:5347  target */\n      dup7\n      sub(shl(0xa0, 0x01), 0x01)\n        /* \"@openzeppelin/contracts/utils/Address.sol\":5341:5352  target.call */\n      and\n        /* \"@openzeppelin/contracts/utils/Address.sol\":5360:5365  value */\n      dup6\n        /* \"@openzeppelin/contracts/utils/Address.sol\":5367:5371  data */\n      dup8\n        /* \"@openzeppelin/contracts/utils/Address.sol\":5341:5372  target.call{value: value}(data) */\n      mload(0x40)\n      tag_196\n      swap2\n      swap1\n      tag_197\n      jump\t// in\n    tag_196:\n      0x00\n      mload(0x40)\n      dup1\n      dup4\n      sub\n      dup2\n      dup6\n      dup8\n      gas\n      call\n      swap3\n      pop\n      pop\n      pop\n      returndatasize\n      dup1\n      0x00\n      dup2\n      eq\n      tag_200\n      jumpi\n      mload(0x40)\n      swap2\n      pop\n      and(add(returndatasize, 0x3f), not(0x1f))\n      dup3\n      add\n      0x40\n      mstore\n      returndatasize\n      dup3\n      mstore\n      returndatasize\n      0x00\n      0x20\n      dup5\n      add\n      returndatacopy\n      jump(tag_199)\n    tag_200:\n      0x60\n      swap2\n      pop\n    tag_199:\n      pop\n        /* \"@openzeppelin/contracts/utils/Address.sol\":5299:5372  (bool success, bytes memory returndata) = target.call{value: value}(data) */\n      swap2\n      pop\n      swap2\n      pop\n        /* \"@openzeppelin/contracts/utils/Address.sol\":5389:5440  verifyCallResult(success, returndata, errorMessage) */\n      tag_201\n        /* \"@openzeppelin/contracts/utils/Address.sol\":5406:5413  success */\n      dup3\n        /* \"@openzeppelin/contracts/utils/Address.sol\":5415:5425  returndata */\n      dup3\n        /* \"@openzeppelin/contracts/utils/Address.sol\":5427:5439  errorMessage */\n      dup7\n        /* \"@openzeppelin/contracts/utils/Address.sol\":5389:5405  verifyCallResult */\n      tag_202\n        /* \"@openzeppelin/contracts/utils/Address.sol\":5389:5440  verifyCallResult(success, returndata, errorMessage) */\n      jump\t// in\n    tag_201:\n        /* \"@openzeppelin/contracts/utils/Address.sol\":5382:5440  return verifyCallResult(success, returndata, errorMessage) */\n      swap8\n        /* \"@openzeppelin/contracts/utils/Address.sol\":4948:5447  function functionCallWithValue(... */\n      swap7\n      pop\n      pop\n      pop\n      pop\n      pop\n      pop\n      pop\n      jump\t// out\n        /* \"@openzeppelin/contracts/utils/Address.sol\":7561:8253  function verifyCallResult(... */\n    tag_202:\n        /* \"@openzeppelin/contracts/utils/Address.sol\":7707:7719  bytes memory */\n      0x60\n        /* \"@openzeppelin/contracts/utils/Address.sol\":7735:7742  success */\n      dup4\n        /* \"@openzeppelin/contracts/utils/Address.sol\":7731:8247  if (success) {... */\n      iszero\n      tag_205\n      jumpi\n      pop\n        /* \"@openzeppelin/contracts/utils/Address.sol\":7765:7775  returndata */\n      dup2\n        /* \"@openzeppelin/contracts/utils/Address.sol\":7758:7775  return returndata */\n      jump(tag_151)\n        /* \"@openzeppelin/contracts/utils/Address.sol\":7731:8247  if (success) {... */\n    tag_205:\n        /* \"@openzeppelin/contracts/utils/Address.sol\":7876:7893  returndata.length */\n      dup3\n      mload\n        /* \"@openzeppelin/contracts/utils/Address.sol\":7876:7897  returndata.length > 0 */\n      iszero\n        /* \"@openzeppelin/contracts/utils/Address.sol\":7872:8237  if (returndata.length > 0) {... */\n      tag_207\n      jumpi\n        /* \"@openzeppelin/contracts/utils/Address.sol\":8070:8080  returndata */\n      dup3\n        /* \"@openzeppelin/contracts/utils/Address.sol\":8064:8081  mload(returndata) */\n      mload\n        /* \"@openzeppelin/contracts/utils/Address.sol\":8130:8145  returndata_size */\n      dup1\n        /* \"@openzeppelin/contracts/utils/Address.sol\":8117:8127  returndata */\n      dup5\n        /* \"@openzeppelin/contracts/utils/Address.sol\":8113:8115  32 */\n      0x20\n        /* \"@openzeppelin/contracts/utils/Address.sol\":8109:8128  add(32, returndata) */\n      add\n        /* \"@openzeppelin/contracts/utils/Address.sol\":8102:8146  revert(add(32, returndata), returndata_size) */\n      revert\n        /* \"@openzeppelin/contracts/utils/Address.sol\":7872:8237  if (returndata.length > 0) {... */\n    tag_207:\n        /* \"@openzeppelin/contracts/utils/Address.sol\":8209:8221  errorMessage */\n      dup2\n        /* \"@openzeppelin/contracts/utils/Address.sol\":8202:8222  revert(errorMessage) */\n      mload(0x40)\n      shl(0xe5, 0x461bcd)\n      dup2\n      mstore\n      0x04\n      add\n      tag_84\n      swap2\n      swap1\n      tag_210\n      jump\t// in\n        /* \"#utility.yul\":293:432   */\n    tag_211:\n      sub(shl(0xa0, 0x01), 0x01)\n        /* \"#utility.yul\":376:407   */\n      dup2\n      and\n        /* \"#utility.yul\":366:408   */\n      dup2\n      eq\n        /* \"#utility.yul\":356:426   */\n      tag_150\n      jumpi\n        /* \"#utility.yul\":422:423   */\n      0x00\n        /* \"#utility.yul\":419:420   */\n      dup1\n        /* \"#utility.yul\":412:424   */\n      revert\n        /* \"#utility.yul\":437:700   */\n    tag_25:\n        /* \"#utility.yul\":504:510   */\n      0x00\n        /* \"#utility.yul\":557:559   */\n      0x20\n        /* \"#utility.yul\":545:554   */\n      dup3\n        /* \"#utility.yul\":536:543   */\n      dup5\n        /* \"#utility.yul\":532:555   */\n      sub\n        /* \"#utility.yul\":528:560   */\n      slt\n        /* \"#utility.yul\":525:577   */\n      iszero\n      tag_219\n      jumpi\n        /* \"#utility.yul\":573:574   */\n      0x00\n        /* \"#utility.yul\":570:571   */\n      dup1\n        /* \"#utility.yul\":563:575   */\n      revert\n        /* \"#utility.yul\":525:577   */\n    tag_219:\n        /* \"#utility.yul\":612:621   */\n      dup2\n        /* \"#utility.yul\":599:622   */\n      calldataload\n        /* \"#utility.yul\":631:670   */\n      tag_151\n        /* \"#utility.yul\":664:669   */\n      dup2\n        /* \"#utility.yul\":631:670   */\n      tag_211\n      jump\t// in\n        /* \"#utility.yul\":887:1305   */\n    tag_35:\n        /* \"#utility.yul\":969:975   */\n      0x00\n        /* \"#utility.yul\":977:983   */\n      dup1\n        /* \"#utility.yul\":1030:1032   */\n      0x40\n        /* \"#utility.yul\":1018:1027   */\n      dup4\n        /* \"#utility.yul\":1009:1016   */\n      dup6\n        /* \"#utility.yul\":1005:1028   */\n      sub\n        /* \"#utility.yul\":1001:1033   */\n      slt\n        /* \"#utility.yul\":998:1050   */\n      iszero\n      tag_223\n      jumpi\n        /* \"#utility.yul\":1046:1047   */\n      0x00\n        /* \"#utility.yul\":1043:1044   */\n      dup1\n        /* \"#utility.yul\":1036:1048   */\n      revert\n        /* \"#utility.yul\":998:1050   */\n    tag_223:\n        /* \"#utility.yul\":1085:1094   */\n      dup3\n        /* \"#utility.yul\":1072:1095   */\n      calldataload\n        /* \"#utility.yul\":1104:1143   */\n      tag_224\n        /* \"#utility.yul\":1137:1142   */\n      dup2\n        /* \"#utility.yul\":1104:1143   */\n      tag_211\n      jump\t// in\n    tag_224:\n        /* \"#utility.yul\":1162:1167   */\n      swap2\n      pop\n        /* \"#utility.yul\":1219:1221   */\n      0x20\n        /* \"#utility.yul\":1204:1222   */\n      dup4\n      add\n        /* \"#utility.yul\":1191:1223   */\n      calldataload\n        /* \"#utility.yul\":1232:1273   */\n      tag_225\n        /* \"#utility.yul\":1191:1223   */\n      dup2\n        /* \"#utility.yul\":1232:1273   */\n      tag_211\n      jump\t// in\n    tag_225:\n        /* \"#utility.yul\":1292:1299   */\n      dup1\n        /* \"#utility.yul\":1282:1299   */\n      swap2\n      pop\n      pop\n        /* \"#utility.yul\":887:1305   */\n      swap3\n      pop\n      swap3\n      swap1\n      pop\n      jump\t// out\n        /* \"#utility.yul\":1310:1490   */\n    tag_48:\n        /* \"#utility.yul\":1369:1375   */\n      0x00\n        /* \"#utility.yul\":1422:1424   */\n      0x20\n        /* \"#utility.yul\":1410:1419   */\n      dup3\n        /* \"#utility.yul\":1401:1408   */\n      dup5\n        /* \"#utility.yul\":1397:1420   */\n      sub\n        /* \"#utility.yul\":1393:1425   */\n      slt\n        /* \"#utility.yul\":1390:1442   */\n      iszero\n      tag_227\n      jumpi\n        /* \"#utility.yul\":1438:1439   */\n      0x00\n        /* \"#utility.yul\":1435:1436   */\n      dup1\n        /* \"#utility.yul\":1428:1440   */\n      revert\n        /* \"#utility.yul\":1390:1442   */\n    tag_227:\n      pop\n        /* \"#utility.yul\":1461:1484   */\n      calldataload\n      swap2\n        /* \"#utility.yul\":1310:1490   */\n      swap1\n      pop\n      jump\t// out\n        /* \"#utility.yul\":2237:2639   */\n    tag_85:\n        /* \"#utility.yul\":2439:2441   */\n      0x20\n        /* \"#utility.yul\":2421:2442   */\n      dup1\n      dup3\n      mstore\n        /* \"#utility.yul\":2478:2480   */\n      0x26\n        /* \"#utility.yul\":2458:2476   */\n      swap1\n      dup3\n      add\n        /* \"#utility.yul\":2451:2481   */\n      mstore\n        /* \"#utility.yul\":2517:2551   */\n      0x5061796d656e7453706c69747465723a206163636f756e7420686173206e6f20\n        /* \"#utility.yul\":2512:2514   */\n      0x40\n        /* \"#utility.yul\":2497:2515   */\n      dup3\n      add\n        /* \"#utility.yul\":2490:2552   */\n      mstore\n      shl(0xd0, 0x736861726573)\n        /* \"#utility.yul\":2583:2585   */\n      0x60\n        /* \"#utility.yul\":2568:2586   */\n      dup3\n      add\n        /* \"#utility.yul\":2561:2597   */\n      mstore\n        /* \"#utility.yul\":2629:2632   */\n      0x80\n        /* \"#utility.yul\":2614:2633   */\n      add\n      swap1\n        /* \"#utility.yul\":2237:2639   */\n      jump\t// out\n        /* \"#utility.yul\":2644:2771   */\n    tag_212:\n        /* \"#utility.yul\":2705:2715   */\n      0x4e487b71\n        /* \"#utility.yul\":2700:2703   */\n      0xe0\n        /* \"#utility.yul\":2696:2716   */\n      shl\n        /* \"#utility.yul\":2693:2694   */\n      0x00\n        /* \"#utility.yul\":2686:2717   */\n      mstore\n        /* \"#utility.yul\":2736:2740   */\n      0x11\n        /* \"#utility.yul\":2733:2734   */\n      0x04\n        /* \"#utility.yul\":2726:2741   */\n      mstore\n        /* \"#utility.yul\":2760:2764   */\n      0x24\n        /* \"#utility.yul\":2757:2758   */\n      0x00\n        /* \"#utility.yul\":2750:2765   */\n      revert\n        /* \"#utility.yul\":2776:2904   */\n    tag_88:\n        /* \"#utility.yul\":2816:2819   */\n      0x00\n        /* \"#utility.yul\":2847:2848   */\n      dup3\n        /* \"#utility.yul\":2843:2849   */\n      not\n        /* \"#utility.yul\":2840:2841   */\n      dup3\n        /* \"#utility.yul\":2837:2850   */\n      gt\n        /* \"#utility.yul\":2834:2873   */\n      iszero\n      tag_239\n      jumpi\n        /* \"#utility.yul\":2853:2871   */\n      tag_239\n      tag_212\n      jump\t// in\n    tag_239:\n      pop\n        /* \"#utility.yul\":2889:2898   */\n      add\n      swap1\n        /* \"#utility.yul\":2776:2904   */\n      jump\t// out\n        /* \"#utility.yul\":2909:3316   */\n    tag_94:\n        /* \"#utility.yul\":3111:3113   */\n      0x20\n        /* \"#utility.yul\":3093:3114   */\n      dup1\n      dup3\n      mstore\n        /* \"#utility.yul\":3150:3152   */\n      0x2b\n        /* \"#utility.yul\":3130:3148   */\n      swap1\n      dup3\n      add\n        /* \"#utility.yul\":3123:3153   */\n      mstore\n        /* \"#utility.yul\":3189:3223   */\n      0x5061796d656e7453706c69747465723a206163636f756e74206973206e6f7420\n        /* \"#utility.yul\":3184:3186   */\n      0x40\n        /* \"#utility.yul\":3169:3187   */\n      dup3\n      add\n        /* \"#utility.yul\":3162:3224   */\n      mstore\n      shl(0xaa, 0x191d59481c185e5b595b9d)\n        /* \"#utility.yul\":3255:3257   */\n      0x60\n        /* \"#utility.yul\":3240:3258   */\n      dup3\n      add\n        /* \"#utility.yul\":3233:3274   */\n      mstore\n        /* \"#utility.yul\":3306:3309   */\n      0x80\n        /* \"#utility.yul\":3291:3310   */\n      add\n      swap1\n        /* \"#utility.yul\":2909:3316   */\n      jump\t// out\n        /* \"#utility.yul\":3608:3792   */\n    tag_111:\n        /* \"#utility.yul\":3678:3684   */\n      0x00\n        /* \"#utility.yul\":3731:3733   */\n      0x20\n        /* \"#utility.yul\":3719:3728   */\n      dup3\n        /* \"#utility.yul\":3710:3717   */\n      dup5\n        /* \"#utility.yul\":3706:3729   */\n      sub\n        /* \"#utility.yul\":3702:3734   */\n      slt\n        /* \"#utility.yul\":3699:3751   */\n      iszero\n      tag_243\n      jumpi\n        /* \"#utility.yul\":3747:3748   */\n      0x00\n        /* \"#utility.yul\":3744:3745   */\n      dup1\n        /* \"#utility.yul\":3737:3749   */\n      revert\n        /* \"#utility.yul\":3699:3751   */\n    tag_243:\n      pop\n        /* \"#utility.yul\":3770:3786   */\n      mload\n      swap2\n        /* \"#utility.yul\":3608:3792   */\n      swap1\n      pop\n      jump\t// out\n        /* \"#utility.yul\":4158:4285   */\n    tag_134:\n        /* \"#utility.yul\":4219:4229   */\n      0x4e487b71\n        /* \"#utility.yul\":4214:4217   */\n      0xe0\n        /* \"#utility.yul\":4210:4230   */\n      shl\n        /* \"#utility.yul\":4207:4208   */\n      0x00\n        /* \"#utility.yul\":4200:4231   */\n      mstore\n        /* \"#utility.yul\":4250:4254   */\n      0x32\n        /* \"#utility.yul\":4247:4248   */\n      0x04\n        /* \"#utility.yul\":4240:4255   */\n      mstore\n        /* \"#utility.yul\":4274:4278   */\n      0x24\n        /* \"#utility.yul\":4271:4272   */\n      0x00\n        /* \"#utility.yul\":4264:4279   */\n      revert\n        /* \"#utility.yul\":4697:4865   */\n    tag_153:\n        /* \"#utility.yul\":4737:4744   */\n      0x00\n        /* \"#utility.yul\":4803:4804   */\n      dup2\n        /* \"#utility.yul\":4799:4800   */\n      0x00\n        /* \"#utility.yul\":4795:4801   */\n      not\n        /* \"#utility.yul\":4791:4805   */\n      div\n        /* \"#utility.yul\":4788:4789   */\n      dup4\n        /* \"#utility.yul\":4785:4806   */\n      gt\n        /* \"#utility.yul\":4780:4781   */\n      dup3\n        /* \"#utility.yul\":4773:4782   */\n      iszero\n        /* \"#utility.yul\":4766:4783   */\n      iszero\n        /* \"#utility.yul\":4762:4807   */\n      and\n        /* \"#utility.yul\":4759:4830   */\n      iszero\n      tag_249\n      jumpi\n        /* \"#utility.yul\":4810:4828   */\n      tag_249\n      tag_212\n      jump\t// in\n    tag_249:\n      pop\n        /* \"#utility.yul\":4850:4859   */\n      mul\n      swap1\n        /* \"#utility.yul\":4697:4865   */\n      jump\t// out\n        /* \"#utility.yul\":4870:5087   */\n    tag_155:\n        /* \"#utility.yul\":4910:4911   */\n      0x00\n        /* \"#utility.yul\":4936:4937   */\n      dup3\n        /* \"#utility.yul\":4926:5058   */\n      tag_251\n      jumpi\n        /* \"#utility.yul\":4980:4990   */\n      0x4e487b71\n        /* \"#utility.yul\":4975:4978   */\n      0xe0\n        /* \"#utility.yul\":4971:4991   */\n      shl\n        /* \"#utility.yul\":4968:4969   */\n      0x00\n        /* \"#utility.yul\":4961:4992   */\n      mstore\n        /* \"#utility.yul\":5015:5019   */\n      0x12\n        /* \"#utility.yul\":5012:5013   */\n      0x04\n        /* \"#utility.yul\":5005:5020   */\n      mstore\n        /* \"#utility.yul\":5043:5047   */\n      0x24\n        /* \"#utility.yul\":5040:5041   */\n      0x00\n        /* \"#utility.yul\":5033:5048   */\n      revert\n        /* \"#utility.yul\":4926:5058   */\n    tag_251:\n      pop\n        /* \"#utility.yul\":5072:5081   */\n      div\n      swap1\n        /* \"#utility.yul\":4870:5087   */\n      jump\t// out\n        /* \"#utility.yul\":5092:5217   */\n    tag_157:\n        /* \"#utility.yul\":5132:5136   */\n      0x00\n        /* \"#utility.yul\":5160:5161   */\n      dup3\n        /* \"#utility.yul\":5157:5158   */\n      dup3\n        /* \"#utility.yul\":5154:5162   */\n      lt\n        /* \"#utility.yul\":5151:5185   */\n      iszero\n      tag_254\n      jumpi\n        /* \"#utility.yul\":5165:5183   */\n      tag_254\n      tag_212\n      jump\t// in\n    tag_254:\n      pop\n        /* \"#utility.yul\":5202:5211   */\n      sub\n      swap1\n        /* \"#utility.yul\":5092:5217   */\n      jump\t// out\n        /* \"#utility.yul\":6217:6494   */\n    tag_180:\n        /* \"#utility.yul\":6284:6290   */\n      0x00\n        /* \"#utility.yul\":6337:6339   */\n      0x20\n        /* \"#utility.yul\":6325:6334   */\n      dup3\n        /* \"#utility.yul\":6316:6323   */\n      dup5\n        /* \"#utility.yul\":6312:6335   */\n      sub\n        /* \"#utility.yul\":6308:6340   */\n      slt\n        /* \"#utility.yul\":6305:6357   */\n      iszero\n      tag_259\n      jumpi\n        /* \"#utility.yul\":6353:6354   */\n      0x00\n        /* \"#utility.yul\":6350:6351   */\n      dup1\n        /* \"#utility.yul\":6343:6355   */\n      revert\n        /* \"#utility.yul\":6305:6357   */\n    tag_259:\n        /* \"#utility.yul\":6385:6394   */\n      dup2\n        /* \"#utility.yul\":6379:6395   */\n      mload\n        /* \"#utility.yul\":6438:6443   */\n      dup1\n        /* \"#utility.yul\":6431:6444   */\n      iszero\n        /* \"#utility.yul\":6424:6445   */\n      iszero\n        /* \"#utility.yul\":6417:6422   */\n      dup2\n        /* \"#utility.yul\":6414:6446   */\n      eq\n        /* \"#utility.yul\":6404:6464   */\n      tag_151\n      jumpi\n        /* \"#utility.yul\":6460:6461   */\n      0x00\n        /* \"#utility.yul\":6457:6458   */\n      dup1\n        /* \"#utility.yul\":6450:6462   */\n      revert\n        /* \"#utility.yul\":7675:7933   */\n    tag_213:\n        /* \"#utility.yul\":7747:7748   */\n      0x00\n        /* \"#utility.yul\":7757:7870   */\n    tag_265:\n        /* \"#utility.yul\":7771:7777   */\n      dup4\n        /* \"#utility.yul\":7768:7769   */\n      dup2\n        /* \"#utility.yul\":7765:7778   */\n      lt\n        /* \"#utility.yul\":7757:7870   */\n      iszero\n      tag_267\n      jumpi\n        /* \"#utility.yul\":7847:7858   */\n      dup2\n      dup2\n      add\n        /* \"#utility.yul\":7841:7859   */\n      mload\n        /* \"#utility.yul\":7828:7839   */\n      dup4\n      dup3\n      add\n        /* \"#utility.yul\":7821:7860   */\n      mstore\n        /* \"#utility.yul\":7793:7795   */\n      0x20\n        /* \"#utility.yul\":7786:7796   */\n      add\n        /* \"#utility.yul\":7757:7870   */\n      jump(tag_265)\n    tag_267:\n        /* \"#utility.yul\":7888:7894   */\n      dup4\n        /* \"#utility.yul\":7885:7886   */\n      dup2\n        /* \"#utility.yul\":7882:7895   */\n      gt\n        /* \"#utility.yul\":7879:7927   */\n      iszero\n      tag_268\n      jumpi\n        /* \"#utility.yul\":7923:7924   */\n      0x00\n        /* \"#utility.yul\":7914:7920   */\n      dup5\n        /* \"#utility.yul\":7909:7912   */\n      dup5\n        /* \"#utility.yul\":7905:7921   */\n      add\n        /* \"#utility.yul\":7898:7925   */\n      mstore\n        /* \"#utility.yul\":7879:7927   */\n    tag_268:\n      pop\n        /* \"#utility.yul\":7675:7933   */\n      pop\n      pop\n      pop\n      jump\t// out\n        /* \"#utility.yul\":7938:8212   */\n    tag_197:\n        /* \"#utility.yul\":8067:8070   */\n      0x00\n        /* \"#utility.yul\":8105:8111   */\n      dup3\n        /* \"#utility.yul\":8099:8112   */\n      mload\n        /* \"#utility.yul\":8121:8174   */\n      tag_270\n        /* \"#utility.yul\":8167:8173   */\n      dup2\n        /* \"#utility.yul\":8162:8165   */\n      dup5\n        /* \"#utility.yul\":8155:8159   */\n      0x20\n        /* \"#utility.yul\":8147:8153   */\n      dup8\n        /* \"#utility.yul\":8143:8160   */\n      add\n        /* \"#utility.yul\":8121:8174   */\n      tag_213\n      jump\t// in\n    tag_270:\n        /* \"#utility.yul\":8190:8206   */\n      swap2\n      swap1\n      swap2\n      add\n      swap3\n        /* \"#utility.yul\":7938:8212   */\n      swap2\n      pop\n      pop\n      jump\t// out\n        /* \"#utility.yul\":8217:8600   */\n    tag_210:\n        /* \"#utility.yul\":8366:8368   */\n      0x20\n        /* \"#utility.yul\":8355:8364   */\n      dup2\n        /* \"#utility.yul\":8348:8369   */\n      mstore\n        /* \"#utility.yul\":8329:8333   */\n      0x00\n        /* \"#utility.yul\":8398:8404   */\n      dup3\n        /* \"#utility.yul\":8392:8405   */\n      mload\n        /* \"#utility.yul\":8441:8447   */\n      dup1\n        /* \"#utility.yul\":8436:8438   */\n      0x20\n        /* \"#utility.yul\":8425:8434   */\n      dup5\n        /* \"#utility.yul\":8421:8439   */\n      add\n        /* \"#utility.yul\":8414:8448   */\n      mstore\n        /* \"#utility.yul\":8457:8523   */\n      tag_272\n        /* \"#utility.yul\":8516:8522   */\n      dup2\n        /* \"#utility.yul\":8511:8513   */\n      0x40\n        /* \"#utility.yul\":8500:8509   */\n      dup6\n        /* \"#utility.yul\":8496:8514   */\n      add\n        /* \"#utility.yul\":8491:8493   */\n      0x20\n        /* \"#utility.yul\":8483:8489   */\n      dup8\n        /* \"#utility.yul\":8479:8494   */\n      add\n        /* \"#utility.yul\":8457:8523   */\n      tag_213\n      jump\t// in\n    tag_272:\n        /* \"#utility.yul\":8584:8586   */\n      0x1f\n        /* \"#utility.yul\":8563:8578   */\n      add\n      not(0x1f)\n        /* \"#utility.yul\":8559:8588   */\n      and\n        /* \"#utility.yul\":8544:8589   */\n      swap2\n      swap1\n      swap2\n      add\n        /* \"#utility.yul\":8591:8593   */\n      0x40\n        /* \"#utility.yul\":8540:8594   */\n      add\n      swap3\n        /* \"#utility.yul\":8217:8600   */\n      swap2\n      pop\n      pop\n      jump\t// out\n\n    auxdata: 0xa2646970667358221220c75809e6d231e32a2b8b6ab6cb772608920669841d80c8c9e726f562721fff1b64736f6c634300080d0033\n}\n",
				"bytecode": {
					"linkReferences": {},
					"object": "60806040523480156200001157600080fd5b50604051620013ed380380620013ed8339810160408190526200003491620004b0565b81818051825114620000a85760405162461bcd60e51b815260206004820152603260248201527f5061796d656e7453706c69747465723a2070617965657320616e6420736861726044820152710cae640d8cadccee8d040dad2e6dac2e8c6d60731b60648201526084015b60405180910390fd5b6000825111620000fb5760405162461bcd60e51b815260206004820152601a60248201527f5061796d656e7453706c69747465723a206e6f2070617965657300000000000060448201526064016200009f565b60005b82518110156200016757620001528382815181106200012157620001216200058e565b60200260200101518383815181106200013e576200013e6200058e565b60200260200101516200018c60201b60201c565b806200015e81620005ba565b915050620000fe565b505050620001846200017e6200037860201b60201c565b6200037c565b5050620005f1565b6001600160a01b038216620001f95760405162461bcd60e51b815260206004820152602c60248201527f5061796d656e7453706c69747465723a206163636f756e74206973207468652060448201526b7a65726f206164647265737360a01b60648201526084016200009f565b600081116200024b5760405162461bcd60e51b815260206004820152601d60248201527f5061796d656e7453706c69747465723a2073686172657320617265203000000060448201526064016200009f565b6001600160a01b03821660009081526002602052604090205415620002c75760405162461bcd60e51b815260206004820152602b60248201527f5061796d656e7453706c69747465723a206163636f756e7420616c726561647960448201526a206861732073686172657360a81b60648201526084016200009f565b60048054600181019091557f8a35acfbc15ff81a39ae7d344fd709f28e8600b4aa8c65c6b64bfe7fe36bd19b0180546001600160a01b0319166001600160a01b0384169081179091556000908152600260205260408120829055546200032f908290620005d6565b600055604080516001600160a01b0384168152602081018390527f40c340f65e17194d14ddddb073d3c9f888e3cb52b5aae0c6c7706b4fbc905fac910160405180910390a15050565b3390565b600780546001600160a01b038381166001600160a01b0319831681179093556040519116919082907f8be0079c531659141344cd1fd0a4f28419497f9722a3daafe3b4186f6b6457e090600090a35050565b634e487b7160e01b600052604160045260246000fd5b604051601f8201601f191681016001600160401b03811182821017156200040f576200040f620003ce565b604052919050565b60006001600160401b03821115620004335762000433620003ce565b5060051b60200190565b600082601f8301126200044f57600080fd5b8151602062000468620004628362000417565b620003e4565b82815260059290921b840181019181810190868411156200048857600080fd5b8286015b84811015620004a557805183529183019183016200048c565b509695505050505050565b60008060408385031215620004c457600080fd5b82516001600160401b0380821115620004dc57600080fd5b818501915085601f830112620004f157600080fd5b8151602062000504620004628362000417565b82815260059290921b840181019181810190898411156200052457600080fd5b948201945b838610156200055b5785516001600160a01b03811681146200054b5760008081fd5b8252948201949082019062000529565b918801519196509093505050808211156200057557600080fd5b5062000584858286016200043d565b9150509250929050565b634e487b7160e01b600052603260045260246000fd5b634e487b7160e01b600052601160045260246000fd5b600060018201620005cf57620005cf620005a4565b5060010190565b60008219821115620005ec57620005ec620005a4565b500190565b610dec80620006016000396000f3fe6080604052600436106100ab5760003560e01c80638da5cb5b116100645780638da5cb5b146101f25780639852595c14610210578063ce7c2ac214610246578063d79779b21461027c578063e33b7de3146102b2578063f2fde38b146102c757600080fd5b806319165587146100f95780633a98ef391461011b578063406072a91461013f57806348b7504414610185578063715018a6146101a55780638b83209b146101ba57600080fd5b366100f4577f6ef95f06320e7a25a04a175ca677b7052bdd97131872c2192525a629f51be77033604080516001600160a01b0390921682523460208301520160405180910390a1005b600080fd5b34801561010557600080fd5b50610119610114366004610b60565b6102e7565b005b34801561012757600080fd5b506000545b6040519081526020015b60405180910390f35b34801561014b57600080fd5b5061012c61015a366004610b7d565b6001600160a01b03918216600090815260066020908152604080832093909416825291909152205490565b34801561019157600080fd5b506101196101a0366004610b7d565b610421565b3480156101b157600080fd5b506101196105fd565b3480156101c657600080fd5b506101da6101d5366004610bb6565b610663565b6040516001600160a01b039091168152602001610136565b3480156101fe57600080fd5b506007546001600160a01b03166101da565b34801561021c57600080fd5b5061012c61022b366004610b60565b6001600160a01b031660009081526003602052604090205490565b34801561025257600080fd5b5061012c610261366004610b60565b6001600160a01b031660009081526002602052604090205490565b34801561028857600080fd5b5061012c610297366004610b60565b6001600160a01b031660009081526005602052604090205490565b3480156102be57600080fd5b5060015461012c565b3480156102d357600080fd5b506101196102e2366004610b60565b610693565b6001600160a01b0381166000908152600260205260409020546103255760405162461bcd60e51b815260040161031c90610bcf565b60405180910390fd5b600061033060015490565b61033a9047610c2b565b905060006103678383610362866001600160a01b031660009081526003602052604090205490565b61075e565b9050806000036103895760405162461bcd60e51b815260040161031c90610c43565b6001600160a01b038316600090815260036020526040812080548392906103b1908490610c2b565b9250508190555080600160008282546103ca9190610c2b565b909155506103da905083826107a3565b604080516001600160a01b0385168152602081018390527fdf20fd1e76bc69d672e4814fafb2c449bba3a5369d8359adf9e05e6fde87b056910160405180910390a1505050565b6001600160a01b0381166000908152600260205260409020546104565760405162461bcd60e51b815260040161031c90610bcf565b6001600160a01b0382166000908152600560205260408120546040516370a0823160e01b81523060048201526001600160a01b038516906370a0823190602401602060405180830381865afa1580156104b3573d6000803e3d6000fd5b505050506040513d601f19601f820116820180604052508101906104d79190610c8e565b6104e19190610c2b565b9050600061051a838361036287876001600160a01b03918216600090815260066020908152604080832093909416825291909152205490565b90508060000361053c5760405162461bcd60e51b815260040161031c90610c43565b6001600160a01b03808516600090815260066020908152604080832093871683529290529081208054839290610573908490610c2b565b90915550506001600160a01b038416600090815260056020526040812080548392906105a0908490610c2b565b909155506105b190508484836108c1565b604080516001600160a01b038581168252602082018490528616917f3be5b7a71e84ed12875d241991c70855ac5817d847039e17a9d895c1ceb0f18a910160405180910390a250505050565b6007546001600160a01b031633146106575760405162461bcd60e51b815260206004820181905260248201527f4f776e61626c653a2063616c6c6572206973206e6f7420746865206f776e6572604482015260640161031c565b6106616000610913565b565b60006004828154811061067857610678610ca7565b6000918252602090912001546001600160a01b031692915050565b6007546001600160a01b031633146106ed5760405162461bcd60e51b815260206004820181905260248201527f4f776e61626c653a2063616c6c6572206973206e6f7420746865206f776e6572604482015260640161031c565b6001600160a01b0381166107525760405162461bcd60e51b815260206004820152602660248201527f4f776e61626c653a206e6577206f776e657220697320746865207a65726f206160448201526564647265737360d01b606482015260840161031c565b61075b81610913565b50565b600080546001600160a01b0385168252600260205260408220548391906107859086610cbd565b61078f9190610cdc565b6107999190610cfe565b90505b9392505050565b804710156107f35760405162461bcd60e51b815260206004820152601d60248201527f416464726573733a20696e73756666696369656e742062616c616e6365000000604482015260640161031c565b6000826001600160a01b03168260405160006040518083038185875af1925050503d8060008114610840576040519150601f19603f3d011682016040523d82523d6000602084013e610845565b606091505b50509050806108bc5760405162461bcd60e51b815260206004820152603a60248201527f416464726573733a20756e61626c6520746f2073656e642076616c75652c207260448201527f6563697069656e74206d61792068617665207265766572746564000000000000606482015260840161031c565b505050565b604080516001600160a01b038416602482015260448082018490528251808303909101815260649091019091526020810180516001600160e01b031663a9059cbb60e01b1790526108bc908490610965565b600780546001600160a01b038381166001600160a01b0319831681179093556040519116919082907f8be0079c531659141344cd1fd0a4f28419497f9722a3daafe3b4186f6b6457e090600090a35050565b60006109ba826040518060400160405280602081526020017f5361666545524332303a206c6f772d6c6576656c2063616c6c206661696c6564815250856001600160a01b0316610a379092919063ffffffff16565b8051909150156108bc57808060200190518101906109d89190610d15565b6108bc5760405162461bcd60e51b815260206004820152602a60248201527f5361666545524332303a204552433230206f7065726174696f6e20646964206e6044820152691bdd081cdd58d8d9595960b21b606482015260840161031c565b60606107998484600085856001600160a01b0385163b610a995760405162461bcd60e51b815260206004820152601d60248201527f416464726573733a2063616c6c20746f206e6f6e2d636f6e7472616374000000604482015260640161031c565b600080866001600160a01b03168587604051610ab59190610d67565b60006040518083038185875af1925050503d8060008114610af2576040519150601f19603f3d011682016040523d82523d6000602084013e610af7565b606091505b5091509150610b07828286610b12565b979650505050505050565b60608315610b2157508161079c565b825115610b315782518084602001fd5b8160405162461bcd60e51b815260040161031c9190610d83565b6001600160a01b038116811461075b57600080fd5b600060208284031215610b7257600080fd5b813561079c81610b4b565b60008060408385031215610b9057600080fd5b8235610b9b81610b4b565b91506020830135610bab81610b4b565b809150509250929050565b600060208284031215610bc857600080fd5b5035919050565b60208082526026908201527f5061796d656e7453706c69747465723a206163636f756e7420686173206e6f2060408201526573686172657360d01b606082015260800190565b634e487b7160e01b600052601160045260246000fd5b60008219821115610c3e57610c3e610c15565b500190565b6020808252602b908201527f5061796d656e7453706c69747465723a206163636f756e74206973206e6f742060408201526a191d59481c185e5b595b9d60aa1b606082015260800190565b600060208284031215610ca057600080fd5b5051919050565b634e487b7160e01b600052603260045260246000fd5b6000816000190483118215151615610cd757610cd7610c15565b500290565b600082610cf957634e487b7160e01b600052601260045260246000fd5b500490565b600082821015610d1057610d10610c15565b500390565b600060208284031215610d2757600080fd5b8151801515811461079c57600080fd5b60005b83811015610d52578181015183820152602001610d3a565b83811115610d61576000848401525b50505050565b60008251610d79818460208701610d37565b9190910192915050565b6020815260008251806020840152610da2816040850160208701610d37565b601f01601f1916919091016040019291505056fea2646970667358221220c75809e6d231e32a2b8b6ab6cb772608920669841d80c8c9e726f562721fff1b64736f6c634300080d0033",
					"opcodes": "PUSH1 0x80 PUSH1 0x40 MSTORE CALLVALUE DUP1 ISZERO PUSH3 0x11 JUMPI PUSH1 0x0 DUP1 REVERT JUMPDEST POP PUSH1 0x40 MLOAD PUSH3 0x13ED CODESIZE SUB DUP1 PUSH3 0x13ED DUP4 CODECOPY DUP2 ADD PUSH1 0x40 DUP2 SWAP1 MSTORE PUSH3 0x34 SWAP2 PUSH3 0x4B0 JUMP JUMPDEST DUP2 DUP2 DUP1 MLOAD DUP3 MLOAD EQ PUSH3 0xA8 JUMPI PUSH1 0x40 MLOAD PUSH3 0x461BCD PUSH1 0xE5 SHL DUP2 MSTORE PUSH1 0x20 PUSH1 0x4 DUP3 ADD MSTORE PUSH1 0x32 PUSH1 0x24 DUP3 ADD MSTORE PUSH32 0x5061796D656E7453706C69747465723A2070617965657320616E642073686172 PUSH1 0x44 DUP3 ADD MSTORE PUSH18 0xCAE640D8CADCCEE8D040DAD2E6DAC2E8C6D PUSH1 0x73 SHL PUSH1 0x64 DUP3 ADD MSTORE PUSH1 0x84 ADD JUMPDEST PUSH1 0x40 MLOAD DUP1 SWAP2 SUB SWAP1 REVERT JUMPDEST PUSH1 0x0 DUP3 MLOAD GT PUSH3 0xFB JUMPI PUSH1 0x40 MLOAD PUSH3 0x461BCD PUSH1 0xE5 SHL DUP2 MSTORE PUSH1 0x20 PUSH1 0x4 DUP3 ADD MSTORE PUSH1 0x1A PUSH1 0x24 DUP3 ADD MSTORE PUSH32 0x5061796D656E7453706C69747465723A206E6F20706179656573000000000000 PUSH1 0x44 DUP3 ADD MSTORE PUSH1 0x64 ADD PUSH3 0x9F JUMP JUMPDEST PUSH1 0x0 JUMPDEST DUP3 MLOAD DUP2 LT ISZERO PUSH3 0x167 JUMPI PUSH3 0x152 DUP4 DUP3 DUP2 MLOAD DUP2 LT PUSH3 0x121 JUMPI PUSH3 0x121 PUSH3 0x58E JUMP JUMPDEST PUSH1 0x20 MUL PUSH1 0x20 ADD ADD MLOAD DUP4 DUP4 DUP2 MLOAD DUP2 LT PUSH3 0x13E JUMPI PUSH3 0x13E PUSH3 0x58E JUMP JUMPDEST PUSH1 0x20 MUL PUSH1 0x20 ADD ADD MLOAD PUSH3 0x18C PUSH1 0x20 SHL PUSH1 0x20 SHR JUMP JUMPDEST DUP1 PUSH3 0x15E DUP2 PUSH3 0x5BA JUMP JUMPDEST SWAP2 POP POP PUSH3 0xFE JUMP JUMPDEST POP POP POP PUSH3 0x184 PUSH3 0x17E PUSH3 0x378 PUSH1 0x20 SHL PUSH1 0x20 SHR JUMP JUMPDEST PUSH3 0x37C JUMP JUMPDEST POP POP PUSH3 0x5F1 JUMP JUMPDEST PUSH1 0x1 PUSH1 0x1 PUSH1 0xA0 SHL SUB DUP3 AND PUSH3 0x1F9 JUMPI PUSH1 0x40 MLOAD PUSH3 0x461BCD PUSH1 0xE5 SHL DUP2 MSTORE PUSH1 0x20 PUSH1 0x4 DUP3 ADD MSTORE PUSH1 0x2C PUSH1 0x24 DUP3 ADD MSTORE PUSH32 0x5061796D656E7453706C69747465723A206163636F756E742069732074686520 PUSH1 0x44 DUP3 ADD MSTORE PUSH12 0x7A65726F2061646472657373 PUSH1 0xA0 SHL PUSH1 0x64 DUP3 ADD MSTORE PUSH1 0x84 ADD PUSH3 0x9F JUMP JUMPDEST PUSH1 0x0 DUP2 GT PUSH3 0x24B JUMPI PUSH1 0x40 MLOAD PUSH3 0x461BCD PUSH1 0xE5 SHL DUP2 MSTORE PUSH1 0x20 PUSH1 0x4 DUP3 ADD MSTORE PUSH1 0x1D PUSH1 0x24 DUP3 ADD MSTORE PUSH32 0x5061796D656E7453706C69747465723A20736861726573206172652030000000 PUSH1 0x44 DUP3 ADD MSTORE PUSH1 0x64 ADD PUSH3 0x9F JUMP JUMPDEST PUSH1 0x1 PUSH1 0x1 PUSH1 0xA0 SHL SUB DUP3 AND PUSH1 0x0 SWAP1 DUP2 MSTORE PUSH1 0x2 PUSH1 0x20 MSTORE PUSH1 0x40 SWAP1 KECCAK256 SLOAD ISZERO PUSH3 0x2C7 JUMPI PUSH1 0x40 MLOAD PUSH3 0x461BCD PUSH1 0xE5 SHL DUP2 MSTORE PUSH1 0x20 PUSH1 0x4 DUP3 ADD MSTORE PUSH1 0x2B PUSH1 0x24 DUP3 ADD MSTORE PUSH32 0x5061796D656E7453706C69747465723A206163636F756E7420616C7265616479 PUSH1 0x44 DUP3 ADD MSTORE PUSH11 0x2068617320736861726573 PUSH1 0xA8 SHL PUSH1 0x64 DUP3 ADD MSTORE PUSH1 0x84 ADD PUSH3 0x9F JUMP JUMPDEST PUSH1 0x4 DUP1 SLOAD PUSH1 0x1 DUP2 ADD SWAP1 SWAP2 SSTORE PUSH32 0x8A35ACFBC15FF81A39AE7D344FD709F28E8600B4AA8C65C6B64BFE7FE36BD19B ADD DUP1 SLOAD PUSH1 0x1 PUSH1 0x1 PUSH1 0xA0 SHL SUB NOT AND PUSH1 0x1 PUSH1 0x1 PUSH1 0xA0 SHL SUB DUP5 AND SWAP1 DUP2 OR SWAP1 SWAP2 SSTORE PUSH1 0x0 SWAP1 DUP2 MSTORE PUSH1 0x2 PUSH1 0x20 MSTORE PUSH1 0x40 DUP2 KECCAK256 DUP3 SWAP1 SSTORE SLOAD PUSH3 0x32F SWAP1 DUP3 SWAP1 PUSH3 0x5D6 JUMP JUMPDEST PUSH1 0x0 SSTORE PUSH1 0x40 DUP1 MLOAD PUSH1 0x1 PUSH1 0x1 PUSH1 0xA0 SHL SUB DUP5 AND DUP2 MSTORE PUSH1 0x20 DUP2 ADD DUP4 SWAP1 MSTORE PUSH32 0x40C340F65E17194D14DDDDB073D3C9F888E3CB52B5AAE0C6C7706B4FBC905FAC SWAP2 ADD PUSH1 0x40 MLOAD DUP1 SWAP2 SUB SWAP1 LOG1 POP POP JUMP JUMPDEST CALLER SWAP1 JUMP JUMPDEST PUSH1 0x7 DUP1 SLOAD PUSH1 0x1 PUSH1 0x1 PUSH1 0xA0 SHL SUB DUP4 DUP2 AND PUSH1 0x1 PUSH1 0x1 PUSH1 0xA0 SHL SUB NOT DUP4 AND DUP2 OR SWAP1 SWAP4 SSTORE PUSH1 0x40 MLOAD SWAP2 AND SWAP2 SWAP1 DUP3 SWAP1 PUSH32 0x8BE0079C531659141344CD1FD0A4F28419497F9722A3DAAFE3B4186F6B6457E0 SWAP1 PUSH1 0x0 SWAP1 LOG3 POP POP JUMP JUMPDEST PUSH4 0x4E487B71 PUSH1 0xE0 SHL PUSH1 0x0 MSTORE PUSH1 0x41 PUSH1 0x4 MSTORE PUSH1 0x24 PUSH1 0x0 REVERT JUMPDEST PUSH1 0x40 MLOAD PUSH1 0x1F DUP3 ADD PUSH1 0x1F NOT AND DUP2 ADD PUSH1 0x1 PUSH1 0x1 PUSH1 0x40 SHL SUB DUP2 GT DUP3 DUP3 LT OR ISZERO PUSH3 0x40F JUMPI PUSH3 0x40F PUSH3 0x3CE JUMP JUMPDEST PUSH1 0x40 MSTORE SWAP2 SWAP1 POP JUMP JUMPDEST PUSH1 0x0 PUSH1 0x1 PUSH1 0x1 PUSH1 0x40 SHL SUB DUP3 GT ISZERO PUSH3 0x433 JUMPI PUSH3 0x433 PUSH3 0x3CE JUMP JUMPDEST POP PUSH1 0x5 SHL PUSH1 0x20 ADD SWAP1 JUMP JUMPDEST PUSH1 0x0 DUP3 PUSH1 0x1F DUP4 ADD SLT PUSH3 0x44F JUMPI PUSH1 0x0 DUP1 REVERT JUMPDEST DUP2 MLOAD PUSH1 0x20 PUSH3 0x468 PUSH3 0x462 DUP4 PUSH3 0x417 JUMP JUMPDEST PUSH3 0x3E4 JUMP JUMPDEST DUP3 DUP2 MSTORE PUSH1 0x5 SWAP3 SWAP1 SWAP3 SHL DUP5 ADD DUP2 ADD SWAP2 DUP2 DUP2 ADD SWAP1 DUP7 DUP5 GT ISZERO PUSH3 0x488 JUMPI PUSH1 0x0 DUP1 REVERT JUMPDEST DUP3 DUP7 ADD JUMPDEST DUP5 DUP2 LT ISZERO PUSH3 0x4A5 JUMPI DUP1 MLOAD DUP4 MSTORE SWAP2 DUP4 ADD SWAP2 DUP4 ADD PUSH3 0x48C JUMP JUMPDEST POP SWAP7 SWAP6 POP POP POP POP POP POP JUMP JUMPDEST PUSH1 0x0 DUP1 PUSH1 0x40 DUP4 DUP6 SUB SLT ISZERO PUSH3 0x4C4 JUMPI PUSH1 0x0 DUP1 REVERT JUMPDEST DUP3 MLOAD PUSH1 0x1 PUSH1 0x1 PUSH1 0x40 SHL SUB DUP1 DUP3 GT ISZERO PUSH3 0x4DC JUMPI PUSH1 0x0 DUP1 REVERT JUMPDEST DUP2 DUP6 ADD SWAP2 POP DUP6 PUSH1 0x1F DUP4 ADD SLT PUSH3 0x4F1 JUMPI PUSH1 0x0 DUP1 REVERT JUMPDEST DUP2 MLOAD PUSH1 0x20 PUSH3 0x504 PUSH3 0x462 DUP4 PUSH3 0x417 JUMP JUMPDEST DUP3 DUP2 MSTORE PUSH1 0x5 SWAP3 SWAP1 SWAP3 SHL DUP5 ADD DUP2 ADD SWAP2 DUP2 DUP2 ADD SWAP1 DUP10 DUP5 GT ISZERO PUSH3 0x524 JUMPI PUSH1 0x0 DUP1 REVERT JUMPDEST SWAP5 DUP3 ADD SWAP5 JUMPDEST DUP4 DUP7 LT ISZERO PUSH3 0x55B JUMPI DUP6 MLOAD PUSH1 0x1 PUSH1 0x1 PUSH1 0xA0 SHL SUB DUP2 AND DUP2 EQ PUSH3 0x54B JUMPI PUSH1 0x0 DUP1 DUP2 REVERT JUMPDEST DUP3 MSTORE SWAP5 DUP3 ADD SWAP5 SWAP1 DUP3 ADD SWAP1 PUSH3 0x529 JUMP JUMPDEST SWAP2 DUP9 ADD MLOAD SWAP2 SWAP7 POP SWAP1 SWAP4 POP POP POP DUP1 DUP3 GT ISZERO PUSH3 0x575 JUMPI PUSH1 0x0 DUP1 REVERT JUMPDEST POP PUSH3 0x584 DUP6 DUP3 DUP7 ADD PUSH3 0x43D JUMP JUMPDEST SWAP2 POP POP SWAP3 POP SWAP3 SWAP1 POP JUMP JUMPDEST PUSH4 0x4E487B71 PUSH1 0xE0 SHL PUSH1 0x0 MSTORE PUSH1 0x32 PUSH1 0x4 MSTORE PUSH1 0x24 PUSH1 0x0 REVERT JUMPDEST PUSH4 0x4E487B71 PUSH1 0xE0 SHL PUSH1 0x0 MSTORE PUSH1 0x11 PUSH1 0x4 MSTORE PUSH1 0x24 PUSH1 0x0 REVERT JUMPDEST PUSH1 0x0 PUSH1 0x1 DUP3 ADD PUSH3 0x5CF JUMPI PUSH3 0x5CF PUSH3 0x5A4 JUMP JUMPDEST POP PUSH1 0x1 ADD SWAP1 JUMP JUMPDEST PUSH1 0x0 DUP3 NOT DUP3 GT ISZERO PUSH3 0x5EC JUMPI PUSH3 0x5EC PUSH3 0x5A4 JUMP JUMPDEST POP ADD SWAP1 JUMP JUMPDEST PUSH2 0xDEC DUP1 PUSH3 0x601 PUSH1 0x0 CODECOPY PUSH1 0x0 RETURN INVALID PUSH1 0x80 PUSH1 0x40 MSTORE PUSH1 0x4 CALLDATASIZE LT PUSH2 0xAB JUMPI PUSH1 0x0 CALLDATALOAD PUSH1 0xE0 SHR DUP1 PUSH4 0x8DA5CB5B GT PUSH2 0x64 JUMPI DUP1 PUSH4 0x8DA5CB5B EQ PUSH2 0x1F2 JUMPI DUP1 PUSH4 0x9852595C EQ PUSH2 0x210 JUMPI DUP1 PUSH4 0xCE7C2AC2 EQ PUSH2 0x246 JUMPI DUP1 PUSH4 0xD79779B2 EQ PUSH2 0x27C JUMPI DUP1 PUSH4 0xE33B7DE3 EQ PUSH2 0x2B2 JUMPI DUP1 PUSH4 0xF2FDE38B EQ PUSH2 0x2C7 JUMPI PUSH1 0x0 DUP1 REVERT JUMPDEST DUP1 PUSH4 0x19165587 EQ PUSH2 0xF9 JUMPI DUP1 PUSH4 0x3A98EF39 EQ PUSH2 0x11B JUMPI DUP1 PUSH4 0x406072A9 EQ PUSH2 0x13F JUMPI DUP1 PUSH4 0x48B75044 EQ PUSH2 0x185 JUMPI DUP1 PUSH4 0x715018A6 EQ PUSH2 0x1A5 JUMPI DUP1 PUSH4 0x8B83209B EQ PUSH2 0x1BA JUMPI PUSH1 0x0 DUP1 REVERT JUMPDEST CALLDATASIZE PUSH2 0xF4 JUMPI PUSH32 0x6EF95F06320E7A25A04A175CA677B7052BDD97131872C2192525A629F51BE770 CALLER PUSH1 0x40 DUP1 MLOAD PUSH1 0x1 PUSH1 0x1 PUSH1 0xA0 SHL SUB SWAP1 SWAP3 AND DUP3 MSTORE CALLVALUE PUSH1 0x20 DUP4 ADD MSTORE ADD PUSH1 0x40 MLOAD DUP1 SWAP2 SUB SWAP1 LOG1 STOP JUMPDEST PUSH1 0x0 DUP1 REVERT JUMPDEST CALLVALUE DUP1 ISZERO PUSH2 0x105 JUMPI PUSH1 0x0 DUP1 REVERT JUMPDEST POP PUSH2 0x119 PUSH2 0x114 CALLDATASIZE PUSH1 0x4 PUSH2 0xB60 JUMP JUMPDEST PUSH2 0x2E7 JUMP JUMPDEST STOP JUMPDEST CALLVALUE DUP1 ISZERO PUSH2 0x127 JUMPI PUSH1 0x0 DUP1 REVERT JUMPDEST POP PUSH1 0x0 SLOAD JUMPDEST PUSH1 0x40 MLOAD SWAP1 DUP2 MSTORE PUSH1 0x20 ADD JUMPDEST PUSH1 0x40 MLOAD DUP1 SWAP2 SUB SWAP1 RETURN JUMPDEST CALLVALUE DUP1 ISZERO PUSH2 0x14B JUMPI PUSH1 0x0 DUP1 REVERT JUMPDEST POP PUSH2 0x12C PUSH2 0x15A CALLDATASIZE PUSH1 0x4 PUSH2 0xB7D JUMP JUMPDEST PUSH1 0x1 PUSH1 0x1 PUSH1 0xA0 SHL SUB SWAP2 DUP3 AND PUSH1 0x0 SWAP1 DUP2 MSTORE PUSH1 0x6 PUSH1 0x20 SWAP1 DUP2 MSTORE PUSH1 0x40 DUP1 DUP4 KECCAK256 SWAP4 SWAP1 SWAP5 AND DUP3 MSTORE SWAP2 SWAP1 SWAP2 MSTORE KECCAK256 SLOAD SWAP1 JUMP JUMPDEST CALLVALUE DUP1 ISZERO PUSH2 0x191 JUMPI PUSH1 0x0 DUP1 REVERT JUMPDEST POP PUSH2 0x119 PUSH2 0x1A0 CALLDATASIZE PUSH1 0x4 PUSH2 0xB7D JUMP JUMPDEST PUSH2 0x421 JUMP JUMPDEST CALLVALUE DUP1 ISZERO PUSH2 0x1B1 JUMPI PUSH1 0x0 DUP1 REVERT JUMPDEST POP PUSH2 0x119 PUSH2 0x5FD JUMP JUMPDEST CALLVALUE DUP1 ISZERO PUSH2 0x1C6 JUMPI PUSH1 0x0 DUP1 REVERT JUMPDEST POP PUSH2 0x1DA PUSH2 0x1D5 CALLDATASIZE PUSH1 0x4 PUSH2 0xBB6 JUMP JUMPDEST PUSH2 0x663 JUMP JUMPDEST PUSH1 0x40 MLOAD PUSH1 0x1 PUSH1 0x1 PUSH1 0xA0 SHL SUB SWAP1 SWAP2 AND DUP2 MSTORE PUSH1 0x20 ADD PUSH2 0x136 JUMP JUMPDEST CALLVALUE DUP1 ISZERO PUSH2 0x1FE JUMPI PUSH1 0x0 DUP1 REVERT JUMPDEST POP PUSH1 0x7 SLOAD PUSH1 0x1 PUSH1 0x1 PUSH1 0xA0 SHL SUB AND PUSH2 0x1DA JUMP JUMPDEST CALLVALUE DUP1 ISZERO PUSH2 0x21C JUMPI PUSH1 0x0 DUP1 REVERT JUMPDEST POP PUSH2 0x12C PUSH2 0x22B CALLDATASIZE PUSH1 0x4 PUSH2 0xB60 JUMP JUMPDEST PUSH1 0x1 PUSH1 0x1 PUSH1 0xA0 SHL SUB AND PUSH1 0x0 SWAP1 DUP2 MSTORE PUSH1 0x3 PUSH1 0x20 MSTORE PUSH1 0x40 SWAP1 KECCAK256 SLOAD SWAP1 JUMP JUMPDEST CALLVALUE DUP1 ISZERO PUSH2 0x252 JUMPI PUSH1 0x0 DUP1 REVERT JUMPDEST POP PUSH2 0x12C PUSH2 0x261 CALLDATASIZE PUSH1 0x4 PUSH2 0xB60 JUMP JUMPDEST PUSH1 0x1 PUSH1 0x1 PUSH1 0xA0 SHL SUB AND PUSH1 0x0 SWAP1 DUP2 MSTORE PUSH1 0x2 PUSH1 0x20 MSTORE PUSH1 0x40 SWAP1 KECCAK256 SLOAD SWAP1 JUMP JUMPDEST CALLVALUE DUP1 ISZERO PUSH2 0x288 JUMPI PUSH1 0x0 DUP1 REVERT JUMPDEST POP PUSH2 0x12C PUSH2 0x297 CALLDATASIZE PUSH1 0x4 PUSH2 0xB60 JUMP JUMPDEST PUSH1 0x1 PUSH1 0x1 PUSH1 0xA0 SHL SUB AND PUSH1 0x0 SWAP1 DUP2 MSTORE PUSH1 0x5 PUSH1 0x20 MSTORE PUSH1 0x40 SWAP1 KECCAK256 SLOAD SWAP1 JUMP JUMPDEST CALLVALUE DUP1 ISZERO PUSH2 0x2BE JUMPI PUSH1 0x0 DUP1 REVERT JUMPDEST POP PUSH1 0x1 SLOAD PUSH2 0x12C JUMP JUMPDEST CALLVALUE DUP1 ISZERO PUSH2 0x2D3 JUMPI PUSH1 0x0 DUP1 REVERT JUMPDEST POP PUSH2 0x119 PUSH2 0x2E2 CALLDATASIZE PUSH1 0x4 PUSH2 0xB60 JUMP JUMPDEST PUSH2 0x693 JUMP JUMPDEST PUSH1 0x1 PUSH1 0x1 PUSH1 0xA0 SHL SUB DUP2 AND PUSH1 0x0 SWAP1 DUP2 MSTORE PUSH1 0x2 PUSH1 0x20 MSTORE PUSH1 0x40 SWAP1 KECCAK256 SLOAD PUSH2 0x325 JUMPI PUSH1 0x40 MLOAD PUSH3 0x461BCD PUSH1 0xE5 SHL DUP2 MSTORE PUSH1 0x4 ADD PUSH2 0x31C SWAP1 PUSH2 0xBCF JUMP JUMPDEST PUSH1 0x40 MLOAD DUP1 SWAP2 SUB SWAP1 REVERT JUMPDEST PUSH1 0x0 PUSH2 0x330 PUSH1 0x1 SLOAD SWAP1 JUMP JUMPDEST PUSH2 0x33A SWAP1 SELFBALANCE PUSH2 0xC2B JUMP JUMPDEST SWAP1 POP PUSH1 0x0 PUSH2 0x367 DUP4 DUP4 PUSH2 0x362 DUP7 PUSH1 0x1 PUSH1 0x1 PUSH1 0xA0 SHL SUB AND PUSH1 0x0 SWAP1 DUP2 MSTORE PUSH1 0x3 PUSH1 0x20 MSTORE PUSH1 0x40 SWAP1 KECCAK256 SLOAD SWAP1 JUMP JUMPDEST PUSH2 0x75E JUMP JUMPDEST SWAP1 POP DUP1 PUSH1 0x0 SUB PUSH2 0x389 JUMPI PUSH1 0x40 MLOAD PUSH3 0x461BCD PUSH1 0xE5 SHL DUP2 MSTORE PUSH1 0x4 ADD PUSH2 0x31C SWAP1 PUSH2 0xC43 JUMP JUMPDEST PUSH1 0x1 PUSH1 0x1 PUSH1 0xA0 SHL SUB DUP4 AND PUSH1 0x0 SWAP1 DUP2 MSTORE PUSH1 0x3 PUSH1 0x20 MSTORE PUSH1 0x40 DUP2 KECCAK256 DUP1 SLOAD DUP4 SWAP3 SWAP1 PUSH2 0x3B1 SWAP1 DUP5 SWAP1 PUSH2 0xC2B JUMP JUMPDEST SWAP3 POP POP DUP2 SWAP1 SSTORE POP DUP1 PUSH1 0x1 PUSH1 0x0 DUP3 DUP3 SLOAD PUSH2 0x3CA SWAP2 SWAP1 PUSH2 0xC2B JUMP JUMPDEST SWAP1 SWAP2 SSTORE POP PUSH2 0x3DA SWAP1 POP DUP4 DUP3 PUSH2 0x7A3 JUMP JUMPDEST PUSH1 0x40 DUP1 MLOAD PUSH1 0x1 PUSH1 0x1 PUSH1 0xA0 SHL SUB DUP6 AND DUP2 MSTORE PUSH1 0x20 DUP2 ADD DUP4 SWAP1 MSTORE PUSH32 0xDF20FD1E76BC69D672E4814FAFB2C449BBA3A5369D8359ADF9E05E6FDE87B056 SWAP2 ADD PUSH1 0x40 MLOAD DUP1 SWAP2 SUB SWAP1 LOG1 POP POP POP JUMP JUMPDEST PUSH1 0x1 PUSH1 0x1 PUSH1 0xA0 SHL SUB DUP2 AND PUSH1 0x0 SWAP1 DUP2 MSTORE PUSH1 0x2 PUSH1 0x20 MSTORE PUSH1 0x40 SWAP1 KECCAK256 SLOAD PUSH2 0x456 JUMPI PUSH1 0x40 MLOAD PUSH3 0x461BCD PUSH1 0xE5 SHL DUP2 MSTORE PUSH1 0x4 ADD PUSH2 0x31C SWAP1 PUSH2 0xBCF JUMP JUMPDEST PUSH1 0x1 PUSH1 0x1 PUSH1 0xA0 SHL SUB DUP3 AND PUSH1 0x0 SWAP1 DUP2 MSTORE PUSH1 0x5 PUSH1 0x20 MSTORE PUSH1 0x40 DUP2 KECCAK256 SLOAD PUSH1 0x40 MLOAD PUSH4 0x70A08231 PUSH1 0xE0 SHL DUP2 MSTORE ADDRESS PUSH1 0x4 DUP3 ADD MSTORE PUSH1 0x1 PUSH1 0x1 PUSH1 0xA0 SHL SUB DUP6 AND SWAP1 PUSH4 0x70A08231 SWAP1 PUSH1 0x24 ADD PUSH1 0x20 PUSH1 0x40 MLOAD DUP1 DUP4 SUB DUP2 DUP7 GAS STATICCALL ISZERO DUP1 ISZERO PUSH2 0x4B3 JUMPI RETURNDATASIZE PUSH1 0x0 DUP1 RETURNDATACOPY RETURNDATASIZE PUSH1 0x0 REVERT JUMPDEST POP POP POP POP PUSH1 0x40 MLOAD RETURNDATASIZE PUSH1 0x1F NOT PUSH1 0x1F DUP3 ADD AND DUP3 ADD DUP1 PUSH1 0x40 MSTORE POP DUP2 ADD SWAP1 PUSH2 0x4D7 SWAP2 SWAP1 PUSH2 0xC8E JUMP JUMPDEST PUSH2 0x4E1 SWAP2 SWAP1 PUSH2 0xC2B JUMP JUMPDEST SWAP1 POP PUSH1 0x0 PUSH2 0x51A DUP4 DUP4 PUSH2 0x362 DUP8 DUP8 PUSH1 0x1 PUSH1 0x1 PUSH1 0xA0 SHL SUB SWAP2 DUP3 AND PUSH1 0x0 SWAP1 DUP2 MSTORE PUSH1 0x6 PUSH1 0x20 SWAP1 DUP2 MSTORE PUSH1 0x40 DUP1 DUP4 KECCAK256 SWAP4 SWAP1 SWAP5 AND DUP3 MSTORE SWAP2 SWAP1 SWAP2 MSTORE KECCAK256 SLOAD SWAP1 JUMP JUMPDEST SWAP1 POP DUP1 PUSH1 0x0 SUB PUSH2 0x53C JUMPI PUSH1 0x40 MLOAD PUSH3 0x461BCD PUSH1 0xE5 SHL DUP2 MSTORE PUSH1 0x4 ADD PUSH2 0x31C SWAP1 PUSH2 0xC43 JUMP JUMPDEST PUSH1 0x1 PUSH1 0x1 PUSH1 0xA0 SHL SUB DUP1 DUP6 AND PUSH1 0x0 SWAP1 DUP2 MSTORE PUSH1 0x6 PUSH1 0x20 SWAP1 DUP2 MSTORE PUSH1 0x40 DUP1 DUP4 KECCAK256 SWAP4 DUP8 AND DUP4 MSTORE SWAP3 SWAP1 MSTORE SWAP1 DUP2 KECCAK256 DUP1 SLOAD DUP4 SWAP3 SWAP1 PUSH2 0x573 SWAP1 DUP5 SWAP1 PUSH2 0xC2B JUMP JUMPDEST SWAP1 SWAP2 SSTORE POP POP PUSH1 0x1 PUSH1 0x1 PUSH1 0xA0 SHL SUB DUP5 AND PUSH1 0x0 SWAP1 DUP2 MSTORE PUSH1 0x5 PUSH1 0x20 MSTORE PUSH1 0x40 DUP2 KECCAK256 DUP1 SLOAD DUP4 SWAP3 SWAP1 PUSH2 0x5A0 SWAP1 DUP5 SWAP1 PUSH2 0xC2B JUMP JUMPDEST SWAP1 SWAP2 SSTORE POP PUSH2 0x5B1 SWAP1 POP DUP5 DUP5 DUP4 PUSH2 0x8C1 JUMP JUMPDEST PUSH1 0x40 DUP1 MLOAD PUSH1 0x1 PUSH1 0x1 PUSH1 0xA0 SHL SUB DUP6 DUP2 AND DUP3 MSTORE PUSH1 0x20 DUP3 ADD DUP5 SWAP1 MSTORE DUP7 AND SWAP2 PUSH32 0x3BE5B7A71E84ED12875D241991C70855AC5817D847039E17A9D895C1CEB0F18A SWAP2 ADD PUSH1 0x40 MLOAD DUP1 SWAP2 SUB SWAP1 LOG2 POP POP POP POP JUMP JUMPDEST PUSH1 0x7 SLOAD PUSH1 0x1 PUSH1 0x1 PUSH1 0xA0 SHL SUB AND CALLER EQ PUSH2 0x657 JUMPI PUSH1 0x40 MLOAD PUSH3 0x461BCD PUSH1 0xE5 SHL DUP2 MSTORE PUSH1 0x20 PUSH1 0x4 DUP3 ADD DUP2 SWAP1 MSTORE PUSH1 0x24 DUP3 ADD MSTORE PUSH32 0x4F776E61626C653A2063616C6C6572206973206E6F7420746865206F776E6572 PUSH1 0x44 DUP3 ADD MSTORE PUSH1 0x64 ADD PUSH2 0x31C JUMP JUMPDEST PUSH2 0x661 PUSH1 0x0 PUSH2 0x913 JUMP JUMPDEST JUMP JUMPDEST PUSH1 0x0 PUSH1 0x4 DUP3 DUP2 SLOAD DUP2 LT PUSH2 0x678 JUMPI PUSH2 0x678 PUSH2 0xCA7 JUMP JUMPDEST PUSH1 0x0 SWAP2 DUP3 MSTORE PUSH1 0x20 SWAP1 SWAP2 KECCAK256 ADD SLOAD PUSH1 0x1 PUSH1 0x1 PUSH1 0xA0 SHL SUB AND SWAP3 SWAP2 POP POP JUMP JUMPDEST PUSH1 0x7 SLOAD PUSH1 0x1 PUSH1 0x1 PUSH1 0xA0 SHL SUB AND CALLER EQ PUSH2 0x6ED JUMPI PUSH1 0x40 MLOAD PUSH3 0x461BCD PUSH1 0xE5 SHL DUP2 MSTORE PUSH1 0x20 PUSH1 0x4 DUP3 ADD DUP2 SWAP1 MSTORE PUSH1 0x24 DUP3 ADD MSTORE PUSH32 0x4F776E61626C653A2063616C6C6572206973206E6F7420746865206F776E6572 PUSH1 0x44 DUP3 ADD MSTORE PUSH1 0x64 ADD PUSH2 0x31C JUMP JUMPDEST PUSH1 0x1 PUSH1 0x1 PUSH1 0xA0 SHL SUB DUP2 AND PUSH2 0x752 JUMPI PUSH1 0x40 MLOAD PUSH3 0x461BCD PUSH1 0xE5 SHL DUP2 MSTORE PUSH1 0x20 PUSH1 0x4 DUP3 ADD MSTORE PUSH1 0x26 PUSH1 0x24 DUP3 ADD MSTORE PUSH32 0x4F776E61626C653A206E6577206F776E657220697320746865207A65726F2061 PUSH1 0x44 DUP3 ADD MSTORE PUSH6 0x646472657373 PUSH1 0xD0 SHL PUSH1 0x64 DUP3 ADD MSTORE PUSH1 0x84 ADD PUSH2 0x31C JUMP JUMPDEST PUSH2 0x75B DUP2 PUSH2 0x913 JUMP JUMPDEST POP JUMP JUMPDEST PUSH1 0x0 DUP1 SLOAD PUSH1 0x1 PUSH1 0x1 PUSH1 0xA0 SHL SUB DUP6 AND DUP3 MSTORE PUSH1 0x2 PUSH1 0x20 MSTORE PUSH1 0x40 DUP3 KECCAK256 SLOAD DUP4 SWAP2 SWAP1 PUSH2 0x785 SWAP1 DUP7 PUSH2 0xCBD JUMP JUMPDEST PUSH2 0x78F SWAP2 SWAP1 PUSH2 0xCDC JUMP JUMPDEST PUSH2 0x799 SWAP2 SWAP1 PUSH2 0xCFE JUMP JUMPDEST SWAP1 POP JUMPDEST SWAP4 SWAP3 POP POP POP JUMP JUMPDEST DUP1 SELFBALANCE LT ISZERO PUSH2 0x7F3 JUMPI PUSH1 0x40 MLOAD PUSH3 0x461BCD PUSH1 0xE5 SHL DUP2 MSTORE PUSH1 0x20 PUSH1 0x4 DUP3 ADD MSTORE PUSH1 0x1D PUSH1 0x24 DUP3 ADD MSTORE PUSH32 0x416464726573733A20696E73756666696369656E742062616C616E6365000000 PUSH1 0x44 DUP3 ADD MSTORE PUSH1 0x64 ADD PUSH2 0x31C JUMP JUMPDEST PUSH1 0x0 DUP3 PUSH1 0x1 PUSH1 0x1 PUSH1 0xA0 SHL SUB AND DUP3 PUSH1 0x40 MLOAD PUSH1 0x0 PUSH1 0x40 MLOAD DUP1 DUP4 SUB DUP2 DUP6 DUP8 GAS CALL SWAP3 POP POP POP RETURNDATASIZE DUP1 PUSH1 0x0 DUP2 EQ PUSH2 0x840 JUMPI PUSH1 0x40 MLOAD SWAP2 POP PUSH1 0x1F NOT PUSH1 0x3F RETURNDATASIZE ADD AND DUP3 ADD PUSH1 0x40 MSTORE RETURNDATASIZE DUP3 MSTORE RETURNDATASIZE PUSH1 0x0 PUSH1 0x20 DUP5 ADD RETURNDATACOPY PUSH2 0x845 JUMP JUMPDEST PUSH1 0x60 SWAP2 POP JUMPDEST POP POP SWAP1 POP DUP1 PUSH2 0x8BC JUMPI PUSH1 0x40 MLOAD PUSH3 0x461BCD PUSH1 0xE5 SHL DUP2 MSTORE PUSH1 0x20 PUSH1 0x4 DUP3 ADD MSTORE PUSH1 0x3A PUSH1 0x24 DUP3 ADD MSTORE PUSH32 0x416464726573733A20756E61626C6520746F2073656E642076616C75652C2072 PUSH1 0x44 DUP3 ADD MSTORE PUSH32 0x6563697069656E74206D61792068617665207265766572746564000000000000 PUSH1 0x64 DUP3 ADD MSTORE PUSH1 0x84 ADD PUSH2 0x31C JUMP JUMPDEST POP POP POP JUMP JUMPDEST PUSH1 0x40 DUP1 MLOAD PUSH1 0x1 PUSH1 0x1 PUSH1 0xA0 SHL SUB DUP5 AND PUSH1 0x24 DUP3 ADD MSTORE PUSH1 0x44 DUP1 DUP3 ADD DUP5 SWAP1 MSTORE DUP3 MLOAD DUP1 DUP4 SUB SWAP1 SWAP2 ADD DUP2 MSTORE PUSH1 0x64 SWAP1 SWAP2 ADD SWAP1 SWAP2 MSTORE PUSH1 0x20 DUP2 ADD DUP1 MLOAD PUSH1 0x1 PUSH1 0x1 PUSH1 0xE0 SHL SUB AND PUSH4 0xA9059CBB PUSH1 0xE0 SHL OR SWAP1 MSTORE PUSH2 0x8BC SWAP1 DUP5 SWAP1 PUSH2 0x965 JUMP JUMPDEST PUSH1 0x7 DUP1 SLOAD PUSH1 0x1 PUSH1 0x1 PUSH1 0xA0 SHL SUB DUP4 DUP2 AND PUSH1 0x1 PUSH1 0x1 PUSH1 0xA0 SHL SUB NOT DUP4 AND DUP2 OR SWAP1 SWAP4 SSTORE PUSH1 0x40 MLOAD SWAP2 AND SWAP2 SWAP1 DUP3 SWAP1 PUSH32 0x8BE0079C531659141344CD1FD0A4F28419497F9722A3DAAFE3B4186F6B6457E0 SWAP1 PUSH1 0x0 SWAP1 LOG3 POP POP JUMP JUMPDEST PUSH1 0x0 PUSH2 0x9BA DUP3 PUSH1 0x40 MLOAD DUP1 PUSH1 0x40 ADD PUSH1 0x40 MSTORE DUP1 PUSH1 0x20 DUP2 MSTORE PUSH1 0x20 ADD PUSH32 0x5361666545524332303A206C6F772D6C6576656C2063616C6C206661696C6564 DUP2 MSTORE POP DUP6 PUSH1 0x1 PUSH1 0x1 PUSH1 0xA0 SHL SUB AND PUSH2 0xA37 SWAP1 SWAP3 SWAP2 SWAP1 PUSH4 0xFFFFFFFF AND JUMP JUMPDEST DUP1 MLOAD SWAP1 SWAP2 POP ISZERO PUSH2 0x8BC JUMPI DUP1 DUP1 PUSH1 0x20 ADD SWAP1 MLOAD DUP2 ADD SWAP1 PUSH2 0x9D8 SWAP2 SWAP1 PUSH2 0xD15 JUMP JUMPDEST PUSH2 0x8BC JUMPI PUSH1 0x40 MLOAD PUSH3 0x461BCD PUSH1 0xE5 SHL DUP2 MSTORE PUSH1 0x20 PUSH1 0x4 DUP3 ADD MSTORE PUSH1 0x2A PUSH1 0x24 DUP3 ADD MSTORE PUSH32 0x5361666545524332303A204552433230206F7065726174696F6E20646964206E PUSH1 0x44 DUP3 ADD MSTORE PUSH10 0x1BDD081CDD58D8D95959 PUSH1 0xB2 SHL PUSH1 0x64 DUP3 ADD MSTORE PUSH1 0x84 ADD PUSH2 0x31C JUMP JUMPDEST PUSH1 0x60 PUSH2 0x799 DUP5 DUP5 PUSH1 0x0 DUP6 DUP6 PUSH1 0x1 PUSH1 0x1 PUSH1 0xA0 SHL SUB DUP6 AND EXTCODESIZE PUSH2 0xA99 JUMPI PUSH1 0x40 MLOAD PUSH3 0x461BCD PUSH1 0xE5 SHL DUP2 MSTORE PUSH1 0x20 PUSH1 0x4 DUP3 ADD MSTORE PUSH1 0x1D PUSH1 0x24 DUP3 ADD MSTORE PUSH32 0x416464726573733A2063616C6C20746F206E6F6E2D636F6E7472616374000000 PUSH1 0x44 DUP3 ADD MSTORE PUSH1 0x64 ADD PUSH2 0x31C JUMP JUMPDEST PUSH1 0x0 DUP1 DUP7 PUSH1 0x1 PUSH1 0x1 PUSH1 0xA0 SHL SUB AND DUP6 DUP8 PUSH1 0x40 MLOAD PUSH2 0xAB5 SWAP2 SWAP1 PUSH2 0xD67 JUMP JUMPDEST PUSH1 0x0 PUSH1 0x40 MLOAD DUP1 DUP4 SUB DUP2 DUP6 DUP8 GAS CALL SWAP3 POP POP POP RETURNDATASIZE DUP1 PUSH1 0x0 DUP2 EQ PUSH2 0xAF2 JUMPI PUSH1 0x40 MLOAD SWAP2 POP PUSH1 0x1F NOT PUSH1 0x3F RETURNDATASIZE ADD AND DUP3 ADD PUSH1 0x40 MSTORE RETURNDATASIZE DUP3 MSTORE RETURNDATASIZE PUSH1 0x0 PUSH1 0x20 DUP5 ADD RETURNDATACOPY PUSH2 0xAF7 JUMP JUMPDEST PUSH1 0x60 SWAP2 POP JUMPDEST POP SWAP2 POP SWAP2 POP PUSH2 0xB07 DUP3 DUP3 DUP7 PUSH2 0xB12 JUMP JUMPDEST SWAP8 SWAP7 POP POP POP POP POP POP POP JUMP JUMPDEST PUSH1 0x60 DUP4 ISZERO PUSH2 0xB21 JUMPI POP DUP2 PUSH2 0x79C JUMP JUMPDEST DUP3 MLOAD ISZERO PUSH2 0xB31 JUMPI DUP3 MLOAD DUP1 DUP5 PUSH1 0x20 ADD REVERT JUMPDEST DUP2 PUSH1 0x40 MLOAD PUSH3 0x461BCD PUSH1 0xE5 SHL DUP2 MSTORE PUSH1 0x4 ADD PUSH2 0x31C SWAP2 SWAP1 PUSH2 0xD83 JUMP JUMPDEST PUSH1 0x1 PUSH1 0x1 PUSH1 0xA0 SHL SUB DUP2 AND DUP2 EQ PUSH2 0x75B JUMPI PUSH1 0x0 DUP1 REVERT JUMPDEST PUSH1 0x0 PUSH1 0x20 DUP3 DUP5 SUB SLT ISZERO PUSH2 0xB72 JUMPI PUSH1 0x0 DUP1 REVERT JUMPDEST DUP2 CALLDATALOAD PUSH2 0x79C DUP2 PUSH2 0xB4B JUMP JUMPDEST PUSH1 0x0 DUP1 PUSH1 0x40 DUP4 DUP6 SUB SLT ISZERO PUSH2 0xB90 JUMPI PUSH1 0x0 DUP1 REVERT JUMPDEST DUP3 CALLDATALOAD PUSH2 0xB9B DUP2 PUSH2 0xB4B JUMP JUMPDEST SWAP2 POP PUSH1 0x20 DUP4 ADD CALLDATALOAD PUSH2 0xBAB DUP2 PUSH2 0xB4B JUMP JUMPDEST DUP1 SWAP2 POP POP SWAP3 POP SWAP3 SWAP1 POP JUMP JUMPDEST PUSH1 0x0 PUSH1 0x20 DUP3 DUP5 SUB SLT ISZERO PUSH2 0xBC8 JUMPI PUSH1 0x0 DUP1 REVERT JUMPDEST POP CALLDATALOAD SWAP2 SWAP1 POP JUMP JUMPDEST PUSH1 0x20 DUP1 DUP3 MSTORE PUSH1 0x26 SWAP1 DUP3 ADD MSTORE PUSH32 0x5061796D656E7453706C69747465723A206163636F756E7420686173206E6F20 PUSH1 0x40 DUP3 ADD MSTORE PUSH6 0x736861726573 PUSH1 0xD0 SHL PUSH1 0x60 DUP3 ADD MSTORE PUSH1 0x80 ADD SWAP1 JUMP JUMPDEST PUSH4 0x4E487B71 PUSH1 0xE0 SHL PUSH1 0x0 MSTORE PUSH1 0x11 PUSH1 0x4 MSTORE PUSH1 0x24 PUSH1 0x0 REVERT JUMPDEST PUSH1 0x0 DUP3 NOT DUP3 GT ISZERO PUSH2 0xC3E JUMPI PUSH2 0xC3E PUSH2 0xC15 JUMP JUMPDEST POP ADD SWAP1 JUMP JUMPDEST PUSH1 0x20 DUP1 DUP3 MSTORE PUSH1 0x2B SWAP1 DUP3 ADD MSTORE PUSH32 0x5061796D656E7453706C69747465723A206163636F756E74206973206E6F7420 PUSH1 0x40 DUP3 ADD MSTORE PUSH11 0x191D59481C185E5B595B9D PUSH1 0xAA SHL PUSH1 0x60 DUP3 ADD MSTORE PUSH1 0x80 ADD SWAP1 JUMP JUMPDEST PUSH1 0x0 PUSH1 0x20 DUP3 DUP5 SUB SLT ISZERO PUSH2 0xCA0 JUMPI PUSH1 0x0 DUP1 REVERT JUMPDEST POP MLOAD SWAP2 SWAP1 POP JUMP JUMPDEST PUSH4 0x4E487B71 PUSH1 0xE0 SHL PUSH1 0x0 MSTORE PUSH1 0x32 PUSH1 0x4 MSTORE PUSH1 0x24 PUSH1 0x0 REVERT JUMPDEST PUSH1 0x0 DUP2 PUSH1 0x0 NOT DIV DUP4 GT DUP3 ISZERO ISZERO AND ISZERO PUSH2 0xCD7 JUMPI PUSH2 0xCD7 PUSH2 0xC15 JUMP JUMPDEST POP MUL SWAP1 JUMP JUMPDEST PUSH1 0x0 DUP3 PUSH2 0xCF9 JUMPI PUSH4 0x4E487B71 PUSH1 0xE0 SHL PUSH1 0x0 MSTORE PUSH1 0x12 PUSH1 0x4 MSTORE PUSH1 0x24 PUSH1 0x0 REVERT JUMPDEST POP DIV SWAP1 JUMP JUMPDEST PUSH1 0x0 DUP3 DUP3 LT ISZERO PUSH2 0xD10 JUMPI PUSH2 0xD10 PUSH2 0xC15 JUMP JUMPDEST POP SUB SWAP1 JUMP JUMPDEST PUSH1 0x0 PUSH1 0x20 DUP3 DUP5 SUB SLT ISZERO PUSH2 0xD27 JUMPI PUSH1 0x0 DUP1 REVERT JUMPDEST DUP2 MLOAD DUP1 ISZERO ISZERO DUP2 EQ PUSH2 0x79C JUMPI PUSH1 0x0 DUP1 REVERT JUMPDEST PUSH1 0x0 JUMPDEST DUP4 DUP2 LT ISZERO PUSH2 0xD52 JUMPI DUP2 DUP2 ADD MLOAD DUP4 DUP3 ADD MSTORE PUSH1 0x20 ADD PUSH2 0xD3A JUMP JUMPDEST DUP4 DUP2 GT ISZERO PUSH2 0xD61 JUMPI PUSH1 0x0 DUP5 DUP5 ADD MSTORE JUMPDEST POP POP POP POP JUMP JUMPDEST PUSH1 0x0 DUP3 MLOAD PUSH2 0xD79 DUP2 DUP5 PUSH1 0x20 DUP8 ADD PUSH2 0xD37 JUMP JUMPDEST SWAP2 SWAP1 SWAP2 ADD SWAP3 SWAP2 POP POP JUMP JUMPDEST PUSH1 0x20 DUP2 MSTORE PUSH1 0x0 DUP3 MLOAD DUP1 PUSH1 0x20 DUP5 ADD MSTORE PUSH2 0xDA2 DUP2 PUSH1 0x40 DUP6 ADD PUSH1 0x20 DUP8 ADD PUSH2 0xD37 JUMP JUMPDEST PUSH1 0x1F ADD PUSH1 0x1F NOT AND SWAP2 SWAP1 SWAP2 ADD PUSH1 0x40 ADD SWAP3 SWAP2 POP POP JUMP INVALID LOG2 PUSH5 0x6970667358 0x22 SLT KECCAK256 0xC7 PC MULMOD 0xE6 0xD2 BALANCE 0xE3 0x2A 0x2B DUP12 PUSH11 0xB6CB772608920669841D80 0xC8 0xC9 0xE7 0x26 CREATE2 PUSH3 0x721FFF SHL PUSH5 0x736F6C6343 STOP ADDMOD 0xD STOP CALLER "
				},
				"gasEstimates": {
					"creation": {
						"codeDepositCost": "712800",
						"executionCost": "infinite",
						"totalCost": "infinite"
					},
					"external": {
						"owner()": "2331",
						"payee(uint256)": "4730",
						"release(address)": "infinite",
						"release(address,address)": "infinite",
						"released(address)": "2542",
						"released(address,address)": "infinite",
						"renounceOwnership()": "28206",
						"shares(address)": "2564",
						"totalReleased()": "2369",
						"totalReleased(address)": "2586",
						"totalShares()": "2293",
						"transferOwnership(address)": "infinite"
					}
				},
				"methodIdentifiers": {
					"owner()": "8da5cb5b",
					"payee(uint256)": "8b83209b",
					"release(address)": "19165587",
					"release(address,address)": "48b75044",
					"released(address)": "9852595c",
					"released(address,address)": "406072a9",
					"renounceOwnership()": "715018a6",
					"shares(address)": "ce7c2ac2",
					"totalReleased()": "e33b7de3",
					"totalReleased(address)": "d79779b2",
					"totalShares()": "3a98ef39",
					"transferOwnership(address)": "f2fde38b"
				}
			},
			"storageLayout": {
				"storage": [
					{
						"astId": 141,
						"contract": "contracts/HACHIWallet.sol:HachiWallet",
						"label": "_totalShares",
						"offset": 0,
						"slot": "0",
						"type": "t_uint256"
					},
					{
						"astId": 143,
						"contract": "contracts/HACHIWallet.sol:HachiWallet",
						"label": "_totalReleased",
						"offset": 0,
						"slot": "1",
						"type": "t_uint256"
					},
					{
						"astId": 147,
						"contract": "contracts/HACHIWallet.sol:HachiWallet",
						"label": "_shares",
						"offset": 0,
						"slot": "2",
						"type": "t_mapping(t_address,t_uint256)"
					},
					{
						"astId": 151,
						"contract": "contracts/HACHIWallet.sol:HachiWallet",
						"label": "_released",
						"offset": 0,
						"slot": "3",
						"type": "t_mapping(t_address,t_uint256)"
					},
					{
						"astId": 154,
						"contract": "contracts/HACHIWallet.sol:HachiWallet",
						"label": "_payees",
						"offset": 0,
						"slot": "4",
						"type": "t_array(t_address)dyn_storage"
					},
					{
						"astId": 159,
						"contract": "contracts/HACHIWallet.sol:HachiWallet",
						"label": "_erc20TotalReleased",
						"offset": 0,
						"slot": "5",
						"type": "t_mapping(t_contract(IERC20)623,t_uint256)"
					},
					{
						"astId": 166,
						"contract": "contracts/HACHIWallet.sol:HachiWallet",
						"label": "_erc20Released",
						"offset": 0,
						"slot": "6",
						"type": "t_mapping(t_contract(IERC20)623,t_mapping(t_address,t_uint256))"
					},
					{
						"astId": 7,
						"contract": "contracts/HACHIWallet.sol:HachiWallet",
						"label": "_owner",
						"offset": 0,
						"slot": "7",
						"type": "t_address"
					}
				],
				"types": {
					"t_address": {
						"encoding": "inplace",
						"label": "address",
						"numberOfBytes": "20"
					},
					"t_array(t_address)dyn_storage": {
						"base": "t_address",
						"encoding": "dynamic_array",
						"label": "address[]",
						"numberOfBytes": "32"
					},
					"t_contract(IERC20)623": {
						"encoding": "inplace",
						"label": "contract IERC20",
						"numberOfBytes": "20"
					},
					"t_mapping(t_address,t_uint256)": {
						"encoding": "mapping",
						"key": "t_address",
						"label": "mapping(address => uint256)",
						"numberOfBytes": "32",
						"value": "t_uint256"
					},
					"t_mapping(t_contract(IERC20)623,t_mapping(t_address,t_uint256))": {
						"encoding": "mapping",
						"key": "t_contract(IERC20)623",
						"label": "mapping(contract IERC20 => mapping(address => uint256))",
						"numberOfBytes": "32",
						"value": "t_mapping(t_address,t_uint256)"
					},
					"t_mapping(t_contract(IERC20)623,t_uint256)": {
						"encoding": "mapping",
						"key": "t_contract(IERC20)623",
						"label": "mapping(contract IERC20 => uint256)",
						"numberOfBytes": "32",
						"value": "t_uint256"
					},
					"t_uint256": {
						"encoding": "inplace",
						"label": "uint256",
						"numberOfBytes": "32"
					}
				}
			},
			"userdoc": {
				"kind": "user",
				"methods": {},
				"version": 1
			}
		}
	}
}