{
	"contracts/HACHIWhitelist.sol": {
		"HachiWhitelist": {
			"abi": [
				{
					"inputs": [
						{
							"internalType": "bytes32",
							"name": "_merkleRoot",
							"type": "bytes32"
						}
					],
					"stateMutability": "nonpayable",
					"type": "constructor"
				},
				{
					"anonymous": false,
					"inputs": [
						{
							"indexed": true,
							"internalType": "address",
							"name": "previousOwner",
							"type": "address"
						},
						{
							"indexed": true,
							"internalType": "address",
							"name": "newOwner",
							"type": "address"
						}
					],
					"name": "OwnershipTransferred",
					"type": "event"
				},
				{
					"inputs": [],
					"name": "merkleRoot",
					"outputs": [
						{
							"internalType": "bytes32",
							"name": "",
							"type": "bytes32"
						}
					],
					"stateMutability": "view",
					"type": "function"
				},
				{
					"inputs": [],
					"name": "owner",
					"outputs": [
						{
							"internalType": "address",
							"name": "",
							"type": "address"
						}
					],
					"stateMutability": "view",
					"type": "function"
				},
				{
					"inputs": [],
					"name": "renounceOwnership",
					"outputs": [],
					"stateMutability": "nonpayable",
					"type": "function"
				},
				{
					"inputs": [
						{
							"internalType": "bytes32",
							"name": "_merkleRoot",
							"type": "bytes32"
						}
					],
					"name": "setMerkleRoot",
					"outputs": [],
					"stateMutability": "nonpayable",
					"type": "function"
				},
				{
					"inputs": [
						{
							"internalType": "address",
							"name": "newOwner",
							"type": "address"
						}
					],
					"name": "transferOwnership",
					"outputs": [],
					"stateMutability": "nonpayable",
					"type": "function"
				},
				{
					"inputs": [
						{
							"internalType": "bytes32[]",
							"name": "_merkleProof",
							"type": "bytes32[]"
						},
						{
							"internalType": "address",
							"name": "_signer",
							"type": "address"
						}
					],
					"name": "verifyWhitelist",
					"outputs": [
						{
							"internalType": "bool",
							"name": "",
							"type": "bool"
						}
					],
					"stateMutability": "view",
					"type": "function"
				}
			],
			"devdoc": {
				"kind": "dev",
				"methods": {
					"owner()": {
						"details": "Returns the address of the current owner."
					},
					"renounceOwnership()": {
						"details": "Leaves the contract without owner. It will not be possible to call `onlyOwner` functions anymore. Can only be called by the current owner. NOTE: Renouncing ownership will leave the contract without an owner, thereby removing any functionality that is only available to the owner."
					},
					"transferOwnership(address)": {
						"details": "Transfers ownership of the contract to a new account (`newOwner`). Can only be called by the current owner."
					}
				},
				"version": 1
			},
			"evm": {
				"assembly": "    /* \"contracts/HACHIWhitelist.sol\":182:551  contract HachiWhitelist is Ownable {... */\n  mstore(0x40, 0x80)\n    /* \"contracts/HACHIWhitelist.sol\":255:328  constructor(bytes32 _merkleRoot) {... */\n  callvalue\n  dup1\n  iszero\n  tag_1\n  jumpi\n  0x00\n  dup1\n  revert\ntag_1:\n  pop\n  mload(0x40)\n  sub(codesize, bytecodeSize)\n  dup1\n  bytecodeSize\n  dup4\n  codecopy\n  dup2\n  add\n  0x40\n  dup2\n  swap1\n  mstore\n  tag_2\n  swap2\n  tag_3\n  jump\t// in\ntag_2:\n    /* \"@openzeppelin/contracts/access/Ownable.sol\":921:953  _transferOwnership(_msgSender()) */\n  tag_7\n    /* \"@openzeppelin/contracts/utils/Context.sol\":719:729  msg.sender */\n  caller\n    /* \"@openzeppelin/contracts/access/Ownable.sol\":921:939  _transferOwnership */\n  tag_10\n    /* \"@openzeppelin/contracts/access/Ownable.sol\":921:953  _transferOwnership(_msgSender()) */\n  jump\t// in\ntag_7:\n  pop\n    /* \"contracts/HACHIWhitelist.sol\":182:551  contract HachiWhitelist is Ownable {... */\n  jump(tag_15)\n    /* \"@openzeppelin/contracts/access/Ownable.sol\":2270:2457  function _transferOwnership(address newOwner) internal virtual {... */\ntag_10:\n    /* \"@openzeppelin/contracts/access/Ownable.sol\":2343:2359  address oldOwner */\n  0x00\n    /* \"@openzeppelin/contracts/access/Ownable.sol\":2362:2368  _owner */\n  dup1\n  sload\n  sub(shl(0xa0, 0x01), 0x01)\n    /* \"@openzeppelin/contracts/access/Ownable.sol\":2378:2395  _owner = newOwner */\n  dup4\n  dup2\n  and\n  not(sub(shl(0xa0, 0x01), 0x01))\n  dup4\n  and\n  dup2\n  or\n  dup5\n  sstore\n    /* \"@openzeppelin/contracts/access/Ownable.sol\":2410:2450  OwnershipTransferred(oldOwner, newOwner) */\n  mload(0x40)\n    /* \"@openzeppelin/contracts/access/Ownable.sol\":2362:2368  _owner */\n  swap2\n  swap1\n  swap3\n  and\n  swap3\n  dup4\n  swap2\n    /* \"@openzeppelin/contracts/access/Ownable.sol\":2410:2450  OwnershipTransferred(oldOwner, newOwner) */\n  0x8be0079c531659141344cd1fd0a4f28419497f9722a3daafe3b4186f6b6457e0\n  swap2\n    /* \"@openzeppelin/contracts/access/Ownable.sol\":2343:2359  address oldOwner */\n  swap1\n    /* \"@openzeppelin/contracts/access/Ownable.sol\":2410:2450  OwnershipTransferred(oldOwner, newOwner) */\n  log3\n    /* \"@openzeppelin/contracts/access/Ownable.sol\":2333:2457  {... */\n  pop\n    /* \"@openzeppelin/contracts/access/Ownable.sol\":2270:2457  function _transferOwnership(address newOwner) internal virtual {... */\n  pop\n  jump\t// out\n    /* \"#utility.yul\":14:198   */\ntag_3:\n    /* \"#utility.yul\":84:90   */\n  0x00\n    /* \"#utility.yul\":137:139   */\n  0x20\n    /* \"#utility.yul\":125:134   */\n  dup3\n    /* \"#utility.yul\":116:123   */\n  dup5\n    /* \"#utility.yul\":112:135   */\n  sub\n    /* \"#utility.yul\":108:140   */\n  slt\n    /* \"#utility.yul\":105:157   */\n  iszero\n  tag_17\n  jumpi\n    /* \"#utility.yul\":153:154   */\n  0x00\n    /* \"#utility.yul\":150:151   */\n  dup1\n    /* \"#utility.yul\":143:155   */\n  revert\n    /* \"#utility.yul\":105:157   */\ntag_17:\n  pop\n    /* \"#utility.yul\":176:192   */\n  mload\n  swap2\n    /* \"#utility.yul\":14:198   */\n  swap1\n  pop\n  jump\t// out\ntag_15:\n    /* \"contracts/HACHIWhitelist.sol\":182:551  contract HachiWhitelist is Ownable {... */\n  dataSize(sub_0)\n  dup1\n  dataOffset(sub_0)\n  0x00\n  codecopy\n  0x00\n  return\nstop\n\nsub_0: assembly {\n        /* \"contracts/HACHIWhitelist.sol\":182:551  contract HachiWhitelist is Ownable {... */\n      mstore(0x40, 0x80)\n      callvalue\n      dup1\n      iszero\n      tag_1\n      jumpi\n      0x00\n      dup1\n      revert\n    tag_1:\n      pop\n      jumpi(tag_2, lt(calldatasize, 0x04))\n      shr(0xe0, calldataload(0x00))\n      dup1\n      0x18ff357e\n      eq\n      tag_3\n      jumpi\n      dup1\n      0x2eb4a7ab\n      eq\n      tag_4\n      jumpi\n      dup1\n      0x715018a6\n      eq\n      tag_5\n      jumpi\n      dup1\n      0x7cb64759\n      eq\n      tag_6\n      jumpi\n      dup1\n      0x8da5cb5b\n      eq\n      tag_7\n      jumpi\n      dup1\n      0xf2fde38b\n      eq\n      tag_8\n      jumpi\n    tag_2:\n      0x00\n      dup1\n      revert\n        /* \"contracts/HACHIWhitelist.sol\":442:549  function verifyWhitelist(bytes32[] memory _merkleProof, address _signer) public view returns (bool){... */\n    tag_3:\n      tag_9\n      tag_10\n      calldatasize\n      0x04\n      tag_11\n      jump\t// in\n    tag_10:\n        /* \"contracts/HACHIWhitelist.sol\":536:540  bool */\n      0x00\n        /* \"contracts/HACHIWhitelist.sol\":442:549  function verifyWhitelist(bytes32[] memory _merkleProof, address _signer) public view returns (bool){... */\n      swap3\n      swap2\n      pop\n      pop\n      jump\n    tag_9:\n      mload(0x40)\n        /* \"#utility.yul\":1685:1699   */\n      swap1\n      iszero\n        /* \"#utility.yul\":1678:1700   */\n      iszero\n        /* \"#utility.yul\":1660:1701   */\n      dup2\n      mstore\n        /* \"#utility.yul\":1648:1650   */\n      0x20\n        /* \"#utility.yul\":1633:1651   */\n      add\n        /* \"contracts/HACHIWhitelist.sol\":442:549  function verifyWhitelist(bytes32[] memory _merkleProof, address _signer) public view returns (bool){... */\n    tag_13:\n      mload(0x40)\n      dup1\n      swap2\n      sub\n      swap1\n      return\n        /* \"contracts/HACHIWhitelist.sol\":223:248  bytes32 public merkleRoot */\n    tag_4:\n      tag_15\n      sload(0x01)\n      dup2\n      jump\n    tag_15:\n      mload(0x40)\n        /* \"#utility.yul\":1858:1883   */\n      swap1\n      dup2\n      mstore\n        /* \"#utility.yul\":1846:1848   */\n      0x20\n        /* \"#utility.yul\":1831:1849   */\n      add\n        /* \"contracts/HACHIWhitelist.sol\":223:248  bytes32 public merkleRoot */\n      tag_13\n        /* \"#utility.yul\":1712:1889   */\n      jump\n        /* \"@openzeppelin/contracts/access/Ownable.sol\":1668:1769  function renounceOwnership() public virtual onlyOwner {... */\n    tag_5:\n      tag_19\n      tag_20\n      jump\t// in\n    tag_19:\n      stop\n        /* \"contracts/HACHIWhitelist.sol\":334:436  function setMerkleRoot(bytes32 _merkleRoot) public onlyOwner {... */\n    tag_6:\n      tag_19\n      tag_22\n      calldatasize\n      0x04\n      tag_23\n      jump\t// in\n    tag_22:\n      tag_24\n      jump\t// in\n        /* \"@openzeppelin/contracts/access/Ownable.sol\":1036:1121  function owner() public view virtual returns (address) {... */\n    tag_7:\n        /* \"@openzeppelin/contracts/access/Ownable.sol\":1082:1089  address */\n      0x00\n        /* \"@openzeppelin/contracts/access/Ownable.sol\":1108:1114  _owner */\n      sload\n        /* \"@openzeppelin/contracts/access/Ownable.sol\":1036:1121  function owner() public view virtual returns (address) {... */\n      mload(0x40)\n      sub(shl(0xa0, 0x01), 0x01)\n        /* \"@openzeppelin/contracts/access/Ownable.sol\":1108:1114  _owner */\n      swap1\n      swap2\n      and\n        /* \"#utility.yul\":2225:2276   */\n      dup2\n      mstore\n        /* \"#utility.yul\":2213:2215   */\n      0x20\n        /* \"#utility.yul\":2198:2216   */\n      add\n        /* \"@openzeppelin/contracts/access/Ownable.sol\":1036:1121  function owner() public view virtual returns (address) {... */\n      tag_13\n        /* \"#utility.yul\":2079:2282   */\n      jump\n        /* \"@openzeppelin/contracts/access/Ownable.sol\":1918:2116  function transferOwnership(address newOwner) public virtual onlyOwner {... */\n    tag_8:\n      tag_19\n      tag_30\n      calldatasize\n      0x04\n      tag_31\n      jump\t// in\n    tag_30:\n      tag_32\n      jump\t// in\n        /* \"@openzeppelin/contracts/access/Ownable.sol\":1668:1769  function renounceOwnership() public virtual onlyOwner {... */\n    tag_20:\n        /* \"@openzeppelin/contracts/access/Ownable.sol\":1082:1089  address */\n      0x00\n        /* \"@openzeppelin/contracts/access/Ownable.sol\":1108:1114  _owner */\n      sload\n      sub(shl(0xa0, 0x01), 0x01)\n      and\n        /* \"@openzeppelin/contracts/utils/Context.sol\":719:729  msg.sender */\n      caller\n        /* \"@openzeppelin/contracts/access/Ownable.sol\":1248:1271  owner() == _msgSender() */\n      eq\n        /* \"@openzeppelin/contracts/access/Ownable.sol\":1240:1308  require(owner() == _msgSender(), \"Ownable: caller is not the owner\") */\n      tag_38\n      jumpi\n      mload(0x40)\n      shl(0xe5, 0x461bcd)\n      dup2\n      mstore\n      0x04\n      add\n      tag_39\n      swap1\n      tag_40\n      jump\t// in\n    tag_39:\n      mload(0x40)\n      dup1\n      swap2\n      sub\n      swap1\n      revert\n    tag_38:\n        /* \"@openzeppelin/contracts/access/Ownable.sol\":1732:1762  _transferOwnership(address(0)) */\n      tag_42\n        /* \"@openzeppelin/contracts/access/Ownable.sol\":1759:1760  0 */\n      0x00\n        /* \"@openzeppelin/contracts/access/Ownable.sol\":1732:1750  _transferOwnership */\n      tag_43\n        /* \"@openzeppelin/contracts/access/Ownable.sol\":1732:1762  _transferOwnership(address(0)) */\n      jump\t// in\n    tag_42:\n        /* \"@openzeppelin/contracts/access/Ownable.sol\":1668:1769  function renounceOwnership() public virtual onlyOwner {... */\n      jump\t// out\n        /* \"contracts/HACHIWhitelist.sol\":334:436  function setMerkleRoot(bytes32 _merkleRoot) public onlyOwner {... */\n    tag_24:\n        /* \"@openzeppelin/contracts/access/Ownable.sol\":1082:1089  address */\n      0x00\n        /* \"@openzeppelin/contracts/access/Ownable.sol\":1108:1114  _owner */\n      sload\n      sub(shl(0xa0, 0x01), 0x01)\n      and\n        /* \"@openzeppelin/contracts/utils/Context.sol\":719:729  msg.sender */\n      caller\n        /* \"@openzeppelin/contracts/access/Ownable.sol\":1248:1271  owner() == _msgSender() */\n      eq\n        /* \"@openzeppelin/contracts/access/Ownable.sol\":1240:1308  require(owner() == _msgSender(), \"Ownable: caller is not the owner\") */\n      tag_47\n      jumpi\n      mload(0x40)\n      shl(0xe5, 0x461bcd)\n      dup2\n      mstore\n      0x04\n      add\n      tag_39\n      swap1\n      tag_40\n      jump\t// in\n    tag_47:\n        /* \"contracts/HACHIWhitelist.sol\":405:415  merkleRoot */\n      0x01\n        /* \"contracts/HACHIWhitelist.sol\":405:429  merkleRoot = _merkleRoot */\n      sstore\n        /* \"contracts/HACHIWhitelist.sol\":334:436  function setMerkleRoot(bytes32 _merkleRoot) public onlyOwner {... */\n      jump\t// out\n        /* \"@openzeppelin/contracts/access/Ownable.sol\":1918:2116  function transferOwnership(address newOwner) public virtual onlyOwner {... */\n    tag_32:\n        /* \"@openzeppelin/contracts/access/Ownable.sol\":1082:1089  address */\n      0x00\n        /* \"@openzeppelin/contracts/access/Ownable.sol\":1108:1114  _owner */\n      sload\n      sub(shl(0xa0, 0x01), 0x01)\n      and\n        /* \"@openzeppelin/contracts/utils/Context.sol\":719:729  msg.sender */\n      caller\n        /* \"@openzeppelin/contracts/access/Ownable.sol\":1248:1271  owner() == _msgSender() */\n      eq\n        /* \"@openzeppelin/contracts/access/Ownable.sol\":1240:1308  require(owner() == _msgSender(), \"Ownable: caller is not the owner\") */\n      tag_54\n      jumpi\n      mload(0x40)\n      shl(0xe5, 0x461bcd)\n      dup2\n      mstore\n      0x04\n      add\n      tag_39\n      swap1\n      tag_40\n      jump\t// in\n    tag_54:\n      sub(shl(0xa0, 0x01), 0x01)\n        /* \"@openzeppelin/contracts/access/Ownable.sol\":2006:2028  newOwner != address(0) */\n      dup2\n      and\n        /* \"@openzeppelin/contracts/access/Ownable.sol\":1998:2071  require(newOwner != address(0), \"Ownable: new owner is the zero address\") */\n      tag_57\n      jumpi\n      mload(0x40)\n      shl(0xe5, 0x461bcd)\n      dup2\n      mstore\n        /* \"#utility.yul\":3041:3043   */\n      0x20\n        /* \"@openzeppelin/contracts/access/Ownable.sol\":1998:2071  require(newOwner != address(0), \"Ownable: new owner is the zero address\") */\n      0x04\n      dup3\n      add\n        /* \"#utility.yul\":3023:3044   */\n      mstore\n        /* \"#utility.yul\":3080:3082   */\n      0x26\n        /* \"#utility.yul\":3060:3078   */\n      0x24\n      dup3\n      add\n        /* \"#utility.yul\":3053:3083   */\n      mstore\n        /* \"#utility.yul\":3119:3153   */\n      0x4f776e61626c653a206e6577206f776e657220697320746865207a65726f2061\n        /* \"#utility.yul\":3099:3117   */\n      0x44\n      dup3\n      add\n        /* \"#utility.yul\":3092:3154   */\n      mstore\n      shl(0xd0, 0x646472657373)\n        /* \"#utility.yul\":3170:3188   */\n      0x64\n      dup3\n      add\n        /* \"#utility.yul\":3163:3199   */\n      mstore\n        /* \"#utility.yul\":3216:3235   */\n      0x84\n      add\n        /* \"@openzeppelin/contracts/access/Ownable.sol\":1998:2071  require(newOwner != address(0), \"Ownable: new owner is the zero address\") */\n      tag_39\n        /* \"#utility.yul\":2839:3241   */\n      jump\n        /* \"@openzeppelin/contracts/access/Ownable.sol\":1998:2071  require(newOwner != address(0), \"Ownable: new owner is the zero address\") */\n    tag_57:\n        /* \"@openzeppelin/contracts/access/Ownable.sol\":2081:2109  _transferOwnership(newOwner) */\n      tag_60\n        /* \"@openzeppelin/contracts/access/Ownable.sol\":2100:2108  newOwner */\n      dup2\n        /* \"@openzeppelin/contracts/access/Ownable.sol\":2081:2099  _transferOwnership */\n      tag_43\n        /* \"@openzeppelin/contracts/access/Ownable.sol\":2081:2109  _transferOwnership(newOwner) */\n      jump\t// in\n    tag_60:\n        /* \"@openzeppelin/contracts/access/Ownable.sol\":1918:2116  function transferOwnership(address newOwner) public virtual onlyOwner {... */\n      pop\n      jump\t// out\n        /* \"@openzeppelin/contracts/access/Ownable.sol\":2270:2457  function _transferOwnership(address newOwner) internal virtual {... */\n    tag_43:\n        /* \"@openzeppelin/contracts/access/Ownable.sol\":2343:2359  address oldOwner */\n      0x00\n        /* \"@openzeppelin/contracts/access/Ownable.sol\":2362:2368  _owner */\n      dup1\n      sload\n      sub(shl(0xa0, 0x01), 0x01)\n        /* \"@openzeppelin/contracts/access/Ownable.sol\":2378:2395  _owner = newOwner */\n      dup4\n      dup2\n      and\n      not(sub(shl(0xa0, 0x01), 0x01))\n      dup4\n      and\n      dup2\n      or\n      dup5\n      sstore\n        /* \"@openzeppelin/contracts/access/Ownable.sol\":2410:2450  OwnershipTransferred(oldOwner, newOwner) */\n      mload(0x40)\n        /* \"@openzeppelin/contracts/access/Ownable.sol\":2362:2368  _owner */\n      swap2\n      swap1\n      swap3\n      and\n      swap3\n      dup4\n      swap2\n        /* \"@openzeppelin/contracts/access/Ownable.sol\":2410:2450  OwnershipTransferred(oldOwner, newOwner) */\n      0x8be0079c531659141344cd1fd0a4f28419497f9722a3daafe3b4186f6b6457e0\n      swap2\n        /* \"@openzeppelin/contracts/access/Ownable.sol\":2343:2359  address oldOwner */\n      swap1\n        /* \"@openzeppelin/contracts/access/Ownable.sol\":2410:2450  OwnershipTransferred(oldOwner, newOwner) */\n      log3\n        /* \"@openzeppelin/contracts/access/Ownable.sol\":2333:2457  {... */\n      pop\n        /* \"@openzeppelin/contracts/access/Ownable.sol\":2270:2457  function _transferOwnership(address newOwner) internal virtual {... */\n      pop\n      jump\t// out\n        /* \"#utility.yul\":14:141   */\n    tag_63:\n        /* \"#utility.yul\":75:85   */\n      0x4e487b71\n        /* \"#utility.yul\":70:73   */\n      0xe0\n        /* \"#utility.yul\":66:86   */\n      shl\n        /* \"#utility.yul\":63:64   */\n      0x00\n        /* \"#utility.yul\":56:87   */\n      mstore\n        /* \"#utility.yul\":106:110   */\n      0x41\n        /* \"#utility.yul\":103:104   */\n      0x04\n        /* \"#utility.yul\":96:111   */\n      mstore\n        /* \"#utility.yul\":130:134   */\n      0x24\n        /* \"#utility.yul\":127:128   */\n      0x00\n        /* \"#utility.yul\":120:135   */\n      revert\n        /* \"#utility.yul\":146:319   */\n    tag_64:\n        /* \"#utility.yul\":214:234   */\n      dup1\n      calldataload\n      sub(shl(0xa0, 0x01), 0x01)\n        /* \"#utility.yul\":263:294   */\n      dup2\n      and\n        /* \"#utility.yul\":253:295   */\n      dup2\n      eq\n        /* \"#utility.yul\":243:313   */\n      tag_68\n      jumpi\n        /* \"#utility.yul\":309:310   */\n      0x00\n        /* \"#utility.yul\":306:307   */\n      dup1\n        /* \"#utility.yul\":299:311   */\n      revert\n        /* \"#utility.yul\":243:313   */\n    tag_68:\n        /* \"#utility.yul\":146:319   */\n      swap2\n      swap1\n      pop\n      jump\t// out\n        /* \"#utility.yul\":324:1515   */\n    tag_11:\n        /* \"#utility.yul\":417:423   */\n      0x00\n        /* \"#utility.yul\":425:431   */\n      dup1\n        /* \"#utility.yul\":478:480   */\n      0x40\n        /* \"#utility.yul\":466:475   */\n      dup4\n        /* \"#utility.yul\":457:464   */\n      dup6\n        /* \"#utility.yul\":453:476   */\n      sub\n        /* \"#utility.yul\":449:481   */\n      slt\n        /* \"#utility.yul\":446:498   */\n      iszero\n      tag_70\n      jumpi\n        /* \"#utility.yul\":494:495   */\n      0x00\n        /* \"#utility.yul\":491:492   */\n      dup1\n        /* \"#utility.yul\":484:496   */\n      revert\n        /* \"#utility.yul\":446:498   */\n    tag_70:\n        /* \"#utility.yul\":534:543   */\n      dup3\n        /* \"#utility.yul\":521:544   */\n      calldataload\n        /* \"#utility.yul\":563:581   */\n      0xffffffffffffffff\n        /* \"#utility.yul\":604:606   */\n      dup1\n        /* \"#utility.yul\":596:602   */\n      dup3\n        /* \"#utility.yul\":593:607   */\n      gt\n        /* \"#utility.yul\":590:624   */\n      iszero\n      tag_71\n      jumpi\n        /* \"#utility.yul\":620:621   */\n      0x00\n        /* \"#utility.yul\":617:618   */\n      dup1\n        /* \"#utility.yul\":610:622   */\n      revert\n        /* \"#utility.yul\":590:624   */\n    tag_71:\n        /* \"#utility.yul\":658:664   */\n      dup2\n        /* \"#utility.yul\":647:656   */\n      dup6\n        /* \"#utility.yul\":643:665   */\n      add\n        /* \"#utility.yul\":633:665   */\n      swap2\n      pop\n        /* \"#utility.yul\":703:710   */\n      dup6\n        /* \"#utility.yul\":696:700   */\n      0x1f\n        /* \"#utility.yul\":692:694   */\n      dup4\n        /* \"#utility.yul\":688:701   */\n      add\n        /* \"#utility.yul\":684:711   */\n      slt\n        /* \"#utility.yul\":674:729   */\n      tag_72\n      jumpi\n        /* \"#utility.yul\":725:726   */\n      0x00\n        /* \"#utility.yul\":722:723   */\n      dup1\n        /* \"#utility.yul\":715:727   */\n      revert\n        /* \"#utility.yul\":674:729   */\n    tag_72:\n        /* \"#utility.yul\":761:763   */\n      dup2\n        /* \"#utility.yul\":748:764   */\n      calldataload\n        /* \"#utility.yul\":783:787   */\n      0x20\n        /* \"#utility.yul\":806:808   */\n      dup3\n        /* \"#utility.yul\":802:804   */\n      dup3\n        /* \"#utility.yul\":799:809   */\n      gt\n        /* \"#utility.yul\":796:832   */\n      iszero\n      tag_74\n      jumpi\n        /* \"#utility.yul\":812:830   */\n      tag_74\n      tag_63\n      jump\t// in\n    tag_74:\n        /* \"#utility.yul\":858:860   */\n      dup2\n        /* \"#utility.yul\":855:856   */\n      0x05\n        /* \"#utility.yul\":851:861   */\n      shl\n        /* \"#utility.yul\":890:892   */\n      0x40\n        /* \"#utility.yul\":884:893   */\n      mload\n        /* \"#utility.yul\":953:955   */\n      0x1f\n        /* \"#utility.yul\":949:956   */\n      not\n        /* \"#utility.yul\":944:946   */\n      0x3f\n        /* \"#utility.yul\":940:942   */\n      dup4\n        /* \"#utility.yul\":936:947   */\n      add\n        /* \"#utility.yul\":932:957   */\n      and\n        /* \"#utility.yul\":924:930   */\n      dup2\n        /* \"#utility.yul\":920:958   */\n      add\n        /* \"#utility.yul\":1008:1014   */\n      dup2\n        /* \"#utility.yul\":996:1006   */\n      dup2\n        /* \"#utility.yul\":993:1015   */\n      lt\n        /* \"#utility.yul\":988:990   */\n      dup7\n        /* \"#utility.yul\":976:986   */\n      dup3\n        /* \"#utility.yul\":973:991   */\n      gt\n        /* \"#utility.yul\":970:1016   */\n      or\n        /* \"#utility.yul\":967:1039   */\n      iszero\n      tag_76\n      jumpi\n        /* \"#utility.yul\":1019:1037   */\n      tag_76\n      tag_63\n      jump\t// in\n    tag_76:\n        /* \"#utility.yul\":1055:1057   */\n      0x40\n        /* \"#utility.yul\":1048:1070   */\n      mstore\n        /* \"#utility.yul\":1105:1123   */\n      swap3\n      dup4\n      mstore\n        /* \"#utility.yul\":1139:1154   */\n      dup2\n      dup4\n      add\n      swap4\n      pop\n        /* \"#utility.yul\":1181:1192   */\n      dup5\n      dup2\n      add\n        /* \"#utility.yul\":1177:1197   */\n      dup3\n      add\n      swap3\n        /* \"#utility.yul\":1209:1228   */\n      dup10\n      dup5\n      gt\n        /* \"#utility.yul\":1206:1245   */\n      iszero\n      tag_77\n      jumpi\n        /* \"#utility.yul\":1241:1242   */\n      0x00\n        /* \"#utility.yul\":1238:1239   */\n      dup1\n        /* \"#utility.yul\":1231:1243   */\n      revert\n        /* \"#utility.yul\":1206:1245   */\n    tag_77:\n        /* \"#utility.yul\":1265:1276   */\n      swap5\n      dup3\n      add\n      swap5\n        /* \"#utility.yul\":1285:1427   */\n    tag_78:\n        /* \"#utility.yul\":1301:1307   */\n      dup4\n        /* \"#utility.yul\":1296:1299   */\n      dup7\n        /* \"#utility.yul\":1293:1308   */\n      lt\n        /* \"#utility.yul\":1285:1427   */\n      iszero\n      tag_80\n      jumpi\n        /* \"#utility.yul\":1367:1384   */\n      dup6\n      calldataload\n        /* \"#utility.yul\":1355:1385   */\n      dup6\n      mstore\n        /* \"#utility.yul\":1318:1330   */\n      swap5\n      dup3\n      add\n      swap5\n        /* \"#utility.yul\":1405:1417   */\n      swap4\n      dup3\n      add\n      swap4\n        /* \"#utility.yul\":1285:1427   */\n      jump(tag_78)\n    tag_80:\n        /* \"#utility.yul\":1446:1452   */\n      swap7\n      pop\n        /* \"#utility.yul\":1471:1509   */\n      tag_81\n      swap1\n      pop\n        /* \"#utility.yul\":1490:1508   */\n      dup8\n      dup3\n      add\n        /* \"#utility.yul\":1471:1509   */\n      tag_64\n      jump\t// in\n    tag_81:\n        /* \"#utility.yul\":1461:1509   */\n      swap5\n      pop\n      pop\n      pop\n      pop\n      pop\n        /* \"#utility.yul\":324:1515   */\n      swap3\n      pop\n      swap3\n      swap1\n      pop\n      jump\t// out\n        /* \"#utility.yul\":1894:2074   */\n    tag_23:\n        /* \"#utility.yul\":1953:1959   */\n      0x00\n        /* \"#utility.yul\":2006:2008   */\n      0x20\n        /* \"#utility.yul\":1994:2003   */\n      dup3\n        /* \"#utility.yul\":1985:1992   */\n      dup5\n        /* \"#utility.yul\":1981:2004   */\n      sub\n        /* \"#utility.yul\":1977:2009   */\n      slt\n        /* \"#utility.yul\":1974:2026   */\n      iszero\n      tag_85\n      jumpi\n        /* \"#utility.yul\":2022:2023   */\n      0x00\n        /* \"#utility.yul\":2019:2020   */\n      dup1\n        /* \"#utility.yul\":2012:2024   */\n      revert\n        /* \"#utility.yul\":1974:2026   */\n    tag_85:\n      pop\n        /* \"#utility.yul\":2045:2068   */\n      calldataload\n      swap2\n        /* \"#utility.yul\":1894:2074   */\n      swap1\n      pop\n      jump\t// out\n        /* \"#utility.yul\":2287:2473   */\n    tag_31:\n        /* \"#utility.yul\":2346:2352   */\n      0x00\n        /* \"#utility.yul\":2399:2401   */\n      0x20\n        /* \"#utility.yul\":2387:2396   */\n      dup3\n        /* \"#utility.yul\":2378:2385   */\n      dup5\n        /* \"#utility.yul\":2374:2397   */\n      sub\n        /* \"#utility.yul\":2370:2402   */\n      slt\n        /* \"#utility.yul\":2367:2419   */\n      iszero\n      tag_88\n      jumpi\n        /* \"#utility.yul\":2415:2416   */\n      0x00\n        /* \"#utility.yul\":2412:2413   */\n      dup1\n        /* \"#utility.yul\":2405:2417   */\n      revert\n        /* \"#utility.yul\":2367:2419   */\n    tag_88:\n        /* \"#utility.yul\":2438:2467   */\n      tag_89\n        /* \"#utility.yul\":2457:2466   */\n      dup3\n        /* \"#utility.yul\":2438:2467   */\n      tag_64\n      jump\t// in\n    tag_89:\n        /* \"#utility.yul\":2428:2467   */\n      swap4\n        /* \"#utility.yul\":2287:2473   */\n      swap3\n      pop\n      pop\n      pop\n      jump\t// out\n        /* \"#utility.yul\":2478:2834   */\n    tag_40:\n        /* \"#utility.yul\":2680:2682   */\n      0x20\n        /* \"#utility.yul\":2662:2683   */\n      dup1\n      dup3\n      mstore\n        /* \"#utility.yul\":2699:2717   */\n      dup2\n      dup2\n      add\n        /* \"#utility.yul\":2692:2722   */\n      mstore\n        /* \"#utility.yul\":2758:2792   */\n      0x4f776e61626c653a2063616c6c6572206973206e6f7420746865206f776e6572\n        /* \"#utility.yul\":2753:2755   */\n      0x40\n        /* \"#utility.yul\":2738:2756   */\n      dup3\n      add\n        /* \"#utility.yul\":2731:2793   */\n      mstore\n        /* \"#utility.yul\":2825:2827   */\n      0x60\n        /* \"#utility.yul\":2810:2828   */\n      add\n      swap1\n        /* \"#utility.yul\":2478:2834   */\n      jump\t// out\n\n    auxdata: 0xa26469706673582212209d9e74083021e0ba74862835bb522e11aeee61538de1c4c8990f694f3daebfdc64736f6c634300080d0033\n}\n",
				"bytecode": {
					"linkReferences": {},
					"object": "608060405234801561001057600080fd5b506040516104ab3803806104ab83398101604081905261002f9161008e565b6100383361003e565b506100a7565b600080546001600160a01b038381166001600160a01b0319831681178455604051919092169283917f8be0079c531659141344cd1fd0a4f28419497f9722a3daafe3b4186f6b6457e09190a35050565b6000602082840312156100a057600080fd5b5051919050565b6103f5806100b66000396000f3fe608060405234801561001057600080fd5b50600436106100625760003560e01c806318ff357e146100675780632eb4a7ab14610092578063715018a6146100a95780637cb64759146100b35780638da5cb5b146100c6578063f2fde38b146100e1575b600080fd5b61007d61007536600461027f565b600092915050565b60405190151581526020015b60405180910390f35b61009b60015481565b604051908152602001610089565b6100b16100f4565b005b6100b16100c136600461034f565b610133565b6000546040516001600160a01b039091168152602001610089565b6100b16100ef366004610368565b610162565b6000546001600160a01b031633146101275760405162461bcd60e51b815260040161011e9061038a565b60405180910390fd5b61013160006101fd565b565b6000546001600160a01b0316331461015d5760405162461bcd60e51b815260040161011e9061038a565b600155565b6000546001600160a01b0316331461018c5760405162461bcd60e51b815260040161011e9061038a565b6001600160a01b0381166101f15760405162461bcd60e51b815260206004820152602660248201527f4f776e61626c653a206e6577206f776e657220697320746865207a65726f206160448201526564647265737360d01b606482015260840161011e565b6101fa816101fd565b50565b600080546001600160a01b038381166001600160a01b0319831681178455604051919092169283917f8be0079c531659141344cd1fd0a4f28419497f9722a3daafe3b4186f6b6457e09190a35050565b634e487b7160e01b600052604160045260246000fd5b80356001600160a01b038116811461027a57600080fd5b919050565b6000806040838503121561029257600080fd5b823567ffffffffffffffff808211156102aa57600080fd5b818501915085601f8301126102be57600080fd5b81356020828211156102d2576102d261024d565b8160051b604051601f19603f830116810181811086821117156102f7576102f761024d565b60405292835281830193508481018201928984111561031557600080fd5b948201945b838610156103335785358552948201949382019361031a565b96506103429050878201610263565b9450505050509250929050565b60006020828403121561036157600080fd5b5035919050565b60006020828403121561037a57600080fd5b61038382610263565b9392505050565b6020808252818101527f4f776e61626c653a2063616c6c6572206973206e6f7420746865206f776e657260408201526060019056fea26469706673582212209d9e74083021e0ba74862835bb522e11aeee61538de1c4c8990f694f3daebfdc64736f6c634300080d0033",
					"opcodes": "PUSH1 0x80 PUSH1 0x40 MSTORE CALLVALUE DUP1 ISZERO PUSH2 0x10 JUMPI PUSH1 0x0 DUP1 REVERT JUMPDEST POP PUSH1 0x40 MLOAD PUSH2 0x4AB CODESIZE SUB DUP1 PUSH2 0x4AB DUP4 CODECOPY DUP2 ADD PUSH1 0x40 DUP2 SWAP1 MSTORE PUSH2 0x2F SWAP2 PUSH2 0x8E JUMP JUMPDEST PUSH2 0x38 CALLER PUSH2 0x3E JUMP JUMPDEST POP PUSH2 0xA7 JUMP JUMPDEST PUSH1 0x0 DUP1 SLOAD PUSH1 0x1 PUSH1 0x1 PUSH1 0xA0 SHL SUB DUP4 DUP2 AND PUSH1 0x1 PUSH1 0x1 PUSH1 0xA0 SHL SUB NOT DUP4 AND DUP2 OR DUP5 SSTORE PUSH1 0x40 MLOAD SWAP2 SWAP1 SWAP3 AND SWAP3 DUP4 SWAP2 PUSH32 0x8BE0079C531659141344CD1FD0A4F28419497F9722A3DAAFE3B4186F6B6457E0 SWAP2 SWAP1 LOG3 POP POP JUMP JUMPDEST PUSH1 0x0 PUSH1 0x20 DUP3 DUP5 SUB SLT ISZERO PUSH2 0xA0 JUMPI PUSH1 0x0 DUP1 REVERT JUMPDEST POP MLOAD SWAP2 SWAP1 POP JUMP JUMPDEST PUSH2 0x3F5 DUP1 PUSH2 0xB6 PUSH1 0x0 CODECOPY PUSH1 0x0 RETURN INVALID PUSH1 0x80 PUSH1 0x40 MSTORE CALLVALUE DUP1 ISZERO PUSH2 0x10 JUMPI PUSH1 0x0 DUP1 REVERT JUMPDEST POP PUSH1 0x4 CALLDATASIZE LT PUSH2 0x62 JUMPI PUSH1 0x0 CALLDATALOAD PUSH1 0xE0 SHR DUP1 PUSH4 0x18FF357E EQ PUSH2 0x67 JUMPI DUP1 PUSH4 0x2EB4A7AB EQ PUSH2 0x92 JUMPI DUP1 PUSH4 0x715018A6 EQ PUSH2 0xA9 JUMPI DUP1 PUSH4 0x7CB64759 EQ PUSH2 0xB3 JUMPI DUP1 PUSH4 0x8DA5CB5B EQ PUSH2 0xC6 JUMPI DUP1 PUSH4 0xF2FDE38B EQ PUSH2 0xE1 JUMPI JUMPDEST PUSH1 0x0 DUP1 REVERT JUMPDEST PUSH2 0x7D PUSH2 0x75 CALLDATASIZE PUSH1 0x4 PUSH2 0x27F JUMP JUMPDEST PUSH1 0x0 SWAP3 SWAP2 POP POP JUMP JUMPDEST PUSH1 0x40 MLOAD SWAP1 ISZERO ISZERO DUP2 MSTORE PUSH1 0x20 ADD JUMPDEST PUSH1 0x40 MLOAD DUP1 SWAP2 SUB SWAP1 RETURN JUMPDEST PUSH2 0x9B PUSH1 0x1 SLOAD DUP2 JUMP JUMPDEST PUSH1 0x40 MLOAD SWAP1 DUP2 MSTORE PUSH1 0x20 ADD PUSH2 0x89 JUMP JUMPDEST PUSH2 0xB1 PUSH2 0xF4 JUMP JUMPDEST STOP JUMPDEST PUSH2 0xB1 PUSH2 0xC1 CALLDATASIZE PUSH1 0x4 PUSH2 0x34F JUMP JUMPDEST PUSH2 0x133 JUMP JUMPDEST PUSH1 0x0 SLOAD PUSH1 0x40 MLOAD PUSH1 0x1 PUSH1 0x1 PUSH1 0xA0 SHL SUB SWAP1 SWAP2 AND DUP2 MSTORE PUSH1 0x20 ADD PUSH2 0x89 JUMP JUMPDEST PUSH2 0xB1 PUSH2 0xEF CALLDATASIZE PUSH1 0x4 PUSH2 0x368 JUMP JUMPDEST PUSH2 0x162 JUMP JUMPDEST PUSH1 0x0 SLOAD PUSH1 0x1 PUSH1 0x1 PUSH1 0xA0 SHL SUB AND CALLER EQ PUSH2 0x127 JUMPI PUSH1 0x40 MLOAD PUSH3 0x461BCD PUSH1 0xE5 SHL DUP2 MSTORE PUSH1 0x4 ADD PUSH2 0x11E SWAP1 PUSH2 0x38A JUMP JUMPDEST PUSH1 0x40 MLOAD DUP1 SWAP2 SUB SWAP1 REVERT JUMPDEST PUSH2 0x131 PUSH1 0x0 PUSH2 0x1FD JUMP JUMPDEST JUMP JUMPDEST PUSH1 0x0 SLOAD PUSH1 0x1 PUSH1 0x1 PUSH1 0xA0 SHL SUB AND CALLER EQ PUSH2 0x15D JUMPI PUSH1 0x40 MLOAD PUSH3 0x461BCD PUSH1 0xE5 SHL DUP2 MSTORE PUSH1 0x4 ADD PUSH2 0x11E SWAP1 PUSH2 0x38A JUMP JUMPDEST PUSH1 0x1 SSTORE JUMP JUMPDEST PUSH1 0x0 SLOAD PUSH1 0x1 PUSH1 0x1 PUSH1 0xA0 SHL SUB AND CALLER EQ PUSH2 0x18C JUMPI PUSH1 0x40 MLOAD PUSH3 0x461BCD PUSH1 0xE5 SHL DUP2 MSTORE PUSH1 0x4 ADD PUSH2 0x11E SWAP1 PUSH2 0x38A JUMP JUMPDEST PUSH1 0x1 PUSH1 0x1 PUSH1 0xA0 SHL SUB DUP2 AND PUSH2 0x1F1 JUMPI PUSH1 0x40 MLOAD PUSH3 0x461BCD PUSH1 0xE5 SHL DUP2 MSTORE PUSH1 0x20 PUSH1 0x4 DUP3 ADD MSTORE PUSH1 0x26 PUSH1 0x24 DUP3 ADD MSTORE PUSH32 0x4F776E61626C653A206E6577206F776E657220697320746865207A65726F2061 PUSH1 0x44 DUP3 ADD MSTORE PUSH6 0x646472657373 PUSH1 0xD0 SHL PUSH1 0x64 DUP3 ADD MSTORE PUSH1 0x84 ADD PUSH2 0x11E JUMP JUMPDEST PUSH2 0x1FA DUP2 PUSH2 0x1FD JUMP JUMPDEST POP JUMP JUMPDEST PUSH1 0x0 DUP1 SLOAD PUSH1 0x1 PUSH1 0x1 PUSH1 0xA0 SHL SUB DUP4 DUP2 AND PUSH1 0x1 PUSH1 0x1 PUSH1 0xA0 SHL SUB NOT DUP4 AND DUP2 OR DUP5 SSTORE PUSH1 0x40 MLOAD SWAP2 SWAP1 SWAP3 AND SWAP3 DUP4 SWAP2 PUSH32 0x8BE0079C531659141344CD1FD0A4F28419497F9722A3DAAFE3B4186F6B6457E0 SWAP2 SWAP1 LOG3 POP POP JUMP JUMPDEST PUSH4 0x4E487B71 PUSH1 0xE0 SHL PUSH1 0x0 MSTORE PUSH1 0x41 PUSH1 0x4 MSTORE PUSH1 0x24 PUSH1 0x0 REVERT JUMPDEST DUP1 CALLDATALOAD PUSH1 0x1 PUSH1 0x1 PUSH1 0xA0 SHL SUB DUP2 AND DUP2 EQ PUSH2 0x27A JUMPI PUSH1 0x0 DUP1 REVERT JUMPDEST SWAP2 SWAP1 POP JUMP JUMPDEST PUSH1 0x0 DUP1 PUSH1 0x40 DUP4 DUP6 SUB SLT ISZERO PUSH2 0x292 JUMPI PUSH1 0x0 DUP1 REVERT JUMPDEST DUP3 CALLDATALOAD PUSH8 0xFFFFFFFFFFFFFFFF DUP1 DUP3 GT ISZERO PUSH2 0x2AA JUMPI PUSH1 0x0 DUP1 REVERT JUMPDEST DUP2 DUP6 ADD SWAP2 POP DUP6 PUSH1 0x1F DUP4 ADD SLT PUSH2 0x2BE JUMPI PUSH1 0x0 DUP1 REVERT JUMPDEST DUP2 CALLDATALOAD PUSH1 0x20 DUP3 DUP3 GT ISZERO PUSH2 0x2D2 JUMPI PUSH2 0x2D2 PUSH2 0x24D JUMP JUMPDEST DUP2 PUSH1 0x5 SHL PUSH1 0x40 MLOAD PUSH1 0x1F NOT PUSH1 0x3F DUP4 ADD AND DUP2 ADD DUP2 DUP2 LT DUP7 DUP3 GT OR ISZERO PUSH2 0x2F7 JUMPI PUSH2 0x2F7 PUSH2 0x24D JUMP JUMPDEST PUSH1 0x40 MSTORE SWAP3 DUP4 MSTORE DUP2 DUP4 ADD SWAP4 POP DUP5 DUP2 ADD DUP3 ADD SWAP3 DUP10 DUP5 GT ISZERO PUSH2 0x315 JUMPI PUSH1 0x0 DUP1 REVERT JUMPDEST SWAP5 DUP3 ADD SWAP5 JUMPDEST DUP4 DUP7 LT ISZERO PUSH2 0x333 JUMPI DUP6 CALLDATALOAD DUP6 MSTORE SWAP5 DUP3 ADD SWAP5 SWAP4 DUP3 ADD SWAP4 PUSH2 0x31A JUMP JUMPDEST SWAP7 POP PUSH2 0x342 SWAP1 POP DUP8 DUP3 ADD PUSH2 0x263 JUMP JUMPDEST SWAP5 POP POP POP POP POP SWAP3 POP SWAP3 SWAP1 POP JUMP JUMPDEST PUSH1 0x0 PUSH1 0x20 DUP3 DUP5 SUB SLT ISZERO PUSH2 0x361 JUMPI PUSH1 0x0 DUP1 REVERT JUMPDEST POP CALLDATALOAD SWAP2 SWAP1 POP JUMP JUMPDEST PUSH1 0x0 PUSH1 0x20 DUP3 DUP5 SUB SLT ISZERO PUSH2 0x37A JUMPI PUSH1 0x0 DUP1 REVERT JUMPDEST PUSH2 0x383 DUP3 PUSH2 0x263 JUMP JUMPDEST SWAP4 SWAP3 POP POP POP JUMP JUMPDEST PUSH1 0x20 DUP1 DUP3 MSTORE DUP2 DUP2 ADD MSTORE PUSH32 0x4F776E61626C653A2063616C6C6572206973206E6F7420746865206F776E6572 PUSH1 0x40 DUP3 ADD MSTORE PUSH1 0x60 ADD SWAP1 JUMP INVALID LOG2 PUSH5 0x6970667358 0x22 SLT KECCAK256 SWAP14 SWAP15 PUSH21 0x83021E0BA74862835BB522E11AEEE61538DE1C4C8 SWAP10 0xF PUSH10 0x4F3DAEBFDC64736F6C63 NUMBER STOP ADDMOD 0xD STOP CALLER "
				},
				"gasEstimates": {
					"creation": {
						"codeDepositCost": "202600",
						"executionCost": "infinite",
						"totalCost": "infinite"
					},
					"external": {
						"merkleRoot()": "2295",
						"owner()": "2367",
						"renounceOwnership()": "28136",
						"setMerkleRoot(bytes32)": "24508",
						"transferOwnership(address)": "28397",
						"verifyWhitelist(bytes32[],address)": "infinite"
					}
				},
				"methodIdentifiers": {
					"merkleRoot()": "2eb4a7ab",
					"owner()": "8da5cb5b",
					"renounceOwnership()": "715018a6",
					"setMerkleRoot(bytes32)": "7cb64759",
					"transferOwnership(address)": "f2fde38b",
					"verifyWhitelist(bytes32[],address)": "18ff357e"
				}
			},
			"storageLayout": {
				"storage": [
					{
						"astId": 7,
						"contract": "contracts/HACHIWhitelist.sol:HachiWhitelist",
						"label": "_owner",
						"offset": 0,
						"slot": "0",
						"type": "t_address"
					},
					{
						"astId": 227,
						"contract": "contracts/HACHIWhitelist.sol:HachiWhitelist",
						"label": "merkleRoot",
						"offset": 0,
						"slot": "1",
						"type": "t_bytes32"
					}
				],
				"types": {
					"t_address": {
						"encoding": "inplace",
						"label": "address",
						"numberOfBytes": "20"
					},
					"t_bytes32": {
						"encoding": "inplace",
						"label": "bytes32",
						"numberOfBytes": "32"
					}
				}
			},
			"userdoc": {
				"kind": "user",
				"methods": {},
				"version": 1
			}
		}
	}
}