{
	"contracts/HACHIWallet.sol": {
		"HachiWallet": {
			"abi": [
				{
					"inputs": [
						{
							"internalType": "address[]",
							"name": "_address",
							"type": "address[]"
						},
						{
							"internalType": "uint256[]",
							"name": "_shares",
							"type": "uint256[]"
						}
					],
					"stateMutability": "payable",
					"type": "constructor"
				},
				{
					"anonymous": false,
					"inputs": [
						{
							"indexed": true,
							"internalType": "contract IERC20",
							"name": "token",
							"type": "address"
						},
						{
							"indexed": false,
							"internalType": "address",
							"name": "to",
							"type": "address"
						},
						{
							"indexed": false,
							"internalType": "uint256",
							"name": "amount",
							"type": "uint256"
						}
					],
					"name": "ERC20PaymentReleased",
					"type": "event"
				},
				{
					"anonymous": false,
					"inputs": [
						{
							"indexed": true,
							"internalType": "address",
							"name": "previousOwner",
							"type": "address"
						},
						{
							"indexed": true,
							"internalType": "address",
							"name": "newOwner",
							"type": "address"
						}
					],
					"name": "OwnershipTransferred",
					"type": "event"
				},
				{
					"anonymous": false,
					"inputs": [
						{
							"indexed": false,
							"internalType": "address",
							"name": "account",
							"type": "address"
						},
						{
							"indexed": false,
							"internalType": "uint256",
							"name": "shares",
							"type": "uint256"
						}
					],
					"name": "PayeeAdded",
					"type": "event"
				},
				{
					"anonymous": false,
					"inputs": [
						{
							"indexed": false,
							"internalType": "address",
							"name": "from",
							"type": "address"
						},
						{
							"indexed": false,
							"internalType": "uint256",
							"name": "amount",
							"type": "uint256"
						}
					],
					"name": "PaymentReceived",
					"type": "event"
				},
				{
					"anonymous": false,
					"inputs": [
						{
							"indexed": false,
							"internalType": "address",
							"name": "to",
							"type": "address"
						},
						{
							"indexed": false,
							"internalType": "uint256",
							"name": "amount",
							"type": "uint256"
						}
					],
					"name": "PaymentReleased",
					"type": "event"
				},
				{
					"inputs": [],
					"name": "easyRelease",
					"outputs": [],
					"stateMutability": "nonpayable",
					"type": "function"
				},
				{
					"inputs": [],
					"name": "owner",
					"outputs": [
						{
							"internalType": "address",
							"name": "",
							"type": "address"
						}
					],
					"stateMutability": "view",
					"type": "function"
				},
				{
					"inputs": [
						{
							"internalType": "uint256",
							"name": "index",
							"type": "uint256"
						}
					],
					"name": "payee",
					"outputs": [
						{
							"internalType": "address",
							"name": "",
							"type": "address"
						}
					],
					"stateMutability": "view",
					"type": "function"
				},
				{
					"inputs": [
						{
							"internalType": "address payable",
							"name": "account",
							"type": "address"
						}
					],
					"name": "release",
					"outputs": [],
					"stateMutability": "nonpayable",
					"type": "function"
				},
				{
					"inputs": [
						{
							"internalType": "contract IERC20",
							"name": "token",
							"type": "address"
						},
						{
							"internalType": "address",
							"name": "account",
							"type": "address"
						}
					],
					"name": "release",
					"outputs": [],
					"stateMutability": "nonpayable",
					"type": "function"
				},
				{
					"inputs": [
						{
							"internalType": "contract IERC20",
							"name": "token",
							"type": "address"
						},
						{
							"internalType": "address",
							"name": "account",
							"type": "address"
						}
					],
					"name": "released",
					"outputs": [
						{
							"internalType": "uint256",
							"name": "",
							"type": "uint256"
						}
					],
					"stateMutability": "view",
					"type": "function"
				},
				{
					"inputs": [
						{
							"internalType": "address",
							"name": "account",
							"type": "address"
						}
					],
					"name": "released",
					"outputs": [
						{
							"internalType": "uint256",
							"name": "",
							"type": "uint256"
						}
					],
					"stateMutability": "view",
					"type": "function"
				},
				{
					"inputs": [],
					"name": "renounceOwnership",
					"outputs": [],
					"stateMutability": "nonpayable",
					"type": "function"
				},
				{
					"inputs": [
						{
							"internalType": "address",
							"name": "account",
							"type": "address"
						}
					],
					"name": "shares",
					"outputs": [
						{
							"internalType": "uint256",
							"name": "",
							"type": "uint256"
						}
					],
					"stateMutability": "view",
					"type": "function"
				},
				{
					"inputs": [
						{
							"internalType": "contract IERC20",
							"name": "token",
							"type": "address"
						}
					],
					"name": "totalReleased",
					"outputs": [
						{
							"internalType": "uint256",
							"name": "",
							"type": "uint256"
						}
					],
					"stateMutability": "view",
					"type": "function"
				},
				{
					"inputs": [],
					"name": "totalReleased",
					"outputs": [
						{
							"internalType": "uint256",
							"name": "",
							"type": "uint256"
						}
					],
					"stateMutability": "view",
					"type": "function"
				},
				{
					"inputs": [],
					"name": "totalShares",
					"outputs": [
						{
							"internalType": "uint256",
							"name": "",
							"type": "uint256"
						}
					],
					"stateMutability": "view",
					"type": "function"
				},
				{
					"inputs": [
						{
							"internalType": "address",
							"name": "newOwner",
							"type": "address"
						}
					],
					"name": "transferOwnership",
					"outputs": [],
					"stateMutability": "nonpayable",
					"type": "function"
				},
				{
					"inputs": [],
					"name": "viewBalanceOwed",
					"outputs": [],
					"stateMutability": "view",
					"type": "function"
				},
				{
					"stateMutability": "payable",
					"type": "receive"
				}
			],
			"devdoc": {
				"kind": "dev",
				"methods": {
					"owner()": {
						"details": "Returns the address of the current owner."
					},
					"payee(uint256)": {
						"details": "Getter for the address of the payee number `index`."
					},
					"release(address)": {
						"details": "Triggers a transfer to `account` of the amount of Ether they are owed, according to their percentage of the total shares and their previous withdrawals."
					},
					"release(address,address)": {
						"details": "Triggers a transfer to `account` of the amount of `token` tokens they are owed, according to their percentage of the total shares and their previous withdrawals. `token` must be the address of an IERC20 contract."
					},
					"released(address)": {
						"details": "Getter for the amount of Ether already released to a payee."
					},
					"released(address,address)": {
						"details": "Getter for the amount of `token` tokens already released to a payee. `token` should be the address of an IERC20 contract."
					},
					"renounceOwnership()": {
						"details": "Leaves the contract without owner. It will not be possible to call `onlyOwner` functions anymore. Can only be called by the current owner. NOTE: Renouncing ownership will leave the contract without an owner, thereby removing any functionality that is only available to the owner."
					},
					"shares(address)": {
						"details": "Getter for the amount of shares held by an account."
					},
					"totalReleased()": {
						"details": "Getter for the total amount of Ether already released."
					},
					"totalReleased(address)": {
						"details": "Getter for the total amount of `token` already released. `token` should be the address of an IERC20 contract."
					},
					"totalShares()": {
						"details": "Getter for the total shares held by payees."
					},
					"transferOwnership(address)": {
						"details": "Transfers ownership of the contract to a new account (`newOwner`). Can only be called by the current owner."
					}
				},
				"version": 1
			},
			"evm": {
				"assembly": "    /* \"contracts/HACHIWallet.sol\":175:1083  contract HachiWallet is PaymentSplitter, Ownable {... */\n  mstore(0x40, 0x80)\n    /* \"contracts/HACHIWallet.sol\":231:373  constructor(... */\n  mload(0x40)\n  sub(codesize, bytecodeSize)\n  dup1\n  bytecodeSize\n  dup4\n  codecopy\n  dup2\n  dup2\n  add\n  0x40\n  mstore\n  dup2\n  add\n  swap1\n  tag_1\n  swap2\n  swap1\n  tag_2\n  jump\t// in\ntag_1:\n    /* \"contracts/HACHIWallet.sol\":347:355  _address */\n  dup2\n    /* \"contracts/HACHIWallet.sol\":357:364  _shares */\n  dup2\n    /* \"@openzeppelin/contracts/finance/PaymentSplitter.sol\":2434:2441  shares_ */\n  dup1\n    /* \"@openzeppelin/contracts/finance/PaymentSplitter.sol\":2434:2448  shares_.length */\n  mload\n    /* \"@openzeppelin/contracts/finance/PaymentSplitter.sol\":2417:2423  payees */\n  dup3\n    /* \"@openzeppelin/contracts/finance/PaymentSplitter.sol\":2417:2430  payees.length */\n  mload\n    /* \"@openzeppelin/contracts/finance/PaymentSplitter.sol\":2417:2448  payees.length == shares_.length */\n  eq\n    /* \"@openzeppelin/contracts/finance/PaymentSplitter.sol\":2409:2503  require(payees.length == shares_.length, \"PaymentSplitter: payees and shares length mismatch\") */\n  tag_7\n  jumpi\n  mload(0x40)\n  0x08c379a000000000000000000000000000000000000000000000000000000000\n  dup2\n  mstore\n  0x04\n  add\n  tag_8\n  swap1\n  tag_9\n  jump\t// in\ntag_8:\n  mload(0x40)\n  dup1\n  swap2\n  sub\n  swap1\n  revert\ntag_7:\n    /* \"@openzeppelin/contracts/finance/PaymentSplitter.sol\":2537:2538  0 */\n  0x00\n    /* \"@openzeppelin/contracts/finance/PaymentSplitter.sol\":2521:2527  payees */\n  dup3\n    /* \"@openzeppelin/contracts/finance/PaymentSplitter.sol\":2521:2534  payees.length */\n  mload\n    /* \"@openzeppelin/contracts/finance/PaymentSplitter.sol\":2521:2538  payees.length > 0 */\n  gt\n    /* \"@openzeppelin/contracts/finance/PaymentSplitter.sol\":2513:2569  require(payees.length > 0, \"PaymentSplitter: no payees\") */\n  tag_10\n  jumpi\n  mload(0x40)\n  0x08c379a000000000000000000000000000000000000000000000000000000000\n  dup2\n  mstore\n  0x04\n  add\n  tag_11\n  swap1\n  tag_12\n  jump\t// in\ntag_11:\n  mload(0x40)\n  dup1\n  swap2\n  sub\n  swap1\n  revert\ntag_10:\n    /* \"@openzeppelin/contracts/finance/PaymentSplitter.sol\":2585:2594  uint256 i */\n  0x00\n    /* \"@openzeppelin/contracts/finance/PaymentSplitter.sol\":2580:2681  for (uint256 i = 0; i < payees.length; i++) {... */\ntag_13:\n    /* \"@openzeppelin/contracts/finance/PaymentSplitter.sol\":2604:2610  payees */\n  dup3\n    /* \"@openzeppelin/contracts/finance/PaymentSplitter.sol\":2604:2617  payees.length */\n  mload\n    /* \"@openzeppelin/contracts/finance/PaymentSplitter.sol\":2600:2601  i */\n  dup2\n    /* \"@openzeppelin/contracts/finance/PaymentSplitter.sol\":2600:2617  i < payees.length */\n  lt\n    /* \"@openzeppelin/contracts/finance/PaymentSplitter.sol\":2580:2681  for (uint256 i = 0; i < payees.length; i++) {... */\n  iszero\n  tag_14\n  jumpi\n    /* \"@openzeppelin/contracts/finance/PaymentSplitter.sol\":2638:2670  _addPayee(payees[i], shares_[i]) */\n  tag_16\n    /* \"@openzeppelin/contracts/finance/PaymentSplitter.sol\":2648:2654  payees */\n  dup4\n    /* \"@openzeppelin/contracts/finance/PaymentSplitter.sol\":2655:2656  i */\n  dup3\n    /* \"@openzeppelin/contracts/finance/PaymentSplitter.sol\":2648:2657  payees[i] */\n  dup2\n  mload\n  dup2\n  lt\n  tag_17\n  jumpi\n  tag_18\n  tag_19\n  jump\t// in\ntag_18:\ntag_17:\n  0x20\n  mul\n  0x20\n  add\n  add\n  mload\n    /* \"@openzeppelin/contracts/finance/PaymentSplitter.sol\":2659:2666  shares_ */\n  dup4\n    /* \"@openzeppelin/contracts/finance/PaymentSplitter.sol\":2667:2668  i */\n  dup4\n    /* \"@openzeppelin/contracts/finance/PaymentSplitter.sol\":2659:2669  shares_[i] */\n  dup2\n  mload\n  dup2\n  lt\n  tag_20\n  jumpi\n  tag_21\n  tag_19\n  jump\t// in\ntag_21:\ntag_20:\n  0x20\n  mul\n  0x20\n  add\n  add\n  mload\n    /* \"@openzeppelin/contracts/finance/PaymentSplitter.sol\":2638:2647  _addPayee */\n  shl(0x20, tag_22)\n    /* \"@openzeppelin/contracts/finance/PaymentSplitter.sol\":2638:2670  _addPayee(payees[i], shares_[i]) */\n  0x20\n  shr\n  jump\t// in\ntag_16:\n    /* \"@openzeppelin/contracts/finance/PaymentSplitter.sol\":2619:2622  i++ */\n  dup1\n  dup1\n  tag_23\n  swap1\n  tag_24\n  jump\t// in\ntag_23:\n  swap2\n  pop\n  pop\n    /* \"@openzeppelin/contracts/finance/PaymentSplitter.sol\":2580:2681  for (uint256 i = 0; i < payees.length; i++) {... */\n  jump(tag_13)\ntag_14:\n  pop\n    /* \"@openzeppelin/contracts/finance/PaymentSplitter.sol\":2328:2687  constructor(address[] memory payees, uint256[] memory shares_) payable {... */\n  pop\n  pop\n    /* \"@openzeppelin/contracts/access/Ownable.sol\":921:953  _transferOwnership(_msgSender()) */\n  tag_26\n    /* \"@openzeppelin/contracts/access/Ownable.sol\":940:952  _msgSender() */\n  tag_27\n    /* \"@openzeppelin/contracts/access/Ownable.sol\":940:950  _msgSender */\n  shl(0x20, tag_28)\n    /* \"@openzeppelin/contracts/access/Ownable.sol\":940:952  _msgSender() */\n  0x20\n  shr\n  jump\t// in\ntag_27:\n    /* \"@openzeppelin/contracts/access/Ownable.sol\":921:939  _transferOwnership */\n  shl(0x20, tag_29)\n    /* \"@openzeppelin/contracts/access/Ownable.sol\":921:953  _transferOwnership(_msgSender()) */\n  0x20\n  shr\n  jump\t// in\ntag_26:\n    /* \"contracts/HACHIWallet.sol\":231:373  constructor(... */\n  pop\n  pop\n    /* \"contracts/HACHIWallet.sol\":175:1083  contract HachiWallet is PaymentSplitter, Ownable {... */\n  jump(tag_31)\n    /* \"@openzeppelin/contracts/finance/PaymentSplitter.sol\":7018:7482  function _addPayee(address account, uint256 shares_) private {... */\ntag_22:\n    /* \"@openzeppelin/contracts/finance/PaymentSplitter.sol\":7116:7117  0 */\n  0x00\n    /* \"@openzeppelin/contracts/finance/PaymentSplitter.sol\":7097:7118  account != address(0) */\n  0xffffffffffffffffffffffffffffffffffffffff\n  and\n    /* \"@openzeppelin/contracts/finance/PaymentSplitter.sol\":7097:7104  account */\n  dup3\n    /* \"@openzeppelin/contracts/finance/PaymentSplitter.sol\":7097:7118  account != address(0) */\n  0xffffffffffffffffffffffffffffffffffffffff\n  and\n  sub\n    /* \"@openzeppelin/contracts/finance/PaymentSplitter.sol\":7089:7167  require(account != address(0), \"PaymentSplitter: account is the zero address\") */\n  tag_33\n  jumpi\n  mload(0x40)\n  0x08c379a000000000000000000000000000000000000000000000000000000000\n  dup2\n  mstore\n  0x04\n  add\n  tag_34\n  swap1\n  tag_35\n  jump\t// in\ntag_34:\n  mload(0x40)\n  dup1\n  swap2\n  sub\n  swap1\n  revert\ntag_33:\n    /* \"@openzeppelin/contracts/finance/PaymentSplitter.sol\":7195:7196  0 */\n  0x00\n    /* \"@openzeppelin/contracts/finance/PaymentSplitter.sol\":7185:7192  shares_ */\n  dup2\n    /* \"@openzeppelin/contracts/finance/PaymentSplitter.sol\":7185:7196  shares_ > 0 */\n  gt\n    /* \"@openzeppelin/contracts/finance/PaymentSplitter.sol\":7177:7230  require(shares_ > 0, \"PaymentSplitter: shares are 0\") */\n  tag_36\n  jumpi\n  mload(0x40)\n  0x08c379a000000000000000000000000000000000000000000000000000000000\n  dup2\n  mstore\n  0x04\n  add\n  tag_37\n  swap1\n  tag_38\n  jump\t// in\ntag_37:\n  mload(0x40)\n  dup1\n  swap2\n  sub\n  swap1\n  revert\ntag_36:\n    /* \"@openzeppelin/contracts/finance/PaymentSplitter.sol\":7268:7269  0 */\n  0x00\n    /* \"@openzeppelin/contracts/finance/PaymentSplitter.sol\":7248:7255  _shares */\n  0x02\n    /* \"@openzeppelin/contracts/finance/PaymentSplitter.sol\":7248:7264  _shares[account] */\n  0x00\n    /* \"@openzeppelin/contracts/finance/PaymentSplitter.sol\":7256:7263  account */\n  dup5\n    /* \"@openzeppelin/contracts/finance/PaymentSplitter.sol\":7248:7264  _shares[account] */\n  0xffffffffffffffffffffffffffffffffffffffff\n  and\n  0xffffffffffffffffffffffffffffffffffffffff\n  and\n  dup2\n  mstore\n  0x20\n  add\n  swap1\n  dup2\n  mstore\n  0x20\n  add\n  0x00\n  keccak256\n  sload\n    /* \"@openzeppelin/contracts/finance/PaymentSplitter.sol\":7248:7269  _shares[account] == 0 */\n  eq\n    /* \"@openzeppelin/contracts/finance/PaymentSplitter.sol\":7240:7317  require(_shares[account] == 0, \"PaymentSplitter: account already has shares\") */\n  tag_39\n  jumpi\n  mload(0x40)\n  0x08c379a000000000000000000000000000000000000000000000000000000000\n  dup2\n  mstore\n  0x04\n  add\n  tag_40\n  swap1\n  tag_41\n  jump\t// in\ntag_40:\n  mload(0x40)\n  dup1\n  swap2\n  sub\n  swap1\n  revert\ntag_39:\n    /* \"@openzeppelin/contracts/finance/PaymentSplitter.sol\":7328:7335  _payees */\n  0x04\n    /* \"@openzeppelin/contracts/finance/PaymentSplitter.sol\":7341:7348  account */\n  dup3\n    /* \"@openzeppelin/contracts/finance/PaymentSplitter.sol\":7328:7349  _payees.push(account) */\n  swap1\n  dup1\n  0x01\n  dup2\n  sload\n  add\n  dup1\n  dup3\n  sstore\n  dup1\n  swap2\n  pop\n  pop\n  0x01\n  swap1\n  sub\n  swap1\n  0x00\n  mstore\n  keccak256(0x00, 0x20)\n  add\n  0x00\n  swap1\n  swap2\n  swap1\n  swap2\n  swap1\n  swap2\n  0x0100\n  exp\n  dup2\n  sload\n  dup2\n  0xffffffffffffffffffffffffffffffffffffffff\n  mul\n  not\n  and\n  swap1\n  dup4\n  0xffffffffffffffffffffffffffffffffffffffff\n  and\n  mul\n  or\n  swap1\n  sstore\n  pop\n    /* \"@openzeppelin/contracts/finance/PaymentSplitter.sol\":7378:7385  shares_ */\n  dup1\n    /* \"@openzeppelin/contracts/finance/PaymentSplitter.sol\":7359:7366  _shares */\n  0x02\n    /* \"@openzeppelin/contracts/finance/PaymentSplitter.sol\":7359:7375  _shares[account] */\n  0x00\n    /* \"@openzeppelin/contracts/finance/PaymentSplitter.sol\":7367:7374  account */\n  dup5\n    /* \"@openzeppelin/contracts/finance/PaymentSplitter.sol\":7359:7375  _shares[account] */\n  0xffffffffffffffffffffffffffffffffffffffff\n  and\n  0xffffffffffffffffffffffffffffffffffffffff\n  and\n  dup2\n  mstore\n  0x20\n  add\n  swap1\n  dup2\n  mstore\n  0x20\n  add\n  0x00\n  keccak256\n    /* \"@openzeppelin/contracts/finance/PaymentSplitter.sol\":7359:7385  _shares[account] = shares_ */\n  dup2\n  swap1\n  sstore\n  pop\n    /* \"@openzeppelin/contracts/finance/PaymentSplitter.sol\":7425:7432  shares_ */\n  dup1\n    /* \"@openzeppelin/contracts/finance/PaymentSplitter.sol\":7410:7422  _totalShares */\n  sload(0x00)\n    /* \"@openzeppelin/contracts/finance/PaymentSplitter.sol\":7410:7432  _totalShares + shares_ */\n  tag_43\n  swap2\n  swap1\n  tag_44\n  jump\t// in\ntag_43:\n    /* \"@openzeppelin/contracts/finance/PaymentSplitter.sol\":7395:7407  _totalShares */\n  0x00\n    /* \"@openzeppelin/contracts/finance/PaymentSplitter.sol\":7395:7432  _totalShares = _totalShares + shares_ */\n  dup2\n  swap1\n  sstore\n  pop\n    /* \"@openzeppelin/contracts/finance/PaymentSplitter.sol\":7447:7475  PayeeAdded(account, shares_) */\n  0x40c340f65e17194d14ddddb073d3c9f888e3cb52b5aae0c6c7706b4fbc905fac\n    /* \"@openzeppelin/contracts/finance/PaymentSplitter.sol\":7458:7465  account */\n  dup3\n    /* \"@openzeppelin/contracts/finance/PaymentSplitter.sol\":7467:7474  shares_ */\n  dup3\n    /* \"@openzeppelin/contracts/finance/PaymentSplitter.sol\":7447:7475  PayeeAdded(account, shares_) */\n  mload(0x40)\n  tag_45\n  swap3\n  swap2\n  swap1\n  tag_46\n  jump\t// in\ntag_45:\n  mload(0x40)\n  dup1\n  swap2\n  sub\n  swap1\n  log1\n    /* \"@openzeppelin/contracts/finance/PaymentSplitter.sol\":7018:7482  function _addPayee(address account, uint256 shares_) private {... */\n  pop\n  pop\n  jump\t// out\n    /* \"@openzeppelin/contracts/utils/Context.sol\":640:736  function _msgSender() internal view virtual returns (address) {... */\ntag_28:\n    /* \"@openzeppelin/contracts/utils/Context.sol\":693:700  address */\n  0x00\n    /* \"@openzeppelin/contracts/utils/Context.sol\":719:729  msg.sender */\n  caller\n    /* \"@openzeppelin/contracts/utils/Context.sol\":712:729  return msg.sender */\n  swap1\n  pop\n    /* \"@openzeppelin/contracts/utils/Context.sol\":640:736  function _msgSender() internal view virtual returns (address) {... */\n  swap1\n  jump\t// out\n    /* \"@openzeppelin/contracts/access/Ownable.sol\":2270:2457  function _transferOwnership(address newOwner) internal virtual {... */\ntag_29:\n    /* \"@openzeppelin/contracts/access/Ownable.sol\":2343:2359  address oldOwner */\n  0x00\n    /* \"@openzeppelin/contracts/access/Ownable.sol\":2362:2368  _owner */\n  0x07\n  0x00\n  swap1\n  sload\n  swap1\n  0x0100\n  exp\n  swap1\n  div\n  0xffffffffffffffffffffffffffffffffffffffff\n  and\n    /* \"@openzeppelin/contracts/access/Ownable.sol\":2343:2368  address oldOwner = _owner */\n  swap1\n  pop\n    /* \"@openzeppelin/contracts/access/Ownable.sol\":2387:2395  newOwner */\n  dup2\n    /* \"@openzeppelin/contracts/access/Ownable.sol\":2378:2384  _owner */\n  0x07\n  0x00\n    /* \"@openzeppelin/contracts/access/Ownable.sol\":2378:2395  _owner = newOwner */\n  0x0100\n  exp\n  dup2\n  sload\n  dup2\n  0xffffffffffffffffffffffffffffffffffffffff\n  mul\n  not\n  and\n  swap1\n  dup4\n  0xffffffffffffffffffffffffffffffffffffffff\n  and\n  mul\n  or\n  swap1\n  sstore\n  pop\n    /* \"@openzeppelin/contracts/access/Ownable.sol\":2441:2449  newOwner */\n  dup2\n    /* \"@openzeppelin/contracts/access/Ownable.sol\":2410:2450  OwnershipTransferred(oldOwner, newOwner) */\n  0xffffffffffffffffffffffffffffffffffffffff\n  and\n    /* \"@openzeppelin/contracts/access/Ownable.sol\":2431:2439  oldOwner */\n  dup2\n    /* \"@openzeppelin/contracts/access/Ownable.sol\":2410:2450  OwnershipTransferred(oldOwner, newOwner) */\n  0xffffffffffffffffffffffffffffffffffffffff\n  and\n  0x8be0079c531659141344cd1fd0a4f28419497f9722a3daafe3b4186f6b6457e0\n  mload(0x40)\n  mload(0x40)\n  dup1\n  swap2\n  sub\n  swap1\n  log3\n    /* \"@openzeppelin/contracts/access/Ownable.sol\":2333:2457  {... */\n  pop\n    /* \"@openzeppelin/contracts/access/Ownable.sol\":2270:2457  function _transferOwnership(address newOwner) internal virtual {... */\n  pop\n  jump\t// out\n    /* \"#utility.yul\":7:82   */\ntag_49:\n    /* \"#utility.yul\":40:46   */\n  0x00\n    /* \"#utility.yul\":73:75   */\n  0x40\n    /* \"#utility.yul\":67:76   */\n  mload\n    /* \"#utility.yul\":57:76   */\n  swap1\n  pop\n    /* \"#utility.yul\":7:82   */\n  swap1\n  jump\t// out\n    /* \"#utility.yul\":88:205   */\ntag_50:\n    /* \"#utility.yul\":197:198   */\n  0x00\n    /* \"#utility.yul\":194:195   */\n  dup1\n    /* \"#utility.yul\":187:199   */\n  revert\n    /* \"#utility.yul\":211:328   */\ntag_51:\n    /* \"#utility.yul\":320:321   */\n  0x00\n    /* \"#utility.yul\":317:318   */\n  dup1\n    /* \"#utility.yul\":310:322   */\n  revert\n    /* \"#utility.yul\":334:451   */\ntag_52:\n    /* \"#utility.yul\":443:444   */\n  0x00\n    /* \"#utility.yul\":440:441   */\n  dup1\n    /* \"#utility.yul\":433:445   */\n  revert\n    /* \"#utility.yul\":457:559   */\ntag_53:\n    /* \"#utility.yul\":498:504   */\n  0x00\n    /* \"#utility.yul\":549:551   */\n  0x1f\n    /* \"#utility.yul\":545:552   */\n  not\n    /* \"#utility.yul\":540:542   */\n  0x1f\n    /* \"#utility.yul\":533:538   */\n  dup4\n    /* \"#utility.yul\":529:543   */\n  add\n    /* \"#utility.yul\":525:553   */\n  and\n    /* \"#utility.yul\":515:553   */\n  swap1\n  pop\n    /* \"#utility.yul\":457:559   */\n  swap2\n  swap1\n  pop\n  jump\t// out\n    /* \"#utility.yul\":565:745   */\ntag_54:\n    /* \"#utility.yul\":613:690   */\n  0x4e487b7100000000000000000000000000000000000000000000000000000000\n    /* \"#utility.yul\":610:611   */\n  0x00\n    /* \"#utility.yul\":603:691   */\n  mstore\n    /* \"#utility.yul\":710:714   */\n  0x41\n    /* \"#utility.yul\":707:708   */\n  0x04\n    /* \"#utility.yul\":700:715   */\n  mstore\n    /* \"#utility.yul\":734:738   */\n  0x24\n    /* \"#utility.yul\":731:732   */\n  0x00\n    /* \"#utility.yul\":724:739   */\n  revert\n    /* \"#utility.yul\":751:1032   */\ntag_55:\n    /* \"#utility.yul\":834:861   */\n  tag_93\n    /* \"#utility.yul\":856:860   */\n  dup3\n    /* \"#utility.yul\":834:861   */\n  tag_53\n  jump\t// in\ntag_93:\n    /* \"#utility.yul\":826:832   */\n  dup2\n    /* \"#utility.yul\":822:862   */\n  add\n    /* \"#utility.yul\":964:970   */\n  dup2\n    /* \"#utility.yul\":952:962   */\n  dup2\n    /* \"#utility.yul\":949:971   */\n  lt\n    /* \"#utility.yul\":928:946   */\n  0xffffffffffffffff\n    /* \"#utility.yul\":916:926   */\n  dup3\n    /* \"#utility.yul\":913:947   */\n  gt\n    /* \"#utility.yul\":910:972   */\n  or\n    /* \"#utility.yul\":907:995   */\n  iszero\n  tag_94\n  jumpi\n    /* \"#utility.yul\":975:993   */\n  tag_95\n  tag_54\n  jump\t// in\ntag_95:\n    /* \"#utility.yul\":907:995   */\ntag_94:\n    /* \"#utility.yul\":1015:1025   */\n  dup1\n    /* \"#utility.yul\":1011:1013   */\n  0x40\n    /* \"#utility.yul\":1004:1026   */\n  mstore\n    /* \"#utility.yul\":794:1032   */\n  pop\n    /* \"#utility.yul\":751:1032   */\n  pop\n  pop\n  jump\t// out\n    /* \"#utility.yul\":1038:1167   */\ntag_56:\n    /* \"#utility.yul\":1072:1078   */\n  0x00\n    /* \"#utility.yul\":1099:1119   */\n  tag_97\n  tag_49\n  jump\t// in\ntag_97:\n    /* \"#utility.yul\":1089:1119   */\n  swap1\n  pop\n    /* \"#utility.yul\":1128:1161   */\n  tag_98\n    /* \"#utility.yul\":1156:1160   */\n  dup3\n    /* \"#utility.yul\":1148:1154   */\n  dup3\n    /* \"#utility.yul\":1128:1161   */\n  tag_55\n  jump\t// in\ntag_98:\n    /* \"#utility.yul\":1038:1167   */\n  swap2\n  swap1\n  pop\n  jump\t// out\n    /* \"#utility.yul\":1173:1484   */\ntag_57:\n    /* \"#utility.yul\":1250:1254   */\n  0x00\n    /* \"#utility.yul\":1340:1358   */\n  0xffffffffffffffff\n    /* \"#utility.yul\":1332:1338   */\n  dup3\n    /* \"#utility.yul\":1329:1359   */\n  gt\n    /* \"#utility.yul\":1326:1382   */\n  iszero\n  tag_100\n  jumpi\n    /* \"#utility.yul\":1362:1380   */\n  tag_101\n  tag_54\n  jump\t// in\ntag_101:\n    /* \"#utility.yul\":1326:1382   */\ntag_100:\n    /* \"#utility.yul\":1412:1416   */\n  0x20\n    /* \"#utility.yul\":1404:1410   */\n  dup3\n    /* \"#utility.yul\":1400:1417   */\n  mul\n    /* \"#utility.yul\":1392:1417   */\n  swap1\n  pop\n    /* \"#utility.yul\":1472:1476   */\n  0x20\n    /* \"#utility.yul\":1466:1470   */\n  dup2\n    /* \"#utility.yul\":1462:1477   */\n  add\n    /* \"#utility.yul\":1454:1477   */\n  swap1\n  pop\n    /* \"#utility.yul\":1173:1484   */\n  swap2\n  swap1\n  pop\n  jump\t// out\n    /* \"#utility.yul\":1490:1607   */\ntag_58:\n    /* \"#utility.yul\":1599:1600   */\n  0x00\n    /* \"#utility.yul\":1596:1597   */\n  dup1\n    /* \"#utility.yul\":1589:1601   */\n  revert\n    /* \"#utility.yul\":1613:1739   */\ntag_59:\n    /* \"#utility.yul\":1650:1657   */\n  0x00\n    /* \"#utility.yul\":1690:1732   */\n  0xffffffffffffffffffffffffffffffffffffffff\n    /* \"#utility.yul\":1683:1688   */\n  dup3\n    /* \"#utility.yul\":1679:1733   */\n  and\n    /* \"#utility.yul\":1668:1733   */\n  swap1\n  pop\n    /* \"#utility.yul\":1613:1739   */\n  swap2\n  swap1\n  pop\n  jump\t// out\n    /* \"#utility.yul\":1745:1841   */\ntag_60:\n    /* \"#utility.yul\":1782:1789   */\n  0x00\n    /* \"#utility.yul\":1811:1835   */\n  tag_105\n    /* \"#utility.yul\":1829:1834   */\n  dup3\n    /* \"#utility.yul\":1811:1835   */\n  tag_59\n  jump\t// in\ntag_105:\n    /* \"#utility.yul\":1800:1835   */\n  swap1\n  pop\n    /* \"#utility.yul\":1745:1841   */\n  swap2\n  swap1\n  pop\n  jump\t// out\n    /* \"#utility.yul\":1847:1969   */\ntag_61:\n    /* \"#utility.yul\":1920:1944   */\n  tag_107\n    /* \"#utility.yul\":1938:1943   */\n  dup2\n    /* \"#utility.yul\":1920:1944   */\n  tag_60\n  jump\t// in\ntag_107:\n    /* \"#utility.yul\":1913:1918   */\n  dup2\n    /* \"#utility.yul\":1910:1945   */\n  eq\n    /* \"#utility.yul\":1900:1963   */\n  tag_108\n  jumpi\n    /* \"#utility.yul\":1959:1960   */\n  0x00\n    /* \"#utility.yul\":1956:1957   */\n  dup1\n    /* \"#utility.yul\":1949:1961   */\n  revert\n    /* \"#utility.yul\":1900:1963   */\ntag_108:\n    /* \"#utility.yul\":1847:1969   */\n  pop\n  jump\t// out\n    /* \"#utility.yul\":1975:2118   */\ntag_62:\n    /* \"#utility.yul\":2032:2037   */\n  0x00\n    /* \"#utility.yul\":2063:2069   */\n  dup2\n    /* \"#utility.yul\":2057:2070   */\n  mload\n    /* \"#utility.yul\":2048:2070   */\n  swap1\n  pop\n    /* \"#utility.yul\":2079:2112   */\n  tag_110\n    /* \"#utility.yul\":2106:2111   */\n  dup2\n    /* \"#utility.yul\":2079:2112   */\n  tag_61\n  jump\t// in\ntag_110:\n    /* \"#utility.yul\":1975:2118   */\n  swap3\n  swap2\n  pop\n  pop\n  jump\t// out\n    /* \"#utility.yul\":2141:2873   */\ntag_63:\n    /* \"#utility.yul\":2248:2253   */\n  0x00\n    /* \"#utility.yul\":2273:2354   */\n  tag_112\n    /* \"#utility.yul\":2289:2353   */\n  tag_113\n    /* \"#utility.yul\":2346:2352   */\n  dup5\n    /* \"#utility.yul\":2289:2353   */\n  tag_57\n  jump\t// in\ntag_113:\n    /* \"#utility.yul\":2273:2354   */\n  tag_56\n  jump\t// in\ntag_112:\n    /* \"#utility.yul\":2264:2354   */\n  swap1\n  pop\n    /* \"#utility.yul\":2374:2379   */\n  dup1\n    /* \"#utility.yul\":2403:2409   */\n  dup4\n    /* \"#utility.yul\":2396:2401   */\n  dup3\n    /* \"#utility.yul\":2389:2410   */\n  mstore\n    /* \"#utility.yul\":2437:2441   */\n  0x20\n    /* \"#utility.yul\":2430:2435   */\n  dup3\n    /* \"#utility.yul\":2426:2442   */\n  add\n    /* \"#utility.yul\":2419:2442   */\n  swap1\n  pop\n    /* \"#utility.yul\":2490:2494   */\n  0x20\n    /* \"#utility.yul\":2482:2488   */\n  dup5\n    /* \"#utility.yul\":2478:2495   */\n  mul\n    /* \"#utility.yul\":2470:2476   */\n  dup4\n    /* \"#utility.yul\":2466:2496   */\n  add\n    /* \"#utility.yul\":2519:2522   */\n  dup6\n    /* \"#utility.yul\":2511:2517   */\n  dup2\n    /* \"#utility.yul\":2508:2523   */\n  gt\n    /* \"#utility.yul\":2505:2627   */\n  iszero\n  tag_114\n  jumpi\n    /* \"#utility.yul\":2538:2617   */\n  tag_115\n  tag_58\n  jump\t// in\ntag_115:\n    /* \"#utility.yul\":2505:2627   */\ntag_114:\n    /* \"#utility.yul\":2653:2659   */\n  dup4\n    /* \"#utility.yul\":2636:2867   */\ntag_116:\n    /* \"#utility.yul\":2670:2676   */\n  dup2\n    /* \"#utility.yul\":2665:2668   */\n  dup2\n    /* \"#utility.yul\":2662:2677   */\n  lt\n    /* \"#utility.yul\":2636:2867   */\n  iszero\n  tag_118\n  jumpi\n    /* \"#utility.yul\":2745:2748   */\n  dup1\n    /* \"#utility.yul\":2774:2822   */\n  tag_119\n    /* \"#utility.yul\":2818:2821   */\n  dup9\n    /* \"#utility.yul\":2806:2816   */\n  dup3\n    /* \"#utility.yul\":2774:2822   */\n  tag_62\n  jump\t// in\ntag_119:\n    /* \"#utility.yul\":2769:2772   */\n  dup5\n    /* \"#utility.yul\":2762:2823   */\n  mstore\n    /* \"#utility.yul\":2852:2856   */\n  0x20\n    /* \"#utility.yul\":2847:2850   */\n  dup5\n    /* \"#utility.yul\":2843:2857   */\n  add\n    /* \"#utility.yul\":2836:2857   */\n  swap4\n  pop\n    /* \"#utility.yul\":2712:2867   */\n  pop\n    /* \"#utility.yul\":2696:2700   */\n  0x20\n    /* \"#utility.yul\":2691:2694   */\n  dup2\n    /* \"#utility.yul\":2687:2701   */\n  add\n    /* \"#utility.yul\":2680:2701   */\n  swap1\n  pop\n    /* \"#utility.yul\":2636:2867   */\n  jump(tag_116)\ntag_118:\n    /* \"#utility.yul\":2640:2661   */\n  pop\n    /* \"#utility.yul\":2254:2873   */\n  pop\n  pop\n    /* \"#utility.yul\":2141:2873   */\n  swap4\n  swap3\n  pop\n  pop\n  pop\n  jump\t// out\n    /* \"#utility.yul\":2896:3281   */\ntag_64:\n    /* \"#utility.yul\":2978:2983   */\n  0x00\n    /* \"#utility.yul\":3027:3030   */\n  dup3\n    /* \"#utility.yul\":3020:3024   */\n  0x1f\n    /* \"#utility.yul\":3012:3018   */\n  dup4\n    /* \"#utility.yul\":3008:3025   */\n  add\n    /* \"#utility.yul\":3004:3031   */\n  slt\n    /* \"#utility.yul\":2994:3116   */\n  tag_121\n  jumpi\n    /* \"#utility.yul\":3035:3114   */\n  tag_122\n  tag_52\n  jump\t// in\ntag_122:\n    /* \"#utility.yul\":2994:3116   */\ntag_121:\n    /* \"#utility.yul\":3145:3151   */\n  dup2\n    /* \"#utility.yul\":3139:3152   */\n  mload\n    /* \"#utility.yul\":3170:3275   */\n  tag_123\n    /* \"#utility.yul\":3271:3274   */\n  dup5\n    /* \"#utility.yul\":3263:3269   */\n  dup3\n    /* \"#utility.yul\":3256:3260   */\n  0x20\n    /* \"#utility.yul\":3248:3254   */\n  dup7\n    /* \"#utility.yul\":3244:3261   */\n  add\n    /* \"#utility.yul\":3170:3275   */\n  tag_63\n  jump\t// in\ntag_123:\n    /* \"#utility.yul\":3161:3275   */\n  swap2\n  pop\n    /* \"#utility.yul\":2984:3281   */\n  pop\n    /* \"#utility.yul\":2896:3281   */\n  swap3\n  swap2\n  pop\n  pop\n  jump\t// out\n    /* \"#utility.yul\":3287:3598   */\ntag_65:\n    /* \"#utility.yul\":3364:3368   */\n  0x00\n    /* \"#utility.yul\":3454:3472   */\n  0xffffffffffffffff\n    /* \"#utility.yul\":3446:3452   */\n  dup3\n    /* \"#utility.yul\":3443:3473   */\n  gt\n    /* \"#utility.yul\":3440:3496   */\n  iszero\n  tag_125\n  jumpi\n    /* \"#utility.yul\":3476:3494   */\n  tag_126\n  tag_54\n  jump\t// in\ntag_126:\n    /* \"#utility.yul\":3440:3496   */\ntag_125:\n    /* \"#utility.yul\":3526:3530   */\n  0x20\n    /* \"#utility.yul\":3518:3524   */\n  dup3\n    /* \"#utility.yul\":3514:3531   */\n  mul\n    /* \"#utility.yul\":3506:3531   */\n  swap1\n  pop\n    /* \"#utility.yul\":3586:3590   */\n  0x20\n    /* \"#utility.yul\":3580:3584   */\n  dup2\n    /* \"#utility.yul\":3576:3591   */\n  add\n    /* \"#utility.yul\":3568:3591   */\n  swap1\n  pop\n    /* \"#utility.yul\":3287:3598   */\n  swap2\n  swap1\n  pop\n  jump\t// out\n    /* \"#utility.yul\":3604:3681   */\ntag_66:\n    /* \"#utility.yul\":3641:3648   */\n  0x00\n    /* \"#utility.yul\":3670:3675   */\n  dup2\n    /* \"#utility.yul\":3659:3675   */\n  swap1\n  pop\n    /* \"#utility.yul\":3604:3681   */\n  swap2\n  swap1\n  pop\n  jump\t// out\n    /* \"#utility.yul\":3687:3809   */\ntag_67:\n    /* \"#utility.yul\":3760:3784   */\n  tag_129\n    /* \"#utility.yul\":3778:3783   */\n  dup2\n    /* \"#utility.yul\":3760:3784   */\n  tag_66\n  jump\t// in\ntag_129:\n    /* \"#utility.yul\":3753:3758   */\n  dup2\n    /* \"#utility.yul\":3750:3785   */\n  eq\n    /* \"#utility.yul\":3740:3803   */\n  tag_130\n  jumpi\n    /* \"#utility.yul\":3799:3800   */\n  0x00\n    /* \"#utility.yul\":3796:3797   */\n  dup1\n    /* \"#utility.yul\":3789:3801   */\n  revert\n    /* \"#utility.yul\":3740:3803   */\ntag_130:\n    /* \"#utility.yul\":3687:3809   */\n  pop\n  jump\t// out\n    /* \"#utility.yul\":3815:3958   */\ntag_68:\n    /* \"#utility.yul\":3872:3877   */\n  0x00\n    /* \"#utility.yul\":3903:3909   */\n  dup2\n    /* \"#utility.yul\":3897:3910   */\n  mload\n    /* \"#utility.yul\":3888:3910   */\n  swap1\n  pop\n    /* \"#utility.yul\":3919:3952   */\n  tag_132\n    /* \"#utility.yul\":3946:3951   */\n  dup2\n    /* \"#utility.yul\":3919:3952   */\n  tag_67\n  jump\t// in\ntag_132:\n    /* \"#utility.yul\":3815:3958   */\n  swap3\n  swap2\n  pop\n  pop\n  jump\t// out\n    /* \"#utility.yul\":3981:4713   */\ntag_69:\n    /* \"#utility.yul\":4088:4093   */\n  0x00\n    /* \"#utility.yul\":4113:4194   */\n  tag_134\n    /* \"#utility.yul\":4129:4193   */\n  tag_135\n    /* \"#utility.yul\":4186:4192   */\n  dup5\n    /* \"#utility.yul\":4129:4193   */\n  tag_65\n  jump\t// in\ntag_135:\n    /* \"#utility.yul\":4113:4194   */\n  tag_56\n  jump\t// in\ntag_134:\n    /* \"#utility.yul\":4104:4194   */\n  swap1\n  pop\n    /* \"#utility.yul\":4214:4219   */\n  dup1\n    /* \"#utility.yul\":4243:4249   */\n  dup4\n    /* \"#utility.yul\":4236:4241   */\n  dup3\n    /* \"#utility.yul\":4229:4250   */\n  mstore\n    /* \"#utility.yul\":4277:4281   */\n  0x20\n    /* \"#utility.yul\":4270:4275   */\n  dup3\n    /* \"#utility.yul\":4266:4282   */\n  add\n    /* \"#utility.yul\":4259:4282   */\n  swap1\n  pop\n    /* \"#utility.yul\":4330:4334   */\n  0x20\n    /* \"#utility.yul\":4322:4328   */\n  dup5\n    /* \"#utility.yul\":4318:4335   */\n  mul\n    /* \"#utility.yul\":4310:4316   */\n  dup4\n    /* \"#utility.yul\":4306:4336   */\n  add\n    /* \"#utility.yul\":4359:4362   */\n  dup6\n    /* \"#utility.yul\":4351:4357   */\n  dup2\n    /* \"#utility.yul\":4348:4363   */\n  gt\n    /* \"#utility.yul\":4345:4467   */\n  iszero\n  tag_136\n  jumpi\n    /* \"#utility.yul\":4378:4457   */\n  tag_137\n  tag_58\n  jump\t// in\ntag_137:\n    /* \"#utility.yul\":4345:4467   */\ntag_136:\n    /* \"#utility.yul\":4493:4499   */\n  dup4\n    /* \"#utility.yul\":4476:4707   */\ntag_138:\n    /* \"#utility.yul\":4510:4516   */\n  dup2\n    /* \"#utility.yul\":4505:4508   */\n  dup2\n    /* \"#utility.yul\":4502:4517   */\n  lt\n    /* \"#utility.yul\":4476:4707   */\n  iszero\n  tag_140\n  jumpi\n    /* \"#utility.yul\":4585:4588   */\n  dup1\n    /* \"#utility.yul\":4614:4662   */\n  tag_141\n    /* \"#utility.yul\":4658:4661   */\n  dup9\n    /* \"#utility.yul\":4646:4656   */\n  dup3\n    /* \"#utility.yul\":4614:4662   */\n  tag_68\n  jump\t// in\ntag_141:\n    /* \"#utility.yul\":4609:4612   */\n  dup5\n    /* \"#utility.yul\":4602:4663   */\n  mstore\n    /* \"#utility.yul\":4692:4696   */\n  0x20\n    /* \"#utility.yul\":4687:4690   */\n  dup5\n    /* \"#utility.yul\":4683:4697   */\n  add\n    /* \"#utility.yul\":4676:4697   */\n  swap4\n  pop\n    /* \"#utility.yul\":4552:4707   */\n  pop\n    /* \"#utility.yul\":4536:4540   */\n  0x20\n    /* \"#utility.yul\":4531:4534   */\n  dup2\n    /* \"#utility.yul\":4527:4541   */\n  add\n    /* \"#utility.yul\":4520:4541   */\n  swap1\n  pop\n    /* \"#utility.yul\":4476:4707   */\n  jump(tag_138)\ntag_140:\n    /* \"#utility.yul\":4480:4501   */\n  pop\n    /* \"#utility.yul\":4094:4713   */\n  pop\n  pop\n    /* \"#utility.yul\":3981:4713   */\n  swap4\n  swap3\n  pop\n  pop\n  pop\n  jump\t// out\n    /* \"#utility.yul\":4736:5121   */\ntag_70:\n    /* \"#utility.yul\":4818:4823   */\n  0x00\n    /* \"#utility.yul\":4867:4870   */\n  dup3\n    /* \"#utility.yul\":4860:4864   */\n  0x1f\n    /* \"#utility.yul\":4852:4858   */\n  dup4\n    /* \"#utility.yul\":4848:4865   */\n  add\n    /* \"#utility.yul\":4844:4871   */\n  slt\n    /* \"#utility.yul\":4834:4956   */\n  tag_143\n  jumpi\n    /* \"#utility.yul\":4875:4954   */\n  tag_144\n  tag_52\n  jump\t// in\ntag_144:\n    /* \"#utility.yul\":4834:4956   */\ntag_143:\n    /* \"#utility.yul\":4985:4991   */\n  dup2\n    /* \"#utility.yul\":4979:4992   */\n  mload\n    /* \"#utility.yul\":5010:5115   */\n  tag_145\n    /* \"#utility.yul\":5111:5114   */\n  dup5\n    /* \"#utility.yul\":5103:5109   */\n  dup3\n    /* \"#utility.yul\":5096:5100   */\n  0x20\n    /* \"#utility.yul\":5088:5094   */\n  dup7\n    /* \"#utility.yul\":5084:5101   */\n  add\n    /* \"#utility.yul\":5010:5115   */\n  tag_69\n  jump\t// in\ntag_145:\n    /* \"#utility.yul\":5001:5115   */\n  swap2\n  pop\n    /* \"#utility.yul\":4824:5121   */\n  pop\n    /* \"#utility.yul\":4736:5121   */\n  swap3\n  swap2\n  pop\n  pop\n  jump\t// out\n    /* \"#utility.yul\":5127:6040   */\ntag_2:\n    /* \"#utility.yul\":5256:5262   */\n  0x00\n    /* \"#utility.yul\":5264:5270   */\n  dup1\n    /* \"#utility.yul\":5313:5315   */\n  0x40\n    /* \"#utility.yul\":5301:5310   */\n  dup4\n    /* \"#utility.yul\":5292:5299   */\n  dup6\n    /* \"#utility.yul\":5288:5311   */\n  sub\n    /* \"#utility.yul\":5284:5316   */\n  slt\n    /* \"#utility.yul\":5281:5400   */\n  iszero\n  tag_147\n  jumpi\n    /* \"#utility.yul\":5319:5398   */\n  tag_148\n  tag_50\n  jump\t// in\ntag_148:\n    /* \"#utility.yul\":5281:5400   */\ntag_147:\n    /* \"#utility.yul\":5460:5461   */\n  0x00\n    /* \"#utility.yul\":5449:5458   */\n  dup4\n    /* \"#utility.yul\":5445:5462   */\n  add\n    /* \"#utility.yul\":5439:5463   */\n  mload\n    /* \"#utility.yul\":5490:5508   */\n  0xffffffffffffffff\n    /* \"#utility.yul\":5482:5488   */\n  dup2\n    /* \"#utility.yul\":5479:5509   */\n  gt\n    /* \"#utility.yul\":5476:5593   */\n  iszero\n  tag_149\n  jumpi\n    /* \"#utility.yul\":5512:5591   */\n  tag_150\n  tag_51\n  jump\t// in\ntag_150:\n    /* \"#utility.yul\":5476:5593   */\ntag_149:\n    /* \"#utility.yul\":5617:5706   */\n  tag_151\n    /* \"#utility.yul\":5698:5705   */\n  dup6\n    /* \"#utility.yul\":5689:5695   */\n  dup3\n    /* \"#utility.yul\":5678:5687   */\n  dup7\n    /* \"#utility.yul\":5674:5696   */\n  add\n    /* \"#utility.yul\":5617:5706   */\n  tag_64\n  jump\t// in\ntag_151:\n    /* \"#utility.yul\":5607:5706   */\n  swap3\n  pop\n    /* \"#utility.yul\":5410:5716   */\n  pop\n    /* \"#utility.yul\":5776:5778   */\n  0x20\n    /* \"#utility.yul\":5765:5774   */\n  dup4\n    /* \"#utility.yul\":5761:5779   */\n  add\n    /* \"#utility.yul\":5755:5780   */\n  mload\n    /* \"#utility.yul\":5807:5825   */\n  0xffffffffffffffff\n    /* \"#utility.yul\":5799:5805   */\n  dup2\n    /* \"#utility.yul\":5796:5826   */\n  gt\n    /* \"#utility.yul\":5793:5910   */\n  iszero\n  tag_152\n  jumpi\n    /* \"#utility.yul\":5829:5908   */\n  tag_153\n  tag_51\n  jump\t// in\ntag_153:\n    /* \"#utility.yul\":5793:5910   */\ntag_152:\n    /* \"#utility.yul\":5934:6023   */\n  tag_154\n    /* \"#utility.yul\":6015:6022   */\n  dup6\n    /* \"#utility.yul\":6006:6012   */\n  dup3\n    /* \"#utility.yul\":5995:6004   */\n  dup7\n    /* \"#utility.yul\":5991:6013   */\n  add\n    /* \"#utility.yul\":5934:6023   */\n  tag_70\n  jump\t// in\ntag_154:\n    /* \"#utility.yul\":5924:6023   */\n  swap2\n  pop\n    /* \"#utility.yul\":5726:6033   */\n  pop\n    /* \"#utility.yul\":5127:6040   */\n  swap3\n  pop\n  swap3\n  swap1\n  pop\n  jump\t// out\n    /* \"#utility.yul\":6046:6215   */\ntag_71:\n    /* \"#utility.yul\":6130:6141   */\n  0x00\n    /* \"#utility.yul\":6164:6170   */\n  dup3\n    /* \"#utility.yul\":6159:6162   */\n  dup3\n    /* \"#utility.yul\":6152:6171   */\n  mstore\n    /* \"#utility.yul\":6204:6208   */\n  0x20\n    /* \"#utility.yul\":6199:6202   */\n  dup3\n    /* \"#utility.yul\":6195:6209   */\n  add\n    /* \"#utility.yul\":6180:6209   */\n  swap1\n  pop\n    /* \"#utility.yul\":6046:6215   */\n  swap3\n  swap2\n  pop\n  pop\n  jump\t// out\n    /* \"#utility.yul\":6221:6458   */\ntag_72:\n    /* \"#utility.yul\":6361:6395   */\n  0x5061796d656e7453706c69747465723a2070617965657320616e642073686172\n    /* \"#utility.yul\":6357:6358   */\n  0x00\n    /* \"#utility.yul\":6349:6355   */\n  dup3\n    /* \"#utility.yul\":6345:6359   */\n  add\n    /* \"#utility.yul\":6338:6396   */\n  mstore\n    /* \"#utility.yul\":6430:6450   */\n  0x6573206c656e677468206d69736d617463680000000000000000000000000000\n    /* \"#utility.yul\":6425:6427   */\n  0x20\n    /* \"#utility.yul\":6417:6423   */\n  dup3\n    /* \"#utility.yul\":6413:6428   */\n  add\n    /* \"#utility.yul\":6406:6451   */\n  mstore\n    /* \"#utility.yul\":6221:6458   */\n  pop\n  jump\t// out\n    /* \"#utility.yul\":6464:6830   */\ntag_73:\n    /* \"#utility.yul\":6606:6609   */\n  0x00\n    /* \"#utility.yul\":6627:6694   */\n  tag_158\n    /* \"#utility.yul\":6691:6693   */\n  0x32\n    /* \"#utility.yul\":6686:6689   */\n  dup4\n    /* \"#utility.yul\":6627:6694   */\n  tag_71\n  jump\t// in\ntag_158:\n    /* \"#utility.yul\":6620:6694   */\n  swap2\n  pop\n    /* \"#utility.yul\":6703:6796   */\n  tag_159\n    /* \"#utility.yul\":6792:6795   */\n  dup3\n    /* \"#utility.yul\":6703:6796   */\n  tag_72\n  jump\t// in\ntag_159:\n    /* \"#utility.yul\":6821:6823   */\n  0x40\n    /* \"#utility.yul\":6816:6819   */\n  dup3\n    /* \"#utility.yul\":6812:6824   */\n  add\n    /* \"#utility.yul\":6805:6824   */\n  swap1\n  pop\n    /* \"#utility.yul\":6464:6830   */\n  swap2\n  swap1\n  pop\n  jump\t// out\n    /* \"#utility.yul\":6836:7255   */\ntag_9:\n    /* \"#utility.yul\":7002:7006   */\n  0x00\n    /* \"#utility.yul\":7040:7042   */\n  0x20\n    /* \"#utility.yul\":7029:7038   */\n  dup3\n    /* \"#utility.yul\":7025:7043   */\n  add\n    /* \"#utility.yul\":7017:7043   */\n  swap1\n  pop\n    /* \"#utility.yul\":7089:7098   */\n  dup2\n    /* \"#utility.yul\":7083:7087   */\n  dup2\n    /* \"#utility.yul\":7079:7099   */\n  sub\n    /* \"#utility.yul\":7075:7076   */\n  0x00\n    /* \"#utility.yul\":7064:7073   */\n  dup4\n    /* \"#utility.yul\":7060:7077   */\n  add\n    /* \"#utility.yul\":7053:7100   */\n  mstore\n    /* \"#utility.yul\":7117:7248   */\n  tag_161\n    /* \"#utility.yul\":7243:7247   */\n  dup2\n    /* \"#utility.yul\":7117:7248   */\n  tag_73\n  jump\t// in\ntag_161:\n    /* \"#utility.yul\":7109:7248   */\n  swap1\n  pop\n    /* \"#utility.yul\":6836:7255   */\n  swap2\n  swap1\n  pop\n  jump\t// out\n    /* \"#utility.yul\":7261:7437   */\ntag_74:\n    /* \"#utility.yul\":7401:7429   */\n  0x5061796d656e7453706c69747465723a206e6f20706179656573000000000000\n    /* \"#utility.yul\":7397:7398   */\n  0x00\n    /* \"#utility.yul\":7389:7395   */\n  dup3\n    /* \"#utility.yul\":7385:7399   */\n  add\n    /* \"#utility.yul\":7378:7430   */\n  mstore\n    /* \"#utility.yul\":7261:7437   */\n  pop\n  jump\t// out\n    /* \"#utility.yul\":7443:7809   */\ntag_75:\n    /* \"#utility.yul\":7585:7588   */\n  0x00\n    /* \"#utility.yul\":7606:7673   */\n  tag_164\n    /* \"#utility.yul\":7670:7672   */\n  0x1a\n    /* \"#utility.yul\":7665:7668   */\n  dup4\n    /* \"#utility.yul\":7606:7673   */\n  tag_71\n  jump\t// in\ntag_164:\n    /* \"#utility.yul\":7599:7673   */\n  swap2\n  pop\n    /* \"#utility.yul\":7682:7775   */\n  tag_165\n    /* \"#utility.yul\":7771:7774   */\n  dup3\n    /* \"#utility.yul\":7682:7775   */\n  tag_74\n  jump\t// in\ntag_165:\n    /* \"#utility.yul\":7800:7802   */\n  0x20\n    /* \"#utility.yul\":7795:7798   */\n  dup3\n    /* \"#utility.yul\":7791:7803   */\n  add\n    /* \"#utility.yul\":7784:7803   */\n  swap1\n  pop\n    /* \"#utility.yul\":7443:7809   */\n  swap2\n  swap1\n  pop\n  jump\t// out\n    /* \"#utility.yul\":7815:8234   */\ntag_12:\n    /* \"#utility.yul\":7981:7985   */\n  0x00\n    /* \"#utility.yul\":8019:8021   */\n  0x20\n    /* \"#utility.yul\":8008:8017   */\n  dup3\n    /* \"#utility.yul\":8004:8022   */\n  add\n    /* \"#utility.yul\":7996:8022   */\n  swap1\n  pop\n    /* \"#utility.yul\":8068:8077   */\n  dup2\n    /* \"#utility.yul\":8062:8066   */\n  dup2\n    /* \"#utility.yul\":8058:8078   */\n  sub\n    /* \"#utility.yul\":8054:8055   */\n  0x00\n    /* \"#utility.yul\":8043:8052   */\n  dup4\n    /* \"#utility.yul\":8039:8056   */\n  add\n    /* \"#utility.yul\":8032:8079   */\n  mstore\n    /* \"#utility.yul\":8096:8227   */\n  tag_167\n    /* \"#utility.yul\":8222:8226   */\n  dup2\n    /* \"#utility.yul\":8096:8227   */\n  tag_75\n  jump\t// in\ntag_167:\n    /* \"#utility.yul\":8088:8227   */\n  swap1\n  pop\n    /* \"#utility.yul\":7815:8234   */\n  swap2\n  swap1\n  pop\n  jump\t// out\n    /* \"#utility.yul\":8240:8420   */\ntag_19:\n    /* \"#utility.yul\":8288:8365   */\n  0x4e487b7100000000000000000000000000000000000000000000000000000000\n    /* \"#utility.yul\":8285:8286   */\n  0x00\n    /* \"#utility.yul\":8278:8366   */\n  mstore\n    /* \"#utility.yul\":8385:8389   */\n  0x32\n    /* \"#utility.yul\":8382:8383   */\n  0x04\n    /* \"#utility.yul\":8375:8390   */\n  mstore\n    /* \"#utility.yul\":8409:8413   */\n  0x24\n    /* \"#utility.yul\":8406:8407   */\n  0x00\n    /* \"#utility.yul\":8399:8414   */\n  revert\n    /* \"#utility.yul\":8426:8606   */\ntag_76:\n    /* \"#utility.yul\":8474:8551   */\n  0x4e487b7100000000000000000000000000000000000000000000000000000000\n    /* \"#utility.yul\":8471:8472   */\n  0x00\n    /* \"#utility.yul\":8464:8552   */\n  mstore\n    /* \"#utility.yul\":8571:8575   */\n  0x11\n    /* \"#utility.yul\":8568:8569   */\n  0x04\n    /* \"#utility.yul\":8561:8576   */\n  mstore\n    /* \"#utility.yul\":8595:8599   */\n  0x24\n    /* \"#utility.yul\":8592:8593   */\n  0x00\n    /* \"#utility.yul\":8585:8600   */\n  revert\n    /* \"#utility.yul\":8612:8845   */\ntag_24:\n    /* \"#utility.yul\":8651:8654   */\n  0x00\n    /* \"#utility.yul\":8674:8698   */\n  tag_171\n    /* \"#utility.yul\":8692:8697   */\n  dup3\n    /* \"#utility.yul\":8674:8698   */\n  tag_66\n  jump\t// in\ntag_171:\n    /* \"#utility.yul\":8665:8698   */\n  swap2\n  pop\n    /* \"#utility.yul\":8720:8786   */\n  0xffffffffffffffffffffffffffffffffffffffffffffffffffffffffffffffff\n    /* \"#utility.yul\":8713:8718   */\n  dup3\n    /* \"#utility.yul\":8710:8787   */\n  sub\n    /* \"#utility.yul\":8707:8810   */\n  tag_172\n  jumpi\n    /* \"#utility.yul\":8790:8808   */\n  tag_173\n  tag_76\n  jump\t// in\ntag_173:\n    /* \"#utility.yul\":8707:8810   */\ntag_172:\n    /* \"#utility.yul\":8837:8838   */\n  0x01\n    /* \"#utility.yul\":8830:8835   */\n  dup3\n    /* \"#utility.yul\":8826:8839   */\n  add\n    /* \"#utility.yul\":8819:8839   */\n  swap1\n  pop\n    /* \"#utility.yul\":8612:8845   */\n  swap2\n  swap1\n  pop\n  jump\t// out\n    /* \"#utility.yul\":8851:9082   */\ntag_77:\n    /* \"#utility.yul\":8991:9025   */\n  0x5061796d656e7453706c69747465723a206163636f756e742069732074686520\n    /* \"#utility.yul\":8987:8988   */\n  0x00\n    /* \"#utility.yul\":8979:8985   */\n  dup3\n    /* \"#utility.yul\":8975:8989   */\n  add\n    /* \"#utility.yul\":8968:9026   */\n  mstore\n    /* \"#utility.yul\":9060:9074   */\n  0x7a65726f20616464726573730000000000000000000000000000000000000000\n    /* \"#utility.yul\":9055:9057   */\n  0x20\n    /* \"#utility.yul\":9047:9053   */\n  dup3\n    /* \"#utility.yul\":9043:9058   */\n  add\n    /* \"#utility.yul\":9036:9075   */\n  mstore\n    /* \"#utility.yul\":8851:9082   */\n  pop\n  jump\t// out\n    /* \"#utility.yul\":9088:9454   */\ntag_78:\n    /* \"#utility.yul\":9230:9233   */\n  0x00\n    /* \"#utility.yul\":9251:9318   */\n  tag_176\n    /* \"#utility.yul\":9315:9317   */\n  0x2c\n    /* \"#utility.yul\":9310:9313   */\n  dup4\n    /* \"#utility.yul\":9251:9318   */\n  tag_71\n  jump\t// in\ntag_176:\n    /* \"#utility.yul\":9244:9318   */\n  swap2\n  pop\n    /* \"#utility.yul\":9327:9420   */\n  tag_177\n    /* \"#utility.yul\":9416:9419   */\n  dup3\n    /* \"#utility.yul\":9327:9420   */\n  tag_77\n  jump\t// in\ntag_177:\n    /* \"#utility.yul\":9445:9447   */\n  0x40\n    /* \"#utility.yul\":9440:9443   */\n  dup3\n    /* \"#utility.yul\":9436:9448   */\n  add\n    /* \"#utility.yul\":9429:9448   */\n  swap1\n  pop\n    /* \"#utility.yul\":9088:9454   */\n  swap2\n  swap1\n  pop\n  jump\t// out\n    /* \"#utility.yul\":9460:9879   */\ntag_35:\n    /* \"#utility.yul\":9626:9630   */\n  0x00\n    /* \"#utility.yul\":9664:9666   */\n  0x20\n    /* \"#utility.yul\":9653:9662   */\n  dup3\n    /* \"#utility.yul\":9649:9667   */\n  add\n    /* \"#utility.yul\":9641:9667   */\n  swap1\n  pop\n    /* \"#utility.yul\":9713:9722   */\n  dup2\n    /* \"#utility.yul\":9707:9711   */\n  dup2\n    /* \"#utility.yul\":9703:9723   */\n  sub\n    /* \"#utility.yul\":9699:9700   */\n  0x00\n    /* \"#utility.yul\":9688:9697   */\n  dup4\n    /* \"#utility.yul\":9684:9701   */\n  add\n    /* \"#utility.yul\":9677:9724   */\n  mstore\n    /* \"#utility.yul\":9741:9872   */\n  tag_179\n    /* \"#utility.yul\":9867:9871   */\n  dup2\n    /* \"#utility.yul\":9741:9872   */\n  tag_78\n  jump\t// in\ntag_179:\n    /* \"#utility.yul\":9733:9872   */\n  swap1\n  pop\n    /* \"#utility.yul\":9460:9879   */\n  swap2\n  swap1\n  pop\n  jump\t// out\n    /* \"#utility.yul\":9885:10064   */\ntag_79:\n    /* \"#utility.yul\":10025:10056   */\n  0x5061796d656e7453706c69747465723a20736861726573206172652030000000\n    /* \"#utility.yul\":10021:10022   */\n  0x00\n    /* \"#utility.yul\":10013:10019   */\n  dup3\n    /* \"#utility.yul\":10009:10023   */\n  add\n    /* \"#utility.yul\":10002:10057   */\n  mstore\n    /* \"#utility.yul\":9885:10064   */\n  pop\n  jump\t// out\n    /* \"#utility.yul\":10070:10436   */\ntag_80:\n    /* \"#utility.yul\":10212:10215   */\n  0x00\n    /* \"#utility.yul\":10233:10300   */\n  tag_182\n    /* \"#utility.yul\":10297:10299   */\n  0x1d\n    /* \"#utility.yul\":10292:10295   */\n  dup4\n    /* \"#utility.yul\":10233:10300   */\n  tag_71\n  jump\t// in\ntag_182:\n    /* \"#utility.yul\":10226:10300   */\n  swap2\n  pop\n    /* \"#utility.yul\":10309:10402   */\n  tag_183\n    /* \"#utility.yul\":10398:10401   */\n  dup3\n    /* \"#utility.yul\":10309:10402   */\n  tag_79\n  jump\t// in\ntag_183:\n    /* \"#utility.yul\":10427:10429   */\n  0x20\n    /* \"#utility.yul\":10422:10425   */\n  dup3\n    /* \"#utility.yul\":10418:10430   */\n  add\n    /* \"#utility.yul\":10411:10430   */\n  swap1\n  pop\n    /* \"#utility.yul\":10070:10436   */\n  swap2\n  swap1\n  pop\n  jump\t// out\n    /* \"#utility.yul\":10442:10861   */\ntag_38:\n    /* \"#utility.yul\":10608:10612   */\n  0x00\n    /* \"#utility.yul\":10646:10648   */\n  0x20\n    /* \"#utility.yul\":10635:10644   */\n  dup3\n    /* \"#utility.yul\":10631:10649   */\n  add\n    /* \"#utility.yul\":10623:10649   */\n  swap1\n  pop\n    /* \"#utility.yul\":10695:10704   */\n  dup2\n    /* \"#utility.yul\":10689:10693   */\n  dup2\n    /* \"#utility.yul\":10685:10705   */\n  sub\n    /* \"#utility.yul\":10681:10682   */\n  0x00\n    /* \"#utility.yul\":10670:10679   */\n  dup4\n    /* \"#utility.yul\":10666:10683   */\n  add\n    /* \"#utility.yul\":10659:10706   */\n  mstore\n    /* \"#utility.yul\":10723:10854   */\n  tag_185\n    /* \"#utility.yul\":10849:10853   */\n  dup2\n    /* \"#utility.yul\":10723:10854   */\n  tag_80\n  jump\t// in\ntag_185:\n    /* \"#utility.yul\":10715:10854   */\n  swap1\n  pop\n    /* \"#utility.yul\":10442:10861   */\n  swap2\n  swap1\n  pop\n  jump\t// out\n    /* \"#utility.yul\":10867:11097   */\ntag_81:\n    /* \"#utility.yul\":11007:11041   */\n  0x5061796d656e7453706c69747465723a206163636f756e7420616c7265616479\n    /* \"#utility.yul\":11003:11004   */\n  0x00\n    /* \"#utility.yul\":10995:11001   */\n  dup3\n    /* \"#utility.yul\":10991:11005   */\n  add\n    /* \"#utility.yul\":10984:11042   */\n  mstore\n    /* \"#utility.yul\":11076:11089   */\n  0x2068617320736861726573000000000000000000000000000000000000000000\n    /* \"#utility.yul\":11071:11073   */\n  0x20\n    /* \"#utility.yul\":11063:11069   */\n  dup3\n    /* \"#utility.yul\":11059:11074   */\n  add\n    /* \"#utility.yul\":11052:11090   */\n  mstore\n    /* \"#utility.yul\":10867:11097   */\n  pop\n  jump\t// out\n    /* \"#utility.yul\":11103:11469   */\ntag_82:\n    /* \"#utility.yul\":11245:11248   */\n  0x00\n    /* \"#utility.yul\":11266:11333   */\n  tag_188\n    /* \"#utility.yul\":11330:11332   */\n  0x2b\n    /* \"#utility.yul\":11325:11328   */\n  dup4\n    /* \"#utility.yul\":11266:11333   */\n  tag_71\n  jump\t// in\ntag_188:\n    /* \"#utility.yul\":11259:11333   */\n  swap2\n  pop\n    /* \"#utility.yul\":11342:11435   */\n  tag_189\n    /* \"#utility.yul\":11431:11434   */\n  dup3\n    /* \"#utility.yul\":11342:11435   */\n  tag_81\n  jump\t// in\ntag_189:\n    /* \"#utility.yul\":11460:11462   */\n  0x40\n    /* \"#utility.yul\":11455:11458   */\n  dup3\n    /* \"#utility.yul\":11451:11463   */\n  add\n    /* \"#utility.yul\":11444:11463   */\n  swap1\n  pop\n    /* \"#utility.yul\":11103:11469   */\n  swap2\n  swap1\n  pop\n  jump\t// out\n    /* \"#utility.yul\":11475:11894   */\ntag_41:\n    /* \"#utility.yul\":11641:11645   */\n  0x00\n    /* \"#utility.yul\":11679:11681   */\n  0x20\n    /* \"#utility.yul\":11668:11677   */\n  dup3\n    /* \"#utility.yul\":11664:11682   */\n  add\n    /* \"#utility.yul\":11656:11682   */\n  swap1\n  pop\n    /* \"#utility.yul\":11728:11737   */\n  dup2\n    /* \"#utility.yul\":11722:11726   */\n  dup2\n    /* \"#utility.yul\":11718:11738   */\n  sub\n    /* \"#utility.yul\":11714:11715   */\n  0x00\n    /* \"#utility.yul\":11703:11712   */\n  dup4\n    /* \"#utility.yul\":11699:11716   */\n  add\n    /* \"#utility.yul\":11692:11739   */\n  mstore\n    /* \"#utility.yul\":11756:11887   */\n  tag_191\n    /* \"#utility.yul\":11882:11886   */\n  dup2\n    /* \"#utility.yul\":11756:11887   */\n  tag_82\n  jump\t// in\ntag_191:\n    /* \"#utility.yul\":11748:11887   */\n  swap1\n  pop\n    /* \"#utility.yul\":11475:11894   */\n  swap2\n  swap1\n  pop\n  jump\t// out\n    /* \"#utility.yul\":11900:12205   */\ntag_44:\n    /* \"#utility.yul\":11940:11943   */\n  0x00\n    /* \"#utility.yul\":11959:11979   */\n  tag_193\n    /* \"#utility.yul\":11977:11978   */\n  dup3\n    /* \"#utility.yul\":11959:11979   */\n  tag_66\n  jump\t// in\ntag_193:\n    /* \"#utility.yul\":11954:11979   */\n  swap2\n  pop\n    /* \"#utility.yul\":11993:12013   */\n  tag_194\n    /* \"#utility.yul\":12011:12012   */\n  dup4\n    /* \"#utility.yul\":11993:12013   */\n  tag_66\n  jump\t// in\ntag_194:\n    /* \"#utility.yul\":11988:12013   */\n  swap3\n  pop\n    /* \"#utility.yul\":12147:12148   */\n  dup3\n    /* \"#utility.yul\":12079:12145   */\n  0xffffffffffffffffffffffffffffffffffffffffffffffffffffffffffffffff\n    /* \"#utility.yul\":12075:12149   */\n  sub\n    /* \"#utility.yul\":12072:12073   */\n  dup3\n    /* \"#utility.yul\":12069:12150   */\n  gt\n    /* \"#utility.yul\":12066:12173   */\n  iszero\n  tag_195\n  jumpi\n    /* \"#utility.yul\":12153:12171   */\n  tag_196\n  tag_76\n  jump\t// in\ntag_196:\n    /* \"#utility.yul\":12066:12173   */\ntag_195:\n    /* \"#utility.yul\":12197:12198   */\n  dup3\n    /* \"#utility.yul\":12194:12195   */\n  dup3\n    /* \"#utility.yul\":12190:12199   */\n  add\n    /* \"#utility.yul\":12183:12199   */\n  swap1\n  pop\n    /* \"#utility.yul\":11900:12205   */\n  swap3\n  swap2\n  pop\n  pop\n  jump\t// out\n    /* \"#utility.yul\":12211:12329   */\ntag_83:\n    /* \"#utility.yul\":12298:12322   */\n  tag_198\n    /* \"#utility.yul\":12316:12321   */\n  dup2\n    /* \"#utility.yul\":12298:12322   */\n  tag_60\n  jump\t// in\ntag_198:\n    /* \"#utility.yul\":12293:12296   */\n  dup3\n    /* \"#utility.yul\":12286:12323   */\n  mstore\n    /* \"#utility.yul\":12211:12329   */\n  pop\n  pop\n  jump\t// out\n    /* \"#utility.yul\":12335:12453   */\ntag_84:\n    /* \"#utility.yul\":12422:12446   */\n  tag_200\n    /* \"#utility.yul\":12440:12445   */\n  dup2\n    /* \"#utility.yul\":12422:12446   */\n  tag_66\n  jump\t// in\ntag_200:\n    /* \"#utility.yul\":12417:12420   */\n  dup3\n    /* \"#utility.yul\":12410:12447   */\n  mstore\n    /* \"#utility.yul\":12335:12453   */\n  pop\n  pop\n  jump\t// out\n    /* \"#utility.yul\":12459:12791   */\ntag_46:\n    /* \"#utility.yul\":12580:12584   */\n  0x00\n    /* \"#utility.yul\":12618:12620   */\n  0x40\n    /* \"#utility.yul\":12607:12616   */\n  dup3\n    /* \"#utility.yul\":12603:12621   */\n  add\n    /* \"#utility.yul\":12595:12621   */\n  swap1\n  pop\n    /* \"#utility.yul\":12631:12702   */\n  tag_202\n    /* \"#utility.yul\":12699:12700   */\n  0x00\n    /* \"#utility.yul\":12688:12697   */\n  dup4\n    /* \"#utility.yul\":12684:12701   */\n  add\n    /* \"#utility.yul\":12675:12681   */\n  dup6\n    /* \"#utility.yul\":12631:12702   */\n  tag_83\n  jump\t// in\ntag_202:\n    /* \"#utility.yul\":12712:12784   */\n  tag_203\n    /* \"#utility.yul\":12780:12782   */\n  0x20\n    /* \"#utility.yul\":12769:12778   */\n  dup4\n    /* \"#utility.yul\":12765:12783   */\n  add\n    /* \"#utility.yul\":12756:12762   */\n  dup5\n    /* \"#utility.yul\":12712:12784   */\n  tag_84\n  jump\t// in\ntag_203:\n    /* \"#utility.yul\":12459:12791   */\n  swap4\n  swap3\n  pop\n  pop\n  pop\n  jump\t// out\n    /* \"contracts/HACHIWallet.sol\":175:1083  contract HachiWallet is PaymentSplitter, Ownable {... */\ntag_31:\n  dataSize(sub_0)\n  dup1\n  dataOffset(sub_0)\n  0x00\n  codecopy\n  0x00\n  return\nstop\n\nsub_0: assembly {\n        /* \"contracts/HACHIWallet.sol\":175:1083  contract HachiWallet is PaymentSplitter, Ownable {... */\n      mstore(0x40, 0x80)\n      jumpi(tag_1, lt(calldatasize, 0x04))\n      shr(0xe0, calldataload(0x00))\n      dup1\n      0x9852595c\n      gt\n      tag_17\n      jumpi\n      dup1\n      0xd79779b2\n      gt\n      tag_18\n      jumpi\n      dup1\n      0xd79779b2\n      eq\n      tag_13\n      jumpi\n      dup1\n      0xe33b7de3\n      eq\n      tag_14\n      jumpi\n      dup1\n      0xf28e5120\n      eq\n      tag_15\n      jumpi\n      dup1\n      0xf2fde38b\n      eq\n      tag_16\n      jumpi\n      jump(tag_2)\n    tag_18:\n      dup1\n      0x9852595c\n      eq\n      tag_10\n      jumpi\n      dup1\n      0xa4a4ce8a\n      eq\n      tag_11\n      jumpi\n      dup1\n      0xce7c2ac2\n      eq\n      tag_12\n      jumpi\n      jump(tag_2)\n    tag_17:\n      dup1\n      0x48b75044\n      gt\n      tag_19\n      jumpi\n      dup1\n      0x48b75044\n      eq\n      tag_6\n      jumpi\n      dup1\n      0x715018a6\n      eq\n      tag_7\n      jumpi\n      dup1\n      0x8b83209b\n      eq\n      tag_8\n      jumpi\n      dup1\n      0x8da5cb5b\n      eq\n      tag_9\n      jumpi\n      jump(tag_2)\n    tag_19:\n      dup1\n      0x19165587\n      eq\n      tag_3\n      jumpi\n      dup1\n      0x3a98ef39\n      eq\n      tag_4\n      jumpi\n      dup1\n      0x406072a9\n      eq\n      tag_5\n      jumpi\n      jump(tag_2)\n    tag_1:\n      jumpi(tag_2, calldatasize)\n        /* \"@openzeppelin/contracts/finance/PaymentSplitter.sol\":3249:3289  PaymentReceived(_msgSender(), msg.value) */\n      0x6ef95f06320e7a25a04a175ca677b7052bdd97131872c2192525a629f51be770\n        /* \"@openzeppelin/contracts/finance/PaymentSplitter.sol\":3265:3277  _msgSender() */\n      tag_22\n        /* \"@openzeppelin/contracts/finance/PaymentSplitter.sol\":3265:3275  _msgSender */\n      tag_23\n        /* \"@openzeppelin/contracts/finance/PaymentSplitter.sol\":3265:3277  _msgSender() */\n      jump\t// in\n    tag_22:\n        /* \"@openzeppelin/contracts/finance/PaymentSplitter.sol\":3279:3288  msg.value */\n      callvalue\n        /* \"@openzeppelin/contracts/finance/PaymentSplitter.sol\":3249:3289  PaymentReceived(_msgSender(), msg.value) */\n      mload(0x40)\n      tag_24\n      swap3\n      swap2\n      swap1\n      tag_25\n      jump\t// in\n    tag_24:\n      mload(0x40)\n      dup1\n      swap2\n      sub\n      swap1\n      log1\n        /* \"contracts/HACHIWallet.sol\":175:1083  contract HachiWallet is PaymentSplitter, Ownable {... */\n      stop\n    tag_2:\n      0x00\n      dup1\n      revert\n        /* \"contracts/HACHIWallet.sol\":379:493  function release(address payable account) public override(PaymentSplitter) {... */\n    tag_3:\n      callvalue\n      dup1\n      iszero\n      tag_26\n      jumpi\n      0x00\n      dup1\n      revert\n    tag_26:\n      pop\n      tag_27\n      0x04\n      dup1\n      calldatasize\n      sub\n      dup2\n      add\n      swap1\n      tag_28\n      swap2\n      swap1\n      tag_29\n      jump\t// in\n    tag_28:\n      tag_30\n      jump\t// in\n    tag_27:\n      stop\n        /* \"@openzeppelin/contracts/finance/PaymentSplitter.sol\":3374:3463  function totalShares() public view returns (uint256) {... */\n    tag_4:\n      callvalue\n      dup1\n      iszero\n      tag_31\n      jumpi\n      0x00\n      dup1\n      revert\n    tag_31:\n      pop\n      tag_32\n      tag_33\n      jump\t// in\n    tag_32:\n      mload(0x40)\n      tag_34\n      swap2\n      swap1\n      tag_35\n      jump\t// in\n    tag_34:\n      mload(0x40)\n      dup1\n      swap2\n      sub\n      swap1\n      return\n        /* \"@openzeppelin/contracts/finance/PaymentSplitter.sol\":4466:4599  function released(IERC20 token, address account) public view returns (uint256) {... */\n    tag_5:\n      callvalue\n      dup1\n      iszero\n      tag_36\n      jumpi\n      0x00\n      dup1\n      revert\n    tag_36:\n      pop\n      tag_37\n      0x04\n      dup1\n      calldatasize\n      sub\n      dup2\n      add\n      swap1\n      tag_38\n      swap2\n      swap1\n      tag_39\n      jump\t// in\n    tag_38:\n      tag_40\n      jump\t// in\n    tag_37:\n      mload(0x40)\n      tag_41\n      swap2\n      swap1\n      tag_35\n      jump\t// in\n    tag_41:\n      mload(0x40)\n      dup1\n      swap2\n      sub\n      swap1\n      return\n        /* \"@openzeppelin/contracts/finance/PaymentSplitter.sol\":5791:6419  function release(IERC20 token, address account) public virtual {... */\n    tag_6:\n      callvalue\n      dup1\n      iszero\n      tag_42\n      jumpi\n      0x00\n      dup1\n      revert\n    tag_42:\n      pop\n      tag_43\n      0x04\n      dup1\n      calldatasize\n      sub\n      dup2\n      add\n      swap1\n      tag_44\n      swap2\n      swap1\n      tag_39\n      jump\t// in\n    tag_44:\n      tag_45\n      jump\t// in\n    tag_43:\n      stop\n        /* \"@openzeppelin/contracts/access/Ownable.sol\":1668:1769  function renounceOwnership() public virtual onlyOwner {... */\n    tag_7:\n      callvalue\n      dup1\n      iszero\n      tag_46\n      jumpi\n      0x00\n      dup1\n      revert\n    tag_46:\n      pop\n      tag_47\n      tag_48\n      jump\t// in\n    tag_47:\n      stop\n        /* \"@openzeppelin/contracts/finance/PaymentSplitter.sol\":4685:4783  function payee(uint256 index) public view returns (address) {... */\n    tag_8:\n      callvalue\n      dup1\n      iszero\n      tag_49\n      jumpi\n      0x00\n      dup1\n      revert\n    tag_49:\n      pop\n      tag_50\n      0x04\n      dup1\n      calldatasize\n      sub\n      dup2\n      add\n      swap1\n      tag_51\n      swap2\n      swap1\n      tag_52\n      jump\t// in\n    tag_51:\n      tag_53\n      jump\t// in\n    tag_50:\n      mload(0x40)\n      tag_54\n      swap2\n      swap1\n      tag_55\n      jump\t// in\n    tag_54:\n      mload(0x40)\n      dup1\n      swap2\n      sub\n      swap1\n      return\n        /* \"@openzeppelin/contracts/access/Ownable.sol\":1036:1121  function owner() public view virtual returns (address) {... */\n    tag_9:\n      callvalue\n      dup1\n      iszero\n      tag_56\n      jumpi\n      0x00\n      dup1\n      revert\n    tag_56:\n      pop\n      tag_57\n      tag_58\n      jump\t// in\n    tag_57:\n      mload(0x40)\n      tag_59\n      swap2\n      swap1\n      tag_55\n      jump\t// in\n    tag_59:\n      mload(0x40)\n      dup1\n      swap2\n      sub\n      swap1\n      return\n        /* \"@openzeppelin/contracts/finance/PaymentSplitter.sol\":4196:4303  function released(address account) public view returns (uint256) {... */\n    tag_10:\n      callvalue\n      dup1\n      iszero\n      tag_60\n      jumpi\n      0x00\n      dup1\n      revert\n    tag_60:\n      pop\n      tag_61\n      0x04\n      dup1\n      calldatasize\n      sub\n      dup2\n      add\n      swap1\n      tag_62\n      swap2\n      swap1\n      tag_63\n      jump\t// in\n    tag_62:\n      tag_64\n      jump\t// in\n    tag_61:\n      mload(0x40)\n      tag_65\n      swap2\n      swap1\n      tag_35\n      jump\t// in\n    tag_65:\n      mload(0x40)\n      dup1\n      swap2\n      sub\n      swap1\n      return\n        /* \"contracts/HACHIWallet.sol\":499:586  function easyRelease() public {... */\n    tag_11:\n      callvalue\n      dup1\n      iszero\n      tag_66\n      jumpi\n      0x00\n      dup1\n      revert\n    tag_66:\n      pop\n      tag_67\n      tag_68\n      jump\t// in\n    tag_67:\n      stop\n        /* \"@openzeppelin/contracts/finance/PaymentSplitter.sol\":3999:4102  function shares(address account) public view returns (uint256) {... */\n    tag_12:\n      callvalue\n      dup1\n      iszero\n      tag_69\n      jumpi\n      0x00\n      dup1\n      revert\n    tag_69:\n      pop\n      tag_70\n      0x04\n      dup1\n      calldatasize\n      sub\n      dup2\n      add\n      swap1\n      tag_71\n      swap2\n      swap1\n      tag_63\n      jump\t// in\n    tag_71:\n      tag_72\n      jump\t// in\n    tag_70:\n      mload(0x40)\n      tag_73\n      swap2\n      swap1\n      tag_35\n      jump\t// in\n    tag_73:\n      mload(0x40)\n      dup1\n      swap2\n      sub\n      swap1\n      return\n        /* \"@openzeppelin/contracts/finance/PaymentSplitter.sol\":3796:3913  function totalReleased(IERC20 token) public view returns (uint256) {... */\n    tag_13:\n      callvalue\n      dup1\n      iszero\n      tag_74\n      jumpi\n      0x00\n      dup1\n      revert\n    tag_74:\n      pop\n      tag_75\n      0x04\n      dup1\n      calldatasize\n      sub\n      dup2\n      add\n      swap1\n      tag_76\n      swap2\n      swap1\n      tag_77\n      jump\t// in\n    tag_76:\n      tag_78\n      jump\t// in\n    tag_75:\n      mload(0x40)\n      tag_79\n      swap2\n      swap1\n      tag_35\n      jump\t// in\n    tag_79:\n      mload(0x40)\n      dup1\n      swap2\n      sub\n      swap1\n      return\n        /* \"@openzeppelin/contracts/finance/PaymentSplitter.sol\":3552:3645  function totalReleased() public view returns (uint256) {... */\n    tag_14:\n      callvalue\n      dup1\n      iszero\n      tag_80\n      jumpi\n      0x00\n      dup1\n      revert\n    tag_80:\n      pop\n      tag_81\n      tag_82\n      jump\t// in\n    tag_81:\n      mload(0x40)\n      tag_83\n      swap2\n      swap1\n      tag_35\n      jump\t// in\n    tag_83:\n      mload(0x40)\n      dup1\n      swap2\n      sub\n      swap1\n      return\n        /* \"contracts/HACHIWallet.sol\":592:638  function viewBalanceOwed() public view {... */\n    tag_15:\n      callvalue\n      dup1\n      iszero\n      tag_84\n      jumpi\n      0x00\n      dup1\n      revert\n    tag_84:\n      pop\n      tag_85\n      tag_86\n      jump\t// in\n    tag_85:\n      stop\n        /* \"@openzeppelin/contracts/access/Ownable.sol\":1918:2116  function transferOwnership(address newOwner) public virtual onlyOwner {... */\n    tag_16:\n      callvalue\n      dup1\n      iszero\n      tag_87\n      jumpi\n      0x00\n      dup1\n      revert\n    tag_87:\n      pop\n      tag_88\n      0x04\n      dup1\n      calldatasize\n      sub\n      dup2\n      add\n      swap1\n      tag_89\n      swap2\n      swap1\n      tag_63\n      jump\t// in\n    tag_89:\n      tag_90\n      jump\t// in\n    tag_88:\n      stop\n        /* \"@openzeppelin/contracts/utils/Context.sol\":640:736  function _msgSender() internal view virtual returns (address) {... */\n    tag_23:\n        /* \"@openzeppelin/contracts/utils/Context.sol\":693:700  address */\n      0x00\n        /* \"@openzeppelin/contracts/utils/Context.sol\":719:729  msg.sender */\n      caller\n        /* \"@openzeppelin/contracts/utils/Context.sol\":712:729  return msg.sender */\n      swap1\n      pop\n        /* \"@openzeppelin/contracts/utils/Context.sol\":640:736  function _msgSender() internal view virtual returns (address) {... */\n      swap1\n      jump\t// out\n        /* \"contracts/HACHIWallet.sol\":379:493  function release(address payable account) public override(PaymentSplitter) {... */\n    tag_30:\n        /* \"contracts/HACHIWallet.sol\":464:486  super.release(account) */\n      tag_93\n        /* \"contracts/HACHIWallet.sol\":478:485  account */\n      dup2\n        /* \"contracts/HACHIWallet.sol\":464:477  super.release */\n      tag_94\n        /* \"contracts/HACHIWallet.sol\":464:486  super.release(account) */\n      jump\t// in\n    tag_93:\n        /* \"contracts/HACHIWallet.sol\":379:493  function release(address payable account) public override(PaymentSplitter) {... */\n      pop\n      jump\t// out\n        /* \"@openzeppelin/contracts/finance/PaymentSplitter.sol\":3374:3463  function totalShares() public view returns (uint256) {... */\n    tag_33:\n        /* \"@openzeppelin/contracts/finance/PaymentSplitter.sol\":3418:3425  uint256 */\n      0x00\n        /* \"@openzeppelin/contracts/finance/PaymentSplitter.sol\":3444:3456  _totalShares */\n      dup1\n      sload\n        /* \"@openzeppelin/contracts/finance/PaymentSplitter.sol\":3437:3456  return _totalShares */\n      swap1\n      pop\n        /* \"@openzeppelin/contracts/finance/PaymentSplitter.sol\":3374:3463  function totalShares() public view returns (uint256) {... */\n      swap1\n      jump\t// out\n        /* \"@openzeppelin/contracts/finance/PaymentSplitter.sol\":4466:4599  function released(IERC20 token, address account) public view returns (uint256) {... */\n    tag_40:\n        /* \"@openzeppelin/contracts/finance/PaymentSplitter.sol\":4536:4543  uint256 */\n      0x00\n        /* \"@openzeppelin/contracts/finance/PaymentSplitter.sol\":4562:4576  _erc20Released */\n      0x06\n        /* \"@openzeppelin/contracts/finance/PaymentSplitter.sol\":4562:4583  _erc20Released[token] */\n      0x00\n        /* \"@openzeppelin/contracts/finance/PaymentSplitter.sol\":4577:4582  token */\n      dup5\n        /* \"@openzeppelin/contracts/finance/PaymentSplitter.sol\":4562:4583  _erc20Released[token] */\n      0xffffffffffffffffffffffffffffffffffffffff\n      and\n      0xffffffffffffffffffffffffffffffffffffffff\n      and\n      dup2\n      mstore\n      0x20\n      add\n      swap1\n      dup2\n      mstore\n      0x20\n      add\n      0x00\n      keccak256\n        /* \"@openzeppelin/contracts/finance/PaymentSplitter.sol\":4562:4592  _erc20Released[token][account] */\n      0x00\n        /* \"@openzeppelin/contracts/finance/PaymentSplitter.sol\":4584:4591  account */\n      dup4\n        /* \"@openzeppelin/contracts/finance/PaymentSplitter.sol\":4562:4592  _erc20Released[token][account] */\n      0xffffffffffffffffffffffffffffffffffffffff\n      and\n      0xffffffffffffffffffffffffffffffffffffffff\n      and\n      dup2\n      mstore\n      0x20\n      add\n      swap1\n      dup2\n      mstore\n      0x20\n      add\n      0x00\n      keccak256\n      sload\n        /* \"@openzeppelin/contracts/finance/PaymentSplitter.sol\":4555:4592  return _erc20Released[token][account] */\n      swap1\n      pop\n        /* \"@openzeppelin/contracts/finance/PaymentSplitter.sol\":4466:4599  function released(IERC20 token, address account) public view returns (uint256) {... */\n      swap3\n      swap2\n      pop\n      pop\n      jump\t// out\n        /* \"@openzeppelin/contracts/finance/PaymentSplitter.sol\":5791:6419  function release(IERC20 token, address account) public virtual {... */\n    tag_45:\n        /* \"@openzeppelin/contracts/finance/PaymentSplitter.sol\":5891:5892  0 */\n      0x00\n        /* \"@openzeppelin/contracts/finance/PaymentSplitter.sol\":5872:5879  _shares */\n      0x02\n        /* \"@openzeppelin/contracts/finance/PaymentSplitter.sol\":5872:5888  _shares[account] */\n      0x00\n        /* \"@openzeppelin/contracts/finance/PaymentSplitter.sol\":5880:5887  account */\n      dup4\n        /* \"@openzeppelin/contracts/finance/PaymentSplitter.sol\":5872:5888  _shares[account] */\n      0xffffffffffffffffffffffffffffffffffffffff\n      and\n      0xffffffffffffffffffffffffffffffffffffffff\n      and\n      dup2\n      mstore\n      0x20\n      add\n      swap1\n      dup2\n      mstore\n      0x20\n      add\n      0x00\n      keccak256\n      sload\n        /* \"@openzeppelin/contracts/finance/PaymentSplitter.sol\":5872:5892  _shares[account] > 0 */\n      gt\n        /* \"@openzeppelin/contracts/finance/PaymentSplitter.sol\":5864:5935  require(_shares[account] > 0, \"PaymentSplitter: account has no shares\") */\n      tag_98\n      jumpi\n      mload(0x40)\n      0x08c379a000000000000000000000000000000000000000000000000000000000\n      dup2\n      mstore\n      0x04\n      add\n      tag_99\n      swap1\n      tag_100\n      jump\t// in\n    tag_99:\n      mload(0x40)\n      dup1\n      swap2\n      sub\n      swap1\n      revert\n    tag_98:\n        /* \"@openzeppelin/contracts/finance/PaymentSplitter.sol\":5946:5967  uint256 totalReceived */\n      0x00\n        /* \"@openzeppelin/contracts/finance/PaymentSplitter.sol\":6003:6023  totalReleased(token) */\n      tag_101\n        /* \"@openzeppelin/contracts/finance/PaymentSplitter.sol\":6017:6022  token */\n      dup4\n        /* \"@openzeppelin/contracts/finance/PaymentSplitter.sol\":6003:6016  totalReleased */\n      tag_78\n        /* \"@openzeppelin/contracts/finance/PaymentSplitter.sol\":6003:6023  totalReleased(token) */\n      jump\t// in\n    tag_101:\n        /* \"@openzeppelin/contracts/finance/PaymentSplitter.sol\":5970:5975  token */\n      dup4\n        /* \"@openzeppelin/contracts/finance/PaymentSplitter.sol\":5970:5985  token.balanceOf */\n      0xffffffffffffffffffffffffffffffffffffffff\n      and\n      0x70a08231\n        /* \"@openzeppelin/contracts/finance/PaymentSplitter.sol\":5994:5998  this */\n      address\n        /* \"@openzeppelin/contracts/finance/PaymentSplitter.sol\":5970:6000  token.balanceOf(address(this)) */\n      mload(0x40)\n      dup3\n      0xffffffff\n      and\n      0xe0\n      shl\n      dup2\n      mstore\n      0x04\n      add\n      tag_102\n      swap2\n      swap1\n      tag_55\n      jump\t// in\n    tag_102:\n      0x20\n      mload(0x40)\n      dup1\n      dup4\n      sub\n      dup2\n      dup7\n      gas\n      staticcall\n      iszero\n      dup1\n      iszero\n      tag_104\n      jumpi\n      returndatasize\n      0x00\n      dup1\n      returndatacopy\n      revert(0x00, returndatasize)\n    tag_104:\n      pop\n      pop\n      pop\n      pop\n      mload(0x40)\n      returndatasize\n      not(0x1f)\n      0x1f\n      dup3\n      add\n      and\n      dup3\n      add\n      dup1\n      0x40\n      mstore\n      pop\n      dup2\n      add\n      swap1\n      tag_105\n      swap2\n      swap1\n      tag_106\n      jump\t// in\n    tag_105:\n        /* \"@openzeppelin/contracts/finance/PaymentSplitter.sol\":5970:6023  token.balanceOf(address(this)) + totalReleased(token) */\n      tag_107\n      swap2\n      swap1\n      tag_108\n      jump\t// in\n    tag_107:\n        /* \"@openzeppelin/contracts/finance/PaymentSplitter.sol\":5946:6023  uint256 totalReceived = token.balanceOf(address(this)) + totalReleased(token) */\n      swap1\n      pop\n        /* \"@openzeppelin/contracts/finance/PaymentSplitter.sol\":6033:6048  uint256 payment */\n      0x00\n        /* \"@openzeppelin/contracts/finance/PaymentSplitter.sol\":6051:6116  _pendingPayment(account, totalReceived, released(token, account)) */\n      tag_109\n        /* \"@openzeppelin/contracts/finance/PaymentSplitter.sol\":6067:6074  account */\n      dup4\n        /* \"@openzeppelin/contracts/finance/PaymentSplitter.sol\":6076:6089  totalReceived */\n      dup4\n        /* \"@openzeppelin/contracts/finance/PaymentSplitter.sol\":6091:6115  released(token, account) */\n      tag_110\n        /* \"@openzeppelin/contracts/finance/PaymentSplitter.sol\":6100:6105  token */\n      dup8\n        /* \"@openzeppelin/contracts/finance/PaymentSplitter.sol\":6107:6114  account */\n      dup8\n        /* \"@openzeppelin/contracts/finance/PaymentSplitter.sol\":6091:6099  released */\n      tag_40\n        /* \"@openzeppelin/contracts/finance/PaymentSplitter.sol\":6091:6115  released(token, account) */\n      jump\t// in\n    tag_110:\n        /* \"@openzeppelin/contracts/finance/PaymentSplitter.sol\":6051:6066  _pendingPayment */\n      tag_111\n        /* \"@openzeppelin/contracts/finance/PaymentSplitter.sol\":6051:6116  _pendingPayment(account, totalReceived, released(token, account)) */\n      jump\t// in\n    tag_109:\n        /* \"@openzeppelin/contracts/finance/PaymentSplitter.sol\":6033:6116  uint256 payment = _pendingPayment(account, totalReceived, released(token, account)) */\n      swap1\n      pop\n        /* \"@openzeppelin/contracts/finance/PaymentSplitter.sol\":6146:6147  0 */\n      0x00\n        /* \"@openzeppelin/contracts/finance/PaymentSplitter.sol\":6135:6142  payment */\n      dup2\n        /* \"@openzeppelin/contracts/finance/PaymentSplitter.sol\":6135:6147  payment != 0 */\n      sub\n        /* \"@openzeppelin/contracts/finance/PaymentSplitter.sol\":6127:6195  require(payment != 0, \"PaymentSplitter: account is not due payment\") */\n      tag_112\n      jumpi\n      mload(0x40)\n      0x08c379a000000000000000000000000000000000000000000000000000000000\n      dup2\n      mstore\n      0x04\n      add\n      tag_113\n      swap1\n      tag_114\n      jump\t// in\n    tag_113:\n      mload(0x40)\n      dup1\n      swap2\n      sub\n      swap1\n      revert\n    tag_112:\n        /* \"@openzeppelin/contracts/finance/PaymentSplitter.sol\":6240:6247  payment */\n      dup1\n        /* \"@openzeppelin/contracts/finance/PaymentSplitter.sol\":6206:6220  _erc20Released */\n      0x06\n        /* \"@openzeppelin/contracts/finance/PaymentSplitter.sol\":6206:6227  _erc20Released[token] */\n      0x00\n        /* \"@openzeppelin/contracts/finance/PaymentSplitter.sol\":6221:6226  token */\n      dup7\n        /* \"@openzeppelin/contracts/finance/PaymentSplitter.sol\":6206:6227  _erc20Released[token] */\n      0xffffffffffffffffffffffffffffffffffffffff\n      and\n      0xffffffffffffffffffffffffffffffffffffffff\n      and\n      dup2\n      mstore\n      0x20\n      add\n      swap1\n      dup2\n      mstore\n      0x20\n      add\n      0x00\n      keccak256\n        /* \"@openzeppelin/contracts/finance/PaymentSplitter.sol\":6206:6236  _erc20Released[token][account] */\n      0x00\n        /* \"@openzeppelin/contracts/finance/PaymentSplitter.sol\":6228:6235  account */\n      dup6\n        /* \"@openzeppelin/contracts/finance/PaymentSplitter.sol\":6206:6236  _erc20Released[token][account] */\n      0xffffffffffffffffffffffffffffffffffffffff\n      and\n      0xffffffffffffffffffffffffffffffffffffffff\n      and\n      dup2\n      mstore\n      0x20\n      add\n      swap1\n      dup2\n      mstore\n      0x20\n      add\n      0x00\n      keccak256\n      0x00\n        /* \"@openzeppelin/contracts/finance/PaymentSplitter.sol\":6206:6247  _erc20Released[token][account] += payment */\n      dup3\n      dup3\n      sload\n      tag_115\n      swap2\n      swap1\n      tag_108\n      jump\t// in\n    tag_115:\n      swap3\n      pop\n      pop\n      dup2\n      swap1\n      sstore\n      pop\n        /* \"@openzeppelin/contracts/finance/PaymentSplitter.sol\":6287:6294  payment */\n      dup1\n        /* \"@openzeppelin/contracts/finance/PaymentSplitter.sol\":6257:6276  _erc20TotalReleased */\n      0x05\n        /* \"@openzeppelin/contracts/finance/PaymentSplitter.sol\":6257:6283  _erc20TotalReleased[token] */\n      0x00\n        /* \"@openzeppelin/contracts/finance/PaymentSplitter.sol\":6277:6282  token */\n      dup7\n        /* \"@openzeppelin/contracts/finance/PaymentSplitter.sol\":6257:6283  _erc20TotalReleased[token] */\n      0xffffffffffffffffffffffffffffffffffffffff\n      and\n      0xffffffffffffffffffffffffffffffffffffffff\n      and\n      dup2\n      mstore\n      0x20\n      add\n      swap1\n      dup2\n      mstore\n      0x20\n      add\n      0x00\n      keccak256\n      0x00\n        /* \"@openzeppelin/contracts/finance/PaymentSplitter.sol\":6257:6294  _erc20TotalReleased[token] += payment */\n      dup3\n      dup3\n      sload\n      tag_116\n      swap2\n      swap1\n      tag_108\n      jump\t// in\n    tag_116:\n      swap3\n      pop\n      pop\n      dup2\n      swap1\n      sstore\n      pop\n        /* \"@openzeppelin/contracts/finance/PaymentSplitter.sol\":6305:6352  SafeERC20.safeTransfer(token, account, payment) */\n      tag_117\n        /* \"@openzeppelin/contracts/finance/PaymentSplitter.sol\":6328:6333  token */\n      dup5\n        /* \"@openzeppelin/contracts/finance/PaymentSplitter.sol\":6335:6342  account */\n      dup5\n        /* \"@openzeppelin/contracts/finance/PaymentSplitter.sol\":6344:6351  payment */\n      dup4\n        /* \"@openzeppelin/contracts/finance/PaymentSplitter.sol\":6305:6327  SafeERC20.safeTransfer */\n      tag_118\n        /* \"@openzeppelin/contracts/finance/PaymentSplitter.sol\":6305:6352  SafeERC20.safeTransfer(token, account, payment) */\n      jump\t// in\n    tag_117:\n        /* \"@openzeppelin/contracts/finance/PaymentSplitter.sol\":6388:6393  token */\n      dup4\n        /* \"@openzeppelin/contracts/finance/PaymentSplitter.sol\":6367:6412  ERC20PaymentReleased(token, account, payment) */\n      0xffffffffffffffffffffffffffffffffffffffff\n      and\n      0x3be5b7a71e84ed12875d241991c70855ac5817d847039e17a9d895c1ceb0f18a\n        /* \"@openzeppelin/contracts/finance/PaymentSplitter.sol\":6395:6402  account */\n      dup5\n        /* \"@openzeppelin/contracts/finance/PaymentSplitter.sol\":6404:6411  payment */\n      dup4\n        /* \"@openzeppelin/contracts/finance/PaymentSplitter.sol\":6367:6412  ERC20PaymentReleased(token, account, payment) */\n      mload(0x40)\n      tag_119\n      swap3\n      swap2\n      swap1\n      tag_25\n      jump\t// in\n    tag_119:\n      mload(0x40)\n      dup1\n      swap2\n      sub\n      swap1\n      log2\n        /* \"@openzeppelin/contracts/finance/PaymentSplitter.sol\":5854:6419  {... */\n      pop\n      pop\n        /* \"@openzeppelin/contracts/finance/PaymentSplitter.sol\":5791:6419  function release(IERC20 token, address account) public virtual {... */\n      pop\n      pop\n      jump\t// out\n        /* \"@openzeppelin/contracts/access/Ownable.sol\":1668:1769  function renounceOwnership() public virtual onlyOwner {... */\n    tag_48:\n        /* \"@openzeppelin/contracts/access/Ownable.sol\":1259:1271  _msgSender() */\n      tag_121\n        /* \"@openzeppelin/contracts/access/Ownable.sol\":1259:1269  _msgSender */\n      tag_23\n        /* \"@openzeppelin/contracts/access/Ownable.sol\":1259:1271  _msgSender() */\n      jump\t// in\n    tag_121:\n        /* \"@openzeppelin/contracts/access/Ownable.sol\":1248:1271  owner() == _msgSender() */\n      0xffffffffffffffffffffffffffffffffffffffff\n      and\n        /* \"@openzeppelin/contracts/access/Ownable.sol\":1248:1255  owner() */\n      tag_122\n        /* \"@openzeppelin/contracts/access/Ownable.sol\":1248:1253  owner */\n      tag_58\n        /* \"@openzeppelin/contracts/access/Ownable.sol\":1248:1255  owner() */\n      jump\t// in\n    tag_122:\n        /* \"@openzeppelin/contracts/access/Ownable.sol\":1248:1271  owner() == _msgSender() */\n      0xffffffffffffffffffffffffffffffffffffffff\n      and\n      eq\n        /* \"@openzeppelin/contracts/access/Ownable.sol\":1240:1308  require(owner() == _msgSender(), \"Ownable: caller is not the owner\") */\n      tag_123\n      jumpi\n      mload(0x40)\n      0x08c379a000000000000000000000000000000000000000000000000000000000\n      dup2\n      mstore\n      0x04\n      add\n      tag_124\n      swap1\n      tag_125\n      jump\t// in\n    tag_124:\n      mload(0x40)\n      dup1\n      swap2\n      sub\n      swap1\n      revert\n    tag_123:\n        /* \"@openzeppelin/contracts/access/Ownable.sol\":1732:1762  _transferOwnership(address(0)) */\n      tag_127\n        /* \"@openzeppelin/contracts/access/Ownable.sol\":1759:1760  0 */\n      0x00\n        /* \"@openzeppelin/contracts/access/Ownable.sol\":1732:1750  _transferOwnership */\n      tag_128\n        /* \"@openzeppelin/contracts/access/Ownable.sol\":1732:1762  _transferOwnership(address(0)) */\n      jump\t// in\n    tag_127:\n        /* \"@openzeppelin/contracts/access/Ownable.sol\":1668:1769  function renounceOwnership() public virtual onlyOwner {... */\n      jump\t// out\n        /* \"@openzeppelin/contracts/finance/PaymentSplitter.sol\":4685:4783  function payee(uint256 index) public view returns (address) {... */\n    tag_53:\n        /* \"@openzeppelin/contracts/finance/PaymentSplitter.sol\":4736:4743  address */\n      0x00\n        /* \"@openzeppelin/contracts/finance/PaymentSplitter.sol\":4762:4769  _payees */\n      0x04\n        /* \"@openzeppelin/contracts/finance/PaymentSplitter.sol\":4770:4775  index */\n      dup3\n        /* \"@openzeppelin/contracts/finance/PaymentSplitter.sol\":4762:4776  _payees[index] */\n      dup2\n      sload\n      dup2\n      lt\n      tag_130\n      jumpi\n      tag_131\n      tag_132\n      jump\t// in\n    tag_131:\n    tag_130:\n      swap1\n      0x00\n      mstore\n      keccak256(0x00, 0x20)\n      add\n      0x00\n      swap1\n      sload\n      swap1\n      0x0100\n      exp\n      swap1\n      div\n      0xffffffffffffffffffffffffffffffffffffffff\n      and\n        /* \"@openzeppelin/contracts/finance/PaymentSplitter.sol\":4755:4776  return _payees[index] */\n      swap1\n      pop\n        /* \"@openzeppelin/contracts/finance/PaymentSplitter.sol\":4685:4783  function payee(uint256 index) public view returns (address) {... */\n      swap2\n      swap1\n      pop\n      jump\t// out\n        /* \"@openzeppelin/contracts/access/Ownable.sol\":1036:1121  function owner() public view virtual returns (address) {... */\n    tag_58:\n        /* \"@openzeppelin/contracts/access/Ownable.sol\":1082:1089  address */\n      0x00\n        /* \"@openzeppelin/contracts/access/Ownable.sol\":1108:1114  _owner */\n      0x07\n      0x00\n      swap1\n      sload\n      swap1\n      0x0100\n      exp\n      swap1\n      div\n      0xffffffffffffffffffffffffffffffffffffffff\n      and\n        /* \"@openzeppelin/contracts/access/Ownable.sol\":1101:1114  return _owner */\n      swap1\n      pop\n        /* \"@openzeppelin/contracts/access/Ownable.sol\":1036:1121  function owner() public view virtual returns (address) {... */\n      swap1\n      jump\t// out\n        /* \"@openzeppelin/contracts/finance/PaymentSplitter.sol\":4196:4303  function released(address account) public view returns (uint256) {... */\n    tag_64:\n        /* \"@openzeppelin/contracts/finance/PaymentSplitter.sol\":4252:4259  uint256 */\n      0x00\n        /* \"@openzeppelin/contracts/finance/PaymentSplitter.sol\":4278:4287  _released */\n      0x03\n        /* \"@openzeppelin/contracts/finance/PaymentSplitter.sol\":4278:4296  _released[account] */\n      0x00\n        /* \"@openzeppelin/contracts/finance/PaymentSplitter.sol\":4288:4295  account */\n      dup4\n        /* \"@openzeppelin/contracts/finance/PaymentSplitter.sol\":4278:4296  _released[account] */\n      0xffffffffffffffffffffffffffffffffffffffff\n      and\n      0xffffffffffffffffffffffffffffffffffffffff\n      and\n      dup2\n      mstore\n      0x20\n      add\n      swap1\n      dup2\n      mstore\n      0x20\n      add\n      0x00\n      keccak256\n      sload\n        /* \"@openzeppelin/contracts/finance/PaymentSplitter.sol\":4271:4296  return _released[account] */\n      swap1\n      pop\n        /* \"@openzeppelin/contracts/finance/PaymentSplitter.sol\":4196:4303  function released(address account) public view returns (uint256) {... */\n      swap2\n      swap1\n      pop\n      jump\t// out\n        /* \"contracts/HACHIWallet.sol\":499:586  function easyRelease() public {... */\n    tag_68:\n        /* \"contracts/HACHIWallet.sol\":539:579  HachiWallet.release(payable(msg.sender)) */\n      tag_137\n        /* \"contracts/HACHIWallet.sol\":567:577  msg.sender */\n      caller\n        /* \"contracts/HACHIWallet.sol\":539:558  HachiWallet.release */\n      tag_30\n        /* \"contracts/HACHIWallet.sol\":539:579  HachiWallet.release(payable(msg.sender)) */\n      jump\t// in\n    tag_137:\n        /* \"contracts/HACHIWallet.sol\":499:586  function easyRelease() public {... */\n      jump\t// out\n        /* \"@openzeppelin/contracts/finance/PaymentSplitter.sol\":3999:4102  function shares(address account) public view returns (uint256) {... */\n    tag_72:\n        /* \"@openzeppelin/contracts/finance/PaymentSplitter.sol\":4053:4060  uint256 */\n      0x00\n        /* \"@openzeppelin/contracts/finance/PaymentSplitter.sol\":4079:4086  _shares */\n      0x02\n        /* \"@openzeppelin/contracts/finance/PaymentSplitter.sol\":4079:4095  _shares[account] */\n      0x00\n        /* \"@openzeppelin/contracts/finance/PaymentSplitter.sol\":4087:4094  account */\n      dup4\n        /* \"@openzeppelin/contracts/finance/PaymentSplitter.sol\":4079:4095  _shares[account] */\n      0xffffffffffffffffffffffffffffffffffffffff\n      and\n      0xffffffffffffffffffffffffffffffffffffffff\n      and\n      dup2\n      mstore\n      0x20\n      add\n      swap1\n      dup2\n      mstore\n      0x20\n      add\n      0x00\n      keccak256\n      sload\n        /* \"@openzeppelin/contracts/finance/PaymentSplitter.sol\":4072:4095  return _shares[account] */\n      swap1\n      pop\n        /* \"@openzeppelin/contracts/finance/PaymentSplitter.sol\":3999:4102  function shares(address account) public view returns (uint256) {... */\n      swap2\n      swap1\n      pop\n      jump\t// out\n        /* \"@openzeppelin/contracts/finance/PaymentSplitter.sol\":3796:3913  function totalReleased(IERC20 token) public view returns (uint256) {... */\n    tag_78:\n        /* \"@openzeppelin/contracts/finance/PaymentSplitter.sol\":3854:3861  uint256 */\n      0x00\n        /* \"@openzeppelin/contracts/finance/PaymentSplitter.sol\":3880:3899  _erc20TotalReleased */\n      0x05\n        /* \"@openzeppelin/contracts/finance/PaymentSplitter.sol\":3880:3906  _erc20TotalReleased[token] */\n      0x00\n        /* \"@openzeppelin/contracts/finance/PaymentSplitter.sol\":3900:3905  token */\n      dup4\n        /* \"@openzeppelin/contracts/finance/PaymentSplitter.sol\":3880:3906  _erc20TotalReleased[token] */\n      0xffffffffffffffffffffffffffffffffffffffff\n      and\n      0xffffffffffffffffffffffffffffffffffffffff\n      and\n      dup2\n      mstore\n      0x20\n      add\n      swap1\n      dup2\n      mstore\n      0x20\n      add\n      0x00\n      keccak256\n      sload\n        /* \"@openzeppelin/contracts/finance/PaymentSplitter.sol\":3873:3906  return _erc20TotalReleased[token] */\n      swap1\n      pop\n        /* \"@openzeppelin/contracts/finance/PaymentSplitter.sol\":3796:3913  function totalReleased(IERC20 token) public view returns (uint256) {... */\n      swap2\n      swap1\n      pop\n      jump\t// out\n        /* \"@openzeppelin/contracts/finance/PaymentSplitter.sol\":3552:3645  function totalReleased() public view returns (uint256) {... */\n    tag_82:\n        /* \"@openzeppelin/contracts/finance/PaymentSplitter.sol\":3598:3605  uint256 */\n      0x00\n        /* \"@openzeppelin/contracts/finance/PaymentSplitter.sol\":3624:3638  _totalReleased */\n      sload(0x01)\n        /* \"@openzeppelin/contracts/finance/PaymentSplitter.sol\":3617:3638  return _totalReleased */\n      swap1\n      pop\n        /* \"@openzeppelin/contracts/finance/PaymentSplitter.sol\":3552:3645  function totalReleased() public view returns (uint256) {... */\n      swap1\n      jump\t// out\n        /* \"contracts/HACHIWallet.sol\":592:638  function viewBalanceOwed() public view {... */\n    tag_86:\n      jump\t// out\n        /* \"@openzeppelin/contracts/access/Ownable.sol\":1918:2116  function transferOwnership(address newOwner) public virtual onlyOwner {... */\n    tag_90:\n        /* \"@openzeppelin/contracts/access/Ownable.sol\":1259:1271  _msgSender() */\n      tag_143\n        /* \"@openzeppelin/contracts/access/Ownable.sol\":1259:1269  _msgSender */\n      tag_23\n        /* \"@openzeppelin/contracts/access/Ownable.sol\":1259:1271  _msgSender() */\n      jump\t// in\n    tag_143:\n        /* \"@openzeppelin/contracts/access/Ownable.sol\":1248:1271  owner() == _msgSender() */\n      0xffffffffffffffffffffffffffffffffffffffff\n      and\n        /* \"@openzeppelin/contracts/access/Ownable.sol\":1248:1255  owner() */\n      tag_144\n        /* \"@openzeppelin/contracts/access/Ownable.sol\":1248:1253  owner */\n      tag_58\n        /* \"@openzeppelin/contracts/access/Ownable.sol\":1248:1255  owner() */\n      jump\t// in\n    tag_144:\n        /* \"@openzeppelin/contracts/access/Ownable.sol\":1248:1271  owner() == _msgSender() */\n      0xffffffffffffffffffffffffffffffffffffffff\n      and\n      eq\n        /* \"@openzeppelin/contracts/access/Ownable.sol\":1240:1308  require(owner() == _msgSender(), \"Ownable: caller is not the owner\") */\n      tag_145\n      jumpi\n      mload(0x40)\n      0x08c379a000000000000000000000000000000000000000000000000000000000\n      dup2\n      mstore\n      0x04\n      add\n      tag_146\n      swap1\n      tag_125\n      jump\t// in\n    tag_146:\n      mload(0x40)\n      dup1\n      swap2\n      sub\n      swap1\n      revert\n    tag_145:\n        /* \"@openzeppelin/contracts/access/Ownable.sol\":2026:2027  0 */\n      0x00\n        /* \"@openzeppelin/contracts/access/Ownable.sol\":2006:2028  newOwner != address(0) */\n      0xffffffffffffffffffffffffffffffffffffffff\n      and\n        /* \"@openzeppelin/contracts/access/Ownable.sol\":2006:2014  newOwner */\n      dup2\n        /* \"@openzeppelin/contracts/access/Ownable.sol\":2006:2028  newOwner != address(0) */\n      0xffffffffffffffffffffffffffffffffffffffff\n      and\n      sub\n        /* \"@openzeppelin/contracts/access/Ownable.sol\":1998:2071  require(newOwner != address(0), \"Ownable: new owner is the zero address\") */\n      tag_148\n      jumpi\n      mload(0x40)\n      0x08c379a000000000000000000000000000000000000000000000000000000000\n      dup2\n      mstore\n      0x04\n      add\n      tag_149\n      swap1\n      tag_150\n      jump\t// in\n    tag_149:\n      mload(0x40)\n      dup1\n      swap2\n      sub\n      swap1\n      revert\n    tag_148:\n        /* \"@openzeppelin/contracts/access/Ownable.sol\":2081:2109  _transferOwnership(newOwner) */\n      tag_151\n        /* \"@openzeppelin/contracts/access/Ownable.sol\":2100:2108  newOwner */\n      dup2\n        /* \"@openzeppelin/contracts/access/Ownable.sol\":2081:2099  _transferOwnership */\n      tag_128\n        /* \"@openzeppelin/contracts/access/Ownable.sol\":2081:2109  _transferOwnership(newOwner) */\n      jump\t// in\n    tag_151:\n        /* \"@openzeppelin/contracts/access/Ownable.sol\":1918:2116  function transferOwnership(address newOwner) public virtual onlyOwner {... */\n      pop\n      jump\t// out\n        /* \"@openzeppelin/contracts/finance/PaymentSplitter.sol\":4977:5530  function release(address payable account) public virtual {... */\n    tag_94:\n        /* \"@openzeppelin/contracts/finance/PaymentSplitter.sol\":5071:5072  0 */\n      0x00\n        /* \"@openzeppelin/contracts/finance/PaymentSplitter.sol\":5052:5059  _shares */\n      0x02\n        /* \"@openzeppelin/contracts/finance/PaymentSplitter.sol\":5052:5068  _shares[account] */\n      0x00\n        /* \"@openzeppelin/contracts/finance/PaymentSplitter.sol\":5060:5067  account */\n      dup4\n        /* \"@openzeppelin/contracts/finance/PaymentSplitter.sol\":5052:5068  _shares[account] */\n      0xffffffffffffffffffffffffffffffffffffffff\n      and\n      0xffffffffffffffffffffffffffffffffffffffff\n      and\n      dup2\n      mstore\n      0x20\n      add\n      swap1\n      dup2\n      mstore\n      0x20\n      add\n      0x00\n      keccak256\n      sload\n        /* \"@openzeppelin/contracts/finance/PaymentSplitter.sol\":5052:5072  _shares[account] > 0 */\n      gt\n        /* \"@openzeppelin/contracts/finance/PaymentSplitter.sol\":5044:5115  require(_shares[account] > 0, \"PaymentSplitter: account has no shares\") */\n      tag_153\n      jumpi\n      mload(0x40)\n      0x08c379a000000000000000000000000000000000000000000000000000000000\n      dup2\n      mstore\n      0x04\n      add\n      tag_154\n      swap1\n      tag_100\n      jump\t// in\n    tag_154:\n      mload(0x40)\n      dup1\n      swap2\n      sub\n      swap1\n      revert\n    tag_153:\n        /* \"@openzeppelin/contracts/finance/PaymentSplitter.sol\":5126:5147  uint256 totalReceived */\n      0x00\n        /* \"@openzeppelin/contracts/finance/PaymentSplitter.sol\":5174:5189  totalReleased() */\n      tag_155\n        /* \"@openzeppelin/contracts/finance/PaymentSplitter.sol\":5174:5187  totalReleased */\n      tag_82\n        /* \"@openzeppelin/contracts/finance/PaymentSplitter.sol\":5174:5189  totalReleased() */\n      jump\t// in\n    tag_155:\n        /* \"@openzeppelin/contracts/finance/PaymentSplitter.sol\":5150:5171  address(this).balance */\n      selfbalance\n        /* \"@openzeppelin/contracts/finance/PaymentSplitter.sol\":5150:5189  address(this).balance + totalReleased() */\n      tag_156\n      swap2\n      swap1\n      tag_108\n      jump\t// in\n    tag_156:\n        /* \"@openzeppelin/contracts/finance/PaymentSplitter.sol\":5126:5189  uint256 totalReceived = address(this).balance + totalReleased() */\n      swap1\n      pop\n        /* \"@openzeppelin/contracts/finance/PaymentSplitter.sol\":5199:5214  uint256 payment */\n      0x00\n        /* \"@openzeppelin/contracts/finance/PaymentSplitter.sol\":5217:5275  _pendingPayment(account, totalReceived, released(account)) */\n      tag_157\n        /* \"@openzeppelin/contracts/finance/PaymentSplitter.sol\":5233:5240  account */\n      dup4\n        /* \"@openzeppelin/contracts/finance/PaymentSplitter.sol\":5242:5255  totalReceived */\n      dup4\n        /* \"@openzeppelin/contracts/finance/PaymentSplitter.sol\":5257:5274  released(account) */\n      tag_158\n        /* \"@openzeppelin/contracts/finance/PaymentSplitter.sol\":5266:5273  account */\n      dup7\n        /* \"@openzeppelin/contracts/finance/PaymentSplitter.sol\":5257:5265  released */\n      tag_64\n        /* \"@openzeppelin/contracts/finance/PaymentSplitter.sol\":5257:5274  released(account) */\n      jump\t// in\n    tag_158:\n        /* \"@openzeppelin/contracts/finance/PaymentSplitter.sol\":5217:5232  _pendingPayment */\n      tag_111\n        /* \"@openzeppelin/contracts/finance/PaymentSplitter.sol\":5217:5275  _pendingPayment(account, totalReceived, released(account)) */\n      jump\t// in\n    tag_157:\n        /* \"@openzeppelin/contracts/finance/PaymentSplitter.sol\":5199:5275  uint256 payment = _pendingPayment(account, totalReceived, released(account)) */\n      swap1\n      pop\n        /* \"@openzeppelin/contracts/finance/PaymentSplitter.sol\":5305:5306  0 */\n      0x00\n        /* \"@openzeppelin/contracts/finance/PaymentSplitter.sol\":5294:5301  payment */\n      dup2\n        /* \"@openzeppelin/contracts/finance/PaymentSplitter.sol\":5294:5306  payment != 0 */\n      sub\n        /* \"@openzeppelin/contracts/finance/PaymentSplitter.sol\":5286:5354  require(payment != 0, \"PaymentSplitter: account is not due payment\") */\n      tag_159\n      jumpi\n      mload(0x40)\n      0x08c379a000000000000000000000000000000000000000000000000000000000\n      dup2\n      mstore\n      0x04\n      add\n      tag_160\n      swap1\n      tag_114\n      jump\t// in\n    tag_160:\n      mload(0x40)\n      dup1\n      swap2\n      sub\n      swap1\n      revert\n    tag_159:\n        /* \"@openzeppelin/contracts/finance/PaymentSplitter.sol\":5387:5394  payment */\n      dup1\n        /* \"@openzeppelin/contracts/finance/PaymentSplitter.sol\":5365:5374  _released */\n      0x03\n        /* \"@openzeppelin/contracts/finance/PaymentSplitter.sol\":5365:5383  _released[account] */\n      0x00\n        /* \"@openzeppelin/contracts/finance/PaymentSplitter.sol\":5375:5382  account */\n      dup6\n        /* \"@openzeppelin/contracts/finance/PaymentSplitter.sol\":5365:5383  _released[account] */\n      0xffffffffffffffffffffffffffffffffffffffff\n      and\n      0xffffffffffffffffffffffffffffffffffffffff\n      and\n      dup2\n      mstore\n      0x20\n      add\n      swap1\n      dup2\n      mstore\n      0x20\n      add\n      0x00\n      keccak256\n      0x00\n        /* \"@openzeppelin/contracts/finance/PaymentSplitter.sol\":5365:5394  _released[account] += payment */\n      dup3\n      dup3\n      sload\n      tag_161\n      swap2\n      swap1\n      tag_108\n      jump\t// in\n    tag_161:\n      swap3\n      pop\n      pop\n      dup2\n      swap1\n      sstore\n      pop\n        /* \"@openzeppelin/contracts/finance/PaymentSplitter.sol\":5422:5429  payment */\n      dup1\n        /* \"@openzeppelin/contracts/finance/PaymentSplitter.sol\":5404:5418  _totalReleased */\n      0x01\n      0x00\n        /* \"@openzeppelin/contracts/finance/PaymentSplitter.sol\":5404:5429  _totalReleased += payment */\n      dup3\n      dup3\n      sload\n      tag_162\n      swap2\n      swap1\n      tag_108\n      jump\t// in\n    tag_162:\n      swap3\n      pop\n      pop\n      dup2\n      swap1\n      sstore\n      pop\n        /* \"@openzeppelin/contracts/finance/PaymentSplitter.sol\":5440:5475  Address.sendValue(account, payment) */\n      tag_163\n        /* \"@openzeppelin/contracts/finance/PaymentSplitter.sol\":5458:5465  account */\n      dup4\n        /* \"@openzeppelin/contracts/finance/PaymentSplitter.sol\":5467:5474  payment */\n      dup3\n        /* \"@openzeppelin/contracts/finance/PaymentSplitter.sol\":5440:5457  Address.sendValue */\n      tag_164\n        /* \"@openzeppelin/contracts/finance/PaymentSplitter.sol\":5440:5475  Address.sendValue(account, payment) */\n      jump\t// in\n    tag_163:\n        /* \"@openzeppelin/contracts/finance/PaymentSplitter.sol\":5490:5523  PaymentReleased(account, payment) */\n      0xdf20fd1e76bc69d672e4814fafb2c449bba3a5369d8359adf9e05e6fde87b056\n        /* \"@openzeppelin/contracts/finance/PaymentSplitter.sol\":5506:5513  account */\n      dup4\n        /* \"@openzeppelin/contracts/finance/PaymentSplitter.sol\":5515:5522  payment */\n      dup3\n        /* \"@openzeppelin/contracts/finance/PaymentSplitter.sol\":5490:5523  PaymentReleased(account, payment) */\n      mload(0x40)\n      tag_165\n      swap3\n      swap2\n      swap1\n      tag_166\n      jump\t// in\n    tag_165:\n      mload(0x40)\n      dup1\n      swap2\n      sub\n      swap1\n      log1\n        /* \"@openzeppelin/contracts/finance/PaymentSplitter.sol\":5034:5530  {... */\n      pop\n      pop\n        /* \"@openzeppelin/contracts/finance/PaymentSplitter.sol\":4977:5530  function release(address payable account) public virtual {... */\n      pop\n      jump\t// out\n        /* \"@openzeppelin/contracts/finance/PaymentSplitter.sol\":6591:6833  function _pendingPayment(... */\n    tag_111:\n        /* \"@openzeppelin/contracts/finance/PaymentSplitter.sol\":6733:6740  uint256 */\n      0x00\n        /* \"@openzeppelin/contracts/finance/PaymentSplitter.sol\":6811:6826  alreadyReleased */\n      dup2\n        /* \"@openzeppelin/contracts/finance/PaymentSplitter.sol\":6796:6808  _totalShares */\n      sload(0x00)\n        /* \"@openzeppelin/contracts/finance/PaymentSplitter.sol\":6776:6783  _shares */\n      0x02\n        /* \"@openzeppelin/contracts/finance/PaymentSplitter.sol\":6776:6792  _shares[account] */\n      0x00\n        /* \"@openzeppelin/contracts/finance/PaymentSplitter.sol\":6784:6791  account */\n      dup8\n        /* \"@openzeppelin/contracts/finance/PaymentSplitter.sol\":6776:6792  _shares[account] */\n      0xffffffffffffffffffffffffffffffffffffffff\n      and\n      0xffffffffffffffffffffffffffffffffffffffff\n      and\n      dup2\n      mstore\n      0x20\n      add\n      swap1\n      dup2\n      mstore\n      0x20\n      add\n      0x00\n      keccak256\n      sload\n        /* \"@openzeppelin/contracts/finance/PaymentSplitter.sol\":6760:6773  totalReceived */\n      dup6\n        /* \"@openzeppelin/contracts/finance/PaymentSplitter.sol\":6760:6792  totalReceived * _shares[account] */\n      tag_168\n      swap2\n      swap1\n      tag_169\n      jump\t// in\n    tag_168:\n        /* \"@openzeppelin/contracts/finance/PaymentSplitter.sol\":6759:6808  (totalReceived * _shares[account]) / _totalShares */\n      tag_170\n      swap2\n      swap1\n      tag_171\n      jump\t// in\n    tag_170:\n        /* \"@openzeppelin/contracts/finance/PaymentSplitter.sol\":6759:6826  (totalReceived * _shares[account]) / _totalShares - alreadyReleased */\n      tag_172\n      swap2\n      swap1\n      tag_173\n      jump\t// in\n    tag_172:\n        /* \"@openzeppelin/contracts/finance/PaymentSplitter.sol\":6752:6826  return (totalReceived * _shares[account]) / _totalShares - alreadyReleased */\n      swap1\n      pop\n        /* \"@openzeppelin/contracts/finance/PaymentSplitter.sol\":6591:6833  function _pendingPayment(... */\n      swap4\n      swap3\n      pop\n      pop\n      pop\n      jump\t// out\n        /* \"@openzeppelin/contracts/token/ERC20/utils/SafeERC20.sol\":701:906  function safeTransfer(... */\n    tag_118:\n        /* \"@openzeppelin/contracts/token/ERC20/utils/SafeERC20.sol\":813:899  _callOptionalReturn(token, abi.encodeWithSelector(token.transfer.selector, to, value)) */\n      tag_175\n        /* \"@openzeppelin/contracts/token/ERC20/utils/SafeERC20.sol\":833:838  token */\n      dup4\n        /* \"@openzeppelin/contracts/token/ERC20/utils/SafeERC20.sol\":863:886  token.transfer.selector */\n      shl(0xe0, 0xa9059cbb)\n        /* \"@openzeppelin/contracts/token/ERC20/utils/SafeERC20.sol\":888:890  to */\n      dup5\n        /* \"@openzeppelin/contracts/token/ERC20/utils/SafeERC20.sol\":892:897  value */\n      dup5\n        /* \"@openzeppelin/contracts/token/ERC20/utils/SafeERC20.sol\":840:898  abi.encodeWithSelector(token.transfer.selector, to, value) */\n      add(0x24, mload(0x40))\n      tag_176\n      swap3\n      swap2\n      swap1\n      tag_25\n      jump\t// in\n    tag_176:\n      mload(0x40)\n      0x20\n      dup2\n      dup4\n      sub\n      sub\n      dup2\n      mstore\n      swap1\n      0x40\n      mstore\n      swap1\n      not(0xffffffffffffffffffffffffffffffffffffffffffffffffffffffff)\n      and\n      0x20\n      dup3\n      add\n      dup1\n      mload\n      0xffffffffffffffffffffffffffffffffffffffffffffffffffffffff\n      dup4\n      dup2\n      dup4\n      and\n      or\n      dup4\n      mstore\n      pop\n      pop\n      pop\n      pop\n        /* \"@openzeppelin/contracts/token/ERC20/utils/SafeERC20.sol\":813:832  _callOptionalReturn */\n      tag_177\n        /* \"@openzeppelin/contracts/token/ERC20/utils/SafeERC20.sol\":813:899  _callOptionalReturn(token, abi.encodeWithSelector(token.transfer.selector, to, value)) */\n      jump\t// in\n    tag_175:\n        /* \"@openzeppelin/contracts/token/ERC20/utils/SafeERC20.sol\":701:906  function safeTransfer(... */\n      pop\n      pop\n      pop\n      jump\t// out\n        /* \"@openzeppelin/contracts/access/Ownable.sol\":2270:2457  function _transferOwnership(address newOwner) internal virtual {... */\n    tag_128:\n        /* \"@openzeppelin/contracts/access/Ownable.sol\":2343:2359  address oldOwner */\n      0x00\n        /* \"@openzeppelin/contracts/access/Ownable.sol\":2362:2368  _owner */\n      0x07\n      0x00\n      swap1\n      sload\n      swap1\n      0x0100\n      exp\n      swap1\n      div\n      0xffffffffffffffffffffffffffffffffffffffff\n      and\n        /* \"@openzeppelin/contracts/access/Ownable.sol\":2343:2368  address oldOwner = _owner */\n      swap1\n      pop\n        /* \"@openzeppelin/contracts/access/Ownable.sol\":2387:2395  newOwner */\n      dup2\n        /* \"@openzeppelin/contracts/access/Ownable.sol\":2378:2384  _owner */\n      0x07\n      0x00\n        /* \"@openzeppelin/contracts/access/Ownable.sol\":2378:2395  _owner = newOwner */\n      0x0100\n      exp\n      dup2\n      sload\n      dup2\n      0xffffffffffffffffffffffffffffffffffffffff\n      mul\n      not\n      and\n      swap1\n      dup4\n      0xffffffffffffffffffffffffffffffffffffffff\n      and\n      mul\n      or\n      swap1\n      sstore\n      pop\n        /* \"@openzeppelin/contracts/access/Ownable.sol\":2441:2449  newOwner */\n      dup2\n        /* \"@openzeppelin/contracts/access/Ownable.sol\":2410:2450  OwnershipTransferred(oldOwner, newOwner) */\n      0xffffffffffffffffffffffffffffffffffffffff\n      and\n        /* \"@openzeppelin/contracts/access/Ownable.sol\":2431:2439  oldOwner */\n      dup2\n        /* \"@openzeppelin/contracts/access/Ownable.sol\":2410:2450  OwnershipTransferred(oldOwner, newOwner) */\n      0xffffffffffffffffffffffffffffffffffffffff\n      and\n      0x8be0079c531659141344cd1fd0a4f28419497f9722a3daafe3b4186f6b6457e0\n      mload(0x40)\n      mload(0x40)\n      dup1\n      swap2\n      sub\n      swap1\n      log3\n        /* \"@openzeppelin/contracts/access/Ownable.sol\":2333:2457  {... */\n      pop\n        /* \"@openzeppelin/contracts/access/Ownable.sol\":2270:2457  function _transferOwnership(address newOwner) internal virtual {... */\n      pop\n      jump\t// out\n        /* \"@openzeppelin/contracts/utils/Address.sol\":2412:2724  function sendValue(address payable recipient, uint256 amount) internal {... */\n    tag_164:\n        /* \"@openzeppelin/contracts/utils/Address.sol\":2526:2532  amount */\n      dup1\n        /* \"@openzeppelin/contracts/utils/Address.sol\":2501:2522  address(this).balance */\n      selfbalance\n        /* \"@openzeppelin/contracts/utils/Address.sol\":2501:2532  address(this).balance >= amount */\n      lt\n      iszero\n        /* \"@openzeppelin/contracts/utils/Address.sol\":2493:2566  require(address(this).balance >= amount, \"Address: insufficient balance\") */\n      tag_180\n      jumpi\n      mload(0x40)\n      0x08c379a000000000000000000000000000000000000000000000000000000000\n      dup2\n      mstore\n      0x04\n      add\n      tag_181\n      swap1\n      tag_182\n      jump\t// in\n    tag_181:\n      mload(0x40)\n      dup1\n      swap2\n      sub\n      swap1\n      revert\n    tag_180:\n        /* \"@openzeppelin/contracts/utils/Address.sol\":2578:2590  bool success */\n      0x00\n        /* \"@openzeppelin/contracts/utils/Address.sol\":2596:2605  recipient */\n      dup3\n        /* \"@openzeppelin/contracts/utils/Address.sol\":2596:2610  recipient.call */\n      0xffffffffffffffffffffffffffffffffffffffff\n      and\n        /* \"@openzeppelin/contracts/utils/Address.sol\":2618:2624  amount */\n      dup3\n        /* \"@openzeppelin/contracts/utils/Address.sol\":2596:2629  recipient.call{value: amount}(\"\") */\n      mload(0x40)\n      tag_183\n      swap1\n      tag_184\n      jump\t// in\n    tag_183:\n      0x00\n      mload(0x40)\n      dup1\n      dup4\n      sub\n      dup2\n      dup6\n      dup8\n      gas\n      call\n      swap3\n      pop\n      pop\n      pop\n      returndatasize\n      dup1\n      0x00\n      dup2\n      eq\n      tag_187\n      jumpi\n      mload(0x40)\n      swap2\n      pop\n      and(add(returndatasize, 0x3f), not(0x1f))\n      dup3\n      add\n      0x40\n      mstore\n      returndatasize\n      dup3\n      mstore\n      returndatasize\n      0x00\n      0x20\n      dup5\n      add\n      returndatacopy\n      jump(tag_186)\n    tag_187:\n      0x60\n      swap2\n      pop\n    tag_186:\n      pop\n        /* \"@openzeppelin/contracts/utils/Address.sol\":2577:2629  (bool success, ) = recipient.call{value: amount}(\"\") */\n      pop\n      swap1\n      pop\n        /* \"@openzeppelin/contracts/utils/Address.sol\":2647:2654  success */\n      dup1\n        /* \"@openzeppelin/contracts/utils/Address.sol\":2639:2717  require(success, \"Address: unable to send value, recipient may have reverted\") */\n      tag_188\n      jumpi\n      mload(0x40)\n      0x08c379a000000000000000000000000000000000000000000000000000000000\n      dup2\n      mstore\n      0x04\n      add\n      tag_189\n      swap1\n      tag_190\n      jump\t// in\n    tag_189:\n      mload(0x40)\n      dup1\n      swap2\n      sub\n      swap1\n      revert\n    tag_188:\n        /* \"@openzeppelin/contracts/utils/Address.sol\":2483:2724  {... */\n      pop\n        /* \"@openzeppelin/contracts/utils/Address.sol\":2412:2724  function sendValue(address payable recipient, uint256 amount) internal {... */\n      pop\n      pop\n      jump\t// out\n        /* \"@openzeppelin/contracts/token/ERC20/utils/SafeERC20.sol\":3207:3913  function _callOptionalReturn(IERC20 token, bytes memory data) private {... */\n    tag_177:\n        /* \"@openzeppelin/contracts/token/ERC20/utils/SafeERC20.sol\":3626:3649  bytes memory returndata */\n      0x00\n        /* \"@openzeppelin/contracts/token/ERC20/utils/SafeERC20.sol\":3652:3721  address(token).functionCall(data, \"SafeERC20: low-level call failed\") */\n      tag_192\n        /* \"@openzeppelin/contracts/token/ERC20/utils/SafeERC20.sol\":3680:3684  data */\n      dup3\n        /* \"@openzeppelin/contracts/token/ERC20/utils/SafeERC20.sol\":3652:3721  address(token).functionCall(data, \"SafeERC20: low-level call failed\") */\n      mload(0x40)\n      dup1\n      0x40\n      add\n      0x40\n      mstore\n      dup1\n      0x20\n      dup2\n      mstore\n      0x20\n      add\n      0x5361666545524332303a206c6f772d6c6576656c2063616c6c206661696c6564\n      dup2\n      mstore\n      pop\n        /* \"@openzeppelin/contracts/token/ERC20/utils/SafeERC20.sol\":3660:3665  token */\n      dup6\n        /* \"@openzeppelin/contracts/token/ERC20/utils/SafeERC20.sol\":3652:3679  address(token).functionCall */\n      0xffffffffffffffffffffffffffffffffffffffff\n      and\n      tag_193\n      swap1\n        /* \"@openzeppelin/contracts/token/ERC20/utils/SafeERC20.sol\":3652:3721  address(token).functionCall(data, \"SafeERC20: low-level call failed\") */\n      swap3\n      swap2\n      swap1\n      0xffffffff\n      and\n      jump\t// in\n    tag_192:\n        /* \"@openzeppelin/contracts/token/ERC20/utils/SafeERC20.sol\":3626:3721  bytes memory returndata = address(token).functionCall(data, \"SafeERC20: low-level call failed\") */\n      swap1\n      pop\n        /* \"@openzeppelin/contracts/token/ERC20/utils/SafeERC20.sol\":3755:3756  0 */\n      0x00\n        /* \"@openzeppelin/contracts/token/ERC20/utils/SafeERC20.sol\":3735:3745  returndata */\n      dup2\n        /* \"@openzeppelin/contracts/token/ERC20/utils/SafeERC20.sol\":3735:3752  returndata.length */\n      mload\n        /* \"@openzeppelin/contracts/token/ERC20/utils/SafeERC20.sol\":3735:3756  returndata.length > 0 */\n      gt\n        /* \"@openzeppelin/contracts/token/ERC20/utils/SafeERC20.sol\":3731:3907  if (returndata.length > 0) {... */\n      iszero\n      tag_194\n      jumpi\n        /* \"@openzeppelin/contracts/token/ERC20/utils/SafeERC20.sol\":3830:3840  returndata */\n      dup1\n        /* \"@openzeppelin/contracts/token/ERC20/utils/SafeERC20.sol\":3819:3849  abi.decode(returndata, (bool)) */\n      dup1\n      0x20\n      add\n      swap1\n      mload\n      dup2\n      add\n      swap1\n      tag_195\n      swap2\n      swap1\n      tag_196\n      jump\t// in\n    tag_195:\n        /* \"@openzeppelin/contracts/token/ERC20/utils/SafeERC20.sol\":3811:3896  require(abi.decode(returndata, (bool)), \"SafeERC20: ERC20 operation did not succeed\") */\n      tag_197\n      jumpi\n      mload(0x40)\n      0x08c379a000000000000000000000000000000000000000000000000000000000\n      dup2\n      mstore\n      0x04\n      add\n      tag_198\n      swap1\n      tag_199\n      jump\t// in\n    tag_198:\n      mload(0x40)\n      dup1\n      swap2\n      sub\n      swap1\n      revert\n    tag_197:\n        /* \"@openzeppelin/contracts/token/ERC20/utils/SafeERC20.sol\":3731:3907  if (returndata.length > 0) {... */\n    tag_194:\n        /* \"@openzeppelin/contracts/token/ERC20/utils/SafeERC20.sol\":3277:3913  {... */\n      pop\n        /* \"@openzeppelin/contracts/token/ERC20/utils/SafeERC20.sol\":3207:3913  function _callOptionalReturn(IERC20 token, bytes memory data) private {... */\n      pop\n      pop\n      jump\t// out\n        /* \"@openzeppelin/contracts/utils/Address.sol\":3861:4084  function functionCall(... */\n    tag_193:\n        /* \"@openzeppelin/contracts/utils/Address.sol\":3994:4006  bytes memory */\n      0x60\n        /* \"@openzeppelin/contracts/utils/Address.sol\":4025:4077  functionCallWithValue(target, data, 0, errorMessage) */\n      tag_201\n        /* \"@openzeppelin/contracts/utils/Address.sol\":4047:4053  target */\n      dup5\n        /* \"@openzeppelin/contracts/utils/Address.sol\":4055:4059  data */\n      dup5\n        /* \"@openzeppelin/contracts/utils/Address.sol\":4061:4062  0 */\n      0x00\n        /* \"@openzeppelin/contracts/utils/Address.sol\":4064:4076  errorMessage */\n      dup6\n        /* \"@openzeppelin/contracts/utils/Address.sol\":4025:4046  functionCallWithValue */\n      tag_202\n        /* \"@openzeppelin/contracts/utils/Address.sol\":4025:4077  functionCallWithValue(target, data, 0, errorMessage) */\n      jump\t// in\n    tag_201:\n        /* \"@openzeppelin/contracts/utils/Address.sol\":4018:4077  return functionCallWithValue(target, data, 0, errorMessage) */\n      swap1\n      pop\n        /* \"@openzeppelin/contracts/utils/Address.sol\":3861:4084  function functionCall(... */\n      swap4\n      swap3\n      pop\n      pop\n      pop\n      jump\t// out\n        /* \"@openzeppelin/contracts/utils/Address.sol\":4948:5447  function functionCallWithValue(... */\n    tag_202:\n        /* \"@openzeppelin/contracts/utils/Address.sol\":5113:5125  bytes memory */\n      0x60\n        /* \"@openzeppelin/contracts/utils/Address.sol\":5170:5175  value */\n      dup3\n        /* \"@openzeppelin/contracts/utils/Address.sol\":5145:5166  address(this).balance */\n      selfbalance\n        /* \"@openzeppelin/contracts/utils/Address.sol\":5145:5175  address(this).balance >= value */\n      lt\n      iszero\n        /* \"@openzeppelin/contracts/utils/Address.sol\":5137:5218  require(address(this).balance >= value, \"Address: insufficient balance for call\") */\n      tag_204\n      jumpi\n      mload(0x40)\n      0x08c379a000000000000000000000000000000000000000000000000000000000\n      dup2\n      mstore\n      0x04\n      add\n      tag_205\n      swap1\n      tag_206\n      jump\t// in\n    tag_205:\n      mload(0x40)\n      dup1\n      swap2\n      sub\n      swap1\n      revert\n    tag_204:\n        /* \"@openzeppelin/contracts/utils/Address.sol\":5236:5254  isContract(target) */\n      tag_207\n        /* \"@openzeppelin/contracts/utils/Address.sol\":5247:5253  target */\n      dup6\n        /* \"@openzeppelin/contracts/utils/Address.sol\":5236:5246  isContract */\n      tag_208\n        /* \"@openzeppelin/contracts/utils/Address.sol\":5236:5254  isContract(target) */\n      jump\t// in\n    tag_207:\n        /* \"@openzeppelin/contracts/utils/Address.sol\":5228:5288  require(isContract(target), \"Address: call to non-contract\") */\n      tag_209\n      jumpi\n      mload(0x40)\n      0x08c379a000000000000000000000000000000000000000000000000000000000\n      dup2\n      mstore\n      0x04\n      add\n      tag_210\n      swap1\n      tag_211\n      jump\t// in\n    tag_210:\n      mload(0x40)\n      dup1\n      swap2\n      sub\n      swap1\n      revert\n    tag_209:\n        /* \"@openzeppelin/contracts/utils/Address.sol\":5300:5312  bool success */\n      0x00\n        /* \"@openzeppelin/contracts/utils/Address.sol\":5314:5337  bytes memory returndata */\n      dup1\n        /* \"@openzeppelin/contracts/utils/Address.sol\":5341:5347  target */\n      dup7\n        /* \"@openzeppelin/contracts/utils/Address.sol\":5341:5352  target.call */\n      0xffffffffffffffffffffffffffffffffffffffff\n      and\n        /* \"@openzeppelin/contracts/utils/Address.sol\":5360:5365  value */\n      dup6\n        /* \"@openzeppelin/contracts/utils/Address.sol\":5367:5371  data */\n      dup8\n        /* \"@openzeppelin/contracts/utils/Address.sol\":5341:5372  target.call{value: value}(data) */\n      mload(0x40)\n      tag_212\n      swap2\n      swap1\n      tag_213\n      jump\t// in\n    tag_212:\n      0x00\n      mload(0x40)\n      dup1\n      dup4\n      sub\n      dup2\n      dup6\n      dup8\n      gas\n      call\n      swap3\n      pop\n      pop\n      pop\n      returndatasize\n      dup1\n      0x00\n      dup2\n      eq\n      tag_216\n      jumpi\n      mload(0x40)\n      swap2\n      pop\n      and(add(returndatasize, 0x3f), not(0x1f))\n      dup3\n      add\n      0x40\n      mstore\n      returndatasize\n      dup3\n      mstore\n      returndatasize\n      0x00\n      0x20\n      dup5\n      add\n      returndatacopy\n      jump(tag_215)\n    tag_216:\n      0x60\n      swap2\n      pop\n    tag_215:\n      pop\n        /* \"@openzeppelin/contracts/utils/Address.sol\":5299:5372  (bool success, bytes memory returndata) = target.call{value: value}(data) */\n      swap2\n      pop\n      swap2\n      pop\n        /* \"@openzeppelin/contracts/utils/Address.sol\":5389:5440  verifyCallResult(success, returndata, errorMessage) */\n      tag_217\n        /* \"@openzeppelin/contracts/utils/Address.sol\":5406:5413  success */\n      dup3\n        /* \"@openzeppelin/contracts/utils/Address.sol\":5415:5425  returndata */\n      dup3\n        /* \"@openzeppelin/contracts/utils/Address.sol\":5427:5439  errorMessage */\n      dup7\n        /* \"@openzeppelin/contracts/utils/Address.sol\":5389:5405  verifyCallResult */\n      tag_218\n        /* \"@openzeppelin/contracts/utils/Address.sol\":5389:5440  verifyCallResult(success, returndata, errorMessage) */\n      jump\t// in\n    tag_217:\n        /* \"@openzeppelin/contracts/utils/Address.sol\":5382:5440  return verifyCallResult(success, returndata, errorMessage) */\n      swap3\n      pop\n      pop\n      pop\n        /* \"@openzeppelin/contracts/utils/Address.sol\":4948:5447  function functionCallWithValue(... */\n      swap5\n      swap4\n      pop\n      pop\n      pop\n      pop\n      jump\t// out\n        /* \"@openzeppelin/contracts/utils/Address.sol\":1175:1495  function isContract(address account) internal view returns (bool) {... */\n    tag_208:\n        /* \"@openzeppelin/contracts/utils/Address.sol\":1235:1239  bool */\n      0x00\n        /* \"@openzeppelin/contracts/utils/Address.sol\":1487:1488  0 */\n      dup1\n        /* \"@openzeppelin/contracts/utils/Address.sol\":1465:1472  account */\n      dup3\n        /* \"@openzeppelin/contracts/utils/Address.sol\":1465:1484  account.code.length */\n      0xffffffffffffffffffffffffffffffffffffffff\n      and\n      extcodesize\n        /* \"@openzeppelin/contracts/utils/Address.sol\":1465:1488  account.code.length > 0 */\n      gt\n        /* \"@openzeppelin/contracts/utils/Address.sol\":1458:1488  return account.code.length > 0 */\n      swap1\n      pop\n        /* \"@openzeppelin/contracts/utils/Address.sol\":1175:1495  function isContract(address account) internal view returns (bool) {... */\n      swap2\n      swap1\n      pop\n      jump\t// out\n        /* \"@openzeppelin/contracts/utils/Address.sol\":7561:8253  function verifyCallResult(... */\n    tag_218:\n        /* \"@openzeppelin/contracts/utils/Address.sol\":7707:7719  bytes memory */\n      0x60\n        /* \"@openzeppelin/contracts/utils/Address.sol\":7735:7742  success */\n      dup4\n        /* \"@openzeppelin/contracts/utils/Address.sol\":7731:8247  if (success) {... */\n      iszero\n      tag_221\n      jumpi\n        /* \"@openzeppelin/contracts/utils/Address.sol\":7765:7775  returndata */\n      dup3\n        /* \"@openzeppelin/contracts/utils/Address.sol\":7758:7775  return returndata */\n      swap1\n      pop\n      jump(tag_220)\n        /* \"@openzeppelin/contracts/utils/Address.sol\":7731:8247  if (success) {... */\n    tag_221:\n        /* \"@openzeppelin/contracts/utils/Address.sol\":7896:7897  0 */\n      0x00\n        /* \"@openzeppelin/contracts/utils/Address.sol\":7876:7886  returndata */\n      dup4\n        /* \"@openzeppelin/contracts/utils/Address.sol\":7876:7893  returndata.length */\n      mload\n        /* \"@openzeppelin/contracts/utils/Address.sol\":7876:7897  returndata.length > 0 */\n      gt\n        /* \"@openzeppelin/contracts/utils/Address.sol\":7872:8237  if (returndata.length > 0) {... */\n      iszero\n      tag_223\n      jumpi\n        /* \"@openzeppelin/contracts/utils/Address.sol\":8070:8080  returndata */\n      dup3\n        /* \"@openzeppelin/contracts/utils/Address.sol\":8064:8081  mload(returndata) */\n      mload\n        /* \"@openzeppelin/contracts/utils/Address.sol\":8130:8145  returndata_size */\n      dup1\n        /* \"@openzeppelin/contracts/utils/Address.sol\":8117:8127  returndata */\n      dup5\n        /* \"@openzeppelin/contracts/utils/Address.sol\":8113:8115  32 */\n      0x20\n        /* \"@openzeppelin/contracts/utils/Address.sol\":8109:8128  add(32, returndata) */\n      add\n        /* \"@openzeppelin/contracts/utils/Address.sol\":8102:8146  revert(add(32, returndata), returndata_size) */\n      revert\n        /* \"@openzeppelin/contracts/utils/Address.sol\":7872:8237  if (returndata.length > 0) {... */\n    tag_223:\n        /* \"@openzeppelin/contracts/utils/Address.sol\":8209:8221  errorMessage */\n      dup2\n        /* \"@openzeppelin/contracts/utils/Address.sol\":8202:8222  revert(errorMessage) */\n      mload(0x40)\n      0x08c379a000000000000000000000000000000000000000000000000000000000\n      dup2\n      mstore\n      0x04\n      add\n      tag_225\n      swap2\n      swap1\n      tag_226\n      jump\t// in\n    tag_225:\n      mload(0x40)\n      dup1\n      swap2\n      sub\n      swap1\n      revert\n        /* \"@openzeppelin/contracts/utils/Address.sol\":7561:8253  function verifyCallResult(... */\n    tag_220:\n      swap4\n      swap3\n      pop\n      pop\n      pop\n      jump\t// out\n        /* \"#utility.yul\":7:133   */\n    tag_227:\n        /* \"#utility.yul\":44:51   */\n      0x00\n        /* \"#utility.yul\":84:126   */\n      0xffffffffffffffffffffffffffffffffffffffff\n        /* \"#utility.yul\":77:82   */\n      dup3\n        /* \"#utility.yul\":73:127   */\n      and\n        /* \"#utility.yul\":62:127   */\n      swap1\n      pop\n        /* \"#utility.yul\":7:133   */\n      swap2\n      swap1\n      pop\n      jump\t// out\n        /* \"#utility.yul\":139:235   */\n    tag_228:\n        /* \"#utility.yul\":176:183   */\n      0x00\n        /* \"#utility.yul\":205:229   */\n      tag_287\n        /* \"#utility.yul\":223:228   */\n      dup3\n        /* \"#utility.yul\":205:229   */\n      tag_227\n      jump\t// in\n    tag_287:\n        /* \"#utility.yul\":194:229   */\n      swap1\n      pop\n        /* \"#utility.yul\":139:235   */\n      swap2\n      swap1\n      pop\n      jump\t// out\n        /* \"#utility.yul\":241:359   */\n    tag_229:\n        /* \"#utility.yul\":328:352   */\n      tag_289\n        /* \"#utility.yul\":346:351   */\n      dup2\n        /* \"#utility.yul\":328:352   */\n      tag_228\n      jump\t// in\n    tag_289:\n        /* \"#utility.yul\":323:326   */\n      dup3\n        /* \"#utility.yul\":316:353   */\n      mstore\n        /* \"#utility.yul\":241:359   */\n      pop\n      pop\n      jump\t// out\n        /* \"#utility.yul\":365:442   */\n    tag_230:\n        /* \"#utility.yul\":402:409   */\n      0x00\n        /* \"#utility.yul\":431:436   */\n      dup2\n        /* \"#utility.yul\":420:436   */\n      swap1\n      pop\n        /* \"#utility.yul\":365:442   */\n      swap2\n      swap1\n      pop\n      jump\t// out\n        /* \"#utility.yul\":448:566   */\n    tag_231:\n        /* \"#utility.yul\":535:559   */\n      tag_292\n        /* \"#utility.yul\":553:558   */\n      dup2\n        /* \"#utility.yul\":535:559   */\n      tag_230\n      jump\t// in\n    tag_292:\n        /* \"#utility.yul\":530:533   */\n      dup3\n        /* \"#utility.yul\":523:560   */\n      mstore\n        /* \"#utility.yul\":448:566   */\n      pop\n      pop\n      jump\t// out\n        /* \"#utility.yul\":572:904   */\n    tag_25:\n        /* \"#utility.yul\":693:697   */\n      0x00\n        /* \"#utility.yul\":731:733   */\n      0x40\n        /* \"#utility.yul\":720:729   */\n      dup3\n        /* \"#utility.yul\":716:734   */\n      add\n        /* \"#utility.yul\":708:734   */\n      swap1\n      pop\n        /* \"#utility.yul\":744:815   */\n      tag_294\n        /* \"#utility.yul\":812:813   */\n      0x00\n        /* \"#utility.yul\":801:810   */\n      dup4\n        /* \"#utility.yul\":797:814   */\n      add\n        /* \"#utility.yul\":788:794   */\n      dup6\n        /* \"#utility.yul\":744:815   */\n      tag_229\n      jump\t// in\n    tag_294:\n        /* \"#utility.yul\":825:897   */\n      tag_295\n        /* \"#utility.yul\":893:895   */\n      0x20\n        /* \"#utility.yul\":882:891   */\n      dup4\n        /* \"#utility.yul\":878:896   */\n      add\n        /* \"#utility.yul\":869:875   */\n      dup5\n        /* \"#utility.yul\":825:897   */\n      tag_231\n      jump\t// in\n    tag_295:\n        /* \"#utility.yul\":572:904   */\n      swap4\n      swap3\n      pop\n      pop\n      pop\n      jump\t// out\n        /* \"#utility.yul\":991:1108   */\n    tag_233:\n        /* \"#utility.yul\":1100:1101   */\n      0x00\n        /* \"#utility.yul\":1097:1098   */\n      dup1\n        /* \"#utility.yul\":1090:1102   */\n      revert\n        /* \"#utility.yul\":1237:1341   */\n    tag_235:\n        /* \"#utility.yul\":1282:1289   */\n      0x00\n        /* \"#utility.yul\":1311:1335   */\n      tag_300\n        /* \"#utility.yul\":1329:1334   */\n      dup3\n        /* \"#utility.yul\":1311:1335   */\n      tag_227\n      jump\t// in\n    tag_300:\n        /* \"#utility.yul\":1300:1335   */\n      swap1\n      pop\n        /* \"#utility.yul\":1237:1341   */\n      swap2\n      swap1\n      pop\n      jump\t// out\n        /* \"#utility.yul\":1347:1485   */\n    tag_236:\n        /* \"#utility.yul\":1428:1460   */\n      tag_302\n        /* \"#utility.yul\":1454:1459   */\n      dup2\n        /* \"#utility.yul\":1428:1460   */\n      tag_235\n      jump\t// in\n    tag_302:\n        /* \"#utility.yul\":1421:1426   */\n      dup2\n        /* \"#utility.yul\":1418:1461   */\n      eq\n        /* \"#utility.yul\":1408:1479   */\n      tag_303\n      jumpi\n        /* \"#utility.yul\":1475:1476   */\n      0x00\n        /* \"#utility.yul\":1472:1473   */\n      dup1\n        /* \"#utility.yul\":1465:1477   */\n      revert\n        /* \"#utility.yul\":1408:1479   */\n    tag_303:\n        /* \"#utility.yul\":1347:1485   */\n      pop\n      jump\t// out\n        /* \"#utility.yul\":1491:1646   */\n    tag_237:\n        /* \"#utility.yul\":1545:1550   */\n      0x00\n        /* \"#utility.yul\":1583:1589   */\n      dup2\n        /* \"#utility.yul\":1570:1590   */\n      calldataload\n        /* \"#utility.yul\":1561:1590   */\n      swap1\n      pop\n        /* \"#utility.yul\":1599:1640   */\n      tag_305\n        /* \"#utility.yul\":1634:1639   */\n      dup2\n        /* \"#utility.yul\":1599:1640   */\n      tag_236\n      jump\t// in\n    tag_305:\n        /* \"#utility.yul\":1491:1646   */\n      swap3\n      swap2\n      pop\n      pop\n      jump\t// out\n        /* \"#utility.yul\":1652:1997   */\n    tag_29:\n        /* \"#utility.yul\":1719:1725   */\n      0x00\n        /* \"#utility.yul\":1768:1770   */\n      0x20\n        /* \"#utility.yul\":1756:1765   */\n      dup3\n        /* \"#utility.yul\":1747:1754   */\n      dup5\n        /* \"#utility.yul\":1743:1766   */\n      sub\n        /* \"#utility.yul\":1739:1771   */\n      slt\n        /* \"#utility.yul\":1736:1855   */\n      iszero\n      tag_307\n      jumpi\n        /* \"#utility.yul\":1774:1853   */\n      tag_308\n      tag_233\n      jump\t// in\n    tag_308:\n        /* \"#utility.yul\":1736:1855   */\n    tag_307:\n        /* \"#utility.yul\":1894:1895   */\n      0x00\n        /* \"#utility.yul\":1919:1980   */\n      tag_309\n        /* \"#utility.yul\":1972:1979   */\n      dup5\n        /* \"#utility.yul\":1963:1969   */\n      dup3\n        /* \"#utility.yul\":1952:1961   */\n      dup6\n        /* \"#utility.yul\":1948:1970   */\n      add\n        /* \"#utility.yul\":1919:1980   */\n      tag_237\n      jump\t// in\n    tag_309:\n        /* \"#utility.yul\":1909:1980   */\n      swap2\n      pop\n        /* \"#utility.yul\":1865:1990   */\n      pop\n        /* \"#utility.yul\":1652:1997   */\n      swap3\n      swap2\n      pop\n      pop\n      jump\t// out\n        /* \"#utility.yul\":2003:2225   */\n    tag_35:\n        /* \"#utility.yul\":2096:2100   */\n      0x00\n        /* \"#utility.yul\":2134:2136   */\n      0x20\n        /* \"#utility.yul\":2123:2132   */\n      dup3\n        /* \"#utility.yul\":2119:2137   */\n      add\n        /* \"#utility.yul\":2111:2137   */\n      swap1\n      pop\n        /* \"#utility.yul\":2147:2218   */\n      tag_311\n        /* \"#utility.yul\":2215:2216   */\n      0x00\n        /* \"#utility.yul\":2204:2213   */\n      dup4\n        /* \"#utility.yul\":2200:2217   */\n      add\n        /* \"#utility.yul\":2191:2197   */\n      dup5\n        /* \"#utility.yul\":2147:2218   */\n      tag_231\n      jump\t// in\n    tag_311:\n        /* \"#utility.yul\":2003:2225   */\n      swap3\n      swap2\n      pop\n      pop\n      jump\t// out\n        /* \"#utility.yul\":2231:2341   */\n    tag_238:\n        /* \"#utility.yul\":2282:2289   */\n      0x00\n        /* \"#utility.yul\":2311:2335   */\n      tag_313\n        /* \"#utility.yul\":2329:2334   */\n      dup3\n        /* \"#utility.yul\":2311:2335   */\n      tag_228\n      jump\t// in\n    tag_313:\n        /* \"#utility.yul\":2300:2335   */\n      swap1\n      pop\n        /* \"#utility.yul\":2231:2341   */\n      swap2\n      swap1\n      pop\n      jump\t// out\n        /* \"#utility.yul\":2347:2497   */\n    tag_239:\n        /* \"#utility.yul\":2434:2472   */\n      tag_315\n        /* \"#utility.yul\":2466:2471   */\n      dup2\n        /* \"#utility.yul\":2434:2472   */\n      tag_238\n      jump\t// in\n    tag_315:\n        /* \"#utility.yul\":2427:2432   */\n      dup2\n        /* \"#utility.yul\":2424:2473   */\n      eq\n        /* \"#utility.yul\":2414:2491   */\n      tag_316\n      jumpi\n        /* \"#utility.yul\":2487:2488   */\n      0x00\n        /* \"#utility.yul\":2484:2485   */\n      dup1\n        /* \"#utility.yul\":2477:2489   */\n      revert\n        /* \"#utility.yul\":2414:2491   */\n    tag_316:\n        /* \"#utility.yul\":2347:2497   */\n      pop\n      jump\t// out\n        /* \"#utility.yul\":2503:2670   */\n    tag_240:\n        /* \"#utility.yul\":2563:2568   */\n      0x00\n        /* \"#utility.yul\":2601:2607   */\n      dup2\n        /* \"#utility.yul\":2588:2608   */\n      calldataload\n        /* \"#utility.yul\":2579:2608   */\n      swap1\n      pop\n        /* \"#utility.yul\":2617:2664   */\n      tag_318\n        /* \"#utility.yul\":2658:2663   */\n      dup2\n        /* \"#utility.yul\":2617:2664   */\n      tag_239\n      jump\t// in\n    tag_318:\n        /* \"#utility.yul\":2503:2670   */\n      swap3\n      swap2\n      pop\n      pop\n      jump\t// out\n        /* \"#utility.yul\":2676:2798   */\n    tag_241:\n        /* \"#utility.yul\":2749:2773   */\n      tag_320\n        /* \"#utility.yul\":2767:2772   */\n      dup2\n        /* \"#utility.yul\":2749:2773   */\n      tag_228\n      jump\t// in\n    tag_320:\n        /* \"#utility.yul\":2742:2747   */\n      dup2\n        /* \"#utility.yul\":2739:2774   */\n      eq\n        /* \"#utility.yul\":2729:2792   */\n      tag_321\n      jumpi\n        /* \"#utility.yul\":2788:2789   */\n      0x00\n        /* \"#utility.yul\":2785:2786   */\n      dup1\n        /* \"#utility.yul\":2778:2790   */\n      revert\n        /* \"#utility.yul\":2729:2792   */\n    tag_321:\n        /* \"#utility.yul\":2676:2798   */\n      pop\n      jump\t// out\n        /* \"#utility.yul\":2804:2943   */\n    tag_242:\n        /* \"#utility.yul\":2850:2855   */\n      0x00\n        /* \"#utility.yul\":2888:2894   */\n      dup2\n        /* \"#utility.yul\":2875:2895   */\n      calldataload\n        /* \"#utility.yul\":2866:2895   */\n      swap1\n      pop\n        /* \"#utility.yul\":2904:2937   */\n      tag_323\n        /* \"#utility.yul\":2931:2936   */\n      dup2\n        /* \"#utility.yul\":2904:2937   */\n      tag_241\n      jump\t// in\n    tag_323:\n        /* \"#utility.yul\":2804:2943   */\n      swap3\n      swap2\n      pop\n      pop\n      jump\t// out\n        /* \"#utility.yul\":2949:3451   */\n    tag_39:\n        /* \"#utility.yul\":3031:3037   */\n      0x00\n        /* \"#utility.yul\":3039:3045   */\n      dup1\n        /* \"#utility.yul\":3088:3090   */\n      0x40\n        /* \"#utility.yul\":3076:3085   */\n      dup4\n        /* \"#utility.yul\":3067:3074   */\n      dup6\n        /* \"#utility.yul\":3063:3086   */\n      sub\n        /* \"#utility.yul\":3059:3091   */\n      slt\n        /* \"#utility.yul\":3056:3175   */\n      iszero\n      tag_325\n      jumpi\n        /* \"#utility.yul\":3094:3173   */\n      tag_326\n      tag_233\n      jump\t// in\n    tag_326:\n        /* \"#utility.yul\":3056:3175   */\n    tag_325:\n        /* \"#utility.yul\":3214:3215   */\n      0x00\n        /* \"#utility.yul\":3239:3306   */\n      tag_327\n        /* \"#utility.yul\":3298:3305   */\n      dup6\n        /* \"#utility.yul\":3289:3295   */\n      dup3\n        /* \"#utility.yul\":3278:3287   */\n      dup7\n        /* \"#utility.yul\":3274:3296   */\n      add\n        /* \"#utility.yul\":3239:3306   */\n      tag_240\n      jump\t// in\n    tag_327:\n        /* \"#utility.yul\":3229:3306   */\n      swap3\n      pop\n        /* \"#utility.yul\":3185:3316   */\n      pop\n        /* \"#utility.yul\":3355:3357   */\n      0x20\n        /* \"#utility.yul\":3381:3434   */\n      tag_328\n        /* \"#utility.yul\":3426:3433   */\n      dup6\n        /* \"#utility.yul\":3417:3423   */\n      dup3\n        /* \"#utility.yul\":3406:3415   */\n      dup7\n        /* \"#utility.yul\":3402:3424   */\n      add\n        /* \"#utility.yul\":3381:3434   */\n      tag_242\n      jump\t// in\n    tag_328:\n        /* \"#utility.yul\":3371:3434   */\n      swap2\n      pop\n        /* \"#utility.yul\":3326:3444   */\n      pop\n        /* \"#utility.yul\":2949:3451   */\n      swap3\n      pop\n      swap3\n      swap1\n      pop\n      jump\t// out\n        /* \"#utility.yul\":3457:3579   */\n    tag_243:\n        /* \"#utility.yul\":3530:3554   */\n      tag_330\n        /* \"#utility.yul\":3548:3553   */\n      dup2\n        /* \"#utility.yul\":3530:3554   */\n      tag_230\n      jump\t// in\n    tag_330:\n        /* \"#utility.yul\":3523:3528   */\n      dup2\n        /* \"#utility.yul\":3520:3555   */\n      eq\n        /* \"#utility.yul\":3510:3573   */\n      tag_331\n      jumpi\n        /* \"#utility.yul\":3569:3570   */\n      0x00\n        /* \"#utility.yul\":3566:3567   */\n      dup1\n        /* \"#utility.yul\":3559:3571   */\n      revert\n        /* \"#utility.yul\":3510:3573   */\n    tag_331:\n        /* \"#utility.yul\":3457:3579   */\n      pop\n      jump\t// out\n        /* \"#utility.yul\":3585:3724   */\n    tag_244:\n        /* \"#utility.yul\":3631:3636   */\n      0x00\n        /* \"#utility.yul\":3669:3675   */\n      dup2\n        /* \"#utility.yul\":3656:3676   */\n      calldataload\n        /* \"#utility.yul\":3647:3676   */\n      swap1\n      pop\n        /* \"#utility.yul\":3685:3718   */\n      tag_333\n        /* \"#utility.yul\":3712:3717   */\n      dup2\n        /* \"#utility.yul\":3685:3718   */\n      tag_243\n      jump\t// in\n    tag_333:\n        /* \"#utility.yul\":3585:3724   */\n      swap3\n      swap2\n      pop\n      pop\n      jump\t// out\n        /* \"#utility.yul\":3730:4059   */\n    tag_52:\n        /* \"#utility.yul\":3789:3795   */\n      0x00\n        /* \"#utility.yul\":3838:3840   */\n      0x20\n        /* \"#utility.yul\":3826:3835   */\n      dup3\n        /* \"#utility.yul\":3817:3824   */\n      dup5\n        /* \"#utility.yul\":3813:3836   */\n      sub\n        /* \"#utility.yul\":3809:3841   */\n      slt\n        /* \"#utility.yul\":3806:3925   */\n      iszero\n      tag_335\n      jumpi\n        /* \"#utility.yul\":3844:3923   */\n      tag_336\n      tag_233\n      jump\t// in\n    tag_336:\n        /* \"#utility.yul\":3806:3925   */\n    tag_335:\n        /* \"#utility.yul\":3964:3965   */\n      0x00\n        /* \"#utility.yul\":3989:4042   */\n      tag_337\n        /* \"#utility.yul\":4034:4041   */\n      dup5\n        /* \"#utility.yul\":4025:4031   */\n      dup3\n        /* \"#utility.yul\":4014:4023   */\n      dup6\n        /* \"#utility.yul\":4010:4032   */\n      add\n        /* \"#utility.yul\":3989:4042   */\n      tag_244\n      jump\t// in\n    tag_337:\n        /* \"#utility.yul\":3979:4042   */\n      swap2\n      pop\n        /* \"#utility.yul\":3935:4052   */\n      pop\n        /* \"#utility.yul\":3730:4059   */\n      swap3\n      swap2\n      pop\n      pop\n      jump\t// out\n        /* \"#utility.yul\":4065:4287   */\n    tag_55:\n        /* \"#utility.yul\":4158:4162   */\n      0x00\n        /* \"#utility.yul\":4196:4198   */\n      0x20\n        /* \"#utility.yul\":4185:4194   */\n      dup3\n        /* \"#utility.yul\":4181:4199   */\n      add\n        /* \"#utility.yul\":4173:4199   */\n      swap1\n      pop\n        /* \"#utility.yul\":4209:4280   */\n      tag_339\n        /* \"#utility.yul\":4277:4278   */\n      0x00\n        /* \"#utility.yul\":4266:4275   */\n      dup4\n        /* \"#utility.yul\":4262:4279   */\n      add\n        /* \"#utility.yul\":4253:4259   */\n      dup5\n        /* \"#utility.yul\":4209:4280   */\n      tag_229\n      jump\t// in\n    tag_339:\n        /* \"#utility.yul\":4065:4287   */\n      swap3\n      swap2\n      pop\n      pop\n      jump\t// out\n        /* \"#utility.yul\":4293:4622   */\n    tag_63:\n        /* \"#utility.yul\":4352:4358   */\n      0x00\n        /* \"#utility.yul\":4401:4403   */\n      0x20\n        /* \"#utility.yul\":4389:4398   */\n      dup3\n        /* \"#utility.yul\":4380:4387   */\n      dup5\n        /* \"#utility.yul\":4376:4399   */\n      sub\n        /* \"#utility.yul\":4372:4404   */\n      slt\n        /* \"#utility.yul\":4369:4488   */\n      iszero\n      tag_341\n      jumpi\n        /* \"#utility.yul\":4407:4486   */\n      tag_342\n      tag_233\n      jump\t// in\n    tag_342:\n        /* \"#utility.yul\":4369:4488   */\n    tag_341:\n        /* \"#utility.yul\":4527:4528   */\n      0x00\n        /* \"#utility.yul\":4552:4605   */\n      tag_343\n        /* \"#utility.yul\":4597:4604   */\n      dup5\n        /* \"#utility.yul\":4588:4594   */\n      dup3\n        /* \"#utility.yul\":4577:4586   */\n      dup6\n        /* \"#utility.yul\":4573:4595   */\n      add\n        /* \"#utility.yul\":4552:4605   */\n      tag_242\n      jump\t// in\n    tag_343:\n        /* \"#utility.yul\":4542:4605   */\n      swap2\n      pop\n        /* \"#utility.yul\":4498:4615   */\n      pop\n        /* \"#utility.yul\":4293:4622   */\n      swap3\n      swap2\n      pop\n      pop\n      jump\t// out\n        /* \"#utility.yul\":4628:4985   */\n    tag_77:\n        /* \"#utility.yul\":4701:4707   */\n      0x00\n        /* \"#utility.yul\":4750:4752   */\n      0x20\n        /* \"#utility.yul\":4738:4747   */\n      dup3\n        /* \"#utility.yul\":4729:4736   */\n      dup5\n        /* \"#utility.yul\":4725:4748   */\n      sub\n        /* \"#utility.yul\":4721:4753   */\n      slt\n        /* \"#utility.yul\":4718:4837   */\n      iszero\n      tag_345\n      jumpi\n        /* \"#utility.yul\":4756:4835   */\n      tag_346\n      tag_233\n      jump\t// in\n    tag_346:\n        /* \"#utility.yul\":4718:4837   */\n    tag_345:\n        /* \"#utility.yul\":4876:4877   */\n      0x00\n        /* \"#utility.yul\":4901:4968   */\n      tag_347\n        /* \"#utility.yul\":4960:4967   */\n      dup5\n        /* \"#utility.yul\":4951:4957   */\n      dup3\n        /* \"#utility.yul\":4940:4949   */\n      dup6\n        /* \"#utility.yul\":4936:4958   */\n      add\n        /* \"#utility.yul\":4901:4968   */\n      tag_240\n      jump\t// in\n    tag_347:\n        /* \"#utility.yul\":4891:4968   */\n      swap2\n      pop\n        /* \"#utility.yul\":4847:4978   */\n      pop\n        /* \"#utility.yul\":4628:4985   */\n      swap3\n      swap2\n      pop\n      pop\n      jump\t// out\n        /* \"#utility.yul\":4991:5160   */\n    tag_245:\n        /* \"#utility.yul\":5075:5086   */\n      0x00\n        /* \"#utility.yul\":5109:5115   */\n      dup3\n        /* \"#utility.yul\":5104:5107   */\n      dup3\n        /* \"#utility.yul\":5097:5116   */\n      mstore\n        /* \"#utility.yul\":5149:5153   */\n      0x20\n        /* \"#utility.yul\":5144:5147   */\n      dup3\n        /* \"#utility.yul\":5140:5154   */\n      add\n        /* \"#utility.yul\":5125:5154   */\n      swap1\n      pop\n        /* \"#utility.yul\":4991:5160   */\n      swap3\n      swap2\n      pop\n      pop\n      jump\t// out\n        /* \"#utility.yul\":5166:5391   */\n    tag_246:\n        /* \"#utility.yul\":5306:5340   */\n      0x5061796d656e7453706c69747465723a206163636f756e7420686173206e6f20\n        /* \"#utility.yul\":5302:5303   */\n      0x00\n        /* \"#utility.yul\":5294:5300   */\n      dup3\n        /* \"#utility.yul\":5290:5304   */\n      add\n        /* \"#utility.yul\":5283:5341   */\n      mstore\n        /* \"#utility.yul\":5375:5383   */\n      0x7368617265730000000000000000000000000000000000000000000000000000\n        /* \"#utility.yul\":5370:5372   */\n      0x20\n        /* \"#utility.yul\":5362:5368   */\n      dup3\n        /* \"#utility.yul\":5358:5373   */\n      add\n        /* \"#utility.yul\":5351:5384   */\n      mstore\n        /* \"#utility.yul\":5166:5391   */\n      pop\n      jump\t// out\n        /* \"#utility.yul\":5397:5763   */\n    tag_247:\n        /* \"#utility.yul\":5539:5542   */\n      0x00\n        /* \"#utility.yul\":5560:5627   */\n      tag_351\n        /* \"#utility.yul\":5624:5626   */\n      0x26\n        /* \"#utility.yul\":5619:5622   */\n      dup4\n        /* \"#utility.yul\":5560:5627   */\n      tag_245\n      jump\t// in\n    tag_351:\n        /* \"#utility.yul\":5553:5627   */\n      swap2\n      pop\n        /* \"#utility.yul\":5636:5729   */\n      tag_352\n        /* \"#utility.yul\":5725:5728   */\n      dup3\n        /* \"#utility.yul\":5636:5729   */\n      tag_246\n      jump\t// in\n    tag_352:\n        /* \"#utility.yul\":5754:5756   */\n      0x40\n        /* \"#utility.yul\":5749:5752   */\n      dup3\n        /* \"#utility.yul\":5745:5757   */\n      add\n        /* \"#utility.yul\":5738:5757   */\n      swap1\n      pop\n        /* \"#utility.yul\":5397:5763   */\n      swap2\n      swap1\n      pop\n      jump\t// out\n        /* \"#utility.yul\":5769:6188   */\n    tag_100:\n        /* \"#utility.yul\":5935:5939   */\n      0x00\n        /* \"#utility.yul\":5973:5975   */\n      0x20\n        /* \"#utility.yul\":5962:5971   */\n      dup3\n        /* \"#utility.yul\":5958:5976   */\n      add\n        /* \"#utility.yul\":5950:5976   */\n      swap1\n      pop\n        /* \"#utility.yul\":6022:6031   */\n      dup2\n        /* \"#utility.yul\":6016:6020   */\n      dup2\n        /* \"#utility.yul\":6012:6032   */\n      sub\n        /* \"#utility.yul\":6008:6009   */\n      0x00\n        /* \"#utility.yul\":5997:6006   */\n      dup4\n        /* \"#utility.yul\":5993:6010   */\n      add\n        /* \"#utility.yul\":5986:6033   */\n      mstore\n        /* \"#utility.yul\":6050:6181   */\n      tag_354\n        /* \"#utility.yul\":6176:6180   */\n      dup2\n        /* \"#utility.yul\":6050:6181   */\n      tag_247\n      jump\t// in\n    tag_354:\n        /* \"#utility.yul\":6042:6181   */\n      swap1\n      pop\n        /* \"#utility.yul\":5769:6188   */\n      swap2\n      swap1\n      pop\n      jump\t// out\n        /* \"#utility.yul\":6194:6337   */\n    tag_248:\n        /* \"#utility.yul\":6251:6256   */\n      0x00\n        /* \"#utility.yul\":6282:6288   */\n      dup2\n        /* \"#utility.yul\":6276:6289   */\n      mload\n        /* \"#utility.yul\":6267:6289   */\n      swap1\n      pop\n        /* \"#utility.yul\":6298:6331   */\n      tag_356\n        /* \"#utility.yul\":6325:6330   */\n      dup2\n        /* \"#utility.yul\":6298:6331   */\n      tag_243\n      jump\t// in\n    tag_356:\n        /* \"#utility.yul\":6194:6337   */\n      swap3\n      swap2\n      pop\n      pop\n      jump\t// out\n        /* \"#utility.yul\":6343:6694   */\n    tag_106:\n        /* \"#utility.yul\":6413:6419   */\n      0x00\n        /* \"#utility.yul\":6462:6464   */\n      0x20\n        /* \"#utility.yul\":6450:6459   */\n      dup3\n        /* \"#utility.yul\":6441:6448   */\n      dup5\n        /* \"#utility.yul\":6437:6460   */\n      sub\n        /* \"#utility.yul\":6433:6465   */\n      slt\n        /* \"#utility.yul\":6430:6549   */\n      iszero\n      tag_358\n      jumpi\n        /* \"#utility.yul\":6468:6547   */\n      tag_359\n      tag_233\n      jump\t// in\n    tag_359:\n        /* \"#utility.yul\":6430:6549   */\n    tag_358:\n        /* \"#utility.yul\":6588:6589   */\n      0x00\n        /* \"#utility.yul\":6613:6677   */\n      tag_360\n        /* \"#utility.yul\":6669:6676   */\n      dup5\n        /* \"#utility.yul\":6660:6666   */\n      dup3\n        /* \"#utility.yul\":6649:6658   */\n      dup6\n        /* \"#utility.yul\":6645:6667   */\n      add\n        /* \"#utility.yul\":6613:6677   */\n      tag_248\n      jump\t// in\n    tag_360:\n        /* \"#utility.yul\":6603:6677   */\n      swap2\n      pop\n        /* \"#utility.yul\":6559:6687   */\n      pop\n        /* \"#utility.yul\":6343:6694   */\n      swap3\n      swap2\n      pop\n      pop\n      jump\t// out\n        /* \"#utility.yul\":6700:6880   */\n    tag_249:\n        /* \"#utility.yul\":6748:6825   */\n      0x4e487b7100000000000000000000000000000000000000000000000000000000\n        /* \"#utility.yul\":6745:6746   */\n      0x00\n        /* \"#utility.yul\":6738:6826   */\n      mstore\n        /* \"#utility.yul\":6845:6849   */\n      0x11\n        /* \"#utility.yul\":6842:6843   */\n      0x04\n        /* \"#utility.yul\":6835:6850   */\n      mstore\n        /* \"#utility.yul\":6869:6873   */\n      0x24\n        /* \"#utility.yul\":6866:6867   */\n      0x00\n        /* \"#utility.yul\":6859:6874   */\n      revert\n        /* \"#utility.yul\":6886:7191   */\n    tag_108:\n        /* \"#utility.yul\":6926:6929   */\n      0x00\n        /* \"#utility.yul\":6945:6965   */\n      tag_363\n        /* \"#utility.yul\":6963:6964   */\n      dup3\n        /* \"#utility.yul\":6945:6965   */\n      tag_230\n      jump\t// in\n    tag_363:\n        /* \"#utility.yul\":6940:6965   */\n      swap2\n      pop\n        /* \"#utility.yul\":6979:6999   */\n      tag_364\n        /* \"#utility.yul\":6997:6998   */\n      dup4\n        /* \"#utility.yul\":6979:6999   */\n      tag_230\n      jump\t// in\n    tag_364:\n        /* \"#utility.yul\":6974:6999   */\n      swap3\n      pop\n        /* \"#utility.yul\":7133:7134   */\n      dup3\n        /* \"#utility.yul\":7065:7131   */\n      0xffffffffffffffffffffffffffffffffffffffffffffffffffffffffffffffff\n        /* \"#utility.yul\":7061:7135   */\n      sub\n        /* \"#utility.yul\":7058:7059   */\n      dup3\n        /* \"#utility.yul\":7055:7136   */\n      gt\n        /* \"#utility.yul\":7052:7159   */\n      iszero\n      tag_365\n      jumpi\n        /* \"#utility.yul\":7139:7157   */\n      tag_366\n      tag_249\n      jump\t// in\n    tag_366:\n        /* \"#utility.yul\":7052:7159   */\n    tag_365:\n        /* \"#utility.yul\":7183:7184   */\n      dup3\n        /* \"#utility.yul\":7180:7181   */\n      dup3\n        /* \"#utility.yul\":7176:7185   */\n      add\n        /* \"#utility.yul\":7169:7185   */\n      swap1\n      pop\n        /* \"#utility.yul\":6886:7191   */\n      swap3\n      swap2\n      pop\n      pop\n      jump\t// out\n        /* \"#utility.yul\":7197:7427   */\n    tag_250:\n        /* \"#utility.yul\":7337:7371   */\n      0x5061796d656e7453706c69747465723a206163636f756e74206973206e6f7420\n        /* \"#utility.yul\":7333:7334   */\n      0x00\n        /* \"#utility.yul\":7325:7331   */\n      dup3\n        /* \"#utility.yul\":7321:7335   */\n      add\n        /* \"#utility.yul\":7314:7372   */\n      mstore\n        /* \"#utility.yul\":7406:7419   */\n      0x647565207061796d656e74000000000000000000000000000000000000000000\n        /* \"#utility.yul\":7401:7403   */\n      0x20\n        /* \"#utility.yul\":7393:7399   */\n      dup3\n        /* \"#utility.yul\":7389:7404   */\n      add\n        /* \"#utility.yul\":7382:7420   */\n      mstore\n        /* \"#utility.yul\":7197:7427   */\n      pop\n      jump\t// out\n        /* \"#utility.yul\":7433:7799   */\n    tag_251:\n        /* \"#utility.yul\":7575:7578   */\n      0x00\n        /* \"#utility.yul\":7596:7663   */\n      tag_369\n        /* \"#utility.yul\":7660:7662   */\n      0x2b\n        /* \"#utility.yul\":7655:7658   */\n      dup4\n        /* \"#utility.yul\":7596:7663   */\n      tag_245\n      jump\t// in\n    tag_369:\n        /* \"#utility.yul\":7589:7663   */\n      swap2\n      pop\n        /* \"#utility.yul\":7672:7765   */\n      tag_370\n        /* \"#utility.yul\":7761:7764   */\n      dup3\n        /* \"#utility.yul\":7672:7765   */\n      tag_250\n      jump\t// in\n    tag_370:\n        /* \"#utility.yul\":7790:7792   */\n      0x40\n        /* \"#utility.yul\":7785:7788   */\n      dup3\n        /* \"#utility.yul\":7781:7793   */\n      add\n        /* \"#utility.yul\":7774:7793   */\n      swap1\n      pop\n        /* \"#utility.yul\":7433:7799   */\n      swap2\n      swap1\n      pop\n      jump\t// out\n        /* \"#utility.yul\":7805:8224   */\n    tag_114:\n        /* \"#utility.yul\":7971:7975   */\n      0x00\n        /* \"#utility.yul\":8009:8011   */\n      0x20\n        /* \"#utility.yul\":7998:8007   */\n      dup3\n        /* \"#utility.yul\":7994:8012   */\n      add\n        /* \"#utility.yul\":7986:8012   */\n      swap1\n      pop\n        /* \"#utility.yul\":8058:8067   */\n      dup2\n        /* \"#utility.yul\":8052:8056   */\n      dup2\n        /* \"#utility.yul\":8048:8068   */\n      sub\n        /* \"#utility.yul\":8044:8045   */\n      0x00\n        /* \"#utility.yul\":8033:8042   */\n      dup4\n        /* \"#utility.yul\":8029:8046   */\n      add\n        /* \"#utility.yul\":8022:8069   */\n      mstore\n        /* \"#utility.yul\":8086:8217   */\n      tag_372\n        /* \"#utility.yul\":8212:8216   */\n      dup2\n        /* \"#utility.yul\":8086:8217   */\n      tag_251\n      jump\t// in\n    tag_372:\n        /* \"#utility.yul\":8078:8217   */\n      swap1\n      pop\n        /* \"#utility.yul\":7805:8224   */\n      swap2\n      swap1\n      pop\n      jump\t// out\n        /* \"#utility.yul\":8230:8412   */\n    tag_252:\n        /* \"#utility.yul\":8370:8404   */\n      0x4f776e61626c653a2063616c6c6572206973206e6f7420746865206f776e6572\n        /* \"#utility.yul\":8366:8367   */\n      0x00\n        /* \"#utility.yul\":8358:8364   */\n      dup3\n        /* \"#utility.yul\":8354:8368   */\n      add\n        /* \"#utility.yul\":8347:8405   */\n      mstore\n        /* \"#utility.yul\":8230:8412   */\n      pop\n      jump\t// out\n        /* \"#utility.yul\":8418:8784   */\n    tag_253:\n        /* \"#utility.yul\":8560:8563   */\n      0x00\n        /* \"#utility.yul\":8581:8648   */\n      tag_375\n        /* \"#utility.yul\":8645:8647   */\n      0x20\n        /* \"#utility.yul\":8640:8643   */\n      dup4\n        /* \"#utility.yul\":8581:8648   */\n      tag_245\n      jump\t// in\n    tag_375:\n        /* \"#utility.yul\":8574:8648   */\n      swap2\n      pop\n        /* \"#utility.yul\":8657:8750   */\n      tag_376\n        /* \"#utility.yul\":8746:8749   */\n      dup3\n        /* \"#utility.yul\":8657:8750   */\n      tag_252\n      jump\t// in\n    tag_376:\n        /* \"#utility.yul\":8775:8777   */\n      0x20\n        /* \"#utility.yul\":8770:8773   */\n      dup3\n        /* \"#utility.yul\":8766:8778   */\n      add\n        /* \"#utility.yul\":8759:8778   */\n      swap1\n      pop\n        /* \"#utility.yul\":8418:8784   */\n      swap2\n      swap1\n      pop\n      jump\t// out\n        /* \"#utility.yul\":8790:9209   */\n    tag_125:\n        /* \"#utility.yul\":8956:8960   */\n      0x00\n        /* \"#utility.yul\":8994:8996   */\n      0x20\n        /* \"#utility.yul\":8983:8992   */\n      dup3\n        /* \"#utility.yul\":8979:8997   */\n      add\n        /* \"#utility.yul\":8971:8997   */\n      swap1\n      pop\n        /* \"#utility.yul\":9043:9052   */\n      dup2\n        /* \"#utility.yul\":9037:9041   */\n      dup2\n        /* \"#utility.yul\":9033:9053   */\n      sub\n        /* \"#utility.yul\":9029:9030   */\n      0x00\n        /* \"#utility.yul\":9018:9027   */\n      dup4\n        /* \"#utility.yul\":9014:9031   */\n      add\n        /* \"#utility.yul\":9007:9054   */\n      mstore\n        /* \"#utility.yul\":9071:9202   */\n      tag_378\n        /* \"#utility.yul\":9197:9201   */\n      dup2\n        /* \"#utility.yul\":9071:9202   */\n      tag_253\n      jump\t// in\n    tag_378:\n        /* \"#utility.yul\":9063:9202   */\n      swap1\n      pop\n        /* \"#utility.yul\":8790:9209   */\n      swap2\n      swap1\n      pop\n      jump\t// out\n        /* \"#utility.yul\":9215:9395   */\n    tag_132:\n        /* \"#utility.yul\":9263:9340   */\n      0x4e487b7100000000000000000000000000000000000000000000000000000000\n        /* \"#utility.yul\":9260:9261   */\n      0x00\n        /* \"#utility.yul\":9253:9341   */\n      mstore\n        /* \"#utility.yul\":9360:9364   */\n      0x32\n        /* \"#utility.yul\":9357:9358   */\n      0x04\n        /* \"#utility.yul\":9350:9365   */\n      mstore\n        /* \"#utility.yul\":9384:9388   */\n      0x24\n        /* \"#utility.yul\":9381:9382   */\n      0x00\n        /* \"#utility.yul\":9374:9389   */\n      revert\n        /* \"#utility.yul\":9401:9626   */\n    tag_254:\n        /* \"#utility.yul\":9541:9575   */\n      0x4f776e61626c653a206e6577206f776e657220697320746865207a65726f2061\n        /* \"#utility.yul\":9537:9538   */\n      0x00\n        /* \"#utility.yul\":9529:9535   */\n      dup3\n        /* \"#utility.yul\":9525:9539   */\n      add\n        /* \"#utility.yul\":9518:9576   */\n      mstore\n        /* \"#utility.yul\":9610:9618   */\n      0x6464726573730000000000000000000000000000000000000000000000000000\n        /* \"#utility.yul\":9605:9607   */\n      0x20\n        /* \"#utility.yul\":9597:9603   */\n      dup3\n        /* \"#utility.yul\":9593:9608   */\n      add\n        /* \"#utility.yul\":9586:9619   */\n      mstore\n        /* \"#utility.yul\":9401:9626   */\n      pop\n      jump\t// out\n        /* \"#utility.yul\":9632:9998   */\n    tag_255:\n        /* \"#utility.yul\":9774:9777   */\n      0x00\n        /* \"#utility.yul\":9795:9862   */\n      tag_382\n        /* \"#utility.yul\":9859:9861   */\n      0x26\n        /* \"#utility.yul\":9854:9857   */\n      dup4\n        /* \"#utility.yul\":9795:9862   */\n      tag_245\n      jump\t// in\n    tag_382:\n        /* \"#utility.yul\":9788:9862   */\n      swap2\n      pop\n        /* \"#utility.yul\":9871:9964   */\n      tag_383\n        /* \"#utility.yul\":9960:9963   */\n      dup3\n        /* \"#utility.yul\":9871:9964   */\n      tag_254\n      jump\t// in\n    tag_383:\n        /* \"#utility.yul\":9989:9991   */\n      0x40\n        /* \"#utility.yul\":9984:9987   */\n      dup3\n        /* \"#utility.yul\":9980:9992   */\n      add\n        /* \"#utility.yul\":9973:9992   */\n      swap1\n      pop\n        /* \"#utility.yul\":9632:9998   */\n      swap2\n      swap1\n      pop\n      jump\t// out\n        /* \"#utility.yul\":10004:10423   */\n    tag_150:\n        /* \"#utility.yul\":10170:10174   */\n      0x00\n        /* \"#utility.yul\":10208:10210   */\n      0x20\n        /* \"#utility.yul\":10197:10206   */\n      dup3\n        /* \"#utility.yul\":10193:10211   */\n      add\n        /* \"#utility.yul\":10185:10211   */\n      swap1\n      pop\n        /* \"#utility.yul\":10257:10266   */\n      dup2\n        /* \"#utility.yul\":10251:10255   */\n      dup2\n        /* \"#utility.yul\":10247:10267   */\n      sub\n        /* \"#utility.yul\":10243:10244   */\n      0x00\n        /* \"#utility.yul\":10232:10241   */\n      dup4\n        /* \"#utility.yul\":10228:10245   */\n      add\n        /* \"#utility.yul\":10221:10268   */\n      mstore\n        /* \"#utility.yul\":10285:10416   */\n      tag_385\n        /* \"#utility.yul\":10411:10415   */\n      dup2\n        /* \"#utility.yul\":10285:10416   */\n      tag_255\n      jump\t// in\n    tag_385:\n        /* \"#utility.yul\":10277:10416   */\n      swap1\n      pop\n        /* \"#utility.yul\":10004:10423   */\n      swap2\n      swap1\n      pop\n      jump\t// out\n        /* \"#utility.yul\":10429:10489   */\n    tag_256:\n        /* \"#utility.yul\":10457:10460   */\n      0x00\n        /* \"#utility.yul\":10478:10483   */\n      dup2\n        /* \"#utility.yul\":10471:10483   */\n      swap1\n      pop\n        /* \"#utility.yul\":10429:10489   */\n      swap2\n      swap1\n      pop\n      jump\t// out\n        /* \"#utility.yul\":10495:10637   */\n    tag_257:\n        /* \"#utility.yul\":10545:10554   */\n      0x00\n        /* \"#utility.yul\":10578:10631   */\n      tag_388\n        /* \"#utility.yul\":10596:10630   */\n      tag_389\n        /* \"#utility.yul\":10605:10629   */\n      tag_390\n        /* \"#utility.yul\":10623:10628   */\n      dup5\n        /* \"#utility.yul\":10605:10629   */\n      tag_227\n      jump\t// in\n    tag_390:\n        /* \"#utility.yul\":10596:10630   */\n      tag_256\n      jump\t// in\n    tag_389:\n        /* \"#utility.yul\":10578:10631   */\n      tag_227\n      jump\t// in\n    tag_388:\n        /* \"#utility.yul\":10565:10631   */\n      swap1\n      pop\n        /* \"#utility.yul\":10495:10637   */\n      swap2\n      swap1\n      pop\n      jump\t// out\n        /* \"#utility.yul\":10643:10769   */\n    tag_258:\n        /* \"#utility.yul\":10693:10702   */\n      0x00\n        /* \"#utility.yul\":10726:10763   */\n      tag_392\n        /* \"#utility.yul\":10757:10762   */\n      dup3\n        /* \"#utility.yul\":10726:10763   */\n      tag_257\n      jump\t// in\n    tag_392:\n        /* \"#utility.yul\":10713:10763   */\n      swap1\n      pop\n        /* \"#utility.yul\":10643:10769   */\n      swap2\n      swap1\n      pop\n      jump\t// out\n        /* \"#utility.yul\":10775:10909   */\n    tag_259:\n        /* \"#utility.yul\":10833:10842   */\n      0x00\n        /* \"#utility.yul\":10866:10903   */\n      tag_394\n        /* \"#utility.yul\":10897:10902   */\n      dup3\n        /* \"#utility.yul\":10866:10903   */\n      tag_258\n      jump\t// in\n    tag_394:\n        /* \"#utility.yul\":10853:10903   */\n      swap1\n      pop\n        /* \"#utility.yul\":10775:10909   */\n      swap2\n      swap1\n      pop\n      jump\t// out\n        /* \"#utility.yul\":10915:11062   */\n    tag_260:\n        /* \"#utility.yul\":11010:11055   */\n      tag_396\n        /* \"#utility.yul\":11049:11054   */\n      dup2\n        /* \"#utility.yul\":11010:11055   */\n      tag_259\n      jump\t// in\n    tag_396:\n        /* \"#utility.yul\":11005:11008   */\n      dup3\n        /* \"#utility.yul\":10998:11056   */\n      mstore\n        /* \"#utility.yul\":10915:11062   */\n      pop\n      pop\n      jump\t// out\n        /* \"#utility.yul\":11068:11416   */\n    tag_166:\n        /* \"#utility.yul\":11197:11201   */\n      0x00\n        /* \"#utility.yul\":11235:11237   */\n      0x40\n        /* \"#utility.yul\":11224:11233   */\n      dup3\n        /* \"#utility.yul\":11220:11238   */\n      add\n        /* \"#utility.yul\":11212:11238   */\n      swap1\n      pop\n        /* \"#utility.yul\":11248:11327   */\n      tag_398\n        /* \"#utility.yul\":11324:11325   */\n      0x00\n        /* \"#utility.yul\":11313:11322   */\n      dup4\n        /* \"#utility.yul\":11309:11326   */\n      add\n        /* \"#utility.yul\":11300:11306   */\n      dup6\n        /* \"#utility.yul\":11248:11327   */\n      tag_260\n      jump\t// in\n    tag_398:\n        /* \"#utility.yul\":11337:11409   */\n      tag_399\n        /* \"#utility.yul\":11405:11407   */\n      0x20\n        /* \"#utility.yul\":11394:11403   */\n      dup4\n        /* \"#utility.yul\":11390:11408   */\n      add\n        /* \"#utility.yul\":11381:11387   */\n      dup5\n        /* \"#utility.yul\":11337:11409   */\n      tag_231\n      jump\t// in\n    tag_399:\n        /* \"#utility.yul\":11068:11416   */\n      swap4\n      swap3\n      pop\n      pop\n      pop\n      jump\t// out\n        /* \"#utility.yul\":11422:11770   */\n    tag_169:\n        /* \"#utility.yul\":11462:11469   */\n      0x00\n        /* \"#utility.yul\":11485:11505   */\n      tag_401\n        /* \"#utility.yul\":11503:11504   */\n      dup3\n        /* \"#utility.yul\":11485:11505   */\n      tag_230\n      jump\t// in\n    tag_401:\n        /* \"#utility.yul\":11480:11505   */\n      swap2\n      pop\n        /* \"#utility.yul\":11519:11539   */\n      tag_402\n        /* \"#utility.yul\":11537:11538   */\n      dup4\n        /* \"#utility.yul\":11519:11539   */\n      tag_230\n      jump\t// in\n    tag_402:\n        /* \"#utility.yul\":11514:11539   */\n      swap3\n      pop\n        /* \"#utility.yul\":11707:11708   */\n      dup2\n        /* \"#utility.yul\":11639:11705   */\n      0xffffffffffffffffffffffffffffffffffffffffffffffffffffffffffffffff\n        /* \"#utility.yul\":11635:11709   */\n      div\n        /* \"#utility.yul\":11632:11633   */\n      dup4\n        /* \"#utility.yul\":11629:11710   */\n      gt\n        /* \"#utility.yul\":11624:11625   */\n      dup3\n        /* \"#utility.yul\":11617:11626   */\n      iszero\n        /* \"#utility.yul\":11610:11627   */\n      iszero\n        /* \"#utility.yul\":11606:11711   */\n      and\n        /* \"#utility.yul\":11603:11734   */\n      iszero\n      tag_403\n      jumpi\n        /* \"#utility.yul\":11714:11732   */\n      tag_404\n      tag_249\n      jump\t// in\n    tag_404:\n        /* \"#utility.yul\":11603:11734   */\n    tag_403:\n        /* \"#utility.yul\":11762:11763   */\n      dup3\n        /* \"#utility.yul\":11759:11760   */\n      dup3\n        /* \"#utility.yul\":11755:11764   */\n      mul\n        /* \"#utility.yul\":11744:11764   */\n      swap1\n      pop\n        /* \"#utility.yul\":11422:11770   */\n      swap3\n      swap2\n      pop\n      pop\n      jump\t// out\n        /* \"#utility.yul\":11776:11956   */\n    tag_261:\n        /* \"#utility.yul\":11824:11901   */\n      0x4e487b7100000000000000000000000000000000000000000000000000000000\n        /* \"#utility.yul\":11821:11822   */\n      0x00\n        /* \"#utility.yul\":11814:11902   */\n      mstore\n        /* \"#utility.yul\":11921:11925   */\n      0x12\n        /* \"#utility.yul\":11918:11919   */\n      0x04\n        /* \"#utility.yul\":11911:11926   */\n      mstore\n        /* \"#utility.yul\":11945:11949   */\n      0x24\n        /* \"#utility.yul\":11942:11943   */\n      0x00\n        /* \"#utility.yul\":11935:11950   */\n      revert\n        /* \"#utility.yul\":11962:12147   */\n    tag_171:\n        /* \"#utility.yul\":12002:12003   */\n      0x00\n        /* \"#utility.yul\":12019:12039   */\n      tag_407\n        /* \"#utility.yul\":12037:12038   */\n      dup3\n        /* \"#utility.yul\":12019:12039   */\n      tag_230\n      jump\t// in\n    tag_407:\n        /* \"#utility.yul\":12014:12039   */\n      swap2\n      pop\n        /* \"#utility.yul\":12053:12073   */\n      tag_408\n        /* \"#utility.yul\":12071:12072   */\n      dup4\n        /* \"#utility.yul\":12053:12073   */\n      tag_230\n      jump\t// in\n    tag_408:\n        /* \"#utility.yul\":12048:12073   */\n      swap3\n      pop\n        /* \"#utility.yul\":12092:12093   */\n      dup3\n        /* \"#utility.yul\":12082:12117   */\n      tag_409\n      jumpi\n        /* \"#utility.yul\":12097:12115   */\n      tag_410\n      tag_261\n      jump\t// in\n    tag_410:\n        /* \"#utility.yul\":12082:12117   */\n    tag_409:\n        /* \"#utility.yul\":12139:12140   */\n      dup3\n        /* \"#utility.yul\":12136:12137   */\n      dup3\n        /* \"#utility.yul\":12132:12141   */\n      div\n        /* \"#utility.yul\":12127:12141   */\n      swap1\n      pop\n        /* \"#utility.yul\":11962:12147   */\n      swap3\n      swap2\n      pop\n      pop\n      jump\t// out\n        /* \"#utility.yul\":12153:12344   */\n    tag_173:\n        /* \"#utility.yul\":12193:12197   */\n      0x00\n        /* \"#utility.yul\":12213:12233   */\n      tag_412\n        /* \"#utility.yul\":12231:12232   */\n      dup3\n        /* \"#utility.yul\":12213:12233   */\n      tag_230\n      jump\t// in\n    tag_412:\n        /* \"#utility.yul\":12208:12233   */\n      swap2\n      pop\n        /* \"#utility.yul\":12247:12267   */\n      tag_413\n        /* \"#utility.yul\":12265:12266   */\n      dup4\n        /* \"#utility.yul\":12247:12267   */\n      tag_230\n      jump\t// in\n    tag_413:\n        /* \"#utility.yul\":12242:12267   */\n      swap3\n      pop\n        /* \"#utility.yul\":12286:12287   */\n      dup3\n        /* \"#utility.yul\":12283:12284   */\n      dup3\n        /* \"#utility.yul\":12280:12288   */\n      lt\n        /* \"#utility.yul\":12277:12311   */\n      iszero\n      tag_414\n      jumpi\n        /* \"#utility.yul\":12291:12309   */\n      tag_415\n      tag_249\n      jump\t// in\n    tag_415:\n        /* \"#utility.yul\":12277:12311   */\n    tag_414:\n        /* \"#utility.yul\":12336:12337   */\n      dup3\n        /* \"#utility.yul\":12333:12334   */\n      dup3\n        /* \"#utility.yul\":12329:12338   */\n      sub\n        /* \"#utility.yul\":12321:12338   */\n      swap1\n      pop\n        /* \"#utility.yul\":12153:12344   */\n      swap3\n      swap2\n      pop\n      pop\n      jump\t// out\n        /* \"#utility.yul\":12350:12529   */\n    tag_262:\n        /* \"#utility.yul\":12490:12521   */\n      0x416464726573733a20696e73756666696369656e742062616c616e6365000000\n        /* \"#utility.yul\":12486:12487   */\n      0x00\n        /* \"#utility.yul\":12478:12484   */\n      dup3\n        /* \"#utility.yul\":12474:12488   */\n      add\n        /* \"#utility.yul\":12467:12522   */\n      mstore\n        /* \"#utility.yul\":12350:12529   */\n      pop\n      jump\t// out\n        /* \"#utility.yul\":12535:12901   */\n    tag_263:\n        /* \"#utility.yul\":12677:12680   */\n      0x00\n        /* \"#utility.yul\":12698:12765   */\n      tag_418\n        /* \"#utility.yul\":12762:12764   */\n      0x1d\n        /* \"#utility.yul\":12757:12760   */\n      dup4\n        /* \"#utility.yul\":12698:12765   */\n      tag_245\n      jump\t// in\n    tag_418:\n        /* \"#utility.yul\":12691:12765   */\n      swap2\n      pop\n        /* \"#utility.yul\":12774:12867   */\n      tag_419\n        /* \"#utility.yul\":12863:12866   */\n      dup3\n        /* \"#utility.yul\":12774:12867   */\n      tag_262\n      jump\t// in\n    tag_419:\n        /* \"#utility.yul\":12892:12894   */\n      0x20\n        /* \"#utility.yul\":12887:12890   */\n      dup3\n        /* \"#utility.yul\":12883:12895   */\n      add\n        /* \"#utility.yul\":12876:12895   */\n      swap1\n      pop\n        /* \"#utility.yul\":12535:12901   */\n      swap2\n      swap1\n      pop\n      jump\t// out\n        /* \"#utility.yul\":12907:13326   */\n    tag_182:\n        /* \"#utility.yul\":13073:13077   */\n      0x00\n        /* \"#utility.yul\":13111:13113   */\n      0x20\n        /* \"#utility.yul\":13100:13109   */\n      dup3\n        /* \"#utility.yul\":13096:13114   */\n      add\n        /* \"#utility.yul\":13088:13114   */\n      swap1\n      pop\n        /* \"#utility.yul\":13160:13169   */\n      dup2\n        /* \"#utility.yul\":13154:13158   */\n      dup2\n        /* \"#utility.yul\":13150:13170   */\n      sub\n        /* \"#utility.yul\":13146:13147   */\n      0x00\n        /* \"#utility.yul\":13135:13144   */\n      dup4\n        /* \"#utility.yul\":13131:13148   */\n      add\n        /* \"#utility.yul\":13124:13171   */\n      mstore\n        /* \"#utility.yul\":13188:13319   */\n      tag_421\n        /* \"#utility.yul\":13314:13318   */\n      dup2\n        /* \"#utility.yul\":13188:13319   */\n      tag_263\n      jump\t// in\n    tag_421:\n        /* \"#utility.yul\":13180:13319   */\n      swap1\n      pop\n        /* \"#utility.yul\":12907:13326   */\n      swap2\n      swap1\n      pop\n      jump\t// out\n        /* \"#utility.yul\":13332:13479   */\n    tag_264:\n        /* \"#utility.yul\":13433:13444   */\n      0x00\n        /* \"#utility.yul\":13470:13473   */\n      dup2\n        /* \"#utility.yul\":13455:13473   */\n      swap1\n      pop\n        /* \"#utility.yul\":13332:13479   */\n      swap3\n      swap2\n      pop\n      pop\n      jump\t// out\n        /* \"#utility.yul\":13485:13599   */\n    tag_265:\n      pop\n      jump\t// out\n        /* \"#utility.yul\":13605:14003   */\n    tag_266:\n        /* \"#utility.yul\":13764:13767   */\n      0x00\n        /* \"#utility.yul\":13785:13868   */\n      tag_425\n        /* \"#utility.yul\":13866:13867   */\n      0x00\n        /* \"#utility.yul\":13861:13864   */\n      dup4\n        /* \"#utility.yul\":13785:13868   */\n      tag_264\n      jump\t// in\n    tag_425:\n        /* \"#utility.yul\":13778:13868   */\n      swap2\n      pop\n        /* \"#utility.yul\":13877:13970   */\n      tag_426\n        /* \"#utility.yul\":13966:13969   */\n      dup3\n        /* \"#utility.yul\":13877:13970   */\n      tag_265\n      jump\t// in\n    tag_426:\n        /* \"#utility.yul\":13995:13996   */\n      0x00\n        /* \"#utility.yul\":13990:13993   */\n      dup3\n        /* \"#utility.yul\":13986:13997   */\n      add\n        /* \"#utility.yul\":13979:13997   */\n      swap1\n      pop\n        /* \"#utility.yul\":13605:14003   */\n      swap2\n      swap1\n      pop\n      jump\t// out\n        /* \"#utility.yul\":14009:14388   */\n    tag_184:\n        /* \"#utility.yul\":14193:14196   */\n      0x00\n        /* \"#utility.yul\":14215:14362   */\n      tag_428\n        /* \"#utility.yul\":14358:14361   */\n      dup3\n        /* \"#utility.yul\":14215:14362   */\n      tag_266\n      jump\t// in\n    tag_428:\n        /* \"#utility.yul\":14208:14362   */\n      swap2\n      pop\n        /* \"#utility.yul\":14379:14382   */\n      dup2\n        /* \"#utility.yul\":14372:14382   */\n      swap1\n      pop\n        /* \"#utility.yul\":14009:14388   */\n      swap2\n      swap1\n      pop\n      jump\t// out\n        /* \"#utility.yul\":14394:14639   */\n    tag_267:\n        /* \"#utility.yul\":14534:14568   */\n      0x416464726573733a20756e61626c6520746f2073656e642076616c75652c2072\n        /* \"#utility.yul\":14530:14531   */\n      0x00\n        /* \"#utility.yul\":14522:14528   */\n      dup3\n        /* \"#utility.yul\":14518:14532   */\n      add\n        /* \"#utility.yul\":14511:14569   */\n      mstore\n        /* \"#utility.yul\":14603:14631   */\n      0x6563697069656e74206d61792068617665207265766572746564000000000000\n        /* \"#utility.yul\":14598:14600   */\n      0x20\n        /* \"#utility.yul\":14590:14596   */\n      dup3\n        /* \"#utility.yul\":14586:14601   */\n      add\n        /* \"#utility.yul\":14579:14632   */\n      mstore\n        /* \"#utility.yul\":14394:14639   */\n      pop\n      jump\t// out\n        /* \"#utility.yul\":14645:15011   */\n    tag_268:\n        /* \"#utility.yul\":14787:14790   */\n      0x00\n        /* \"#utility.yul\":14808:14875   */\n      tag_431\n        /* \"#utility.yul\":14872:14874   */\n      0x3a\n        /* \"#utility.yul\":14867:14870   */\n      dup4\n        /* \"#utility.yul\":14808:14875   */\n      tag_245\n      jump\t// in\n    tag_431:\n        /* \"#utility.yul\":14801:14875   */\n      swap2\n      pop\n        /* \"#utility.yul\":14884:14977   */\n      tag_432\n        /* \"#utility.yul\":14973:14976   */\n      dup3\n        /* \"#utility.yul\":14884:14977   */\n      tag_267\n      jump\t// in\n    tag_432:\n        /* \"#utility.yul\":15002:15004   */\n      0x40\n        /* \"#utility.yul\":14997:15000   */\n      dup3\n        /* \"#utility.yul\":14993:15005   */\n      add\n        /* \"#utility.yul\":14986:15005   */\n      swap1\n      pop\n        /* \"#utility.yul\":14645:15011   */\n      swap2\n      swap1\n      pop\n      jump\t// out\n        /* \"#utility.yul\":15017:15436   */\n    tag_190:\n        /* \"#utility.yul\":15183:15187   */\n      0x00\n        /* \"#utility.yul\":15221:15223   */\n      0x20\n        /* \"#utility.yul\":15210:15219   */\n      dup3\n        /* \"#utility.yul\":15206:15224   */\n      add\n        /* \"#utility.yul\":15198:15224   */\n      swap1\n      pop\n        /* \"#utility.yul\":15270:15279   */\n      dup2\n        /* \"#utility.yul\":15264:15268   */\n      dup2\n        /* \"#utility.yul\":15260:15280   */\n      sub\n        /* \"#utility.yul\":15256:15257   */\n      0x00\n        /* \"#utility.yul\":15245:15254   */\n      dup4\n        /* \"#utility.yul\":15241:15258   */\n      add\n        /* \"#utility.yul\":15234:15281   */\n      mstore\n        /* \"#utility.yul\":15298:15429   */\n      tag_434\n        /* \"#utility.yul\":15424:15428   */\n      dup2\n        /* \"#utility.yul\":15298:15429   */\n      tag_268\n      jump\t// in\n    tag_434:\n        /* \"#utility.yul\":15290:15429   */\n      swap1\n      pop\n        /* \"#utility.yul\":15017:15436   */\n      swap2\n      swap1\n      pop\n      jump\t// out\n        /* \"#utility.yul\":15442:15532   */\n    tag_269:\n        /* \"#utility.yul\":15476:15483   */\n      0x00\n        /* \"#utility.yul\":15519:15524   */\n      dup2\n        /* \"#utility.yul\":15512:15525   */\n      iszero\n        /* \"#utility.yul\":15505:15526   */\n      iszero\n        /* \"#utility.yul\":15494:15526   */\n      swap1\n      pop\n        /* \"#utility.yul\":15442:15532   */\n      swap2\n      swap1\n      pop\n      jump\t// out\n        /* \"#utility.yul\":15538:15654   */\n    tag_270:\n        /* \"#utility.yul\":15608:15629   */\n      tag_437\n        /* \"#utility.yul\":15623:15628   */\n      dup2\n        /* \"#utility.yul\":15608:15629   */\n      tag_269\n      jump\t// in\n    tag_437:\n        /* \"#utility.yul\":15601:15606   */\n      dup2\n        /* \"#utility.yul\":15598:15630   */\n      eq\n        /* \"#utility.yul\":15588:15648   */\n      tag_438\n      jumpi\n        /* \"#utility.yul\":15644:15645   */\n      0x00\n        /* \"#utility.yul\":15641:15642   */\n      dup1\n        /* \"#utility.yul\":15634:15646   */\n      revert\n        /* \"#utility.yul\":15588:15648   */\n    tag_438:\n        /* \"#utility.yul\":15538:15654   */\n      pop\n      jump\t// out\n        /* \"#utility.yul\":15660:15797   */\n    tag_271:\n        /* \"#utility.yul\":15714:15719   */\n      0x00\n        /* \"#utility.yul\":15745:15751   */\n      dup2\n        /* \"#utility.yul\":15739:15752   */\n      mload\n        /* \"#utility.yul\":15730:15752   */\n      swap1\n      pop\n        /* \"#utility.yul\":15761:15791   */\n      tag_440\n        /* \"#utility.yul\":15785:15790   */\n      dup2\n        /* \"#utility.yul\":15761:15791   */\n      tag_270\n      jump\t// in\n    tag_440:\n        /* \"#utility.yul\":15660:15797   */\n      swap3\n      swap2\n      pop\n      pop\n      jump\t// out\n        /* \"#utility.yul\":15803:16148   */\n    tag_196:\n        /* \"#utility.yul\":15870:15876   */\n      0x00\n        /* \"#utility.yul\":15919:15921   */\n      0x20\n        /* \"#utility.yul\":15907:15916   */\n      dup3\n        /* \"#utility.yul\":15898:15905   */\n      dup5\n        /* \"#utility.yul\":15894:15917   */\n      sub\n        /* \"#utility.yul\":15890:15922   */\n      slt\n        /* \"#utility.yul\":15887:16006   */\n      iszero\n      tag_442\n      jumpi\n        /* \"#utility.yul\":15925:16004   */\n      tag_443\n      tag_233\n      jump\t// in\n    tag_443:\n        /* \"#utility.yul\":15887:16006   */\n    tag_442:\n        /* \"#utility.yul\":16045:16046   */\n      0x00\n        /* \"#utility.yul\":16070:16131   */\n      tag_444\n        /* \"#utility.yul\":16123:16130   */\n      dup5\n        /* \"#utility.yul\":16114:16120   */\n      dup3\n        /* \"#utility.yul\":16103:16112   */\n      dup6\n        /* \"#utility.yul\":16099:16121   */\n      add\n        /* \"#utility.yul\":16070:16131   */\n      tag_271\n      jump\t// in\n    tag_444:\n        /* \"#utility.yul\":16060:16131   */\n      swap2\n      pop\n        /* \"#utility.yul\":16016:16141   */\n      pop\n        /* \"#utility.yul\":15803:16148   */\n      swap3\n      swap2\n      pop\n      pop\n      jump\t// out\n        /* \"#utility.yul\":16154:16383   */\n    tag_272:\n        /* \"#utility.yul\":16294:16328   */\n      0x5361666545524332303a204552433230206f7065726174696f6e20646964206e\n        /* \"#utility.yul\":16290:16291   */\n      0x00\n        /* \"#utility.yul\":16282:16288   */\n      dup3\n        /* \"#utility.yul\":16278:16292   */\n      add\n        /* \"#utility.yul\":16271:16329   */\n      mstore\n        /* \"#utility.yul\":16363:16375   */\n      0x6f74207375636365656400000000000000000000000000000000000000000000\n        /* \"#utility.yul\":16358:16360   */\n      0x20\n        /* \"#utility.yul\":16350:16356   */\n      dup3\n        /* \"#utility.yul\":16346:16361   */\n      add\n        /* \"#utility.yul\":16339:16376   */\n      mstore\n        /* \"#utility.yul\":16154:16383   */\n      pop\n      jump\t// out\n        /* \"#utility.yul\":16389:16755   */\n    tag_273:\n        /* \"#utility.yul\":16531:16534   */\n      0x00\n        /* \"#utility.yul\":16552:16619   */\n      tag_447\n        /* \"#utility.yul\":16616:16618   */\n      0x2a\n        /* \"#utility.yul\":16611:16614   */\n      dup4\n        /* \"#utility.yul\":16552:16619   */\n      tag_245\n      jump\t// in\n    tag_447:\n        /* \"#utility.yul\":16545:16619   */\n      swap2\n      pop\n        /* \"#utility.yul\":16628:16721   */\n      tag_448\n        /* \"#utility.yul\":16717:16720   */\n      dup3\n        /* \"#utility.yul\":16628:16721   */\n      tag_272\n      jump\t// in\n    tag_448:\n        /* \"#utility.yul\":16746:16748   */\n      0x40\n        /* \"#utility.yul\":16741:16744   */\n      dup3\n        /* \"#utility.yul\":16737:16749   */\n      add\n        /* \"#utility.yul\":16730:16749   */\n      swap1\n      pop\n        /* \"#utility.yul\":16389:16755   */\n      swap2\n      swap1\n      pop\n      jump\t// out\n        /* \"#utility.yul\":16761:17180   */\n    tag_199:\n        /* \"#utility.yul\":16927:16931   */\n      0x00\n        /* \"#utility.yul\":16965:16967   */\n      0x20\n        /* \"#utility.yul\":16954:16963   */\n      dup3\n        /* \"#utility.yul\":16950:16968   */\n      add\n        /* \"#utility.yul\":16942:16968   */\n      swap1\n      pop\n        /* \"#utility.yul\":17014:17023   */\n      dup2\n        /* \"#utility.yul\":17008:17012   */\n      dup2\n        /* \"#utility.yul\":17004:17024   */\n      sub\n        /* \"#utility.yul\":17000:17001   */\n      0x00\n        /* \"#utility.yul\":16989:16998   */\n      dup4\n        /* \"#utility.yul\":16985:17002   */\n      add\n        /* \"#utility.yul\":16978:17025   */\n      mstore\n        /* \"#utility.yul\":17042:17173   */\n      tag_450\n        /* \"#utility.yul\":17168:17172   */\n      dup2\n        /* \"#utility.yul\":17042:17173   */\n      tag_273\n      jump\t// in\n    tag_450:\n        /* \"#utility.yul\":17034:17173   */\n      swap1\n      pop\n        /* \"#utility.yul\":16761:17180   */\n      swap2\n      swap1\n      pop\n      jump\t// out\n        /* \"#utility.yul\":17186:17411   */\n    tag_274:\n        /* \"#utility.yul\":17326:17360   */\n      0x416464726573733a20696e73756666696369656e742062616c616e636520666f\n        /* \"#utility.yul\":17322:17323   */\n      0x00\n        /* \"#utility.yul\":17314:17320   */\n      dup3\n        /* \"#utility.yul\":17310:17324   */\n      add\n        /* \"#utility.yul\":17303:17361   */\n      mstore\n        /* \"#utility.yul\":17395:17403   */\n      0x722063616c6c0000000000000000000000000000000000000000000000000000\n        /* \"#utility.yul\":17390:17392   */\n      0x20\n        /* \"#utility.yul\":17382:17388   */\n      dup3\n        /* \"#utility.yul\":17378:17393   */\n      add\n        /* \"#utility.yul\":17371:17404   */\n      mstore\n        /* \"#utility.yul\":17186:17411   */\n      pop\n      jump\t// out\n        /* \"#utility.yul\":17417:17783   */\n    tag_275:\n        /* \"#utility.yul\":17559:17562   */\n      0x00\n        /* \"#utility.yul\":17580:17647   */\n      tag_453\n        /* \"#utility.yul\":17644:17646   */\n      0x26\n        /* \"#utility.yul\":17639:17642   */\n      dup4\n        /* \"#utility.yul\":17580:17647   */\n      tag_245\n      jump\t// in\n    tag_453:\n        /* \"#utility.yul\":17573:17647   */\n      swap2\n      pop\n        /* \"#utility.yul\":17656:17749   */\n      tag_454\n        /* \"#utility.yul\":17745:17748   */\n      dup3\n        /* \"#utility.yul\":17656:17749   */\n      tag_274\n      jump\t// in\n    tag_454:\n        /* \"#utility.yul\":17774:17776   */\n      0x40\n        /* \"#utility.yul\":17769:17772   */\n      dup3\n        /* \"#utility.yul\":17765:17777   */\n      add\n        /* \"#utility.yul\":17758:17777   */\n      swap1\n      pop\n        /* \"#utility.yul\":17417:17783   */\n      swap2\n      swap1\n      pop\n      jump\t// out\n        /* \"#utility.yul\":17789:18208   */\n    tag_206:\n        /* \"#utility.yul\":17955:17959   */\n      0x00\n        /* \"#utility.yul\":17993:17995   */\n      0x20\n        /* \"#utility.yul\":17982:17991   */\n      dup3\n        /* \"#utility.yul\":17978:17996   */\n      add\n        /* \"#utility.yul\":17970:17996   */\n      swap1\n      pop\n        /* \"#utility.yul\":18042:18051   */\n      dup2\n        /* \"#utility.yul\":18036:18040   */\n      dup2\n        /* \"#utility.yul\":18032:18052   */\n      sub\n        /* \"#utility.yul\":18028:18029   */\n      0x00\n        /* \"#utility.yul\":18017:18026   */\n      dup4\n        /* \"#utility.yul\":18013:18030   */\n      add\n        /* \"#utility.yul\":18006:18053   */\n      mstore\n        /* \"#utility.yul\":18070:18201   */\n      tag_456\n        /* \"#utility.yul\":18196:18200   */\n      dup2\n        /* \"#utility.yul\":18070:18201   */\n      tag_275\n      jump\t// in\n    tag_456:\n        /* \"#utility.yul\":18062:18201   */\n      swap1\n      pop\n        /* \"#utility.yul\":17789:18208   */\n      swap2\n      swap1\n      pop\n      jump\t// out\n        /* \"#utility.yul\":18214:18393   */\n    tag_276:\n        /* \"#utility.yul\":18354:18385   */\n      0x416464726573733a2063616c6c20746f206e6f6e2d636f6e7472616374000000\n        /* \"#utility.yul\":18350:18351   */\n      0x00\n        /* \"#utility.yul\":18342:18348   */\n      dup3\n        /* \"#utility.yul\":18338:18352   */\n      add\n        /* \"#utility.yul\":18331:18386   */\n      mstore\n        /* \"#utility.yul\":18214:18393   */\n      pop\n      jump\t// out\n        /* \"#utility.yul\":18399:18765   */\n    tag_277:\n        /* \"#utility.yul\":18541:18544   */\n      0x00\n        /* \"#utility.yul\":18562:18629   */\n      tag_459\n        /* \"#utility.yul\":18626:18628   */\n      0x1d\n        /* \"#utility.yul\":18621:18624   */\n      dup4\n        /* \"#utility.yul\":18562:18629   */\n      tag_245\n      jump\t// in\n    tag_459:\n        /* \"#utility.yul\":18555:18629   */\n      swap2\n      pop\n        /* \"#utility.yul\":18638:18731   */\n      tag_460\n        /* \"#utility.yul\":18727:18730   */\n      dup3\n        /* \"#utility.yul\":18638:18731   */\n      tag_276\n      jump\t// in\n    tag_460:\n        /* \"#utility.yul\":18756:18758   */\n      0x20\n        /* \"#utility.yul\":18751:18754   */\n      dup3\n        /* \"#utility.yul\":18747:18759   */\n      add\n        /* \"#utility.yul\":18740:18759   */\n      swap1\n      pop\n        /* \"#utility.yul\":18399:18765   */\n      swap2\n      swap1\n      pop\n      jump\t// out\n        /* \"#utility.yul\":18771:19190   */\n    tag_211:\n        /* \"#utility.yul\":18937:18941   */\n      0x00\n        /* \"#utility.yul\":18975:18977   */\n      0x20\n        /* \"#utility.yul\":18964:18973   */\n      dup3\n        /* \"#utility.yul\":18960:18978   */\n      add\n        /* \"#utility.yul\":18952:18978   */\n      swap1\n      pop\n        /* \"#utility.yul\":19024:19033   */\n      dup2\n        /* \"#utility.yul\":19018:19022   */\n      dup2\n        /* \"#utility.yul\":19014:19034   */\n      sub\n        /* \"#utility.yul\":19010:19011   */\n      0x00\n        /* \"#utility.yul\":18999:19008   */\n      dup4\n        /* \"#utility.yul\":18995:19012   */\n      add\n        /* \"#utility.yul\":18988:19035   */\n      mstore\n        /* \"#utility.yul\":19052:19183   */\n      tag_462\n        /* \"#utility.yul\":19178:19182   */\n      dup2\n        /* \"#utility.yul\":19052:19183   */\n      tag_277\n      jump\t// in\n    tag_462:\n        /* \"#utility.yul\":19044:19183   */\n      swap1\n      pop\n        /* \"#utility.yul\":18771:19190   */\n      swap2\n      swap1\n      pop\n      jump\t// out\n        /* \"#utility.yul\":19196:19294   */\n    tag_278:\n        /* \"#utility.yul\":19247:19253   */\n      0x00\n        /* \"#utility.yul\":19281:19286   */\n      dup2\n        /* \"#utility.yul\":19275:19287   */\n      mload\n        /* \"#utility.yul\":19265:19287   */\n      swap1\n      pop\n        /* \"#utility.yul\":19196:19294   */\n      swap2\n      swap1\n      pop\n      jump\t// out\n        /* \"#utility.yul\":19300:19607   */\n    tag_279:\n        /* \"#utility.yul\":19368:19369   */\n      0x00\n        /* \"#utility.yul\":19378:19491   */\n    tag_465:\n        /* \"#utility.yul\":19392:19398   */\n      dup4\n        /* \"#utility.yul\":19389:19390   */\n      dup2\n        /* \"#utility.yul\":19386:19399   */\n      lt\n        /* \"#utility.yul\":19378:19491   */\n      iszero\n      tag_467\n      jumpi\n        /* \"#utility.yul\":19477:19478   */\n      dup1\n        /* \"#utility.yul\":19472:19475   */\n      dup3\n        /* \"#utility.yul\":19468:19479   */\n      add\n        /* \"#utility.yul\":19462:19480   */\n      mload\n        /* \"#utility.yul\":19458:19459   */\n      dup2\n        /* \"#utility.yul\":19453:19456   */\n      dup5\n        /* \"#utility.yul\":19449:19460   */\n      add\n        /* \"#utility.yul\":19442:19481   */\n      mstore\n        /* \"#utility.yul\":19414:19416   */\n      0x20\n        /* \"#utility.yul\":19411:19412   */\n      dup2\n        /* \"#utility.yul\":19407:19417   */\n      add\n        /* \"#utility.yul\":19402:19417   */\n      swap1\n      pop\n        /* \"#utility.yul\":19378:19491   */\n      jump(tag_465)\n    tag_467:\n        /* \"#utility.yul\":19509:19515   */\n      dup4\n        /* \"#utility.yul\":19506:19507   */\n      dup2\n        /* \"#utility.yul\":19503:19516   */\n      gt\n        /* \"#utility.yul\":19500:19601   */\n      iszero\n      tag_468\n      jumpi\n        /* \"#utility.yul\":19589:19590   */\n      0x00\n        /* \"#utility.yul\":19580:19586   */\n      dup5\n        /* \"#utility.yul\":19575:19578   */\n      dup5\n        /* \"#utility.yul\":19571:19587   */\n      add\n        /* \"#utility.yul\":19564:19591   */\n      mstore\n        /* \"#utility.yul\":19500:19601   */\n    tag_468:\n        /* \"#utility.yul\":19349:19607   */\n      pop\n        /* \"#utility.yul\":19300:19607   */\n      pop\n      pop\n      pop\n      jump\t// out\n        /* \"#utility.yul\":19613:19986   */\n    tag_280:\n        /* \"#utility.yul\":19717:19720   */\n      0x00\n        /* \"#utility.yul\":19745:19783   */\n      tag_470\n        /* \"#utility.yul\":19777:19782   */\n      dup3\n        /* \"#utility.yul\":19745:19783   */\n      tag_278\n      jump\t// in\n    tag_470:\n        /* \"#utility.yul\":19799:19887   */\n      tag_471\n        /* \"#utility.yul\":19880:19886   */\n      dup2\n        /* \"#utility.yul\":19875:19878   */\n      dup6\n        /* \"#utility.yul\":19799:19887   */\n      tag_264\n      jump\t// in\n    tag_471:\n        /* \"#utility.yul\":19792:19887   */\n      swap4\n      pop\n        /* \"#utility.yul\":19896:19948   */\n      tag_472\n        /* \"#utility.yul\":19941:19947   */\n      dup2\n        /* \"#utility.yul\":19936:19939   */\n      dup6\n        /* \"#utility.yul\":19929:19933   */\n      0x20\n        /* \"#utility.yul\":19922:19927   */\n      dup7\n        /* \"#utility.yul\":19918:19934   */\n      add\n        /* \"#utility.yul\":19896:19948   */\n      tag_279\n      jump\t// in\n    tag_472:\n        /* \"#utility.yul\":19973:19979   */\n      dup1\n        /* \"#utility.yul\":19968:19971   */\n      dup5\n        /* \"#utility.yul\":19964:19980   */\n      add\n        /* \"#utility.yul\":19957:19980   */\n      swap2\n      pop\n        /* \"#utility.yul\":19721:19986   */\n      pop\n        /* \"#utility.yul\":19613:19986   */\n      swap3\n      swap2\n      pop\n      pop\n      jump\t// out\n        /* \"#utility.yul\":19992:20263   */\n    tag_213:\n        /* \"#utility.yul\":20122:20125   */\n      0x00\n        /* \"#utility.yul\":20144:20237   */\n      tag_474\n        /* \"#utility.yul\":20233:20236   */\n      dup3\n        /* \"#utility.yul\":20224:20230   */\n      dup5\n        /* \"#utility.yul\":20144:20237   */\n      tag_280\n      jump\t// in\n    tag_474:\n        /* \"#utility.yul\":20137:20237   */\n      swap2\n      pop\n        /* \"#utility.yul\":20254:20257   */\n      dup2\n        /* \"#utility.yul\":20247:20257   */\n      swap1\n      pop\n        /* \"#utility.yul\":19992:20263   */\n      swap3\n      swap2\n      pop\n      pop\n      jump\t// out\n        /* \"#utility.yul\":20269:20368   */\n    tag_281:\n        /* \"#utility.yul\":20321:20327   */\n      0x00\n        /* \"#utility.yul\":20355:20360   */\n      dup2\n        /* \"#utility.yul\":20349:20361   */\n      mload\n        /* \"#utility.yul\":20339:20361   */\n      swap1\n      pop\n        /* \"#utility.yul\":20269:20368   */\n      swap2\n      swap1\n      pop\n      jump\t// out\n        /* \"#utility.yul\":20374:20476   */\n    tag_282:\n        /* \"#utility.yul\":20415:20421   */\n      0x00\n        /* \"#utility.yul\":20466:20468   */\n      0x1f\n        /* \"#utility.yul\":20462:20469   */\n      not\n        /* \"#utility.yul\":20457:20459   */\n      0x1f\n        /* \"#utility.yul\":20450:20455   */\n      dup4\n        /* \"#utility.yul\":20446:20460   */\n      add\n        /* \"#utility.yul\":20442:20470   */\n      and\n        /* \"#utility.yul\":20432:20470   */\n      swap1\n      pop\n        /* \"#utility.yul\":20374:20476   */\n      swap2\n      swap1\n      pop\n      jump\t// out\n        /* \"#utility.yul\":20482:20846   */\n    tag_283:\n        /* \"#utility.yul\":20570:20573   */\n      0x00\n        /* \"#utility.yul\":20598:20637   */\n      tag_478\n        /* \"#utility.yul\":20631:20636   */\n      dup3\n        /* \"#utility.yul\":20598:20637   */\n      tag_281\n      jump\t// in\n    tag_478:\n        /* \"#utility.yul\":20653:20724   */\n      tag_479\n        /* \"#utility.yul\":20717:20723   */\n      dup2\n        /* \"#utility.yul\":20712:20715   */\n      dup6\n        /* \"#utility.yul\":20653:20724   */\n      tag_245\n      jump\t// in\n    tag_479:\n        /* \"#utility.yul\":20646:20724   */\n      swap4\n      pop\n        /* \"#utility.yul\":20733:20785   */\n      tag_480\n        /* \"#utility.yul\":20778:20784   */\n      dup2\n        /* \"#utility.yul\":20773:20776   */\n      dup6\n        /* \"#utility.yul\":20766:20770   */\n      0x20\n        /* \"#utility.yul\":20759:20764   */\n      dup7\n        /* \"#utility.yul\":20755:20771   */\n      add\n        /* \"#utility.yul\":20733:20785   */\n      tag_279\n      jump\t// in\n    tag_480:\n        /* \"#utility.yul\":20810:20839   */\n      tag_481\n        /* \"#utility.yul\":20832:20838   */\n      dup2\n        /* \"#utility.yul\":20810:20839   */\n      tag_282\n      jump\t// in\n    tag_481:\n        /* \"#utility.yul\":20805:20808   */\n      dup5\n        /* \"#utility.yul\":20801:20840   */\n      add\n        /* \"#utility.yul\":20794:20840   */\n      swap2\n      pop\n        /* \"#utility.yul\":20574:20846   */\n      pop\n        /* \"#utility.yul\":20482:20846   */\n      swap3\n      swap2\n      pop\n      pop\n      jump\t// out\n        /* \"#utility.yul\":20852:21165   */\n    tag_226:\n        /* \"#utility.yul\":20965:20969   */\n      0x00\n        /* \"#utility.yul\":21003:21005   */\n      0x20\n        /* \"#utility.yul\":20992:21001   */\n      dup3\n        /* \"#utility.yul\":20988:21006   */\n      add\n        /* \"#utility.yul\":20980:21006   */\n      swap1\n      pop\n        /* \"#utility.yul\":21052:21061   */\n      dup2\n        /* \"#utility.yul\":21046:21050   */\n      dup2\n        /* \"#utility.yul\":21042:21062   */\n      sub\n        /* \"#utility.yul\":21038:21039   */\n      0x00\n        /* \"#utility.yul\":21027:21036   */\n      dup4\n        /* \"#utility.yul\":21023:21040   */\n      add\n        /* \"#utility.yul\":21016:21063   */\n      mstore\n        /* \"#utility.yul\":21080:21158   */\n      tag_483\n        /* \"#utility.yul\":21153:21157   */\n      dup2\n        /* \"#utility.yul\":21144:21150   */\n      dup5\n        /* \"#utility.yul\":21080:21158   */\n      tag_283\n      jump\t// in\n    tag_483:\n        /* \"#utility.yul\":21072:21158   */\n      swap1\n      pop\n        /* \"#utility.yul\":20852:21165   */\n      swap3\n      swap2\n      pop\n      pop\n      jump\t// out\n\n    auxdata: 0xa26469706673582212209c3d67f4e3ae68f6fe0c56b7fca13b9d2d0949c7b8d45f61bdd2570c95612f9164736f6c634300080e0033\n}\n",
				"bytecode": {
					"linkReferences": {},
					"object": "60806040526040516200284638038062002846833981810160405281019062000029919062000759565b8181805182511462000072576040517f08c379a0000000000000000000000000000000000000000000000000000000008152600401620000699062000865565b60405180910390fd5b6000825111620000b9576040517f08c379a0000000000000000000000000000000000000000000000000000000008152600401620000b090620008d7565b60405180910390fd5b60005b8251811015620001285762000112838281518110620000e057620000df620008f9565b5b6020026020010151838381518110620000fe57620000fd620008f9565b5b60200260200101516200015360201b60201c565b80806200011f9062000957565b915050620000bc565b5050506200014b6200013f6200038c60201b60201c565b6200039460201b60201c565b505062000bf2565b600073ffffffffffffffffffffffffffffffffffffffff168273ffffffffffffffffffffffffffffffffffffffff1603620001c5576040517f08c379a0000000000000000000000000000000000000000000000000000000008152600401620001bc9062000a1a565b60405180910390fd5b600081116200020b576040517f08c379a0000000000000000000000000000000000000000000000000000000008152600401620002029062000a8c565b60405180910390fd5b6000600260008473ffffffffffffffffffffffffffffffffffffffff1673ffffffffffffffffffffffffffffffffffffffff168152602001908152602001600020541462000290576040517f08c379a0000000000000000000000000000000000000000000000000000000008152600401620002879062000b24565b60405180910390fd5b6004829080600181540180825580915050600190039060005260206000200160009091909190916101000a81548173ffffffffffffffffffffffffffffffffffffffff021916908373ffffffffffffffffffffffffffffffffffffffff16021790555080600260008473ffffffffffffffffffffffffffffffffffffffff1673ffffffffffffffffffffffffffffffffffffffff168152602001908152602001600020819055508060005462000347919062000b46565b6000819055507f40c340f65e17194d14ddddb073d3c9f888e3cb52b5aae0c6c7706b4fbc905fac82826040516200038092919062000bc5565b60405180910390a15050565b600033905090565b6000600760009054906101000a900473ffffffffffffffffffffffffffffffffffffffff16905081600760006101000a81548173ffffffffffffffffffffffffffffffffffffffff021916908373ffffffffffffffffffffffffffffffffffffffff1602179055508173ffffffffffffffffffffffffffffffffffffffff168173ffffffffffffffffffffffffffffffffffffffff167f8be0079c531659141344cd1fd0a4f28419497f9722a3daafe3b4186f6b6457e060405160405180910390a35050565b6000604051905090565b600080fd5b600080fd5b600080fd5b6000601f19601f8301169050919050565b7f4e487b7100000000000000000000000000000000000000000000000000000000600052604160045260246000fd5b620004be8262000473565b810181811067ffffffffffffffff82111715620004e057620004df62000484565b5b80604052505050565b6000620004f56200045a565b9050620005038282620004b3565b919050565b600067ffffffffffffffff82111562000526576200052562000484565b5b602082029050602081019050919050565b600080fd5b600073ffffffffffffffffffffffffffffffffffffffff82169050919050565b600062000569826200053c565b9050919050565b6200057b816200055c565b81146200058757600080fd5b50565b6000815190506200059b8162000570565b92915050565b6000620005b8620005b28462000508565b620004e9565b90508083825260208201905060208402830185811115620005de57620005dd62000537565b5b835b818110156200060b5780620005f688826200058a565b845260208401935050602081019050620005e0565b5050509392505050565b600082601f8301126200062d576200062c6200046e565b5b81516200063f848260208601620005a1565b91505092915050565b600067ffffffffffffffff82111562000666576200066562000484565b5b602082029050602081019050919050565b6000819050919050565b6200068c8162000677565b81146200069857600080fd5b50565b600081519050620006ac8162000681565b92915050565b6000620006c9620006c38462000648565b620004e9565b90508083825260208201905060208402830185811115620006ef57620006ee62000537565b5b835b818110156200071c57806200070788826200069b565b845260208401935050602081019050620006f1565b5050509392505050565b600082601f8301126200073e576200073d6200046e565b5b815162000750848260208601620006b2565b91505092915050565b6000806040838503121562000773576200077262000464565b5b600083015167ffffffffffffffff81111562000794576200079362000469565b5b620007a28582860162000615565b925050602083015167ffffffffffffffff811115620007c657620007c562000469565b5b620007d48582860162000726565b9150509250929050565b600082825260208201905092915050565b7f5061796d656e7453706c69747465723a2070617965657320616e64207368617260008201527f6573206c656e677468206d69736d617463680000000000000000000000000000602082015250565b60006200084d603283620007de565b91506200085a82620007ef565b604082019050919050565b6000602082019050818103600083015262000880816200083e565b9050919050565b7f5061796d656e7453706c69747465723a206e6f20706179656573000000000000600082015250565b6000620008bf601a83620007de565b9150620008cc8262000887565b602082019050919050565b60006020820190508181036000830152620008f281620008b0565b9050919050565b7f4e487b7100000000000000000000000000000000000000000000000000000000600052603260045260246000fd5b7f4e487b7100000000000000000000000000000000000000000000000000000000600052601160045260246000fd5b6000620009648262000677565b91507fffffffffffffffffffffffffffffffffffffffffffffffffffffffffffffffff820362000999576200099862000928565b5b600182019050919050565b7f5061796d656e7453706c69747465723a206163636f756e74206973207468652060008201527f7a65726f20616464726573730000000000000000000000000000000000000000602082015250565b600062000a02602c83620007de565b915062000a0f82620009a4565b604082019050919050565b6000602082019050818103600083015262000a3581620009f3565b9050919050565b7f5061796d656e7453706c69747465723a20736861726573206172652030000000600082015250565b600062000a74601d83620007de565b915062000a818262000a3c565b602082019050919050565b6000602082019050818103600083015262000aa78162000a65565b9050919050565b7f5061796d656e7453706c69747465723a206163636f756e7420616c726561647960008201527f2068617320736861726573000000000000000000000000000000000000000000602082015250565b600062000b0c602b83620007de565b915062000b198262000aae565b604082019050919050565b6000602082019050818103600083015262000b3f8162000afd565b9050919050565b600062000b538262000677565b915062000b608362000677565b9250827fffffffffffffffffffffffffffffffffffffffffffffffffffffffffffffffff0382111562000b985762000b9762000928565b5b828201905092915050565b62000bae816200055c565b82525050565b62000bbf8162000677565b82525050565b600060408201905062000bdc600083018562000ba3565b62000beb602083018462000bb4565b9392505050565b611c448062000c026000396000f3fe6080604052600436106100e15760003560e01c80639852595c1161007f578063d79779b211610059578063d79779b2146102f7578063e33b7de314610334578063f28e51201461035f578063f2fde38b1461037657610128565b80639852595c14610266578063a4a4ce8a146102a3578063ce7c2ac2146102ba57610128565b806348b75044116100bb57806348b75044146101be578063715018a6146101e75780638b83209b146101fe5780638da5cb5b1461023b57610128565b8063191655871461012d5780633a98ef3914610156578063406072a91461018157610128565b36610128577f6ef95f06320e7a25a04a175ca677b7052bdd97131872c2192525a629f51be77061010f61039f565b3460405161011e92919061110d565b60405180910390a1005b600080fd5b34801561013957600080fd5b50610154600480360381019061014f9190611179565b6103a7565b005b34801561016257600080fd5b5061016b6103b3565b60405161017891906111a6565b60405180910390f35b34801561018d57600080fd5b506101a860048036038101906101a3919061122b565b6103bc565b6040516101b591906111a6565b60405180910390f35b3480156101ca57600080fd5b506101e560048036038101906101e0919061122b565b610443565b005b3480156101f357600080fd5b506101fc6106fb565b005b34801561020a57600080fd5b5061022560048036038101906102209190611297565b610783565b60405161023291906112c4565b60405180910390f35b34801561024757600080fd5b506102506107cb565b60405161025d91906112c4565b60405180910390f35b34801561027257600080fd5b5061028d600480360381019061028891906112df565b6107f5565b60405161029a91906111a6565b60405180910390f35b3480156102af57600080fd5b506102b861083e565b005b3480156102c657600080fd5b506102e160048036038101906102dc91906112df565b610849565b6040516102ee91906111a6565b60405180910390f35b34801561030357600080fd5b5061031e6004803603810190610319919061130c565b610892565b60405161032b91906111a6565b60405180910390f35b34801561034057600080fd5b506103496108db565b60405161035691906111a6565b60405180910390f35b34801561036b57600080fd5b506103746108e5565b005b34801561038257600080fd5b5061039d600480360381019061039891906112df565b6108e7565b005b600033905090565b6103b0816109de565b50565b60008054905090565b6000600660008473ffffffffffffffffffffffffffffffffffffffff1673ffffffffffffffffffffffffffffffffffffffff16815260200190815260200160002060008373ffffffffffffffffffffffffffffffffffffffff1673ffffffffffffffffffffffffffffffffffffffff16815260200190815260200160002054905092915050565b6000600260008373ffffffffffffffffffffffffffffffffffffffff1673ffffffffffffffffffffffffffffffffffffffff16815260200190815260200160002054116104c5576040517f08c379a00000000000000000000000000000000000000000000000000000000081526004016104bc906113bc565b60405180910390fd5b60006104d083610892565b8373ffffffffffffffffffffffffffffffffffffffff166370a08231306040518263ffffffff1660e01b815260040161050991906112c4565b602060405180830381865afa158015610526573d6000803e3d6000fd5b505050506040513d601f19601f8201168201806040525081019061054a91906113f1565b610554919061144d565b9050600061056c838361056787876103bc565b610b88565b9050600081036105b1576040517f08c379a00000000000000000000000000000000000000000000000000000000081526004016105a890611515565b60405180910390fd5b80600660008673ffffffffffffffffffffffffffffffffffffffff1673ffffffffffffffffffffffffffffffffffffffff16815260200190815260200160002060008573ffffffffffffffffffffffffffffffffffffffff1673ffffffffffffffffffffffffffffffffffffffff168152602001908152602001600020600082825461063d919061144d565b9250508190555080600560008673ffffffffffffffffffffffffffffffffffffffff1673ffffffffffffffffffffffffffffffffffffffff1681526020019081526020016000206000828254610693919061144d565b925050819055506106a5848483610bf6565b8373ffffffffffffffffffffffffffffffffffffffff167f3be5b7a71e84ed12875d241991c70855ac5817d847039e17a9d895c1ceb0f18a84836040516106ed92919061110d565b60405180910390a250505050565b61070361039f565b73ffffffffffffffffffffffffffffffffffffffff166107216107cb565b73ffffffffffffffffffffffffffffffffffffffff1614610777576040517f08c379a000000000000000000000000000000000000000000000000000000000815260040161076e90611581565b60405180910390fd5b6107816000610c7c565b565b600060048281548110610799576107986115a1565b5b9060005260206000200160009054906101000a900473ffffffffffffffffffffffffffffffffffffffff169050919050565b6000600760009054906101000a900473ffffffffffffffffffffffffffffffffffffffff16905090565b6000600360008373ffffffffffffffffffffffffffffffffffffffff1673ffffffffffffffffffffffffffffffffffffffff168152602001908152602001600020549050919050565b610847336103a7565b565b6000600260008373ffffffffffffffffffffffffffffffffffffffff1673ffffffffffffffffffffffffffffffffffffffff168152602001908152602001600020549050919050565b6000600560008373ffffffffffffffffffffffffffffffffffffffff1673ffffffffffffffffffffffffffffffffffffffff168152602001908152602001600020549050919050565b6000600154905090565b565b6108ef61039f565b73ffffffffffffffffffffffffffffffffffffffff1661090d6107cb565b73ffffffffffffffffffffffffffffffffffffffff1614610963576040517f08c379a000000000000000000000000000000000000000000000000000000000815260040161095a90611581565b60405180910390fd5b600073ffffffffffffffffffffffffffffffffffffffff168173ffffffffffffffffffffffffffffffffffffffff16036109d2576040517f08c379a00000000000000000000000000000000000000000000000000000000081526004016109c990611642565b60405180910390fd5b6109db81610c7c565b50565b6000600260008373ffffffffffffffffffffffffffffffffffffffff1673ffffffffffffffffffffffffffffffffffffffff1681526020019081526020016000205411610a60576040517f08c379a0000000000000000000000000000000000000000000000000000000008152600401610a57906113bc565b60405180910390fd5b6000610a6a6108db565b47610a75919061144d565b90506000610a8c8383610a87866107f5565b610b88565b905060008103610ad1576040517f08c379a0000000000000000000000000000000000000000000000000000000008152600401610ac890611515565b60405180910390fd5b80600360008573ffffffffffffffffffffffffffffffffffffffff1673ffffffffffffffffffffffffffffffffffffffff1681526020019081526020016000206000828254610b20919061144d565b925050819055508060016000828254610b39919061144d565b92505081905550610b4a8382610d42565b7fdf20fd1e76bc69d672e4814fafb2c449bba3a5369d8359adf9e05e6fde87b0568382604051610b7b9291906116c1565b60405180910390a1505050565b600081600054600260008773ffffffffffffffffffffffffffffffffffffffff1673ffffffffffffffffffffffffffffffffffffffff1681526020019081526020016000205485610bd991906116ea565b610be39190611773565b610bed91906117a4565b90509392505050565b610c778363a9059cbb60e01b8484604051602401610c1592919061110d565b604051602081830303815290604052907bffffffffffffffffffffffffffffffffffffffffffffffffffffffff19166020820180517bffffffffffffffffffffffffffffffffffffffffffffffffffffffff8381831617835250505050610e36565b505050565b6000600760009054906101000a900473ffffffffffffffffffffffffffffffffffffffff16905081600760006101000a81548173ffffffffffffffffffffffffffffffffffffffff021916908373ffffffffffffffffffffffffffffffffffffffff1602179055508173ffffffffffffffffffffffffffffffffffffffff168173ffffffffffffffffffffffffffffffffffffffff167f8be0079c531659141344cd1fd0a4f28419497f9722a3daafe3b4186f6b6457e060405160405180910390a35050565b80471015610d85576040517f08c379a0000000000000000000000000000000000000000000000000000000008152600401610d7c90611824565b60405180910390fd5b60008273ffffffffffffffffffffffffffffffffffffffff1682604051610dab90611875565b60006040518083038185875af1925050503d8060008114610de8576040519150601f19603f3d011682016040523d82523d6000602084013e610ded565b606091505b5050905080610e31576040517f08c379a0000000000000000000000000000000000000000000000000000000008152600401610e28906118fc565b60405180910390fd5b505050565b6000610e98826040518060400160405280602081526020017f5361666545524332303a206c6f772d6c6576656c2063616c6c206661696c65648152508573ffffffffffffffffffffffffffffffffffffffff16610efd9092919063ffffffff16565b9050600081511115610ef85780806020019051810190610eb89190611954565b610ef7576040517f08c379a0000000000000000000000000000000000000000000000000000000008152600401610eee906119f3565b60405180910390fd5b5b505050565b6060610f0c8484600085610f15565b90509392505050565b606082471015610f5a576040517f08c379a0000000000000000000000000000000000000000000000000000000008152600401610f5190611a85565b60405180910390fd5b610f6385611029565b610fa2576040517f08c379a0000000000000000000000000000000000000000000000000000000008152600401610f9990611af1565b60405180910390fd5b6000808673ffffffffffffffffffffffffffffffffffffffff168587604051610fcb9190611b80565b60006040518083038185875af1925050503d8060008114611008576040519150601f19603f3d011682016040523d82523d6000602084013e61100d565b606091505b509150915061101d82828661104c565b92505050949350505050565b6000808273ffffffffffffffffffffffffffffffffffffffff163b119050919050565b6060831561105c578290506110ac565b60008351111561106f5782518084602001fd5b816040517f08c379a00000000000000000000000000000000000000000000000000000000081526004016110a39190611bec565b60405180910390fd5b9392505050565b600073ffffffffffffffffffffffffffffffffffffffff82169050919050565b60006110de826110b3565b9050919050565b6110ee816110d3565b82525050565b6000819050919050565b611107816110f4565b82525050565b600060408201905061112260008301856110e5565b61112f60208301846110fe565b9392505050565b600080fd5b6000611146826110b3565b9050919050565b6111568161113b565b811461116157600080fd5b50565b6000813590506111738161114d565b92915050565b60006020828403121561118f5761118e611136565b5b600061119d84828501611164565b91505092915050565b60006020820190506111bb60008301846110fe565b92915050565b60006111cc826110d3565b9050919050565b6111dc816111c1565b81146111e757600080fd5b50565b6000813590506111f9816111d3565b92915050565b611208816110d3565b811461121357600080fd5b50565b600081359050611225816111ff565b92915050565b6000806040838503121561124257611241611136565b5b6000611250858286016111ea565b925050602061126185828601611216565b9150509250929050565b611274816110f4565b811461127f57600080fd5b50565b6000813590506112918161126b565b92915050565b6000602082840312156112ad576112ac611136565b5b60006112bb84828501611282565b91505092915050565b60006020820190506112d960008301846110e5565b92915050565b6000602082840312156112f5576112f4611136565b5b600061130384828501611216565b91505092915050565b60006020828403121561132257611321611136565b5b6000611330848285016111ea565b91505092915050565b600082825260208201905092915050565b7f5061796d656e7453706c69747465723a206163636f756e7420686173206e6f2060008201527f7368617265730000000000000000000000000000000000000000000000000000602082015250565b60006113a6602683611339565b91506113b18261134a565b604082019050919050565b600060208201905081810360008301526113d581611399565b9050919050565b6000815190506113eb8161126b565b92915050565b60006020828403121561140757611406611136565b5b6000611415848285016113dc565b91505092915050565b7f4e487b7100000000000000000000000000000000000000000000000000000000600052601160045260246000fd5b6000611458826110f4565b9150611463836110f4565b9250827fffffffffffffffffffffffffffffffffffffffffffffffffffffffffffffffff038211156114985761149761141e565b5b828201905092915050565b7f5061796d656e7453706c69747465723a206163636f756e74206973206e6f742060008201527f647565207061796d656e74000000000000000000000000000000000000000000602082015250565b60006114ff602b83611339565b915061150a826114a3565b604082019050919050565b6000602082019050818103600083015261152e816114f2565b9050919050565b7f4f776e61626c653a2063616c6c6572206973206e6f7420746865206f776e6572600082015250565b600061156b602083611339565b915061157682611535565b602082019050919050565b6000602082019050818103600083015261159a8161155e565b9050919050565b7f4e487b7100000000000000000000000000000000000000000000000000000000600052603260045260246000fd5b7f4f776e61626c653a206e6577206f776e657220697320746865207a65726f206160008201527f6464726573730000000000000000000000000000000000000000000000000000602082015250565b600061162c602683611339565b9150611637826115d0565b604082019050919050565b6000602082019050818103600083015261165b8161161f565b9050919050565b6000819050919050565b600061168761168261167d846110b3565b611662565b6110b3565b9050919050565b60006116998261166c565b9050919050565b60006116ab8261168e565b9050919050565b6116bb816116a0565b82525050565b60006040820190506116d660008301856116b2565b6116e360208301846110fe565b9392505050565b60006116f5826110f4565b9150611700836110f4565b9250817fffffffffffffffffffffffffffffffffffffffffffffffffffffffffffffffff04831182151516156117395761173861141e565b5b828202905092915050565b7f4e487b7100000000000000000000000000000000000000000000000000000000600052601260045260246000fd5b600061177e826110f4565b9150611789836110f4565b92508261179957611798611744565b5b828204905092915050565b60006117af826110f4565b91506117ba836110f4565b9250828210156117cd576117cc61141e565b5b828203905092915050565b7f416464726573733a20696e73756666696369656e742062616c616e6365000000600082015250565b600061180e601d83611339565b9150611819826117d8565b602082019050919050565b6000602082019050818103600083015261183d81611801565b9050919050565b600081905092915050565b50565b600061185f600083611844565b915061186a8261184f565b600082019050919050565b600061188082611852565b9150819050919050565b7f416464726573733a20756e61626c6520746f2073656e642076616c75652c207260008201527f6563697069656e74206d61792068617665207265766572746564000000000000602082015250565b60006118e6603a83611339565b91506118f18261188a565b604082019050919050565b60006020820190508181036000830152611915816118d9565b9050919050565b60008115159050919050565b6119318161191c565b811461193c57600080fd5b50565b60008151905061194e81611928565b92915050565b60006020828403121561196a57611969611136565b5b60006119788482850161193f565b91505092915050565b7f5361666545524332303a204552433230206f7065726174696f6e20646964206e60008201527f6f74207375636365656400000000000000000000000000000000000000000000602082015250565b60006119dd602a83611339565b91506119e882611981565b604082019050919050565b60006020820190508181036000830152611a0c816119d0565b9050919050565b7f416464726573733a20696e73756666696369656e742062616c616e636520666f60008201527f722063616c6c0000000000000000000000000000000000000000000000000000602082015250565b6000611a6f602683611339565b9150611a7a82611a13565b604082019050919050565b60006020820190508181036000830152611a9e81611a62565b9050919050565b7f416464726573733a2063616c6c20746f206e6f6e2d636f6e7472616374000000600082015250565b6000611adb601d83611339565b9150611ae682611aa5565b602082019050919050565b60006020820190508181036000830152611b0a81611ace565b9050919050565b600081519050919050565b60005b83811015611b3a578082015181840152602081019050611b1f565b83811115611b49576000848401525b50505050565b6000611b5a82611b11565b611b648185611844565b9350611b74818560208601611b1c565b80840191505092915050565b6000611b8c8284611b4f565b915081905092915050565b600081519050919050565b6000601f19601f8301169050919050565b6000611bbe82611b97565b611bc88185611339565b9350611bd8818560208601611b1c565b611be181611ba2565b840191505092915050565b60006020820190508181036000830152611c068184611bb3565b90509291505056fea26469706673582212209c3d67f4e3ae68f6fe0c56b7fca13b9d2d0949c7b8d45f61bdd2570c95612f9164736f6c634300080e0033",
					"opcodes": "PUSH1 0x80 PUSH1 0x40 MSTORE PUSH1 0x40 MLOAD PUSH3 0x2846 CODESIZE SUB DUP1 PUSH3 0x2846 DUP4 CODECOPY DUP2 DUP2 ADD PUSH1 0x40 MSTORE DUP2 ADD SWAP1 PUSH3 0x29 SWAP2 SWAP1 PUSH3 0x759 JUMP JUMPDEST DUP2 DUP2 DUP1 MLOAD DUP3 MLOAD EQ PUSH3 0x72 JUMPI PUSH1 0x40 MLOAD PUSH32 0x8C379A000000000000000000000000000000000000000000000000000000000 DUP2 MSTORE PUSH1 0x4 ADD PUSH3 0x69 SWAP1 PUSH3 0x865 JUMP JUMPDEST PUSH1 0x40 MLOAD DUP1 SWAP2 SUB SWAP1 REVERT JUMPDEST PUSH1 0x0 DUP3 MLOAD GT PUSH3 0xB9 JUMPI PUSH1 0x40 MLOAD PUSH32 0x8C379A000000000000000000000000000000000000000000000000000000000 DUP2 MSTORE PUSH1 0x4 ADD PUSH3 0xB0 SWAP1 PUSH3 0x8D7 JUMP JUMPDEST PUSH1 0x40 MLOAD DUP1 SWAP2 SUB SWAP1 REVERT JUMPDEST PUSH1 0x0 JUMPDEST DUP3 MLOAD DUP2 LT ISZERO PUSH3 0x128 JUMPI PUSH3 0x112 DUP4 DUP3 DUP2 MLOAD DUP2 LT PUSH3 0xE0 JUMPI PUSH3 0xDF PUSH3 0x8F9 JUMP JUMPDEST JUMPDEST PUSH1 0x20 MUL PUSH1 0x20 ADD ADD MLOAD DUP4 DUP4 DUP2 MLOAD DUP2 LT PUSH3 0xFE JUMPI PUSH3 0xFD PUSH3 0x8F9 JUMP JUMPDEST JUMPDEST PUSH1 0x20 MUL PUSH1 0x20 ADD ADD MLOAD PUSH3 0x153 PUSH1 0x20 SHL PUSH1 0x20 SHR JUMP JUMPDEST DUP1 DUP1 PUSH3 0x11F SWAP1 PUSH3 0x957 JUMP JUMPDEST SWAP2 POP POP PUSH3 0xBC JUMP JUMPDEST POP POP POP PUSH3 0x14B PUSH3 0x13F PUSH3 0x38C PUSH1 0x20 SHL PUSH1 0x20 SHR JUMP JUMPDEST PUSH3 0x394 PUSH1 0x20 SHL PUSH1 0x20 SHR JUMP JUMPDEST POP POP PUSH3 0xBF2 JUMP JUMPDEST PUSH1 0x0 PUSH20 0xFFFFFFFFFFFFFFFFFFFFFFFFFFFFFFFFFFFFFFFF AND DUP3 PUSH20 0xFFFFFFFFFFFFFFFFFFFFFFFFFFFFFFFFFFFFFFFF AND SUB PUSH3 0x1C5 JUMPI PUSH1 0x40 MLOAD PUSH32 0x8C379A000000000000000000000000000000000000000000000000000000000 DUP2 MSTORE PUSH1 0x4 ADD PUSH3 0x1BC SWAP1 PUSH3 0xA1A JUMP JUMPDEST PUSH1 0x40 MLOAD DUP1 SWAP2 SUB SWAP1 REVERT JUMPDEST PUSH1 0x0 DUP2 GT PUSH3 0x20B JUMPI PUSH1 0x40 MLOAD PUSH32 0x8C379A000000000000000000000000000000000000000000000000000000000 DUP2 MSTORE PUSH1 0x4 ADD PUSH3 0x202 SWAP1 PUSH3 0xA8C JUMP JUMPDEST PUSH1 0x40 MLOAD DUP1 SWAP2 SUB SWAP1 REVERT JUMPDEST PUSH1 0x0 PUSH1 0x2 PUSH1 0x0 DUP5 PUSH20 0xFFFFFFFFFFFFFFFFFFFFFFFFFFFFFFFFFFFFFFFF AND PUSH20 0xFFFFFFFFFFFFFFFFFFFFFFFFFFFFFFFFFFFFFFFF AND DUP2 MSTORE PUSH1 0x20 ADD SWAP1 DUP2 MSTORE PUSH1 0x20 ADD PUSH1 0x0 KECCAK256 SLOAD EQ PUSH3 0x290 JUMPI PUSH1 0x40 MLOAD PUSH32 0x8C379A000000000000000000000000000000000000000000000000000000000 DUP2 MSTORE PUSH1 0x4 ADD PUSH3 0x287 SWAP1 PUSH3 0xB24 JUMP JUMPDEST PUSH1 0x40 MLOAD DUP1 SWAP2 SUB SWAP1 REVERT JUMPDEST PUSH1 0x4 DUP3 SWAP1 DUP1 PUSH1 0x1 DUP2 SLOAD ADD DUP1 DUP3 SSTORE DUP1 SWAP2 POP POP PUSH1 0x1 SWAP1 SUB SWAP1 PUSH1 0x0 MSTORE PUSH1 0x20 PUSH1 0x0 KECCAK256 ADD PUSH1 0x0 SWAP1 SWAP2 SWAP1 SWAP2 SWAP1 SWAP2 PUSH2 0x100 EXP DUP2 SLOAD DUP2 PUSH20 0xFFFFFFFFFFFFFFFFFFFFFFFFFFFFFFFFFFFFFFFF MUL NOT AND SWAP1 DUP4 PUSH20 0xFFFFFFFFFFFFFFFFFFFFFFFFFFFFFFFFFFFFFFFF AND MUL OR SWAP1 SSTORE POP DUP1 PUSH1 0x2 PUSH1 0x0 DUP5 PUSH20 0xFFFFFFFFFFFFFFFFFFFFFFFFFFFFFFFFFFFFFFFF AND PUSH20 0xFFFFFFFFFFFFFFFFFFFFFFFFFFFFFFFFFFFFFFFF AND DUP2 MSTORE PUSH1 0x20 ADD SWAP1 DUP2 MSTORE PUSH1 0x20 ADD PUSH1 0x0 KECCAK256 DUP2 SWAP1 SSTORE POP DUP1 PUSH1 0x0 SLOAD PUSH3 0x347 SWAP2 SWAP1 PUSH3 0xB46 JUMP JUMPDEST PUSH1 0x0 DUP2 SWAP1 SSTORE POP PUSH32 0x40C340F65E17194D14DDDDB073D3C9F888E3CB52B5AAE0C6C7706B4FBC905FAC DUP3 DUP3 PUSH1 0x40 MLOAD PUSH3 0x380 SWAP3 SWAP2 SWAP1 PUSH3 0xBC5 JUMP JUMPDEST PUSH1 0x40 MLOAD DUP1 SWAP2 SUB SWAP1 LOG1 POP POP JUMP JUMPDEST PUSH1 0x0 CALLER SWAP1 POP SWAP1 JUMP JUMPDEST PUSH1 0x0 PUSH1 0x7 PUSH1 0x0 SWAP1 SLOAD SWAP1 PUSH2 0x100 EXP SWAP1 DIV PUSH20 0xFFFFFFFFFFFFFFFFFFFFFFFFFFFFFFFFFFFFFFFF AND SWAP1 POP DUP2 PUSH1 0x7 PUSH1 0x0 PUSH2 0x100 EXP DUP2 SLOAD DUP2 PUSH20 0xFFFFFFFFFFFFFFFFFFFFFFFFFFFFFFFFFFFFFFFF MUL NOT AND SWAP1 DUP4 PUSH20 0xFFFFFFFFFFFFFFFFFFFFFFFFFFFFFFFFFFFFFFFF AND MUL OR SWAP1 SSTORE POP DUP2 PUSH20 0xFFFFFFFFFFFFFFFFFFFFFFFFFFFFFFFFFFFFFFFF AND DUP2 PUSH20 0xFFFFFFFFFFFFFFFFFFFFFFFFFFFFFFFFFFFFFFFF AND PUSH32 0x8BE0079C531659141344CD1FD0A4F28419497F9722A3DAAFE3B4186F6B6457E0 PUSH1 0x40 MLOAD PUSH1 0x40 MLOAD DUP1 SWAP2 SUB SWAP1 LOG3 POP POP JUMP JUMPDEST PUSH1 0x0 PUSH1 0x40 MLOAD SWAP1 POP SWAP1 JUMP JUMPDEST PUSH1 0x0 DUP1 REVERT JUMPDEST PUSH1 0x0 DUP1 REVERT JUMPDEST PUSH1 0x0 DUP1 REVERT JUMPDEST PUSH1 0x0 PUSH1 0x1F NOT PUSH1 0x1F DUP4 ADD AND SWAP1 POP SWAP2 SWAP1 POP JUMP JUMPDEST PUSH32 0x4E487B7100000000000000000000000000000000000000000000000000000000 PUSH1 0x0 MSTORE PUSH1 0x41 PUSH1 0x4 MSTORE PUSH1 0x24 PUSH1 0x0 REVERT JUMPDEST PUSH3 0x4BE DUP3 PUSH3 0x473 JUMP JUMPDEST DUP2 ADD DUP2 DUP2 LT PUSH8 0xFFFFFFFFFFFFFFFF DUP3 GT OR ISZERO PUSH3 0x4E0 JUMPI PUSH3 0x4DF PUSH3 0x484 JUMP JUMPDEST JUMPDEST DUP1 PUSH1 0x40 MSTORE POP POP POP JUMP JUMPDEST PUSH1 0x0 PUSH3 0x4F5 PUSH3 0x45A JUMP JUMPDEST SWAP1 POP PUSH3 0x503 DUP3 DUP3 PUSH3 0x4B3 JUMP JUMPDEST SWAP2 SWAP1 POP JUMP JUMPDEST PUSH1 0x0 PUSH8 0xFFFFFFFFFFFFFFFF DUP3 GT ISZERO PUSH3 0x526 JUMPI PUSH3 0x525 PUSH3 0x484 JUMP JUMPDEST JUMPDEST PUSH1 0x20 DUP3 MUL SWAP1 POP PUSH1 0x20 DUP2 ADD SWAP1 POP SWAP2 SWAP1 POP JUMP JUMPDEST PUSH1 0x0 DUP1 REVERT JUMPDEST PUSH1 0x0 PUSH20 0xFFFFFFFFFFFFFFFFFFFFFFFFFFFFFFFFFFFFFFFF DUP3 AND SWAP1 POP SWAP2 SWAP1 POP JUMP JUMPDEST PUSH1 0x0 PUSH3 0x569 DUP3 PUSH3 0x53C JUMP JUMPDEST SWAP1 POP SWAP2 SWAP1 POP JUMP JUMPDEST PUSH3 0x57B DUP2 PUSH3 0x55C JUMP JUMPDEST DUP2 EQ PUSH3 0x587 JUMPI PUSH1 0x0 DUP1 REVERT JUMPDEST POP JUMP JUMPDEST PUSH1 0x0 DUP2 MLOAD SWAP1 POP PUSH3 0x59B DUP2 PUSH3 0x570 JUMP JUMPDEST SWAP3 SWAP2 POP POP JUMP JUMPDEST PUSH1 0x0 PUSH3 0x5B8 PUSH3 0x5B2 DUP5 PUSH3 0x508 JUMP JUMPDEST PUSH3 0x4E9 JUMP JUMPDEST SWAP1 POP DUP1 DUP4 DUP3 MSTORE PUSH1 0x20 DUP3 ADD SWAP1 POP PUSH1 0x20 DUP5 MUL DUP4 ADD DUP6 DUP2 GT ISZERO PUSH3 0x5DE JUMPI PUSH3 0x5DD PUSH3 0x537 JUMP JUMPDEST JUMPDEST DUP4 JUMPDEST DUP2 DUP2 LT ISZERO PUSH3 0x60B JUMPI DUP1 PUSH3 0x5F6 DUP9 DUP3 PUSH3 0x58A JUMP JUMPDEST DUP5 MSTORE PUSH1 0x20 DUP5 ADD SWAP4 POP POP PUSH1 0x20 DUP2 ADD SWAP1 POP PUSH3 0x5E0 JUMP JUMPDEST POP POP POP SWAP4 SWAP3 POP POP POP JUMP JUMPDEST PUSH1 0x0 DUP3 PUSH1 0x1F DUP4 ADD SLT PUSH3 0x62D JUMPI PUSH3 0x62C PUSH3 0x46E JUMP JUMPDEST JUMPDEST DUP2 MLOAD PUSH3 0x63F DUP5 DUP3 PUSH1 0x20 DUP7 ADD PUSH3 0x5A1 JUMP JUMPDEST SWAP2 POP POP SWAP3 SWAP2 POP POP JUMP JUMPDEST PUSH1 0x0 PUSH8 0xFFFFFFFFFFFFFFFF DUP3 GT ISZERO PUSH3 0x666 JUMPI PUSH3 0x665 PUSH3 0x484 JUMP JUMPDEST JUMPDEST PUSH1 0x20 DUP3 MUL SWAP1 POP PUSH1 0x20 DUP2 ADD SWAP1 POP SWAP2 SWAP1 POP JUMP JUMPDEST PUSH1 0x0 DUP2 SWAP1 POP SWAP2 SWAP1 POP JUMP JUMPDEST PUSH3 0x68C DUP2 PUSH3 0x677 JUMP JUMPDEST DUP2 EQ PUSH3 0x698 JUMPI PUSH1 0x0 DUP1 REVERT JUMPDEST POP JUMP JUMPDEST PUSH1 0x0 DUP2 MLOAD SWAP1 POP PUSH3 0x6AC DUP2 PUSH3 0x681 JUMP JUMPDEST SWAP3 SWAP2 POP POP JUMP JUMPDEST PUSH1 0x0 PUSH3 0x6C9 PUSH3 0x6C3 DUP5 PUSH3 0x648 JUMP JUMPDEST PUSH3 0x4E9 JUMP JUMPDEST SWAP1 POP DUP1 DUP4 DUP3 MSTORE PUSH1 0x20 DUP3 ADD SWAP1 POP PUSH1 0x20 DUP5 MUL DUP4 ADD DUP6 DUP2 GT ISZERO PUSH3 0x6EF JUMPI PUSH3 0x6EE PUSH3 0x537 JUMP JUMPDEST JUMPDEST DUP4 JUMPDEST DUP2 DUP2 LT ISZERO PUSH3 0x71C JUMPI DUP1 PUSH3 0x707 DUP9 DUP3 PUSH3 0x69B JUMP JUMPDEST DUP5 MSTORE PUSH1 0x20 DUP5 ADD SWAP4 POP POP PUSH1 0x20 DUP2 ADD SWAP1 POP PUSH3 0x6F1 JUMP JUMPDEST POP POP POP SWAP4 SWAP3 POP POP POP JUMP JUMPDEST PUSH1 0x0 DUP3 PUSH1 0x1F DUP4 ADD SLT PUSH3 0x73E JUMPI PUSH3 0x73D PUSH3 0x46E JUMP JUMPDEST JUMPDEST DUP2 MLOAD PUSH3 0x750 DUP5 DUP3 PUSH1 0x20 DUP7 ADD PUSH3 0x6B2 JUMP JUMPDEST SWAP2 POP POP SWAP3 SWAP2 POP POP JUMP JUMPDEST PUSH1 0x0 DUP1 PUSH1 0x40 DUP4 DUP6 SUB SLT ISZERO PUSH3 0x773 JUMPI PUSH3 0x772 PUSH3 0x464 JUMP JUMPDEST JUMPDEST PUSH1 0x0 DUP4 ADD MLOAD PUSH8 0xFFFFFFFFFFFFFFFF DUP2 GT ISZERO PUSH3 0x794 JUMPI PUSH3 0x793 PUSH3 0x469 JUMP JUMPDEST JUMPDEST PUSH3 0x7A2 DUP6 DUP3 DUP7 ADD PUSH3 0x615 JUMP JUMPDEST SWAP3 POP POP PUSH1 0x20 DUP4 ADD MLOAD PUSH8 0xFFFFFFFFFFFFFFFF DUP2 GT ISZERO PUSH3 0x7C6 JUMPI PUSH3 0x7C5 PUSH3 0x469 JUMP JUMPDEST JUMPDEST PUSH3 0x7D4 DUP6 DUP3 DUP7 ADD PUSH3 0x726 JUMP JUMPDEST SWAP2 POP POP SWAP3 POP SWAP3 SWAP1 POP JUMP JUMPDEST PUSH1 0x0 DUP3 DUP3 MSTORE PUSH1 0x20 DUP3 ADD SWAP1 POP SWAP3 SWAP2 POP POP JUMP JUMPDEST PUSH32 0x5061796D656E7453706C69747465723A2070617965657320616E642073686172 PUSH1 0x0 DUP3 ADD MSTORE PUSH32 0x6573206C656E677468206D69736D617463680000000000000000000000000000 PUSH1 0x20 DUP3 ADD MSTORE POP JUMP JUMPDEST PUSH1 0x0 PUSH3 0x84D PUSH1 0x32 DUP4 PUSH3 0x7DE JUMP JUMPDEST SWAP2 POP PUSH3 0x85A DUP3 PUSH3 0x7EF JUMP JUMPDEST PUSH1 0x40 DUP3 ADD SWAP1 POP SWAP2 SWAP1 POP JUMP JUMPDEST PUSH1 0x0 PUSH1 0x20 DUP3 ADD SWAP1 POP DUP2 DUP2 SUB PUSH1 0x0 DUP4 ADD MSTORE PUSH3 0x880 DUP2 PUSH3 0x83E JUMP JUMPDEST SWAP1 POP SWAP2 SWAP1 POP JUMP JUMPDEST PUSH32 0x5061796D656E7453706C69747465723A206E6F20706179656573000000000000 PUSH1 0x0 DUP3 ADD MSTORE POP JUMP JUMPDEST PUSH1 0x0 PUSH3 0x8BF PUSH1 0x1A DUP4 PUSH3 0x7DE JUMP JUMPDEST SWAP2 POP PUSH3 0x8CC DUP3 PUSH3 0x887 JUMP JUMPDEST PUSH1 0x20 DUP3 ADD SWAP1 POP SWAP2 SWAP1 POP JUMP JUMPDEST PUSH1 0x0 PUSH1 0x20 DUP3 ADD SWAP1 POP DUP2 DUP2 SUB PUSH1 0x0 DUP4 ADD MSTORE PUSH3 0x8F2 DUP2 PUSH3 0x8B0 JUMP JUMPDEST SWAP1 POP SWAP2 SWAP1 POP JUMP JUMPDEST PUSH32 0x4E487B7100000000000000000000000000000000000000000000000000000000 PUSH1 0x0 MSTORE PUSH1 0x32 PUSH1 0x4 MSTORE PUSH1 0x24 PUSH1 0x0 REVERT JUMPDEST PUSH32 0x4E487B7100000000000000000000000000000000000000000000000000000000 PUSH1 0x0 MSTORE PUSH1 0x11 PUSH1 0x4 MSTORE PUSH1 0x24 PUSH1 0x0 REVERT JUMPDEST PUSH1 0x0 PUSH3 0x964 DUP3 PUSH3 0x677 JUMP JUMPDEST SWAP2 POP PUSH32 0xFFFFFFFFFFFFFFFFFFFFFFFFFFFFFFFFFFFFFFFFFFFFFFFFFFFFFFFFFFFFFFFF DUP3 SUB PUSH3 0x999 JUMPI PUSH3 0x998 PUSH3 0x928 JUMP JUMPDEST JUMPDEST PUSH1 0x1 DUP3 ADD SWAP1 POP SWAP2 SWAP1 POP JUMP JUMPDEST PUSH32 0x5061796D656E7453706C69747465723A206163636F756E742069732074686520 PUSH1 0x0 DUP3 ADD MSTORE PUSH32 0x7A65726F20616464726573730000000000000000000000000000000000000000 PUSH1 0x20 DUP3 ADD MSTORE POP JUMP JUMPDEST PUSH1 0x0 PUSH3 0xA02 PUSH1 0x2C DUP4 PUSH3 0x7DE JUMP JUMPDEST SWAP2 POP PUSH3 0xA0F DUP3 PUSH3 0x9A4 JUMP JUMPDEST PUSH1 0x40 DUP3 ADD SWAP1 POP SWAP2 SWAP1 POP JUMP JUMPDEST PUSH1 0x0 PUSH1 0x20 DUP3 ADD SWAP1 POP DUP2 DUP2 SUB PUSH1 0x0 DUP4 ADD MSTORE PUSH3 0xA35 DUP2 PUSH3 0x9F3 JUMP JUMPDEST SWAP1 POP SWAP2 SWAP1 POP JUMP JUMPDEST PUSH32 0x5061796D656E7453706C69747465723A20736861726573206172652030000000 PUSH1 0x0 DUP3 ADD MSTORE POP JUMP JUMPDEST PUSH1 0x0 PUSH3 0xA74 PUSH1 0x1D DUP4 PUSH3 0x7DE JUMP JUMPDEST SWAP2 POP PUSH3 0xA81 DUP3 PUSH3 0xA3C JUMP JUMPDEST PUSH1 0x20 DUP3 ADD SWAP1 POP SWAP2 SWAP1 POP JUMP JUMPDEST PUSH1 0x0 PUSH1 0x20 DUP3 ADD SWAP1 POP DUP2 DUP2 SUB PUSH1 0x0 DUP4 ADD MSTORE PUSH3 0xAA7 DUP2 PUSH3 0xA65 JUMP JUMPDEST SWAP1 POP SWAP2 SWAP1 POP JUMP JUMPDEST PUSH32 0x5061796D656E7453706C69747465723A206163636F756E7420616C7265616479 PUSH1 0x0 DUP3 ADD MSTORE PUSH32 0x2068617320736861726573000000000000000000000000000000000000000000 PUSH1 0x20 DUP3 ADD MSTORE POP JUMP JUMPDEST PUSH1 0x0 PUSH3 0xB0C PUSH1 0x2B DUP4 PUSH3 0x7DE JUMP JUMPDEST SWAP2 POP PUSH3 0xB19 DUP3 PUSH3 0xAAE JUMP JUMPDEST PUSH1 0x40 DUP3 ADD SWAP1 POP SWAP2 SWAP1 POP JUMP JUMPDEST PUSH1 0x0 PUSH1 0x20 DUP3 ADD SWAP1 POP DUP2 DUP2 SUB PUSH1 0x0 DUP4 ADD MSTORE PUSH3 0xB3F DUP2 PUSH3 0xAFD JUMP JUMPDEST SWAP1 POP SWAP2 SWAP1 POP JUMP JUMPDEST PUSH1 0x0 PUSH3 0xB53 DUP3 PUSH3 0x677 JUMP JUMPDEST SWAP2 POP PUSH3 0xB60 DUP4 PUSH3 0x677 JUMP JUMPDEST SWAP3 POP DUP3 PUSH32 0xFFFFFFFFFFFFFFFFFFFFFFFFFFFFFFFFFFFFFFFFFFFFFFFFFFFFFFFFFFFFFFFF SUB DUP3 GT ISZERO PUSH3 0xB98 JUMPI PUSH3 0xB97 PUSH3 0x928 JUMP JUMPDEST JUMPDEST DUP3 DUP3 ADD SWAP1 POP SWAP3 SWAP2 POP POP JUMP JUMPDEST PUSH3 0xBAE DUP2 PUSH3 0x55C JUMP JUMPDEST DUP3 MSTORE POP POP JUMP JUMPDEST PUSH3 0xBBF DUP2 PUSH3 0x677 JUMP JUMPDEST DUP3 MSTORE POP POP JUMP JUMPDEST PUSH1 0x0 PUSH1 0x40 DUP3 ADD SWAP1 POP PUSH3 0xBDC PUSH1 0x0 DUP4 ADD DUP6 PUSH3 0xBA3 JUMP JUMPDEST PUSH3 0xBEB PUSH1 0x20 DUP4 ADD DUP5 PUSH3 0xBB4 JUMP JUMPDEST SWAP4 SWAP3 POP POP POP JUMP JUMPDEST PUSH2 0x1C44 DUP1 PUSH3 0xC02 PUSH1 0x0 CODECOPY PUSH1 0x0 RETURN INVALID PUSH1 0x80 PUSH1 0x40 MSTORE PUSH1 0x4 CALLDATASIZE LT PUSH2 0xE1 JUMPI PUSH1 0x0 CALLDATALOAD PUSH1 0xE0 SHR DUP1 PUSH4 0x9852595C GT PUSH2 0x7F JUMPI DUP1 PUSH4 0xD79779B2 GT PUSH2 0x59 JUMPI DUP1 PUSH4 0xD79779B2 EQ PUSH2 0x2F7 JUMPI DUP1 PUSH4 0xE33B7DE3 EQ PUSH2 0x334 JUMPI DUP1 PUSH4 0xF28E5120 EQ PUSH2 0x35F JUMPI DUP1 PUSH4 0xF2FDE38B EQ PUSH2 0x376 JUMPI PUSH2 0x128 JUMP JUMPDEST DUP1 PUSH4 0x9852595C EQ PUSH2 0x266 JUMPI DUP1 PUSH4 0xA4A4CE8A EQ PUSH2 0x2A3 JUMPI DUP1 PUSH4 0xCE7C2AC2 EQ PUSH2 0x2BA JUMPI PUSH2 0x128 JUMP JUMPDEST DUP1 PUSH4 0x48B75044 GT PUSH2 0xBB JUMPI DUP1 PUSH4 0x48B75044 EQ PUSH2 0x1BE JUMPI DUP1 PUSH4 0x715018A6 EQ PUSH2 0x1E7 JUMPI DUP1 PUSH4 0x8B83209B EQ PUSH2 0x1FE JUMPI DUP1 PUSH4 0x8DA5CB5B EQ PUSH2 0x23B JUMPI PUSH2 0x128 JUMP JUMPDEST DUP1 PUSH4 0x19165587 EQ PUSH2 0x12D JUMPI DUP1 PUSH4 0x3A98EF39 EQ PUSH2 0x156 JUMPI DUP1 PUSH4 0x406072A9 EQ PUSH2 0x181 JUMPI PUSH2 0x128 JUMP JUMPDEST CALLDATASIZE PUSH2 0x128 JUMPI PUSH32 0x6EF95F06320E7A25A04A175CA677B7052BDD97131872C2192525A629F51BE770 PUSH2 0x10F PUSH2 0x39F JUMP JUMPDEST CALLVALUE PUSH1 0x40 MLOAD PUSH2 0x11E SWAP3 SWAP2 SWAP1 PUSH2 0x110D JUMP JUMPDEST PUSH1 0x40 MLOAD DUP1 SWAP2 SUB SWAP1 LOG1 STOP JUMPDEST PUSH1 0x0 DUP1 REVERT JUMPDEST CALLVALUE DUP1 ISZERO PUSH2 0x139 JUMPI PUSH1 0x0 DUP1 REVERT JUMPDEST POP PUSH2 0x154 PUSH1 0x4 DUP1 CALLDATASIZE SUB DUP2 ADD SWAP1 PUSH2 0x14F SWAP2 SWAP1 PUSH2 0x1179 JUMP JUMPDEST PUSH2 0x3A7 JUMP JUMPDEST STOP JUMPDEST CALLVALUE DUP1 ISZERO PUSH2 0x162 JUMPI PUSH1 0x0 DUP1 REVERT JUMPDEST POP PUSH2 0x16B PUSH2 0x3B3 JUMP JUMPDEST PUSH1 0x40 MLOAD PUSH2 0x178 SWAP2 SWAP1 PUSH2 0x11A6 JUMP JUMPDEST PUSH1 0x40 MLOAD DUP1 SWAP2 SUB SWAP1 RETURN JUMPDEST CALLVALUE DUP1 ISZERO PUSH2 0x18D JUMPI PUSH1 0x0 DUP1 REVERT JUMPDEST POP PUSH2 0x1A8 PUSH1 0x4 DUP1 CALLDATASIZE SUB DUP2 ADD SWAP1 PUSH2 0x1A3 SWAP2 SWAP1 PUSH2 0x122B JUMP JUMPDEST PUSH2 0x3BC JUMP JUMPDEST PUSH1 0x40 MLOAD PUSH2 0x1B5 SWAP2 SWAP1 PUSH2 0x11A6 JUMP JUMPDEST PUSH1 0x40 MLOAD DUP1 SWAP2 SUB SWAP1 RETURN JUMPDEST CALLVALUE DUP1 ISZERO PUSH2 0x1CA JUMPI PUSH1 0x0 DUP1 REVERT JUMPDEST POP PUSH2 0x1E5 PUSH1 0x4 DUP1 CALLDATASIZE SUB DUP2 ADD SWAP1 PUSH2 0x1E0 SWAP2 SWAP1 PUSH2 0x122B JUMP JUMPDEST PUSH2 0x443 JUMP JUMPDEST STOP JUMPDEST CALLVALUE DUP1 ISZERO PUSH2 0x1F3 JUMPI PUSH1 0x0 DUP1 REVERT JUMPDEST POP PUSH2 0x1FC PUSH2 0x6FB JUMP JUMPDEST STOP JUMPDEST CALLVALUE DUP1 ISZERO PUSH2 0x20A JUMPI PUSH1 0x0 DUP1 REVERT JUMPDEST POP PUSH2 0x225 PUSH1 0x4 DUP1 CALLDATASIZE SUB DUP2 ADD SWAP1 PUSH2 0x220 SWAP2 SWAP1 PUSH2 0x1297 JUMP JUMPDEST PUSH2 0x783 JUMP JUMPDEST PUSH1 0x40 MLOAD PUSH2 0x232 SWAP2 SWAP1 PUSH2 0x12C4 JUMP JUMPDEST PUSH1 0x40 MLOAD DUP1 SWAP2 SUB SWAP1 RETURN JUMPDEST CALLVALUE DUP1 ISZERO PUSH2 0x247 JUMPI PUSH1 0x0 DUP1 REVERT JUMPDEST POP PUSH2 0x250 PUSH2 0x7CB JUMP JUMPDEST PUSH1 0x40 MLOAD PUSH2 0x25D SWAP2 SWAP1 PUSH2 0x12C4 JUMP JUMPDEST PUSH1 0x40 MLOAD DUP1 SWAP2 SUB SWAP1 RETURN JUMPDEST CALLVALUE DUP1 ISZERO PUSH2 0x272 JUMPI PUSH1 0x0 DUP1 REVERT JUMPDEST POP PUSH2 0x28D PUSH1 0x4 DUP1 CALLDATASIZE SUB DUP2 ADD SWAP1 PUSH2 0x288 SWAP2 SWAP1 PUSH2 0x12DF JUMP JUMPDEST PUSH2 0x7F5 JUMP JUMPDEST PUSH1 0x40 MLOAD PUSH2 0x29A SWAP2 SWAP1 PUSH2 0x11A6 JUMP JUMPDEST PUSH1 0x40 MLOAD DUP1 SWAP2 SUB SWAP1 RETURN JUMPDEST CALLVALUE DUP1 ISZERO PUSH2 0x2AF JUMPI PUSH1 0x0 DUP1 REVERT JUMPDEST POP PUSH2 0x2B8 PUSH2 0x83E JUMP JUMPDEST STOP JUMPDEST CALLVALUE DUP1 ISZERO PUSH2 0x2C6 JUMPI PUSH1 0x0 DUP1 REVERT JUMPDEST POP PUSH2 0x2E1 PUSH1 0x4 DUP1 CALLDATASIZE SUB DUP2 ADD SWAP1 PUSH2 0x2DC SWAP2 SWAP1 PUSH2 0x12DF JUMP JUMPDEST PUSH2 0x849 JUMP JUMPDEST PUSH1 0x40 MLOAD PUSH2 0x2EE SWAP2 SWAP1 PUSH2 0x11A6 JUMP JUMPDEST PUSH1 0x40 MLOAD DUP1 SWAP2 SUB SWAP1 RETURN JUMPDEST CALLVALUE DUP1 ISZERO PUSH2 0x303 JUMPI PUSH1 0x0 DUP1 REVERT JUMPDEST POP PUSH2 0x31E PUSH1 0x4 DUP1 CALLDATASIZE SUB DUP2 ADD SWAP1 PUSH2 0x319 SWAP2 SWAP1 PUSH2 0x130C JUMP JUMPDEST PUSH2 0x892 JUMP JUMPDEST PUSH1 0x40 MLOAD PUSH2 0x32B SWAP2 SWAP1 PUSH2 0x11A6 JUMP JUMPDEST PUSH1 0x40 MLOAD DUP1 SWAP2 SUB SWAP1 RETURN JUMPDEST CALLVALUE DUP1 ISZERO PUSH2 0x340 JUMPI PUSH1 0x0 DUP1 REVERT JUMPDEST POP PUSH2 0x349 PUSH2 0x8DB JUMP JUMPDEST PUSH1 0x40 MLOAD PUSH2 0x356 SWAP2 SWAP1 PUSH2 0x11A6 JUMP JUMPDEST PUSH1 0x40 MLOAD DUP1 SWAP2 SUB SWAP1 RETURN JUMPDEST CALLVALUE DUP1 ISZERO PUSH2 0x36B JUMPI PUSH1 0x0 DUP1 REVERT JUMPDEST POP PUSH2 0x374 PUSH2 0x8E5 JUMP JUMPDEST STOP JUMPDEST CALLVALUE DUP1 ISZERO PUSH2 0x382 JUMPI PUSH1 0x0 DUP1 REVERT JUMPDEST POP PUSH2 0x39D PUSH1 0x4 DUP1 CALLDATASIZE SUB DUP2 ADD SWAP1 PUSH2 0x398 SWAP2 SWAP1 PUSH2 0x12DF JUMP JUMPDEST PUSH2 0x8E7 JUMP JUMPDEST STOP JUMPDEST PUSH1 0x0 CALLER SWAP1 POP SWAP1 JUMP JUMPDEST PUSH2 0x3B0 DUP2 PUSH2 0x9DE JUMP JUMPDEST POP JUMP JUMPDEST PUSH1 0x0 DUP1 SLOAD SWAP1 POP SWAP1 JUMP JUMPDEST PUSH1 0x0 PUSH1 0x6 PUSH1 0x0 DUP5 PUSH20 0xFFFFFFFFFFFFFFFFFFFFFFFFFFFFFFFFFFFFFFFF AND PUSH20 0xFFFFFFFFFFFFFFFFFFFFFFFFFFFFFFFFFFFFFFFF AND DUP2 MSTORE PUSH1 0x20 ADD SWAP1 DUP2 MSTORE PUSH1 0x20 ADD PUSH1 0x0 KECCAK256 PUSH1 0x0 DUP4 PUSH20 0xFFFFFFFFFFFFFFFFFFFFFFFFFFFFFFFFFFFFFFFF AND PUSH20 0xFFFFFFFFFFFFFFFFFFFFFFFFFFFFFFFFFFFFFFFF AND DUP2 MSTORE PUSH1 0x20 ADD SWAP1 DUP2 MSTORE PUSH1 0x20 ADD PUSH1 0x0 KECCAK256 SLOAD SWAP1 POP SWAP3 SWAP2 POP POP JUMP JUMPDEST PUSH1 0x0 PUSH1 0x2 PUSH1 0x0 DUP4 PUSH20 0xFFFFFFFFFFFFFFFFFFFFFFFFFFFFFFFFFFFFFFFF AND PUSH20 0xFFFFFFFFFFFFFFFFFFFFFFFFFFFFFFFFFFFFFFFF AND DUP2 MSTORE PUSH1 0x20 ADD SWAP1 DUP2 MSTORE PUSH1 0x20 ADD PUSH1 0x0 KECCAK256 SLOAD GT PUSH2 0x4C5 JUMPI PUSH1 0x40 MLOAD PUSH32 0x8C379A000000000000000000000000000000000000000000000000000000000 DUP2 MSTORE PUSH1 0x4 ADD PUSH2 0x4BC SWAP1 PUSH2 0x13BC JUMP JUMPDEST PUSH1 0x40 MLOAD DUP1 SWAP2 SUB SWAP1 REVERT JUMPDEST PUSH1 0x0 PUSH2 0x4D0 DUP4 PUSH2 0x892 JUMP JUMPDEST DUP4 PUSH20 0xFFFFFFFFFFFFFFFFFFFFFFFFFFFFFFFFFFFFFFFF AND PUSH4 0x70A08231 ADDRESS PUSH1 0x40 MLOAD DUP3 PUSH4 0xFFFFFFFF AND PUSH1 0xE0 SHL DUP2 MSTORE PUSH1 0x4 ADD PUSH2 0x509 SWAP2 SWAP1 PUSH2 0x12C4 JUMP JUMPDEST PUSH1 0x20 PUSH1 0x40 MLOAD DUP1 DUP4 SUB DUP2 DUP7 GAS STATICCALL ISZERO DUP1 ISZERO PUSH2 0x526 JUMPI RETURNDATASIZE PUSH1 0x0 DUP1 RETURNDATACOPY RETURNDATASIZE PUSH1 0x0 REVERT JUMPDEST POP POP POP POP PUSH1 0x40 MLOAD RETURNDATASIZE PUSH1 0x1F NOT PUSH1 0x1F DUP3 ADD AND DUP3 ADD DUP1 PUSH1 0x40 MSTORE POP DUP2 ADD SWAP1 PUSH2 0x54A SWAP2 SWAP1 PUSH2 0x13F1 JUMP JUMPDEST PUSH2 0x554 SWAP2 SWAP1 PUSH2 0x144D JUMP JUMPDEST SWAP1 POP PUSH1 0x0 PUSH2 0x56C DUP4 DUP4 PUSH2 0x567 DUP8 DUP8 PUSH2 0x3BC JUMP JUMPDEST PUSH2 0xB88 JUMP JUMPDEST SWAP1 POP PUSH1 0x0 DUP2 SUB PUSH2 0x5B1 JUMPI PUSH1 0x40 MLOAD PUSH32 0x8C379A000000000000000000000000000000000000000000000000000000000 DUP2 MSTORE PUSH1 0x4 ADD PUSH2 0x5A8 SWAP1 PUSH2 0x1515 JUMP JUMPDEST PUSH1 0x40 MLOAD DUP1 SWAP2 SUB SWAP1 REVERT JUMPDEST DUP1 PUSH1 0x6 PUSH1 0x0 DUP7 PUSH20 0xFFFFFFFFFFFFFFFFFFFFFFFFFFFFFFFFFFFFFFFF AND PUSH20 0xFFFFFFFFFFFFFFFFFFFFFFFFFFFFFFFFFFFFFFFF AND DUP2 MSTORE PUSH1 0x20 ADD SWAP1 DUP2 MSTORE PUSH1 0x20 ADD PUSH1 0x0 KECCAK256 PUSH1 0x0 DUP6 PUSH20 0xFFFFFFFFFFFFFFFFFFFFFFFFFFFFFFFFFFFFFFFF AND PUSH20 0xFFFFFFFFFFFFFFFFFFFFFFFFFFFFFFFFFFFFFFFF AND DUP2 MSTORE PUSH1 0x20 ADD SWAP1 DUP2 MSTORE PUSH1 0x20 ADD PUSH1 0x0 KECCAK256 PUSH1 0x0 DUP3 DUP3 SLOAD PUSH2 0x63D SWAP2 SWAP1 PUSH2 0x144D JUMP JUMPDEST SWAP3 POP POP DUP2 SWAP1 SSTORE POP DUP1 PUSH1 0x5 PUSH1 0x0 DUP7 PUSH20 0xFFFFFFFFFFFFFFFFFFFFFFFFFFFFFFFFFFFFFFFF AND PUSH20 0xFFFFFFFFFFFFFFFFFFFFFFFFFFFFFFFFFFFFFFFF AND DUP2 MSTORE PUSH1 0x20 ADD SWAP1 DUP2 MSTORE PUSH1 0x20 ADD PUSH1 0x0 KECCAK256 PUSH1 0x0 DUP3 DUP3 SLOAD PUSH2 0x693 SWAP2 SWAP1 PUSH2 0x144D JUMP JUMPDEST SWAP3 POP POP DUP2 SWAP1 SSTORE POP PUSH2 0x6A5 DUP5 DUP5 DUP4 PUSH2 0xBF6 JUMP JUMPDEST DUP4 PUSH20 0xFFFFFFFFFFFFFFFFFFFFFFFFFFFFFFFFFFFFFFFF AND PUSH32 0x3BE5B7A71E84ED12875D241991C70855AC5817D847039E17A9D895C1CEB0F18A DUP5 DUP4 PUSH1 0x40 MLOAD PUSH2 0x6ED SWAP3 SWAP2 SWAP1 PUSH2 0x110D JUMP JUMPDEST PUSH1 0x40 MLOAD DUP1 SWAP2 SUB SWAP1 LOG2 POP POP POP POP JUMP JUMPDEST PUSH2 0x703 PUSH2 0x39F JUMP JUMPDEST PUSH20 0xFFFFFFFFFFFFFFFFFFFFFFFFFFFFFFFFFFFFFFFF AND PUSH2 0x721 PUSH2 0x7CB JUMP JUMPDEST PUSH20 0xFFFFFFFFFFFFFFFFFFFFFFFFFFFFFFFFFFFFFFFF AND EQ PUSH2 0x777 JUMPI PUSH1 0x40 MLOAD PUSH32 0x8C379A000000000000000000000000000000000000000000000000000000000 DUP2 MSTORE PUSH1 0x4 ADD PUSH2 0x76E SWAP1 PUSH2 0x1581 JUMP JUMPDEST PUSH1 0x40 MLOAD DUP1 SWAP2 SUB SWAP1 REVERT JUMPDEST PUSH2 0x781 PUSH1 0x0 PUSH2 0xC7C JUMP JUMPDEST JUMP JUMPDEST PUSH1 0x0 PUSH1 0x4 DUP3 DUP2 SLOAD DUP2 LT PUSH2 0x799 JUMPI PUSH2 0x798 PUSH2 0x15A1 JUMP JUMPDEST JUMPDEST SWAP1 PUSH1 0x0 MSTORE PUSH1 0x20 PUSH1 0x0 KECCAK256 ADD PUSH1 0x0 SWAP1 SLOAD SWAP1 PUSH2 0x100 EXP SWAP1 DIV PUSH20 0xFFFFFFFFFFFFFFFFFFFFFFFFFFFFFFFFFFFFFFFF AND SWAP1 POP SWAP2 SWAP1 POP JUMP JUMPDEST PUSH1 0x0 PUSH1 0x7 PUSH1 0x0 SWAP1 SLOAD SWAP1 PUSH2 0x100 EXP SWAP1 DIV PUSH20 0xFFFFFFFFFFFFFFFFFFFFFFFFFFFFFFFFFFFFFFFF AND SWAP1 POP SWAP1 JUMP JUMPDEST PUSH1 0x0 PUSH1 0x3 PUSH1 0x0 DUP4 PUSH20 0xFFFFFFFFFFFFFFFFFFFFFFFFFFFFFFFFFFFFFFFF AND PUSH20 0xFFFFFFFFFFFFFFFFFFFFFFFFFFFFFFFFFFFFFFFF AND DUP2 MSTORE PUSH1 0x20 ADD SWAP1 DUP2 MSTORE PUSH1 0x20 ADD PUSH1 0x0 KECCAK256 SLOAD SWAP1 POP SWAP2 SWAP1 POP JUMP JUMPDEST PUSH2 0x847 CALLER PUSH2 0x3A7 JUMP JUMPDEST JUMP JUMPDEST PUSH1 0x0 PUSH1 0x2 PUSH1 0x0 DUP4 PUSH20 0xFFFFFFFFFFFFFFFFFFFFFFFFFFFFFFFFFFFFFFFF AND PUSH20 0xFFFFFFFFFFFFFFFFFFFFFFFFFFFFFFFFFFFFFFFF AND DUP2 MSTORE PUSH1 0x20 ADD SWAP1 DUP2 MSTORE PUSH1 0x20 ADD PUSH1 0x0 KECCAK256 SLOAD SWAP1 POP SWAP2 SWAP1 POP JUMP JUMPDEST PUSH1 0x0 PUSH1 0x5 PUSH1 0x0 DUP4 PUSH20 0xFFFFFFFFFFFFFFFFFFFFFFFFFFFFFFFFFFFFFFFF AND PUSH20 0xFFFFFFFFFFFFFFFFFFFFFFFFFFFFFFFFFFFFFFFF AND DUP2 MSTORE PUSH1 0x20 ADD SWAP1 DUP2 MSTORE PUSH1 0x20 ADD PUSH1 0x0 KECCAK256 SLOAD SWAP1 POP SWAP2 SWAP1 POP JUMP JUMPDEST PUSH1 0x0 PUSH1 0x1 SLOAD SWAP1 POP SWAP1 JUMP JUMPDEST JUMP JUMPDEST PUSH2 0x8EF PUSH2 0x39F JUMP JUMPDEST PUSH20 0xFFFFFFFFFFFFFFFFFFFFFFFFFFFFFFFFFFFFFFFF AND PUSH2 0x90D PUSH2 0x7CB JUMP JUMPDEST PUSH20 0xFFFFFFFFFFFFFFFFFFFFFFFFFFFFFFFFFFFFFFFF AND EQ PUSH2 0x963 JUMPI PUSH1 0x40 MLOAD PUSH32 0x8C379A000000000000000000000000000000000000000000000000000000000 DUP2 MSTORE PUSH1 0x4 ADD PUSH2 0x95A SWAP1 PUSH2 0x1581 JUMP JUMPDEST PUSH1 0x40 MLOAD DUP1 SWAP2 SUB SWAP1 REVERT JUMPDEST PUSH1 0x0 PUSH20 0xFFFFFFFFFFFFFFFFFFFFFFFFFFFFFFFFFFFFFFFF AND DUP2 PUSH20 0xFFFFFFFFFFFFFFFFFFFFFFFFFFFFFFFFFFFFFFFF AND SUB PUSH2 0x9D2 JUMPI PUSH1 0x40 MLOAD PUSH32 0x8C379A000000000000000000000000000000000000000000000000000000000 DUP2 MSTORE PUSH1 0x4 ADD PUSH2 0x9C9 SWAP1 PUSH2 0x1642 JUMP JUMPDEST PUSH1 0x40 MLOAD DUP1 SWAP2 SUB SWAP1 REVERT JUMPDEST PUSH2 0x9DB DUP2 PUSH2 0xC7C JUMP JUMPDEST POP JUMP JUMPDEST PUSH1 0x0 PUSH1 0x2 PUSH1 0x0 DUP4 PUSH20 0xFFFFFFFFFFFFFFFFFFFFFFFFFFFFFFFFFFFFFFFF AND PUSH20 0xFFFFFFFFFFFFFFFFFFFFFFFFFFFFFFFFFFFFFFFF AND DUP2 MSTORE PUSH1 0x20 ADD SWAP1 DUP2 MSTORE PUSH1 0x20 ADD PUSH1 0x0 KECCAK256 SLOAD GT PUSH2 0xA60 JUMPI PUSH1 0x40 MLOAD PUSH32 0x8C379A000000000000000000000000000000000000000000000000000000000 DUP2 MSTORE PUSH1 0x4 ADD PUSH2 0xA57 SWAP1 PUSH2 0x13BC JUMP JUMPDEST PUSH1 0x40 MLOAD DUP1 SWAP2 SUB SWAP1 REVERT JUMPDEST PUSH1 0x0 PUSH2 0xA6A PUSH2 0x8DB JUMP JUMPDEST SELFBALANCE PUSH2 0xA75 SWAP2 SWAP1 PUSH2 0x144D JUMP JUMPDEST SWAP1 POP PUSH1 0x0 PUSH2 0xA8C DUP4 DUP4 PUSH2 0xA87 DUP7 PUSH2 0x7F5 JUMP JUMPDEST PUSH2 0xB88 JUMP JUMPDEST SWAP1 POP PUSH1 0x0 DUP2 SUB PUSH2 0xAD1 JUMPI PUSH1 0x40 MLOAD PUSH32 0x8C379A000000000000000000000000000000000000000000000000000000000 DUP2 MSTORE PUSH1 0x4 ADD PUSH2 0xAC8 SWAP1 PUSH2 0x1515 JUMP JUMPDEST PUSH1 0x40 MLOAD DUP1 SWAP2 SUB SWAP1 REVERT JUMPDEST DUP1 PUSH1 0x3 PUSH1 0x0 DUP6 PUSH20 0xFFFFFFFFFFFFFFFFFFFFFFFFFFFFFFFFFFFFFFFF AND PUSH20 0xFFFFFFFFFFFFFFFFFFFFFFFFFFFFFFFFFFFFFFFF AND DUP2 MSTORE PUSH1 0x20 ADD SWAP1 DUP2 MSTORE PUSH1 0x20 ADD PUSH1 0x0 KECCAK256 PUSH1 0x0 DUP3 DUP3 SLOAD PUSH2 0xB20 SWAP2 SWAP1 PUSH2 0x144D JUMP JUMPDEST SWAP3 POP POP DUP2 SWAP1 SSTORE POP DUP1 PUSH1 0x1 PUSH1 0x0 DUP3 DUP3 SLOAD PUSH2 0xB39 SWAP2 SWAP1 PUSH2 0x144D JUMP JUMPDEST SWAP3 POP POP DUP2 SWAP1 SSTORE POP PUSH2 0xB4A DUP4 DUP3 PUSH2 0xD42 JUMP JUMPDEST PUSH32 0xDF20FD1E76BC69D672E4814FAFB2C449BBA3A5369D8359ADF9E05E6FDE87B056 DUP4 DUP3 PUSH1 0x40 MLOAD PUSH2 0xB7B SWAP3 SWAP2 SWAP1 PUSH2 0x16C1 JUMP JUMPDEST PUSH1 0x40 MLOAD DUP1 SWAP2 SUB SWAP1 LOG1 POP POP POP JUMP JUMPDEST PUSH1 0x0 DUP2 PUSH1 0x0 SLOAD PUSH1 0x2 PUSH1 0x0 DUP8 PUSH20 0xFFFFFFFFFFFFFFFFFFFFFFFFFFFFFFFFFFFFFFFF AND PUSH20 0xFFFFFFFFFFFFFFFFFFFFFFFFFFFFFFFFFFFFFFFF AND DUP2 MSTORE PUSH1 0x20 ADD SWAP1 DUP2 MSTORE PUSH1 0x20 ADD PUSH1 0x0 KECCAK256 SLOAD DUP6 PUSH2 0xBD9 SWAP2 SWAP1 PUSH2 0x16EA JUMP JUMPDEST PUSH2 0xBE3 SWAP2 SWAP1 PUSH2 0x1773 JUMP JUMPDEST PUSH2 0xBED SWAP2 SWAP1 PUSH2 0x17A4 JUMP JUMPDEST SWAP1 POP SWAP4 SWAP3 POP POP POP JUMP JUMPDEST PUSH2 0xC77 DUP4 PUSH4 0xA9059CBB PUSH1 0xE0 SHL DUP5 DUP5 PUSH1 0x40 MLOAD PUSH1 0x24 ADD PUSH2 0xC15 SWAP3 SWAP2 SWAP1 PUSH2 0x110D JUMP JUMPDEST PUSH1 0x40 MLOAD PUSH1 0x20 DUP2 DUP4 SUB SUB DUP2 MSTORE SWAP1 PUSH1 0x40 MSTORE SWAP1 PUSH28 0xFFFFFFFFFFFFFFFFFFFFFFFFFFFFFFFFFFFFFFFFFFFFFFFFFFFFFFFF NOT AND PUSH1 0x20 DUP3 ADD DUP1 MLOAD PUSH28 0xFFFFFFFFFFFFFFFFFFFFFFFFFFFFFFFFFFFFFFFFFFFFFFFFFFFFFFFF DUP4 DUP2 DUP4 AND OR DUP4 MSTORE POP POP POP POP PUSH2 0xE36 JUMP JUMPDEST POP POP POP JUMP JUMPDEST PUSH1 0x0 PUSH1 0x7 PUSH1 0x0 SWAP1 SLOAD SWAP1 PUSH2 0x100 EXP SWAP1 DIV PUSH20 0xFFFFFFFFFFFFFFFFFFFFFFFFFFFFFFFFFFFFFFFF AND SWAP1 POP DUP2 PUSH1 0x7 PUSH1 0x0 PUSH2 0x100 EXP DUP2 SLOAD DUP2 PUSH20 0xFFFFFFFFFFFFFFFFFFFFFFFFFFFFFFFFFFFFFFFF MUL NOT AND SWAP1 DUP4 PUSH20 0xFFFFFFFFFFFFFFFFFFFFFFFFFFFFFFFFFFFFFFFF AND MUL OR SWAP1 SSTORE POP DUP2 PUSH20 0xFFFFFFFFFFFFFFFFFFFFFFFFFFFFFFFFFFFFFFFF AND DUP2 PUSH20 0xFFFFFFFFFFFFFFFFFFFFFFFFFFFFFFFFFFFFFFFF AND PUSH32 0x8BE0079C531659141344CD1FD0A4F28419497F9722A3DAAFE3B4186F6B6457E0 PUSH1 0x40 MLOAD PUSH1 0x40 MLOAD DUP1 SWAP2 SUB SWAP1 LOG3 POP POP JUMP JUMPDEST DUP1 SELFBALANCE LT ISZERO PUSH2 0xD85 JUMPI PUSH1 0x40 MLOAD PUSH32 0x8C379A000000000000000000000000000000000000000000000000000000000 DUP2 MSTORE PUSH1 0x4 ADD PUSH2 0xD7C SWAP1 PUSH2 0x1824 JUMP JUMPDEST PUSH1 0x40 MLOAD DUP1 SWAP2 SUB SWAP1 REVERT JUMPDEST PUSH1 0x0 DUP3 PUSH20 0xFFFFFFFFFFFFFFFFFFFFFFFFFFFFFFFFFFFFFFFF AND DUP3 PUSH1 0x40 MLOAD PUSH2 0xDAB SWAP1 PUSH2 0x1875 JUMP JUMPDEST PUSH1 0x0 PUSH1 0x40 MLOAD DUP1 DUP4 SUB DUP2 DUP6 DUP8 GAS CALL SWAP3 POP POP POP RETURNDATASIZE DUP1 PUSH1 0x0 DUP2 EQ PUSH2 0xDE8 JUMPI PUSH1 0x40 MLOAD SWAP2 POP PUSH1 0x1F NOT PUSH1 0x3F RETURNDATASIZE ADD AND DUP3 ADD PUSH1 0x40 MSTORE RETURNDATASIZE DUP3 MSTORE RETURNDATASIZE PUSH1 0x0 PUSH1 0x20 DUP5 ADD RETURNDATACOPY PUSH2 0xDED JUMP JUMPDEST PUSH1 0x60 SWAP2 POP JUMPDEST POP POP SWAP1 POP DUP1 PUSH2 0xE31 JUMPI PUSH1 0x40 MLOAD PUSH32 0x8C379A000000000000000000000000000000000000000000000000000000000 DUP2 MSTORE PUSH1 0x4 ADD PUSH2 0xE28 SWAP1 PUSH2 0x18FC JUMP JUMPDEST PUSH1 0x40 MLOAD DUP1 SWAP2 SUB SWAP1 REVERT JUMPDEST POP POP POP JUMP JUMPDEST PUSH1 0x0 PUSH2 0xE98 DUP3 PUSH1 0x40 MLOAD DUP1 PUSH1 0x40 ADD PUSH1 0x40 MSTORE DUP1 PUSH1 0x20 DUP2 MSTORE PUSH1 0x20 ADD PUSH32 0x5361666545524332303A206C6F772D6C6576656C2063616C6C206661696C6564 DUP2 MSTORE POP DUP6 PUSH20 0xFFFFFFFFFFFFFFFFFFFFFFFFFFFFFFFFFFFFFFFF AND PUSH2 0xEFD SWAP1 SWAP3 SWAP2 SWAP1 PUSH4 0xFFFFFFFF AND JUMP JUMPDEST SWAP1 POP PUSH1 0x0 DUP2 MLOAD GT ISZERO PUSH2 0xEF8 JUMPI DUP1 DUP1 PUSH1 0x20 ADD SWAP1 MLOAD DUP2 ADD SWAP1 PUSH2 0xEB8 SWAP2 SWAP1 PUSH2 0x1954 JUMP JUMPDEST PUSH2 0xEF7 JUMPI PUSH1 0x40 MLOAD PUSH32 0x8C379A000000000000000000000000000000000000000000000000000000000 DUP2 MSTORE PUSH1 0x4 ADD PUSH2 0xEEE SWAP1 PUSH2 0x19F3 JUMP JUMPDEST PUSH1 0x40 MLOAD DUP1 SWAP2 SUB SWAP1 REVERT JUMPDEST JUMPDEST POP POP POP JUMP JUMPDEST PUSH1 0x60 PUSH2 0xF0C DUP5 DUP5 PUSH1 0x0 DUP6 PUSH2 0xF15 JUMP JUMPDEST SWAP1 POP SWAP4 SWAP3 POP POP POP JUMP JUMPDEST PUSH1 0x60 DUP3 SELFBALANCE LT ISZERO PUSH2 0xF5A JUMPI PUSH1 0x40 MLOAD PUSH32 0x8C379A000000000000000000000000000000000000000000000000000000000 DUP2 MSTORE PUSH1 0x4 ADD PUSH2 0xF51 SWAP1 PUSH2 0x1A85 JUMP JUMPDEST PUSH1 0x40 MLOAD DUP1 SWAP2 SUB SWAP1 REVERT JUMPDEST PUSH2 0xF63 DUP6 PUSH2 0x1029 JUMP JUMPDEST PUSH2 0xFA2 JUMPI PUSH1 0x40 MLOAD PUSH32 0x8C379A000000000000000000000000000000000000000000000000000000000 DUP2 MSTORE PUSH1 0x4 ADD PUSH2 0xF99 SWAP1 PUSH2 0x1AF1 JUMP JUMPDEST PUSH1 0x40 MLOAD DUP1 SWAP2 SUB SWAP1 REVERT JUMPDEST PUSH1 0x0 DUP1 DUP7 PUSH20 0xFFFFFFFFFFFFFFFFFFFFFFFFFFFFFFFFFFFFFFFF AND DUP6 DUP8 PUSH1 0x40 MLOAD PUSH2 0xFCB SWAP2 SWAP1 PUSH2 0x1B80 JUMP JUMPDEST PUSH1 0x0 PUSH1 0x40 MLOAD DUP1 DUP4 SUB DUP2 DUP6 DUP8 GAS CALL SWAP3 POP POP POP RETURNDATASIZE DUP1 PUSH1 0x0 DUP2 EQ PUSH2 0x1008 JUMPI PUSH1 0x40 MLOAD SWAP2 POP PUSH1 0x1F NOT PUSH1 0x3F RETURNDATASIZE ADD AND DUP3 ADD PUSH1 0x40 MSTORE RETURNDATASIZE DUP3 MSTORE RETURNDATASIZE PUSH1 0x0 PUSH1 0x20 DUP5 ADD RETURNDATACOPY PUSH2 0x100D JUMP JUMPDEST PUSH1 0x60 SWAP2 POP JUMPDEST POP SWAP2 POP SWAP2 POP PUSH2 0x101D DUP3 DUP3 DUP7 PUSH2 0x104C JUMP JUMPDEST SWAP3 POP POP POP SWAP5 SWAP4 POP POP POP POP JUMP JUMPDEST PUSH1 0x0 DUP1 DUP3 PUSH20 0xFFFFFFFFFFFFFFFFFFFFFFFFFFFFFFFFFFFFFFFF AND EXTCODESIZE GT SWAP1 POP SWAP2 SWAP1 POP JUMP JUMPDEST PUSH1 0x60 DUP4 ISZERO PUSH2 0x105C JUMPI DUP3 SWAP1 POP PUSH2 0x10AC JUMP JUMPDEST PUSH1 0x0 DUP4 MLOAD GT ISZERO PUSH2 0x106F JUMPI DUP3 MLOAD DUP1 DUP5 PUSH1 0x20 ADD REVERT JUMPDEST DUP2 PUSH1 0x40 MLOAD PUSH32 0x8C379A000000000000000000000000000000000000000000000000000000000 DUP2 MSTORE PUSH1 0x4 ADD PUSH2 0x10A3 SWAP2 SWAP1 PUSH2 0x1BEC JUMP JUMPDEST PUSH1 0x40 MLOAD DUP1 SWAP2 SUB SWAP1 REVERT JUMPDEST SWAP4 SWAP3 POP POP POP JUMP JUMPDEST PUSH1 0x0 PUSH20 0xFFFFFFFFFFFFFFFFFFFFFFFFFFFFFFFFFFFFFFFF DUP3 AND SWAP1 POP SWAP2 SWAP1 POP JUMP JUMPDEST PUSH1 0x0 PUSH2 0x10DE DUP3 PUSH2 0x10B3 JUMP JUMPDEST SWAP1 POP SWAP2 SWAP1 POP JUMP JUMPDEST PUSH2 0x10EE DUP2 PUSH2 0x10D3 JUMP JUMPDEST DUP3 MSTORE POP POP JUMP JUMPDEST PUSH1 0x0 DUP2 SWAP1 POP SWAP2 SWAP1 POP JUMP JUMPDEST PUSH2 0x1107 DUP2 PUSH2 0x10F4 JUMP JUMPDEST DUP3 MSTORE POP POP JUMP JUMPDEST PUSH1 0x0 PUSH1 0x40 DUP3 ADD SWAP1 POP PUSH2 0x1122 PUSH1 0x0 DUP4 ADD DUP6 PUSH2 0x10E5 JUMP JUMPDEST PUSH2 0x112F PUSH1 0x20 DUP4 ADD DUP5 PUSH2 0x10FE JUMP JUMPDEST SWAP4 SWAP3 POP POP POP JUMP JUMPDEST PUSH1 0x0 DUP1 REVERT JUMPDEST PUSH1 0x0 PUSH2 0x1146 DUP3 PUSH2 0x10B3 JUMP JUMPDEST SWAP1 POP SWAP2 SWAP1 POP JUMP JUMPDEST PUSH2 0x1156 DUP2 PUSH2 0x113B JUMP JUMPDEST DUP2 EQ PUSH2 0x1161 JUMPI PUSH1 0x0 DUP1 REVERT JUMPDEST POP JUMP JUMPDEST PUSH1 0x0 DUP2 CALLDATALOAD SWAP1 POP PUSH2 0x1173 DUP2 PUSH2 0x114D JUMP JUMPDEST SWAP3 SWAP2 POP POP JUMP JUMPDEST PUSH1 0x0 PUSH1 0x20 DUP3 DUP5 SUB SLT ISZERO PUSH2 0x118F JUMPI PUSH2 0x118E PUSH2 0x1136 JUMP JUMPDEST JUMPDEST PUSH1 0x0 PUSH2 0x119D DUP5 DUP3 DUP6 ADD PUSH2 0x1164 JUMP JUMPDEST SWAP2 POP POP SWAP3 SWAP2 POP POP JUMP JUMPDEST PUSH1 0x0 PUSH1 0x20 DUP3 ADD SWAP1 POP PUSH2 0x11BB PUSH1 0x0 DUP4 ADD DUP5 PUSH2 0x10FE JUMP JUMPDEST SWAP3 SWAP2 POP POP JUMP JUMPDEST PUSH1 0x0 PUSH2 0x11CC DUP3 PUSH2 0x10D3 JUMP JUMPDEST SWAP1 POP SWAP2 SWAP1 POP JUMP JUMPDEST PUSH2 0x11DC DUP2 PUSH2 0x11C1 JUMP JUMPDEST DUP2 EQ PUSH2 0x11E7 JUMPI PUSH1 0x0 DUP1 REVERT JUMPDEST POP JUMP JUMPDEST PUSH1 0x0 DUP2 CALLDATALOAD SWAP1 POP PUSH2 0x11F9 DUP2 PUSH2 0x11D3 JUMP JUMPDEST SWAP3 SWAP2 POP POP JUMP JUMPDEST PUSH2 0x1208 DUP2 PUSH2 0x10D3 JUMP JUMPDEST DUP2 EQ PUSH2 0x1213 JUMPI PUSH1 0x0 DUP1 REVERT JUMPDEST POP JUMP JUMPDEST PUSH1 0x0 DUP2 CALLDATALOAD SWAP1 POP PUSH2 0x1225 DUP2 PUSH2 0x11FF JUMP JUMPDEST SWAP3 SWAP2 POP POP JUMP JUMPDEST PUSH1 0x0 DUP1 PUSH1 0x40 DUP4 DUP6 SUB SLT ISZERO PUSH2 0x1242 JUMPI PUSH2 0x1241 PUSH2 0x1136 JUMP JUMPDEST JUMPDEST PUSH1 0x0 PUSH2 0x1250 DUP6 DUP3 DUP7 ADD PUSH2 0x11EA JUMP JUMPDEST SWAP3 POP POP PUSH1 0x20 PUSH2 0x1261 DUP6 DUP3 DUP7 ADD PUSH2 0x1216 JUMP JUMPDEST SWAP2 POP POP SWAP3 POP SWAP3 SWAP1 POP JUMP JUMPDEST PUSH2 0x1274 DUP2 PUSH2 0x10F4 JUMP JUMPDEST DUP2 EQ PUSH2 0x127F JUMPI PUSH1 0x0 DUP1 REVERT JUMPDEST POP JUMP JUMPDEST PUSH1 0x0 DUP2 CALLDATALOAD SWAP1 POP PUSH2 0x1291 DUP2 PUSH2 0x126B JUMP JUMPDEST SWAP3 SWAP2 POP POP JUMP JUMPDEST PUSH1 0x0 PUSH1 0x20 DUP3 DUP5 SUB SLT ISZERO PUSH2 0x12AD JUMPI PUSH2 0x12AC PUSH2 0x1136 JUMP JUMPDEST JUMPDEST PUSH1 0x0 PUSH2 0x12BB DUP5 DUP3 DUP6 ADD PUSH2 0x1282 JUMP JUMPDEST SWAP2 POP POP SWAP3 SWAP2 POP POP JUMP JUMPDEST PUSH1 0x0 PUSH1 0x20 DUP3 ADD SWAP1 POP PUSH2 0x12D9 PUSH1 0x0 DUP4 ADD DUP5 PUSH2 0x10E5 JUMP JUMPDEST SWAP3 SWAP2 POP POP JUMP JUMPDEST PUSH1 0x0 PUSH1 0x20 DUP3 DUP5 SUB SLT ISZERO PUSH2 0x12F5 JUMPI PUSH2 0x12F4 PUSH2 0x1136 JUMP JUMPDEST JUMPDEST PUSH1 0x0 PUSH2 0x1303 DUP5 DUP3 DUP6 ADD PUSH2 0x1216 JUMP JUMPDEST SWAP2 POP POP SWAP3 SWAP2 POP POP JUMP JUMPDEST PUSH1 0x0 PUSH1 0x20 DUP3 DUP5 SUB SLT ISZERO PUSH2 0x1322 JUMPI PUSH2 0x1321 PUSH2 0x1136 JUMP JUMPDEST JUMPDEST PUSH1 0x0 PUSH2 0x1330 DUP5 DUP3 DUP6 ADD PUSH2 0x11EA JUMP JUMPDEST SWAP2 POP POP SWAP3 SWAP2 POP POP JUMP JUMPDEST PUSH1 0x0 DUP3 DUP3 MSTORE PUSH1 0x20 DUP3 ADD SWAP1 POP SWAP3 SWAP2 POP POP JUMP JUMPDEST PUSH32 0x5061796D656E7453706C69747465723A206163636F756E7420686173206E6F20 PUSH1 0x0 DUP3 ADD MSTORE PUSH32 0x7368617265730000000000000000000000000000000000000000000000000000 PUSH1 0x20 DUP3 ADD MSTORE POP JUMP JUMPDEST PUSH1 0x0 PUSH2 0x13A6 PUSH1 0x26 DUP4 PUSH2 0x1339 JUMP JUMPDEST SWAP2 POP PUSH2 0x13B1 DUP3 PUSH2 0x134A JUMP JUMPDEST PUSH1 0x40 DUP3 ADD SWAP1 POP SWAP2 SWAP1 POP JUMP JUMPDEST PUSH1 0x0 PUSH1 0x20 DUP3 ADD SWAP1 POP DUP2 DUP2 SUB PUSH1 0x0 DUP4 ADD MSTORE PUSH2 0x13D5 DUP2 PUSH2 0x1399 JUMP JUMPDEST SWAP1 POP SWAP2 SWAP1 POP JUMP JUMPDEST PUSH1 0x0 DUP2 MLOAD SWAP1 POP PUSH2 0x13EB DUP2 PUSH2 0x126B JUMP JUMPDEST SWAP3 SWAP2 POP POP JUMP JUMPDEST PUSH1 0x0 PUSH1 0x20 DUP3 DUP5 SUB SLT ISZERO PUSH2 0x1407 JUMPI PUSH2 0x1406 PUSH2 0x1136 JUMP JUMPDEST JUMPDEST PUSH1 0x0 PUSH2 0x1415 DUP5 DUP3 DUP6 ADD PUSH2 0x13DC JUMP JUMPDEST SWAP2 POP POP SWAP3 SWAP2 POP POP JUMP JUMPDEST PUSH32 0x4E487B7100000000000000000000000000000000000000000000000000000000 PUSH1 0x0 MSTORE PUSH1 0x11 PUSH1 0x4 MSTORE PUSH1 0x24 PUSH1 0x0 REVERT JUMPDEST PUSH1 0x0 PUSH2 0x1458 DUP3 PUSH2 0x10F4 JUMP JUMPDEST SWAP2 POP PUSH2 0x1463 DUP4 PUSH2 0x10F4 JUMP JUMPDEST SWAP3 POP DUP3 PUSH32 0xFFFFFFFFFFFFFFFFFFFFFFFFFFFFFFFFFFFFFFFFFFFFFFFFFFFFFFFFFFFFFFFF SUB DUP3 GT ISZERO PUSH2 0x1498 JUMPI PUSH2 0x1497 PUSH2 0x141E JUMP JUMPDEST JUMPDEST DUP3 DUP3 ADD SWAP1 POP SWAP3 SWAP2 POP POP JUMP JUMPDEST PUSH32 0x5061796D656E7453706C69747465723A206163636F756E74206973206E6F7420 PUSH1 0x0 DUP3 ADD MSTORE PUSH32 0x647565207061796D656E74000000000000000000000000000000000000000000 PUSH1 0x20 DUP3 ADD MSTORE POP JUMP JUMPDEST PUSH1 0x0 PUSH2 0x14FF PUSH1 0x2B DUP4 PUSH2 0x1339 JUMP JUMPDEST SWAP2 POP PUSH2 0x150A DUP3 PUSH2 0x14A3 JUMP JUMPDEST PUSH1 0x40 DUP3 ADD SWAP1 POP SWAP2 SWAP1 POP JUMP JUMPDEST PUSH1 0x0 PUSH1 0x20 DUP3 ADD SWAP1 POP DUP2 DUP2 SUB PUSH1 0x0 DUP4 ADD MSTORE PUSH2 0x152E DUP2 PUSH2 0x14F2 JUMP JUMPDEST SWAP1 POP SWAP2 SWAP1 POP JUMP JUMPDEST PUSH32 0x4F776E61626C653A2063616C6C6572206973206E6F7420746865206F776E6572 PUSH1 0x0 DUP3 ADD MSTORE POP JUMP JUMPDEST PUSH1 0x0 PUSH2 0x156B PUSH1 0x20 DUP4 PUSH2 0x1339 JUMP JUMPDEST SWAP2 POP PUSH2 0x1576 DUP3 PUSH2 0x1535 JUMP JUMPDEST PUSH1 0x20 DUP3 ADD SWAP1 POP SWAP2 SWAP1 POP JUMP JUMPDEST PUSH1 0x0 PUSH1 0x20 DUP3 ADD SWAP1 POP DUP2 DUP2 SUB PUSH1 0x0 DUP4 ADD MSTORE PUSH2 0x159A DUP2 PUSH2 0x155E JUMP JUMPDEST SWAP1 POP SWAP2 SWAP1 POP JUMP JUMPDEST PUSH32 0x4E487B7100000000000000000000000000000000000000000000000000000000 PUSH1 0x0 MSTORE PUSH1 0x32 PUSH1 0x4 MSTORE PUSH1 0x24 PUSH1 0x0 REVERT JUMPDEST PUSH32 0x4F776E61626C653A206E6577206F776E657220697320746865207A65726F2061 PUSH1 0x0 DUP3 ADD MSTORE PUSH32 0x6464726573730000000000000000000000000000000000000000000000000000 PUSH1 0x20 DUP3 ADD MSTORE POP JUMP JUMPDEST PUSH1 0x0 PUSH2 0x162C PUSH1 0x26 DUP4 PUSH2 0x1339 JUMP JUMPDEST SWAP2 POP PUSH2 0x1637 DUP3 PUSH2 0x15D0 JUMP JUMPDEST PUSH1 0x40 DUP3 ADD SWAP1 POP SWAP2 SWAP1 POP JUMP JUMPDEST PUSH1 0x0 PUSH1 0x20 DUP3 ADD SWAP1 POP DUP2 DUP2 SUB PUSH1 0x0 DUP4 ADD MSTORE PUSH2 0x165B DUP2 PUSH2 0x161F JUMP JUMPDEST SWAP1 POP SWAP2 SWAP1 POP JUMP JUMPDEST PUSH1 0x0 DUP2 SWAP1 POP SWAP2 SWAP1 POP JUMP JUMPDEST PUSH1 0x0 PUSH2 0x1687 PUSH2 0x1682 PUSH2 0x167D DUP5 PUSH2 0x10B3 JUMP JUMPDEST PUSH2 0x1662 JUMP JUMPDEST PUSH2 0x10B3 JUMP JUMPDEST SWAP1 POP SWAP2 SWAP1 POP JUMP JUMPDEST PUSH1 0x0 PUSH2 0x1699 DUP3 PUSH2 0x166C JUMP JUMPDEST SWAP1 POP SWAP2 SWAP1 POP JUMP JUMPDEST PUSH1 0x0 PUSH2 0x16AB DUP3 PUSH2 0x168E JUMP JUMPDEST SWAP1 POP SWAP2 SWAP1 POP JUMP JUMPDEST PUSH2 0x16BB DUP2 PUSH2 0x16A0 JUMP JUMPDEST DUP3 MSTORE POP POP JUMP JUMPDEST PUSH1 0x0 PUSH1 0x40 DUP3 ADD SWAP1 POP PUSH2 0x16D6 PUSH1 0x0 DUP4 ADD DUP6 PUSH2 0x16B2 JUMP JUMPDEST PUSH2 0x16E3 PUSH1 0x20 DUP4 ADD DUP5 PUSH2 0x10FE JUMP JUMPDEST SWAP4 SWAP3 POP POP POP JUMP JUMPDEST PUSH1 0x0 PUSH2 0x16F5 DUP3 PUSH2 0x10F4 JUMP JUMPDEST SWAP2 POP PUSH2 0x1700 DUP4 PUSH2 0x10F4 JUMP JUMPDEST SWAP3 POP DUP2 PUSH32 0xFFFFFFFFFFFFFFFFFFFFFFFFFFFFFFFFFFFFFFFFFFFFFFFFFFFFFFFFFFFFFFFF DIV DUP4 GT DUP3 ISZERO ISZERO AND ISZERO PUSH2 0x1739 JUMPI PUSH2 0x1738 PUSH2 0x141E JUMP JUMPDEST JUMPDEST DUP3 DUP3 MUL SWAP1 POP SWAP3 SWAP2 POP POP JUMP JUMPDEST PUSH32 0x4E487B7100000000000000000000000000000000000000000000000000000000 PUSH1 0x0 MSTORE PUSH1 0x12 PUSH1 0x4 MSTORE PUSH1 0x24 PUSH1 0x0 REVERT JUMPDEST PUSH1 0x0 PUSH2 0x177E DUP3 PUSH2 0x10F4 JUMP JUMPDEST SWAP2 POP PUSH2 0x1789 DUP4 PUSH2 0x10F4 JUMP JUMPDEST SWAP3 POP DUP3 PUSH2 0x1799 JUMPI PUSH2 0x1798 PUSH2 0x1744 JUMP JUMPDEST JUMPDEST DUP3 DUP3 DIV SWAP1 POP SWAP3 SWAP2 POP POP JUMP JUMPDEST PUSH1 0x0 PUSH2 0x17AF DUP3 PUSH2 0x10F4 JUMP JUMPDEST SWAP2 POP PUSH2 0x17BA DUP4 PUSH2 0x10F4 JUMP JUMPDEST SWAP3 POP DUP3 DUP3 LT ISZERO PUSH2 0x17CD JUMPI PUSH2 0x17CC PUSH2 0x141E JUMP JUMPDEST JUMPDEST DUP3 DUP3 SUB SWAP1 POP SWAP3 SWAP2 POP POP JUMP JUMPDEST PUSH32 0x416464726573733A20696E73756666696369656E742062616C616E6365000000 PUSH1 0x0 DUP3 ADD MSTORE POP JUMP JUMPDEST PUSH1 0x0 PUSH2 0x180E PUSH1 0x1D DUP4 PUSH2 0x1339 JUMP JUMPDEST SWAP2 POP PUSH2 0x1819 DUP3 PUSH2 0x17D8 JUMP JUMPDEST PUSH1 0x20 DUP3 ADD SWAP1 POP SWAP2 SWAP1 POP JUMP JUMPDEST PUSH1 0x0 PUSH1 0x20 DUP3 ADD SWAP1 POP DUP2 DUP2 SUB PUSH1 0x0 DUP4 ADD MSTORE PUSH2 0x183D DUP2 PUSH2 0x1801 JUMP JUMPDEST SWAP1 POP SWAP2 SWAP1 POP JUMP JUMPDEST PUSH1 0x0 DUP2 SWAP1 POP SWAP3 SWAP2 POP POP JUMP JUMPDEST POP JUMP JUMPDEST PUSH1 0x0 PUSH2 0x185F PUSH1 0x0 DUP4 PUSH2 0x1844 JUMP JUMPDEST SWAP2 POP PUSH2 0x186A DUP3 PUSH2 0x184F JUMP JUMPDEST PUSH1 0x0 DUP3 ADD SWAP1 POP SWAP2 SWAP1 POP JUMP JUMPDEST PUSH1 0x0 PUSH2 0x1880 DUP3 PUSH2 0x1852 JUMP JUMPDEST SWAP2 POP DUP2 SWAP1 POP SWAP2 SWAP1 POP JUMP JUMPDEST PUSH32 0x416464726573733A20756E61626C6520746F2073656E642076616C75652C2072 PUSH1 0x0 DUP3 ADD MSTORE PUSH32 0x6563697069656E74206D61792068617665207265766572746564000000000000 PUSH1 0x20 DUP3 ADD MSTORE POP JUMP JUMPDEST PUSH1 0x0 PUSH2 0x18E6 PUSH1 0x3A DUP4 PUSH2 0x1339 JUMP JUMPDEST SWAP2 POP PUSH2 0x18F1 DUP3 PUSH2 0x188A JUMP JUMPDEST PUSH1 0x40 DUP3 ADD SWAP1 POP SWAP2 SWAP1 POP JUMP JUMPDEST PUSH1 0x0 PUSH1 0x20 DUP3 ADD SWAP1 POP DUP2 DUP2 SUB PUSH1 0x0 DUP4 ADD MSTORE PUSH2 0x1915 DUP2 PUSH2 0x18D9 JUMP JUMPDEST SWAP1 POP SWAP2 SWAP1 POP JUMP JUMPDEST PUSH1 0x0 DUP2 ISZERO ISZERO SWAP1 POP SWAP2 SWAP1 POP JUMP JUMPDEST PUSH2 0x1931 DUP2 PUSH2 0x191C JUMP JUMPDEST DUP2 EQ PUSH2 0x193C JUMPI PUSH1 0x0 DUP1 REVERT JUMPDEST POP JUMP JUMPDEST PUSH1 0x0 DUP2 MLOAD SWAP1 POP PUSH2 0x194E DUP2 PUSH2 0x1928 JUMP JUMPDEST SWAP3 SWAP2 POP POP JUMP JUMPDEST PUSH1 0x0 PUSH1 0x20 DUP3 DUP5 SUB SLT ISZERO PUSH2 0x196A JUMPI PUSH2 0x1969 PUSH2 0x1136 JUMP JUMPDEST JUMPDEST PUSH1 0x0 PUSH2 0x1978 DUP5 DUP3 DUP6 ADD PUSH2 0x193F JUMP JUMPDEST SWAP2 POP POP SWAP3 SWAP2 POP POP JUMP JUMPDEST PUSH32 0x5361666545524332303A204552433230206F7065726174696F6E20646964206E PUSH1 0x0 DUP3 ADD MSTORE PUSH32 0x6F74207375636365656400000000000000000000000000000000000000000000 PUSH1 0x20 DUP3 ADD MSTORE POP JUMP JUMPDEST PUSH1 0x0 PUSH2 0x19DD PUSH1 0x2A DUP4 PUSH2 0x1339 JUMP JUMPDEST SWAP2 POP PUSH2 0x19E8 DUP3 PUSH2 0x1981 JUMP JUMPDEST PUSH1 0x40 DUP3 ADD SWAP1 POP SWAP2 SWAP1 POP JUMP JUMPDEST PUSH1 0x0 PUSH1 0x20 DUP3 ADD SWAP1 POP DUP2 DUP2 SUB PUSH1 0x0 DUP4 ADD MSTORE PUSH2 0x1A0C DUP2 PUSH2 0x19D0 JUMP JUMPDEST SWAP1 POP SWAP2 SWAP1 POP JUMP JUMPDEST PUSH32 0x416464726573733A20696E73756666696369656E742062616C616E636520666F PUSH1 0x0 DUP3 ADD MSTORE PUSH32 0x722063616C6C0000000000000000000000000000000000000000000000000000 PUSH1 0x20 DUP3 ADD MSTORE POP JUMP JUMPDEST PUSH1 0x0 PUSH2 0x1A6F PUSH1 0x26 DUP4 PUSH2 0x1339 JUMP JUMPDEST SWAP2 POP PUSH2 0x1A7A DUP3 PUSH2 0x1A13 JUMP JUMPDEST PUSH1 0x40 DUP3 ADD SWAP1 POP SWAP2 SWAP1 POP JUMP JUMPDEST PUSH1 0x0 PUSH1 0x20 DUP3 ADD SWAP1 POP DUP2 DUP2 SUB PUSH1 0x0 DUP4 ADD MSTORE PUSH2 0x1A9E DUP2 PUSH2 0x1A62 JUMP JUMPDEST SWAP1 POP SWAP2 SWAP1 POP JUMP JUMPDEST PUSH32 0x416464726573733A2063616C6C20746F206E6F6E2D636F6E7472616374000000 PUSH1 0x0 DUP3 ADD MSTORE POP JUMP JUMPDEST PUSH1 0x0 PUSH2 0x1ADB PUSH1 0x1D DUP4 PUSH2 0x1339 JUMP JUMPDEST SWAP2 POP PUSH2 0x1AE6 DUP3 PUSH2 0x1AA5 JUMP JUMPDEST PUSH1 0x20 DUP3 ADD SWAP1 POP SWAP2 SWAP1 POP JUMP JUMPDEST PUSH1 0x0 PUSH1 0x20 DUP3 ADD SWAP1 POP DUP2 DUP2 SUB PUSH1 0x0 DUP4 ADD MSTORE PUSH2 0x1B0A DUP2 PUSH2 0x1ACE JUMP JUMPDEST SWAP1 POP SWAP2 SWAP1 POP JUMP JUMPDEST PUSH1 0x0 DUP2 MLOAD SWAP1 POP SWAP2 SWAP1 POP JUMP JUMPDEST PUSH1 0x0 JUMPDEST DUP4 DUP2 LT ISZERO PUSH2 0x1B3A JUMPI DUP1 DUP3 ADD MLOAD DUP2 DUP5 ADD MSTORE PUSH1 0x20 DUP2 ADD SWAP1 POP PUSH2 0x1B1F JUMP JUMPDEST DUP4 DUP2 GT ISZERO PUSH2 0x1B49 JUMPI PUSH1 0x0 DUP5 DUP5 ADD MSTORE JUMPDEST POP POP POP POP JUMP JUMPDEST PUSH1 0x0 PUSH2 0x1B5A DUP3 PUSH2 0x1B11 JUMP JUMPDEST PUSH2 0x1B64 DUP2 DUP6 PUSH2 0x1844 JUMP JUMPDEST SWAP4 POP PUSH2 0x1B74 DUP2 DUP6 PUSH1 0x20 DUP7 ADD PUSH2 0x1B1C JUMP JUMPDEST DUP1 DUP5 ADD SWAP2 POP POP SWAP3 SWAP2 POP POP JUMP JUMPDEST PUSH1 0x0 PUSH2 0x1B8C DUP3 DUP5 PUSH2 0x1B4F JUMP JUMPDEST SWAP2 POP DUP2 SWAP1 POP SWAP3 SWAP2 POP POP JUMP JUMPDEST PUSH1 0x0 DUP2 MLOAD SWAP1 POP SWAP2 SWAP1 POP JUMP JUMPDEST PUSH1 0x0 PUSH1 0x1F NOT PUSH1 0x1F DUP4 ADD AND SWAP1 POP SWAP2 SWAP1 POP JUMP JUMPDEST PUSH1 0x0 PUSH2 0x1BBE DUP3 PUSH2 0x1B97 JUMP JUMPDEST PUSH2 0x1BC8 DUP2 DUP6 PUSH2 0x1339 JUMP JUMPDEST SWAP4 POP PUSH2 0x1BD8 DUP2 DUP6 PUSH1 0x20 DUP7 ADD PUSH2 0x1B1C JUMP JUMPDEST PUSH2 0x1BE1 DUP2 PUSH2 0x1BA2 JUMP JUMPDEST DUP5 ADD SWAP2 POP POP SWAP3 SWAP2 POP POP JUMP JUMPDEST PUSH1 0x0 PUSH1 0x20 DUP3 ADD SWAP1 POP DUP2 DUP2 SUB PUSH1 0x0 DUP4 ADD MSTORE PUSH2 0x1C06 DUP2 DUP5 PUSH2 0x1BB3 JUMP JUMPDEST SWAP1 POP SWAP3 SWAP2 POP POP JUMP INVALID LOG2 PUSH5 0x6970667358 0x22 SLT KECCAK256 SWAP13 RETURNDATASIZE PUSH8 0xF4E3AE68F6FE0C56 0xB7 0xFC LOG1 EXTCODESIZE SWAP14 0x2D MULMOD 0x49 0xC7 0xB8 0xD4 0x5F PUSH2 0xBDD2 JUMPI 0xC SWAP6 PUSH2 0x2F91 PUSH5 0x736F6C6343 STOP ADDMOD 0xE STOP CALLER "
				},
				"gasEstimates": {
					"creation": {
						"codeDepositCost": "1447200",
						"executionCost": "infinite",
						"totalCost": "infinite"
					},
					"external": {
						"easyRelease()": "infinite",
						"owner()": "2611",
						"payee(uint256)": "5034",
						"release(address)": "infinite",
						"release(address,address)": "infinite",
						"released(address)": "2864",
						"released(address,address)": "infinite",
						"renounceOwnership()": "30419",
						"shares(address)": "2908",
						"totalReleased()": "2481",
						"totalReleased(address)": "2906",
						"totalShares()": "2483",
						"transferOwnership(address)": "30808",
						"viewBalanceOwed()": "210"
					}
				},
				"methodIdentifiers": {
					"easyRelease()": "a4a4ce8a",
					"owner()": "8da5cb5b",
					"payee(uint256)": "8b83209b",
					"release(address)": "19165587",
					"release(address,address)": "48b75044",
					"released(address)": "9852595c",
					"released(address,address)": "406072a9",
					"renounceOwnership()": "715018a6",
					"shares(address)": "ce7c2ac2",
					"totalReleased()": "e33b7de3",
					"totalReleased(address)": "d79779b2",
					"totalShares()": "3a98ef39",
					"transferOwnership(address)": "f2fde38b",
					"viewBalanceOwed()": "f28e5120"
				}
			},
			"storageLayout": {
				"storage": [
					{
						"astId": 141,
						"contract": "contracts/HACHIWallet.sol:HachiWallet",
						"label": "_totalShares",
						"offset": 0,
						"slot": "0",
						"type": "t_uint256"
					},
					{
						"astId": 143,
						"contract": "contracts/HACHIWallet.sol:HachiWallet",
						"label": "_totalReleased",
						"offset": 0,
						"slot": "1",
						"type": "t_uint256"
					},
					{
						"astId": 147,
						"contract": "contracts/HACHIWallet.sol:HachiWallet",
						"label": "_shares",
						"offset": 0,
						"slot": "2",
						"type": "t_mapping(t_address,t_uint256)"
					},
					{
						"astId": 151,
						"contract": "contracts/HACHIWallet.sol:HachiWallet",
						"label": "_released",
						"offset": 0,
						"slot": "3",
						"type": "t_mapping(t_address,t_uint256)"
					},
					{
						"astId": 154,
						"contract": "contracts/HACHIWallet.sol:HachiWallet",
						"label": "_payees",
						"offset": 0,
						"slot": "4",
						"type": "t_array(t_address)dyn_storage"
					},
					{
						"astId": 159,
						"contract": "contracts/HACHIWallet.sol:HachiWallet",
						"label": "_erc20TotalReleased",
						"offset": 0,
						"slot": "5",
						"type": "t_mapping(t_contract(IERC20)623,t_uint256)"
					},
					{
						"astId": 166,
						"contract": "contracts/HACHIWallet.sol:HachiWallet",
						"label": "_erc20Released",
						"offset": 0,
						"slot": "6",
						"type": "t_mapping(t_contract(IERC20)623,t_mapping(t_address,t_uint256))"
					},
					{
						"astId": 7,
						"contract": "contracts/HACHIWallet.sol:HachiWallet",
						"label": "_owner",
						"offset": 0,
						"slot": "7",
						"type": "t_address"
					}
				],
				"types": {
					"t_address": {
						"encoding": "inplace",
						"label": "address",
						"numberOfBytes": "20"
					},
					"t_array(t_address)dyn_storage": {
						"base": "t_address",
						"encoding": "dynamic_array",
						"label": "address[]",
						"numberOfBytes": "32"
					},
					"t_contract(IERC20)623": {
						"encoding": "inplace",
						"label": "contract IERC20",
						"numberOfBytes": "20"
					},
					"t_mapping(t_address,t_uint256)": {
						"encoding": "mapping",
						"key": "t_address",
						"label": "mapping(address => uint256)",
						"numberOfBytes": "32",
						"value": "t_uint256"
					},
					"t_mapping(t_contract(IERC20)623,t_mapping(t_address,t_uint256))": {
						"encoding": "mapping",
						"key": "t_contract(IERC20)623",
						"label": "mapping(contract IERC20 => mapping(address => uint256))",
						"numberOfBytes": "32",
						"value": "t_mapping(t_address,t_uint256)"
					},
					"t_mapping(t_contract(IERC20)623,t_uint256)": {
						"encoding": "mapping",
						"key": "t_contract(IERC20)623",
						"label": "mapping(contract IERC20 => uint256)",
						"numberOfBytes": "32",
						"value": "t_uint256"
					},
					"t_uint256": {
						"encoding": "inplace",
						"label": "uint256",
						"numberOfBytes": "32"
					}
				}
			},
			"userdoc": {
				"kind": "user",
				"methods": {},
				"version": 1
			}
		}
	}
}