{
	".deps/npm/@openzeppelin/contracts/finance/PaymentSplitter.sol": {
		"PaymentSplitter": {
			"abi": [
				{
					"inputs": [
						{
							"internalType": "address[]",
							"name": "payees",
							"type": "address[]"
						},
						{
							"internalType": "uint256[]",
							"name": "shares_",
							"type": "uint256[]"
						}
					],
					"stateMutability": "payable",
					"type": "constructor"
				},
				{
					"anonymous": false,
					"inputs": [
						{
							"indexed": true,
							"internalType": "contract IERC20",
							"name": "token",
							"type": "address"
						},
						{
							"indexed": false,
							"internalType": "address",
							"name": "to",
							"type": "address"
						},
						{
							"indexed": false,
							"internalType": "uint256",
							"name": "amount",
							"type": "uint256"
						}
					],
					"name": "ERC20PaymentReleased",
					"type": "event"
				},
				{
					"anonymous": false,
					"inputs": [
						{
							"indexed": false,
							"internalType": "address",
							"name": "account",
							"type": "address"
						},
						{
							"indexed": false,
							"internalType": "uint256",
							"name": "shares",
							"type": "uint256"
						}
					],
					"name": "PayeeAdded",
					"type": "event"
				},
				{
					"anonymous": false,
					"inputs": [
						{
							"indexed": false,
							"internalType": "address",
							"name": "from",
							"type": "address"
						},
						{
							"indexed": false,
							"internalType": "uint256",
							"name": "amount",
							"type": "uint256"
						}
					],
					"name": "PaymentReceived",
					"type": "event"
				},
				{
					"anonymous": false,
					"inputs": [
						{
							"indexed": false,
							"internalType": "address",
							"name": "to",
							"type": "address"
						},
						{
							"indexed": false,
							"internalType": "uint256",
							"name": "amount",
							"type": "uint256"
						}
					],
					"name": "PaymentReleased",
					"type": "event"
				},
				{
					"inputs": [
						{
							"internalType": "uint256",
							"name": "index",
							"type": "uint256"
						}
					],
					"name": "payee",
					"outputs": [
						{
							"internalType": "address",
							"name": "",
							"type": "address"
						}
					],
					"stateMutability": "view",
					"type": "function"
				},
				{
					"inputs": [
						{
							"internalType": "address payable",
							"name": "account",
							"type": "address"
						}
					],
					"name": "release",
					"outputs": [],
					"stateMutability": "nonpayable",
					"type": "function"
				},
				{
					"inputs": [
						{
							"internalType": "contract IERC20",
							"name": "token",
							"type": "address"
						},
						{
							"internalType": "address",
							"name": "account",
							"type": "address"
						}
					],
					"name": "release",
					"outputs": [],
					"stateMutability": "nonpayable",
					"type": "function"
				},
				{
					"inputs": [
						{
							"internalType": "contract IERC20",
							"name": "token",
							"type": "address"
						},
						{
							"internalType": "address",
							"name": "account",
							"type": "address"
						}
					],
					"name": "released",
					"outputs": [
						{
							"internalType": "uint256",
							"name": "",
							"type": "uint256"
						}
					],
					"stateMutability": "view",
					"type": "function"
				},
				{
					"inputs": [
						{
							"internalType": "address",
							"name": "account",
							"type": "address"
						}
					],
					"name": "released",
					"outputs": [
						{
							"internalType": "uint256",
							"name": "",
							"type": "uint256"
						}
					],
					"stateMutability": "view",
					"type": "function"
				},
				{
					"inputs": [
						{
							"internalType": "address",
							"name": "account",
							"type": "address"
						}
					],
					"name": "shares",
					"outputs": [
						{
							"internalType": "uint256",
							"name": "",
							"type": "uint256"
						}
					],
					"stateMutability": "view",
					"type": "function"
				},
				{
					"inputs": [
						{
							"internalType": "contract IERC20",
							"name": "token",
							"type": "address"
						}
					],
					"name": "totalReleased",
					"outputs": [
						{
							"internalType": "uint256",
							"name": "",
							"type": "uint256"
						}
					],
					"stateMutability": "view",
					"type": "function"
				},
				{
					"inputs": [],
					"name": "totalReleased",
					"outputs": [
						{
							"internalType": "uint256",
							"name": "",
							"type": "uint256"
						}
					],
					"stateMutability": "view",
					"type": "function"
				},
				{
					"inputs": [],
					"name": "totalShares",
					"outputs": [
						{
							"internalType": "uint256",
							"name": "",
							"type": "uint256"
						}
					],
					"stateMutability": "view",
					"type": "function"
				},
				{
					"stateMutability": "payable",
					"type": "receive"
				}
			],
			"devdoc": {
				"details": "This contract allows to split Ether payments among a group of accounts. The sender does not need to be aware that the Ether will be split in this way, since it is handled transparently by the contract. The split can be in equal parts or in any other arbitrary proportion. The way this is specified is by assigning each account to a number of shares. Of all the Ether that this contract receives, each account will then be able to claim an amount proportional to the percentage of total shares they were assigned. `PaymentSplitter` follows a _pull payment_ model. This means that payments are not automatically forwarded to the accounts but kept in this contract, and the actual transfer is triggered as a separate step by calling the {release} function. NOTE: This contract assumes that ERC20 tokens will behave similarly to native tokens (Ether). Rebasing tokens, and tokens that apply fees during transfers, are likely to not be supported as expected. If in doubt, we encourage you to run tests before sending real value to this contract.",
				"kind": "dev",
				"methods": {
					"constructor": {
						"details": "Creates an instance of `PaymentSplitter` where each account in `payees` is assigned the number of shares at the matching position in the `shares` array. All addresses in `payees` must be non-zero. Both arrays must have the same non-zero length, and there must be no duplicates in `payees`."
					},
					"payee(uint256)": {
						"details": "Getter for the address of the payee number `index`."
					},
					"release(address)": {
						"details": "Triggers a transfer to `account` of the amount of Ether they are owed, according to their percentage of the total shares and their previous withdrawals."
					},
					"release(address,address)": {
						"details": "Triggers a transfer to `account` of the amount of `token` tokens they are owed, according to their percentage of the total shares and their previous withdrawals. `token` must be the address of an IERC20 contract."
					},
					"released(address)": {
						"details": "Getter for the amount of Ether already released to a payee."
					},
					"released(address,address)": {
						"details": "Getter for the amount of `token` tokens already released to a payee. `token` should be the address of an IERC20 contract."
					},
					"shares(address)": {
						"details": "Getter for the amount of shares held by an account."
					},
					"totalReleased()": {
						"details": "Getter for the total amount of Ether already released."
					},
					"totalReleased(address)": {
						"details": "Getter for the total amount of `token` already released. `token` should be the address of an IERC20 contract."
					},
					"totalShares()": {
						"details": "Getter for the total shares held by payees."
					}
				},
				"title": "PaymentSplitter",
				"version": 1
			},
			"evm": {
				"assembly": "    /* \".deps/npm/@openzeppelin/contracts/finance/PaymentSplitter.sol\":1351:7484  contract PaymentSplitter is Context {... */\n  mstore(0x40, 0x80)\n    /* \".deps/npm/@openzeppelin/contracts/finance/PaymentSplitter.sol\":2328:2687  constructor(address[] memory payees, uint256[] memory shares_) payable {... */\n  mload(0x40)\n  sub(codesize, bytecodeSize)\n  dup1\n  bytecodeSize\n  dup4\n  codecopy\n  dup2\n  dup2\n  add\n  0x40\n  mstore\n  dup2\n  add\n  swap1\n  tag_1\n  swap2\n  swap1\n  tag_2\n  jump\t// in\ntag_1:\n    /* \".deps/npm/@openzeppelin/contracts/finance/PaymentSplitter.sol\":2434:2441  shares_ */\n  dup1\n    /* \".deps/npm/@openzeppelin/contracts/finance/PaymentSplitter.sol\":2434:2448  shares_.length */\n  mload\n    /* \".deps/npm/@openzeppelin/contracts/finance/PaymentSplitter.sol\":2417:2423  payees */\n  dup3\n    /* \".deps/npm/@openzeppelin/contracts/finance/PaymentSplitter.sol\":2417:2430  payees.length */\n  mload\n    /* \".deps/npm/@openzeppelin/contracts/finance/PaymentSplitter.sol\":2417:2448  payees.length == shares_.length */\n  eq\n    /* \".deps/npm/@openzeppelin/contracts/finance/PaymentSplitter.sol\":2409:2503  require(payees.length == shares_.length, \"PaymentSplitter: payees and shares length mismatch\") */\n  tag_5\n  jumpi\n  mload(0x40)\n  0x08c379a000000000000000000000000000000000000000000000000000000000\n  dup2\n  mstore\n  0x04\n  add\n  tag_6\n  swap1\n  tag_7\n  jump\t// in\ntag_6:\n  mload(0x40)\n  dup1\n  swap2\n  sub\n  swap1\n  revert\ntag_5:\n    /* \".deps/npm/@openzeppelin/contracts/finance/PaymentSplitter.sol\":2537:2538  0 */\n  0x00\n    /* \".deps/npm/@openzeppelin/contracts/finance/PaymentSplitter.sol\":2521:2527  payees */\n  dup3\n    /* \".deps/npm/@openzeppelin/contracts/finance/PaymentSplitter.sol\":2521:2534  payees.length */\n  mload\n    /* \".deps/npm/@openzeppelin/contracts/finance/PaymentSplitter.sol\":2521:2538  payees.length > 0 */\n  gt\n    /* \".deps/npm/@openzeppelin/contracts/finance/PaymentSplitter.sol\":2513:2569  require(payees.length > 0, \"PaymentSplitter: no payees\") */\n  tag_8\n  jumpi\n  mload(0x40)\n  0x08c379a000000000000000000000000000000000000000000000000000000000\n  dup2\n  mstore\n  0x04\n  add\n  tag_9\n  swap1\n  tag_10\n  jump\t// in\ntag_9:\n  mload(0x40)\n  dup1\n  swap2\n  sub\n  swap1\n  revert\ntag_8:\n    /* \".deps/npm/@openzeppelin/contracts/finance/PaymentSplitter.sol\":2585:2594  uint256 i */\n  0x00\n    /* \".deps/npm/@openzeppelin/contracts/finance/PaymentSplitter.sol\":2580:2681  for (uint256 i = 0; i < payees.length; i++) {... */\ntag_11:\n    /* \".deps/npm/@openzeppelin/contracts/finance/PaymentSplitter.sol\":2604:2610  payees */\n  dup3\n    /* \".deps/npm/@openzeppelin/contracts/finance/PaymentSplitter.sol\":2604:2617  payees.length */\n  mload\n    /* \".deps/npm/@openzeppelin/contracts/finance/PaymentSplitter.sol\":2600:2601  i */\n  dup2\n    /* \".deps/npm/@openzeppelin/contracts/finance/PaymentSplitter.sol\":2600:2617  i < payees.length */\n  lt\n    /* \".deps/npm/@openzeppelin/contracts/finance/PaymentSplitter.sol\":2580:2681  for (uint256 i = 0; i < payees.length; i++) {... */\n  iszero\n  tag_12\n  jumpi\n    /* \".deps/npm/@openzeppelin/contracts/finance/PaymentSplitter.sol\":2638:2670  _addPayee(payees[i], shares_[i]) */\n  tag_14\n    /* \".deps/npm/@openzeppelin/contracts/finance/PaymentSplitter.sol\":2648:2654  payees */\n  dup4\n    /* \".deps/npm/@openzeppelin/contracts/finance/PaymentSplitter.sol\":2655:2656  i */\n  dup3\n    /* \".deps/npm/@openzeppelin/contracts/finance/PaymentSplitter.sol\":2648:2657  payees[i] */\n  dup2\n  mload\n  dup2\n  lt\n  tag_15\n  jumpi\n  tag_16\n  tag_17\n  jump\t// in\ntag_16:\ntag_15:\n  0x20\n  mul\n  0x20\n  add\n  add\n  mload\n    /* \".deps/npm/@openzeppelin/contracts/finance/PaymentSplitter.sol\":2659:2666  shares_ */\n  dup4\n    /* \".deps/npm/@openzeppelin/contracts/finance/PaymentSplitter.sol\":2667:2668  i */\n  dup4\n    /* \".deps/npm/@openzeppelin/contracts/finance/PaymentSplitter.sol\":2659:2669  shares_[i] */\n  dup2\n  mload\n  dup2\n  lt\n  tag_18\n  jumpi\n  tag_19\n  tag_17\n  jump\t// in\ntag_19:\ntag_18:\n  0x20\n  mul\n  0x20\n  add\n  add\n  mload\n    /* \".deps/npm/@openzeppelin/contracts/finance/PaymentSplitter.sol\":2638:2647  _addPayee */\n  shl(0x20, tag_20)\n    /* \".deps/npm/@openzeppelin/contracts/finance/PaymentSplitter.sol\":2638:2670  _addPayee(payees[i], shares_[i]) */\n  0x20\n  shr\n  jump\t// in\ntag_14:\n    /* \".deps/npm/@openzeppelin/contracts/finance/PaymentSplitter.sol\":2619:2622  i++ */\n  dup1\n  dup1\n  tag_21\n  swap1\n  tag_22\n  jump\t// in\ntag_21:\n  swap2\n  pop\n  pop\n    /* \".deps/npm/@openzeppelin/contracts/finance/PaymentSplitter.sol\":2580:2681  for (uint256 i = 0; i < payees.length; i++) {... */\n  jump(tag_11)\ntag_12:\n  pop\n    /* \".deps/npm/@openzeppelin/contracts/finance/PaymentSplitter.sol\":2328:2687  constructor(address[] memory payees, uint256[] memory shares_) payable {... */\n  pop\n  pop\n    /* \".deps/npm/@openzeppelin/contracts/finance/PaymentSplitter.sol\":1351:7484  contract PaymentSplitter is Context {... */\n  jump(tag_23)\n    /* \".deps/npm/@openzeppelin/contracts/finance/PaymentSplitter.sol\":7018:7482  function _addPayee(address account, uint256 shares_) private {... */\ntag_20:\n    /* \".deps/npm/@openzeppelin/contracts/finance/PaymentSplitter.sol\":7116:7117  0 */\n  0x00\n    /* \".deps/npm/@openzeppelin/contracts/finance/PaymentSplitter.sol\":7097:7118  account != address(0) */\n  0xffffffffffffffffffffffffffffffffffffffff\n  and\n    /* \".deps/npm/@openzeppelin/contracts/finance/PaymentSplitter.sol\":7097:7104  account */\n  dup3\n    /* \".deps/npm/@openzeppelin/contracts/finance/PaymentSplitter.sol\":7097:7118  account != address(0) */\n  0xffffffffffffffffffffffffffffffffffffffff\n  and\n  sub\n    /* \".deps/npm/@openzeppelin/contracts/finance/PaymentSplitter.sol\":7089:7167  require(account != address(0), \"PaymentSplitter: account is the zero address\") */\n  tag_25\n  jumpi\n  mload(0x40)\n  0x08c379a000000000000000000000000000000000000000000000000000000000\n  dup2\n  mstore\n  0x04\n  add\n  tag_26\n  swap1\n  tag_27\n  jump\t// in\ntag_26:\n  mload(0x40)\n  dup1\n  swap2\n  sub\n  swap1\n  revert\ntag_25:\n    /* \".deps/npm/@openzeppelin/contracts/finance/PaymentSplitter.sol\":7195:7196  0 */\n  0x00\n    /* \".deps/npm/@openzeppelin/contracts/finance/PaymentSplitter.sol\":7185:7192  shares_ */\n  dup2\n    /* \".deps/npm/@openzeppelin/contracts/finance/PaymentSplitter.sol\":7185:7196  shares_ > 0 */\n  gt\n    /* \".deps/npm/@openzeppelin/contracts/finance/PaymentSplitter.sol\":7177:7230  require(shares_ > 0, \"PaymentSplitter: shares are 0\") */\n  tag_28\n  jumpi\n  mload(0x40)\n  0x08c379a000000000000000000000000000000000000000000000000000000000\n  dup2\n  mstore\n  0x04\n  add\n  tag_29\n  swap1\n  tag_30\n  jump\t// in\ntag_29:\n  mload(0x40)\n  dup1\n  swap2\n  sub\n  swap1\n  revert\ntag_28:\n    /* \".deps/npm/@openzeppelin/contracts/finance/PaymentSplitter.sol\":7268:7269  0 */\n  0x00\n    /* \".deps/npm/@openzeppelin/contracts/finance/PaymentSplitter.sol\":7248:7255  _shares */\n  0x02\n    /* \".deps/npm/@openzeppelin/contracts/finance/PaymentSplitter.sol\":7248:7264  _shares[account] */\n  0x00\n    /* \".deps/npm/@openzeppelin/contracts/finance/PaymentSplitter.sol\":7256:7263  account */\n  dup5\n    /* \".deps/npm/@openzeppelin/contracts/finance/PaymentSplitter.sol\":7248:7264  _shares[account] */\n  0xffffffffffffffffffffffffffffffffffffffff\n  and\n  0xffffffffffffffffffffffffffffffffffffffff\n  and\n  dup2\n  mstore\n  0x20\n  add\n  swap1\n  dup2\n  mstore\n  0x20\n  add\n  0x00\n  keccak256\n  sload\n    /* \".deps/npm/@openzeppelin/contracts/finance/PaymentSplitter.sol\":7248:7269  _shares[account] == 0 */\n  eq\n    /* \".deps/npm/@openzeppelin/contracts/finance/PaymentSplitter.sol\":7240:7317  require(_shares[account] == 0, \"PaymentSplitter: account already has shares\") */\n  tag_31\n  jumpi\n  mload(0x40)\n  0x08c379a000000000000000000000000000000000000000000000000000000000\n  dup2\n  mstore\n  0x04\n  add\n  tag_32\n  swap1\n  tag_33\n  jump\t// in\ntag_32:\n  mload(0x40)\n  dup1\n  swap2\n  sub\n  swap1\n  revert\ntag_31:\n    /* \".deps/npm/@openzeppelin/contracts/finance/PaymentSplitter.sol\":7328:7335  _payees */\n  0x04\n    /* \".deps/npm/@openzeppelin/contracts/finance/PaymentSplitter.sol\":7341:7348  account */\n  dup3\n    /* \".deps/npm/@openzeppelin/contracts/finance/PaymentSplitter.sol\":7328:7349  _payees.push(account) */\n  swap1\n  dup1\n  0x01\n  dup2\n  sload\n  add\n  dup1\n  dup3\n  sstore\n  dup1\n  swap2\n  pop\n  pop\n  0x01\n  swap1\n  sub\n  swap1\n  0x00\n  mstore\n  keccak256(0x00, 0x20)\n  add\n  0x00\n  swap1\n  swap2\n  swap1\n  swap2\n  swap1\n  swap2\n  0x0100\n  exp\n  dup2\n  sload\n  dup2\n  0xffffffffffffffffffffffffffffffffffffffff\n  mul\n  not\n  and\n  swap1\n  dup4\n  0xffffffffffffffffffffffffffffffffffffffff\n  and\n  mul\n  or\n  swap1\n  sstore\n  pop\n    /* \".deps/npm/@openzeppelin/contracts/finance/PaymentSplitter.sol\":7378:7385  shares_ */\n  dup1\n    /* \".deps/npm/@openzeppelin/contracts/finance/PaymentSplitter.sol\":7359:7366  _shares */\n  0x02\n    /* \".deps/npm/@openzeppelin/contracts/finance/PaymentSplitter.sol\":7359:7375  _shares[account] */\n  0x00\n    /* \".deps/npm/@openzeppelin/contracts/finance/PaymentSplitter.sol\":7367:7374  account */\n  dup5\n    /* \".deps/npm/@openzeppelin/contracts/finance/PaymentSplitter.sol\":7359:7375  _shares[account] */\n  0xffffffffffffffffffffffffffffffffffffffff\n  and\n  0xffffffffffffffffffffffffffffffffffffffff\n  and\n  dup2\n  mstore\n  0x20\n  add\n  swap1\n  dup2\n  mstore\n  0x20\n  add\n  0x00\n  keccak256\n    /* \".deps/npm/@openzeppelin/contracts/finance/PaymentSplitter.sol\":7359:7385  _shares[account] = shares_ */\n  dup2\n  swap1\n  sstore\n  pop\n    /* \".deps/npm/@openzeppelin/contracts/finance/PaymentSplitter.sol\":7425:7432  shares_ */\n  dup1\n    /* \".deps/npm/@openzeppelin/contracts/finance/PaymentSplitter.sol\":7410:7422  _totalShares */\n  sload(0x00)\n    /* \".deps/npm/@openzeppelin/contracts/finance/PaymentSplitter.sol\":7410:7432  _totalShares + shares_ */\n  tag_35\n  swap2\n  swap1\n  tag_36\n  jump\t// in\ntag_35:\n    /* \".deps/npm/@openzeppelin/contracts/finance/PaymentSplitter.sol\":7395:7407  _totalShares */\n  0x00\n    /* \".deps/npm/@openzeppelin/contracts/finance/PaymentSplitter.sol\":7395:7432  _totalShares = _totalShares + shares_ */\n  dup2\n  swap1\n  sstore\n  pop\n    /* \".deps/npm/@openzeppelin/contracts/finance/PaymentSplitter.sol\":7447:7475  PayeeAdded(account, shares_) */\n  0x40c340f65e17194d14ddddb073d3c9f888e3cb52b5aae0c6c7706b4fbc905fac\n    /* \".deps/npm/@openzeppelin/contracts/finance/PaymentSplitter.sol\":7458:7465  account */\n  dup3\n    /* \".deps/npm/@openzeppelin/contracts/finance/PaymentSplitter.sol\":7467:7474  shares_ */\n  dup3\n    /* \".deps/npm/@openzeppelin/contracts/finance/PaymentSplitter.sol\":7447:7475  PayeeAdded(account, shares_) */\n  mload(0x40)\n  tag_37\n  swap3\n  swap2\n  swap1\n  tag_38\n  jump\t// in\ntag_37:\n  mload(0x40)\n  dup1\n  swap2\n  sub\n  swap1\n  log1\n    /* \".deps/npm/@openzeppelin/contracts/finance/PaymentSplitter.sol\":7018:7482  function _addPayee(address account, uint256 shares_) private {... */\n  pop\n  pop\n  jump\t// out\n    /* \"#utility.yul\":7:82   */\ntag_39:\n    /* \"#utility.yul\":40:46   */\n  0x00\n    /* \"#utility.yul\":73:75   */\n  0x40\n    /* \"#utility.yul\":67:76   */\n  mload\n    /* \"#utility.yul\":57:76   */\n  swap1\n  pop\n    /* \"#utility.yul\":7:82   */\n  swap1\n  jump\t// out\n    /* \"#utility.yul\":88:205   */\ntag_40:\n    /* \"#utility.yul\":197:198   */\n  0x00\n    /* \"#utility.yul\":194:195   */\n  dup1\n    /* \"#utility.yul\":187:199   */\n  revert\n    /* \"#utility.yul\":211:328   */\ntag_41:\n    /* \"#utility.yul\":320:321   */\n  0x00\n    /* \"#utility.yul\":317:318   */\n  dup1\n    /* \"#utility.yul\":310:322   */\n  revert\n    /* \"#utility.yul\":334:451   */\ntag_42:\n    /* \"#utility.yul\":443:444   */\n  0x00\n    /* \"#utility.yul\":440:441   */\n  dup1\n    /* \"#utility.yul\":433:445   */\n  revert\n    /* \"#utility.yul\":457:559   */\ntag_43:\n    /* \"#utility.yul\":498:504   */\n  0x00\n    /* \"#utility.yul\":549:551   */\n  0x1f\n    /* \"#utility.yul\":545:552   */\n  not\n    /* \"#utility.yul\":540:542   */\n  0x1f\n    /* \"#utility.yul\":533:538   */\n  dup4\n    /* \"#utility.yul\":529:543   */\n  add\n    /* \"#utility.yul\":525:553   */\n  and\n    /* \"#utility.yul\":515:553   */\n  swap1\n  pop\n    /* \"#utility.yul\":457:559   */\n  swap2\n  swap1\n  pop\n  jump\t// out\n    /* \"#utility.yul\":565:745   */\ntag_44:\n    /* \"#utility.yul\":613:690   */\n  0x4e487b7100000000000000000000000000000000000000000000000000000000\n    /* \"#utility.yul\":610:611   */\n  0x00\n    /* \"#utility.yul\":603:691   */\n  mstore\n    /* \"#utility.yul\":710:714   */\n  0x41\n    /* \"#utility.yul\":707:708   */\n  0x04\n    /* \"#utility.yul\":700:715   */\n  mstore\n    /* \"#utility.yul\":734:738   */\n  0x24\n    /* \"#utility.yul\":731:732   */\n  0x00\n    /* \"#utility.yul\":724:739   */\n  revert\n    /* \"#utility.yul\":751:1032   */\ntag_45:\n    /* \"#utility.yul\":834:861   */\n  tag_83\n    /* \"#utility.yul\":856:860   */\n  dup3\n    /* \"#utility.yul\":834:861   */\n  tag_43\n  jump\t// in\ntag_83:\n    /* \"#utility.yul\":826:832   */\n  dup2\n    /* \"#utility.yul\":822:862   */\n  add\n    /* \"#utility.yul\":964:970   */\n  dup2\n    /* \"#utility.yul\":952:962   */\n  dup2\n    /* \"#utility.yul\":949:971   */\n  lt\n    /* \"#utility.yul\":928:946   */\n  0xffffffffffffffff\n    /* \"#utility.yul\":916:926   */\n  dup3\n    /* \"#utility.yul\":913:947   */\n  gt\n    /* \"#utility.yul\":910:972   */\n  or\n    /* \"#utility.yul\":907:995   */\n  iszero\n  tag_84\n  jumpi\n    /* \"#utility.yul\":975:993   */\n  tag_85\n  tag_44\n  jump\t// in\ntag_85:\n    /* \"#utility.yul\":907:995   */\ntag_84:\n    /* \"#utility.yul\":1015:1025   */\n  dup1\n    /* \"#utility.yul\":1011:1013   */\n  0x40\n    /* \"#utility.yul\":1004:1026   */\n  mstore\n    /* \"#utility.yul\":794:1032   */\n  pop\n    /* \"#utility.yul\":751:1032   */\n  pop\n  pop\n  jump\t// out\n    /* \"#utility.yul\":1038:1167   */\ntag_46:\n    /* \"#utility.yul\":1072:1078   */\n  0x00\n    /* \"#utility.yul\":1099:1119   */\n  tag_87\n  tag_39\n  jump\t// in\ntag_87:\n    /* \"#utility.yul\":1089:1119   */\n  swap1\n  pop\n    /* \"#utility.yul\":1128:1161   */\n  tag_88\n    /* \"#utility.yul\":1156:1160   */\n  dup3\n    /* \"#utility.yul\":1148:1154   */\n  dup3\n    /* \"#utility.yul\":1128:1161   */\n  tag_45\n  jump\t// in\ntag_88:\n    /* \"#utility.yul\":1038:1167   */\n  swap2\n  swap1\n  pop\n  jump\t// out\n    /* \"#utility.yul\":1173:1484   */\ntag_47:\n    /* \"#utility.yul\":1250:1254   */\n  0x00\n    /* \"#utility.yul\":1340:1358   */\n  0xffffffffffffffff\n    /* \"#utility.yul\":1332:1338   */\n  dup3\n    /* \"#utility.yul\":1329:1359   */\n  gt\n    /* \"#utility.yul\":1326:1382   */\n  iszero\n  tag_90\n  jumpi\n    /* \"#utility.yul\":1362:1380   */\n  tag_91\n  tag_44\n  jump\t// in\ntag_91:\n    /* \"#utility.yul\":1326:1382   */\ntag_90:\n    /* \"#utility.yul\":1412:1416   */\n  0x20\n    /* \"#utility.yul\":1404:1410   */\n  dup3\n    /* \"#utility.yul\":1400:1417   */\n  mul\n    /* \"#utility.yul\":1392:1417   */\n  swap1\n  pop\n    /* \"#utility.yul\":1472:1476   */\n  0x20\n    /* \"#utility.yul\":1466:1470   */\n  dup2\n    /* \"#utility.yul\":1462:1477   */\n  add\n    /* \"#utility.yul\":1454:1477   */\n  swap1\n  pop\n    /* \"#utility.yul\":1173:1484   */\n  swap2\n  swap1\n  pop\n  jump\t// out\n    /* \"#utility.yul\":1490:1607   */\ntag_48:\n    /* \"#utility.yul\":1599:1600   */\n  0x00\n    /* \"#utility.yul\":1596:1597   */\n  dup1\n    /* \"#utility.yul\":1589:1601   */\n  revert\n    /* \"#utility.yul\":1613:1739   */\ntag_49:\n    /* \"#utility.yul\":1650:1657   */\n  0x00\n    /* \"#utility.yul\":1690:1732   */\n  0xffffffffffffffffffffffffffffffffffffffff\n    /* \"#utility.yul\":1683:1688   */\n  dup3\n    /* \"#utility.yul\":1679:1733   */\n  and\n    /* \"#utility.yul\":1668:1733   */\n  swap1\n  pop\n    /* \"#utility.yul\":1613:1739   */\n  swap2\n  swap1\n  pop\n  jump\t// out\n    /* \"#utility.yul\":1745:1841   */\ntag_50:\n    /* \"#utility.yul\":1782:1789   */\n  0x00\n    /* \"#utility.yul\":1811:1835   */\n  tag_95\n    /* \"#utility.yul\":1829:1834   */\n  dup3\n    /* \"#utility.yul\":1811:1835   */\n  tag_49\n  jump\t// in\ntag_95:\n    /* \"#utility.yul\":1800:1835   */\n  swap1\n  pop\n    /* \"#utility.yul\":1745:1841   */\n  swap2\n  swap1\n  pop\n  jump\t// out\n    /* \"#utility.yul\":1847:1969   */\ntag_51:\n    /* \"#utility.yul\":1920:1944   */\n  tag_97\n    /* \"#utility.yul\":1938:1943   */\n  dup2\n    /* \"#utility.yul\":1920:1944   */\n  tag_50\n  jump\t// in\ntag_97:\n    /* \"#utility.yul\":1913:1918   */\n  dup2\n    /* \"#utility.yul\":1910:1945   */\n  eq\n    /* \"#utility.yul\":1900:1963   */\n  tag_98\n  jumpi\n    /* \"#utility.yul\":1959:1960   */\n  0x00\n    /* \"#utility.yul\":1956:1957   */\n  dup1\n    /* \"#utility.yul\":1949:1961   */\n  revert\n    /* \"#utility.yul\":1900:1963   */\ntag_98:\n    /* \"#utility.yul\":1847:1969   */\n  pop\n  jump\t// out\n    /* \"#utility.yul\":1975:2118   */\ntag_52:\n    /* \"#utility.yul\":2032:2037   */\n  0x00\n    /* \"#utility.yul\":2063:2069   */\n  dup2\n    /* \"#utility.yul\":2057:2070   */\n  mload\n    /* \"#utility.yul\":2048:2070   */\n  swap1\n  pop\n    /* \"#utility.yul\":2079:2112   */\n  tag_100\n    /* \"#utility.yul\":2106:2111   */\n  dup2\n    /* \"#utility.yul\":2079:2112   */\n  tag_51\n  jump\t// in\ntag_100:\n    /* \"#utility.yul\":1975:2118   */\n  swap3\n  swap2\n  pop\n  pop\n  jump\t// out\n    /* \"#utility.yul\":2141:2873   */\ntag_53:\n    /* \"#utility.yul\":2248:2253   */\n  0x00\n    /* \"#utility.yul\":2273:2354   */\n  tag_102\n    /* \"#utility.yul\":2289:2353   */\n  tag_103\n    /* \"#utility.yul\":2346:2352   */\n  dup5\n    /* \"#utility.yul\":2289:2353   */\n  tag_47\n  jump\t// in\ntag_103:\n    /* \"#utility.yul\":2273:2354   */\n  tag_46\n  jump\t// in\ntag_102:\n    /* \"#utility.yul\":2264:2354   */\n  swap1\n  pop\n    /* \"#utility.yul\":2374:2379   */\n  dup1\n    /* \"#utility.yul\":2403:2409   */\n  dup4\n    /* \"#utility.yul\":2396:2401   */\n  dup3\n    /* \"#utility.yul\":2389:2410   */\n  mstore\n    /* \"#utility.yul\":2437:2441   */\n  0x20\n    /* \"#utility.yul\":2430:2435   */\n  dup3\n    /* \"#utility.yul\":2426:2442   */\n  add\n    /* \"#utility.yul\":2419:2442   */\n  swap1\n  pop\n    /* \"#utility.yul\":2490:2494   */\n  0x20\n    /* \"#utility.yul\":2482:2488   */\n  dup5\n    /* \"#utility.yul\":2478:2495   */\n  mul\n    /* \"#utility.yul\":2470:2476   */\n  dup4\n    /* \"#utility.yul\":2466:2496   */\n  add\n    /* \"#utility.yul\":2519:2522   */\n  dup6\n    /* \"#utility.yul\":2511:2517   */\n  dup2\n    /* \"#utility.yul\":2508:2523   */\n  gt\n    /* \"#utility.yul\":2505:2627   */\n  iszero\n  tag_104\n  jumpi\n    /* \"#utility.yul\":2538:2617   */\n  tag_105\n  tag_48\n  jump\t// in\ntag_105:\n    /* \"#utility.yul\":2505:2627   */\ntag_104:\n    /* \"#utility.yul\":2653:2659   */\n  dup4\n    /* \"#utility.yul\":2636:2867   */\ntag_106:\n    /* \"#utility.yul\":2670:2676   */\n  dup2\n    /* \"#utility.yul\":2665:2668   */\n  dup2\n    /* \"#utility.yul\":2662:2677   */\n  lt\n    /* \"#utility.yul\":2636:2867   */\n  iszero\n  tag_108\n  jumpi\n    /* \"#utility.yul\":2745:2748   */\n  dup1\n    /* \"#utility.yul\":2774:2822   */\n  tag_109\n    /* \"#utility.yul\":2818:2821   */\n  dup9\n    /* \"#utility.yul\":2806:2816   */\n  dup3\n    /* \"#utility.yul\":2774:2822   */\n  tag_52\n  jump\t// in\ntag_109:\n    /* \"#utility.yul\":2769:2772   */\n  dup5\n    /* \"#utility.yul\":2762:2823   */\n  mstore\n    /* \"#utility.yul\":2852:2856   */\n  0x20\n    /* \"#utility.yul\":2847:2850   */\n  dup5\n    /* \"#utility.yul\":2843:2857   */\n  add\n    /* \"#utility.yul\":2836:2857   */\n  swap4\n  pop\n    /* \"#utility.yul\":2712:2867   */\n  pop\n    /* \"#utility.yul\":2696:2700   */\n  0x20\n    /* \"#utility.yul\":2691:2694   */\n  dup2\n    /* \"#utility.yul\":2687:2701   */\n  add\n    /* \"#utility.yul\":2680:2701   */\n  swap1\n  pop\n    /* \"#utility.yul\":2636:2867   */\n  jump(tag_106)\ntag_108:\n    /* \"#utility.yul\":2640:2661   */\n  pop\n    /* \"#utility.yul\":2254:2873   */\n  pop\n  pop\n    /* \"#utility.yul\":2141:2873   */\n  swap4\n  swap3\n  pop\n  pop\n  pop\n  jump\t// out\n    /* \"#utility.yul\":2896:3281   */\ntag_54:\n    /* \"#utility.yul\":2978:2983   */\n  0x00\n    /* \"#utility.yul\":3027:3030   */\n  dup3\n    /* \"#utility.yul\":3020:3024   */\n  0x1f\n    /* \"#utility.yul\":3012:3018   */\n  dup4\n    /* \"#utility.yul\":3008:3025   */\n  add\n    /* \"#utility.yul\":3004:3031   */\n  slt\n    /* \"#utility.yul\":2994:3116   */\n  tag_111\n  jumpi\n    /* \"#utility.yul\":3035:3114   */\n  tag_112\n  tag_42\n  jump\t// in\ntag_112:\n    /* \"#utility.yul\":2994:3116   */\ntag_111:\n    /* \"#utility.yul\":3145:3151   */\n  dup2\n    /* \"#utility.yul\":3139:3152   */\n  mload\n    /* \"#utility.yul\":3170:3275   */\n  tag_113\n    /* \"#utility.yul\":3271:3274   */\n  dup5\n    /* \"#utility.yul\":3263:3269   */\n  dup3\n    /* \"#utility.yul\":3256:3260   */\n  0x20\n    /* \"#utility.yul\":3248:3254   */\n  dup7\n    /* \"#utility.yul\":3244:3261   */\n  add\n    /* \"#utility.yul\":3170:3275   */\n  tag_53\n  jump\t// in\ntag_113:\n    /* \"#utility.yul\":3161:3275   */\n  swap2\n  pop\n    /* \"#utility.yul\":2984:3281   */\n  pop\n    /* \"#utility.yul\":2896:3281   */\n  swap3\n  swap2\n  pop\n  pop\n  jump\t// out\n    /* \"#utility.yul\":3287:3598   */\ntag_55:\n    /* \"#utility.yul\":3364:3368   */\n  0x00\n    /* \"#utility.yul\":3454:3472   */\n  0xffffffffffffffff\n    /* \"#utility.yul\":3446:3452   */\n  dup3\n    /* \"#utility.yul\":3443:3473   */\n  gt\n    /* \"#utility.yul\":3440:3496   */\n  iszero\n  tag_115\n  jumpi\n    /* \"#utility.yul\":3476:3494   */\n  tag_116\n  tag_44\n  jump\t// in\ntag_116:\n    /* \"#utility.yul\":3440:3496   */\ntag_115:\n    /* \"#utility.yul\":3526:3530   */\n  0x20\n    /* \"#utility.yul\":3518:3524   */\n  dup3\n    /* \"#utility.yul\":3514:3531   */\n  mul\n    /* \"#utility.yul\":3506:3531   */\n  swap1\n  pop\n    /* \"#utility.yul\":3586:3590   */\n  0x20\n    /* \"#utility.yul\":3580:3584   */\n  dup2\n    /* \"#utility.yul\":3576:3591   */\n  add\n    /* \"#utility.yul\":3568:3591   */\n  swap1\n  pop\n    /* \"#utility.yul\":3287:3598   */\n  swap2\n  swap1\n  pop\n  jump\t// out\n    /* \"#utility.yul\":3604:3681   */\ntag_56:\n    /* \"#utility.yul\":3641:3648   */\n  0x00\n    /* \"#utility.yul\":3670:3675   */\n  dup2\n    /* \"#utility.yul\":3659:3675   */\n  swap1\n  pop\n    /* \"#utility.yul\":3604:3681   */\n  swap2\n  swap1\n  pop\n  jump\t// out\n    /* \"#utility.yul\":3687:3809   */\ntag_57:\n    /* \"#utility.yul\":3760:3784   */\n  tag_119\n    /* \"#utility.yul\":3778:3783   */\n  dup2\n    /* \"#utility.yul\":3760:3784   */\n  tag_56\n  jump\t// in\ntag_119:\n    /* \"#utility.yul\":3753:3758   */\n  dup2\n    /* \"#utility.yul\":3750:3785   */\n  eq\n    /* \"#utility.yul\":3740:3803   */\n  tag_120\n  jumpi\n    /* \"#utility.yul\":3799:3800   */\n  0x00\n    /* \"#utility.yul\":3796:3797   */\n  dup1\n    /* \"#utility.yul\":3789:3801   */\n  revert\n    /* \"#utility.yul\":3740:3803   */\ntag_120:\n    /* \"#utility.yul\":3687:3809   */\n  pop\n  jump\t// out\n    /* \"#utility.yul\":3815:3958   */\ntag_58:\n    /* \"#utility.yul\":3872:3877   */\n  0x00\n    /* \"#utility.yul\":3903:3909   */\n  dup2\n    /* \"#utility.yul\":3897:3910   */\n  mload\n    /* \"#utility.yul\":3888:3910   */\n  swap1\n  pop\n    /* \"#utility.yul\":3919:3952   */\n  tag_122\n    /* \"#utility.yul\":3946:3951   */\n  dup2\n    /* \"#utility.yul\":3919:3952   */\n  tag_57\n  jump\t// in\ntag_122:\n    /* \"#utility.yul\":3815:3958   */\n  swap3\n  swap2\n  pop\n  pop\n  jump\t// out\n    /* \"#utility.yul\":3981:4713   */\ntag_59:\n    /* \"#utility.yul\":4088:4093   */\n  0x00\n    /* \"#utility.yul\":4113:4194   */\n  tag_124\n    /* \"#utility.yul\":4129:4193   */\n  tag_125\n    /* \"#utility.yul\":4186:4192   */\n  dup5\n    /* \"#utility.yul\":4129:4193   */\n  tag_55\n  jump\t// in\ntag_125:\n    /* \"#utility.yul\":4113:4194   */\n  tag_46\n  jump\t// in\ntag_124:\n    /* \"#utility.yul\":4104:4194   */\n  swap1\n  pop\n    /* \"#utility.yul\":4214:4219   */\n  dup1\n    /* \"#utility.yul\":4243:4249   */\n  dup4\n    /* \"#utility.yul\":4236:4241   */\n  dup3\n    /* \"#utility.yul\":4229:4250   */\n  mstore\n    /* \"#utility.yul\":4277:4281   */\n  0x20\n    /* \"#utility.yul\":4270:4275   */\n  dup3\n    /* \"#utility.yul\":4266:4282   */\n  add\n    /* \"#utility.yul\":4259:4282   */\n  swap1\n  pop\n    /* \"#utility.yul\":4330:4334   */\n  0x20\n    /* \"#utility.yul\":4322:4328   */\n  dup5\n    /* \"#utility.yul\":4318:4335   */\n  mul\n    /* \"#utility.yul\":4310:4316   */\n  dup4\n    /* \"#utility.yul\":4306:4336   */\n  add\n    /* \"#utility.yul\":4359:4362   */\n  dup6\n    /* \"#utility.yul\":4351:4357   */\n  dup2\n    /* \"#utility.yul\":4348:4363   */\n  gt\n    /* \"#utility.yul\":4345:4467   */\n  iszero\n  tag_126\n  jumpi\n    /* \"#utility.yul\":4378:4457   */\n  tag_127\n  tag_48\n  jump\t// in\ntag_127:\n    /* \"#utility.yul\":4345:4467   */\ntag_126:\n    /* \"#utility.yul\":4493:4499   */\n  dup4\n    /* \"#utility.yul\":4476:4707   */\ntag_128:\n    /* \"#utility.yul\":4510:4516   */\n  dup2\n    /* \"#utility.yul\":4505:4508   */\n  dup2\n    /* \"#utility.yul\":4502:4517   */\n  lt\n    /* \"#utility.yul\":4476:4707   */\n  iszero\n  tag_130\n  jumpi\n    /* \"#utility.yul\":4585:4588   */\n  dup1\n    /* \"#utility.yul\":4614:4662   */\n  tag_131\n    /* \"#utility.yul\":4658:4661   */\n  dup9\n    /* \"#utility.yul\":4646:4656   */\n  dup3\n    /* \"#utility.yul\":4614:4662   */\n  tag_58\n  jump\t// in\ntag_131:\n    /* \"#utility.yul\":4609:4612   */\n  dup5\n    /* \"#utility.yul\":4602:4663   */\n  mstore\n    /* \"#utility.yul\":4692:4696   */\n  0x20\n    /* \"#utility.yul\":4687:4690   */\n  dup5\n    /* \"#utility.yul\":4683:4697   */\n  add\n    /* \"#utility.yul\":4676:4697   */\n  swap4\n  pop\n    /* \"#utility.yul\":4552:4707   */\n  pop\n    /* \"#utility.yul\":4536:4540   */\n  0x20\n    /* \"#utility.yul\":4531:4534   */\n  dup2\n    /* \"#utility.yul\":4527:4541   */\n  add\n    /* \"#utility.yul\":4520:4541   */\n  swap1\n  pop\n    /* \"#utility.yul\":4476:4707   */\n  jump(tag_128)\ntag_130:\n    /* \"#utility.yul\":4480:4501   */\n  pop\n    /* \"#utility.yul\":4094:4713   */\n  pop\n  pop\n    /* \"#utility.yul\":3981:4713   */\n  swap4\n  swap3\n  pop\n  pop\n  pop\n  jump\t// out\n    /* \"#utility.yul\":4736:5121   */\ntag_60:\n    /* \"#utility.yul\":4818:4823   */\n  0x00\n    /* \"#utility.yul\":4867:4870   */\n  dup3\n    /* \"#utility.yul\":4860:4864   */\n  0x1f\n    /* \"#utility.yul\":4852:4858   */\n  dup4\n    /* \"#utility.yul\":4848:4865   */\n  add\n    /* \"#utility.yul\":4844:4871   */\n  slt\n    /* \"#utility.yul\":4834:4956   */\n  tag_133\n  jumpi\n    /* \"#utility.yul\":4875:4954   */\n  tag_134\n  tag_42\n  jump\t// in\ntag_134:\n    /* \"#utility.yul\":4834:4956   */\ntag_133:\n    /* \"#utility.yul\":4985:4991   */\n  dup2\n    /* \"#utility.yul\":4979:4992   */\n  mload\n    /* \"#utility.yul\":5010:5115   */\n  tag_135\n    /* \"#utility.yul\":5111:5114   */\n  dup5\n    /* \"#utility.yul\":5103:5109   */\n  dup3\n    /* \"#utility.yul\":5096:5100   */\n  0x20\n    /* \"#utility.yul\":5088:5094   */\n  dup7\n    /* \"#utility.yul\":5084:5101   */\n  add\n    /* \"#utility.yul\":5010:5115   */\n  tag_59\n  jump\t// in\ntag_135:\n    /* \"#utility.yul\":5001:5115   */\n  swap2\n  pop\n    /* \"#utility.yul\":4824:5121   */\n  pop\n    /* \"#utility.yul\":4736:5121   */\n  swap3\n  swap2\n  pop\n  pop\n  jump\t// out\n    /* \"#utility.yul\":5127:6040   */\ntag_2:\n    /* \"#utility.yul\":5256:5262   */\n  0x00\n    /* \"#utility.yul\":5264:5270   */\n  dup1\n    /* \"#utility.yul\":5313:5315   */\n  0x40\n    /* \"#utility.yul\":5301:5310   */\n  dup4\n    /* \"#utility.yul\":5292:5299   */\n  dup6\n    /* \"#utility.yul\":5288:5311   */\n  sub\n    /* \"#utility.yul\":5284:5316   */\n  slt\n    /* \"#utility.yul\":5281:5400   */\n  iszero\n  tag_137\n  jumpi\n    /* \"#utility.yul\":5319:5398   */\n  tag_138\n  tag_40\n  jump\t// in\ntag_138:\n    /* \"#utility.yul\":5281:5400   */\ntag_137:\n    /* \"#utility.yul\":5460:5461   */\n  0x00\n    /* \"#utility.yul\":5449:5458   */\n  dup4\n    /* \"#utility.yul\":5445:5462   */\n  add\n    /* \"#utility.yul\":5439:5463   */\n  mload\n    /* \"#utility.yul\":5490:5508   */\n  0xffffffffffffffff\n    /* \"#utility.yul\":5482:5488   */\n  dup2\n    /* \"#utility.yul\":5479:5509   */\n  gt\n    /* \"#utility.yul\":5476:5593   */\n  iszero\n  tag_139\n  jumpi\n    /* \"#utility.yul\":5512:5591   */\n  tag_140\n  tag_41\n  jump\t// in\ntag_140:\n    /* \"#utility.yul\":5476:5593   */\ntag_139:\n    /* \"#utility.yul\":5617:5706   */\n  tag_141\n    /* \"#utility.yul\":5698:5705   */\n  dup6\n    /* \"#utility.yul\":5689:5695   */\n  dup3\n    /* \"#utility.yul\":5678:5687   */\n  dup7\n    /* \"#utility.yul\":5674:5696   */\n  add\n    /* \"#utility.yul\":5617:5706   */\n  tag_54\n  jump\t// in\ntag_141:\n    /* \"#utility.yul\":5607:5706   */\n  swap3\n  pop\n    /* \"#utility.yul\":5410:5716   */\n  pop\n    /* \"#utility.yul\":5776:5778   */\n  0x20\n    /* \"#utility.yul\":5765:5774   */\n  dup4\n    /* \"#utility.yul\":5761:5779   */\n  add\n    /* \"#utility.yul\":5755:5780   */\n  mload\n    /* \"#utility.yul\":5807:5825   */\n  0xffffffffffffffff\n    /* \"#utility.yul\":5799:5805   */\n  dup2\n    /* \"#utility.yul\":5796:5826   */\n  gt\n    /* \"#utility.yul\":5793:5910   */\n  iszero\n  tag_142\n  jumpi\n    /* \"#utility.yul\":5829:5908   */\n  tag_143\n  tag_41\n  jump\t// in\ntag_143:\n    /* \"#utility.yul\":5793:5910   */\ntag_142:\n    /* \"#utility.yul\":5934:6023   */\n  tag_144\n    /* \"#utility.yul\":6015:6022   */\n  dup6\n    /* \"#utility.yul\":6006:6012   */\n  dup3\n    /* \"#utility.yul\":5995:6004   */\n  dup7\n    /* \"#utility.yul\":5991:6013   */\n  add\n    /* \"#utility.yul\":5934:6023   */\n  tag_60\n  jump\t// in\ntag_144:\n    /* \"#utility.yul\":5924:6023   */\n  swap2\n  pop\n    /* \"#utility.yul\":5726:6033   */\n  pop\n    /* \"#utility.yul\":5127:6040   */\n  swap3\n  pop\n  swap3\n  swap1\n  pop\n  jump\t// out\n    /* \"#utility.yul\":6046:6215   */\ntag_61:\n    /* \"#utility.yul\":6130:6141   */\n  0x00\n    /* \"#utility.yul\":6164:6170   */\n  dup3\n    /* \"#utility.yul\":6159:6162   */\n  dup3\n    /* \"#utility.yul\":6152:6171   */\n  mstore\n    /* \"#utility.yul\":6204:6208   */\n  0x20\n    /* \"#utility.yul\":6199:6202   */\n  dup3\n    /* \"#utility.yul\":6195:6209   */\n  add\n    /* \"#utility.yul\":6180:6209   */\n  swap1\n  pop\n    /* \"#utility.yul\":6046:6215   */\n  swap3\n  swap2\n  pop\n  pop\n  jump\t// out\n    /* \"#utility.yul\":6221:6458   */\ntag_62:\n    /* \"#utility.yul\":6361:6395   */\n  0x5061796d656e7453706c69747465723a2070617965657320616e642073686172\n    /* \"#utility.yul\":6357:6358   */\n  0x00\n    /* \"#utility.yul\":6349:6355   */\n  dup3\n    /* \"#utility.yul\":6345:6359   */\n  add\n    /* \"#utility.yul\":6338:6396   */\n  mstore\n    /* \"#utility.yul\":6430:6450   */\n  0x6573206c656e677468206d69736d617463680000000000000000000000000000\n    /* \"#utility.yul\":6425:6427   */\n  0x20\n    /* \"#utility.yul\":6417:6423   */\n  dup3\n    /* \"#utility.yul\":6413:6428   */\n  add\n    /* \"#utility.yul\":6406:6451   */\n  mstore\n    /* \"#utility.yul\":6221:6458   */\n  pop\n  jump\t// out\n    /* \"#utility.yul\":6464:6830   */\ntag_63:\n    /* \"#utility.yul\":6606:6609   */\n  0x00\n    /* \"#utility.yul\":6627:6694   */\n  tag_148\n    /* \"#utility.yul\":6691:6693   */\n  0x32\n    /* \"#utility.yul\":6686:6689   */\n  dup4\n    /* \"#utility.yul\":6627:6694   */\n  tag_61\n  jump\t// in\ntag_148:\n    /* \"#utility.yul\":6620:6694   */\n  swap2\n  pop\n    /* \"#utility.yul\":6703:6796   */\n  tag_149\n    /* \"#utility.yul\":6792:6795   */\n  dup3\n    /* \"#utility.yul\":6703:6796   */\n  tag_62\n  jump\t// in\ntag_149:\n    /* \"#utility.yul\":6821:6823   */\n  0x40\n    /* \"#utility.yul\":6816:6819   */\n  dup3\n    /* \"#utility.yul\":6812:6824   */\n  add\n    /* \"#utility.yul\":6805:6824   */\n  swap1\n  pop\n    /* \"#utility.yul\":6464:6830   */\n  swap2\n  swap1\n  pop\n  jump\t// out\n    /* \"#utility.yul\":6836:7255   */\ntag_7:\n    /* \"#utility.yul\":7002:7006   */\n  0x00\n    /* \"#utility.yul\":7040:7042   */\n  0x20\n    /* \"#utility.yul\":7029:7038   */\n  dup3\n    /* \"#utility.yul\":7025:7043   */\n  add\n    /* \"#utility.yul\":7017:7043   */\n  swap1\n  pop\n    /* \"#utility.yul\":7089:7098   */\n  dup2\n    /* \"#utility.yul\":7083:7087   */\n  dup2\n    /* \"#utility.yul\":7079:7099   */\n  sub\n    /* \"#utility.yul\":7075:7076   */\n  0x00\n    /* \"#utility.yul\":7064:7073   */\n  dup4\n    /* \"#utility.yul\":7060:7077   */\n  add\n    /* \"#utility.yul\":7053:7100   */\n  mstore\n    /* \"#utility.yul\":7117:7248   */\n  tag_151\n    /* \"#utility.yul\":7243:7247   */\n  dup2\n    /* \"#utility.yul\":7117:7248   */\n  tag_63\n  jump\t// in\ntag_151:\n    /* \"#utility.yul\":7109:7248   */\n  swap1\n  pop\n    /* \"#utility.yul\":6836:7255   */\n  swap2\n  swap1\n  pop\n  jump\t// out\n    /* \"#utility.yul\":7261:7437   */\ntag_64:\n    /* \"#utility.yul\":7401:7429   */\n  0x5061796d656e7453706c69747465723a206e6f20706179656573000000000000\n    /* \"#utility.yul\":7397:7398   */\n  0x00\n    /* \"#utility.yul\":7389:7395   */\n  dup3\n    /* \"#utility.yul\":7385:7399   */\n  add\n    /* \"#utility.yul\":7378:7430   */\n  mstore\n    /* \"#utility.yul\":7261:7437   */\n  pop\n  jump\t// out\n    /* \"#utility.yul\":7443:7809   */\ntag_65:\n    /* \"#utility.yul\":7585:7588   */\n  0x00\n    /* \"#utility.yul\":7606:7673   */\n  tag_154\n    /* \"#utility.yul\":7670:7672   */\n  0x1a\n    /* \"#utility.yul\":7665:7668   */\n  dup4\n    /* \"#utility.yul\":7606:7673   */\n  tag_61\n  jump\t// in\ntag_154:\n    /* \"#utility.yul\":7599:7673   */\n  swap2\n  pop\n    /* \"#utility.yul\":7682:7775   */\n  tag_155\n    /* \"#utility.yul\":7771:7774   */\n  dup3\n    /* \"#utility.yul\":7682:7775   */\n  tag_64\n  jump\t// in\ntag_155:\n    /* \"#utility.yul\":7800:7802   */\n  0x20\n    /* \"#utility.yul\":7795:7798   */\n  dup3\n    /* \"#utility.yul\":7791:7803   */\n  add\n    /* \"#utility.yul\":7784:7803   */\n  swap1\n  pop\n    /* \"#utility.yul\":7443:7809   */\n  swap2\n  swap1\n  pop\n  jump\t// out\n    /* \"#utility.yul\":7815:8234   */\ntag_10:\n    /* \"#utility.yul\":7981:7985   */\n  0x00\n    /* \"#utility.yul\":8019:8021   */\n  0x20\n    /* \"#utility.yul\":8008:8017   */\n  dup3\n    /* \"#utility.yul\":8004:8022   */\n  add\n    /* \"#utility.yul\":7996:8022   */\n  swap1\n  pop\n    /* \"#utility.yul\":8068:8077   */\n  dup2\n    /* \"#utility.yul\":8062:8066   */\n  dup2\n    /* \"#utility.yul\":8058:8078   */\n  sub\n    /* \"#utility.yul\":8054:8055   */\n  0x00\n    /* \"#utility.yul\":8043:8052   */\n  dup4\n    /* \"#utility.yul\":8039:8056   */\n  add\n    /* \"#utility.yul\":8032:8079   */\n  mstore\n    /* \"#utility.yul\":8096:8227   */\n  tag_157\n    /* \"#utility.yul\":8222:8226   */\n  dup2\n    /* \"#utility.yul\":8096:8227   */\n  tag_65\n  jump\t// in\ntag_157:\n    /* \"#utility.yul\":8088:8227   */\n  swap1\n  pop\n    /* \"#utility.yul\":7815:8234   */\n  swap2\n  swap1\n  pop\n  jump\t// out\n    /* \"#utility.yul\":8240:8420   */\ntag_17:\n    /* \"#utility.yul\":8288:8365   */\n  0x4e487b7100000000000000000000000000000000000000000000000000000000\n    /* \"#utility.yul\":8285:8286   */\n  0x00\n    /* \"#utility.yul\":8278:8366   */\n  mstore\n    /* \"#utility.yul\":8385:8389   */\n  0x32\n    /* \"#utility.yul\":8382:8383   */\n  0x04\n    /* \"#utility.yul\":8375:8390   */\n  mstore\n    /* \"#utility.yul\":8409:8413   */\n  0x24\n    /* \"#utility.yul\":8406:8407   */\n  0x00\n    /* \"#utility.yul\":8399:8414   */\n  revert\n    /* \"#utility.yul\":8426:8606   */\ntag_66:\n    /* \"#utility.yul\":8474:8551   */\n  0x4e487b7100000000000000000000000000000000000000000000000000000000\n    /* \"#utility.yul\":8471:8472   */\n  0x00\n    /* \"#utility.yul\":8464:8552   */\n  mstore\n    /* \"#utility.yul\":8571:8575   */\n  0x11\n    /* \"#utility.yul\":8568:8569   */\n  0x04\n    /* \"#utility.yul\":8561:8576   */\n  mstore\n    /* \"#utility.yul\":8595:8599   */\n  0x24\n    /* \"#utility.yul\":8592:8593   */\n  0x00\n    /* \"#utility.yul\":8585:8600   */\n  revert\n    /* \"#utility.yul\":8612:8845   */\ntag_22:\n    /* \"#utility.yul\":8651:8654   */\n  0x00\n    /* \"#utility.yul\":8674:8698   */\n  tag_161\n    /* \"#utility.yul\":8692:8697   */\n  dup3\n    /* \"#utility.yul\":8674:8698   */\n  tag_56\n  jump\t// in\ntag_161:\n    /* \"#utility.yul\":8665:8698   */\n  swap2\n  pop\n    /* \"#utility.yul\":8720:8786   */\n  0xffffffffffffffffffffffffffffffffffffffffffffffffffffffffffffffff\n    /* \"#utility.yul\":8713:8718   */\n  dup3\n    /* \"#utility.yul\":8710:8787   */\n  sub\n    /* \"#utility.yul\":8707:8810   */\n  tag_162\n  jumpi\n    /* \"#utility.yul\":8790:8808   */\n  tag_163\n  tag_66\n  jump\t// in\ntag_163:\n    /* \"#utility.yul\":8707:8810   */\ntag_162:\n    /* \"#utility.yul\":8837:8838   */\n  0x01\n    /* \"#utility.yul\":8830:8835   */\n  dup3\n    /* \"#utility.yul\":8826:8839   */\n  add\n    /* \"#utility.yul\":8819:8839   */\n  swap1\n  pop\n    /* \"#utility.yul\":8612:8845   */\n  swap2\n  swap1\n  pop\n  jump\t// out\n    /* \"#utility.yul\":8851:9082   */\ntag_67:\n    /* \"#utility.yul\":8991:9025   */\n  0x5061796d656e7453706c69747465723a206163636f756e742069732074686520\n    /* \"#utility.yul\":8987:8988   */\n  0x00\n    /* \"#utility.yul\":8979:8985   */\n  dup3\n    /* \"#utility.yul\":8975:8989   */\n  add\n    /* \"#utility.yul\":8968:9026   */\n  mstore\n    /* \"#utility.yul\":9060:9074   */\n  0x7a65726f20616464726573730000000000000000000000000000000000000000\n    /* \"#utility.yul\":9055:9057   */\n  0x20\n    /* \"#utility.yul\":9047:9053   */\n  dup3\n    /* \"#utility.yul\":9043:9058   */\n  add\n    /* \"#utility.yul\":9036:9075   */\n  mstore\n    /* \"#utility.yul\":8851:9082   */\n  pop\n  jump\t// out\n    /* \"#utility.yul\":9088:9454   */\ntag_68:\n    /* \"#utility.yul\":9230:9233   */\n  0x00\n    /* \"#utility.yul\":9251:9318   */\n  tag_166\n    /* \"#utility.yul\":9315:9317   */\n  0x2c\n    /* \"#utility.yul\":9310:9313   */\n  dup4\n    /* \"#utility.yul\":9251:9318   */\n  tag_61\n  jump\t// in\ntag_166:\n    /* \"#utility.yul\":9244:9318   */\n  swap2\n  pop\n    /* \"#utility.yul\":9327:9420   */\n  tag_167\n    /* \"#utility.yul\":9416:9419   */\n  dup3\n    /* \"#utility.yul\":9327:9420   */\n  tag_67\n  jump\t// in\ntag_167:\n    /* \"#utility.yul\":9445:9447   */\n  0x40\n    /* \"#utility.yul\":9440:9443   */\n  dup3\n    /* \"#utility.yul\":9436:9448   */\n  add\n    /* \"#utility.yul\":9429:9448   */\n  swap1\n  pop\n    /* \"#utility.yul\":9088:9454   */\n  swap2\n  swap1\n  pop\n  jump\t// out\n    /* \"#utility.yul\":9460:9879   */\ntag_27:\n    /* \"#utility.yul\":9626:9630   */\n  0x00\n    /* \"#utility.yul\":9664:9666   */\n  0x20\n    /* \"#utility.yul\":9653:9662   */\n  dup3\n    /* \"#utility.yul\":9649:9667   */\n  add\n    /* \"#utility.yul\":9641:9667   */\n  swap1\n  pop\n    /* \"#utility.yul\":9713:9722   */\n  dup2\n    /* \"#utility.yul\":9707:9711   */\n  dup2\n    /* \"#utility.yul\":9703:9723   */\n  sub\n    /* \"#utility.yul\":9699:9700   */\n  0x00\n    /* \"#utility.yul\":9688:9697   */\n  dup4\n    /* \"#utility.yul\":9684:9701   */\n  add\n    /* \"#utility.yul\":9677:9724   */\n  mstore\n    /* \"#utility.yul\":9741:9872   */\n  tag_169\n    /* \"#utility.yul\":9867:9871   */\n  dup2\n    /* \"#utility.yul\":9741:9872   */\n  tag_68\n  jump\t// in\ntag_169:\n    /* \"#utility.yul\":9733:9872   */\n  swap1\n  pop\n    /* \"#utility.yul\":9460:9879   */\n  swap2\n  swap1\n  pop\n  jump\t// out\n    /* \"#utility.yul\":9885:10064   */\ntag_69:\n    /* \"#utility.yul\":10025:10056   */\n  0x5061796d656e7453706c69747465723a20736861726573206172652030000000\n    /* \"#utility.yul\":10021:10022   */\n  0x00\n    /* \"#utility.yul\":10013:10019   */\n  dup3\n    /* \"#utility.yul\":10009:10023   */\n  add\n    /* \"#utility.yul\":10002:10057   */\n  mstore\n    /* \"#utility.yul\":9885:10064   */\n  pop\n  jump\t// out\n    /* \"#utility.yul\":10070:10436   */\ntag_70:\n    /* \"#utility.yul\":10212:10215   */\n  0x00\n    /* \"#utility.yul\":10233:10300   */\n  tag_172\n    /* \"#utility.yul\":10297:10299   */\n  0x1d\n    /* \"#utility.yul\":10292:10295   */\n  dup4\n    /* \"#utility.yul\":10233:10300   */\n  tag_61\n  jump\t// in\ntag_172:\n    /* \"#utility.yul\":10226:10300   */\n  swap2\n  pop\n    /* \"#utility.yul\":10309:10402   */\n  tag_173\n    /* \"#utility.yul\":10398:10401   */\n  dup3\n    /* \"#utility.yul\":10309:10402   */\n  tag_69\n  jump\t// in\ntag_173:\n    /* \"#utility.yul\":10427:10429   */\n  0x20\n    /* \"#utility.yul\":10422:10425   */\n  dup3\n    /* \"#utility.yul\":10418:10430   */\n  add\n    /* \"#utility.yul\":10411:10430   */\n  swap1\n  pop\n    /* \"#utility.yul\":10070:10436   */\n  swap2\n  swap1\n  pop\n  jump\t// out\n    /* \"#utility.yul\":10442:10861   */\ntag_30:\n    /* \"#utility.yul\":10608:10612   */\n  0x00\n    /* \"#utility.yul\":10646:10648   */\n  0x20\n    /* \"#utility.yul\":10635:10644   */\n  dup3\n    /* \"#utility.yul\":10631:10649   */\n  add\n    /* \"#utility.yul\":10623:10649   */\n  swap1\n  pop\n    /* \"#utility.yul\":10695:10704   */\n  dup2\n    /* \"#utility.yul\":10689:10693   */\n  dup2\n    /* \"#utility.yul\":10685:10705   */\n  sub\n    /* \"#utility.yul\":10681:10682   */\n  0x00\n    /* \"#utility.yul\":10670:10679   */\n  dup4\n    /* \"#utility.yul\":10666:10683   */\n  add\n    /* \"#utility.yul\":10659:10706   */\n  mstore\n    /* \"#utility.yul\":10723:10854   */\n  tag_175\n    /* \"#utility.yul\":10849:10853   */\n  dup2\n    /* \"#utility.yul\":10723:10854   */\n  tag_70\n  jump\t// in\ntag_175:\n    /* \"#utility.yul\":10715:10854   */\n  swap1\n  pop\n    /* \"#utility.yul\":10442:10861   */\n  swap2\n  swap1\n  pop\n  jump\t// out\n    /* \"#utility.yul\":10867:11097   */\ntag_71:\n    /* \"#utility.yul\":11007:11041   */\n  0x5061796d656e7453706c69747465723a206163636f756e7420616c7265616479\n    /* \"#utility.yul\":11003:11004   */\n  0x00\n    /* \"#utility.yul\":10995:11001   */\n  dup3\n    /* \"#utility.yul\":10991:11005   */\n  add\n    /* \"#utility.yul\":10984:11042   */\n  mstore\n    /* \"#utility.yul\":11076:11089   */\n  0x2068617320736861726573000000000000000000000000000000000000000000\n    /* \"#utility.yul\":11071:11073   */\n  0x20\n    /* \"#utility.yul\":11063:11069   */\n  dup3\n    /* \"#utility.yul\":11059:11074   */\n  add\n    /* \"#utility.yul\":11052:11090   */\n  mstore\n    /* \"#utility.yul\":10867:11097   */\n  pop\n  jump\t// out\n    /* \"#utility.yul\":11103:11469   */\ntag_72:\n    /* \"#utility.yul\":11245:11248   */\n  0x00\n    /* \"#utility.yul\":11266:11333   */\n  tag_178\n    /* \"#utility.yul\":11330:11332   */\n  0x2b\n    /* \"#utility.yul\":11325:11328   */\n  dup4\n    /* \"#utility.yul\":11266:11333   */\n  tag_61\n  jump\t// in\ntag_178:\n    /* \"#utility.yul\":11259:11333   */\n  swap2\n  pop\n    /* \"#utility.yul\":11342:11435   */\n  tag_179\n    /* \"#utility.yul\":11431:11434   */\n  dup3\n    /* \"#utility.yul\":11342:11435   */\n  tag_71\n  jump\t// in\ntag_179:\n    /* \"#utility.yul\":11460:11462   */\n  0x40\n    /* \"#utility.yul\":11455:11458   */\n  dup3\n    /* \"#utility.yul\":11451:11463   */\n  add\n    /* \"#utility.yul\":11444:11463   */\n  swap1\n  pop\n    /* \"#utility.yul\":11103:11469   */\n  swap2\n  swap1\n  pop\n  jump\t// out\n    /* \"#utility.yul\":11475:11894   */\ntag_33:\n    /* \"#utility.yul\":11641:11645   */\n  0x00\n    /* \"#utility.yul\":11679:11681   */\n  0x20\n    /* \"#utility.yul\":11668:11677   */\n  dup3\n    /* \"#utility.yul\":11664:11682   */\n  add\n    /* \"#utility.yul\":11656:11682   */\n  swap1\n  pop\n    /* \"#utility.yul\":11728:11737   */\n  dup2\n    /* \"#utility.yul\":11722:11726   */\n  dup2\n    /* \"#utility.yul\":11718:11738   */\n  sub\n    /* \"#utility.yul\":11714:11715   */\n  0x00\n    /* \"#utility.yul\":11703:11712   */\n  dup4\n    /* \"#utility.yul\":11699:11716   */\n  add\n    /* \"#utility.yul\":11692:11739   */\n  mstore\n    /* \"#utility.yul\":11756:11887   */\n  tag_181\n    /* \"#utility.yul\":11882:11886   */\n  dup2\n    /* \"#utility.yul\":11756:11887   */\n  tag_72\n  jump\t// in\ntag_181:\n    /* \"#utility.yul\":11748:11887   */\n  swap1\n  pop\n    /* \"#utility.yul\":11475:11894   */\n  swap2\n  swap1\n  pop\n  jump\t// out\n    /* \"#utility.yul\":11900:12205   */\ntag_36:\n    /* \"#utility.yul\":11940:11943   */\n  0x00\n    /* \"#utility.yul\":11959:11979   */\n  tag_183\n    /* \"#utility.yul\":11977:11978   */\n  dup3\n    /* \"#utility.yul\":11959:11979   */\n  tag_56\n  jump\t// in\ntag_183:\n    /* \"#utility.yul\":11954:11979   */\n  swap2\n  pop\n    /* \"#utility.yul\":11993:12013   */\n  tag_184\n    /* \"#utility.yul\":12011:12012   */\n  dup4\n    /* \"#utility.yul\":11993:12013   */\n  tag_56\n  jump\t// in\ntag_184:\n    /* \"#utility.yul\":11988:12013   */\n  swap3\n  pop\n    /* \"#utility.yul\":12147:12148   */\n  dup3\n    /* \"#utility.yul\":12079:12145   */\n  0xffffffffffffffffffffffffffffffffffffffffffffffffffffffffffffffff\n    /* \"#utility.yul\":12075:12149   */\n  sub\n    /* \"#utility.yul\":12072:12073   */\n  dup3\n    /* \"#utility.yul\":12069:12150   */\n  gt\n    /* \"#utility.yul\":12066:12173   */\n  iszero\n  tag_185\n  jumpi\n    /* \"#utility.yul\":12153:12171   */\n  tag_186\n  tag_66\n  jump\t// in\ntag_186:\n    /* \"#utility.yul\":12066:12173   */\ntag_185:\n    /* \"#utility.yul\":12197:12198   */\n  dup3\n    /* \"#utility.yul\":12194:12195   */\n  dup3\n    /* \"#utility.yul\":12190:12199   */\n  add\n    /* \"#utility.yul\":12183:12199   */\n  swap1\n  pop\n    /* \"#utility.yul\":11900:12205   */\n  swap3\n  swap2\n  pop\n  pop\n  jump\t// out\n    /* \"#utility.yul\":12211:12329   */\ntag_73:\n    /* \"#utility.yul\":12298:12322   */\n  tag_188\n    /* \"#utility.yul\":12316:12321   */\n  dup2\n    /* \"#utility.yul\":12298:12322   */\n  tag_50\n  jump\t// in\ntag_188:\n    /* \"#utility.yul\":12293:12296   */\n  dup3\n    /* \"#utility.yul\":12286:12323   */\n  mstore\n    /* \"#utility.yul\":12211:12329   */\n  pop\n  pop\n  jump\t// out\n    /* \"#utility.yul\":12335:12453   */\ntag_74:\n    /* \"#utility.yul\":12422:12446   */\n  tag_190\n    /* \"#utility.yul\":12440:12445   */\n  dup2\n    /* \"#utility.yul\":12422:12446   */\n  tag_56\n  jump\t// in\ntag_190:\n    /* \"#utility.yul\":12417:12420   */\n  dup3\n    /* \"#utility.yul\":12410:12447   */\n  mstore\n    /* \"#utility.yul\":12335:12453   */\n  pop\n  pop\n  jump\t// out\n    /* \"#utility.yul\":12459:12791   */\ntag_38:\n    /* \"#utility.yul\":12580:12584   */\n  0x00\n    /* \"#utility.yul\":12618:12620   */\n  0x40\n    /* \"#utility.yul\":12607:12616   */\n  dup3\n    /* \"#utility.yul\":12603:12621   */\n  add\n    /* \"#utility.yul\":12595:12621   */\n  swap1\n  pop\n    /* \"#utility.yul\":12631:12702   */\n  tag_192\n    /* \"#utility.yul\":12699:12700   */\n  0x00\n    /* \"#utility.yul\":12688:12697   */\n  dup4\n    /* \"#utility.yul\":12684:12701   */\n  add\n    /* \"#utility.yul\":12675:12681   */\n  dup6\n    /* \"#utility.yul\":12631:12702   */\n  tag_73\n  jump\t// in\ntag_192:\n    /* \"#utility.yul\":12712:12784   */\n  tag_193\n    /* \"#utility.yul\":12780:12782   */\n  0x20\n    /* \"#utility.yul\":12769:12778   */\n  dup4\n    /* \"#utility.yul\":12765:12783   */\n  add\n    /* \"#utility.yul\":12756:12762   */\n  dup5\n    /* \"#utility.yul\":12712:12784   */\n  tag_74\n  jump\t// in\ntag_193:\n    /* \"#utility.yul\":12459:12791   */\n  swap4\n  swap3\n  pop\n  pop\n  pop\n  jump\t// out\n    /* \".deps/npm/@openzeppelin/contracts/finance/PaymentSplitter.sol\":1351:7484  contract PaymentSplitter is Context {... */\ntag_23:\n  dataSize(sub_0)\n  dup1\n  dataOffset(sub_0)\n  0x00\n  codecopy\n  0x00\n  return\nstop\n\nsub_0: assembly {\n        /* \".deps/npm/@openzeppelin/contracts/finance/PaymentSplitter.sol\":1351:7484  contract PaymentSplitter is Context {... */\n      mstore(0x40, 0x80)\n      jumpi(tag_1, lt(calldatasize, 0x04))\n      shr(0xe0, calldataload(0x00))\n      dup1\n      0x8b83209b\n      gt\n      tag_12\n      jumpi\n      dup1\n      0x8b83209b\n      eq\n      tag_7\n      jumpi\n      dup1\n      0x9852595c\n      eq\n      tag_8\n      jumpi\n      dup1\n      0xce7c2ac2\n      eq\n      tag_9\n      jumpi\n      dup1\n      0xd79779b2\n      eq\n      tag_10\n      jumpi\n      dup1\n      0xe33b7de3\n      eq\n      tag_11\n      jumpi\n      jump(tag_2)\n    tag_12:\n      dup1\n      0x19165587\n      eq\n      tag_3\n      jumpi\n      dup1\n      0x3a98ef39\n      eq\n      tag_4\n      jumpi\n      dup1\n      0x406072a9\n      eq\n      tag_5\n      jumpi\n      dup1\n      0x48b75044\n      eq\n      tag_6\n      jumpi\n      jump(tag_2)\n    tag_1:\n      jumpi(tag_2, calldatasize)\n        /* \".deps/npm/@openzeppelin/contracts/finance/PaymentSplitter.sol\":3249:3289  PaymentReceived(_msgSender(), msg.value) */\n      0x6ef95f06320e7a25a04a175ca677b7052bdd97131872c2192525a629f51be770\n        /* \".deps/npm/@openzeppelin/contracts/finance/PaymentSplitter.sol\":3265:3277  _msgSender() */\n      tag_15\n        /* \".deps/npm/@openzeppelin/contracts/finance/PaymentSplitter.sol\":3265:3275  _msgSender */\n      tag_16\n        /* \".deps/npm/@openzeppelin/contracts/finance/PaymentSplitter.sol\":3265:3277  _msgSender() */\n      jump\t// in\n    tag_15:\n        /* \".deps/npm/@openzeppelin/contracts/finance/PaymentSplitter.sol\":3279:3288  msg.value */\n      callvalue\n        /* \".deps/npm/@openzeppelin/contracts/finance/PaymentSplitter.sol\":3249:3289  PaymentReceived(_msgSender(), msg.value) */\n      mload(0x40)\n      tag_17\n      swap3\n      swap2\n      swap1\n      tag_18\n      jump\t// in\n    tag_17:\n      mload(0x40)\n      dup1\n      swap2\n      sub\n      swap1\n      log1\n        /* \".deps/npm/@openzeppelin/contracts/finance/PaymentSplitter.sol\":1351:7484  contract PaymentSplitter is Context {... */\n      stop\n    tag_2:\n      0x00\n      dup1\n      revert\n        /* \".deps/npm/@openzeppelin/contracts/finance/PaymentSplitter.sol\":4977:5530  function release(address payable account) public virtual {... */\n    tag_3:\n      callvalue\n      dup1\n      iszero\n      tag_19\n      jumpi\n      0x00\n      dup1\n      revert\n    tag_19:\n      pop\n      tag_20\n      0x04\n      dup1\n      calldatasize\n      sub\n      dup2\n      add\n      swap1\n      tag_21\n      swap2\n      swap1\n      tag_22\n      jump\t// in\n    tag_21:\n      tag_23\n      jump\t// in\n    tag_20:\n      stop\n        /* \".deps/npm/@openzeppelin/contracts/finance/PaymentSplitter.sol\":3374:3463  function totalShares() public view returns (uint256) {... */\n    tag_4:\n      callvalue\n      dup1\n      iszero\n      tag_24\n      jumpi\n      0x00\n      dup1\n      revert\n    tag_24:\n      pop\n      tag_25\n      tag_26\n      jump\t// in\n    tag_25:\n      mload(0x40)\n      tag_27\n      swap2\n      swap1\n      tag_28\n      jump\t// in\n    tag_27:\n      mload(0x40)\n      dup1\n      swap2\n      sub\n      swap1\n      return\n        /* \".deps/npm/@openzeppelin/contracts/finance/PaymentSplitter.sol\":4466:4599  function released(IERC20 token, address account) public view returns (uint256) {... */\n    tag_5:\n      callvalue\n      dup1\n      iszero\n      tag_29\n      jumpi\n      0x00\n      dup1\n      revert\n    tag_29:\n      pop\n      tag_30\n      0x04\n      dup1\n      calldatasize\n      sub\n      dup2\n      add\n      swap1\n      tag_31\n      swap2\n      swap1\n      tag_32\n      jump\t// in\n    tag_31:\n      tag_33\n      jump\t// in\n    tag_30:\n      mload(0x40)\n      tag_34\n      swap2\n      swap1\n      tag_28\n      jump\t// in\n    tag_34:\n      mload(0x40)\n      dup1\n      swap2\n      sub\n      swap1\n      return\n        /* \".deps/npm/@openzeppelin/contracts/finance/PaymentSplitter.sol\":5791:6419  function release(IERC20 token, address account) public virtual {... */\n    tag_6:\n      callvalue\n      dup1\n      iszero\n      tag_35\n      jumpi\n      0x00\n      dup1\n      revert\n    tag_35:\n      pop\n      tag_36\n      0x04\n      dup1\n      calldatasize\n      sub\n      dup2\n      add\n      swap1\n      tag_37\n      swap2\n      swap1\n      tag_32\n      jump\t// in\n    tag_37:\n      tag_38\n      jump\t// in\n    tag_36:\n      stop\n        /* \".deps/npm/@openzeppelin/contracts/finance/PaymentSplitter.sol\":4685:4783  function payee(uint256 index) public view returns (address) {... */\n    tag_7:\n      callvalue\n      dup1\n      iszero\n      tag_39\n      jumpi\n      0x00\n      dup1\n      revert\n    tag_39:\n      pop\n      tag_40\n      0x04\n      dup1\n      calldatasize\n      sub\n      dup2\n      add\n      swap1\n      tag_41\n      swap2\n      swap1\n      tag_42\n      jump\t// in\n    tag_41:\n      tag_43\n      jump\t// in\n    tag_40:\n      mload(0x40)\n      tag_44\n      swap2\n      swap1\n      tag_45\n      jump\t// in\n    tag_44:\n      mload(0x40)\n      dup1\n      swap2\n      sub\n      swap1\n      return\n        /* \".deps/npm/@openzeppelin/contracts/finance/PaymentSplitter.sol\":4196:4303  function released(address account) public view returns (uint256) {... */\n    tag_8:\n      callvalue\n      dup1\n      iszero\n      tag_46\n      jumpi\n      0x00\n      dup1\n      revert\n    tag_46:\n      pop\n      tag_47\n      0x04\n      dup1\n      calldatasize\n      sub\n      dup2\n      add\n      swap1\n      tag_48\n      swap2\n      swap1\n      tag_49\n      jump\t// in\n    tag_48:\n      tag_50\n      jump\t// in\n    tag_47:\n      mload(0x40)\n      tag_51\n      swap2\n      swap1\n      tag_28\n      jump\t// in\n    tag_51:\n      mload(0x40)\n      dup1\n      swap2\n      sub\n      swap1\n      return\n        /* \".deps/npm/@openzeppelin/contracts/finance/PaymentSplitter.sol\":3999:4102  function shares(address account) public view returns (uint256) {... */\n    tag_9:\n      callvalue\n      dup1\n      iszero\n      tag_52\n      jumpi\n      0x00\n      dup1\n      revert\n    tag_52:\n      pop\n      tag_53\n      0x04\n      dup1\n      calldatasize\n      sub\n      dup2\n      add\n      swap1\n      tag_54\n      swap2\n      swap1\n      tag_49\n      jump\t// in\n    tag_54:\n      tag_55\n      jump\t// in\n    tag_53:\n      mload(0x40)\n      tag_56\n      swap2\n      swap1\n      tag_28\n      jump\t// in\n    tag_56:\n      mload(0x40)\n      dup1\n      swap2\n      sub\n      swap1\n      return\n        /* \".deps/npm/@openzeppelin/contracts/finance/PaymentSplitter.sol\":3796:3913  function totalReleased(IERC20 token) public view returns (uint256) {... */\n    tag_10:\n      callvalue\n      dup1\n      iszero\n      tag_57\n      jumpi\n      0x00\n      dup1\n      revert\n    tag_57:\n      pop\n      tag_58\n      0x04\n      dup1\n      calldatasize\n      sub\n      dup2\n      add\n      swap1\n      tag_59\n      swap2\n      swap1\n      tag_60\n      jump\t// in\n    tag_59:\n      tag_61\n      jump\t// in\n    tag_58:\n      mload(0x40)\n      tag_62\n      swap2\n      swap1\n      tag_28\n      jump\t// in\n    tag_62:\n      mload(0x40)\n      dup1\n      swap2\n      sub\n      swap1\n      return\n        /* \".deps/npm/@openzeppelin/contracts/finance/PaymentSplitter.sol\":3552:3645  function totalReleased() public view returns (uint256) {... */\n    tag_11:\n      callvalue\n      dup1\n      iszero\n      tag_63\n      jumpi\n      0x00\n      dup1\n      revert\n    tag_63:\n      pop\n      tag_64\n      tag_65\n      jump\t// in\n    tag_64:\n      mload(0x40)\n      tag_66\n      swap2\n      swap1\n      tag_28\n      jump\t// in\n    tag_66:\n      mload(0x40)\n      dup1\n      swap2\n      sub\n      swap1\n      return\n        /* \".deps/npm/@openzeppelin/contracts/utils/Context.sol\":640:736  function _msgSender() internal view virtual returns (address) {... */\n    tag_16:\n        /* \".deps/npm/@openzeppelin/contracts/utils/Context.sol\":693:700  address */\n      0x00\n        /* \".deps/npm/@openzeppelin/contracts/utils/Context.sol\":719:729  msg.sender */\n      caller\n        /* \".deps/npm/@openzeppelin/contracts/utils/Context.sol\":712:729  return msg.sender */\n      swap1\n      pop\n        /* \".deps/npm/@openzeppelin/contracts/utils/Context.sol\":640:736  function _msgSender() internal view virtual returns (address) {... */\n      swap1\n      jump\t// out\n        /* \".deps/npm/@openzeppelin/contracts/finance/PaymentSplitter.sol\":4977:5530  function release(address payable account) public virtual {... */\n    tag_23:\n        /* \".deps/npm/@openzeppelin/contracts/finance/PaymentSplitter.sol\":5071:5072  0 */\n      0x00\n        /* \".deps/npm/@openzeppelin/contracts/finance/PaymentSplitter.sol\":5052:5059  _shares */\n      0x02\n        /* \".deps/npm/@openzeppelin/contracts/finance/PaymentSplitter.sol\":5052:5068  _shares[account] */\n      0x00\n        /* \".deps/npm/@openzeppelin/contracts/finance/PaymentSplitter.sol\":5060:5067  account */\n      dup4\n        /* \".deps/npm/@openzeppelin/contracts/finance/PaymentSplitter.sol\":5052:5068  _shares[account] */\n      0xffffffffffffffffffffffffffffffffffffffff\n      and\n      0xffffffffffffffffffffffffffffffffffffffff\n      and\n      dup2\n      mstore\n      0x20\n      add\n      swap1\n      dup2\n      mstore\n      0x20\n      add\n      0x00\n      keccak256\n      sload\n        /* \".deps/npm/@openzeppelin/contracts/finance/PaymentSplitter.sol\":5052:5072  _shares[account] > 0 */\n      gt\n        /* \".deps/npm/@openzeppelin/contracts/finance/PaymentSplitter.sol\":5044:5115  require(_shares[account] > 0, \"PaymentSplitter: account has no shares\") */\n      tag_69\n      jumpi\n      mload(0x40)\n      0x08c379a000000000000000000000000000000000000000000000000000000000\n      dup2\n      mstore\n      0x04\n      add\n      tag_70\n      swap1\n      tag_71\n      jump\t// in\n    tag_70:\n      mload(0x40)\n      dup1\n      swap2\n      sub\n      swap1\n      revert\n    tag_69:\n        /* \".deps/npm/@openzeppelin/contracts/finance/PaymentSplitter.sol\":5126:5147  uint256 totalReceived */\n      0x00\n        /* \".deps/npm/@openzeppelin/contracts/finance/PaymentSplitter.sol\":5174:5189  totalReleased() */\n      tag_72\n        /* \".deps/npm/@openzeppelin/contracts/finance/PaymentSplitter.sol\":5174:5187  totalReleased */\n      tag_65\n        /* \".deps/npm/@openzeppelin/contracts/finance/PaymentSplitter.sol\":5174:5189  totalReleased() */\n      jump\t// in\n    tag_72:\n        /* \".deps/npm/@openzeppelin/contracts/finance/PaymentSplitter.sol\":5150:5171  address(this).balance */\n      selfbalance\n        /* \".deps/npm/@openzeppelin/contracts/finance/PaymentSplitter.sol\":5150:5189  address(this).balance + totalReleased() */\n      tag_73\n      swap2\n      swap1\n      tag_74\n      jump\t// in\n    tag_73:\n        /* \".deps/npm/@openzeppelin/contracts/finance/PaymentSplitter.sol\":5126:5189  uint256 totalReceived = address(this).balance + totalReleased() */\n      swap1\n      pop\n        /* \".deps/npm/@openzeppelin/contracts/finance/PaymentSplitter.sol\":5199:5214  uint256 payment */\n      0x00\n        /* \".deps/npm/@openzeppelin/contracts/finance/PaymentSplitter.sol\":5217:5275  _pendingPayment(account, totalReceived, released(account)) */\n      tag_75\n        /* \".deps/npm/@openzeppelin/contracts/finance/PaymentSplitter.sol\":5233:5240  account */\n      dup4\n        /* \".deps/npm/@openzeppelin/contracts/finance/PaymentSplitter.sol\":5242:5255  totalReceived */\n      dup4\n        /* \".deps/npm/@openzeppelin/contracts/finance/PaymentSplitter.sol\":5257:5274  released(account) */\n      tag_76\n        /* \".deps/npm/@openzeppelin/contracts/finance/PaymentSplitter.sol\":5266:5273  account */\n      dup7\n        /* \".deps/npm/@openzeppelin/contracts/finance/PaymentSplitter.sol\":5257:5265  released */\n      tag_50\n        /* \".deps/npm/@openzeppelin/contracts/finance/PaymentSplitter.sol\":5257:5274  released(account) */\n      jump\t// in\n    tag_76:\n        /* \".deps/npm/@openzeppelin/contracts/finance/PaymentSplitter.sol\":5217:5232  _pendingPayment */\n      tag_77\n        /* \".deps/npm/@openzeppelin/contracts/finance/PaymentSplitter.sol\":5217:5275  _pendingPayment(account, totalReceived, released(account)) */\n      jump\t// in\n    tag_75:\n        /* \".deps/npm/@openzeppelin/contracts/finance/PaymentSplitter.sol\":5199:5275  uint256 payment = _pendingPayment(account, totalReceived, released(account)) */\n      swap1\n      pop\n        /* \".deps/npm/@openzeppelin/contracts/finance/PaymentSplitter.sol\":5305:5306  0 */\n      0x00\n        /* \".deps/npm/@openzeppelin/contracts/finance/PaymentSplitter.sol\":5294:5301  payment */\n      dup2\n        /* \".deps/npm/@openzeppelin/contracts/finance/PaymentSplitter.sol\":5294:5306  payment != 0 */\n      sub\n        /* \".deps/npm/@openzeppelin/contracts/finance/PaymentSplitter.sol\":5286:5354  require(payment != 0, \"PaymentSplitter: account is not due payment\") */\n      tag_78\n      jumpi\n      mload(0x40)\n      0x08c379a000000000000000000000000000000000000000000000000000000000\n      dup2\n      mstore\n      0x04\n      add\n      tag_79\n      swap1\n      tag_80\n      jump\t// in\n    tag_79:\n      mload(0x40)\n      dup1\n      swap2\n      sub\n      swap1\n      revert\n    tag_78:\n        /* \".deps/npm/@openzeppelin/contracts/finance/PaymentSplitter.sol\":5387:5394  payment */\n      dup1\n        /* \".deps/npm/@openzeppelin/contracts/finance/PaymentSplitter.sol\":5365:5374  _released */\n      0x03\n        /* \".deps/npm/@openzeppelin/contracts/finance/PaymentSplitter.sol\":5365:5383  _released[account] */\n      0x00\n        /* \".deps/npm/@openzeppelin/contracts/finance/PaymentSplitter.sol\":5375:5382  account */\n      dup6\n        /* \".deps/npm/@openzeppelin/contracts/finance/PaymentSplitter.sol\":5365:5383  _released[account] */\n      0xffffffffffffffffffffffffffffffffffffffff\n      and\n      0xffffffffffffffffffffffffffffffffffffffff\n      and\n      dup2\n      mstore\n      0x20\n      add\n      swap1\n      dup2\n      mstore\n      0x20\n      add\n      0x00\n      keccak256\n      0x00\n        /* \".deps/npm/@openzeppelin/contracts/finance/PaymentSplitter.sol\":5365:5394  _released[account] += payment */\n      dup3\n      dup3\n      sload\n      tag_81\n      swap2\n      swap1\n      tag_74\n      jump\t// in\n    tag_81:\n      swap3\n      pop\n      pop\n      dup2\n      swap1\n      sstore\n      pop\n        /* \".deps/npm/@openzeppelin/contracts/finance/PaymentSplitter.sol\":5422:5429  payment */\n      dup1\n        /* \".deps/npm/@openzeppelin/contracts/finance/PaymentSplitter.sol\":5404:5418  _totalReleased */\n      0x01\n      0x00\n        /* \".deps/npm/@openzeppelin/contracts/finance/PaymentSplitter.sol\":5404:5429  _totalReleased += payment */\n      dup3\n      dup3\n      sload\n      tag_82\n      swap2\n      swap1\n      tag_74\n      jump\t// in\n    tag_82:\n      swap3\n      pop\n      pop\n      dup2\n      swap1\n      sstore\n      pop\n        /* \".deps/npm/@openzeppelin/contracts/finance/PaymentSplitter.sol\":5440:5475  Address.sendValue(account, payment) */\n      tag_83\n        /* \".deps/npm/@openzeppelin/contracts/finance/PaymentSplitter.sol\":5458:5465  account */\n      dup4\n        /* \".deps/npm/@openzeppelin/contracts/finance/PaymentSplitter.sol\":5467:5474  payment */\n      dup3\n        /* \".deps/npm/@openzeppelin/contracts/finance/PaymentSplitter.sol\":5440:5457  Address.sendValue */\n      tag_84\n        /* \".deps/npm/@openzeppelin/contracts/finance/PaymentSplitter.sol\":5440:5475  Address.sendValue(account, payment) */\n      jump\t// in\n    tag_83:\n        /* \".deps/npm/@openzeppelin/contracts/finance/PaymentSplitter.sol\":5490:5523  PaymentReleased(account, payment) */\n      0xdf20fd1e76bc69d672e4814fafb2c449bba3a5369d8359adf9e05e6fde87b056\n        /* \".deps/npm/@openzeppelin/contracts/finance/PaymentSplitter.sol\":5506:5513  account */\n      dup4\n        /* \".deps/npm/@openzeppelin/contracts/finance/PaymentSplitter.sol\":5515:5522  payment */\n      dup3\n        /* \".deps/npm/@openzeppelin/contracts/finance/PaymentSplitter.sol\":5490:5523  PaymentReleased(account, payment) */\n      mload(0x40)\n      tag_85\n      swap3\n      swap2\n      swap1\n      tag_86\n      jump\t// in\n    tag_85:\n      mload(0x40)\n      dup1\n      swap2\n      sub\n      swap1\n      log1\n        /* \".deps/npm/@openzeppelin/contracts/finance/PaymentSplitter.sol\":5034:5530  {... */\n      pop\n      pop\n        /* \".deps/npm/@openzeppelin/contracts/finance/PaymentSplitter.sol\":4977:5530  function release(address payable account) public virtual {... */\n      pop\n      jump\t// out\n        /* \".deps/npm/@openzeppelin/contracts/finance/PaymentSplitter.sol\":3374:3463  function totalShares() public view returns (uint256) {... */\n    tag_26:\n        /* \".deps/npm/@openzeppelin/contracts/finance/PaymentSplitter.sol\":3418:3425  uint256 */\n      0x00\n        /* \".deps/npm/@openzeppelin/contracts/finance/PaymentSplitter.sol\":3444:3456  _totalShares */\n      dup1\n      sload\n        /* \".deps/npm/@openzeppelin/contracts/finance/PaymentSplitter.sol\":3437:3456  return _totalShares */\n      swap1\n      pop\n        /* \".deps/npm/@openzeppelin/contracts/finance/PaymentSplitter.sol\":3374:3463  function totalShares() public view returns (uint256) {... */\n      swap1\n      jump\t// out\n        /* \".deps/npm/@openzeppelin/contracts/finance/PaymentSplitter.sol\":4466:4599  function released(IERC20 token, address account) public view returns (uint256) {... */\n    tag_33:\n        /* \".deps/npm/@openzeppelin/contracts/finance/PaymentSplitter.sol\":4536:4543  uint256 */\n      0x00\n        /* \".deps/npm/@openzeppelin/contracts/finance/PaymentSplitter.sol\":4562:4576  _erc20Released */\n      0x06\n        /* \".deps/npm/@openzeppelin/contracts/finance/PaymentSplitter.sol\":4562:4583  _erc20Released[token] */\n      0x00\n        /* \".deps/npm/@openzeppelin/contracts/finance/PaymentSplitter.sol\":4577:4582  token */\n      dup5\n        /* \".deps/npm/@openzeppelin/contracts/finance/PaymentSplitter.sol\":4562:4583  _erc20Released[token] */\n      0xffffffffffffffffffffffffffffffffffffffff\n      and\n      0xffffffffffffffffffffffffffffffffffffffff\n      and\n      dup2\n      mstore\n      0x20\n      add\n      swap1\n      dup2\n      mstore\n      0x20\n      add\n      0x00\n      keccak256\n        /* \".deps/npm/@openzeppelin/contracts/finance/PaymentSplitter.sol\":4562:4592  _erc20Released[token][account] */\n      0x00\n        /* \".deps/npm/@openzeppelin/contracts/finance/PaymentSplitter.sol\":4584:4591  account */\n      dup4\n        /* \".deps/npm/@openzeppelin/contracts/finance/PaymentSplitter.sol\":4562:4592  _erc20Released[token][account] */\n      0xffffffffffffffffffffffffffffffffffffffff\n      and\n      0xffffffffffffffffffffffffffffffffffffffff\n      and\n      dup2\n      mstore\n      0x20\n      add\n      swap1\n      dup2\n      mstore\n      0x20\n      add\n      0x00\n      keccak256\n      sload\n        /* \".deps/npm/@openzeppelin/contracts/finance/PaymentSplitter.sol\":4555:4592  return _erc20Released[token][account] */\n      swap1\n      pop\n        /* \".deps/npm/@openzeppelin/contracts/finance/PaymentSplitter.sol\":4466:4599  function released(IERC20 token, address account) public view returns (uint256) {... */\n      swap3\n      swap2\n      pop\n      pop\n      jump\t// out\n        /* \".deps/npm/@openzeppelin/contracts/finance/PaymentSplitter.sol\":5791:6419  function release(IERC20 token, address account) public virtual {... */\n    tag_38:\n        /* \".deps/npm/@openzeppelin/contracts/finance/PaymentSplitter.sol\":5891:5892  0 */\n      0x00\n        /* \".deps/npm/@openzeppelin/contracts/finance/PaymentSplitter.sol\":5872:5879  _shares */\n      0x02\n        /* \".deps/npm/@openzeppelin/contracts/finance/PaymentSplitter.sol\":5872:5888  _shares[account] */\n      0x00\n        /* \".deps/npm/@openzeppelin/contracts/finance/PaymentSplitter.sol\":5880:5887  account */\n      dup4\n        /* \".deps/npm/@openzeppelin/contracts/finance/PaymentSplitter.sol\":5872:5888  _shares[account] */\n      0xffffffffffffffffffffffffffffffffffffffff\n      and\n      0xffffffffffffffffffffffffffffffffffffffff\n      and\n      dup2\n      mstore\n      0x20\n      add\n      swap1\n      dup2\n      mstore\n      0x20\n      add\n      0x00\n      keccak256\n      sload\n        /* \".deps/npm/@openzeppelin/contracts/finance/PaymentSplitter.sol\":5872:5892  _shares[account] > 0 */\n      gt\n        /* \".deps/npm/@openzeppelin/contracts/finance/PaymentSplitter.sol\":5864:5935  require(_shares[account] > 0, \"PaymentSplitter: account has no shares\") */\n      tag_90\n      jumpi\n      mload(0x40)\n      0x08c379a000000000000000000000000000000000000000000000000000000000\n      dup2\n      mstore\n      0x04\n      add\n      tag_91\n      swap1\n      tag_71\n      jump\t// in\n    tag_91:\n      mload(0x40)\n      dup1\n      swap2\n      sub\n      swap1\n      revert\n    tag_90:\n        /* \".deps/npm/@openzeppelin/contracts/finance/PaymentSplitter.sol\":5946:5967  uint256 totalReceived */\n      0x00\n        /* \".deps/npm/@openzeppelin/contracts/finance/PaymentSplitter.sol\":6003:6023  totalReleased(token) */\n      tag_92\n        /* \".deps/npm/@openzeppelin/contracts/finance/PaymentSplitter.sol\":6017:6022  token */\n      dup4\n        /* \".deps/npm/@openzeppelin/contracts/finance/PaymentSplitter.sol\":6003:6016  totalReleased */\n      tag_61\n        /* \".deps/npm/@openzeppelin/contracts/finance/PaymentSplitter.sol\":6003:6023  totalReleased(token) */\n      jump\t// in\n    tag_92:\n        /* \".deps/npm/@openzeppelin/contracts/finance/PaymentSplitter.sol\":5970:5975  token */\n      dup4\n        /* \".deps/npm/@openzeppelin/contracts/finance/PaymentSplitter.sol\":5970:5985  token.balanceOf */\n      0xffffffffffffffffffffffffffffffffffffffff\n      and\n      0x70a08231\n        /* \".deps/npm/@openzeppelin/contracts/finance/PaymentSplitter.sol\":5994:5998  this */\n      address\n        /* \".deps/npm/@openzeppelin/contracts/finance/PaymentSplitter.sol\":5970:6000  token.balanceOf(address(this)) */\n      mload(0x40)\n      dup3\n      0xffffffff\n      and\n      0xe0\n      shl\n      dup2\n      mstore\n      0x04\n      add\n      tag_93\n      swap2\n      swap1\n      tag_45\n      jump\t// in\n    tag_93:\n      0x20\n      mload(0x40)\n      dup1\n      dup4\n      sub\n      dup2\n      dup7\n      gas\n      staticcall\n      iszero\n      dup1\n      iszero\n      tag_95\n      jumpi\n      returndatasize\n      0x00\n      dup1\n      returndatacopy\n      revert(0x00, returndatasize)\n    tag_95:\n      pop\n      pop\n      pop\n      pop\n      mload(0x40)\n      returndatasize\n      not(0x1f)\n      0x1f\n      dup3\n      add\n      and\n      dup3\n      add\n      dup1\n      0x40\n      mstore\n      pop\n      dup2\n      add\n      swap1\n      tag_96\n      swap2\n      swap1\n      tag_97\n      jump\t// in\n    tag_96:\n        /* \".deps/npm/@openzeppelin/contracts/finance/PaymentSplitter.sol\":5970:6023  token.balanceOf(address(this)) + totalReleased(token) */\n      tag_98\n      swap2\n      swap1\n      tag_74\n      jump\t// in\n    tag_98:\n        /* \".deps/npm/@openzeppelin/contracts/finance/PaymentSplitter.sol\":5946:6023  uint256 totalReceived = token.balanceOf(address(this)) + totalReleased(token) */\n      swap1\n      pop\n        /* \".deps/npm/@openzeppelin/contracts/finance/PaymentSplitter.sol\":6033:6048  uint256 payment */\n      0x00\n        /* \".deps/npm/@openzeppelin/contracts/finance/PaymentSplitter.sol\":6051:6116  _pendingPayment(account, totalReceived, released(token, account)) */\n      tag_99\n        /* \".deps/npm/@openzeppelin/contracts/finance/PaymentSplitter.sol\":6067:6074  account */\n      dup4\n        /* \".deps/npm/@openzeppelin/contracts/finance/PaymentSplitter.sol\":6076:6089  totalReceived */\n      dup4\n        /* \".deps/npm/@openzeppelin/contracts/finance/PaymentSplitter.sol\":6091:6115  released(token, account) */\n      tag_100\n        /* \".deps/npm/@openzeppelin/contracts/finance/PaymentSplitter.sol\":6100:6105  token */\n      dup8\n        /* \".deps/npm/@openzeppelin/contracts/finance/PaymentSplitter.sol\":6107:6114  account */\n      dup8\n        /* \".deps/npm/@openzeppelin/contracts/finance/PaymentSplitter.sol\":6091:6099  released */\n      tag_33\n        /* \".deps/npm/@openzeppelin/contracts/finance/PaymentSplitter.sol\":6091:6115  released(token, account) */\n      jump\t// in\n    tag_100:\n        /* \".deps/npm/@openzeppelin/contracts/finance/PaymentSplitter.sol\":6051:6066  _pendingPayment */\n      tag_77\n        /* \".deps/npm/@openzeppelin/contracts/finance/PaymentSplitter.sol\":6051:6116  _pendingPayment(account, totalReceived, released(token, account)) */\n      jump\t// in\n    tag_99:\n        /* \".deps/npm/@openzeppelin/contracts/finance/PaymentSplitter.sol\":6033:6116  uint256 payment = _pendingPayment(account, totalReceived, released(token, account)) */\n      swap1\n      pop\n        /* \".deps/npm/@openzeppelin/contracts/finance/PaymentSplitter.sol\":6146:6147  0 */\n      0x00\n        /* \".deps/npm/@openzeppelin/contracts/finance/PaymentSplitter.sol\":6135:6142  payment */\n      dup2\n        /* \".deps/npm/@openzeppelin/contracts/finance/PaymentSplitter.sol\":6135:6147  payment != 0 */\n      sub\n        /* \".deps/npm/@openzeppelin/contracts/finance/PaymentSplitter.sol\":6127:6195  require(payment != 0, \"PaymentSplitter: account is not due payment\") */\n      tag_101\n      jumpi\n      mload(0x40)\n      0x08c379a000000000000000000000000000000000000000000000000000000000\n      dup2\n      mstore\n      0x04\n      add\n      tag_102\n      swap1\n      tag_80\n      jump\t// in\n    tag_102:\n      mload(0x40)\n      dup1\n      swap2\n      sub\n      swap1\n      revert\n    tag_101:\n        /* \".deps/npm/@openzeppelin/contracts/finance/PaymentSplitter.sol\":6240:6247  payment */\n      dup1\n        /* \".deps/npm/@openzeppelin/contracts/finance/PaymentSplitter.sol\":6206:6220  _erc20Released */\n      0x06\n        /* \".deps/npm/@openzeppelin/contracts/finance/PaymentSplitter.sol\":6206:6227  _erc20Released[token] */\n      0x00\n        /* \".deps/npm/@openzeppelin/contracts/finance/PaymentSplitter.sol\":6221:6226  token */\n      dup7\n        /* \".deps/npm/@openzeppelin/contracts/finance/PaymentSplitter.sol\":6206:6227  _erc20Released[token] */\n      0xffffffffffffffffffffffffffffffffffffffff\n      and\n      0xffffffffffffffffffffffffffffffffffffffff\n      and\n      dup2\n      mstore\n      0x20\n      add\n      swap1\n      dup2\n      mstore\n      0x20\n      add\n      0x00\n      keccak256\n        /* \".deps/npm/@openzeppelin/contracts/finance/PaymentSplitter.sol\":6206:6236  _erc20Released[token][account] */\n      0x00\n        /* \".deps/npm/@openzeppelin/contracts/finance/PaymentSplitter.sol\":6228:6235  account */\n      dup6\n        /* \".deps/npm/@openzeppelin/contracts/finance/PaymentSplitter.sol\":6206:6236  _erc20Released[token][account] */\n      0xffffffffffffffffffffffffffffffffffffffff\n      and\n      0xffffffffffffffffffffffffffffffffffffffff\n      and\n      dup2\n      mstore\n      0x20\n      add\n      swap1\n      dup2\n      mstore\n      0x20\n      add\n      0x00\n      keccak256\n      0x00\n        /* \".deps/npm/@openzeppelin/contracts/finance/PaymentSplitter.sol\":6206:6247  _erc20Released[token][account] += payment */\n      dup3\n      dup3\n      sload\n      tag_103\n      swap2\n      swap1\n      tag_74\n      jump\t// in\n    tag_103:\n      swap3\n      pop\n      pop\n      dup2\n      swap1\n      sstore\n      pop\n        /* \".deps/npm/@openzeppelin/contracts/finance/PaymentSplitter.sol\":6287:6294  payment */\n      dup1\n        /* \".deps/npm/@openzeppelin/contracts/finance/PaymentSplitter.sol\":6257:6276  _erc20TotalReleased */\n      0x05\n        /* \".deps/npm/@openzeppelin/contracts/finance/PaymentSplitter.sol\":6257:6283  _erc20TotalReleased[token] */\n      0x00\n        /* \".deps/npm/@openzeppelin/contracts/finance/PaymentSplitter.sol\":6277:6282  token */\n      dup7\n        /* \".deps/npm/@openzeppelin/contracts/finance/PaymentSplitter.sol\":6257:6283  _erc20TotalReleased[token] */\n      0xffffffffffffffffffffffffffffffffffffffff\n      and\n      0xffffffffffffffffffffffffffffffffffffffff\n      and\n      dup2\n      mstore\n      0x20\n      add\n      swap1\n      dup2\n      mstore\n      0x20\n      add\n      0x00\n      keccak256\n      0x00\n        /* \".deps/npm/@openzeppelin/contracts/finance/PaymentSplitter.sol\":6257:6294  _erc20TotalReleased[token] += payment */\n      dup3\n      dup3\n      sload\n      tag_104\n      swap2\n      swap1\n      tag_74\n      jump\t// in\n    tag_104:\n      swap3\n      pop\n      pop\n      dup2\n      swap1\n      sstore\n      pop\n        /* \".deps/npm/@openzeppelin/contracts/finance/PaymentSplitter.sol\":6305:6352  SafeERC20.safeTransfer(token, account, payment) */\n      tag_105\n        /* \".deps/npm/@openzeppelin/contracts/finance/PaymentSplitter.sol\":6328:6333  token */\n      dup5\n        /* \".deps/npm/@openzeppelin/contracts/finance/PaymentSplitter.sol\":6335:6342  account */\n      dup5\n        /* \".deps/npm/@openzeppelin/contracts/finance/PaymentSplitter.sol\":6344:6351  payment */\n      dup4\n        /* \".deps/npm/@openzeppelin/contracts/finance/PaymentSplitter.sol\":6305:6327  SafeERC20.safeTransfer */\n      tag_106\n        /* \".deps/npm/@openzeppelin/contracts/finance/PaymentSplitter.sol\":6305:6352  SafeERC20.safeTransfer(token, account, payment) */\n      jump\t// in\n    tag_105:\n        /* \".deps/npm/@openzeppelin/contracts/finance/PaymentSplitter.sol\":6388:6393  token */\n      dup4\n        /* \".deps/npm/@openzeppelin/contracts/finance/PaymentSplitter.sol\":6367:6412  ERC20PaymentReleased(token, account, payment) */\n      0xffffffffffffffffffffffffffffffffffffffff\n      and\n      0x3be5b7a71e84ed12875d241991c70855ac5817d847039e17a9d895c1ceb0f18a\n        /* \".deps/npm/@openzeppelin/contracts/finance/PaymentSplitter.sol\":6395:6402  account */\n      dup5\n        /* \".deps/npm/@openzeppelin/contracts/finance/PaymentSplitter.sol\":6404:6411  payment */\n      dup4\n        /* \".deps/npm/@openzeppelin/contracts/finance/PaymentSplitter.sol\":6367:6412  ERC20PaymentReleased(token, account, payment) */\n      mload(0x40)\n      tag_107\n      swap3\n      swap2\n      swap1\n      tag_18\n      jump\t// in\n    tag_107:\n      mload(0x40)\n      dup1\n      swap2\n      sub\n      swap1\n      log2\n        /* \".deps/npm/@openzeppelin/contracts/finance/PaymentSplitter.sol\":5854:6419  {... */\n      pop\n      pop\n        /* \".deps/npm/@openzeppelin/contracts/finance/PaymentSplitter.sol\":5791:6419  function release(IERC20 token, address account) public virtual {... */\n      pop\n      pop\n      jump\t// out\n        /* \".deps/npm/@openzeppelin/contracts/finance/PaymentSplitter.sol\":4685:4783  function payee(uint256 index) public view returns (address) {... */\n    tag_43:\n        /* \".deps/npm/@openzeppelin/contracts/finance/PaymentSplitter.sol\":4736:4743  address */\n      0x00\n        /* \".deps/npm/@openzeppelin/contracts/finance/PaymentSplitter.sol\":4762:4769  _payees */\n      0x04\n        /* \".deps/npm/@openzeppelin/contracts/finance/PaymentSplitter.sol\":4770:4775  index */\n      dup3\n        /* \".deps/npm/@openzeppelin/contracts/finance/PaymentSplitter.sol\":4762:4776  _payees[index] */\n      dup2\n      sload\n      dup2\n      lt\n      tag_109\n      jumpi\n      tag_110\n      tag_111\n      jump\t// in\n    tag_110:\n    tag_109:\n      swap1\n      0x00\n      mstore\n      keccak256(0x00, 0x20)\n      add\n      0x00\n      swap1\n      sload\n      swap1\n      0x0100\n      exp\n      swap1\n      div\n      0xffffffffffffffffffffffffffffffffffffffff\n      and\n        /* \".deps/npm/@openzeppelin/contracts/finance/PaymentSplitter.sol\":4755:4776  return _payees[index] */\n      swap1\n      pop\n        /* \".deps/npm/@openzeppelin/contracts/finance/PaymentSplitter.sol\":4685:4783  function payee(uint256 index) public view returns (address) {... */\n      swap2\n      swap1\n      pop\n      jump\t// out\n        /* \".deps/npm/@openzeppelin/contracts/finance/PaymentSplitter.sol\":4196:4303  function released(address account) public view returns (uint256) {... */\n    tag_50:\n        /* \".deps/npm/@openzeppelin/contracts/finance/PaymentSplitter.sol\":4252:4259  uint256 */\n      0x00\n        /* \".deps/npm/@openzeppelin/contracts/finance/PaymentSplitter.sol\":4278:4287  _released */\n      0x03\n        /* \".deps/npm/@openzeppelin/contracts/finance/PaymentSplitter.sol\":4278:4296  _released[account] */\n      0x00\n        /* \".deps/npm/@openzeppelin/contracts/finance/PaymentSplitter.sol\":4288:4295  account */\n      dup4\n        /* \".deps/npm/@openzeppelin/contracts/finance/PaymentSplitter.sol\":4278:4296  _released[account] */\n      0xffffffffffffffffffffffffffffffffffffffff\n      and\n      0xffffffffffffffffffffffffffffffffffffffff\n      and\n      dup2\n      mstore\n      0x20\n      add\n      swap1\n      dup2\n      mstore\n      0x20\n      add\n      0x00\n      keccak256\n      sload\n        /* \".deps/npm/@openzeppelin/contracts/finance/PaymentSplitter.sol\":4271:4296  return _released[account] */\n      swap1\n      pop\n        /* \".deps/npm/@openzeppelin/contracts/finance/PaymentSplitter.sol\":4196:4303  function released(address account) public view returns (uint256) {... */\n      swap2\n      swap1\n      pop\n      jump\t// out\n        /* \".deps/npm/@openzeppelin/contracts/finance/PaymentSplitter.sol\":3999:4102  function shares(address account) public view returns (uint256) {... */\n    tag_55:\n        /* \".deps/npm/@openzeppelin/contracts/finance/PaymentSplitter.sol\":4053:4060  uint256 */\n      0x00\n        /* \".deps/npm/@openzeppelin/contracts/finance/PaymentSplitter.sol\":4079:4086  _shares */\n      0x02\n        /* \".deps/npm/@openzeppelin/contracts/finance/PaymentSplitter.sol\":4079:4095  _shares[account] */\n      0x00\n        /* \".deps/npm/@openzeppelin/contracts/finance/PaymentSplitter.sol\":4087:4094  account */\n      dup4\n        /* \".deps/npm/@openzeppelin/contracts/finance/PaymentSplitter.sol\":4079:4095  _shares[account] */\n      0xffffffffffffffffffffffffffffffffffffffff\n      and\n      0xffffffffffffffffffffffffffffffffffffffff\n      and\n      dup2\n      mstore\n      0x20\n      add\n      swap1\n      dup2\n      mstore\n      0x20\n      add\n      0x00\n      keccak256\n      sload\n        /* \".deps/npm/@openzeppelin/contracts/finance/PaymentSplitter.sol\":4072:4095  return _shares[account] */\n      swap1\n      pop\n        /* \".deps/npm/@openzeppelin/contracts/finance/PaymentSplitter.sol\":3999:4102  function shares(address account) public view returns (uint256) {... */\n      swap2\n      swap1\n      pop\n      jump\t// out\n        /* \".deps/npm/@openzeppelin/contracts/finance/PaymentSplitter.sol\":3796:3913  function totalReleased(IERC20 token) public view returns (uint256) {... */\n    tag_61:\n        /* \".deps/npm/@openzeppelin/contracts/finance/PaymentSplitter.sol\":3854:3861  uint256 */\n      0x00\n        /* \".deps/npm/@openzeppelin/contracts/finance/PaymentSplitter.sol\":3880:3899  _erc20TotalReleased */\n      0x05\n        /* \".deps/npm/@openzeppelin/contracts/finance/PaymentSplitter.sol\":3880:3906  _erc20TotalReleased[token] */\n      0x00\n        /* \".deps/npm/@openzeppelin/contracts/finance/PaymentSplitter.sol\":3900:3905  token */\n      dup4\n        /* \".deps/npm/@openzeppelin/contracts/finance/PaymentSplitter.sol\":3880:3906  _erc20TotalReleased[token] */\n      0xffffffffffffffffffffffffffffffffffffffff\n      and\n      0xffffffffffffffffffffffffffffffffffffffff\n      and\n      dup2\n      mstore\n      0x20\n      add\n      swap1\n      dup2\n      mstore\n      0x20\n      add\n      0x00\n      keccak256\n      sload\n        /* \".deps/npm/@openzeppelin/contracts/finance/PaymentSplitter.sol\":3873:3906  return _erc20TotalReleased[token] */\n      swap1\n      pop\n        /* \".deps/npm/@openzeppelin/contracts/finance/PaymentSplitter.sol\":3796:3913  function totalReleased(IERC20 token) public view returns (uint256) {... */\n      swap2\n      swap1\n      pop\n      jump\t// out\n        /* \".deps/npm/@openzeppelin/contracts/finance/PaymentSplitter.sol\":3552:3645  function totalReleased() public view returns (uint256) {... */\n    tag_65:\n        /* \".deps/npm/@openzeppelin/contracts/finance/PaymentSplitter.sol\":3598:3605  uint256 */\n      0x00\n        /* \".deps/npm/@openzeppelin/contracts/finance/PaymentSplitter.sol\":3624:3638  _totalReleased */\n      sload(0x01)\n        /* \".deps/npm/@openzeppelin/contracts/finance/PaymentSplitter.sol\":3617:3638  return _totalReleased */\n      swap1\n      pop\n        /* \".deps/npm/@openzeppelin/contracts/finance/PaymentSplitter.sol\":3552:3645  function totalReleased() public view returns (uint256) {... */\n      swap1\n      jump\t// out\n        /* \".deps/npm/@openzeppelin/contracts/finance/PaymentSplitter.sol\":6591:6833  function _pendingPayment(... */\n    tag_77:\n        /* \".deps/npm/@openzeppelin/contracts/finance/PaymentSplitter.sol\":6733:6740  uint256 */\n      0x00\n        /* \".deps/npm/@openzeppelin/contracts/finance/PaymentSplitter.sol\":6811:6826  alreadyReleased */\n      dup2\n        /* \".deps/npm/@openzeppelin/contracts/finance/PaymentSplitter.sol\":6796:6808  _totalShares */\n      sload(0x00)\n        /* \".deps/npm/@openzeppelin/contracts/finance/PaymentSplitter.sol\":6776:6783  _shares */\n      0x02\n        /* \".deps/npm/@openzeppelin/contracts/finance/PaymentSplitter.sol\":6776:6792  _shares[account] */\n      0x00\n        /* \".deps/npm/@openzeppelin/contracts/finance/PaymentSplitter.sol\":6784:6791  account */\n      dup8\n        /* \".deps/npm/@openzeppelin/contracts/finance/PaymentSplitter.sol\":6776:6792  _shares[account] */\n      0xffffffffffffffffffffffffffffffffffffffff\n      and\n      0xffffffffffffffffffffffffffffffffffffffff\n      and\n      dup2\n      mstore\n      0x20\n      add\n      swap1\n      dup2\n      mstore\n      0x20\n      add\n      0x00\n      keccak256\n      sload\n        /* \".deps/npm/@openzeppelin/contracts/finance/PaymentSplitter.sol\":6760:6773  totalReceived */\n      dup6\n        /* \".deps/npm/@openzeppelin/contracts/finance/PaymentSplitter.sol\":6760:6792  totalReceived * _shares[account] */\n      tag_118\n      swap2\n      swap1\n      tag_119\n      jump\t// in\n    tag_118:\n        /* \".deps/npm/@openzeppelin/contracts/finance/PaymentSplitter.sol\":6759:6808  (totalReceived * _shares[account]) / _totalShares */\n      tag_120\n      swap2\n      swap1\n      tag_121\n      jump\t// in\n    tag_120:\n        /* \".deps/npm/@openzeppelin/contracts/finance/PaymentSplitter.sol\":6759:6826  (totalReceived * _shares[account]) / _totalShares - alreadyReleased */\n      tag_122\n      swap2\n      swap1\n      tag_123\n      jump\t// in\n    tag_122:\n        /* \".deps/npm/@openzeppelin/contracts/finance/PaymentSplitter.sol\":6752:6826  return (totalReceived * _shares[account]) / _totalShares - alreadyReleased */\n      swap1\n      pop\n        /* \".deps/npm/@openzeppelin/contracts/finance/PaymentSplitter.sol\":6591:6833  function _pendingPayment(... */\n      swap4\n      swap3\n      pop\n      pop\n      pop\n      jump\t// out\n        /* \".deps/npm/@openzeppelin/contracts/utils/Address.sol\":2412:2724  function sendValue(address payable recipient, uint256 amount) internal {... */\n    tag_84:\n        /* \".deps/npm/@openzeppelin/contracts/utils/Address.sol\":2526:2532  amount */\n      dup1\n        /* \".deps/npm/@openzeppelin/contracts/utils/Address.sol\":2501:2522  address(this).balance */\n      selfbalance\n        /* \".deps/npm/@openzeppelin/contracts/utils/Address.sol\":2501:2532  address(this).balance >= amount */\n      lt\n      iszero\n        /* \".deps/npm/@openzeppelin/contracts/utils/Address.sol\":2493:2566  require(address(this).balance >= amount, \"Address: insufficient balance\") */\n      tag_125\n      jumpi\n      mload(0x40)\n      0x08c379a000000000000000000000000000000000000000000000000000000000\n      dup2\n      mstore\n      0x04\n      add\n      tag_126\n      swap1\n      tag_127\n      jump\t// in\n    tag_126:\n      mload(0x40)\n      dup1\n      swap2\n      sub\n      swap1\n      revert\n    tag_125:\n        /* \".deps/npm/@openzeppelin/contracts/utils/Address.sol\":2578:2590  bool success */\n      0x00\n        /* \".deps/npm/@openzeppelin/contracts/utils/Address.sol\":2596:2605  recipient */\n      dup3\n        /* \".deps/npm/@openzeppelin/contracts/utils/Address.sol\":2596:2610  recipient.call */\n      0xffffffffffffffffffffffffffffffffffffffff\n      and\n        /* \".deps/npm/@openzeppelin/contracts/utils/Address.sol\":2618:2624  amount */\n      dup3\n        /* \".deps/npm/@openzeppelin/contracts/utils/Address.sol\":2596:2629  recipient.call{value: amount}(\"\") */\n      mload(0x40)\n      tag_128\n      swap1\n      tag_129\n      jump\t// in\n    tag_128:\n      0x00\n      mload(0x40)\n      dup1\n      dup4\n      sub\n      dup2\n      dup6\n      dup8\n      gas\n      call\n      swap3\n      pop\n      pop\n      pop\n      returndatasize\n      dup1\n      0x00\n      dup2\n      eq\n      tag_132\n      jumpi\n      mload(0x40)\n      swap2\n      pop\n      and(add(returndatasize, 0x3f), not(0x1f))\n      dup3\n      add\n      0x40\n      mstore\n      returndatasize\n      dup3\n      mstore\n      returndatasize\n      0x00\n      0x20\n      dup5\n      add\n      returndatacopy\n      jump(tag_131)\n    tag_132:\n      0x60\n      swap2\n      pop\n    tag_131:\n      pop\n        /* \".deps/npm/@openzeppelin/contracts/utils/Address.sol\":2577:2629  (bool success, ) = recipient.call{value: amount}(\"\") */\n      pop\n      swap1\n      pop\n        /* \".deps/npm/@openzeppelin/contracts/utils/Address.sol\":2647:2654  success */\n      dup1\n        /* \".deps/npm/@openzeppelin/contracts/utils/Address.sol\":2639:2717  require(success, \"Address: unable to send value, recipient may have reverted\") */\n      tag_133\n      jumpi\n      mload(0x40)\n      0x08c379a000000000000000000000000000000000000000000000000000000000\n      dup2\n      mstore\n      0x04\n      add\n      tag_134\n      swap1\n      tag_135\n      jump\t// in\n    tag_134:\n      mload(0x40)\n      dup1\n      swap2\n      sub\n      swap1\n      revert\n    tag_133:\n        /* \".deps/npm/@openzeppelin/contracts/utils/Address.sol\":2483:2724  {... */\n      pop\n        /* \".deps/npm/@openzeppelin/contracts/utils/Address.sol\":2412:2724  function sendValue(address payable recipient, uint256 amount) internal {... */\n      pop\n      pop\n      jump\t// out\n        /* \".deps/npm/@openzeppelin/contracts/token/ERC20/utils/SafeERC20.sol\":701:906  function safeTransfer(... */\n    tag_106:\n        /* \".deps/npm/@openzeppelin/contracts/token/ERC20/utils/SafeERC20.sol\":813:899  _callOptionalReturn(token, abi.encodeWithSelector(token.transfer.selector, to, value)) */\n      tag_137\n        /* \".deps/npm/@openzeppelin/contracts/token/ERC20/utils/SafeERC20.sol\":833:838  token */\n      dup4\n        /* \".deps/npm/@openzeppelin/contracts/token/ERC20/utils/SafeERC20.sol\":863:886  token.transfer.selector */\n      shl(0xe0, 0xa9059cbb)\n        /* \".deps/npm/@openzeppelin/contracts/token/ERC20/utils/SafeERC20.sol\":888:890  to */\n      dup5\n        /* \".deps/npm/@openzeppelin/contracts/token/ERC20/utils/SafeERC20.sol\":892:897  value */\n      dup5\n        /* \".deps/npm/@openzeppelin/contracts/token/ERC20/utils/SafeERC20.sol\":840:898  abi.encodeWithSelector(token.transfer.selector, to, value) */\n      add(0x24, mload(0x40))\n      tag_138\n      swap3\n      swap2\n      swap1\n      tag_18\n      jump\t// in\n    tag_138:\n      mload(0x40)\n      0x20\n      dup2\n      dup4\n      sub\n      sub\n      dup2\n      mstore\n      swap1\n      0x40\n      mstore\n      swap1\n      not(0xffffffffffffffffffffffffffffffffffffffffffffffffffffffff)\n      and\n      0x20\n      dup3\n      add\n      dup1\n      mload\n      0xffffffffffffffffffffffffffffffffffffffffffffffffffffffff\n      dup4\n      dup2\n      dup4\n      and\n      or\n      dup4\n      mstore\n      pop\n      pop\n      pop\n      pop\n        /* \".deps/npm/@openzeppelin/contracts/token/ERC20/utils/SafeERC20.sol\":813:832  _callOptionalReturn */\n      tag_139\n        /* \".deps/npm/@openzeppelin/contracts/token/ERC20/utils/SafeERC20.sol\":813:899  _callOptionalReturn(token, abi.encodeWithSelector(token.transfer.selector, to, value)) */\n      jump\t// in\n    tag_137:\n        /* \".deps/npm/@openzeppelin/contracts/token/ERC20/utils/SafeERC20.sol\":701:906  function safeTransfer(... */\n      pop\n      pop\n      pop\n      jump\t// out\n        /* \".deps/npm/@openzeppelin/contracts/token/ERC20/utils/SafeERC20.sol\":3207:3913  function _callOptionalReturn(IERC20 token, bytes memory data) private {... */\n    tag_139:\n        /* \".deps/npm/@openzeppelin/contracts/token/ERC20/utils/SafeERC20.sol\":3626:3649  bytes memory returndata */\n      0x00\n        /* \".deps/npm/@openzeppelin/contracts/token/ERC20/utils/SafeERC20.sol\":3652:3721  address(token).functionCall(data, \"SafeERC20: low-level call failed\") */\n      tag_141\n        /* \".deps/npm/@openzeppelin/contracts/token/ERC20/utils/SafeERC20.sol\":3680:3684  data */\n      dup3\n        /* \".deps/npm/@openzeppelin/contracts/token/ERC20/utils/SafeERC20.sol\":3652:3721  address(token).functionCall(data, \"SafeERC20: low-level call failed\") */\n      mload(0x40)\n      dup1\n      0x40\n      add\n      0x40\n      mstore\n      dup1\n      0x20\n      dup2\n      mstore\n      0x20\n      add\n      0x5361666545524332303a206c6f772d6c6576656c2063616c6c206661696c6564\n      dup2\n      mstore\n      pop\n        /* \".deps/npm/@openzeppelin/contracts/token/ERC20/utils/SafeERC20.sol\":3660:3665  token */\n      dup6\n        /* \".deps/npm/@openzeppelin/contracts/token/ERC20/utils/SafeERC20.sol\":3652:3679  address(token).functionCall */\n      0xffffffffffffffffffffffffffffffffffffffff\n      and\n      tag_142\n      swap1\n        /* \".deps/npm/@openzeppelin/contracts/token/ERC20/utils/SafeERC20.sol\":3652:3721  address(token).functionCall(data, \"SafeERC20: low-level call failed\") */\n      swap3\n      swap2\n      swap1\n      0xffffffff\n      and\n      jump\t// in\n    tag_141:\n        /* \".deps/npm/@openzeppelin/contracts/token/ERC20/utils/SafeERC20.sol\":3626:3721  bytes memory returndata = address(token).functionCall(data, \"SafeERC20: low-level call failed\") */\n      swap1\n      pop\n        /* \".deps/npm/@openzeppelin/contracts/token/ERC20/utils/SafeERC20.sol\":3755:3756  0 */\n      0x00\n        /* \".deps/npm/@openzeppelin/contracts/token/ERC20/utils/SafeERC20.sol\":3735:3745  returndata */\n      dup2\n        /* \".deps/npm/@openzeppelin/contracts/token/ERC20/utils/SafeERC20.sol\":3735:3752  returndata.length */\n      mload\n        /* \".deps/npm/@openzeppelin/contracts/token/ERC20/utils/SafeERC20.sol\":3735:3756  returndata.length > 0 */\n      gt\n        /* \".deps/npm/@openzeppelin/contracts/token/ERC20/utils/SafeERC20.sol\":3731:3907  if (returndata.length > 0) {... */\n      iszero\n      tag_143\n      jumpi\n        /* \".deps/npm/@openzeppelin/contracts/token/ERC20/utils/SafeERC20.sol\":3830:3840  returndata */\n      dup1\n        /* \".deps/npm/@openzeppelin/contracts/token/ERC20/utils/SafeERC20.sol\":3819:3849  abi.decode(returndata, (bool)) */\n      dup1\n      0x20\n      add\n      swap1\n      mload\n      dup2\n      add\n      swap1\n      tag_144\n      swap2\n      swap1\n      tag_145\n      jump\t// in\n    tag_144:\n        /* \".deps/npm/@openzeppelin/contracts/token/ERC20/utils/SafeERC20.sol\":3811:3896  require(abi.decode(returndata, (bool)), \"SafeERC20: ERC20 operation did not succeed\") */\n      tag_146\n      jumpi\n      mload(0x40)\n      0x08c379a000000000000000000000000000000000000000000000000000000000\n      dup2\n      mstore\n      0x04\n      add\n      tag_147\n      swap1\n      tag_148\n      jump\t// in\n    tag_147:\n      mload(0x40)\n      dup1\n      swap2\n      sub\n      swap1\n      revert\n    tag_146:\n        /* \".deps/npm/@openzeppelin/contracts/token/ERC20/utils/SafeERC20.sol\":3731:3907  if (returndata.length > 0) {... */\n    tag_143:\n        /* \".deps/npm/@openzeppelin/contracts/token/ERC20/utils/SafeERC20.sol\":3277:3913  {... */\n      pop\n        /* \".deps/npm/@openzeppelin/contracts/token/ERC20/utils/SafeERC20.sol\":3207:3913  function _callOptionalReturn(IERC20 token, bytes memory data) private {... */\n      pop\n      pop\n      jump\t// out\n        /* \".deps/npm/@openzeppelin/contracts/utils/Address.sol\":3861:4084  function functionCall(... */\n    tag_142:\n        /* \".deps/npm/@openzeppelin/contracts/utils/Address.sol\":3994:4006  bytes memory */\n      0x60\n        /* \".deps/npm/@openzeppelin/contracts/utils/Address.sol\":4025:4077  functionCallWithValue(target, data, 0, errorMessage) */\n      tag_150\n        /* \".deps/npm/@openzeppelin/contracts/utils/Address.sol\":4047:4053  target */\n      dup5\n        /* \".deps/npm/@openzeppelin/contracts/utils/Address.sol\":4055:4059  data */\n      dup5\n        /* \".deps/npm/@openzeppelin/contracts/utils/Address.sol\":4061:4062  0 */\n      0x00\n        /* \".deps/npm/@openzeppelin/contracts/utils/Address.sol\":4064:4076  errorMessage */\n      dup6\n        /* \".deps/npm/@openzeppelin/contracts/utils/Address.sol\":4025:4046  functionCallWithValue */\n      tag_151\n        /* \".deps/npm/@openzeppelin/contracts/utils/Address.sol\":4025:4077  functionCallWithValue(target, data, 0, errorMessage) */\n      jump\t// in\n    tag_150:\n        /* \".deps/npm/@openzeppelin/contracts/utils/Address.sol\":4018:4077  return functionCallWithValue(target, data, 0, errorMessage) */\n      swap1\n      pop\n        /* \".deps/npm/@openzeppelin/contracts/utils/Address.sol\":3861:4084  function functionCall(... */\n      swap4\n      swap3\n      pop\n      pop\n      pop\n      jump\t// out\n        /* \".deps/npm/@openzeppelin/contracts/utils/Address.sol\":4948:5447  function functionCallWithValue(... */\n    tag_151:\n        /* \".deps/npm/@openzeppelin/contracts/utils/Address.sol\":5113:5125  bytes memory */\n      0x60\n        /* \".deps/npm/@openzeppelin/contracts/utils/Address.sol\":5170:5175  value */\n      dup3\n        /* \".deps/npm/@openzeppelin/contracts/utils/Address.sol\":5145:5166  address(this).balance */\n      selfbalance\n        /* \".deps/npm/@openzeppelin/contracts/utils/Address.sol\":5145:5175  address(this).balance >= value */\n      lt\n      iszero\n        /* \".deps/npm/@openzeppelin/contracts/utils/Address.sol\":5137:5218  require(address(this).balance >= value, \"Address: insufficient balance for call\") */\n      tag_153\n      jumpi\n      mload(0x40)\n      0x08c379a000000000000000000000000000000000000000000000000000000000\n      dup2\n      mstore\n      0x04\n      add\n      tag_154\n      swap1\n      tag_155\n      jump\t// in\n    tag_154:\n      mload(0x40)\n      dup1\n      swap2\n      sub\n      swap1\n      revert\n    tag_153:\n        /* \".deps/npm/@openzeppelin/contracts/utils/Address.sol\":5236:5254  isContract(target) */\n      tag_156\n        /* \".deps/npm/@openzeppelin/contracts/utils/Address.sol\":5247:5253  target */\n      dup6\n        /* \".deps/npm/@openzeppelin/contracts/utils/Address.sol\":5236:5246  isContract */\n      tag_157\n        /* \".deps/npm/@openzeppelin/contracts/utils/Address.sol\":5236:5254  isContract(target) */\n      jump\t// in\n    tag_156:\n        /* \".deps/npm/@openzeppelin/contracts/utils/Address.sol\":5228:5288  require(isContract(target), \"Address: call to non-contract\") */\n      tag_158\n      jumpi\n      mload(0x40)\n      0x08c379a000000000000000000000000000000000000000000000000000000000\n      dup2\n      mstore\n      0x04\n      add\n      tag_159\n      swap1\n      tag_160\n      jump\t// in\n    tag_159:\n      mload(0x40)\n      dup1\n      swap2\n      sub\n      swap1\n      revert\n    tag_158:\n        /* \".deps/npm/@openzeppelin/contracts/utils/Address.sol\":5300:5312  bool success */\n      0x00\n        /* \".deps/npm/@openzeppelin/contracts/utils/Address.sol\":5314:5337  bytes memory returndata */\n      dup1\n        /* \".deps/npm/@openzeppelin/contracts/utils/Address.sol\":5341:5347  target */\n      dup7\n        /* \".deps/npm/@openzeppelin/contracts/utils/Address.sol\":5341:5352  target.call */\n      0xffffffffffffffffffffffffffffffffffffffff\n      and\n        /* \".deps/npm/@openzeppelin/contracts/utils/Address.sol\":5360:5365  value */\n      dup6\n        /* \".deps/npm/@openzeppelin/contracts/utils/Address.sol\":5367:5371  data */\n      dup8\n        /* \".deps/npm/@openzeppelin/contracts/utils/Address.sol\":5341:5372  target.call{value: value}(data) */\n      mload(0x40)\n      tag_161\n      swap2\n      swap1\n      tag_162\n      jump\t// in\n    tag_161:\n      0x00\n      mload(0x40)\n      dup1\n      dup4\n      sub\n      dup2\n      dup6\n      dup8\n      gas\n      call\n      swap3\n      pop\n      pop\n      pop\n      returndatasize\n      dup1\n      0x00\n      dup2\n      eq\n      tag_165\n      jumpi\n      mload(0x40)\n      swap2\n      pop\n      and(add(returndatasize, 0x3f), not(0x1f))\n      dup3\n      add\n      0x40\n      mstore\n      returndatasize\n      dup3\n      mstore\n      returndatasize\n      0x00\n      0x20\n      dup5\n      add\n      returndatacopy\n      jump(tag_164)\n    tag_165:\n      0x60\n      swap2\n      pop\n    tag_164:\n      pop\n        /* \".deps/npm/@openzeppelin/contracts/utils/Address.sol\":5299:5372  (bool success, bytes memory returndata) = target.call{value: value}(data) */\n      swap2\n      pop\n      swap2\n      pop\n        /* \".deps/npm/@openzeppelin/contracts/utils/Address.sol\":5389:5440  verifyCallResult(success, returndata, errorMessage) */\n      tag_166\n        /* \".deps/npm/@openzeppelin/contracts/utils/Address.sol\":5406:5413  success */\n      dup3\n        /* \".deps/npm/@openzeppelin/contracts/utils/Address.sol\":5415:5425  returndata */\n      dup3\n        /* \".deps/npm/@openzeppelin/contracts/utils/Address.sol\":5427:5439  errorMessage */\n      dup7\n        /* \".deps/npm/@openzeppelin/contracts/utils/Address.sol\":5389:5405  verifyCallResult */\n      tag_167\n        /* \".deps/npm/@openzeppelin/contracts/utils/Address.sol\":5389:5440  verifyCallResult(success, returndata, errorMessage) */\n      jump\t// in\n    tag_166:\n        /* \".deps/npm/@openzeppelin/contracts/utils/Address.sol\":5382:5440  return verifyCallResult(success, returndata, errorMessage) */\n      swap3\n      pop\n      pop\n      pop\n        /* \".deps/npm/@openzeppelin/contracts/utils/Address.sol\":4948:5447  function functionCallWithValue(... */\n      swap5\n      swap4\n      pop\n      pop\n      pop\n      pop\n      jump\t// out\n        /* \".deps/npm/@openzeppelin/contracts/utils/Address.sol\":1175:1495  function isContract(address account) internal view returns (bool) {... */\n    tag_157:\n        /* \".deps/npm/@openzeppelin/contracts/utils/Address.sol\":1235:1239  bool */\n      0x00\n        /* \".deps/npm/@openzeppelin/contracts/utils/Address.sol\":1487:1488  0 */\n      dup1\n        /* \".deps/npm/@openzeppelin/contracts/utils/Address.sol\":1465:1472  account */\n      dup3\n        /* \".deps/npm/@openzeppelin/contracts/utils/Address.sol\":1465:1484  account.code.length */\n      0xffffffffffffffffffffffffffffffffffffffff\n      and\n      extcodesize\n        /* \".deps/npm/@openzeppelin/contracts/utils/Address.sol\":1465:1488  account.code.length > 0 */\n      gt\n        /* \".deps/npm/@openzeppelin/contracts/utils/Address.sol\":1458:1488  return account.code.length > 0 */\n      swap1\n      pop\n        /* \".deps/npm/@openzeppelin/contracts/utils/Address.sol\":1175:1495  function isContract(address account) internal view returns (bool) {... */\n      swap2\n      swap1\n      pop\n      jump\t// out\n        /* \".deps/npm/@openzeppelin/contracts/utils/Address.sol\":7561:8253  function verifyCallResult(... */\n    tag_167:\n        /* \".deps/npm/@openzeppelin/contracts/utils/Address.sol\":7707:7719  bytes memory */\n      0x60\n        /* \".deps/npm/@openzeppelin/contracts/utils/Address.sol\":7735:7742  success */\n      dup4\n        /* \".deps/npm/@openzeppelin/contracts/utils/Address.sol\":7731:8247  if (success) {... */\n      iszero\n      tag_170\n      jumpi\n        /* \".deps/npm/@openzeppelin/contracts/utils/Address.sol\":7765:7775  returndata */\n      dup3\n        /* \".deps/npm/@openzeppelin/contracts/utils/Address.sol\":7758:7775  return returndata */\n      swap1\n      pop\n      jump(tag_169)\n        /* \".deps/npm/@openzeppelin/contracts/utils/Address.sol\":7731:8247  if (success) {... */\n    tag_170:\n        /* \".deps/npm/@openzeppelin/contracts/utils/Address.sol\":7896:7897  0 */\n      0x00\n        /* \".deps/npm/@openzeppelin/contracts/utils/Address.sol\":7876:7886  returndata */\n      dup4\n        /* \".deps/npm/@openzeppelin/contracts/utils/Address.sol\":7876:7893  returndata.length */\n      mload\n        /* \".deps/npm/@openzeppelin/contracts/utils/Address.sol\":7876:7897  returndata.length > 0 */\n      gt\n        /* \".deps/npm/@openzeppelin/contracts/utils/Address.sol\":7872:8237  if (returndata.length > 0) {... */\n      iszero\n      tag_172\n      jumpi\n        /* \".deps/npm/@openzeppelin/contracts/utils/Address.sol\":8070:8080  returndata */\n      dup3\n        /* \".deps/npm/@openzeppelin/contracts/utils/Address.sol\":8064:8081  mload(returndata) */\n      mload\n        /* \".deps/npm/@openzeppelin/contracts/utils/Address.sol\":8130:8145  returndata_size */\n      dup1\n        /* \".deps/npm/@openzeppelin/contracts/utils/Address.sol\":8117:8127  returndata */\n      dup5\n        /* \".deps/npm/@openzeppelin/contracts/utils/Address.sol\":8113:8115  32 */\n      0x20\n        /* \".deps/npm/@openzeppelin/contracts/utils/Address.sol\":8109:8128  add(32, returndata) */\n      add\n        /* \".deps/npm/@openzeppelin/contracts/utils/Address.sol\":8102:8146  revert(add(32, returndata), returndata_size) */\n      revert\n        /* \".deps/npm/@openzeppelin/contracts/utils/Address.sol\":7872:8237  if (returndata.length > 0) {... */\n    tag_172:\n        /* \".deps/npm/@openzeppelin/contracts/utils/Address.sol\":8209:8221  errorMessage */\n      dup2\n        /* \".deps/npm/@openzeppelin/contracts/utils/Address.sol\":8202:8222  revert(errorMessage) */\n      mload(0x40)\n      0x08c379a000000000000000000000000000000000000000000000000000000000\n      dup2\n      mstore\n      0x04\n      add\n      tag_174\n      swap2\n      swap1\n      tag_175\n      jump\t// in\n    tag_174:\n      mload(0x40)\n      dup1\n      swap2\n      sub\n      swap1\n      revert\n        /* \".deps/npm/@openzeppelin/contracts/utils/Address.sol\":7561:8253  function verifyCallResult(... */\n    tag_169:\n      swap4\n      swap3\n      pop\n      pop\n      pop\n      jump\t// out\n        /* \"#utility.yul\":7:133   */\n    tag_176:\n        /* \"#utility.yul\":44:51   */\n      0x00\n        /* \"#utility.yul\":84:126   */\n      0xffffffffffffffffffffffffffffffffffffffff\n        /* \"#utility.yul\":77:82   */\n      dup3\n        /* \"#utility.yul\":73:127   */\n      and\n        /* \"#utility.yul\":62:127   */\n      swap1\n      pop\n        /* \"#utility.yul\":7:133   */\n      swap2\n      swap1\n      pop\n      jump\t// out\n        /* \"#utility.yul\":139:235   */\n    tag_177:\n        /* \"#utility.yul\":176:183   */\n      0x00\n        /* \"#utility.yul\":205:229   */\n      tag_232\n        /* \"#utility.yul\":223:228   */\n      dup3\n        /* \"#utility.yul\":205:229   */\n      tag_176\n      jump\t// in\n    tag_232:\n        /* \"#utility.yul\":194:229   */\n      swap1\n      pop\n        /* \"#utility.yul\":139:235   */\n      swap2\n      swap1\n      pop\n      jump\t// out\n        /* \"#utility.yul\":241:359   */\n    tag_178:\n        /* \"#utility.yul\":328:352   */\n      tag_234\n        /* \"#utility.yul\":346:351   */\n      dup2\n        /* \"#utility.yul\":328:352   */\n      tag_177\n      jump\t// in\n    tag_234:\n        /* \"#utility.yul\":323:326   */\n      dup3\n        /* \"#utility.yul\":316:353   */\n      mstore\n        /* \"#utility.yul\":241:359   */\n      pop\n      pop\n      jump\t// out\n        /* \"#utility.yul\":365:442   */\n    tag_179:\n        /* \"#utility.yul\":402:409   */\n      0x00\n        /* \"#utility.yul\":431:436   */\n      dup2\n        /* \"#utility.yul\":420:436   */\n      swap1\n      pop\n        /* \"#utility.yul\":365:442   */\n      swap2\n      swap1\n      pop\n      jump\t// out\n        /* \"#utility.yul\":448:566   */\n    tag_180:\n        /* \"#utility.yul\":535:559   */\n      tag_237\n        /* \"#utility.yul\":553:558   */\n      dup2\n        /* \"#utility.yul\":535:559   */\n      tag_179\n      jump\t// in\n    tag_237:\n        /* \"#utility.yul\":530:533   */\n      dup3\n        /* \"#utility.yul\":523:560   */\n      mstore\n        /* \"#utility.yul\":448:566   */\n      pop\n      pop\n      jump\t// out\n        /* \"#utility.yul\":572:904   */\n    tag_18:\n        /* \"#utility.yul\":693:697   */\n      0x00\n        /* \"#utility.yul\":731:733   */\n      0x40\n        /* \"#utility.yul\":720:729   */\n      dup3\n        /* \"#utility.yul\":716:734   */\n      add\n        /* \"#utility.yul\":708:734   */\n      swap1\n      pop\n        /* \"#utility.yul\":744:815   */\n      tag_239\n        /* \"#utility.yul\":812:813   */\n      0x00\n        /* \"#utility.yul\":801:810   */\n      dup4\n        /* \"#utility.yul\":797:814   */\n      add\n        /* \"#utility.yul\":788:794   */\n      dup6\n        /* \"#utility.yul\":744:815   */\n      tag_178\n      jump\t// in\n    tag_239:\n        /* \"#utility.yul\":825:897   */\n      tag_240\n        /* \"#utility.yul\":893:895   */\n      0x20\n        /* \"#utility.yul\":882:891   */\n      dup4\n        /* \"#utility.yul\":878:896   */\n      add\n        /* \"#utility.yul\":869:875   */\n      dup5\n        /* \"#utility.yul\":825:897   */\n      tag_180\n      jump\t// in\n    tag_240:\n        /* \"#utility.yul\":572:904   */\n      swap4\n      swap3\n      pop\n      pop\n      pop\n      jump\t// out\n        /* \"#utility.yul\":991:1108   */\n    tag_182:\n        /* \"#utility.yul\":1100:1101   */\n      0x00\n        /* \"#utility.yul\":1097:1098   */\n      dup1\n        /* \"#utility.yul\":1090:1102   */\n      revert\n        /* \"#utility.yul\":1237:1341   */\n    tag_184:\n        /* \"#utility.yul\":1282:1289   */\n      0x00\n        /* \"#utility.yul\":1311:1335   */\n      tag_245\n        /* \"#utility.yul\":1329:1334   */\n      dup3\n        /* \"#utility.yul\":1311:1335   */\n      tag_176\n      jump\t// in\n    tag_245:\n        /* \"#utility.yul\":1300:1335   */\n      swap1\n      pop\n        /* \"#utility.yul\":1237:1341   */\n      swap2\n      swap1\n      pop\n      jump\t// out\n        /* \"#utility.yul\":1347:1485   */\n    tag_185:\n        /* \"#utility.yul\":1428:1460   */\n      tag_247\n        /* \"#utility.yul\":1454:1459   */\n      dup2\n        /* \"#utility.yul\":1428:1460   */\n      tag_184\n      jump\t// in\n    tag_247:\n        /* \"#utility.yul\":1421:1426   */\n      dup2\n        /* \"#utility.yul\":1418:1461   */\n      eq\n        /* \"#utility.yul\":1408:1479   */\n      tag_248\n      jumpi\n        /* \"#utility.yul\":1475:1476   */\n      0x00\n        /* \"#utility.yul\":1472:1473   */\n      dup1\n        /* \"#utility.yul\":1465:1477   */\n      revert\n        /* \"#utility.yul\":1408:1479   */\n    tag_248:\n        /* \"#utility.yul\":1347:1485   */\n      pop\n      jump\t// out\n        /* \"#utility.yul\":1491:1646   */\n    tag_186:\n        /* \"#utility.yul\":1545:1550   */\n      0x00\n        /* \"#utility.yul\":1583:1589   */\n      dup2\n        /* \"#utility.yul\":1570:1590   */\n      calldataload\n        /* \"#utility.yul\":1561:1590   */\n      swap1\n      pop\n        /* \"#utility.yul\":1599:1640   */\n      tag_250\n        /* \"#utility.yul\":1634:1639   */\n      dup2\n        /* \"#utility.yul\":1599:1640   */\n      tag_185\n      jump\t// in\n    tag_250:\n        /* \"#utility.yul\":1491:1646   */\n      swap3\n      swap2\n      pop\n      pop\n      jump\t// out\n        /* \"#utility.yul\":1652:1997   */\n    tag_22:\n        /* \"#utility.yul\":1719:1725   */\n      0x00\n        /* \"#utility.yul\":1768:1770   */\n      0x20\n        /* \"#utility.yul\":1756:1765   */\n      dup3\n        /* \"#utility.yul\":1747:1754   */\n      dup5\n        /* \"#utility.yul\":1743:1766   */\n      sub\n        /* \"#utility.yul\":1739:1771   */\n      slt\n        /* \"#utility.yul\":1736:1855   */\n      iszero\n      tag_252\n      jumpi\n        /* \"#utility.yul\":1774:1853   */\n      tag_253\n      tag_182\n      jump\t// in\n    tag_253:\n        /* \"#utility.yul\":1736:1855   */\n    tag_252:\n        /* \"#utility.yul\":1894:1895   */\n      0x00\n        /* \"#utility.yul\":1919:1980   */\n      tag_254\n        /* \"#utility.yul\":1972:1979   */\n      dup5\n        /* \"#utility.yul\":1963:1969   */\n      dup3\n        /* \"#utility.yul\":1952:1961   */\n      dup6\n        /* \"#utility.yul\":1948:1970   */\n      add\n        /* \"#utility.yul\":1919:1980   */\n      tag_186\n      jump\t// in\n    tag_254:\n        /* \"#utility.yul\":1909:1980   */\n      swap2\n      pop\n        /* \"#utility.yul\":1865:1990   */\n      pop\n        /* \"#utility.yul\":1652:1997   */\n      swap3\n      swap2\n      pop\n      pop\n      jump\t// out\n        /* \"#utility.yul\":2003:2225   */\n    tag_28:\n        /* \"#utility.yul\":2096:2100   */\n      0x00\n        /* \"#utility.yul\":2134:2136   */\n      0x20\n        /* \"#utility.yul\":2123:2132   */\n      dup3\n        /* \"#utility.yul\":2119:2137   */\n      add\n        /* \"#utility.yul\":2111:2137   */\n      swap1\n      pop\n        /* \"#utility.yul\":2147:2218   */\n      tag_256\n        /* \"#utility.yul\":2215:2216   */\n      0x00\n        /* \"#utility.yul\":2204:2213   */\n      dup4\n        /* \"#utility.yul\":2200:2217   */\n      add\n        /* \"#utility.yul\":2191:2197   */\n      dup5\n        /* \"#utility.yul\":2147:2218   */\n      tag_180\n      jump\t// in\n    tag_256:\n        /* \"#utility.yul\":2003:2225   */\n      swap3\n      swap2\n      pop\n      pop\n      jump\t// out\n        /* \"#utility.yul\":2231:2341   */\n    tag_187:\n        /* \"#utility.yul\":2282:2289   */\n      0x00\n        /* \"#utility.yul\":2311:2335   */\n      tag_258\n        /* \"#utility.yul\":2329:2334   */\n      dup3\n        /* \"#utility.yul\":2311:2335   */\n      tag_177\n      jump\t// in\n    tag_258:\n        /* \"#utility.yul\":2300:2335   */\n      swap1\n      pop\n        /* \"#utility.yul\":2231:2341   */\n      swap2\n      swap1\n      pop\n      jump\t// out\n        /* \"#utility.yul\":2347:2497   */\n    tag_188:\n        /* \"#utility.yul\":2434:2472   */\n      tag_260\n        /* \"#utility.yul\":2466:2471   */\n      dup2\n        /* \"#utility.yul\":2434:2472   */\n      tag_187\n      jump\t// in\n    tag_260:\n        /* \"#utility.yul\":2427:2432   */\n      dup2\n        /* \"#utility.yul\":2424:2473   */\n      eq\n        /* \"#utility.yul\":2414:2491   */\n      tag_261\n      jumpi\n        /* \"#utility.yul\":2487:2488   */\n      0x00\n        /* \"#utility.yul\":2484:2485   */\n      dup1\n        /* \"#utility.yul\":2477:2489   */\n      revert\n        /* \"#utility.yul\":2414:2491   */\n    tag_261:\n        /* \"#utility.yul\":2347:2497   */\n      pop\n      jump\t// out\n        /* \"#utility.yul\":2503:2670   */\n    tag_189:\n        /* \"#utility.yul\":2563:2568   */\n      0x00\n        /* \"#utility.yul\":2601:2607   */\n      dup2\n        /* \"#utility.yul\":2588:2608   */\n      calldataload\n        /* \"#utility.yul\":2579:2608   */\n      swap1\n      pop\n        /* \"#utility.yul\":2617:2664   */\n      tag_263\n        /* \"#utility.yul\":2658:2663   */\n      dup2\n        /* \"#utility.yul\":2617:2664   */\n      tag_188\n      jump\t// in\n    tag_263:\n        /* \"#utility.yul\":2503:2670   */\n      swap3\n      swap2\n      pop\n      pop\n      jump\t// out\n        /* \"#utility.yul\":2676:2798   */\n    tag_190:\n        /* \"#utility.yul\":2749:2773   */\n      tag_265\n        /* \"#utility.yul\":2767:2772   */\n      dup2\n        /* \"#utility.yul\":2749:2773   */\n      tag_177\n      jump\t// in\n    tag_265:\n        /* \"#utility.yul\":2742:2747   */\n      dup2\n        /* \"#utility.yul\":2739:2774   */\n      eq\n        /* \"#utility.yul\":2729:2792   */\n      tag_266\n      jumpi\n        /* \"#utility.yul\":2788:2789   */\n      0x00\n        /* \"#utility.yul\":2785:2786   */\n      dup1\n        /* \"#utility.yul\":2778:2790   */\n      revert\n        /* \"#utility.yul\":2729:2792   */\n    tag_266:\n        /* \"#utility.yul\":2676:2798   */\n      pop\n      jump\t// out\n        /* \"#utility.yul\":2804:2943   */\n    tag_191:\n        /* \"#utility.yul\":2850:2855   */\n      0x00\n        /* \"#utility.yul\":2888:2894   */\n      dup2\n        /* \"#utility.yul\":2875:2895   */\n      calldataload\n        /* \"#utility.yul\":2866:2895   */\n      swap1\n      pop\n        /* \"#utility.yul\":2904:2937   */\n      tag_268\n        /* \"#utility.yul\":2931:2936   */\n      dup2\n        /* \"#utility.yul\":2904:2937   */\n      tag_190\n      jump\t// in\n    tag_268:\n        /* \"#utility.yul\":2804:2943   */\n      swap3\n      swap2\n      pop\n      pop\n      jump\t// out\n        /* \"#utility.yul\":2949:3451   */\n    tag_32:\n        /* \"#utility.yul\":3031:3037   */\n      0x00\n        /* \"#utility.yul\":3039:3045   */\n      dup1\n        /* \"#utility.yul\":3088:3090   */\n      0x40\n        /* \"#utility.yul\":3076:3085   */\n      dup4\n        /* \"#utility.yul\":3067:3074   */\n      dup6\n        /* \"#utility.yul\":3063:3086   */\n      sub\n        /* \"#utility.yul\":3059:3091   */\n      slt\n        /* \"#utility.yul\":3056:3175   */\n      iszero\n      tag_270\n      jumpi\n        /* \"#utility.yul\":3094:3173   */\n      tag_271\n      tag_182\n      jump\t// in\n    tag_271:\n        /* \"#utility.yul\":3056:3175   */\n    tag_270:\n        /* \"#utility.yul\":3214:3215   */\n      0x00\n        /* \"#utility.yul\":3239:3306   */\n      tag_272\n        /* \"#utility.yul\":3298:3305   */\n      dup6\n        /* \"#utility.yul\":3289:3295   */\n      dup3\n        /* \"#utility.yul\":3278:3287   */\n      dup7\n        /* \"#utility.yul\":3274:3296   */\n      add\n        /* \"#utility.yul\":3239:3306   */\n      tag_189\n      jump\t// in\n    tag_272:\n        /* \"#utility.yul\":3229:3306   */\n      swap3\n      pop\n        /* \"#utility.yul\":3185:3316   */\n      pop\n        /* \"#utility.yul\":3355:3357   */\n      0x20\n        /* \"#utility.yul\":3381:3434   */\n      tag_273\n        /* \"#utility.yul\":3426:3433   */\n      dup6\n        /* \"#utility.yul\":3417:3423   */\n      dup3\n        /* \"#utility.yul\":3406:3415   */\n      dup7\n        /* \"#utility.yul\":3402:3424   */\n      add\n        /* \"#utility.yul\":3381:3434   */\n      tag_191\n      jump\t// in\n    tag_273:\n        /* \"#utility.yul\":3371:3434   */\n      swap2\n      pop\n        /* \"#utility.yul\":3326:3444   */\n      pop\n        /* \"#utility.yul\":2949:3451   */\n      swap3\n      pop\n      swap3\n      swap1\n      pop\n      jump\t// out\n        /* \"#utility.yul\":3457:3579   */\n    tag_192:\n        /* \"#utility.yul\":3530:3554   */\n      tag_275\n        /* \"#utility.yul\":3548:3553   */\n      dup2\n        /* \"#utility.yul\":3530:3554   */\n      tag_179\n      jump\t// in\n    tag_275:\n        /* \"#utility.yul\":3523:3528   */\n      dup2\n        /* \"#utility.yul\":3520:3555   */\n      eq\n        /* \"#utility.yul\":3510:3573   */\n      tag_276\n      jumpi\n        /* \"#utility.yul\":3569:3570   */\n      0x00\n        /* \"#utility.yul\":3566:3567   */\n      dup1\n        /* \"#utility.yul\":3559:3571   */\n      revert\n        /* \"#utility.yul\":3510:3573   */\n    tag_276:\n        /* \"#utility.yul\":3457:3579   */\n      pop\n      jump\t// out\n        /* \"#utility.yul\":3585:3724   */\n    tag_193:\n        /* \"#utility.yul\":3631:3636   */\n      0x00\n        /* \"#utility.yul\":3669:3675   */\n      dup2\n        /* \"#utility.yul\":3656:3676   */\n      calldataload\n        /* \"#utility.yul\":3647:3676   */\n      swap1\n      pop\n        /* \"#utility.yul\":3685:3718   */\n      tag_278\n        /* \"#utility.yul\":3712:3717   */\n      dup2\n        /* \"#utility.yul\":3685:3718   */\n      tag_192\n      jump\t// in\n    tag_278:\n        /* \"#utility.yul\":3585:3724   */\n      swap3\n      swap2\n      pop\n      pop\n      jump\t// out\n        /* \"#utility.yul\":3730:4059   */\n    tag_42:\n        /* \"#utility.yul\":3789:3795   */\n      0x00\n        /* \"#utility.yul\":3838:3840   */\n      0x20\n        /* \"#utility.yul\":3826:3835   */\n      dup3\n        /* \"#utility.yul\":3817:3824   */\n      dup5\n        /* \"#utility.yul\":3813:3836   */\n      sub\n        /* \"#utility.yul\":3809:3841   */\n      slt\n        /* \"#utility.yul\":3806:3925   */\n      iszero\n      tag_280\n      jumpi\n        /* \"#utility.yul\":3844:3923   */\n      tag_281\n      tag_182\n      jump\t// in\n    tag_281:\n        /* \"#utility.yul\":3806:3925   */\n    tag_280:\n        /* \"#utility.yul\":3964:3965   */\n      0x00\n        /* \"#utility.yul\":3989:4042   */\n      tag_282\n        /* \"#utility.yul\":4034:4041   */\n      dup5\n        /* \"#utility.yul\":4025:4031   */\n      dup3\n        /* \"#utility.yul\":4014:4023   */\n      dup6\n        /* \"#utility.yul\":4010:4032   */\n      add\n        /* \"#utility.yul\":3989:4042   */\n      tag_193\n      jump\t// in\n    tag_282:\n        /* \"#utility.yul\":3979:4042   */\n      swap2\n      pop\n        /* \"#utility.yul\":3935:4052   */\n      pop\n        /* \"#utility.yul\":3730:4059   */\n      swap3\n      swap2\n      pop\n      pop\n      jump\t// out\n        /* \"#utility.yul\":4065:4287   */\n    tag_45:\n        /* \"#utility.yul\":4158:4162   */\n      0x00\n        /* \"#utility.yul\":4196:4198   */\n      0x20\n        /* \"#utility.yul\":4185:4194   */\n      dup3\n        /* \"#utility.yul\":4181:4199   */\n      add\n        /* \"#utility.yul\":4173:4199   */\n      swap1\n      pop\n        /* \"#utility.yul\":4209:4280   */\n      tag_284\n        /* \"#utility.yul\":4277:4278   */\n      0x00\n        /* \"#utility.yul\":4266:4275   */\n      dup4\n        /* \"#utility.yul\":4262:4279   */\n      add\n        /* \"#utility.yul\":4253:4259   */\n      dup5\n        /* \"#utility.yul\":4209:4280   */\n      tag_178\n      jump\t// in\n    tag_284:\n        /* \"#utility.yul\":4065:4287   */\n      swap3\n      swap2\n      pop\n      pop\n      jump\t// out\n        /* \"#utility.yul\":4293:4622   */\n    tag_49:\n        /* \"#utility.yul\":4352:4358   */\n      0x00\n        /* \"#utility.yul\":4401:4403   */\n      0x20\n        /* \"#utility.yul\":4389:4398   */\n      dup3\n        /* \"#utility.yul\":4380:4387   */\n      dup5\n        /* \"#utility.yul\":4376:4399   */\n      sub\n        /* \"#utility.yul\":4372:4404   */\n      slt\n        /* \"#utility.yul\":4369:4488   */\n      iszero\n      tag_286\n      jumpi\n        /* \"#utility.yul\":4407:4486   */\n      tag_287\n      tag_182\n      jump\t// in\n    tag_287:\n        /* \"#utility.yul\":4369:4488   */\n    tag_286:\n        /* \"#utility.yul\":4527:4528   */\n      0x00\n        /* \"#utility.yul\":4552:4605   */\n      tag_288\n        /* \"#utility.yul\":4597:4604   */\n      dup5\n        /* \"#utility.yul\":4588:4594   */\n      dup3\n        /* \"#utility.yul\":4577:4586   */\n      dup6\n        /* \"#utility.yul\":4573:4595   */\n      add\n        /* \"#utility.yul\":4552:4605   */\n      tag_191\n      jump\t// in\n    tag_288:\n        /* \"#utility.yul\":4542:4605   */\n      swap2\n      pop\n        /* \"#utility.yul\":4498:4615   */\n      pop\n        /* \"#utility.yul\":4293:4622   */\n      swap3\n      swap2\n      pop\n      pop\n      jump\t// out\n        /* \"#utility.yul\":4628:4985   */\n    tag_60:\n        /* \"#utility.yul\":4701:4707   */\n      0x00\n        /* \"#utility.yul\":4750:4752   */\n      0x20\n        /* \"#utility.yul\":4738:4747   */\n      dup3\n        /* \"#utility.yul\":4729:4736   */\n      dup5\n        /* \"#utility.yul\":4725:4748   */\n      sub\n        /* \"#utility.yul\":4721:4753   */\n      slt\n        /* \"#utility.yul\":4718:4837   */\n      iszero\n      tag_290\n      jumpi\n        /* \"#utility.yul\":4756:4835   */\n      tag_291\n      tag_182\n      jump\t// in\n    tag_291:\n        /* \"#utility.yul\":4718:4837   */\n    tag_290:\n        /* \"#utility.yul\":4876:4877   */\n      0x00\n        /* \"#utility.yul\":4901:4968   */\n      tag_292\n        /* \"#utility.yul\":4960:4967   */\n      dup5\n        /* \"#utility.yul\":4951:4957   */\n      dup3\n        /* \"#utility.yul\":4940:4949   */\n      dup6\n        /* \"#utility.yul\":4936:4958   */\n      add\n        /* \"#utility.yul\":4901:4968   */\n      tag_189\n      jump\t// in\n    tag_292:\n        /* \"#utility.yul\":4891:4968   */\n      swap2\n      pop\n        /* \"#utility.yul\":4847:4978   */\n      pop\n        /* \"#utility.yul\":4628:4985   */\n      swap3\n      swap2\n      pop\n      pop\n      jump\t// out\n        /* \"#utility.yul\":4991:5160   */\n    tag_194:\n        /* \"#utility.yul\":5075:5086   */\n      0x00\n        /* \"#utility.yul\":5109:5115   */\n      dup3\n        /* \"#utility.yul\":5104:5107   */\n      dup3\n        /* \"#utility.yul\":5097:5116   */\n      mstore\n        /* \"#utility.yul\":5149:5153   */\n      0x20\n        /* \"#utility.yul\":5144:5147   */\n      dup3\n        /* \"#utility.yul\":5140:5154   */\n      add\n        /* \"#utility.yul\":5125:5154   */\n      swap1\n      pop\n        /* \"#utility.yul\":4991:5160   */\n      swap3\n      swap2\n      pop\n      pop\n      jump\t// out\n        /* \"#utility.yul\":5166:5391   */\n    tag_195:\n        /* \"#utility.yul\":5306:5340   */\n      0x5061796d656e7453706c69747465723a206163636f756e7420686173206e6f20\n        /* \"#utility.yul\":5302:5303   */\n      0x00\n        /* \"#utility.yul\":5294:5300   */\n      dup3\n        /* \"#utility.yul\":5290:5304   */\n      add\n        /* \"#utility.yul\":5283:5341   */\n      mstore\n        /* \"#utility.yul\":5375:5383   */\n      0x7368617265730000000000000000000000000000000000000000000000000000\n        /* \"#utility.yul\":5370:5372   */\n      0x20\n        /* \"#utility.yul\":5362:5368   */\n      dup3\n        /* \"#utility.yul\":5358:5373   */\n      add\n        /* \"#utility.yul\":5351:5384   */\n      mstore\n        /* \"#utility.yul\":5166:5391   */\n      pop\n      jump\t// out\n        /* \"#utility.yul\":5397:5763   */\n    tag_196:\n        /* \"#utility.yul\":5539:5542   */\n      0x00\n        /* \"#utility.yul\":5560:5627   */\n      tag_296\n        /* \"#utility.yul\":5624:5626   */\n      0x26\n        /* \"#utility.yul\":5619:5622   */\n      dup4\n        /* \"#utility.yul\":5560:5627   */\n      tag_194\n      jump\t// in\n    tag_296:\n        /* \"#utility.yul\":5553:5627   */\n      swap2\n      pop\n        /* \"#utility.yul\":5636:5729   */\n      tag_297\n        /* \"#utility.yul\":5725:5728   */\n      dup3\n        /* \"#utility.yul\":5636:5729   */\n      tag_195\n      jump\t// in\n    tag_297:\n        /* \"#utility.yul\":5754:5756   */\n      0x40\n        /* \"#utility.yul\":5749:5752   */\n      dup3\n        /* \"#utility.yul\":5745:5757   */\n      add\n        /* \"#utility.yul\":5738:5757   */\n      swap1\n      pop\n        /* \"#utility.yul\":5397:5763   */\n      swap2\n      swap1\n      pop\n      jump\t// out\n        /* \"#utility.yul\":5769:6188   */\n    tag_71:\n        /* \"#utility.yul\":5935:5939   */\n      0x00\n        /* \"#utility.yul\":5973:5975   */\n      0x20\n        /* \"#utility.yul\":5962:5971   */\n      dup3\n        /* \"#utility.yul\":5958:5976   */\n      add\n        /* \"#utility.yul\":5950:5976   */\n      swap1\n      pop\n        /* \"#utility.yul\":6022:6031   */\n      dup2\n        /* \"#utility.yul\":6016:6020   */\n      dup2\n        /* \"#utility.yul\":6012:6032   */\n      sub\n        /* \"#utility.yul\":6008:6009   */\n      0x00\n        /* \"#utility.yul\":5997:6006   */\n      dup4\n        /* \"#utility.yul\":5993:6010   */\n      add\n        /* \"#utility.yul\":5986:6033   */\n      mstore\n        /* \"#utility.yul\":6050:6181   */\n      tag_299\n        /* \"#utility.yul\":6176:6180   */\n      dup2\n        /* \"#utility.yul\":6050:6181   */\n      tag_196\n      jump\t// in\n    tag_299:\n        /* \"#utility.yul\":6042:6181   */\n      swap1\n      pop\n        /* \"#utility.yul\":5769:6188   */\n      swap2\n      swap1\n      pop\n      jump\t// out\n        /* \"#utility.yul\":6194:6374   */\n    tag_197:\n        /* \"#utility.yul\":6242:6319   */\n      0x4e487b7100000000000000000000000000000000000000000000000000000000\n        /* \"#utility.yul\":6239:6240   */\n      0x00\n        /* \"#utility.yul\":6232:6320   */\n      mstore\n        /* \"#utility.yul\":6339:6343   */\n      0x11\n        /* \"#utility.yul\":6336:6337   */\n      0x04\n        /* \"#utility.yul\":6329:6344   */\n      mstore\n        /* \"#utility.yul\":6363:6367   */\n      0x24\n        /* \"#utility.yul\":6360:6361   */\n      0x00\n        /* \"#utility.yul\":6353:6368   */\n      revert\n        /* \"#utility.yul\":6380:6685   */\n    tag_74:\n        /* \"#utility.yul\":6420:6423   */\n      0x00\n        /* \"#utility.yul\":6439:6459   */\n      tag_302\n        /* \"#utility.yul\":6457:6458   */\n      dup3\n        /* \"#utility.yul\":6439:6459   */\n      tag_179\n      jump\t// in\n    tag_302:\n        /* \"#utility.yul\":6434:6459   */\n      swap2\n      pop\n        /* \"#utility.yul\":6473:6493   */\n      tag_303\n        /* \"#utility.yul\":6491:6492   */\n      dup4\n        /* \"#utility.yul\":6473:6493   */\n      tag_179\n      jump\t// in\n    tag_303:\n        /* \"#utility.yul\":6468:6493   */\n      swap3\n      pop\n        /* \"#utility.yul\":6627:6628   */\n      dup3\n        /* \"#utility.yul\":6559:6625   */\n      0xffffffffffffffffffffffffffffffffffffffffffffffffffffffffffffffff\n        /* \"#utility.yul\":6555:6629   */\n      sub\n        /* \"#utility.yul\":6552:6553   */\n      dup3\n        /* \"#utility.yul\":6549:6630   */\n      gt\n        /* \"#utility.yul\":6546:6653   */\n      iszero\n      tag_304\n      jumpi\n        /* \"#utility.yul\":6633:6651   */\n      tag_305\n      tag_197\n      jump\t// in\n    tag_305:\n        /* \"#utility.yul\":6546:6653   */\n    tag_304:\n        /* \"#utility.yul\":6677:6678   */\n      dup3\n        /* \"#utility.yul\":6674:6675   */\n      dup3\n        /* \"#utility.yul\":6670:6679   */\n      add\n        /* \"#utility.yul\":6663:6679   */\n      swap1\n      pop\n        /* \"#utility.yul\":6380:6685   */\n      swap3\n      swap2\n      pop\n      pop\n      jump\t// out\n        /* \"#utility.yul\":6691:6921   */\n    tag_198:\n        /* \"#utility.yul\":6831:6865   */\n      0x5061796d656e7453706c69747465723a206163636f756e74206973206e6f7420\n        /* \"#utility.yul\":6827:6828   */\n      0x00\n        /* \"#utility.yul\":6819:6825   */\n      dup3\n        /* \"#utility.yul\":6815:6829   */\n      add\n        /* \"#utility.yul\":6808:6866   */\n      mstore\n        /* \"#utility.yul\":6900:6913   */\n      0x647565207061796d656e74000000000000000000000000000000000000000000\n        /* \"#utility.yul\":6895:6897   */\n      0x20\n        /* \"#utility.yul\":6887:6893   */\n      dup3\n        /* \"#utility.yul\":6883:6898   */\n      add\n        /* \"#utility.yul\":6876:6914   */\n      mstore\n        /* \"#utility.yul\":6691:6921   */\n      pop\n      jump\t// out\n        /* \"#utility.yul\":6927:7293   */\n    tag_199:\n        /* \"#utility.yul\":7069:7072   */\n      0x00\n        /* \"#utility.yul\":7090:7157   */\n      tag_308\n        /* \"#utility.yul\":7154:7156   */\n      0x2b\n        /* \"#utility.yul\":7149:7152   */\n      dup4\n        /* \"#utility.yul\":7090:7157   */\n      tag_194\n      jump\t// in\n    tag_308:\n        /* \"#utility.yul\":7083:7157   */\n      swap2\n      pop\n        /* \"#utility.yul\":7166:7259   */\n      tag_309\n        /* \"#utility.yul\":7255:7258   */\n      dup3\n        /* \"#utility.yul\":7166:7259   */\n      tag_198\n      jump\t// in\n    tag_309:\n        /* \"#utility.yul\":7284:7286   */\n      0x40\n        /* \"#utility.yul\":7279:7282   */\n      dup3\n        /* \"#utility.yul\":7275:7287   */\n      add\n        /* \"#utility.yul\":7268:7287   */\n      swap1\n      pop\n        /* \"#utility.yul\":6927:7293   */\n      swap2\n      swap1\n      pop\n      jump\t// out\n        /* \"#utility.yul\":7299:7718   */\n    tag_80:\n        /* \"#utility.yul\":7465:7469   */\n      0x00\n        /* \"#utility.yul\":7503:7505   */\n      0x20\n        /* \"#utility.yul\":7492:7501   */\n      dup3\n        /* \"#utility.yul\":7488:7506   */\n      add\n        /* \"#utility.yul\":7480:7506   */\n      swap1\n      pop\n        /* \"#utility.yul\":7552:7561   */\n      dup2\n        /* \"#utility.yul\":7546:7550   */\n      dup2\n        /* \"#utility.yul\":7542:7562   */\n      sub\n        /* \"#utility.yul\":7538:7539   */\n      0x00\n        /* \"#utility.yul\":7527:7536   */\n      dup4\n        /* \"#utility.yul\":7523:7540   */\n      add\n        /* \"#utility.yul\":7516:7563   */\n      mstore\n        /* \"#utility.yul\":7580:7711   */\n      tag_311\n        /* \"#utility.yul\":7706:7710   */\n      dup2\n        /* \"#utility.yul\":7580:7711   */\n      tag_199\n      jump\t// in\n    tag_311:\n        /* \"#utility.yul\":7572:7711   */\n      swap1\n      pop\n        /* \"#utility.yul\":7299:7718   */\n      swap2\n      swap1\n      pop\n      jump\t// out\n        /* \"#utility.yul\":7724:7784   */\n    tag_200:\n        /* \"#utility.yul\":7752:7755   */\n      0x00\n        /* \"#utility.yul\":7773:7778   */\n      dup2\n        /* \"#utility.yul\":7766:7778   */\n      swap1\n      pop\n        /* \"#utility.yul\":7724:7784   */\n      swap2\n      swap1\n      pop\n      jump\t// out\n        /* \"#utility.yul\":7790:7932   */\n    tag_201:\n        /* \"#utility.yul\":7840:7849   */\n      0x00\n        /* \"#utility.yul\":7873:7926   */\n      tag_314\n        /* \"#utility.yul\":7891:7925   */\n      tag_315\n        /* \"#utility.yul\":7900:7924   */\n      tag_316\n        /* \"#utility.yul\":7918:7923   */\n      dup5\n        /* \"#utility.yul\":7900:7924   */\n      tag_176\n      jump\t// in\n    tag_316:\n        /* \"#utility.yul\":7891:7925   */\n      tag_200\n      jump\t// in\n    tag_315:\n        /* \"#utility.yul\":7873:7926   */\n      tag_176\n      jump\t// in\n    tag_314:\n        /* \"#utility.yul\":7860:7926   */\n      swap1\n      pop\n        /* \"#utility.yul\":7790:7932   */\n      swap2\n      swap1\n      pop\n      jump\t// out\n        /* \"#utility.yul\":7938:8064   */\n    tag_202:\n        /* \"#utility.yul\":7988:7997   */\n      0x00\n        /* \"#utility.yul\":8021:8058   */\n      tag_318\n        /* \"#utility.yul\":8052:8057   */\n      dup3\n        /* \"#utility.yul\":8021:8058   */\n      tag_201\n      jump\t// in\n    tag_318:\n        /* \"#utility.yul\":8008:8058   */\n      swap1\n      pop\n        /* \"#utility.yul\":7938:8064   */\n      swap2\n      swap1\n      pop\n      jump\t// out\n        /* \"#utility.yul\":8070:8204   */\n    tag_203:\n        /* \"#utility.yul\":8128:8137   */\n      0x00\n        /* \"#utility.yul\":8161:8198   */\n      tag_320\n        /* \"#utility.yul\":8192:8197   */\n      dup3\n        /* \"#utility.yul\":8161:8198   */\n      tag_202\n      jump\t// in\n    tag_320:\n        /* \"#utility.yul\":8148:8198   */\n      swap1\n      pop\n        /* \"#utility.yul\":8070:8204   */\n      swap2\n      swap1\n      pop\n      jump\t// out\n        /* \"#utility.yul\":8210:8357   */\n    tag_204:\n        /* \"#utility.yul\":8305:8350   */\n      tag_322\n        /* \"#utility.yul\":8344:8349   */\n      dup2\n        /* \"#utility.yul\":8305:8350   */\n      tag_203\n      jump\t// in\n    tag_322:\n        /* \"#utility.yul\":8300:8303   */\n      dup3\n        /* \"#utility.yul\":8293:8351   */\n      mstore\n        /* \"#utility.yul\":8210:8357   */\n      pop\n      pop\n      jump\t// out\n        /* \"#utility.yul\":8363:8711   */\n    tag_86:\n        /* \"#utility.yul\":8492:8496   */\n      0x00\n        /* \"#utility.yul\":8530:8532   */\n      0x40\n        /* \"#utility.yul\":8519:8528   */\n      dup3\n        /* \"#utility.yul\":8515:8533   */\n      add\n        /* \"#utility.yul\":8507:8533   */\n      swap1\n      pop\n        /* \"#utility.yul\":8543:8622   */\n      tag_324\n        /* \"#utility.yul\":8619:8620   */\n      0x00\n        /* \"#utility.yul\":8608:8617   */\n      dup4\n        /* \"#utility.yul\":8604:8621   */\n      add\n        /* \"#utility.yul\":8595:8601   */\n      dup6\n        /* \"#utility.yul\":8543:8622   */\n      tag_204\n      jump\t// in\n    tag_324:\n        /* \"#utility.yul\":8632:8704   */\n      tag_325\n        /* \"#utility.yul\":8700:8702   */\n      0x20\n        /* \"#utility.yul\":8689:8698   */\n      dup4\n        /* \"#utility.yul\":8685:8703   */\n      add\n        /* \"#utility.yul\":8676:8682   */\n      dup5\n        /* \"#utility.yul\":8632:8704   */\n      tag_180\n      jump\t// in\n    tag_325:\n        /* \"#utility.yul\":8363:8711   */\n      swap4\n      swap3\n      pop\n      pop\n      pop\n      jump\t// out\n        /* \"#utility.yul\":8717:8860   */\n    tag_205:\n        /* \"#utility.yul\":8774:8779   */\n      0x00\n        /* \"#utility.yul\":8805:8811   */\n      dup2\n        /* \"#utility.yul\":8799:8812   */\n      mload\n        /* \"#utility.yul\":8790:8812   */\n      swap1\n      pop\n        /* \"#utility.yul\":8821:8854   */\n      tag_327\n        /* \"#utility.yul\":8848:8853   */\n      dup2\n        /* \"#utility.yul\":8821:8854   */\n      tag_192\n      jump\t// in\n    tag_327:\n        /* \"#utility.yul\":8717:8860   */\n      swap3\n      swap2\n      pop\n      pop\n      jump\t// out\n        /* \"#utility.yul\":8866:9217   */\n    tag_97:\n        /* \"#utility.yul\":8936:8942   */\n      0x00\n        /* \"#utility.yul\":8985:8987   */\n      0x20\n        /* \"#utility.yul\":8973:8982   */\n      dup3\n        /* \"#utility.yul\":8964:8971   */\n      dup5\n        /* \"#utility.yul\":8960:8983   */\n      sub\n        /* \"#utility.yul\":8956:8988   */\n      slt\n        /* \"#utility.yul\":8953:9072   */\n      iszero\n      tag_329\n      jumpi\n        /* \"#utility.yul\":8991:9070   */\n      tag_330\n      tag_182\n      jump\t// in\n    tag_330:\n        /* \"#utility.yul\":8953:9072   */\n    tag_329:\n        /* \"#utility.yul\":9111:9112   */\n      0x00\n        /* \"#utility.yul\":9136:9200   */\n      tag_331\n        /* \"#utility.yul\":9192:9199   */\n      dup5\n        /* \"#utility.yul\":9183:9189   */\n      dup3\n        /* \"#utility.yul\":9172:9181   */\n      dup6\n        /* \"#utility.yul\":9168:9190   */\n      add\n        /* \"#utility.yul\":9136:9200   */\n      tag_205\n      jump\t// in\n    tag_331:\n        /* \"#utility.yul\":9126:9200   */\n      swap2\n      pop\n        /* \"#utility.yul\":9082:9210   */\n      pop\n        /* \"#utility.yul\":8866:9217   */\n      swap3\n      swap2\n      pop\n      pop\n      jump\t// out\n        /* \"#utility.yul\":9223:9403   */\n    tag_111:\n        /* \"#utility.yul\":9271:9348   */\n      0x4e487b7100000000000000000000000000000000000000000000000000000000\n        /* \"#utility.yul\":9268:9269   */\n      0x00\n        /* \"#utility.yul\":9261:9349   */\n      mstore\n        /* \"#utility.yul\":9368:9372   */\n      0x32\n        /* \"#utility.yul\":9365:9366   */\n      0x04\n        /* \"#utility.yul\":9358:9373   */\n      mstore\n        /* \"#utility.yul\":9392:9396   */\n      0x24\n        /* \"#utility.yul\":9389:9390   */\n      0x00\n        /* \"#utility.yul\":9382:9397   */\n      revert\n        /* \"#utility.yul\":9409:9757   */\n    tag_119:\n        /* \"#utility.yul\":9449:9456   */\n      0x00\n        /* \"#utility.yul\":9472:9492   */\n      tag_334\n        /* \"#utility.yul\":9490:9491   */\n      dup3\n        /* \"#utility.yul\":9472:9492   */\n      tag_179\n      jump\t// in\n    tag_334:\n        /* \"#utility.yul\":9467:9492   */\n      swap2\n      pop\n        /* \"#utility.yul\":9506:9526   */\n      tag_335\n        /* \"#utility.yul\":9524:9525   */\n      dup4\n        /* \"#utility.yul\":9506:9526   */\n      tag_179\n      jump\t// in\n    tag_335:\n        /* \"#utility.yul\":9501:9526   */\n      swap3\n      pop\n        /* \"#utility.yul\":9694:9695   */\n      dup2\n        /* \"#utility.yul\":9626:9692   */\n      0xffffffffffffffffffffffffffffffffffffffffffffffffffffffffffffffff\n        /* \"#utility.yul\":9622:9696   */\n      div\n        /* \"#utility.yul\":9619:9620   */\n      dup4\n        /* \"#utility.yul\":9616:9697   */\n      gt\n        /* \"#utility.yul\":9611:9612   */\n      dup3\n        /* \"#utility.yul\":9604:9613   */\n      iszero\n        /* \"#utility.yul\":9597:9614   */\n      iszero\n        /* \"#utility.yul\":9593:9698   */\n      and\n        /* \"#utility.yul\":9590:9721   */\n      iszero\n      tag_336\n      jumpi\n        /* \"#utility.yul\":9701:9719   */\n      tag_337\n      tag_197\n      jump\t// in\n    tag_337:\n        /* \"#utility.yul\":9590:9721   */\n    tag_336:\n        /* \"#utility.yul\":9749:9750   */\n      dup3\n        /* \"#utility.yul\":9746:9747   */\n      dup3\n        /* \"#utility.yul\":9742:9751   */\n      mul\n        /* \"#utility.yul\":9731:9751   */\n      swap1\n      pop\n        /* \"#utility.yul\":9409:9757   */\n      swap3\n      swap2\n      pop\n      pop\n      jump\t// out\n        /* \"#utility.yul\":9763:9943   */\n    tag_206:\n        /* \"#utility.yul\":9811:9888   */\n      0x4e487b7100000000000000000000000000000000000000000000000000000000\n        /* \"#utility.yul\":9808:9809   */\n      0x00\n        /* \"#utility.yul\":9801:9889   */\n      mstore\n        /* \"#utility.yul\":9908:9912   */\n      0x12\n        /* \"#utility.yul\":9905:9906   */\n      0x04\n        /* \"#utility.yul\":9898:9913   */\n      mstore\n        /* \"#utility.yul\":9932:9936   */\n      0x24\n        /* \"#utility.yul\":9929:9930   */\n      0x00\n        /* \"#utility.yul\":9922:9937   */\n      revert\n        /* \"#utility.yul\":9949:10134   */\n    tag_121:\n        /* \"#utility.yul\":9989:9990   */\n      0x00\n        /* \"#utility.yul\":10006:10026   */\n      tag_340\n        /* \"#utility.yul\":10024:10025   */\n      dup3\n        /* \"#utility.yul\":10006:10026   */\n      tag_179\n      jump\t// in\n    tag_340:\n        /* \"#utility.yul\":10001:10026   */\n      swap2\n      pop\n        /* \"#utility.yul\":10040:10060   */\n      tag_341\n        /* \"#utility.yul\":10058:10059   */\n      dup4\n        /* \"#utility.yul\":10040:10060   */\n      tag_179\n      jump\t// in\n    tag_341:\n        /* \"#utility.yul\":10035:10060   */\n      swap3\n      pop\n        /* \"#utility.yul\":10079:10080   */\n      dup3\n        /* \"#utility.yul\":10069:10104   */\n      tag_342\n      jumpi\n        /* \"#utility.yul\":10084:10102   */\n      tag_343\n      tag_206\n      jump\t// in\n    tag_343:\n        /* \"#utility.yul\":10069:10104   */\n    tag_342:\n        /* \"#utility.yul\":10126:10127   */\n      dup3\n        /* \"#utility.yul\":10123:10124   */\n      dup3\n        /* \"#utility.yul\":10119:10128   */\n      div\n        /* \"#utility.yul\":10114:10128   */\n      swap1\n      pop\n        /* \"#utility.yul\":9949:10134   */\n      swap3\n      swap2\n      pop\n      pop\n      jump\t// out\n        /* \"#utility.yul\":10140:10331   */\n    tag_123:\n        /* \"#utility.yul\":10180:10184   */\n      0x00\n        /* \"#utility.yul\":10200:10220   */\n      tag_345\n        /* \"#utility.yul\":10218:10219   */\n      dup3\n        /* \"#utility.yul\":10200:10220   */\n      tag_179\n      jump\t// in\n    tag_345:\n        /* \"#utility.yul\":10195:10220   */\n      swap2\n      pop\n        /* \"#utility.yul\":10234:10254   */\n      tag_346\n        /* \"#utility.yul\":10252:10253   */\n      dup4\n        /* \"#utility.yul\":10234:10254   */\n      tag_179\n      jump\t// in\n    tag_346:\n        /* \"#utility.yul\":10229:10254   */\n      swap3\n      pop\n        /* \"#utility.yul\":10273:10274   */\n      dup3\n        /* \"#utility.yul\":10270:10271   */\n      dup3\n        /* \"#utility.yul\":10267:10275   */\n      lt\n        /* \"#utility.yul\":10264:10298   */\n      iszero\n      tag_347\n      jumpi\n        /* \"#utility.yul\":10278:10296   */\n      tag_348\n      tag_197\n      jump\t// in\n    tag_348:\n        /* \"#utility.yul\":10264:10298   */\n    tag_347:\n        /* \"#utility.yul\":10323:10324   */\n      dup3\n        /* \"#utility.yul\":10320:10321   */\n      dup3\n        /* \"#utility.yul\":10316:10325   */\n      sub\n        /* \"#utility.yul\":10308:10325   */\n      swap1\n      pop\n        /* \"#utility.yul\":10140:10331   */\n      swap3\n      swap2\n      pop\n      pop\n      jump\t// out\n        /* \"#utility.yul\":10337:10516   */\n    tag_207:\n        /* \"#utility.yul\":10477:10508   */\n      0x416464726573733a20696e73756666696369656e742062616c616e6365000000\n        /* \"#utility.yul\":10473:10474   */\n      0x00\n        /* \"#utility.yul\":10465:10471   */\n      dup3\n        /* \"#utility.yul\":10461:10475   */\n      add\n        /* \"#utility.yul\":10454:10509   */\n      mstore\n        /* \"#utility.yul\":10337:10516   */\n      pop\n      jump\t// out\n        /* \"#utility.yul\":10522:10888   */\n    tag_208:\n        /* \"#utility.yul\":10664:10667   */\n      0x00\n        /* \"#utility.yul\":10685:10752   */\n      tag_351\n        /* \"#utility.yul\":10749:10751   */\n      0x1d\n        /* \"#utility.yul\":10744:10747   */\n      dup4\n        /* \"#utility.yul\":10685:10752   */\n      tag_194\n      jump\t// in\n    tag_351:\n        /* \"#utility.yul\":10678:10752   */\n      swap2\n      pop\n        /* \"#utility.yul\":10761:10854   */\n      tag_352\n        /* \"#utility.yul\":10850:10853   */\n      dup3\n        /* \"#utility.yul\":10761:10854   */\n      tag_207\n      jump\t// in\n    tag_352:\n        /* \"#utility.yul\":10879:10881   */\n      0x20\n        /* \"#utility.yul\":10874:10877   */\n      dup3\n        /* \"#utility.yul\":10870:10882   */\n      add\n        /* \"#utility.yul\":10863:10882   */\n      swap1\n      pop\n        /* \"#utility.yul\":10522:10888   */\n      swap2\n      swap1\n      pop\n      jump\t// out\n        /* \"#utility.yul\":10894:11313   */\n    tag_127:\n        /* \"#utility.yul\":11060:11064   */\n      0x00\n        /* \"#utility.yul\":11098:11100   */\n      0x20\n        /* \"#utility.yul\":11087:11096   */\n      dup3\n        /* \"#utility.yul\":11083:11101   */\n      add\n        /* \"#utility.yul\":11075:11101   */\n      swap1\n      pop\n        /* \"#utility.yul\":11147:11156   */\n      dup2\n        /* \"#utility.yul\":11141:11145   */\n      dup2\n        /* \"#utility.yul\":11137:11157   */\n      sub\n        /* \"#utility.yul\":11133:11134   */\n      0x00\n        /* \"#utility.yul\":11122:11131   */\n      dup4\n        /* \"#utility.yul\":11118:11135   */\n      add\n        /* \"#utility.yul\":11111:11158   */\n      mstore\n        /* \"#utility.yul\":11175:11306   */\n      tag_354\n        /* \"#utility.yul\":11301:11305   */\n      dup2\n        /* \"#utility.yul\":11175:11306   */\n      tag_208\n      jump\t// in\n    tag_354:\n        /* \"#utility.yul\":11167:11306   */\n      swap1\n      pop\n        /* \"#utility.yul\":10894:11313   */\n      swap2\n      swap1\n      pop\n      jump\t// out\n        /* \"#utility.yul\":11319:11466   */\n    tag_209:\n        /* \"#utility.yul\":11420:11431   */\n      0x00\n        /* \"#utility.yul\":11457:11460   */\n      dup2\n        /* \"#utility.yul\":11442:11460   */\n      swap1\n      pop\n        /* \"#utility.yul\":11319:11466   */\n      swap3\n      swap2\n      pop\n      pop\n      jump\t// out\n        /* \"#utility.yul\":11472:11586   */\n    tag_210:\n      pop\n      jump\t// out\n        /* \"#utility.yul\":11592:11990   */\n    tag_211:\n        /* \"#utility.yul\":11751:11754   */\n      0x00\n        /* \"#utility.yul\":11772:11855   */\n      tag_358\n        /* \"#utility.yul\":11853:11854   */\n      0x00\n        /* \"#utility.yul\":11848:11851   */\n      dup4\n        /* \"#utility.yul\":11772:11855   */\n      tag_209\n      jump\t// in\n    tag_358:\n        /* \"#utility.yul\":11765:11855   */\n      swap2\n      pop\n        /* \"#utility.yul\":11864:11957   */\n      tag_359\n        /* \"#utility.yul\":11953:11956   */\n      dup3\n        /* \"#utility.yul\":11864:11957   */\n      tag_210\n      jump\t// in\n    tag_359:\n        /* \"#utility.yul\":11982:11983   */\n      0x00\n        /* \"#utility.yul\":11977:11980   */\n      dup3\n        /* \"#utility.yul\":11973:11984   */\n      add\n        /* \"#utility.yul\":11966:11984   */\n      swap1\n      pop\n        /* \"#utility.yul\":11592:11990   */\n      swap2\n      swap1\n      pop\n      jump\t// out\n        /* \"#utility.yul\":11996:12375   */\n    tag_129:\n        /* \"#utility.yul\":12180:12183   */\n      0x00\n        /* \"#utility.yul\":12202:12349   */\n      tag_361\n        /* \"#utility.yul\":12345:12348   */\n      dup3\n        /* \"#utility.yul\":12202:12349   */\n      tag_211\n      jump\t// in\n    tag_361:\n        /* \"#utility.yul\":12195:12349   */\n      swap2\n      pop\n        /* \"#utility.yul\":12366:12369   */\n      dup2\n        /* \"#utility.yul\":12359:12369   */\n      swap1\n      pop\n        /* \"#utility.yul\":11996:12375   */\n      swap2\n      swap1\n      pop\n      jump\t// out\n        /* \"#utility.yul\":12381:12626   */\n    tag_212:\n        /* \"#utility.yul\":12521:12555   */\n      0x416464726573733a20756e61626c6520746f2073656e642076616c75652c2072\n        /* \"#utility.yul\":12517:12518   */\n      0x00\n        /* \"#utility.yul\":12509:12515   */\n      dup3\n        /* \"#utility.yul\":12505:12519   */\n      add\n        /* \"#utility.yul\":12498:12556   */\n      mstore\n        /* \"#utility.yul\":12590:12618   */\n      0x6563697069656e74206d61792068617665207265766572746564000000000000\n        /* \"#utility.yul\":12585:12587   */\n      0x20\n        /* \"#utility.yul\":12577:12583   */\n      dup3\n        /* \"#utility.yul\":12573:12588   */\n      add\n        /* \"#utility.yul\":12566:12619   */\n      mstore\n        /* \"#utility.yul\":12381:12626   */\n      pop\n      jump\t// out\n        /* \"#utility.yul\":12632:12998   */\n    tag_213:\n        /* \"#utility.yul\":12774:12777   */\n      0x00\n        /* \"#utility.yul\":12795:12862   */\n      tag_364\n        /* \"#utility.yul\":12859:12861   */\n      0x3a\n        /* \"#utility.yul\":12854:12857   */\n      dup4\n        /* \"#utility.yul\":12795:12862   */\n      tag_194\n      jump\t// in\n    tag_364:\n        /* \"#utility.yul\":12788:12862   */\n      swap2\n      pop\n        /* \"#utility.yul\":12871:12964   */\n      tag_365\n        /* \"#utility.yul\":12960:12963   */\n      dup3\n        /* \"#utility.yul\":12871:12964   */\n      tag_212\n      jump\t// in\n    tag_365:\n        /* \"#utility.yul\":12989:12991   */\n      0x40\n        /* \"#utility.yul\":12984:12987   */\n      dup3\n        /* \"#utility.yul\":12980:12992   */\n      add\n        /* \"#utility.yul\":12973:12992   */\n      swap1\n      pop\n        /* \"#utility.yul\":12632:12998   */\n      swap2\n      swap1\n      pop\n      jump\t// out\n        /* \"#utility.yul\":13004:13423   */\n    tag_135:\n        /* \"#utility.yul\":13170:13174   */\n      0x00\n        /* \"#utility.yul\":13208:13210   */\n      0x20\n        /* \"#utility.yul\":13197:13206   */\n      dup3\n        /* \"#utility.yul\":13193:13211   */\n      add\n        /* \"#utility.yul\":13185:13211   */\n      swap1\n      pop\n        /* \"#utility.yul\":13257:13266   */\n      dup2\n        /* \"#utility.yul\":13251:13255   */\n      dup2\n        /* \"#utility.yul\":13247:13267   */\n      sub\n        /* \"#utility.yul\":13243:13244   */\n      0x00\n        /* \"#utility.yul\":13232:13241   */\n      dup4\n        /* \"#utility.yul\":13228:13245   */\n      add\n        /* \"#utility.yul\":13221:13268   */\n      mstore\n        /* \"#utility.yul\":13285:13416   */\n      tag_367\n        /* \"#utility.yul\":13411:13415   */\n      dup2\n        /* \"#utility.yul\":13285:13416   */\n      tag_213\n      jump\t// in\n    tag_367:\n        /* \"#utility.yul\":13277:13416   */\n      swap1\n      pop\n        /* \"#utility.yul\":13004:13423   */\n      swap2\n      swap1\n      pop\n      jump\t// out\n        /* \"#utility.yul\":13429:13519   */\n    tag_214:\n        /* \"#utility.yul\":13463:13470   */\n      0x00\n        /* \"#utility.yul\":13506:13511   */\n      dup2\n        /* \"#utility.yul\":13499:13512   */\n      iszero\n        /* \"#utility.yul\":13492:13513   */\n      iszero\n        /* \"#utility.yul\":13481:13513   */\n      swap1\n      pop\n        /* \"#utility.yul\":13429:13519   */\n      swap2\n      swap1\n      pop\n      jump\t// out\n        /* \"#utility.yul\":13525:13641   */\n    tag_215:\n        /* \"#utility.yul\":13595:13616   */\n      tag_370\n        /* \"#utility.yul\":13610:13615   */\n      dup2\n        /* \"#utility.yul\":13595:13616   */\n      tag_214\n      jump\t// in\n    tag_370:\n        /* \"#utility.yul\":13588:13593   */\n      dup2\n        /* \"#utility.yul\":13585:13617   */\n      eq\n        /* \"#utility.yul\":13575:13635   */\n      tag_371\n      jumpi\n        /* \"#utility.yul\":13631:13632   */\n      0x00\n        /* \"#utility.yul\":13628:13629   */\n      dup1\n        /* \"#utility.yul\":13621:13633   */\n      revert\n        /* \"#utility.yul\":13575:13635   */\n    tag_371:\n        /* \"#utility.yul\":13525:13641   */\n      pop\n      jump\t// out\n        /* \"#utility.yul\":13647:13784   */\n    tag_216:\n        /* \"#utility.yul\":13701:13706   */\n      0x00\n        /* \"#utility.yul\":13732:13738   */\n      dup2\n        /* \"#utility.yul\":13726:13739   */\n      mload\n        /* \"#utility.yul\":13717:13739   */\n      swap1\n      pop\n        /* \"#utility.yul\":13748:13778   */\n      tag_373\n        /* \"#utility.yul\":13772:13777   */\n      dup2\n        /* \"#utility.yul\":13748:13778   */\n      tag_215\n      jump\t// in\n    tag_373:\n        /* \"#utility.yul\":13647:13784   */\n      swap3\n      swap2\n      pop\n      pop\n      jump\t// out\n        /* \"#utility.yul\":13790:14135   */\n    tag_145:\n        /* \"#utility.yul\":13857:13863   */\n      0x00\n        /* \"#utility.yul\":13906:13908   */\n      0x20\n        /* \"#utility.yul\":13894:13903   */\n      dup3\n        /* \"#utility.yul\":13885:13892   */\n      dup5\n        /* \"#utility.yul\":13881:13904   */\n      sub\n        /* \"#utility.yul\":13877:13909   */\n      slt\n        /* \"#utility.yul\":13874:13993   */\n      iszero\n      tag_375\n      jumpi\n        /* \"#utility.yul\":13912:13991   */\n      tag_376\n      tag_182\n      jump\t// in\n    tag_376:\n        /* \"#utility.yul\":13874:13993   */\n    tag_375:\n        /* \"#utility.yul\":14032:14033   */\n      0x00\n        /* \"#utility.yul\":14057:14118   */\n      tag_377\n        /* \"#utility.yul\":14110:14117   */\n      dup5\n        /* \"#utility.yul\":14101:14107   */\n      dup3\n        /* \"#utility.yul\":14090:14099   */\n      dup6\n        /* \"#utility.yul\":14086:14108   */\n      add\n        /* \"#utility.yul\":14057:14118   */\n      tag_216\n      jump\t// in\n    tag_377:\n        /* \"#utility.yul\":14047:14118   */\n      swap2\n      pop\n        /* \"#utility.yul\":14003:14128   */\n      pop\n        /* \"#utility.yul\":13790:14135   */\n      swap3\n      swap2\n      pop\n      pop\n      jump\t// out\n        /* \"#utility.yul\":14141:14370   */\n    tag_217:\n        /* \"#utility.yul\":14281:14315   */\n      0x5361666545524332303a204552433230206f7065726174696f6e20646964206e\n        /* \"#utility.yul\":14277:14278   */\n      0x00\n        /* \"#utility.yul\":14269:14275   */\n      dup3\n        /* \"#utility.yul\":14265:14279   */\n      add\n        /* \"#utility.yul\":14258:14316   */\n      mstore\n        /* \"#utility.yul\":14350:14362   */\n      0x6f74207375636365656400000000000000000000000000000000000000000000\n        /* \"#utility.yul\":14345:14347   */\n      0x20\n        /* \"#utility.yul\":14337:14343   */\n      dup3\n        /* \"#utility.yul\":14333:14348   */\n      add\n        /* \"#utility.yul\":14326:14363   */\n      mstore\n        /* \"#utility.yul\":14141:14370   */\n      pop\n      jump\t// out\n        /* \"#utility.yul\":14376:14742   */\n    tag_218:\n        /* \"#utility.yul\":14518:14521   */\n      0x00\n        /* \"#utility.yul\":14539:14606   */\n      tag_380\n        /* \"#utility.yul\":14603:14605   */\n      0x2a\n        /* \"#utility.yul\":14598:14601   */\n      dup4\n        /* \"#utility.yul\":14539:14606   */\n      tag_194\n      jump\t// in\n    tag_380:\n        /* \"#utility.yul\":14532:14606   */\n      swap2\n      pop\n        /* \"#utility.yul\":14615:14708   */\n      tag_381\n        /* \"#utility.yul\":14704:14707   */\n      dup3\n        /* \"#utility.yul\":14615:14708   */\n      tag_217\n      jump\t// in\n    tag_381:\n        /* \"#utility.yul\":14733:14735   */\n      0x40\n        /* \"#utility.yul\":14728:14731   */\n      dup3\n        /* \"#utility.yul\":14724:14736   */\n      add\n        /* \"#utility.yul\":14717:14736   */\n      swap1\n      pop\n        /* \"#utility.yul\":14376:14742   */\n      swap2\n      swap1\n      pop\n      jump\t// out\n        /* \"#utility.yul\":14748:15167   */\n    tag_148:\n        /* \"#utility.yul\":14914:14918   */\n      0x00\n        /* \"#utility.yul\":14952:14954   */\n      0x20\n        /* \"#utility.yul\":14941:14950   */\n      dup3\n        /* \"#utility.yul\":14937:14955   */\n      add\n        /* \"#utility.yul\":14929:14955   */\n      swap1\n      pop\n        /* \"#utility.yul\":15001:15010   */\n      dup2\n        /* \"#utility.yul\":14995:14999   */\n      dup2\n        /* \"#utility.yul\":14991:15011   */\n      sub\n        /* \"#utility.yul\":14987:14988   */\n      0x00\n        /* \"#utility.yul\":14976:14985   */\n      dup4\n        /* \"#utility.yul\":14972:14989   */\n      add\n        /* \"#utility.yul\":14965:15012   */\n      mstore\n        /* \"#utility.yul\":15029:15160   */\n      tag_383\n        /* \"#utility.yul\":15155:15159   */\n      dup2\n        /* \"#utility.yul\":15029:15160   */\n      tag_218\n      jump\t// in\n    tag_383:\n        /* \"#utility.yul\":15021:15160   */\n      swap1\n      pop\n        /* \"#utility.yul\":14748:15167   */\n      swap2\n      swap1\n      pop\n      jump\t// out\n        /* \"#utility.yul\":15173:15398   */\n    tag_219:\n        /* \"#utility.yul\":15313:15347   */\n      0x416464726573733a20696e73756666696369656e742062616c616e636520666f\n        /* \"#utility.yul\":15309:15310   */\n      0x00\n        /* \"#utility.yul\":15301:15307   */\n      dup3\n        /* \"#utility.yul\":15297:15311   */\n      add\n        /* \"#utility.yul\":15290:15348   */\n      mstore\n        /* \"#utility.yul\":15382:15390   */\n      0x722063616c6c0000000000000000000000000000000000000000000000000000\n        /* \"#utility.yul\":15377:15379   */\n      0x20\n        /* \"#utility.yul\":15369:15375   */\n      dup3\n        /* \"#utility.yul\":15365:15380   */\n      add\n        /* \"#utility.yul\":15358:15391   */\n      mstore\n        /* \"#utility.yul\":15173:15398   */\n      pop\n      jump\t// out\n        /* \"#utility.yul\":15404:15770   */\n    tag_220:\n        /* \"#utility.yul\":15546:15549   */\n      0x00\n        /* \"#utility.yul\":15567:15634   */\n      tag_386\n        /* \"#utility.yul\":15631:15633   */\n      0x26\n        /* \"#utility.yul\":15626:15629   */\n      dup4\n        /* \"#utility.yul\":15567:15634   */\n      tag_194\n      jump\t// in\n    tag_386:\n        /* \"#utility.yul\":15560:15634   */\n      swap2\n      pop\n        /* \"#utility.yul\":15643:15736   */\n      tag_387\n        /* \"#utility.yul\":15732:15735   */\n      dup3\n        /* \"#utility.yul\":15643:15736   */\n      tag_219\n      jump\t// in\n    tag_387:\n        /* \"#utility.yul\":15761:15763   */\n      0x40\n        /* \"#utility.yul\":15756:15759   */\n      dup3\n        /* \"#utility.yul\":15752:15764   */\n      add\n        /* \"#utility.yul\":15745:15764   */\n      swap1\n      pop\n        /* \"#utility.yul\":15404:15770   */\n      swap2\n      swap1\n      pop\n      jump\t// out\n        /* \"#utility.yul\":15776:16195   */\n    tag_155:\n        /* \"#utility.yul\":15942:15946   */\n      0x00\n        /* \"#utility.yul\":15980:15982   */\n      0x20\n        /* \"#utility.yul\":15969:15978   */\n      dup3\n        /* \"#utility.yul\":15965:15983   */\n      add\n        /* \"#utility.yul\":15957:15983   */\n      swap1\n      pop\n        /* \"#utility.yul\":16029:16038   */\n      dup2\n        /* \"#utility.yul\":16023:16027   */\n      dup2\n        /* \"#utility.yul\":16019:16039   */\n      sub\n        /* \"#utility.yul\":16015:16016   */\n      0x00\n        /* \"#utility.yul\":16004:16013   */\n      dup4\n        /* \"#utility.yul\":16000:16017   */\n      add\n        /* \"#utility.yul\":15993:16040   */\n      mstore\n        /* \"#utility.yul\":16057:16188   */\n      tag_389\n        /* \"#utility.yul\":16183:16187   */\n      dup2\n        /* \"#utility.yul\":16057:16188   */\n      tag_220\n      jump\t// in\n    tag_389:\n        /* \"#utility.yul\":16049:16188   */\n      swap1\n      pop\n        /* \"#utility.yul\":15776:16195   */\n      swap2\n      swap1\n      pop\n      jump\t// out\n        /* \"#utility.yul\":16201:16380   */\n    tag_221:\n        /* \"#utility.yul\":16341:16372   */\n      0x416464726573733a2063616c6c20746f206e6f6e2d636f6e7472616374000000\n        /* \"#utility.yul\":16337:16338   */\n      0x00\n        /* \"#utility.yul\":16329:16335   */\n      dup3\n        /* \"#utility.yul\":16325:16339   */\n      add\n        /* \"#utility.yul\":16318:16373   */\n      mstore\n        /* \"#utility.yul\":16201:16380   */\n      pop\n      jump\t// out\n        /* \"#utility.yul\":16386:16752   */\n    tag_222:\n        /* \"#utility.yul\":16528:16531   */\n      0x00\n        /* \"#utility.yul\":16549:16616   */\n      tag_392\n        /* \"#utility.yul\":16613:16615   */\n      0x1d\n        /* \"#utility.yul\":16608:16611   */\n      dup4\n        /* \"#utility.yul\":16549:16616   */\n      tag_194\n      jump\t// in\n    tag_392:\n        /* \"#utility.yul\":16542:16616   */\n      swap2\n      pop\n        /* \"#utility.yul\":16625:16718   */\n      tag_393\n        /* \"#utility.yul\":16714:16717   */\n      dup3\n        /* \"#utility.yul\":16625:16718   */\n      tag_221\n      jump\t// in\n    tag_393:\n        /* \"#utility.yul\":16743:16745   */\n      0x20\n        /* \"#utility.yul\":16738:16741   */\n      dup3\n        /* \"#utility.yul\":16734:16746   */\n      add\n        /* \"#utility.yul\":16727:16746   */\n      swap1\n      pop\n        /* \"#utility.yul\":16386:16752   */\n      swap2\n      swap1\n      pop\n      jump\t// out\n        /* \"#utility.yul\":16758:17177   */\n    tag_160:\n        /* \"#utility.yul\":16924:16928   */\n      0x00\n        /* \"#utility.yul\":16962:16964   */\n      0x20\n        /* \"#utility.yul\":16951:16960   */\n      dup3\n        /* \"#utility.yul\":16947:16965   */\n      add\n        /* \"#utility.yul\":16939:16965   */\n      swap1\n      pop\n        /* \"#utility.yul\":17011:17020   */\n      dup2\n        /* \"#utility.yul\":17005:17009   */\n      dup2\n        /* \"#utility.yul\":17001:17021   */\n      sub\n        /* \"#utility.yul\":16997:16998   */\n      0x00\n        /* \"#utility.yul\":16986:16995   */\n      dup4\n        /* \"#utility.yul\":16982:16999   */\n      add\n        /* \"#utility.yul\":16975:17022   */\n      mstore\n        /* \"#utility.yul\":17039:17170   */\n      tag_395\n        /* \"#utility.yul\":17165:17169   */\n      dup2\n        /* \"#utility.yul\":17039:17170   */\n      tag_222\n      jump\t// in\n    tag_395:\n        /* \"#utility.yul\":17031:17170   */\n      swap1\n      pop\n        /* \"#utility.yul\":16758:17177   */\n      swap2\n      swap1\n      pop\n      jump\t// out\n        /* \"#utility.yul\":17183:17281   */\n    tag_223:\n        /* \"#utility.yul\":17234:17240   */\n      0x00\n        /* \"#utility.yul\":17268:17273   */\n      dup2\n        /* \"#utility.yul\":17262:17274   */\n      mload\n        /* \"#utility.yul\":17252:17274   */\n      swap1\n      pop\n        /* \"#utility.yul\":17183:17281   */\n      swap2\n      swap1\n      pop\n      jump\t// out\n        /* \"#utility.yul\":17287:17594   */\n    tag_224:\n        /* \"#utility.yul\":17355:17356   */\n      0x00\n        /* \"#utility.yul\":17365:17478   */\n    tag_398:\n        /* \"#utility.yul\":17379:17385   */\n      dup4\n        /* \"#utility.yul\":17376:17377   */\n      dup2\n        /* \"#utility.yul\":17373:17386   */\n      lt\n        /* \"#utility.yul\":17365:17478   */\n      iszero\n      tag_400\n      jumpi\n        /* \"#utility.yul\":17464:17465   */\n      dup1\n        /* \"#utility.yul\":17459:17462   */\n      dup3\n        /* \"#utility.yul\":17455:17466   */\n      add\n        /* \"#utility.yul\":17449:17467   */\n      mload\n        /* \"#utility.yul\":17445:17446   */\n      dup2\n        /* \"#utility.yul\":17440:17443   */\n      dup5\n        /* \"#utility.yul\":17436:17447   */\n      add\n        /* \"#utility.yul\":17429:17468   */\n      mstore\n        /* \"#utility.yul\":17401:17403   */\n      0x20\n        /* \"#utility.yul\":17398:17399   */\n      dup2\n        /* \"#utility.yul\":17394:17404   */\n      add\n        /* \"#utility.yul\":17389:17404   */\n      swap1\n      pop\n        /* \"#utility.yul\":17365:17478   */\n      jump(tag_398)\n    tag_400:\n        /* \"#utility.yul\":17496:17502   */\n      dup4\n        /* \"#utility.yul\":17493:17494   */\n      dup2\n        /* \"#utility.yul\":17490:17503   */\n      gt\n        /* \"#utility.yul\":17487:17588   */\n      iszero\n      tag_401\n      jumpi\n        /* \"#utility.yul\":17576:17577   */\n      0x00\n        /* \"#utility.yul\":17567:17573   */\n      dup5\n        /* \"#utility.yul\":17562:17565   */\n      dup5\n        /* \"#utility.yul\":17558:17574   */\n      add\n        /* \"#utility.yul\":17551:17578   */\n      mstore\n        /* \"#utility.yul\":17487:17588   */\n    tag_401:\n        /* \"#utility.yul\":17336:17594   */\n      pop\n        /* \"#utility.yul\":17287:17594   */\n      pop\n      pop\n      pop\n      jump\t// out\n        /* \"#utility.yul\":17600:17973   */\n    tag_225:\n        /* \"#utility.yul\":17704:17707   */\n      0x00\n        /* \"#utility.yul\":17732:17770   */\n      tag_403\n        /* \"#utility.yul\":17764:17769   */\n      dup3\n        /* \"#utility.yul\":17732:17770   */\n      tag_223\n      jump\t// in\n    tag_403:\n        /* \"#utility.yul\":17786:17874   */\n      tag_404\n        /* \"#utility.yul\":17867:17873   */\n      dup2\n        /* \"#utility.yul\":17862:17865   */\n      dup6\n        /* \"#utility.yul\":17786:17874   */\n      tag_209\n      jump\t// in\n    tag_404:\n        /* \"#utility.yul\":17779:17874   */\n      swap4\n      pop\n        /* \"#utility.yul\":17883:17935   */\n      tag_405\n        /* \"#utility.yul\":17928:17934   */\n      dup2\n        /* \"#utility.yul\":17923:17926   */\n      dup6\n        /* \"#utility.yul\":17916:17920   */\n      0x20\n        /* \"#utility.yul\":17909:17914   */\n      dup7\n        /* \"#utility.yul\":17905:17921   */\n      add\n        /* \"#utility.yul\":17883:17935   */\n      tag_224\n      jump\t// in\n    tag_405:\n        /* \"#utility.yul\":17960:17966   */\n      dup1\n        /* \"#utility.yul\":17955:17958   */\n      dup5\n        /* \"#utility.yul\":17951:17967   */\n      add\n        /* \"#utility.yul\":17944:17967   */\n      swap2\n      pop\n        /* \"#utility.yul\":17708:17973   */\n      pop\n        /* \"#utility.yul\":17600:17973   */\n      swap3\n      swap2\n      pop\n      pop\n      jump\t// out\n        /* \"#utility.yul\":17979:18250   */\n    tag_162:\n        /* \"#utility.yul\":18109:18112   */\n      0x00\n        /* \"#utility.yul\":18131:18224   */\n      tag_407\n        /* \"#utility.yul\":18220:18223   */\n      dup3\n        /* \"#utility.yul\":18211:18217   */\n      dup5\n        /* \"#utility.yul\":18131:18224   */\n      tag_225\n      jump\t// in\n    tag_407:\n        /* \"#utility.yul\":18124:18224   */\n      swap2\n      pop\n        /* \"#utility.yul\":18241:18244   */\n      dup2\n        /* \"#utility.yul\":18234:18244   */\n      swap1\n      pop\n        /* \"#utility.yul\":17979:18250   */\n      swap3\n      swap2\n      pop\n      pop\n      jump\t// out\n        /* \"#utility.yul\":18256:18355   */\n    tag_226:\n        /* \"#utility.yul\":18308:18314   */\n      0x00\n        /* \"#utility.yul\":18342:18347   */\n      dup2\n        /* \"#utility.yul\":18336:18348   */\n      mload\n        /* \"#utility.yul\":18326:18348   */\n      swap1\n      pop\n        /* \"#utility.yul\":18256:18355   */\n      swap2\n      swap1\n      pop\n      jump\t// out\n        /* \"#utility.yul\":18361:18463   */\n    tag_227:\n        /* \"#utility.yul\":18402:18408   */\n      0x00\n        /* \"#utility.yul\":18453:18455   */\n      0x1f\n        /* \"#utility.yul\":18449:18456   */\n      not\n        /* \"#utility.yul\":18444:18446   */\n      0x1f\n        /* \"#utility.yul\":18437:18442   */\n      dup4\n        /* \"#utility.yul\":18433:18447   */\n      add\n        /* \"#utility.yul\":18429:18457   */\n      and\n        /* \"#utility.yul\":18419:18457   */\n      swap1\n      pop\n        /* \"#utility.yul\":18361:18463   */\n      swap2\n      swap1\n      pop\n      jump\t// out\n        /* \"#utility.yul\":18469:18833   */\n    tag_228:\n        /* \"#utility.yul\":18557:18560   */\n      0x00\n        /* \"#utility.yul\":18585:18624   */\n      tag_411\n        /* \"#utility.yul\":18618:18623   */\n      dup3\n        /* \"#utility.yul\":18585:18624   */\n      tag_226\n      jump\t// in\n    tag_411:\n        /* \"#utility.yul\":18640:18711   */\n      tag_412\n        /* \"#utility.yul\":18704:18710   */\n      dup2\n        /* \"#utility.yul\":18699:18702   */\n      dup6\n        /* \"#utility.yul\":18640:18711   */\n      tag_194\n      jump\t// in\n    tag_412:\n        /* \"#utility.yul\":18633:18711   */\n      swap4\n      pop\n        /* \"#utility.yul\":18720:18772   */\n      tag_413\n        /* \"#utility.yul\":18765:18771   */\n      dup2\n        /* \"#utility.yul\":18760:18763   */\n      dup6\n        /* \"#utility.yul\":18753:18757   */\n      0x20\n        /* \"#utility.yul\":18746:18751   */\n      dup7\n        /* \"#utility.yul\":18742:18758   */\n      add\n        /* \"#utility.yul\":18720:18772   */\n      tag_224\n      jump\t// in\n    tag_413:\n        /* \"#utility.yul\":18797:18826   */\n      tag_414\n        /* \"#utility.yul\":18819:18825   */\n      dup2\n        /* \"#utility.yul\":18797:18826   */\n      tag_227\n      jump\t// in\n    tag_414:\n        /* \"#utility.yul\":18792:18795   */\n      dup5\n        /* \"#utility.yul\":18788:18827   */\n      add\n        /* \"#utility.yul\":18781:18827   */\n      swap2\n      pop\n        /* \"#utility.yul\":18561:18833   */\n      pop\n        /* \"#utility.yul\":18469:18833   */\n      swap3\n      swap2\n      pop\n      pop\n      jump\t// out\n        /* \"#utility.yul\":18839:19152   */\n    tag_175:\n        /* \"#utility.yul\":18952:18956   */\n      0x00\n        /* \"#utility.yul\":18990:18992   */\n      0x20\n        /* \"#utility.yul\":18979:18988   */\n      dup3\n        /* \"#utility.yul\":18975:18993   */\n      add\n        /* \"#utility.yul\":18967:18993   */\n      swap1\n      pop\n        /* \"#utility.yul\":19039:19048   */\n      dup2\n        /* \"#utility.yul\":19033:19037   */\n      dup2\n        /* \"#utility.yul\":19029:19049   */\n      sub\n        /* \"#utility.yul\":19025:19026   */\n      0x00\n        /* \"#utility.yul\":19014:19023   */\n      dup4\n        /* \"#utility.yul\":19010:19027   */\n      add\n        /* \"#utility.yul\":19003:19050   */\n      mstore\n        /* \"#utility.yul\":19067:19145   */\n      tag_416\n        /* \"#utility.yul\":19140:19144   */\n      dup2\n        /* \"#utility.yul\":19131:19137   */\n      dup5\n        /* \"#utility.yul\":19067:19145   */\n      tag_228\n      jump\t// in\n    tag_416:\n        /* \"#utility.yul\":19059:19145   */\n      swap1\n      pop\n        /* \"#utility.yul\":18839:19152   */\n      swap3\n      swap2\n      pop\n      pop\n      jump\t// out\n\n    auxdata: 0xa2646970667358221220a2b1b344447010e1c72c5040c8465349c469c4389eb78f187a255c6d1f747a6b64736f6c634300080e0033\n}\n",
				"bytecode": {
					"linkReferences": {},
					"object": "6080604052604051620022de380380620022de833981810160405281019062000029919062000667565b805182511462000070576040517f08c379a0000000000000000000000000000000000000000000000000000000008152600401620000679062000773565b60405180910390fd5b6000825111620000b7576040517f08c379a0000000000000000000000000000000000000000000000000000000008152600401620000ae90620007e5565b60405180910390fd5b60005b8251811015620001265762000110838281518110620000de57620000dd62000807565b5b6020026020010151838381518110620000fc57620000fb62000807565b5b60200260200101516200012f60201b60201c565b80806200011d9062000865565b915050620000ba565b50505062000b00565b600073ffffffffffffffffffffffffffffffffffffffff168273ffffffffffffffffffffffffffffffffffffffff1603620001a1576040517f08c379a0000000000000000000000000000000000000000000000000000000008152600401620001989062000928565b60405180910390fd5b60008111620001e7576040517f08c379a0000000000000000000000000000000000000000000000000000000008152600401620001de906200099a565b60405180910390fd5b6000600260008473ffffffffffffffffffffffffffffffffffffffff1673ffffffffffffffffffffffffffffffffffffffff16815260200190815260200160002054146200026c576040517f08c379a0000000000000000000000000000000000000000000000000000000008152600401620002639062000a32565b60405180910390fd5b6004829080600181540180825580915050600190039060005260206000200160009091909190916101000a81548173ffffffffffffffffffffffffffffffffffffffff021916908373ffffffffffffffffffffffffffffffffffffffff16021790555080600260008473ffffffffffffffffffffffffffffffffffffffff1673ffffffffffffffffffffffffffffffffffffffff168152602001908152602001600020819055508060005462000323919062000a54565b6000819055507f40c340f65e17194d14ddddb073d3c9f888e3cb52b5aae0c6c7706b4fbc905fac82826040516200035c92919062000ad3565b60405180910390a15050565b6000604051905090565b600080fd5b600080fd5b600080fd5b6000601f19601f8301169050919050565b7f4e487b7100000000000000000000000000000000000000000000000000000000600052604160045260246000fd5b620003cc8262000381565b810181811067ffffffffffffffff82111715620003ee57620003ed62000392565b5b80604052505050565b60006200040362000368565b9050620004118282620003c1565b919050565b600067ffffffffffffffff82111562000434576200043362000392565b5b602082029050602081019050919050565b600080fd5b600073ffffffffffffffffffffffffffffffffffffffff82169050919050565b600062000477826200044a565b9050919050565b62000489816200046a565b81146200049557600080fd5b50565b600081519050620004a9816200047e565b92915050565b6000620004c6620004c08462000416565b620003f7565b90508083825260208201905060208402830185811115620004ec57620004eb62000445565b5b835b8181101562000519578062000504888262000498565b845260208401935050602081019050620004ee565b5050509392505050565b600082601f8301126200053b576200053a6200037c565b5b81516200054d848260208601620004af565b91505092915050565b600067ffffffffffffffff82111562000574576200057362000392565b5b602082029050602081019050919050565b6000819050919050565b6200059a8162000585565b8114620005a657600080fd5b50565b600081519050620005ba816200058f565b92915050565b6000620005d7620005d18462000556565b620003f7565b90508083825260208201905060208402830185811115620005fd57620005fc62000445565b5b835b818110156200062a5780620006158882620005a9565b845260208401935050602081019050620005ff565b5050509392505050565b600082601f8301126200064c576200064b6200037c565b5b81516200065e848260208601620005c0565b91505092915050565b6000806040838503121562000681576200068062000372565b5b600083015167ffffffffffffffff811115620006a257620006a162000377565b5b620006b08582860162000523565b925050602083015167ffffffffffffffff811115620006d457620006d362000377565b5b620006e28582860162000634565b9150509250929050565b600082825260208201905092915050565b7f5061796d656e7453706c69747465723a2070617965657320616e64207368617260008201527f6573206c656e677468206d69736d617463680000000000000000000000000000602082015250565b60006200075b603283620006ec565b91506200076882620006fd565b604082019050919050565b600060208201905081810360008301526200078e816200074c565b9050919050565b7f5061796d656e7453706c69747465723a206e6f20706179656573000000000000600082015250565b6000620007cd601a83620006ec565b9150620007da8262000795565b602082019050919050565b600060208201905081810360008301526200080081620007be565b9050919050565b7f4e487b7100000000000000000000000000000000000000000000000000000000600052603260045260246000fd5b7f4e487b7100000000000000000000000000000000000000000000000000000000600052601160045260246000fd5b6000620008728262000585565b91507fffffffffffffffffffffffffffffffffffffffffffffffffffffffffffffffff8203620008a757620008a662000836565b5b600182019050919050565b7f5061796d656e7453706c69747465723a206163636f756e74206973207468652060008201527f7a65726f20616464726573730000000000000000000000000000000000000000602082015250565b600062000910602c83620006ec565b91506200091d82620008b2565b604082019050919050565b60006020820190508181036000830152620009438162000901565b9050919050565b7f5061796d656e7453706c69747465723a20736861726573206172652030000000600082015250565b600062000982601d83620006ec565b91506200098f826200094a565b602082019050919050565b60006020820190508181036000830152620009b58162000973565b9050919050565b7f5061796d656e7453706c69747465723a206163636f756e7420616c726561647960008201527f2068617320736861726573000000000000000000000000000000000000000000602082015250565b600062000a1a602b83620006ec565b915062000a2782620009bc565b604082019050919050565b6000602082019050818103600083015262000a4d8162000a0b565b9050919050565b600062000a618262000585565b915062000a6e8362000585565b9250827fffffffffffffffffffffffffffffffffffffffffffffffffffffffffffffffff0382111562000aa65762000aa562000836565b5b828201905092915050565b62000abc816200046a565b82525050565b62000acd8162000585565b82525050565b600060408201905062000aea600083018562000ab1565b62000af9602083018462000ac2565b9392505050565b6117ce8062000b106000396000f3fe60806040526004361061008a5760003560e01c80638b83209b116100595780638b83209b146101905780639852595c146101cd578063ce7c2ac21461020a578063d79779b214610247578063e33b7de314610284576100d1565b806319165587146100d65780633a98ef39146100ff578063406072a91461012a57806348b7504414610167576100d1565b366100d1577f6ef95f06320e7a25a04a175ca677b7052bdd97131872c2192525a629f51be7706100b86102af565b346040516100c7929190610d95565b60405180910390a1005b600080fd5b3480156100e257600080fd5b506100fd60048036038101906100f89190610e01565b6102b7565b005b34801561010b57600080fd5b50610114610461565b6040516101219190610e2e565b60405180910390f35b34801561013657600080fd5b50610151600480360381019061014c9190610eb3565b61046a565b60405161015e9190610e2e565b60405180910390f35b34801561017357600080fd5b5061018e60048036038101906101899190610eb3565b6104f1565b005b34801561019c57600080fd5b506101b760048036038101906101b29190610f1f565b6107a9565b6040516101c49190610f4c565b60405180910390f35b3480156101d957600080fd5b506101f460048036038101906101ef9190610f67565b6107f1565b6040516102019190610e2e565b60405180910390f35b34801561021657600080fd5b50610231600480360381019061022c9190610f67565b61083a565b60405161023e9190610e2e565b60405180910390f35b34801561025357600080fd5b5061026e60048036038101906102699190610f94565b610883565b60405161027b9190610e2e565b60405180910390f35b34801561029057600080fd5b506102996108cc565b6040516102a69190610e2e565b60405180910390f35b600033905090565b6000600260008373ffffffffffffffffffffffffffffffffffffffff1673ffffffffffffffffffffffffffffffffffffffff1681526020019081526020016000205411610339576040517f08c379a000000000000000000000000000000000000000000000000000000000815260040161033090611044565b60405180910390fd5b60006103436108cc565b4761034e9190611093565b905060006103658383610360866107f1565b6108d6565b9050600081036103aa576040517f08c379a00000000000000000000000000000000000000000000000000000000081526004016103a19061115b565b60405180910390fd5b80600360008573ffffffffffffffffffffffffffffffffffffffff1673ffffffffffffffffffffffffffffffffffffffff16815260200190815260200160002060008282546103f99190611093565b9250508190555080600160008282546104129190611093565b925050819055506104238382610944565b7fdf20fd1e76bc69d672e4814fafb2c449bba3a5369d8359adf9e05e6fde87b05683826040516104549291906111da565b60405180910390a1505050565b60008054905090565b6000600660008473ffffffffffffffffffffffffffffffffffffffff1673ffffffffffffffffffffffffffffffffffffffff16815260200190815260200160002060008373ffffffffffffffffffffffffffffffffffffffff1673ffffffffffffffffffffffffffffffffffffffff16815260200190815260200160002054905092915050565b6000600260008373ffffffffffffffffffffffffffffffffffffffff1673ffffffffffffffffffffffffffffffffffffffff1681526020019081526020016000205411610573576040517f08c379a000000000000000000000000000000000000000000000000000000000815260040161056a90611044565b60405180910390fd5b600061057e83610883565b8373ffffffffffffffffffffffffffffffffffffffff166370a08231306040518263ffffffff1660e01b81526004016105b79190610f4c565b602060405180830381865afa1580156105d4573d6000803e3d6000fd5b505050506040513d601f19601f820116820180604052508101906105f89190611218565b6106029190611093565b9050600061061a8383610615878761046a565b6108d6565b90506000810361065f576040517f08c379a00000000000000000000000000000000000000000000000000000000081526004016106569061115b565b60405180910390fd5b80600660008673ffffffffffffffffffffffffffffffffffffffff1673ffffffffffffffffffffffffffffffffffffffff16815260200190815260200160002060008573ffffffffffffffffffffffffffffffffffffffff1673ffffffffffffffffffffffffffffffffffffffff16815260200190815260200160002060008282546106eb9190611093565b9250508190555080600560008673ffffffffffffffffffffffffffffffffffffffff1673ffffffffffffffffffffffffffffffffffffffff16815260200190815260200160002060008282546107419190611093565b92505081905550610753848483610a38565b8373ffffffffffffffffffffffffffffffffffffffff167f3be5b7a71e84ed12875d241991c70855ac5817d847039e17a9d895c1ceb0f18a848360405161079b929190610d95565b60405180910390a250505050565b6000600482815481106107bf576107be611245565b5b9060005260206000200160009054906101000a900473ffffffffffffffffffffffffffffffffffffffff169050919050565b6000600360008373ffffffffffffffffffffffffffffffffffffffff1673ffffffffffffffffffffffffffffffffffffffff168152602001908152602001600020549050919050565b6000600260008373ffffffffffffffffffffffffffffffffffffffff1673ffffffffffffffffffffffffffffffffffffffff168152602001908152602001600020549050919050565b6000600560008373ffffffffffffffffffffffffffffffffffffffff1673ffffffffffffffffffffffffffffffffffffffff168152602001908152602001600020549050919050565b6000600154905090565b600081600054600260008773ffffffffffffffffffffffffffffffffffffffff1673ffffffffffffffffffffffffffffffffffffffff16815260200190815260200160002054856109279190611274565b61093191906112fd565b61093b919061132e565b90509392505050565b80471015610987576040517f08c379a000000000000000000000000000000000000000000000000000000000815260040161097e906113ae565b60405180910390fd5b60008273ffffffffffffffffffffffffffffffffffffffff16826040516109ad906113ff565b60006040518083038185875af1925050503d80600081146109ea576040519150601f19603f3d011682016040523d82523d6000602084013e6109ef565b606091505b5050905080610a33576040517f08c379a0000000000000000000000000000000000000000000000000000000008152600401610a2a90611486565b60405180910390fd5b505050565b610ab98363a9059cbb60e01b8484604051602401610a57929190610d95565b604051602081830303815290604052907bffffffffffffffffffffffffffffffffffffffffffffffffffffffff19166020820180517bffffffffffffffffffffffffffffffffffffffffffffffffffffffff8381831617835250505050610abe565b505050565b6000610b20826040518060400160405280602081526020017f5361666545524332303a206c6f772d6c6576656c2063616c6c206661696c65648152508573ffffffffffffffffffffffffffffffffffffffff16610b859092919063ffffffff16565b9050600081511115610b805780806020019051810190610b4091906114de565b610b7f576040517f08c379a0000000000000000000000000000000000000000000000000000000008152600401610b769061157d565b60405180910390fd5b5b505050565b6060610b948484600085610b9d565b90509392505050565b606082471015610be2576040517f08c379a0000000000000000000000000000000000000000000000000000000008152600401610bd99061160f565b60405180910390fd5b610beb85610cb1565b610c2a576040517f08c379a0000000000000000000000000000000000000000000000000000000008152600401610c219061167b565b60405180910390fd5b6000808673ffffffffffffffffffffffffffffffffffffffff168587604051610c53919061170a565b60006040518083038185875af1925050503d8060008114610c90576040519150601f19603f3d011682016040523d82523d6000602084013e610c95565b606091505b5091509150610ca5828286610cd4565b92505050949350505050565b6000808273ffffffffffffffffffffffffffffffffffffffff163b119050919050565b60608315610ce457829050610d34565b600083511115610cf75782518084602001fd5b816040517f08c379a0000000000000000000000000000000000000000000000000000000008152600401610d2b9190611776565b60405180910390fd5b9392505050565b600073ffffffffffffffffffffffffffffffffffffffff82169050919050565b6000610d6682610d3b565b9050919050565b610d7681610d5b565b82525050565b6000819050919050565b610d8f81610d7c565b82525050565b6000604082019050610daa6000830185610d6d565b610db76020830184610d86565b9392505050565b600080fd5b6000610dce82610d3b565b9050919050565b610dde81610dc3565b8114610de957600080fd5b50565b600081359050610dfb81610dd5565b92915050565b600060208284031215610e1757610e16610dbe565b5b6000610e2584828501610dec565b91505092915050565b6000602082019050610e436000830184610d86565b92915050565b6000610e5482610d5b565b9050919050565b610e6481610e49565b8114610e6f57600080fd5b50565b600081359050610e8181610e5b565b92915050565b610e9081610d5b565b8114610e9b57600080fd5b50565b600081359050610ead81610e87565b92915050565b60008060408385031215610eca57610ec9610dbe565b5b6000610ed885828601610e72565b9250506020610ee985828601610e9e565b9150509250929050565b610efc81610d7c565b8114610f0757600080fd5b50565b600081359050610f1981610ef3565b92915050565b600060208284031215610f3557610f34610dbe565b5b6000610f4384828501610f0a565b91505092915050565b6000602082019050610f616000830184610d6d565b92915050565b600060208284031215610f7d57610f7c610dbe565b5b6000610f8b84828501610e9e565b91505092915050565b600060208284031215610faa57610fa9610dbe565b5b6000610fb884828501610e72565b91505092915050565b600082825260208201905092915050565b7f5061796d656e7453706c69747465723a206163636f756e7420686173206e6f2060008201527f7368617265730000000000000000000000000000000000000000000000000000602082015250565b600061102e602683610fc1565b915061103982610fd2565b604082019050919050565b6000602082019050818103600083015261105d81611021565b9050919050565b7f4e487b7100000000000000000000000000000000000000000000000000000000600052601160045260246000fd5b600061109e82610d7c565b91506110a983610d7c565b9250827fffffffffffffffffffffffffffffffffffffffffffffffffffffffffffffffff038211156110de576110dd611064565b5b828201905092915050565b7f5061796d656e7453706c69747465723a206163636f756e74206973206e6f742060008201527f647565207061796d656e74000000000000000000000000000000000000000000602082015250565b6000611145602b83610fc1565b9150611150826110e9565b604082019050919050565b6000602082019050818103600083015261117481611138565b9050919050565b6000819050919050565b60006111a061119b61119684610d3b565b61117b565b610d3b565b9050919050565b60006111b282611185565b9050919050565b60006111c4826111a7565b9050919050565b6111d4816111b9565b82525050565b60006040820190506111ef60008301856111cb565b6111fc6020830184610d86565b9392505050565b60008151905061121281610ef3565b92915050565b60006020828403121561122e5761122d610dbe565b5b600061123c84828501611203565b91505092915050565b7f4e487b7100000000000000000000000000000000000000000000000000000000600052603260045260246000fd5b600061127f82610d7c565b915061128a83610d7c565b9250817fffffffffffffffffffffffffffffffffffffffffffffffffffffffffffffffff04831182151516156112c3576112c2611064565b5b828202905092915050565b7f4e487b7100000000000000000000000000000000000000000000000000000000600052601260045260246000fd5b600061130882610d7c565b915061131383610d7c565b925082611323576113226112ce565b5b828204905092915050565b600061133982610d7c565b915061134483610d7c565b92508282101561135757611356611064565b5b828203905092915050565b7f416464726573733a20696e73756666696369656e742062616c616e6365000000600082015250565b6000611398601d83610fc1565b91506113a382611362565b602082019050919050565b600060208201905081810360008301526113c78161138b565b9050919050565b600081905092915050565b50565b60006113e96000836113ce565b91506113f4826113d9565b600082019050919050565b600061140a826113dc565b9150819050919050565b7f416464726573733a20756e61626c6520746f2073656e642076616c75652c207260008201527f6563697069656e74206d61792068617665207265766572746564000000000000602082015250565b6000611470603a83610fc1565b915061147b82611414565b604082019050919050565b6000602082019050818103600083015261149f81611463565b9050919050565b60008115159050919050565b6114bb816114a6565b81146114c657600080fd5b50565b6000815190506114d8816114b2565b92915050565b6000602082840312156114f4576114f3610dbe565b5b6000611502848285016114c9565b91505092915050565b7f5361666545524332303a204552433230206f7065726174696f6e20646964206e60008201527f6f74207375636365656400000000000000000000000000000000000000000000602082015250565b6000611567602a83610fc1565b91506115728261150b565b604082019050919050565b600060208201905081810360008301526115968161155a565b9050919050565b7f416464726573733a20696e73756666696369656e742062616c616e636520666f60008201527f722063616c6c0000000000000000000000000000000000000000000000000000602082015250565b60006115f9602683610fc1565b91506116048261159d565b604082019050919050565b60006020820190508181036000830152611628816115ec565b9050919050565b7f416464726573733a2063616c6c20746f206e6f6e2d636f6e7472616374000000600082015250565b6000611665601d83610fc1565b91506116708261162f565b602082019050919050565b6000602082019050818103600083015261169481611658565b9050919050565b600081519050919050565b60005b838110156116c45780820151818401526020810190506116a9565b838111156116d3576000848401525b50505050565b60006116e48261169b565b6116ee81856113ce565b93506116fe8185602086016116a6565b80840191505092915050565b600061171682846116d9565b915081905092915050565b600081519050919050565b6000601f19601f8301169050919050565b600061174882611721565b6117528185610fc1565b93506117628185602086016116a6565b61176b8161172c565b840191505092915050565b60006020820190508181036000830152611790818461173d565b90509291505056fea2646970667358221220a2b1b344447010e1c72c5040c8465349c469c4389eb78f187a255c6d1f747a6b64736f6c634300080e0033",
					"opcodes": "PUSH1 0x80 PUSH1 0x40 MSTORE PUSH1 0x40 MLOAD PUSH3 0x22DE CODESIZE SUB DUP1 PUSH3 0x22DE DUP4 CODECOPY DUP2 DUP2 ADD PUSH1 0x40 MSTORE DUP2 ADD SWAP1 PUSH3 0x29 SWAP2 SWAP1 PUSH3 0x667 JUMP JUMPDEST DUP1 MLOAD DUP3 MLOAD EQ PUSH3 0x70 JUMPI PUSH1 0x40 MLOAD PUSH32 0x8C379A000000000000000000000000000000000000000000000000000000000 DUP2 MSTORE PUSH1 0x4 ADD PUSH3 0x67 SWAP1 PUSH3 0x773 JUMP JUMPDEST PUSH1 0x40 MLOAD DUP1 SWAP2 SUB SWAP1 REVERT JUMPDEST PUSH1 0x0 DUP3 MLOAD GT PUSH3 0xB7 JUMPI PUSH1 0x40 MLOAD PUSH32 0x8C379A000000000000000000000000000000000000000000000000000000000 DUP2 MSTORE PUSH1 0x4 ADD PUSH3 0xAE SWAP1 PUSH3 0x7E5 JUMP JUMPDEST PUSH1 0x40 MLOAD DUP1 SWAP2 SUB SWAP1 REVERT JUMPDEST PUSH1 0x0 JUMPDEST DUP3 MLOAD DUP2 LT ISZERO PUSH3 0x126 JUMPI PUSH3 0x110 DUP4 DUP3 DUP2 MLOAD DUP2 LT PUSH3 0xDE JUMPI PUSH3 0xDD PUSH3 0x807 JUMP JUMPDEST JUMPDEST PUSH1 0x20 MUL PUSH1 0x20 ADD ADD MLOAD DUP4 DUP4 DUP2 MLOAD DUP2 LT PUSH3 0xFC JUMPI PUSH3 0xFB PUSH3 0x807 JUMP JUMPDEST JUMPDEST PUSH1 0x20 MUL PUSH1 0x20 ADD ADD MLOAD PUSH3 0x12F PUSH1 0x20 SHL PUSH1 0x20 SHR JUMP JUMPDEST DUP1 DUP1 PUSH3 0x11D SWAP1 PUSH3 0x865 JUMP JUMPDEST SWAP2 POP POP PUSH3 0xBA JUMP JUMPDEST POP POP POP PUSH3 0xB00 JUMP JUMPDEST PUSH1 0x0 PUSH20 0xFFFFFFFFFFFFFFFFFFFFFFFFFFFFFFFFFFFFFFFF AND DUP3 PUSH20 0xFFFFFFFFFFFFFFFFFFFFFFFFFFFFFFFFFFFFFFFF AND SUB PUSH3 0x1A1 JUMPI PUSH1 0x40 MLOAD PUSH32 0x8C379A000000000000000000000000000000000000000000000000000000000 DUP2 MSTORE PUSH1 0x4 ADD PUSH3 0x198 SWAP1 PUSH3 0x928 JUMP JUMPDEST PUSH1 0x40 MLOAD DUP1 SWAP2 SUB SWAP1 REVERT JUMPDEST PUSH1 0x0 DUP2 GT PUSH3 0x1E7 JUMPI PUSH1 0x40 MLOAD PUSH32 0x8C379A000000000000000000000000000000000000000000000000000000000 DUP2 MSTORE PUSH1 0x4 ADD PUSH3 0x1DE SWAP1 PUSH3 0x99A JUMP JUMPDEST PUSH1 0x40 MLOAD DUP1 SWAP2 SUB SWAP1 REVERT JUMPDEST PUSH1 0x0 PUSH1 0x2 PUSH1 0x0 DUP5 PUSH20 0xFFFFFFFFFFFFFFFFFFFFFFFFFFFFFFFFFFFFFFFF AND PUSH20 0xFFFFFFFFFFFFFFFFFFFFFFFFFFFFFFFFFFFFFFFF AND DUP2 MSTORE PUSH1 0x20 ADD SWAP1 DUP2 MSTORE PUSH1 0x20 ADD PUSH1 0x0 KECCAK256 SLOAD EQ PUSH3 0x26C JUMPI PUSH1 0x40 MLOAD PUSH32 0x8C379A000000000000000000000000000000000000000000000000000000000 DUP2 MSTORE PUSH1 0x4 ADD PUSH3 0x263 SWAP1 PUSH3 0xA32 JUMP JUMPDEST PUSH1 0x40 MLOAD DUP1 SWAP2 SUB SWAP1 REVERT JUMPDEST PUSH1 0x4 DUP3 SWAP1 DUP1 PUSH1 0x1 DUP2 SLOAD ADD DUP1 DUP3 SSTORE DUP1 SWAP2 POP POP PUSH1 0x1 SWAP1 SUB SWAP1 PUSH1 0x0 MSTORE PUSH1 0x20 PUSH1 0x0 KECCAK256 ADD PUSH1 0x0 SWAP1 SWAP2 SWAP1 SWAP2 SWAP1 SWAP2 PUSH2 0x100 EXP DUP2 SLOAD DUP2 PUSH20 0xFFFFFFFFFFFFFFFFFFFFFFFFFFFFFFFFFFFFFFFF MUL NOT AND SWAP1 DUP4 PUSH20 0xFFFFFFFFFFFFFFFFFFFFFFFFFFFFFFFFFFFFFFFF AND MUL OR SWAP1 SSTORE POP DUP1 PUSH1 0x2 PUSH1 0x0 DUP5 PUSH20 0xFFFFFFFFFFFFFFFFFFFFFFFFFFFFFFFFFFFFFFFF AND PUSH20 0xFFFFFFFFFFFFFFFFFFFFFFFFFFFFFFFFFFFFFFFF AND DUP2 MSTORE PUSH1 0x20 ADD SWAP1 DUP2 MSTORE PUSH1 0x20 ADD PUSH1 0x0 KECCAK256 DUP2 SWAP1 SSTORE POP DUP1 PUSH1 0x0 SLOAD PUSH3 0x323 SWAP2 SWAP1 PUSH3 0xA54 JUMP JUMPDEST PUSH1 0x0 DUP2 SWAP1 SSTORE POP PUSH32 0x40C340F65E17194D14DDDDB073D3C9F888E3CB52B5AAE0C6C7706B4FBC905FAC DUP3 DUP3 PUSH1 0x40 MLOAD PUSH3 0x35C SWAP3 SWAP2 SWAP1 PUSH3 0xAD3 JUMP JUMPDEST PUSH1 0x40 MLOAD DUP1 SWAP2 SUB SWAP1 LOG1 POP POP JUMP JUMPDEST PUSH1 0x0 PUSH1 0x40 MLOAD SWAP1 POP SWAP1 JUMP JUMPDEST PUSH1 0x0 DUP1 REVERT JUMPDEST PUSH1 0x0 DUP1 REVERT JUMPDEST PUSH1 0x0 DUP1 REVERT JUMPDEST PUSH1 0x0 PUSH1 0x1F NOT PUSH1 0x1F DUP4 ADD AND SWAP1 POP SWAP2 SWAP1 POP JUMP JUMPDEST PUSH32 0x4E487B7100000000000000000000000000000000000000000000000000000000 PUSH1 0x0 MSTORE PUSH1 0x41 PUSH1 0x4 MSTORE PUSH1 0x24 PUSH1 0x0 REVERT JUMPDEST PUSH3 0x3CC DUP3 PUSH3 0x381 JUMP JUMPDEST DUP2 ADD DUP2 DUP2 LT PUSH8 0xFFFFFFFFFFFFFFFF DUP3 GT OR ISZERO PUSH3 0x3EE JUMPI PUSH3 0x3ED PUSH3 0x392 JUMP JUMPDEST JUMPDEST DUP1 PUSH1 0x40 MSTORE POP POP POP JUMP JUMPDEST PUSH1 0x0 PUSH3 0x403 PUSH3 0x368 JUMP JUMPDEST SWAP1 POP PUSH3 0x411 DUP3 DUP3 PUSH3 0x3C1 JUMP JUMPDEST SWAP2 SWAP1 POP JUMP JUMPDEST PUSH1 0x0 PUSH8 0xFFFFFFFFFFFFFFFF DUP3 GT ISZERO PUSH3 0x434 JUMPI PUSH3 0x433 PUSH3 0x392 JUMP JUMPDEST JUMPDEST PUSH1 0x20 DUP3 MUL SWAP1 POP PUSH1 0x20 DUP2 ADD SWAP1 POP SWAP2 SWAP1 POP JUMP JUMPDEST PUSH1 0x0 DUP1 REVERT JUMPDEST PUSH1 0x0 PUSH20 0xFFFFFFFFFFFFFFFFFFFFFFFFFFFFFFFFFFFFFFFF DUP3 AND SWAP1 POP SWAP2 SWAP1 POP JUMP JUMPDEST PUSH1 0x0 PUSH3 0x477 DUP3 PUSH3 0x44A JUMP JUMPDEST SWAP1 POP SWAP2 SWAP1 POP JUMP JUMPDEST PUSH3 0x489 DUP2 PUSH3 0x46A JUMP JUMPDEST DUP2 EQ PUSH3 0x495 JUMPI PUSH1 0x0 DUP1 REVERT JUMPDEST POP JUMP JUMPDEST PUSH1 0x0 DUP2 MLOAD SWAP1 POP PUSH3 0x4A9 DUP2 PUSH3 0x47E JUMP JUMPDEST SWAP3 SWAP2 POP POP JUMP JUMPDEST PUSH1 0x0 PUSH3 0x4C6 PUSH3 0x4C0 DUP5 PUSH3 0x416 JUMP JUMPDEST PUSH3 0x3F7 JUMP JUMPDEST SWAP1 POP DUP1 DUP4 DUP3 MSTORE PUSH1 0x20 DUP3 ADD SWAP1 POP PUSH1 0x20 DUP5 MUL DUP4 ADD DUP6 DUP2 GT ISZERO PUSH3 0x4EC JUMPI PUSH3 0x4EB PUSH3 0x445 JUMP JUMPDEST JUMPDEST DUP4 JUMPDEST DUP2 DUP2 LT ISZERO PUSH3 0x519 JUMPI DUP1 PUSH3 0x504 DUP9 DUP3 PUSH3 0x498 JUMP JUMPDEST DUP5 MSTORE PUSH1 0x20 DUP5 ADD SWAP4 POP POP PUSH1 0x20 DUP2 ADD SWAP1 POP PUSH3 0x4EE JUMP JUMPDEST POP POP POP SWAP4 SWAP3 POP POP POP JUMP JUMPDEST PUSH1 0x0 DUP3 PUSH1 0x1F DUP4 ADD SLT PUSH3 0x53B JUMPI PUSH3 0x53A PUSH3 0x37C JUMP JUMPDEST JUMPDEST DUP2 MLOAD PUSH3 0x54D DUP5 DUP3 PUSH1 0x20 DUP7 ADD PUSH3 0x4AF JUMP JUMPDEST SWAP2 POP POP SWAP3 SWAP2 POP POP JUMP JUMPDEST PUSH1 0x0 PUSH8 0xFFFFFFFFFFFFFFFF DUP3 GT ISZERO PUSH3 0x574 JUMPI PUSH3 0x573 PUSH3 0x392 JUMP JUMPDEST JUMPDEST PUSH1 0x20 DUP3 MUL SWAP1 POP PUSH1 0x20 DUP2 ADD SWAP1 POP SWAP2 SWAP1 POP JUMP JUMPDEST PUSH1 0x0 DUP2 SWAP1 POP SWAP2 SWAP1 POP JUMP JUMPDEST PUSH3 0x59A DUP2 PUSH3 0x585 JUMP JUMPDEST DUP2 EQ PUSH3 0x5A6 JUMPI PUSH1 0x0 DUP1 REVERT JUMPDEST POP JUMP JUMPDEST PUSH1 0x0 DUP2 MLOAD SWAP1 POP PUSH3 0x5BA DUP2 PUSH3 0x58F JUMP JUMPDEST SWAP3 SWAP2 POP POP JUMP JUMPDEST PUSH1 0x0 PUSH3 0x5D7 PUSH3 0x5D1 DUP5 PUSH3 0x556 JUMP JUMPDEST PUSH3 0x3F7 JUMP JUMPDEST SWAP1 POP DUP1 DUP4 DUP3 MSTORE PUSH1 0x20 DUP3 ADD SWAP1 POP PUSH1 0x20 DUP5 MUL DUP4 ADD DUP6 DUP2 GT ISZERO PUSH3 0x5FD JUMPI PUSH3 0x5FC PUSH3 0x445 JUMP JUMPDEST JUMPDEST DUP4 JUMPDEST DUP2 DUP2 LT ISZERO PUSH3 0x62A JUMPI DUP1 PUSH3 0x615 DUP9 DUP3 PUSH3 0x5A9 JUMP JUMPDEST DUP5 MSTORE PUSH1 0x20 DUP5 ADD SWAP4 POP POP PUSH1 0x20 DUP2 ADD SWAP1 POP PUSH3 0x5FF JUMP JUMPDEST POP POP POP SWAP4 SWAP3 POP POP POP JUMP JUMPDEST PUSH1 0x0 DUP3 PUSH1 0x1F DUP4 ADD SLT PUSH3 0x64C JUMPI PUSH3 0x64B PUSH3 0x37C JUMP JUMPDEST JUMPDEST DUP2 MLOAD PUSH3 0x65E DUP5 DUP3 PUSH1 0x20 DUP7 ADD PUSH3 0x5C0 JUMP JUMPDEST SWAP2 POP POP SWAP3 SWAP2 POP POP JUMP JUMPDEST PUSH1 0x0 DUP1 PUSH1 0x40 DUP4 DUP6 SUB SLT ISZERO PUSH3 0x681 JUMPI PUSH3 0x680 PUSH3 0x372 JUMP JUMPDEST JUMPDEST PUSH1 0x0 DUP4 ADD MLOAD PUSH8 0xFFFFFFFFFFFFFFFF DUP2 GT ISZERO PUSH3 0x6A2 JUMPI PUSH3 0x6A1 PUSH3 0x377 JUMP JUMPDEST JUMPDEST PUSH3 0x6B0 DUP6 DUP3 DUP7 ADD PUSH3 0x523 JUMP JUMPDEST SWAP3 POP POP PUSH1 0x20 DUP4 ADD MLOAD PUSH8 0xFFFFFFFFFFFFFFFF DUP2 GT ISZERO PUSH3 0x6D4 JUMPI PUSH3 0x6D3 PUSH3 0x377 JUMP JUMPDEST JUMPDEST PUSH3 0x6E2 DUP6 DUP3 DUP7 ADD PUSH3 0x634 JUMP JUMPDEST SWAP2 POP POP SWAP3 POP SWAP3 SWAP1 POP JUMP JUMPDEST PUSH1 0x0 DUP3 DUP3 MSTORE PUSH1 0x20 DUP3 ADD SWAP1 POP SWAP3 SWAP2 POP POP JUMP JUMPDEST PUSH32 0x5061796D656E7453706C69747465723A2070617965657320616E642073686172 PUSH1 0x0 DUP3 ADD MSTORE PUSH32 0x6573206C656E677468206D69736D617463680000000000000000000000000000 PUSH1 0x20 DUP3 ADD MSTORE POP JUMP JUMPDEST PUSH1 0x0 PUSH3 0x75B PUSH1 0x32 DUP4 PUSH3 0x6EC JUMP JUMPDEST SWAP2 POP PUSH3 0x768 DUP3 PUSH3 0x6FD JUMP JUMPDEST PUSH1 0x40 DUP3 ADD SWAP1 POP SWAP2 SWAP1 POP JUMP JUMPDEST PUSH1 0x0 PUSH1 0x20 DUP3 ADD SWAP1 POP DUP2 DUP2 SUB PUSH1 0x0 DUP4 ADD MSTORE PUSH3 0x78E DUP2 PUSH3 0x74C JUMP JUMPDEST SWAP1 POP SWAP2 SWAP1 POP JUMP JUMPDEST PUSH32 0x5061796D656E7453706C69747465723A206E6F20706179656573000000000000 PUSH1 0x0 DUP3 ADD MSTORE POP JUMP JUMPDEST PUSH1 0x0 PUSH3 0x7CD PUSH1 0x1A DUP4 PUSH3 0x6EC JUMP JUMPDEST SWAP2 POP PUSH3 0x7DA DUP3 PUSH3 0x795 JUMP JUMPDEST PUSH1 0x20 DUP3 ADD SWAP1 POP SWAP2 SWAP1 POP JUMP JUMPDEST PUSH1 0x0 PUSH1 0x20 DUP3 ADD SWAP1 POP DUP2 DUP2 SUB PUSH1 0x0 DUP4 ADD MSTORE PUSH3 0x800 DUP2 PUSH3 0x7BE JUMP JUMPDEST SWAP1 POP SWAP2 SWAP1 POP JUMP JUMPDEST PUSH32 0x4E487B7100000000000000000000000000000000000000000000000000000000 PUSH1 0x0 MSTORE PUSH1 0x32 PUSH1 0x4 MSTORE PUSH1 0x24 PUSH1 0x0 REVERT JUMPDEST PUSH32 0x4E487B7100000000000000000000000000000000000000000000000000000000 PUSH1 0x0 MSTORE PUSH1 0x11 PUSH1 0x4 MSTORE PUSH1 0x24 PUSH1 0x0 REVERT JUMPDEST PUSH1 0x0 PUSH3 0x872 DUP3 PUSH3 0x585 JUMP JUMPDEST SWAP2 POP PUSH32 0xFFFFFFFFFFFFFFFFFFFFFFFFFFFFFFFFFFFFFFFFFFFFFFFFFFFFFFFFFFFFFFFF DUP3 SUB PUSH3 0x8A7 JUMPI PUSH3 0x8A6 PUSH3 0x836 JUMP JUMPDEST JUMPDEST PUSH1 0x1 DUP3 ADD SWAP1 POP SWAP2 SWAP1 POP JUMP JUMPDEST PUSH32 0x5061796D656E7453706C69747465723A206163636F756E742069732074686520 PUSH1 0x0 DUP3 ADD MSTORE PUSH32 0x7A65726F20616464726573730000000000000000000000000000000000000000 PUSH1 0x20 DUP3 ADD MSTORE POP JUMP JUMPDEST PUSH1 0x0 PUSH3 0x910 PUSH1 0x2C DUP4 PUSH3 0x6EC JUMP JUMPDEST SWAP2 POP PUSH3 0x91D DUP3 PUSH3 0x8B2 JUMP JUMPDEST PUSH1 0x40 DUP3 ADD SWAP1 POP SWAP2 SWAP1 POP JUMP JUMPDEST PUSH1 0x0 PUSH1 0x20 DUP3 ADD SWAP1 POP DUP2 DUP2 SUB PUSH1 0x0 DUP4 ADD MSTORE PUSH3 0x943 DUP2 PUSH3 0x901 JUMP JUMPDEST SWAP1 POP SWAP2 SWAP1 POP JUMP JUMPDEST PUSH32 0x5061796D656E7453706C69747465723A20736861726573206172652030000000 PUSH1 0x0 DUP3 ADD MSTORE POP JUMP JUMPDEST PUSH1 0x0 PUSH3 0x982 PUSH1 0x1D DUP4 PUSH3 0x6EC JUMP JUMPDEST SWAP2 POP PUSH3 0x98F DUP3 PUSH3 0x94A JUMP JUMPDEST PUSH1 0x20 DUP3 ADD SWAP1 POP SWAP2 SWAP1 POP JUMP JUMPDEST PUSH1 0x0 PUSH1 0x20 DUP3 ADD SWAP1 POP DUP2 DUP2 SUB PUSH1 0x0 DUP4 ADD MSTORE PUSH3 0x9B5 DUP2 PUSH3 0x973 JUMP JUMPDEST SWAP1 POP SWAP2 SWAP1 POP JUMP JUMPDEST PUSH32 0x5061796D656E7453706C69747465723A206163636F756E7420616C7265616479 PUSH1 0x0 DUP3 ADD MSTORE PUSH32 0x2068617320736861726573000000000000000000000000000000000000000000 PUSH1 0x20 DUP3 ADD MSTORE POP JUMP JUMPDEST PUSH1 0x0 PUSH3 0xA1A PUSH1 0x2B DUP4 PUSH3 0x6EC JUMP JUMPDEST SWAP2 POP PUSH3 0xA27 DUP3 PUSH3 0x9BC JUMP JUMPDEST PUSH1 0x40 DUP3 ADD SWAP1 POP SWAP2 SWAP1 POP JUMP JUMPDEST PUSH1 0x0 PUSH1 0x20 DUP3 ADD SWAP1 POP DUP2 DUP2 SUB PUSH1 0x0 DUP4 ADD MSTORE PUSH3 0xA4D DUP2 PUSH3 0xA0B JUMP JUMPDEST SWAP1 POP SWAP2 SWAP1 POP JUMP JUMPDEST PUSH1 0x0 PUSH3 0xA61 DUP3 PUSH3 0x585 JUMP JUMPDEST SWAP2 POP PUSH3 0xA6E DUP4 PUSH3 0x585 JUMP JUMPDEST SWAP3 POP DUP3 PUSH32 0xFFFFFFFFFFFFFFFFFFFFFFFFFFFFFFFFFFFFFFFFFFFFFFFFFFFFFFFFFFFFFFFF SUB DUP3 GT ISZERO PUSH3 0xAA6 JUMPI PUSH3 0xAA5 PUSH3 0x836 JUMP JUMPDEST JUMPDEST DUP3 DUP3 ADD SWAP1 POP SWAP3 SWAP2 POP POP JUMP JUMPDEST PUSH3 0xABC DUP2 PUSH3 0x46A JUMP JUMPDEST DUP3 MSTORE POP POP JUMP JUMPDEST PUSH3 0xACD DUP2 PUSH3 0x585 JUMP JUMPDEST DUP3 MSTORE POP POP JUMP JUMPDEST PUSH1 0x0 PUSH1 0x40 DUP3 ADD SWAP1 POP PUSH3 0xAEA PUSH1 0x0 DUP4 ADD DUP6 PUSH3 0xAB1 JUMP JUMPDEST PUSH3 0xAF9 PUSH1 0x20 DUP4 ADD DUP5 PUSH3 0xAC2 JUMP JUMPDEST SWAP4 SWAP3 POP POP POP JUMP JUMPDEST PUSH2 0x17CE DUP1 PUSH3 0xB10 PUSH1 0x0 CODECOPY PUSH1 0x0 RETURN INVALID PUSH1 0x80 PUSH1 0x40 MSTORE PUSH1 0x4 CALLDATASIZE LT PUSH2 0x8A JUMPI PUSH1 0x0 CALLDATALOAD PUSH1 0xE0 SHR DUP1 PUSH4 0x8B83209B GT PUSH2 0x59 JUMPI DUP1 PUSH4 0x8B83209B EQ PUSH2 0x190 JUMPI DUP1 PUSH4 0x9852595C EQ PUSH2 0x1CD JUMPI DUP1 PUSH4 0xCE7C2AC2 EQ PUSH2 0x20A JUMPI DUP1 PUSH4 0xD79779B2 EQ PUSH2 0x247 JUMPI DUP1 PUSH4 0xE33B7DE3 EQ PUSH2 0x284 JUMPI PUSH2 0xD1 JUMP JUMPDEST DUP1 PUSH4 0x19165587 EQ PUSH2 0xD6 JUMPI DUP1 PUSH4 0x3A98EF39 EQ PUSH2 0xFF JUMPI DUP1 PUSH4 0x406072A9 EQ PUSH2 0x12A JUMPI DUP1 PUSH4 0x48B75044 EQ PUSH2 0x167 JUMPI PUSH2 0xD1 JUMP JUMPDEST CALLDATASIZE PUSH2 0xD1 JUMPI PUSH32 0x6EF95F06320E7A25A04A175CA677B7052BDD97131872C2192525A629F51BE770 PUSH2 0xB8 PUSH2 0x2AF JUMP JUMPDEST CALLVALUE PUSH1 0x40 MLOAD PUSH2 0xC7 SWAP3 SWAP2 SWAP1 PUSH2 0xD95 JUMP JUMPDEST PUSH1 0x40 MLOAD DUP1 SWAP2 SUB SWAP1 LOG1 STOP JUMPDEST PUSH1 0x0 DUP1 REVERT JUMPDEST CALLVALUE DUP1 ISZERO PUSH2 0xE2 JUMPI PUSH1 0x0 DUP1 REVERT JUMPDEST POP PUSH2 0xFD PUSH1 0x4 DUP1 CALLDATASIZE SUB DUP2 ADD SWAP1 PUSH2 0xF8 SWAP2 SWAP1 PUSH2 0xE01 JUMP JUMPDEST PUSH2 0x2B7 JUMP JUMPDEST STOP JUMPDEST CALLVALUE DUP1 ISZERO PUSH2 0x10B JUMPI PUSH1 0x0 DUP1 REVERT JUMPDEST POP PUSH2 0x114 PUSH2 0x461 JUMP JUMPDEST PUSH1 0x40 MLOAD PUSH2 0x121 SWAP2 SWAP1 PUSH2 0xE2E JUMP JUMPDEST PUSH1 0x40 MLOAD DUP1 SWAP2 SUB SWAP1 RETURN JUMPDEST CALLVALUE DUP1 ISZERO PUSH2 0x136 JUMPI PUSH1 0x0 DUP1 REVERT JUMPDEST POP PUSH2 0x151 PUSH1 0x4 DUP1 CALLDATASIZE SUB DUP2 ADD SWAP1 PUSH2 0x14C SWAP2 SWAP1 PUSH2 0xEB3 JUMP JUMPDEST PUSH2 0x46A JUMP JUMPDEST PUSH1 0x40 MLOAD PUSH2 0x15E SWAP2 SWAP1 PUSH2 0xE2E JUMP JUMPDEST PUSH1 0x40 MLOAD DUP1 SWAP2 SUB SWAP1 RETURN JUMPDEST CALLVALUE DUP1 ISZERO PUSH2 0x173 JUMPI PUSH1 0x0 DUP1 REVERT JUMPDEST POP PUSH2 0x18E PUSH1 0x4 DUP1 CALLDATASIZE SUB DUP2 ADD SWAP1 PUSH2 0x189 SWAP2 SWAP1 PUSH2 0xEB3 JUMP JUMPDEST PUSH2 0x4F1 JUMP JUMPDEST STOP JUMPDEST CALLVALUE DUP1 ISZERO PUSH2 0x19C JUMPI PUSH1 0x0 DUP1 REVERT JUMPDEST POP PUSH2 0x1B7 PUSH1 0x4 DUP1 CALLDATASIZE SUB DUP2 ADD SWAP1 PUSH2 0x1B2 SWAP2 SWAP1 PUSH2 0xF1F JUMP JUMPDEST PUSH2 0x7A9 JUMP JUMPDEST PUSH1 0x40 MLOAD PUSH2 0x1C4 SWAP2 SWAP1 PUSH2 0xF4C JUMP JUMPDEST PUSH1 0x40 MLOAD DUP1 SWAP2 SUB SWAP1 RETURN JUMPDEST CALLVALUE DUP1 ISZERO PUSH2 0x1D9 JUMPI PUSH1 0x0 DUP1 REVERT JUMPDEST POP PUSH2 0x1F4 PUSH1 0x4 DUP1 CALLDATASIZE SUB DUP2 ADD SWAP1 PUSH2 0x1EF SWAP2 SWAP1 PUSH2 0xF67 JUMP JUMPDEST PUSH2 0x7F1 JUMP JUMPDEST PUSH1 0x40 MLOAD PUSH2 0x201 SWAP2 SWAP1 PUSH2 0xE2E JUMP JUMPDEST PUSH1 0x40 MLOAD DUP1 SWAP2 SUB SWAP1 RETURN JUMPDEST CALLVALUE DUP1 ISZERO PUSH2 0x216 JUMPI PUSH1 0x0 DUP1 REVERT JUMPDEST POP PUSH2 0x231 PUSH1 0x4 DUP1 CALLDATASIZE SUB DUP2 ADD SWAP1 PUSH2 0x22C SWAP2 SWAP1 PUSH2 0xF67 JUMP JUMPDEST PUSH2 0x83A JUMP JUMPDEST PUSH1 0x40 MLOAD PUSH2 0x23E SWAP2 SWAP1 PUSH2 0xE2E JUMP JUMPDEST PUSH1 0x40 MLOAD DUP1 SWAP2 SUB SWAP1 RETURN JUMPDEST CALLVALUE DUP1 ISZERO PUSH2 0x253 JUMPI PUSH1 0x0 DUP1 REVERT JUMPDEST POP PUSH2 0x26E PUSH1 0x4 DUP1 CALLDATASIZE SUB DUP2 ADD SWAP1 PUSH2 0x269 SWAP2 SWAP1 PUSH2 0xF94 JUMP JUMPDEST PUSH2 0x883 JUMP JUMPDEST PUSH1 0x40 MLOAD PUSH2 0x27B SWAP2 SWAP1 PUSH2 0xE2E JUMP JUMPDEST PUSH1 0x40 MLOAD DUP1 SWAP2 SUB SWAP1 RETURN JUMPDEST CALLVALUE DUP1 ISZERO PUSH2 0x290 JUMPI PUSH1 0x0 DUP1 REVERT JUMPDEST POP PUSH2 0x299 PUSH2 0x8CC JUMP JUMPDEST PUSH1 0x40 MLOAD PUSH2 0x2A6 SWAP2 SWAP1 PUSH2 0xE2E JUMP JUMPDEST PUSH1 0x40 MLOAD DUP1 SWAP2 SUB SWAP1 RETURN JUMPDEST PUSH1 0x0 CALLER SWAP1 POP SWAP1 JUMP JUMPDEST PUSH1 0x0 PUSH1 0x2 PUSH1 0x0 DUP4 PUSH20 0xFFFFFFFFFFFFFFFFFFFFFFFFFFFFFFFFFFFFFFFF AND PUSH20 0xFFFFFFFFFFFFFFFFFFFFFFFFFFFFFFFFFFFFFFFF AND DUP2 MSTORE PUSH1 0x20 ADD SWAP1 DUP2 MSTORE PUSH1 0x20 ADD PUSH1 0x0 KECCAK256 SLOAD GT PUSH2 0x339 JUMPI PUSH1 0x40 MLOAD PUSH32 0x8C379A000000000000000000000000000000000000000000000000000000000 DUP2 MSTORE PUSH1 0x4 ADD PUSH2 0x330 SWAP1 PUSH2 0x1044 JUMP JUMPDEST PUSH1 0x40 MLOAD DUP1 SWAP2 SUB SWAP1 REVERT JUMPDEST PUSH1 0x0 PUSH2 0x343 PUSH2 0x8CC JUMP JUMPDEST SELFBALANCE PUSH2 0x34E SWAP2 SWAP1 PUSH2 0x1093 JUMP JUMPDEST SWAP1 POP PUSH1 0x0 PUSH2 0x365 DUP4 DUP4 PUSH2 0x360 DUP7 PUSH2 0x7F1 JUMP JUMPDEST PUSH2 0x8D6 JUMP JUMPDEST SWAP1 POP PUSH1 0x0 DUP2 SUB PUSH2 0x3AA JUMPI PUSH1 0x40 MLOAD PUSH32 0x8C379A000000000000000000000000000000000000000000000000000000000 DUP2 MSTORE PUSH1 0x4 ADD PUSH2 0x3A1 SWAP1 PUSH2 0x115B JUMP JUMPDEST PUSH1 0x40 MLOAD DUP1 SWAP2 SUB SWAP1 REVERT JUMPDEST DUP1 PUSH1 0x3 PUSH1 0x0 DUP6 PUSH20 0xFFFFFFFFFFFFFFFFFFFFFFFFFFFFFFFFFFFFFFFF AND PUSH20 0xFFFFFFFFFFFFFFFFFFFFFFFFFFFFFFFFFFFFFFFF AND DUP2 MSTORE PUSH1 0x20 ADD SWAP1 DUP2 MSTORE PUSH1 0x20 ADD PUSH1 0x0 KECCAK256 PUSH1 0x0 DUP3 DUP3 SLOAD PUSH2 0x3F9 SWAP2 SWAP1 PUSH2 0x1093 JUMP JUMPDEST SWAP3 POP POP DUP2 SWAP1 SSTORE POP DUP1 PUSH1 0x1 PUSH1 0x0 DUP3 DUP3 SLOAD PUSH2 0x412 SWAP2 SWAP1 PUSH2 0x1093 JUMP JUMPDEST SWAP3 POP POP DUP2 SWAP1 SSTORE POP PUSH2 0x423 DUP4 DUP3 PUSH2 0x944 JUMP JUMPDEST PUSH32 0xDF20FD1E76BC69D672E4814FAFB2C449BBA3A5369D8359ADF9E05E6FDE87B056 DUP4 DUP3 PUSH1 0x40 MLOAD PUSH2 0x454 SWAP3 SWAP2 SWAP1 PUSH2 0x11DA JUMP JUMPDEST PUSH1 0x40 MLOAD DUP1 SWAP2 SUB SWAP1 LOG1 POP POP POP JUMP JUMPDEST PUSH1 0x0 DUP1 SLOAD SWAP1 POP SWAP1 JUMP JUMPDEST PUSH1 0x0 PUSH1 0x6 PUSH1 0x0 DUP5 PUSH20 0xFFFFFFFFFFFFFFFFFFFFFFFFFFFFFFFFFFFFFFFF AND PUSH20 0xFFFFFFFFFFFFFFFFFFFFFFFFFFFFFFFFFFFFFFFF AND DUP2 MSTORE PUSH1 0x20 ADD SWAP1 DUP2 MSTORE PUSH1 0x20 ADD PUSH1 0x0 KECCAK256 PUSH1 0x0 DUP4 PUSH20 0xFFFFFFFFFFFFFFFFFFFFFFFFFFFFFFFFFFFFFFFF AND PUSH20 0xFFFFFFFFFFFFFFFFFFFFFFFFFFFFFFFFFFFFFFFF AND DUP2 MSTORE PUSH1 0x20 ADD SWAP1 DUP2 MSTORE PUSH1 0x20 ADD PUSH1 0x0 KECCAK256 SLOAD SWAP1 POP SWAP3 SWAP2 POP POP JUMP JUMPDEST PUSH1 0x0 PUSH1 0x2 PUSH1 0x0 DUP4 PUSH20 0xFFFFFFFFFFFFFFFFFFFFFFFFFFFFFFFFFFFFFFFF AND PUSH20 0xFFFFFFFFFFFFFFFFFFFFFFFFFFFFFFFFFFFFFFFF AND DUP2 MSTORE PUSH1 0x20 ADD SWAP1 DUP2 MSTORE PUSH1 0x20 ADD PUSH1 0x0 KECCAK256 SLOAD GT PUSH2 0x573 JUMPI PUSH1 0x40 MLOAD PUSH32 0x8C379A000000000000000000000000000000000000000000000000000000000 DUP2 MSTORE PUSH1 0x4 ADD PUSH2 0x56A SWAP1 PUSH2 0x1044 JUMP JUMPDEST PUSH1 0x40 MLOAD DUP1 SWAP2 SUB SWAP1 REVERT JUMPDEST PUSH1 0x0 PUSH2 0x57E DUP4 PUSH2 0x883 JUMP JUMPDEST DUP4 PUSH20 0xFFFFFFFFFFFFFFFFFFFFFFFFFFFFFFFFFFFFFFFF AND PUSH4 0x70A08231 ADDRESS PUSH1 0x40 MLOAD DUP3 PUSH4 0xFFFFFFFF AND PUSH1 0xE0 SHL DUP2 MSTORE PUSH1 0x4 ADD PUSH2 0x5B7 SWAP2 SWAP1 PUSH2 0xF4C JUMP JUMPDEST PUSH1 0x20 PUSH1 0x40 MLOAD DUP1 DUP4 SUB DUP2 DUP7 GAS STATICCALL ISZERO DUP1 ISZERO PUSH2 0x5D4 JUMPI RETURNDATASIZE PUSH1 0x0 DUP1 RETURNDATACOPY RETURNDATASIZE PUSH1 0x0 REVERT JUMPDEST POP POP POP POP PUSH1 0x40 MLOAD RETURNDATASIZE PUSH1 0x1F NOT PUSH1 0x1F DUP3 ADD AND DUP3 ADD DUP1 PUSH1 0x40 MSTORE POP DUP2 ADD SWAP1 PUSH2 0x5F8 SWAP2 SWAP1 PUSH2 0x1218 JUMP JUMPDEST PUSH2 0x602 SWAP2 SWAP1 PUSH2 0x1093 JUMP JUMPDEST SWAP1 POP PUSH1 0x0 PUSH2 0x61A DUP4 DUP4 PUSH2 0x615 DUP8 DUP8 PUSH2 0x46A JUMP JUMPDEST PUSH2 0x8D6 JUMP JUMPDEST SWAP1 POP PUSH1 0x0 DUP2 SUB PUSH2 0x65F JUMPI PUSH1 0x40 MLOAD PUSH32 0x8C379A000000000000000000000000000000000000000000000000000000000 DUP2 MSTORE PUSH1 0x4 ADD PUSH2 0x656 SWAP1 PUSH2 0x115B JUMP JUMPDEST PUSH1 0x40 MLOAD DUP1 SWAP2 SUB SWAP1 REVERT JUMPDEST DUP1 PUSH1 0x6 PUSH1 0x0 DUP7 PUSH20 0xFFFFFFFFFFFFFFFFFFFFFFFFFFFFFFFFFFFFFFFF AND PUSH20 0xFFFFFFFFFFFFFFFFFFFFFFFFFFFFFFFFFFFFFFFF AND DUP2 MSTORE PUSH1 0x20 ADD SWAP1 DUP2 MSTORE PUSH1 0x20 ADD PUSH1 0x0 KECCAK256 PUSH1 0x0 DUP6 PUSH20 0xFFFFFFFFFFFFFFFFFFFFFFFFFFFFFFFFFFFFFFFF AND PUSH20 0xFFFFFFFFFFFFFFFFFFFFFFFFFFFFFFFFFFFFFFFF AND DUP2 MSTORE PUSH1 0x20 ADD SWAP1 DUP2 MSTORE PUSH1 0x20 ADD PUSH1 0x0 KECCAK256 PUSH1 0x0 DUP3 DUP3 SLOAD PUSH2 0x6EB SWAP2 SWAP1 PUSH2 0x1093 JUMP JUMPDEST SWAP3 POP POP DUP2 SWAP1 SSTORE POP DUP1 PUSH1 0x5 PUSH1 0x0 DUP7 PUSH20 0xFFFFFFFFFFFFFFFFFFFFFFFFFFFFFFFFFFFFFFFF AND PUSH20 0xFFFFFFFFFFFFFFFFFFFFFFFFFFFFFFFFFFFFFFFF AND DUP2 MSTORE PUSH1 0x20 ADD SWAP1 DUP2 MSTORE PUSH1 0x20 ADD PUSH1 0x0 KECCAK256 PUSH1 0x0 DUP3 DUP3 SLOAD PUSH2 0x741 SWAP2 SWAP1 PUSH2 0x1093 JUMP JUMPDEST SWAP3 POP POP DUP2 SWAP1 SSTORE POP PUSH2 0x753 DUP5 DUP5 DUP4 PUSH2 0xA38 JUMP JUMPDEST DUP4 PUSH20 0xFFFFFFFFFFFFFFFFFFFFFFFFFFFFFFFFFFFFFFFF AND PUSH32 0x3BE5B7A71E84ED12875D241991C70855AC5817D847039E17A9D895C1CEB0F18A DUP5 DUP4 PUSH1 0x40 MLOAD PUSH2 0x79B SWAP3 SWAP2 SWAP1 PUSH2 0xD95 JUMP JUMPDEST PUSH1 0x40 MLOAD DUP1 SWAP2 SUB SWAP1 LOG2 POP POP POP POP JUMP JUMPDEST PUSH1 0x0 PUSH1 0x4 DUP3 DUP2 SLOAD DUP2 LT PUSH2 0x7BF JUMPI PUSH2 0x7BE PUSH2 0x1245 JUMP JUMPDEST JUMPDEST SWAP1 PUSH1 0x0 MSTORE PUSH1 0x20 PUSH1 0x0 KECCAK256 ADD PUSH1 0x0 SWAP1 SLOAD SWAP1 PUSH2 0x100 EXP SWAP1 DIV PUSH20 0xFFFFFFFFFFFFFFFFFFFFFFFFFFFFFFFFFFFFFFFF AND SWAP1 POP SWAP2 SWAP1 POP JUMP JUMPDEST PUSH1 0x0 PUSH1 0x3 PUSH1 0x0 DUP4 PUSH20 0xFFFFFFFFFFFFFFFFFFFFFFFFFFFFFFFFFFFFFFFF AND PUSH20 0xFFFFFFFFFFFFFFFFFFFFFFFFFFFFFFFFFFFFFFFF AND DUP2 MSTORE PUSH1 0x20 ADD SWAP1 DUP2 MSTORE PUSH1 0x20 ADD PUSH1 0x0 KECCAK256 SLOAD SWAP1 POP SWAP2 SWAP1 POP JUMP JUMPDEST PUSH1 0x0 PUSH1 0x2 PUSH1 0x0 DUP4 PUSH20 0xFFFFFFFFFFFFFFFFFFFFFFFFFFFFFFFFFFFFFFFF AND PUSH20 0xFFFFFFFFFFFFFFFFFFFFFFFFFFFFFFFFFFFFFFFF AND DUP2 MSTORE PUSH1 0x20 ADD SWAP1 DUP2 MSTORE PUSH1 0x20 ADD PUSH1 0x0 KECCAK256 SLOAD SWAP1 POP SWAP2 SWAP1 POP JUMP JUMPDEST PUSH1 0x0 PUSH1 0x5 PUSH1 0x0 DUP4 PUSH20 0xFFFFFFFFFFFFFFFFFFFFFFFFFFFFFFFFFFFFFFFF AND PUSH20 0xFFFFFFFFFFFFFFFFFFFFFFFFFFFFFFFFFFFFFFFF AND DUP2 MSTORE PUSH1 0x20 ADD SWAP1 DUP2 MSTORE PUSH1 0x20 ADD PUSH1 0x0 KECCAK256 SLOAD SWAP1 POP SWAP2 SWAP1 POP JUMP JUMPDEST PUSH1 0x0 PUSH1 0x1 SLOAD SWAP1 POP SWAP1 JUMP JUMPDEST PUSH1 0x0 DUP2 PUSH1 0x0 SLOAD PUSH1 0x2 PUSH1 0x0 DUP8 PUSH20 0xFFFFFFFFFFFFFFFFFFFFFFFFFFFFFFFFFFFFFFFF AND PUSH20 0xFFFFFFFFFFFFFFFFFFFFFFFFFFFFFFFFFFFFFFFF AND DUP2 MSTORE PUSH1 0x20 ADD SWAP1 DUP2 MSTORE PUSH1 0x20 ADD PUSH1 0x0 KECCAK256 SLOAD DUP6 PUSH2 0x927 SWAP2 SWAP1 PUSH2 0x1274 JUMP JUMPDEST PUSH2 0x931 SWAP2 SWAP1 PUSH2 0x12FD JUMP JUMPDEST PUSH2 0x93B SWAP2 SWAP1 PUSH2 0x132E JUMP JUMPDEST SWAP1 POP SWAP4 SWAP3 POP POP POP JUMP JUMPDEST DUP1 SELFBALANCE LT ISZERO PUSH2 0x987 JUMPI PUSH1 0x40 MLOAD PUSH32 0x8C379A000000000000000000000000000000000000000000000000000000000 DUP2 MSTORE PUSH1 0x4 ADD PUSH2 0x97E SWAP1 PUSH2 0x13AE JUMP JUMPDEST PUSH1 0x40 MLOAD DUP1 SWAP2 SUB SWAP1 REVERT JUMPDEST PUSH1 0x0 DUP3 PUSH20 0xFFFFFFFFFFFFFFFFFFFFFFFFFFFFFFFFFFFFFFFF AND DUP3 PUSH1 0x40 MLOAD PUSH2 0x9AD SWAP1 PUSH2 0x13FF JUMP JUMPDEST PUSH1 0x0 PUSH1 0x40 MLOAD DUP1 DUP4 SUB DUP2 DUP6 DUP8 GAS CALL SWAP3 POP POP POP RETURNDATASIZE DUP1 PUSH1 0x0 DUP2 EQ PUSH2 0x9EA JUMPI PUSH1 0x40 MLOAD SWAP2 POP PUSH1 0x1F NOT PUSH1 0x3F RETURNDATASIZE ADD AND DUP3 ADD PUSH1 0x40 MSTORE RETURNDATASIZE DUP3 MSTORE RETURNDATASIZE PUSH1 0x0 PUSH1 0x20 DUP5 ADD RETURNDATACOPY PUSH2 0x9EF JUMP JUMPDEST PUSH1 0x60 SWAP2 POP JUMPDEST POP POP SWAP1 POP DUP1 PUSH2 0xA33 JUMPI PUSH1 0x40 MLOAD PUSH32 0x8C379A000000000000000000000000000000000000000000000000000000000 DUP2 MSTORE PUSH1 0x4 ADD PUSH2 0xA2A SWAP1 PUSH2 0x1486 JUMP JUMPDEST PUSH1 0x40 MLOAD DUP1 SWAP2 SUB SWAP1 REVERT JUMPDEST POP POP POP JUMP JUMPDEST PUSH2 0xAB9 DUP4 PUSH4 0xA9059CBB PUSH1 0xE0 SHL DUP5 DUP5 PUSH1 0x40 MLOAD PUSH1 0x24 ADD PUSH2 0xA57 SWAP3 SWAP2 SWAP1 PUSH2 0xD95 JUMP JUMPDEST PUSH1 0x40 MLOAD PUSH1 0x20 DUP2 DUP4 SUB SUB DUP2 MSTORE SWAP1 PUSH1 0x40 MSTORE SWAP1 PUSH28 0xFFFFFFFFFFFFFFFFFFFFFFFFFFFFFFFFFFFFFFFFFFFFFFFFFFFFFFFF NOT AND PUSH1 0x20 DUP3 ADD DUP1 MLOAD PUSH28 0xFFFFFFFFFFFFFFFFFFFFFFFFFFFFFFFFFFFFFFFFFFFFFFFFFFFFFFFF DUP4 DUP2 DUP4 AND OR DUP4 MSTORE POP POP POP POP PUSH2 0xABE JUMP JUMPDEST POP POP POP JUMP JUMPDEST PUSH1 0x0 PUSH2 0xB20 DUP3 PUSH1 0x40 MLOAD DUP1 PUSH1 0x40 ADD PUSH1 0x40 MSTORE DUP1 PUSH1 0x20 DUP2 MSTORE PUSH1 0x20 ADD PUSH32 0x5361666545524332303A206C6F772D6C6576656C2063616C6C206661696C6564 DUP2 MSTORE POP DUP6 PUSH20 0xFFFFFFFFFFFFFFFFFFFFFFFFFFFFFFFFFFFFFFFF AND PUSH2 0xB85 SWAP1 SWAP3 SWAP2 SWAP1 PUSH4 0xFFFFFFFF AND JUMP JUMPDEST SWAP1 POP PUSH1 0x0 DUP2 MLOAD GT ISZERO PUSH2 0xB80 JUMPI DUP1 DUP1 PUSH1 0x20 ADD SWAP1 MLOAD DUP2 ADD SWAP1 PUSH2 0xB40 SWAP2 SWAP1 PUSH2 0x14DE JUMP JUMPDEST PUSH2 0xB7F JUMPI PUSH1 0x40 MLOAD PUSH32 0x8C379A000000000000000000000000000000000000000000000000000000000 DUP2 MSTORE PUSH1 0x4 ADD PUSH2 0xB76 SWAP1 PUSH2 0x157D JUMP JUMPDEST PUSH1 0x40 MLOAD DUP1 SWAP2 SUB SWAP1 REVERT JUMPDEST JUMPDEST POP POP POP JUMP JUMPDEST PUSH1 0x60 PUSH2 0xB94 DUP5 DUP5 PUSH1 0x0 DUP6 PUSH2 0xB9D JUMP JUMPDEST SWAP1 POP SWAP4 SWAP3 POP POP POP JUMP JUMPDEST PUSH1 0x60 DUP3 SELFBALANCE LT ISZERO PUSH2 0xBE2 JUMPI PUSH1 0x40 MLOAD PUSH32 0x8C379A000000000000000000000000000000000000000000000000000000000 DUP2 MSTORE PUSH1 0x4 ADD PUSH2 0xBD9 SWAP1 PUSH2 0x160F JUMP JUMPDEST PUSH1 0x40 MLOAD DUP1 SWAP2 SUB SWAP1 REVERT JUMPDEST PUSH2 0xBEB DUP6 PUSH2 0xCB1 JUMP JUMPDEST PUSH2 0xC2A JUMPI PUSH1 0x40 MLOAD PUSH32 0x8C379A000000000000000000000000000000000000000000000000000000000 DUP2 MSTORE PUSH1 0x4 ADD PUSH2 0xC21 SWAP1 PUSH2 0x167B JUMP JUMPDEST PUSH1 0x40 MLOAD DUP1 SWAP2 SUB SWAP1 REVERT JUMPDEST PUSH1 0x0 DUP1 DUP7 PUSH20 0xFFFFFFFFFFFFFFFFFFFFFFFFFFFFFFFFFFFFFFFF AND DUP6 DUP8 PUSH1 0x40 MLOAD PUSH2 0xC53 SWAP2 SWAP1 PUSH2 0x170A JUMP JUMPDEST PUSH1 0x0 PUSH1 0x40 MLOAD DUP1 DUP4 SUB DUP2 DUP6 DUP8 GAS CALL SWAP3 POP POP POP RETURNDATASIZE DUP1 PUSH1 0x0 DUP2 EQ PUSH2 0xC90 JUMPI PUSH1 0x40 MLOAD SWAP2 POP PUSH1 0x1F NOT PUSH1 0x3F RETURNDATASIZE ADD AND DUP3 ADD PUSH1 0x40 MSTORE RETURNDATASIZE DUP3 MSTORE RETURNDATASIZE PUSH1 0x0 PUSH1 0x20 DUP5 ADD RETURNDATACOPY PUSH2 0xC95 JUMP JUMPDEST PUSH1 0x60 SWAP2 POP JUMPDEST POP SWAP2 POP SWAP2 POP PUSH2 0xCA5 DUP3 DUP3 DUP7 PUSH2 0xCD4 JUMP JUMPDEST SWAP3 POP POP POP SWAP5 SWAP4 POP POP POP POP JUMP JUMPDEST PUSH1 0x0 DUP1 DUP3 PUSH20 0xFFFFFFFFFFFFFFFFFFFFFFFFFFFFFFFFFFFFFFFF AND EXTCODESIZE GT SWAP1 POP SWAP2 SWAP1 POP JUMP JUMPDEST PUSH1 0x60 DUP4 ISZERO PUSH2 0xCE4 JUMPI DUP3 SWAP1 POP PUSH2 0xD34 JUMP JUMPDEST PUSH1 0x0 DUP4 MLOAD GT ISZERO PUSH2 0xCF7 JUMPI DUP3 MLOAD DUP1 DUP5 PUSH1 0x20 ADD REVERT JUMPDEST DUP2 PUSH1 0x40 MLOAD PUSH32 0x8C379A000000000000000000000000000000000000000000000000000000000 DUP2 MSTORE PUSH1 0x4 ADD PUSH2 0xD2B SWAP2 SWAP1 PUSH2 0x1776 JUMP JUMPDEST PUSH1 0x40 MLOAD DUP1 SWAP2 SUB SWAP1 REVERT JUMPDEST SWAP4 SWAP3 POP POP POP JUMP JUMPDEST PUSH1 0x0 PUSH20 0xFFFFFFFFFFFFFFFFFFFFFFFFFFFFFFFFFFFFFFFF DUP3 AND SWAP1 POP SWAP2 SWAP1 POP JUMP JUMPDEST PUSH1 0x0 PUSH2 0xD66 DUP3 PUSH2 0xD3B JUMP JUMPDEST SWAP1 POP SWAP2 SWAP1 POP JUMP JUMPDEST PUSH2 0xD76 DUP2 PUSH2 0xD5B JUMP JUMPDEST DUP3 MSTORE POP POP JUMP JUMPDEST PUSH1 0x0 DUP2 SWAP1 POP SWAP2 SWAP1 POP JUMP JUMPDEST PUSH2 0xD8F DUP2 PUSH2 0xD7C JUMP JUMPDEST DUP3 MSTORE POP POP JUMP JUMPDEST PUSH1 0x0 PUSH1 0x40 DUP3 ADD SWAP1 POP PUSH2 0xDAA PUSH1 0x0 DUP4 ADD DUP6 PUSH2 0xD6D JUMP JUMPDEST PUSH2 0xDB7 PUSH1 0x20 DUP4 ADD DUP5 PUSH2 0xD86 JUMP JUMPDEST SWAP4 SWAP3 POP POP POP JUMP JUMPDEST PUSH1 0x0 DUP1 REVERT JUMPDEST PUSH1 0x0 PUSH2 0xDCE DUP3 PUSH2 0xD3B JUMP JUMPDEST SWAP1 POP SWAP2 SWAP1 POP JUMP JUMPDEST PUSH2 0xDDE DUP2 PUSH2 0xDC3 JUMP JUMPDEST DUP2 EQ PUSH2 0xDE9 JUMPI PUSH1 0x0 DUP1 REVERT JUMPDEST POP JUMP JUMPDEST PUSH1 0x0 DUP2 CALLDATALOAD SWAP1 POP PUSH2 0xDFB DUP2 PUSH2 0xDD5 JUMP JUMPDEST SWAP3 SWAP2 POP POP JUMP JUMPDEST PUSH1 0x0 PUSH1 0x20 DUP3 DUP5 SUB SLT ISZERO PUSH2 0xE17 JUMPI PUSH2 0xE16 PUSH2 0xDBE JUMP JUMPDEST JUMPDEST PUSH1 0x0 PUSH2 0xE25 DUP5 DUP3 DUP6 ADD PUSH2 0xDEC JUMP JUMPDEST SWAP2 POP POP SWAP3 SWAP2 POP POP JUMP JUMPDEST PUSH1 0x0 PUSH1 0x20 DUP3 ADD SWAP1 POP PUSH2 0xE43 PUSH1 0x0 DUP4 ADD DUP5 PUSH2 0xD86 JUMP JUMPDEST SWAP3 SWAP2 POP POP JUMP JUMPDEST PUSH1 0x0 PUSH2 0xE54 DUP3 PUSH2 0xD5B JUMP JUMPDEST SWAP1 POP SWAP2 SWAP1 POP JUMP JUMPDEST PUSH2 0xE64 DUP2 PUSH2 0xE49 JUMP JUMPDEST DUP2 EQ PUSH2 0xE6F JUMPI PUSH1 0x0 DUP1 REVERT JUMPDEST POP JUMP JUMPDEST PUSH1 0x0 DUP2 CALLDATALOAD SWAP1 POP PUSH2 0xE81 DUP2 PUSH2 0xE5B JUMP JUMPDEST SWAP3 SWAP2 POP POP JUMP JUMPDEST PUSH2 0xE90 DUP2 PUSH2 0xD5B JUMP JUMPDEST DUP2 EQ PUSH2 0xE9B JUMPI PUSH1 0x0 DUP1 REVERT JUMPDEST POP JUMP JUMPDEST PUSH1 0x0 DUP2 CALLDATALOAD SWAP1 POP PUSH2 0xEAD DUP2 PUSH2 0xE87 JUMP JUMPDEST SWAP3 SWAP2 POP POP JUMP JUMPDEST PUSH1 0x0 DUP1 PUSH1 0x40 DUP4 DUP6 SUB SLT ISZERO PUSH2 0xECA JUMPI PUSH2 0xEC9 PUSH2 0xDBE JUMP JUMPDEST JUMPDEST PUSH1 0x0 PUSH2 0xED8 DUP6 DUP3 DUP7 ADD PUSH2 0xE72 JUMP JUMPDEST SWAP3 POP POP PUSH1 0x20 PUSH2 0xEE9 DUP6 DUP3 DUP7 ADD PUSH2 0xE9E JUMP JUMPDEST SWAP2 POP POP SWAP3 POP SWAP3 SWAP1 POP JUMP JUMPDEST PUSH2 0xEFC DUP2 PUSH2 0xD7C JUMP JUMPDEST DUP2 EQ PUSH2 0xF07 JUMPI PUSH1 0x0 DUP1 REVERT JUMPDEST POP JUMP JUMPDEST PUSH1 0x0 DUP2 CALLDATALOAD SWAP1 POP PUSH2 0xF19 DUP2 PUSH2 0xEF3 JUMP JUMPDEST SWAP3 SWAP2 POP POP JUMP JUMPDEST PUSH1 0x0 PUSH1 0x20 DUP3 DUP5 SUB SLT ISZERO PUSH2 0xF35 JUMPI PUSH2 0xF34 PUSH2 0xDBE JUMP JUMPDEST JUMPDEST PUSH1 0x0 PUSH2 0xF43 DUP5 DUP3 DUP6 ADD PUSH2 0xF0A JUMP JUMPDEST SWAP2 POP POP SWAP3 SWAP2 POP POP JUMP JUMPDEST PUSH1 0x0 PUSH1 0x20 DUP3 ADD SWAP1 POP PUSH2 0xF61 PUSH1 0x0 DUP4 ADD DUP5 PUSH2 0xD6D JUMP JUMPDEST SWAP3 SWAP2 POP POP JUMP JUMPDEST PUSH1 0x0 PUSH1 0x20 DUP3 DUP5 SUB SLT ISZERO PUSH2 0xF7D JUMPI PUSH2 0xF7C PUSH2 0xDBE JUMP JUMPDEST JUMPDEST PUSH1 0x0 PUSH2 0xF8B DUP5 DUP3 DUP6 ADD PUSH2 0xE9E JUMP JUMPDEST SWAP2 POP POP SWAP3 SWAP2 POP POP JUMP JUMPDEST PUSH1 0x0 PUSH1 0x20 DUP3 DUP5 SUB SLT ISZERO PUSH2 0xFAA JUMPI PUSH2 0xFA9 PUSH2 0xDBE JUMP JUMPDEST JUMPDEST PUSH1 0x0 PUSH2 0xFB8 DUP5 DUP3 DUP6 ADD PUSH2 0xE72 JUMP JUMPDEST SWAP2 POP POP SWAP3 SWAP2 POP POP JUMP JUMPDEST PUSH1 0x0 DUP3 DUP3 MSTORE PUSH1 0x20 DUP3 ADD SWAP1 POP SWAP3 SWAP2 POP POP JUMP JUMPDEST PUSH32 0x5061796D656E7453706C69747465723A206163636F756E7420686173206E6F20 PUSH1 0x0 DUP3 ADD MSTORE PUSH32 0x7368617265730000000000000000000000000000000000000000000000000000 PUSH1 0x20 DUP3 ADD MSTORE POP JUMP JUMPDEST PUSH1 0x0 PUSH2 0x102E PUSH1 0x26 DUP4 PUSH2 0xFC1 JUMP JUMPDEST SWAP2 POP PUSH2 0x1039 DUP3 PUSH2 0xFD2 JUMP JUMPDEST PUSH1 0x40 DUP3 ADD SWAP1 POP SWAP2 SWAP1 POP JUMP JUMPDEST PUSH1 0x0 PUSH1 0x20 DUP3 ADD SWAP1 POP DUP2 DUP2 SUB PUSH1 0x0 DUP4 ADD MSTORE PUSH2 0x105D DUP2 PUSH2 0x1021 JUMP JUMPDEST SWAP1 POP SWAP2 SWAP1 POP JUMP JUMPDEST PUSH32 0x4E487B7100000000000000000000000000000000000000000000000000000000 PUSH1 0x0 MSTORE PUSH1 0x11 PUSH1 0x4 MSTORE PUSH1 0x24 PUSH1 0x0 REVERT JUMPDEST PUSH1 0x0 PUSH2 0x109E DUP3 PUSH2 0xD7C JUMP JUMPDEST SWAP2 POP PUSH2 0x10A9 DUP4 PUSH2 0xD7C JUMP JUMPDEST SWAP3 POP DUP3 PUSH32 0xFFFFFFFFFFFFFFFFFFFFFFFFFFFFFFFFFFFFFFFFFFFFFFFFFFFFFFFFFFFFFFFF SUB DUP3 GT ISZERO PUSH2 0x10DE JUMPI PUSH2 0x10DD PUSH2 0x1064 JUMP JUMPDEST JUMPDEST DUP3 DUP3 ADD SWAP1 POP SWAP3 SWAP2 POP POP JUMP JUMPDEST PUSH32 0x5061796D656E7453706C69747465723A206163636F756E74206973206E6F7420 PUSH1 0x0 DUP3 ADD MSTORE PUSH32 0x647565207061796D656E74000000000000000000000000000000000000000000 PUSH1 0x20 DUP3 ADD MSTORE POP JUMP JUMPDEST PUSH1 0x0 PUSH2 0x1145 PUSH1 0x2B DUP4 PUSH2 0xFC1 JUMP JUMPDEST SWAP2 POP PUSH2 0x1150 DUP3 PUSH2 0x10E9 JUMP JUMPDEST PUSH1 0x40 DUP3 ADD SWAP1 POP SWAP2 SWAP1 POP JUMP JUMPDEST PUSH1 0x0 PUSH1 0x20 DUP3 ADD SWAP1 POP DUP2 DUP2 SUB PUSH1 0x0 DUP4 ADD MSTORE PUSH2 0x1174 DUP2 PUSH2 0x1138 JUMP JUMPDEST SWAP1 POP SWAP2 SWAP1 POP JUMP JUMPDEST PUSH1 0x0 DUP2 SWAP1 POP SWAP2 SWAP1 POP JUMP JUMPDEST PUSH1 0x0 PUSH2 0x11A0 PUSH2 0x119B PUSH2 0x1196 DUP5 PUSH2 0xD3B JUMP JUMPDEST PUSH2 0x117B JUMP JUMPDEST PUSH2 0xD3B JUMP JUMPDEST SWAP1 POP SWAP2 SWAP1 POP JUMP JUMPDEST PUSH1 0x0 PUSH2 0x11B2 DUP3 PUSH2 0x1185 JUMP JUMPDEST SWAP1 POP SWAP2 SWAP1 POP JUMP JUMPDEST PUSH1 0x0 PUSH2 0x11C4 DUP3 PUSH2 0x11A7 JUMP JUMPDEST SWAP1 POP SWAP2 SWAP1 POP JUMP JUMPDEST PUSH2 0x11D4 DUP2 PUSH2 0x11B9 JUMP JUMPDEST DUP3 MSTORE POP POP JUMP JUMPDEST PUSH1 0x0 PUSH1 0x40 DUP3 ADD SWAP1 POP PUSH2 0x11EF PUSH1 0x0 DUP4 ADD DUP6 PUSH2 0x11CB JUMP JUMPDEST PUSH2 0x11FC PUSH1 0x20 DUP4 ADD DUP5 PUSH2 0xD86 JUMP JUMPDEST SWAP4 SWAP3 POP POP POP JUMP JUMPDEST PUSH1 0x0 DUP2 MLOAD SWAP1 POP PUSH2 0x1212 DUP2 PUSH2 0xEF3 JUMP JUMPDEST SWAP3 SWAP2 POP POP JUMP JUMPDEST PUSH1 0x0 PUSH1 0x20 DUP3 DUP5 SUB SLT ISZERO PUSH2 0x122E JUMPI PUSH2 0x122D PUSH2 0xDBE JUMP JUMPDEST JUMPDEST PUSH1 0x0 PUSH2 0x123C DUP5 DUP3 DUP6 ADD PUSH2 0x1203 JUMP JUMPDEST SWAP2 POP POP SWAP3 SWAP2 POP POP JUMP JUMPDEST PUSH32 0x4E487B7100000000000000000000000000000000000000000000000000000000 PUSH1 0x0 MSTORE PUSH1 0x32 PUSH1 0x4 MSTORE PUSH1 0x24 PUSH1 0x0 REVERT JUMPDEST PUSH1 0x0 PUSH2 0x127F DUP3 PUSH2 0xD7C JUMP JUMPDEST SWAP2 POP PUSH2 0x128A DUP4 PUSH2 0xD7C JUMP JUMPDEST SWAP3 POP DUP2 PUSH32 0xFFFFFFFFFFFFFFFFFFFFFFFFFFFFFFFFFFFFFFFFFFFFFFFFFFFFFFFFFFFFFFFF DIV DUP4 GT DUP3 ISZERO ISZERO AND ISZERO PUSH2 0x12C3 JUMPI PUSH2 0x12C2 PUSH2 0x1064 JUMP JUMPDEST JUMPDEST DUP3 DUP3 MUL SWAP1 POP SWAP3 SWAP2 POP POP JUMP JUMPDEST PUSH32 0x4E487B7100000000000000000000000000000000000000000000000000000000 PUSH1 0x0 MSTORE PUSH1 0x12 PUSH1 0x4 MSTORE PUSH1 0x24 PUSH1 0x0 REVERT JUMPDEST PUSH1 0x0 PUSH2 0x1308 DUP3 PUSH2 0xD7C JUMP JUMPDEST SWAP2 POP PUSH2 0x1313 DUP4 PUSH2 0xD7C JUMP JUMPDEST SWAP3 POP DUP3 PUSH2 0x1323 JUMPI PUSH2 0x1322 PUSH2 0x12CE JUMP JUMPDEST JUMPDEST DUP3 DUP3 DIV SWAP1 POP SWAP3 SWAP2 POP POP JUMP JUMPDEST PUSH1 0x0 PUSH2 0x1339 DUP3 PUSH2 0xD7C JUMP JUMPDEST SWAP2 POP PUSH2 0x1344 DUP4 PUSH2 0xD7C JUMP JUMPDEST SWAP3 POP DUP3 DUP3 LT ISZERO PUSH2 0x1357 JUMPI PUSH2 0x1356 PUSH2 0x1064 JUMP JUMPDEST JUMPDEST DUP3 DUP3 SUB SWAP1 POP SWAP3 SWAP2 POP POP JUMP JUMPDEST PUSH32 0x416464726573733A20696E73756666696369656E742062616C616E6365000000 PUSH1 0x0 DUP3 ADD MSTORE POP JUMP JUMPDEST PUSH1 0x0 PUSH2 0x1398 PUSH1 0x1D DUP4 PUSH2 0xFC1 JUMP JUMPDEST SWAP2 POP PUSH2 0x13A3 DUP3 PUSH2 0x1362 JUMP JUMPDEST PUSH1 0x20 DUP3 ADD SWAP1 POP SWAP2 SWAP1 POP JUMP JUMPDEST PUSH1 0x0 PUSH1 0x20 DUP3 ADD SWAP1 POP DUP2 DUP2 SUB PUSH1 0x0 DUP4 ADD MSTORE PUSH2 0x13C7 DUP2 PUSH2 0x138B JUMP JUMPDEST SWAP1 POP SWAP2 SWAP1 POP JUMP JUMPDEST PUSH1 0x0 DUP2 SWAP1 POP SWAP3 SWAP2 POP POP JUMP JUMPDEST POP JUMP JUMPDEST PUSH1 0x0 PUSH2 0x13E9 PUSH1 0x0 DUP4 PUSH2 0x13CE JUMP JUMPDEST SWAP2 POP PUSH2 0x13F4 DUP3 PUSH2 0x13D9 JUMP JUMPDEST PUSH1 0x0 DUP3 ADD SWAP1 POP SWAP2 SWAP1 POP JUMP JUMPDEST PUSH1 0x0 PUSH2 0x140A DUP3 PUSH2 0x13DC JUMP JUMPDEST SWAP2 POP DUP2 SWAP1 POP SWAP2 SWAP1 POP JUMP JUMPDEST PUSH32 0x416464726573733A20756E61626C6520746F2073656E642076616C75652C2072 PUSH1 0x0 DUP3 ADD MSTORE PUSH32 0x6563697069656E74206D61792068617665207265766572746564000000000000 PUSH1 0x20 DUP3 ADD MSTORE POP JUMP JUMPDEST PUSH1 0x0 PUSH2 0x1470 PUSH1 0x3A DUP4 PUSH2 0xFC1 JUMP JUMPDEST SWAP2 POP PUSH2 0x147B DUP3 PUSH2 0x1414 JUMP JUMPDEST PUSH1 0x40 DUP3 ADD SWAP1 POP SWAP2 SWAP1 POP JUMP JUMPDEST PUSH1 0x0 PUSH1 0x20 DUP3 ADD SWAP1 POP DUP2 DUP2 SUB PUSH1 0x0 DUP4 ADD MSTORE PUSH2 0x149F DUP2 PUSH2 0x1463 JUMP JUMPDEST SWAP1 POP SWAP2 SWAP1 POP JUMP JUMPDEST PUSH1 0x0 DUP2 ISZERO ISZERO SWAP1 POP SWAP2 SWAP1 POP JUMP JUMPDEST PUSH2 0x14BB DUP2 PUSH2 0x14A6 JUMP JUMPDEST DUP2 EQ PUSH2 0x14C6 JUMPI PUSH1 0x0 DUP1 REVERT JUMPDEST POP JUMP JUMPDEST PUSH1 0x0 DUP2 MLOAD SWAP1 POP PUSH2 0x14D8 DUP2 PUSH2 0x14B2 JUMP JUMPDEST SWAP3 SWAP2 POP POP JUMP JUMPDEST PUSH1 0x0 PUSH1 0x20 DUP3 DUP5 SUB SLT ISZERO PUSH2 0x14F4 JUMPI PUSH2 0x14F3 PUSH2 0xDBE JUMP JUMPDEST JUMPDEST PUSH1 0x0 PUSH2 0x1502 DUP5 DUP3 DUP6 ADD PUSH2 0x14C9 JUMP JUMPDEST SWAP2 POP POP SWAP3 SWAP2 POP POP JUMP JUMPDEST PUSH32 0x5361666545524332303A204552433230206F7065726174696F6E20646964206E PUSH1 0x0 DUP3 ADD MSTORE PUSH32 0x6F74207375636365656400000000000000000000000000000000000000000000 PUSH1 0x20 DUP3 ADD MSTORE POP JUMP JUMPDEST PUSH1 0x0 PUSH2 0x1567 PUSH1 0x2A DUP4 PUSH2 0xFC1 JUMP JUMPDEST SWAP2 POP PUSH2 0x1572 DUP3 PUSH2 0x150B JUMP JUMPDEST PUSH1 0x40 DUP3 ADD SWAP1 POP SWAP2 SWAP1 POP JUMP JUMPDEST PUSH1 0x0 PUSH1 0x20 DUP3 ADD SWAP1 POP DUP2 DUP2 SUB PUSH1 0x0 DUP4 ADD MSTORE PUSH2 0x1596 DUP2 PUSH2 0x155A JUMP JUMPDEST SWAP1 POP SWAP2 SWAP1 POP JUMP JUMPDEST PUSH32 0x416464726573733A20696E73756666696369656E742062616C616E636520666F PUSH1 0x0 DUP3 ADD MSTORE PUSH32 0x722063616C6C0000000000000000000000000000000000000000000000000000 PUSH1 0x20 DUP3 ADD MSTORE POP JUMP JUMPDEST PUSH1 0x0 PUSH2 0x15F9 PUSH1 0x26 DUP4 PUSH2 0xFC1 JUMP JUMPDEST SWAP2 POP PUSH2 0x1604 DUP3 PUSH2 0x159D JUMP JUMPDEST PUSH1 0x40 DUP3 ADD SWAP1 POP SWAP2 SWAP1 POP JUMP JUMPDEST PUSH1 0x0 PUSH1 0x20 DUP3 ADD SWAP1 POP DUP2 DUP2 SUB PUSH1 0x0 DUP4 ADD MSTORE PUSH2 0x1628 DUP2 PUSH2 0x15EC JUMP JUMPDEST SWAP1 POP SWAP2 SWAP1 POP JUMP JUMPDEST PUSH32 0x416464726573733A2063616C6C20746F206E6F6E2D636F6E7472616374000000 PUSH1 0x0 DUP3 ADD MSTORE POP JUMP JUMPDEST PUSH1 0x0 PUSH2 0x1665 PUSH1 0x1D DUP4 PUSH2 0xFC1 JUMP JUMPDEST SWAP2 POP PUSH2 0x1670 DUP3 PUSH2 0x162F JUMP JUMPDEST PUSH1 0x20 DUP3 ADD SWAP1 POP SWAP2 SWAP1 POP JUMP JUMPDEST PUSH1 0x0 PUSH1 0x20 DUP3 ADD SWAP1 POP DUP2 DUP2 SUB PUSH1 0x0 DUP4 ADD MSTORE PUSH2 0x1694 DUP2 PUSH2 0x1658 JUMP JUMPDEST SWAP1 POP SWAP2 SWAP1 POP JUMP JUMPDEST PUSH1 0x0 DUP2 MLOAD SWAP1 POP SWAP2 SWAP1 POP JUMP JUMPDEST PUSH1 0x0 JUMPDEST DUP4 DUP2 LT ISZERO PUSH2 0x16C4 JUMPI DUP1 DUP3 ADD MLOAD DUP2 DUP5 ADD MSTORE PUSH1 0x20 DUP2 ADD SWAP1 POP PUSH2 0x16A9 JUMP JUMPDEST DUP4 DUP2 GT ISZERO PUSH2 0x16D3 JUMPI PUSH1 0x0 DUP5 DUP5 ADD MSTORE JUMPDEST POP POP POP POP JUMP JUMPDEST PUSH1 0x0 PUSH2 0x16E4 DUP3 PUSH2 0x169B JUMP JUMPDEST PUSH2 0x16EE DUP2 DUP6 PUSH2 0x13CE JUMP JUMPDEST SWAP4 POP PUSH2 0x16FE DUP2 DUP6 PUSH1 0x20 DUP7 ADD PUSH2 0x16A6 JUMP JUMPDEST DUP1 DUP5 ADD SWAP2 POP POP SWAP3 SWAP2 POP POP JUMP JUMPDEST PUSH1 0x0 PUSH2 0x1716 DUP3 DUP5 PUSH2 0x16D9 JUMP JUMPDEST SWAP2 POP DUP2 SWAP1 POP SWAP3 SWAP2 POP POP JUMP JUMPDEST PUSH1 0x0 DUP2 MLOAD SWAP1 POP SWAP2 SWAP1 POP JUMP JUMPDEST PUSH1 0x0 PUSH1 0x1F NOT PUSH1 0x1F DUP4 ADD AND SWAP1 POP SWAP2 SWAP1 POP JUMP JUMPDEST PUSH1 0x0 PUSH2 0x1748 DUP3 PUSH2 0x1721 JUMP JUMPDEST PUSH2 0x1752 DUP2 DUP6 PUSH2 0xFC1 JUMP JUMPDEST SWAP4 POP PUSH2 0x1762 DUP2 DUP6 PUSH1 0x20 DUP7 ADD PUSH2 0x16A6 JUMP JUMPDEST PUSH2 0x176B DUP2 PUSH2 0x172C JUMP JUMPDEST DUP5 ADD SWAP2 POP POP SWAP3 SWAP2 POP POP JUMP JUMPDEST PUSH1 0x0 PUSH1 0x20 DUP3 ADD SWAP1 POP DUP2 DUP2 SUB PUSH1 0x0 DUP4 ADD MSTORE PUSH2 0x1790 DUP2 DUP5 PUSH2 0x173D JUMP JUMPDEST SWAP1 POP SWAP3 SWAP2 POP POP JUMP INVALID LOG2 PUSH5 0x6970667358 0x22 SLT KECCAK256 LOG2 0xB1 0xB3 DIFFICULTY DIFFICULTY PUSH17 0x10E1C72C5040C8465349C469C4389EB78F XOR PUSH27 0x255C6D1F747A6B64736F6C634300080E0033000000000000000000 "
				},
				"gasEstimates": {
					"creation": {
						"codeDepositCost": "1218800",
						"executionCost": "infinite",
						"totalCost": "infinite"
					},
					"external": {
						"payee(uint256)": "4967",
						"release(address)": "infinite",
						"release(address,address)": "infinite",
						"released(address)": "2863",
						"released(address,address)": "infinite",
						"shares(address)": "2885",
						"totalReleased()": "2525",
						"totalReleased(address)": "2950",
						"totalShares()": "2460"
					},
					"internal": {
						"_addPayee(address,uint256)": "infinite",
						"_pendingPayment(address,uint256,uint256)": "infinite"
					}
				},
				"methodIdentifiers": {
					"payee(uint256)": "8b83209b",
					"release(address)": "19165587",
					"release(address,address)": "48b75044",
					"released(address)": "9852595c",
					"released(address,address)": "406072a9",
					"shares(address)": "ce7c2ac2",
					"totalReleased()": "e33b7de3",
					"totalReleased(address)": "d79779b2",
					"totalShares()": "3a98ef39"
				}
			},
			"storageLayout": {
				"storage": [
					{
						"astId": 36,
						"contract": ".deps/npm/@openzeppelin/contracts/finance/PaymentSplitter.sol:PaymentSplitter",
						"label": "_totalShares",
						"offset": 0,
						"slot": "0",
						"type": "t_uint256"
					},
					{
						"astId": 38,
						"contract": ".deps/npm/@openzeppelin/contracts/finance/PaymentSplitter.sol:PaymentSplitter",
						"label": "_totalReleased",
						"offset": 0,
						"slot": "1",
						"type": "t_uint256"
					},
					{
						"astId": 42,
						"contract": ".deps/npm/@openzeppelin/contracts/finance/PaymentSplitter.sol:PaymentSplitter",
						"label": "_shares",
						"offset": 0,
						"slot": "2",
						"type": "t_mapping(t_address,t_uint256)"
					},
					{
						"astId": 46,
						"contract": ".deps/npm/@openzeppelin/contracts/finance/PaymentSplitter.sol:PaymentSplitter",
						"label": "_released",
						"offset": 0,
						"slot": "3",
						"type": "t_mapping(t_address,t_uint256)"
					},
					{
						"astId": 49,
						"contract": ".deps/npm/@openzeppelin/contracts/finance/PaymentSplitter.sol:PaymentSplitter",
						"label": "_payees",
						"offset": 0,
						"slot": "4",
						"type": "t_array(t_address)dyn_storage"
					},
					{
						"astId": 54,
						"contract": ".deps/npm/@openzeppelin/contracts/finance/PaymentSplitter.sol:PaymentSplitter",
						"label": "_erc20TotalReleased",
						"offset": 0,
						"slot": "5",
						"type": "t_mapping(t_contract(IERC20)518,t_uint256)"
					},
					{
						"astId": 61,
						"contract": ".deps/npm/@openzeppelin/contracts/finance/PaymentSplitter.sol:PaymentSplitter",
						"label": "_erc20Released",
						"offset": 0,
						"slot": "6",
						"type": "t_mapping(t_contract(IERC20)518,t_mapping(t_address,t_uint256))"
					}
				],
				"types": {
					"t_address": {
						"encoding": "inplace",
						"label": "address",
						"numberOfBytes": "20"
					},
					"t_array(t_address)dyn_storage": {
						"base": "t_address",
						"encoding": "dynamic_array",
						"label": "address[]",
						"numberOfBytes": "32"
					},
					"t_contract(IERC20)518": {
						"encoding": "inplace",
						"label": "contract IERC20",
						"numberOfBytes": "20"
					},
					"t_mapping(t_address,t_uint256)": {
						"encoding": "mapping",
						"key": "t_address",
						"label": "mapping(address => uint256)",
						"numberOfBytes": "32",
						"value": "t_uint256"
					},
					"t_mapping(t_contract(IERC20)518,t_mapping(t_address,t_uint256))": {
						"encoding": "mapping",
						"key": "t_contract(IERC20)518",
						"label": "mapping(contract IERC20 => mapping(address => uint256))",
						"numberOfBytes": "32",
						"value": "t_mapping(t_address,t_uint256)"
					},
					"t_mapping(t_contract(IERC20)518,t_uint256)": {
						"encoding": "mapping",
						"key": "t_contract(IERC20)518",
						"label": "mapping(contract IERC20 => uint256)",
						"numberOfBytes": "32",
						"value": "t_uint256"
					},
					"t_uint256": {
						"encoding": "inplace",
						"label": "uint256",
						"numberOfBytes": "32"
					}
				}
			},
			"userdoc": {
				"kind": "user",
				"methods": {},
				"version": 1
			}
		}
	}
}