{
	"contracts/MultiSigWallet/WalletFactory.sol": {
		"WalletFactory": {
			"abi": [
				{
					"inputs": [
						{
							"internalType": "address",
							"name": "_implementationAddress",
							"type": "address"
						}
					],
					"stateMutability": "nonpayable",
					"type": "constructor"
				},
				{
					"anonymous": false,
					"inputs": [
						{
							"indexed": false,
							"internalType": "address",
							"name": "newWalletAddress",
							"type": "address"
						},
						{
							"indexed": false,
							"internalType": "address[]",
							"name": "allowedSigners",
							"type": "address[]"
						}
					],
					"name": "WalletCreated",
					"type": "event"
				},
				{
					"inputs": [
						{
							"internalType": "address[]",
							"name": "allowedSigners",
							"type": "address[]"
						},
						{
							"internalType": "bytes32",
							"name": "salt",
							"type": "bytes32"
						}
					],
					"name": "createWallet",
					"outputs": [],
					"stateMutability": "nonpayable",
					"type": "function"
				},
				{
					"inputs": [],
					"name": "implementationAddress",
					"outputs": [
						{
							"internalType": "address",
							"name": "",
							"type": "address"
						}
					],
					"stateMutability": "view",
					"type": "function"
				}
			],
			"devdoc": {
				"kind": "dev",
				"methods": {},
				"version": 1
			},
			"evm": {
				"assembly": "    /* \"contracts/MultiSigWallet/WalletFactory.sol\":122:834  contract WalletFactory is CloneFactory {... */\n  mstore(0x40, 0x80)\n    /* \"contracts/MultiSigWallet/WalletFactory.sol\":282:383  constructor(address _implementationAddress) {... */\n  callvalue\n  dup1\n  iszero\n  tag_1\n  jumpi\n  0x00\n  dup1\n  revert\ntag_1:\n  pop\n  mload(0x40)\n  sub(codesize, bytecodeSize)\n  dup1\n  bytecodeSize\n  dup4\n  codecopy\n  dup2\n  dup2\n  add\n  0x40\n  mstore\n  dup2\n  add\n  swap1\n  tag_2\n  swap2\n  swap1\n  tag_3\n  jump\t// in\ntag_2:\n    /* \"contracts/MultiSigWallet/WalletFactory.sol\":356:378  _implementationAddress */\n  dup1\n    /* \"contracts/MultiSigWallet/WalletFactory.sol\":332:353  implementationAddress */\n  0x00\n  dup1\n    /* \"contracts/MultiSigWallet/WalletFactory.sol\":332:378  implementationAddress = _implementationAddress */\n  0x0100\n  exp\n  dup2\n  sload\n  dup2\n  0xffffffffffffffffffffffffffffffffffffffff\n  mul\n  not\n  and\n  swap1\n  dup4\n  0xffffffffffffffffffffffffffffffffffffffff\n  and\n  mul\n  or\n  swap1\n  sstore\n  pop\n    /* \"contracts/MultiSigWallet/WalletFactory.sol\":282:383  constructor(address _implementationAddress) {... */\n  pop\n    /* \"contracts/MultiSigWallet/WalletFactory.sol\":122:834  contract WalletFactory is CloneFactory {... */\n  jump(tag_6)\n    /* \"#utility.yul\":88:205   */\ntag_8:\n    /* \"#utility.yul\":197:198   */\n  0x00\n    /* \"#utility.yul\":194:195   */\n  dup1\n    /* \"#utility.yul\":187:199   */\n  revert\n    /* \"#utility.yul\":334:460   */\ntag_10:\n    /* \"#utility.yul\":371:378   */\n  0x00\n    /* \"#utility.yul\":411:453   */\n  0xffffffffffffffffffffffffffffffffffffffff\n    /* \"#utility.yul\":404:409   */\n  dup3\n    /* \"#utility.yul\":400:454   */\n  and\n    /* \"#utility.yul\":389:454   */\n  swap1\n  pop\n    /* \"#utility.yul\":334:460   */\n  swap2\n  swap1\n  pop\n  jump\t// out\n    /* \"#utility.yul\":466:562   */\ntag_11:\n    /* \"#utility.yul\":503:510   */\n  0x00\n    /* \"#utility.yul\":532:556   */\n  tag_20\n    /* \"#utility.yul\":550:555   */\n  dup3\n    /* \"#utility.yul\":532:556   */\n  tag_10\n  jump\t// in\ntag_20:\n    /* \"#utility.yul\":521:556   */\n  swap1\n  pop\n    /* \"#utility.yul\":466:562   */\n  swap2\n  swap1\n  pop\n  jump\t// out\n    /* \"#utility.yul\":568:690   */\ntag_12:\n    /* \"#utility.yul\":641:665   */\n  tag_22\n    /* \"#utility.yul\":659:664   */\n  dup2\n    /* \"#utility.yul\":641:665   */\n  tag_11\n  jump\t// in\ntag_22:\n    /* \"#utility.yul\":634:639   */\n  dup2\n    /* \"#utility.yul\":631:666   */\n  eq\n    /* \"#utility.yul\":621:684   */\n  tag_23\n  jumpi\n    /* \"#utility.yul\":680:681   */\n  0x00\n    /* \"#utility.yul\":677:678   */\n  dup1\n    /* \"#utility.yul\":670:682   */\n  revert\n    /* \"#utility.yul\":621:684   */\ntag_23:\n    /* \"#utility.yul\":568:690   */\n  pop\n  jump\t// out\n    /* \"#utility.yul\":696:839   */\ntag_13:\n    /* \"#utility.yul\":753:758   */\n  0x00\n    /* \"#utility.yul\":784:790   */\n  dup2\n    /* \"#utility.yul\":778:791   */\n  mload\n    /* \"#utility.yul\":769:791   */\n  swap1\n  pop\n    /* \"#utility.yul\":800:833   */\n  tag_25\n    /* \"#utility.yul\":827:832   */\n  dup2\n    /* \"#utility.yul\":800:833   */\n  tag_12\n  jump\t// in\ntag_25:\n    /* \"#utility.yul\":696:839   */\n  swap3\n  swap2\n  pop\n  pop\n  jump\t// out\n    /* \"#utility.yul\":845:1196   */\ntag_3:\n    /* \"#utility.yul\":915:921   */\n  0x00\n    /* \"#utility.yul\":964:966   */\n  0x20\n    /* \"#utility.yul\":952:961   */\n  dup3\n    /* \"#utility.yul\":943:950   */\n  dup5\n    /* \"#utility.yul\":939:962   */\n  sub\n    /* \"#utility.yul\":935:967   */\n  slt\n    /* \"#utility.yul\":932:1051   */\n  iszero\n  tag_27\n  jumpi\n    /* \"#utility.yul\":970:1049   */\n  tag_28\n  tag_8\n  jump\t// in\ntag_28:\n    /* \"#utility.yul\":932:1051   */\ntag_27:\n    /* \"#utility.yul\":1090:1091   */\n  0x00\n    /* \"#utility.yul\":1115:1179   */\n  tag_29\n    /* \"#utility.yul\":1171:1178   */\n  dup5\n    /* \"#utility.yul\":1162:1168   */\n  dup3\n    /* \"#utility.yul\":1151:1160   */\n  dup6\n    /* \"#utility.yul\":1147:1169   */\n  add\n    /* \"#utility.yul\":1115:1179   */\n  tag_13\n  jump\t// in\ntag_29:\n    /* \"#utility.yul\":1105:1179   */\n  swap2\n  pop\n    /* \"#utility.yul\":1061:1189   */\n  pop\n    /* \"#utility.yul\":845:1196   */\n  swap3\n  swap2\n  pop\n  pop\n  jump\t// out\n    /* \"contracts/MultiSigWallet/WalletFactory.sol\":122:834  contract WalletFactory is CloneFactory {... */\ntag_6:\n  dataSize(sub_0)\n  dup1\n  dataOffset(sub_0)\n  0x00\n  codecopy\n  0x00\n  return\nstop\n\nsub_0: assembly {\n        /* \"contracts/MultiSigWallet/WalletFactory.sol\":122:834  contract WalletFactory is CloneFactory {... */\n      mstore(0x40, 0x80)\n      callvalue\n      dup1\n      iszero\n      tag_1\n      jumpi\n      0x00\n      dup1\n      revert\n    tag_1:\n      pop\n      jumpi(tag_2, lt(calldatasize, 0x04))\n      shr(0xe0, calldataload(0x00))\n      dup1\n      0x7117f3fa\n      eq\n      tag_3\n      jumpi\n      dup1\n      0xb97a2319\n      eq\n      tag_4\n      jumpi\n    tag_2:\n      0x00\n      dup1\n      revert\n        /* \"contracts/MultiSigWallet/WalletFactory.sol\":387:832  function createWallet(address[] calldata allowedSigners, bytes32 salt)... */\n    tag_3:\n      tag_5\n      0x04\n      dup1\n      calldatasize\n      sub\n      dup2\n      add\n      swap1\n      tag_6\n      swap2\n      swap1\n      tag_7\n      jump\t// in\n    tag_6:\n      tag_8\n      jump\t// in\n    tag_5:\n      stop\n        /* \"contracts/MultiSigWallet/WalletFactory.sol\":165:201  address public implementationAddress */\n    tag_4:\n      tag_9\n      tag_10\n      jump\t// in\n    tag_9:\n      mload(0x40)\n      tag_11\n      swap2\n      swap1\n      tag_12\n      jump\t// in\n    tag_11:\n      mload(0x40)\n      dup1\n      swap2\n      sub\n      swap1\n      return\n        /* \"contracts/MultiSigWallet/WalletFactory.sol\":387:832  function createWallet(address[] calldata allowedSigners, bytes32 salt)... */\n    tag_8:\n        /* \"contracts/MultiSigWallet/WalletFactory.sol\":589:606  bytes32 finalSalt */\n      0x00\n        /* \"contracts/MultiSigWallet/WalletFactory.sol\":636:650  allowedSigners */\n      dup4\n      dup4\n        /* \"contracts/MultiSigWallet/WalletFactory.sol\":652:656  salt */\n      dup4\n        /* \"contracts/MultiSigWallet/WalletFactory.sol\":619:657  abi.encodePacked(allowedSigners, salt) */\n      add(0x20, mload(0x40))\n      tag_14\n      swap4\n      swap3\n      swap2\n      swap1\n      tag_15\n      jump\t// in\n    tag_14:\n      mload(0x40)\n      0x20\n      dup2\n      dup4\n      sub\n      sub\n      dup2\n      mstore\n      swap1\n      0x40\n      mstore\n        /* \"contracts/MultiSigWallet/WalletFactory.sol\":609:658  keccak256(abi.encodePacked(allowedSigners, salt)) */\n      dup1\n      mload\n      swap1\n      0x20\n      add\n      keccak256\n        /* \"contracts/MultiSigWallet/WalletFactory.sol\":589:658  bytes32 finalSalt = keccak256(abi.encodePacked(allowedSigners, salt)) */\n      swap1\n      pop\n        /* \"contracts/MultiSigWallet/WalletFactory.sol\":665:686  address payable clone */\n      0x00\n        /* \"contracts/MultiSigWallet/WalletFactory.sol\":689:734  createClone(implementationAddress, finalSalt) */\n      tag_16\n        /* \"contracts/MultiSigWallet/WalletFactory.sol\":701:722  implementationAddress */\n      0x00\n      dup1\n      sload\n      swap1\n      0x0100\n      exp\n      swap1\n      div\n      0xffffffffffffffffffffffffffffffffffffffff\n      and\n        /* \"contracts/MultiSigWallet/WalletFactory.sol\":724:733  finalSalt */\n      dup4\n        /* \"contracts/MultiSigWallet/WalletFactory.sol\":689:700  createClone */\n      tag_17\n        /* \"contracts/MultiSigWallet/WalletFactory.sol\":689:734  createClone(implementationAddress, finalSalt) */\n      jump\t// in\n    tag_16:\n        /* \"contracts/MultiSigWallet/WalletFactory.sol\":665:734  address payable clone = createClone(implementationAddress, finalSalt) */\n      swap1\n      pop\n        /* \"contracts/MultiSigWallet/WalletFactory.sol\":753:758  clone */\n      dup1\n        /* \"contracts/MultiSigWallet/WalletFactory.sol\":740:764  WalletSimple(clone).init */\n      0xffffffffffffffffffffffffffffffffffffffff\n      and\n      0xc6044c46\n        /* \"contracts/MultiSigWallet/WalletFactory.sol\":765:779  allowedSigners */\n      dup7\n      dup7\n        /* \"contracts/MultiSigWallet/WalletFactory.sol\":740:780  WalletSimple(clone).init(allowedSigners) */\n      mload(0x40)\n      dup4\n      0xffffffff\n      and\n      0xe0\n      shl\n      dup2\n      mstore\n      0x04\n      add\n      tag_18\n      swap3\n      swap2\n      swap1\n      tag_19\n      jump\t// in\n    tag_18:\n      0x00\n      mload(0x40)\n      dup1\n      dup4\n      sub\n      dup2\n      0x00\n      dup8\n      dup1\n      extcodesize\n      iszero\n      dup1\n      iszero\n      tag_20\n      jumpi\n      0x00\n      dup1\n      revert\n    tag_20:\n      pop\n      gas\n      call\n      iszero\n      dup1\n      iszero\n      tag_22\n      jumpi\n      returndatasize\n      0x00\n      dup1\n      returndatacopy\n      revert(0x00, returndatasize)\n    tag_22:\n      pop\n      pop\n      pop\n      pop\n        /* \"contracts/MultiSigWallet/WalletFactory.sol\":791:827  WalletCreated(clone, allowedSigners) */\n      0x0d1013664d1afda1c712a76630e584de8dd1d656331b90608aedc997fdb7839e\n        /* \"contracts/MultiSigWallet/WalletFactory.sol\":805:810  clone */\n      dup2\n        /* \"contracts/MultiSigWallet/WalletFactory.sol\":812:826  allowedSigners */\n      dup7\n      dup7\n        /* \"contracts/MultiSigWallet/WalletFactory.sol\":791:827  WalletCreated(clone, allowedSigners) */\n      mload(0x40)\n      tag_23\n      swap4\n      swap3\n      swap2\n      swap1\n      tag_24\n      jump\t// in\n    tag_23:\n      mload(0x40)\n      dup1\n      swap2\n      sub\n      swap1\n      log1\n        /* \"contracts/MultiSigWallet/WalletFactory.sol\":473:832  {... */\n      pop\n      pop\n        /* \"contracts/MultiSigWallet/WalletFactory.sol\":387:832  function createWallet(address[] calldata allowedSigners, bytes32 salt)... */\n      pop\n      pop\n      pop\n      jump\t// out\n        /* \"contracts/MultiSigWallet/WalletFactory.sol\":165:201  address public implementationAddress */\n    tag_10:\n      0x00\n      dup1\n      sload\n      swap1\n      0x0100\n      exp\n      swap1\n      div\n      0xffffffffffffffffffffffffffffffffffffffff\n      and\n      dup2\n      jump\t// out\n        /* \"contracts/MultiSigWallet/CloneFactory.sol\":1370:2823  function createClone(address target, bytes32 salt)... */\n    tag_17:\n        /* \"contracts/MultiSigWallet/CloneFactory.sol\":1447:1469  address payable result */\n      0x00\n        /* \"contracts/MultiSigWallet/CloneFactory.sol\":1479:1498  bytes20 targetBytes */\n      dup1\n        /* \"contracts/MultiSigWallet/CloneFactory.sol\":1509:1515  target */\n      dup4\n        /* \"contracts/MultiSigWallet/CloneFactory.sol\":1501:1516  bytes20(target) */\n      0x60\n      shl\n        /* \"contracts/MultiSigWallet/CloneFactory.sol\":1479:1516  bytes20 targetBytes = bytes20(target) */\n      swap1\n      pop\n        /* \"contracts/MultiSigWallet/CloneFactory.sol\":1642:1646  0x40 */\n      0x40\n        /* \"contracts/MultiSigWallet/CloneFactory.sol\":1636:1647  mload(0x40) */\n      mload\n        /* \"contracts/MultiSigWallet/CloneFactory.sol\":1998:2064  0x3d602d80600a3d3981f3363d3d373d3d3d363d73000000000000000000000000 */\n      0x3d602d80600a3d3981f3363d3d373d3d3d363d73000000000000000000000000\n        /* \"contracts/MultiSigWallet/CloneFactory.sol\":1983:1988  clone */\n      dup2\n        /* \"contracts/MultiSigWallet/CloneFactory.sol\":1967:2072  mstore(... */\n      mstore\n        /* \"contracts/MultiSigWallet/CloneFactory.sol\":2243:2254  targetBytes */\n      dup2\n        /* \"contracts/MultiSigWallet/CloneFactory.sol\":2236:2240  0x14 */\n      0x14\n        /* \"contracts/MultiSigWallet/CloneFactory.sol\":2229:2234  clone */\n      dup3\n        /* \"contracts/MultiSigWallet/CloneFactory.sol\":2225:2241  add(clone, 0x14) */\n      add\n        /* \"contracts/MultiSigWallet/CloneFactory.sol\":2218:2255  mstore(add(clone, 0x14), targetBytes) */\n      mstore\n        /* \"contracts/MultiSigWallet/CloneFactory.sol\":2482:2548  0x5af43d82803e903d91602b57fd5bf30000000000000000000000000000000000 */\n      0x5af43d82803e903d91602b57fd5bf30000000000000000000000000000000000\n        /* \"contracts/MultiSigWallet/CloneFactory.sol\":2467:2471  0x28 */\n      0x28\n        /* \"contracts/MultiSigWallet/CloneFactory.sol\":2460:2465  clone */\n      dup3\n        /* \"contracts/MultiSigWallet/CloneFactory.sol\":2456:2472  add(clone, 0x28) */\n      add\n        /* \"contracts/MultiSigWallet/CloneFactory.sol\":2440:2556  mstore(... */\n      mstore\n        /* \"contracts/MultiSigWallet/CloneFactory.sol\":2808:2812  salt */\n      dup4\n        /* \"contracts/MultiSigWallet/CloneFactory.sol\":2802:2806  0x37 */\n      0x37\n        /* \"contracts/MultiSigWallet/CloneFactory.sol\":2795:2800  clone */\n      dup3\n        /* \"contracts/MultiSigWallet/CloneFactory.sol\":2792:2793  0 */\n      0x00\n        /* \"contracts/MultiSigWallet/CloneFactory.sol\":2784:2813  create2(0, clone, 0x37, salt) */\n      create2\n        /* \"contracts/MultiSigWallet/CloneFactory.sol\":2774:2813  result := create2(0, clone, 0x37, salt) */\n      swap3\n      pop\n        /* \"contracts/MultiSigWallet/CloneFactory.sol\":1531:2819  {... */\n      pop\n      pop\n        /* \"contracts/MultiSigWallet/CloneFactory.sol\":1370:2823  function createClone(address target, bytes32 salt)... */\n      swap3\n      swap2\n      pop\n      pop\n      jump\t// out\n        /* \"#utility.yul\":88:205   */\n    tag_27:\n        /* \"#utility.yul\":197:198   */\n      0x00\n        /* \"#utility.yul\":194:195   */\n      dup1\n        /* \"#utility.yul\":187:199   */\n      revert\n        /* \"#utility.yul\":211:328   */\n    tag_28:\n        /* \"#utility.yul\":320:321   */\n      0x00\n        /* \"#utility.yul\":317:318   */\n      dup1\n        /* \"#utility.yul\":310:322   */\n      revert\n        /* \"#utility.yul\":334:451   */\n    tag_29:\n        /* \"#utility.yul\":443:444   */\n      0x00\n        /* \"#utility.yul\":440:441   */\n      dup1\n        /* \"#utility.yul\":433:445   */\n      revert\n        /* \"#utility.yul\":457:574   */\n    tag_30:\n        /* \"#utility.yul\":566:567   */\n      0x00\n        /* \"#utility.yul\":563:564   */\n      dup1\n        /* \"#utility.yul\":556:568   */\n      revert\n        /* \"#utility.yul\":580:697   */\n    tag_31:\n        /* \"#utility.yul\":689:690   */\n      0x00\n        /* \"#utility.yul\":686:687   */\n      dup1\n        /* \"#utility.yul\":679:691   */\n      revert\n        /* \"#utility.yul\":720:1288   */\n    tag_32:\n        /* \"#utility.yul\":793:801   */\n      0x00\n        /* \"#utility.yul\":803:809   */\n      dup1\n        /* \"#utility.yul\":853:856   */\n      dup4\n        /* \"#utility.yul\":846:850   */\n      0x1f\n        /* \"#utility.yul\":838:844   */\n      dup5\n        /* \"#utility.yul\":834:851   */\n      add\n        /* \"#utility.yul\":830:857   */\n      slt\n        /* \"#utility.yul\":820:942   */\n      tag_67\n      jumpi\n        /* \"#utility.yul\":861:940   */\n      tag_68\n      tag_29\n      jump\t// in\n    tag_68:\n        /* \"#utility.yul\":820:942   */\n    tag_67:\n        /* \"#utility.yul\":974:980   */\n      dup3\n        /* \"#utility.yul\":961:981   */\n      calldataload\n        /* \"#utility.yul\":951:981   */\n      swap1\n      pop\n        /* \"#utility.yul\":1004:1022   */\n      0xffffffffffffffff\n        /* \"#utility.yul\":996:1002   */\n      dup2\n        /* \"#utility.yul\":993:1023   */\n      gt\n        /* \"#utility.yul\":990:1107   */\n      iszero\n      tag_69\n      jumpi\n        /* \"#utility.yul\":1026:1105   */\n      tag_70\n      tag_30\n      jump\t// in\n    tag_70:\n        /* \"#utility.yul\":990:1107   */\n    tag_69:\n        /* \"#utility.yul\":1140:1144   */\n      0x20\n        /* \"#utility.yul\":1132:1138   */\n      dup4\n        /* \"#utility.yul\":1128:1145   */\n      add\n        /* \"#utility.yul\":1116:1145   */\n      swap2\n      pop\n        /* \"#utility.yul\":1194:1197   */\n      dup4\n        /* \"#utility.yul\":1186:1190   */\n      0x20\n        /* \"#utility.yul\":1178:1184   */\n      dup3\n        /* \"#utility.yul\":1174:1191   */\n      mul\n        /* \"#utility.yul\":1164:1172   */\n      dup4\n        /* \"#utility.yul\":1160:1192   */\n      add\n        /* \"#utility.yul\":1157:1198   */\n      gt\n        /* \"#utility.yul\":1154:1282   */\n      iszero\n      tag_71\n      jumpi\n        /* \"#utility.yul\":1201:1280   */\n      tag_72\n      tag_31\n      jump\t// in\n    tag_72:\n        /* \"#utility.yul\":1154:1282   */\n    tag_71:\n        /* \"#utility.yul\":720:1288   */\n      swap3\n      pop\n      swap3\n      swap1\n      pop\n      jump\t// out\n        /* \"#utility.yul\":1294:1371   */\n    tag_33:\n        /* \"#utility.yul\":1331:1338   */\n      0x00\n        /* \"#utility.yul\":1360:1365   */\n      dup2\n        /* \"#utility.yul\":1349:1365   */\n      swap1\n      pop\n        /* \"#utility.yul\":1294:1371   */\n      swap2\n      swap1\n      pop\n      jump\t// out\n        /* \"#utility.yul\":1377:1499   */\n    tag_34:\n        /* \"#utility.yul\":1450:1474   */\n      tag_75\n        /* \"#utility.yul\":1468:1473   */\n      dup2\n        /* \"#utility.yul\":1450:1474   */\n      tag_33\n      jump\t// in\n    tag_75:\n        /* \"#utility.yul\":1443:1448   */\n      dup2\n        /* \"#utility.yul\":1440:1475   */\n      eq\n        /* \"#utility.yul\":1430:1493   */\n      tag_76\n      jumpi\n        /* \"#utility.yul\":1489:1490   */\n      0x00\n        /* \"#utility.yul\":1486:1487   */\n      dup1\n        /* \"#utility.yul\":1479:1491   */\n      revert\n        /* \"#utility.yul\":1430:1493   */\n    tag_76:\n        /* \"#utility.yul\":1377:1499   */\n      pop\n      jump\t// out\n        /* \"#utility.yul\":1505:1644   */\n    tag_35:\n        /* \"#utility.yul\":1551:1556   */\n      0x00\n        /* \"#utility.yul\":1589:1595   */\n      dup2\n        /* \"#utility.yul\":1576:1596   */\n      calldataload\n        /* \"#utility.yul\":1567:1596   */\n      swap1\n      pop\n        /* \"#utility.yul\":1605:1638   */\n      tag_78\n        /* \"#utility.yul\":1632:1637   */\n      dup2\n        /* \"#utility.yul\":1605:1638   */\n      tag_34\n      jump\t// in\n    tag_78:\n        /* \"#utility.yul\":1505:1644   */\n      swap3\n      swap2\n      pop\n      pop\n      jump\t// out\n        /* \"#utility.yul\":1650:2354   */\n    tag_7:\n        /* \"#utility.yul\":1745:1751   */\n      0x00\n        /* \"#utility.yul\":1753:1759   */\n      dup1\n        /* \"#utility.yul\":1761:1767   */\n      0x00\n        /* \"#utility.yul\":1810:1812   */\n      0x40\n        /* \"#utility.yul\":1798:1807   */\n      dup5\n        /* \"#utility.yul\":1789:1796   */\n      dup7\n        /* \"#utility.yul\":1785:1808   */\n      sub\n        /* \"#utility.yul\":1781:1813   */\n      slt\n        /* \"#utility.yul\":1778:1897   */\n      iszero\n      tag_80\n      jumpi\n        /* \"#utility.yul\":1816:1895   */\n      tag_81\n      tag_27\n      jump\t// in\n    tag_81:\n        /* \"#utility.yul\":1778:1897   */\n    tag_80:\n        /* \"#utility.yul\":1964:1965   */\n      0x00\n        /* \"#utility.yul\":1953:1962   */\n      dup5\n        /* \"#utility.yul\":1949:1966   */\n      add\n        /* \"#utility.yul\":1936:1967   */\n      calldataload\n        /* \"#utility.yul\":1994:2012   */\n      0xffffffffffffffff\n        /* \"#utility.yul\":1986:1992   */\n      dup2\n        /* \"#utility.yul\":1983:2013   */\n      gt\n        /* \"#utility.yul\":1980:2097   */\n      iszero\n      tag_82\n      jumpi\n        /* \"#utility.yul\":2016:2095   */\n      tag_83\n      tag_28\n      jump\t// in\n    tag_83:\n        /* \"#utility.yul\":1980:2097   */\n    tag_82:\n        /* \"#utility.yul\":2129:2209   */\n      tag_84\n        /* \"#utility.yul\":2201:2208   */\n      dup7\n        /* \"#utility.yul\":2192:2198   */\n      dup3\n        /* \"#utility.yul\":2181:2190   */\n      dup8\n        /* \"#utility.yul\":2177:2199   */\n      add\n        /* \"#utility.yul\":2129:2209   */\n      tag_32\n      jump\t// in\n    tag_84:\n        /* \"#utility.yul\":2111:2209   */\n      swap4\n      pop\n      swap4\n      pop\n        /* \"#utility.yul\":1907:2219   */\n      pop\n        /* \"#utility.yul\":2258:2260   */\n      0x20\n        /* \"#utility.yul\":2284:2337   */\n      tag_85\n        /* \"#utility.yul\":2329:2336   */\n      dup7\n        /* \"#utility.yul\":2320:2326   */\n      dup3\n        /* \"#utility.yul\":2309:2318   */\n      dup8\n        /* \"#utility.yul\":2305:2327   */\n      add\n        /* \"#utility.yul\":2284:2337   */\n      tag_35\n      jump\t// in\n    tag_85:\n        /* \"#utility.yul\":2274:2337   */\n      swap2\n      pop\n        /* \"#utility.yul\":2229:2347   */\n      pop\n        /* \"#utility.yul\":1650:2354   */\n      swap3\n      pop\n      swap3\n      pop\n      swap3\n      jump\t// out\n        /* \"#utility.yul\":2360:2486   */\n    tag_36:\n        /* \"#utility.yul\":2397:2404   */\n      0x00\n        /* \"#utility.yul\":2437:2479   */\n      0xffffffffffffffffffffffffffffffffffffffff\n        /* \"#utility.yul\":2430:2435   */\n      dup3\n        /* \"#utility.yul\":2426:2480   */\n      and\n        /* \"#utility.yul\":2415:2480   */\n      swap1\n      pop\n        /* \"#utility.yul\":2360:2486   */\n      swap2\n      swap1\n      pop\n      jump\t// out\n        /* \"#utility.yul\":2492:2588   */\n    tag_37:\n        /* \"#utility.yul\":2529:2536   */\n      0x00\n        /* \"#utility.yul\":2558:2582   */\n      tag_88\n        /* \"#utility.yul\":2576:2581   */\n      dup3\n        /* \"#utility.yul\":2558:2582   */\n      tag_36\n      jump\t// in\n    tag_88:\n        /* \"#utility.yul\":2547:2582   */\n      swap1\n      pop\n        /* \"#utility.yul\":2492:2588   */\n      swap2\n      swap1\n      pop\n      jump\t// out\n        /* \"#utility.yul\":2594:2712   */\n    tag_38:\n        /* \"#utility.yul\":2681:2705   */\n      tag_90\n        /* \"#utility.yul\":2699:2704   */\n      dup2\n        /* \"#utility.yul\":2681:2705   */\n      tag_37\n      jump\t// in\n    tag_90:\n        /* \"#utility.yul\":2676:2679   */\n      dup3\n        /* \"#utility.yul\":2669:2706   */\n      mstore\n        /* \"#utility.yul\":2594:2712   */\n      pop\n      pop\n      jump\t// out\n        /* \"#utility.yul\":2718:2940   */\n    tag_12:\n        /* \"#utility.yul\":2811:2815   */\n      0x00\n        /* \"#utility.yul\":2849:2851   */\n      0x20\n        /* \"#utility.yul\":2838:2847   */\n      dup3\n        /* \"#utility.yul\":2834:2852   */\n      add\n        /* \"#utility.yul\":2826:2852   */\n      swap1\n      pop\n        /* \"#utility.yul\":2862:2933   */\n      tag_92\n        /* \"#utility.yul\":2930:2931   */\n      0x00\n        /* \"#utility.yul\":2919:2928   */\n      dup4\n        /* \"#utility.yul\":2915:2932   */\n      add\n        /* \"#utility.yul\":2906:2912   */\n      dup5\n        /* \"#utility.yul\":2862:2933   */\n      tag_38\n      jump\t// in\n    tag_92:\n        /* \"#utility.yul\":2718:2940   */\n      swap3\n      swap2\n      pop\n      pop\n      jump\t// out\n        /* \"#utility.yul\":2946:3109   */\n    tag_39:\n        /* \"#utility.yul\":3063:3074   */\n      0x00\n        /* \"#utility.yul\":3100:3103   */\n      dup2\n        /* \"#utility.yul\":3085:3103   */\n      swap1\n      pop\n        /* \"#utility.yul\":2946:3109   */\n      swap3\n      swap2\n      pop\n      pop\n      jump\t// out\n        /* \"#utility.yul\":3115:3217   */\n    tag_40:\n        /* \"#utility.yul\":3184:3188   */\n      0x00\n        /* \"#utility.yul\":3207:3210   */\n      dup2\n        /* \"#utility.yul\":3199:3210   */\n      swap1\n      pop\n        /* \"#utility.yul\":3115:3217   */\n      swap2\n      swap1\n      pop\n      jump\t// out\n        /* \"#utility.yul\":3223:3339   */\n    tag_41:\n        /* \"#utility.yul\":3308:3332   */\n      tag_96\n        /* \"#utility.yul\":3326:3331   */\n      dup2\n        /* \"#utility.yul\":3308:3332   */\n      tag_37\n      jump\t// in\n    tag_96:\n        /* \"#utility.yul\":3303:3306   */\n      dup3\n        /* \"#utility.yul\":3296:3333   */\n      mstore\n        /* \"#utility.yul\":3223:3339   */\n      pop\n      pop\n      jump\t// out\n        /* \"#utility.yul\":3345:3540   */\n    tag_42:\n        /* \"#utility.yul\":3422:3432   */\n      0x00\n        /* \"#utility.yul\":3443:3497   */\n      tag_98\n        /* \"#utility.yul\":3493:3496   */\n      dup4\n        /* \"#utility.yul\":3485:3491   */\n      dup4\n        /* \"#utility.yul\":3443:3497   */\n      tag_41\n      jump\t// in\n    tag_98:\n        /* \"#utility.yul\":3529:3533   */\n      0x20\n        /* \"#utility.yul\":3524:3527   */\n      dup4\n        /* \"#utility.yul\":3520:3534   */\n      add\n        /* \"#utility.yul\":3506:3534   */\n      swap1\n      pop\n        /* \"#utility.yul\":3345:3540   */\n      swap3\n      swap2\n      pop\n      pop\n      jump\t// out\n        /* \"#utility.yul\":3546:3668   */\n    tag_43:\n        /* \"#utility.yul\":3619:3643   */\n      tag_100\n        /* \"#utility.yul\":3637:3642   */\n      dup2\n        /* \"#utility.yul\":3619:3643   */\n      tag_37\n      jump\t// in\n    tag_100:\n        /* \"#utility.yul\":3612:3617   */\n      dup2\n        /* \"#utility.yul\":3609:3644   */\n      eq\n        /* \"#utility.yul\":3599:3662   */\n      tag_101\n      jumpi\n        /* \"#utility.yul\":3658:3659   */\n      0x00\n        /* \"#utility.yul\":3655:3656   */\n      dup1\n        /* \"#utility.yul\":3648:3660   */\n      revert\n        /* \"#utility.yul\":3599:3662   */\n    tag_101:\n        /* \"#utility.yul\":3546:3668   */\n      pop\n      jump\t// out\n        /* \"#utility.yul\":3674:3813   */\n    tag_44:\n        /* \"#utility.yul\":3720:3725   */\n      0x00\n        /* \"#utility.yul\":3758:3764   */\n      dup2\n        /* \"#utility.yul\":3745:3765   */\n      calldataload\n        /* \"#utility.yul\":3736:3765   */\n      swap1\n      pop\n        /* \"#utility.yul\":3774:3807   */\n      tag_103\n        /* \"#utility.yul\":3801:3806   */\n      dup2\n        /* \"#utility.yul\":3774:3807   */\n      tag_43\n      jump\t// in\n    tag_103:\n        /* \"#utility.yul\":3674:3813   */\n      swap3\n      swap2\n      pop\n      pop\n      jump\t// out\n        /* \"#utility.yul\":3819:3941   */\n    tag_45:\n        /* \"#utility.yul\":3871:3876   */\n      0x00\n        /* \"#utility.yul\":3896:3935   */\n      tag_105\n        /* \"#utility.yul\":3931:3933   */\n      0x20\n        /* \"#utility.yul\":3926:3929   */\n      dup5\n        /* \"#utility.yul\":3922:3934   */\n      add\n        /* \"#utility.yul\":3917:3920   */\n      dup5\n        /* \"#utility.yul\":3896:3935   */\n      tag_44\n      jump\t// in\n    tag_105:\n        /* \"#utility.yul\":3887:3935   */\n      swap1\n      pop\n        /* \"#utility.yul\":3819:3941   */\n      swap3\n      swap2\n      pop\n      pop\n      jump\t// out\n        /* \"#utility.yul\":3947:4062   */\n    tag_46:\n        /* \"#utility.yul\":4019:4023   */\n      0x00\n        /* \"#utility.yul\":4051:4055   */\n      0x20\n        /* \"#utility.yul\":4046:4049   */\n      dup3\n        /* \"#utility.yul\":4042:4056   */\n      add\n        /* \"#utility.yul\":4034:4056   */\n      swap1\n      pop\n        /* \"#utility.yul\":3947:4062   */\n      swap2\n      swap1\n      pop\n      jump\t// out\n        /* \"#utility.yul\":4098:4841   */\n    tag_47:\n        /* \"#utility.yul\":4245:4248   */\n      0x00\n        /* \"#utility.yul\":4268:4372   */\n      tag_108\n        /* \"#utility.yul\":4365:4371   */\n      dup4\n        /* \"#utility.yul\":4360:4363   */\n      dup6\n        /* \"#utility.yul\":4268:4372   */\n      tag_39\n      jump\t// in\n    tag_108:\n        /* \"#utility.yul\":4261:4372   */\n      swap4\n      pop\n        /* \"#utility.yul\":4396:4454   */\n      tag_109\n        /* \"#utility.yul\":4448:4453   */\n      dup3\n        /* \"#utility.yul\":4396:4454   */\n      tag_40\n      jump\t// in\n    tag_109:\n        /* \"#utility.yul\":4477:4484   */\n      dup1\n        /* \"#utility.yul\":4508:4509   */\n      0x00\n        /* \"#utility.yul\":4493:4816   */\n    tag_110:\n        /* \"#utility.yul\":4518:4524   */\n      dup6\n        /* \"#utility.yul\":4515:4516   */\n      dup2\n        /* \"#utility.yul\":4512:4525   */\n      lt\n        /* \"#utility.yul\":4493:4816   */\n      iszero\n      tag_112\n      jumpi\n        /* \"#utility.yul\":4588:4630   */\n      tag_113\n        /* \"#utility.yul\":4623:4629   */\n      dup3\n        /* \"#utility.yul\":4614:4621   */\n      dup5\n        /* \"#utility.yul\":4588:4630   */\n      tag_45\n      jump\t// in\n    tag_113:\n        /* \"#utility.yul\":4650:4721   */\n      tag_114\n        /* \"#utility.yul\":4717:4720   */\n      dup9\n        /* \"#utility.yul\":4702:4715   */\n      dup3\n        /* \"#utility.yul\":4650:4721   */\n      tag_42\n      jump\t// in\n    tag_114:\n        /* \"#utility.yul\":4643:4721   */\n      swap8\n      pop\n        /* \"#utility.yul\":4744:4806   */\n      tag_115\n        /* \"#utility.yul\":4799:4805   */\n      dup4\n        /* \"#utility.yul\":4744:4806   */\n      tag_46\n      jump\t// in\n    tag_115:\n        /* \"#utility.yul\":4734:4806   */\n      swap3\n      pop\n        /* \"#utility.yul\":4553:4816   */\n      pop\n        /* \"#utility.yul\":4540:4541   */\n      0x01\n        /* \"#utility.yul\":4537:4538   */\n      dup2\n        /* \"#utility.yul\":4533:4542   */\n      add\n        /* \"#utility.yul\":4528:4542   */\n      swap1\n      pop\n        /* \"#utility.yul\":4493:4816   */\n      jump(tag_110)\n    tag_112:\n        /* \"#utility.yul\":4497:4511   */\n      pop\n        /* \"#utility.yul\":4832:4835   */\n      dup6\n        /* \"#utility.yul\":4825:4835   */\n      swap3\n      pop\n        /* \"#utility.yul\":4250:4841   */\n      pop\n      pop\n        /* \"#utility.yul\":4098:4841   */\n      swap4\n      swap3\n      pop\n      pop\n      pop\n      jump\t// out\n        /* \"#utility.yul\":4847:4926   */\n    tag_48:\n        /* \"#utility.yul\":4886:4893   */\n      0x00\n        /* \"#utility.yul\":4915:4920   */\n      dup2\n        /* \"#utility.yul\":4904:4920   */\n      swap1\n      pop\n        /* \"#utility.yul\":4847:4926   */\n      swap2\n      swap1\n      pop\n      jump\t// out\n        /* \"#utility.yul\":4932:5089   */\n    tag_49:\n        /* \"#utility.yul\":5037:5082   */\n      tag_118\n        /* \"#utility.yul\":5057:5081   */\n      tag_119\n        /* \"#utility.yul\":5075:5080   */\n      dup3\n        /* \"#utility.yul\":5057:5081   */\n      tag_33\n      jump\t// in\n    tag_119:\n        /* \"#utility.yul\":5037:5082   */\n      tag_48\n      jump\t// in\n    tag_118:\n        /* \"#utility.yul\":5032:5035   */\n      dup3\n        /* \"#utility.yul\":5025:5083   */\n      mstore\n        /* \"#utility.yul\":4932:5089   */\n      pop\n      pop\n      jump\t// out\n        /* \"#utility.yul\":5095:5591   */\n    tag_15:\n        /* \"#utility.yul\":5295:5298   */\n      0x00\n        /* \"#utility.yul\":5317:5452   */\n      tag_121\n        /* \"#utility.yul\":5448:5451   */\n      dup3\n        /* \"#utility.yul\":5439:5445   */\n      dup6\n        /* \"#utility.yul\":5431:5437   */\n      dup8\n        /* \"#utility.yul\":5317:5452   */\n      tag_47\n      jump\t// in\n    tag_121:\n        /* \"#utility.yul\":5310:5452   */\n      swap2\n      pop\n        /* \"#utility.yul\":5462:5537   */\n      tag_122\n        /* \"#utility.yul\":5533:5536   */\n      dup3\n        /* \"#utility.yul\":5524:5530   */\n      dup5\n        /* \"#utility.yul\":5462:5537   */\n      tag_49\n      jump\t// in\n    tag_122:\n        /* \"#utility.yul\":5562:5564   */\n      0x20\n        /* \"#utility.yul\":5557:5560   */\n      dup3\n        /* \"#utility.yul\":5553:5565   */\n      add\n        /* \"#utility.yul\":5546:5565   */\n      swap2\n      pop\n        /* \"#utility.yul\":5582:5585   */\n      dup2\n        /* \"#utility.yul\":5575:5585   */\n      swap1\n      pop\n        /* \"#utility.yul\":5095:5591   */\n      swap5\n      swap4\n      pop\n      pop\n      pop\n      pop\n      jump\t// out\n        /* \"#utility.yul\":5597:5781   */\n    tag_50:\n        /* \"#utility.yul\":5696:5707   */\n      0x00\n        /* \"#utility.yul\":5730:5736   */\n      dup3\n        /* \"#utility.yul\":5725:5728   */\n      dup3\n        /* \"#utility.yul\":5718:5737   */\n      mstore\n        /* \"#utility.yul\":5770:5774   */\n      0x20\n        /* \"#utility.yul\":5765:5768   */\n      dup3\n        /* \"#utility.yul\":5761:5775   */\n      add\n        /* \"#utility.yul\":5746:5775   */\n      swap1\n      pop\n        /* \"#utility.yul\":5597:5781   */\n      swap3\n      swap2\n      pop\n      pop\n      jump\t// out\n        /* \"#utility.yul\":5787:5895   */\n    tag_51:\n        /* \"#utility.yul\":5864:5888   */\n      tag_125\n        /* \"#utility.yul\":5882:5887   */\n      dup2\n        /* \"#utility.yul\":5864:5888   */\n      tag_37\n      jump\t// in\n    tag_125:\n        /* \"#utility.yul\":5859:5862   */\n      dup3\n        /* \"#utility.yul\":5852:5889   */\n      mstore\n        /* \"#utility.yul\":5787:5895   */\n      pop\n      pop\n      jump\t// out\n        /* \"#utility.yul\":5901:6080   */\n    tag_52:\n        /* \"#utility.yul\":5970:5980   */\n      0x00\n        /* \"#utility.yul\":5991:6037   */\n      tag_127\n        /* \"#utility.yul\":6033:6036   */\n      dup4\n        /* \"#utility.yul\":6025:6031   */\n      dup4\n        /* \"#utility.yul\":5991:6037   */\n      tag_51\n      jump\t// in\n    tag_127:\n        /* \"#utility.yul\":6069:6073   */\n      0x20\n        /* \"#utility.yul\":6064:6067   */\n      dup4\n        /* \"#utility.yul\":6060:6074   */\n      add\n        /* \"#utility.yul\":6046:6074   */\n      swap1\n      pop\n        /* \"#utility.yul\":5901:6080   */\n      swap3\n      swap2\n      pop\n      pop\n      jump\t// out\n        /* \"#utility.yul\":6116:6815   */\n    tag_53:\n        /* \"#utility.yul\":6245:6248   */\n      0x00\n        /* \"#utility.yul\":6268:6354   */\n      tag_129\n        /* \"#utility.yul\":6347:6353   */\n      dup4\n        /* \"#utility.yul\":6342:6345   */\n      dup6\n        /* \"#utility.yul\":6268:6354   */\n      tag_50\n      jump\t// in\n    tag_129:\n        /* \"#utility.yul\":6261:6354   */\n      swap4\n      pop\n        /* \"#utility.yul\":6378:6436   */\n      tag_130\n        /* \"#utility.yul\":6430:6435   */\n      dup3\n        /* \"#utility.yul\":6378:6436   */\n      tag_40\n      jump\t// in\n    tag_130:\n        /* \"#utility.yul\":6459:6466   */\n      dup1\n        /* \"#utility.yul\":6490:6491   */\n      0x00\n        /* \"#utility.yul\":6475:6790   */\n    tag_131:\n        /* \"#utility.yul\":6500:6506   */\n      dup6\n        /* \"#utility.yul\":6497:6498   */\n      dup2\n        /* \"#utility.yul\":6494:6507   */\n      lt\n        /* \"#utility.yul\":6475:6790   */\n      iszero\n      tag_133\n      jumpi\n        /* \"#utility.yul\":6570:6612   */\n      tag_134\n        /* \"#utility.yul\":6605:6611   */\n      dup3\n        /* \"#utility.yul\":6596:6603   */\n      dup5\n        /* \"#utility.yul\":6570:6612   */\n      tag_45\n      jump\t// in\n    tag_134:\n        /* \"#utility.yul\":6632:6695   */\n      tag_135\n        /* \"#utility.yul\":6691:6694   */\n      dup9\n        /* \"#utility.yul\":6676:6689   */\n      dup3\n        /* \"#utility.yul\":6632:6695   */\n      tag_52\n      jump\t// in\n    tag_135:\n        /* \"#utility.yul\":6625:6695   */\n      swap8\n      pop\n        /* \"#utility.yul\":6718:6780   */\n      tag_136\n        /* \"#utility.yul\":6773:6779   */\n      dup4\n        /* \"#utility.yul\":6718:6780   */\n      tag_46\n      jump\t// in\n    tag_136:\n        /* \"#utility.yul\":6708:6780   */\n      swap3\n      pop\n        /* \"#utility.yul\":6535:6790   */\n      pop\n        /* \"#utility.yul\":6522:6523   */\n      0x01\n        /* \"#utility.yul\":6519:6520   */\n      dup2\n        /* \"#utility.yul\":6515:6524   */\n      add\n        /* \"#utility.yul\":6510:6524   */\n      swap1\n      pop\n        /* \"#utility.yul\":6475:6790   */\n      jump(tag_131)\n    tag_133:\n        /* \"#utility.yul\":6479:6493   */\n      pop\n        /* \"#utility.yul\":6806:6809   */\n      dup6\n        /* \"#utility.yul\":6799:6809   */\n      swap3\n      pop\n        /* \"#utility.yul\":6250:6815   */\n      pop\n      pop\n        /* \"#utility.yul\":6116:6815   */\n      swap4\n      swap3\n      pop\n      pop\n      pop\n      jump\t// out\n        /* \"#utility.yul\":6821:7214   */\n    tag_19:\n        /* \"#utility.yul\":6974:6978   */\n      0x00\n        /* \"#utility.yul\":7012:7014   */\n      0x20\n        /* \"#utility.yul\":7001:7010   */\n      dup3\n        /* \"#utility.yul\":6997:7015   */\n      add\n        /* \"#utility.yul\":6989:7015   */\n      swap1\n      pop\n        /* \"#utility.yul\":7061:7070   */\n      dup2\n        /* \"#utility.yul\":7055:7059   */\n      dup2\n        /* \"#utility.yul\":7051:7071   */\n      sub\n        /* \"#utility.yul\":7047:7048   */\n      0x00\n        /* \"#utility.yul\":7036:7045   */\n      dup4\n        /* \"#utility.yul\":7032:7049   */\n      add\n        /* \"#utility.yul\":7025:7072   */\n      mstore\n        /* \"#utility.yul\":7089:7207   */\n      tag_138\n        /* \"#utility.yul\":7202:7206   */\n      dup2\n        /* \"#utility.yul\":7193:7199   */\n      dup5\n        /* \"#utility.yul\":7185:7191   */\n      dup7\n        /* \"#utility.yul\":7089:7207   */\n      tag_53\n      jump\t// in\n    tag_138:\n        /* \"#utility.yul\":7081:7207   */\n      swap1\n      pop\n        /* \"#utility.yul\":6821:7214   */\n      swap4\n      swap3\n      pop\n      pop\n      pop\n      jump\t// out\n        /* \"#utility.yul\":7220:7280   */\n    tag_54:\n        /* \"#utility.yul\":7248:7251   */\n      0x00\n        /* \"#utility.yul\":7269:7274   */\n      dup2\n        /* \"#utility.yul\":7262:7274   */\n      swap1\n      pop\n        /* \"#utility.yul\":7220:7280   */\n      swap2\n      swap1\n      pop\n      jump\t// out\n        /* \"#utility.yul\":7286:7428   */\n    tag_55:\n        /* \"#utility.yul\":7336:7345   */\n      0x00\n        /* \"#utility.yul\":7369:7422   */\n      tag_141\n        /* \"#utility.yul\":7387:7421   */\n      tag_142\n        /* \"#utility.yul\":7396:7420   */\n      tag_143\n        /* \"#utility.yul\":7414:7419   */\n      dup5\n        /* \"#utility.yul\":7396:7420   */\n      tag_36\n      jump\t// in\n    tag_143:\n        /* \"#utility.yul\":7387:7421   */\n      tag_54\n      jump\t// in\n    tag_142:\n        /* \"#utility.yul\":7369:7422   */\n      tag_36\n      jump\t// in\n    tag_141:\n        /* \"#utility.yul\":7356:7422   */\n      swap1\n      pop\n        /* \"#utility.yul\":7286:7428   */\n      swap2\n      swap1\n      pop\n      jump\t// out\n        /* \"#utility.yul\":7434:7560   */\n    tag_56:\n        /* \"#utility.yul\":7484:7493   */\n      0x00\n        /* \"#utility.yul\":7517:7554   */\n      tag_145\n        /* \"#utility.yul\":7548:7553   */\n      dup3\n        /* \"#utility.yul\":7517:7554   */\n      tag_55\n      jump\t// in\n    tag_145:\n        /* \"#utility.yul\":7504:7554   */\n      swap1\n      pop\n        /* \"#utility.yul\":7434:7560   */\n      swap2\n      swap1\n      pop\n      jump\t// out\n        /* \"#utility.yul\":7566:7700   */\n    tag_57:\n        /* \"#utility.yul\":7624:7633   */\n      0x00\n        /* \"#utility.yul\":7657:7694   */\n      tag_147\n        /* \"#utility.yul\":7688:7693   */\n      dup3\n        /* \"#utility.yul\":7657:7694   */\n      tag_56\n      jump\t// in\n    tag_147:\n        /* \"#utility.yul\":7644:7694   */\n      swap1\n      pop\n        /* \"#utility.yul\":7566:7700   */\n      swap2\n      swap1\n      pop\n      jump\t// out\n        /* \"#utility.yul\":7706:7853   */\n    tag_58:\n        /* \"#utility.yul\":7801:7846   */\n      tag_149\n        /* \"#utility.yul\":7840:7845   */\n      dup2\n        /* \"#utility.yul\":7801:7846   */\n      tag_57\n      jump\t// in\n    tag_149:\n        /* \"#utility.yul\":7796:7799   */\n      dup3\n        /* \"#utility.yul\":7789:7847   */\n      mstore\n        /* \"#utility.yul\":7706:7853   */\n      pop\n      pop\n      jump\t// out\n        /* \"#utility.yul\":7859:8378   */\n    tag_24:\n        /* \"#utility.yul\":8048:8052   */\n      0x00\n        /* \"#utility.yul\":8086:8088   */\n      0x40\n        /* \"#utility.yul\":8075:8084   */\n      dup3\n        /* \"#utility.yul\":8071:8089   */\n      add\n        /* \"#utility.yul\":8063:8089   */\n      swap1\n      pop\n        /* \"#utility.yul\":8099:8178   */\n      tag_151\n        /* \"#utility.yul\":8175:8176   */\n      0x00\n        /* \"#utility.yul\":8164:8173   */\n      dup4\n        /* \"#utility.yul\":8160:8177   */\n      add\n        /* \"#utility.yul\":8151:8157   */\n      dup7\n        /* \"#utility.yul\":8099:8178   */\n      tag_58\n      jump\t// in\n    tag_151:\n        /* \"#utility.yul\":8225:8234   */\n      dup2\n        /* \"#utility.yul\":8219:8223   */\n      dup2\n        /* \"#utility.yul\":8215:8235   */\n      sub\n        /* \"#utility.yul\":8210:8212   */\n      0x20\n        /* \"#utility.yul\":8199:8208   */\n      dup4\n        /* \"#utility.yul\":8195:8213   */\n      add\n        /* \"#utility.yul\":8188:8236   */\n      mstore\n        /* \"#utility.yul\":8253:8371   */\n      tag_152\n        /* \"#utility.yul\":8366:8370   */\n      dup2\n        /* \"#utility.yul\":8357:8363   */\n      dup5\n        /* \"#utility.yul\":8349:8355   */\n      dup7\n        /* \"#utility.yul\":8253:8371   */\n      tag_53\n      jump\t// in\n    tag_152:\n        /* \"#utility.yul\":8245:8371   */\n      swap1\n      pop\n        /* \"#utility.yul\":7859:8378   */\n      swap5\n      swap4\n      pop\n      pop\n      pop\n      pop\n      jump\t// out\n\n    auxdata: 0xa2646970667358221220c07308fb67e4901c3115f19fed9784ef834f4e9237d912fde9c37dea4225756d64736f6c634300080a0033\n}\n",
				"bytecode": {
					"linkReferences": {},
					"object": "608060405234801561001057600080fd5b5060405161073d38038061073d833981810160405281019061003291906100db565b806000806101000a81548173ffffffffffffffffffffffffffffffffffffffff021916908373ffffffffffffffffffffffffffffffffffffffff16021790555050610108565b600080fd5b600073ffffffffffffffffffffffffffffffffffffffff82169050919050565b60006100a88261007d565b9050919050565b6100b88161009d565b81146100c357600080fd5b50565b6000815190506100d5816100af565b92915050565b6000602082840312156100f1576100f0610078565b5b60006100ff848285016100c6565b91505092915050565b610626806101176000396000f3fe608060405234801561001057600080fd5b50600436106100365760003560e01c80637117f3fa1461003b578063b97a231914610057575b600080fd5b610055600480360381019061005091906102b6565b610075565b005b61005f610181565b60405161006c9190610357565b60405180910390f35b600083838360405160200161008c9392919061047c565b60405160208183030381529060405280519060200120905060006100d060008054906101000a900473ffffffffffffffffffffffffffffffffffffffff16836101a5565b90508073ffffffffffffffffffffffffffffffffffffffff1663c6044c4686866040518363ffffffff1660e01b815260040161010d92919061053b565b600060405180830381600087803b15801561012757600080fd5b505af115801561013b573d6000803e3d6000fd5b505050507f0d1013664d1afda1c712a76630e584de8dd1d656331b90608aedc997fdb7839e818686604051610172939291906105be565b60405180910390a15050505050565b60008054906101000a900473ffffffffffffffffffffffffffffffffffffffff1681565b6000808360601b90506040517f3d602d80600a3d3981f3363d3d373d3d3d363d7300000000000000000000000081528160148201527f5af43d82803e903d91602b57fd5bf300000000000000000000000000000000006028820152836037826000f59250505092915050565b600080fd5b600080fd5b600080fd5b600080fd5b600080fd5b60008083601f8401126102405761023f61021b565b5b8235905067ffffffffffffffff81111561025d5761025c610220565b5b60208301915083602082028301111561027957610278610225565b5b9250929050565b6000819050919050565b61029381610280565b811461029e57600080fd5b50565b6000813590506102b08161028a565b92915050565b6000806000604084860312156102cf576102ce610211565b5b600084013567ffffffffffffffff8111156102ed576102ec610216565b5b6102f98682870161022a565b9350935050602061030c868287016102a1565b9150509250925092565b600073ffffffffffffffffffffffffffffffffffffffff82169050919050565b600061034182610316565b9050919050565b61035181610336565b82525050565b600060208201905061036c6000830184610348565b92915050565b600081905092915050565b6000819050919050565b61039081610336565b82525050565b60006103a28383610387565b60208301905092915050565b6103b781610336565b81146103c257600080fd5b50565b6000813590506103d4816103ae565b92915050565b60006103e960208401846103c5565b905092915050565b6000602082019050919050565b600061040a8385610372565b93506104158261037d565b8060005b8581101561044e5761042b82846103da565b6104358882610396565b9750610440836103f1565b925050600181019050610419565b5085925050509392505050565b6000819050919050565b61047661047182610280565b61045b565b82525050565b60006104898285876103fe565b91506104958284610465565b602082019150819050949350505050565b600082825260208201905092915050565b6104c081610336565b82525050565b60006104d283836104b7565b60208301905092915050565b60006104ea83856104a6565b93506104f58261037d565b8060005b8581101561052e5761050b82846103da565b61051588826104c6565b9750610520836103f1565b9250506001810190506104f9565b5085925050509392505050565b600060208201905081810360008301526105568184866104de565b90509392505050565b6000819050919050565b600061058461057f61057a84610316565b61055f565b610316565b9050919050565b600061059682610569565b9050919050565b60006105a88261058b565b9050919050565b6105b88161059d565b82525050565b60006040820190506105d360008301866105af565b81810360208301526105e68184866104de565b905094935050505056fea2646970667358221220c07308fb67e4901c3115f19fed9784ef834f4e9237d912fde9c37dea4225756d64736f6c634300080a0033",
					"opcodes": "PUSH1 0x80 PUSH1 0x40 MSTORE CALLVALUE DUP1 ISZERO PUSH2 0x10 JUMPI PUSH1 0x0 DUP1 REVERT JUMPDEST POP PUSH1 0x40 MLOAD PUSH2 0x73D CODESIZE SUB DUP1 PUSH2 0x73D DUP4 CODECOPY DUP2 DUP2 ADD PUSH1 0x40 MSTORE DUP2 ADD SWAP1 PUSH2 0x32 SWAP2 SWAP1 PUSH2 0xDB JUMP JUMPDEST DUP1 PUSH1 0x0 DUP1 PUSH2 0x100 EXP DUP2 SLOAD DUP2 PUSH20 0xFFFFFFFFFFFFFFFFFFFFFFFFFFFFFFFFFFFFFFFF MUL NOT AND SWAP1 DUP4 PUSH20 0xFFFFFFFFFFFFFFFFFFFFFFFFFFFFFFFFFFFFFFFF AND MUL OR SWAP1 SSTORE POP POP PUSH2 0x108 JUMP JUMPDEST PUSH1 0x0 DUP1 REVERT JUMPDEST PUSH1 0x0 PUSH20 0xFFFFFFFFFFFFFFFFFFFFFFFFFFFFFFFFFFFFFFFF DUP3 AND SWAP1 POP SWAP2 SWAP1 POP JUMP JUMPDEST PUSH1 0x0 PUSH2 0xA8 DUP3 PUSH2 0x7D JUMP JUMPDEST SWAP1 POP SWAP2 SWAP1 POP JUMP JUMPDEST PUSH2 0xB8 DUP2 PUSH2 0x9D JUMP JUMPDEST DUP2 EQ PUSH2 0xC3 JUMPI PUSH1 0x0 DUP1 REVERT JUMPDEST POP JUMP JUMPDEST PUSH1 0x0 DUP2 MLOAD SWAP1 POP PUSH2 0xD5 DUP2 PUSH2 0xAF JUMP JUMPDEST SWAP3 SWAP2 POP POP JUMP JUMPDEST PUSH1 0x0 PUSH1 0x20 DUP3 DUP5 SUB SLT ISZERO PUSH2 0xF1 JUMPI PUSH2 0xF0 PUSH2 0x78 JUMP JUMPDEST JUMPDEST PUSH1 0x0 PUSH2 0xFF DUP5 DUP3 DUP6 ADD PUSH2 0xC6 JUMP JUMPDEST SWAP2 POP POP SWAP3 SWAP2 POP POP JUMP JUMPDEST PUSH2 0x626 DUP1 PUSH2 0x117 PUSH1 0x0 CODECOPY PUSH1 0x0 RETURN INVALID PUSH1 0x80 PUSH1 0x40 MSTORE CALLVALUE DUP1 ISZERO PUSH2 0x10 JUMPI PUSH1 0x0 DUP1 REVERT JUMPDEST POP PUSH1 0x4 CALLDATASIZE LT PUSH2 0x36 JUMPI PUSH1 0x0 CALLDATALOAD PUSH1 0xE0 SHR DUP1 PUSH4 0x7117F3FA EQ PUSH2 0x3B JUMPI DUP1 PUSH4 0xB97A2319 EQ PUSH2 0x57 JUMPI JUMPDEST PUSH1 0x0 DUP1 REVERT JUMPDEST PUSH2 0x55 PUSH1 0x4 DUP1 CALLDATASIZE SUB DUP2 ADD SWAP1 PUSH2 0x50 SWAP2 SWAP1 PUSH2 0x2B6 JUMP JUMPDEST PUSH2 0x75 JUMP JUMPDEST STOP JUMPDEST PUSH2 0x5F PUSH2 0x181 JUMP JUMPDEST PUSH1 0x40 MLOAD PUSH2 0x6C SWAP2 SWAP1 PUSH2 0x357 JUMP JUMPDEST PUSH1 0x40 MLOAD DUP1 SWAP2 SUB SWAP1 RETURN JUMPDEST PUSH1 0x0 DUP4 DUP4 DUP4 PUSH1 0x40 MLOAD PUSH1 0x20 ADD PUSH2 0x8C SWAP4 SWAP3 SWAP2 SWAP1 PUSH2 0x47C JUMP JUMPDEST PUSH1 0x40 MLOAD PUSH1 0x20 DUP2 DUP4 SUB SUB DUP2 MSTORE SWAP1 PUSH1 0x40 MSTORE DUP1 MLOAD SWAP1 PUSH1 0x20 ADD KECCAK256 SWAP1 POP PUSH1 0x0 PUSH2 0xD0 PUSH1 0x0 DUP1 SLOAD SWAP1 PUSH2 0x100 EXP SWAP1 DIV PUSH20 0xFFFFFFFFFFFFFFFFFFFFFFFFFFFFFFFFFFFFFFFF AND DUP4 PUSH2 0x1A5 JUMP JUMPDEST SWAP1 POP DUP1 PUSH20 0xFFFFFFFFFFFFFFFFFFFFFFFFFFFFFFFFFFFFFFFF AND PUSH4 0xC6044C46 DUP7 DUP7 PUSH1 0x40 MLOAD DUP4 PUSH4 0xFFFFFFFF AND PUSH1 0xE0 SHL DUP2 MSTORE PUSH1 0x4 ADD PUSH2 0x10D SWAP3 SWAP2 SWAP1 PUSH2 0x53B JUMP JUMPDEST PUSH1 0x0 PUSH1 0x40 MLOAD DUP1 DUP4 SUB DUP2 PUSH1 0x0 DUP8 DUP1 EXTCODESIZE ISZERO DUP1 ISZERO PUSH2 0x127 JUMPI PUSH1 0x0 DUP1 REVERT JUMPDEST POP GAS CALL ISZERO DUP1 ISZERO PUSH2 0x13B JUMPI RETURNDATASIZE PUSH1 0x0 DUP1 RETURNDATACOPY RETURNDATASIZE PUSH1 0x0 REVERT JUMPDEST POP POP POP POP PUSH32 0xD1013664D1AFDA1C712A76630E584DE8DD1D656331B90608AEDC997FDB7839E DUP2 DUP7 DUP7 PUSH1 0x40 MLOAD PUSH2 0x172 SWAP4 SWAP3 SWAP2 SWAP1 PUSH2 0x5BE JUMP JUMPDEST PUSH1 0x40 MLOAD DUP1 SWAP2 SUB SWAP1 LOG1 POP POP POP POP POP JUMP JUMPDEST PUSH1 0x0 DUP1 SLOAD SWAP1 PUSH2 0x100 EXP SWAP1 DIV PUSH20 0xFFFFFFFFFFFFFFFFFFFFFFFFFFFFFFFFFFFFFFFF AND DUP2 JUMP JUMPDEST PUSH1 0x0 DUP1 DUP4 PUSH1 0x60 SHL SWAP1 POP PUSH1 0x40 MLOAD PUSH32 0x3D602D80600A3D3981F3363D3D373D3D3D363D73000000000000000000000000 DUP2 MSTORE DUP2 PUSH1 0x14 DUP3 ADD MSTORE PUSH32 0x5AF43D82803E903D91602B57FD5BF30000000000000000000000000000000000 PUSH1 0x28 DUP3 ADD MSTORE DUP4 PUSH1 0x37 DUP3 PUSH1 0x0 CREATE2 SWAP3 POP POP POP SWAP3 SWAP2 POP POP JUMP JUMPDEST PUSH1 0x0 DUP1 REVERT JUMPDEST PUSH1 0x0 DUP1 REVERT JUMPDEST PUSH1 0x0 DUP1 REVERT JUMPDEST PUSH1 0x0 DUP1 REVERT JUMPDEST PUSH1 0x0 DUP1 REVERT JUMPDEST PUSH1 0x0 DUP1 DUP4 PUSH1 0x1F DUP5 ADD SLT PUSH2 0x240 JUMPI PUSH2 0x23F PUSH2 0x21B JUMP JUMPDEST JUMPDEST DUP3 CALLDATALOAD SWAP1 POP PUSH8 0xFFFFFFFFFFFFFFFF DUP2 GT ISZERO PUSH2 0x25D JUMPI PUSH2 0x25C PUSH2 0x220 JUMP JUMPDEST JUMPDEST PUSH1 0x20 DUP4 ADD SWAP2 POP DUP4 PUSH1 0x20 DUP3 MUL DUP4 ADD GT ISZERO PUSH2 0x279 JUMPI PUSH2 0x278 PUSH2 0x225 JUMP JUMPDEST JUMPDEST SWAP3 POP SWAP3 SWAP1 POP JUMP JUMPDEST PUSH1 0x0 DUP2 SWAP1 POP SWAP2 SWAP1 POP JUMP JUMPDEST PUSH2 0x293 DUP2 PUSH2 0x280 JUMP JUMPDEST DUP2 EQ PUSH2 0x29E JUMPI PUSH1 0x0 DUP1 REVERT JUMPDEST POP JUMP JUMPDEST PUSH1 0x0 DUP2 CALLDATALOAD SWAP1 POP PUSH2 0x2B0 DUP2 PUSH2 0x28A JUMP JUMPDEST SWAP3 SWAP2 POP POP JUMP JUMPDEST PUSH1 0x0 DUP1 PUSH1 0x0 PUSH1 0x40 DUP5 DUP7 SUB SLT ISZERO PUSH2 0x2CF JUMPI PUSH2 0x2CE PUSH2 0x211 JUMP JUMPDEST JUMPDEST PUSH1 0x0 DUP5 ADD CALLDATALOAD PUSH8 0xFFFFFFFFFFFFFFFF DUP2 GT ISZERO PUSH2 0x2ED JUMPI PUSH2 0x2EC PUSH2 0x216 JUMP JUMPDEST JUMPDEST PUSH2 0x2F9 DUP7 DUP3 DUP8 ADD PUSH2 0x22A JUMP JUMPDEST SWAP4 POP SWAP4 POP POP PUSH1 0x20 PUSH2 0x30C DUP7 DUP3 DUP8 ADD PUSH2 0x2A1 JUMP JUMPDEST SWAP2 POP POP SWAP3 POP SWAP3 POP SWAP3 JUMP JUMPDEST PUSH1 0x0 PUSH20 0xFFFFFFFFFFFFFFFFFFFFFFFFFFFFFFFFFFFFFFFF DUP3 AND SWAP1 POP SWAP2 SWAP1 POP JUMP JUMPDEST PUSH1 0x0 PUSH2 0x341 DUP3 PUSH2 0x316 JUMP JUMPDEST SWAP1 POP SWAP2 SWAP1 POP JUMP JUMPDEST PUSH2 0x351 DUP2 PUSH2 0x336 JUMP JUMPDEST DUP3 MSTORE POP POP JUMP JUMPDEST PUSH1 0x0 PUSH1 0x20 DUP3 ADD SWAP1 POP PUSH2 0x36C PUSH1 0x0 DUP4 ADD DUP5 PUSH2 0x348 JUMP JUMPDEST SWAP3 SWAP2 POP POP JUMP JUMPDEST PUSH1 0x0 DUP2 SWAP1 POP SWAP3 SWAP2 POP POP JUMP JUMPDEST PUSH1 0x0 DUP2 SWAP1 POP SWAP2 SWAP1 POP JUMP JUMPDEST PUSH2 0x390 DUP2 PUSH2 0x336 JUMP JUMPDEST DUP3 MSTORE POP POP JUMP JUMPDEST PUSH1 0x0 PUSH2 0x3A2 DUP4 DUP4 PUSH2 0x387 JUMP JUMPDEST PUSH1 0x20 DUP4 ADD SWAP1 POP SWAP3 SWAP2 POP POP JUMP JUMPDEST PUSH2 0x3B7 DUP2 PUSH2 0x336 JUMP JUMPDEST DUP2 EQ PUSH2 0x3C2 JUMPI PUSH1 0x0 DUP1 REVERT JUMPDEST POP JUMP JUMPDEST PUSH1 0x0 DUP2 CALLDATALOAD SWAP1 POP PUSH2 0x3D4 DUP2 PUSH2 0x3AE JUMP JUMPDEST SWAP3 SWAP2 POP POP JUMP JUMPDEST PUSH1 0x0 PUSH2 0x3E9 PUSH1 0x20 DUP5 ADD DUP5 PUSH2 0x3C5 JUMP JUMPDEST SWAP1 POP SWAP3 SWAP2 POP POP JUMP JUMPDEST PUSH1 0x0 PUSH1 0x20 DUP3 ADD SWAP1 POP SWAP2 SWAP1 POP JUMP JUMPDEST PUSH1 0x0 PUSH2 0x40A DUP4 DUP6 PUSH2 0x372 JUMP JUMPDEST SWAP4 POP PUSH2 0x415 DUP3 PUSH2 0x37D JUMP JUMPDEST DUP1 PUSH1 0x0 JUMPDEST DUP6 DUP2 LT ISZERO PUSH2 0x44E JUMPI PUSH2 0x42B DUP3 DUP5 PUSH2 0x3DA JUMP JUMPDEST PUSH2 0x435 DUP9 DUP3 PUSH2 0x396 JUMP JUMPDEST SWAP8 POP PUSH2 0x440 DUP4 PUSH2 0x3F1 JUMP JUMPDEST SWAP3 POP POP PUSH1 0x1 DUP2 ADD SWAP1 POP PUSH2 0x419 JUMP JUMPDEST POP DUP6 SWAP3 POP POP POP SWAP4 SWAP3 POP POP POP JUMP JUMPDEST PUSH1 0x0 DUP2 SWAP1 POP SWAP2 SWAP1 POP JUMP JUMPDEST PUSH2 0x476 PUSH2 0x471 DUP3 PUSH2 0x280 JUMP JUMPDEST PUSH2 0x45B JUMP JUMPDEST DUP3 MSTORE POP POP JUMP JUMPDEST PUSH1 0x0 PUSH2 0x489 DUP3 DUP6 DUP8 PUSH2 0x3FE JUMP JUMPDEST SWAP2 POP PUSH2 0x495 DUP3 DUP5 PUSH2 0x465 JUMP JUMPDEST PUSH1 0x20 DUP3 ADD SWAP2 POP DUP2 SWAP1 POP SWAP5 SWAP4 POP POP POP POP JUMP JUMPDEST PUSH1 0x0 DUP3 DUP3 MSTORE PUSH1 0x20 DUP3 ADD SWAP1 POP SWAP3 SWAP2 POP POP JUMP JUMPDEST PUSH2 0x4C0 DUP2 PUSH2 0x336 JUMP JUMPDEST DUP3 MSTORE POP POP JUMP JUMPDEST PUSH1 0x0 PUSH2 0x4D2 DUP4 DUP4 PUSH2 0x4B7 JUMP JUMPDEST PUSH1 0x20 DUP4 ADD SWAP1 POP SWAP3 SWAP2 POP POP JUMP JUMPDEST PUSH1 0x0 PUSH2 0x4EA DUP4 DUP6 PUSH2 0x4A6 JUMP JUMPDEST SWAP4 POP PUSH2 0x4F5 DUP3 PUSH2 0x37D JUMP JUMPDEST DUP1 PUSH1 0x0 JUMPDEST DUP6 DUP2 LT ISZERO PUSH2 0x52E JUMPI PUSH2 0x50B DUP3 DUP5 PUSH2 0x3DA JUMP JUMPDEST PUSH2 0x515 DUP9 DUP3 PUSH2 0x4C6 JUMP JUMPDEST SWAP8 POP PUSH2 0x520 DUP4 PUSH2 0x3F1 JUMP JUMPDEST SWAP3 POP POP PUSH1 0x1 DUP2 ADD SWAP1 POP PUSH2 0x4F9 JUMP JUMPDEST POP DUP6 SWAP3 POP POP POP SWAP4 SWAP3 POP POP POP JUMP JUMPDEST PUSH1 0x0 PUSH1 0x20 DUP3 ADD SWAP1 POP DUP2 DUP2 SUB PUSH1 0x0 DUP4 ADD MSTORE PUSH2 0x556 DUP2 DUP5 DUP7 PUSH2 0x4DE JUMP JUMPDEST SWAP1 POP SWAP4 SWAP3 POP POP POP JUMP JUMPDEST PUSH1 0x0 DUP2 SWAP1 POP SWAP2 SWAP1 POP JUMP JUMPDEST PUSH1 0x0 PUSH2 0x584 PUSH2 0x57F PUSH2 0x57A DUP5 PUSH2 0x316 JUMP JUMPDEST PUSH2 0x55F JUMP JUMPDEST PUSH2 0x316 JUMP JUMPDEST SWAP1 POP SWAP2 SWAP1 POP JUMP JUMPDEST PUSH1 0x0 PUSH2 0x596 DUP3 PUSH2 0x569 JUMP JUMPDEST SWAP1 POP SWAP2 SWAP1 POP JUMP JUMPDEST PUSH1 0x0 PUSH2 0x5A8 DUP3 PUSH2 0x58B JUMP JUMPDEST SWAP1 POP SWAP2 SWAP1 POP JUMP JUMPDEST PUSH2 0x5B8 DUP2 PUSH2 0x59D JUMP JUMPDEST DUP3 MSTORE POP POP JUMP JUMPDEST PUSH1 0x0 PUSH1 0x40 DUP3 ADD SWAP1 POP PUSH2 0x5D3 PUSH1 0x0 DUP4 ADD DUP7 PUSH2 0x5AF JUMP JUMPDEST DUP2 DUP2 SUB PUSH1 0x20 DUP4 ADD MSTORE PUSH2 0x5E6 DUP2 DUP5 DUP7 PUSH2 0x4DE JUMP JUMPDEST SWAP1 POP SWAP5 SWAP4 POP POP POP POP JUMP INVALID LOG2 PUSH5 0x6970667358 0x22 SLT KECCAK256 0xC0 PUSH20 0x8FB67E4901C3115F19FED9784EF834F4E9237D9 SLT REVERT 0xE9 0xC3 PUSH30 0xEA4225756D64736F6C634300080A00330000000000000000000000000000 "
				},
				"gasEstimates": {
					"creation": {
						"codeDepositCost": "314800",
						"executionCost": "infinite",
						"totalCost": "infinite"
					},
					"external": {
						"createWallet(address[],bytes32)": "infinite",
						"implementationAddress()": "2511"
					}
				},
				"methodIdentifiers": {
					"createWallet(address[],bytes32)": "7117f3fa",
					"implementationAddress()": "b97a2319"
				}
			},
			"storageLayout": {
				"storage": [
					{
						"astId": 656,
						"contract": "contracts/MultiSigWallet/WalletFactory.sol:WalletFactory",
						"label": "implementationAddress",
						"offset": 0,
						"slot": "0",
						"type": "t_address"
					}
				],
				"types": {
					"t_address": {
						"encoding": "inplace",
						"label": "address",
						"numberOfBytes": "20"
					}
				}
			},
			"userdoc": {
				"kind": "user",
				"methods": {},
				"version": 1
			}
		}
	}
}