{
	"contracts/MultiSigWallet/WalletSimple.sol": {
		"WalletSimple": {
			"abi": [
				{
					"anonymous": false,
					"inputs": [
						{
							"indexed": false,
							"internalType": "address",
							"name": "msgSender",
							"type": "address"
						},
						{
							"indexed": false,
							"internalType": "address",
							"name": "otherSigner",
							"type": "address"
						},
						{
							"indexed": false,
							"internalType": "bytes32",
							"name": "operation",
							"type": "bytes32"
						}
					],
					"name": "BatchTransacted",
					"type": "event"
				},
				{
					"anonymous": false,
					"inputs": [
						{
							"indexed": false,
							"internalType": "address",
							"name": "sender",
							"type": "address"
						},
						{
							"indexed": false,
							"internalType": "address",
							"name": "recipient",
							"type": "address"
						},
						{
							"indexed": false,
							"internalType": "uint256",
							"name": "value",
							"type": "uint256"
						}
					],
					"name": "BatchTransfer",
					"type": "event"
				},
				{
					"anonymous": false,
					"inputs": [
						{
							"indexed": false,
							"internalType": "address",
							"name": "from",
							"type": "address"
						},
						{
							"indexed": false,
							"internalType": "uint256",
							"name": "value",
							"type": "uint256"
						},
						{
							"indexed": false,
							"internalType": "bytes",
							"name": "data",
							"type": "bytes"
						}
					],
					"name": "Deposited",
					"type": "event"
				},
				{
					"anonymous": false,
					"inputs": [
						{
							"indexed": false,
							"internalType": "address",
							"name": "msgSender",
							"type": "address"
						}
					],
					"name": "SafeModeActivated",
					"type": "event"
				},
				{
					"anonymous": false,
					"inputs": [
						{
							"indexed": false,
							"internalType": "address",
							"name": "msgSender",
							"type": "address"
						},
						{
							"indexed": false,
							"internalType": "address",
							"name": "otherSigner",
							"type": "address"
						},
						{
							"indexed": false,
							"internalType": "bytes32",
							"name": "operation",
							"type": "bytes32"
						},
						{
							"indexed": false,
							"internalType": "address",
							"name": "toAddress",
							"type": "address"
						},
						{
							"indexed": false,
							"internalType": "uint256",
							"name": "value",
							"type": "uint256"
						},
						{
							"indexed": false,
							"internalType": "bytes",
							"name": "data",
							"type": "bytes"
						}
					],
					"name": "Transacted",
					"type": "event"
				},
				{
					"stateMutability": "payable",
					"type": "fallback"
				},
				{
					"inputs": [],
					"name": "activateSafeMode",
					"outputs": [],
					"stateMutability": "nonpayable",
					"type": "function"
				},
				{
					"inputs": [
						{
							"internalType": "address payable",
							"name": "forwarderAddress",
							"type": "address"
						},
						{
							"internalType": "address",
							"name": "tokenContractAddress",
							"type": "address"
						},
						{
							"internalType": "uint256[]",
							"name": "tokenIds",
							"type": "uint256[]"
						}
					],
					"name": "batchFlushERC1155ForwarderTokens",
					"outputs": [],
					"stateMutability": "nonpayable",
					"type": "function"
				},
				{
					"inputs": [
						{
							"internalType": "address payable",
							"name": "forwarderAddress",
							"type": "address"
						},
						{
							"internalType": "address",
							"name": "tokenContractAddress",
							"type": "address"
						},
						{
							"internalType": "uint256",
							"name": "tokenId",
							"type": "uint256"
						}
					],
					"name": "flushERC1155ForwarderTokens",
					"outputs": [],
					"stateMutability": "nonpayable",
					"type": "function"
				},
				{
					"inputs": [
						{
							"internalType": "address payable",
							"name": "forwarderAddress",
							"type": "address"
						},
						{
							"internalType": "address",
							"name": "tokenContractAddress",
							"type": "address"
						},
						{
							"internalType": "uint256",
							"name": "tokenId",
							"type": "uint256"
						}
					],
					"name": "flushERC721ForwarderTokens",
					"outputs": [],
					"stateMutability": "nonpayable",
					"type": "function"
				},
				{
					"inputs": [
						{
							"internalType": "address payable",
							"name": "forwarderAddress",
							"type": "address"
						},
						{
							"internalType": "address",
							"name": "tokenContractAddress",
							"type": "address"
						}
					],
					"name": "flushForwarderTokens",
					"outputs": [],
					"stateMutability": "nonpayable",
					"type": "function"
				},
				{
					"inputs": [],
					"name": "getNextSequenceId",
					"outputs": [
						{
							"internalType": "uint256",
							"name": "",
							"type": "uint256"
						}
					],
					"stateMutability": "view",
					"type": "function"
				},
				{
					"inputs": [
						{
							"internalType": "address[]",
							"name": "allowedSigners",
							"type": "address[]"
						}
					],
					"name": "init",
					"outputs": [],
					"stateMutability": "nonpayable",
					"type": "function"
				},
				{
					"inputs": [],
					"name": "initialized",
					"outputs": [
						{
							"internalType": "bool",
							"name": "",
							"type": "bool"
						}
					],
					"stateMutability": "view",
					"type": "function"
				},
				{
					"inputs": [
						{
							"internalType": "address",
							"name": "signer",
							"type": "address"
						}
					],
					"name": "isSigner",
					"outputs": [
						{
							"internalType": "bool",
							"name": "",
							"type": "bool"
						}
					],
					"stateMutability": "view",
					"type": "function"
				},
				{
					"inputs": [
						{
							"internalType": "address",
							"name": "_operator",
							"type": "address"
						},
						{
							"internalType": "address",
							"name": "_from",
							"type": "address"
						},
						{
							"internalType": "uint256[]",
							"name": "ids",
							"type": "uint256[]"
						},
						{
							"internalType": "uint256[]",
							"name": "values",
							"type": "uint256[]"
						},
						{
							"internalType": "bytes",
							"name": "data",
							"type": "bytes"
						}
					],
					"name": "onERC1155BatchReceived",
					"outputs": [
						{
							"internalType": "bytes4",
							"name": "",
							"type": "bytes4"
						}
					],
					"stateMutability": "nonpayable",
					"type": "function"
				},
				{
					"inputs": [
						{
							"internalType": "address",
							"name": "_operator",
							"type": "address"
						},
						{
							"internalType": "address",
							"name": "_from",
							"type": "address"
						},
						{
							"internalType": "uint256",
							"name": "id",
							"type": "uint256"
						},
						{
							"internalType": "uint256",
							"name": "value",
							"type": "uint256"
						},
						{
							"internalType": "bytes",
							"name": "data",
							"type": "bytes"
						}
					],
					"name": "onERC1155Received",
					"outputs": [
						{
							"internalType": "bytes4",
							"name": "",
							"type": "bytes4"
						}
					],
					"stateMutability": "nonpayable",
					"type": "function"
				},
				{
					"inputs": [
						{
							"internalType": "address",
							"name": "_operator",
							"type": "address"
						},
						{
							"internalType": "address",
							"name": "_from",
							"type": "address"
						},
						{
							"internalType": "uint256",
							"name": "_tokenId",
							"type": "uint256"
						},
						{
							"internalType": "bytes",
							"name": "_data",
							"type": "bytes"
						}
					],
					"name": "onERC721Received",
					"outputs": [
						{
							"internalType": "bytes4",
							"name": "",
							"type": "bytes4"
						}
					],
					"stateMutability": "nonpayable",
					"type": "function"
				},
				{
					"inputs": [],
					"name": "safeMode",
					"outputs": [
						{
							"internalType": "bool",
							"name": "",
							"type": "bool"
						}
					],
					"stateMutability": "view",
					"type": "function"
				},
				{
					"inputs": [
						{
							"internalType": "address",
							"name": "toAddress",
							"type": "address"
						},
						{
							"internalType": "uint256",
							"name": "value",
							"type": "uint256"
						},
						{
							"internalType": "bytes",
							"name": "data",
							"type": "bytes"
						},
						{
							"internalType": "uint256",
							"name": "expireTime",
							"type": "uint256"
						},
						{
							"internalType": "uint256",
							"name": "sequenceId",
							"type": "uint256"
						},
						{
							"internalType": "bytes",
							"name": "signature",
							"type": "bytes"
						}
					],
					"name": "sendMultiSig",
					"outputs": [],
					"stateMutability": "nonpayable",
					"type": "function"
				},
				{
					"inputs": [
						{
							"internalType": "address[]",
							"name": "recipients",
							"type": "address[]"
						},
						{
							"internalType": "uint256[]",
							"name": "values",
							"type": "uint256[]"
						},
						{
							"internalType": "uint256",
							"name": "expireTime",
							"type": "uint256"
						},
						{
							"internalType": "uint256",
							"name": "sequenceId",
							"type": "uint256"
						},
						{
							"internalType": "bytes",
							"name": "signature",
							"type": "bytes"
						}
					],
					"name": "sendMultiSigBatch",
					"outputs": [],
					"stateMutability": "nonpayable",
					"type": "function"
				},
				{
					"inputs": [
						{
							"internalType": "address",
							"name": "toAddress",
							"type": "address"
						},
						{
							"internalType": "uint256",
							"name": "value",
							"type": "uint256"
						},
						{
							"internalType": "address",
							"name": "tokenContractAddress",
							"type": "address"
						},
						{
							"internalType": "uint256",
							"name": "expireTime",
							"type": "uint256"
						},
						{
							"internalType": "uint256",
							"name": "sequenceId",
							"type": "uint256"
						},
						{
							"internalType": "bytes",
							"name": "signature",
							"type": "bytes"
						}
					],
					"name": "sendMultiSigToken",
					"outputs": [],
					"stateMutability": "nonpayable",
					"type": "function"
				},
				{
					"inputs": [
						{
							"internalType": "address",
							"name": "forwarderAddress",
							"type": "address"
						},
						{
							"internalType": "bool",
							"name": "autoFlush",
							"type": "bool"
						}
					],
					"name": "setAutoFlush1155",
					"outputs": [],
					"stateMutability": "nonpayable",
					"type": "function"
				},
				{
					"inputs": [
						{
							"internalType": "address",
							"name": "forwarderAddress",
							"type": "address"
						},
						{
							"internalType": "bool",
							"name": "autoFlush",
							"type": "bool"
						}
					],
					"name": "setAutoFlush721",
					"outputs": [],
					"stateMutability": "nonpayable",
					"type": "function"
				},
				{
					"inputs": [
						{
							"internalType": "address",
							"name": "",
							"type": "address"
						}
					],
					"name": "signers",
					"outputs": [
						{
							"internalType": "bool",
							"name": "",
							"type": "bool"
						}
					],
					"stateMutability": "view",
					"type": "function"
				},
				{
					"inputs": [
						{
							"internalType": "bytes4",
							"name": "interfaceId",
							"type": "bytes4"
						}
					],
					"name": "supportsInterface",
					"outputs": [
						{
							"internalType": "bool",
							"name": "",
							"type": "bool"
						}
					],
					"stateMutability": "view",
					"type": "function"
				},
				{
					"stateMutability": "payable",
					"type": "receive"
				}
			],
			"devdoc": {
				"kind": "dev",
				"methods": {
					"batchFlushERC1155ForwarderTokens(address,address,uint256[])": {
						"params": {
							"forwarderAddress": "the address of the forwarder address to flush the tokens from",
							"tokenContractAddress": "the address of the erc1155 token contract"
						}
					},
					"flushERC1155ForwarderTokens(address,address,uint256)": {
						"params": {
							"forwarderAddress": "the address of the forwarder address to flush the tokens from",
							"tokenContractAddress": "the address of the erc1155 token contract",
							"tokenId": "the token id associated with the ERC1155"
						}
					},
					"flushERC721ForwarderTokens(address,address,uint256)": {
						"params": {
							"forwarderAddress": "the address of the forwarder address to flush the tokens from",
							"tokenContractAddress": "the address of the erc20 token contract"
						}
					},
					"flushForwarderTokens(address,address)": {
						"params": {
							"forwarderAddress": "the address of the forwarder address to flush the tokens from",
							"tokenContractAddress": "the address of the erc20 token contract"
						}
					},
					"init(address[])": {
						"params": {
							"allowedSigners": "An array of signers on the wallet"
						}
					},
					"isSigner(address)": {
						"params": {
							"signer": "address to check returns boolean indicating whether address is signer or not"
						}
					},
					"onERC1155BatchReceived(address,address,uint256[],uint256[],bytes)": {
						"details": "Handles the receipt of a multiple ERC1155 token types. This function is called at the end of a `safeBatchTransferFrom` after the balances have been updated. NOTE: To accept the transfer(s), this must return `bytes4(keccak256(\"onERC1155BatchReceived(address,address,uint256[],uint256[],bytes)\"))` (i.e. 0xbc197c81, or its own function selector).",
						"params": {
							"data": "Additional data with no specified format",
							"from": "The address which previously owned the token",
							"ids": "An array containing ids of each token being transferred (order and length must match values array)",
							"operator": "The address which initiated the batch transfer (i.e. msg.sender)",
							"values": "An array containing amounts of each token being transferred (order and length must match ids array)"
						},
						"returns": {
							"_0": "`bytes4(keccak256(\"onERC1155BatchReceived(address,address,uint256[],uint256[],bytes)\"))` if transfer is allowed"
						}
					},
					"onERC1155Received(address,address,uint256,uint256,bytes)": {
						"details": "Handles the receipt of a single ERC1155 token type. This function is called at the end of a `safeTransferFrom` after the balance has been updated. NOTE: To accept the transfer, this must return `bytes4(keccak256(\"onERC1155Received(address,address,uint256,uint256,bytes)\"))` (i.e. 0xf23a6e61, or its own function selector).",
						"params": {
							"data": "Additional data with no specified format",
							"from": "The address which previously owned the token",
							"id": "The ID of the token being transferred",
							"operator": "The address which initiated the transfer (i.e. msg.sender)",
							"value": "The amount of tokens being transferred"
						},
						"returns": {
							"_0": "`bytes4(keccak256(\"onERC1155Received(address,address,uint256,uint256,bytes)\"))` if transfer is allowed"
						}
					},
					"onERC721Received(address,address,uint256,bytes)": {
						"params": {
							"_data": "Additional data with no specified format, sent in call to `_to`",
							"_from": "The address of the sender",
							"_operator": "The address of the nft contract",
							"_tokenId": "The token id of the nft"
						}
					},
					"sendMultiSig(address,uint256,bytes,uint256,uint256,bytes)": {
						"params": {
							"data": "the data to send to the toAddress when invoking the transaction",
							"expireTime": "the number of seconds since 1970 for which this transaction is valid",
							"sequenceId": "the unique sequence id obtainable from getNextSequenceId",
							"signature": "see Data Formats",
							"toAddress": "the destination address to send an outgoing transaction",
							"value": "the amount in Wei to be sent"
						}
					},
					"sendMultiSigBatch(address[],uint256[],uint256,uint256,bytes)": {
						"params": {
							"expireTime": "the number of seconds since 1970 for which this transaction is valid",
							"recipients": "The list of recipients to send to",
							"sequenceId": "the unique sequence id obtainable from getNextSequenceId",
							"signature": "see Data Formats",
							"values": "The list of values to send to"
						}
					},
					"sendMultiSigToken(address,uint256,address,uint256,uint256,bytes)": {
						"params": {
							"expireTime": "the number of seconds since 1970 for which this transaction is valid",
							"sequenceId": "the unique sequence id obtainable from getNextSequenceId",
							"signature": "see Data Formats",
							"toAddress": "the destination address to send an outgoing transaction",
							"tokenContractAddress": "the address of the erc20 token contract",
							"value": "the amount in tokens to be sent"
						}
					},
					"setAutoFlush1155(address,bool)": {
						"params": {
							"autoFlush": "whether to autoflush erc1155 tokens",
							"forwarderAddress": "the address of the forwarder to toggle."
						}
					},
					"setAutoFlush721(address,bool)": {
						"params": {
							"autoFlush": "whether to autoflush erc721 tokens",
							"forwarderAddress": "the address of the forwarder to toggle."
						}
					},
					"supportsInterface(bytes4)": {
						"details": "See {IERC165-supportsInterface}."
					}
				},
				"version": 1
			},
			"evm": {
				"assembly": "    /* \"contracts/MultiSigWallet/WalletSimple.sol\":1364:21623  contract WalletSimple is IERC721Receiver, ERC1155Receiver {... */\n  mstore(0x40, 0x80)\n    /* \"contracts/MultiSigWallet/WalletSimple.sol\":2641:2646  false */\n  0x00\n    /* \"contracts/MultiSigWallet/WalletSimple.sol\":2618:2646  bool public safeMode = false */\n  0x01\n  exp(0x0100, 0x00)\n  dup2\n  sload\n  dup2\n  0xff\n  mul\n  not\n  and\n  swap1\n  dup4\n  iszero\n  iszero\n  mul\n  or\n  swap1\n  sstore\n  pop\n    /* \"contracts/MultiSigWallet/WalletSimple.sol\":2733:2738  false */\n  0x00\n    /* \"contracts/MultiSigWallet/WalletSimple.sol\":2707:2738  bool public initialized = false */\n  0x01\n  dup1\n  0x0100\n  exp\n  dup2\n  sload\n  dup2\n  0xff\n  mul\n  not\n  and\n  swap1\n  dup4\n  iszero\n  iszero\n  mul\n  or\n  swap1\n  sstore\n  pop\n    /* \"contracts/MultiSigWallet/WalletSimple.sol\":1364:21623  contract WalletSimple is IERC721Receiver, ERC1155Receiver {... */\n  callvalue\n  dup1\n  iszero\n  tag_1\n  jumpi\n  0x00\n  dup1\n  revert\ntag_1:\n  pop\n  dataSize(sub_0)\n  dup1\n  dataOffset(sub_0)\n  0x00\n  codecopy\n  0x00\n  return\nstop\n\nsub_0: assembly {\n        /* \"contracts/MultiSigWallet/WalletSimple.sol\":1364:21623  contract WalletSimple is IERC721Receiver, ERC1155Receiver {... */\n      mstore(0x40, 0x80)\n      jumpi(tag_1, lt(calldatasize, 0x04))\n      shr(0xe0, calldataload(0x00))\n      dup1\n      0x92467776\n      gt\n      tag_23\n      jumpi\n      dup1\n      0xc1378784\n      gt\n      tag_24\n      jumpi\n      dup1\n      0xc1378784\n      eq\n      tag_18\n      jumpi\n      dup1\n      0xc6044c46\n      eq\n      tag_19\n      jumpi\n      dup1\n      0xe6bd0aa4\n      eq\n      tag_20\n      jumpi\n      dup1\n      0xf23a6e61\n      eq\n      tag_21\n      jumpi\n      dup1\n      0xfc0f392d\n      eq\n      tag_22\n      jumpi\n      jump(tag_2)\n    tag_24:\n      dup1\n      0x92467776\n      eq\n      tag_13\n      jumpi\n      dup1\n      0xa0b7967b\n      eq\n      tag_14\n      jumpi\n      dup1\n      0xabe3219c\n      eq\n      tag_15\n      jumpi\n      dup1\n      0xad3ad709\n      eq\n      tag_16\n      jumpi\n      dup1\n      0xbc197c81\n      eq\n      tag_17\n      jumpi\n      jump(tag_2)\n    tag_23:\n      dup1\n      0x34f94047\n      gt\n      tag_25\n      jumpi\n      dup1\n      0x34f94047\n      eq\n      tag_8\n      jumpi\n      dup1\n      0x39125215\n      eq\n      tag_9\n      jumpi\n      dup1\n      0x5a953d0a\n      eq\n      tag_10\n      jumpi\n      dup1\n      0x736c0d5b\n      eq\n      tag_11\n      jumpi\n      dup1\n      0x7df73e27\n      eq\n      tag_12\n      jumpi\n      jump(tag_2)\n    tag_25:\n      dup1\n      0x01ffc9a7\n      eq\n      tag_3\n      jumpi\n      dup1\n      0x0dcd7a6c\n      eq\n      tag_4\n      jumpi\n      dup1\n      0x150b7a02\n      eq\n      tag_5\n      jumpi\n      dup1\n      0x158ef93e\n      eq\n      tag_6\n      jumpi\n      dup1\n      0x2da03409\n      eq\n      tag_7\n      jumpi\n      jump(tag_2)\n    tag_1:\n      jumpi(tag_2, calldatasize)\n        /* \"contracts/MultiSigWallet/WalletSimple.sol\":6428:6429  0 */\n      0x00\n        /* \"contracts/MultiSigWallet/WalletSimple.sol\":6416:6425  msg.value */\n      callvalue\n        /* \"contracts/MultiSigWallet/WalletSimple.sol\":6416:6429  msg.value > 0 */\n      gt\n        /* \"contracts/MultiSigWallet/WalletSimple.sol\":6412:6644  if (msg.value > 0) {... */\n      iszero\n      tag_28\n      jumpi\n        /* \"contracts/MultiSigWallet/WalletSimple.sol\":6601:6637  Deposited(msg.sender, msg.value, '') */\n      0x6e89d517057028190560dd200cf6bf792842861353d1173761dfa362e1c133f0\n        /* \"contracts/MultiSigWallet/WalletSimple.sol\":6611:6621  msg.sender */\n      caller\n        /* \"contracts/MultiSigWallet/WalletSimple.sol\":6623:6632  msg.value */\n      callvalue\n        /* \"contracts/MultiSigWallet/WalletSimple.sol\":6601:6637  Deposited(msg.sender, msg.value, '') */\n      mload(0x40)\n      tag_29\n      swap3\n      swap2\n      swap1\n      tag_30\n      jump\t// in\n    tag_29:\n      mload(0x40)\n      dup1\n      swap2\n      sub\n      swap1\n      log1\n        /* \"contracts/MultiSigWallet/WalletSimple.sol\":6412:6644  if (msg.value > 0) {... */\n    tag_28:\n        /* \"contracts/MultiSigWallet/WalletSimple.sol\":1364:21623  contract WalletSimple is IERC721Receiver, ERC1155Receiver {... */\n      stop\n    tag_2:\n        /* \"contracts/MultiSigWallet/WalletSimple.sol\":6167:6168  0 */\n      0x00\n        /* \"contracts/MultiSigWallet/WalletSimple.sol\":6155:6164  msg.value */\n      callvalue\n        /* \"contracts/MultiSigWallet/WalletSimple.sol\":6155:6168  msg.value > 0 */\n      gt\n        /* \"contracts/MultiSigWallet/WalletSimple.sol\":6151:6288  if (msg.value > 0) {... */\n      iszero\n      tag_33\n      jumpi\n        /* \"contracts/MultiSigWallet/WalletSimple.sol\":6239:6281  Deposited(msg.sender, msg.value, msg.data) */\n      0x6e89d517057028190560dd200cf6bf792842861353d1173761dfa362e1c133f0\n        /* \"contracts/MultiSigWallet/WalletSimple.sol\":6249:6259  msg.sender */\n      caller\n        /* \"contracts/MultiSigWallet/WalletSimple.sol\":6261:6270  msg.value */\n      callvalue\n        /* \"contracts/MultiSigWallet/WalletSimple.sol\":6272:6280  msg.data */\n      0x00\n      calldatasize\n        /* \"contracts/MultiSigWallet/WalletSimple.sol\":6239:6281  Deposited(msg.sender, msg.value, msg.data) */\n      mload(0x40)\n      tag_34\n      swap5\n      swap4\n      swap3\n      swap2\n      swap1\n      tag_35\n      jump\t// in\n    tag_34:\n      mload(0x40)\n      dup1\n      swap2\n      sub\n      swap1\n      log1\n        /* \"contracts/MultiSigWallet/WalletSimple.sol\":6151:6288  if (msg.value > 0) {... */\n    tag_33:\n        /* \"contracts/MultiSigWallet/WalletSimple.sol\":1364:21623  contract WalletSimple is IERC721Receiver, ERC1155Receiver {... */\n      stop\n        /* \"@openzeppelin/contracts/token/ERC1155/utils/ERC1155Receiver.sol\":387:608  function supportsInterface(bytes4 interfaceId) public view virtual override(ERC165, IERC165) returns (bool) {... */\n    tag_3:\n      callvalue\n      dup1\n      iszero\n      tag_36\n      jumpi\n      0x00\n      dup1\n      revert\n    tag_36:\n      pop\n      tag_37\n      0x04\n      dup1\n      calldatasize\n      sub\n      dup2\n      add\n      swap1\n      tag_38\n      swap2\n      swap1\n      tag_39\n      jump\t// in\n    tag_38:\n      tag_40\n      jump\t// in\n    tag_37:\n      mload(0x40)\n      tag_41\n      swap2\n      swap1\n      tag_42\n      jump\t// in\n    tag_41:\n      mload(0x40)\n      dup1\n      swap2\n      sub\n      swap1\n      return\n        /* \"contracts/MultiSigWallet/WalletSimple.sol\":11435:12042  function sendMultiSigToken(... */\n    tag_4:\n      callvalue\n      dup1\n      iszero\n      tag_43\n      jumpi\n      0x00\n      dup1\n      revert\n    tag_43:\n      pop\n      tag_44\n      0x04\n      dup1\n      calldatasize\n      sub\n      dup2\n      add\n      swap1\n      tag_45\n      swap2\n      swap1\n      tag_46\n      jump\t// in\n    tag_45:\n      tag_47\n      jump\t// in\n    tag_44:\n      stop\n        /* \"contracts/MultiSigWallet/WalletSimple.sol\":16979:17188  function onERC721Received(... */\n    tag_5:\n      callvalue\n      dup1\n      iszero\n      tag_48\n      jumpi\n      0x00\n      dup1\n      revert\n    tag_48:\n      pop\n      tag_49\n      0x04\n      dup1\n      calldatasize\n      sub\n      dup2\n      add\n      swap1\n      tag_50\n      swap2\n      swap1\n      tag_51\n      jump\t// in\n    tag_50:\n      tag_52\n      jump\t// in\n    tag_49:\n      mload(0x40)\n      tag_53\n      swap2\n      swap1\n      tag_54\n      jump\t// in\n    tag_53:\n      mload(0x40)\n      dup1\n      swap2\n      sub\n      swap1\n      return\n        /* \"contracts/MultiSigWallet/WalletSimple.sol\":2707:2738  bool public initialized = false */\n    tag_6:\n      callvalue\n      dup1\n      iszero\n      tag_55\n      jumpi\n      0x00\n      dup1\n      revert\n    tag_55:\n      pop\n      tag_56\n      tag_57\n      jump\t// in\n    tag_56:\n      mload(0x40)\n      tag_58\n      swap2\n      swap1\n      tag_42\n      jump\t// in\n    tag_58:\n      mload(0x40)\n      dup1\n      swap2\n      sub\n      swap1\n      return\n        /* \"contracts/MultiSigWallet/WalletSimple.sol\":12365:12602  function flushForwarderTokens(... */\n    tag_7:\n      callvalue\n      dup1\n      iszero\n      tag_59\n      jumpi\n      0x00\n      dup1\n      revert\n    tag_59:\n      pop\n      tag_60\n      0x04\n      dup1\n      calldatasize\n      sub\n      dup2\n      add\n      swap1\n      tag_61\n      swap2\n      swap1\n      tag_62\n      jump\t// in\n    tag_61:\n      tag_63\n      jump\t// in\n    tag_60:\n      stop\n        /* \"contracts/MultiSigWallet/WalletSimple.sol\":13555:13859  function batchFlushERC1155ForwarderTokens(... */\n    tag_8:\n      callvalue\n      dup1\n      iszero\n      tag_64\n      jumpi\n      0x00\n      dup1\n      revert\n    tag_64:\n      pop\n      tag_65\n      0x04\n      dup1\n      calldatasize\n      sub\n      dup2\n      add\n      swap1\n      tag_66\n      swap2\n      swap1\n      tag_67\n      jump\t// in\n    tag_66:\n      tag_68\n      jump\t// in\n    tag_65:\n      stop\n        /* \"contracts/MultiSigWallet/WalletSimple.sol\":7325:8155  function sendMultiSig(... */\n    tag_9:\n      callvalue\n      dup1\n      iszero\n      tag_69\n      jumpi\n      0x00\n      dup1\n      revert\n    tag_69:\n      pop\n      tag_70\n      0x04\n      dup1\n      calldatasize\n      sub\n      dup2\n      add\n      swap1\n      tag_71\n      swap2\n      swap1\n      tag_72\n      jump\t// in\n    tag_71:\n      tag_73\n      jump\t// in\n    tag_70:\n      stop\n        /* \"contracts/MultiSigWallet/WalletSimple.sol\":12932:13210  function flushERC721ForwarderTokens(... */\n    tag_10:\n      callvalue\n      dup1\n      iszero\n      tag_74\n      jumpi\n      0x00\n      dup1\n      revert\n    tag_74:\n      pop\n      tag_75\n      0x04\n      dup1\n      calldatasize\n      sub\n      dup2\n      add\n      swap1\n      tag_76\n      swap2\n      swap1\n      tag_77\n      jump\t// in\n    tag_76:\n      tag_78\n      jump\t// in\n    tag_75:\n      stop\n        /* \"contracts/MultiSigWallet/WalletSimple.sol\":2514:2553  mapping(address => bool) public signers */\n    tag_11:\n      callvalue\n      dup1\n      iszero\n      tag_79\n      jumpi\n      0x00\n      dup1\n      revert\n    tag_79:\n      pop\n      tag_80\n      0x04\n      dup1\n      calldatasize\n      sub\n      dup2\n      add\n      swap1\n      tag_81\n      swap2\n      swap1\n      tag_82\n      jump\t// in\n    tag_81:\n      tag_83\n      jump\t// in\n    tag_80:\n      mload(0x40)\n      tag_84\n      swap2\n      swap1\n      tag_42\n      jump\t// in\n    tag_84:\n      mload(0x40)\n      dup1\n      swap2\n      sub\n      swap1\n      return\n        /* \"contracts/MultiSigWallet/WalletSimple.sol\":5468:5562  function isSigner(address signer) public view returns (bool) {... */\n    tag_12:\n      callvalue\n      dup1\n      iszero\n      tag_85\n      jumpi\n      0x00\n      dup1\n      revert\n    tag_85:\n      pop\n      tag_86\n      0x04\n      dup1\n      calldatasize\n      sub\n      dup2\n      add\n      swap1\n      tag_87\n      swap2\n      swap1\n      tag_82\n      jump\t// in\n    tag_87:\n      tag_88\n      jump\t// in\n    tag_86:\n      mload(0x40)\n      tag_89\n      swap2\n      swap1\n      tag_42\n      jump\t// in\n    tag_89:\n      mload(0x40)\n      dup1\n      swap2\n      sub\n      swap1\n      return\n        /* \"contracts/MultiSigWallet/WalletSimple.sol\":15148:15351  function setAutoFlush1155(address forwarderAddress, bool autoFlush)... */\n    tag_13:\n      callvalue\n      dup1\n      iszero\n      tag_90\n      jumpi\n      0x00\n      dup1\n      revert\n    tag_90:\n      pop\n      tag_91\n      0x04\n      dup1\n      calldatasize\n      sub\n      dup2\n      add\n      swap1\n      tag_92\n      swap2\n      swap1\n      tag_93\n      jump\t// in\n    tag_92:\n      tag_94\n      jump\t// in\n    tag_91:\n      stop\n        /* \"contracts/MultiSigWallet/WalletSimple.sol\":21308:21621  function getNextSequenceId() external view returns (uint256) {... */\n    tag_14:\n      callvalue\n      dup1\n      iszero\n      tag_95\n      jumpi\n      0x00\n      dup1\n      revert\n    tag_95:\n      pop\n      tag_96\n      tag_97\n      jump\t// in\n    tag_96:\n      mload(0x40)\n      tag_98\n      swap2\n      swap1\n      tag_99\n      jump\t// in\n    tag_98:\n      mload(0x40)\n      dup1\n      swap2\n      sub\n      swap1\n      return\n        /* \"contracts/MultiSigWallet/WalletSimple.sol\":2618:2646  bool public safeMode = false */\n    tag_15:\n      callvalue\n      dup1\n      iszero\n      tag_100\n      jumpi\n      0x00\n      dup1\n      revert\n    tag_100:\n      pop\n      tag_101\n      tag_102\n      jump\t// in\n    tag_101:\n      mload(0x40)\n      tag_103\n      swap2\n      swap1\n      tag_42\n      jump\t// in\n    tag_103:\n      mload(0x40)\n      dup1\n      swap2\n      sub\n      swap1\n      return\n        /* \"contracts/MultiSigWallet/WalletSimple.sol\":8863:10024  function sendMultiSigBatch(... */\n    tag_16:\n      callvalue\n      dup1\n      iszero\n      tag_104\n      jumpi\n      0x00\n      dup1\n      revert\n    tag_104:\n      pop\n      tag_105\n      0x04\n      dup1\n      calldatasize\n      sub\n      dup2\n      add\n      swap1\n      tag_106\n      swap2\n      swap1\n      tag_107\n      jump\t// in\n    tag_106:\n      tag_108\n      jump\t// in\n    tag_105:\n      stop\n        /* \"contracts/MultiSigWallet/WalletSimple.sol\":17513:17772  function onERC1155BatchReceived(... */\n    tag_17:\n      callvalue\n      dup1\n      iszero\n      tag_109\n      jumpi\n      0x00\n      dup1\n      revert\n    tag_109:\n      pop\n      tag_110\n      0x04\n      dup1\n      calldatasize\n      sub\n      dup2\n      add\n      swap1\n      tag_111\n      swap2\n      swap1\n      tag_112\n      jump\t// in\n    tag_111:\n      tag_113\n      jump\t// in\n    tag_110:\n      mload(0x40)\n      tag_114\n      swap2\n      swap1\n      tag_54\n      jump\t// in\n    tag_114:\n      mload(0x40)\n      dup1\n      swap2\n      sub\n      swap1\n      return\n        /* \"contracts/MultiSigWallet/WalletSimple.sol\":14743:14944  function setAutoFlush721(address forwarderAddress, bool autoFlush)... */\n    tag_18:\n      callvalue\n      dup1\n      iszero\n      tag_115\n      jumpi\n      0x00\n      dup1\n      revert\n    tag_115:\n      pop\n      tag_116\n      0x04\n      dup1\n      calldatasize\n      sub\n      dup2\n      add\n      swap1\n      tag_117\n      swap2\n      swap1\n      tag_93\n      jump\t// in\n    tag_117:\n      tag_118\n      jump\t// in\n    tag_116:\n      stop\n        /* \"contracts/MultiSigWallet/WalletSimple.sol\":3345:3691  function init(address[] calldata allowedSigners) external onlyUninitialized {... */\n    tag_19:\n      callvalue\n      dup1\n      iszero\n      tag_119\n      jumpi\n      0x00\n      dup1\n      revert\n    tag_119:\n      pop\n      tag_120\n      0x04\n      dup1\n      calldatasize\n      sub\n      dup2\n      add\n      swap1\n      tag_121\n      swap2\n      swap1\n      tag_122\n      jump\t// in\n    tag_121:\n      tag_123\n      jump\t// in\n    tag_120:\n      stop\n        /* \"contracts/MultiSigWallet/WalletSimple.sol\":14259:14540  function flushERC1155ForwarderTokens(... */\n    tag_20:\n      callvalue\n      dup1\n      iszero\n      tag_124\n      jumpi\n      0x00\n      dup1\n      revert\n    tag_124:\n      pop\n      tag_125\n      0x04\n      dup1\n      calldatasize\n      sub\n      dup2\n      add\n      swap1\n      tag_126\n      swap2\n      swap1\n      tag_77\n      jump\t// in\n    tag_126:\n      tag_127\n      jump\t// in\n    tag_125:\n      stop\n        /* \"contracts/MultiSigWallet/WalletSimple.sol\":17238:17463  function onERC1155Received(... */\n    tag_21:\n      callvalue\n      dup1\n      iszero\n      tag_128\n      jumpi\n      0x00\n      dup1\n      revert\n    tag_128:\n      pop\n      tag_129\n      0x04\n      dup1\n      calldatasize\n      sub\n      dup2\n      add\n      swap1\n      tag_130\n      swap2\n      swap1\n      tag_131\n      jump\t// in\n    tag_130:\n      tag_132\n      jump\t// in\n    tag_129:\n      mload(0x40)\n      tag_133\n      swap2\n      swap1\n      tag_54\n      jump\t// in\n    tag_133:\n      mload(0x40)\n      dup1\n      swap2\n      sub\n      swap1\n      return\n        /* \"contracts/MultiSigWallet/WalletSimple.sol\":17906:18020  function activateSafeMode() external onlySigner {... */\n    tag_22:\n      callvalue\n      dup1\n      iszero\n      tag_134\n      jumpi\n      0x00\n      dup1\n      revert\n    tag_134:\n      pop\n      tag_135\n      tag_136\n      jump\t// in\n    tag_135:\n      stop\n        /* \"@openzeppelin/contracts/token/ERC1155/utils/ERC1155Receiver.sol\":387:608  function supportsInterface(bytes4 interfaceId) public view virtual override(ERC165, IERC165) returns (bool) {... */\n    tag_40:\n        /* \"@openzeppelin/contracts/token/ERC1155/utils/ERC1155Receiver.sol\":489:493  bool */\n      0x00\n        /* \"@openzeppelin/contracts/token/ERC1155/utils/ERC1155Receiver.sol\":527:561  type(IERC1155Receiver).interfaceId */\n      0x4e2312e000000000000000000000000000000000000000000000000000000000\n        /* \"@openzeppelin/contracts/token/ERC1155/utils/ERC1155Receiver.sol\":512:561  interfaceId == type(IERC1155Receiver).interfaceId */\n      not(0xffffffffffffffffffffffffffffffffffffffffffffffffffffffff)\n      and\n        /* \"@openzeppelin/contracts/token/ERC1155/utils/ERC1155Receiver.sol\":512:523  interfaceId */\n      dup3\n        /* \"@openzeppelin/contracts/token/ERC1155/utils/ERC1155Receiver.sol\":512:561  interfaceId == type(IERC1155Receiver).interfaceId */\n      not(0xffffffffffffffffffffffffffffffffffffffffffffffffffffffff)\n      and\n      eq\n        /* \"@openzeppelin/contracts/token/ERC1155/utils/ERC1155Receiver.sol\":512:601  interfaceId == type(IERC1155Receiver).interfaceId || super.supportsInterface(interfaceId) */\n      dup1\n      tag_138\n      jumpi\n      pop\n        /* \"@openzeppelin/contracts/token/ERC1155/utils/ERC1155Receiver.sol\":565:601  super.supportsInterface(interfaceId) */\n      tag_139\n        /* \"@openzeppelin/contracts/token/ERC1155/utils/ERC1155Receiver.sol\":589:600  interfaceId */\n      dup3\n        /* \"@openzeppelin/contracts/token/ERC1155/utils/ERC1155Receiver.sol\":565:588  super.supportsInterface */\n      tag_140\n        /* \"@openzeppelin/contracts/token/ERC1155/utils/ERC1155Receiver.sol\":565:601  super.supportsInterface(interfaceId) */\n      jump\t// in\n    tag_139:\n        /* \"@openzeppelin/contracts/token/ERC1155/utils/ERC1155Receiver.sol\":512:601  interfaceId == type(IERC1155Receiver).interfaceId || super.supportsInterface(interfaceId) */\n    tag_138:\n        /* \"@openzeppelin/contracts/token/ERC1155/utils/ERC1155Receiver.sol\":505:601  return interfaceId == type(IERC1155Receiver).interfaceId || super.supportsInterface(interfaceId) */\n      swap1\n      pop\n        /* \"@openzeppelin/contracts/token/ERC1155/utils/ERC1155Receiver.sol\":387:608  function supportsInterface(bytes4 interfaceId) public view virtual override(ERC165, IERC165) returns (bool) {... */\n      swap2\n      swap1\n      pop\n      jump\t// out\n        /* \"contracts/MultiSigWallet/WalletSimple.sol\":11435:12042  function sendMultiSigToken(... */\n    tag_47:\n        /* \"contracts/MultiSigWallet/WalletSimple.sol\":5722:5742  isSigner(msg.sender) */\n      tag_142\n        /* \"contracts/MultiSigWallet/WalletSimple.sol\":5731:5741  msg.sender */\n      caller\n        /* \"contracts/MultiSigWallet/WalletSimple.sol\":5722:5730  isSigner */\n      tag_88\n        /* \"contracts/MultiSigWallet/WalletSimple.sol\":5722:5742  isSigner(msg.sender) */\n      jump\t// in\n    tag_142:\n        /* \"contracts/MultiSigWallet/WalletSimple.sol\":5714:5778  require(isSigner(msg.sender), 'Non-signer in onlySigner method') */\n      tag_143\n      jumpi\n      mload(0x40)\n      0x08c379a000000000000000000000000000000000000000000000000000000000\n      dup2\n      mstore\n      0x04\n      add\n      tag_144\n      swap1\n      tag_145\n      jump\t// in\n    tag_144:\n      mload(0x40)\n      dup1\n      swap2\n      sub\n      swap1\n      revert\n    tag_143:\n        /* \"contracts/MultiSigWallet/WalletSimple.sol\":11677:11698  bytes32 operationHash */\n      0x00\n        /* \"contracts/MultiSigWallet/WalletSimple.sol\":11744:11763  getTokenNetworkId() */\n      tag_147\n        /* \"contracts/MultiSigWallet/WalletSimple.sol\":11744:11761  getTokenNetworkId */\n      tag_148\n        /* \"contracts/MultiSigWallet/WalletSimple.sol\":11744:11763  getTokenNetworkId() */\n      jump\t// in\n    tag_147:\n        /* \"contracts/MultiSigWallet/WalletSimple.sol\":11773:11782  toAddress */\n      dup9\n        /* \"contracts/MultiSigWallet/WalletSimple.sol\":11792:11797  value */\n      dup9\n        /* \"contracts/MultiSigWallet/WalletSimple.sol\":11807:11827  tokenContractAddress */\n      dup9\n        /* \"contracts/MultiSigWallet/WalletSimple.sol\":11837:11847  expireTime */\n      dup9\n        /* \"contracts/MultiSigWallet/WalletSimple.sol\":11857:11867  sequenceId */\n      dup9\n        /* \"contracts/MultiSigWallet/WalletSimple.sol\":11718:11875  abi.encodePacked(... */\n      add(0x20, mload(0x40))\n      tag_149\n      swap7\n      swap6\n      swap5\n      swap4\n      swap3\n      swap2\n      swap1\n      tag_150\n      jump\t// in\n    tag_149:\n      mload(0x40)\n      0x20\n      dup2\n      dup4\n      sub\n      sub\n      dup2\n      mstore\n      swap1\n      0x40\n      mstore\n        /* \"contracts/MultiSigWallet/WalletSimple.sol\":11701:11881  keccak256(... */\n      dup1\n      mload\n      swap1\n      0x20\n      add\n      keccak256\n        /* \"contracts/MultiSigWallet/WalletSimple.sol\":11677:11881  bytes32 operationHash = keccak256(... */\n      swap1\n      pop\n        /* \"contracts/MultiSigWallet/WalletSimple.sol\":11888:11963  verifyMultiSig(toAddress, operationHash, signature, expireTime, sequenceId) */\n      tag_151\n        /* \"contracts/MultiSigWallet/WalletSimple.sol\":11903:11912  toAddress */\n      dup9\n        /* \"contracts/MultiSigWallet/WalletSimple.sol\":11914:11927  operationHash */\n      dup3\n        /* \"contracts/MultiSigWallet/WalletSimple.sol\":11929:11938  signature */\n      dup6\n      dup6\n        /* \"contracts/MultiSigWallet/WalletSimple.sol\":11940:11950  expireTime */\n      dup10\n        /* \"contracts/MultiSigWallet/WalletSimple.sol\":11952:11962  sequenceId */\n      dup10\n        /* \"contracts/MultiSigWallet/WalletSimple.sol\":11888:11902  verifyMultiSig */\n      tag_152\n        /* \"contracts/MultiSigWallet/WalletSimple.sol\":11888:11963  verifyMultiSig(toAddress, operationHash, signature, expireTime, sequenceId) */\n      jump\t// in\n    tag_151:\n      pop\n        /* \"contracts/MultiSigWallet/WalletSimple.sol\":11970:12037  TransferHelper.safeTransfer(tokenContractAddress, toAddress, value) */\n      tag_153\n        /* \"contracts/MultiSigWallet/WalletSimple.sol\":11998:12018  tokenContractAddress */\n      dup7\n        /* \"contracts/MultiSigWallet/WalletSimple.sol\":12020:12029  toAddress */\n      dup10\n        /* \"contracts/MultiSigWallet/WalletSimple.sol\":12031:12036  value */\n      dup10\n        /* \"contracts/MultiSigWallet/WalletSimple.sol\":11970:11997  TransferHelper.safeTransfer */\n      tag_154\n        /* \"contracts/MultiSigWallet/WalletSimple.sol\":11970:12037  TransferHelper.safeTransfer(tokenContractAddress, toAddress, value) */\n      jump\t// in\n    tag_153:\n        /* \"contracts/MultiSigWallet/WalletSimple.sol\":11640:12042  {... */\n      pop\n        /* \"contracts/MultiSigWallet/WalletSimple.sol\":11435:12042  function sendMultiSigToken(... */\n      pop\n      pop\n      pop\n      pop\n      pop\n      pop\n      pop\n      jump\t// out\n        /* \"contracts/MultiSigWallet/WalletSimple.sol\":16979:17188  function onERC721Received(... */\n    tag_52:\n        /* \"contracts/MultiSigWallet/WalletSimple.sol\":17132:17138  bytes4 */\n      0x00\n        /* \"contracts/MultiSigWallet/WalletSimple.sol\":17153:17183  this.onERC721Received.selector */\n      shl(0xe0, 0x150b7a02)\n        /* \"contracts/MultiSigWallet/WalletSimple.sol\":17146:17183  return this.onERC721Received.selector */\n      swap1\n      pop\n        /* \"contracts/MultiSigWallet/WalletSimple.sol\":16979:17188  function onERC721Received(... */\n      swap5\n      swap4\n      pop\n      pop\n      pop\n      pop\n      jump\t// out\n        /* \"contracts/MultiSigWallet/WalletSimple.sol\":2707:2738  bool public initialized = false */\n    tag_57:\n      0x01\n      dup1\n      sload\n      swap1\n      0x0100\n      exp\n      swap1\n      div\n      0xff\n      and\n      dup2\n      jump\t// out\n        /* \"contracts/MultiSigWallet/WalletSimple.sol\":12365:12602  function flushForwarderTokens(... */\n    tag_63:\n        /* \"contracts/MultiSigWallet/WalletSimple.sol\":5722:5742  isSigner(msg.sender) */\n      tag_157\n        /* \"contracts/MultiSigWallet/WalletSimple.sol\":5731:5741  msg.sender */\n      caller\n        /* \"contracts/MultiSigWallet/WalletSimple.sol\":5722:5730  isSigner */\n      tag_88\n        /* \"contracts/MultiSigWallet/WalletSimple.sol\":5722:5742  isSigner(msg.sender) */\n      jump\t// in\n    tag_157:\n        /* \"contracts/MultiSigWallet/WalletSimple.sol\":5714:5778  require(isSigner(msg.sender), 'Non-signer in onlySigner method') */\n      tag_158\n      jumpi\n      mload(0x40)\n      0x08c379a000000000000000000000000000000000000000000000000000000000\n      dup2\n      mstore\n      0x04\n      add\n      tag_159\n      swap1\n      tag_145\n      jump\t// in\n    tag_159:\n      mload(0x40)\n      dup1\n      swap2\n      sub\n      swap1\n      revert\n    tag_158:\n        /* \"contracts/MultiSigWallet/WalletSimple.sol\":12497:12517  IForwarder forwarder */\n      0x00\n        /* \"contracts/MultiSigWallet/WalletSimple.sol\":12531:12547  forwarderAddress */\n      dup3\n        /* \"contracts/MultiSigWallet/WalletSimple.sol\":12497:12548  IForwarder forwarder = IForwarder(forwarderAddress) */\n      swap1\n      pop\n        /* \"contracts/MultiSigWallet/WalletSimple.sol\":12554:12563  forwarder */\n      dup1\n        /* \"contracts/MultiSigWallet/WalletSimple.sol\":12554:12575  forwarder.flushTokens */\n      0xffffffffffffffffffffffffffffffffffffffff\n      and\n      0x3ef13367\n        /* \"contracts/MultiSigWallet/WalletSimple.sol\":12576:12596  tokenContractAddress */\n      dup4\n        /* \"contracts/MultiSigWallet/WalletSimple.sol\":12554:12597  forwarder.flushTokens(tokenContractAddress) */\n      mload(0x40)\n      dup3\n      0xffffffff\n      and\n      0xe0\n      shl\n      dup2\n      mstore\n      0x04\n      add\n      tag_161\n      swap2\n      swap1\n      tag_162\n      jump\t// in\n    tag_161:\n      0x00\n      mload(0x40)\n      dup1\n      dup4\n      sub\n      dup2\n      0x00\n      dup8\n      dup1\n      extcodesize\n      iszero\n      dup1\n      iszero\n      tag_163\n      jumpi\n      0x00\n      dup1\n      revert\n    tag_163:\n      pop\n      gas\n      call\n      iszero\n      dup1\n      iszero\n      tag_165\n      jumpi\n      returndatasize\n      0x00\n      dup1\n      returndatacopy\n      revert(0x00, returndatasize)\n    tag_165:\n      pop\n      pop\n      pop\n      pop\n        /* \"contracts/MultiSigWallet/WalletSimple.sol\":12491:12602  {... */\n      pop\n        /* \"contracts/MultiSigWallet/WalletSimple.sol\":12365:12602  function flushForwarderTokens(... */\n      pop\n      pop\n      jump\t// out\n        /* \"contracts/MultiSigWallet/WalletSimple.sol\":13555:13859  function batchFlushERC1155ForwarderTokens(... */\n    tag_68:\n        /* \"contracts/MultiSigWallet/WalletSimple.sol\":5722:5742  isSigner(msg.sender) */\n      tag_167\n        /* \"contracts/MultiSigWallet/WalletSimple.sol\":5731:5741  msg.sender */\n      caller\n        /* \"contracts/MultiSigWallet/WalletSimple.sol\":5722:5730  isSigner */\n      tag_88\n        /* \"contracts/MultiSigWallet/WalletSimple.sol\":5722:5742  isSigner(msg.sender) */\n      jump\t// in\n    tag_167:\n        /* \"contracts/MultiSigWallet/WalletSimple.sol\":5714:5778  require(isSigner(msg.sender), 'Non-signer in onlySigner method') */\n      tag_168\n      jumpi\n      mload(0x40)\n      0x08c379a000000000000000000000000000000000000000000000000000000000\n      dup2\n      mstore\n      0x04\n      add\n      tag_169\n      swap1\n      tag_145\n      jump\t// in\n    tag_169:\n      mload(0x40)\n      dup1\n      swap2\n      sub\n      swap1\n      revert\n    tag_168:\n        /* \"contracts/MultiSigWallet/WalletSimple.sol\":13732:13752  IForwarder forwarder */\n      0x00\n        /* \"contracts/MultiSigWallet/WalletSimple.sol\":13766:13782  forwarderAddress */\n      dup5\n        /* \"contracts/MultiSigWallet/WalletSimple.sol\":13732:13783  IForwarder forwarder = IForwarder(forwarderAddress) */\n      swap1\n      pop\n        /* \"contracts/MultiSigWallet/WalletSimple.sol\":13789:13798  forwarder */\n      dup1\n        /* \"contracts/MultiSigWallet/WalletSimple.sol\":13789:13822  forwarder.batchFlushERC1155Tokens */\n      0xffffffffffffffffffffffffffffffffffffffff\n      and\n      0xc6a2dd24\n        /* \"contracts/MultiSigWallet/WalletSimple.sol\":13823:13843  tokenContractAddress */\n      dup6\n        /* \"contracts/MultiSigWallet/WalletSimple.sol\":13845:13853  tokenIds */\n      dup6\n      dup6\n        /* \"contracts/MultiSigWallet/WalletSimple.sol\":13789:13854  forwarder.batchFlushERC1155Tokens(tokenContractAddress, tokenIds) */\n      mload(0x40)\n      dup5\n      0xffffffff\n      and\n      0xe0\n      shl\n      dup2\n      mstore\n      0x04\n      add\n      tag_171\n      swap4\n      swap3\n      swap2\n      swap1\n      tag_172\n      jump\t// in\n    tag_171:\n      0x00\n      mload(0x40)\n      dup1\n      dup4\n      sub\n      dup2\n      0x00\n      dup8\n      dup1\n      extcodesize\n      iszero\n      dup1\n      iszero\n      tag_173\n      jumpi\n      0x00\n      dup1\n      revert\n    tag_173:\n      pop\n      gas\n      call\n      iszero\n      dup1\n      iszero\n      tag_175\n      jumpi\n      returndatasize\n      0x00\n      dup1\n      returndatacopy\n      revert(0x00, returndatasize)\n    tag_175:\n      pop\n      pop\n      pop\n      pop\n        /* \"contracts/MultiSigWallet/WalletSimple.sol\":13726:13859  {... */\n      pop\n        /* \"contracts/MultiSigWallet/WalletSimple.sol\":13555:13859  function batchFlushERC1155ForwarderTokens(... */\n      pop\n      pop\n      pop\n      pop\n      jump\t// out\n        /* \"contracts/MultiSigWallet/WalletSimple.sol\":7325:8155  function sendMultiSig(... */\n    tag_73:\n        /* \"contracts/MultiSigWallet/WalletSimple.sol\":5722:5742  isSigner(msg.sender) */\n      tag_177\n        /* \"contracts/MultiSigWallet/WalletSimple.sol\":5731:5741  msg.sender */\n      caller\n        /* \"contracts/MultiSigWallet/WalletSimple.sol\":5722:5730  isSigner */\n      tag_88\n        /* \"contracts/MultiSigWallet/WalletSimple.sol\":5722:5742  isSigner(msg.sender) */\n      jump\t// in\n    tag_177:\n        /* \"contracts/MultiSigWallet/WalletSimple.sol\":5714:5778  require(isSigner(msg.sender), 'Non-signer in onlySigner method') */\n      tag_178\n      jumpi\n      mload(0x40)\n      0x08c379a000000000000000000000000000000000000000000000000000000000\n      dup2\n      mstore\n      0x04\n      add\n      tag_179\n      swap1\n      tag_145\n      jump\t// in\n    tag_179:\n      mload(0x40)\n      dup1\n      swap2\n      sub\n      swap1\n      revert\n    tag_178:\n        /* \"contracts/MultiSigWallet/WalletSimple.sol\":7553:7574  bytes32 operationHash */\n      0x00\n        /* \"contracts/MultiSigWallet/WalletSimple.sol\":7620:7634  getNetworkId() */\n      tag_181\n        /* \"contracts/MultiSigWallet/WalletSimple.sol\":7620:7632  getNetworkId */\n      tag_182\n        /* \"contracts/MultiSigWallet/WalletSimple.sol\":7620:7634  getNetworkId() */\n      jump\t// in\n    tag_181:\n        /* \"contracts/MultiSigWallet/WalletSimple.sol\":7644:7653  toAddress */\n      dup10\n        /* \"contracts/MultiSigWallet/WalletSimple.sol\":7663:7668  value */\n      dup10\n        /* \"contracts/MultiSigWallet/WalletSimple.sol\":7678:7682  data */\n      dup10\n      dup10\n        /* \"contracts/MultiSigWallet/WalletSimple.sol\":7692:7702  expireTime */\n      dup10\n        /* \"contracts/MultiSigWallet/WalletSimple.sol\":7712:7722  sequenceId */\n      dup10\n        /* \"contracts/MultiSigWallet/WalletSimple.sol\":7594:7730  abi.encodePacked(... */\n      add(0x20, mload(0x40))\n      tag_183\n      swap8\n      swap7\n      swap6\n      swap5\n      swap4\n      swap3\n      swap2\n      swap1\n      tag_184\n      jump\t// in\n    tag_183:\n      mload(0x40)\n      0x20\n      dup2\n      dup4\n      sub\n      sub\n      dup2\n      mstore\n      swap1\n      0x40\n      mstore\n        /* \"contracts/MultiSigWallet/WalletSimple.sol\":7577:7736  keccak256(... */\n      dup1\n      mload\n      swap1\n      0x20\n      add\n      keccak256\n        /* \"contracts/MultiSigWallet/WalletSimple.sol\":7553:7736  bytes32 operationHash = keccak256(... */\n      swap1\n      pop\n        /* \"contracts/MultiSigWallet/WalletSimple.sol\":7743:7762  address otherSigner */\n      0x00\n        /* \"contracts/MultiSigWallet/WalletSimple.sol\":7765:7876  verifyMultiSig(... */\n      tag_185\n        /* \"contracts/MultiSigWallet/WalletSimple.sol\":7787:7796  toAddress */\n      dup11\n        /* \"contracts/MultiSigWallet/WalletSimple.sol\":7804:7817  operationHash */\n      dup4\n        /* \"contracts/MultiSigWallet/WalletSimple.sol\":7825:7834  signature */\n      dup7\n      dup7\n        /* \"contracts/MultiSigWallet/WalletSimple.sol\":7842:7852  expireTime */\n      dup11\n        /* \"contracts/MultiSigWallet/WalletSimple.sol\":7860:7870  sequenceId */\n      dup11\n        /* \"contracts/MultiSigWallet/WalletSimple.sol\":7765:7779  verifyMultiSig */\n      tag_152\n        /* \"contracts/MultiSigWallet/WalletSimple.sol\":7765:7876  verifyMultiSig(... */\n      jump\t// in\n    tag_185:\n        /* \"contracts/MultiSigWallet/WalletSimple.sol\":7743:7876  address otherSigner = verifyMultiSig(... */\n      swap1\n      pop\n        /* \"contracts/MultiSigWallet/WalletSimple.sol\":7921:7933  bool success */\n      0x00\n        /* \"contracts/MultiSigWallet/WalletSimple.sol\":7939:7948  toAddress */\n      dup11\n        /* \"contracts/MultiSigWallet/WalletSimple.sol\":7939:7953  toAddress.call */\n      0xffffffffffffffffffffffffffffffffffffffff\n      and\n        /* \"contracts/MultiSigWallet/WalletSimple.sol\":7962:7967  value */\n      dup11\n        /* \"contracts/MultiSigWallet/WalletSimple.sol\":7970:7974  data */\n      dup11\n      dup11\n        /* \"contracts/MultiSigWallet/WalletSimple.sol\":7939:7975  toAddress.call{ value: value }(data) */\n      mload(0x40)\n      tag_186\n      swap3\n      swap2\n      swap1\n      tag_187\n      jump\t// in\n    tag_186:\n      0x00\n      mload(0x40)\n      dup1\n      dup4\n      sub\n      dup2\n      dup6\n      dup8\n      gas\n      call\n      swap3\n      pop\n      pop\n      pop\n      returndatasize\n      dup1\n      0x00\n      dup2\n      eq\n      tag_190\n      jumpi\n      mload(0x40)\n      swap2\n      pop\n      and(add(returndatasize, 0x3f), not(0x1f))\n      dup3\n      add\n      0x40\n      mstore\n      returndatasize\n      dup3\n      mstore\n      returndatasize\n      0x00\n      0x20\n      dup5\n      add\n      returndatacopy\n      jump(tag_189)\n    tag_190:\n      0x60\n      swap2\n      pop\n    tag_189:\n      pop\n        /* \"contracts/MultiSigWallet/WalletSimple.sol\":7920:7975  (bool success, ) = toAddress.call{ value: value }(data) */\n      pop\n      swap1\n      pop\n        /* \"contracts/MultiSigWallet/WalletSimple.sol\":7989:7996  success */\n      dup1\n        /* \"contracts/MultiSigWallet/WalletSimple.sol\":7981:8022  require(success, 'Call execution failed') */\n      tag_191\n      jumpi\n      mload(0x40)\n      0x08c379a000000000000000000000000000000000000000000000000000000000\n      dup2\n      mstore\n      0x04\n      add\n      tag_192\n      swap1\n      tag_193\n      jump\t// in\n    tag_192:\n      mload(0x40)\n      dup1\n      swap2\n      sub\n      swap1\n      revert\n    tag_191:\n        /* \"contracts/MultiSigWallet/WalletSimple.sol\":8034:8150  Transacted(... */\n      0x59bed9ab5d78073465dd642a9e3e76dfdb7d53bcae9d09df7d0b8f5234d5a806\n        /* \"contracts/MultiSigWallet/WalletSimple.sol\":8052:8062  msg.sender */\n      caller\n        /* \"contracts/MultiSigWallet/WalletSimple.sol\":8070:8081  otherSigner */\n      dup4\n        /* \"contracts/MultiSigWallet/WalletSimple.sol\":8089:8102  operationHash */\n      dup6\n        /* \"contracts/MultiSigWallet/WalletSimple.sol\":8110:8119  toAddress */\n      dup15\n        /* \"contracts/MultiSigWallet/WalletSimple.sol\":8127:8132  value */\n      dup15\n        /* \"contracts/MultiSigWallet/WalletSimple.sol\":8140:8144  data */\n      dup15\n      dup15\n        /* \"contracts/MultiSigWallet/WalletSimple.sol\":8034:8150  Transacted(... */\n      mload(0x40)\n      tag_194\n      swap8\n      swap7\n      swap6\n      swap5\n      swap4\n      swap3\n      swap2\n      swap1\n      tag_195\n      jump\t// in\n    tag_194:\n      mload(0x40)\n      dup1\n      swap2\n      sub\n      swap1\n      log1\n        /* \"contracts/MultiSigWallet/WalletSimple.sol\":7516:8155  {... */\n      pop\n      pop\n      pop\n        /* \"contracts/MultiSigWallet/WalletSimple.sol\":7325:8155  function sendMultiSig(... */\n      pop\n      pop\n      pop\n      pop\n      pop\n      pop\n      pop\n      pop\n      jump\t// out\n        /* \"contracts/MultiSigWallet/WalletSimple.sol\":12932:13210  function flushERC721ForwarderTokens(... */\n    tag_78:\n        /* \"contracts/MultiSigWallet/WalletSimple.sol\":5722:5742  isSigner(msg.sender) */\n      tag_197\n        /* \"contracts/MultiSigWallet/WalletSimple.sol\":5731:5741  msg.sender */\n      caller\n        /* \"contracts/MultiSigWallet/WalletSimple.sol\":5722:5730  isSigner */\n      tag_88\n        /* \"contracts/MultiSigWallet/WalletSimple.sol\":5722:5742  isSigner(msg.sender) */\n      jump\t// in\n    tag_197:\n        /* \"contracts/MultiSigWallet/WalletSimple.sol\":5714:5778  require(isSigner(msg.sender), 'Non-signer in onlySigner method') */\n      tag_198\n      jumpi\n      mload(0x40)\n      0x08c379a000000000000000000000000000000000000000000000000000000000\n      dup2\n      mstore\n      0x04\n      add\n      tag_199\n      swap1\n      tag_145\n      jump\t// in\n    tag_199:\n      mload(0x40)\n      dup1\n      swap2\n      sub\n      swap1\n      revert\n    tag_198:\n        /* \"contracts/MultiSigWallet/WalletSimple.sol\":13091:13111  IForwarder forwarder */\n      0x00\n        /* \"contracts/MultiSigWallet/WalletSimple.sol\":13125:13141  forwarderAddress */\n      dup4\n        /* \"contracts/MultiSigWallet/WalletSimple.sol\":13091:13142  IForwarder forwarder = IForwarder(forwarderAddress) */\n      swap1\n      pop\n        /* \"contracts/MultiSigWallet/WalletSimple.sol\":13148:13157  forwarder */\n      dup1\n        /* \"contracts/MultiSigWallet/WalletSimple.sol\":13148:13174  forwarder.flushERC721Token */\n      0xffffffffffffffffffffffffffffffffffffffff\n      and\n      0x159e44d7\n        /* \"contracts/MultiSigWallet/WalletSimple.sol\":13175:13195  tokenContractAddress */\n      dup5\n        /* \"contracts/MultiSigWallet/WalletSimple.sol\":13197:13204  tokenId */\n      dup5\n        /* \"contracts/MultiSigWallet/WalletSimple.sol\":13148:13205  forwarder.flushERC721Token(tokenContractAddress, tokenId) */\n      mload(0x40)\n      dup4\n      0xffffffff\n      and\n      0xe0\n      shl\n      dup2\n      mstore\n      0x04\n      add\n      tag_201\n      swap3\n      swap2\n      swap1\n      tag_202\n      jump\t// in\n    tag_201:\n      0x00\n      mload(0x40)\n      dup1\n      dup4\n      sub\n      dup2\n      0x00\n      dup8\n      dup1\n      extcodesize\n      iszero\n      dup1\n      iszero\n      tag_203\n      jumpi\n      0x00\n      dup1\n      revert\n    tag_203:\n      pop\n      gas\n      call\n      iszero\n      dup1\n      iszero\n      tag_205\n      jumpi\n      returndatasize\n      0x00\n      dup1\n      returndatacopy\n      revert(0x00, returndatasize)\n    tag_205:\n      pop\n      pop\n      pop\n      pop\n        /* \"contracts/MultiSigWallet/WalletSimple.sol\":13085:13210  {... */\n      pop\n        /* \"contracts/MultiSigWallet/WalletSimple.sol\":12932:13210  function flushERC721ForwarderTokens(... */\n      pop\n      pop\n      pop\n      jump\t// out\n        /* \"contracts/MultiSigWallet/WalletSimple.sol\":2514:2553  mapping(address => bool) public signers */\n    tag_83:\n      mstore(0x20, 0x00)\n      dup1\n      0x00\n      mstore\n      keccak256(0x00, 0x40)\n      0x00\n      swap2\n      pop\n      sload\n      swap1\n      0x0100\n      exp\n      swap1\n      div\n      0xff\n      and\n      dup2\n      jump\t// out\n        /* \"contracts/MultiSigWallet/WalletSimple.sol\":5468:5562  function isSigner(address signer) public view returns (bool) {... */\n    tag_88:\n        /* \"contracts/MultiSigWallet/WalletSimple.sol\":5523:5527  bool */\n      0x00\n        /* \"contracts/MultiSigWallet/WalletSimple.sol\":5542:5549  signers */\n      dup1\n        /* \"contracts/MultiSigWallet/WalletSimple.sol\":5542:5557  signers[signer] */\n      0x00\n        /* \"contracts/MultiSigWallet/WalletSimple.sol\":5550:5556  signer */\n      dup4\n        /* \"contracts/MultiSigWallet/WalletSimple.sol\":5542:5557  signers[signer] */\n      0xffffffffffffffffffffffffffffffffffffffff\n      and\n      0xffffffffffffffffffffffffffffffffffffffff\n      and\n      dup2\n      mstore\n      0x20\n      add\n      swap1\n      dup2\n      mstore\n      0x20\n      add\n      0x00\n      keccak256\n      0x00\n      swap1\n      sload\n      swap1\n      0x0100\n      exp\n      swap1\n      div\n      0xff\n      and\n        /* \"contracts/MultiSigWallet/WalletSimple.sol\":5535:5557  return signers[signer] */\n      swap1\n      pop\n        /* \"contracts/MultiSigWallet/WalletSimple.sol\":5468:5562  function isSigner(address signer) public view returns (bool) {... */\n      swap2\n      swap1\n      pop\n      jump\t// out\n        /* \"contracts/MultiSigWallet/WalletSimple.sol\":15148:15351  function setAutoFlush1155(address forwarderAddress, bool autoFlush)... */\n    tag_94:\n        /* \"contracts/MultiSigWallet/WalletSimple.sol\":5722:5742  isSigner(msg.sender) */\n      tag_208\n        /* \"contracts/MultiSigWallet/WalletSimple.sol\":5731:5741  msg.sender */\n      caller\n        /* \"contracts/MultiSigWallet/WalletSimple.sol\":5722:5730  isSigner */\n      tag_88\n        /* \"contracts/MultiSigWallet/WalletSimple.sol\":5722:5742  isSigner(msg.sender) */\n      jump\t// in\n    tag_208:\n        /* \"contracts/MultiSigWallet/WalletSimple.sol\":5714:5778  require(isSigner(msg.sender), 'Non-signer in onlySigner method') */\n      tag_209\n      jumpi\n      mload(0x40)\n      0x08c379a000000000000000000000000000000000000000000000000000000000\n      dup2\n      mstore\n      0x04\n      add\n      tag_210\n      swap1\n      tag_145\n      jump\t// in\n    tag_210:\n      mload(0x40)\n      dup1\n      swap2\n      sub\n      swap1\n      revert\n    tag_209:\n        /* \"contracts/MultiSigWallet/WalletSimple.sol\":15252:15272  IForwarder forwarder */\n      0x00\n        /* \"contracts/MultiSigWallet/WalletSimple.sol\":15286:15302  forwarderAddress */\n      dup3\n        /* \"contracts/MultiSigWallet/WalletSimple.sol\":15252:15303  IForwarder forwarder = IForwarder(forwarderAddress) */\n      swap1\n      pop\n        /* \"contracts/MultiSigWallet/WalletSimple.sol\":15309:15318  forwarder */\n      dup1\n        /* \"contracts/MultiSigWallet/WalletSimple.sol\":15309:15335  forwarder.setAutoFlush1155 */\n      0xffffffffffffffffffffffffffffffffffffffff\n      and\n      0x8acc01be\n        /* \"contracts/MultiSigWallet/WalletSimple.sol\":15336:15345  autoFlush */\n      dup4\n        /* \"contracts/MultiSigWallet/WalletSimple.sol\":15309:15346  forwarder.setAutoFlush1155(autoFlush) */\n      mload(0x40)\n      dup3\n      0xffffffff\n      and\n      0xe0\n      shl\n      dup2\n      mstore\n      0x04\n      add\n      tag_212\n      swap2\n      swap1\n      tag_42\n      jump\t// in\n    tag_212:\n      0x00\n      mload(0x40)\n      dup1\n      dup4\n      sub\n      dup2\n      0x00\n      dup8\n      dup1\n      extcodesize\n      iszero\n      dup1\n      iszero\n      tag_213\n      jumpi\n      0x00\n      dup1\n      revert\n    tag_213:\n      pop\n      gas\n      call\n      iszero\n      dup1\n      iszero\n      tag_215\n      jumpi\n      returndatasize\n      0x00\n      dup1\n      returndatacopy\n      revert(0x00, returndatasize)\n    tag_215:\n      pop\n      pop\n      pop\n      pop\n        /* \"contracts/MultiSigWallet/WalletSimple.sol\":15246:15351  {... */\n      pop\n        /* \"contracts/MultiSigWallet/WalletSimple.sol\":15148:15351  function setAutoFlush1155(address forwarderAddress, bool autoFlush)... */\n      pop\n      pop\n      jump\t// out\n        /* \"contracts/MultiSigWallet/WalletSimple.sol\":21308:21621  function getNextSequenceId() external view returns (uint256) {... */\n    tag_97:\n        /* \"contracts/MultiSigWallet/WalletSimple.sol\":21360:21367  uint256 */\n      0x00\n        /* \"contracts/MultiSigWallet/WalletSimple.sol\":21375:21400  uint256 highestSequenceId */\n      dup1\n        /* \"contracts/MultiSigWallet/WalletSimple.sol\":21403:21404  0 */\n      0x00\n        /* \"contracts/MultiSigWallet/WalletSimple.sol\":21375:21404  uint256 highestSequenceId = 0 */\n      swap1\n      pop\n        /* \"contracts/MultiSigWallet/WalletSimple.sol\":21415:21424  uint256 i */\n      0x00\n        /* \"contracts/MultiSigWallet/WalletSimple.sol\":21410:21583  for (uint256 i = 0; i < SEQUENCE_ID_WINDOW_SIZE; i++) {... */\n    tag_217:\n        /* \"contracts/MultiSigWallet/WalletSimple.sol\":2913:2915  10 */\n      0x0a\n        /* \"contracts/MultiSigWallet/WalletSimple.sol\":21430:21431  i */\n      dup2\n        /* \"contracts/MultiSigWallet/WalletSimple.sol\":21430:21457  i < SEQUENCE_ID_WINDOW_SIZE */\n      lt\n        /* \"contracts/MultiSigWallet/WalletSimple.sol\":21410:21583  for (uint256 i = 0; i < SEQUENCE_ID_WINDOW_SIZE; i++) {... */\n      iszero\n      tag_218\n      jumpi\n        /* \"contracts/MultiSigWallet/WalletSimple.sol\":21499:21516  highestSequenceId */\n      dup2\n        /* \"contracts/MultiSigWallet/WalletSimple.sol\":21476:21493  recentSequenceIds */\n      0x02\n        /* \"contracts/MultiSigWallet/WalletSimple.sol\":21494:21495  i */\n      dup3\n        /* \"contracts/MultiSigWallet/WalletSimple.sol\":21476:21496  recentSequenceIds[i] */\n      0x0a\n      dup2\n      lt\n      tag_220\n      jumpi\n      tag_221\n      tag_222\n      jump\t// in\n    tag_221:\n    tag_220:\n      add\n      sload\n        /* \"contracts/MultiSigWallet/WalletSimple.sol\":21476:21516  recentSequenceIds[i] > highestSequenceId */\n      gt\n        /* \"contracts/MultiSigWallet/WalletSimple.sol\":21472:21577  if (recentSequenceIds[i] > highestSequenceId) {... */\n      iszero\n      tag_224\n      jumpi\n        /* \"contracts/MultiSigWallet/WalletSimple.sol\":21548:21565  recentSequenceIds */\n      0x02\n        /* \"contracts/MultiSigWallet/WalletSimple.sol\":21566:21567  i */\n      dup2\n        /* \"contracts/MultiSigWallet/WalletSimple.sol\":21548:21568  recentSequenceIds[i] */\n      0x0a\n      dup2\n      lt\n      tag_225\n      jumpi\n      tag_226\n      tag_222\n      jump\t// in\n    tag_226:\n    tag_225:\n      add\n      sload\n        /* \"contracts/MultiSigWallet/WalletSimple.sol\":21528:21568  highestSequenceId = recentSequenceIds[i] */\n      swap2\n      pop\n        /* \"contracts/MultiSigWallet/WalletSimple.sol\":21472:21577  if (recentSequenceIds[i] > highestSequenceId) {... */\n    tag_224:\n        /* \"contracts/MultiSigWallet/WalletSimple.sol\":21459:21462  i++ */\n      dup1\n      dup1\n      tag_228\n      swap1\n      tag_229\n      jump\t// in\n    tag_228:\n      swap2\n      pop\n      pop\n        /* \"contracts/MultiSigWallet/WalletSimple.sol\":21410:21583  for (uint256 i = 0; i < SEQUENCE_ID_WINDOW_SIZE; i++) {... */\n      jump(tag_217)\n    tag_218:\n      pop\n        /* \"contracts/MultiSigWallet/WalletSimple.sol\":21615:21616  1 */\n      0x01\n        /* \"contracts/MultiSigWallet/WalletSimple.sol\":21595:21612  highestSequenceId */\n      dup2\n        /* \"contracts/MultiSigWallet/WalletSimple.sol\":21595:21616  highestSequenceId + 1 */\n      tag_230\n      swap2\n      swap1\n      tag_231\n      jump\t// in\n    tag_230:\n        /* \"contracts/MultiSigWallet/WalletSimple.sol\":21588:21616  return highestSequenceId + 1 */\n      swap2\n      pop\n      pop\n        /* \"contracts/MultiSigWallet/WalletSimple.sol\":21308:21621  function getNextSequenceId() external view returns (uint256) {... */\n      swap1\n      jump\t// out\n        /* \"contracts/MultiSigWallet/WalletSimple.sol\":2618:2646  bool public safeMode = false */\n    tag_102:\n      0x01\n      0x00\n      swap1\n      sload\n      swap1\n      0x0100\n      exp\n      swap1\n      div\n      0xff\n      and\n      dup2\n      jump\t// out\n        /* \"contracts/MultiSigWallet/WalletSimple.sol\":8863:10024  function sendMultiSigBatch(... */\n    tag_108:\n        /* \"contracts/MultiSigWallet/WalletSimple.sol\":5722:5742  isSigner(msg.sender) */\n      tag_233\n        /* \"contracts/MultiSigWallet/WalletSimple.sol\":5731:5741  msg.sender */\n      caller\n        /* \"contracts/MultiSigWallet/WalletSimple.sol\":5722:5730  isSigner */\n      tag_88\n        /* \"contracts/MultiSigWallet/WalletSimple.sol\":5722:5742  isSigner(msg.sender) */\n      jump\t// in\n    tag_233:\n        /* \"contracts/MultiSigWallet/WalletSimple.sol\":5714:5778  require(isSigner(msg.sender), 'Non-signer in onlySigner method') */\n      tag_234\n      jumpi\n      mload(0x40)\n      0x08c379a000000000000000000000000000000000000000000000000000000000\n      dup2\n      mstore\n      0x04\n      add\n      tag_235\n      swap1\n      tag_145\n      jump\t// in\n    tag_235:\n      mload(0x40)\n      dup1\n      swap2\n      sub\n      swap1\n      revert\n    tag_234:\n        /* \"contracts/MultiSigWallet/WalletSimple.sol\":9093:9094  0 */\n      0x00\n        /* \"contracts/MultiSigWallet/WalletSimple.sol\":9072:9082  recipients */\n      dup9\n      dup9\n        /* \"contracts/MultiSigWallet/WalletSimple.sol\":9072:9089  recipients.length */\n      swap1\n      pop\n        /* \"contracts/MultiSigWallet/WalletSimple.sol\":9072:9094  recipients.length != 0 */\n      eq\n      iszero\n        /* \"contracts/MultiSigWallet/WalletSimple.sol\":9064:9120  require(recipients.length != 0, 'Not enough recipients') */\n      tag_237\n      jumpi\n      mload(0x40)\n      0x08c379a000000000000000000000000000000000000000000000000000000000\n      dup2\n      mstore\n      0x04\n      add\n      tag_238\n      swap1\n      tag_239\n      jump\t// in\n    tag_238:\n      mload(0x40)\n      dup1\n      swap2\n      sub\n      swap1\n      revert\n    tag_237:\n        /* \"contracts/MultiSigWallet/WalletSimple.sol\":9162:9168  values */\n      dup6\n      dup6\n        /* \"contracts/MultiSigWallet/WalletSimple.sol\":9162:9175  values.length */\n      swap1\n      pop\n        /* \"contracts/MultiSigWallet/WalletSimple.sol\":9141:9151  recipients */\n      dup9\n      dup9\n        /* \"contracts/MultiSigWallet/WalletSimple.sol\":9141:9158  recipients.length */\n      swap1\n      pop\n        /* \"contracts/MultiSigWallet/WalletSimple.sol\":9141:9175  recipients.length == values.length */\n      eq\n        /* \"contracts/MultiSigWallet/WalletSimple.sol\":9126:9220  require(... */\n      tag_240\n      jumpi\n      mload(0x40)\n      0x08c379a000000000000000000000000000000000000000000000000000000000\n      dup2\n      mstore\n      0x04\n      add\n      tag_241\n      swap1\n      tag_242\n      jump\t// in\n    tag_241:\n      mload(0x40)\n      dup1\n      swap2\n      sub\n      swap1\n      revert\n    tag_240:\n        /* \"contracts/MultiSigWallet/WalletSimple.sol\":9254:9257  256 */\n      0x0100\n        /* \"contracts/MultiSigWallet/WalletSimple.sol\":9234:9244  recipients */\n      dup9\n      dup9\n        /* \"contracts/MultiSigWallet/WalletSimple.sol\":9234:9251  recipients.length */\n      swap1\n      pop\n        /* \"contracts/MultiSigWallet/WalletSimple.sol\":9234:9257  recipients.length < 256 */\n      lt\n        /* \"contracts/MultiSigWallet/WalletSimple.sol\":9226:9290  require(recipients.length < 256, 'Too many recipients, max 255') */\n      tag_243\n      jumpi\n      mload(0x40)\n      0x08c379a000000000000000000000000000000000000000000000000000000000\n      dup2\n      mstore\n      0x04\n      add\n      tag_244\n      swap1\n      tag_245\n      jump\t// in\n    tag_244:\n      mload(0x40)\n      dup1\n      swap2\n      sub\n      swap1\n      revert\n    tag_243:\n        /* \"contracts/MultiSigWallet/WalletSimple.sol\":9328:9349  bytes32 operationHash */\n      0x00\n        /* \"contracts/MultiSigWallet/WalletSimple.sol\":9395:9414  getBatchNetworkId() */\n      tag_246\n        /* \"contracts/MultiSigWallet/WalletSimple.sol\":9395:9412  getBatchNetworkId */\n      tag_247\n        /* \"contracts/MultiSigWallet/WalletSimple.sol\":9395:9414  getBatchNetworkId() */\n      jump\t// in\n    tag_246:\n        /* \"contracts/MultiSigWallet/WalletSimple.sol\":9424:9434  recipients */\n      dup10\n      dup10\n        /* \"contracts/MultiSigWallet/WalletSimple.sol\":9444:9450  values */\n      dup10\n      dup10\n        /* \"contracts/MultiSigWallet/WalletSimple.sol\":9460:9470  expireTime */\n      dup10\n        /* \"contracts/MultiSigWallet/WalletSimple.sol\":9480:9490  sequenceId */\n      dup10\n        /* \"contracts/MultiSigWallet/WalletSimple.sol\":9369:9498  abi.encodePacked(... */\n      add(0x20, mload(0x40))\n      tag_248\n      swap8\n      swap7\n      swap6\n      swap5\n      swap4\n      swap3\n      swap2\n      swap1\n      tag_249\n      jump\t// in\n    tag_248:\n      mload(0x40)\n      0x20\n      dup2\n      dup4\n      sub\n      sub\n      dup2\n      mstore\n      swap1\n      0x40\n      mstore\n        /* \"contracts/MultiSigWallet/WalletSimple.sol\":9352:9504  keccak256(... */\n      dup1\n      mload\n      swap1\n      0x20\n      add\n      keccak256\n        /* \"contracts/MultiSigWallet/WalletSimple.sol\":9328:9504  bytes32 operationHash = keccak256(... */\n      swap1\n      pop\n        /* \"contracts/MultiSigWallet/WalletSimple.sol\":9740:9748  safeMode */\n      0x01\n      0x00\n      swap1\n      sload\n      swap1\n      0x0100\n      exp\n      swap1\n      div\n      0xff\n      and\n        /* \"contracts/MultiSigWallet/WalletSimple.sol\":9739:9748  !safeMode */\n      iszero\n        /* \"contracts/MultiSigWallet/WalletSimple.sol\":9731:9771  require(!safeMode, 'Batch in safe mode') */\n      tag_250\n      jumpi\n      mload(0x40)\n      0x08c379a000000000000000000000000000000000000000000000000000000000\n      dup2\n      mstore\n      0x04\n      add\n      tag_251\n      swap1\n      tag_252\n      jump\t// in\n    tag_251:\n      mload(0x40)\n      dup1\n      swap2\n      sub\n      swap1\n      revert\n    tag_250:\n        /* \"contracts/MultiSigWallet/WalletSimple.sol\":9777:9796  address otherSigner */\n      0x00\n        /* \"contracts/MultiSigWallet/WalletSimple.sol\":9799:9913  verifyMultiSig(... */\n      tag_253\n        /* \"contracts/MultiSigWallet/WalletSimple.sol\":9829:9832  0x0 */\n      0x00\n        /* \"contracts/MultiSigWallet/WalletSimple.sol\":9841:9854  operationHash */\n      dup4\n        /* \"contracts/MultiSigWallet/WalletSimple.sol\":9862:9871  signature */\n      dup7\n      dup7\n        /* \"contracts/MultiSigWallet/WalletSimple.sol\":9879:9889  expireTime */\n      dup11\n        /* \"contracts/MultiSigWallet/WalletSimple.sol\":9897:9907  sequenceId */\n      dup11\n        /* \"contracts/MultiSigWallet/WalletSimple.sol\":9799:9813  verifyMultiSig */\n      tag_152\n        /* \"contracts/MultiSigWallet/WalletSimple.sol\":9799:9913  verifyMultiSig(... */\n      jump\t// in\n    tag_253:\n        /* \"contracts/MultiSigWallet/WalletSimple.sol\":9777:9913  address otherSigner = verifyMultiSig(... */\n      swap1\n      pop\n        /* \"contracts/MultiSigWallet/WalletSimple.sol\":9920:9953  batchTransfer(recipients, values) */\n      tag_254\n        /* \"contracts/MultiSigWallet/WalletSimple.sol\":9934:9944  recipients */\n      dup11\n      dup11\n        /* \"contracts/MultiSigWallet/WalletSimple.sol\":9946:9952  values */\n      dup11\n      dup11\n        /* \"contracts/MultiSigWallet/WalletSimple.sol\":9920:9933  batchTransfer */\n      tag_255\n        /* \"contracts/MultiSigWallet/WalletSimple.sol\":9920:9953  batchTransfer(recipients, values) */\n      jump\t// in\n    tag_254:\n        /* \"contracts/MultiSigWallet/WalletSimple.sol\":9964:10019  BatchTransacted(msg.sender, otherSigner, operationHash) */\n      0xe4c9047a729726b729cf4fa62c95ef9a434bbaf206a7ea0c7c77515db1584022\n        /* \"contracts/MultiSigWallet/WalletSimple.sol\":9980:9990  msg.sender */\n      caller\n        /* \"contracts/MultiSigWallet/WalletSimple.sol\":9992:10003  otherSigner */\n      dup3\n        /* \"contracts/MultiSigWallet/WalletSimple.sol\":10005:10018  operationHash */\n      dup5\n        /* \"contracts/MultiSigWallet/WalletSimple.sol\":9964:10019  BatchTransacted(msg.sender, otherSigner, operationHash) */\n      mload(0x40)\n      tag_256\n      swap4\n      swap3\n      swap2\n      swap1\n      tag_257\n      jump\t// in\n    tag_256:\n      mload(0x40)\n      dup1\n      swap2\n      sub\n      swap1\n      log1\n        /* \"contracts/MultiSigWallet/WalletSimple.sol\":9058:10024  {... */\n      pop\n      pop\n        /* \"contracts/MultiSigWallet/WalletSimple.sol\":8863:10024  function sendMultiSigBatch(... */\n      pop\n      pop\n      pop\n      pop\n      pop\n      pop\n      pop\n      pop\n      jump\t// out\n        /* \"contracts/MultiSigWallet/WalletSimple.sol\":17513:17772  function onERC1155BatchReceived(... */\n    tag_113:\n        /* \"contracts/MultiSigWallet/WalletSimple.sol\":17710:17716  bytes4 */\n      0x00\n        /* \"contracts/MultiSigWallet/WalletSimple.sol\":17731:17767  this.onERC1155BatchReceived.selector */\n      shl(0xe0, 0xbc197c81)\n        /* \"contracts/MultiSigWallet/WalletSimple.sol\":17724:17767  return this.onERC1155BatchReceived.selector */\n      swap1\n      pop\n        /* \"contracts/MultiSigWallet/WalletSimple.sol\":17513:17772  function onERC1155BatchReceived(... */\n      swap9\n      swap8\n      pop\n      pop\n      pop\n      pop\n      pop\n      pop\n      pop\n      pop\n      jump\t// out\n        /* \"contracts/MultiSigWallet/WalletSimple.sol\":14743:14944  function setAutoFlush721(address forwarderAddress, bool autoFlush)... */\n    tag_118:\n        /* \"contracts/MultiSigWallet/WalletSimple.sol\":5722:5742  isSigner(msg.sender) */\n      tag_260\n        /* \"contracts/MultiSigWallet/WalletSimple.sol\":5731:5741  msg.sender */\n      caller\n        /* \"contracts/MultiSigWallet/WalletSimple.sol\":5722:5730  isSigner */\n      tag_88\n        /* \"contracts/MultiSigWallet/WalletSimple.sol\":5722:5742  isSigner(msg.sender) */\n      jump\t// in\n    tag_260:\n        /* \"contracts/MultiSigWallet/WalletSimple.sol\":5714:5778  require(isSigner(msg.sender), 'Non-signer in onlySigner method') */\n      tag_261\n      jumpi\n      mload(0x40)\n      0x08c379a000000000000000000000000000000000000000000000000000000000\n      dup2\n      mstore\n      0x04\n      add\n      tag_262\n      swap1\n      tag_145\n      jump\t// in\n    tag_262:\n      mload(0x40)\n      dup1\n      swap2\n      sub\n      swap1\n      revert\n    tag_261:\n        /* \"contracts/MultiSigWallet/WalletSimple.sol\":14846:14866  IForwarder forwarder */\n      0x00\n        /* \"contracts/MultiSigWallet/WalletSimple.sol\":14880:14896  forwarderAddress */\n      dup3\n        /* \"contracts/MultiSigWallet/WalletSimple.sol\":14846:14897  IForwarder forwarder = IForwarder(forwarderAddress) */\n      swap1\n      pop\n        /* \"contracts/MultiSigWallet/WalletSimple.sol\":14903:14912  forwarder */\n      dup1\n        /* \"contracts/MultiSigWallet/WalletSimple.sol\":14903:14928  forwarder.setAutoFlush721 */\n      0xffffffffffffffffffffffffffffffffffffffff\n      and\n      0xc59f9f19\n        /* \"contracts/MultiSigWallet/WalletSimple.sol\":14929:14938  autoFlush */\n      dup4\n        /* \"contracts/MultiSigWallet/WalletSimple.sol\":14903:14939  forwarder.setAutoFlush721(autoFlush) */\n      mload(0x40)\n      dup3\n      0xffffffff\n      and\n      0xe0\n      shl\n      dup2\n      mstore\n      0x04\n      add\n      tag_264\n      swap2\n      swap1\n      tag_42\n      jump\t// in\n    tag_264:\n      0x00\n      mload(0x40)\n      dup1\n      dup4\n      sub\n      dup2\n      0x00\n      dup8\n      dup1\n      extcodesize\n      iszero\n      dup1\n      iszero\n      tag_265\n      jumpi\n      0x00\n      dup1\n      revert\n    tag_265:\n      pop\n      gas\n      call\n      iszero\n      dup1\n      iszero\n      tag_267\n      jumpi\n      returndatasize\n      0x00\n      dup1\n      returndatacopy\n      revert(0x00, returndatasize)\n    tag_267:\n      pop\n      pop\n      pop\n      pop\n        /* \"contracts/MultiSigWallet/WalletSimple.sol\":14840:14944  {... */\n      pop\n        /* \"contracts/MultiSigWallet/WalletSimple.sol\":14743:14944  function setAutoFlush721(address forwarderAddress, bool autoFlush)... */\n      pop\n      pop\n      jump\t// out\n        /* \"contracts/MultiSigWallet/WalletSimple.sol\":3345:3691  function init(address[] calldata allowedSigners) external onlyUninitialized {... */\n    tag_123:\n        /* \"contracts/MultiSigWallet/WalletSimple.sol\":5950:5961  initialized */\n      0x01\n      dup1\n      sload\n      swap1\n      0x0100\n      exp\n      swap1\n      div\n      0xff\n      and\n        /* \"contracts/MultiSigWallet/WalletSimple.sol\":5949:5961  !initialized */\n      iszero\n        /* \"contracts/MultiSigWallet/WalletSimple.sol\":5941:5994  require(!initialized, 'Contract already initialized') */\n      tag_269\n      jumpi\n      mload(0x40)\n      0x08c379a000000000000000000000000000000000000000000000000000000000\n      dup2\n      mstore\n      0x04\n      add\n      tag_270\n      swap1\n      tag_271\n      jump\t// in\n    tag_270:\n      mload(0x40)\n      dup1\n      swap2\n      sub\n      swap1\n      revert\n    tag_269:\n        /* \"contracts/MultiSigWallet/WalletSimple.sol\":3460:3461  3 */\n      0x03\n        /* \"contracts/MultiSigWallet/WalletSimple.sol\":3435:3449  allowedSigners */\n      dup3\n      dup3\n        /* \"contracts/MultiSigWallet/WalletSimple.sol\":3435:3456  allowedSigners.length */\n      swap1\n      pop\n        /* \"contracts/MultiSigWallet/WalletSimple.sol\":3435:3461  allowedSigners.length == 3 */\n      eq\n        /* \"contracts/MultiSigWallet/WalletSimple.sol\":3427:3491  require(allowedSigners.length == 3, 'Invalid number of signers') */\n      tag_273\n      jumpi\n      mload(0x40)\n      0x08c379a000000000000000000000000000000000000000000000000000000000\n      dup2\n      mstore\n      0x04\n      add\n      tag_274\n      swap1\n      tag_275\n      jump\t// in\n    tag_274:\n      mload(0x40)\n      dup1\n      swap2\n      sub\n      swap1\n      revert\n    tag_273:\n        /* \"contracts/MultiSigWallet/WalletSimple.sol\":3503:3510  uint8 i */\n      0x00\n        /* \"contracts/MultiSigWallet/WalletSimple.sol\":3498:3662  for (uint8 i = 0; i < allowedSigners.length; i++) {... */\n    tag_276:\n        /* \"contracts/MultiSigWallet/WalletSimple.sol\":3520:3534  allowedSigners */\n      dup3\n      dup3\n        /* \"contracts/MultiSigWallet/WalletSimple.sol\":3520:3541  allowedSigners.length */\n      swap1\n      pop\n        /* \"contracts/MultiSigWallet/WalletSimple.sol\":3516:3517  i */\n      dup2\n        /* \"contracts/MultiSigWallet/WalletSimple.sol\":3516:3541  i < allowedSigners.length */\n      0xff\n      and\n      lt\n        /* \"contracts/MultiSigWallet/WalletSimple.sol\":3498:3662  for (uint8 i = 0; i < allowedSigners.length; i++) {... */\n      iszero\n      tag_277\n      jumpi\n        /* \"contracts/MultiSigWallet/WalletSimple.sol\":3593:3594  0 */\n      0x00\n        /* \"contracts/MultiSigWallet/WalletSimple.sol\":3564:3595  allowedSigners[i] != address(0) */\n      0xffffffffffffffffffffffffffffffffffffffff\n      and\n        /* \"contracts/MultiSigWallet/WalletSimple.sol\":3564:3578  allowedSigners */\n      dup4\n      dup4\n        /* \"contracts/MultiSigWallet/WalletSimple.sol\":3579:3580  i */\n      dup4\n        /* \"contracts/MultiSigWallet/WalletSimple.sol\":3564:3581  allowedSigners[i] */\n      0xff\n      and\n      dup2\n      dup2\n      lt\n      tag_279\n      jumpi\n      tag_280\n      tag_222\n      jump\t// in\n    tag_280:\n    tag_279:\n      swap1\n      pop\n      0x20\n      mul\n      add\n      0x20\n      dup2\n      add\n      swap1\n      tag_281\n      swap2\n      swap1\n      tag_82\n      jump\t// in\n    tag_281:\n        /* \"contracts/MultiSigWallet/WalletSimple.sol\":3564:3595  allowedSigners[i] != address(0) */\n      0xffffffffffffffffffffffffffffffffffffffff\n      and\n      eq\n      iszero\n        /* \"contracts/MultiSigWallet/WalletSimple.sol\":3556:3614  require(allowedSigners[i] != address(0), 'Invalid signer') */\n      tag_282\n      jumpi\n      mload(0x40)\n      0x08c379a000000000000000000000000000000000000000000000000000000000\n      dup2\n      mstore\n      0x04\n      add\n      tag_283\n      swap1\n      tag_284\n      jump\t// in\n    tag_283:\n      mload(0x40)\n      dup1\n      swap2\n      sub\n      swap1\n      revert\n    tag_282:\n        /* \"contracts/MultiSigWallet/WalletSimple.sol\":3651:3655  true */\n      0x01\n        /* \"contracts/MultiSigWallet/WalletSimple.sol\":3622:3629  signers */\n      0x00\n        /* \"contracts/MultiSigWallet/WalletSimple.sol\":3622:3648  signers[allowedSigners[i]] */\n      dup1\n        /* \"contracts/MultiSigWallet/WalletSimple.sol\":3630:3644  allowedSigners */\n      dup6\n      dup6\n        /* \"contracts/MultiSigWallet/WalletSimple.sol\":3645:3646  i */\n      dup6\n        /* \"contracts/MultiSigWallet/WalletSimple.sol\":3630:3647  allowedSigners[i] */\n      0xff\n      and\n      dup2\n      dup2\n      lt\n      tag_285\n      jumpi\n      tag_286\n      tag_222\n      jump\t// in\n    tag_286:\n    tag_285:\n      swap1\n      pop\n      0x20\n      mul\n      add\n      0x20\n      dup2\n      add\n      swap1\n      tag_287\n      swap2\n      swap1\n      tag_82\n      jump\t// in\n    tag_287:\n        /* \"contracts/MultiSigWallet/WalletSimple.sol\":3622:3648  signers[allowedSigners[i]] */\n      0xffffffffffffffffffffffffffffffffffffffff\n      and\n      0xffffffffffffffffffffffffffffffffffffffff\n      and\n      dup2\n      mstore\n      0x20\n      add\n      swap1\n      dup2\n      mstore\n      0x20\n      add\n      0x00\n      keccak256\n      0x00\n        /* \"contracts/MultiSigWallet/WalletSimple.sol\":3622:3655  signers[allowedSigners[i]] = true */\n      0x0100\n      exp\n      dup2\n      sload\n      dup2\n      0xff\n      mul\n      not\n      and\n      swap1\n      dup4\n      iszero\n      iszero\n      mul\n      or\n      swap1\n      sstore\n      pop\n        /* \"contracts/MultiSigWallet/WalletSimple.sol\":3543:3546  i++ */\n      dup1\n      dup1\n      tag_288\n      swap1\n      tag_289\n      jump\t// in\n    tag_288:\n      swap2\n      pop\n      pop\n        /* \"contracts/MultiSigWallet/WalletSimple.sol\":3498:3662  for (uint8 i = 0; i < allowedSigners.length; i++) {... */\n      jump(tag_276)\n    tag_277:\n      pop\n        /* \"contracts/MultiSigWallet/WalletSimple.sol\":3682:3686  true */\n      0x01\n        /* \"contracts/MultiSigWallet/WalletSimple.sol\":3668:3679  initialized */\n      dup1\n      0x01\n        /* \"contracts/MultiSigWallet/WalletSimple.sol\":3668:3686  initialized = true */\n      0x0100\n      exp\n      dup2\n      sload\n      dup2\n      0xff\n      mul\n      not\n      and\n      swap1\n      dup4\n      iszero\n      iszero\n      mul\n      or\n      swap1\n      sstore\n      pop\n        /* \"contracts/MultiSigWallet/WalletSimple.sol\":3345:3691  function init(address[] calldata allowedSigners) external onlyUninitialized {... */\n      pop\n      pop\n      jump\t// out\n        /* \"contracts/MultiSigWallet/WalletSimple.sol\":14259:14540  function flushERC1155ForwarderTokens(... */\n    tag_127:\n        /* \"contracts/MultiSigWallet/WalletSimple.sol\":5722:5742  isSigner(msg.sender) */\n      tag_291\n        /* \"contracts/MultiSigWallet/WalletSimple.sol\":5731:5741  msg.sender */\n      caller\n        /* \"contracts/MultiSigWallet/WalletSimple.sol\":5722:5730  isSigner */\n      tag_88\n        /* \"contracts/MultiSigWallet/WalletSimple.sol\":5722:5742  isSigner(msg.sender) */\n      jump\t// in\n    tag_291:\n        /* \"contracts/MultiSigWallet/WalletSimple.sol\":5714:5778  require(isSigner(msg.sender), 'Non-signer in onlySigner method') */\n      tag_292\n      jumpi\n      mload(0x40)\n      0x08c379a000000000000000000000000000000000000000000000000000000000\n      dup2\n      mstore\n      0x04\n      add\n      tag_293\n      swap1\n      tag_145\n      jump\t// in\n    tag_293:\n      mload(0x40)\n      dup1\n      swap2\n      sub\n      swap1\n      revert\n    tag_292:\n        /* \"contracts/MultiSigWallet/WalletSimple.sol\":14419:14439  IForwarder forwarder */\n      0x00\n        /* \"contracts/MultiSigWallet/WalletSimple.sol\":14453:14469  forwarderAddress */\n      dup4\n        /* \"contracts/MultiSigWallet/WalletSimple.sol\":14419:14470  IForwarder forwarder = IForwarder(forwarderAddress) */\n      swap1\n      pop\n        /* \"contracts/MultiSigWallet/WalletSimple.sol\":14476:14485  forwarder */\n      dup1\n        /* \"contracts/MultiSigWallet/WalletSimple.sol\":14476:14504  forwarder.flushERC1155Tokens */\n      0xffffffffffffffffffffffffffffffffffffffff\n      and\n      0x8972c17c\n        /* \"contracts/MultiSigWallet/WalletSimple.sol\":14505:14525  tokenContractAddress */\n      dup5\n        /* \"contracts/MultiSigWallet/WalletSimple.sol\":14527:14534  tokenId */\n      dup5\n        /* \"contracts/MultiSigWallet/WalletSimple.sol\":14476:14535  forwarder.flushERC1155Tokens(tokenContractAddress, tokenId) */\n      mload(0x40)\n      dup4\n      0xffffffff\n      and\n      0xe0\n      shl\n      dup2\n      mstore\n      0x04\n      add\n      tag_295\n      swap3\n      swap2\n      swap1\n      tag_202\n      jump\t// in\n    tag_295:\n      0x00\n      mload(0x40)\n      dup1\n      dup4\n      sub\n      dup2\n      0x00\n      dup8\n      dup1\n      extcodesize\n      iszero\n      dup1\n      iszero\n      tag_296\n      jumpi\n      0x00\n      dup1\n      revert\n    tag_296:\n      pop\n      gas\n      call\n      iszero\n      dup1\n      iszero\n      tag_298\n      jumpi\n      returndatasize\n      0x00\n      dup1\n      returndatacopy\n      revert(0x00, returndatasize)\n    tag_298:\n      pop\n      pop\n      pop\n      pop\n        /* \"contracts/MultiSigWallet/WalletSimple.sol\":14413:14540  {... */\n      pop\n        /* \"contracts/MultiSigWallet/WalletSimple.sol\":14259:14540  function flushERC1155ForwarderTokens(... */\n      pop\n      pop\n      pop\n      jump\t// out\n        /* \"contracts/MultiSigWallet/WalletSimple.sol\":17238:17463  function onERC1155Received(... */\n    tag_132:\n        /* \"contracts/MultiSigWallet/WalletSimple.sol\":17406:17412  bytes4 */\n      0x00\n        /* \"contracts/MultiSigWallet/WalletSimple.sol\":17427:17458  this.onERC1155Received.selector */\n      shl(0xe0, 0xf23a6e61)\n        /* \"contracts/MultiSigWallet/WalletSimple.sol\":17420:17458  return this.onERC1155Received.selector */\n      swap1\n      pop\n        /* \"contracts/MultiSigWallet/WalletSimple.sol\":17238:17463  function onERC1155Received(... */\n      swap7\n      swap6\n      pop\n      pop\n      pop\n      pop\n      pop\n      pop\n      jump\t// out\n        /* \"contracts/MultiSigWallet/WalletSimple.sol\":17906:18020  function activateSafeMode() external onlySigner {... */\n    tag_136:\n        /* \"contracts/MultiSigWallet/WalletSimple.sol\":5722:5742  isSigner(msg.sender) */\n      tag_301\n        /* \"contracts/MultiSigWallet/WalletSimple.sol\":5731:5741  msg.sender */\n      caller\n        /* \"contracts/MultiSigWallet/WalletSimple.sol\":5722:5730  isSigner */\n      tag_88\n        /* \"contracts/MultiSigWallet/WalletSimple.sol\":5722:5742  isSigner(msg.sender) */\n      jump\t// in\n    tag_301:\n        /* \"contracts/MultiSigWallet/WalletSimple.sol\":5714:5778  require(isSigner(msg.sender), 'Non-signer in onlySigner method') */\n      tag_302\n      jumpi\n      mload(0x40)\n      0x08c379a000000000000000000000000000000000000000000000000000000000\n      dup2\n      mstore\n      0x04\n      add\n      tag_303\n      swap1\n      tag_145\n      jump\t// in\n    tag_303:\n      mload(0x40)\n      dup1\n      swap2\n      sub\n      swap1\n      revert\n    tag_302:\n        /* \"contracts/MultiSigWallet/WalletSimple.sol\":17971:17975  true */\n      0x01\n        /* \"contracts/MultiSigWallet/WalletSimple.sol\":17960:17968  safeMode */\n      dup1\n      0x00\n        /* \"contracts/MultiSigWallet/WalletSimple.sol\":17960:17975  safeMode = true */\n      0x0100\n      exp\n      dup2\n      sload\n      dup2\n      0xff\n      mul\n      not\n      and\n      swap1\n      dup4\n      iszero\n      iszero\n      mul\n      or\n      swap1\n      sstore\n      pop\n        /* \"contracts/MultiSigWallet/WalletSimple.sol\":17986:18015  SafeModeActivated(msg.sender) */\n      0x0909e8f76a4fd3e970f2eaef56c0ee6dfaf8b87c5b8d3f56ffce78e825a91157\n        /* \"contracts/MultiSigWallet/WalletSimple.sol\":18004:18014  msg.sender */\n      caller\n        /* \"contracts/MultiSigWallet/WalletSimple.sol\":17986:18015  SafeModeActivated(msg.sender) */\n      mload(0x40)\n      tag_305\n      swap2\n      swap1\n      tag_162\n      jump\t// in\n    tag_305:\n      mload(0x40)\n      dup1\n      swap2\n      sub\n      swap1\n      log1\n        /* \"contracts/MultiSigWallet/WalletSimple.sol\":17906:18020  function activateSafeMode() external onlySigner {... */\n      jump\t// out\n        /* \"@openzeppelin/contracts/utils/introspection/ERC165.sol\":829:984  function supportsInterface(bytes4 interfaceId) public view virtual override returns (bool) {... */\n    tag_140:\n        /* \"@openzeppelin/contracts/utils/introspection/ERC165.sol\":914:918  bool */\n      0x00\n        /* \"@openzeppelin/contracts/utils/introspection/ERC165.sol\":952:977  type(IERC165).interfaceId */\n      0x01ffc9a700000000000000000000000000000000000000000000000000000000\n        /* \"@openzeppelin/contracts/utils/introspection/ERC165.sol\":937:977  interfaceId == type(IERC165).interfaceId */\n      not(0xffffffffffffffffffffffffffffffffffffffffffffffffffffffff)\n      and\n        /* \"@openzeppelin/contracts/utils/introspection/ERC165.sol\":937:948  interfaceId */\n      dup3\n        /* \"@openzeppelin/contracts/utils/introspection/ERC165.sol\":937:977  interfaceId == type(IERC165).interfaceId */\n      not(0xffffffffffffffffffffffffffffffffffffffffffffffffffffffff)\n      and\n      eq\n        /* \"@openzeppelin/contracts/utils/introspection/ERC165.sol\":930:977  return interfaceId == type(IERC165).interfaceId */\n      swap1\n      pop\n        /* \"@openzeppelin/contracts/utils/introspection/ERC165.sol\":829:984  function supportsInterface(bytes4 interfaceId) public view virtual override returns (bool) {... */\n      swap2\n      swap1\n      pop\n      jump\t// out\n        /* \"contracts/MultiSigWallet/WalletSimple.sol\":4648:4748  function getTokenNetworkId() internal virtual pure returns (string memory) {... */\n    tag_148:\n        /* \"contracts/MultiSigWallet/WalletSimple.sol\":4708:4721  string memory */\n      0x60\n        /* \"contracts/MultiSigWallet/WalletSimple.sol\":4729:4743  return 'ERC20' */\n      mload(0x40)\n      dup1\n      0x40\n      add\n      0x40\n      mstore\n      dup1\n      0x05\n      dup2\n      mstore\n      0x20\n      add\n      0x4552433230000000000000000000000000000000000000000000000000000000\n      dup2\n      mstore\n      pop\n      swap1\n      pop\n        /* \"contracts/MultiSigWallet/WalletSimple.sol\":4648:4748  function getTokenNetworkId() internal virtual pure returns (string memory) {... */\n      swap1\n      jump\t// out\n        /* \"contracts/MultiSigWallet/WalletSimple.sol\":15837:16661  function verifyMultiSig(... */\n    tag_152:\n        /* \"contracts/MultiSigWallet/WalletSimple.sol\":16010:16017  address */\n      0x00\n        /* \"contracts/MultiSigWallet/WalletSimple.sol\":16025:16044  address otherSigner */\n      dup1\n        /* \"contracts/MultiSigWallet/WalletSimple.sol\":16047:16100  recoverAddressFromSignature(operationHash, signature) */\n      tag_309\n        /* \"contracts/MultiSigWallet/WalletSimple.sol\":16075:16088  operationHash */\n      dup8\n        /* \"contracts/MultiSigWallet/WalletSimple.sol\":16090:16099  signature */\n      dup8\n      dup8\n        /* \"contracts/MultiSigWallet/WalletSimple.sol\":16047:16100  recoverAddressFromSignature(operationHash, signature) */\n      dup1\n      dup1\n      0x1f\n      add\n      0x20\n      dup1\n      swap2\n      div\n      mul\n      0x20\n      add\n      mload(0x40)\n      swap1\n      dup2\n      add\n      0x40\n      mstore\n      dup1\n      swap4\n      swap3\n      swap2\n      swap1\n      dup2\n      dup2\n      mstore\n      0x20\n      add\n      dup4\n      dup4\n      dup1\n      dup3\n      dup5\n      calldatacopy\n      0x00\n      dup2\n      dup5\n      add\n      mstore\n      not(0x1f)\n      0x1f\n      dup3\n      add\n      and\n      swap1\n      pop\n      dup1\n      dup4\n      add\n      swap3\n      pop\n      pop\n      pop\n      pop\n      pop\n      pop\n      pop\n        /* \"contracts/MultiSigWallet/WalletSimple.sol\":16047:16074  recoverAddressFromSignature */\n      tag_310\n        /* \"contracts/MultiSigWallet/WalletSimple.sol\":16047:16100  recoverAddressFromSignature(operationHash, signature) */\n      jump\t// in\n    tag_309:\n        /* \"contracts/MultiSigWallet/WalletSimple.sol\":16025:16100  address otherSigner = recoverAddressFromSignature(operationHash, signature) */\n      swap1\n      pop\n        /* \"contracts/MultiSigWallet/WalletSimple.sol\":16204:16212  safeMode */\n      0x01\n      0x00\n      swap1\n      sload\n      swap1\n      0x0100\n      exp\n      swap1\n      div\n      0xff\n      and\n        /* \"contracts/MultiSigWallet/WalletSimple.sol\":16203:16212  !safeMode */\n      iszero\n        /* \"contracts/MultiSigWallet/WalletSimple.sol\":16203:16235  !safeMode || isSigner(toAddress) */\n      dup1\n      tag_311\n      jumpi\n      pop\n        /* \"contracts/MultiSigWallet/WalletSimple.sol\":16216:16235  isSigner(toAddress) */\n      tag_312\n        /* \"contracts/MultiSigWallet/WalletSimple.sol\":16225:16234  toAddress */\n      dup9\n        /* \"contracts/MultiSigWallet/WalletSimple.sol\":16216:16224  isSigner */\n      tag_88\n        /* \"contracts/MultiSigWallet/WalletSimple.sol\":16216:16235  isSigner(toAddress) */\n      jump\t// in\n    tag_312:\n        /* \"contracts/MultiSigWallet/WalletSimple.sol\":16203:16235  !safeMode || isSigner(toAddress) */\n    tag_311:\n        /* \"contracts/MultiSigWallet/WalletSimple.sol\":16195:16270  require(!safeMode || isSigner(toAddress), 'External transfer in safe mode') */\n      tag_313\n      jumpi\n      mload(0x40)\n      0x08c379a000000000000000000000000000000000000000000000000000000000\n      dup2\n      mstore\n      0x04\n      add\n      tag_314\n      swap1\n      tag_315\n      jump\t// in\n    tag_314:\n      mload(0x40)\n      dup1\n      swap2\n      sub\n      swap1\n      revert\n    tag_313:\n        /* \"contracts/MultiSigWallet/WalletSimple.sol\":16350:16365  block.timestamp */\n      timestamp\n        /* \"contracts/MultiSigWallet/WalletSimple.sol\":16336:16346  expireTime */\n      dup5\n        /* \"contracts/MultiSigWallet/WalletSimple.sol\":16336:16365  expireTime >= block.timestamp */\n      lt\n      iszero\n        /* \"contracts/MultiSigWallet/WalletSimple.sol\":16328:16389  require(expireTime >= block.timestamp, 'Transaction expired') */\n      tag_316\n      jumpi\n      mload(0x40)\n      0x08c379a000000000000000000000000000000000000000000000000000000000\n      dup2\n      mstore\n      0x04\n      add\n      tag_317\n      swap1\n      tag_318\n      jump\t// in\n    tag_317:\n      mload(0x40)\n      dup1\n      swap2\n      sub\n      swap1\n      revert\n    tag_316:\n        /* \"contracts/MultiSigWallet/WalletSimple.sol\":16477:16508  tryInsertSequenceId(sequenceId) */\n      tag_319\n        /* \"contracts/MultiSigWallet/WalletSimple.sol\":16497:16507  sequenceId */\n      dup4\n        /* \"contracts/MultiSigWallet/WalletSimple.sol\":16477:16496  tryInsertSequenceId */\n      tag_320\n        /* \"contracts/MultiSigWallet/WalletSimple.sol\":16477:16508  tryInsertSequenceId(sequenceId) */\n      jump\t// in\n    tag_319:\n        /* \"contracts/MultiSigWallet/WalletSimple.sol\":16523:16544  isSigner(otherSigner) */\n      tag_321\n        /* \"contracts/MultiSigWallet/WalletSimple.sol\":16532:16543  otherSigner */\n      dup2\n        /* \"contracts/MultiSigWallet/WalletSimple.sol\":16523:16531  isSigner */\n      tag_88\n        /* \"contracts/MultiSigWallet/WalletSimple.sol\":16523:16544  isSigner(otherSigner) */\n      jump\t// in\n    tag_321:\n        /* \"contracts/MultiSigWallet/WalletSimple.sol\":16515:16563  require(isSigner(otherSigner), 'Invalid signer') */\n      tag_322\n      jumpi\n      mload(0x40)\n      0x08c379a000000000000000000000000000000000000000000000000000000000\n      dup2\n      mstore\n      0x04\n      add\n      tag_323\n      swap1\n      tag_284\n      jump\t// in\n    tag_323:\n      mload(0x40)\n      dup1\n      swap2\n      sub\n      swap1\n      revert\n    tag_322:\n        /* \"contracts/MultiSigWallet/WalletSimple.sol\":16593:16603  msg.sender */\n      caller\n        /* \"contracts/MultiSigWallet/WalletSimple.sol\":16578:16603  otherSigner != msg.sender */\n      0xffffffffffffffffffffffffffffffffffffffff\n      and\n        /* \"contracts/MultiSigWallet/WalletSimple.sol\":16578:16589  otherSigner */\n      dup2\n        /* \"contracts/MultiSigWallet/WalletSimple.sol\":16578:16603  otherSigner != msg.sender */\n      0xffffffffffffffffffffffffffffffffffffffff\n      and\n      eq\n      iszero\n        /* \"contracts/MultiSigWallet/WalletSimple.sol\":16570:16631  require(otherSigner != msg.sender, 'Signers cannot be equal') */\n      tag_324\n      jumpi\n      mload(0x40)\n      0x08c379a000000000000000000000000000000000000000000000000000000000\n      dup2\n      mstore\n      0x04\n      add\n      tag_325\n      swap1\n      tag_326\n      jump\t// in\n    tag_325:\n      mload(0x40)\n      dup1\n      swap2\n      sub\n      swap1\n      revert\n    tag_324:\n        /* \"contracts/MultiSigWallet/WalletSimple.sol\":16645:16656  otherSigner */\n      dup1\n        /* \"contracts/MultiSigWallet/WalletSimple.sol\":16638:16656  return otherSigner */\n      swap2\n      pop\n      pop\n        /* \"contracts/MultiSigWallet/WalletSimple.sol\":15837:16661  function verifyMultiSig(... */\n      swap7\n      swap6\n      pop\n      pop\n      pop\n      pop\n      pop\n      pop\n      jump\t// out\n        /* \"contracts/MultiSigWallet/TransferHelper.sol\":363:769  function safeTransfer(... */\n    tag_154:\n        /* \"contracts/MultiSigWallet/TransferHelper.sol\":521:533  bool success */\n      0x00\n        /* \"contracts/MultiSigWallet/TransferHelper.sol\":535:552  bytes memory data */\n      dup1\n        /* \"contracts/MultiSigWallet/TransferHelper.sol\":556:561  token */\n      dup5\n        /* \"contracts/MultiSigWallet/TransferHelper.sol\":556:566  token.call */\n      0xffffffffffffffffffffffffffffffffffffffff\n      and\n        /* \"contracts/MultiSigWallet/TransferHelper.sol\":597:607  0xa9059cbb */\n      0xa9059cbb\n        /* \"contracts/MultiSigWallet/TransferHelper.sol\":609:611  to */\n      dup6\n        /* \"contracts/MultiSigWallet/TransferHelper.sol\":613:618  value */\n      dup6\n        /* \"contracts/MultiSigWallet/TransferHelper.sol\":574:619  abi.encodeWithSelector(0xa9059cbb, to, value) */\n      add(0x24, mload(0x40))\n      tag_328\n      swap3\n      swap2\n      swap1\n      tag_202\n      jump\t// in\n    tag_328:\n      mload(0x40)\n      0x20\n      dup2\n      dup4\n      sub\n      sub\n      dup2\n      mstore\n      swap1\n      0x40\n      mstore\n      swap1\n      0xe0\n      shl\n      0x20\n      dup3\n      add\n      dup1\n      mload\n      0xffffffffffffffffffffffffffffffffffffffffffffffffffffffff\n      dup4\n      dup2\n      dup4\n      and\n      or\n      dup4\n      mstore\n      pop\n      pop\n      pop\n      pop\n        /* \"contracts/MultiSigWallet/TransferHelper.sol\":556:625  token.call(... */\n      mload(0x40)\n      tag_329\n      swap2\n      swap1\n      tag_330\n      jump\t// in\n    tag_329:\n      0x00\n      mload(0x40)\n      dup1\n      dup4\n      sub\n      dup2\n      0x00\n      dup7\n      gas\n      call\n      swap2\n      pop\n      pop\n      returndatasize\n      dup1\n      0x00\n      dup2\n      eq\n      tag_333\n      jumpi\n      mload(0x40)\n      swap2\n      pop\n      and(add(returndatasize, 0x3f), not(0x1f))\n      dup3\n      add\n      0x40\n      mstore\n      returndatasize\n      dup3\n      mstore\n      returndatasize\n      0x00\n      0x20\n      dup5\n      add\n      returndatacopy\n      jump(tag_332)\n    tag_333:\n      0x60\n      swap2\n      pop\n    tag_332:\n      pop\n        /* \"contracts/MultiSigWallet/TransferHelper.sol\":520:625  (bool success, bytes memory data) = token.call(... */\n      swap2\n      pop\n      swap2\n      pop\n        /* \"contracts/MultiSigWallet/TransferHelper.sol\":646:653  success */\n      dup2\n        /* \"contracts/MultiSigWallet/TransferHelper.sol\":646:703  success && (data.length == 0 || abi.decode(data, (bool))) */\n      dup1\n      iszero\n      tag_334\n      jumpi\n      pop\n        /* \"contracts/MultiSigWallet/TransferHelper.sol\":673:674  0 */\n      0x00\n        /* \"contracts/MultiSigWallet/TransferHelper.sol\":658:662  data */\n      dup2\n        /* \"contracts/MultiSigWallet/TransferHelper.sol\":658:669  data.length */\n      mload\n        /* \"contracts/MultiSigWallet/TransferHelper.sol\":658:674  data.length == 0 */\n      eq\n        /* \"contracts/MultiSigWallet/TransferHelper.sol\":658:702  data.length == 0 || abi.decode(data, (bool)) */\n      dup1\n      tag_335\n      jumpi\n      pop\n        /* \"contracts/MultiSigWallet/TransferHelper.sol\":689:693  data */\n      dup1\n        /* \"contracts/MultiSigWallet/TransferHelper.sol\":678:702  abi.decode(data, (bool)) */\n      dup1\n      0x20\n      add\n      swap1\n      mload\n      dup2\n      add\n      swap1\n      tag_336\n      swap2\n      swap1\n      tag_337\n      jump\t// in\n    tag_336:\n        /* \"contracts/MultiSigWallet/TransferHelper.sol\":658:702  data.length == 0 || abi.decode(data, (bool)) */\n    tag_335:\n        /* \"contracts/MultiSigWallet/TransferHelper.sol\":646:703  success && (data.length == 0 || abi.decode(data, (bool))) */\n    tag_334:\n        /* \"contracts/MultiSigWallet/TransferHelper.sol\":631:764  require(... */\n      tag_338\n      jumpi\n      mload(0x40)\n      0x08c379a000000000000000000000000000000000000000000000000000000000\n      dup2\n      mstore\n      0x04\n      add\n      tag_339\n      swap1\n      tag_340\n      jump\t// in\n    tag_339:\n      mload(0x40)\n      dup1\n      swap2\n      sub\n      swap1\n      revert\n    tag_338:\n        /* \"contracts/MultiSigWallet/TransferHelper.sol\":452:769  {... */\n      pop\n      pop\n        /* \"contracts/MultiSigWallet/TransferHelper.sol\":363:769  function safeTransfer(... */\n      pop\n      pop\n      pop\n      jump\t// out\n        /* \"contracts/MultiSigWallet/WalletSimple.sol\":4112:4207  function getNetworkId() internal virtual pure returns (string memory) {... */\n    tag_182:\n        /* \"contracts/MultiSigWallet/WalletSimple.sol\":4167:4180  string memory */\n      0x60\n        /* \"contracts/MultiSigWallet/WalletSimple.sol\":4188:4202  return 'ETHER' */\n      mload(0x40)\n      dup1\n      0x40\n      add\n      0x40\n      mstore\n      dup1\n      0x05\n      dup2\n      mstore\n      0x20\n      add\n      0x4554484552000000000000000000000000000000000000000000000000000000\n      dup2\n      mstore\n      pop\n      swap1\n      pop\n        /* \"contracts/MultiSigWallet/WalletSimple.sol\":4112:4207  function getNetworkId() internal virtual pure returns (string memory) {... */\n      swap1\n      jump\t// out\n        /* \"contracts/MultiSigWallet/WalletSimple.sol\":5189:5295  function getBatchNetworkId() internal virtual pure returns (string memory) {... */\n    tag_247:\n        /* \"contracts/MultiSigWallet/WalletSimple.sol\":5249:5262  string memory */\n      0x60\n        /* \"contracts/MultiSigWallet/WalletSimple.sol\":5270:5290  return 'ETHER-Batch' */\n      mload(0x40)\n      dup1\n      0x40\n      add\n      0x40\n      mstore\n      dup1\n      0x0b\n      dup2\n      mstore\n      0x20\n      add\n      0x45544845522d4261746368000000000000000000000000000000000000000000\n      dup2\n      mstore\n      pop\n      swap1\n      pop\n        /* \"contracts/MultiSigWallet/WalletSimple.sol\":5189:5295  function getBatchNetworkId() internal virtual pure returns (string memory) {... */\n      swap1\n      jump\t// out\n        /* \"contracts/MultiSigWallet/WalletSimple.sol\":10346:10760  function batchTransfer(... */\n    tag_255:\n        /* \"contracts/MultiSigWallet/WalletSimple.sol\":10459:10468  uint256 i */\n      0x00\n        /* \"contracts/MultiSigWallet/WalletSimple.sol\":10454:10756  for (uint256 i = 0; i < recipients.length; i++) {... */\n    tag_344:\n        /* \"contracts/MultiSigWallet/WalletSimple.sol\":10478:10488  recipients */\n      dup5\n      dup5\n        /* \"contracts/MultiSigWallet/WalletSimple.sol\":10478:10495  recipients.length */\n      swap1\n      pop\n        /* \"contracts/MultiSigWallet/WalletSimple.sol\":10474:10475  i */\n      dup2\n        /* \"contracts/MultiSigWallet/WalletSimple.sol\":10474:10495  i < recipients.length */\n      lt\n        /* \"contracts/MultiSigWallet/WalletSimple.sol\":10454:10756  for (uint256 i = 0; i < recipients.length; i++) {... */\n      iszero\n      tag_345\n      jumpi\n        /* \"contracts/MultiSigWallet/WalletSimple.sol\":10543:10549  values */\n      dup3\n      dup3\n        /* \"contracts/MultiSigWallet/WalletSimple.sol\":10550:10551  i */\n      dup3\n        /* \"contracts/MultiSigWallet/WalletSimple.sol\":10543:10552  values[i] */\n      dup2\n      dup2\n      lt\n      tag_347\n      jumpi\n      tag_348\n      tag_222\n      jump\t// in\n    tag_348:\n    tag_347:\n      swap1\n      pop\n      0x20\n      mul\n      add\n      calldataload\n        /* \"contracts/MultiSigWallet/WalletSimple.sol\":10518:10539  address(this).balance */\n      selfbalance\n        /* \"contracts/MultiSigWallet/WalletSimple.sol\":10518:10552  address(this).balance >= values[i] */\n      lt\n      iszero\n        /* \"contracts/MultiSigWallet/WalletSimple.sol\":10510:10575  require(address(this).balance >= values[i], 'Insufficient funds') */\n      tag_349\n      jumpi\n      mload(0x40)\n      0x08c379a000000000000000000000000000000000000000000000000000000000\n      dup2\n      mstore\n      0x04\n      add\n      tag_350\n      swap1\n      tag_351\n      jump\t// in\n    tag_350:\n      mload(0x40)\n      dup1\n      swap2\n      sub\n      swap1\n      revert\n    tag_349:\n        /* \"contracts/MultiSigWallet/WalletSimple.sol\":10585:10597  bool success */\n      0x00\n        /* \"contracts/MultiSigWallet/WalletSimple.sol\":10603:10613  recipients */\n      dup6\n      dup6\n        /* \"contracts/MultiSigWallet/WalletSimple.sol\":10614:10615  i */\n      dup4\n        /* \"contracts/MultiSigWallet/WalletSimple.sol\":10603:10616  recipients[i] */\n      dup2\n      dup2\n      lt\n      tag_352\n      jumpi\n      tag_353\n      tag_222\n      jump\t// in\n    tag_353:\n    tag_352:\n      swap1\n      pop\n      0x20\n      mul\n      add\n      0x20\n      dup2\n      add\n      swap1\n      tag_354\n      swap2\n      swap1\n      tag_82\n      jump\t// in\n    tag_354:\n        /* \"contracts/MultiSigWallet/WalletSimple.sol\":10603:10621  recipients[i].call */\n      0xffffffffffffffffffffffffffffffffffffffff\n      and\n        /* \"contracts/MultiSigWallet/WalletSimple.sol\":10630:10636  values */\n      dup5\n      dup5\n        /* \"contracts/MultiSigWallet/WalletSimple.sol\":10637:10638  i */\n      dup5\n        /* \"contracts/MultiSigWallet/WalletSimple.sol\":10630:10639  values[i] */\n      dup2\n      dup2\n      lt\n      tag_355\n      jumpi\n      tag_356\n      tag_222\n      jump\t// in\n    tag_356:\n    tag_355:\n      swap1\n      pop\n      0x20\n      mul\n      add\n      calldataload\n        /* \"contracts/MultiSigWallet/WalletSimple.sol\":10603:10645  recipients[i].call{ value: values[i] }('') */\n      mload(0x40)\n      tag_357\n      swap1\n      tag_358\n      jump\t// in\n    tag_357:\n      0x00\n      mload(0x40)\n      dup1\n      dup4\n      sub\n      dup2\n      dup6\n      dup8\n      gas\n      call\n      swap3\n      pop\n      pop\n      pop\n      returndatasize\n      dup1\n      0x00\n      dup2\n      eq\n      tag_361\n      jumpi\n      mload(0x40)\n      swap2\n      pop\n      and(add(returndatasize, 0x3f), not(0x1f))\n      dup3\n      add\n      0x40\n      mstore\n      returndatasize\n      dup3\n      mstore\n      returndatasize\n      0x00\n      0x20\n      dup5\n      add\n      returndatacopy\n      jump(tag_360)\n    tag_361:\n      0x60\n      swap2\n      pop\n    tag_360:\n      pop\n        /* \"contracts/MultiSigWallet/WalletSimple.sol\":10584:10645  (bool success, ) = recipients[i].call{ value: values[i] }('') */\n      pop\n      swap1\n      pop\n        /* \"contracts/MultiSigWallet/WalletSimple.sol\":10661:10668  success */\n      dup1\n        /* \"contracts/MultiSigWallet/WalletSimple.sol\":10653:10684  require(success, 'Call failed') */\n      tag_362\n      jumpi\n      mload(0x40)\n      0x08c379a000000000000000000000000000000000000000000000000000000000\n      dup2\n      mstore\n      0x04\n      add\n      tag_363\n      swap1\n      tag_364\n      jump\t// in\n    tag_363:\n      mload(0x40)\n      dup1\n      swap2\n      sub\n      swap1\n      revert\n    tag_362:\n        /* \"contracts/MultiSigWallet/WalletSimple.sol\":10698:10749  BatchTransfer(msg.sender, recipients[i], values[i]) */\n      0xc42fa155158786a1dd6ccc3a785f35845467353c3cc700e0e31a79f90e22227d\n        /* \"contracts/MultiSigWallet/WalletSimple.sol\":10712:10722  msg.sender */\n      caller\n        /* \"contracts/MultiSigWallet/WalletSimple.sol\":10724:10734  recipients */\n      dup8\n      dup8\n        /* \"contracts/MultiSigWallet/WalletSimple.sol\":10735:10736  i */\n      dup6\n        /* \"contracts/MultiSigWallet/WalletSimple.sol\":10724:10737  recipients[i] */\n      dup2\n      dup2\n      lt\n      tag_365\n      jumpi\n      tag_366\n      tag_222\n      jump\t// in\n    tag_366:\n    tag_365:\n      swap1\n      pop\n      0x20\n      mul\n      add\n      0x20\n      dup2\n      add\n      swap1\n      tag_367\n      swap2\n      swap1\n      tag_82\n      jump\t// in\n    tag_367:\n        /* \"contracts/MultiSigWallet/WalletSimple.sol\":10739:10745  values */\n      dup7\n      dup7\n        /* \"contracts/MultiSigWallet/WalletSimple.sol\":10746:10747  i */\n      dup7\n        /* \"contracts/MultiSigWallet/WalletSimple.sol\":10739:10748  values[i] */\n      dup2\n      dup2\n      lt\n      tag_368\n      jumpi\n      tag_369\n      tag_222\n      jump\t// in\n    tag_369:\n    tag_368:\n      swap1\n      pop\n      0x20\n      mul\n      add\n      calldataload\n        /* \"contracts/MultiSigWallet/WalletSimple.sol\":10698:10749  BatchTransfer(msg.sender, recipients[i], values[i]) */\n      mload(0x40)\n      tag_370\n      swap4\n      swap3\n      swap2\n      swap1\n      tag_371\n      jump\t// in\n    tag_370:\n      mload(0x40)\n      dup1\n      swap2\n      sub\n      swap1\n      log1\n        /* \"contracts/MultiSigWallet/WalletSimple.sol\":10502:10756  {... */\n      pop\n        /* \"contracts/MultiSigWallet/WalletSimple.sol\":10497:10500  i++ */\n      dup1\n      dup1\n      tag_372\n      swap1\n      tag_229\n      jump\t// in\n    tag_372:\n      swap2\n      pop\n      pop\n        /* \"contracts/MultiSigWallet/WalletSimple.sol\":10454:10756  for (uint256 i = 0; i < recipients.length; i++) {... */\n      jump(tag_344)\n    tag_345:\n      pop\n        /* \"contracts/MultiSigWallet/WalletSimple.sol\":10346:10760  function batchTransfer(... */\n      pop\n      pop\n      pop\n      pop\n      jump\t// out\n        /* \"contracts/MultiSigWallet/WalletSimple.sol\":18211:19545  function recoverAddressFromSignature(... */\n    tag_310:\n        /* \"contracts/MultiSigWallet/WalletSimple.sol\":18329:18336  address */\n      0x00\n        /* \"contracts/MultiSigWallet/WalletSimple.sol\":18372:18374  65 */\n      0x41\n        /* \"contracts/MultiSigWallet/WalletSimple.sol\":18352:18361  signature */\n      dup3\n        /* \"contracts/MultiSigWallet/WalletSimple.sol\":18352:18368  signature.length */\n      mload\n        /* \"contracts/MultiSigWallet/WalletSimple.sol\":18352:18374  signature.length == 65 */\n      eq\n        /* \"contracts/MultiSigWallet/WalletSimple.sol\":18344:18411  require(signature.length == 65, 'Invalid signature - wrong length') */\n      tag_374\n      jumpi\n      mload(0x40)\n      0x08c379a000000000000000000000000000000000000000000000000000000000\n      dup2\n      mstore\n      0x04\n      add\n      tag_375\n      swap1\n      tag_376\n      jump\t// in\n    tag_375:\n      mload(0x40)\n      dup1\n      swap2\n      sub\n      swap1\n      revert\n    tag_374:\n        /* \"contracts/MultiSigWallet/WalletSimple.sol\":18513:18522  bytes32 r */\n      0x00\n        /* \"contracts/MultiSigWallet/WalletSimple.sol\":18528:18537  bytes32 s */\n      dup1\n        /* \"contracts/MultiSigWallet/WalletSimple.sol\":18543:18550  uint8 v */\n      0x00\n        /* \"contracts/MultiSigWallet/WalletSimple.sol\":18633:18635  32 */\n      0x20\n        /* \"contracts/MultiSigWallet/WalletSimple.sol\":18622:18631  signature */\n      dup6\n        /* \"contracts/MultiSigWallet/WalletSimple.sol\":18618:18636  add(signature, 32) */\n      add\n        /* \"contracts/MultiSigWallet/WalletSimple.sol\":18612:18637  mload(add(signature, 32)) */\n      mload\n        /* \"contracts/MultiSigWallet/WalletSimple.sol\":18607:18637  r := mload(add(signature, 32)) */\n      swap3\n      pop\n        /* \"contracts/MultiSigWallet/WalletSimple.sol\":18670:18672  64 */\n      0x40\n        /* \"contracts/MultiSigWallet/WalletSimple.sol\":18659:18668  signature */\n      dup6\n        /* \"contracts/MultiSigWallet/WalletSimple.sol\":18655:18673  add(signature, 64) */\n      add\n        /* \"contracts/MultiSigWallet/WalletSimple.sol\":18649:18674  mload(add(signature, 64)) */\n      mload\n        /* \"contracts/MultiSigWallet/WalletSimple.sol\":18644:18674  s := mload(add(signature, 64)) */\n      swap2\n      pop\n        /* \"contracts/MultiSigWallet/WalletSimple.sol\":18717:18720  255 */\n      0xff\n        /* \"contracts/MultiSigWallet/WalletSimple.sol\":18711:18713  65 */\n      0x41\n        /* \"contracts/MultiSigWallet/WalletSimple.sol\":18700:18709  signature */\n      dup7\n        /* \"contracts/MultiSigWallet/WalletSimple.sol\":18696:18714  add(signature, 65) */\n      add\n        /* \"contracts/MultiSigWallet/WalletSimple.sol\":18690:18715  mload(add(signature, 65)) */\n      mload\n        /* \"contracts/MultiSigWallet/WalletSimple.sol\":18686:18721  and(mload(add(signature, 65)), 255) */\n      and\n        /* \"contracts/MultiSigWallet/WalletSimple.sol\":18681:18721  v := and(mload(add(signature, 65)), 255) */\n      swap1\n      pop\n        /* \"contracts/MultiSigWallet/WalletSimple.sol\":18740:18742  27 */\n      0x1b\n        /* \"contracts/MultiSigWallet/WalletSimple.sol\":18736:18737  v */\n      dup2\n        /* \"contracts/MultiSigWallet/WalletSimple.sol\":18736:18742  v < 27 */\n      0xff\n      and\n      lt\n        /* \"contracts/MultiSigWallet/WalletSimple.sol\":18732:18861  if (v < 27) {... */\n      iszero\n      tag_377\n      jumpi\n        /* \"contracts/MultiSigWallet/WalletSimple.sol\":18757:18759  27 */\n      0x1b\n        /* \"contracts/MultiSigWallet/WalletSimple.sol\":18752:18759  v += 27 */\n      dup2\n      tag_378\n      swap2\n      swap1\n      tag_379\n      jump\t// in\n    tag_378:\n      swap1\n      pop\n        /* \"contracts/MultiSigWallet/WalletSimple.sol\":18732:18861  if (v < 27) {... */\n    tag_377:\n        /* \"contracts/MultiSigWallet/WalletSimple.sol\":19154:19220  0x7FFFFFFFFFFFFFFFFFFFFFFFFFFFFFFF5D576E7357A4501DDFE92F46681B20A0 */\n      0x7fffffffffffffffffffffffffffffff5d576e7357a4501ddfe92f46681b20a0\n        /* \"contracts/MultiSigWallet/WalletSimple.sol\":19140:19141  s */\n      dup3\n        /* \"contracts/MultiSigWallet/WalletSimple.sol\":19132:19142  uint256(s) */\n      0x00\n      shr\n        /* \"contracts/MultiSigWallet/WalletSimple.sol\":19132:19220  uint256(s) <=... */\n      gt\n      iszero\n        /* \"contracts/MultiSigWallet/WalletSimple.sol\":19117:19270  require(... */\n      tag_380\n      jumpi\n      mload(0x40)\n      0x08c379a000000000000000000000000000000000000000000000000000000000\n      dup2\n      mstore\n      0x04\n      add\n      tag_381\n      swap1\n      tag_382\n      jump\t// in\n    tag_381:\n      mload(0x40)\n      dup1\n      swap2\n      sub\n      swap1\n      revert\n    tag_380:\n        /* \"contracts/MultiSigWallet/WalletSimple.sol\":19507:19540  ecrecover(operationHash, v, r, s) */\n      0x01\n        /* \"contracts/MultiSigWallet/WalletSimple.sol\":19517:19530  operationHash */\n      dup7\n        /* \"contracts/MultiSigWallet/WalletSimple.sol\":19532:19533  v */\n      dup3\n        /* \"contracts/MultiSigWallet/WalletSimple.sol\":19535:19536  r */\n      dup6\n        /* \"contracts/MultiSigWallet/WalletSimple.sol\":19538:19539  s */\n      dup6\n        /* \"contracts/MultiSigWallet/WalletSimple.sol\":19507:19540  ecrecover(operationHash, v, r, s) */\n      mload(0x40)\n      0x00\n      dup2\n      mstore\n      0x20\n      add\n      0x40\n      mstore\n      mload(0x40)\n      tag_383\n      swap5\n      swap4\n      swap3\n      swap2\n      swap1\n      tag_384\n      jump\t// in\n    tag_383:\n      0x20\n      mload(0x40)\n      0x20\n      dup2\n      sub\n      swap1\n      dup1\n      dup5\n      sub\n      swap1\n      dup6\n      gas\n      staticcall\n      iszero\n      dup1\n      iszero\n      tag_386\n      jumpi\n      returndatasize\n      0x00\n      dup1\n      returndatacopy\n      revert(0x00, returndatasize)\n    tag_386:\n      pop\n      pop\n      pop\n      mload(sub(mload(0x40), 0x20))\n        /* \"contracts/MultiSigWallet/WalletSimple.sol\":19500:19540  return ecrecover(operationHash, v, r, s) */\n      swap4\n      pop\n      pop\n      pop\n      pop\n        /* \"contracts/MultiSigWallet/WalletSimple.sol\":18211:19545  function recoverAddressFromSignature(... */\n      swap3\n      swap2\n      pop\n      pop\n      jump\t// out\n        /* \"contracts/MultiSigWallet/WalletSimple.sol\":19904:21137  function tryInsertSequenceId(uint256 sequenceId) private onlySigner {... */\n    tag_320:\n        /* \"contracts/MultiSigWallet/WalletSimple.sol\":5722:5742  isSigner(msg.sender) */\n      tag_388\n        /* \"contracts/MultiSigWallet/WalletSimple.sol\":5731:5741  msg.sender */\n      caller\n        /* \"contracts/MultiSigWallet/WalletSimple.sol\":5722:5730  isSigner */\n      tag_88\n        /* \"contracts/MultiSigWallet/WalletSimple.sol\":5722:5742  isSigner(msg.sender) */\n      jump\t// in\n    tag_388:\n        /* \"contracts/MultiSigWallet/WalletSimple.sol\":5714:5778  require(isSigner(msg.sender), 'Non-signer in onlySigner method') */\n      tag_389\n      jumpi\n      mload(0x40)\n      0x08c379a000000000000000000000000000000000000000000000000000000000\n      dup2\n      mstore\n      0x04\n      add\n      tag_390\n      swap1\n      tag_145\n      jump\t// in\n    tag_390:\n      mload(0x40)\n      dup1\n      swap2\n      sub\n      swap1\n      revert\n    tag_389:\n        /* \"contracts/MultiSigWallet/WalletSimple.sol\":20042:20066  uint256 lowestValueIndex */\n      0x00\n        /* \"contracts/MultiSigWallet/WalletSimple.sol\":20172:20230  uint256[SEQUENCE_ID_WINDOW_SIZE] memory _recentSequenceIds */\n      dup1\n        /* \"contracts/MultiSigWallet/WalletSimple.sol\":20238:20255  recentSequenceIds */\n      0x02\n        /* \"contracts/MultiSigWallet/WalletSimple.sol\":20172:20255  uint256[SEQUENCE_ID_WINDOW_SIZE] memory _recentSequenceIds... */\n      0x0a\n      dup1\n      0x20\n      mul\n      mload(0x40)\n      swap1\n      dup2\n      add\n      0x40\n      mstore\n      dup1\n      swap3\n      swap2\n      swap1\n      dup3\n      0x0a\n      dup1\n      iszero\n      tag_392\n      jumpi\n      0x20\n      mul\n      dup3\n      add\n      swap2\n    tag_393:\n      dup2\n      sload\n      dup2\n      mstore\n      0x20\n      add\n      swap1\n      0x01\n      add\n      swap1\n      dup1\n      dup4\n      gt\n      tag_393\n      jumpi\n    tag_392:\n      pop\n      pop\n      pop\n      pop\n      pop\n      swap1\n      pop\n        /* \"contracts/MultiSigWallet/WalletSimple.sol\":20266:20275  uint256 i */\n      0x00\n        /* \"contracts/MultiSigWallet/WalletSimple.sol\":20261:20515  for (uint256 i = 0; i < SEQUENCE_ID_WINDOW_SIZE; i++) {... */\n    tag_394:\n        /* \"contracts/MultiSigWallet/WalletSimple.sol\":2913:2915  10 */\n      0x0a\n        /* \"contracts/MultiSigWallet/WalletSimple.sol\":20281:20282  i */\n      dup2\n        /* \"contracts/MultiSigWallet/WalletSimple.sol\":20281:20308  i < SEQUENCE_ID_WINDOW_SIZE */\n      lt\n        /* \"contracts/MultiSigWallet/WalletSimple.sol\":20261:20515  for (uint256 i = 0; i < SEQUENCE_ID_WINDOW_SIZE; i++) {... */\n      iszero\n      tag_395\n      jumpi\n        /* \"contracts/MultiSigWallet/WalletSimple.sol\":20356:20366  sequenceId */\n      dup4\n        /* \"contracts/MultiSigWallet/WalletSimple.sol\":20331:20349  _recentSequenceIds */\n      dup3\n        /* \"contracts/MultiSigWallet/WalletSimple.sol\":20350:20351  i */\n      dup3\n        /* \"contracts/MultiSigWallet/WalletSimple.sol\":20331:20352  _recentSequenceIds[i] */\n      0x0a\n      dup2\n      lt\n      tag_397\n      jumpi\n      tag_398\n      tag_222\n      jump\t// in\n    tag_398:\n    tag_397:\n      0x20\n      mul\n      add\n      mload\n        /* \"contracts/MultiSigWallet/WalletSimple.sol\":20331:20366  _recentSequenceIds[i] != sequenceId */\n      eq\n      iszero\n        /* \"contracts/MultiSigWallet/WalletSimple.sol\":20323:20395  require(_recentSequenceIds[i] != sequenceId, 'Sequence ID already used') */\n      tag_399\n      jumpi\n      mload(0x40)\n      0x08c379a000000000000000000000000000000000000000000000000000000000\n      dup2\n      mstore\n      0x04\n      add\n      tag_400\n      swap1\n      tag_401\n      jump\t// in\n    tag_400:\n      mload(0x40)\n      dup1\n      swap2\n      sub\n      swap1\n      revert\n    tag_399:\n        /* \"contracts/MultiSigWallet/WalletSimple.sol\":20432:20450  _recentSequenceIds */\n      dup2\n        /* \"contracts/MultiSigWallet/WalletSimple.sol\":20451:20467  lowestValueIndex */\n      dup4\n        /* \"contracts/MultiSigWallet/WalletSimple.sol\":20432:20468  _recentSequenceIds[lowestValueIndex] */\n      0x0a\n      dup2\n      lt\n      tag_402\n      jumpi\n      tag_403\n      tag_222\n      jump\t// in\n    tag_403:\n    tag_402:\n      0x20\n      mul\n      add\n      mload\n        /* \"contracts/MultiSigWallet/WalletSimple.sol\":20408:20426  _recentSequenceIds */\n      dup3\n        /* \"contracts/MultiSigWallet/WalletSimple.sol\":20427:20428  i */\n      dup3\n        /* \"contracts/MultiSigWallet/WalletSimple.sol\":20408:20429  _recentSequenceIds[i] */\n      0x0a\n      dup2\n      lt\n      tag_404\n      jumpi\n      tag_405\n      tag_222\n      jump\t// in\n    tag_405:\n    tag_404:\n      0x20\n      mul\n      add\n      mload\n        /* \"contracts/MultiSigWallet/WalletSimple.sol\":20408:20468  _recentSequenceIds[i] < _recentSequenceIds[lowestValueIndex] */\n      lt\n        /* \"contracts/MultiSigWallet/WalletSimple.sol\":20404:20509  if (_recentSequenceIds[i] < _recentSequenceIds[lowestValueIndex]) {... */\n      iszero\n      tag_406\n      jumpi\n        /* \"contracts/MultiSigWallet/WalletSimple.sol\":20499:20500  i */\n      dup1\n        /* \"contracts/MultiSigWallet/WalletSimple.sol\":20480:20500  lowestValueIndex = i */\n      swap3\n      pop\n        /* \"contracts/MultiSigWallet/WalletSimple.sol\":20404:20509  if (_recentSequenceIds[i] < _recentSequenceIds[lowestValueIndex]) {... */\n    tag_406:\n        /* \"contracts/MultiSigWallet/WalletSimple.sol\":20310:20313  i++ */\n      dup1\n      dup1\n      tag_407\n      swap1\n      tag_229\n      jump\t// in\n    tag_407:\n      swap2\n      pop\n      pop\n        /* \"contracts/MultiSigWallet/WalletSimple.sol\":20261:20515  for (uint256 i = 0; i < SEQUENCE_ID_WINDOW_SIZE; i++) {... */\n      jump(tag_394)\n    tag_395:\n      pop\n        /* \"contracts/MultiSigWallet/WalletSimple.sol\":20690:20708  _recentSequenceIds */\n      dup1\n        /* \"contracts/MultiSigWallet/WalletSimple.sol\":20709:20725  lowestValueIndex */\n      dup3\n        /* \"contracts/MultiSigWallet/WalletSimple.sol\":20690:20726  _recentSequenceIds[lowestValueIndex] */\n      0x0a\n      dup2\n      lt\n      tag_408\n      jumpi\n      tag_409\n      tag_222\n      jump\t// in\n    tag_409:\n    tag_408:\n      0x20\n      mul\n      add\n      mload\n        /* \"contracts/MultiSigWallet/WalletSimple.sol\":20677:20687  sequenceId */\n      dup4\n        /* \"contracts/MultiSigWallet/WalletSimple.sol\":20677:20726  sequenceId > _recentSequenceIds[lowestValueIndex] */\n      gt\n        /* \"contracts/MultiSigWallet/WalletSimple.sol\":20662:20766  require(... */\n      tag_410\n      jumpi\n      mload(0x40)\n      0x08c379a000000000000000000000000000000000000000000000000000000000\n      dup2\n      mstore\n      0x04\n      add\n      tag_411\n      swap1\n      tag_412\n      jump\t// in\n    tag_411:\n      mload(0x40)\n      dup1\n      swap2\n      sub\n      swap1\n      revert\n    tag_410:\n        /* \"contracts/MultiSigWallet/WalletSimple.sol\":2861:2866  10000 */\n      0x2710\n        /* \"contracts/MultiSigWallet/WalletSimple.sol\":20972:20990  _recentSequenceIds */\n      dup2\n        /* \"contracts/MultiSigWallet/WalletSimple.sol\":20991:21007  lowestValueIndex */\n      dup4\n        /* \"contracts/MultiSigWallet/WalletSimple.sol\":20972:21008  _recentSequenceIds[lowestValueIndex] */\n      0x0a\n      dup2\n      lt\n      tag_413\n      jumpi\n      tag_414\n      tag_222\n      jump\t// in\n    tag_414:\n    tag_413:\n      0x20\n      mul\n      add\n      mload\n        /* \"contracts/MultiSigWallet/WalletSimple.sol\":20972:21035  _recentSequenceIds[lowestValueIndex] + MAX_SEQUENCE_ID_INCREASE */\n      tag_415\n      swap2\n      swap1\n      tag_231\n      jump\t// in\n    tag_415:\n        /* \"contracts/MultiSigWallet/WalletSimple.sol\":20949:20959  sequenceId */\n      dup4\n        /* \"contracts/MultiSigWallet/WalletSimple.sol\":20949:21036  sequenceId <=... */\n      gt\n      iszero\n        /* \"contracts/MultiSigWallet/WalletSimple.sol\":20934:21077  require(... */\n      tag_416\n      jumpi\n      mload(0x40)\n      0x08c379a000000000000000000000000000000000000000000000000000000000\n      dup2\n      mstore\n      0x04\n      add\n      tag_417\n      swap1\n      tag_418\n      jump\t// in\n    tag_417:\n      mload(0x40)\n      dup1\n      swap2\n      sub\n      swap1\n      revert\n    tag_416:\n        /* \"contracts/MultiSigWallet/WalletSimple.sol\":21122:21132  sequenceId */\n      dup3\n        /* \"contracts/MultiSigWallet/WalletSimple.sol\":21084:21101  recentSequenceIds */\n      0x02\n        /* \"contracts/MultiSigWallet/WalletSimple.sol\":21102:21118  lowestValueIndex */\n      dup4\n        /* \"contracts/MultiSigWallet/WalletSimple.sol\":21084:21119  recentSequenceIds[lowestValueIndex] */\n      0x0a\n      dup2\n      lt\n      tag_419\n      jumpi\n      tag_420\n      tag_222\n      jump\t// in\n    tag_420:\n    tag_419:\n      add\n        /* \"contracts/MultiSigWallet/WalletSimple.sol\":21084:21132  recentSequenceIds[lowestValueIndex] = sequenceId */\n      dup2\n      swap1\n      sstore\n      pop\n        /* \"contracts/MultiSigWallet/WalletSimple.sol\":19972:21137  {... */\n      pop\n      pop\n        /* \"contracts/MultiSigWallet/WalletSimple.sol\":19904:21137  function tryInsertSequenceId(uint256 sequenceId) private onlySigner {... */\n      pop\n      jump\t// out\n        /* \"#utility.yul\":7:133   */\n    tag_422:\n        /* \"#utility.yul\":44:51   */\n      0x00\n        /* \"#utility.yul\":84:126   */\n      0xffffffffffffffffffffffffffffffffffffffff\n        /* \"#utility.yul\":77:82   */\n      dup3\n        /* \"#utility.yul\":73:127   */\n      and\n        /* \"#utility.yul\":62:127   */\n      swap1\n      pop\n        /* \"#utility.yul\":7:133   */\n      swap2\n      swap1\n      pop\n      jump\t// out\n        /* \"#utility.yul\":139:235   */\n    tag_423:\n        /* \"#utility.yul\":176:183   */\n      0x00\n        /* \"#utility.yul\":205:229   */\n      tag_541\n        /* \"#utility.yul\":223:228   */\n      dup3\n        /* \"#utility.yul\":205:229   */\n      tag_422\n      jump\t// in\n    tag_541:\n        /* \"#utility.yul\":194:229   */\n      swap1\n      pop\n        /* \"#utility.yul\":139:235   */\n      swap2\n      swap1\n      pop\n      jump\t// out\n        /* \"#utility.yul\":241:359   */\n    tag_424:\n        /* \"#utility.yul\":328:352   */\n      tag_543\n        /* \"#utility.yul\":346:351   */\n      dup2\n        /* \"#utility.yul\":328:352   */\n      tag_423\n      jump\t// in\n    tag_543:\n        /* \"#utility.yul\":323:326   */\n      dup3\n        /* \"#utility.yul\":316:353   */\n      mstore\n        /* \"#utility.yul\":241:359   */\n      pop\n      pop\n      jump\t// out\n        /* \"#utility.yul\":365:442   */\n    tag_425:\n        /* \"#utility.yul\":402:409   */\n      0x00\n        /* \"#utility.yul\":431:436   */\n      dup2\n        /* \"#utility.yul\":420:436   */\n      swap1\n      pop\n        /* \"#utility.yul\":365:442   */\n      swap2\n      swap1\n      pop\n      jump\t// out\n        /* \"#utility.yul\":448:566   */\n    tag_426:\n        /* \"#utility.yul\":535:559   */\n      tag_546\n        /* \"#utility.yul\":553:558   */\n      dup2\n        /* \"#utility.yul\":535:559   */\n      tag_425\n      jump\t// in\n    tag_546:\n        /* \"#utility.yul\":530:533   */\n      dup3\n        /* \"#utility.yul\":523:560   */\n      mstore\n        /* \"#utility.yul\":448:566   */\n      pop\n      pop\n      jump\t// out\n        /* \"#utility.yul\":572:740   */\n    tag_427:\n        /* \"#utility.yul\":655:666   */\n      0x00\n        /* \"#utility.yul\":689:695   */\n      dup3\n        /* \"#utility.yul\":684:687   */\n      dup3\n        /* \"#utility.yul\":677:696   */\n      mstore\n        /* \"#utility.yul\":729:733   */\n      0x20\n        /* \"#utility.yul\":724:727   */\n      dup3\n        /* \"#utility.yul\":720:734   */\n      add\n        /* \"#utility.yul\":705:734   */\n      swap1\n      pop\n        /* \"#utility.yul\":572:740   */\n      swap3\n      swap2\n      pop\n      pop\n      jump\t// out\n        /* \"#utility.yul\":746:860   */\n    tag_428:\n      pop\n      jump\t// out\n        /* \"#utility.yul\":866:1228   */\n    tag_429:\n        /* \"#utility.yul\":1007:1010   */\n      0x00\n        /* \"#utility.yul\":1028:1093   */\n      tag_550\n        /* \"#utility.yul\":1091:1092   */\n      0x00\n        /* \"#utility.yul\":1086:1089   */\n      dup4\n        /* \"#utility.yul\":1028:1093   */\n      tag_427\n      jump\t// in\n    tag_550:\n        /* \"#utility.yul\":1021:1093   */\n      swap2\n      pop\n        /* \"#utility.yul\":1102:1195   */\n      tag_551\n        /* \"#utility.yul\":1191:1194   */\n      dup3\n        /* \"#utility.yul\":1102:1195   */\n      tag_428\n      jump\t// in\n    tag_551:\n        /* \"#utility.yul\":1220:1221   */\n      0x00\n        /* \"#utility.yul\":1215:1218   */\n      dup3\n        /* \"#utility.yul\":1211:1222   */\n      add\n        /* \"#utility.yul\":1204:1222   */\n      swap1\n      pop\n        /* \"#utility.yul\":866:1228   */\n      swap2\n      swap1\n      pop\n      jump\t// out\n        /* \"#utility.yul\":1234:1871   */\n    tag_30:\n        /* \"#utility.yul\":1455:1459   */\n      0x00\n        /* \"#utility.yul\":1493:1495   */\n      0x60\n        /* \"#utility.yul\":1482:1491   */\n      dup3\n        /* \"#utility.yul\":1478:1496   */\n      add\n        /* \"#utility.yul\":1470:1496   */\n      swap1\n      pop\n        /* \"#utility.yul\":1506:1577   */\n      tag_553\n        /* \"#utility.yul\":1574:1575   */\n      0x00\n        /* \"#utility.yul\":1563:1572   */\n      dup4\n        /* \"#utility.yul\":1559:1576   */\n      add\n        /* \"#utility.yul\":1550:1556   */\n      dup6\n        /* \"#utility.yul\":1506:1577   */\n      tag_424\n      jump\t// in\n    tag_553:\n        /* \"#utility.yul\":1587:1659   */\n      tag_554\n        /* \"#utility.yul\":1655:1657   */\n      0x20\n        /* \"#utility.yul\":1644:1653   */\n      dup4\n        /* \"#utility.yul\":1640:1658   */\n      add\n        /* \"#utility.yul\":1631:1637   */\n      dup5\n        /* \"#utility.yul\":1587:1659   */\n      tag_426\n      jump\t// in\n    tag_554:\n        /* \"#utility.yul\":1706:1715   */\n      dup2\n        /* \"#utility.yul\":1700:1704   */\n      dup2\n        /* \"#utility.yul\":1696:1716   */\n      sub\n        /* \"#utility.yul\":1691:1693   */\n      0x40\n        /* \"#utility.yul\":1680:1689   */\n      dup4\n        /* \"#utility.yul\":1676:1694   */\n      add\n        /* \"#utility.yul\":1669:1717   */\n      mstore\n        /* \"#utility.yul\":1734:1864   */\n      tag_555\n        /* \"#utility.yul\":1859:1863   */\n      dup2\n        /* \"#utility.yul\":1734:1864   */\n      tag_429\n      jump\t// in\n    tag_555:\n        /* \"#utility.yul\":1726:1864   */\n      swap1\n      pop\n        /* \"#utility.yul\":1234:1871   */\n      swap4\n      swap3\n      pop\n      pop\n      pop\n      jump\t// out\n        /* \"#utility.yul\":1877:2031   */\n    tag_430:\n        /* \"#utility.yul\":1961:1967   */\n      dup3\n        /* \"#utility.yul\":1956:1959   */\n      dup2\n        /* \"#utility.yul\":1951:1954   */\n      dup4\n        /* \"#utility.yul\":1938:1968   */\n      calldatacopy\n        /* \"#utility.yul\":2023:2024   */\n      0x00\n        /* \"#utility.yul\":2014:2020   */\n      dup4\n        /* \"#utility.yul\":2009:2012   */\n      dup4\n        /* \"#utility.yul\":2005:2021   */\n      add\n        /* \"#utility.yul\":1998:2025   */\n      mstore\n        /* \"#utility.yul\":1877:2031   */\n      pop\n      pop\n      pop\n      jump\t// out\n        /* \"#utility.yul\":2037:2139   */\n    tag_431:\n        /* \"#utility.yul\":2078:2084   */\n      0x00\n        /* \"#utility.yul\":2129:2131   */\n      0x1f\n        /* \"#utility.yul\":2125:2132   */\n      not\n        /* \"#utility.yul\":2120:2122   */\n      0x1f\n        /* \"#utility.yul\":2113:2118   */\n      dup4\n        /* \"#utility.yul\":2109:2123   */\n      add\n        /* \"#utility.yul\":2105:2133   */\n      and\n        /* \"#utility.yul\":2095:2133   */\n      swap1\n      pop\n        /* \"#utility.yul\":2037:2139   */\n      swap2\n      swap1\n      pop\n      jump\t// out\n        /* \"#utility.yul\":2167:2468   */\n    tag_432:\n        /* \"#utility.yul\":2263:2266   */\n      0x00\n        /* \"#utility.yul\":2284:2354   */\n      tag_559\n        /* \"#utility.yul\":2347:2353   */\n      dup4\n        /* \"#utility.yul\":2342:2345   */\n      dup6\n        /* \"#utility.yul\":2284:2354   */\n      tag_427\n      jump\t// in\n    tag_559:\n        /* \"#utility.yul\":2277:2354   */\n      swap4\n      pop\n        /* \"#utility.yul\":2364:2407   */\n      tag_560\n        /* \"#utility.yul\":2400:2406   */\n      dup4\n        /* \"#utility.yul\":2395:2398   */\n      dup6\n        /* \"#utility.yul\":2388:2393   */\n      dup5\n        /* \"#utility.yul\":2364:2407   */\n      tag_430\n      jump\t// in\n    tag_560:\n        /* \"#utility.yul\":2432:2461   */\n      tag_561\n        /* \"#utility.yul\":2454:2460   */\n      dup4\n        /* \"#utility.yul\":2432:2461   */\n      tag_431\n      jump\t// in\n    tag_561:\n        /* \"#utility.yul\":2427:2430   */\n      dup5\n        /* \"#utility.yul\":2423:2462   */\n      add\n        /* \"#utility.yul\":2416:2462   */\n      swap1\n      pop\n        /* \"#utility.yul\":2167:2468   */\n      swap4\n      swap3\n      pop\n      pop\n      pop\n      jump\t// out\n        /* \"#utility.yul\":2474:3023   */\n    tag_35:\n        /* \"#utility.yul\":2651:2655   */\n      0x00\n        /* \"#utility.yul\":2689:2691   */\n      0x60\n        /* \"#utility.yul\":2678:2687   */\n      dup3\n        /* \"#utility.yul\":2674:2692   */\n      add\n        /* \"#utility.yul\":2666:2692   */\n      swap1\n      pop\n        /* \"#utility.yul\":2702:2773   */\n      tag_563\n        /* \"#utility.yul\":2770:2771   */\n      0x00\n        /* \"#utility.yul\":2759:2768   */\n      dup4\n        /* \"#utility.yul\":2755:2772   */\n      add\n        /* \"#utility.yul\":2746:2752   */\n      dup8\n        /* \"#utility.yul\":2702:2773   */\n      tag_424\n      jump\t// in\n    tag_563:\n        /* \"#utility.yul\":2783:2855   */\n      tag_564\n        /* \"#utility.yul\":2851:2853   */\n      0x20\n        /* \"#utility.yul\":2840:2849   */\n      dup4\n        /* \"#utility.yul\":2836:2854   */\n      add\n        /* \"#utility.yul\":2827:2833   */\n      dup7\n        /* \"#utility.yul\":2783:2855   */\n      tag_426\n      jump\t// in\n    tag_564:\n        /* \"#utility.yul\":2902:2911   */\n      dup2\n        /* \"#utility.yul\":2896:2900   */\n      dup2\n        /* \"#utility.yul\":2892:2912   */\n      sub\n        /* \"#utility.yul\":2887:2889   */\n      0x40\n        /* \"#utility.yul\":2876:2885   */\n      dup4\n        /* \"#utility.yul\":2872:2890   */\n      add\n        /* \"#utility.yul\":2865:2913   */\n      mstore\n        /* \"#utility.yul\":2930:3016   */\n      tag_565\n        /* \"#utility.yul\":3011:3015   */\n      dup2\n        /* \"#utility.yul\":3002:3008   */\n      dup5\n        /* \"#utility.yul\":2994:3000   */\n      dup7\n        /* \"#utility.yul\":2930:3016   */\n      tag_432\n      jump\t// in\n    tag_565:\n        /* \"#utility.yul\":2922:3016   */\n      swap1\n      pop\n        /* \"#utility.yul\":2474:3023   */\n      swap6\n      swap5\n      pop\n      pop\n      pop\n      pop\n      pop\n      jump\t// out\n        /* \"#utility.yul\":3029:3104   */\n    tag_433:\n        /* \"#utility.yul\":3062:3068   */\n      0x00\n        /* \"#utility.yul\":3095:3097   */\n      0x40\n        /* \"#utility.yul\":3089:3098   */\n      mload\n        /* \"#utility.yul\":3079:3098   */\n      swap1\n      pop\n        /* \"#utility.yul\":3029:3104   */\n      swap1\n      jump\t// out\n        /* \"#utility.yul\":3110:3227   */\n    tag_434:\n        /* \"#utility.yul\":3219:3220   */\n      0x00\n        /* \"#utility.yul\":3216:3217   */\n      dup1\n        /* \"#utility.yul\":3209:3221   */\n      revert\n        /* \"#utility.yul\":3233:3350   */\n    tag_435:\n        /* \"#utility.yul\":3342:3343   */\n      0x00\n        /* \"#utility.yul\":3339:3340   */\n      dup1\n        /* \"#utility.yul\":3332:3344   */\n      revert\n        /* \"#utility.yul\":3356:3505   */\n    tag_436:\n        /* \"#utility.yul\":3392:3399   */\n      0x00\n        /* \"#utility.yul\":3432:3498   */\n      0xffffffff00000000000000000000000000000000000000000000000000000000\n        /* \"#utility.yul\":3425:3430   */\n      dup3\n        /* \"#utility.yul\":3421:3499   */\n      and\n        /* \"#utility.yul\":3410:3499   */\n      swap1\n      pop\n        /* \"#utility.yul\":3356:3505   */\n      swap2\n      swap1\n      pop\n      jump\t// out\n        /* \"#utility.yul\":3511:3631   */\n    tag_437:\n        /* \"#utility.yul\":3583:3606   */\n      tag_571\n        /* \"#utility.yul\":3600:3605   */\n      dup2\n        /* \"#utility.yul\":3583:3606   */\n      tag_436\n      jump\t// in\n    tag_571:\n        /* \"#utility.yul\":3576:3581   */\n      dup2\n        /* \"#utility.yul\":3573:3607   */\n      eq\n        /* \"#utility.yul\":3563:3625   */\n      tag_572\n      jumpi\n        /* \"#utility.yul\":3621:3622   */\n      0x00\n        /* \"#utility.yul\":3618:3619   */\n      dup1\n        /* \"#utility.yul\":3611:3623   */\n      revert\n        /* \"#utility.yul\":3563:3625   */\n    tag_572:\n        /* \"#utility.yul\":3511:3631   */\n      pop\n      jump\t// out\n        /* \"#utility.yul\":3637:3774   */\n    tag_438:\n        /* \"#utility.yul\":3682:3687   */\n      0x00\n        /* \"#utility.yul\":3720:3726   */\n      dup2\n        /* \"#utility.yul\":3707:3727   */\n      calldataload\n        /* \"#utility.yul\":3698:3727   */\n      swap1\n      pop\n        /* \"#utility.yul\":3736:3768   */\n      tag_574\n        /* \"#utility.yul\":3762:3767   */\n      dup2\n        /* \"#utility.yul\":3736:3768   */\n      tag_437\n      jump\t// in\n    tag_574:\n        /* \"#utility.yul\":3637:3774   */\n      swap3\n      swap2\n      pop\n      pop\n      jump\t// out\n        /* \"#utility.yul\":3780:4107   */\n    tag_39:\n        /* \"#utility.yul\":3838:3844   */\n      0x00\n        /* \"#utility.yul\":3887:3889   */\n      0x20\n        /* \"#utility.yul\":3875:3884   */\n      dup3\n        /* \"#utility.yul\":3866:3873   */\n      dup5\n        /* \"#utility.yul\":3862:3885   */\n      sub\n        /* \"#utility.yul\":3858:3890   */\n      slt\n        /* \"#utility.yul\":3855:3974   */\n      iszero\n      tag_576\n      jumpi\n        /* \"#utility.yul\":3893:3972   */\n      tag_577\n      tag_434\n      jump\t// in\n    tag_577:\n        /* \"#utility.yul\":3855:3974   */\n    tag_576:\n        /* \"#utility.yul\":4013:4014   */\n      0x00\n        /* \"#utility.yul\":4038:4090   */\n      tag_578\n        /* \"#utility.yul\":4082:4089   */\n      dup5\n        /* \"#utility.yul\":4073:4079   */\n      dup3\n        /* \"#utility.yul\":4062:4071   */\n      dup6\n        /* \"#utility.yul\":4058:4080   */\n      add\n        /* \"#utility.yul\":4038:4090   */\n      tag_438\n      jump\t// in\n    tag_578:\n        /* \"#utility.yul\":4028:4090   */\n      swap2\n      pop\n        /* \"#utility.yul\":3984:4100   */\n      pop\n        /* \"#utility.yul\":3780:4107   */\n      swap3\n      swap2\n      pop\n      pop\n      jump\t// out\n        /* \"#utility.yul\":4113:4203   */\n    tag_439:\n        /* \"#utility.yul\":4147:4154   */\n      0x00\n        /* \"#utility.yul\":4190:4195   */\n      dup2\n        /* \"#utility.yul\":4183:4196   */\n      iszero\n        /* \"#utility.yul\":4176:4197   */\n      iszero\n        /* \"#utility.yul\":4165:4197   */\n      swap1\n      pop\n        /* \"#utility.yul\":4113:4203   */\n      swap2\n      swap1\n      pop\n      jump\t// out\n        /* \"#utility.yul\":4209:4318   */\n    tag_440:\n        /* \"#utility.yul\":4290:4311   */\n      tag_581\n        /* \"#utility.yul\":4305:4310   */\n      dup2\n        /* \"#utility.yul\":4290:4311   */\n      tag_439\n      jump\t// in\n    tag_581:\n        /* \"#utility.yul\":4285:4288   */\n      dup3\n        /* \"#utility.yul\":4278:4312   */\n      mstore\n        /* \"#utility.yul\":4209:4318   */\n      pop\n      pop\n      jump\t// out\n        /* \"#utility.yul\":4324:4534   */\n    tag_42:\n        /* \"#utility.yul\":4411:4415   */\n      0x00\n        /* \"#utility.yul\":4449:4451   */\n      0x20\n        /* \"#utility.yul\":4438:4447   */\n      dup3\n        /* \"#utility.yul\":4434:4452   */\n      add\n        /* \"#utility.yul\":4426:4452   */\n      swap1\n      pop\n        /* \"#utility.yul\":4462:4527   */\n      tag_583\n        /* \"#utility.yul\":4524:4525   */\n      0x00\n        /* \"#utility.yul\":4513:4522   */\n      dup4\n        /* \"#utility.yul\":4509:4526   */\n      add\n        /* \"#utility.yul\":4500:4506   */\n      dup5\n        /* \"#utility.yul\":4462:4527   */\n      tag_440\n      jump\t// in\n    tag_583:\n        /* \"#utility.yul\":4324:4534   */\n      swap3\n      swap2\n      pop\n      pop\n      jump\t// out\n        /* \"#utility.yul\":4540:4662   */\n    tag_441:\n        /* \"#utility.yul\":4613:4637   */\n      tag_585\n        /* \"#utility.yul\":4631:4636   */\n      dup2\n        /* \"#utility.yul\":4613:4637   */\n      tag_423\n      jump\t// in\n    tag_585:\n        /* \"#utility.yul\":4606:4611   */\n      dup2\n        /* \"#utility.yul\":4603:4638   */\n      eq\n        /* \"#utility.yul\":4593:4656   */\n      tag_586\n      jumpi\n        /* \"#utility.yul\":4652:4653   */\n      0x00\n        /* \"#utility.yul\":4649:4650   */\n      dup1\n        /* \"#utility.yul\":4642:4654   */\n      revert\n        /* \"#utility.yul\":4593:4656   */\n    tag_586:\n        /* \"#utility.yul\":4540:4662   */\n      pop\n      jump\t// out\n        /* \"#utility.yul\":4668:4807   */\n    tag_442:\n        /* \"#utility.yul\":4714:4719   */\n      0x00\n        /* \"#utility.yul\":4752:4758   */\n      dup2\n        /* \"#utility.yul\":4739:4759   */\n      calldataload\n        /* \"#utility.yul\":4730:4759   */\n      swap1\n      pop\n        /* \"#utility.yul\":4768:4801   */\n      tag_588\n        /* \"#utility.yul\":4795:4800   */\n      dup2\n        /* \"#utility.yul\":4768:4801   */\n      tag_441\n      jump\t// in\n    tag_588:\n        /* \"#utility.yul\":4668:4807   */\n      swap3\n      swap2\n      pop\n      pop\n      jump\t// out\n        /* \"#utility.yul\":4813:4935   */\n    tag_443:\n        /* \"#utility.yul\":4886:4910   */\n      tag_590\n        /* \"#utility.yul\":4904:4909   */\n      dup2\n        /* \"#utility.yul\":4886:4910   */\n      tag_425\n      jump\t// in\n    tag_590:\n        /* \"#utility.yul\":4879:4884   */\n      dup2\n        /* \"#utility.yul\":4876:4911   */\n      eq\n        /* \"#utility.yul\":4866:4929   */\n      tag_591\n      jumpi\n        /* \"#utility.yul\":4925:4926   */\n      0x00\n        /* \"#utility.yul\":4922:4923   */\n      dup1\n        /* \"#utility.yul\":4915:4927   */\n      revert\n        /* \"#utility.yul\":4866:4929   */\n    tag_591:\n        /* \"#utility.yul\":4813:4935   */\n      pop\n      jump\t// out\n        /* \"#utility.yul\":4941:5080   */\n    tag_444:\n        /* \"#utility.yul\":4987:4992   */\n      0x00\n        /* \"#utility.yul\":5025:5031   */\n      dup2\n        /* \"#utility.yul\":5012:5032   */\n      calldataload\n        /* \"#utility.yul\":5003:5032   */\n      swap1\n      pop\n        /* \"#utility.yul\":5041:5074   */\n      tag_593\n        /* \"#utility.yul\":5068:5073   */\n      dup2\n        /* \"#utility.yul\":5041:5074   */\n      tag_443\n      jump\t// in\n    tag_593:\n        /* \"#utility.yul\":4941:5080   */\n      swap3\n      swap2\n      pop\n      pop\n      jump\t// out\n        /* \"#utility.yul\":5086:5203   */\n    tag_445:\n        /* \"#utility.yul\":5195:5196   */\n      0x00\n        /* \"#utility.yul\":5192:5193   */\n      dup1\n        /* \"#utility.yul\":5185:5197   */\n      revert\n        /* \"#utility.yul\":5209:5326   */\n    tag_446:\n        /* \"#utility.yul\":5318:5319   */\n      0x00\n        /* \"#utility.yul\":5315:5316   */\n      dup1\n        /* \"#utility.yul\":5308:5320   */\n      revert\n        /* \"#utility.yul\":5332:5449   */\n    tag_447:\n        /* \"#utility.yul\":5441:5442   */\n      0x00\n        /* \"#utility.yul\":5438:5439   */\n      dup1\n        /* \"#utility.yul\":5431:5443   */\n      revert\n        /* \"#utility.yul\":5468:6020   */\n    tag_448:\n        /* \"#utility.yul\":5525:5533   */\n      0x00\n        /* \"#utility.yul\":5535:5541   */\n      dup1\n        /* \"#utility.yul\":5585:5588   */\n      dup4\n        /* \"#utility.yul\":5578:5582   */\n      0x1f\n        /* \"#utility.yul\":5570:5576   */\n      dup5\n        /* \"#utility.yul\":5566:5583   */\n      add\n        /* \"#utility.yul\":5562:5589   */\n      slt\n        /* \"#utility.yul\":5552:5674   */\n      tag_598\n      jumpi\n        /* \"#utility.yul\":5593:5672   */\n      tag_599\n      tag_445\n      jump\t// in\n    tag_599:\n        /* \"#utility.yul\":5552:5674   */\n    tag_598:\n        /* \"#utility.yul\":5706:5712   */\n      dup3\n        /* \"#utility.yul\":5693:5713   */\n      calldataload\n        /* \"#utility.yul\":5683:5713   */\n      swap1\n      pop\n        /* \"#utility.yul\":5736:5754   */\n      0xffffffffffffffff\n        /* \"#utility.yul\":5728:5734   */\n      dup2\n        /* \"#utility.yul\":5725:5755   */\n      gt\n        /* \"#utility.yul\":5722:5839   */\n      iszero\n      tag_600\n      jumpi\n        /* \"#utility.yul\":5758:5837   */\n      tag_601\n      tag_446\n      jump\t// in\n    tag_601:\n        /* \"#utility.yul\":5722:5839   */\n    tag_600:\n        /* \"#utility.yul\":5872:5876   */\n      0x20\n        /* \"#utility.yul\":5864:5870   */\n      dup4\n        /* \"#utility.yul\":5860:5877   */\n      add\n        /* \"#utility.yul\":5848:5877   */\n      swap2\n      pop\n        /* \"#utility.yul\":5926:5929   */\n      dup4\n        /* \"#utility.yul\":5918:5922   */\n      0x01\n        /* \"#utility.yul\":5910:5916   */\n      dup3\n        /* \"#utility.yul\":5906:5923   */\n      mul\n        /* \"#utility.yul\":5896:5904   */\n      dup4\n        /* \"#utility.yul\":5892:5924   */\n      add\n        /* \"#utility.yul\":5889:5930   */\n      gt\n        /* \"#utility.yul\":5886:6014   */\n      iszero\n      tag_602\n      jumpi\n        /* \"#utility.yul\":5933:6012   */\n      tag_603\n      tag_447\n      jump\t// in\n    tag_603:\n        /* \"#utility.yul\":5886:6014   */\n    tag_602:\n        /* \"#utility.yul\":5468:6020   */\n      swap3\n      pop\n      swap3\n      swap1\n      pop\n      jump\t// out\n        /* \"#utility.yul\":6026:7281   */\n    tag_46:\n        /* \"#utility.yul\":6141:6147   */\n      0x00\n        /* \"#utility.yul\":6149:6155   */\n      dup1\n        /* \"#utility.yul\":6157:6163   */\n      0x00\n        /* \"#utility.yul\":6165:6171   */\n      dup1\n        /* \"#utility.yul\":6173:6179   */\n      0x00\n        /* \"#utility.yul\":6181:6187   */\n      dup1\n        /* \"#utility.yul\":6189:6195   */\n      0x00\n        /* \"#utility.yul\":6238:6241   */\n      0xc0\n        /* \"#utility.yul\":6226:6235   */\n      dup9\n        /* \"#utility.yul\":6217:6224   */\n      dup11\n        /* \"#utility.yul\":6213:6236   */\n      sub\n        /* \"#utility.yul\":6209:6242   */\n      slt\n        /* \"#utility.yul\":6206:6326   */\n      iszero\n      tag_605\n      jumpi\n        /* \"#utility.yul\":6245:6324   */\n      tag_606\n      tag_434\n      jump\t// in\n    tag_606:\n        /* \"#utility.yul\":6206:6326   */\n    tag_605:\n        /* \"#utility.yul\":6365:6366   */\n      0x00\n        /* \"#utility.yul\":6390:6443   */\n      tag_607\n        /* \"#utility.yul\":6435:6442   */\n      dup11\n        /* \"#utility.yul\":6426:6432   */\n      dup3\n        /* \"#utility.yul\":6415:6424   */\n      dup12\n        /* \"#utility.yul\":6411:6433   */\n      add\n        /* \"#utility.yul\":6390:6443   */\n      tag_442\n      jump\t// in\n    tag_607:\n        /* \"#utility.yul\":6380:6443   */\n      swap8\n      pop\n        /* \"#utility.yul\":6336:6453   */\n      pop\n        /* \"#utility.yul\":6492:6494   */\n      0x20\n        /* \"#utility.yul\":6518:6571   */\n      tag_608\n        /* \"#utility.yul\":6563:6570   */\n      dup11\n        /* \"#utility.yul\":6554:6560   */\n      dup3\n        /* \"#utility.yul\":6543:6552   */\n      dup12\n        /* \"#utility.yul\":6539:6561   */\n      add\n        /* \"#utility.yul\":6518:6571   */\n      tag_444\n      jump\t// in\n    tag_608:\n        /* \"#utility.yul\":6508:6571   */\n      swap7\n      pop\n        /* \"#utility.yul\":6463:6581   */\n      pop\n        /* \"#utility.yul\":6620:6622   */\n      0x40\n        /* \"#utility.yul\":6646:6699   */\n      tag_609\n        /* \"#utility.yul\":6691:6698   */\n      dup11\n        /* \"#utility.yul\":6682:6688   */\n      dup3\n        /* \"#utility.yul\":6671:6680   */\n      dup12\n        /* \"#utility.yul\":6667:6689   */\n      add\n        /* \"#utility.yul\":6646:6699   */\n      tag_442\n      jump\t// in\n    tag_609:\n        /* \"#utility.yul\":6636:6699   */\n      swap6\n      pop\n        /* \"#utility.yul\":6591:6709   */\n      pop\n        /* \"#utility.yul\":6748:6750   */\n      0x60\n        /* \"#utility.yul\":6774:6827   */\n      tag_610\n        /* \"#utility.yul\":6819:6826   */\n      dup11\n        /* \"#utility.yul\":6810:6816   */\n      dup3\n        /* \"#utility.yul\":6799:6808   */\n      dup12\n        /* \"#utility.yul\":6795:6817   */\n      add\n        /* \"#utility.yul\":6774:6827   */\n      tag_444\n      jump\t// in\n    tag_610:\n        /* \"#utility.yul\":6764:6827   */\n      swap5\n      pop\n        /* \"#utility.yul\":6719:6837   */\n      pop\n        /* \"#utility.yul\":6876:6879   */\n      0x80\n        /* \"#utility.yul\":6903:6956   */\n      tag_611\n        /* \"#utility.yul\":6948:6955   */\n      dup11\n        /* \"#utility.yul\":6939:6945   */\n      dup3\n        /* \"#utility.yul\":6928:6937   */\n      dup12\n        /* \"#utility.yul\":6924:6946   */\n      add\n        /* \"#utility.yul\":6903:6956   */\n      tag_444\n      jump\t// in\n    tag_611:\n        /* \"#utility.yul\":6893:6956   */\n      swap4\n      pop\n        /* \"#utility.yul\":6847:6966   */\n      pop\n        /* \"#utility.yul\":7033:7036   */\n      0xa0\n        /* \"#utility.yul\":7022:7031   */\n      dup9\n        /* \"#utility.yul\":7018:7037   */\n      add\n        /* \"#utility.yul\":7005:7038   */\n      calldataload\n        /* \"#utility.yul\":7065:7083   */\n      0xffffffffffffffff\n        /* \"#utility.yul\":7057:7063   */\n      dup2\n        /* \"#utility.yul\":7054:7084   */\n      gt\n        /* \"#utility.yul\":7051:7168   */\n      iszero\n      tag_612\n      jumpi\n        /* \"#utility.yul\":7087:7166   */\n      tag_613\n      tag_435\n      jump\t// in\n    tag_613:\n        /* \"#utility.yul\":7051:7168   */\n    tag_612:\n        /* \"#utility.yul\":7200:7264   */\n      tag_614\n        /* \"#utility.yul\":7256:7263   */\n      dup11\n        /* \"#utility.yul\":7247:7253   */\n      dup3\n        /* \"#utility.yul\":7236:7245   */\n      dup12\n        /* \"#utility.yul\":7232:7254   */\n      add\n        /* \"#utility.yul\":7200:7264   */\n      tag_448\n      jump\t// in\n    tag_614:\n        /* \"#utility.yul\":7182:7264   */\n      swap3\n      pop\n      swap3\n      pop\n        /* \"#utility.yul\":6976:7274   */\n      pop\n        /* \"#utility.yul\":6026:7281   */\n      swap3\n      swap6\n      swap9\n      swap2\n      swap5\n      swap8\n      pop\n      swap3\n      swap6\n      pop\n      jump\t// out\n        /* \"#utility.yul\":7287:7404   */\n    tag_449:\n        /* \"#utility.yul\":7396:7397   */\n      0x00\n        /* \"#utility.yul\":7393:7394   */\n      dup1\n        /* \"#utility.yul\":7386:7398   */\n      revert\n        /* \"#utility.yul\":7410:7590   */\n    tag_450:\n        /* \"#utility.yul\":7458:7535   */\n      0x4e487b7100000000000000000000000000000000000000000000000000000000\n        /* \"#utility.yul\":7455:7456   */\n      0x00\n        /* \"#utility.yul\":7448:7536   */\n      mstore\n        /* \"#utility.yul\":7555:7559   */\n      0x41\n        /* \"#utility.yul\":7552:7553   */\n      0x04\n        /* \"#utility.yul\":7545:7560   */\n      mstore\n        /* \"#utility.yul\":7579:7583   */\n      0x24\n        /* \"#utility.yul\":7576:7577   */\n      0x00\n        /* \"#utility.yul\":7569:7584   */\n      revert\n        /* \"#utility.yul\":7596:7877   */\n    tag_451:\n        /* \"#utility.yul\":7679:7706   */\n      tag_618\n        /* \"#utility.yul\":7701:7705   */\n      dup3\n        /* \"#utility.yul\":7679:7706   */\n      tag_431\n      jump\t// in\n    tag_618:\n        /* \"#utility.yul\":7671:7677   */\n      dup2\n        /* \"#utility.yul\":7667:7707   */\n      add\n        /* \"#utility.yul\":7809:7815   */\n      dup2\n        /* \"#utility.yul\":7797:7807   */\n      dup2\n        /* \"#utility.yul\":7794:7816   */\n      lt\n        /* \"#utility.yul\":7773:7791   */\n      0xffffffffffffffff\n        /* \"#utility.yul\":7761:7771   */\n      dup3\n        /* \"#utility.yul\":7758:7792   */\n      gt\n        /* \"#utility.yul\":7755:7817   */\n      or\n        /* \"#utility.yul\":7752:7840   */\n      iszero\n      tag_619\n      jumpi\n        /* \"#utility.yul\":7820:7838   */\n      tag_620\n      tag_450\n      jump\t// in\n    tag_620:\n        /* \"#utility.yul\":7752:7840   */\n    tag_619:\n        /* \"#utility.yul\":7860:7870   */\n      dup1\n        /* \"#utility.yul\":7856:7858   */\n      0x40\n        /* \"#utility.yul\":7849:7871   */\n      mstore\n        /* \"#utility.yul\":7639:7877   */\n      pop\n        /* \"#utility.yul\":7596:7877   */\n      pop\n      pop\n      jump\t// out\n        /* \"#utility.yul\":7883:8012   */\n    tag_452:\n        /* \"#utility.yul\":7917:7923   */\n      0x00\n        /* \"#utility.yul\":7944:7964   */\n      tag_622\n      tag_433\n      jump\t// in\n    tag_622:\n        /* \"#utility.yul\":7934:7964   */\n      swap1\n      pop\n        /* \"#utility.yul\":7973:8006   */\n      tag_623\n        /* \"#utility.yul\":8001:8005   */\n      dup3\n        /* \"#utility.yul\":7993:7999   */\n      dup3\n        /* \"#utility.yul\":7973:8006   */\n      tag_451\n      jump\t// in\n    tag_623:\n        /* \"#utility.yul\":7883:8012   */\n      swap2\n      swap1\n      pop\n      jump\t// out\n        /* \"#utility.yul\":8018:8325   */\n    tag_453:\n        /* \"#utility.yul\":8079:8083   */\n      0x00\n        /* \"#utility.yul\":8169:8187   */\n      0xffffffffffffffff\n        /* \"#utility.yul\":8161:8167   */\n      dup3\n        /* \"#utility.yul\":8158:8188   */\n      gt\n        /* \"#utility.yul\":8155:8211   */\n      iszero\n      tag_625\n      jumpi\n        /* \"#utility.yul\":8191:8209   */\n      tag_626\n      tag_450\n      jump\t// in\n    tag_626:\n        /* \"#utility.yul\":8155:8211   */\n    tag_625:\n        /* \"#utility.yul\":8229:8258   */\n      tag_627\n        /* \"#utility.yul\":8251:8257   */\n      dup3\n        /* \"#utility.yul\":8229:8258   */\n      tag_431\n      jump\t// in\n    tag_627:\n        /* \"#utility.yul\":8221:8258   */\n      swap1\n      pop\n        /* \"#utility.yul\":8313:8317   */\n      0x20\n        /* \"#utility.yul\":8307:8311   */\n      dup2\n        /* \"#utility.yul\":8303:8318   */\n      add\n        /* \"#utility.yul\":8295:8318   */\n      swap1\n      pop\n        /* \"#utility.yul\":8018:8325   */\n      swap2\n      swap1\n      pop\n      jump\t// out\n        /* \"#utility.yul\":8331:8741   */\n    tag_454:\n        /* \"#utility.yul\":8408:8413   */\n      0x00\n        /* \"#utility.yul\":8433:8498   */\n      tag_629\n        /* \"#utility.yul\":8449:8497   */\n      tag_630\n        /* \"#utility.yul\":8490:8496   */\n      dup5\n        /* \"#utility.yul\":8449:8497   */\n      tag_453\n      jump\t// in\n    tag_630:\n        /* \"#utility.yul\":8433:8498   */\n      tag_452\n      jump\t// in\n    tag_629:\n        /* \"#utility.yul\":8424:8498   */\n      swap1\n      pop\n        /* \"#utility.yul\":8521:8527   */\n      dup3\n        /* \"#utility.yul\":8514:8519   */\n      dup2\n        /* \"#utility.yul\":8507:8528   */\n      mstore\n        /* \"#utility.yul\":8559:8563   */\n      0x20\n        /* \"#utility.yul\":8552:8557   */\n      dup2\n        /* \"#utility.yul\":8548:8564   */\n      add\n        /* \"#utility.yul\":8597:8600   */\n      dup5\n        /* \"#utility.yul\":8588:8594   */\n      dup5\n        /* \"#utility.yul\":8583:8586   */\n      dup5\n        /* \"#utility.yul\":8579:8595   */\n      add\n        /* \"#utility.yul\":8576:8601   */\n      gt\n        /* \"#utility.yul\":8573:8685   */\n      iszero\n      tag_631\n      jumpi\n        /* \"#utility.yul\":8604:8683   */\n      tag_632\n      tag_449\n      jump\t// in\n    tag_632:\n        /* \"#utility.yul\":8573:8685   */\n    tag_631:\n        /* \"#utility.yul\":8694:8735   */\n      tag_633\n        /* \"#utility.yul\":8728:8734   */\n      dup5\n        /* \"#utility.yul\":8723:8726   */\n      dup3\n        /* \"#utility.yul\":8718:8721   */\n      dup6\n        /* \"#utility.yul\":8694:8735   */\n      tag_430\n      jump\t// in\n    tag_633:\n        /* \"#utility.yul\":8414:8741   */\n      pop\n        /* \"#utility.yul\":8331:8741   */\n      swap4\n      swap3\n      pop\n      pop\n      pop\n      jump\t// out\n        /* \"#utility.yul\":8760:9098   */\n    tag_455:\n        /* \"#utility.yul\":8815:8820   */\n      0x00\n        /* \"#utility.yul\":8864:8867   */\n      dup3\n        /* \"#utility.yul\":8857:8861   */\n      0x1f\n        /* \"#utility.yul\":8849:8855   */\n      dup4\n        /* \"#utility.yul\":8845:8862   */\n      add\n        /* \"#utility.yul\":8841:8868   */\n      slt\n        /* \"#utility.yul\":8831:8953   */\n      tag_635\n      jumpi\n        /* \"#utility.yul\":8872:8951   */\n      tag_636\n      tag_445\n      jump\t// in\n    tag_636:\n        /* \"#utility.yul\":8831:8953   */\n    tag_635:\n        /* \"#utility.yul\":8989:8995   */\n      dup2\n        /* \"#utility.yul\":8976:8996   */\n      calldataload\n        /* \"#utility.yul\":9014:9092   */\n      tag_637\n        /* \"#utility.yul\":9088:9091   */\n      dup5\n        /* \"#utility.yul\":9080:9086   */\n      dup3\n        /* \"#utility.yul\":9073:9077   */\n      0x20\n        /* \"#utility.yul\":9065:9071   */\n      dup7\n        /* \"#utility.yul\":9061:9078   */\n      add\n        /* \"#utility.yul\":9014:9092   */\n      tag_454\n      jump\t// in\n    tag_637:\n        /* \"#utility.yul\":9005:9092   */\n      swap2\n      pop\n        /* \"#utility.yul\":8821:9098   */\n      pop\n        /* \"#utility.yul\":8760:9098   */\n      swap3\n      swap2\n      pop\n      pop\n      jump\t// out\n        /* \"#utility.yul\":9104:10047   */\n    tag_51:\n        /* \"#utility.yul\":9199:9205   */\n      0x00\n        /* \"#utility.yul\":9207:9213   */\n      dup1\n        /* \"#utility.yul\":9215:9221   */\n      0x00\n        /* \"#utility.yul\":9223:9229   */\n      dup1\n        /* \"#utility.yul\":9272:9275   */\n      0x80\n        /* \"#utility.yul\":9260:9269   */\n      dup6\n        /* \"#utility.yul\":9251:9258   */\n      dup8\n        /* \"#utility.yul\":9247:9270   */\n      sub\n        /* \"#utility.yul\":9243:9276   */\n      slt\n        /* \"#utility.yul\":9240:9360   */\n      iszero\n      tag_639\n      jumpi\n        /* \"#utility.yul\":9279:9358   */\n      tag_640\n      tag_434\n      jump\t// in\n    tag_640:\n        /* \"#utility.yul\":9240:9360   */\n    tag_639:\n        /* \"#utility.yul\":9399:9400   */\n      0x00\n        /* \"#utility.yul\":9424:9477   */\n      tag_641\n        /* \"#utility.yul\":9469:9476   */\n      dup8\n        /* \"#utility.yul\":9460:9466   */\n      dup3\n        /* \"#utility.yul\":9449:9458   */\n      dup9\n        /* \"#utility.yul\":9445:9467   */\n      add\n        /* \"#utility.yul\":9424:9477   */\n      tag_442\n      jump\t// in\n    tag_641:\n        /* \"#utility.yul\":9414:9477   */\n      swap5\n      pop\n        /* \"#utility.yul\":9370:9487   */\n      pop\n        /* \"#utility.yul\":9526:9528   */\n      0x20\n        /* \"#utility.yul\":9552:9605   */\n      tag_642\n        /* \"#utility.yul\":9597:9604   */\n      dup8\n        /* \"#utility.yul\":9588:9594   */\n      dup3\n        /* \"#utility.yul\":9577:9586   */\n      dup9\n        /* \"#utility.yul\":9573:9595   */\n      add\n        /* \"#utility.yul\":9552:9605   */\n      tag_442\n      jump\t// in\n    tag_642:\n        /* \"#utility.yul\":9542:9605   */\n      swap4\n      pop\n        /* \"#utility.yul\":9497:9615   */\n      pop\n        /* \"#utility.yul\":9654:9656   */\n      0x40\n        /* \"#utility.yul\":9680:9733   */\n      tag_643\n        /* \"#utility.yul\":9725:9732   */\n      dup8\n        /* \"#utility.yul\":9716:9722   */\n      dup3\n        /* \"#utility.yul\":9705:9714   */\n      dup9\n        /* \"#utility.yul\":9701:9723   */\n      add\n        /* \"#utility.yul\":9680:9733   */\n      tag_444\n      jump\t// in\n    tag_643:\n        /* \"#utility.yul\":9670:9733   */\n      swap3\n      pop\n        /* \"#utility.yul\":9625:9743   */\n      pop\n        /* \"#utility.yul\":9810:9812   */\n      0x60\n        /* \"#utility.yul\":9799:9808   */\n      dup6\n        /* \"#utility.yul\":9795:9813   */\n      add\n        /* \"#utility.yul\":9782:9814   */\n      calldataload\n        /* \"#utility.yul\":9841:9859   */\n      0xffffffffffffffff\n        /* \"#utility.yul\":9833:9839   */\n      dup2\n        /* \"#utility.yul\":9830:9860   */\n      gt\n        /* \"#utility.yul\":9827:9944   */\n      iszero\n      tag_644\n      jumpi\n        /* \"#utility.yul\":9863:9942   */\n      tag_645\n      tag_435\n      jump\t// in\n    tag_645:\n        /* \"#utility.yul\":9827:9944   */\n    tag_644:\n        /* \"#utility.yul\":9968:10030   */\n      tag_646\n        /* \"#utility.yul\":10022:10029   */\n      dup8\n        /* \"#utility.yul\":10013:10019   */\n      dup3\n        /* \"#utility.yul\":10002:10011   */\n      dup9\n        /* \"#utility.yul\":9998:10020   */\n      add\n        /* \"#utility.yul\":9968:10030   */\n      tag_455\n      jump\t// in\n    tag_646:\n        /* \"#utility.yul\":9958:10030   */\n      swap2\n      pop\n        /* \"#utility.yul\":9753:10040   */\n      pop\n        /* \"#utility.yul\":9104:10047   */\n      swap3\n      swap6\n      swap2\n      swap5\n      pop\n      swap3\n      pop\n      jump\t// out\n        /* \"#utility.yul\":10053:10168   */\n    tag_456:\n        /* \"#utility.yul\":10138:10161   */\n      tag_648\n        /* \"#utility.yul\":10155:10160   */\n      dup2\n        /* \"#utility.yul\":10138:10161   */\n      tag_436\n      jump\t// in\n    tag_648:\n        /* \"#utility.yul\":10133:10136   */\n      dup3\n        /* \"#utility.yul\":10126:10162   */\n      mstore\n        /* \"#utility.yul\":10053:10168   */\n      pop\n      pop\n      jump\t// out\n        /* \"#utility.yul\":10174:10392   */\n    tag_54:\n        /* \"#utility.yul\":10265:10269   */\n      0x00\n        /* \"#utility.yul\":10303:10305   */\n      0x20\n        /* \"#utility.yul\":10292:10301   */\n      dup3\n        /* \"#utility.yul\":10288:10306   */\n      add\n        /* \"#utility.yul\":10280:10306   */\n      swap1\n      pop\n        /* \"#utility.yul\":10316:10385   */\n      tag_650\n        /* \"#utility.yul\":10382:10383   */\n      0x00\n        /* \"#utility.yul\":10371:10380   */\n      dup4\n        /* \"#utility.yul\":10367:10384   */\n      add\n        /* \"#utility.yul\":10358:10364   */\n      dup5\n        /* \"#utility.yul\":10316:10385   */\n      tag_456\n      jump\t// in\n    tag_650:\n        /* \"#utility.yul\":10174:10392   */\n      swap3\n      swap2\n      pop\n      pop\n      jump\t// out\n        /* \"#utility.yul\":10398:10502   */\n    tag_457:\n        /* \"#utility.yul\":10443:10450   */\n      0x00\n        /* \"#utility.yul\":10472:10496   */\n      tag_652\n        /* \"#utility.yul\":10490:10495   */\n      dup3\n        /* \"#utility.yul\":10472:10496   */\n      tag_422\n      jump\t// in\n    tag_652:\n        /* \"#utility.yul\":10461:10496   */\n      swap1\n      pop\n        /* \"#utility.yul\":10398:10502   */\n      swap2\n      swap1\n      pop\n      jump\t// out\n        /* \"#utility.yul\":10508:10646   */\n    tag_458:\n        /* \"#utility.yul\":10589:10621   */\n      tag_654\n        /* \"#utility.yul\":10615:10620   */\n      dup2\n        /* \"#utility.yul\":10589:10621   */\n      tag_457\n      jump\t// in\n    tag_654:\n        /* \"#utility.yul\":10582:10587   */\n      dup2\n        /* \"#utility.yul\":10579:10622   */\n      eq\n        /* \"#utility.yul\":10569:10640   */\n      tag_655\n      jumpi\n        /* \"#utility.yul\":10636:10637   */\n      0x00\n        /* \"#utility.yul\":10633:10634   */\n      dup1\n        /* \"#utility.yul\":10626:10638   */\n      revert\n        /* \"#utility.yul\":10569:10640   */\n    tag_655:\n        /* \"#utility.yul\":10508:10646   */\n      pop\n      jump\t// out\n        /* \"#utility.yul\":10652:10807   */\n    tag_459:\n        /* \"#utility.yul\":10706:10711   */\n      0x00\n        /* \"#utility.yul\":10744:10750   */\n      dup2\n        /* \"#utility.yul\":10731:10751   */\n      calldataload\n        /* \"#utility.yul\":10722:10751   */\n      swap1\n      pop\n        /* \"#utility.yul\":10760:10801   */\n      tag_657\n        /* \"#utility.yul\":10795:10800   */\n      dup2\n        /* \"#utility.yul\":10760:10801   */\n      tag_458\n      jump\t// in\n    tag_657:\n        /* \"#utility.yul\":10652:10807   */\n      swap3\n      swap2\n      pop\n      pop\n      jump\t// out\n        /* \"#utility.yul\":10813:11303   */\n    tag_62:\n        /* \"#utility.yul\":10889:10895   */\n      0x00\n        /* \"#utility.yul\":10897:10903   */\n      dup1\n        /* \"#utility.yul\":10946:10948   */\n      0x40\n        /* \"#utility.yul\":10934:10943   */\n      dup4\n        /* \"#utility.yul\":10925:10932   */\n      dup6\n        /* \"#utility.yul\":10921:10944   */\n      sub\n        /* \"#utility.yul\":10917:10949   */\n      slt\n        /* \"#utility.yul\":10914:11033   */\n      iszero\n      tag_659\n      jumpi\n        /* \"#utility.yul\":10952:11031   */\n      tag_660\n      tag_434\n      jump\t// in\n    tag_660:\n        /* \"#utility.yul\":10914:11033   */\n    tag_659:\n        /* \"#utility.yul\":11072:11073   */\n      0x00\n        /* \"#utility.yul\":11097:11158   */\n      tag_661\n        /* \"#utility.yul\":11150:11157   */\n      dup6\n        /* \"#utility.yul\":11141:11147   */\n      dup3\n        /* \"#utility.yul\":11130:11139   */\n      dup7\n        /* \"#utility.yul\":11126:11148   */\n      add\n        /* \"#utility.yul\":11097:11158   */\n      tag_459\n      jump\t// in\n    tag_661:\n        /* \"#utility.yul\":11087:11158   */\n      swap3\n      pop\n        /* \"#utility.yul\":11043:11168   */\n      pop\n        /* \"#utility.yul\":11207:11209   */\n      0x20\n        /* \"#utility.yul\":11233:11286   */\n      tag_662\n        /* \"#utility.yul\":11278:11285   */\n      dup6\n        /* \"#utility.yul\":11269:11275   */\n      dup3\n        /* \"#utility.yul\":11258:11267   */\n      dup7\n        /* \"#utility.yul\":11254:11276   */\n      add\n        /* \"#utility.yul\":11233:11286   */\n      tag_442\n      jump\t// in\n    tag_662:\n        /* \"#utility.yul\":11223:11286   */\n      swap2\n      pop\n        /* \"#utility.yul\":11178:11296   */\n      pop\n        /* \"#utility.yul\":10813:11303   */\n      swap3\n      pop\n      swap3\n      swap1\n      pop\n      jump\t// out\n        /* \"#utility.yul\":11326:11894   */\n    tag_460:\n        /* \"#utility.yul\":11399:11407   */\n      0x00\n        /* \"#utility.yul\":11409:11415   */\n      dup1\n        /* \"#utility.yul\":11459:11462   */\n      dup4\n        /* \"#utility.yul\":11452:11456   */\n      0x1f\n        /* \"#utility.yul\":11444:11450   */\n      dup5\n        /* \"#utility.yul\":11440:11457   */\n      add\n        /* \"#utility.yul\":11436:11463   */\n      slt\n        /* \"#utility.yul\":11426:11548   */\n      tag_664\n      jumpi\n        /* \"#utility.yul\":11467:11546   */\n      tag_665\n      tag_445\n      jump\t// in\n    tag_665:\n        /* \"#utility.yul\":11426:11548   */\n    tag_664:\n        /* \"#utility.yul\":11580:11586   */\n      dup3\n        /* \"#utility.yul\":11567:11587   */\n      calldataload\n        /* \"#utility.yul\":11557:11587   */\n      swap1\n      pop\n        /* \"#utility.yul\":11610:11628   */\n      0xffffffffffffffff\n        /* \"#utility.yul\":11602:11608   */\n      dup2\n        /* \"#utility.yul\":11599:11629   */\n      gt\n        /* \"#utility.yul\":11596:11713   */\n      iszero\n      tag_666\n      jumpi\n        /* \"#utility.yul\":11632:11711   */\n      tag_667\n      tag_446\n      jump\t// in\n    tag_667:\n        /* \"#utility.yul\":11596:11713   */\n    tag_666:\n        /* \"#utility.yul\":11746:11750   */\n      0x20\n        /* \"#utility.yul\":11738:11744   */\n      dup4\n        /* \"#utility.yul\":11734:11751   */\n      add\n        /* \"#utility.yul\":11722:11751   */\n      swap2\n      pop\n        /* \"#utility.yul\":11800:11803   */\n      dup4\n        /* \"#utility.yul\":11792:11796   */\n      0x20\n        /* \"#utility.yul\":11784:11790   */\n      dup3\n        /* \"#utility.yul\":11780:11797   */\n      mul\n        /* \"#utility.yul\":11770:11778   */\n      dup4\n        /* \"#utility.yul\":11766:11798   */\n      add\n        /* \"#utility.yul\":11763:11804   */\n      gt\n        /* \"#utility.yul\":11760:11888   */\n      iszero\n      tag_668\n      jumpi\n        /* \"#utility.yul\":11807:11886   */\n      tag_669\n      tag_447\n      jump\t// in\n    tag_669:\n        /* \"#utility.yul\":11760:11888   */\n    tag_668:\n        /* \"#utility.yul\":11326:11894   */\n      swap3\n      pop\n      swap3\n      swap1\n      pop\n      jump\t// out\n        /* \"#utility.yul\":11900:12765   */\n    tag_67:\n        /* \"#utility.yul\":12012:12018   */\n      0x00\n        /* \"#utility.yul\":12020:12026   */\n      dup1\n        /* \"#utility.yul\":12028:12034   */\n      0x00\n        /* \"#utility.yul\":12036:12042   */\n      dup1\n        /* \"#utility.yul\":12085:12087   */\n      0x60\n        /* \"#utility.yul\":12073:12082   */\n      dup6\n        /* \"#utility.yul\":12064:12071   */\n      dup8\n        /* \"#utility.yul\":12060:12083   */\n      sub\n        /* \"#utility.yul\":12056:12088   */\n      slt\n        /* \"#utility.yul\":12053:12172   */\n      iszero\n      tag_671\n      jumpi\n        /* \"#utility.yul\":12091:12170   */\n      tag_672\n      tag_434\n      jump\t// in\n    tag_672:\n        /* \"#utility.yul\":12053:12172   */\n    tag_671:\n        /* \"#utility.yul\":12211:12212   */\n      0x00\n        /* \"#utility.yul\":12236:12297   */\n      tag_673\n        /* \"#utility.yul\":12289:12296   */\n      dup8\n        /* \"#utility.yul\":12280:12286   */\n      dup3\n        /* \"#utility.yul\":12269:12278   */\n      dup9\n        /* \"#utility.yul\":12265:12287   */\n      add\n        /* \"#utility.yul\":12236:12297   */\n      tag_459\n      jump\t// in\n    tag_673:\n        /* \"#utility.yul\":12226:12297   */\n      swap5\n      pop\n        /* \"#utility.yul\":12182:12307   */\n      pop\n        /* \"#utility.yul\":12346:12348   */\n      0x20\n        /* \"#utility.yul\":12372:12425   */\n      tag_674\n        /* \"#utility.yul\":12417:12424   */\n      dup8\n        /* \"#utility.yul\":12408:12414   */\n      dup3\n        /* \"#utility.yul\":12397:12406   */\n      dup9\n        /* \"#utility.yul\":12393:12415   */\n      add\n        /* \"#utility.yul\":12372:12425   */\n      tag_442\n      jump\t// in\n    tag_674:\n        /* \"#utility.yul\":12362:12425   */\n      swap4\n      pop\n        /* \"#utility.yul\":12317:12435   */\n      pop\n        /* \"#utility.yul\":12502:12504   */\n      0x40\n        /* \"#utility.yul\":12491:12500   */\n      dup6\n        /* \"#utility.yul\":12487:12505   */\n      add\n        /* \"#utility.yul\":12474:12506   */\n      calldataload\n        /* \"#utility.yul\":12533:12551   */\n      0xffffffffffffffff\n        /* \"#utility.yul\":12525:12531   */\n      dup2\n        /* \"#utility.yul\":12522:12552   */\n      gt\n        /* \"#utility.yul\":12519:12636   */\n      iszero\n      tag_675\n      jumpi\n        /* \"#utility.yul\":12555:12634   */\n      tag_676\n      tag_435\n      jump\t// in\n    tag_676:\n        /* \"#utility.yul\":12519:12636   */\n    tag_675:\n        /* \"#utility.yul\":12668:12748   */\n      tag_677\n        /* \"#utility.yul\":12740:12747   */\n      dup8\n        /* \"#utility.yul\":12731:12737   */\n      dup3\n        /* \"#utility.yul\":12720:12729   */\n      dup9\n        /* \"#utility.yul\":12716:12738   */\n      add\n        /* \"#utility.yul\":12668:12748   */\n      tag_460\n      jump\t// in\n    tag_677:\n        /* \"#utility.yul\":12650:12748   */\n      swap3\n      pop\n      swap3\n      pop\n        /* \"#utility.yul\":12445:12758   */\n      pop\n        /* \"#utility.yul\":11900:12765   */\n      swap3\n      swap6\n      swap2\n      swap5\n      pop\n      swap3\n      pop\n      jump\t// out\n        /* \"#utility.yul\":12771:14224   */\n    tag_72:\n        /* \"#utility.yul\":12897:12903   */\n      0x00\n        /* \"#utility.yul\":12905:12911   */\n      dup1\n        /* \"#utility.yul\":12913:12919   */\n      0x00\n        /* \"#utility.yul\":12921:12927   */\n      dup1\n        /* \"#utility.yul\":12929:12935   */\n      0x00\n        /* \"#utility.yul\":12937:12943   */\n      dup1\n        /* \"#utility.yul\":12945:12951   */\n      0x00\n        /* \"#utility.yul\":12953:12959   */\n      dup1\n        /* \"#utility.yul\":13002:13005   */\n      0xc0\n        /* \"#utility.yul\":12990:12999   */\n      dup10\n        /* \"#utility.yul\":12981:12988   */\n      dup12\n        /* \"#utility.yul\":12977:13000   */\n      sub\n        /* \"#utility.yul\":12973:13006   */\n      slt\n        /* \"#utility.yul\":12970:13090   */\n      iszero\n      tag_679\n      jumpi\n        /* \"#utility.yul\":13009:13088   */\n      tag_680\n      tag_434\n      jump\t// in\n    tag_680:\n        /* \"#utility.yul\":12970:13090   */\n    tag_679:\n        /* \"#utility.yul\":13129:13130   */\n      0x00\n        /* \"#utility.yul\":13154:13207   */\n      tag_681\n        /* \"#utility.yul\":13199:13206   */\n      dup12\n        /* \"#utility.yul\":13190:13196   */\n      dup3\n        /* \"#utility.yul\":13179:13188   */\n      dup13\n        /* \"#utility.yul\":13175:13197   */\n      add\n        /* \"#utility.yul\":13154:13207   */\n      tag_442\n      jump\t// in\n    tag_681:\n        /* \"#utility.yul\":13144:13207   */\n      swap9\n      pop\n        /* \"#utility.yul\":13100:13217   */\n      pop\n        /* \"#utility.yul\":13256:13258   */\n      0x20\n        /* \"#utility.yul\":13282:13335   */\n      tag_682\n        /* \"#utility.yul\":13327:13334   */\n      dup12\n        /* \"#utility.yul\":13318:13324   */\n      dup3\n        /* \"#utility.yul\":13307:13316   */\n      dup13\n        /* \"#utility.yul\":13303:13325   */\n      add\n        /* \"#utility.yul\":13282:13335   */\n      tag_444\n      jump\t// in\n    tag_682:\n        /* \"#utility.yul\":13272:13335   */\n      swap8\n      pop\n        /* \"#utility.yul\":13227:13345   */\n      pop\n        /* \"#utility.yul\":13412:13414   */\n      0x40\n        /* \"#utility.yul\":13401:13410   */\n      dup10\n        /* \"#utility.yul\":13397:13415   */\n      add\n        /* \"#utility.yul\":13384:13416   */\n      calldataload\n        /* \"#utility.yul\":13443:13461   */\n      0xffffffffffffffff\n        /* \"#utility.yul\":13435:13441   */\n      dup2\n        /* \"#utility.yul\":13432:13462   */\n      gt\n        /* \"#utility.yul\":13429:13546   */\n      iszero\n      tag_683\n      jumpi\n        /* \"#utility.yul\":13465:13544   */\n      tag_684\n      tag_435\n      jump\t// in\n    tag_684:\n        /* \"#utility.yul\":13429:13546   */\n    tag_683:\n        /* \"#utility.yul\":13578:13642   */\n      tag_685\n        /* \"#utility.yul\":13634:13641   */\n      dup12\n        /* \"#utility.yul\":13625:13631   */\n      dup3\n        /* \"#utility.yul\":13614:13623   */\n      dup13\n        /* \"#utility.yul\":13610:13632   */\n      add\n        /* \"#utility.yul\":13578:13642   */\n      tag_448\n      jump\t// in\n    tag_685:\n        /* \"#utility.yul\":13560:13642   */\n      swap7\n      pop\n      swap7\n      pop\n        /* \"#utility.yul\":13355:13652   */\n      pop\n        /* \"#utility.yul\":13691:13693   */\n      0x60\n        /* \"#utility.yul\":13717:13770   */\n      tag_686\n        /* \"#utility.yul\":13762:13769   */\n      dup12\n        /* \"#utility.yul\":13753:13759   */\n      dup3\n        /* \"#utility.yul\":13742:13751   */\n      dup13\n        /* \"#utility.yul\":13738:13760   */\n      add\n        /* \"#utility.yul\":13717:13770   */\n      tag_444\n      jump\t// in\n    tag_686:\n        /* \"#utility.yul\":13707:13770   */\n      swap5\n      pop\n        /* \"#utility.yul\":13662:13780   */\n      pop\n        /* \"#utility.yul\":13819:13822   */\n      0x80\n        /* \"#utility.yul\":13846:13899   */\n      tag_687\n        /* \"#utility.yul\":13891:13898   */\n      dup12\n        /* \"#utility.yul\":13882:13888   */\n      dup3\n        /* \"#utility.yul\":13871:13880   */\n      dup13\n        /* \"#utility.yul\":13867:13889   */\n      add\n        /* \"#utility.yul\":13846:13899   */\n      tag_444\n      jump\t// in\n    tag_687:\n        /* \"#utility.yul\":13836:13899   */\n      swap4\n      pop\n        /* \"#utility.yul\":13790:13909   */\n      pop\n        /* \"#utility.yul\":13976:13979   */\n      0xa0\n        /* \"#utility.yul\":13965:13974   */\n      dup10\n        /* \"#utility.yul\":13961:13980   */\n      add\n        /* \"#utility.yul\":13948:13981   */\n      calldataload\n        /* \"#utility.yul\":14008:14026   */\n      0xffffffffffffffff\n        /* \"#utility.yul\":14000:14006   */\n      dup2\n        /* \"#utility.yul\":13997:14027   */\n      gt\n        /* \"#utility.yul\":13994:14111   */\n      iszero\n      tag_688\n      jumpi\n        /* \"#utility.yul\":14030:14109   */\n      tag_689\n      tag_435\n      jump\t// in\n    tag_689:\n        /* \"#utility.yul\":13994:14111   */\n    tag_688:\n        /* \"#utility.yul\":14143:14207   */\n      tag_690\n        /* \"#utility.yul\":14199:14206   */\n      dup12\n        /* \"#utility.yul\":14190:14196   */\n      dup3\n        /* \"#utility.yul\":14179:14188   */\n      dup13\n        /* \"#utility.yul\":14175:14197   */\n      add\n        /* \"#utility.yul\":14143:14207   */\n      tag_448\n      jump\t// in\n    tag_690:\n        /* \"#utility.yul\":14125:14207   */\n      swap3\n      pop\n      swap3\n      pop\n        /* \"#utility.yul\":13919:14217   */\n      pop\n        /* \"#utility.yul\":12771:14224   */\n      swap3\n      swap6\n      swap9\n      pop\n      swap3\n      swap6\n      swap9\n      swap1\n      swap4\n      swap7\n      pop\n      jump\t// out\n        /* \"#utility.yul\":14230:14865   */\n    tag_77:\n        /* \"#utility.yul\":14315:14321   */\n      0x00\n        /* \"#utility.yul\":14323:14329   */\n      dup1\n        /* \"#utility.yul\":14331:14337   */\n      0x00\n        /* \"#utility.yul\":14380:14382   */\n      0x60\n        /* \"#utility.yul\":14368:14377   */\n      dup5\n        /* \"#utility.yul\":14359:14366   */\n      dup7\n        /* \"#utility.yul\":14355:14378   */\n      sub\n        /* \"#utility.yul\":14351:14383   */\n      slt\n        /* \"#utility.yul\":14348:14467   */\n      iszero\n      tag_692\n      jumpi\n        /* \"#utility.yul\":14386:14465   */\n      tag_693\n      tag_434\n      jump\t// in\n    tag_693:\n        /* \"#utility.yul\":14348:14467   */\n    tag_692:\n        /* \"#utility.yul\":14506:14507   */\n      0x00\n        /* \"#utility.yul\":14531:14592   */\n      tag_694\n        /* \"#utility.yul\":14584:14591   */\n      dup7\n        /* \"#utility.yul\":14575:14581   */\n      dup3\n        /* \"#utility.yul\":14564:14573   */\n      dup8\n        /* \"#utility.yul\":14560:14582   */\n      add\n        /* \"#utility.yul\":14531:14592   */\n      tag_459\n      jump\t// in\n    tag_694:\n        /* \"#utility.yul\":14521:14592   */\n      swap4\n      pop\n        /* \"#utility.yul\":14477:14602   */\n      pop\n        /* \"#utility.yul\":14641:14643   */\n      0x20\n        /* \"#utility.yul\":14667:14720   */\n      tag_695\n        /* \"#utility.yul\":14712:14719   */\n      dup7\n        /* \"#utility.yul\":14703:14709   */\n      dup3\n        /* \"#utility.yul\":14692:14701   */\n      dup8\n        /* \"#utility.yul\":14688:14710   */\n      add\n        /* \"#utility.yul\":14667:14720   */\n      tag_442\n      jump\t// in\n    tag_695:\n        /* \"#utility.yul\":14657:14720   */\n      swap3\n      pop\n        /* \"#utility.yul\":14612:14730   */\n      pop\n        /* \"#utility.yul\":14769:14771   */\n      0x40\n        /* \"#utility.yul\":14795:14848   */\n      tag_696\n        /* \"#utility.yul\":14840:14847   */\n      dup7\n        /* \"#utility.yul\":14831:14837   */\n      dup3\n        /* \"#utility.yul\":14820:14829   */\n      dup8\n        /* \"#utility.yul\":14816:14838   */\n      add\n        /* \"#utility.yul\":14795:14848   */\n      tag_444\n      jump\t// in\n    tag_696:\n        /* \"#utility.yul\":14785:14848   */\n      swap2\n      pop\n        /* \"#utility.yul\":14740:14858   */\n      pop\n        /* \"#utility.yul\":14230:14865   */\n      swap3\n      pop\n      swap3\n      pop\n      swap3\n      jump\t// out\n        /* \"#utility.yul\":14871:15200   */\n    tag_82:\n        /* \"#utility.yul\":14930:14936   */\n      0x00\n        /* \"#utility.yul\":14979:14981   */\n      0x20\n        /* \"#utility.yul\":14967:14976   */\n      dup3\n        /* \"#utility.yul\":14958:14965   */\n      dup5\n        /* \"#utility.yul\":14954:14977   */\n      sub\n        /* \"#utility.yul\":14950:14982   */\n      slt\n        /* \"#utility.yul\":14947:15066   */\n      iszero\n      tag_698\n      jumpi\n        /* \"#utility.yul\":14985:15064   */\n      tag_699\n      tag_434\n      jump\t// in\n    tag_699:\n        /* \"#utility.yul\":14947:15066   */\n    tag_698:\n        /* \"#utility.yul\":15105:15106   */\n      0x00\n        /* \"#utility.yul\":15130:15183   */\n      tag_700\n        /* \"#utility.yul\":15175:15182   */\n      dup5\n        /* \"#utility.yul\":15166:15172   */\n      dup3\n        /* \"#utility.yul\":15155:15164   */\n      dup6\n        /* \"#utility.yul\":15151:15173   */\n      add\n        /* \"#utility.yul\":15130:15183   */\n      tag_442\n      jump\t// in\n    tag_700:\n        /* \"#utility.yul\":15120:15183   */\n      swap2\n      pop\n        /* \"#utility.yul\":15076:15193   */\n      pop\n        /* \"#utility.yul\":14871:15200   */\n      swap3\n      swap2\n      pop\n      pop\n      jump\t// out\n        /* \"#utility.yul\":15206:15322   */\n    tag_461:\n        /* \"#utility.yul\":15276:15297   */\n      tag_702\n        /* \"#utility.yul\":15291:15296   */\n      dup2\n        /* \"#utility.yul\":15276:15297   */\n      tag_439\n      jump\t// in\n    tag_702:\n        /* \"#utility.yul\":15269:15274   */\n      dup2\n        /* \"#utility.yul\":15266:15298   */\n      eq\n        /* \"#utility.yul\":15256:15316   */\n      tag_703\n      jumpi\n        /* \"#utility.yul\":15312:15313   */\n      0x00\n        /* \"#utility.yul\":15309:15310   */\n      dup1\n        /* \"#utility.yul\":15302:15314   */\n      revert\n        /* \"#utility.yul\":15256:15316   */\n    tag_703:\n        /* \"#utility.yul\":15206:15322   */\n      pop\n      jump\t// out\n        /* \"#utility.yul\":15328:15461   */\n    tag_462:\n        /* \"#utility.yul\":15371:15376   */\n      0x00\n        /* \"#utility.yul\":15409:15415   */\n      dup2\n        /* \"#utility.yul\":15396:15416   */\n      calldataload\n        /* \"#utility.yul\":15387:15416   */\n      swap1\n      pop\n        /* \"#utility.yul\":15425:15455   */\n      tag_705\n        /* \"#utility.yul\":15449:15454   */\n      dup2\n        /* \"#utility.yul\":15425:15455   */\n      tag_461\n      jump\t// in\n    tag_705:\n        /* \"#utility.yul\":15328:15461   */\n      swap3\n      swap2\n      pop\n      pop\n      jump\t// out\n        /* \"#utility.yul\":15467:15935   */\n    tag_93:\n        /* \"#utility.yul\":15532:15538   */\n      0x00\n        /* \"#utility.yul\":15540:15546   */\n      dup1\n        /* \"#utility.yul\":15589:15591   */\n      0x40\n        /* \"#utility.yul\":15577:15586   */\n      dup4\n        /* \"#utility.yul\":15568:15575   */\n      dup6\n        /* \"#utility.yul\":15564:15587   */\n      sub\n        /* \"#utility.yul\":15560:15592   */\n      slt\n        /* \"#utility.yul\":15557:15676   */\n      iszero\n      tag_707\n      jumpi\n        /* \"#utility.yul\":15595:15674   */\n      tag_708\n      tag_434\n      jump\t// in\n    tag_708:\n        /* \"#utility.yul\":15557:15676   */\n    tag_707:\n        /* \"#utility.yul\":15715:15716   */\n      0x00\n        /* \"#utility.yul\":15740:15793   */\n      tag_709\n        /* \"#utility.yul\":15785:15792   */\n      dup6\n        /* \"#utility.yul\":15776:15782   */\n      dup3\n        /* \"#utility.yul\":15765:15774   */\n      dup7\n        /* \"#utility.yul\":15761:15783   */\n      add\n        /* \"#utility.yul\":15740:15793   */\n      tag_442\n      jump\t// in\n    tag_709:\n        /* \"#utility.yul\":15730:15793   */\n      swap3\n      pop\n        /* \"#utility.yul\":15686:15803   */\n      pop\n        /* \"#utility.yul\":15842:15844   */\n      0x20\n        /* \"#utility.yul\":15868:15918   */\n      tag_710\n        /* \"#utility.yul\":15910:15917   */\n      dup6\n        /* \"#utility.yul\":15901:15907   */\n      dup3\n        /* \"#utility.yul\":15890:15899   */\n      dup7\n        /* \"#utility.yul\":15886:15908   */\n      add\n        /* \"#utility.yul\":15868:15918   */\n      tag_462\n      jump\t// in\n    tag_710:\n        /* \"#utility.yul\":15858:15918   */\n      swap2\n      pop\n        /* \"#utility.yul\":15813:15928   */\n      pop\n        /* \"#utility.yul\":15467:15935   */\n      swap3\n      pop\n      swap3\n      swap1\n      pop\n      jump\t// out\n        /* \"#utility.yul\":15941:16163   */\n    tag_99:\n        /* \"#utility.yul\":16034:16038   */\n      0x00\n        /* \"#utility.yul\":16072:16074   */\n      0x20\n        /* \"#utility.yul\":16061:16070   */\n      dup3\n        /* \"#utility.yul\":16057:16075   */\n      add\n        /* \"#utility.yul\":16049:16075   */\n      swap1\n      pop\n        /* \"#utility.yul\":16085:16156   */\n      tag_712\n        /* \"#utility.yul\":16153:16154   */\n      0x00\n        /* \"#utility.yul\":16142:16151   */\n      dup4\n        /* \"#utility.yul\":16138:16155   */\n      add\n        /* \"#utility.yul\":16129:16135   */\n      dup5\n        /* \"#utility.yul\":16085:16156   */\n      tag_426\n      jump\t// in\n    tag_712:\n        /* \"#utility.yul\":15941:16163   */\n      swap3\n      swap2\n      pop\n      pop\n      jump\t// out\n        /* \"#utility.yul\":16186:16754   */\n    tag_463:\n        /* \"#utility.yul\":16259:16267   */\n      0x00\n        /* \"#utility.yul\":16269:16275   */\n      dup1\n        /* \"#utility.yul\":16319:16322   */\n      dup4\n        /* \"#utility.yul\":16312:16316   */\n      0x1f\n        /* \"#utility.yul\":16304:16310   */\n      dup5\n        /* \"#utility.yul\":16300:16317   */\n      add\n        /* \"#utility.yul\":16296:16323   */\n      slt\n        /* \"#utility.yul\":16286:16408   */\n      tag_714\n      jumpi\n        /* \"#utility.yul\":16327:16406   */\n      tag_715\n      tag_445\n      jump\t// in\n    tag_715:\n        /* \"#utility.yul\":16286:16408   */\n    tag_714:\n        /* \"#utility.yul\":16440:16446   */\n      dup3\n        /* \"#utility.yul\":16427:16447   */\n      calldataload\n        /* \"#utility.yul\":16417:16447   */\n      swap1\n      pop\n        /* \"#utility.yul\":16470:16488   */\n      0xffffffffffffffff\n        /* \"#utility.yul\":16462:16468   */\n      dup2\n        /* \"#utility.yul\":16459:16489   */\n      gt\n        /* \"#utility.yul\":16456:16573   */\n      iszero\n      tag_716\n      jumpi\n        /* \"#utility.yul\":16492:16571   */\n      tag_717\n      tag_446\n      jump\t// in\n    tag_717:\n        /* \"#utility.yul\":16456:16573   */\n    tag_716:\n        /* \"#utility.yul\":16606:16610   */\n      0x20\n        /* \"#utility.yul\":16598:16604   */\n      dup4\n        /* \"#utility.yul\":16594:16611   */\n      add\n        /* \"#utility.yul\":16582:16611   */\n      swap2\n      pop\n        /* \"#utility.yul\":16660:16663   */\n      dup4\n        /* \"#utility.yul\":16652:16656   */\n      0x20\n        /* \"#utility.yul\":16644:16650   */\n      dup3\n        /* \"#utility.yul\":16640:16657   */\n      mul\n        /* \"#utility.yul\":16630:16638   */\n      dup4\n        /* \"#utility.yul\":16626:16658   */\n      add\n        /* \"#utility.yul\":16623:16664   */\n      gt\n        /* \"#utility.yul\":16620:16748   */\n      iszero\n      tag_718\n      jumpi\n        /* \"#utility.yul\":16667:16746   */\n      tag_719\n      tag_447\n      jump\t// in\n    tag_719:\n        /* \"#utility.yul\":16620:16748   */\n    tag_718:\n        /* \"#utility.yul\":16186:16754   */\n      swap3\n      pop\n      swap3\n      swap1\n      pop\n      jump\t// out\n        /* \"#utility.yul\":16760:18329   */\n    tag_107:\n        /* \"#utility.yul\":16920:16926   */\n      0x00\n        /* \"#utility.yul\":16928:16934   */\n      dup1\n        /* \"#utility.yul\":16936:16942   */\n      0x00\n        /* \"#utility.yul\":16944:16950   */\n      dup1\n        /* \"#utility.yul\":16952:16958   */\n      0x00\n        /* \"#utility.yul\":16960:16966   */\n      dup1\n        /* \"#utility.yul\":16968:16974   */\n      0x00\n        /* \"#utility.yul\":16976:16982   */\n      dup1\n        /* \"#utility.yul\":17025:17028   */\n      0xa0\n        /* \"#utility.yul\":17013:17022   */\n      dup10\n        /* \"#utility.yul\":17004:17011   */\n      dup12\n        /* \"#utility.yul\":17000:17023   */\n      sub\n        /* \"#utility.yul\":16996:17029   */\n      slt\n        /* \"#utility.yul\":16993:17113   */\n      iszero\n      tag_721\n      jumpi\n        /* \"#utility.yul\":17032:17111   */\n      tag_722\n      tag_434\n      jump\t// in\n    tag_722:\n        /* \"#utility.yul\":16993:17113   */\n    tag_721:\n        /* \"#utility.yul\":17180:17181   */\n      0x00\n        /* \"#utility.yul\":17169:17178   */\n      dup10\n        /* \"#utility.yul\":17165:17182   */\n      add\n        /* \"#utility.yul\":17152:17183   */\n      calldataload\n        /* \"#utility.yul\":17210:17228   */\n      0xffffffffffffffff\n        /* \"#utility.yul\":17202:17208   */\n      dup2\n        /* \"#utility.yul\":17199:17229   */\n      gt\n        /* \"#utility.yul\":17196:17313   */\n      iszero\n      tag_723\n      jumpi\n        /* \"#utility.yul\":17232:17311   */\n      tag_724\n      tag_435\n      jump\t// in\n    tag_724:\n        /* \"#utility.yul\":17196:17313   */\n    tag_723:\n        /* \"#utility.yul\":17345:17425   */\n      tag_725\n        /* \"#utility.yul\":17417:17424   */\n      dup12\n        /* \"#utility.yul\":17408:17414   */\n      dup3\n        /* \"#utility.yul\":17397:17406   */\n      dup13\n        /* \"#utility.yul\":17393:17415   */\n      add\n        /* \"#utility.yul\":17345:17425   */\n      tag_463\n      jump\t// in\n    tag_725:\n        /* \"#utility.yul\":17327:17425   */\n      swap9\n      pop\n      swap9\n      pop\n        /* \"#utility.yul\":17123:17435   */\n      pop\n        /* \"#utility.yul\":17502:17504   */\n      0x20\n        /* \"#utility.yul\":17491:17500   */\n      dup10\n        /* \"#utility.yul\":17487:17505   */\n      add\n        /* \"#utility.yul\":17474:17506   */\n      calldataload\n        /* \"#utility.yul\":17533:17551   */\n      0xffffffffffffffff\n        /* \"#utility.yul\":17525:17531   */\n      dup2\n        /* \"#utility.yul\":17522:17552   */\n      gt\n        /* \"#utility.yul\":17519:17636   */\n      iszero\n      tag_726\n      jumpi\n        /* \"#utility.yul\":17555:17634   */\n      tag_727\n      tag_435\n      jump\t// in\n    tag_727:\n        /* \"#utility.yul\":17519:17636   */\n    tag_726:\n        /* \"#utility.yul\":17668:17748   */\n      tag_728\n        /* \"#utility.yul\":17740:17747   */\n      dup12\n        /* \"#utility.yul\":17731:17737   */\n      dup3\n        /* \"#utility.yul\":17720:17729   */\n      dup13\n        /* \"#utility.yul\":17716:17738   */\n      add\n        /* \"#utility.yul\":17668:17748   */\n      tag_460\n      jump\t// in\n    tag_728:\n        /* \"#utility.yul\":17650:17748   */\n      swap7\n      pop\n      swap7\n      pop\n        /* \"#utility.yul\":17445:17758   */\n      pop\n        /* \"#utility.yul\":17797:17799   */\n      0x40\n        /* \"#utility.yul\":17823:17876   */\n      tag_729\n        /* \"#utility.yul\":17868:17875   */\n      dup12\n        /* \"#utility.yul\":17859:17865   */\n      dup3\n        /* \"#utility.yul\":17848:17857   */\n      dup13\n        /* \"#utility.yul\":17844:17866   */\n      add\n        /* \"#utility.yul\":17823:17876   */\n      tag_444\n      jump\t// in\n    tag_729:\n        /* \"#utility.yul\":17813:17876   */\n      swap5\n      pop\n        /* \"#utility.yul\":17768:17886   */\n      pop\n        /* \"#utility.yul\":17925:17927   */\n      0x60\n        /* \"#utility.yul\":17951:18004   */\n      tag_730\n        /* \"#utility.yul\":17996:18003   */\n      dup12\n        /* \"#utility.yul\":17987:17993   */\n      dup3\n        /* \"#utility.yul\":17976:17985   */\n      dup13\n        /* \"#utility.yul\":17972:17994   */\n      add\n        /* \"#utility.yul\":17951:18004   */\n      tag_444\n      jump\t// in\n    tag_730:\n        /* \"#utility.yul\":17941:18004   */\n      swap4\n      pop\n        /* \"#utility.yul\":17896:18014   */\n      pop\n        /* \"#utility.yul\":18081:18084   */\n      0x80\n        /* \"#utility.yul\":18070:18079   */\n      dup10\n        /* \"#utility.yul\":18066:18085   */\n      add\n        /* \"#utility.yul\":18053:18086   */\n      calldataload\n        /* \"#utility.yul\":18113:18131   */\n      0xffffffffffffffff\n        /* \"#utility.yul\":18105:18111   */\n      dup2\n        /* \"#utility.yul\":18102:18132   */\n      gt\n        /* \"#utility.yul\":18099:18216   */\n      iszero\n      tag_731\n      jumpi\n        /* \"#utility.yul\":18135:18214   */\n      tag_732\n      tag_435\n      jump\t// in\n    tag_732:\n        /* \"#utility.yul\":18099:18216   */\n    tag_731:\n        /* \"#utility.yul\":18248:18312   */\n      tag_733\n        /* \"#utility.yul\":18304:18311   */\n      dup12\n        /* \"#utility.yul\":18295:18301   */\n      dup3\n        /* \"#utility.yul\":18284:18293   */\n      dup13\n        /* \"#utility.yul\":18280:18302   */\n      add\n        /* \"#utility.yul\":18248:18312   */\n      tag_448\n      jump\t// in\n    tag_733:\n        /* \"#utility.yul\":18230:18312   */\n      swap3\n      pop\n      swap3\n      pop\n        /* \"#utility.yul\":18024:18322   */\n      pop\n        /* \"#utility.yul\":16760:18329   */\n      swap3\n      swap6\n      swap9\n      pop\n      swap3\n      swap6\n      swap9\n      swap1\n      swap4\n      swap7\n      pop\n      jump\t// out\n        /* \"#utility.yul\":18335:19904   */\n    tag_112:\n        /* \"#utility.yul\":18495:18501   */\n      0x00\n        /* \"#utility.yul\":18503:18509   */\n      dup1\n        /* \"#utility.yul\":18511:18517   */\n      0x00\n        /* \"#utility.yul\":18519:18525   */\n      dup1\n        /* \"#utility.yul\":18527:18533   */\n      0x00\n        /* \"#utility.yul\":18535:18541   */\n      dup1\n        /* \"#utility.yul\":18543:18549   */\n      0x00\n        /* \"#utility.yul\":18551:18557   */\n      dup1\n        /* \"#utility.yul\":18600:18603   */\n      0xa0\n        /* \"#utility.yul\":18588:18597   */\n      dup10\n        /* \"#utility.yul\":18579:18586   */\n      dup12\n        /* \"#utility.yul\":18575:18598   */\n      sub\n        /* \"#utility.yul\":18571:18604   */\n      slt\n        /* \"#utility.yul\":18568:18688   */\n      iszero\n      tag_735\n      jumpi\n        /* \"#utility.yul\":18607:18686   */\n      tag_736\n      tag_434\n      jump\t// in\n    tag_736:\n        /* \"#utility.yul\":18568:18688   */\n    tag_735:\n        /* \"#utility.yul\":18727:18728   */\n      0x00\n        /* \"#utility.yul\":18752:18805   */\n      tag_737\n        /* \"#utility.yul\":18797:18804   */\n      dup12\n        /* \"#utility.yul\":18788:18794   */\n      dup3\n        /* \"#utility.yul\":18777:18786   */\n      dup13\n        /* \"#utility.yul\":18773:18795   */\n      add\n        /* \"#utility.yul\":18752:18805   */\n      tag_442\n      jump\t// in\n    tag_737:\n        /* \"#utility.yul\":18742:18805   */\n      swap9\n      pop\n        /* \"#utility.yul\":18698:18815   */\n      pop\n        /* \"#utility.yul\":18854:18856   */\n      0x20\n        /* \"#utility.yul\":18880:18933   */\n      tag_738\n        /* \"#utility.yul\":18925:18932   */\n      dup12\n        /* \"#utility.yul\":18916:18922   */\n      dup3\n        /* \"#utility.yul\":18905:18914   */\n      dup13\n        /* \"#utility.yul\":18901:18923   */\n      add\n        /* \"#utility.yul\":18880:18933   */\n      tag_442\n      jump\t// in\n    tag_738:\n        /* \"#utility.yul\":18870:18933   */\n      swap8\n      pop\n        /* \"#utility.yul\":18825:18943   */\n      pop\n        /* \"#utility.yul\":19010:19012   */\n      0x40\n        /* \"#utility.yul\":18999:19008   */\n      dup10\n        /* \"#utility.yul\":18995:19013   */\n      add\n        /* \"#utility.yul\":18982:19014   */\n      calldataload\n        /* \"#utility.yul\":19041:19059   */\n      0xffffffffffffffff\n        /* \"#utility.yul\":19033:19039   */\n      dup2\n        /* \"#utility.yul\":19030:19060   */\n      gt\n        /* \"#utility.yul\":19027:19144   */\n      iszero\n      tag_739\n      jumpi\n        /* \"#utility.yul\":19063:19142   */\n      tag_740\n      tag_435\n      jump\t// in\n    tag_740:\n        /* \"#utility.yul\":19027:19144   */\n    tag_739:\n        /* \"#utility.yul\":19176:19256   */\n      tag_741\n        /* \"#utility.yul\":19248:19255   */\n      dup12\n        /* \"#utility.yul\":19239:19245   */\n      dup3\n        /* \"#utility.yul\":19228:19237   */\n      dup13\n        /* \"#utility.yul\":19224:19246   */\n      add\n        /* \"#utility.yul\":19176:19256   */\n      tag_460\n      jump\t// in\n    tag_741:\n        /* \"#utility.yul\":19158:19256   */\n      swap7\n      pop\n      swap7\n      pop\n        /* \"#utility.yul\":18953:19266   */\n      pop\n        /* \"#utility.yul\":19333:19335   */\n      0x60\n        /* \"#utility.yul\":19322:19331   */\n      dup10\n        /* \"#utility.yul\":19318:19336   */\n      add\n        /* \"#utility.yul\":19305:19337   */\n      calldataload\n        /* \"#utility.yul\":19364:19382   */\n      0xffffffffffffffff\n        /* \"#utility.yul\":19356:19362   */\n      dup2\n        /* \"#utility.yul\":19353:19383   */\n      gt\n        /* \"#utility.yul\":19350:19467   */\n      iszero\n      tag_742\n      jumpi\n        /* \"#utility.yul\":19386:19465   */\n      tag_743\n      tag_435\n      jump\t// in\n    tag_743:\n        /* \"#utility.yul\":19350:19467   */\n    tag_742:\n        /* \"#utility.yul\":19499:19579   */\n      tag_744\n        /* \"#utility.yul\":19571:19578   */\n      dup12\n        /* \"#utility.yul\":19562:19568   */\n      dup3\n        /* \"#utility.yul\":19551:19560   */\n      dup13\n        /* \"#utility.yul\":19547:19569   */\n      add\n        /* \"#utility.yul\":19499:19579   */\n      tag_460\n      jump\t// in\n    tag_744:\n        /* \"#utility.yul\":19481:19579   */\n      swap5\n      pop\n      swap5\n      pop\n        /* \"#utility.yul\":19276:19589   */\n      pop\n        /* \"#utility.yul\":19656:19659   */\n      0x80\n        /* \"#utility.yul\":19645:19654   */\n      dup10\n        /* \"#utility.yul\":19641:19660   */\n      add\n        /* \"#utility.yul\":19628:19661   */\n      calldataload\n        /* \"#utility.yul\":19688:19706   */\n      0xffffffffffffffff\n        /* \"#utility.yul\":19680:19686   */\n      dup2\n        /* \"#utility.yul\":19677:19707   */\n      gt\n        /* \"#utility.yul\":19674:19791   */\n      iszero\n      tag_745\n      jumpi\n        /* \"#utility.yul\":19710:19789   */\n      tag_746\n      tag_435\n      jump\t// in\n    tag_746:\n        /* \"#utility.yul\":19674:19791   */\n    tag_745:\n        /* \"#utility.yul\":19823:19887   */\n      tag_747\n        /* \"#utility.yul\":19879:19886   */\n      dup12\n        /* \"#utility.yul\":19870:19876   */\n      dup3\n        /* \"#utility.yul\":19859:19868   */\n      dup13\n        /* \"#utility.yul\":19855:19877   */\n      add\n        /* \"#utility.yul\":19823:19887   */\n      tag_448\n      jump\t// in\n    tag_747:\n        /* \"#utility.yul\":19805:19887   */\n      swap3\n      pop\n      swap3\n      pop\n        /* \"#utility.yul\":19599:19897   */\n      pop\n        /* \"#utility.yul\":18335:19904   */\n      swap3\n      swap6\n      swap9\n      pop\n      swap3\n      swap6\n      swap9\n      swap1\n      swap4\n      swap7\n      pop\n      jump\t// out\n        /* \"#utility.yul\":19910:20469   */\n    tag_122:\n        /* \"#utility.yul\":19996:20002   */\n      0x00\n        /* \"#utility.yul\":20004:20010   */\n      dup1\n        /* \"#utility.yul\":20053:20055   */\n      0x20\n        /* \"#utility.yul\":20041:20050   */\n      dup4\n        /* \"#utility.yul\":20032:20039   */\n      dup6\n        /* \"#utility.yul\":20028:20051   */\n      sub\n        /* \"#utility.yul\":20024:20056   */\n      slt\n        /* \"#utility.yul\":20021:20140   */\n      iszero\n      tag_749\n      jumpi\n        /* \"#utility.yul\":20059:20138   */\n      tag_750\n      tag_434\n      jump\t// in\n    tag_750:\n        /* \"#utility.yul\":20021:20140   */\n    tag_749:\n        /* \"#utility.yul\":20207:20208   */\n      0x00\n        /* \"#utility.yul\":20196:20205   */\n      dup4\n        /* \"#utility.yul\":20192:20209   */\n      add\n        /* \"#utility.yul\":20179:20210   */\n      calldataload\n        /* \"#utility.yul\":20237:20255   */\n      0xffffffffffffffff\n        /* \"#utility.yul\":20229:20235   */\n      dup2\n        /* \"#utility.yul\":20226:20256   */\n      gt\n        /* \"#utility.yul\":20223:20340   */\n      iszero\n      tag_751\n      jumpi\n        /* \"#utility.yul\":20259:20338   */\n      tag_752\n      tag_435\n      jump\t// in\n    tag_752:\n        /* \"#utility.yul\":20223:20340   */\n    tag_751:\n        /* \"#utility.yul\":20372:20452   */\n      tag_753\n        /* \"#utility.yul\":20444:20451   */\n      dup6\n        /* \"#utility.yul\":20435:20441   */\n      dup3\n        /* \"#utility.yul\":20424:20433   */\n      dup7\n        /* \"#utility.yul\":20420:20442   */\n      add\n        /* \"#utility.yul\":20372:20452   */\n      tag_463\n      jump\t// in\n    tag_753:\n        /* \"#utility.yul\":20354:20452   */\n      swap3\n      pop\n      swap3\n      pop\n        /* \"#utility.yul\":20150:20462   */\n      pop\n        /* \"#utility.yul\":19910:20469   */\n      swap3\n      pop\n      swap3\n      swap1\n      pop\n      jump\t// out\n        /* \"#utility.yul\":20475:21584   */\n    tag_131:\n        /* \"#utility.yul\":20581:20587   */\n      0x00\n        /* \"#utility.yul\":20589:20595   */\n      dup1\n        /* \"#utility.yul\":20597:20603   */\n      0x00\n        /* \"#utility.yul\":20605:20611   */\n      dup1\n        /* \"#utility.yul\":20613:20619   */\n      0x00\n        /* \"#utility.yul\":20621:20627   */\n      dup1\n        /* \"#utility.yul\":20670:20673   */\n      0xa0\n        /* \"#utility.yul\":20658:20667   */\n      dup8\n        /* \"#utility.yul\":20649:20656   */\n      dup10\n        /* \"#utility.yul\":20645:20668   */\n      sub\n        /* \"#utility.yul\":20641:20674   */\n      slt\n        /* \"#utility.yul\":20638:20758   */\n      iszero\n      tag_755\n      jumpi\n        /* \"#utility.yul\":20677:20756   */\n      tag_756\n      tag_434\n      jump\t// in\n    tag_756:\n        /* \"#utility.yul\":20638:20758   */\n    tag_755:\n        /* \"#utility.yul\":20797:20798   */\n      0x00\n        /* \"#utility.yul\":20822:20875   */\n      tag_757\n        /* \"#utility.yul\":20867:20874   */\n      dup10\n        /* \"#utility.yul\":20858:20864   */\n      dup3\n        /* \"#utility.yul\":20847:20856   */\n      dup11\n        /* \"#utility.yul\":20843:20865   */\n      add\n        /* \"#utility.yul\":20822:20875   */\n      tag_442\n      jump\t// in\n    tag_757:\n        /* \"#utility.yul\":20812:20875   */\n      swap7\n      pop\n        /* \"#utility.yul\":20768:20885   */\n      pop\n        /* \"#utility.yul\":20924:20926   */\n      0x20\n        /* \"#utility.yul\":20950:21003   */\n      tag_758\n        /* \"#utility.yul\":20995:21002   */\n      dup10\n        /* \"#utility.yul\":20986:20992   */\n      dup3\n        /* \"#utility.yul\":20975:20984   */\n      dup11\n        /* \"#utility.yul\":20971:20993   */\n      add\n        /* \"#utility.yul\":20950:21003   */\n      tag_442\n      jump\t// in\n    tag_758:\n        /* \"#utility.yul\":20940:21003   */\n      swap6\n      pop\n        /* \"#utility.yul\":20895:21013   */\n      pop\n        /* \"#utility.yul\":21052:21054   */\n      0x40\n        /* \"#utility.yul\":21078:21131   */\n      tag_759\n        /* \"#utility.yul\":21123:21130   */\n      dup10\n        /* \"#utility.yul\":21114:21120   */\n      dup3\n        /* \"#utility.yul\":21103:21112   */\n      dup11\n        /* \"#utility.yul\":21099:21121   */\n      add\n        /* \"#utility.yul\":21078:21131   */\n      tag_444\n      jump\t// in\n    tag_759:\n        /* \"#utility.yul\":21068:21131   */\n      swap5\n      pop\n        /* \"#utility.yul\":21023:21141   */\n      pop\n        /* \"#utility.yul\":21180:21182   */\n      0x60\n        /* \"#utility.yul\":21206:21259   */\n      tag_760\n        /* \"#utility.yul\":21251:21258   */\n      dup10\n        /* \"#utility.yul\":21242:21248   */\n      dup3\n        /* \"#utility.yul\":21231:21240   */\n      dup11\n        /* \"#utility.yul\":21227:21249   */\n      add\n        /* \"#utility.yul\":21206:21259   */\n      tag_444\n      jump\t// in\n    tag_760:\n        /* \"#utility.yul\":21196:21259   */\n      swap4\n      pop\n        /* \"#utility.yul\":21151:21269   */\n      pop\n        /* \"#utility.yul\":21336:21339   */\n      0x80\n        /* \"#utility.yul\":21325:21334   */\n      dup8\n        /* \"#utility.yul\":21321:21340   */\n      add\n        /* \"#utility.yul\":21308:21341   */\n      calldataload\n        /* \"#utility.yul\":21368:21386   */\n      0xffffffffffffffff\n        /* \"#utility.yul\":21360:21366   */\n      dup2\n        /* \"#utility.yul\":21357:21387   */\n      gt\n        /* \"#utility.yul\":21354:21471   */\n      iszero\n      tag_761\n      jumpi\n        /* \"#utility.yul\":21390:21469   */\n      tag_762\n      tag_435\n      jump\t// in\n    tag_762:\n        /* \"#utility.yul\":21354:21471   */\n    tag_761:\n        /* \"#utility.yul\":21503:21567   */\n      tag_763\n        /* \"#utility.yul\":21559:21566   */\n      dup10\n        /* \"#utility.yul\":21550:21556   */\n      dup3\n        /* \"#utility.yul\":21539:21548   */\n      dup11\n        /* \"#utility.yul\":21535:21557   */\n      add\n        /* \"#utility.yul\":21503:21567   */\n      tag_448\n      jump\t// in\n    tag_763:\n        /* \"#utility.yul\":21485:21567   */\n      swap3\n      pop\n      swap3\n      pop\n        /* \"#utility.yul\":21279:21577   */\n      pop\n        /* \"#utility.yul\":20475:21584   */\n      swap3\n      swap6\n      pop\n      swap3\n      swap6\n      pop\n      swap3\n      swap6\n      jump\t// out\n        /* \"#utility.yul\":21590:21759   */\n    tag_464:\n        /* \"#utility.yul\":21674:21685   */\n      0x00\n        /* \"#utility.yul\":21708:21714   */\n      dup3\n        /* \"#utility.yul\":21703:21706   */\n      dup3\n        /* \"#utility.yul\":21696:21715   */\n      mstore\n        /* \"#utility.yul\":21748:21752   */\n      0x20\n        /* \"#utility.yul\":21743:21746   */\n      dup3\n        /* \"#utility.yul\":21739:21753   */\n      add\n        /* \"#utility.yul\":21724:21753   */\n      swap1\n      pop\n        /* \"#utility.yul\":21590:21759   */\n      swap3\n      swap2\n      pop\n      pop\n      jump\t// out\n        /* \"#utility.yul\":21765:21946   */\n    tag_465:\n        /* \"#utility.yul\":21905:21938   */\n      0x4e6f6e2d7369676e657220696e206f6e6c795369676e6572206d6574686f6400\n        /* \"#utility.yul\":21901:21902   */\n      0x00\n        /* \"#utility.yul\":21893:21899   */\n      dup3\n        /* \"#utility.yul\":21889:21903   */\n      add\n        /* \"#utility.yul\":21882:21939   */\n      mstore\n        /* \"#utility.yul\":21765:21946   */\n      pop\n      jump\t// out\n        /* \"#utility.yul\":21952:22318   */\n    tag_466:\n        /* \"#utility.yul\":22094:22097   */\n      0x00\n        /* \"#utility.yul\":22115:22182   */\n      tag_767\n        /* \"#utility.yul\":22179:22181   */\n      0x1f\n        /* \"#utility.yul\":22174:22177   */\n      dup4\n        /* \"#utility.yul\":22115:22182   */\n      tag_464\n      jump\t// in\n    tag_767:\n        /* \"#utility.yul\":22108:22182   */\n      swap2\n      pop\n        /* \"#utility.yul\":22191:22284   */\n      tag_768\n        /* \"#utility.yul\":22280:22283   */\n      dup3\n        /* \"#utility.yul\":22191:22284   */\n      tag_465\n      jump\t// in\n    tag_768:\n        /* \"#utility.yul\":22309:22311   */\n      0x20\n        /* \"#utility.yul\":22304:22307   */\n      dup3\n        /* \"#utility.yul\":22300:22312   */\n      add\n        /* \"#utility.yul\":22293:22312   */\n      swap1\n      pop\n        /* \"#utility.yul\":21952:22318   */\n      swap2\n      swap1\n      pop\n      jump\t// out\n        /* \"#utility.yul\":22324:22743   */\n    tag_145:\n        /* \"#utility.yul\":22490:22494   */\n      0x00\n        /* \"#utility.yul\":22528:22530   */\n      0x20\n        /* \"#utility.yul\":22517:22526   */\n      dup3\n        /* \"#utility.yul\":22513:22531   */\n      add\n        /* \"#utility.yul\":22505:22531   */\n      swap1\n      pop\n        /* \"#utility.yul\":22577:22586   */\n      dup2\n        /* \"#utility.yul\":22571:22575   */\n      dup2\n        /* \"#utility.yul\":22567:22587   */\n      sub\n        /* \"#utility.yul\":22563:22564   */\n      0x00\n        /* \"#utility.yul\":22552:22561   */\n      dup4\n        /* \"#utility.yul\":22548:22565   */\n      add\n        /* \"#utility.yul\":22541:22588   */\n      mstore\n        /* \"#utility.yul\":22605:22736   */\n      tag_770\n        /* \"#utility.yul\":22731:22735   */\n      dup2\n        /* \"#utility.yul\":22605:22736   */\n      tag_466\n      jump\t// in\n    tag_770:\n        /* \"#utility.yul\":22597:22736   */\n      swap1\n      pop\n        /* \"#utility.yul\":22324:22743   */\n      swap2\n      swap1\n      pop\n      jump\t// out\n        /* \"#utility.yul\":22749:22848   */\n    tag_467:\n        /* \"#utility.yul\":22801:22807   */\n      0x00\n        /* \"#utility.yul\":22835:22840   */\n      dup2\n        /* \"#utility.yul\":22829:22841   */\n      mload\n        /* \"#utility.yul\":22819:22841   */\n      swap1\n      pop\n        /* \"#utility.yul\":22749:22848   */\n      swap2\n      swap1\n      pop\n      jump\t// out\n        /* \"#utility.yul\":22854:23002   */\n    tag_468:\n        /* \"#utility.yul\":22956:22967   */\n      0x00\n        /* \"#utility.yul\":22993:22996   */\n      dup2\n        /* \"#utility.yul\":22978:22996   */\n      swap1\n      pop\n        /* \"#utility.yul\":22854:23002   */\n      swap3\n      swap2\n      pop\n      pop\n      jump\t// out\n        /* \"#utility.yul\":23008:23315   */\n    tag_469:\n        /* \"#utility.yul\":23076:23077   */\n      0x00\n        /* \"#utility.yul\":23086:23199   */\n    tag_774:\n        /* \"#utility.yul\":23100:23106   */\n      dup4\n        /* \"#utility.yul\":23097:23098   */\n      dup2\n        /* \"#utility.yul\":23094:23107   */\n      lt\n        /* \"#utility.yul\":23086:23199   */\n      iszero\n      tag_776\n      jumpi\n        /* \"#utility.yul\":23185:23186   */\n      dup1\n        /* \"#utility.yul\":23180:23183   */\n      dup3\n        /* \"#utility.yul\":23176:23187   */\n      add\n        /* \"#utility.yul\":23170:23188   */\n      mload\n        /* \"#utility.yul\":23166:23167   */\n      dup2\n        /* \"#utility.yul\":23161:23164   */\n      dup5\n        /* \"#utility.yul\":23157:23168   */\n      add\n        /* \"#utility.yul\":23150:23189   */\n      mstore\n        /* \"#utility.yul\":23122:23124   */\n      0x20\n        /* \"#utility.yul\":23119:23120   */\n      dup2\n        /* \"#utility.yul\":23115:23125   */\n      add\n        /* \"#utility.yul\":23110:23125   */\n      swap1\n      pop\n        /* \"#utility.yul\":23086:23199   */\n      jump(tag_774)\n    tag_776:\n        /* \"#utility.yul\":23217:23223   */\n      dup4\n        /* \"#utility.yul\":23214:23215   */\n      dup2\n        /* \"#utility.yul\":23211:23224   */\n      gt\n        /* \"#utility.yul\":23208:23309   */\n      iszero\n      tag_777\n      jumpi\n        /* \"#utility.yul\":23297:23298   */\n      0x00\n        /* \"#utility.yul\":23288:23294   */\n      dup5\n        /* \"#utility.yul\":23283:23286   */\n      dup5\n        /* \"#utility.yul\":23279:23295   */\n      add\n        /* \"#utility.yul\":23272:23299   */\n      mstore\n        /* \"#utility.yul\":23208:23309   */\n    tag_777:\n        /* \"#utility.yul\":23057:23315   */\n      pop\n        /* \"#utility.yul\":23008:23315   */\n      pop\n      pop\n      pop\n      jump\t// out\n        /* \"#utility.yul\":23321:23698   */\n    tag_470:\n        /* \"#utility.yul\":23427:23430   */\n      0x00\n        /* \"#utility.yul\":23455:23494   */\n      tag_779\n        /* \"#utility.yul\":23488:23493   */\n      dup3\n        /* \"#utility.yul\":23455:23494   */\n      tag_467\n      jump\t// in\n    tag_779:\n        /* \"#utility.yul\":23510:23599   */\n      tag_780\n        /* \"#utility.yul\":23592:23598   */\n      dup2\n        /* \"#utility.yul\":23587:23590   */\n      dup6\n        /* \"#utility.yul\":23510:23599   */\n      tag_468\n      jump\t// in\n    tag_780:\n        /* \"#utility.yul\":23503:23599   */\n      swap4\n      pop\n        /* \"#utility.yul\":23608:23660   */\n      tag_781\n        /* \"#utility.yul\":23653:23659   */\n      dup2\n        /* \"#utility.yul\":23648:23651   */\n      dup6\n        /* \"#utility.yul\":23641:23645   */\n      0x20\n        /* \"#utility.yul\":23634:23639   */\n      dup7\n        /* \"#utility.yul\":23630:23646   */\n      add\n        /* \"#utility.yul\":23608:23660   */\n      tag_469\n      jump\t// in\n    tag_781:\n        /* \"#utility.yul\":23685:23691   */\n      dup1\n        /* \"#utility.yul\":23680:23683   */\n      dup5\n        /* \"#utility.yul\":23676:23692   */\n      add\n        /* \"#utility.yul\":23669:23692   */\n      swap2\n      pop\n        /* \"#utility.yul\":23431:23698   */\n      pop\n        /* \"#utility.yul\":23321:23698   */\n      swap3\n      swap2\n      pop\n      pop\n      jump\t// out\n        /* \"#utility.yul\":23704:23798   */\n    tag_471:\n        /* \"#utility.yul\":23737:23745   */\n      0x00\n        /* \"#utility.yul\":23785:23790   */\n      dup2\n        /* \"#utility.yul\":23781:23783   */\n      0x60\n        /* \"#utility.yul\":23777:23791   */\n      shl\n        /* \"#utility.yul\":23756:23791   */\n      swap1\n      pop\n        /* \"#utility.yul\":23704:23798   */\n      swap2\n      swap1\n      pop\n      jump\t// out\n        /* \"#utility.yul\":23804:23898   */\n    tag_472:\n        /* \"#utility.yul\":23843:23850   */\n      0x00\n        /* \"#utility.yul\":23872:23892   */\n      tag_784\n        /* \"#utility.yul\":23886:23891   */\n      dup3\n        /* \"#utility.yul\":23872:23892   */\n      tag_471\n      jump\t// in\n    tag_784:\n        /* \"#utility.yul\":23861:23892   */\n      swap1\n      pop\n        /* \"#utility.yul\":23804:23898   */\n      swap2\n      swap1\n      pop\n      jump\t// out\n        /* \"#utility.yul\":23904:24004   */\n    tag_473:\n        /* \"#utility.yul\":23943:23950   */\n      0x00\n        /* \"#utility.yul\":23972:23998   */\n      tag_786\n        /* \"#utility.yul\":23992:23997   */\n      dup3\n        /* \"#utility.yul\":23972:23998   */\n      tag_472\n      jump\t// in\n    tag_786:\n        /* \"#utility.yul\":23961:23998   */\n      swap1\n      pop\n        /* \"#utility.yul\":23904:24004   */\n      swap2\n      swap1\n      pop\n      jump\t// out\n        /* \"#utility.yul\":24010:24167   */\n    tag_474:\n        /* \"#utility.yul\":24115:24160   */\n      tag_788\n        /* \"#utility.yul\":24135:24159   */\n      tag_789\n        /* \"#utility.yul\":24153:24158   */\n      dup3\n        /* \"#utility.yul\":24135:24159   */\n      tag_423\n      jump\t// in\n    tag_789:\n        /* \"#utility.yul\":24115:24160   */\n      tag_473\n      jump\t// in\n    tag_788:\n        /* \"#utility.yul\":24110:24113   */\n      dup3\n        /* \"#utility.yul\":24103:24161   */\n      mstore\n        /* \"#utility.yul\":24010:24167   */\n      pop\n      pop\n      jump\t// out\n        /* \"#utility.yul\":24173:24252   */\n    tag_475:\n        /* \"#utility.yul\":24212:24219   */\n      0x00\n        /* \"#utility.yul\":24241:24246   */\n      dup2\n        /* \"#utility.yul\":24230:24246   */\n      swap1\n      pop\n        /* \"#utility.yul\":24173:24252   */\n      swap2\n      swap1\n      pop\n      jump\t// out\n        /* \"#utility.yul\":24258:24415   */\n    tag_476:\n        /* \"#utility.yul\":24363:24408   */\n      tag_792\n        /* \"#utility.yul\":24383:24407   */\n      tag_793\n        /* \"#utility.yul\":24401:24406   */\n      dup3\n        /* \"#utility.yul\":24383:24407   */\n      tag_425\n      jump\t// in\n    tag_793:\n        /* \"#utility.yul\":24363:24408   */\n      tag_475\n      jump\t// in\n    tag_792:\n        /* \"#utility.yul\":24358:24361   */\n      dup3\n        /* \"#utility.yul\":24351:24409   */\n      mstore\n        /* \"#utility.yul\":24258:24415   */\n      pop\n      pop\n      jump\t// out\n        /* \"#utility.yul\":24421:25401   */\n    tag_150:\n        /* \"#utility.yul\":24693:24696   */\n      0x00\n        /* \"#utility.yul\":24715:24810   */\n      tag_795\n        /* \"#utility.yul\":24806:24809   */\n      dup3\n        /* \"#utility.yul\":24797:24803   */\n      dup10\n        /* \"#utility.yul\":24715:24810   */\n      tag_470\n      jump\t// in\n    tag_795:\n        /* \"#utility.yul\":24708:24810   */\n      swap2\n      pop\n        /* \"#utility.yul\":24820:24895   */\n      tag_796\n        /* \"#utility.yul\":24891:24894   */\n      dup3\n        /* \"#utility.yul\":24882:24888   */\n      dup9\n        /* \"#utility.yul\":24820:24895   */\n      tag_474\n      jump\t// in\n    tag_796:\n        /* \"#utility.yul\":24920:24922   */\n      0x14\n        /* \"#utility.yul\":24915:24918   */\n      dup3\n        /* \"#utility.yul\":24911:24923   */\n      add\n        /* \"#utility.yul\":24904:24923   */\n      swap2\n      pop\n        /* \"#utility.yul\":24933:25008   */\n      tag_797\n        /* \"#utility.yul\":25004:25007   */\n      dup3\n        /* \"#utility.yul\":24995:25001   */\n      dup8\n        /* \"#utility.yul\":24933:25008   */\n      tag_476\n      jump\t// in\n    tag_797:\n        /* \"#utility.yul\":25033:25035   */\n      0x20\n        /* \"#utility.yul\":25028:25031   */\n      dup3\n        /* \"#utility.yul\":25024:25036   */\n      add\n        /* \"#utility.yul\":25017:25036   */\n      swap2\n      pop\n        /* \"#utility.yul\":25046:25121   */\n      tag_798\n        /* \"#utility.yul\":25117:25120   */\n      dup3\n        /* \"#utility.yul\":25108:25114   */\n      dup7\n        /* \"#utility.yul\":25046:25121   */\n      tag_474\n      jump\t// in\n    tag_798:\n        /* \"#utility.yul\":25146:25148   */\n      0x14\n        /* \"#utility.yul\":25141:25144   */\n      dup3\n        /* \"#utility.yul\":25137:25149   */\n      add\n        /* \"#utility.yul\":25130:25149   */\n      swap2\n      pop\n        /* \"#utility.yul\":25159:25234   */\n      tag_799\n        /* \"#utility.yul\":25230:25233   */\n      dup3\n        /* \"#utility.yul\":25221:25227   */\n      dup6\n        /* \"#utility.yul\":25159:25234   */\n      tag_476\n      jump\t// in\n    tag_799:\n        /* \"#utility.yul\":25259:25261   */\n      0x20\n        /* \"#utility.yul\":25254:25257   */\n      dup3\n        /* \"#utility.yul\":25250:25262   */\n      add\n        /* \"#utility.yul\":25243:25262   */\n      swap2\n      pop\n        /* \"#utility.yul\":25272:25347   */\n      tag_800\n        /* \"#utility.yul\":25343:25346   */\n      dup3\n        /* \"#utility.yul\":25334:25340   */\n      dup5\n        /* \"#utility.yul\":25272:25347   */\n      tag_476\n      jump\t// in\n    tag_800:\n        /* \"#utility.yul\":25372:25374   */\n      0x20\n        /* \"#utility.yul\":25367:25370   */\n      dup3\n        /* \"#utility.yul\":25363:25375   */\n      add\n        /* \"#utility.yul\":25356:25375   */\n      swap2\n      pop\n        /* \"#utility.yul\":25392:25395   */\n      dup2\n        /* \"#utility.yul\":25385:25395   */\n      swap1\n      pop\n        /* \"#utility.yul\":24421:25401   */\n      swap8\n      swap7\n      pop\n      pop\n      pop\n      pop\n      pop\n      pop\n      pop\n      jump\t// out\n        /* \"#utility.yul\":25407:25629   */\n    tag_162:\n        /* \"#utility.yul\":25500:25504   */\n      0x00\n        /* \"#utility.yul\":25538:25540   */\n      0x20\n        /* \"#utility.yul\":25527:25536   */\n      dup3\n        /* \"#utility.yul\":25523:25541   */\n      add\n        /* \"#utility.yul\":25515:25541   */\n      swap1\n      pop\n        /* \"#utility.yul\":25551:25622   */\n      tag_802\n        /* \"#utility.yul\":25619:25620   */\n      0x00\n        /* \"#utility.yul\":25608:25617   */\n      dup4\n        /* \"#utility.yul\":25604:25621   */\n      add\n        /* \"#utility.yul\":25595:25601   */\n      dup5\n        /* \"#utility.yul\":25551:25622   */\n      tag_424\n      jump\t// in\n    tag_802:\n        /* \"#utility.yul\":25407:25629   */\n      swap3\n      swap2\n      pop\n      pop\n      jump\t// out\n        /* \"#utility.yul\":25635:25819   */\n    tag_477:\n        /* \"#utility.yul\":25734:25745   */\n      0x00\n        /* \"#utility.yul\":25768:25774   */\n      dup3\n        /* \"#utility.yul\":25763:25766   */\n      dup3\n        /* \"#utility.yul\":25756:25775   */\n      mstore\n        /* \"#utility.yul\":25808:25812   */\n      0x20\n        /* \"#utility.yul\":25803:25806   */\n      dup3\n        /* \"#utility.yul\":25799:25813   */\n      add\n        /* \"#utility.yul\":25784:25813   */\n      swap1\n      pop\n        /* \"#utility.yul\":25635:25819   */\n      swap3\n      swap2\n      pop\n      pop\n      jump\t// out\n        /* \"#utility.yul\":25825:25942   */\n    tag_478:\n        /* \"#utility.yul\":25934:25935   */\n      0x00\n        /* \"#utility.yul\":25931:25932   */\n      dup1\n        /* \"#utility.yul\":25924:25936   */\n      revert\n        /* \"#utility.yul\":25978:26515   */\n    tag_479:\n        /* \"#utility.yul\":26106:26109   */\n      0x00\n        /* \"#utility.yul\":26127:26213   */\n      tag_806\n        /* \"#utility.yul\":26206:26212   */\n      dup4\n        /* \"#utility.yul\":26201:26204   */\n      dup6\n        /* \"#utility.yul\":26127:26213   */\n      tag_477\n      jump\t// in\n    tag_806:\n        /* \"#utility.yul\":26120:26213   */\n      swap4\n      pop\n        /* \"#utility.yul\":26237:26303   */\n      0x07ffffffffffffffffffffffffffffffffffffffffffffffffffffffffffffff\n        /* \"#utility.yul\":26229:26235   */\n      dup4\n        /* \"#utility.yul\":26226:26304   */\n      gt\n        /* \"#utility.yul\":26223:26388   */\n      iszero\n      tag_807\n      jumpi\n        /* \"#utility.yul\":26307:26386   */\n      tag_808\n      tag_478\n      jump\t// in\n    tag_808:\n        /* \"#utility.yul\":26223:26388   */\n    tag_807:\n        /* \"#utility.yul\":26419:26423   */\n      0x20\n        /* \"#utility.yul\":26411:26417   */\n      dup4\n        /* \"#utility.yul\":26407:26424   */\n      mul\n        /* \"#utility.yul\":26397:26424   */\n      swap3\n      pop\n        /* \"#utility.yul\":26434:26477   */\n      tag_809\n        /* \"#utility.yul\":26470:26476   */\n      dup4\n        /* \"#utility.yul\":26465:26468   */\n      dup6\n        /* \"#utility.yul\":26458:26463   */\n      dup5\n        /* \"#utility.yul\":26434:26477   */\n      tag_430\n      jump\t// in\n    tag_809:\n        /* \"#utility.yul\":26502:26508   */\n      dup3\n        /* \"#utility.yul\":26497:26500   */\n      dup5\n        /* \"#utility.yul\":26493:26509   */\n      add\n        /* \"#utility.yul\":26486:26509   */\n      swap1\n      pop\n        /* \"#utility.yul\":25978:26515   */\n      swap4\n      swap3\n      pop\n      pop\n      pop\n      jump\t// out\n        /* \"#utility.yul\":26521:27024   */\n    tag_172:\n        /* \"#utility.yul\":26702:26706   */\n      0x00\n        /* \"#utility.yul\":26740:26742   */\n      0x40\n        /* \"#utility.yul\":26729:26738   */\n      dup3\n        /* \"#utility.yul\":26725:26743   */\n      add\n        /* \"#utility.yul\":26717:26743   */\n      swap1\n      pop\n        /* \"#utility.yul\":26753:26824   */\n      tag_811\n        /* \"#utility.yul\":26821:26822   */\n      0x00\n        /* \"#utility.yul\":26810:26819   */\n      dup4\n        /* \"#utility.yul\":26806:26823   */\n      add\n        /* \"#utility.yul\":26797:26803   */\n      dup7\n        /* \"#utility.yul\":26753:26824   */\n      tag_424\n      jump\t// in\n    tag_811:\n        /* \"#utility.yul\":26871:26880   */\n      dup2\n        /* \"#utility.yul\":26865:26869   */\n      dup2\n        /* \"#utility.yul\":26861:26881   */\n      sub\n        /* \"#utility.yul\":26856:26858   */\n      0x20\n        /* \"#utility.yul\":26845:26854   */\n      dup4\n        /* \"#utility.yul\":26841:26859   */\n      add\n        /* \"#utility.yul\":26834:26882   */\n      mstore\n        /* \"#utility.yul\":26899:27017   */\n      tag_812\n        /* \"#utility.yul\":27012:27016   */\n      dup2\n        /* \"#utility.yul\":27003:27009   */\n      dup5\n        /* \"#utility.yul\":26995:27001   */\n      dup7\n        /* \"#utility.yul\":26899:27017   */\n      tag_479\n      jump\t// in\n    tag_812:\n        /* \"#utility.yul\":26891:27017   */\n      swap1\n      pop\n        /* \"#utility.yul\":26521:27024   */\n      swap5\n      swap4\n      pop\n      pop\n      pop\n      pop\n      jump\t// out\n        /* \"#utility.yul\":27030:27177   */\n    tag_480:\n        /* \"#utility.yul\":27131:27142   */\n      0x00\n        /* \"#utility.yul\":27168:27171   */\n      dup2\n        /* \"#utility.yul\":27153:27171   */\n      swap1\n      pop\n        /* \"#utility.yul\":27030:27177   */\n      swap3\n      swap2\n      pop\n      pop\n      jump\t// out\n        /* \"#utility.yul\":27205:27519   */\n    tag_481:\n        /* \"#utility.yul\":27319:27322   */\n      0x00\n        /* \"#utility.yul\":27340:27428   */\n      tag_815\n        /* \"#utility.yul\":27421:27427   */\n      dup4\n        /* \"#utility.yul\":27416:27419   */\n      dup6\n        /* \"#utility.yul\":27340:27428   */\n      tag_480\n      jump\t// in\n    tag_815:\n        /* \"#utility.yul\":27333:27428   */\n      swap4\n      pop\n        /* \"#utility.yul\":27438:27481   */\n      tag_816\n        /* \"#utility.yul\":27474:27480   */\n      dup4\n        /* \"#utility.yul\":27469:27472   */\n      dup6\n        /* \"#utility.yul\":27462:27467   */\n      dup5\n        /* \"#utility.yul\":27438:27481   */\n      tag_430\n      jump\t// in\n    tag_816:\n        /* \"#utility.yul\":27506:27512   */\n      dup3\n        /* \"#utility.yul\":27501:27504   */\n      dup5\n        /* \"#utility.yul\":27497:27513   */\n      add\n        /* \"#utility.yul\":27490:27513   */\n      swap1\n      pop\n        /* \"#utility.yul\":27205:27519   */\n      swap4\n      swap3\n      pop\n      pop\n      pop\n      jump\t// out\n        /* \"#utility.yul\":27525:28540   */\n    tag_184:\n        /* \"#utility.yul\":27825:27828   */\n      0x00\n        /* \"#utility.yul\":27847:27942   */\n      tag_818\n        /* \"#utility.yul\":27938:27941   */\n      dup3\n        /* \"#utility.yul\":27929:27935   */\n      dup11\n        /* \"#utility.yul\":27847:27942   */\n      tag_470\n      jump\t// in\n    tag_818:\n        /* \"#utility.yul\":27840:27942   */\n      swap2\n      pop\n        /* \"#utility.yul\":27952:28027   */\n      tag_819\n        /* \"#utility.yul\":28023:28026   */\n      dup3\n        /* \"#utility.yul\":28014:28020   */\n      dup10\n        /* \"#utility.yul\":27952:28027   */\n      tag_474\n      jump\t// in\n    tag_819:\n        /* \"#utility.yul\":28052:28054   */\n      0x14\n        /* \"#utility.yul\":28047:28050   */\n      dup3\n        /* \"#utility.yul\":28043:28055   */\n      add\n        /* \"#utility.yul\":28036:28055   */\n      swap2\n      pop\n        /* \"#utility.yul\":28065:28140   */\n      tag_820\n        /* \"#utility.yul\":28136:28139   */\n      dup3\n        /* \"#utility.yul\":28127:28133   */\n      dup9\n        /* \"#utility.yul\":28065:28140   */\n      tag_476\n      jump\t// in\n    tag_820:\n        /* \"#utility.yul\":28165:28167   */\n      0x20\n        /* \"#utility.yul\":28160:28163   */\n      dup3\n        /* \"#utility.yul\":28156:28168   */\n      add\n        /* \"#utility.yul\":28149:28168   */\n      swap2\n      pop\n        /* \"#utility.yul\":28185:28288   */\n      tag_821\n        /* \"#utility.yul\":28284:28287   */\n      dup3\n        /* \"#utility.yul\":28275:28281   */\n      dup7\n        /* \"#utility.yul\":28267:28273   */\n      dup9\n        /* \"#utility.yul\":28185:28288   */\n      tag_481\n      jump\t// in\n    tag_821:\n        /* \"#utility.yul\":28178:28288   */\n      swap2\n      pop\n        /* \"#utility.yul\":28298:28373   */\n      tag_822\n        /* \"#utility.yul\":28369:28372   */\n      dup3\n        /* \"#utility.yul\":28360:28366   */\n      dup6\n        /* \"#utility.yul\":28298:28373   */\n      tag_476\n      jump\t// in\n    tag_822:\n        /* \"#utility.yul\":28398:28400   */\n      0x20\n        /* \"#utility.yul\":28393:28396   */\n      dup3\n        /* \"#utility.yul\":28389:28401   */\n      add\n        /* \"#utility.yul\":28382:28401   */\n      swap2\n      pop\n        /* \"#utility.yul\":28411:28486   */\n      tag_823\n        /* \"#utility.yul\":28482:28485   */\n      dup3\n        /* \"#utility.yul\":28473:28479   */\n      dup5\n        /* \"#utility.yul\":28411:28486   */\n      tag_476\n      jump\t// in\n    tag_823:\n        /* \"#utility.yul\":28511:28513   */\n      0x20\n        /* \"#utility.yul\":28506:28509   */\n      dup3\n        /* \"#utility.yul\":28502:28514   */\n      add\n        /* \"#utility.yul\":28495:28514   */\n      swap2\n      pop\n        /* \"#utility.yul\":28531:28534   */\n      dup2\n        /* \"#utility.yul\":28524:28534   */\n      swap1\n      pop\n        /* \"#utility.yul\":27525:28540   */\n      swap9\n      swap8\n      pop\n      pop\n      pop\n      pop\n      pop\n      pop\n      pop\n      pop\n      jump\t// out\n        /* \"#utility.yul\":28546:28837   */\n    tag_187:\n        /* \"#utility.yul\":28686:28689   */\n      0x00\n        /* \"#utility.yul\":28708:28811   */\n      tag_825\n        /* \"#utility.yul\":28807:28810   */\n      dup3\n        /* \"#utility.yul\":28798:28804   */\n      dup5\n        /* \"#utility.yul\":28790:28796   */\n      dup7\n        /* \"#utility.yul\":28708:28811   */\n      tag_481\n      jump\t// in\n    tag_825:\n        /* \"#utility.yul\":28701:28811   */\n      swap2\n      pop\n        /* \"#utility.yul\":28828:28831   */\n      dup2\n        /* \"#utility.yul\":28821:28831   */\n      swap1\n      pop\n        /* \"#utility.yul\":28546:28837   */\n      swap4\n      swap3\n      pop\n      pop\n      pop\n      jump\t// out\n        /* \"#utility.yul\":28843:29014   */\n    tag_482:\n        /* \"#utility.yul\":28983:29006   */\n      0x43616c6c20657865637574696f6e206661696c65640000000000000000000000\n        /* \"#utility.yul\":28979:28980   */\n      0x00\n        /* \"#utility.yul\":28971:28977   */\n      dup3\n        /* \"#utility.yul\":28967:28981   */\n      add\n        /* \"#utility.yul\":28960:29007   */\n      mstore\n        /* \"#utility.yul\":28843:29014   */\n      pop\n      jump\t// out\n        /* \"#utility.yul\":29020:29386   */\n    tag_483:\n        /* \"#utility.yul\":29162:29165   */\n      0x00\n        /* \"#utility.yul\":29183:29250   */\n      tag_828\n        /* \"#utility.yul\":29247:29249   */\n      0x15\n        /* \"#utility.yul\":29242:29245   */\n      dup4\n        /* \"#utility.yul\":29183:29250   */\n      tag_464\n      jump\t// in\n    tag_828:\n        /* \"#utility.yul\":29176:29250   */\n      swap2\n      pop\n        /* \"#utility.yul\":29259:29352   */\n      tag_829\n        /* \"#utility.yul\":29348:29351   */\n      dup3\n        /* \"#utility.yul\":29259:29352   */\n      tag_482\n      jump\t// in\n    tag_829:\n        /* \"#utility.yul\":29377:29379   */\n      0x20\n        /* \"#utility.yul\":29372:29375   */\n      dup3\n        /* \"#utility.yul\":29368:29380   */\n      add\n        /* \"#utility.yul\":29361:29380   */\n      swap1\n      pop\n        /* \"#utility.yul\":29020:29386   */\n      swap2\n      swap1\n      pop\n      jump\t// out\n        /* \"#utility.yul\":29392:29811   */\n    tag_193:\n        /* \"#utility.yul\":29558:29562   */\n      0x00\n        /* \"#utility.yul\":29596:29598   */\n      0x20\n        /* \"#utility.yul\":29585:29594   */\n      dup3\n        /* \"#utility.yul\":29581:29599   */\n      add\n        /* \"#utility.yul\":29573:29599   */\n      swap1\n      pop\n        /* \"#utility.yul\":29645:29654   */\n      dup2\n        /* \"#utility.yul\":29639:29643   */\n      dup2\n        /* \"#utility.yul\":29635:29655   */\n      sub\n        /* \"#utility.yul\":29631:29632   */\n      0x00\n        /* \"#utility.yul\":29620:29629   */\n      dup4\n        /* \"#utility.yul\":29616:29633   */\n      add\n        /* \"#utility.yul\":29609:29656   */\n      mstore\n        /* \"#utility.yul\":29673:29804   */\n      tag_831\n        /* \"#utility.yul\":29799:29803   */\n      dup2\n        /* \"#utility.yul\":29673:29804   */\n      tag_483\n      jump\t// in\n    tag_831:\n        /* \"#utility.yul\":29665:29804   */\n      swap1\n      pop\n        /* \"#utility.yul\":29392:29811   */\n      swap2\n      swap1\n      pop\n      jump\t// out\n        /* \"#utility.yul\":29817:29894   */\n    tag_484:\n        /* \"#utility.yul\":29854:29861   */\n      0x00\n        /* \"#utility.yul\":29883:29888   */\n      dup2\n        /* \"#utility.yul\":29872:29888   */\n      swap1\n      pop\n        /* \"#utility.yul\":29817:29894   */\n      swap2\n      swap1\n      pop\n      jump\t// out\n        /* \"#utility.yul\":29900:30018   */\n    tag_485:\n        /* \"#utility.yul\":29987:30011   */\n      tag_834\n        /* \"#utility.yul\":30005:30010   */\n      dup2\n        /* \"#utility.yul\":29987:30011   */\n      tag_484\n      jump\t// in\n    tag_834:\n        /* \"#utility.yul\":29982:29985   */\n      dup3\n        /* \"#utility.yul\":29975:30012   */\n      mstore\n        /* \"#utility.yul\":29900:30018   */\n      pop\n      pop\n      jump\t// out\n        /* \"#utility.yul\":30024:30906   */\n    tag_195:\n        /* \"#utility.yul\":30285:30289   */\n      0x00\n        /* \"#utility.yul\":30323:30326   */\n      0xc0\n        /* \"#utility.yul\":30312:30321   */\n      dup3\n        /* \"#utility.yul\":30308:30327   */\n      add\n        /* \"#utility.yul\":30300:30327   */\n      swap1\n      pop\n        /* \"#utility.yul\":30337:30408   */\n      tag_836\n        /* \"#utility.yul\":30405:30406   */\n      0x00\n        /* \"#utility.yul\":30394:30403   */\n      dup4\n        /* \"#utility.yul\":30390:30407   */\n      add\n        /* \"#utility.yul\":30381:30387   */\n      dup11\n        /* \"#utility.yul\":30337:30408   */\n      tag_424\n      jump\t// in\n    tag_836:\n        /* \"#utility.yul\":30418:30490   */\n      tag_837\n        /* \"#utility.yul\":30486:30488   */\n      0x20\n        /* \"#utility.yul\":30475:30484   */\n      dup4\n        /* \"#utility.yul\":30471:30489   */\n      add\n        /* \"#utility.yul\":30462:30468   */\n      dup10\n        /* \"#utility.yul\":30418:30490   */\n      tag_424\n      jump\t// in\n    tag_837:\n        /* \"#utility.yul\":30500:30572   */\n      tag_838\n        /* \"#utility.yul\":30568:30570   */\n      0x40\n        /* \"#utility.yul\":30557:30566   */\n      dup4\n        /* \"#utility.yul\":30553:30571   */\n      add\n        /* \"#utility.yul\":30544:30550   */\n      dup9\n        /* \"#utility.yul\":30500:30572   */\n      tag_485\n      jump\t// in\n    tag_838:\n        /* \"#utility.yul\":30582:30654   */\n      tag_839\n        /* \"#utility.yul\":30650:30652   */\n      0x60\n        /* \"#utility.yul\":30639:30648   */\n      dup4\n        /* \"#utility.yul\":30635:30653   */\n      add\n        /* \"#utility.yul\":30626:30632   */\n      dup8\n        /* \"#utility.yul\":30582:30654   */\n      tag_424\n      jump\t// in\n    tag_839:\n        /* \"#utility.yul\":30664:30737   */\n      tag_840\n        /* \"#utility.yul\":30732:30735   */\n      0x80\n        /* \"#utility.yul\":30721:30730   */\n      dup4\n        /* \"#utility.yul\":30717:30736   */\n      add\n        /* \"#utility.yul\":30708:30714   */\n      dup7\n        /* \"#utility.yul\":30664:30737   */\n      tag_426\n      jump\t// in\n    tag_840:\n        /* \"#utility.yul\":30785:30794   */\n      dup2\n        /* \"#utility.yul\":30779:30783   */\n      dup2\n        /* \"#utility.yul\":30775:30795   */\n      sub\n        /* \"#utility.yul\":30769:30772   */\n      0xa0\n        /* \"#utility.yul\":30758:30767   */\n      dup4\n        /* \"#utility.yul\":30754:30773   */\n      add\n        /* \"#utility.yul\":30747:30796   */\n      mstore\n        /* \"#utility.yul\":30813:30899   */\n      tag_841\n        /* \"#utility.yul\":30894:30898   */\n      dup2\n        /* \"#utility.yul\":30885:30891   */\n      dup5\n        /* \"#utility.yul\":30877:30883   */\n      dup7\n        /* \"#utility.yul\":30813:30899   */\n      tag_432\n      jump\t// in\n    tag_841:\n        /* \"#utility.yul\":30805:30899   */\n      swap1\n      pop\n        /* \"#utility.yul\":30024:30906   */\n      swap9\n      swap8\n      pop\n      pop\n      pop\n      pop\n      pop\n      pop\n      pop\n      pop\n      jump\t// out\n        /* \"#utility.yul\":30912:31244   */\n    tag_202:\n        /* \"#utility.yul\":31033:31037   */\n      0x00\n        /* \"#utility.yul\":31071:31073   */\n      0x40\n        /* \"#utility.yul\":31060:31069   */\n      dup3\n        /* \"#utility.yul\":31056:31074   */\n      add\n        /* \"#utility.yul\":31048:31074   */\n      swap1\n      pop\n        /* \"#utility.yul\":31084:31155   */\n      tag_843\n        /* \"#utility.yul\":31152:31153   */\n      0x00\n        /* \"#utility.yul\":31141:31150   */\n      dup4\n        /* \"#utility.yul\":31137:31154   */\n      add\n        /* \"#utility.yul\":31128:31134   */\n      dup6\n        /* \"#utility.yul\":31084:31155   */\n      tag_424\n      jump\t// in\n    tag_843:\n        /* \"#utility.yul\":31165:31237   */\n      tag_844\n        /* \"#utility.yul\":31233:31235   */\n      0x20\n        /* \"#utility.yul\":31222:31231   */\n      dup4\n        /* \"#utility.yul\":31218:31236   */\n      add\n        /* \"#utility.yul\":31209:31215   */\n      dup5\n        /* \"#utility.yul\":31165:31237   */\n      tag_426\n      jump\t// in\n    tag_844:\n        /* \"#utility.yul\":30912:31244   */\n      swap4\n      swap3\n      pop\n      pop\n      pop\n      jump\t// out\n        /* \"#utility.yul\":31250:31430   */\n    tag_222:\n        /* \"#utility.yul\":31298:31375   */\n      0x4e487b7100000000000000000000000000000000000000000000000000000000\n        /* \"#utility.yul\":31295:31296   */\n      0x00\n        /* \"#utility.yul\":31288:31376   */\n      mstore\n        /* \"#utility.yul\":31395:31399   */\n      0x32\n        /* \"#utility.yul\":31392:31393   */\n      0x04\n        /* \"#utility.yul\":31385:31400   */\n      mstore\n        /* \"#utility.yul\":31419:31423   */\n      0x24\n        /* \"#utility.yul\":31416:31417   */\n      0x00\n        /* \"#utility.yul\":31409:31424   */\n      revert\n        /* \"#utility.yul\":31436:31616   */\n    tag_486:\n        /* \"#utility.yul\":31484:31561   */\n      0x4e487b7100000000000000000000000000000000000000000000000000000000\n        /* \"#utility.yul\":31481:31482   */\n      0x00\n        /* \"#utility.yul\":31474:31562   */\n      mstore\n        /* \"#utility.yul\":31581:31585   */\n      0x11\n        /* \"#utility.yul\":31578:31579   */\n      0x04\n        /* \"#utility.yul\":31571:31586   */\n      mstore\n        /* \"#utility.yul\":31605:31609   */\n      0x24\n        /* \"#utility.yul\":31602:31603   */\n      0x00\n        /* \"#utility.yul\":31595:31610   */\n      revert\n        /* \"#utility.yul\":31622:31855   */\n    tag_229:\n        /* \"#utility.yul\":31661:31664   */\n      0x00\n        /* \"#utility.yul\":31684:31708   */\n      tag_848\n        /* \"#utility.yul\":31702:31707   */\n      dup3\n        /* \"#utility.yul\":31684:31708   */\n      tag_425\n      jump\t// in\n    tag_848:\n        /* \"#utility.yul\":31675:31708   */\n      swap2\n      pop\n        /* \"#utility.yul\":31730:31796   */\n      0xffffffffffffffffffffffffffffffffffffffffffffffffffffffffffffffff\n        /* \"#utility.yul\":31723:31728   */\n      dup3\n        /* \"#utility.yul\":31720:31797   */\n      eq\n        /* \"#utility.yul\":31717:31820   */\n      iszero\n      tag_849\n      jumpi\n        /* \"#utility.yul\":31800:31818   */\n      tag_850\n      tag_486\n      jump\t// in\n    tag_850:\n        /* \"#utility.yul\":31717:31820   */\n    tag_849:\n        /* \"#utility.yul\":31847:31848   */\n      0x01\n        /* \"#utility.yul\":31840:31845   */\n      dup3\n        /* \"#utility.yul\":31836:31849   */\n      add\n        /* \"#utility.yul\":31829:31849   */\n      swap1\n      pop\n        /* \"#utility.yul\":31622:31855   */\n      swap2\n      swap1\n      pop\n      jump\t// out\n        /* \"#utility.yul\":31861:32166   */\n    tag_231:\n        /* \"#utility.yul\":31901:31904   */\n      0x00\n        /* \"#utility.yul\":31920:31940   */\n      tag_852\n        /* \"#utility.yul\":31938:31939   */\n      dup3\n        /* \"#utility.yul\":31920:31940   */\n      tag_425\n      jump\t// in\n    tag_852:\n        /* \"#utility.yul\":31915:31940   */\n      swap2\n      pop\n        /* \"#utility.yul\":31954:31974   */\n      tag_853\n        /* \"#utility.yul\":31972:31973   */\n      dup4\n        /* \"#utility.yul\":31954:31974   */\n      tag_425\n      jump\t// in\n    tag_853:\n        /* \"#utility.yul\":31949:31974   */\n      swap3\n      pop\n        /* \"#utility.yul\":32108:32109   */\n      dup3\n        /* \"#utility.yul\":32040:32106   */\n      0xffffffffffffffffffffffffffffffffffffffffffffffffffffffffffffffff\n        /* \"#utility.yul\":32036:32110   */\n      sub\n        /* \"#utility.yul\":32033:32034   */\n      dup3\n        /* \"#utility.yul\":32030:32111   */\n      gt\n        /* \"#utility.yul\":32027:32134   */\n      iszero\n      tag_854\n      jumpi\n        /* \"#utility.yul\":32114:32132   */\n      tag_855\n      tag_486\n      jump\t// in\n    tag_855:\n        /* \"#utility.yul\":32027:32134   */\n    tag_854:\n        /* \"#utility.yul\":32158:32159   */\n      dup3\n        /* \"#utility.yul\":32155:32156   */\n      dup3\n        /* \"#utility.yul\":32151:32160   */\n      add\n        /* \"#utility.yul\":32144:32160   */\n      swap1\n      pop\n        /* \"#utility.yul\":31861:32166   */\n      swap3\n      swap2\n      pop\n      pop\n      jump\t// out\n        /* \"#utility.yul\":32172:32343   */\n    tag_487:\n        /* \"#utility.yul\":32312:32335   */\n      0x4e6f7420656e6f75676820726563697069656e74730000000000000000000000\n        /* \"#utility.yul\":32308:32309   */\n      0x00\n        /* \"#utility.yul\":32300:32306   */\n      dup3\n        /* \"#utility.yul\":32296:32310   */\n      add\n        /* \"#utility.yul\":32289:32336   */\n      mstore\n        /* \"#utility.yul\":32172:32343   */\n      pop\n      jump\t// out\n        /* \"#utility.yul\":32349:32715   */\n    tag_488:\n        /* \"#utility.yul\":32491:32494   */\n      0x00\n        /* \"#utility.yul\":32512:32579   */\n      tag_858\n        /* \"#utility.yul\":32576:32578   */\n      0x15\n        /* \"#utility.yul\":32571:32574   */\n      dup4\n        /* \"#utility.yul\":32512:32579   */\n      tag_464\n      jump\t// in\n    tag_858:\n        /* \"#utility.yul\":32505:32579   */\n      swap2\n      pop\n        /* \"#utility.yul\":32588:32681   */\n      tag_859\n        /* \"#utility.yul\":32677:32680   */\n      dup3\n        /* \"#utility.yul\":32588:32681   */\n      tag_487\n      jump\t// in\n    tag_859:\n        /* \"#utility.yul\":32706:32708   */\n      0x20\n        /* \"#utility.yul\":32701:32704   */\n      dup3\n        /* \"#utility.yul\":32697:32709   */\n      add\n        /* \"#utility.yul\":32690:32709   */\n      swap1\n      pop\n        /* \"#utility.yul\":32349:32715   */\n      swap2\n      swap1\n      pop\n      jump\t// out\n        /* \"#utility.yul\":32721:33140   */\n    tag_239:\n        /* \"#utility.yul\":32887:32891   */\n      0x00\n        /* \"#utility.yul\":32925:32927   */\n      0x20\n        /* \"#utility.yul\":32914:32923   */\n      dup3\n        /* \"#utility.yul\":32910:32928   */\n      add\n        /* \"#utility.yul\":32902:32928   */\n      swap1\n      pop\n        /* \"#utility.yul\":32974:32983   */\n      dup2\n        /* \"#utility.yul\":32968:32972   */\n      dup2\n        /* \"#utility.yul\":32964:32984   */\n      sub\n        /* \"#utility.yul\":32960:32961   */\n      0x00\n        /* \"#utility.yul\":32949:32958   */\n      dup4\n        /* \"#utility.yul\":32945:32962   */\n      add\n        /* \"#utility.yul\":32938:32985   */\n      mstore\n        /* \"#utility.yul\":33002:33133   */\n      tag_861\n        /* \"#utility.yul\":33128:33132   */\n      dup2\n        /* \"#utility.yul\":33002:33133   */\n      tag_488\n      jump\t// in\n    tag_861:\n        /* \"#utility.yul\":32994:33133   */\n      swap1\n      pop\n        /* \"#utility.yul\":32721:33140   */\n      swap2\n      swap1\n      pop\n      jump\t// out\n        /* \"#utility.yul\":33146:33325   */\n    tag_489:\n        /* \"#utility.yul\":33286:33317   */\n      0x556e657175616c20726563697069656e747320616e642076616c756573000000\n        /* \"#utility.yul\":33282:33283   */\n      0x00\n        /* \"#utility.yul\":33274:33280   */\n      dup3\n        /* \"#utility.yul\":33270:33284   */\n      add\n        /* \"#utility.yul\":33263:33318   */\n      mstore\n        /* \"#utility.yul\":33146:33325   */\n      pop\n      jump\t// out\n        /* \"#utility.yul\":33331:33697   */\n    tag_490:\n        /* \"#utility.yul\":33473:33476   */\n      0x00\n        /* \"#utility.yul\":33494:33561   */\n      tag_864\n        /* \"#utility.yul\":33558:33560   */\n      0x1d\n        /* \"#utility.yul\":33553:33556   */\n      dup4\n        /* \"#utility.yul\":33494:33561   */\n      tag_464\n      jump\t// in\n    tag_864:\n        /* \"#utility.yul\":33487:33561   */\n      swap2\n      pop\n        /* \"#utility.yul\":33570:33663   */\n      tag_865\n        /* \"#utility.yul\":33659:33662   */\n      dup3\n        /* \"#utility.yul\":33570:33663   */\n      tag_489\n      jump\t// in\n    tag_865:\n        /* \"#utility.yul\":33688:33690   */\n      0x20\n        /* \"#utility.yul\":33683:33686   */\n      dup3\n        /* \"#utility.yul\":33679:33691   */\n      add\n        /* \"#utility.yul\":33672:33691   */\n      swap1\n      pop\n        /* \"#utility.yul\":33331:33697   */\n      swap2\n      swap1\n      pop\n      jump\t// out\n        /* \"#utility.yul\":33703:34122   */\n    tag_242:\n        /* \"#utility.yul\":33869:33873   */\n      0x00\n        /* \"#utility.yul\":33907:33909   */\n      0x20\n        /* \"#utility.yul\":33896:33905   */\n      dup3\n        /* \"#utility.yul\":33892:33910   */\n      add\n        /* \"#utility.yul\":33884:33910   */\n      swap1\n      pop\n        /* \"#utility.yul\":33956:33965   */\n      dup2\n        /* \"#utility.yul\":33950:33954   */\n      dup2\n        /* \"#utility.yul\":33946:33966   */\n      sub\n        /* \"#utility.yul\":33942:33943   */\n      0x00\n        /* \"#utility.yul\":33931:33940   */\n      dup4\n        /* \"#utility.yul\":33927:33944   */\n      add\n        /* \"#utility.yul\":33920:33967   */\n      mstore\n        /* \"#utility.yul\":33984:34115   */\n      tag_867\n        /* \"#utility.yul\":34110:34114   */\n      dup2\n        /* \"#utility.yul\":33984:34115   */\n      tag_490\n      jump\t// in\n    tag_867:\n        /* \"#utility.yul\":33976:34115   */\n      swap1\n      pop\n        /* \"#utility.yul\":33703:34122   */\n      swap2\n      swap1\n      pop\n      jump\t// out\n        /* \"#utility.yul\":34128:34306   */\n    tag_491:\n        /* \"#utility.yul\":34268:34298   */\n      0x546f6f206d616e7920726563697069656e74732c206d61782032353500000000\n        /* \"#utility.yul\":34264:34265   */\n      0x00\n        /* \"#utility.yul\":34256:34262   */\n      dup3\n        /* \"#utility.yul\":34252:34266   */\n      add\n        /* \"#utility.yul\":34245:34299   */\n      mstore\n        /* \"#utility.yul\":34128:34306   */\n      pop\n      jump\t// out\n        /* \"#utility.yul\":34312:34678   */\n    tag_492:\n        /* \"#utility.yul\":34454:34457   */\n      0x00\n        /* \"#utility.yul\":34475:34542   */\n      tag_870\n        /* \"#utility.yul\":34539:34541   */\n      0x1c\n        /* \"#utility.yul\":34534:34537   */\n      dup4\n        /* \"#utility.yul\":34475:34542   */\n      tag_464\n      jump\t// in\n    tag_870:\n        /* \"#utility.yul\":34468:34542   */\n      swap2\n      pop\n        /* \"#utility.yul\":34551:34644   */\n      tag_871\n        /* \"#utility.yul\":34640:34643   */\n      dup3\n        /* \"#utility.yul\":34551:34644   */\n      tag_491\n      jump\t// in\n    tag_871:\n        /* \"#utility.yul\":34669:34671   */\n      0x20\n        /* \"#utility.yul\":34664:34667   */\n      dup3\n        /* \"#utility.yul\":34660:34672   */\n      add\n        /* \"#utility.yul\":34653:34672   */\n      swap1\n      pop\n        /* \"#utility.yul\":34312:34678   */\n      swap2\n      swap1\n      pop\n      jump\t// out\n        /* \"#utility.yul\":34684:35103   */\n    tag_245:\n        /* \"#utility.yul\":34850:34854   */\n      0x00\n        /* \"#utility.yul\":34888:34890   */\n      0x20\n        /* \"#utility.yul\":34877:34886   */\n      dup3\n        /* \"#utility.yul\":34873:34891   */\n      add\n        /* \"#utility.yul\":34865:34891   */\n      swap1\n      pop\n        /* \"#utility.yul\":34937:34946   */\n      dup2\n        /* \"#utility.yul\":34931:34935   */\n      dup2\n        /* \"#utility.yul\":34927:34947   */\n      sub\n        /* \"#utility.yul\":34923:34924   */\n      0x00\n        /* \"#utility.yul\":34912:34921   */\n      dup4\n        /* \"#utility.yul\":34908:34925   */\n      add\n        /* \"#utility.yul\":34901:34948   */\n      mstore\n        /* \"#utility.yul\":34965:35096   */\n      tag_873\n        /* \"#utility.yul\":35091:35095   */\n      dup2\n        /* \"#utility.yul\":34965:35096   */\n      tag_492\n      jump\t// in\n    tag_873:\n        /* \"#utility.yul\":34957:35096   */\n      swap1\n      pop\n        /* \"#utility.yul\":34684:35103   */\n      swap2\n      swap1\n      pop\n      jump\t// out\n        /* \"#utility.yul\":35109:35272   */\n    tag_493:\n        /* \"#utility.yul\":35226:35237   */\n      0x00\n        /* \"#utility.yul\":35263:35266   */\n      dup2\n        /* \"#utility.yul\":35248:35266   */\n      swap1\n      pop\n        /* \"#utility.yul\":35109:35272   */\n      swap3\n      swap2\n      pop\n      pop\n      jump\t// out\n        /* \"#utility.yul\":35278:35380   */\n    tag_494:\n        /* \"#utility.yul\":35347:35351   */\n      0x00\n        /* \"#utility.yul\":35370:35373   */\n      dup2\n        /* \"#utility.yul\":35362:35373   */\n      swap1\n      pop\n        /* \"#utility.yul\":35278:35380   */\n      swap2\n      swap1\n      pop\n      jump\t// out\n        /* \"#utility.yul\":35386:35502   */\n    tag_495:\n        /* \"#utility.yul\":35471:35495   */\n      tag_877\n        /* \"#utility.yul\":35489:35494   */\n      dup2\n        /* \"#utility.yul\":35471:35495   */\n      tag_423\n      jump\t// in\n    tag_877:\n        /* \"#utility.yul\":35466:35469   */\n      dup3\n        /* \"#utility.yul\":35459:35496   */\n      mstore\n        /* \"#utility.yul\":35386:35502   */\n      pop\n      pop\n      jump\t// out\n        /* \"#utility.yul\":35508:35703   */\n    tag_496:\n        /* \"#utility.yul\":35585:35595   */\n      0x00\n        /* \"#utility.yul\":35606:35660   */\n      tag_879\n        /* \"#utility.yul\":35656:35659   */\n      dup4\n        /* \"#utility.yul\":35648:35654   */\n      dup4\n        /* \"#utility.yul\":35606:35660   */\n      tag_495\n      jump\t// in\n    tag_879:\n        /* \"#utility.yul\":35692:35696   */\n      0x20\n        /* \"#utility.yul\":35687:35690   */\n      dup4\n        /* \"#utility.yul\":35683:35697   */\n      add\n        /* \"#utility.yul\":35669:35697   */\n      swap1\n      pop\n        /* \"#utility.yul\":35508:35703   */\n      swap3\n      swap2\n      pop\n      pop\n      jump\t// out\n        /* \"#utility.yul\":35709:35831   */\n    tag_497:\n        /* \"#utility.yul\":35761:35766   */\n      0x00\n        /* \"#utility.yul\":35786:35825   */\n      tag_881\n        /* \"#utility.yul\":35821:35823   */\n      0x20\n        /* \"#utility.yul\":35816:35819   */\n      dup5\n        /* \"#utility.yul\":35812:35824   */\n      add\n        /* \"#utility.yul\":35807:35810   */\n      dup5\n        /* \"#utility.yul\":35786:35825   */\n      tag_442\n      jump\t// in\n    tag_881:\n        /* \"#utility.yul\":35777:35825   */\n      swap1\n      pop\n        /* \"#utility.yul\":35709:35831   */\n      swap3\n      swap2\n      pop\n      pop\n      jump\t// out\n        /* \"#utility.yul\":35837:35952   */\n    tag_498:\n        /* \"#utility.yul\":35909:35913   */\n      0x00\n        /* \"#utility.yul\":35941:35945   */\n      0x20\n        /* \"#utility.yul\":35936:35939   */\n      dup3\n        /* \"#utility.yul\":35932:35946   */\n      add\n        /* \"#utility.yul\":35924:35946   */\n      swap1\n      pop\n        /* \"#utility.yul\":35837:35952   */\n      swap2\n      swap1\n      pop\n      jump\t// out\n        /* \"#utility.yul\":35988:36731   */\n    tag_499:\n        /* \"#utility.yul\":36135:36138   */\n      0x00\n        /* \"#utility.yul\":36158:36262   */\n      tag_884\n        /* \"#utility.yul\":36255:36261   */\n      dup4\n        /* \"#utility.yul\":36250:36253   */\n      dup6\n        /* \"#utility.yul\":36158:36262   */\n      tag_493\n      jump\t// in\n    tag_884:\n        /* \"#utility.yul\":36151:36262   */\n      swap4\n      pop\n        /* \"#utility.yul\":36286:36344   */\n      tag_885\n        /* \"#utility.yul\":36338:36343   */\n      dup3\n        /* \"#utility.yul\":36286:36344   */\n      tag_494\n      jump\t// in\n    tag_885:\n        /* \"#utility.yul\":36367:36374   */\n      dup1\n        /* \"#utility.yul\":36398:36399   */\n      0x00\n        /* \"#utility.yul\":36383:36706   */\n    tag_886:\n        /* \"#utility.yul\":36408:36414   */\n      dup6\n        /* \"#utility.yul\":36405:36406   */\n      dup2\n        /* \"#utility.yul\":36402:36415   */\n      lt\n        /* \"#utility.yul\":36383:36706   */\n      iszero\n      tag_888\n      jumpi\n        /* \"#utility.yul\":36478:36520   */\n      tag_889\n        /* \"#utility.yul\":36513:36519   */\n      dup3\n        /* \"#utility.yul\":36504:36511   */\n      dup5\n        /* \"#utility.yul\":36478:36520   */\n      tag_497\n      jump\t// in\n    tag_889:\n        /* \"#utility.yul\":36540:36611   */\n      tag_890\n        /* \"#utility.yul\":36607:36610   */\n      dup9\n        /* \"#utility.yul\":36592:36605   */\n      dup3\n        /* \"#utility.yul\":36540:36611   */\n      tag_496\n      jump\t// in\n    tag_890:\n        /* \"#utility.yul\":36533:36611   */\n      swap8\n      pop\n        /* \"#utility.yul\":36634:36696   */\n      tag_891\n        /* \"#utility.yul\":36689:36695   */\n      dup4\n        /* \"#utility.yul\":36634:36696   */\n      tag_498\n      jump\t// in\n    tag_891:\n        /* \"#utility.yul\":36624:36696   */\n      swap3\n      pop\n        /* \"#utility.yul\":36443:36706   */\n      pop\n        /* \"#utility.yul\":36430:36431   */\n      0x01\n        /* \"#utility.yul\":36427:36428   */\n      dup2\n        /* \"#utility.yul\":36423:36432   */\n      add\n        /* \"#utility.yul\":36418:36432   */\n      swap1\n      pop\n        /* \"#utility.yul\":36383:36706   */\n      jump(tag_886)\n    tag_888:\n        /* \"#utility.yul\":36387:36401   */\n      pop\n        /* \"#utility.yul\":36722:36725   */\n      dup6\n        /* \"#utility.yul\":36715:36725   */\n      swap3\n      pop\n        /* \"#utility.yul\":36140:36731   */\n      pop\n      pop\n        /* \"#utility.yul\":35988:36731   */\n      swap4\n      swap3\n      pop\n      pop\n      pop\n      jump\t// out\n        /* \"#utility.yul\":36737:36900   */\n    tag_500:\n        /* \"#utility.yul\":36854:36865   */\n      0x00\n        /* \"#utility.yul\":36891:36894   */\n      dup2\n        /* \"#utility.yul\":36876:36894   */\n      swap1\n      pop\n        /* \"#utility.yul\":36737:36900   */\n      swap3\n      swap2\n      pop\n      pop\n      jump\t// out\n        /* \"#utility.yul\":36936:37509   */\n    tag_501:\n        /* \"#utility.yul\":37082:37085   */\n      0x00\n        /* \"#utility.yul\":37103:37207   */\n      tag_894\n        /* \"#utility.yul\":37200:37206   */\n      dup4\n        /* \"#utility.yul\":37195:37198   */\n      dup6\n        /* \"#utility.yul\":37103:37207   */\n      tag_500\n      jump\t// in\n    tag_894:\n        /* \"#utility.yul\":37096:37207   */\n      swap4\n      pop\n        /* \"#utility.yul\":37231:37297   */\n      0x07ffffffffffffffffffffffffffffffffffffffffffffffffffffffffffffff\n        /* \"#utility.yul\":37223:37229   */\n      dup4\n        /* \"#utility.yul\":37220:37298   */\n      gt\n        /* \"#utility.yul\":37217:37382   */\n      iszero\n      tag_895\n      jumpi\n        /* \"#utility.yul\":37301:37380   */\n      tag_896\n      tag_478\n      jump\t// in\n    tag_896:\n        /* \"#utility.yul\":37217:37382   */\n    tag_895:\n        /* \"#utility.yul\":37413:37417   */\n      0x20\n        /* \"#utility.yul\":37405:37411   */\n      dup4\n        /* \"#utility.yul\":37401:37418   */\n      mul\n        /* \"#utility.yul\":37391:37418   */\n      swap3\n      pop\n        /* \"#utility.yul\":37428:37471   */\n      tag_897\n        /* \"#utility.yul\":37464:37470   */\n      dup4\n        /* \"#utility.yul\":37459:37462   */\n      dup6\n        /* \"#utility.yul\":37452:37457   */\n      dup5\n        /* \"#utility.yul\":37428:37471   */\n      tag_430\n      jump\t// in\n    tag_897:\n        /* \"#utility.yul\":37496:37502   */\n      dup3\n        /* \"#utility.yul\":37491:37494   */\n      dup5\n        /* \"#utility.yul\":37487:37503   */\n      add\n        /* \"#utility.yul\":37480:37503   */\n      swap1\n      pop\n        /* \"#utility.yul\":36936:37509   */\n      swap4\n      swap3\n      pop\n      pop\n      pop\n      jump\t// out\n        /* \"#utility.yul\":37515:38552   */\n    tag_249:\n        /* \"#utility.yul\":37879:37882   */\n      0x00\n        /* \"#utility.yul\":37901:37996   */\n      tag_899\n        /* \"#utility.yul\":37992:37995   */\n      dup3\n        /* \"#utility.yul\":37983:37989   */\n      dup11\n        /* \"#utility.yul\":37901:37996   */\n      tag_470\n      jump\t// in\n    tag_899:\n        /* \"#utility.yul\":37894:37996   */\n      swap2\n      pop\n        /* \"#utility.yul\":38013:38148   */\n      tag_900\n        /* \"#utility.yul\":38144:38147   */\n      dup3\n        /* \"#utility.yul\":38135:38141   */\n      dup9\n        /* \"#utility.yul\":38127:38133   */\n      dup11\n        /* \"#utility.yul\":38013:38148   */\n      tag_499\n      jump\t// in\n    tag_900:\n        /* \"#utility.yul\":38006:38148   */\n      swap2\n      pop\n        /* \"#utility.yul\":38165:38300   */\n      tag_901\n        /* \"#utility.yul\":38296:38299   */\n      dup3\n        /* \"#utility.yul\":38287:38293   */\n      dup7\n        /* \"#utility.yul\":38279:38285   */\n      dup9\n        /* \"#utility.yul\":38165:38300   */\n      tag_501\n      jump\t// in\n    tag_901:\n        /* \"#utility.yul\":38158:38300   */\n      swap2\n      pop\n        /* \"#utility.yul\":38310:38385   */\n      tag_902\n        /* \"#utility.yul\":38381:38384   */\n      dup3\n        /* \"#utility.yul\":38372:38378   */\n      dup6\n        /* \"#utility.yul\":38310:38385   */\n      tag_476\n      jump\t// in\n    tag_902:\n        /* \"#utility.yul\":38410:38412   */\n      0x20\n        /* \"#utility.yul\":38405:38408   */\n      dup3\n        /* \"#utility.yul\":38401:38413   */\n      add\n        /* \"#utility.yul\":38394:38413   */\n      swap2\n      pop\n        /* \"#utility.yul\":38423:38498   */\n      tag_903\n        /* \"#utility.yul\":38494:38497   */\n      dup3\n        /* \"#utility.yul\":38485:38491   */\n      dup5\n        /* \"#utility.yul\":38423:38498   */\n      tag_476\n      jump\t// in\n    tag_903:\n        /* \"#utility.yul\":38523:38525   */\n      0x20\n        /* \"#utility.yul\":38518:38521   */\n      dup3\n        /* \"#utility.yul\":38514:38526   */\n      add\n        /* \"#utility.yul\":38507:38526   */\n      swap2\n      pop\n        /* \"#utility.yul\":38543:38546   */\n      dup2\n        /* \"#utility.yul\":38536:38546   */\n      swap1\n      pop\n        /* \"#utility.yul\":37515:38552   */\n      swap9\n      swap8\n      pop\n      pop\n      pop\n      pop\n      pop\n      pop\n      pop\n      pop\n      jump\t// out\n        /* \"#utility.yul\":38558:38726   */\n    tag_502:\n        /* \"#utility.yul\":38698:38718   */\n      0x426174636820696e2073616665206d6f64650000000000000000000000000000\n        /* \"#utility.yul\":38694:38695   */\n      0x00\n        /* \"#utility.yul\":38686:38692   */\n      dup3\n        /* \"#utility.yul\":38682:38696   */\n      add\n        /* \"#utility.yul\":38675:38719   */\n      mstore\n        /* \"#utility.yul\":38558:38726   */\n      pop\n      jump\t// out\n        /* \"#utility.yul\":38732:39098   */\n    tag_503:\n        /* \"#utility.yul\":38874:38877   */\n      0x00\n        /* \"#utility.yul\":38895:38962   */\n      tag_906\n        /* \"#utility.yul\":38959:38961   */\n      0x12\n        /* \"#utility.yul\":38954:38957   */\n      dup4\n        /* \"#utility.yul\":38895:38962   */\n      tag_464\n      jump\t// in\n    tag_906:\n        /* \"#utility.yul\":38888:38962   */\n      swap2\n      pop\n        /* \"#utility.yul\":38971:39064   */\n      tag_907\n        /* \"#utility.yul\":39060:39063   */\n      dup3\n        /* \"#utility.yul\":38971:39064   */\n      tag_502\n      jump\t// in\n    tag_907:\n        /* \"#utility.yul\":39089:39091   */\n      0x20\n        /* \"#utility.yul\":39084:39087   */\n      dup3\n        /* \"#utility.yul\":39080:39092   */\n      add\n        /* \"#utility.yul\":39073:39092   */\n      swap1\n      pop\n        /* \"#utility.yul\":38732:39098   */\n      swap2\n      swap1\n      pop\n      jump\t// out\n        /* \"#utility.yul\":39104:39523   */\n    tag_252:\n        /* \"#utility.yul\":39270:39274   */\n      0x00\n        /* \"#utility.yul\":39308:39310   */\n      0x20\n        /* \"#utility.yul\":39297:39306   */\n      dup3\n        /* \"#utility.yul\":39293:39311   */\n      add\n        /* \"#utility.yul\":39285:39311   */\n      swap1\n      pop\n        /* \"#utility.yul\":39357:39366   */\n      dup2\n        /* \"#utility.yul\":39351:39355   */\n      dup2\n        /* \"#utility.yul\":39347:39367   */\n      sub\n        /* \"#utility.yul\":39343:39344   */\n      0x00\n        /* \"#utility.yul\":39332:39341   */\n      dup4\n        /* \"#utility.yul\":39328:39345   */\n      add\n        /* \"#utility.yul\":39321:39368   */\n      mstore\n        /* \"#utility.yul\":39385:39516   */\n      tag_909\n        /* \"#utility.yul\":39511:39515   */\n      dup2\n        /* \"#utility.yul\":39385:39516   */\n      tag_503\n      jump\t// in\n    tag_909:\n        /* \"#utility.yul\":39377:39516   */\n      swap1\n      pop\n        /* \"#utility.yul\":39104:39523   */\n      swap2\n      swap1\n      pop\n      jump\t// out\n        /* \"#utility.yul\":39529:39971   */\n    tag_257:\n        /* \"#utility.yul\":39678:39682   */\n      0x00\n        /* \"#utility.yul\":39716:39718   */\n      0x60\n        /* \"#utility.yul\":39705:39714   */\n      dup3\n        /* \"#utility.yul\":39701:39719   */\n      add\n        /* \"#utility.yul\":39693:39719   */\n      swap1\n      pop\n        /* \"#utility.yul\":39729:39800   */\n      tag_911\n        /* \"#utility.yul\":39797:39798   */\n      0x00\n        /* \"#utility.yul\":39786:39795   */\n      dup4\n        /* \"#utility.yul\":39782:39799   */\n      add\n        /* \"#utility.yul\":39773:39779   */\n      dup7\n        /* \"#utility.yul\":39729:39800   */\n      tag_424\n      jump\t// in\n    tag_911:\n        /* \"#utility.yul\":39810:39882   */\n      tag_912\n        /* \"#utility.yul\":39878:39880   */\n      0x20\n        /* \"#utility.yul\":39867:39876   */\n      dup4\n        /* \"#utility.yul\":39863:39881   */\n      add\n        /* \"#utility.yul\":39854:39860   */\n      dup6\n        /* \"#utility.yul\":39810:39882   */\n      tag_424\n      jump\t// in\n    tag_912:\n        /* \"#utility.yul\":39892:39964   */\n      tag_913\n        /* \"#utility.yul\":39960:39962   */\n      0x40\n        /* \"#utility.yul\":39949:39958   */\n      dup4\n        /* \"#utility.yul\":39945:39963   */\n      add\n        /* \"#utility.yul\":39936:39942   */\n      dup5\n        /* \"#utility.yul\":39892:39964   */\n      tag_485\n      jump\t// in\n    tag_913:\n        /* \"#utility.yul\":39529:39971   */\n      swap5\n      swap4\n      pop\n      pop\n      pop\n      pop\n      jump\t// out\n        /* \"#utility.yul\":39977:40155   */\n    tag_504:\n        /* \"#utility.yul\":40117:40147   */\n      0x436f6e747261637420616c726561647920696e697469616c697a656400000000\n        /* \"#utility.yul\":40113:40114   */\n      0x00\n        /* \"#utility.yul\":40105:40111   */\n      dup3\n        /* \"#utility.yul\":40101:40115   */\n      add\n        /* \"#utility.yul\":40094:40148   */\n      mstore\n        /* \"#utility.yul\":39977:40155   */\n      pop\n      jump\t// out\n        /* \"#utility.yul\":40161:40527   */\n    tag_505:\n        /* \"#utility.yul\":40303:40306   */\n      0x00\n        /* \"#utility.yul\":40324:40391   */\n      tag_916\n        /* \"#utility.yul\":40388:40390   */\n      0x1c\n        /* \"#utility.yul\":40383:40386   */\n      dup4\n        /* \"#utility.yul\":40324:40391   */\n      tag_464\n      jump\t// in\n    tag_916:\n        /* \"#utility.yul\":40317:40391   */\n      swap2\n      pop\n        /* \"#utility.yul\":40400:40493   */\n      tag_917\n        /* \"#utility.yul\":40489:40492   */\n      dup3\n        /* \"#utility.yul\":40400:40493   */\n      tag_504\n      jump\t// in\n    tag_917:\n        /* \"#utility.yul\":40518:40520   */\n      0x20\n        /* \"#utility.yul\":40513:40516   */\n      dup3\n        /* \"#utility.yul\":40509:40521   */\n      add\n        /* \"#utility.yul\":40502:40521   */\n      swap1\n      pop\n        /* \"#utility.yul\":40161:40527   */\n      swap2\n      swap1\n      pop\n      jump\t// out\n        /* \"#utility.yul\":40533:40952   */\n    tag_271:\n        /* \"#utility.yul\":40699:40703   */\n      0x00\n        /* \"#utility.yul\":40737:40739   */\n      0x20\n        /* \"#utility.yul\":40726:40735   */\n      dup3\n        /* \"#utility.yul\":40722:40740   */\n      add\n        /* \"#utility.yul\":40714:40740   */\n      swap1\n      pop\n        /* \"#utility.yul\":40786:40795   */\n      dup2\n        /* \"#utility.yul\":40780:40784   */\n      dup2\n        /* \"#utility.yul\":40776:40796   */\n      sub\n        /* \"#utility.yul\":40772:40773   */\n      0x00\n        /* \"#utility.yul\":40761:40770   */\n      dup4\n        /* \"#utility.yul\":40757:40774   */\n      add\n        /* \"#utility.yul\":40750:40797   */\n      mstore\n        /* \"#utility.yul\":40814:40945   */\n      tag_919\n        /* \"#utility.yul\":40940:40944   */\n      dup2\n        /* \"#utility.yul\":40814:40945   */\n      tag_505\n      jump\t// in\n    tag_919:\n        /* \"#utility.yul\":40806:40945   */\n      swap1\n      pop\n        /* \"#utility.yul\":40533:40952   */\n      swap2\n      swap1\n      pop\n      jump\t// out\n        /* \"#utility.yul\":40958:41133   */\n    tag_506:\n        /* \"#utility.yul\":41098:41125   */\n      0x496e76616c6964206e756d626572206f66207369676e65727300000000000000\n        /* \"#utility.yul\":41094:41095   */\n      0x00\n        /* \"#utility.yul\":41086:41092   */\n      dup3\n        /* \"#utility.yul\":41082:41096   */\n      add\n        /* \"#utility.yul\":41075:41126   */\n      mstore\n        /* \"#utility.yul\":40958:41133   */\n      pop\n      jump\t// out\n        /* \"#utility.yul\":41139:41505   */\n    tag_507:\n        /* \"#utility.yul\":41281:41284   */\n      0x00\n        /* \"#utility.yul\":41302:41369   */\n      tag_922\n        /* \"#utility.yul\":41366:41368   */\n      0x19\n        /* \"#utility.yul\":41361:41364   */\n      dup4\n        /* \"#utility.yul\":41302:41369   */\n      tag_464\n      jump\t// in\n    tag_922:\n        /* \"#utility.yul\":41295:41369   */\n      swap2\n      pop\n        /* \"#utility.yul\":41378:41471   */\n      tag_923\n        /* \"#utility.yul\":41467:41470   */\n      dup3\n        /* \"#utility.yul\":41378:41471   */\n      tag_506\n      jump\t// in\n    tag_923:\n        /* \"#utility.yul\":41496:41498   */\n      0x20\n        /* \"#utility.yul\":41491:41494   */\n      dup3\n        /* \"#utility.yul\":41487:41499   */\n      add\n        /* \"#utility.yul\":41480:41499   */\n      swap1\n      pop\n        /* \"#utility.yul\":41139:41505   */\n      swap2\n      swap1\n      pop\n      jump\t// out\n        /* \"#utility.yul\":41511:41930   */\n    tag_275:\n        /* \"#utility.yul\":41677:41681   */\n      0x00\n        /* \"#utility.yul\":41715:41717   */\n      0x20\n        /* \"#utility.yul\":41704:41713   */\n      dup3\n        /* \"#utility.yul\":41700:41718   */\n      add\n        /* \"#utility.yul\":41692:41718   */\n      swap1\n      pop\n        /* \"#utility.yul\":41764:41773   */\n      dup2\n        /* \"#utility.yul\":41758:41762   */\n      dup2\n        /* \"#utility.yul\":41754:41774   */\n      sub\n        /* \"#utility.yul\":41750:41751   */\n      0x00\n        /* \"#utility.yul\":41739:41748   */\n      dup4\n        /* \"#utility.yul\":41735:41752   */\n      add\n        /* \"#utility.yul\":41728:41775   */\n      mstore\n        /* \"#utility.yul\":41792:41923   */\n      tag_925\n        /* \"#utility.yul\":41918:41922   */\n      dup2\n        /* \"#utility.yul\":41792:41923   */\n      tag_507\n      jump\t// in\n    tag_925:\n        /* \"#utility.yul\":41784:41923   */\n      swap1\n      pop\n        /* \"#utility.yul\":41511:41930   */\n      swap2\n      swap1\n      pop\n      jump\t// out\n        /* \"#utility.yul\":41936:42100   */\n    tag_508:\n        /* \"#utility.yul\":42076:42092   */\n      0x496e76616c6964207369676e6572000000000000000000000000000000000000\n        /* \"#utility.yul\":42072:42073   */\n      0x00\n        /* \"#utility.yul\":42064:42070   */\n      dup3\n        /* \"#utility.yul\":42060:42074   */\n      add\n        /* \"#utility.yul\":42053:42093   */\n      mstore\n        /* \"#utility.yul\":41936:42100   */\n      pop\n      jump\t// out\n        /* \"#utility.yul\":42106:42472   */\n    tag_509:\n        /* \"#utility.yul\":42248:42251   */\n      0x00\n        /* \"#utility.yul\":42269:42336   */\n      tag_928\n        /* \"#utility.yul\":42333:42335   */\n      0x0e\n        /* \"#utility.yul\":42328:42331   */\n      dup4\n        /* \"#utility.yul\":42269:42336   */\n      tag_464\n      jump\t// in\n    tag_928:\n        /* \"#utility.yul\":42262:42336   */\n      swap2\n      pop\n        /* \"#utility.yul\":42345:42438   */\n      tag_929\n        /* \"#utility.yul\":42434:42437   */\n      dup3\n        /* \"#utility.yul\":42345:42438   */\n      tag_508\n      jump\t// in\n    tag_929:\n        /* \"#utility.yul\":42463:42465   */\n      0x20\n        /* \"#utility.yul\":42458:42461   */\n      dup3\n        /* \"#utility.yul\":42454:42466   */\n      add\n        /* \"#utility.yul\":42447:42466   */\n      swap1\n      pop\n        /* \"#utility.yul\":42106:42472   */\n      swap2\n      swap1\n      pop\n      jump\t// out\n        /* \"#utility.yul\":42478:42897   */\n    tag_284:\n        /* \"#utility.yul\":42644:42648   */\n      0x00\n        /* \"#utility.yul\":42682:42684   */\n      0x20\n        /* \"#utility.yul\":42671:42680   */\n      dup3\n        /* \"#utility.yul\":42667:42685   */\n      add\n        /* \"#utility.yul\":42659:42685   */\n      swap1\n      pop\n        /* \"#utility.yul\":42731:42740   */\n      dup2\n        /* \"#utility.yul\":42725:42729   */\n      dup2\n        /* \"#utility.yul\":42721:42741   */\n      sub\n        /* \"#utility.yul\":42717:42718   */\n      0x00\n        /* \"#utility.yul\":42706:42715   */\n      dup4\n        /* \"#utility.yul\":42702:42719   */\n      add\n        /* \"#utility.yul\":42695:42742   */\n      mstore\n        /* \"#utility.yul\":42759:42890   */\n      tag_931\n        /* \"#utility.yul\":42885:42889   */\n      dup2\n        /* \"#utility.yul\":42759:42890   */\n      tag_509\n      jump\t// in\n    tag_931:\n        /* \"#utility.yul\":42751:42890   */\n      swap1\n      pop\n        /* \"#utility.yul\":42478:42897   */\n      swap2\n      swap1\n      pop\n      jump\t// out\n        /* \"#utility.yul\":42903:42989   */\n    tag_510:\n        /* \"#utility.yul\":42938:42945   */\n      0x00\n        /* \"#utility.yul\":42978:42982   */\n      0xff\n        /* \"#utility.yul\":42971:42976   */\n      dup3\n        /* \"#utility.yul\":42967:42983   */\n      and\n        /* \"#utility.yul\":42956:42983   */\n      swap1\n      pop\n        /* \"#utility.yul\":42903:42989   */\n      swap2\n      swap1\n      pop\n      jump\t// out\n        /* \"#utility.yul\":42995:43162   */\n    tag_289:\n        /* \"#utility.yul\":43032:43035   */\n      0x00\n        /* \"#utility.yul\":43055:43077   */\n      tag_934\n        /* \"#utility.yul\":43071:43076   */\n      dup3\n        /* \"#utility.yul\":43055:43077   */\n      tag_510\n      jump\t// in\n    tag_934:\n        /* \"#utility.yul\":43046:43077   */\n      swap2\n      pop\n        /* \"#utility.yul\":43099:43103   */\n      0xff\n        /* \"#utility.yul\":43092:43097   */\n      dup3\n        /* \"#utility.yul\":43089:43104   */\n      eq\n        /* \"#utility.yul\":43086:43127   */\n      iszero\n      tag_935\n      jumpi\n        /* \"#utility.yul\":43107:43125   */\n      tag_936\n      tag_486\n      jump\t// in\n    tag_936:\n        /* \"#utility.yul\":43086:43127   */\n    tag_935:\n        /* \"#utility.yul\":43154:43155   */\n      0x01\n        /* \"#utility.yul\":43147:43152   */\n      dup3\n        /* \"#utility.yul\":43143:43156   */\n      add\n        /* \"#utility.yul\":43136:43156   */\n      swap1\n      pop\n        /* \"#utility.yul\":42995:43162   */\n      swap2\n      swap1\n      pop\n      jump\t// out\n        /* \"#utility.yul\":43168:43348   */\n    tag_511:\n        /* \"#utility.yul\":43308:43340   */\n      0x45787465726e616c207472616e7366657220696e2073616665206d6f64650000\n        /* \"#utility.yul\":43304:43305   */\n      0x00\n        /* \"#utility.yul\":43296:43302   */\n      dup3\n        /* \"#utility.yul\":43292:43306   */\n      add\n        /* \"#utility.yul\":43285:43341   */\n      mstore\n        /* \"#utility.yul\":43168:43348   */\n      pop\n      jump\t// out\n        /* \"#utility.yul\":43354:43720   */\n    tag_512:\n        /* \"#utility.yul\":43496:43499   */\n      0x00\n        /* \"#utility.yul\":43517:43584   */\n      tag_939\n        /* \"#utility.yul\":43581:43583   */\n      0x1e\n        /* \"#utility.yul\":43576:43579   */\n      dup4\n        /* \"#utility.yul\":43517:43584   */\n      tag_464\n      jump\t// in\n    tag_939:\n        /* \"#utility.yul\":43510:43584   */\n      swap2\n      pop\n        /* \"#utility.yul\":43593:43686   */\n      tag_940\n        /* \"#utility.yul\":43682:43685   */\n      dup3\n        /* \"#utility.yul\":43593:43686   */\n      tag_511\n      jump\t// in\n    tag_940:\n        /* \"#utility.yul\":43711:43713   */\n      0x20\n        /* \"#utility.yul\":43706:43709   */\n      dup3\n        /* \"#utility.yul\":43702:43714   */\n      add\n        /* \"#utility.yul\":43695:43714   */\n      swap1\n      pop\n        /* \"#utility.yul\":43354:43720   */\n      swap2\n      swap1\n      pop\n      jump\t// out\n        /* \"#utility.yul\":43726:44145   */\n    tag_315:\n        /* \"#utility.yul\":43892:43896   */\n      0x00\n        /* \"#utility.yul\":43930:43932   */\n      0x20\n        /* \"#utility.yul\":43919:43928   */\n      dup3\n        /* \"#utility.yul\":43915:43933   */\n      add\n        /* \"#utility.yul\":43907:43933   */\n      swap1\n      pop\n        /* \"#utility.yul\":43979:43988   */\n      dup2\n        /* \"#utility.yul\":43973:43977   */\n      dup2\n        /* \"#utility.yul\":43969:43989   */\n      sub\n        /* \"#utility.yul\":43965:43966   */\n      0x00\n        /* \"#utility.yul\":43954:43963   */\n      dup4\n        /* \"#utility.yul\":43950:43967   */\n      add\n        /* \"#utility.yul\":43943:43990   */\n      mstore\n        /* \"#utility.yul\":44007:44138   */\n      tag_942\n        /* \"#utility.yul\":44133:44137   */\n      dup2\n        /* \"#utility.yul\":44007:44138   */\n      tag_512\n      jump\t// in\n    tag_942:\n        /* \"#utility.yul\":43999:44138   */\n      swap1\n      pop\n        /* \"#utility.yul\":43726:44145   */\n      swap2\n      swap1\n      pop\n      jump\t// out\n        /* \"#utility.yul\":44151:44320   */\n    tag_513:\n        /* \"#utility.yul\":44291:44312   */\n      0x5472616e73616374696f6e206578706972656400000000000000000000000000\n        /* \"#utility.yul\":44287:44288   */\n      0x00\n        /* \"#utility.yul\":44279:44285   */\n      dup3\n        /* \"#utility.yul\":44275:44289   */\n      add\n        /* \"#utility.yul\":44268:44313   */\n      mstore\n        /* \"#utility.yul\":44151:44320   */\n      pop\n      jump\t// out\n        /* \"#utility.yul\":44326:44692   */\n    tag_514:\n        /* \"#utility.yul\":44468:44471   */\n      0x00\n        /* \"#utility.yul\":44489:44556   */\n      tag_945\n        /* \"#utility.yul\":44553:44555   */\n      0x13\n        /* \"#utility.yul\":44548:44551   */\n      dup4\n        /* \"#utility.yul\":44489:44556   */\n      tag_464\n      jump\t// in\n    tag_945:\n        /* \"#utility.yul\":44482:44556   */\n      swap2\n      pop\n        /* \"#utility.yul\":44565:44658   */\n      tag_946\n        /* \"#utility.yul\":44654:44657   */\n      dup3\n        /* \"#utility.yul\":44565:44658   */\n      tag_513\n      jump\t// in\n    tag_946:\n        /* \"#utility.yul\":44683:44685   */\n      0x20\n        /* \"#utility.yul\":44678:44681   */\n      dup3\n        /* \"#utility.yul\":44674:44686   */\n      add\n        /* \"#utility.yul\":44667:44686   */\n      swap1\n      pop\n        /* \"#utility.yul\":44326:44692   */\n      swap2\n      swap1\n      pop\n      jump\t// out\n        /* \"#utility.yul\":44698:45117   */\n    tag_318:\n        /* \"#utility.yul\":44864:44868   */\n      0x00\n        /* \"#utility.yul\":44902:44904   */\n      0x20\n        /* \"#utility.yul\":44891:44900   */\n      dup3\n        /* \"#utility.yul\":44887:44905   */\n      add\n        /* \"#utility.yul\":44879:44905   */\n      swap1\n      pop\n        /* \"#utility.yul\":44951:44960   */\n      dup2\n        /* \"#utility.yul\":44945:44949   */\n      dup2\n        /* \"#utility.yul\":44941:44961   */\n      sub\n        /* \"#utility.yul\":44937:44938   */\n      0x00\n        /* \"#utility.yul\":44926:44935   */\n      dup4\n        /* \"#utility.yul\":44922:44939   */\n      add\n        /* \"#utility.yul\":44915:44962   */\n      mstore\n        /* \"#utility.yul\":44979:45110   */\n      tag_948\n        /* \"#utility.yul\":45105:45109   */\n      dup2\n        /* \"#utility.yul\":44979:45110   */\n      tag_514\n      jump\t// in\n    tag_948:\n        /* \"#utility.yul\":44971:45110   */\n      swap1\n      pop\n        /* \"#utility.yul\":44698:45117   */\n      swap2\n      swap1\n      pop\n      jump\t// out\n        /* \"#utility.yul\":45123:45296   */\n    tag_515:\n        /* \"#utility.yul\":45263:45288   */\n      0x5369676e6572732063616e6e6f7420626520657175616c000000000000000000\n        /* \"#utility.yul\":45259:45260   */\n      0x00\n        /* \"#utility.yul\":45251:45257   */\n      dup3\n        /* \"#utility.yul\":45247:45261   */\n      add\n        /* \"#utility.yul\":45240:45289   */\n      mstore\n        /* \"#utility.yul\":45123:45296   */\n      pop\n      jump\t// out\n        /* \"#utility.yul\":45302:45668   */\n    tag_516:\n        /* \"#utility.yul\":45444:45447   */\n      0x00\n        /* \"#utility.yul\":45465:45532   */\n      tag_951\n        /* \"#utility.yul\":45529:45531   */\n      0x17\n        /* \"#utility.yul\":45524:45527   */\n      dup4\n        /* \"#utility.yul\":45465:45532   */\n      tag_464\n      jump\t// in\n    tag_951:\n        /* \"#utility.yul\":45458:45532   */\n      swap2\n      pop\n        /* \"#utility.yul\":45541:45634   */\n      tag_952\n        /* \"#utility.yul\":45630:45633   */\n      dup3\n        /* \"#utility.yul\":45541:45634   */\n      tag_515\n      jump\t// in\n    tag_952:\n        /* \"#utility.yul\":45659:45661   */\n      0x20\n        /* \"#utility.yul\":45654:45657   */\n      dup3\n        /* \"#utility.yul\":45650:45662   */\n      add\n        /* \"#utility.yul\":45643:45662   */\n      swap1\n      pop\n        /* \"#utility.yul\":45302:45668   */\n      swap2\n      swap1\n      pop\n      jump\t// out\n        /* \"#utility.yul\":45674:46093   */\n    tag_326:\n        /* \"#utility.yul\":45840:45844   */\n      0x00\n        /* \"#utility.yul\":45878:45880   */\n      0x20\n        /* \"#utility.yul\":45867:45876   */\n      dup3\n        /* \"#utility.yul\":45863:45881   */\n      add\n        /* \"#utility.yul\":45855:45881   */\n      swap1\n      pop\n        /* \"#utility.yul\":45927:45936   */\n      dup2\n        /* \"#utility.yul\":45921:45925   */\n      dup2\n        /* \"#utility.yul\":45917:45937   */\n      sub\n        /* \"#utility.yul\":45913:45914   */\n      0x00\n        /* \"#utility.yul\":45902:45911   */\n      dup4\n        /* \"#utility.yul\":45898:45915   */\n      add\n        /* \"#utility.yul\":45891:45938   */\n      mstore\n        /* \"#utility.yul\":45955:46086   */\n      tag_954\n        /* \"#utility.yul\":46081:46085   */\n      dup2\n        /* \"#utility.yul\":45955:46086   */\n      tag_516\n      jump\t// in\n    tag_954:\n        /* \"#utility.yul\":45947:46086   */\n      swap1\n      pop\n        /* \"#utility.yul\":45674:46093   */\n      swap2\n      swap1\n      pop\n      jump\t// out\n        /* \"#utility.yul\":46099:46197   */\n    tag_517:\n        /* \"#utility.yul\":46150:46156   */\n      0x00\n        /* \"#utility.yul\":46184:46189   */\n      dup2\n        /* \"#utility.yul\":46178:46190   */\n      mload\n        /* \"#utility.yul\":46168:46190   */\n      swap1\n      pop\n        /* \"#utility.yul\":46099:46197   */\n      swap2\n      swap1\n      pop\n      jump\t// out\n        /* \"#utility.yul\":46203:46576   */\n    tag_518:\n        /* \"#utility.yul\":46307:46310   */\n      0x00\n        /* \"#utility.yul\":46335:46373   */\n      tag_957\n        /* \"#utility.yul\":46367:46372   */\n      dup3\n        /* \"#utility.yul\":46335:46373   */\n      tag_517\n      jump\t// in\n    tag_957:\n        /* \"#utility.yul\":46389:46477   */\n      tag_958\n        /* \"#utility.yul\":46470:46476   */\n      dup2\n        /* \"#utility.yul\":46465:46468   */\n      dup6\n        /* \"#utility.yul\":46389:46477   */\n      tag_480\n      jump\t// in\n    tag_958:\n        /* \"#utility.yul\":46382:46477   */\n      swap4\n      pop\n        /* \"#utility.yul\":46486:46538   */\n      tag_959\n        /* \"#utility.yul\":46531:46537   */\n      dup2\n        /* \"#utility.yul\":46526:46529   */\n      dup6\n        /* \"#utility.yul\":46519:46523   */\n      0x20\n        /* \"#utility.yul\":46512:46517   */\n      dup7\n        /* \"#utility.yul\":46508:46524   */\n      add\n        /* \"#utility.yul\":46486:46538   */\n      tag_469\n      jump\t// in\n    tag_959:\n        /* \"#utility.yul\":46563:46569   */\n      dup1\n        /* \"#utility.yul\":46558:46561   */\n      dup5\n        /* \"#utility.yul\":46554:46570   */\n      add\n        /* \"#utility.yul\":46547:46570   */\n      swap2\n      pop\n        /* \"#utility.yul\":46311:46576   */\n      pop\n        /* \"#utility.yul\":46203:46576   */\n      swap3\n      swap2\n      pop\n      pop\n      jump\t// out\n        /* \"#utility.yul\":46582:46853   */\n    tag_330:\n        /* \"#utility.yul\":46712:46715   */\n      0x00\n        /* \"#utility.yul\":46734:46827   */\n      tag_961\n        /* \"#utility.yul\":46823:46826   */\n      dup3\n        /* \"#utility.yul\":46814:46820   */\n      dup5\n        /* \"#utility.yul\":46734:46827   */\n      tag_518\n      jump\t// in\n    tag_961:\n        /* \"#utility.yul\":46727:46827   */\n      swap2\n      pop\n        /* \"#utility.yul\":46844:46847   */\n      dup2\n        /* \"#utility.yul\":46837:46847   */\n      swap1\n      pop\n        /* \"#utility.yul\":46582:46853   */\n      swap3\n      swap2\n      pop\n      pop\n      jump\t// out\n        /* \"#utility.yul\":46859:46996   */\n    tag_519:\n        /* \"#utility.yul\":46913:46918   */\n      0x00\n        /* \"#utility.yul\":46944:46950   */\n      dup2\n        /* \"#utility.yul\":46938:46951   */\n      mload\n        /* \"#utility.yul\":46929:46951   */\n      swap1\n      pop\n        /* \"#utility.yul\":46960:46990   */\n      tag_963\n        /* \"#utility.yul\":46984:46989   */\n      dup2\n        /* \"#utility.yul\":46960:46990   */\n      tag_461\n      jump\t// in\n    tag_963:\n        /* \"#utility.yul\":46859:46996   */\n      swap3\n      swap2\n      pop\n      pop\n      jump\t// out\n        /* \"#utility.yul\":47002:47347   */\n    tag_337:\n        /* \"#utility.yul\":47069:47075   */\n      0x00\n        /* \"#utility.yul\":47118:47120   */\n      0x20\n        /* \"#utility.yul\":47106:47115   */\n      dup3\n        /* \"#utility.yul\":47097:47104   */\n      dup5\n        /* \"#utility.yul\":47093:47116   */\n      sub\n        /* \"#utility.yul\":47089:47121   */\n      slt\n        /* \"#utility.yul\":47086:47205   */\n      iszero\n      tag_965\n      jumpi\n        /* \"#utility.yul\":47124:47203   */\n      tag_966\n      tag_434\n      jump\t// in\n    tag_966:\n        /* \"#utility.yul\":47086:47205   */\n    tag_965:\n        /* \"#utility.yul\":47244:47245   */\n      0x00\n        /* \"#utility.yul\":47269:47330   */\n      tag_967\n        /* \"#utility.yul\":47322:47329   */\n      dup5\n        /* \"#utility.yul\":47313:47319   */\n      dup3\n        /* \"#utility.yul\":47302:47311   */\n      dup6\n        /* \"#utility.yul\":47298:47320   */\n      add\n        /* \"#utility.yul\":47269:47330   */\n      tag_519\n      jump\t// in\n    tag_967:\n        /* \"#utility.yul\":47259:47330   */\n      swap2\n      pop\n        /* \"#utility.yul\":47215:47340   */\n      pop\n        /* \"#utility.yul\":47002:47347   */\n      swap3\n      swap2\n      pop\n      pop\n      jump\t// out\n        /* \"#utility.yul\":47353:47585   */\n    tag_520:\n        /* \"#utility.yul\":47493:47527   */\n      0x5472616e7366657248656c7065723a3a736166655472616e736665723a207472\n        /* \"#utility.yul\":47489:47490   */\n      0x00\n        /* \"#utility.yul\":47481:47487   */\n      dup3\n        /* \"#utility.yul\":47477:47491   */\n      add\n        /* \"#utility.yul\":47470:47528   */\n      mstore\n        /* \"#utility.yul\":47562:47577   */\n      0x616e73666572206661696c656400000000000000000000000000000000000000\n        /* \"#utility.yul\":47557:47559   */\n      0x20\n        /* \"#utility.yul\":47549:47555   */\n      dup3\n        /* \"#utility.yul\":47545:47560   */\n      add\n        /* \"#utility.yul\":47538:47578   */\n      mstore\n        /* \"#utility.yul\":47353:47585   */\n      pop\n      jump\t// out\n        /* \"#utility.yul\":47591:47957   */\n    tag_521:\n        /* \"#utility.yul\":47733:47736   */\n      0x00\n        /* \"#utility.yul\":47754:47821   */\n      tag_970\n        /* \"#utility.yul\":47818:47820   */\n      0x2d\n        /* \"#utility.yul\":47813:47816   */\n      dup4\n        /* \"#utility.yul\":47754:47821   */\n      tag_464\n      jump\t// in\n    tag_970:\n        /* \"#utility.yul\":47747:47821   */\n      swap2\n      pop\n        /* \"#utility.yul\":47830:47923   */\n      tag_971\n        /* \"#utility.yul\":47919:47922   */\n      dup3\n        /* \"#utility.yul\":47830:47923   */\n      tag_520\n      jump\t// in\n    tag_971:\n        /* \"#utility.yul\":47948:47950   */\n      0x40\n        /* \"#utility.yul\":47943:47946   */\n      dup3\n        /* \"#utility.yul\":47939:47951   */\n      add\n        /* \"#utility.yul\":47932:47951   */\n      swap1\n      pop\n        /* \"#utility.yul\":47591:47957   */\n      swap2\n      swap1\n      pop\n      jump\t// out\n        /* \"#utility.yul\":47963:48382   */\n    tag_340:\n        /* \"#utility.yul\":48129:48133   */\n      0x00\n        /* \"#utility.yul\":48167:48169   */\n      0x20\n        /* \"#utility.yul\":48156:48165   */\n      dup3\n        /* \"#utility.yul\":48152:48170   */\n      add\n        /* \"#utility.yul\":48144:48170   */\n      swap1\n      pop\n        /* \"#utility.yul\":48216:48225   */\n      dup2\n        /* \"#utility.yul\":48210:48214   */\n      dup2\n        /* \"#utility.yul\":48206:48226   */\n      sub\n        /* \"#utility.yul\":48202:48203   */\n      0x00\n        /* \"#utility.yul\":48191:48200   */\n      dup4\n        /* \"#utility.yul\":48187:48204   */\n      add\n        /* \"#utility.yul\":48180:48227   */\n      mstore\n        /* \"#utility.yul\":48244:48375   */\n      tag_973\n        /* \"#utility.yul\":48370:48374   */\n      dup2\n        /* \"#utility.yul\":48244:48375   */\n      tag_521\n      jump\t// in\n    tag_973:\n        /* \"#utility.yul\":48236:48375   */\n      swap1\n      pop\n        /* \"#utility.yul\":47963:48382   */\n      swap2\n      swap1\n      pop\n      jump\t// out\n        /* \"#utility.yul\":48388:48556   */\n    tag_522:\n        /* \"#utility.yul\":48528:48548   */\n      0x496e73756666696369656e742066756e64730000000000000000000000000000\n        /* \"#utility.yul\":48524:48525   */\n      0x00\n        /* \"#utility.yul\":48516:48522   */\n      dup3\n        /* \"#utility.yul\":48512:48526   */\n      add\n        /* \"#utility.yul\":48505:48549   */\n      mstore\n        /* \"#utility.yul\":48388:48556   */\n      pop\n      jump\t// out\n        /* \"#utility.yul\":48562:48928   */\n    tag_523:\n        /* \"#utility.yul\":48704:48707   */\n      0x00\n        /* \"#utility.yul\":48725:48792   */\n      tag_976\n        /* \"#utility.yul\":48789:48791   */\n      0x12\n        /* \"#utility.yul\":48784:48787   */\n      dup4\n        /* \"#utility.yul\":48725:48792   */\n      tag_464\n      jump\t// in\n    tag_976:\n        /* \"#utility.yul\":48718:48792   */\n      swap2\n      pop\n        /* \"#utility.yul\":48801:48894   */\n      tag_977\n        /* \"#utility.yul\":48890:48893   */\n      dup3\n        /* \"#utility.yul\":48801:48894   */\n      tag_522\n      jump\t// in\n    tag_977:\n        /* \"#utility.yul\":48919:48921   */\n      0x20\n        /* \"#utility.yul\":48914:48917   */\n      dup3\n        /* \"#utility.yul\":48910:48922   */\n      add\n        /* \"#utility.yul\":48903:48922   */\n      swap1\n      pop\n        /* \"#utility.yul\":48562:48928   */\n      swap2\n      swap1\n      pop\n      jump\t// out\n        /* \"#utility.yul\":48934:49353   */\n    tag_351:\n        /* \"#utility.yul\":49100:49104   */\n      0x00\n        /* \"#utility.yul\":49138:49140   */\n      0x20\n        /* \"#utility.yul\":49127:49136   */\n      dup3\n        /* \"#utility.yul\":49123:49141   */\n      add\n        /* \"#utility.yul\":49115:49141   */\n      swap1\n      pop\n        /* \"#utility.yul\":49187:49196   */\n      dup2\n        /* \"#utility.yul\":49181:49185   */\n      dup2\n        /* \"#utility.yul\":49177:49197   */\n      sub\n        /* \"#utility.yul\":49173:49174   */\n      0x00\n        /* \"#utility.yul\":49162:49171   */\n      dup4\n        /* \"#utility.yul\":49158:49175   */\n      add\n        /* \"#utility.yul\":49151:49198   */\n      mstore\n        /* \"#utility.yul\":49215:49346   */\n      tag_979\n        /* \"#utility.yul\":49341:49345   */\n      dup2\n        /* \"#utility.yul\":49215:49346   */\n      tag_523\n      jump\t// in\n    tag_979:\n        /* \"#utility.yul\":49207:49346   */\n      swap1\n      pop\n        /* \"#utility.yul\":48934:49353   */\n      swap2\n      swap1\n      pop\n      jump\t// out\n        /* \"#utility.yul\":49359:49757   */\n    tag_524:\n        /* \"#utility.yul\":49518:49521   */\n      0x00\n        /* \"#utility.yul\":49539:49622   */\n      tag_981\n        /* \"#utility.yul\":49620:49621   */\n      0x00\n        /* \"#utility.yul\":49615:49618   */\n      dup4\n        /* \"#utility.yul\":49539:49622   */\n      tag_480\n      jump\t// in\n    tag_981:\n        /* \"#utility.yul\":49532:49622   */\n      swap2\n      pop\n        /* \"#utility.yul\":49631:49724   */\n      tag_982\n        /* \"#utility.yul\":49720:49723   */\n      dup3\n        /* \"#utility.yul\":49631:49724   */\n      tag_428\n      jump\t// in\n    tag_982:\n        /* \"#utility.yul\":49749:49750   */\n      0x00\n        /* \"#utility.yul\":49744:49747   */\n      dup3\n        /* \"#utility.yul\":49740:49751   */\n      add\n        /* \"#utility.yul\":49733:49751   */\n      swap1\n      pop\n        /* \"#utility.yul\":49359:49757   */\n      swap2\n      swap1\n      pop\n      jump\t// out\n        /* \"#utility.yul\":49763:50142   */\n    tag_358:\n        /* \"#utility.yul\":49947:49950   */\n      0x00\n        /* \"#utility.yul\":49969:50116   */\n      tag_984\n        /* \"#utility.yul\":50112:50115   */\n      dup3\n        /* \"#utility.yul\":49969:50116   */\n      tag_524\n      jump\t// in\n    tag_984:\n        /* \"#utility.yul\":49962:50116   */\n      swap2\n      pop\n        /* \"#utility.yul\":50133:50136   */\n      dup2\n        /* \"#utility.yul\":50126:50136   */\n      swap1\n      pop\n        /* \"#utility.yul\":49763:50142   */\n      swap2\n      swap1\n      pop\n      jump\t// out\n        /* \"#utility.yul\":50148:50309   */\n    tag_525:\n        /* \"#utility.yul\":50288:50301   */\n      0x43616c6c206661696c6564000000000000000000000000000000000000000000\n        /* \"#utility.yul\":50284:50285   */\n      0x00\n        /* \"#utility.yul\":50276:50282   */\n      dup3\n        /* \"#utility.yul\":50272:50286   */\n      add\n        /* \"#utility.yul\":50265:50302   */\n      mstore\n        /* \"#utility.yul\":50148:50309   */\n      pop\n      jump\t// out\n        /* \"#utility.yul\":50315:50681   */\n    tag_526:\n        /* \"#utility.yul\":50457:50460   */\n      0x00\n        /* \"#utility.yul\":50478:50545   */\n      tag_987\n        /* \"#utility.yul\":50542:50544   */\n      0x0b\n        /* \"#utility.yul\":50537:50540   */\n      dup4\n        /* \"#utility.yul\":50478:50545   */\n      tag_464\n      jump\t// in\n    tag_987:\n        /* \"#utility.yul\":50471:50545   */\n      swap2\n      pop\n        /* \"#utility.yul\":50554:50647   */\n      tag_988\n        /* \"#utility.yul\":50643:50646   */\n      dup3\n        /* \"#utility.yul\":50554:50647   */\n      tag_525\n      jump\t// in\n    tag_988:\n        /* \"#utility.yul\":50672:50674   */\n      0x20\n        /* \"#utility.yul\":50667:50670   */\n      dup3\n        /* \"#utility.yul\":50663:50675   */\n      add\n        /* \"#utility.yul\":50656:50675   */\n      swap1\n      pop\n        /* \"#utility.yul\":50315:50681   */\n      swap2\n      swap1\n      pop\n      jump\t// out\n        /* \"#utility.yul\":50687:51106   */\n    tag_364:\n        /* \"#utility.yul\":50853:50857   */\n      0x00\n        /* \"#utility.yul\":50891:50893   */\n      0x20\n        /* \"#utility.yul\":50880:50889   */\n      dup3\n        /* \"#utility.yul\":50876:50894   */\n      add\n        /* \"#utility.yul\":50868:50894   */\n      swap1\n      pop\n        /* \"#utility.yul\":50940:50949   */\n      dup2\n        /* \"#utility.yul\":50934:50938   */\n      dup2\n        /* \"#utility.yul\":50930:50950   */\n      sub\n        /* \"#utility.yul\":50926:50927   */\n      0x00\n        /* \"#utility.yul\":50915:50924   */\n      dup4\n        /* \"#utility.yul\":50911:50928   */\n      add\n        /* \"#utility.yul\":50904:50951   */\n      mstore\n        /* \"#utility.yul\":50968:51099   */\n      tag_990\n        /* \"#utility.yul\":51094:51098   */\n      dup2\n        /* \"#utility.yul\":50968:51099   */\n      tag_526\n      jump\t// in\n    tag_990:\n        /* \"#utility.yul\":50960:51099   */\n      swap1\n      pop\n        /* \"#utility.yul\":50687:51106   */\n      swap2\n      swap1\n      pop\n      jump\t// out\n        /* \"#utility.yul\":51112:51554   */\n    tag_371:\n        /* \"#utility.yul\":51261:51265   */\n      0x00\n        /* \"#utility.yul\":51299:51301   */\n      0x60\n        /* \"#utility.yul\":51288:51297   */\n      dup3\n        /* \"#utility.yul\":51284:51302   */\n      add\n        /* \"#utility.yul\":51276:51302   */\n      swap1\n      pop\n        /* \"#utility.yul\":51312:51383   */\n      tag_992\n        /* \"#utility.yul\":51380:51381   */\n      0x00\n        /* \"#utility.yul\":51369:51378   */\n      dup4\n        /* \"#utility.yul\":51365:51382   */\n      add\n        /* \"#utility.yul\":51356:51362   */\n      dup7\n        /* \"#utility.yul\":51312:51383   */\n      tag_424\n      jump\t// in\n    tag_992:\n        /* \"#utility.yul\":51393:51465   */\n      tag_993\n        /* \"#utility.yul\":51461:51463   */\n      0x20\n        /* \"#utility.yul\":51450:51459   */\n      dup4\n        /* \"#utility.yul\":51446:51464   */\n      add\n        /* \"#utility.yul\":51437:51443   */\n      dup6\n        /* \"#utility.yul\":51393:51465   */\n      tag_424\n      jump\t// in\n    tag_993:\n        /* \"#utility.yul\":51475:51547   */\n      tag_994\n        /* \"#utility.yul\":51543:51545   */\n      0x40\n        /* \"#utility.yul\":51532:51541   */\n      dup4\n        /* \"#utility.yul\":51528:51546   */\n      add\n        /* \"#utility.yul\":51519:51525   */\n      dup5\n        /* \"#utility.yul\":51475:51547   */\n      tag_426\n      jump\t// in\n    tag_994:\n        /* \"#utility.yul\":51112:51554   */\n      swap5\n      swap4\n      pop\n      pop\n      pop\n      pop\n      jump\t// out\n        /* \"#utility.yul\":51560:51742   */\n    tag_527:\n        /* \"#utility.yul\":51700:51734   */\n      0x496e76616c6964207369676e6174757265202d2077726f6e67206c656e677468\n        /* \"#utility.yul\":51696:51697   */\n      0x00\n        /* \"#utility.yul\":51688:51694   */\n      dup3\n        /* \"#utility.yul\":51684:51698   */\n      add\n        /* \"#utility.yul\":51677:51735   */\n      mstore\n        /* \"#utility.yul\":51560:51742   */\n      pop\n      jump\t// out\n        /* \"#utility.yul\":51748:52114   */\n    tag_528:\n        /* \"#utility.yul\":51890:51893   */\n      0x00\n        /* \"#utility.yul\":51911:51978   */\n      tag_997\n        /* \"#utility.yul\":51975:51977   */\n      0x20\n        /* \"#utility.yul\":51970:51973   */\n      dup4\n        /* \"#utility.yul\":51911:51978   */\n      tag_464\n      jump\t// in\n    tag_997:\n        /* \"#utility.yul\":51904:51978   */\n      swap2\n      pop\n        /* \"#utility.yul\":51987:52080   */\n      tag_998\n        /* \"#utility.yul\":52076:52079   */\n      dup3\n        /* \"#utility.yul\":51987:52080   */\n      tag_527\n      jump\t// in\n    tag_998:\n        /* \"#utility.yul\":52105:52107   */\n      0x20\n        /* \"#utility.yul\":52100:52103   */\n      dup3\n        /* \"#utility.yul\":52096:52108   */\n      add\n        /* \"#utility.yul\":52089:52108   */\n      swap1\n      pop\n        /* \"#utility.yul\":51748:52114   */\n      swap2\n      swap1\n      pop\n      jump\t// out\n        /* \"#utility.yul\":52120:52539   */\n    tag_376:\n        /* \"#utility.yul\":52286:52290   */\n      0x00\n        /* \"#utility.yul\":52324:52326   */\n      0x20\n        /* \"#utility.yul\":52313:52322   */\n      dup3\n        /* \"#utility.yul\":52309:52327   */\n      add\n        /* \"#utility.yul\":52301:52327   */\n      swap1\n      pop\n        /* \"#utility.yul\":52373:52382   */\n      dup2\n        /* \"#utility.yul\":52367:52371   */\n      dup2\n        /* \"#utility.yul\":52363:52383   */\n      sub\n        /* \"#utility.yul\":52359:52360   */\n      0x00\n        /* \"#utility.yul\":52348:52357   */\n      dup4\n        /* \"#utility.yul\":52344:52361   */\n      add\n        /* \"#utility.yul\":52337:52384   */\n      mstore\n        /* \"#utility.yul\":52401:52532   */\n      tag_1000\n        /* \"#utility.yul\":52527:52531   */\n      dup2\n        /* \"#utility.yul\":52401:52532   */\n      tag_528\n      jump\t// in\n    tag_1000:\n        /* \"#utility.yul\":52393:52532   */\n      swap1\n      pop\n        /* \"#utility.yul\":52120:52539   */\n      swap2\n      swap1\n      pop\n      jump\t// out\n        /* \"#utility.yul\":52545:52782   */\n    tag_379:\n        /* \"#utility.yul\":52583:52586   */\n      0x00\n        /* \"#utility.yul\":52602:52620   */\n      tag_1002\n        /* \"#utility.yul\":52618:52619   */\n      dup3\n        /* \"#utility.yul\":52602:52620   */\n      tag_510\n      jump\t// in\n    tag_1002:\n        /* \"#utility.yul\":52597:52620   */\n      swap2\n      pop\n        /* \"#utility.yul\":52634:52652   */\n      tag_1003\n        /* \"#utility.yul\":52650:52651   */\n      dup4\n        /* \"#utility.yul\":52634:52652   */\n      tag_510\n      jump\t// in\n    tag_1003:\n        /* \"#utility.yul\":52629:52652   */\n      swap3\n      pop\n        /* \"#utility.yul\":52724:52725   */\n      dup3\n        /* \"#utility.yul\":52718:52722   */\n      0xff\n        /* \"#utility.yul\":52714:52726   */\n      sub\n        /* \"#utility.yul\":52711:52712   */\n      dup3\n        /* \"#utility.yul\":52708:52727   */\n      gt\n        /* \"#utility.yul\":52705:52750   */\n      iszero\n      tag_1004\n      jumpi\n        /* \"#utility.yul\":52730:52748   */\n      tag_1005\n      tag_486\n      jump\t// in\n    tag_1005:\n        /* \"#utility.yul\":52705:52750   */\n    tag_1004:\n        /* \"#utility.yul\":52774:52775   */\n      dup3\n        /* \"#utility.yul\":52771:52772   */\n      dup3\n        /* \"#utility.yul\":52767:52776   */\n      add\n        /* \"#utility.yul\":52760:52776   */\n      swap1\n      pop\n        /* \"#utility.yul\":52545:52782   */\n      swap3\n      swap2\n      pop\n      pop\n      jump\t// out\n        /* \"#utility.yul\":52788:53009   */\n    tag_529:\n        /* \"#utility.yul\":52928:52962   */\n      0x45434453413a20696e76616c6964207369676e6174757265202773272076616c\n        /* \"#utility.yul\":52924:52925   */\n      0x00\n        /* \"#utility.yul\":52916:52922   */\n      dup3\n        /* \"#utility.yul\":52912:52926   */\n      add\n        /* \"#utility.yul\":52905:52963   */\n      mstore\n        /* \"#utility.yul\":52997:53001   */\n      0x7565000000000000000000000000000000000000000000000000000000000000\n        /* \"#utility.yul\":52992:52994   */\n      0x20\n        /* \"#utility.yul\":52984:52990   */\n      dup3\n        /* \"#utility.yul\":52980:52995   */\n      add\n        /* \"#utility.yul\":52973:53002   */\n      mstore\n        /* \"#utility.yul\":52788:53009   */\n      pop\n      jump\t// out\n        /* \"#utility.yul\":53015:53381   */\n    tag_530:\n        /* \"#utility.yul\":53157:53160   */\n      0x00\n        /* \"#utility.yul\":53178:53245   */\n      tag_1008\n        /* \"#utility.yul\":53242:53244   */\n      0x22\n        /* \"#utility.yul\":53237:53240   */\n      dup4\n        /* \"#utility.yul\":53178:53245   */\n      tag_464\n      jump\t// in\n    tag_1008:\n        /* \"#utility.yul\":53171:53245   */\n      swap2\n      pop\n        /* \"#utility.yul\":53254:53347   */\n      tag_1009\n        /* \"#utility.yul\":53343:53346   */\n      dup3\n        /* \"#utility.yul\":53254:53347   */\n      tag_529\n      jump\t// in\n    tag_1009:\n        /* \"#utility.yul\":53372:53374   */\n      0x40\n        /* \"#utility.yul\":53367:53370   */\n      dup3\n        /* \"#utility.yul\":53363:53375   */\n      add\n        /* \"#utility.yul\":53356:53375   */\n      swap1\n      pop\n        /* \"#utility.yul\":53015:53381   */\n      swap2\n      swap1\n      pop\n      jump\t// out\n        /* \"#utility.yul\":53387:53806   */\n    tag_382:\n        /* \"#utility.yul\":53553:53557   */\n      0x00\n        /* \"#utility.yul\":53591:53593   */\n      0x20\n        /* \"#utility.yul\":53580:53589   */\n      dup3\n        /* \"#utility.yul\":53576:53594   */\n      add\n        /* \"#utility.yul\":53568:53594   */\n      swap1\n      pop\n        /* \"#utility.yul\":53640:53649   */\n      dup2\n        /* \"#utility.yul\":53634:53638   */\n      dup2\n        /* \"#utility.yul\":53630:53650   */\n      sub\n        /* \"#utility.yul\":53626:53627   */\n      0x00\n        /* \"#utility.yul\":53615:53624   */\n      dup4\n        /* \"#utility.yul\":53611:53628   */\n      add\n        /* \"#utility.yul\":53604:53651   */\n      mstore\n        /* \"#utility.yul\":53668:53799   */\n      tag_1011\n        /* \"#utility.yul\":53794:53798   */\n      dup2\n        /* \"#utility.yul\":53668:53799   */\n      tag_530\n      jump\t// in\n    tag_1011:\n        /* \"#utility.yul\":53660:53799   */\n      swap1\n      pop\n        /* \"#utility.yul\":53387:53806   */\n      swap2\n      swap1\n      pop\n      jump\t// out\n        /* \"#utility.yul\":53812:53924   */\n    tag_531:\n        /* \"#utility.yul\":53895:53917   */\n      tag_1013\n        /* \"#utility.yul\":53911:53916   */\n      dup2\n        /* \"#utility.yul\":53895:53917   */\n      tag_510\n      jump\t// in\n    tag_1013:\n        /* \"#utility.yul\":53890:53893   */\n      dup3\n        /* \"#utility.yul\":53883:53918   */\n      mstore\n        /* \"#utility.yul\":53812:53924   */\n      pop\n      pop\n      jump\t// out\n        /* \"#utility.yul\":53930:54475   */\n    tag_384:\n        /* \"#utility.yul\":54103:54107   */\n      0x00\n        /* \"#utility.yul\":54141:54144   */\n      0x80\n        /* \"#utility.yul\":54130:54139   */\n      dup3\n        /* \"#utility.yul\":54126:54145   */\n      add\n        /* \"#utility.yul\":54118:54145   */\n      swap1\n      pop\n        /* \"#utility.yul\":54155:54226   */\n      tag_1015\n        /* \"#utility.yul\":54223:54224   */\n      0x00\n        /* \"#utility.yul\":54212:54221   */\n      dup4\n        /* \"#utility.yul\":54208:54225   */\n      add\n        /* \"#utility.yul\":54199:54205   */\n      dup8\n        /* \"#utility.yul\":54155:54226   */\n      tag_485\n      jump\t// in\n    tag_1015:\n        /* \"#utility.yul\":54236:54304   */\n      tag_1016\n        /* \"#utility.yul\":54300:54302   */\n      0x20\n        /* \"#utility.yul\":54289:54298   */\n      dup4\n        /* \"#utility.yul\":54285:54303   */\n      add\n        /* \"#utility.yul\":54276:54282   */\n      dup7\n        /* \"#utility.yul\":54236:54304   */\n      tag_531\n      jump\t// in\n    tag_1016:\n        /* \"#utility.yul\":54314:54386   */\n      tag_1017\n        /* \"#utility.yul\":54382:54384   */\n      0x40\n        /* \"#utility.yul\":54371:54380   */\n      dup4\n        /* \"#utility.yul\":54367:54385   */\n      add\n        /* \"#utility.yul\":54358:54364   */\n      dup6\n        /* \"#utility.yul\":54314:54386   */\n      tag_485\n      jump\t// in\n    tag_1017:\n        /* \"#utility.yul\":54396:54468   */\n      tag_1018\n        /* \"#utility.yul\":54464:54466   */\n      0x60\n        /* \"#utility.yul\":54453:54462   */\n      dup4\n        /* \"#utility.yul\":54449:54467   */\n      add\n        /* \"#utility.yul\":54440:54446   */\n      dup5\n        /* \"#utility.yul\":54396:54468   */\n      tag_485\n      jump\t// in\n    tag_1018:\n        /* \"#utility.yul\":53930:54475   */\n      swap6\n      swap5\n      pop\n      pop\n      pop\n      pop\n      pop\n      jump\t// out\n        /* \"#utility.yul\":54481:54655   */\n    tag_532:\n        /* \"#utility.yul\":54621:54647   */\n      0x53657175656e636520494420616c726561647920757365640000000000000000\n        /* \"#utility.yul\":54617:54618   */\n      0x00\n        /* \"#utility.yul\":54609:54615   */\n      dup3\n        /* \"#utility.yul\":54605:54619   */\n      add\n        /* \"#utility.yul\":54598:54648   */\n      mstore\n        /* \"#utility.yul\":54481:54655   */\n      pop\n      jump\t// out\n        /* \"#utility.yul\":54661:55027   */\n    tag_533:\n        /* \"#utility.yul\":54803:54806   */\n      0x00\n        /* \"#utility.yul\":54824:54891   */\n      tag_1021\n        /* \"#utility.yul\":54888:54890   */\n      0x18\n        /* \"#utility.yul\":54883:54886   */\n      dup4\n        /* \"#utility.yul\":54824:54891   */\n      tag_464\n      jump\t// in\n    tag_1021:\n        /* \"#utility.yul\":54817:54891   */\n      swap2\n      pop\n        /* \"#utility.yul\":54900:54993   */\n      tag_1022\n        /* \"#utility.yul\":54989:54992   */\n      dup3\n        /* \"#utility.yul\":54900:54993   */\n      tag_532\n      jump\t// in\n    tag_1022:\n        /* \"#utility.yul\":55018:55020   */\n      0x20\n        /* \"#utility.yul\":55013:55016   */\n      dup3\n        /* \"#utility.yul\":55009:55021   */\n      add\n        /* \"#utility.yul\":55002:55021   */\n      swap1\n      pop\n        /* \"#utility.yul\":54661:55027   */\n      swap2\n      swap1\n      pop\n      jump\t// out\n        /* \"#utility.yul\":55033:55452   */\n    tag_401:\n        /* \"#utility.yul\":55199:55203   */\n      0x00\n        /* \"#utility.yul\":55237:55239   */\n      0x20\n        /* \"#utility.yul\":55226:55235   */\n      dup3\n        /* \"#utility.yul\":55222:55240   */\n      add\n        /* \"#utility.yul\":55214:55240   */\n      swap1\n      pop\n        /* \"#utility.yul\":55286:55295   */\n      dup2\n        /* \"#utility.yul\":55280:55284   */\n      dup2\n        /* \"#utility.yul\":55276:55296   */\n      sub\n        /* \"#utility.yul\":55272:55273   */\n      0x00\n        /* \"#utility.yul\":55261:55270   */\n      dup4\n        /* \"#utility.yul\":55257:55274   */\n      add\n        /* \"#utility.yul\":55250:55297   */\n      mstore\n        /* \"#utility.yul\":55314:55445   */\n      tag_1024\n        /* \"#utility.yul\":55440:55444   */\n      dup2\n        /* \"#utility.yul\":55314:55445   */\n      tag_533\n      jump\t// in\n    tag_1024:\n        /* \"#utility.yul\":55306:55445   */\n      swap1\n      pop\n        /* \"#utility.yul\":55033:55452   */\n      swap2\n      swap1\n      pop\n      jump\t// out\n        /* \"#utility.yul\":55458:55632   */\n    tag_534:\n        /* \"#utility.yul\":55598:55624   */\n      0x53657175656e63652049442062656c6f772077696e646f770000000000000000\n        /* \"#utility.yul\":55594:55595   */\n      0x00\n        /* \"#utility.yul\":55586:55592   */\n      dup3\n        /* \"#utility.yul\":55582:55596   */\n      add\n        /* \"#utility.yul\":55575:55625   */\n      mstore\n        /* \"#utility.yul\":55458:55632   */\n      pop\n      jump\t// out\n        /* \"#utility.yul\":55638:56004   */\n    tag_535:\n        /* \"#utility.yul\":55780:55783   */\n      0x00\n        /* \"#utility.yul\":55801:55868   */\n      tag_1027\n        /* \"#utility.yul\":55865:55867   */\n      0x18\n        /* \"#utility.yul\":55860:55863   */\n      dup4\n        /* \"#utility.yul\":55801:55868   */\n      tag_464\n      jump\t// in\n    tag_1027:\n        /* \"#utility.yul\":55794:55868   */\n      swap2\n      pop\n        /* \"#utility.yul\":55877:55970   */\n      tag_1028\n        /* \"#utility.yul\":55966:55969   */\n      dup3\n        /* \"#utility.yul\":55877:55970   */\n      tag_534\n      jump\t// in\n    tag_1028:\n        /* \"#utility.yul\":55995:55997   */\n      0x20\n        /* \"#utility.yul\":55990:55993   */\n      dup3\n        /* \"#utility.yul\":55986:55998   */\n      add\n        /* \"#utility.yul\":55979:55998   */\n      swap1\n      pop\n        /* \"#utility.yul\":55638:56004   */\n      swap2\n      swap1\n      pop\n      jump\t// out\n        /* \"#utility.yul\":56010:56429   */\n    tag_412:\n        /* \"#utility.yul\":56176:56180   */\n      0x00\n        /* \"#utility.yul\":56214:56216   */\n      0x20\n        /* \"#utility.yul\":56203:56212   */\n      dup3\n        /* \"#utility.yul\":56199:56217   */\n      add\n        /* \"#utility.yul\":56191:56217   */\n      swap1\n      pop\n        /* \"#utility.yul\":56263:56272   */\n      dup2\n        /* \"#utility.yul\":56257:56261   */\n      dup2\n        /* \"#utility.yul\":56253:56273   */\n      sub\n        /* \"#utility.yul\":56249:56250   */\n      0x00\n        /* \"#utility.yul\":56238:56247   */\n      dup4\n        /* \"#utility.yul\":56234:56251   */\n      add\n        /* \"#utility.yul\":56227:56274   */\n      mstore\n        /* \"#utility.yul\":56291:56422   */\n      tag_1030\n        /* \"#utility.yul\":56417:56421   */\n      dup2\n        /* \"#utility.yul\":56291:56422   */\n      tag_535\n      jump\t// in\n    tag_1030:\n        /* \"#utility.yul\":56283:56422   */\n      swap1\n      pop\n        /* \"#utility.yul\":56010:56429   */\n      swap2\n      swap1\n      pop\n      jump\t// out\n        /* \"#utility.yul\":56435:56610   */\n    tag_536:\n        /* \"#utility.yul\":56575:56602   */\n      0x53657175656e63652049442061626f7665206d6178696d756d00000000000000\n        /* \"#utility.yul\":56571:56572   */\n      0x00\n        /* \"#utility.yul\":56563:56569   */\n      dup3\n        /* \"#utility.yul\":56559:56573   */\n      add\n        /* \"#utility.yul\":56552:56603   */\n      mstore\n        /* \"#utility.yul\":56435:56610   */\n      pop\n      jump\t// out\n        /* \"#utility.yul\":56616:56982   */\n    tag_537:\n        /* \"#utility.yul\":56758:56761   */\n      0x00\n        /* \"#utility.yul\":56779:56846   */\n      tag_1033\n        /* \"#utility.yul\":56843:56845   */\n      0x19\n        /* \"#utility.yul\":56838:56841   */\n      dup4\n        /* \"#utility.yul\":56779:56846   */\n      tag_464\n      jump\t// in\n    tag_1033:\n        /* \"#utility.yul\":56772:56846   */\n      swap2\n      pop\n        /* \"#utility.yul\":56855:56948   */\n      tag_1034\n        /* \"#utility.yul\":56944:56947   */\n      dup3\n        /* \"#utility.yul\":56855:56948   */\n      tag_536\n      jump\t// in\n    tag_1034:\n        /* \"#utility.yul\":56973:56975   */\n      0x20\n        /* \"#utility.yul\":56968:56971   */\n      dup3\n        /* \"#utility.yul\":56964:56976   */\n      add\n        /* \"#utility.yul\":56957:56976   */\n      swap1\n      pop\n        /* \"#utility.yul\":56616:56982   */\n      swap2\n      swap1\n      pop\n      jump\t// out\n        /* \"#utility.yul\":56988:57407   */\n    tag_418:\n        /* \"#utility.yul\":57154:57158   */\n      0x00\n        /* \"#utility.yul\":57192:57194   */\n      0x20\n        /* \"#utility.yul\":57181:57190   */\n      dup3\n        /* \"#utility.yul\":57177:57195   */\n      add\n        /* \"#utility.yul\":57169:57195   */\n      swap1\n      pop\n        /* \"#utility.yul\":57241:57250   */\n      dup2\n        /* \"#utility.yul\":57235:57239   */\n      dup2\n        /* \"#utility.yul\":57231:57251   */\n      sub\n        /* \"#utility.yul\":57227:57228   */\n      0x00\n        /* \"#utility.yul\":57216:57225   */\n      dup4\n        /* \"#utility.yul\":57212:57229   */\n      add\n        /* \"#utility.yul\":57205:57252   */\n      mstore\n        /* \"#utility.yul\":57269:57400   */\n      tag_1036\n        /* \"#utility.yul\":57395:57399   */\n      dup2\n        /* \"#utility.yul\":57269:57400   */\n      tag_537\n      jump\t// in\n    tag_1036:\n        /* \"#utility.yul\":57261:57400   */\n      swap1\n      pop\n        /* \"#utility.yul\":56988:57407   */\n      swap2\n      swap1\n      pop\n      jump\t// out\n\n    auxdata: 0xa26469706673582212204048bf833aeb7058f5864a85be466091cc5938a7bd388ad2aa62d5302524ddf564736f6c634300080a0033\n}\n",
				"bytecode": {
					"linkReferences": {},
					"object": "60806040526000600160006101000a81548160ff02191690831515021790555060006001806101000a81548160ff02191690831515021790555034801561004557600080fd5b50613834806100556000396000f3fe6080604052600436106101235760003560e01c806392467776116100a0578063c137878411610064578063c137878414610488578063c6044c46146104b1578063e6bd0aa4146104da578063f23a6e6114610503578063fc0f392d146105405761016d565b806392467776146103a3578063a0b7967b146103cc578063abe3219c146103f7578063ad3ad70914610422578063bc197c811461044b5761016d565b806334f94047116100e757806334f94047146102ae57806339125215146102d75780635a953d0a14610300578063736c0d5b146103295780637df73e27146103665761016d565b806301ffc9a7146101b75780630dcd7a6c146101f4578063150b7a021461021d578063158ef93e1461025a5780632da03409146102855761016d565b3661016d57600034111561016b577f6e89d517057028190560dd200cf6bf792842861353d1173761dfa362e1c133f03334604051610162929190611c6a565b60405180910390a15b005b60003411156101b5577f6e89d517057028190560dd200cf6bf792842861353d1173761dfa362e1c133f033346000366040516101ac9493929190611cf3565b60405180910390a15b005b3480156101c357600080fd5b506101de60048036038101906101d99190611d9f565b610557565b6040516101eb9190611de7565b60405180910390f35b34801561020057600080fd5b5061021b60048036038101906102169190611ebf565b6105d1565b005b34801561022957600080fd5b50610244600480360381019061023f919061208f565b610679565b6040516102519190612121565b60405180910390f35b34801561026657600080fd5b5061026f61068d565b60405161027c9190611de7565b60405180910390f35b34801561029157600080fd5b506102ac60048036038101906102a7919061217a565b61069e565b005b3480156102ba57600080fd5b506102d560048036038101906102d09190612210565b61075b565b005b3480156102e357600080fd5b506102fe60048036038101906102f99190612284565b61081e565b005b34801561030c57600080fd5b5061032760048036038101906103229190612353565b6109b6565b005b34801561033557600080fd5b50610350600480360381019061034b91906123a6565b610a76565b60405161035d9190611de7565b60405180910390f35b34801561037257600080fd5b5061038d600480360381019061038891906123a6565b610a96565b60405161039a9190611de7565b60405180910390f35b3480156103af57600080fd5b506103ca60048036038101906103c591906123ff565b610aeb565b005b3480156103d857600080fd5b506103e1610ba8565b6040516103ee919061243f565b60405180910390f35b34801561040357600080fd5b5061040c610c18565b6040516104199190611de7565b60405180910390f35b34801561042e57600080fd5b50610449600480360381019061044491906124b0565b610c2b565b005b34801561045757600080fd5b50610472600480360381019061046d919061258c565b610e3d565b60405161047f9190612121565b60405180910390f35b34801561049457600080fd5b506104af60048036038101906104aa91906123ff565b610e55565b005b3480156104bd57600080fd5b506104d860048036038101906104d39190612668565b610f12565b005b3480156104e657600080fd5b5061050160048036038101906104fc9190612353565b611104565b005b34801561050f57600080fd5b5061052a600480360381019061052591906126b5565b6111c4565b6040516105379190612121565b60405180910390f35b34801561054c57600080fd5b506105556111da565b005b60007f4e2312e0000000000000000000000000000000000000000000000000000000007bffffffffffffffffffffffffffffffffffffffffffffffffffffffff1916827bffffffffffffffffffffffffffffffffffffffffffffffffffffffff191614806105ca57506105c982611275565b5b9050919050565b6105da33610a96565b610619576040517f08c379a0000000000000000000000000000000000000000000000000000000008152600401610610906127ac565b60405180910390fd5b60006106236112df565b888888888860405160200161063d969594939291906128af565b60405160208183030381529060405280519060200120905061066388828585898961131c565b5061066f8689896114e0565b5050505050505050565b600063150b7a0260e01b9050949350505050565b60018054906101000a900460ff1681565b6106a733610a96565b6106e6576040517f08c379a00000000000000000000000000000000000000000000000000000000081526004016106dd906127ac565b60405180910390fd5b60008290508073ffffffffffffffffffffffffffffffffffffffff16633ef13367836040518263ffffffff1660e01b8152600401610724919061291b565b600060405180830381600087803b15801561073e57600080fd5b505af1158015610752573d6000803e3d6000fd5b50505050505050565b61076433610a96565b6107a3576040517f08c379a000000000000000000000000000000000000000000000000000000000815260040161079a906127ac565b60405180910390fd5b60008490508073ffffffffffffffffffffffffffffffffffffffff1663c6a2dd248585856040518463ffffffff1660e01b81526004016107e5939291906129a8565b600060405180830381600087803b1580156107ff57600080fd5b505af1158015610813573d6000803e3d6000fd5b505050505050505050565b61082733610a96565b610866576040517f08c379a000000000000000000000000000000000000000000000000000000000815260040161085d906127ac565b60405180910390fd5b6000610870611616565b89898989898960405160200161088c9796959493929190612a0a565b60405160208183030381529060405280519060200120905060006108b48a8386868a8a61131c565b905060008a73ffffffffffffffffffffffffffffffffffffffff168a8a8a6040516108e0929190612a74565b60006040518083038185875af1925050503d806000811461091d576040519150601f19603f3d011682016040523d82523d6000602084013e610922565b606091505b5050905080610966576040517f08c379a000000000000000000000000000000000000000000000000000000000815260040161095d90612ad9565b60405180910390fd5b7f59bed9ab5d78073465dd642a9e3e76dfdb7d53bcae9d09df7d0b8f5234d5a8063383858e8e8e8e6040516109a19796959493929190612b12565b60405180910390a15050505050505050505050565b6109bf33610a96565b6109fe576040517f08c379a00000000000000000000000000000000000000000000000000000000081526004016109f5906127ac565b60405180910390fd5b60008390508073ffffffffffffffffffffffffffffffffffffffff1663159e44d784846040518363ffffffff1660e01b8152600401610a3e929190612b7c565b600060405180830381600087803b158015610a5857600080fd5b505af1158015610a6c573d6000803e3d6000fd5b5050505050505050565b60006020528060005260406000206000915054906101000a900460ff1681565b60008060008373ffffffffffffffffffffffffffffffffffffffff1673ffffffffffffffffffffffffffffffffffffffff16815260200190815260200160002060009054906101000a900460ff169050919050565b610af433610a96565b610b33576040517f08c379a0000000000000000000000000000000000000000000000000000000008152600401610b2a906127ac565b60405180910390fd5b60008290508073ffffffffffffffffffffffffffffffffffffffff16638acc01be836040518263ffffffff1660e01b8152600401610b719190611de7565b600060405180830381600087803b158015610b8b57600080fd5b505af1158015610b9f573d6000803e3d6000fd5b50505050505050565b6000806000905060005b600a811015610c045781600282600a8110610bd057610bcf612ba5565b5b01541115610bf157600281600a8110610bec57610beb612ba5565b5b015491505b8080610bfc90612c03565b915050610bb2565b50600181610c129190612c4c565b91505090565b600160009054906101000a900460ff1681565b610c3433610a96565b610c73576040517f08c379a0000000000000000000000000000000000000000000000000000000008152600401610c6a906127ac565b60405180910390fd5b6000888890501415610cba576040517f08c379a0000000000000000000000000000000000000000000000000000000008152600401610cb190612cee565b60405180910390fd5b858590508888905014610d02576040517f08c379a0000000000000000000000000000000000000000000000000000000008152600401610cf990612d5a565b60405180910390fd5b6101008888905010610d49576040517f08c379a0000000000000000000000000000000000000000000000000000000008152600401610d4090612dc6565b60405180910390fd5b6000610d53611653565b898989898989604051602001610d6f9796959493929190612f0a565b604051602081830303815290604052805190602001209050600160009054906101000a900460ff1615610dd7576040517f08c379a0000000000000000000000000000000000000000000000000000000008152600401610dce90612fad565b60405180910390fd5b6000610de860008386868a8a61131c565b9050610df68a8a8a8a611690565b7fe4c9047a729726b729cf4fa62c95ef9a434bbaf206a7ea0c7c77515db1584022338284604051610e2993929190612fcd565b60405180910390a150505050505050505050565b600063bc197c8160e01b905098975050505050505050565b610e5e33610a96565b610e9d576040517f08c379a0000000000000000000000000000000000000000000000000000000008152600401610e94906127ac565b60405180910390fd5b60008290508073ffffffffffffffffffffffffffffffffffffffff1663c59f9f19836040518263ffffffff1660e01b8152600401610edb9190611de7565b600060405180830381600087803b158015610ef557600080fd5b505af1158015610f09573d6000803e3d6000fd5b50505050505050565b60018054906101000a900460ff1615610f60576040517f08c379a0000000000000000000000000000000000000000000000000000000008152600401610f5790613050565b60405180910390fd5b60038282905014610fa6576040517f08c379a0000000000000000000000000000000000000000000000000000000008152600401610f9d906130bc565b60405180910390fd5b60005b828290508160ff1610156110e557600073ffffffffffffffffffffffffffffffffffffffff1683838360ff16818110610fe557610fe4612ba5565b5b9050602002016020810190610ffa91906123a6565b73ffffffffffffffffffffffffffffffffffffffff161415611051576040517f08c379a000000000000000000000000000000000000000000000000000000000815260040161104890613128565b60405180910390fd5b600160008085858560ff1681811061106c5761106b612ba5565b5b905060200201602081019061108191906123a6565b73ffffffffffffffffffffffffffffffffffffffff1673ffffffffffffffffffffffffffffffffffffffff16815260200190815260200160002060006101000a81548160ff02191690831515021790555080806110dd90613155565b915050610fa9565b5060018060016101000a81548160ff0219169083151502179055505050565b61110d33610a96565b61114c576040517f08c379a0000000000000000000000000000000000000000000000000000000008152600401611143906127ac565b60405180910390fd5b60008390508073ffffffffffffffffffffffffffffffffffffffff16638972c17c84846040518363ffffffff1660e01b815260040161118c929190612b7c565b600060405180830381600087803b1580156111a657600080fd5b505af11580156111ba573d6000803e3d6000fd5b5050505050505050565b600063f23a6e6160e01b90509695505050505050565b6111e333610a96565b611222576040517f08c379a0000000000000000000000000000000000000000000000000000000008152600401611219906127ac565b60405180910390fd5b60018060006101000a81548160ff0219169083151502179055507f0909e8f76a4fd3e970f2eaef56c0ee6dfaf8b87c5b8d3f56ffce78e825a911573360405161126b919061291b565b60405180910390a1565b60007f01ffc9a7000000000000000000000000000000000000000000000000000000007bffffffffffffffffffffffffffffffffffffffffffffffffffffffff1916827bffffffffffffffffffffffffffffffffffffffffffffffffffffffff1916149050919050565b60606040518060400160405280600581526020017f4552433230000000000000000000000000000000000000000000000000000000815250905090565b60008061136d8787878080601f016020809104026020016040519081016040528093929190818152602001838380828437600081840152601f19601f8201169050808301925050505050505061187c565b9050600160009054906101000a900460ff161580611390575061138f88610a96565b5b6113cf576040517f08c379a00000000000000000000000000000000000000000000000000000000081526004016113c6906131cb565b60405180910390fd5b42841015611412576040517f08c379a000000000000000000000000000000000000000000000000000000000815260040161140990613237565b60405180910390fd5b61141b836119bb565b61142481610a96565b611463576040517f08c379a000000000000000000000000000000000000000000000000000000000815260040161145a90613128565b60405180910390fd5b3373ffffffffffffffffffffffffffffffffffffffff168173ffffffffffffffffffffffffffffffffffffffff1614156114d2576040517f08c379a00000000000000000000000000000000000000000000000000000000081526004016114c9906132a3565b60405180910390fd5b809150509695505050505050565b6000808473ffffffffffffffffffffffffffffffffffffffff1663a9059cbb8585604051602401611512929190612b7c565b6040516020818303038152906040529060e01b6020820180517bffffffffffffffffffffffffffffffffffffffffffffffffffffffff838183161783525050505060405161156091906132ff565b6000604051808303816000865af19150503d806000811461159d576040519150601f19603f3d011682016040523d82523d6000602084013e6115a2565b606091505b50915091508180156115d057506000815114806115cf5750808060200190518101906115ce919061332b565b5b5b61160f576040517f08c379a0000000000000000000000000000000000000000000000000000000008152600401611606906133ca565b60405180910390fd5b5050505050565b60606040518060400160405280600581526020017f4554484552000000000000000000000000000000000000000000000000000000815250905090565b60606040518060400160405280600b81526020017f45544845522d4261746368000000000000000000000000000000000000000000815250905090565b60005b84849050811015611875578282828181106116b1576116b0612ba5565b5b905060200201354710156116fa576040517f08c379a00000000000000000000000000000000000000000000000000000000081526004016116f190613436565b60405180910390fd5b600085858381811061170f5761170e612ba5565b5b905060200201602081019061172491906123a6565b73ffffffffffffffffffffffffffffffffffffffff1684848481811061174d5761174c612ba5565b5b9050602002013560405161176090613479565b60006040518083038185875af1925050503d806000811461179d576040519150601f19603f3d011682016040523d82523d6000602084013e6117a2565b606091505b50509050806117e6576040517f08c379a00000000000000000000000000000000000000000000000000000000081526004016117dd906134da565b60405180910390fd5b7fc42fa155158786a1dd6ccc3a785f35845467353c3cc700e0e31a79f90e22227d3387878581811061181b5761181a612ba5565b5b905060200201602081019061183091906123a6565b86868681811061184357611842612ba5565b5b90506020020135604051611859939291906134fa565b60405180910390a150808061186d90612c03565b915050611693565b5050505050565b600060418251146118c2576040517f08c379a00000000000000000000000000000000000000000000000000000000081526004016118b99061357d565b60405180910390fd5b6000806000602085015192506040850151915060ff6041860151169050601b8160ff1610156118fb57601b816118f8919061359d565b90505b7f7fffffffffffffffffffffffffffffff5d576e7357a4501ddfe92f46681b20a08260001c1115611961576040517f08c379a000000000000000000000000000000000000000000000000000000000815260040161195890613646565b60405180910390fd5b600186828585604051600081526020016040526040516119849493929190613675565b6020604051602081039080840390855afa1580156119a6573d6000803e3d6000fd5b50505060206040510351935050505092915050565b6119c433610a96565b611a03576040517f08c379a00000000000000000000000000000000000000000000000000000000081526004016119fa906127ac565b60405180910390fd5b6000806002600a806020026040519081016040528092919082600a8015611a3f576020028201915b815481526020019060010190808311611a2b575b5050505050905060005b600a811015611af957838282600a8110611a6657611a65612ba5565b5b60200201511415611aac576040517f08c379a0000000000000000000000000000000000000000000000000000000008152600401611aa390613706565b60405180910390fd5b8183600a8110611abf57611abe612ba5565b5b60200201518282600a8110611ad757611ad6612ba5565b5b60200201511015611ae6578092505b8080611af190612c03565b915050611a49565b508082600a8110611b0d57611b0c612ba5565b5b60200201518311611b53576040517f08c379a0000000000000000000000000000000000000000000000000000000008152600401611b4a90613772565b60405180910390fd5b6127108183600a8110611b6957611b68612ba5565b5b6020020151611b789190612c4c565b831115611bba576040517f08c379a0000000000000000000000000000000000000000000000000000000008152600401611bb1906137de565b60405180910390fd5b82600283600a8110611bcf57611bce612ba5565b5b0181905550505050565b600073ffffffffffffffffffffffffffffffffffffffff82169050919050565b6000611c0482611bd9565b9050919050565b611c1481611bf9565b82525050565b6000819050919050565b611c2d81611c1a565b82525050565b600082825260208201905092915050565b50565b6000611c54600083611c33565b9150611c5f82611c44565b600082019050919050565b6000606082019050611c7f6000830185611c0b565b611c8c6020830184611c24565b8181036040830152611c9d81611c47565b90509392505050565b82818337600083830152505050565b6000601f19601f8301169050919050565b6000611cd28385611c33565b9350611cdf838584611ca6565b611ce883611cb5565b840190509392505050565b6000606082019050611d086000830187611c0b565b611d156020830186611c24565b8181036040830152611d28818486611cc6565b905095945050505050565b6000604051905090565b600080fd5b600080fd5b60007fffffffff0000000000000000000000000000000000000000000000000000000082169050919050565b611d7c81611d47565b8114611d8757600080fd5b50565b600081359050611d9981611d73565b92915050565b600060208284031215611db557611db4611d3d565b5b6000611dc384828501611d8a565b91505092915050565b60008115159050919050565b611de181611dcc565b82525050565b6000602082019050611dfc6000830184611dd8565b92915050565b611e0b81611bf9565b8114611e1657600080fd5b50565b600081359050611e2881611e02565b92915050565b611e3781611c1a565b8114611e4257600080fd5b50565b600081359050611e5481611e2e565b92915050565b600080fd5b600080fd5b600080fd5b60008083601f840112611e7f57611e7e611e5a565b5b8235905067ffffffffffffffff811115611e9c57611e9b611e5f565b5b602083019150836001820283011115611eb857611eb7611e64565b5b9250929050565b600080600080600080600060c0888a031215611ede57611edd611d3d565b5b6000611eec8a828b01611e19565b9750506020611efd8a828b01611e45565b9650506040611f0e8a828b01611e19565b9550506060611f1f8a828b01611e45565b9450506080611f308a828b01611e45565b93505060a088013567ffffffffffffffff811115611f5157611f50611d42565b5b611f5d8a828b01611e69565b925092505092959891949750929550565b600080fd5b7f4e487b7100000000000000000000000000000000000000000000000000000000600052604160045260246000fd5b611fab82611cb5565b810181811067ffffffffffffffff82111715611fca57611fc9611f73565b5b80604052505050565b6000611fdd611d33565b9050611fe98282611fa2565b919050565b600067ffffffffffffffff82111561200957612008611f73565b5b61201282611cb5565b9050602081019050919050565b600061203261202d84611fee565b611fd3565b90508281526020810184848401111561204e5761204d611f6e565b5b612059848285611ca6565b509392505050565b600082601f83011261207657612075611e5a565b5b813561208684826020860161201f565b91505092915050565b600080600080608085870312156120a9576120a8611d3d565b5b60006120b787828801611e19565b94505060206120c887828801611e19565b93505060406120d987828801611e45565b925050606085013567ffffffffffffffff8111156120fa576120f9611d42565b5b61210687828801612061565b91505092959194509250565b61211b81611d47565b82525050565b60006020820190506121366000830184612112565b92915050565b600061214782611bd9565b9050919050565b6121578161213c565b811461216257600080fd5b50565b6000813590506121748161214e565b92915050565b6000806040838503121561219157612190611d3d565b5b600061219f85828601612165565b92505060206121b085828601611e19565b9150509250929050565b60008083601f8401126121d0576121cf611e5a565b5b8235905067ffffffffffffffff8111156121ed576121ec611e5f565b5b60208301915083602082028301111561220957612208611e64565b5b9250929050565b6000806000806060858703121561222a57612229611d3d565b5b600061223887828801612165565b945050602061224987828801611e19565b935050604085013567ffffffffffffffff81111561226a57612269611d42565b5b612276878288016121ba565b925092505092959194509250565b60008060008060008060008060c0898b0312156122a4576122a3611d3d565b5b60006122b28b828c01611e19565b98505060206122c38b828c01611e45565b975050604089013567ffffffffffffffff8111156122e4576122e3611d42565b5b6122f08b828c01611e69565b965096505060606123038b828c01611e45565b94505060806123148b828c01611e45565b93505060a089013567ffffffffffffffff81111561233557612334611d42565b5b6123418b828c01611e69565b92509250509295985092959890939650565b60008060006060848603121561236c5761236b611d3d565b5b600061237a86828701612165565b935050602061238b86828701611e19565b925050604061239c86828701611e45565b9150509250925092565b6000602082840312156123bc576123bb611d3d565b5b60006123ca84828501611e19565b91505092915050565b6123dc81611dcc565b81146123e757600080fd5b50565b6000813590506123f9816123d3565b92915050565b6000806040838503121561241657612415611d3d565b5b600061242485828601611e19565b9250506020612435858286016123ea565b9150509250929050565b60006020820190506124546000830184611c24565b92915050565b60008083601f8401126124705761246f611e5a565b5b8235905067ffffffffffffffff81111561248d5761248c611e5f565b5b6020830191508360208202830111156124a9576124a8611e64565b5b9250929050565b60008060008060008060008060a0898b0312156124d0576124cf611d3d565b5b600089013567ffffffffffffffff8111156124ee576124ed611d42565b5b6124fa8b828c0161245a565b9850985050602089013567ffffffffffffffff81111561251d5761251c611d42565b5b6125298b828c016121ba565b9650965050604061253c8b828c01611e45565b945050606061254d8b828c01611e45565b935050608089013567ffffffffffffffff81111561256e5761256d611d42565b5b61257a8b828c01611e69565b92509250509295985092959890939650565b60008060008060008060008060a0898b0312156125ac576125ab611d3d565b5b60006125ba8b828c01611e19565b98505060206125cb8b828c01611e19565b975050604089013567ffffffffffffffff8111156125ec576125eb611d42565b5b6125f88b828c016121ba565b9650965050606089013567ffffffffffffffff81111561261b5761261a611d42565b5b6126278b828c016121ba565b9450945050608089013567ffffffffffffffff81111561264a57612649611d42565b5b6126568b828c01611e69565b92509250509295985092959890939650565b6000806020838503121561267f5761267e611d3d565b5b600083013567ffffffffffffffff81111561269d5761269c611d42565b5b6126a98582860161245a565b92509250509250929050565b60008060008060008060a087890312156126d2576126d1611d3d565b5b60006126e089828a01611e19565b96505060206126f189828a01611e19565b955050604061270289828a01611e45565b945050606061271389828a01611e45565b935050608087013567ffffffffffffffff81111561273457612733611d42565b5b61274089828a01611e69565b92509250509295509295509295565b600082825260208201905092915050565b7f4e6f6e2d7369676e657220696e206f6e6c795369676e6572206d6574686f6400600082015250565b6000612796601f8361274f565b91506127a182612760565b602082019050919050565b600060208201905081810360008301526127c581612789565b9050919050565b600081519050919050565b600081905092915050565b60005b838110156128005780820151818401526020810190506127e5565b8381111561280f576000848401525b50505050565b6000612820826127cc565b61282a81856127d7565b935061283a8185602086016127e2565b80840191505092915050565b60008160601b9050919050565b600061285e82612846565b9050919050565b600061287082612853565b9050919050565b61288861288382611bf9565b612865565b82525050565b6000819050919050565b6128a96128a482611c1a565b61288e565b82525050565b60006128bb8289612815565b91506128c78288612877565b6014820191506128d78287612898565b6020820191506128e78286612877565b6014820191506128f78285612898565b6020820191506129078284612898565b602082019150819050979650505050505050565b60006020820190506129306000830184611c0b565b92915050565b600082825260208201905092915050565b600080fd5b60006129588385612936565b93507f07ffffffffffffffffffffffffffffffffffffffffffffffffffffffffffffff83111561298b5761298a612947565b5b60208302925061299c838584611ca6565b82840190509392505050565b60006040820190506129bd6000830186611c0b565b81810360208301526129d081848661294c565b9050949350505050565b600081905092915050565b60006129f183856129da565b93506129fe838584611ca6565b82840190509392505050565b6000612a16828a612815565b9150612a228289612877565b601482019150612a328288612898565b602082019150612a438286886129e5565b9150612a4f8285612898565b602082019150612a5f8284612898565b60208201915081905098975050505050505050565b6000612a818284866129e5565b91508190509392505050565b7f43616c6c20657865637574696f6e206661696c65640000000000000000000000600082015250565b6000612ac360158361274f565b9150612ace82612a8d565b602082019050919050565b60006020820190508181036000830152612af281612ab6565b9050919050565b6000819050919050565b612b0c81612af9565b82525050565b600060c082019050612b27600083018a611c0b565b612b346020830189611c0b565b612b416040830188612b03565b612b4e6060830187611c0b565b612b5b6080830186611c24565b81810360a0830152612b6e818486611cc6565b905098975050505050505050565b6000604082019050612b916000830185611c0b565b612b9e6020830184611c24565b9392505050565b7f4e487b7100000000000000000000000000000000000000000000000000000000600052603260045260246000fd5b7f4e487b7100000000000000000000000000000000000000000000000000000000600052601160045260246000fd5b6000612c0e82611c1a565b91507fffffffffffffffffffffffffffffffffffffffffffffffffffffffffffffffff821415612c4157612c40612bd4565b5b600182019050919050565b6000612c5782611c1a565b9150612c6283611c1a565b9250827fffffffffffffffffffffffffffffffffffffffffffffffffffffffffffffffff03821115612c9757612c96612bd4565b5b828201905092915050565b7f4e6f7420656e6f75676820726563697069656e74730000000000000000000000600082015250565b6000612cd860158361274f565b9150612ce382612ca2565b602082019050919050565b60006020820190508181036000830152612d0781612ccb565b9050919050565b7f556e657175616c20726563697069656e747320616e642076616c756573000000600082015250565b6000612d44601d8361274f565b9150612d4f82612d0e565b602082019050919050565b60006020820190508181036000830152612d7381612d37565b9050919050565b7f546f6f206d616e7920726563697069656e74732c206d61782032353500000000600082015250565b6000612db0601c8361274f565b9150612dbb82612d7a565b602082019050919050565b60006020820190508181036000830152612ddf81612da3565b9050919050565b600081905092915050565b6000819050919050565b612e0481611bf9565b82525050565b6000612e168383612dfb565b60208301905092915050565b6000612e316020840184611e19565b905092915050565b6000602082019050919050565b6000612e528385612de6565b9350612e5d82612df1565b8060005b85811015612e9657612e738284612e22565b612e7d8882612e0a565b9750612e8883612e39565b925050600181019050612e61565b5085925050509392505050565b600081905092915050565b6000612eba8385612ea3565b93507f07ffffffffffffffffffffffffffffffffffffffffffffffffffffffffffffff831115612eed57612eec612947565b5b602083029250612efe838584611ca6565b82840190509392505050565b6000612f16828a612815565b9150612f2382888a612e46565b9150612f30828688612eae565b9150612f3c8285612898565b602082019150612f4c8284612898565b60208201915081905098975050505050505050565b7f426174636820696e2073616665206d6f64650000000000000000000000000000600082015250565b6000612f9760128361274f565b9150612fa282612f61565b602082019050919050565b60006020820190508181036000830152612fc681612f8a565b9050919050565b6000606082019050612fe26000830186611c0b565b612fef6020830185611c0b565b612ffc6040830184612b03565b949350505050565b7f436f6e747261637420616c726561647920696e697469616c697a656400000000600082015250565b600061303a601c8361274f565b915061304582613004565b602082019050919050565b600060208201905081810360008301526130698161302d565b9050919050565b7f496e76616c6964206e756d626572206f66207369676e65727300000000000000600082015250565b60006130a660198361274f565b91506130b182613070565b602082019050919050565b600060208201905081810360008301526130d581613099565b9050919050565b7f496e76616c6964207369676e6572000000000000000000000000000000000000600082015250565b6000613112600e8361274f565b915061311d826130dc565b602082019050919050565b6000602082019050818103600083015261314181613105565b9050919050565b600060ff82169050919050565b600061316082613148565b915060ff82141561317457613173612bd4565b5b600182019050919050565b7f45787465726e616c207472616e7366657220696e2073616665206d6f64650000600082015250565b60006131b5601e8361274f565b91506131c08261317f565b602082019050919050565b600060208201905081810360008301526131e4816131a8565b9050919050565b7f5472616e73616374696f6e206578706972656400000000000000000000000000600082015250565b600061322160138361274f565b915061322c826131eb565b602082019050919050565b6000602082019050818103600083015261325081613214565b9050919050565b7f5369676e6572732063616e6e6f7420626520657175616c000000000000000000600082015250565b600061328d60178361274f565b915061329882613257565b602082019050919050565b600060208201905081810360008301526132bc81613280565b9050919050565b600081519050919050565b60006132d9826132c3565b6132e381856129da565b93506132f38185602086016127e2565b80840191505092915050565b600061330b82846132ce565b915081905092915050565b600081519050613325816123d3565b92915050565b60006020828403121561334157613340611d3d565b5b600061334f84828501613316565b91505092915050565b7f5472616e7366657248656c7065723a3a736166655472616e736665723a20747260008201527f616e73666572206661696c656400000000000000000000000000000000000000602082015250565b60006133b4602d8361274f565b91506133bf82613358565b604082019050919050565b600060208201905081810360008301526133e3816133a7565b9050919050565b7f496e73756666696369656e742066756e64730000000000000000000000000000600082015250565b600061342060128361274f565b915061342b826133ea565b602082019050919050565b6000602082019050818103600083015261344f81613413565b9050919050565b60006134636000836129da565b915061346e82611c44565b600082019050919050565b600061348482613456565b9150819050919050565b7f43616c6c206661696c6564000000000000000000000000000000000000000000600082015250565b60006134c4600b8361274f565b91506134cf8261348e565b602082019050919050565b600060208201905081810360008301526134f3816134b7565b9050919050565b600060608201905061350f6000830186611c0b565b61351c6020830185611c0b565b6135296040830184611c24565b949350505050565b7f496e76616c6964207369676e6174757265202d2077726f6e67206c656e677468600082015250565b600061356760208361274f565b915061357282613531565b602082019050919050565b600060208201905081810360008301526135968161355a565b9050919050565b60006135a882613148565b91506135b383613148565b92508260ff038211156135c9576135c8612bd4565b5b828201905092915050565b7f45434453413a20696e76616c6964207369676e6174757265202773272076616c60008201527f7565000000000000000000000000000000000000000000000000000000000000602082015250565b600061363060228361274f565b915061363b826135d4565b604082019050919050565b6000602082019050818103600083015261365f81613623565b9050919050565b61366f81613148565b82525050565b600060808201905061368a6000830187612b03565b6136976020830186613666565b6136a46040830185612b03565b6136b16060830184612b03565b95945050505050565b7f53657175656e636520494420616c726561647920757365640000000000000000600082015250565b60006136f060188361274f565b91506136fb826136ba565b602082019050919050565b6000602082019050818103600083015261371f816136e3565b9050919050565b7f53657175656e63652049442062656c6f772077696e646f770000000000000000600082015250565b600061375c60188361274f565b915061376782613726565b602082019050919050565b6000602082019050818103600083015261378b8161374f565b9050919050565b7f53657175656e63652049442061626f7665206d6178696d756d00000000000000600082015250565b60006137c860198361274f565b91506137d382613792565b602082019050919050565b600060208201905081810360008301526137f7816137bb565b905091905056fea26469706673582212204048bf833aeb7058f5864a85be466091cc5938a7bd388ad2aa62d5302524ddf564736f6c634300080a0033",
					"opcodes": "PUSH1 0x80 PUSH1 0x40 MSTORE PUSH1 0x0 PUSH1 0x1 PUSH1 0x0 PUSH2 0x100 EXP DUP2 SLOAD DUP2 PUSH1 0xFF MUL NOT AND SWAP1 DUP4 ISZERO ISZERO MUL OR SWAP1 SSTORE POP PUSH1 0x0 PUSH1 0x1 DUP1 PUSH2 0x100 EXP DUP2 SLOAD DUP2 PUSH1 0xFF MUL NOT AND SWAP1 DUP4 ISZERO ISZERO MUL OR SWAP1 SSTORE POP CALLVALUE DUP1 ISZERO PUSH2 0x45 JUMPI PUSH1 0x0 DUP1 REVERT JUMPDEST POP PUSH2 0x3834 DUP1 PUSH2 0x55 PUSH1 0x0 CODECOPY PUSH1 0x0 RETURN INVALID PUSH1 0x80 PUSH1 0x40 MSTORE PUSH1 0x4 CALLDATASIZE LT PUSH2 0x123 JUMPI PUSH1 0x0 CALLDATALOAD PUSH1 0xE0 SHR DUP1 PUSH4 0x92467776 GT PUSH2 0xA0 JUMPI DUP1 PUSH4 0xC1378784 GT PUSH2 0x64 JUMPI DUP1 PUSH4 0xC1378784 EQ PUSH2 0x488 JUMPI DUP1 PUSH4 0xC6044C46 EQ PUSH2 0x4B1 JUMPI DUP1 PUSH4 0xE6BD0AA4 EQ PUSH2 0x4DA JUMPI DUP1 PUSH4 0xF23A6E61 EQ PUSH2 0x503 JUMPI DUP1 PUSH4 0xFC0F392D EQ PUSH2 0x540 JUMPI PUSH2 0x16D JUMP JUMPDEST DUP1 PUSH4 0x92467776 EQ PUSH2 0x3A3 JUMPI DUP1 PUSH4 0xA0B7967B EQ PUSH2 0x3CC JUMPI DUP1 PUSH4 0xABE3219C EQ PUSH2 0x3F7 JUMPI DUP1 PUSH4 0xAD3AD709 EQ PUSH2 0x422 JUMPI DUP1 PUSH4 0xBC197C81 EQ PUSH2 0x44B JUMPI PUSH2 0x16D JUMP JUMPDEST DUP1 PUSH4 0x34F94047 GT PUSH2 0xE7 JUMPI DUP1 PUSH4 0x34F94047 EQ PUSH2 0x2AE JUMPI DUP1 PUSH4 0x39125215 EQ PUSH2 0x2D7 JUMPI DUP1 PUSH4 0x5A953D0A EQ PUSH2 0x300 JUMPI DUP1 PUSH4 0x736C0D5B EQ PUSH2 0x329 JUMPI DUP1 PUSH4 0x7DF73E27 EQ PUSH2 0x366 JUMPI PUSH2 0x16D JUMP JUMPDEST DUP1 PUSH4 0x1FFC9A7 EQ PUSH2 0x1B7 JUMPI DUP1 PUSH4 0xDCD7A6C EQ PUSH2 0x1F4 JUMPI DUP1 PUSH4 0x150B7A02 EQ PUSH2 0x21D JUMPI DUP1 PUSH4 0x158EF93E EQ PUSH2 0x25A JUMPI DUP1 PUSH4 0x2DA03409 EQ PUSH2 0x285 JUMPI PUSH2 0x16D JUMP JUMPDEST CALLDATASIZE PUSH2 0x16D JUMPI PUSH1 0x0 CALLVALUE GT ISZERO PUSH2 0x16B JUMPI PUSH32 0x6E89D517057028190560DD200CF6BF792842861353D1173761DFA362E1C133F0 CALLER CALLVALUE PUSH1 0x40 MLOAD PUSH2 0x162 SWAP3 SWAP2 SWAP1 PUSH2 0x1C6A JUMP JUMPDEST PUSH1 0x40 MLOAD DUP1 SWAP2 SUB SWAP1 LOG1 JUMPDEST STOP JUMPDEST PUSH1 0x0 CALLVALUE GT ISZERO PUSH2 0x1B5 JUMPI PUSH32 0x6E89D517057028190560DD200CF6BF792842861353D1173761DFA362E1C133F0 CALLER CALLVALUE PUSH1 0x0 CALLDATASIZE PUSH1 0x40 MLOAD PUSH2 0x1AC SWAP5 SWAP4 SWAP3 SWAP2 SWAP1 PUSH2 0x1CF3 JUMP JUMPDEST PUSH1 0x40 MLOAD DUP1 SWAP2 SUB SWAP1 LOG1 JUMPDEST STOP JUMPDEST CALLVALUE DUP1 ISZERO PUSH2 0x1C3 JUMPI PUSH1 0x0 DUP1 REVERT JUMPDEST POP PUSH2 0x1DE PUSH1 0x4 DUP1 CALLDATASIZE SUB DUP2 ADD SWAP1 PUSH2 0x1D9 SWAP2 SWAP1 PUSH2 0x1D9F JUMP JUMPDEST PUSH2 0x557 JUMP JUMPDEST PUSH1 0x40 MLOAD PUSH2 0x1EB SWAP2 SWAP1 PUSH2 0x1DE7 JUMP JUMPDEST PUSH1 0x40 MLOAD DUP1 SWAP2 SUB SWAP1 RETURN JUMPDEST CALLVALUE DUP1 ISZERO PUSH2 0x200 JUMPI PUSH1 0x0 DUP1 REVERT JUMPDEST POP PUSH2 0x21B PUSH1 0x4 DUP1 CALLDATASIZE SUB DUP2 ADD SWAP1 PUSH2 0x216 SWAP2 SWAP1 PUSH2 0x1EBF JUMP JUMPDEST PUSH2 0x5D1 JUMP JUMPDEST STOP JUMPDEST CALLVALUE DUP1 ISZERO PUSH2 0x229 JUMPI PUSH1 0x0 DUP1 REVERT JUMPDEST POP PUSH2 0x244 PUSH1 0x4 DUP1 CALLDATASIZE SUB DUP2 ADD SWAP1 PUSH2 0x23F SWAP2 SWAP1 PUSH2 0x208F JUMP JUMPDEST PUSH2 0x679 JUMP JUMPDEST PUSH1 0x40 MLOAD PUSH2 0x251 SWAP2 SWAP1 PUSH2 0x2121 JUMP JUMPDEST PUSH1 0x40 MLOAD DUP1 SWAP2 SUB SWAP1 RETURN JUMPDEST CALLVALUE DUP1 ISZERO PUSH2 0x266 JUMPI PUSH1 0x0 DUP1 REVERT JUMPDEST POP PUSH2 0x26F PUSH2 0x68D JUMP JUMPDEST PUSH1 0x40 MLOAD PUSH2 0x27C SWAP2 SWAP1 PUSH2 0x1DE7 JUMP JUMPDEST PUSH1 0x40 MLOAD DUP1 SWAP2 SUB SWAP1 RETURN JUMPDEST CALLVALUE DUP1 ISZERO PUSH2 0x291 JUMPI PUSH1 0x0 DUP1 REVERT JUMPDEST POP PUSH2 0x2AC PUSH1 0x4 DUP1 CALLDATASIZE SUB DUP2 ADD SWAP1 PUSH2 0x2A7 SWAP2 SWAP1 PUSH2 0x217A JUMP JUMPDEST PUSH2 0x69E JUMP JUMPDEST STOP JUMPDEST CALLVALUE DUP1 ISZERO PUSH2 0x2BA JUMPI PUSH1 0x0 DUP1 REVERT JUMPDEST POP PUSH2 0x2D5 PUSH1 0x4 DUP1 CALLDATASIZE SUB DUP2 ADD SWAP1 PUSH2 0x2D0 SWAP2 SWAP1 PUSH2 0x2210 JUMP JUMPDEST PUSH2 0x75B JUMP JUMPDEST STOP JUMPDEST CALLVALUE DUP1 ISZERO PUSH2 0x2E3 JUMPI PUSH1 0x0 DUP1 REVERT JUMPDEST POP PUSH2 0x2FE PUSH1 0x4 DUP1 CALLDATASIZE SUB DUP2 ADD SWAP1 PUSH2 0x2F9 SWAP2 SWAP1 PUSH2 0x2284 JUMP JUMPDEST PUSH2 0x81E JUMP JUMPDEST STOP JUMPDEST CALLVALUE DUP1 ISZERO PUSH2 0x30C JUMPI PUSH1 0x0 DUP1 REVERT JUMPDEST POP PUSH2 0x327 PUSH1 0x4 DUP1 CALLDATASIZE SUB DUP2 ADD SWAP1 PUSH2 0x322 SWAP2 SWAP1 PUSH2 0x2353 JUMP JUMPDEST PUSH2 0x9B6 JUMP JUMPDEST STOP JUMPDEST CALLVALUE DUP1 ISZERO PUSH2 0x335 JUMPI PUSH1 0x0 DUP1 REVERT JUMPDEST POP PUSH2 0x350 PUSH1 0x4 DUP1 CALLDATASIZE SUB DUP2 ADD SWAP1 PUSH2 0x34B SWAP2 SWAP1 PUSH2 0x23A6 JUMP JUMPDEST PUSH2 0xA76 JUMP JUMPDEST PUSH1 0x40 MLOAD PUSH2 0x35D SWAP2 SWAP1 PUSH2 0x1DE7 JUMP JUMPDEST PUSH1 0x40 MLOAD DUP1 SWAP2 SUB SWAP1 RETURN JUMPDEST CALLVALUE DUP1 ISZERO PUSH2 0x372 JUMPI PUSH1 0x0 DUP1 REVERT JUMPDEST POP PUSH2 0x38D PUSH1 0x4 DUP1 CALLDATASIZE SUB DUP2 ADD SWAP1 PUSH2 0x388 SWAP2 SWAP1 PUSH2 0x23A6 JUMP JUMPDEST PUSH2 0xA96 JUMP JUMPDEST PUSH1 0x40 MLOAD PUSH2 0x39A SWAP2 SWAP1 PUSH2 0x1DE7 JUMP JUMPDEST PUSH1 0x40 MLOAD DUP1 SWAP2 SUB SWAP1 RETURN JUMPDEST CALLVALUE DUP1 ISZERO PUSH2 0x3AF JUMPI PUSH1 0x0 DUP1 REVERT JUMPDEST POP PUSH2 0x3CA PUSH1 0x4 DUP1 CALLDATASIZE SUB DUP2 ADD SWAP1 PUSH2 0x3C5 SWAP2 SWAP1 PUSH2 0x23FF JUMP JUMPDEST PUSH2 0xAEB JUMP JUMPDEST STOP JUMPDEST CALLVALUE DUP1 ISZERO PUSH2 0x3D8 JUMPI PUSH1 0x0 DUP1 REVERT JUMPDEST POP PUSH2 0x3E1 PUSH2 0xBA8 JUMP JUMPDEST PUSH1 0x40 MLOAD PUSH2 0x3EE SWAP2 SWAP1 PUSH2 0x243F JUMP JUMPDEST PUSH1 0x40 MLOAD DUP1 SWAP2 SUB SWAP1 RETURN JUMPDEST CALLVALUE DUP1 ISZERO PUSH2 0x403 JUMPI PUSH1 0x0 DUP1 REVERT JUMPDEST POP PUSH2 0x40C PUSH2 0xC18 JUMP JUMPDEST PUSH1 0x40 MLOAD PUSH2 0x419 SWAP2 SWAP1 PUSH2 0x1DE7 JUMP JUMPDEST PUSH1 0x40 MLOAD DUP1 SWAP2 SUB SWAP1 RETURN JUMPDEST CALLVALUE DUP1 ISZERO PUSH2 0x42E JUMPI PUSH1 0x0 DUP1 REVERT JUMPDEST POP PUSH2 0x449 PUSH1 0x4 DUP1 CALLDATASIZE SUB DUP2 ADD SWAP1 PUSH2 0x444 SWAP2 SWAP1 PUSH2 0x24B0 JUMP JUMPDEST PUSH2 0xC2B JUMP JUMPDEST STOP JUMPDEST CALLVALUE DUP1 ISZERO PUSH2 0x457 JUMPI PUSH1 0x0 DUP1 REVERT JUMPDEST POP PUSH2 0x472 PUSH1 0x4 DUP1 CALLDATASIZE SUB DUP2 ADD SWAP1 PUSH2 0x46D SWAP2 SWAP1 PUSH2 0x258C JUMP JUMPDEST PUSH2 0xE3D JUMP JUMPDEST PUSH1 0x40 MLOAD PUSH2 0x47F SWAP2 SWAP1 PUSH2 0x2121 JUMP JUMPDEST PUSH1 0x40 MLOAD DUP1 SWAP2 SUB SWAP1 RETURN JUMPDEST CALLVALUE DUP1 ISZERO PUSH2 0x494 JUMPI PUSH1 0x0 DUP1 REVERT JUMPDEST POP PUSH2 0x4AF PUSH1 0x4 DUP1 CALLDATASIZE SUB DUP2 ADD SWAP1 PUSH2 0x4AA SWAP2 SWAP1 PUSH2 0x23FF JUMP JUMPDEST PUSH2 0xE55 JUMP JUMPDEST STOP JUMPDEST CALLVALUE DUP1 ISZERO PUSH2 0x4BD JUMPI PUSH1 0x0 DUP1 REVERT JUMPDEST POP PUSH2 0x4D8 PUSH1 0x4 DUP1 CALLDATASIZE SUB DUP2 ADD SWAP1 PUSH2 0x4D3 SWAP2 SWAP1 PUSH2 0x2668 JUMP JUMPDEST PUSH2 0xF12 JUMP JUMPDEST STOP JUMPDEST CALLVALUE DUP1 ISZERO PUSH2 0x4E6 JUMPI PUSH1 0x0 DUP1 REVERT JUMPDEST POP PUSH2 0x501 PUSH1 0x4 DUP1 CALLDATASIZE SUB DUP2 ADD SWAP1 PUSH2 0x4FC SWAP2 SWAP1 PUSH2 0x2353 JUMP JUMPDEST PUSH2 0x1104 JUMP JUMPDEST STOP JUMPDEST CALLVALUE DUP1 ISZERO PUSH2 0x50F JUMPI PUSH1 0x0 DUP1 REVERT JUMPDEST POP PUSH2 0x52A PUSH1 0x4 DUP1 CALLDATASIZE SUB DUP2 ADD SWAP1 PUSH2 0x525 SWAP2 SWAP1 PUSH2 0x26B5 JUMP JUMPDEST PUSH2 0x11C4 JUMP JUMPDEST PUSH1 0x40 MLOAD PUSH2 0x537 SWAP2 SWAP1 PUSH2 0x2121 JUMP JUMPDEST PUSH1 0x40 MLOAD DUP1 SWAP2 SUB SWAP1 RETURN JUMPDEST CALLVALUE DUP1 ISZERO PUSH2 0x54C JUMPI PUSH1 0x0 DUP1 REVERT JUMPDEST POP PUSH2 0x555 PUSH2 0x11DA JUMP JUMPDEST STOP JUMPDEST PUSH1 0x0 PUSH32 0x4E2312E000000000000000000000000000000000000000000000000000000000 PUSH28 0xFFFFFFFFFFFFFFFFFFFFFFFFFFFFFFFFFFFFFFFFFFFFFFFFFFFFFFFF NOT AND DUP3 PUSH28 0xFFFFFFFFFFFFFFFFFFFFFFFFFFFFFFFFFFFFFFFFFFFFFFFFFFFFFFFF NOT AND EQ DUP1 PUSH2 0x5CA JUMPI POP PUSH2 0x5C9 DUP3 PUSH2 0x1275 JUMP JUMPDEST JUMPDEST SWAP1 POP SWAP2 SWAP1 POP JUMP JUMPDEST PUSH2 0x5DA CALLER PUSH2 0xA96 JUMP JUMPDEST PUSH2 0x619 JUMPI PUSH1 0x40 MLOAD PUSH32 0x8C379A000000000000000000000000000000000000000000000000000000000 DUP2 MSTORE PUSH1 0x4 ADD PUSH2 0x610 SWAP1 PUSH2 0x27AC JUMP JUMPDEST PUSH1 0x40 MLOAD DUP1 SWAP2 SUB SWAP1 REVERT JUMPDEST PUSH1 0x0 PUSH2 0x623 PUSH2 0x12DF JUMP JUMPDEST DUP9 DUP9 DUP9 DUP9 DUP9 PUSH1 0x40 MLOAD PUSH1 0x20 ADD PUSH2 0x63D SWAP7 SWAP6 SWAP5 SWAP4 SWAP3 SWAP2 SWAP1 PUSH2 0x28AF JUMP JUMPDEST PUSH1 0x40 MLOAD PUSH1 0x20 DUP2 DUP4 SUB SUB DUP2 MSTORE SWAP1 PUSH1 0x40 MSTORE DUP1 MLOAD SWAP1 PUSH1 0x20 ADD KECCAK256 SWAP1 POP PUSH2 0x663 DUP9 DUP3 DUP6 DUP6 DUP10 DUP10 PUSH2 0x131C JUMP JUMPDEST POP PUSH2 0x66F DUP7 DUP10 DUP10 PUSH2 0x14E0 JUMP JUMPDEST POP POP POP POP POP POP POP POP JUMP JUMPDEST PUSH1 0x0 PUSH4 0x150B7A02 PUSH1 0xE0 SHL SWAP1 POP SWAP5 SWAP4 POP POP POP POP JUMP JUMPDEST PUSH1 0x1 DUP1 SLOAD SWAP1 PUSH2 0x100 EXP SWAP1 DIV PUSH1 0xFF AND DUP2 JUMP JUMPDEST PUSH2 0x6A7 CALLER PUSH2 0xA96 JUMP JUMPDEST PUSH2 0x6E6 JUMPI PUSH1 0x40 MLOAD PUSH32 0x8C379A000000000000000000000000000000000000000000000000000000000 DUP2 MSTORE PUSH1 0x4 ADD PUSH2 0x6DD SWAP1 PUSH2 0x27AC JUMP JUMPDEST PUSH1 0x40 MLOAD DUP1 SWAP2 SUB SWAP1 REVERT JUMPDEST PUSH1 0x0 DUP3 SWAP1 POP DUP1 PUSH20 0xFFFFFFFFFFFFFFFFFFFFFFFFFFFFFFFFFFFFFFFF AND PUSH4 0x3EF13367 DUP4 PUSH1 0x40 MLOAD DUP3 PUSH4 0xFFFFFFFF AND PUSH1 0xE0 SHL DUP2 MSTORE PUSH1 0x4 ADD PUSH2 0x724 SWAP2 SWAP1 PUSH2 0x291B JUMP JUMPDEST PUSH1 0x0 PUSH1 0x40 MLOAD DUP1 DUP4 SUB DUP2 PUSH1 0x0 DUP8 DUP1 EXTCODESIZE ISZERO DUP1 ISZERO PUSH2 0x73E JUMPI PUSH1 0x0 DUP1 REVERT JUMPDEST POP GAS CALL ISZERO DUP1 ISZERO PUSH2 0x752 JUMPI RETURNDATASIZE PUSH1 0x0 DUP1 RETURNDATACOPY RETURNDATASIZE PUSH1 0x0 REVERT JUMPDEST POP POP POP POP POP POP POP JUMP JUMPDEST PUSH2 0x764 CALLER PUSH2 0xA96 JUMP JUMPDEST PUSH2 0x7A3 JUMPI PUSH1 0x40 MLOAD PUSH32 0x8C379A000000000000000000000000000000000000000000000000000000000 DUP2 MSTORE PUSH1 0x4 ADD PUSH2 0x79A SWAP1 PUSH2 0x27AC JUMP JUMPDEST PUSH1 0x40 MLOAD DUP1 SWAP2 SUB SWAP1 REVERT JUMPDEST PUSH1 0x0 DUP5 SWAP1 POP DUP1 PUSH20 0xFFFFFFFFFFFFFFFFFFFFFFFFFFFFFFFFFFFFFFFF AND PUSH4 0xC6A2DD24 DUP6 DUP6 DUP6 PUSH1 0x40 MLOAD DUP5 PUSH4 0xFFFFFFFF AND PUSH1 0xE0 SHL DUP2 MSTORE PUSH1 0x4 ADD PUSH2 0x7E5 SWAP4 SWAP3 SWAP2 SWAP1 PUSH2 0x29A8 JUMP JUMPDEST PUSH1 0x0 PUSH1 0x40 MLOAD DUP1 DUP4 SUB DUP2 PUSH1 0x0 DUP8 DUP1 EXTCODESIZE ISZERO DUP1 ISZERO PUSH2 0x7FF JUMPI PUSH1 0x0 DUP1 REVERT JUMPDEST POP GAS CALL ISZERO DUP1 ISZERO PUSH2 0x813 JUMPI RETURNDATASIZE PUSH1 0x0 DUP1 RETURNDATACOPY RETURNDATASIZE PUSH1 0x0 REVERT JUMPDEST POP POP POP POP POP POP POP POP POP JUMP JUMPDEST PUSH2 0x827 CALLER PUSH2 0xA96 JUMP JUMPDEST PUSH2 0x866 JUMPI PUSH1 0x40 MLOAD PUSH32 0x8C379A000000000000000000000000000000000000000000000000000000000 DUP2 MSTORE PUSH1 0x4 ADD PUSH2 0x85D SWAP1 PUSH2 0x27AC JUMP JUMPDEST PUSH1 0x40 MLOAD DUP1 SWAP2 SUB SWAP1 REVERT JUMPDEST PUSH1 0x0 PUSH2 0x870 PUSH2 0x1616 JUMP JUMPDEST DUP10 DUP10 DUP10 DUP10 DUP10 DUP10 PUSH1 0x40 MLOAD PUSH1 0x20 ADD PUSH2 0x88C SWAP8 SWAP7 SWAP6 SWAP5 SWAP4 SWAP3 SWAP2 SWAP1 PUSH2 0x2A0A JUMP JUMPDEST PUSH1 0x40 MLOAD PUSH1 0x20 DUP2 DUP4 SUB SUB DUP2 MSTORE SWAP1 PUSH1 0x40 MSTORE DUP1 MLOAD SWAP1 PUSH1 0x20 ADD KECCAK256 SWAP1 POP PUSH1 0x0 PUSH2 0x8B4 DUP11 DUP4 DUP7 DUP7 DUP11 DUP11 PUSH2 0x131C JUMP JUMPDEST SWAP1 POP PUSH1 0x0 DUP11 PUSH20 0xFFFFFFFFFFFFFFFFFFFFFFFFFFFFFFFFFFFFFFFF AND DUP11 DUP11 DUP11 PUSH1 0x40 MLOAD PUSH2 0x8E0 SWAP3 SWAP2 SWAP1 PUSH2 0x2A74 JUMP JUMPDEST PUSH1 0x0 PUSH1 0x40 MLOAD DUP1 DUP4 SUB DUP2 DUP6 DUP8 GAS CALL SWAP3 POP POP POP RETURNDATASIZE DUP1 PUSH1 0x0 DUP2 EQ PUSH2 0x91D JUMPI PUSH1 0x40 MLOAD SWAP2 POP PUSH1 0x1F NOT PUSH1 0x3F RETURNDATASIZE ADD AND DUP3 ADD PUSH1 0x40 MSTORE RETURNDATASIZE DUP3 MSTORE RETURNDATASIZE PUSH1 0x0 PUSH1 0x20 DUP5 ADD RETURNDATACOPY PUSH2 0x922 JUMP JUMPDEST PUSH1 0x60 SWAP2 POP JUMPDEST POP POP SWAP1 POP DUP1 PUSH2 0x966 JUMPI PUSH1 0x40 MLOAD PUSH32 0x8C379A000000000000000000000000000000000000000000000000000000000 DUP2 MSTORE PUSH1 0x4 ADD PUSH2 0x95D SWAP1 PUSH2 0x2AD9 JUMP JUMPDEST PUSH1 0x40 MLOAD DUP1 SWAP2 SUB SWAP1 REVERT JUMPDEST PUSH32 0x59BED9AB5D78073465DD642A9E3E76DFDB7D53BCAE9D09DF7D0B8F5234D5A806 CALLER DUP4 DUP6 DUP15 DUP15 DUP15 DUP15 PUSH1 0x40 MLOAD PUSH2 0x9A1 SWAP8 SWAP7 SWAP6 SWAP5 SWAP4 SWAP3 SWAP2 SWAP1 PUSH2 0x2B12 JUMP JUMPDEST PUSH1 0x40 MLOAD DUP1 SWAP2 SUB SWAP1 LOG1 POP POP POP POP POP POP POP POP POP POP POP JUMP JUMPDEST PUSH2 0x9BF CALLER PUSH2 0xA96 JUMP JUMPDEST PUSH2 0x9FE JUMPI PUSH1 0x40 MLOAD PUSH32 0x8C379A000000000000000000000000000000000000000000000000000000000 DUP2 MSTORE PUSH1 0x4 ADD PUSH2 0x9F5 SWAP1 PUSH2 0x27AC JUMP JUMPDEST PUSH1 0x40 MLOAD DUP1 SWAP2 SUB SWAP1 REVERT JUMPDEST PUSH1 0x0 DUP4 SWAP1 POP DUP1 PUSH20 0xFFFFFFFFFFFFFFFFFFFFFFFFFFFFFFFFFFFFFFFF AND PUSH4 0x159E44D7 DUP5 DUP5 PUSH1 0x40 MLOAD DUP4 PUSH4 0xFFFFFFFF AND PUSH1 0xE0 SHL DUP2 MSTORE PUSH1 0x4 ADD PUSH2 0xA3E SWAP3 SWAP2 SWAP1 PUSH2 0x2B7C JUMP JUMPDEST PUSH1 0x0 PUSH1 0x40 MLOAD DUP1 DUP4 SUB DUP2 PUSH1 0x0 DUP8 DUP1 EXTCODESIZE ISZERO DUP1 ISZERO PUSH2 0xA58 JUMPI PUSH1 0x0 DUP1 REVERT JUMPDEST POP GAS CALL ISZERO DUP1 ISZERO PUSH2 0xA6C JUMPI RETURNDATASIZE PUSH1 0x0 DUP1 RETURNDATACOPY RETURNDATASIZE PUSH1 0x0 REVERT JUMPDEST POP POP POP POP POP POP POP POP JUMP JUMPDEST PUSH1 0x0 PUSH1 0x20 MSTORE DUP1 PUSH1 0x0 MSTORE PUSH1 0x40 PUSH1 0x0 KECCAK256 PUSH1 0x0 SWAP2 POP SLOAD SWAP1 PUSH2 0x100 EXP SWAP1 DIV PUSH1 0xFF AND DUP2 JUMP JUMPDEST PUSH1 0x0 DUP1 PUSH1 0x0 DUP4 PUSH20 0xFFFFFFFFFFFFFFFFFFFFFFFFFFFFFFFFFFFFFFFF AND PUSH20 0xFFFFFFFFFFFFFFFFFFFFFFFFFFFFFFFFFFFFFFFF AND DUP2 MSTORE PUSH1 0x20 ADD SWAP1 DUP2 MSTORE PUSH1 0x20 ADD PUSH1 0x0 KECCAK256 PUSH1 0x0 SWAP1 SLOAD SWAP1 PUSH2 0x100 EXP SWAP1 DIV PUSH1 0xFF AND SWAP1 POP SWAP2 SWAP1 POP JUMP JUMPDEST PUSH2 0xAF4 CALLER PUSH2 0xA96 JUMP JUMPDEST PUSH2 0xB33 JUMPI PUSH1 0x40 MLOAD PUSH32 0x8C379A000000000000000000000000000000000000000000000000000000000 DUP2 MSTORE PUSH1 0x4 ADD PUSH2 0xB2A SWAP1 PUSH2 0x27AC JUMP JUMPDEST PUSH1 0x40 MLOAD DUP1 SWAP2 SUB SWAP1 REVERT JUMPDEST PUSH1 0x0 DUP3 SWAP1 POP DUP1 PUSH20 0xFFFFFFFFFFFFFFFFFFFFFFFFFFFFFFFFFFFFFFFF AND PUSH4 0x8ACC01BE DUP4 PUSH1 0x40 MLOAD DUP3 PUSH4 0xFFFFFFFF AND PUSH1 0xE0 SHL DUP2 MSTORE PUSH1 0x4 ADD PUSH2 0xB71 SWAP2 SWAP1 PUSH2 0x1DE7 JUMP JUMPDEST PUSH1 0x0 PUSH1 0x40 MLOAD DUP1 DUP4 SUB DUP2 PUSH1 0x0 DUP8 DUP1 EXTCODESIZE ISZERO DUP1 ISZERO PUSH2 0xB8B JUMPI PUSH1 0x0 DUP1 REVERT JUMPDEST POP GAS CALL ISZERO DUP1 ISZERO PUSH2 0xB9F JUMPI RETURNDATASIZE PUSH1 0x0 DUP1 RETURNDATACOPY RETURNDATASIZE PUSH1 0x0 REVERT JUMPDEST POP POP POP POP POP POP POP JUMP JUMPDEST PUSH1 0x0 DUP1 PUSH1 0x0 SWAP1 POP PUSH1 0x0 JUMPDEST PUSH1 0xA DUP2 LT ISZERO PUSH2 0xC04 JUMPI DUP2 PUSH1 0x2 DUP3 PUSH1 0xA DUP2 LT PUSH2 0xBD0 JUMPI PUSH2 0xBCF PUSH2 0x2BA5 JUMP JUMPDEST JUMPDEST ADD SLOAD GT ISZERO PUSH2 0xBF1 JUMPI PUSH1 0x2 DUP2 PUSH1 0xA DUP2 LT PUSH2 0xBEC JUMPI PUSH2 0xBEB PUSH2 0x2BA5 JUMP JUMPDEST JUMPDEST ADD SLOAD SWAP2 POP JUMPDEST DUP1 DUP1 PUSH2 0xBFC SWAP1 PUSH2 0x2C03 JUMP JUMPDEST SWAP2 POP POP PUSH2 0xBB2 JUMP JUMPDEST POP PUSH1 0x1 DUP2 PUSH2 0xC12 SWAP2 SWAP1 PUSH2 0x2C4C JUMP JUMPDEST SWAP2 POP POP SWAP1 JUMP JUMPDEST PUSH1 0x1 PUSH1 0x0 SWAP1 SLOAD SWAP1 PUSH2 0x100 EXP SWAP1 DIV PUSH1 0xFF AND DUP2 JUMP JUMPDEST PUSH2 0xC34 CALLER PUSH2 0xA96 JUMP JUMPDEST PUSH2 0xC73 JUMPI PUSH1 0x40 MLOAD PUSH32 0x8C379A000000000000000000000000000000000000000000000000000000000 DUP2 MSTORE PUSH1 0x4 ADD PUSH2 0xC6A SWAP1 PUSH2 0x27AC JUMP JUMPDEST PUSH1 0x40 MLOAD DUP1 SWAP2 SUB SWAP1 REVERT JUMPDEST PUSH1 0x0 DUP9 DUP9 SWAP1 POP EQ ISZERO PUSH2 0xCBA JUMPI PUSH1 0x40 MLOAD PUSH32 0x8C379A000000000000000000000000000000000000000000000000000000000 DUP2 MSTORE PUSH1 0x4 ADD PUSH2 0xCB1 SWAP1 PUSH2 0x2CEE JUMP JUMPDEST PUSH1 0x40 MLOAD DUP1 SWAP2 SUB SWAP1 REVERT JUMPDEST DUP6 DUP6 SWAP1 POP DUP9 DUP9 SWAP1 POP EQ PUSH2 0xD02 JUMPI PUSH1 0x40 MLOAD PUSH32 0x8C379A000000000000000000000000000000000000000000000000000000000 DUP2 MSTORE PUSH1 0x4 ADD PUSH2 0xCF9 SWAP1 PUSH2 0x2D5A JUMP JUMPDEST PUSH1 0x40 MLOAD DUP1 SWAP2 SUB SWAP1 REVERT JUMPDEST PUSH2 0x100 DUP9 DUP9 SWAP1 POP LT PUSH2 0xD49 JUMPI PUSH1 0x40 MLOAD PUSH32 0x8C379A000000000000000000000000000000000000000000000000000000000 DUP2 MSTORE PUSH1 0x4 ADD PUSH2 0xD40 SWAP1 PUSH2 0x2DC6 JUMP JUMPDEST PUSH1 0x40 MLOAD DUP1 SWAP2 SUB SWAP1 REVERT JUMPDEST PUSH1 0x0 PUSH2 0xD53 PUSH2 0x1653 JUMP JUMPDEST DUP10 DUP10 DUP10 DUP10 DUP10 DUP10 PUSH1 0x40 MLOAD PUSH1 0x20 ADD PUSH2 0xD6F SWAP8 SWAP7 SWAP6 SWAP5 SWAP4 SWAP3 SWAP2 SWAP1 PUSH2 0x2F0A JUMP JUMPDEST PUSH1 0x40 MLOAD PUSH1 0x20 DUP2 DUP4 SUB SUB DUP2 MSTORE SWAP1 PUSH1 0x40 MSTORE DUP1 MLOAD SWAP1 PUSH1 0x20 ADD KECCAK256 SWAP1 POP PUSH1 0x1 PUSH1 0x0 SWAP1 SLOAD SWAP1 PUSH2 0x100 EXP SWAP1 DIV PUSH1 0xFF AND ISZERO PUSH2 0xDD7 JUMPI PUSH1 0x40 MLOAD PUSH32 0x8C379A000000000000000000000000000000000000000000000000000000000 DUP2 MSTORE PUSH1 0x4 ADD PUSH2 0xDCE SWAP1 PUSH2 0x2FAD JUMP JUMPDEST PUSH1 0x40 MLOAD DUP1 SWAP2 SUB SWAP1 REVERT JUMPDEST PUSH1 0x0 PUSH2 0xDE8 PUSH1 0x0 DUP4 DUP7 DUP7 DUP11 DUP11 PUSH2 0x131C JUMP JUMPDEST SWAP1 POP PUSH2 0xDF6 DUP11 DUP11 DUP11 DUP11 PUSH2 0x1690 JUMP JUMPDEST PUSH32 0xE4C9047A729726B729CF4FA62C95EF9A434BBAF206A7EA0C7C77515DB1584022 CALLER DUP3 DUP5 PUSH1 0x40 MLOAD PUSH2 0xE29 SWAP4 SWAP3 SWAP2 SWAP1 PUSH2 0x2FCD JUMP JUMPDEST PUSH1 0x40 MLOAD DUP1 SWAP2 SUB SWAP1 LOG1 POP POP POP POP POP POP POP POP POP POP JUMP JUMPDEST PUSH1 0x0 PUSH4 0xBC197C81 PUSH1 0xE0 SHL SWAP1 POP SWAP9 SWAP8 POP POP POP POP POP POP POP POP JUMP JUMPDEST PUSH2 0xE5E CALLER PUSH2 0xA96 JUMP JUMPDEST PUSH2 0xE9D JUMPI PUSH1 0x40 MLOAD PUSH32 0x8C379A000000000000000000000000000000000000000000000000000000000 DUP2 MSTORE PUSH1 0x4 ADD PUSH2 0xE94 SWAP1 PUSH2 0x27AC JUMP JUMPDEST PUSH1 0x40 MLOAD DUP1 SWAP2 SUB SWAP1 REVERT JUMPDEST PUSH1 0x0 DUP3 SWAP1 POP DUP1 PUSH20 0xFFFFFFFFFFFFFFFFFFFFFFFFFFFFFFFFFFFFFFFF AND PUSH4 0xC59F9F19 DUP4 PUSH1 0x40 MLOAD DUP3 PUSH4 0xFFFFFFFF AND PUSH1 0xE0 SHL DUP2 MSTORE PUSH1 0x4 ADD PUSH2 0xEDB SWAP2 SWAP1 PUSH2 0x1DE7 JUMP JUMPDEST PUSH1 0x0 PUSH1 0x40 MLOAD DUP1 DUP4 SUB DUP2 PUSH1 0x0 DUP8 DUP1 EXTCODESIZE ISZERO DUP1 ISZERO PUSH2 0xEF5 JUMPI PUSH1 0x0 DUP1 REVERT JUMPDEST POP GAS CALL ISZERO DUP1 ISZERO PUSH2 0xF09 JUMPI RETURNDATASIZE PUSH1 0x0 DUP1 RETURNDATACOPY RETURNDATASIZE PUSH1 0x0 REVERT JUMPDEST POP POP POP POP POP POP POP JUMP JUMPDEST PUSH1 0x1 DUP1 SLOAD SWAP1 PUSH2 0x100 EXP SWAP1 DIV PUSH1 0xFF AND ISZERO PUSH2 0xF60 JUMPI PUSH1 0x40 MLOAD PUSH32 0x8C379A000000000000000000000000000000000000000000000000000000000 DUP2 MSTORE PUSH1 0x4 ADD PUSH2 0xF57 SWAP1 PUSH2 0x3050 JUMP JUMPDEST PUSH1 0x40 MLOAD DUP1 SWAP2 SUB SWAP1 REVERT JUMPDEST PUSH1 0x3 DUP3 DUP3 SWAP1 POP EQ PUSH2 0xFA6 JUMPI PUSH1 0x40 MLOAD PUSH32 0x8C379A000000000000000000000000000000000000000000000000000000000 DUP2 MSTORE PUSH1 0x4 ADD PUSH2 0xF9D SWAP1 PUSH2 0x30BC JUMP JUMPDEST PUSH1 0x40 MLOAD DUP1 SWAP2 SUB SWAP1 REVERT JUMPDEST PUSH1 0x0 JUMPDEST DUP3 DUP3 SWAP1 POP DUP2 PUSH1 0xFF AND LT ISZERO PUSH2 0x10E5 JUMPI PUSH1 0x0 PUSH20 0xFFFFFFFFFFFFFFFFFFFFFFFFFFFFFFFFFFFFFFFF AND DUP4 DUP4 DUP4 PUSH1 0xFF AND DUP2 DUP2 LT PUSH2 0xFE5 JUMPI PUSH2 0xFE4 PUSH2 0x2BA5 JUMP JUMPDEST JUMPDEST SWAP1 POP PUSH1 0x20 MUL ADD PUSH1 0x20 DUP2 ADD SWAP1 PUSH2 0xFFA SWAP2 SWAP1 PUSH2 0x23A6 JUMP JUMPDEST PUSH20 0xFFFFFFFFFFFFFFFFFFFFFFFFFFFFFFFFFFFFFFFF AND EQ ISZERO PUSH2 0x1051 JUMPI PUSH1 0x40 MLOAD PUSH32 0x8C379A000000000000000000000000000000000000000000000000000000000 DUP2 MSTORE PUSH1 0x4 ADD PUSH2 0x1048 SWAP1 PUSH2 0x3128 JUMP JUMPDEST PUSH1 0x40 MLOAD DUP1 SWAP2 SUB SWAP1 REVERT JUMPDEST PUSH1 0x1 PUSH1 0x0 DUP1 DUP6 DUP6 DUP6 PUSH1 0xFF AND DUP2 DUP2 LT PUSH2 0x106C JUMPI PUSH2 0x106B PUSH2 0x2BA5 JUMP JUMPDEST JUMPDEST SWAP1 POP PUSH1 0x20 MUL ADD PUSH1 0x20 DUP2 ADD SWAP1 PUSH2 0x1081 SWAP2 SWAP1 PUSH2 0x23A6 JUMP JUMPDEST PUSH20 0xFFFFFFFFFFFFFFFFFFFFFFFFFFFFFFFFFFFFFFFF AND PUSH20 0xFFFFFFFFFFFFFFFFFFFFFFFFFFFFFFFFFFFFFFFF AND DUP2 MSTORE PUSH1 0x20 ADD SWAP1 DUP2 MSTORE PUSH1 0x20 ADD PUSH1 0x0 KECCAK256 PUSH1 0x0 PUSH2 0x100 EXP DUP2 SLOAD DUP2 PUSH1 0xFF MUL NOT AND SWAP1 DUP4 ISZERO ISZERO MUL OR SWAP1 SSTORE POP DUP1 DUP1 PUSH2 0x10DD SWAP1 PUSH2 0x3155 JUMP JUMPDEST SWAP2 POP POP PUSH2 0xFA9 JUMP JUMPDEST POP PUSH1 0x1 DUP1 PUSH1 0x1 PUSH2 0x100 EXP DUP2 SLOAD DUP2 PUSH1 0xFF MUL NOT AND SWAP1 DUP4 ISZERO ISZERO MUL OR SWAP1 SSTORE POP POP POP JUMP JUMPDEST PUSH2 0x110D CALLER PUSH2 0xA96 JUMP JUMPDEST PUSH2 0x114C JUMPI PUSH1 0x40 MLOAD PUSH32 0x8C379A000000000000000000000000000000000000000000000000000000000 DUP2 MSTORE PUSH1 0x4 ADD PUSH2 0x1143 SWAP1 PUSH2 0x27AC JUMP JUMPDEST PUSH1 0x40 MLOAD DUP1 SWAP2 SUB SWAP1 REVERT JUMPDEST PUSH1 0x0 DUP4 SWAP1 POP DUP1 PUSH20 0xFFFFFFFFFFFFFFFFFFFFFFFFFFFFFFFFFFFFFFFF AND PUSH4 0x8972C17C DUP5 DUP5 PUSH1 0x40 MLOAD DUP4 PUSH4 0xFFFFFFFF AND PUSH1 0xE0 SHL DUP2 MSTORE PUSH1 0x4 ADD PUSH2 0x118C SWAP3 SWAP2 SWAP1 PUSH2 0x2B7C JUMP JUMPDEST PUSH1 0x0 PUSH1 0x40 MLOAD DUP1 DUP4 SUB DUP2 PUSH1 0x0 DUP8 DUP1 EXTCODESIZE ISZERO DUP1 ISZERO PUSH2 0x11A6 JUMPI PUSH1 0x0 DUP1 REVERT JUMPDEST POP GAS CALL ISZERO DUP1 ISZERO PUSH2 0x11BA JUMPI RETURNDATASIZE PUSH1 0x0 DUP1 RETURNDATACOPY RETURNDATASIZE PUSH1 0x0 REVERT JUMPDEST POP POP POP POP POP POP POP POP JUMP JUMPDEST PUSH1 0x0 PUSH4 0xF23A6E61 PUSH1 0xE0 SHL SWAP1 POP SWAP7 SWAP6 POP POP POP POP POP POP JUMP JUMPDEST PUSH2 0x11E3 CALLER PUSH2 0xA96 JUMP JUMPDEST PUSH2 0x1222 JUMPI PUSH1 0x40 MLOAD PUSH32 0x8C379A000000000000000000000000000000000000000000000000000000000 DUP2 MSTORE PUSH1 0x4 ADD PUSH2 0x1219 SWAP1 PUSH2 0x27AC JUMP JUMPDEST PUSH1 0x40 MLOAD DUP1 SWAP2 SUB SWAP1 REVERT JUMPDEST PUSH1 0x1 DUP1 PUSH1 0x0 PUSH2 0x100 EXP DUP2 SLOAD DUP2 PUSH1 0xFF MUL NOT AND SWAP1 DUP4 ISZERO ISZERO MUL OR SWAP1 SSTORE POP PUSH32 0x909E8F76A4FD3E970F2EAEF56C0EE6DFAF8B87C5B8D3F56FFCE78E825A91157 CALLER PUSH1 0x40 MLOAD PUSH2 0x126B SWAP2 SWAP1 PUSH2 0x291B JUMP JUMPDEST PUSH1 0x40 MLOAD DUP1 SWAP2 SUB SWAP1 LOG1 JUMP JUMPDEST PUSH1 0x0 PUSH32 0x1FFC9A700000000000000000000000000000000000000000000000000000000 PUSH28 0xFFFFFFFFFFFFFFFFFFFFFFFFFFFFFFFFFFFFFFFFFFFFFFFFFFFFFFFF NOT AND DUP3 PUSH28 0xFFFFFFFFFFFFFFFFFFFFFFFFFFFFFFFFFFFFFFFFFFFFFFFFFFFFFFFF NOT AND EQ SWAP1 POP SWAP2 SWAP1 POP JUMP JUMPDEST PUSH1 0x60 PUSH1 0x40 MLOAD DUP1 PUSH1 0x40 ADD PUSH1 0x40 MSTORE DUP1 PUSH1 0x5 DUP2 MSTORE PUSH1 0x20 ADD PUSH32 0x4552433230000000000000000000000000000000000000000000000000000000 DUP2 MSTORE POP SWAP1 POP SWAP1 JUMP JUMPDEST PUSH1 0x0 DUP1 PUSH2 0x136D DUP8 DUP8 DUP8 DUP1 DUP1 PUSH1 0x1F ADD PUSH1 0x20 DUP1 SWAP2 DIV MUL PUSH1 0x20 ADD PUSH1 0x40 MLOAD SWAP1 DUP2 ADD PUSH1 0x40 MSTORE DUP1 SWAP4 SWAP3 SWAP2 SWAP1 DUP2 DUP2 MSTORE PUSH1 0x20 ADD DUP4 DUP4 DUP1 DUP3 DUP5 CALLDATACOPY PUSH1 0x0 DUP2 DUP5 ADD MSTORE PUSH1 0x1F NOT PUSH1 0x1F DUP3 ADD AND SWAP1 POP DUP1 DUP4 ADD SWAP3 POP POP POP POP POP POP POP PUSH2 0x187C JUMP JUMPDEST SWAP1 POP PUSH1 0x1 PUSH1 0x0 SWAP1 SLOAD SWAP1 PUSH2 0x100 EXP SWAP1 DIV PUSH1 0xFF AND ISZERO DUP1 PUSH2 0x1390 JUMPI POP PUSH2 0x138F DUP9 PUSH2 0xA96 JUMP JUMPDEST JUMPDEST PUSH2 0x13CF JUMPI PUSH1 0x40 MLOAD PUSH32 0x8C379A000000000000000000000000000000000000000000000000000000000 DUP2 MSTORE PUSH1 0x4 ADD PUSH2 0x13C6 SWAP1 PUSH2 0x31CB JUMP JUMPDEST PUSH1 0x40 MLOAD DUP1 SWAP2 SUB SWAP1 REVERT JUMPDEST TIMESTAMP DUP5 LT ISZERO PUSH2 0x1412 JUMPI PUSH1 0x40 MLOAD PUSH32 0x8C379A000000000000000000000000000000000000000000000000000000000 DUP2 MSTORE PUSH1 0x4 ADD PUSH2 0x1409 SWAP1 PUSH2 0x3237 JUMP JUMPDEST PUSH1 0x40 MLOAD DUP1 SWAP2 SUB SWAP1 REVERT JUMPDEST PUSH2 0x141B DUP4 PUSH2 0x19BB JUMP JUMPDEST PUSH2 0x1424 DUP2 PUSH2 0xA96 JUMP JUMPDEST PUSH2 0x1463 JUMPI PUSH1 0x40 MLOAD PUSH32 0x8C379A000000000000000000000000000000000000000000000000000000000 DUP2 MSTORE PUSH1 0x4 ADD PUSH2 0x145A SWAP1 PUSH2 0x3128 JUMP JUMPDEST PUSH1 0x40 MLOAD DUP1 SWAP2 SUB SWAP1 REVERT JUMPDEST CALLER PUSH20 0xFFFFFFFFFFFFFFFFFFFFFFFFFFFFFFFFFFFFFFFF AND DUP2 PUSH20 0xFFFFFFFFFFFFFFFFFFFFFFFFFFFFFFFFFFFFFFFF AND EQ ISZERO PUSH2 0x14D2 JUMPI PUSH1 0x40 MLOAD PUSH32 0x8C379A000000000000000000000000000000000000000000000000000000000 DUP2 MSTORE PUSH1 0x4 ADD PUSH2 0x14C9 SWAP1 PUSH2 0x32A3 JUMP JUMPDEST PUSH1 0x40 MLOAD DUP1 SWAP2 SUB SWAP1 REVERT JUMPDEST DUP1 SWAP2 POP POP SWAP7 SWAP6 POP POP POP POP POP POP JUMP JUMPDEST PUSH1 0x0 DUP1 DUP5 PUSH20 0xFFFFFFFFFFFFFFFFFFFFFFFFFFFFFFFFFFFFFFFF AND PUSH4 0xA9059CBB DUP6 DUP6 PUSH1 0x40 MLOAD PUSH1 0x24 ADD PUSH2 0x1512 SWAP3 SWAP2 SWAP1 PUSH2 0x2B7C JUMP JUMPDEST PUSH1 0x40 MLOAD PUSH1 0x20 DUP2 DUP4 SUB SUB DUP2 MSTORE SWAP1 PUSH1 0x40 MSTORE SWAP1 PUSH1 0xE0 SHL PUSH1 0x20 DUP3 ADD DUP1 MLOAD PUSH28 0xFFFFFFFFFFFFFFFFFFFFFFFFFFFFFFFFFFFFFFFFFFFFFFFFFFFFFFFF DUP4 DUP2 DUP4 AND OR DUP4 MSTORE POP POP POP POP PUSH1 0x40 MLOAD PUSH2 0x1560 SWAP2 SWAP1 PUSH2 0x32FF JUMP JUMPDEST PUSH1 0x0 PUSH1 0x40 MLOAD DUP1 DUP4 SUB DUP2 PUSH1 0x0 DUP7 GAS CALL SWAP2 POP POP RETURNDATASIZE DUP1 PUSH1 0x0 DUP2 EQ PUSH2 0x159D JUMPI PUSH1 0x40 MLOAD SWAP2 POP PUSH1 0x1F NOT PUSH1 0x3F RETURNDATASIZE ADD AND DUP3 ADD PUSH1 0x40 MSTORE RETURNDATASIZE DUP3 MSTORE RETURNDATASIZE PUSH1 0x0 PUSH1 0x20 DUP5 ADD RETURNDATACOPY PUSH2 0x15A2 JUMP JUMPDEST PUSH1 0x60 SWAP2 POP JUMPDEST POP SWAP2 POP SWAP2 POP DUP2 DUP1 ISZERO PUSH2 0x15D0 JUMPI POP PUSH1 0x0 DUP2 MLOAD EQ DUP1 PUSH2 0x15CF JUMPI POP DUP1 DUP1 PUSH1 0x20 ADD SWAP1 MLOAD DUP2 ADD SWAP1 PUSH2 0x15CE SWAP2 SWAP1 PUSH2 0x332B JUMP JUMPDEST JUMPDEST JUMPDEST PUSH2 0x160F JUMPI PUSH1 0x40 MLOAD PUSH32 0x8C379A000000000000000000000000000000000000000000000000000000000 DUP2 MSTORE PUSH1 0x4 ADD PUSH2 0x1606 SWAP1 PUSH2 0x33CA JUMP JUMPDEST PUSH1 0x40 MLOAD DUP1 SWAP2 SUB SWAP1 REVERT JUMPDEST POP POP POP POP POP JUMP JUMPDEST PUSH1 0x60 PUSH1 0x40 MLOAD DUP1 PUSH1 0x40 ADD PUSH1 0x40 MSTORE DUP1 PUSH1 0x5 DUP2 MSTORE PUSH1 0x20 ADD PUSH32 0x4554484552000000000000000000000000000000000000000000000000000000 DUP2 MSTORE POP SWAP1 POP SWAP1 JUMP JUMPDEST PUSH1 0x60 PUSH1 0x40 MLOAD DUP1 PUSH1 0x40 ADD PUSH1 0x40 MSTORE DUP1 PUSH1 0xB DUP2 MSTORE PUSH1 0x20 ADD PUSH32 0x45544845522D4261746368000000000000000000000000000000000000000000 DUP2 MSTORE POP SWAP1 POP SWAP1 JUMP JUMPDEST PUSH1 0x0 JUMPDEST DUP5 DUP5 SWAP1 POP DUP2 LT ISZERO PUSH2 0x1875 JUMPI DUP3 DUP3 DUP3 DUP2 DUP2 LT PUSH2 0x16B1 JUMPI PUSH2 0x16B0 PUSH2 0x2BA5 JUMP JUMPDEST JUMPDEST SWAP1 POP PUSH1 0x20 MUL ADD CALLDATALOAD SELFBALANCE LT ISZERO PUSH2 0x16FA JUMPI PUSH1 0x40 MLOAD PUSH32 0x8C379A000000000000000000000000000000000000000000000000000000000 DUP2 MSTORE PUSH1 0x4 ADD PUSH2 0x16F1 SWAP1 PUSH2 0x3436 JUMP JUMPDEST PUSH1 0x40 MLOAD DUP1 SWAP2 SUB SWAP1 REVERT JUMPDEST PUSH1 0x0 DUP6 DUP6 DUP4 DUP2 DUP2 LT PUSH2 0x170F JUMPI PUSH2 0x170E PUSH2 0x2BA5 JUMP JUMPDEST JUMPDEST SWAP1 POP PUSH1 0x20 MUL ADD PUSH1 0x20 DUP2 ADD SWAP1 PUSH2 0x1724 SWAP2 SWAP1 PUSH2 0x23A6 JUMP JUMPDEST PUSH20 0xFFFFFFFFFFFFFFFFFFFFFFFFFFFFFFFFFFFFFFFF AND DUP5 DUP5 DUP5 DUP2 DUP2 LT PUSH2 0x174D JUMPI PUSH2 0x174C PUSH2 0x2BA5 JUMP JUMPDEST JUMPDEST SWAP1 POP PUSH1 0x20 MUL ADD CALLDATALOAD PUSH1 0x40 MLOAD PUSH2 0x1760 SWAP1 PUSH2 0x3479 JUMP JUMPDEST PUSH1 0x0 PUSH1 0x40 MLOAD DUP1 DUP4 SUB DUP2 DUP6 DUP8 GAS CALL SWAP3 POP POP POP RETURNDATASIZE DUP1 PUSH1 0x0 DUP2 EQ PUSH2 0x179D JUMPI PUSH1 0x40 MLOAD SWAP2 POP PUSH1 0x1F NOT PUSH1 0x3F RETURNDATASIZE ADD AND DUP3 ADD PUSH1 0x40 MSTORE RETURNDATASIZE DUP3 MSTORE RETURNDATASIZE PUSH1 0x0 PUSH1 0x20 DUP5 ADD RETURNDATACOPY PUSH2 0x17A2 JUMP JUMPDEST PUSH1 0x60 SWAP2 POP JUMPDEST POP POP SWAP1 POP DUP1 PUSH2 0x17E6 JUMPI PUSH1 0x40 MLOAD PUSH32 0x8C379A000000000000000000000000000000000000000000000000000000000 DUP2 MSTORE PUSH1 0x4 ADD PUSH2 0x17DD SWAP1 PUSH2 0x34DA JUMP JUMPDEST PUSH1 0x40 MLOAD DUP1 SWAP2 SUB SWAP1 REVERT JUMPDEST PUSH32 0xC42FA155158786A1DD6CCC3A785F35845467353C3CC700E0E31A79F90E22227D CALLER DUP8 DUP8 DUP6 DUP2 DUP2 LT PUSH2 0x181B JUMPI PUSH2 0x181A PUSH2 0x2BA5 JUMP JUMPDEST JUMPDEST SWAP1 POP PUSH1 0x20 MUL ADD PUSH1 0x20 DUP2 ADD SWAP1 PUSH2 0x1830 SWAP2 SWAP1 PUSH2 0x23A6 JUMP JUMPDEST DUP7 DUP7 DUP7 DUP2 DUP2 LT PUSH2 0x1843 JUMPI PUSH2 0x1842 PUSH2 0x2BA5 JUMP JUMPDEST JUMPDEST SWAP1 POP PUSH1 0x20 MUL ADD CALLDATALOAD PUSH1 0x40 MLOAD PUSH2 0x1859 SWAP4 SWAP3 SWAP2 SWAP1 PUSH2 0x34FA JUMP JUMPDEST PUSH1 0x40 MLOAD DUP1 SWAP2 SUB SWAP1 LOG1 POP DUP1 DUP1 PUSH2 0x186D SWAP1 PUSH2 0x2C03 JUMP JUMPDEST SWAP2 POP POP PUSH2 0x1693 JUMP JUMPDEST POP POP POP POP POP JUMP JUMPDEST PUSH1 0x0 PUSH1 0x41 DUP3 MLOAD EQ PUSH2 0x18C2 JUMPI PUSH1 0x40 MLOAD PUSH32 0x8C379A000000000000000000000000000000000000000000000000000000000 DUP2 MSTORE PUSH1 0x4 ADD PUSH2 0x18B9 SWAP1 PUSH2 0x357D JUMP JUMPDEST PUSH1 0x40 MLOAD DUP1 SWAP2 SUB SWAP1 REVERT JUMPDEST PUSH1 0x0 DUP1 PUSH1 0x0 PUSH1 0x20 DUP6 ADD MLOAD SWAP3 POP PUSH1 0x40 DUP6 ADD MLOAD SWAP2 POP PUSH1 0xFF PUSH1 0x41 DUP7 ADD MLOAD AND SWAP1 POP PUSH1 0x1B DUP2 PUSH1 0xFF AND LT ISZERO PUSH2 0x18FB JUMPI PUSH1 0x1B DUP2 PUSH2 0x18F8 SWAP2 SWAP1 PUSH2 0x359D JUMP JUMPDEST SWAP1 POP JUMPDEST PUSH32 0x7FFFFFFFFFFFFFFFFFFFFFFFFFFFFFFF5D576E7357A4501DDFE92F46681B20A0 DUP3 PUSH1 0x0 SHR GT ISZERO PUSH2 0x1961 JUMPI PUSH1 0x40 MLOAD PUSH32 0x8C379A000000000000000000000000000000000000000000000000000000000 DUP2 MSTORE PUSH1 0x4 ADD PUSH2 0x1958 SWAP1 PUSH2 0x3646 JUMP JUMPDEST PUSH1 0x40 MLOAD DUP1 SWAP2 SUB SWAP1 REVERT JUMPDEST PUSH1 0x1 DUP7 DUP3 DUP6 DUP6 PUSH1 0x40 MLOAD PUSH1 0x0 DUP2 MSTORE PUSH1 0x20 ADD PUSH1 0x40 MSTORE PUSH1 0x40 MLOAD PUSH2 0x1984 SWAP5 SWAP4 SWAP3 SWAP2 SWAP1 PUSH2 0x3675 JUMP JUMPDEST PUSH1 0x20 PUSH1 0x40 MLOAD PUSH1 0x20 DUP2 SUB SWAP1 DUP1 DUP5 SUB SWAP1 DUP6 GAS STATICCALL ISZERO DUP1 ISZERO PUSH2 0x19A6 JUMPI RETURNDATASIZE PUSH1 0x0 DUP1 RETURNDATACOPY RETURNDATASIZE PUSH1 0x0 REVERT JUMPDEST POP POP POP PUSH1 0x20 PUSH1 0x40 MLOAD SUB MLOAD SWAP4 POP POP POP POP SWAP3 SWAP2 POP POP JUMP JUMPDEST PUSH2 0x19C4 CALLER PUSH2 0xA96 JUMP JUMPDEST PUSH2 0x1A03 JUMPI PUSH1 0x40 MLOAD PUSH32 0x8C379A000000000000000000000000000000000000000000000000000000000 DUP2 MSTORE PUSH1 0x4 ADD PUSH2 0x19FA SWAP1 PUSH2 0x27AC JUMP JUMPDEST PUSH1 0x40 MLOAD DUP1 SWAP2 SUB SWAP1 REVERT JUMPDEST PUSH1 0x0 DUP1 PUSH1 0x2 PUSH1 0xA DUP1 PUSH1 0x20 MUL PUSH1 0x40 MLOAD SWAP1 DUP2 ADD PUSH1 0x40 MSTORE DUP1 SWAP3 SWAP2 SWAP1 DUP3 PUSH1 0xA DUP1 ISZERO PUSH2 0x1A3F JUMPI PUSH1 0x20 MUL DUP3 ADD SWAP2 JUMPDEST DUP2 SLOAD DUP2 MSTORE PUSH1 0x20 ADD SWAP1 PUSH1 0x1 ADD SWAP1 DUP1 DUP4 GT PUSH2 0x1A2B JUMPI JUMPDEST POP POP POP POP POP SWAP1 POP PUSH1 0x0 JUMPDEST PUSH1 0xA DUP2 LT ISZERO PUSH2 0x1AF9 JUMPI DUP4 DUP3 DUP3 PUSH1 0xA DUP2 LT PUSH2 0x1A66 JUMPI PUSH2 0x1A65 PUSH2 0x2BA5 JUMP JUMPDEST JUMPDEST PUSH1 0x20 MUL ADD MLOAD EQ ISZERO PUSH2 0x1AAC JUMPI PUSH1 0x40 MLOAD PUSH32 0x8C379A000000000000000000000000000000000000000000000000000000000 DUP2 MSTORE PUSH1 0x4 ADD PUSH2 0x1AA3 SWAP1 PUSH2 0x3706 JUMP JUMPDEST PUSH1 0x40 MLOAD DUP1 SWAP2 SUB SWAP1 REVERT JUMPDEST DUP2 DUP4 PUSH1 0xA DUP2 LT PUSH2 0x1ABF JUMPI PUSH2 0x1ABE PUSH2 0x2BA5 JUMP JUMPDEST JUMPDEST PUSH1 0x20 MUL ADD MLOAD DUP3 DUP3 PUSH1 0xA DUP2 LT PUSH2 0x1AD7 JUMPI PUSH2 0x1AD6 PUSH2 0x2BA5 JUMP JUMPDEST JUMPDEST PUSH1 0x20 MUL ADD MLOAD LT ISZERO PUSH2 0x1AE6 JUMPI DUP1 SWAP3 POP JUMPDEST DUP1 DUP1 PUSH2 0x1AF1 SWAP1 PUSH2 0x2C03 JUMP JUMPDEST SWAP2 POP POP PUSH2 0x1A49 JUMP JUMPDEST POP DUP1 DUP3 PUSH1 0xA DUP2 LT PUSH2 0x1B0D JUMPI PUSH2 0x1B0C PUSH2 0x2BA5 JUMP JUMPDEST JUMPDEST PUSH1 0x20 MUL ADD MLOAD DUP4 GT PUSH2 0x1B53 JUMPI PUSH1 0x40 MLOAD PUSH32 0x8C379A000000000000000000000000000000000000000000000000000000000 DUP2 MSTORE PUSH1 0x4 ADD PUSH2 0x1B4A SWAP1 PUSH2 0x3772 JUMP JUMPDEST PUSH1 0x40 MLOAD DUP1 SWAP2 SUB SWAP1 REVERT JUMPDEST PUSH2 0x2710 DUP2 DUP4 PUSH1 0xA DUP2 LT PUSH2 0x1B69 JUMPI PUSH2 0x1B68 PUSH2 0x2BA5 JUMP JUMPDEST JUMPDEST PUSH1 0x20 MUL ADD MLOAD PUSH2 0x1B78 SWAP2 SWAP1 PUSH2 0x2C4C JUMP JUMPDEST DUP4 GT ISZERO PUSH2 0x1BBA JUMPI PUSH1 0x40 MLOAD PUSH32 0x8C379A000000000000000000000000000000000000000000000000000000000 DUP2 MSTORE PUSH1 0x4 ADD PUSH2 0x1BB1 SWAP1 PUSH2 0x37DE JUMP JUMPDEST PUSH1 0x40 MLOAD DUP1 SWAP2 SUB SWAP1 REVERT JUMPDEST DUP3 PUSH1 0x2 DUP4 PUSH1 0xA DUP2 LT PUSH2 0x1BCF JUMPI PUSH2 0x1BCE PUSH2 0x2BA5 JUMP JUMPDEST JUMPDEST ADD DUP2 SWAP1 SSTORE POP POP POP POP JUMP JUMPDEST PUSH1 0x0 PUSH20 0xFFFFFFFFFFFFFFFFFFFFFFFFFFFFFFFFFFFFFFFF DUP3 AND SWAP1 POP SWAP2 SWAP1 POP JUMP JUMPDEST PUSH1 0x0 PUSH2 0x1C04 DUP3 PUSH2 0x1BD9 JUMP JUMPDEST SWAP1 POP SWAP2 SWAP1 POP JUMP JUMPDEST PUSH2 0x1C14 DUP2 PUSH2 0x1BF9 JUMP JUMPDEST DUP3 MSTORE POP POP JUMP JUMPDEST PUSH1 0x0 DUP2 SWAP1 POP SWAP2 SWAP1 POP JUMP JUMPDEST PUSH2 0x1C2D DUP2 PUSH2 0x1C1A JUMP JUMPDEST DUP3 MSTORE POP POP JUMP JUMPDEST PUSH1 0x0 DUP3 DUP3 MSTORE PUSH1 0x20 DUP3 ADD SWAP1 POP SWAP3 SWAP2 POP POP JUMP JUMPDEST POP JUMP JUMPDEST PUSH1 0x0 PUSH2 0x1C54 PUSH1 0x0 DUP4 PUSH2 0x1C33 JUMP JUMPDEST SWAP2 POP PUSH2 0x1C5F DUP3 PUSH2 0x1C44 JUMP JUMPDEST PUSH1 0x0 DUP3 ADD SWAP1 POP SWAP2 SWAP1 POP JUMP JUMPDEST PUSH1 0x0 PUSH1 0x60 DUP3 ADD SWAP1 POP PUSH2 0x1C7F PUSH1 0x0 DUP4 ADD DUP6 PUSH2 0x1C0B JUMP JUMPDEST PUSH2 0x1C8C PUSH1 0x20 DUP4 ADD DUP5 PUSH2 0x1C24 JUMP JUMPDEST DUP2 DUP2 SUB PUSH1 0x40 DUP4 ADD MSTORE PUSH2 0x1C9D DUP2 PUSH2 0x1C47 JUMP JUMPDEST SWAP1 POP SWAP4 SWAP3 POP POP POP JUMP JUMPDEST DUP3 DUP2 DUP4 CALLDATACOPY PUSH1 0x0 DUP4 DUP4 ADD MSTORE POP POP POP JUMP JUMPDEST PUSH1 0x0 PUSH1 0x1F NOT PUSH1 0x1F DUP4 ADD AND SWAP1 POP SWAP2 SWAP1 POP JUMP JUMPDEST PUSH1 0x0 PUSH2 0x1CD2 DUP4 DUP6 PUSH2 0x1C33 JUMP JUMPDEST SWAP4 POP PUSH2 0x1CDF DUP4 DUP6 DUP5 PUSH2 0x1CA6 JUMP JUMPDEST PUSH2 0x1CE8 DUP4 PUSH2 0x1CB5 JUMP JUMPDEST DUP5 ADD SWAP1 POP SWAP4 SWAP3 POP POP POP JUMP JUMPDEST PUSH1 0x0 PUSH1 0x60 DUP3 ADD SWAP1 POP PUSH2 0x1D08 PUSH1 0x0 DUP4 ADD DUP8 PUSH2 0x1C0B JUMP JUMPDEST PUSH2 0x1D15 PUSH1 0x20 DUP4 ADD DUP7 PUSH2 0x1C24 JUMP JUMPDEST DUP2 DUP2 SUB PUSH1 0x40 DUP4 ADD MSTORE PUSH2 0x1D28 DUP2 DUP5 DUP7 PUSH2 0x1CC6 JUMP JUMPDEST SWAP1 POP SWAP6 SWAP5 POP POP POP POP POP JUMP JUMPDEST PUSH1 0x0 PUSH1 0x40 MLOAD SWAP1 POP SWAP1 JUMP JUMPDEST PUSH1 0x0 DUP1 REVERT JUMPDEST PUSH1 0x0 DUP1 REVERT JUMPDEST PUSH1 0x0 PUSH32 0xFFFFFFFF00000000000000000000000000000000000000000000000000000000 DUP3 AND SWAP1 POP SWAP2 SWAP1 POP JUMP JUMPDEST PUSH2 0x1D7C DUP2 PUSH2 0x1D47 JUMP JUMPDEST DUP2 EQ PUSH2 0x1D87 JUMPI PUSH1 0x0 DUP1 REVERT JUMPDEST POP JUMP JUMPDEST PUSH1 0x0 DUP2 CALLDATALOAD SWAP1 POP PUSH2 0x1D99 DUP2 PUSH2 0x1D73 JUMP JUMPDEST SWAP3 SWAP2 POP POP JUMP JUMPDEST PUSH1 0x0 PUSH1 0x20 DUP3 DUP5 SUB SLT ISZERO PUSH2 0x1DB5 JUMPI PUSH2 0x1DB4 PUSH2 0x1D3D JUMP JUMPDEST JUMPDEST PUSH1 0x0 PUSH2 0x1DC3 DUP5 DUP3 DUP6 ADD PUSH2 0x1D8A JUMP JUMPDEST SWAP2 POP POP SWAP3 SWAP2 POP POP JUMP JUMPDEST PUSH1 0x0 DUP2 ISZERO ISZERO SWAP1 POP SWAP2 SWAP1 POP JUMP JUMPDEST PUSH2 0x1DE1 DUP2 PUSH2 0x1DCC JUMP JUMPDEST DUP3 MSTORE POP POP JUMP JUMPDEST PUSH1 0x0 PUSH1 0x20 DUP3 ADD SWAP1 POP PUSH2 0x1DFC PUSH1 0x0 DUP4 ADD DUP5 PUSH2 0x1DD8 JUMP JUMPDEST SWAP3 SWAP2 POP POP JUMP JUMPDEST PUSH2 0x1E0B DUP2 PUSH2 0x1BF9 JUMP JUMPDEST DUP2 EQ PUSH2 0x1E16 JUMPI PUSH1 0x0 DUP1 REVERT JUMPDEST POP JUMP JUMPDEST PUSH1 0x0 DUP2 CALLDATALOAD SWAP1 POP PUSH2 0x1E28 DUP2 PUSH2 0x1E02 JUMP JUMPDEST SWAP3 SWAP2 POP POP JUMP JUMPDEST PUSH2 0x1E37 DUP2 PUSH2 0x1C1A JUMP JUMPDEST DUP2 EQ PUSH2 0x1E42 JUMPI PUSH1 0x0 DUP1 REVERT JUMPDEST POP JUMP JUMPDEST PUSH1 0x0 DUP2 CALLDATALOAD SWAP1 POP PUSH2 0x1E54 DUP2 PUSH2 0x1E2E JUMP JUMPDEST SWAP3 SWAP2 POP POP JUMP JUMPDEST PUSH1 0x0 DUP1 REVERT JUMPDEST PUSH1 0x0 DUP1 REVERT JUMPDEST PUSH1 0x0 DUP1 REVERT JUMPDEST PUSH1 0x0 DUP1 DUP4 PUSH1 0x1F DUP5 ADD SLT PUSH2 0x1E7F JUMPI PUSH2 0x1E7E PUSH2 0x1E5A JUMP JUMPDEST JUMPDEST DUP3 CALLDATALOAD SWAP1 POP PUSH8 0xFFFFFFFFFFFFFFFF DUP2 GT ISZERO PUSH2 0x1E9C JUMPI PUSH2 0x1E9B PUSH2 0x1E5F JUMP JUMPDEST JUMPDEST PUSH1 0x20 DUP4 ADD SWAP2 POP DUP4 PUSH1 0x1 DUP3 MUL DUP4 ADD GT ISZERO PUSH2 0x1EB8 JUMPI PUSH2 0x1EB7 PUSH2 0x1E64 JUMP JUMPDEST JUMPDEST SWAP3 POP SWAP3 SWAP1 POP JUMP JUMPDEST PUSH1 0x0 DUP1 PUSH1 0x0 DUP1 PUSH1 0x0 DUP1 PUSH1 0x0 PUSH1 0xC0 DUP9 DUP11 SUB SLT ISZERO PUSH2 0x1EDE JUMPI PUSH2 0x1EDD PUSH2 0x1D3D JUMP JUMPDEST JUMPDEST PUSH1 0x0 PUSH2 0x1EEC DUP11 DUP3 DUP12 ADD PUSH2 0x1E19 JUMP JUMPDEST SWAP8 POP POP PUSH1 0x20 PUSH2 0x1EFD DUP11 DUP3 DUP12 ADD PUSH2 0x1E45 JUMP JUMPDEST SWAP7 POP POP PUSH1 0x40 PUSH2 0x1F0E DUP11 DUP3 DUP12 ADD PUSH2 0x1E19 JUMP JUMPDEST SWAP6 POP POP PUSH1 0x60 PUSH2 0x1F1F DUP11 DUP3 DUP12 ADD PUSH2 0x1E45 JUMP JUMPDEST SWAP5 POP POP PUSH1 0x80 PUSH2 0x1F30 DUP11 DUP3 DUP12 ADD PUSH2 0x1E45 JUMP JUMPDEST SWAP4 POP POP PUSH1 0xA0 DUP9 ADD CALLDATALOAD PUSH8 0xFFFFFFFFFFFFFFFF DUP2 GT ISZERO PUSH2 0x1F51 JUMPI PUSH2 0x1F50 PUSH2 0x1D42 JUMP JUMPDEST JUMPDEST PUSH2 0x1F5D DUP11 DUP3 DUP12 ADD PUSH2 0x1E69 JUMP JUMPDEST SWAP3 POP SWAP3 POP POP SWAP3 SWAP6 SWAP9 SWAP2 SWAP5 SWAP8 POP SWAP3 SWAP6 POP JUMP JUMPDEST PUSH1 0x0 DUP1 REVERT JUMPDEST PUSH32 0x4E487B7100000000000000000000000000000000000000000000000000000000 PUSH1 0x0 MSTORE PUSH1 0x41 PUSH1 0x4 MSTORE PUSH1 0x24 PUSH1 0x0 REVERT JUMPDEST PUSH2 0x1FAB DUP3 PUSH2 0x1CB5 JUMP JUMPDEST DUP2 ADD DUP2 DUP2 LT PUSH8 0xFFFFFFFFFFFFFFFF DUP3 GT OR ISZERO PUSH2 0x1FCA JUMPI PUSH2 0x1FC9 PUSH2 0x1F73 JUMP JUMPDEST JUMPDEST DUP1 PUSH1 0x40 MSTORE POP POP POP JUMP JUMPDEST PUSH1 0x0 PUSH2 0x1FDD PUSH2 0x1D33 JUMP JUMPDEST SWAP1 POP PUSH2 0x1FE9 DUP3 DUP3 PUSH2 0x1FA2 JUMP JUMPDEST SWAP2 SWAP1 POP JUMP JUMPDEST PUSH1 0x0 PUSH8 0xFFFFFFFFFFFFFFFF DUP3 GT ISZERO PUSH2 0x2009 JUMPI PUSH2 0x2008 PUSH2 0x1F73 JUMP JUMPDEST JUMPDEST PUSH2 0x2012 DUP3 PUSH2 0x1CB5 JUMP JUMPDEST SWAP1 POP PUSH1 0x20 DUP2 ADD SWAP1 POP SWAP2 SWAP1 POP JUMP JUMPDEST PUSH1 0x0 PUSH2 0x2032 PUSH2 0x202D DUP5 PUSH2 0x1FEE JUMP JUMPDEST PUSH2 0x1FD3 JUMP JUMPDEST SWAP1 POP DUP3 DUP2 MSTORE PUSH1 0x20 DUP2 ADD DUP5 DUP5 DUP5 ADD GT ISZERO PUSH2 0x204E JUMPI PUSH2 0x204D PUSH2 0x1F6E JUMP JUMPDEST JUMPDEST PUSH2 0x2059 DUP5 DUP3 DUP6 PUSH2 0x1CA6 JUMP JUMPDEST POP SWAP4 SWAP3 POP POP POP JUMP JUMPDEST PUSH1 0x0 DUP3 PUSH1 0x1F DUP4 ADD SLT PUSH2 0x2076 JUMPI PUSH2 0x2075 PUSH2 0x1E5A JUMP JUMPDEST JUMPDEST DUP2 CALLDATALOAD PUSH2 0x2086 DUP5 DUP3 PUSH1 0x20 DUP7 ADD PUSH2 0x201F JUMP JUMPDEST SWAP2 POP POP SWAP3 SWAP2 POP POP JUMP JUMPDEST PUSH1 0x0 DUP1 PUSH1 0x0 DUP1 PUSH1 0x80 DUP6 DUP8 SUB SLT ISZERO PUSH2 0x20A9 JUMPI PUSH2 0x20A8 PUSH2 0x1D3D JUMP JUMPDEST JUMPDEST PUSH1 0x0 PUSH2 0x20B7 DUP8 DUP3 DUP9 ADD PUSH2 0x1E19 JUMP JUMPDEST SWAP5 POP POP PUSH1 0x20 PUSH2 0x20C8 DUP8 DUP3 DUP9 ADD PUSH2 0x1E19 JUMP JUMPDEST SWAP4 POP POP PUSH1 0x40 PUSH2 0x20D9 DUP8 DUP3 DUP9 ADD PUSH2 0x1E45 JUMP JUMPDEST SWAP3 POP POP PUSH1 0x60 DUP6 ADD CALLDATALOAD PUSH8 0xFFFFFFFFFFFFFFFF DUP2 GT ISZERO PUSH2 0x20FA JUMPI PUSH2 0x20F9 PUSH2 0x1D42 JUMP JUMPDEST JUMPDEST PUSH2 0x2106 DUP8 DUP3 DUP9 ADD PUSH2 0x2061 JUMP JUMPDEST SWAP2 POP POP SWAP3 SWAP6 SWAP2 SWAP5 POP SWAP3 POP JUMP JUMPDEST PUSH2 0x211B DUP2 PUSH2 0x1D47 JUMP JUMPDEST DUP3 MSTORE POP POP JUMP JUMPDEST PUSH1 0x0 PUSH1 0x20 DUP3 ADD SWAP1 POP PUSH2 0x2136 PUSH1 0x0 DUP4 ADD DUP5 PUSH2 0x2112 JUMP JUMPDEST SWAP3 SWAP2 POP POP JUMP JUMPDEST PUSH1 0x0 PUSH2 0x2147 DUP3 PUSH2 0x1BD9 JUMP JUMPDEST SWAP1 POP SWAP2 SWAP1 POP JUMP JUMPDEST PUSH2 0x2157 DUP2 PUSH2 0x213C JUMP JUMPDEST DUP2 EQ PUSH2 0x2162 JUMPI PUSH1 0x0 DUP1 REVERT JUMPDEST POP JUMP JUMPDEST PUSH1 0x0 DUP2 CALLDATALOAD SWAP1 POP PUSH2 0x2174 DUP2 PUSH2 0x214E JUMP JUMPDEST SWAP3 SWAP2 POP POP JUMP JUMPDEST PUSH1 0x0 DUP1 PUSH1 0x40 DUP4 DUP6 SUB SLT ISZERO PUSH2 0x2191 JUMPI PUSH2 0x2190 PUSH2 0x1D3D JUMP JUMPDEST JUMPDEST PUSH1 0x0 PUSH2 0x219F DUP6 DUP3 DUP7 ADD PUSH2 0x2165 JUMP JUMPDEST SWAP3 POP POP PUSH1 0x20 PUSH2 0x21B0 DUP6 DUP3 DUP7 ADD PUSH2 0x1E19 JUMP JUMPDEST SWAP2 POP POP SWAP3 POP SWAP3 SWAP1 POP JUMP JUMPDEST PUSH1 0x0 DUP1 DUP4 PUSH1 0x1F DUP5 ADD SLT PUSH2 0x21D0 JUMPI PUSH2 0x21CF PUSH2 0x1E5A JUMP JUMPDEST JUMPDEST DUP3 CALLDATALOAD SWAP1 POP PUSH8 0xFFFFFFFFFFFFFFFF DUP2 GT ISZERO PUSH2 0x21ED JUMPI PUSH2 0x21EC PUSH2 0x1E5F JUMP JUMPDEST JUMPDEST PUSH1 0x20 DUP4 ADD SWAP2 POP DUP4 PUSH1 0x20 DUP3 MUL DUP4 ADD GT ISZERO PUSH2 0x2209 JUMPI PUSH2 0x2208 PUSH2 0x1E64 JUMP JUMPDEST JUMPDEST SWAP3 POP SWAP3 SWAP1 POP JUMP JUMPDEST PUSH1 0x0 DUP1 PUSH1 0x0 DUP1 PUSH1 0x60 DUP6 DUP8 SUB SLT ISZERO PUSH2 0x222A JUMPI PUSH2 0x2229 PUSH2 0x1D3D JUMP JUMPDEST JUMPDEST PUSH1 0x0 PUSH2 0x2238 DUP8 DUP3 DUP9 ADD PUSH2 0x2165 JUMP JUMPDEST SWAP5 POP POP PUSH1 0x20 PUSH2 0x2249 DUP8 DUP3 DUP9 ADD PUSH2 0x1E19 JUMP JUMPDEST SWAP4 POP POP PUSH1 0x40 DUP6 ADD CALLDATALOAD PUSH8 0xFFFFFFFFFFFFFFFF DUP2 GT ISZERO PUSH2 0x226A JUMPI PUSH2 0x2269 PUSH2 0x1D42 JUMP JUMPDEST JUMPDEST PUSH2 0x2276 DUP8 DUP3 DUP9 ADD PUSH2 0x21BA JUMP JUMPDEST SWAP3 POP SWAP3 POP POP SWAP3 SWAP6 SWAP2 SWAP5 POP SWAP3 POP JUMP JUMPDEST PUSH1 0x0 DUP1 PUSH1 0x0 DUP1 PUSH1 0x0 DUP1 PUSH1 0x0 DUP1 PUSH1 0xC0 DUP10 DUP12 SUB SLT ISZERO PUSH2 0x22A4 JUMPI PUSH2 0x22A3 PUSH2 0x1D3D JUMP JUMPDEST JUMPDEST PUSH1 0x0 PUSH2 0x22B2 DUP12 DUP3 DUP13 ADD PUSH2 0x1E19 JUMP JUMPDEST SWAP9 POP POP PUSH1 0x20 PUSH2 0x22C3 DUP12 DUP3 DUP13 ADD PUSH2 0x1E45 JUMP JUMPDEST SWAP8 POP POP PUSH1 0x40 DUP10 ADD CALLDATALOAD PUSH8 0xFFFFFFFFFFFFFFFF DUP2 GT ISZERO PUSH2 0x22E4 JUMPI PUSH2 0x22E3 PUSH2 0x1D42 JUMP JUMPDEST JUMPDEST PUSH2 0x22F0 DUP12 DUP3 DUP13 ADD PUSH2 0x1E69 JUMP JUMPDEST SWAP7 POP SWAP7 POP POP PUSH1 0x60 PUSH2 0x2303 DUP12 DUP3 DUP13 ADD PUSH2 0x1E45 JUMP JUMPDEST SWAP5 POP POP PUSH1 0x80 PUSH2 0x2314 DUP12 DUP3 DUP13 ADD PUSH2 0x1E45 JUMP JUMPDEST SWAP4 POP POP PUSH1 0xA0 DUP10 ADD CALLDATALOAD PUSH8 0xFFFFFFFFFFFFFFFF DUP2 GT ISZERO PUSH2 0x2335 JUMPI PUSH2 0x2334 PUSH2 0x1D42 JUMP JUMPDEST JUMPDEST PUSH2 0x2341 DUP12 DUP3 DUP13 ADD PUSH2 0x1E69 JUMP JUMPDEST SWAP3 POP SWAP3 POP POP SWAP3 SWAP6 SWAP9 POP SWAP3 SWAP6 SWAP9 SWAP1 SWAP4 SWAP7 POP JUMP JUMPDEST PUSH1 0x0 DUP1 PUSH1 0x0 PUSH1 0x60 DUP5 DUP7 SUB SLT ISZERO PUSH2 0x236C JUMPI PUSH2 0x236B PUSH2 0x1D3D JUMP JUMPDEST JUMPDEST PUSH1 0x0 PUSH2 0x237A DUP7 DUP3 DUP8 ADD PUSH2 0x2165 JUMP JUMPDEST SWAP4 POP POP PUSH1 0x20 PUSH2 0x238B DUP7 DUP3 DUP8 ADD PUSH2 0x1E19 JUMP JUMPDEST SWAP3 POP POP PUSH1 0x40 PUSH2 0x239C DUP7 DUP3 DUP8 ADD PUSH2 0x1E45 JUMP JUMPDEST SWAP2 POP POP SWAP3 POP SWAP3 POP SWAP3 JUMP JUMPDEST PUSH1 0x0 PUSH1 0x20 DUP3 DUP5 SUB SLT ISZERO PUSH2 0x23BC JUMPI PUSH2 0x23BB PUSH2 0x1D3D JUMP JUMPDEST JUMPDEST PUSH1 0x0 PUSH2 0x23CA DUP5 DUP3 DUP6 ADD PUSH2 0x1E19 JUMP JUMPDEST SWAP2 POP POP SWAP3 SWAP2 POP POP JUMP JUMPDEST PUSH2 0x23DC DUP2 PUSH2 0x1DCC JUMP JUMPDEST DUP2 EQ PUSH2 0x23E7 JUMPI PUSH1 0x0 DUP1 REVERT JUMPDEST POP JUMP JUMPDEST PUSH1 0x0 DUP2 CALLDATALOAD SWAP1 POP PUSH2 0x23F9 DUP2 PUSH2 0x23D3 JUMP JUMPDEST SWAP3 SWAP2 POP POP JUMP JUMPDEST PUSH1 0x0 DUP1 PUSH1 0x40 DUP4 DUP6 SUB SLT ISZERO PUSH2 0x2416 JUMPI PUSH2 0x2415 PUSH2 0x1D3D JUMP JUMPDEST JUMPDEST PUSH1 0x0 PUSH2 0x2424 DUP6 DUP3 DUP7 ADD PUSH2 0x1E19 JUMP JUMPDEST SWAP3 POP POP PUSH1 0x20 PUSH2 0x2435 DUP6 DUP3 DUP7 ADD PUSH2 0x23EA JUMP JUMPDEST SWAP2 POP POP SWAP3 POP SWAP3 SWAP1 POP JUMP JUMPDEST PUSH1 0x0 PUSH1 0x20 DUP3 ADD SWAP1 POP PUSH2 0x2454 PUSH1 0x0 DUP4 ADD DUP5 PUSH2 0x1C24 JUMP JUMPDEST SWAP3 SWAP2 POP POP JUMP JUMPDEST PUSH1 0x0 DUP1 DUP4 PUSH1 0x1F DUP5 ADD SLT PUSH2 0x2470 JUMPI PUSH2 0x246F PUSH2 0x1E5A JUMP JUMPDEST JUMPDEST DUP3 CALLDATALOAD SWAP1 POP PUSH8 0xFFFFFFFFFFFFFFFF DUP2 GT ISZERO PUSH2 0x248D JUMPI PUSH2 0x248C PUSH2 0x1E5F JUMP JUMPDEST JUMPDEST PUSH1 0x20 DUP4 ADD SWAP2 POP DUP4 PUSH1 0x20 DUP3 MUL DUP4 ADD GT ISZERO PUSH2 0x24A9 JUMPI PUSH2 0x24A8 PUSH2 0x1E64 JUMP JUMPDEST JUMPDEST SWAP3 POP SWAP3 SWAP1 POP JUMP JUMPDEST PUSH1 0x0 DUP1 PUSH1 0x0 DUP1 PUSH1 0x0 DUP1 PUSH1 0x0 DUP1 PUSH1 0xA0 DUP10 DUP12 SUB SLT ISZERO PUSH2 0x24D0 JUMPI PUSH2 0x24CF PUSH2 0x1D3D JUMP JUMPDEST JUMPDEST PUSH1 0x0 DUP10 ADD CALLDATALOAD PUSH8 0xFFFFFFFFFFFFFFFF DUP2 GT ISZERO PUSH2 0x24EE JUMPI PUSH2 0x24ED PUSH2 0x1D42 JUMP JUMPDEST JUMPDEST PUSH2 0x24FA DUP12 DUP3 DUP13 ADD PUSH2 0x245A JUMP JUMPDEST SWAP9 POP SWAP9 POP POP PUSH1 0x20 DUP10 ADD CALLDATALOAD PUSH8 0xFFFFFFFFFFFFFFFF DUP2 GT ISZERO PUSH2 0x251D JUMPI PUSH2 0x251C PUSH2 0x1D42 JUMP JUMPDEST JUMPDEST PUSH2 0x2529 DUP12 DUP3 DUP13 ADD PUSH2 0x21BA JUMP JUMPDEST SWAP7 POP SWAP7 POP POP PUSH1 0x40 PUSH2 0x253C DUP12 DUP3 DUP13 ADD PUSH2 0x1E45 JUMP JUMPDEST SWAP5 POP POP PUSH1 0x60 PUSH2 0x254D DUP12 DUP3 DUP13 ADD PUSH2 0x1E45 JUMP JUMPDEST SWAP4 POP POP PUSH1 0x80 DUP10 ADD CALLDATALOAD PUSH8 0xFFFFFFFFFFFFFFFF DUP2 GT ISZERO PUSH2 0x256E JUMPI PUSH2 0x256D PUSH2 0x1D42 JUMP JUMPDEST JUMPDEST PUSH2 0x257A DUP12 DUP3 DUP13 ADD PUSH2 0x1E69 JUMP JUMPDEST SWAP3 POP SWAP3 POP POP SWAP3 SWAP6 SWAP9 POP SWAP3 SWAP6 SWAP9 SWAP1 SWAP4 SWAP7 POP JUMP JUMPDEST PUSH1 0x0 DUP1 PUSH1 0x0 DUP1 PUSH1 0x0 DUP1 PUSH1 0x0 DUP1 PUSH1 0xA0 DUP10 DUP12 SUB SLT ISZERO PUSH2 0x25AC JUMPI PUSH2 0x25AB PUSH2 0x1D3D JUMP JUMPDEST JUMPDEST PUSH1 0x0 PUSH2 0x25BA DUP12 DUP3 DUP13 ADD PUSH2 0x1E19 JUMP JUMPDEST SWAP9 POP POP PUSH1 0x20 PUSH2 0x25CB DUP12 DUP3 DUP13 ADD PUSH2 0x1E19 JUMP JUMPDEST SWAP8 POP POP PUSH1 0x40 DUP10 ADD CALLDATALOAD PUSH8 0xFFFFFFFFFFFFFFFF DUP2 GT ISZERO PUSH2 0x25EC JUMPI PUSH2 0x25EB PUSH2 0x1D42 JUMP JUMPDEST JUMPDEST PUSH2 0x25F8 DUP12 DUP3 DUP13 ADD PUSH2 0x21BA JUMP JUMPDEST SWAP7 POP SWAP7 POP POP PUSH1 0x60 DUP10 ADD CALLDATALOAD PUSH8 0xFFFFFFFFFFFFFFFF DUP2 GT ISZERO PUSH2 0x261B JUMPI PUSH2 0x261A PUSH2 0x1D42 JUMP JUMPDEST JUMPDEST PUSH2 0x2627 DUP12 DUP3 DUP13 ADD PUSH2 0x21BA JUMP JUMPDEST SWAP5 POP SWAP5 POP POP PUSH1 0x80 DUP10 ADD CALLDATALOAD PUSH8 0xFFFFFFFFFFFFFFFF DUP2 GT ISZERO PUSH2 0x264A JUMPI PUSH2 0x2649 PUSH2 0x1D42 JUMP JUMPDEST JUMPDEST PUSH2 0x2656 DUP12 DUP3 DUP13 ADD PUSH2 0x1E69 JUMP JUMPDEST SWAP3 POP SWAP3 POP POP SWAP3 SWAP6 SWAP9 POP SWAP3 SWAP6 SWAP9 SWAP1 SWAP4 SWAP7 POP JUMP JUMPDEST PUSH1 0x0 DUP1 PUSH1 0x20 DUP4 DUP6 SUB SLT ISZERO PUSH2 0x267F JUMPI PUSH2 0x267E PUSH2 0x1D3D JUMP JUMPDEST JUMPDEST PUSH1 0x0 DUP4 ADD CALLDATALOAD PUSH8 0xFFFFFFFFFFFFFFFF DUP2 GT ISZERO PUSH2 0x269D JUMPI PUSH2 0x269C PUSH2 0x1D42 JUMP JUMPDEST JUMPDEST PUSH2 0x26A9 DUP6 DUP3 DUP7 ADD PUSH2 0x245A JUMP JUMPDEST SWAP3 POP SWAP3 POP POP SWAP3 POP SWAP3 SWAP1 POP JUMP JUMPDEST PUSH1 0x0 DUP1 PUSH1 0x0 DUP1 PUSH1 0x0 DUP1 PUSH1 0xA0 DUP8 DUP10 SUB SLT ISZERO PUSH2 0x26D2 JUMPI PUSH2 0x26D1 PUSH2 0x1D3D JUMP JUMPDEST JUMPDEST PUSH1 0x0 PUSH2 0x26E0 DUP10 DUP3 DUP11 ADD PUSH2 0x1E19 JUMP JUMPDEST SWAP7 POP POP PUSH1 0x20 PUSH2 0x26F1 DUP10 DUP3 DUP11 ADD PUSH2 0x1E19 JUMP JUMPDEST SWAP6 POP POP PUSH1 0x40 PUSH2 0x2702 DUP10 DUP3 DUP11 ADD PUSH2 0x1E45 JUMP JUMPDEST SWAP5 POP POP PUSH1 0x60 PUSH2 0x2713 DUP10 DUP3 DUP11 ADD PUSH2 0x1E45 JUMP JUMPDEST SWAP4 POP POP PUSH1 0x80 DUP8 ADD CALLDATALOAD PUSH8 0xFFFFFFFFFFFFFFFF DUP2 GT ISZERO PUSH2 0x2734 JUMPI PUSH2 0x2733 PUSH2 0x1D42 JUMP JUMPDEST JUMPDEST PUSH2 0x2740 DUP10 DUP3 DUP11 ADD PUSH2 0x1E69 JUMP JUMPDEST SWAP3 POP SWAP3 POP POP SWAP3 SWAP6 POP SWAP3 SWAP6 POP SWAP3 SWAP6 JUMP JUMPDEST PUSH1 0x0 DUP3 DUP3 MSTORE PUSH1 0x20 DUP3 ADD SWAP1 POP SWAP3 SWAP2 POP POP JUMP JUMPDEST PUSH32 0x4E6F6E2D7369676E657220696E206F6E6C795369676E6572206D6574686F6400 PUSH1 0x0 DUP3 ADD MSTORE POP JUMP JUMPDEST PUSH1 0x0 PUSH2 0x2796 PUSH1 0x1F DUP4 PUSH2 0x274F JUMP JUMPDEST SWAP2 POP PUSH2 0x27A1 DUP3 PUSH2 0x2760 JUMP JUMPDEST PUSH1 0x20 DUP3 ADD SWAP1 POP SWAP2 SWAP1 POP JUMP JUMPDEST PUSH1 0x0 PUSH1 0x20 DUP3 ADD SWAP1 POP DUP2 DUP2 SUB PUSH1 0x0 DUP4 ADD MSTORE PUSH2 0x27C5 DUP2 PUSH2 0x2789 JUMP JUMPDEST SWAP1 POP SWAP2 SWAP1 POP JUMP JUMPDEST PUSH1 0x0 DUP2 MLOAD SWAP1 POP SWAP2 SWAP1 POP JUMP JUMPDEST PUSH1 0x0 DUP2 SWAP1 POP SWAP3 SWAP2 POP POP JUMP JUMPDEST PUSH1 0x0 JUMPDEST DUP4 DUP2 LT ISZERO PUSH2 0x2800 JUMPI DUP1 DUP3 ADD MLOAD DUP2 DUP5 ADD MSTORE PUSH1 0x20 DUP2 ADD SWAP1 POP PUSH2 0x27E5 JUMP JUMPDEST DUP4 DUP2 GT ISZERO PUSH2 0x280F JUMPI PUSH1 0x0 DUP5 DUP5 ADD MSTORE JUMPDEST POP POP POP POP JUMP JUMPDEST PUSH1 0x0 PUSH2 0x2820 DUP3 PUSH2 0x27CC JUMP JUMPDEST PUSH2 0x282A DUP2 DUP6 PUSH2 0x27D7 JUMP JUMPDEST SWAP4 POP PUSH2 0x283A DUP2 DUP6 PUSH1 0x20 DUP7 ADD PUSH2 0x27E2 JUMP JUMPDEST DUP1 DUP5 ADD SWAP2 POP POP SWAP3 SWAP2 POP POP JUMP JUMPDEST PUSH1 0x0 DUP2 PUSH1 0x60 SHL SWAP1 POP SWAP2 SWAP1 POP JUMP JUMPDEST PUSH1 0x0 PUSH2 0x285E DUP3 PUSH2 0x2846 JUMP JUMPDEST SWAP1 POP SWAP2 SWAP1 POP JUMP JUMPDEST PUSH1 0x0 PUSH2 0x2870 DUP3 PUSH2 0x2853 JUMP JUMPDEST SWAP1 POP SWAP2 SWAP1 POP JUMP JUMPDEST PUSH2 0x2888 PUSH2 0x2883 DUP3 PUSH2 0x1BF9 JUMP JUMPDEST PUSH2 0x2865 JUMP JUMPDEST DUP3 MSTORE POP POP JUMP JUMPDEST PUSH1 0x0 DUP2 SWAP1 POP SWAP2 SWAP1 POP JUMP JUMPDEST PUSH2 0x28A9 PUSH2 0x28A4 DUP3 PUSH2 0x1C1A JUMP JUMPDEST PUSH2 0x288E JUMP JUMPDEST DUP3 MSTORE POP POP JUMP JUMPDEST PUSH1 0x0 PUSH2 0x28BB DUP3 DUP10 PUSH2 0x2815 JUMP JUMPDEST SWAP2 POP PUSH2 0x28C7 DUP3 DUP9 PUSH2 0x2877 JUMP JUMPDEST PUSH1 0x14 DUP3 ADD SWAP2 POP PUSH2 0x28D7 DUP3 DUP8 PUSH2 0x2898 JUMP JUMPDEST PUSH1 0x20 DUP3 ADD SWAP2 POP PUSH2 0x28E7 DUP3 DUP7 PUSH2 0x2877 JUMP JUMPDEST PUSH1 0x14 DUP3 ADD SWAP2 POP PUSH2 0x28F7 DUP3 DUP6 PUSH2 0x2898 JUMP JUMPDEST PUSH1 0x20 DUP3 ADD SWAP2 POP PUSH2 0x2907 DUP3 DUP5 PUSH2 0x2898 JUMP JUMPDEST PUSH1 0x20 DUP3 ADD SWAP2 POP DUP2 SWAP1 POP SWAP8 SWAP7 POP POP POP POP POP POP POP JUMP JUMPDEST PUSH1 0x0 PUSH1 0x20 DUP3 ADD SWAP1 POP PUSH2 0x2930 PUSH1 0x0 DUP4 ADD DUP5 PUSH2 0x1C0B JUMP JUMPDEST SWAP3 SWAP2 POP POP JUMP JUMPDEST PUSH1 0x0 DUP3 DUP3 MSTORE PUSH1 0x20 DUP3 ADD SWAP1 POP SWAP3 SWAP2 POP POP JUMP JUMPDEST PUSH1 0x0 DUP1 REVERT JUMPDEST PUSH1 0x0 PUSH2 0x2958 DUP4 DUP6 PUSH2 0x2936 JUMP JUMPDEST SWAP4 POP PUSH32 0x7FFFFFFFFFFFFFFFFFFFFFFFFFFFFFFFFFFFFFFFFFFFFFFFFFFFFFFFFFFFFFF DUP4 GT ISZERO PUSH2 0x298B JUMPI PUSH2 0x298A PUSH2 0x2947 JUMP JUMPDEST JUMPDEST PUSH1 0x20 DUP4 MUL SWAP3 POP PUSH2 0x299C DUP4 DUP6 DUP5 PUSH2 0x1CA6 JUMP JUMPDEST DUP3 DUP5 ADD SWAP1 POP SWAP4 SWAP3 POP POP POP JUMP JUMPDEST PUSH1 0x0 PUSH1 0x40 DUP3 ADD SWAP1 POP PUSH2 0x29BD PUSH1 0x0 DUP4 ADD DUP7 PUSH2 0x1C0B JUMP JUMPDEST DUP2 DUP2 SUB PUSH1 0x20 DUP4 ADD MSTORE PUSH2 0x29D0 DUP2 DUP5 DUP7 PUSH2 0x294C JUMP JUMPDEST SWAP1 POP SWAP5 SWAP4 POP POP POP POP JUMP JUMPDEST PUSH1 0x0 DUP2 SWAP1 POP SWAP3 SWAP2 POP POP JUMP JUMPDEST PUSH1 0x0 PUSH2 0x29F1 DUP4 DUP6 PUSH2 0x29DA JUMP JUMPDEST SWAP4 POP PUSH2 0x29FE DUP4 DUP6 DUP5 PUSH2 0x1CA6 JUMP JUMPDEST DUP3 DUP5 ADD SWAP1 POP SWAP4 SWAP3 POP POP POP JUMP JUMPDEST PUSH1 0x0 PUSH2 0x2A16 DUP3 DUP11 PUSH2 0x2815 JUMP JUMPDEST SWAP2 POP PUSH2 0x2A22 DUP3 DUP10 PUSH2 0x2877 JUMP JUMPDEST PUSH1 0x14 DUP3 ADD SWAP2 POP PUSH2 0x2A32 DUP3 DUP9 PUSH2 0x2898 JUMP JUMPDEST PUSH1 0x20 DUP3 ADD SWAP2 POP PUSH2 0x2A43 DUP3 DUP7 DUP9 PUSH2 0x29E5 JUMP JUMPDEST SWAP2 POP PUSH2 0x2A4F DUP3 DUP6 PUSH2 0x2898 JUMP JUMPDEST PUSH1 0x20 DUP3 ADD SWAP2 POP PUSH2 0x2A5F DUP3 DUP5 PUSH2 0x2898 JUMP JUMPDEST PUSH1 0x20 DUP3 ADD SWAP2 POP DUP2 SWAP1 POP SWAP9 SWAP8 POP POP POP POP POP POP POP POP JUMP JUMPDEST PUSH1 0x0 PUSH2 0x2A81 DUP3 DUP5 DUP7 PUSH2 0x29E5 JUMP JUMPDEST SWAP2 POP DUP2 SWAP1 POP SWAP4 SWAP3 POP POP POP JUMP JUMPDEST PUSH32 0x43616C6C20657865637574696F6E206661696C65640000000000000000000000 PUSH1 0x0 DUP3 ADD MSTORE POP JUMP JUMPDEST PUSH1 0x0 PUSH2 0x2AC3 PUSH1 0x15 DUP4 PUSH2 0x274F JUMP JUMPDEST SWAP2 POP PUSH2 0x2ACE DUP3 PUSH2 0x2A8D JUMP JUMPDEST PUSH1 0x20 DUP3 ADD SWAP1 POP SWAP2 SWAP1 POP JUMP JUMPDEST PUSH1 0x0 PUSH1 0x20 DUP3 ADD SWAP1 POP DUP2 DUP2 SUB PUSH1 0x0 DUP4 ADD MSTORE PUSH2 0x2AF2 DUP2 PUSH2 0x2AB6 JUMP JUMPDEST SWAP1 POP SWAP2 SWAP1 POP JUMP JUMPDEST PUSH1 0x0 DUP2 SWAP1 POP SWAP2 SWAP1 POP JUMP JUMPDEST PUSH2 0x2B0C DUP2 PUSH2 0x2AF9 JUMP JUMPDEST DUP3 MSTORE POP POP JUMP JUMPDEST PUSH1 0x0 PUSH1 0xC0 DUP3 ADD SWAP1 POP PUSH2 0x2B27 PUSH1 0x0 DUP4 ADD DUP11 PUSH2 0x1C0B JUMP JUMPDEST PUSH2 0x2B34 PUSH1 0x20 DUP4 ADD DUP10 PUSH2 0x1C0B JUMP JUMPDEST PUSH2 0x2B41 PUSH1 0x40 DUP4 ADD DUP9 PUSH2 0x2B03 JUMP JUMPDEST PUSH2 0x2B4E PUSH1 0x60 DUP4 ADD DUP8 PUSH2 0x1C0B JUMP JUMPDEST PUSH2 0x2B5B PUSH1 0x80 DUP4 ADD DUP7 PUSH2 0x1C24 JUMP JUMPDEST DUP2 DUP2 SUB PUSH1 0xA0 DUP4 ADD MSTORE PUSH2 0x2B6E DUP2 DUP5 DUP7 PUSH2 0x1CC6 JUMP JUMPDEST SWAP1 POP SWAP9 SWAP8 POP POP POP POP POP POP POP POP JUMP JUMPDEST PUSH1 0x0 PUSH1 0x40 DUP3 ADD SWAP1 POP PUSH2 0x2B91 PUSH1 0x0 DUP4 ADD DUP6 PUSH2 0x1C0B JUMP JUMPDEST PUSH2 0x2B9E PUSH1 0x20 DUP4 ADD DUP5 PUSH2 0x1C24 JUMP JUMPDEST SWAP4 SWAP3 POP POP POP JUMP JUMPDEST PUSH32 0x4E487B7100000000000000000000000000000000000000000000000000000000 PUSH1 0x0 MSTORE PUSH1 0x32 PUSH1 0x4 MSTORE PUSH1 0x24 PUSH1 0x0 REVERT JUMPDEST PUSH32 0x4E487B7100000000000000000000000000000000000000000000000000000000 PUSH1 0x0 MSTORE PUSH1 0x11 PUSH1 0x4 MSTORE PUSH1 0x24 PUSH1 0x0 REVERT JUMPDEST PUSH1 0x0 PUSH2 0x2C0E DUP3 PUSH2 0x1C1A JUMP JUMPDEST SWAP2 POP PUSH32 0xFFFFFFFFFFFFFFFFFFFFFFFFFFFFFFFFFFFFFFFFFFFFFFFFFFFFFFFFFFFFFFFF DUP3 EQ ISZERO PUSH2 0x2C41 JUMPI PUSH2 0x2C40 PUSH2 0x2BD4 JUMP JUMPDEST JUMPDEST PUSH1 0x1 DUP3 ADD SWAP1 POP SWAP2 SWAP1 POP JUMP JUMPDEST PUSH1 0x0 PUSH2 0x2C57 DUP3 PUSH2 0x1C1A JUMP JUMPDEST SWAP2 POP PUSH2 0x2C62 DUP4 PUSH2 0x1C1A JUMP JUMPDEST SWAP3 POP DUP3 PUSH32 0xFFFFFFFFFFFFFFFFFFFFFFFFFFFFFFFFFFFFFFFFFFFFFFFFFFFFFFFFFFFFFFFF SUB DUP3 GT ISZERO PUSH2 0x2C97 JUMPI PUSH2 0x2C96 PUSH2 0x2BD4 JUMP JUMPDEST JUMPDEST DUP3 DUP3 ADD SWAP1 POP SWAP3 SWAP2 POP POP JUMP JUMPDEST PUSH32 0x4E6F7420656E6F75676820726563697069656E74730000000000000000000000 PUSH1 0x0 DUP3 ADD MSTORE POP JUMP JUMPDEST PUSH1 0x0 PUSH2 0x2CD8 PUSH1 0x15 DUP4 PUSH2 0x274F JUMP JUMPDEST SWAP2 POP PUSH2 0x2CE3 DUP3 PUSH2 0x2CA2 JUMP JUMPDEST PUSH1 0x20 DUP3 ADD SWAP1 POP SWAP2 SWAP1 POP JUMP JUMPDEST PUSH1 0x0 PUSH1 0x20 DUP3 ADD SWAP1 POP DUP2 DUP2 SUB PUSH1 0x0 DUP4 ADD MSTORE PUSH2 0x2D07 DUP2 PUSH2 0x2CCB JUMP JUMPDEST SWAP1 POP SWAP2 SWAP1 POP JUMP JUMPDEST PUSH32 0x556E657175616C20726563697069656E747320616E642076616C756573000000 PUSH1 0x0 DUP3 ADD MSTORE POP JUMP JUMPDEST PUSH1 0x0 PUSH2 0x2D44 PUSH1 0x1D DUP4 PUSH2 0x274F JUMP JUMPDEST SWAP2 POP PUSH2 0x2D4F DUP3 PUSH2 0x2D0E JUMP JUMPDEST PUSH1 0x20 DUP3 ADD SWAP1 POP SWAP2 SWAP1 POP JUMP JUMPDEST PUSH1 0x0 PUSH1 0x20 DUP3 ADD SWAP1 POP DUP2 DUP2 SUB PUSH1 0x0 DUP4 ADD MSTORE PUSH2 0x2D73 DUP2 PUSH2 0x2D37 JUMP JUMPDEST SWAP1 POP SWAP2 SWAP1 POP JUMP JUMPDEST PUSH32 0x546F6F206D616E7920726563697069656E74732C206D61782032353500000000 PUSH1 0x0 DUP3 ADD MSTORE POP JUMP JUMPDEST PUSH1 0x0 PUSH2 0x2DB0 PUSH1 0x1C DUP4 PUSH2 0x274F JUMP JUMPDEST SWAP2 POP PUSH2 0x2DBB DUP3 PUSH2 0x2D7A JUMP JUMPDEST PUSH1 0x20 DUP3 ADD SWAP1 POP SWAP2 SWAP1 POP JUMP JUMPDEST PUSH1 0x0 PUSH1 0x20 DUP3 ADD SWAP1 POP DUP2 DUP2 SUB PUSH1 0x0 DUP4 ADD MSTORE PUSH2 0x2DDF DUP2 PUSH2 0x2DA3 JUMP JUMPDEST SWAP1 POP SWAP2 SWAP1 POP JUMP JUMPDEST PUSH1 0x0 DUP2 SWAP1 POP SWAP3 SWAP2 POP POP JUMP JUMPDEST PUSH1 0x0 DUP2 SWAP1 POP SWAP2 SWAP1 POP JUMP JUMPDEST PUSH2 0x2E04 DUP2 PUSH2 0x1BF9 JUMP JUMPDEST DUP3 MSTORE POP POP JUMP JUMPDEST PUSH1 0x0 PUSH2 0x2E16 DUP4 DUP4 PUSH2 0x2DFB JUMP JUMPDEST PUSH1 0x20 DUP4 ADD SWAP1 POP SWAP3 SWAP2 POP POP JUMP JUMPDEST PUSH1 0x0 PUSH2 0x2E31 PUSH1 0x20 DUP5 ADD DUP5 PUSH2 0x1E19 JUMP JUMPDEST SWAP1 POP SWAP3 SWAP2 POP POP JUMP JUMPDEST PUSH1 0x0 PUSH1 0x20 DUP3 ADD SWAP1 POP SWAP2 SWAP1 POP JUMP JUMPDEST PUSH1 0x0 PUSH2 0x2E52 DUP4 DUP6 PUSH2 0x2DE6 JUMP JUMPDEST SWAP4 POP PUSH2 0x2E5D DUP3 PUSH2 0x2DF1 JUMP JUMPDEST DUP1 PUSH1 0x0 JUMPDEST DUP6 DUP2 LT ISZERO PUSH2 0x2E96 JUMPI PUSH2 0x2E73 DUP3 DUP5 PUSH2 0x2E22 JUMP JUMPDEST PUSH2 0x2E7D DUP9 DUP3 PUSH2 0x2E0A JUMP JUMPDEST SWAP8 POP PUSH2 0x2E88 DUP4 PUSH2 0x2E39 JUMP JUMPDEST SWAP3 POP POP PUSH1 0x1 DUP2 ADD SWAP1 POP PUSH2 0x2E61 JUMP JUMPDEST POP DUP6 SWAP3 POP POP POP SWAP4 SWAP3 POP POP POP JUMP JUMPDEST PUSH1 0x0 DUP2 SWAP1 POP SWAP3 SWAP2 POP POP JUMP JUMPDEST PUSH1 0x0 PUSH2 0x2EBA DUP4 DUP6 PUSH2 0x2EA3 JUMP JUMPDEST SWAP4 POP PUSH32 0x7FFFFFFFFFFFFFFFFFFFFFFFFFFFFFFFFFFFFFFFFFFFFFFFFFFFFFFFFFFFFFF DUP4 GT ISZERO PUSH2 0x2EED JUMPI PUSH2 0x2EEC PUSH2 0x2947 JUMP JUMPDEST JUMPDEST PUSH1 0x20 DUP4 MUL SWAP3 POP PUSH2 0x2EFE DUP4 DUP6 DUP5 PUSH2 0x1CA6 JUMP JUMPDEST DUP3 DUP5 ADD SWAP1 POP SWAP4 SWAP3 POP POP POP JUMP JUMPDEST PUSH1 0x0 PUSH2 0x2F16 DUP3 DUP11 PUSH2 0x2815 JUMP JUMPDEST SWAP2 POP PUSH2 0x2F23 DUP3 DUP9 DUP11 PUSH2 0x2E46 JUMP JUMPDEST SWAP2 POP PUSH2 0x2F30 DUP3 DUP7 DUP9 PUSH2 0x2EAE JUMP JUMPDEST SWAP2 POP PUSH2 0x2F3C DUP3 DUP6 PUSH2 0x2898 JUMP JUMPDEST PUSH1 0x20 DUP3 ADD SWAP2 POP PUSH2 0x2F4C DUP3 DUP5 PUSH2 0x2898 JUMP JUMPDEST PUSH1 0x20 DUP3 ADD SWAP2 POP DUP2 SWAP1 POP SWAP9 SWAP8 POP POP POP POP POP POP POP POP JUMP JUMPDEST PUSH32 0x426174636820696E2073616665206D6F64650000000000000000000000000000 PUSH1 0x0 DUP3 ADD MSTORE POP JUMP JUMPDEST PUSH1 0x0 PUSH2 0x2F97 PUSH1 0x12 DUP4 PUSH2 0x274F JUMP JUMPDEST SWAP2 POP PUSH2 0x2FA2 DUP3 PUSH2 0x2F61 JUMP JUMPDEST PUSH1 0x20 DUP3 ADD SWAP1 POP SWAP2 SWAP1 POP JUMP JUMPDEST PUSH1 0x0 PUSH1 0x20 DUP3 ADD SWAP1 POP DUP2 DUP2 SUB PUSH1 0x0 DUP4 ADD MSTORE PUSH2 0x2FC6 DUP2 PUSH2 0x2F8A JUMP JUMPDEST SWAP1 POP SWAP2 SWAP1 POP JUMP JUMPDEST PUSH1 0x0 PUSH1 0x60 DUP3 ADD SWAP1 POP PUSH2 0x2FE2 PUSH1 0x0 DUP4 ADD DUP7 PUSH2 0x1C0B JUMP JUMPDEST PUSH2 0x2FEF PUSH1 0x20 DUP4 ADD DUP6 PUSH2 0x1C0B JUMP JUMPDEST PUSH2 0x2FFC PUSH1 0x40 DUP4 ADD DUP5 PUSH2 0x2B03 JUMP JUMPDEST SWAP5 SWAP4 POP POP POP POP JUMP JUMPDEST PUSH32 0x436F6E747261637420616C726561647920696E697469616C697A656400000000 PUSH1 0x0 DUP3 ADD MSTORE POP JUMP JUMPDEST PUSH1 0x0 PUSH2 0x303A PUSH1 0x1C DUP4 PUSH2 0x274F JUMP JUMPDEST SWAP2 POP PUSH2 0x3045 DUP3 PUSH2 0x3004 JUMP JUMPDEST PUSH1 0x20 DUP3 ADD SWAP1 POP SWAP2 SWAP1 POP JUMP JUMPDEST PUSH1 0x0 PUSH1 0x20 DUP3 ADD SWAP1 POP DUP2 DUP2 SUB PUSH1 0x0 DUP4 ADD MSTORE PUSH2 0x3069 DUP2 PUSH2 0x302D JUMP JUMPDEST SWAP1 POP SWAP2 SWAP1 POP JUMP JUMPDEST PUSH32 0x496E76616C6964206E756D626572206F66207369676E65727300000000000000 PUSH1 0x0 DUP3 ADD MSTORE POP JUMP JUMPDEST PUSH1 0x0 PUSH2 0x30A6 PUSH1 0x19 DUP4 PUSH2 0x274F JUMP JUMPDEST SWAP2 POP PUSH2 0x30B1 DUP3 PUSH2 0x3070 JUMP JUMPDEST PUSH1 0x20 DUP3 ADD SWAP1 POP SWAP2 SWAP1 POP JUMP JUMPDEST PUSH1 0x0 PUSH1 0x20 DUP3 ADD SWAP1 POP DUP2 DUP2 SUB PUSH1 0x0 DUP4 ADD MSTORE PUSH2 0x30D5 DUP2 PUSH2 0x3099 JUMP JUMPDEST SWAP1 POP SWAP2 SWAP1 POP JUMP JUMPDEST PUSH32 0x496E76616C6964207369676E6572000000000000000000000000000000000000 PUSH1 0x0 DUP3 ADD MSTORE POP JUMP JUMPDEST PUSH1 0x0 PUSH2 0x3112 PUSH1 0xE DUP4 PUSH2 0x274F JUMP JUMPDEST SWAP2 POP PUSH2 0x311D DUP3 PUSH2 0x30DC JUMP JUMPDEST PUSH1 0x20 DUP3 ADD SWAP1 POP SWAP2 SWAP1 POP JUMP JUMPDEST PUSH1 0x0 PUSH1 0x20 DUP3 ADD SWAP1 POP DUP2 DUP2 SUB PUSH1 0x0 DUP4 ADD MSTORE PUSH2 0x3141 DUP2 PUSH2 0x3105 JUMP JUMPDEST SWAP1 POP SWAP2 SWAP1 POP JUMP JUMPDEST PUSH1 0x0 PUSH1 0xFF DUP3 AND SWAP1 POP SWAP2 SWAP1 POP JUMP JUMPDEST PUSH1 0x0 PUSH2 0x3160 DUP3 PUSH2 0x3148 JUMP JUMPDEST SWAP2 POP PUSH1 0xFF DUP3 EQ ISZERO PUSH2 0x3174 JUMPI PUSH2 0x3173 PUSH2 0x2BD4 JUMP JUMPDEST JUMPDEST PUSH1 0x1 DUP3 ADD SWAP1 POP SWAP2 SWAP1 POP JUMP JUMPDEST PUSH32 0x45787465726E616C207472616E7366657220696E2073616665206D6F64650000 PUSH1 0x0 DUP3 ADD MSTORE POP JUMP JUMPDEST PUSH1 0x0 PUSH2 0x31B5 PUSH1 0x1E DUP4 PUSH2 0x274F JUMP JUMPDEST SWAP2 POP PUSH2 0x31C0 DUP3 PUSH2 0x317F JUMP JUMPDEST PUSH1 0x20 DUP3 ADD SWAP1 POP SWAP2 SWAP1 POP JUMP JUMPDEST PUSH1 0x0 PUSH1 0x20 DUP3 ADD SWAP1 POP DUP2 DUP2 SUB PUSH1 0x0 DUP4 ADD MSTORE PUSH2 0x31E4 DUP2 PUSH2 0x31A8 JUMP JUMPDEST SWAP1 POP SWAP2 SWAP1 POP JUMP JUMPDEST PUSH32 0x5472616E73616374696F6E206578706972656400000000000000000000000000 PUSH1 0x0 DUP3 ADD MSTORE POP JUMP JUMPDEST PUSH1 0x0 PUSH2 0x3221 PUSH1 0x13 DUP4 PUSH2 0x274F JUMP JUMPDEST SWAP2 POP PUSH2 0x322C DUP3 PUSH2 0x31EB JUMP JUMPDEST PUSH1 0x20 DUP3 ADD SWAP1 POP SWAP2 SWAP1 POP JUMP JUMPDEST PUSH1 0x0 PUSH1 0x20 DUP3 ADD SWAP1 POP DUP2 DUP2 SUB PUSH1 0x0 DUP4 ADD MSTORE PUSH2 0x3250 DUP2 PUSH2 0x3214 JUMP JUMPDEST SWAP1 POP SWAP2 SWAP1 POP JUMP JUMPDEST PUSH32 0x5369676E6572732063616E6E6F7420626520657175616C000000000000000000 PUSH1 0x0 DUP3 ADD MSTORE POP JUMP JUMPDEST PUSH1 0x0 PUSH2 0x328D PUSH1 0x17 DUP4 PUSH2 0x274F JUMP JUMPDEST SWAP2 POP PUSH2 0x3298 DUP3 PUSH2 0x3257 JUMP JUMPDEST PUSH1 0x20 DUP3 ADD SWAP1 POP SWAP2 SWAP1 POP JUMP JUMPDEST PUSH1 0x0 PUSH1 0x20 DUP3 ADD SWAP1 POP DUP2 DUP2 SUB PUSH1 0x0 DUP4 ADD MSTORE PUSH2 0x32BC DUP2 PUSH2 0x3280 JUMP JUMPDEST SWAP1 POP SWAP2 SWAP1 POP JUMP JUMPDEST PUSH1 0x0 DUP2 MLOAD SWAP1 POP SWAP2 SWAP1 POP JUMP JUMPDEST PUSH1 0x0 PUSH2 0x32D9 DUP3 PUSH2 0x32C3 JUMP JUMPDEST PUSH2 0x32E3 DUP2 DUP6 PUSH2 0x29DA JUMP JUMPDEST SWAP4 POP PUSH2 0x32F3 DUP2 DUP6 PUSH1 0x20 DUP7 ADD PUSH2 0x27E2 JUMP JUMPDEST DUP1 DUP5 ADD SWAP2 POP POP SWAP3 SWAP2 POP POP JUMP JUMPDEST PUSH1 0x0 PUSH2 0x330B DUP3 DUP5 PUSH2 0x32CE JUMP JUMPDEST SWAP2 POP DUP2 SWAP1 POP SWAP3 SWAP2 POP POP JUMP JUMPDEST PUSH1 0x0 DUP2 MLOAD SWAP1 POP PUSH2 0x3325 DUP2 PUSH2 0x23D3 JUMP JUMPDEST SWAP3 SWAP2 POP POP JUMP JUMPDEST PUSH1 0x0 PUSH1 0x20 DUP3 DUP5 SUB SLT ISZERO PUSH2 0x3341 JUMPI PUSH2 0x3340 PUSH2 0x1D3D JUMP JUMPDEST JUMPDEST PUSH1 0x0 PUSH2 0x334F DUP5 DUP3 DUP6 ADD PUSH2 0x3316 JUMP JUMPDEST SWAP2 POP POP SWAP3 SWAP2 POP POP JUMP JUMPDEST PUSH32 0x5472616E7366657248656C7065723A3A736166655472616E736665723A207472 PUSH1 0x0 DUP3 ADD MSTORE PUSH32 0x616E73666572206661696C656400000000000000000000000000000000000000 PUSH1 0x20 DUP3 ADD MSTORE POP JUMP JUMPDEST PUSH1 0x0 PUSH2 0x33B4 PUSH1 0x2D DUP4 PUSH2 0x274F JUMP JUMPDEST SWAP2 POP PUSH2 0x33BF DUP3 PUSH2 0x3358 JUMP JUMPDEST PUSH1 0x40 DUP3 ADD SWAP1 POP SWAP2 SWAP1 POP JUMP JUMPDEST PUSH1 0x0 PUSH1 0x20 DUP3 ADD SWAP1 POP DUP2 DUP2 SUB PUSH1 0x0 DUP4 ADD MSTORE PUSH2 0x33E3 DUP2 PUSH2 0x33A7 JUMP JUMPDEST SWAP1 POP SWAP2 SWAP1 POP JUMP JUMPDEST PUSH32 0x496E73756666696369656E742066756E64730000000000000000000000000000 PUSH1 0x0 DUP3 ADD MSTORE POP JUMP JUMPDEST PUSH1 0x0 PUSH2 0x3420 PUSH1 0x12 DUP4 PUSH2 0x274F JUMP JUMPDEST SWAP2 POP PUSH2 0x342B DUP3 PUSH2 0x33EA JUMP JUMPDEST PUSH1 0x20 DUP3 ADD SWAP1 POP SWAP2 SWAP1 POP JUMP JUMPDEST PUSH1 0x0 PUSH1 0x20 DUP3 ADD SWAP1 POP DUP2 DUP2 SUB PUSH1 0x0 DUP4 ADD MSTORE PUSH2 0x344F DUP2 PUSH2 0x3413 JUMP JUMPDEST SWAP1 POP SWAP2 SWAP1 POP JUMP JUMPDEST PUSH1 0x0 PUSH2 0x3463 PUSH1 0x0 DUP4 PUSH2 0x29DA JUMP JUMPDEST SWAP2 POP PUSH2 0x346E DUP3 PUSH2 0x1C44 JUMP JUMPDEST PUSH1 0x0 DUP3 ADD SWAP1 POP SWAP2 SWAP1 POP JUMP JUMPDEST PUSH1 0x0 PUSH2 0x3484 DUP3 PUSH2 0x3456 JUMP JUMPDEST SWAP2 POP DUP2 SWAP1 POP SWAP2 SWAP1 POP JUMP JUMPDEST PUSH32 0x43616C6C206661696C6564000000000000000000000000000000000000000000 PUSH1 0x0 DUP3 ADD MSTORE POP JUMP JUMPDEST PUSH1 0x0 PUSH2 0x34C4 PUSH1 0xB DUP4 PUSH2 0x274F JUMP JUMPDEST SWAP2 POP PUSH2 0x34CF DUP3 PUSH2 0x348E JUMP JUMPDEST PUSH1 0x20 DUP3 ADD SWAP1 POP SWAP2 SWAP1 POP JUMP JUMPDEST PUSH1 0x0 PUSH1 0x20 DUP3 ADD SWAP1 POP DUP2 DUP2 SUB PUSH1 0x0 DUP4 ADD MSTORE PUSH2 0x34F3 DUP2 PUSH2 0x34B7 JUMP JUMPDEST SWAP1 POP SWAP2 SWAP1 POP JUMP JUMPDEST PUSH1 0x0 PUSH1 0x60 DUP3 ADD SWAP1 POP PUSH2 0x350F PUSH1 0x0 DUP4 ADD DUP7 PUSH2 0x1C0B JUMP JUMPDEST PUSH2 0x351C PUSH1 0x20 DUP4 ADD DUP6 PUSH2 0x1C0B JUMP JUMPDEST PUSH2 0x3529 PUSH1 0x40 DUP4 ADD DUP5 PUSH2 0x1C24 JUMP JUMPDEST SWAP5 SWAP4 POP POP POP POP JUMP JUMPDEST PUSH32 0x496E76616C6964207369676E6174757265202D2077726F6E67206C656E677468 PUSH1 0x0 DUP3 ADD MSTORE POP JUMP JUMPDEST PUSH1 0x0 PUSH2 0x3567 PUSH1 0x20 DUP4 PUSH2 0x274F JUMP JUMPDEST SWAP2 POP PUSH2 0x3572 DUP3 PUSH2 0x3531 JUMP JUMPDEST PUSH1 0x20 DUP3 ADD SWAP1 POP SWAP2 SWAP1 POP JUMP JUMPDEST PUSH1 0x0 PUSH1 0x20 DUP3 ADD SWAP1 POP DUP2 DUP2 SUB PUSH1 0x0 DUP4 ADD MSTORE PUSH2 0x3596 DUP2 PUSH2 0x355A JUMP JUMPDEST SWAP1 POP SWAP2 SWAP1 POP JUMP JUMPDEST PUSH1 0x0 PUSH2 0x35A8 DUP3 PUSH2 0x3148 JUMP JUMPDEST SWAP2 POP PUSH2 0x35B3 DUP4 PUSH2 0x3148 JUMP JUMPDEST SWAP3 POP DUP3 PUSH1 0xFF SUB DUP3 GT ISZERO PUSH2 0x35C9 JUMPI PUSH2 0x35C8 PUSH2 0x2BD4 JUMP JUMPDEST JUMPDEST DUP3 DUP3 ADD SWAP1 POP SWAP3 SWAP2 POP POP JUMP JUMPDEST PUSH32 0x45434453413A20696E76616C6964207369676E6174757265202773272076616C PUSH1 0x0 DUP3 ADD MSTORE PUSH32 0x7565000000000000000000000000000000000000000000000000000000000000 PUSH1 0x20 DUP3 ADD MSTORE POP JUMP JUMPDEST PUSH1 0x0 PUSH2 0x3630 PUSH1 0x22 DUP4 PUSH2 0x274F JUMP JUMPDEST SWAP2 POP PUSH2 0x363B DUP3 PUSH2 0x35D4 JUMP JUMPDEST PUSH1 0x40 DUP3 ADD SWAP1 POP SWAP2 SWAP1 POP JUMP JUMPDEST PUSH1 0x0 PUSH1 0x20 DUP3 ADD SWAP1 POP DUP2 DUP2 SUB PUSH1 0x0 DUP4 ADD MSTORE PUSH2 0x365F DUP2 PUSH2 0x3623 JUMP JUMPDEST SWAP1 POP SWAP2 SWAP1 POP JUMP JUMPDEST PUSH2 0x366F DUP2 PUSH2 0x3148 JUMP JUMPDEST DUP3 MSTORE POP POP JUMP JUMPDEST PUSH1 0x0 PUSH1 0x80 DUP3 ADD SWAP1 POP PUSH2 0x368A PUSH1 0x0 DUP4 ADD DUP8 PUSH2 0x2B03 JUMP JUMPDEST PUSH2 0x3697 PUSH1 0x20 DUP4 ADD DUP7 PUSH2 0x3666 JUMP JUMPDEST PUSH2 0x36A4 PUSH1 0x40 DUP4 ADD DUP6 PUSH2 0x2B03 JUMP JUMPDEST PUSH2 0x36B1 PUSH1 0x60 DUP4 ADD DUP5 PUSH2 0x2B03 JUMP JUMPDEST SWAP6 SWAP5 POP POP POP POP POP JUMP JUMPDEST PUSH32 0x53657175656E636520494420616C726561647920757365640000000000000000 PUSH1 0x0 DUP3 ADD MSTORE POP JUMP JUMPDEST PUSH1 0x0 PUSH2 0x36F0 PUSH1 0x18 DUP4 PUSH2 0x274F JUMP JUMPDEST SWAP2 POP PUSH2 0x36FB DUP3 PUSH2 0x36BA JUMP JUMPDEST PUSH1 0x20 DUP3 ADD SWAP1 POP SWAP2 SWAP1 POP JUMP JUMPDEST PUSH1 0x0 PUSH1 0x20 DUP3 ADD SWAP1 POP DUP2 DUP2 SUB PUSH1 0x0 DUP4 ADD MSTORE PUSH2 0x371F DUP2 PUSH2 0x36E3 JUMP JUMPDEST SWAP1 POP SWAP2 SWAP1 POP JUMP JUMPDEST PUSH32 0x53657175656E63652049442062656C6F772077696E646F770000000000000000 PUSH1 0x0 DUP3 ADD MSTORE POP JUMP JUMPDEST PUSH1 0x0 PUSH2 0x375C PUSH1 0x18 DUP4 PUSH2 0x274F JUMP JUMPDEST SWAP2 POP PUSH2 0x3767 DUP3 PUSH2 0x3726 JUMP JUMPDEST PUSH1 0x20 DUP3 ADD SWAP1 POP SWAP2 SWAP1 POP JUMP JUMPDEST PUSH1 0x0 PUSH1 0x20 DUP3 ADD SWAP1 POP DUP2 DUP2 SUB PUSH1 0x0 DUP4 ADD MSTORE PUSH2 0x378B DUP2 PUSH2 0x374F JUMP JUMPDEST SWAP1 POP SWAP2 SWAP1 POP JUMP JUMPDEST PUSH32 0x53657175656E63652049442061626F7665206D6178696D756D00000000000000 PUSH1 0x0 DUP3 ADD MSTORE POP JUMP JUMPDEST PUSH1 0x0 PUSH2 0x37C8 PUSH1 0x19 DUP4 PUSH2 0x274F JUMP JUMPDEST SWAP2 POP PUSH2 0x37D3 DUP3 PUSH2 0x3792 JUMP JUMPDEST PUSH1 0x20 DUP3 ADD SWAP1 POP SWAP2 SWAP1 POP JUMP JUMPDEST PUSH1 0x0 PUSH1 0x20 DUP3 ADD SWAP1 POP DUP2 DUP2 SUB PUSH1 0x0 DUP4 ADD MSTORE PUSH2 0x37F7 DUP2 PUSH2 0x37BB JUMP JUMPDEST SWAP1 POP SWAP2 SWAP1 POP JUMP INVALID LOG2 PUSH5 0x6970667358 0x22 SLT KECCAK256 BLOCKHASH BASEFEE 0xBF DUP4 GASPRICE 0xEB PUSH17 0x58F5864A85BE466091CC5938A7BD388AD2 0xAA PUSH3 0xD53025 0x24 0xDD CREATE2 PUSH5 0x736F6C6343 STOP ADDMOD EXP STOP CALLER "
				},
				"gasEstimates": {
					"creation": {
						"codeDepositCost": "2877600",
						"executionCost": "51730",
						"totalCost": "2929330"
					},
					"external": {
						"": "infinite",
						"activateSafeMode()": "28045",
						"batchFlushERC1155ForwarderTokens(address,address,uint256[])": "infinite",
						"flushERC1155ForwarderTokens(address,address,uint256)": "infinite",
						"flushERC721ForwarderTokens(address,address,uint256)": "infinite",
						"flushForwarderTokens(address,address)": "infinite",
						"getNextSequenceId()": "infinite",
						"init(address[])": "infinite",
						"initialized()": "2608",
						"isSigner(address)": "2994",
						"onERC1155BatchReceived(address,address,uint256[],uint256[],bytes)": "infinite",
						"onERC1155Received(address,address,uint256,uint256,bytes)": "infinite",
						"onERC721Received(address,address,uint256,bytes)": "infinite",
						"safeMode()": "2538",
						"sendMultiSig(address,uint256,bytes,uint256,uint256,bytes)": "infinite",
						"sendMultiSigBatch(address[],uint256[],uint256,uint256,bytes)": "infinite",
						"sendMultiSigToken(address,uint256,address,uint256,uint256,bytes)": "infinite",
						"setAutoFlush1155(address,bool)": "infinite",
						"setAutoFlush721(address,bool)": "infinite",
						"signers(address)": "2934",
						"supportsInterface(bytes4)": "751"
					},
					"internal": {
						"batchTransfer(address[] calldata,uint256[] calldata)": "infinite",
						"getBatchNetworkId()": "infinite",
						"getNetworkId()": "infinite",
						"getTokenNetworkId()": "infinite",
						"recoverAddressFromSignature(bytes32,bytes memory)": "infinite",
						"tryInsertSequenceId(uint256)": "infinite",
						"verifyMultiSig(address,bytes32,bytes calldata,uint256,uint256)": "infinite"
					}
				},
				"methodIdentifiers": {
					"activateSafeMode()": "fc0f392d",
					"batchFlushERC1155ForwarderTokens(address,address,uint256[])": "34f94047",
					"flushERC1155ForwarderTokens(address,address,uint256)": "e6bd0aa4",
					"flushERC721ForwarderTokens(address,address,uint256)": "5a953d0a",
					"flushForwarderTokens(address,address)": "2da03409",
					"getNextSequenceId()": "a0b7967b",
					"init(address[])": "c6044c46",
					"initialized()": "158ef93e",
					"isSigner(address)": "7df73e27",
					"onERC1155BatchReceived(address,address,uint256[],uint256[],bytes)": "bc197c81",
					"onERC1155Received(address,address,uint256,uint256,bytes)": "f23a6e61",
					"onERC721Received(address,address,uint256,bytes)": "150b7a02",
					"safeMode()": "abe3219c",
					"sendMultiSig(address,uint256,bytes,uint256,uint256,bytes)": "39125215",
					"sendMultiSigBatch(address[],uint256[],uint256,uint256,bytes)": "ad3ad709",
					"sendMultiSigToken(address,uint256,address,uint256,uint256,bytes)": "0dcd7a6c",
					"setAutoFlush1155(address,bool)": "92467776",
					"setAutoFlush721(address,bool)": "c1378784",
					"signers(address)": "736c0d5b",
					"supportsInterface(bytes4)": "01ffc9a7"
				}
			},
			"storageLayout": {
				"storage": [
					{
						"astId": 770,
						"contract": "contracts/MultiSigWallet/WalletSimple.sol:WalletSimple",
						"label": "signers",
						"offset": 0,
						"slot": "0",
						"type": "t_mapping(t_address,t_bool)"
					},
					{
						"astId": 773,
						"contract": "contracts/MultiSigWallet/WalletSimple.sol:WalletSimple",
						"label": "safeMode",
						"offset": 0,
						"slot": "1",
						"type": "t_bool"
					},
					{
						"astId": 776,
						"contract": "contracts/MultiSigWallet/WalletSimple.sol:WalletSimple",
						"label": "initialized",
						"offset": 1,
						"slot": "1",
						"type": "t_bool"
					},
					{
						"astId": 786,
						"contract": "contracts/MultiSigWallet/WalletSimple.sol:WalletSimple",
						"label": "recentSequenceIds",
						"offset": 0,
						"slot": "2",
						"type": "t_array(t_uint256)10_storage"
					}
				],
				"types": {
					"t_address": {
						"encoding": "inplace",
						"label": "address",
						"numberOfBytes": "20"
					},
					"t_array(t_uint256)10_storage": {
						"base": "t_uint256",
						"encoding": "inplace",
						"label": "uint256[10]",
						"numberOfBytes": "320"
					},
					"t_bool": {
						"encoding": "inplace",
						"label": "bool",
						"numberOfBytes": "1"
					},
					"t_mapping(t_address,t_bool)": {
						"encoding": "mapping",
						"key": "t_address",
						"label": "mapping(address => bool)",
						"numberOfBytes": "32",
						"value": "t_bool"
					},
					"t_uint256": {
						"encoding": "inplace",
						"label": "uint256",
						"numberOfBytes": "32"
					}
				}
			},
			"userdoc": {
				"kind": "user",
				"methods": {
					"activateSafeMode()": {
						"notice": "Irrevocably puts contract into safe mode. When in this mode, transactions may only be sent to signing addresses."
					},
					"batchFlushERC1155ForwarderTokens(address,address,uint256[])": {
						"notice": "Execute a ERC1155 batch token flush from one of the forwarder addresses. This transfer needs only a single signature and can be done by any signer."
					},
					"flushERC1155ForwarderTokens(address,address,uint256)": {
						"notice": "Execute a ERC1155 token flush from one of the forwarder addresses. This transfer needs only a single signature and can be done by any signer."
					},
					"flushERC721ForwarderTokens(address,address,uint256)": {
						"notice": "Execute a ERC721 token flush from one of the forwarder addresses. This transfer needs only a single signature and can be done by any signer"
					},
					"flushForwarderTokens(address,address)": {
						"notice": "Execute a token flush from one of the forwarder addresses. This transfer needs only a single signature and can be done by any signer"
					},
					"getNextSequenceId()": {
						"notice": "Gets the next available sequence ID for signing when using executeAndConfirm returns the sequenceId one higher than the highest currently stored"
					},
					"init(address[])": {
						"notice": "Set up a simple multi-sig wallet by specifying the signers allowed to be used on this wallet. 2 signers will be required to send a transaction from this wallet. Note: The sender is NOT automatically added to the list of signers. Signers CANNOT be changed once they are set"
					},
					"isSigner(address)": {
						"notice": "Determine if an address is a signer on this wallet"
					},
					"onERC721Received(address,address,uint256,bytes)": {
						"notice": "ERC721 standard callback function for when a ERC721 is transfered."
					},
					"sendMultiSig(address,uint256,bytes,uint256,uint256,bytes)": {
						"notice": "Execute a multi-signature transaction from this wallet using 2 signers: one from msg.sender and the other from ecrecover. Sequence IDs are numbers starting from 1. They are used to prevent replay attacks and may not be repeated."
					},
					"sendMultiSigBatch(address[],uint256[],uint256,uint256,bytes)": {
						"notice": "Execute a batched multi-signature transaction from this wallet using 2 signers: one from msg.sender and the other from ecrecover. Sequence IDs are numbers starting from 1. They are used to prevent replay attacks and may not be repeated. The recipients and values to send are encoded in two arrays, where for index i, recipients[i] will be sent values[i]."
					},
					"sendMultiSigToken(address,uint256,address,uint256,uint256,bytes)": {
						"notice": "Execute a multi-signature token transfer from this wallet using 2 signers: one from msg.sender and the other from ecrecover. Sequence IDs are numbers starting from 1. They are used to prevent replay attacks and may not be repeated."
					},
					"setAutoFlush1155(address,bool)": {
						"notice": "Sets the autoflush 721 parameter on the forwarder."
					},
					"setAutoFlush721(address,bool)": {
						"notice": "Sets the autoflush 721 parameter on the forwarder."
					}
				},
				"notice": "WalletSimple ============ Basic multi-signer wallet designed for use in a co-signing environment where 2 signatures are required to move funds. Typically used in a 2-of-3 signing configuration. Uses ecrecover to allow for 2 signatures in a single transaction. The first signature is created on the operation hash (see Data Formats) and passed to sendMultiSig/sendMultiSigToken The signer is determined by verifyMultiSig(). The second signature is created by the submitter of the transaction and determined by msg.signer. Data Formats ============ The signature is created with ethereumjs-util.ecsign(operationHash). Like the eth_sign RPC call, it packs the values as a 65-byte array of [r, s, v]. Unlike eth_sign, the message is not prefixed. The operationHash the result of keccak256(prefix, toAddress, value, data, expireTime). For ether transactions, `prefix` is \"ETHER\". For token transaction, `prefix` is \"ERC20\" and `data` is the tokenContractAddress.",
				"version": 1
			}
		}
	}
}