{
	"contracts/MultiSig Wallet/Forwarder.sol": {
		"Forwarder": {
			"abi": [
				{
					"anonymous": false,
					"inputs": [
						{
							"indexed": false,
							"internalType": "address",
							"name": "from",
							"type": "address"
						},
						{
							"indexed": false,
							"internalType": "uint256",
							"name": "value",
							"type": "uint256"
						},
						{
							"indexed": false,
							"internalType": "bytes",
							"name": "data",
							"type": "bytes"
						}
					],
					"name": "ForwarderDeposited",
					"type": "event"
				},
				{
					"stateMutability": "payable",
					"type": "fallback"
				},
				{
					"inputs": [],
					"name": "autoFlush1155",
					"outputs": [
						{
							"internalType": "bool",
							"name": "",
							"type": "bool"
						}
					],
					"stateMutability": "view",
					"type": "function"
				},
				{
					"inputs": [],
					"name": "autoFlush721",
					"outputs": [
						{
							"internalType": "bool",
							"name": "",
							"type": "bool"
						}
					],
					"stateMutability": "view",
					"type": "function"
				},
				{
					"inputs": [
						{
							"internalType": "address",
							"name": "tokenContractAddress",
							"type": "address"
						},
						{
							"internalType": "uint256[]",
							"name": "tokenIds",
							"type": "uint256[]"
						}
					],
					"name": "batchFlushERC1155Tokens",
					"outputs": [],
					"stateMutability": "nonpayable",
					"type": "function"
				},
				{
					"inputs": [
						{
							"internalType": "address",
							"name": "target",
							"type": "address"
						},
						{
							"internalType": "uint256",
							"name": "value",
							"type": "uint256"
						},
						{
							"internalType": "bytes",
							"name": "data",
							"type": "bytes"
						}
					],
					"name": "callFromParent",
					"outputs": [
						{
							"internalType": "bytes",
							"name": "",
							"type": "bytes"
						}
					],
					"stateMutability": "nonpayable",
					"type": "function"
				},
				{
					"inputs": [],
					"name": "flush",
					"outputs": [],
					"stateMutability": "nonpayable",
					"type": "function"
				},
				{
					"inputs": [
						{
							"internalType": "address",
							"name": "tokenContractAddress",
							"type": "address"
						},
						{
							"internalType": "uint256",
							"name": "tokenId",
							"type": "uint256"
						}
					],
					"name": "flushERC1155Tokens",
					"outputs": [],
					"stateMutability": "nonpayable",
					"type": "function"
				},
				{
					"inputs": [
						{
							"internalType": "address",
							"name": "tokenContractAddress",
							"type": "address"
						},
						{
							"internalType": "uint256",
							"name": "tokenId",
							"type": "uint256"
						}
					],
					"name": "flushERC721Token",
					"outputs": [],
					"stateMutability": "nonpayable",
					"type": "function"
				},
				{
					"inputs": [
						{
							"internalType": "address",
							"name": "tokenContractAddress",
							"type": "address"
						}
					],
					"name": "flushTokens",
					"outputs": [],
					"stateMutability": "nonpayable",
					"type": "function"
				},
				{
					"inputs": [
						{
							"internalType": "address",
							"name": "_parentAddress",
							"type": "address"
						},
						{
							"internalType": "bool",
							"name": "_autoFlush721",
							"type": "bool"
						},
						{
							"internalType": "bool",
							"name": "_autoFlush1155",
							"type": "bool"
						}
					],
					"name": "init",
					"outputs": [],
					"stateMutability": "nonpayable",
					"type": "function"
				},
				{
					"inputs": [
						{
							"internalType": "address",
							"name": "_operator",
							"type": "address"
						},
						{
							"internalType": "address",
							"name": "_from",
							"type": "address"
						},
						{
							"internalType": "uint256[]",
							"name": "ids",
							"type": "uint256[]"
						},
						{
							"internalType": "uint256[]",
							"name": "values",
							"type": "uint256[]"
						},
						{
							"internalType": "bytes",
							"name": "data",
							"type": "bytes"
						}
					],
					"name": "onERC1155BatchReceived",
					"outputs": [
						{
							"internalType": "bytes4",
							"name": "",
							"type": "bytes4"
						}
					],
					"stateMutability": "nonpayable",
					"type": "function"
				},
				{
					"inputs": [
						{
							"internalType": "address",
							"name": "_operator",
							"type": "address"
						},
						{
							"internalType": "address",
							"name": "_from",
							"type": "address"
						},
						{
							"internalType": "uint256",
							"name": "id",
							"type": "uint256"
						},
						{
							"internalType": "uint256",
							"name": "value",
							"type": "uint256"
						},
						{
							"internalType": "bytes",
							"name": "data",
							"type": "bytes"
						}
					],
					"name": "onERC1155Received",
					"outputs": [
						{
							"internalType": "bytes4",
							"name": "",
							"type": "bytes4"
						}
					],
					"stateMutability": "nonpayable",
					"type": "function"
				},
				{
					"inputs": [
						{
							"internalType": "address",
							"name": "_operator",
							"type": "address"
						},
						{
							"internalType": "address",
							"name": "_from",
							"type": "address"
						},
						{
							"internalType": "uint256",
							"name": "_tokenId",
							"type": "uint256"
						},
						{
							"internalType": "bytes",
							"name": "data",
							"type": "bytes"
						}
					],
					"name": "onERC721Received",
					"outputs": [
						{
							"internalType": "bytes4",
							"name": "",
							"type": "bytes4"
						}
					],
					"stateMutability": "nonpayable",
					"type": "function"
				},
				{
					"inputs": [],
					"name": "parentAddress",
					"outputs": [
						{
							"internalType": "address",
							"name": "",
							"type": "address"
						}
					],
					"stateMutability": "view",
					"type": "function"
				},
				{
					"inputs": [
						{
							"internalType": "bool",
							"name": "autoFlush",
							"type": "bool"
						}
					],
					"name": "setAutoFlush1155",
					"outputs": [],
					"stateMutability": "nonpayable",
					"type": "function"
				},
				{
					"inputs": [
						{
							"internalType": "bool",
							"name": "autoFlush",
							"type": "bool"
						}
					],
					"name": "setAutoFlush721",
					"outputs": [],
					"stateMutability": "nonpayable",
					"type": "function"
				},
				{
					"inputs": [
						{
							"internalType": "bytes4",
							"name": "interfaceId",
							"type": "bytes4"
						}
					],
					"name": "supportsInterface",
					"outputs": [
						{
							"internalType": "bool",
							"name": "",
							"type": "bool"
						}
					],
					"stateMutability": "view",
					"type": "function"
				},
				{
					"stateMutability": "payable",
					"type": "receive"
				}
			],
			"devdoc": {
				"kind": "dev",
				"methods": {
					"batchFlushERC1155Tokens(address,uint256[])": {
						"params": {
							"tokenContractAddress": "the address of the ERC1155 NFT contract",
							"tokenIds": "The token ids of the nfts"
						}
					},
					"flushERC1155Tokens(address,uint256)": {
						"params": {
							"tokenContractAddress": "the address of the ERC1155 NFT contract",
							"tokenId": "The token id of the nft"
						}
					},
					"flushERC721Token(address,uint256)": {
						"params": {
							"tokenContractAddress": "the address of the ERC721 NFT contract",
							"tokenId": "The token id of the nft"
						}
					},
					"flushTokens(address)": {
						"params": {
							"tokenContractAddress": "the address of the erc20 token contract"
						}
					},
					"onERC1155BatchReceived(address,address,uint256[],uint256[],bytes)": {
						"details": "Handles the receipt of a multiple ERC1155 token types. This function is called at the end of a `safeBatchTransferFrom` after the balances have been updated. NOTE: To accept the transfer(s), this must return `bytes4(keccak256(\"onERC1155BatchReceived(address,address,uint256[],uint256[],bytes)\"))` (i.e. 0xbc197c81, or its own function selector).",
						"params": {
							"data": "Additional data with no specified format",
							"from": "The address which previously owned the token",
							"ids": "An array containing ids of each token being transferred (order and length must match values array)",
							"operator": "The address which initiated the batch transfer (i.e. msg.sender)",
							"values": "An array containing amounts of each token being transferred (order and length must match ids array)"
						},
						"returns": {
							"_0": "`bytes4(keccak256(\"onERC1155BatchReceived(address,address,uint256[],uint256[],bytes)\"))` if transfer is allowed"
						}
					},
					"onERC1155Received(address,address,uint256,uint256,bytes)": {
						"details": "Handles the receipt of a single ERC1155 token type. This function is called at the end of a `safeTransferFrom` after the balance has been updated. NOTE: To accept the transfer, this must return `bytes4(keccak256(\"onERC1155Received(address,address,uint256,uint256,bytes)\"))` (i.e. 0xf23a6e61, or its own function selector).",
						"params": {
							"data": "Additional data with no specified format",
							"from": "The address which previously owned the token",
							"id": "The ID of the token being transferred",
							"operator": "The address which initiated the transfer (i.e. msg.sender)",
							"value": "The amount of tokens being transferred"
						},
						"returns": {
							"_0": "`bytes4(keccak256(\"onERC1155Received(address,address,uint256,uint256,bytes)\"))` if transfer is allowed"
						}
					},
					"onERC721Received(address,address,uint256,bytes)": {
						"params": {
							"_from": "The address of the sender",
							"_operator": "The address which called `safeTransferFrom` function",
							"_tokenId": "The token id of the nft",
							"data": "Additional data with no specified format, sent in call to `_to`"
						}
					},
					"setAutoFlush1155(bool)": {
						"params": {
							"autoFlush": "whether to autoflush erc1155 tokens"
						}
					},
					"setAutoFlush721(bool)": {
						"params": {
							"autoFlush": "whether to autoflush erc721 tokens"
						}
					},
					"supportsInterface(bytes4)": {
						"details": "Returns true if this contract implements the interface defined by `interfaceId`. See the corresponding https://eips.ethereum.org/EIPS/eip-165#how-interfaces-are-identified[EIP section] to learn more about how these ids are created. This function call must use less than 30 000 gas."
					}
				},
				"version": 1
			},
			"evm": {
				"assembly": "    /* \"contracts/MultiSig Wallet/Forwarder.sol\":505:8424  contract Forwarder is IERC721Receiver, ERC1155Receiver, IForwarder {... */\n  mstore(0x40, 0x80)\n    /* \"contracts/MultiSig Wallet/Forwarder.sol\":707:711  true */\n  0x01\n    /* \"contracts/MultiSig Wallet/Forwarder.sol\":680:711  bool public autoFlush721 = true */\n  0x00\n  exp(0x0100, 0x14)\n  dup2\n  sload\n  dup2\n  0xff\n  mul\n  not\n  and\n  swap1\n  dup4\n  iszero\n  iszero\n  mul\n  or\n  swap1\n  sstore\n  pop\n    /* \"contracts/MultiSig Wallet/Forwarder.sol\":743:747  true */\n  0x01\n    /* \"contracts/MultiSig Wallet/Forwarder.sol\":715:747  bool public autoFlush1155 = true */\n  0x00\n  exp(0x0100, 0x15)\n  dup2\n  sload\n  dup2\n  0xff\n  mul\n  not\n  and\n  swap1\n  dup4\n  iszero\n  iszero\n  mul\n  or\n  swap1\n  sstore\n  pop\n    /* \"contracts/MultiSig Wallet/Forwarder.sol\":505:8424  contract Forwarder is IERC721Receiver, ERC1155Receiver, IForwarder {... */\n  callvalue\n  dup1\n  iszero\n  tag_1\n  jumpi\n  0x00\n  dup1\n  revert\ntag_1:\n  pop\n  dataSize(sub_0)\n  dup1\n  dataOffset(sub_0)\n  0x00\n  codecopy\n  0x00\n  return\nstop\n\nsub_0: assembly {\n        /* \"contracts/MultiSig Wallet/Forwarder.sol\":505:8424  contract Forwarder is IERC721Receiver, ERC1155Receiver, IForwarder {... */\n      mstore(0x40, 0x80)\n      jumpi(tag_1, lt(calldatasize, 0x04))\n      shr(0xe0, calldataload(0x00))\n      dup1\n      0x8acc01be\n      gt\n      tag_19\n      jumpi\n      dup1\n      0xc59f9f19\n      gt\n      tag_20\n      jumpi\n      dup1\n      0xc59f9f19\n      eq\n      tag_15\n      jumpi\n      dup1\n      0xc6a2dd24\n      eq\n      tag_16\n      jumpi\n      dup1\n      0xf23a6e61\n      eq\n      tag_17\n      jumpi\n      dup1\n      0xf684e1ed\n      eq\n      tag_18\n      jumpi\n      jump(tag_2)\n    tag_20:\n      dup1\n      0x8acc01be\n      eq\n      tag_11\n      jumpi\n      dup1\n      0xbad23ab9\n      eq\n      tag_12\n      jumpi\n      dup1\n      0xbc197c81\n      eq\n      tag_13\n      jumpi\n      dup1\n      0xbee3e676\n      eq\n      tag_14\n      jumpi\n      jump(tag_2)\n    tag_19:\n      dup1\n      0x3ef13367\n      gt\n      tag_21\n      jumpi\n      dup1\n      0x3ef13367\n      eq\n      tag_7\n      jumpi\n      dup1\n      0x6b9f96ea\n      eq\n      tag_8\n      jumpi\n      dup1\n      0x77e60b35\n      eq\n      tag_9\n      jumpi\n      dup1\n      0x8972c17c\n      eq\n      tag_10\n      jumpi\n      jump(tag_2)\n    tag_21:\n      dup1\n      0x821de3\n      eq\n      tag_3\n      jumpi\n      dup1\n      0x01ffc9a7\n      eq\n      tag_4\n      jumpi\n      dup1\n      0x150b7a02\n      eq\n      tag_5\n      jumpi\n      dup1\n      0x159e44d7\n      eq\n      tag_6\n      jumpi\n      jump(tag_2)\n    tag_1:\n      jumpi(tag_2, calldatasize)\n        /* \"contracts/MultiSig Wallet/Forwarder.sol\":2432:2439  flush() */\n      tag_24\n        /* \"contracts/MultiSig Wallet/Forwarder.sol\":2432:2437  flush */\n      tag_25\n        /* \"contracts/MultiSig Wallet/Forwarder.sol\":2432:2439  flush() */\n      jump\t// in\n    tag_24:\n        /* \"contracts/MultiSig Wallet/Forwarder.sol\":505:8424  contract Forwarder is IERC721Receiver, ERC1155Receiver, IForwarder {... */\n      stop\n    tag_2:\n        /* \"contracts/MultiSig Wallet/Forwarder.sol\":2260:2267  flush() */\n      tag_28\n        /* \"contracts/MultiSig Wallet/Forwarder.sol\":2260:2265  flush */\n      tag_25\n        /* \"contracts/MultiSig Wallet/Forwarder.sol\":2260:2267  flush() */\n      jump\t// in\n    tag_28:\n        /* \"contracts/MultiSig Wallet/Forwarder.sol\":505:8424  contract Forwarder is IERC721Receiver, ERC1155Receiver, IForwarder {... */\n      stop\n        /* \"contracts/MultiSig Wallet/Forwarder.sol\":648:676  address public parentAddress */\n    tag_3:\n      callvalue\n      dup1\n      iszero\n      tag_29\n      jumpi\n      0x00\n      dup1\n      revert\n    tag_29:\n      pop\n      tag_30\n      tag_31\n      jump\t// in\n    tag_30:\n      mload(0x40)\n      tag_32\n      swap2\n      swap1\n      tag_33\n      jump\t// in\n    tag_32:\n      mload(0x40)\n      dup1\n      swap2\n      sub\n      swap1\n      return\n        /* \"contracts/MultiSig Wallet/Forwarder.sol\":8170:8422  function supportsInterface(bytes4 interfaceId)... */\n    tag_4:\n      callvalue\n      dup1\n      iszero\n      tag_34\n      jumpi\n      0x00\n      dup1\n      revert\n    tag_34:\n      pop\n      tag_35\n      0x04\n      dup1\n      calldatasize\n      sub\n      dup2\n      add\n      swap1\n      tag_36\n      swap2\n      swap1\n      tag_37\n      jump\t// in\n    tag_36:\n      tag_38\n      jump\t// in\n    tag_35:\n      mload(0x40)\n      tag_39\n      swap2\n      swap1\n      tag_40\n      jump\t// in\n    tag_39:\n      mload(0x40)\n      dup1\n      swap2\n      sub\n      swap1\n      return\n        /* \"contracts/MultiSig Wallet/Forwarder.sol\":3259:3817  function onERC721Received(... */\n    tag_5:\n      callvalue\n      dup1\n      iszero\n      tag_41\n      jumpi\n      0x00\n      dup1\n      revert\n    tag_41:\n      pop\n      tag_42\n      0x04\n      dup1\n      calldatasize\n      sub\n      dup2\n      add\n      swap1\n      tag_43\n      swap2\n      swap1\n      tag_44\n      jump\t// in\n    tag_43:\n      tag_45\n      jump\t// in\n    tag_42:\n      mload(0x40)\n      tag_46\n      swap2\n      swap1\n      tag_47\n      jump\t// in\n    tag_46:\n      mload(0x40)\n      dup1\n      swap2\n      sub\n      swap1\n      return\n        /* \"contracts/MultiSig Wallet/Forwarder.sol\":5923:6382  function flushERC721Token(address tokenContractAddress, uint256 tokenId)... */\n    tag_6:\n      callvalue\n      dup1\n      iszero\n      tag_48\n      jumpi\n      0x00\n      dup1\n      revert\n    tag_48:\n      pop\n      tag_49\n      0x04\n      dup1\n      calldatasize\n      sub\n      dup2\n      add\n      swap1\n      tag_50\n      swap2\n      swap1\n      tag_51\n      jump\t// in\n    tag_50:\n      tag_52\n      jump\t// in\n    tag_49:\n      stop\n        /* \"contracts/MultiSig Wallet/Forwarder.sol\":5419:5879  function flushTokens(address tokenContractAddress)... */\n    tag_7:\n      callvalue\n      dup1\n      iszero\n      tag_53\n      jumpi\n      0x00\n      dup1\n      revert\n    tag_53:\n      pop\n      tag_54\n      0x04\n      dup1\n      calldatasize\n      sub\n      dup2\n      add\n      swap1\n      tag_55\n      swap2\n      swap1\n      tag_56\n      jump\t// in\n    tag_55:\n      tag_57\n      jump\t// in\n    tag_54:\n      stop\n        /* \"contracts/MultiSig Wallet/Forwarder.sol\":7854:8129  function flush() public {... */\n    tag_8:\n      callvalue\n      dup1\n      iszero\n      tag_58\n      jumpi\n      0x00\n      dup1\n      revert\n    tag_58:\n      pop\n      tag_59\n      tag_25\n      jump\t// in\n    tag_59:\n      stop\n        /* \"contracts/MultiSig Wallet/Forwarder.sol\":3821:4136  function callFromParent(... */\n    tag_9:\n      callvalue\n      dup1\n      iszero\n      tag_60\n      jumpi\n      0x00\n      dup1\n      revert\n    tag_60:\n      pop\n      tag_61\n      0x04\n      dup1\n      calldatasize\n      sub\n      dup2\n      add\n      swap1\n      tag_62\n      swap2\n      swap1\n      tag_63\n      jump\t// in\n    tag_62:\n      tag_64\n      jump\t// in\n    tag_61:\n      mload(0x40)\n      tag_65\n      swap2\n      swap1\n      tag_66\n      jump\t// in\n    tag_65:\n      mload(0x40)\n      dup1\n      swap2\n      sub\n      swap1\n      return\n        /* \"contracts/MultiSig Wallet/Forwarder.sol\":6426:7015  function flushERC1155Tokens(address tokenContractAddress, uint256 tokenId)... */\n    tag_10:\n      callvalue\n      dup1\n      iszero\n      tag_67\n      jumpi\n      0x00\n      dup1\n      revert\n    tag_67:\n      pop\n      tag_68\n      0x04\n      dup1\n      calldatasize\n      sub\n      dup2\n      add\n      swap1\n      tag_69\n      swap2\n      swap1\n      tag_51\n      jump\t// in\n    tag_69:\n      tag_70\n      jump\t// in\n    tag_68:\n      stop\n        /* \"contracts/MultiSig Wallet/Forwarder.sol\":2663:2796  function setAutoFlush1155(bool autoFlush)... */\n    tag_11:\n      callvalue\n      dup1\n      iszero\n      tag_71\n      jumpi\n      0x00\n      dup1\n      revert\n    tag_71:\n      pop\n      tag_72\n      0x04\n      dup1\n      calldatasize\n      sub\n      dup2\n      add\n      swap1\n      tag_73\n      swap2\n      swap1\n      tag_74\n      jump\t// in\n    tag_73:\n      tag_75\n      jump\t// in\n    tag_72:\n      stop\n        /* \"contracts/MultiSig Wallet/Forwarder.sol\":715:747  bool public autoFlush1155 = true */\n    tag_12:\n      callvalue\n      dup1\n      iszero\n      tag_76\n      jumpi\n      0x00\n      dup1\n      revert\n    tag_76:\n      pop\n      tag_77\n      tag_78\n      jump\t// in\n    tag_77:\n      mload(0x40)\n      tag_79\n      swap2\n      swap1\n      tag_40\n      jump\t// in\n    tag_79:\n      mload(0x40)\n      dup1\n      swap2\n      sub\n      swap1\n      return\n        /* \"contracts/MultiSig Wallet/Forwarder.sol\":4761:5375  function onERC1155BatchReceived(... */\n    tag_13:\n      callvalue\n      dup1\n      iszero\n      tag_80\n      jumpi\n      0x00\n      dup1\n      revert\n    tag_80:\n      pop\n      tag_81\n      0x04\n      dup1\n      calldatasize\n      sub\n      dup2\n      add\n      swap1\n      tag_82\n      swap2\n      swap1\n      tag_83\n      jump\t// in\n    tag_82:\n      tag_84\n      jump\t// in\n    tag_81:\n      mload(0x40)\n      tag_85\n      swap2\n      swap1\n      tag_47\n      jump\t// in\n    tag_85:\n      mload(0x40)\n      dup1\n      swap2\n      sub\n      swap1\n      return\n        /* \"contracts/MultiSig Wallet/Forwarder.sol\":920:1697  function init(... */\n    tag_14:\n      callvalue\n      dup1\n      iszero\n      tag_86\n      jumpi\n      0x00\n      dup1\n      revert\n    tag_86:\n      pop\n      tag_87\n      0x04\n      dup1\n      calldatasize\n      sub\n      dup2\n      add\n      swap1\n      tag_88\n      swap2\n      swap1\n      tag_89\n      jump\t// in\n    tag_88:\n      tag_90\n      jump\t// in\n    tag_87:\n      stop\n        /* \"contracts/MultiSig Wallet/Forwarder.sol\":2488:2619  function setAutoFlush721(bool autoFlush)... */\n    tag_15:\n      callvalue\n      dup1\n      iszero\n      tag_91\n      jumpi\n      0x00\n      dup1\n      revert\n    tag_91:\n      pop\n      tag_92\n      0x04\n      dup1\n      calldatasize\n      sub\n      dup2\n      add\n      swap1\n      tag_93\n      swap2\n      swap1\n      tag_74\n      jump\t// in\n    tag_93:\n      tag_94\n      jump\t// in\n    tag_92:\n      stop\n        /* \"contracts/MultiSig Wallet/Forwarder.sol\":7059:7769  function batchFlushERC1155Tokens(... */\n    tag_16:\n      callvalue\n      dup1\n      iszero\n      tag_95\n      jumpi\n      0x00\n      dup1\n      revert\n    tag_95:\n      pop\n      tag_96\n      0x04\n      dup1\n      calldatasize\n      sub\n      dup2\n      add\n      swap1\n      tag_97\n      swap2\n      swap1\n      tag_98\n      jump\t// in\n    tag_97:\n      tag_99\n      jump\t// in\n    tag_96:\n      stop\n        /* \"contracts/MultiSig Wallet/Forwarder.sol\":4186:4711  function onERC1155Received(... */\n    tag_17:\n      callvalue\n      dup1\n      iszero\n      tag_100\n      jumpi\n      0x00\n      dup1\n      revert\n    tag_100:\n      pop\n      tag_101\n      0x04\n      dup1\n      calldatasize\n      sub\n      dup2\n      add\n      swap1\n      tag_102\n      swap2\n      swap1\n      tag_103\n      jump\t// in\n    tag_102:\n      tag_104\n      jump\t// in\n    tag_101:\n      mload(0x40)\n      tag_105\n      swap2\n      swap1\n      tag_47\n      jump\t// in\n    tag_105:\n      mload(0x40)\n      dup1\n      swap2\n      sub\n      swap1\n      return\n        /* \"contracts/MultiSig Wallet/Forwarder.sol\":680:711  bool public autoFlush721 = true */\n    tag_18:\n      callvalue\n      dup1\n      iszero\n      tag_106\n      jumpi\n      0x00\n      dup1\n      revert\n    tag_106:\n      pop\n      tag_107\n      tag_108\n      jump\t// in\n    tag_107:\n      mload(0x40)\n      tag_109\n      swap2\n      swap1\n      tag_40\n      jump\t// in\n    tag_109:\n      mload(0x40)\n      dup1\n      swap2\n      sub\n      swap1\n      return\n        /* \"contracts/MultiSig Wallet/Forwarder.sol\":7854:8129  function flush() public {... */\n    tag_25:\n        /* \"contracts/MultiSig Wallet/Forwarder.sol\":7884:7897  uint256 value */\n      0x00\n        /* \"contracts/MultiSig Wallet/Forwarder.sol\":7900:7921  address(this).balance */\n      selfbalance\n        /* \"contracts/MultiSig Wallet/Forwarder.sol\":7884:7921  uint256 value = address(this).balance */\n      swap1\n      pop\n        /* \"contracts/MultiSig Wallet/Forwarder.sol\":7941:7942  0 */\n      0x00\n        /* \"contracts/MultiSig Wallet/Forwarder.sol\":7932:7937  value */\n      dup2\n        /* \"contracts/MultiSig Wallet/Forwarder.sol\":7932:7942  value == 0 */\n      eq\n        /* \"contracts/MultiSig Wallet/Forwarder.sol\":7928:7965  if (value == 0) {... */\n      iszero\n      tag_111\n      jumpi\n        /* \"contracts/MultiSig Wallet/Forwarder.sol\":7952:7959  return; */\n      pop\n      jump(tag_110)\n        /* \"contracts/MultiSig Wallet/Forwarder.sol\":7928:7965  if (value == 0) {... */\n    tag_111:\n        /* \"contracts/MultiSig Wallet/Forwarder.sol\":7972:7984  bool success */\n      0x00\n        /* \"contracts/MultiSig Wallet/Forwarder.sol\":7990:8003  parentAddress */\n      dup1\n      0x00\n      swap1\n      sload\n      swap1\n      0x0100\n      exp\n      swap1\n      div\n      0xffffffffffffffffffffffffffffffffffffffff\n      and\n        /* \"contracts/MultiSig Wallet/Forwarder.sol\":7990:8008  parentAddress.call */\n      0xffffffffffffffffffffffffffffffffffffffff\n      and\n        /* \"contracts/MultiSig Wallet/Forwarder.sol\":8017:8022  value */\n      dup3\n        /* \"contracts/MultiSig Wallet/Forwarder.sol\":7990:8028  parentAddress.call{ value: value }('') */\n      mload(0x40)\n      tag_112\n      swap1\n      tag_113\n      jump\t// in\n    tag_112:\n      0x00\n      mload(0x40)\n      dup1\n      dup4\n      sub\n      dup2\n      dup6\n      dup8\n      gas\n      call\n      swap3\n      pop\n      pop\n      pop\n      returndatasize\n      dup1\n      0x00\n      dup2\n      eq\n      tag_116\n      jumpi\n      mload(0x40)\n      swap2\n      pop\n      and(add(returndatasize, 0x3f), not(0x1f))\n      dup3\n      add\n      0x40\n      mstore\n      returndatasize\n      dup3\n      mstore\n      returndatasize\n      0x00\n      0x20\n      dup5\n      add\n      returndatacopy\n      jump(tag_115)\n    tag_116:\n      0x60\n      swap2\n      pop\n    tag_115:\n      pop\n        /* \"contracts/MultiSig Wallet/Forwarder.sol\":7971:8028  (bool success, ) = parentAddress.call{ value: value }('') */\n      pop\n      swap1\n      pop\n        /* \"contracts/MultiSig Wallet/Forwarder.sol\":8042:8049  success */\n      dup1\n        /* \"contracts/MultiSig Wallet/Forwarder.sol\":8034:8066  require(success, 'Flush failed') */\n      tag_117\n      jumpi\n      mload(0x40)\n      0x08c379a000000000000000000000000000000000000000000000000000000000\n      dup2\n      mstore\n      0x04\n      add\n      tag_118\n      swap1\n      tag_119\n      jump\t// in\n    tag_118:\n      mload(0x40)\n      dup1\n      swap2\n      sub\n      swap1\n      revert\n    tag_117:\n        /* \"contracts/MultiSig Wallet/Forwarder.sol\":8077:8124  ForwarderDeposited(msg.sender, value, msg.data) */\n      0x69b31548dea9b3b707b4dff357d326e3e9348b24e7a6080a218a6edeeec48f9b\n        /* \"contracts/MultiSig Wallet/Forwarder.sol\":8096:8106  msg.sender */\n      caller\n        /* \"contracts/MultiSig Wallet/Forwarder.sol\":8108:8113  value */\n      dup4\n        /* \"contracts/MultiSig Wallet/Forwarder.sol\":8115:8123  msg.data */\n      0x00\n      calldatasize\n        /* \"contracts/MultiSig Wallet/Forwarder.sol\":8077:8124  ForwarderDeposited(msg.sender, value, msg.data) */\n      mload(0x40)\n      tag_120\n      swap5\n      swap4\n      swap3\n      swap2\n      swap1\n      tag_121\n      jump\t// in\n    tag_120:\n      mload(0x40)\n      dup1\n      swap2\n      sub\n      swap1\n      log1\n        /* \"contracts/MultiSig Wallet/Forwarder.sol\":7878:8129  {... */\n      pop\n      pop\n        /* \"contracts/MultiSig Wallet/Forwarder.sol\":7854:8129  function flush() public {... */\n    tag_110:\n      jump\t// out\n        /* \"contracts/MultiSig Wallet/Forwarder.sol\":648:676  address public parentAddress */\n    tag_31:\n      0x00\n      dup1\n      sload\n      swap1\n      0x0100\n      exp\n      swap1\n      div\n      0xffffffffffffffffffffffffffffffffffffffff\n      and\n      dup2\n      jump\t// out\n        /* \"contracts/MultiSig Wallet/Forwarder.sol\":8170:8422  function supportsInterface(bytes4 interfaceId)... */\n    tag_38:\n        /* \"contracts/MultiSig Wallet/Forwarder.sol\":8301:8305  bool */\n      0x00\n        /* \"contracts/MultiSig Wallet/Forwarder.sol\":8343:8371  type(IForwarder).interfaceId */\n      0x2becf54f00000000000000000000000000000000000000000000000000000000\n        /* \"contracts/MultiSig Wallet/Forwarder.sol\":8328:8371  interfaceId == type(IForwarder).interfaceId */\n      not(0xffffffffffffffffffffffffffffffffffffffffffffffffffffffff)\n      and\n        /* \"contracts/MultiSig Wallet/Forwarder.sol\":8328:8339  interfaceId */\n      dup3\n        /* \"contracts/MultiSig Wallet/Forwarder.sol\":8328:8371  interfaceId == type(IForwarder).interfaceId */\n      not(0xffffffffffffffffffffffffffffffffffffffffffffffffffffffff)\n      and\n      eq\n        /* \"contracts/MultiSig Wallet/Forwarder.sol\":8328:8417  interfaceId == type(IForwarder).interfaceId ||... */\n      dup1\n      tag_123\n      jumpi\n      pop\n        /* \"contracts/MultiSig Wallet/Forwarder.sol\":8381:8417  super.supportsInterface(interfaceId) */\n      tag_124\n        /* \"contracts/MultiSig Wallet/Forwarder.sol\":8405:8416  interfaceId */\n      dup3\n        /* \"contracts/MultiSig Wallet/Forwarder.sol\":8381:8404  super.supportsInterface */\n      tag_125\n        /* \"contracts/MultiSig Wallet/Forwarder.sol\":8381:8417  super.supportsInterface(interfaceId) */\n      jump\t// in\n    tag_124:\n        /* \"contracts/MultiSig Wallet/Forwarder.sol\":8328:8417  interfaceId == type(IForwarder).interfaceId ||... */\n    tag_123:\n        /* \"contracts/MultiSig Wallet/Forwarder.sol\":8315:8417  return... */\n      swap1\n      pop\n        /* \"contracts/MultiSig Wallet/Forwarder.sol\":8170:8422  function supportsInterface(bytes4 interfaceId)... */\n      swap2\n      swap1\n      pop\n      jump\t// out\n        /* \"contracts/MultiSig Wallet/Forwarder.sol\":3259:3817  function onERC721Received(... */\n    tag_45:\n        /* \"contracts/MultiSig Wallet/Forwarder.sol\":3411:3417  bytes4 */\n      0x00\n        /* \"contracts/MultiSig Wallet/Forwarder.sol\":3429:3441  autoFlush721 */\n      dup1\n      0x14\n      swap1\n      sload\n      swap1\n      0x0100\n      exp\n      swap1\n      div\n      0xff\n      and\n        /* \"contracts/MultiSig Wallet/Forwarder.sol\":3425:3769  if (autoFlush721) {... */\n      iszero\n      tag_127\n      jumpi\n        /* \"contracts/MultiSig Wallet/Forwarder.sol\":3451:3467  IERC721 instance */\n      0x00\n        /* \"contracts/MultiSig Wallet/Forwarder.sol\":3478:3488  msg.sender */\n      caller\n        /* \"contracts/MultiSig Wallet/Forwarder.sol\":3451:3489  IERC721 instance = IERC721(msg.sender) */\n      swap1\n      pop\n        /* \"contracts/MultiSig Wallet/Forwarder.sol\":3514:3522  instance */\n      dup1\n        /* \"contracts/MultiSig Wallet/Forwarder.sol\":3514:3540  instance.supportsInterface */\n      0xffffffffffffffffffffffffffffffffffffffff\n      and\n      0x01ffc9a7\n        /* \"contracts/MultiSig Wallet/Forwarder.sol\":3541:3566  type(IERC721).interfaceId */\n      0x80ac58cd00000000000000000000000000000000000000000000000000000000\n        /* \"contracts/MultiSig Wallet/Forwarder.sol\":3514:3567  instance.supportsInterface(type(IERC721).interfaceId) */\n      mload(0x40)\n      dup3\n      0xffffffff\n      and\n      0xe0\n      shl\n      dup2\n      mstore\n      0x04\n      add\n      tag_128\n      swap2\n      swap1\n      tag_47\n      jump\t// in\n    tag_128:\n      0x20\n      mload(0x40)\n      dup1\n      dup4\n      sub\n      dup2\n      dup7\n      gas\n      staticcall\n      iszero\n      dup1\n      iszero\n      tag_130\n      jumpi\n      returndatasize\n      0x00\n      dup1\n      returndatacopy\n      revert(0x00, returndatasize)\n    tag_130:\n      pop\n      pop\n      pop\n      pop\n      mload(0x40)\n      returndatasize\n      not(0x1f)\n      0x1f\n      dup3\n      add\n      and\n      dup3\n      add\n      dup1\n      0x40\n      mstore\n      pop\n      dup2\n      add\n      swap1\n      tag_131\n      swap2\n      swap1\n      tag_132\n      jump\t// in\n    tag_131:\n        /* \"contracts/MultiSig Wallet/Forwarder.sol\":3497:3635  require(... */\n      tag_133\n      jumpi\n      mload(0x40)\n      0x08c379a000000000000000000000000000000000000000000000000000000000\n      dup2\n      mstore\n      0x04\n      add\n      tag_134\n      swap1\n      tag_135\n      jump\t// in\n    tag_134:\n      mload(0x40)\n      dup1\n      swap2\n      sub\n      swap1\n      revert\n    tag_133:\n        /* \"contracts/MultiSig Wallet/Forwarder.sol\":3691:3699  instance */\n      dup1\n        /* \"contracts/MultiSig Wallet/Forwarder.sol\":3691:3716  instance.safeTransferFrom */\n      0xffffffffffffffffffffffffffffffffffffffff\n      and\n      0xb88d4fde\n        /* \"contracts/MultiSig Wallet/Forwarder.sol\":3725:3729  this */\n      address\n        /* \"contracts/MultiSig Wallet/Forwarder.sol\":3732:3745  parentAddress */\n      0x00\n      dup1\n      sload\n      swap1\n      0x0100\n      exp\n      swap1\n      div\n      0xffffffffffffffffffffffffffffffffffffffff\n      and\n        /* \"contracts/MultiSig Wallet/Forwarder.sol\":3747:3755  _tokenId */\n      dup8\n        /* \"contracts/MultiSig Wallet/Forwarder.sol\":3757:3761  data */\n      dup8\n        /* \"contracts/MultiSig Wallet/Forwarder.sol\":3691:3762  instance.safeTransferFrom(address(this), parentAddress, _tokenId, data) */\n      mload(0x40)\n      dup6\n      0xffffffff\n      and\n      0xe0\n      shl\n      dup2\n      mstore\n      0x04\n      add\n      tag_136\n      swap5\n      swap4\n      swap3\n      swap2\n      swap1\n      tag_137\n      jump\t// in\n    tag_136:\n      0x00\n      mload(0x40)\n      dup1\n      dup4\n      sub\n      dup2\n      0x00\n      dup8\n      dup1\n      extcodesize\n      iszero\n      dup1\n      iszero\n      tag_138\n      jumpi\n      0x00\n      dup1\n      revert\n    tag_138:\n      pop\n      gas\n      call\n      iszero\n      dup1\n      iszero\n      tag_140\n      jumpi\n      returndatasize\n      0x00\n      dup1\n      returndatacopy\n      revert(0x00, returndatasize)\n    tag_140:\n      pop\n      pop\n      pop\n      pop\n        /* \"contracts/MultiSig Wallet/Forwarder.sol\":3443:3769  {... */\n      pop\n        /* \"contracts/MultiSig Wallet/Forwarder.sol\":3425:3769  if (autoFlush721) {... */\n    tag_127:\n        /* \"contracts/MultiSig Wallet/Forwarder.sol\":3782:3812  this.onERC721Received.selector */\n      shl(0xe0, 0x150b7a02)\n        /* \"contracts/MultiSig Wallet/Forwarder.sol\":3775:3812  return this.onERC721Received.selector */\n      swap1\n      pop\n        /* \"contracts/MultiSig Wallet/Forwarder.sol\":3259:3817  function onERC721Received(... */\n      swap5\n      swap4\n      pop\n      pop\n      pop\n      pop\n      jump\t// out\n        /* \"contracts/MultiSig Wallet/Forwarder.sol\":5923:6382  function flushERC721Token(address tokenContractAddress, uint256 tokenId)... */\n    tag_52:\n        /* \"contracts/MultiSig Wallet/Forwarder.sol\":1854:1867  parentAddress */\n      0x00\n      dup1\n      sload\n      swap1\n      0x0100\n      exp\n      swap1\n      div\n      0xffffffffffffffffffffffffffffffffffffffff\n      and\n        /* \"contracts/MultiSig Wallet/Forwarder.sol\":1840:1867  msg.sender == parentAddress */\n      0xffffffffffffffffffffffffffffffffffffffff\n      and\n        /* \"contracts/MultiSig Wallet/Forwarder.sol\":1840:1850  msg.sender */\n      caller\n        /* \"contracts/MultiSig Wallet/Forwarder.sol\":1840:1867  msg.sender == parentAddress */\n      0xffffffffffffffffffffffffffffffffffffffff\n      and\n      eq\n        /* \"contracts/MultiSig Wallet/Forwarder.sol\":1832:1883  require(msg.sender == parentAddress, 'Only Parent') */\n      tag_142\n      jumpi\n      mload(0x40)\n      0x08c379a000000000000000000000000000000000000000000000000000000000\n      dup2\n      mstore\n      0x04\n      add\n      tag_143\n      swap1\n      tag_144\n      jump\t// in\n    tag_143:\n      mload(0x40)\n      dup1\n      swap2\n      sub\n      swap1\n      revert\n    tag_142:\n        /* \"contracts/MultiSig Wallet/Forwarder.sol\":6057:6073  IERC721 instance */\n      0x00\n        /* \"contracts/MultiSig Wallet/Forwarder.sol\":6084:6104  tokenContractAddress */\n      dup3\n        /* \"contracts/MultiSig Wallet/Forwarder.sol\":6057:6105  IERC721 instance = IERC721(tokenContractAddress) */\n      swap1\n      pop\n        /* \"contracts/MultiSig Wallet/Forwarder.sol\":6126:6134  instance */\n      dup1\n        /* \"contracts/MultiSig Wallet/Forwarder.sol\":6126:6152  instance.supportsInterface */\n      0xffffffffffffffffffffffffffffffffffffffff\n      and\n      0x01ffc9a7\n        /* \"contracts/MultiSig Wallet/Forwarder.sol\":6153:6178  type(IERC721).interfaceId */\n      0x80ac58cd00000000000000000000000000000000000000000000000000000000\n        /* \"contracts/MultiSig Wallet/Forwarder.sol\":6126:6179  instance.supportsInterface(type(IERC721).interfaceId) */\n      mload(0x40)\n      dup3\n      0xffffffff\n      and\n      0xe0\n      shl\n      dup2\n      mstore\n      0x04\n      add\n      tag_146\n      swap2\n      swap1\n      tag_47\n      jump\t// in\n    tag_146:\n      0x20\n      mload(0x40)\n      dup1\n      dup4\n      sub\n      dup2\n      dup7\n      gas\n      staticcall\n      iszero\n      dup1\n      iszero\n      tag_148\n      jumpi\n      returndatasize\n      0x00\n      dup1\n      returndatacopy\n      revert(0x00, returndatasize)\n    tag_148:\n      pop\n      pop\n      pop\n      pop\n      mload(0x40)\n      returndatasize\n      not(0x1f)\n      0x1f\n      dup3\n      add\n      and\n      dup3\n      add\n      dup1\n      0x40\n      mstore\n      pop\n      dup2\n      add\n      swap1\n      tag_149\n      swap2\n      swap1\n      tag_132\n      jump\t// in\n    tag_149:\n        /* \"contracts/MultiSig Wallet/Forwarder.sol\":6111:6257  require(... */\n      tag_150\n      jumpi\n      mload(0x40)\n      0x08c379a000000000000000000000000000000000000000000000000000000000\n      dup2\n      mstore\n      0x04\n      add\n      tag_151\n      swap1\n      tag_152\n      jump\t// in\n    tag_151:\n      mload(0x40)\n      dup1\n      swap2\n      sub\n      swap1\n      revert\n    tag_150:\n        /* \"contracts/MultiSig Wallet/Forwarder.sol\":6264:6284  address ownerAddress */\n      0x00\n        /* \"contracts/MultiSig Wallet/Forwarder.sol\":6287:6295  instance */\n      dup2\n        /* \"contracts/MultiSig Wallet/Forwarder.sol\":6287:6303  instance.ownerOf */\n      0xffffffffffffffffffffffffffffffffffffffff\n      and\n      0x6352211e\n        /* \"contracts/MultiSig Wallet/Forwarder.sol\":6304:6311  tokenId */\n      dup5\n        /* \"contracts/MultiSig Wallet/Forwarder.sol\":6287:6312  instance.ownerOf(tokenId) */\n      mload(0x40)\n      dup3\n      0xffffffff\n      and\n      0xe0\n      shl\n      dup2\n      mstore\n      0x04\n      add\n      tag_153\n      swap2\n      swap1\n      tag_154\n      jump\t// in\n    tag_153:\n      0x20\n      mload(0x40)\n      dup1\n      dup4\n      sub\n      dup2\n      dup7\n      gas\n      staticcall\n      iszero\n      dup1\n      iszero\n      tag_156\n      jumpi\n      returndatasize\n      0x00\n      dup1\n      returndatacopy\n      revert(0x00, returndatasize)\n    tag_156:\n      pop\n      pop\n      pop\n      pop\n      mload(0x40)\n      returndatasize\n      not(0x1f)\n      0x1f\n      dup3\n      add\n      and\n      dup3\n      add\n      dup1\n      0x40\n      mstore\n      pop\n      dup2\n      add\n      swap1\n      tag_157\n      swap2\n      swap1\n      tag_158\n      jump\t// in\n    tag_157:\n        /* \"contracts/MultiSig Wallet/Forwarder.sol\":6264:6312  address ownerAddress = instance.ownerOf(tokenId) */\n      swap1\n      pop\n        /* \"contracts/MultiSig Wallet/Forwarder.sol\":6318:6326  instance */\n      dup2\n        /* \"contracts/MultiSig Wallet/Forwarder.sol\":6318:6339  instance.transferFrom */\n      0xffffffffffffffffffffffffffffffffffffffff\n      and\n      0x23b872dd\n        /* \"contracts/MultiSig Wallet/Forwarder.sol\":6340:6352  ownerAddress */\n      dup3\n        /* \"contracts/MultiSig Wallet/Forwarder.sol\":6354:6367  parentAddress */\n      0x00\n      dup1\n      sload\n      swap1\n      0x0100\n      exp\n      swap1\n      div\n      0xffffffffffffffffffffffffffffffffffffffff\n      and\n        /* \"contracts/MultiSig Wallet/Forwarder.sol\":6369:6376  tokenId */\n      dup7\n        /* \"contracts/MultiSig Wallet/Forwarder.sol\":6318:6377  instance.transferFrom(ownerAddress, parentAddress, tokenId) */\n      mload(0x40)\n      dup5\n      0xffffffff\n      and\n      0xe0\n      shl\n      dup2\n      mstore\n      0x04\n      add\n      tag_159\n      swap4\n      swap3\n      swap2\n      swap1\n      tag_160\n      jump\t// in\n    tag_159:\n      0x00\n      mload(0x40)\n      dup1\n      dup4\n      sub\n      dup2\n      0x00\n      dup8\n      dup1\n      extcodesize\n      iszero\n      dup1\n      iszero\n      tag_161\n      jumpi\n      0x00\n      dup1\n      revert\n    tag_161:\n      pop\n      gas\n      call\n      iszero\n      dup1\n      iszero\n      tag_163\n      jumpi\n      returndatasize\n      0x00\n      dup1\n      returndatacopy\n      revert(0x00, returndatasize)\n    tag_163:\n      pop\n      pop\n      pop\n      pop\n        /* \"contracts/MultiSig Wallet/Forwarder.sol\":6051:6382  {... */\n      pop\n      pop\n        /* \"contracts/MultiSig Wallet/Forwarder.sol\":5923:6382  function flushERC721Token(address tokenContractAddress, uint256 tokenId)... */\n      pop\n      pop\n      jump\t// out\n        /* \"contracts/MultiSig Wallet/Forwarder.sol\":5419:5879  function flushTokens(address tokenContractAddress)... */\n    tag_57:\n        /* \"contracts/MultiSig Wallet/Forwarder.sol\":1854:1867  parentAddress */\n      0x00\n      dup1\n      sload\n      swap1\n      0x0100\n      exp\n      swap1\n      div\n      0xffffffffffffffffffffffffffffffffffffffff\n      and\n        /* \"contracts/MultiSig Wallet/Forwarder.sol\":1840:1867  msg.sender == parentAddress */\n      0xffffffffffffffffffffffffffffffffffffffff\n      and\n        /* \"contracts/MultiSig Wallet/Forwarder.sol\":1840:1850  msg.sender */\n      caller\n        /* \"contracts/MultiSig Wallet/Forwarder.sol\":1840:1867  msg.sender == parentAddress */\n      0xffffffffffffffffffffffffffffffffffffffff\n      and\n      eq\n        /* \"contracts/MultiSig Wallet/Forwarder.sol\":1832:1883  require(msg.sender == parentAddress, 'Only Parent') */\n      tag_165\n      jumpi\n      mload(0x40)\n      0x08c379a000000000000000000000000000000000000000000000000000000000\n      dup2\n      mstore\n      0x04\n      add\n      tag_166\n      swap1\n      tag_144\n      jump\t// in\n    tag_166:\n      mload(0x40)\n      dup1\n      swap2\n      sub\n      swap1\n      revert\n    tag_165:\n        /* \"contracts/MultiSig Wallet/Forwarder.sol\":5531:5554  ERC20Interface instance */\n      0x00\n        /* \"contracts/MultiSig Wallet/Forwarder.sol\":5572:5592  tokenContractAddress */\n      dup2\n        /* \"contracts/MultiSig Wallet/Forwarder.sol\":5531:5593  ERC20Interface instance = ERC20Interface(tokenContractAddress) */\n      swap1\n      pop\n        /* \"contracts/MultiSig Wallet/Forwarder.sol\":5599:5623  address forwarderAddress */\n      0x00\n        /* \"contracts/MultiSig Wallet/Forwarder.sol\":5634:5638  this */\n      address\n        /* \"contracts/MultiSig Wallet/Forwarder.sol\":5599:5639  address forwarderAddress = address(this) */\n      swap1\n      pop\n        /* \"contracts/MultiSig Wallet/Forwarder.sol\":5645:5669  uint256 forwarderBalance */\n      0x00\n        /* \"contracts/MultiSig Wallet/Forwarder.sol\":5672:5680  instance */\n      dup3\n        /* \"contracts/MultiSig Wallet/Forwarder.sol\":5672:5690  instance.balanceOf */\n      0xffffffffffffffffffffffffffffffffffffffff\n      and\n      0x70a08231\n        /* \"contracts/MultiSig Wallet/Forwarder.sol\":5691:5707  forwarderAddress */\n      dup4\n        /* \"contracts/MultiSig Wallet/Forwarder.sol\":5672:5708  instance.balanceOf(forwarderAddress) */\n      mload(0x40)\n      dup3\n      0xffffffff\n      and\n      0xe0\n      shl\n      dup2\n      mstore\n      0x04\n      add\n      tag_168\n      swap2\n      swap1\n      tag_33\n      jump\t// in\n    tag_168:\n      0x20\n      mload(0x40)\n      dup1\n      dup4\n      sub\n      dup2\n      dup7\n      gas\n      staticcall\n      iszero\n      dup1\n      iszero\n      tag_170\n      jumpi\n      returndatasize\n      0x00\n      dup1\n      returndatacopy\n      revert(0x00, returndatasize)\n    tag_170:\n      pop\n      pop\n      pop\n      pop\n      mload(0x40)\n      returndatasize\n      not(0x1f)\n      0x1f\n      dup3\n      add\n      and\n      dup3\n      add\n      dup1\n      0x40\n      mstore\n      pop\n      dup2\n      add\n      swap1\n      tag_171\n      swap2\n      swap1\n      tag_172\n      jump\t// in\n    tag_171:\n        /* \"contracts/MultiSig Wallet/Forwarder.sol\":5645:5708  uint256 forwarderBalance = instance.balanceOf(forwarderAddress) */\n      swap1\n      pop\n        /* \"contracts/MultiSig Wallet/Forwarder.sol\":5738:5739  0 */\n      0x00\n        /* \"contracts/MultiSig Wallet/Forwarder.sol\":5718:5734  forwarderBalance */\n      dup2\n        /* \"contracts/MultiSig Wallet/Forwarder.sol\":5718:5739  forwarderBalance == 0 */\n      eq\n        /* \"contracts/MultiSig Wallet/Forwarder.sol\":5714:5762  if (forwarderBalance == 0) {... */\n      iszero\n      tag_173\n      jumpi\n        /* \"contracts/MultiSig Wallet/Forwarder.sol\":5749:5756  return; */\n      pop\n      pop\n      pop\n      jump(tag_167)\n        /* \"contracts/MultiSig Wallet/Forwarder.sol\":5714:5762  if (forwarderBalance == 0) {... */\n    tag_173:\n        /* \"contracts/MultiSig Wallet/Forwarder.sol\":5768:5874  TransferHelper.safeTransfer(... */\n      tag_174\n        /* \"contracts/MultiSig Wallet/Forwarder.sol\":5803:5823  tokenContractAddress */\n      dup5\n        /* \"contracts/MultiSig Wallet/Forwarder.sol\":5831:5844  parentAddress */\n      0x00\n      dup1\n      sload\n      swap1\n      0x0100\n      exp\n      swap1\n      div\n      0xffffffffffffffffffffffffffffffffffffffff\n      and\n        /* \"contracts/MultiSig Wallet/Forwarder.sol\":5852:5868  forwarderBalance */\n      dup4\n        /* \"contracts/MultiSig Wallet/Forwarder.sol\":5768:5795  TransferHelper.safeTransfer */\n      tag_175\n        /* \"contracts/MultiSig Wallet/Forwarder.sol\":5768:5874  TransferHelper.safeTransfer(... */\n      jump\t// in\n    tag_174:\n        /* \"contracts/MultiSig Wallet/Forwarder.sol\":5525:5879  {... */\n      pop\n      pop\n      pop\n        /* \"contracts/MultiSig Wallet/Forwarder.sol\":1889:1890  _ */\n    tag_167:\n        /* \"contracts/MultiSig Wallet/Forwarder.sol\":5419:5879  function flushTokens(address tokenContractAddress)... */\n      pop\n      jump\t// out\n        /* \"contracts/MultiSig Wallet/Forwarder.sol\":3821:4136  function callFromParent(... */\n    tag_64:\n        /* \"contracts/MultiSig Wallet/Forwarder.sol\":3942:3954  bytes memory */\n      0x60\n        /* \"contracts/MultiSig Wallet/Forwarder.sol\":1854:1867  parentAddress */\n      0x00\n      dup1\n      sload\n      swap1\n      0x0100\n      exp\n      swap1\n      div\n      0xffffffffffffffffffffffffffffffffffffffff\n      and\n        /* \"contracts/MultiSig Wallet/Forwarder.sol\":1840:1867  msg.sender == parentAddress */\n      0xffffffffffffffffffffffffffffffffffffffff\n      and\n        /* \"contracts/MultiSig Wallet/Forwarder.sol\":1840:1850  msg.sender */\n      caller\n        /* \"contracts/MultiSig Wallet/Forwarder.sol\":1840:1867  msg.sender == parentAddress */\n      0xffffffffffffffffffffffffffffffffffffffff\n      and\n      eq\n        /* \"contracts/MultiSig Wallet/Forwarder.sol\":1832:1883  require(msg.sender == parentAddress, 'Only Parent') */\n      tag_177\n      jumpi\n      mload(0x40)\n      0x08c379a000000000000000000000000000000000000000000000000000000000\n      dup2\n      mstore\n      0x04\n      add\n      tag_178\n      swap1\n      tag_144\n      jump\t// in\n    tag_178:\n      mload(0x40)\n      dup1\n      swap2\n      sub\n      swap1\n      revert\n    tag_177:\n        /* \"contracts/MultiSig Wallet/Forwarder.sol\":3963:3975  bool success */\n      0x00\n        /* \"contracts/MultiSig Wallet/Forwarder.sol\":3977:4002  bytes memory returnedData */\n      dup1\n        /* \"contracts/MultiSig Wallet/Forwarder.sol\":4006:4012  target */\n      dup7\n        /* \"contracts/MultiSig Wallet/Forwarder.sol\":4006:4017  target.call */\n      0xffffffffffffffffffffffffffffffffffffffff\n      and\n        /* \"contracts/MultiSig Wallet/Forwarder.sol\":4026:4031  value */\n      dup7\n        /* \"contracts/MultiSig Wallet/Forwarder.sol\":4041:4045  data */\n      dup7\n      dup7\n        /* \"contracts/MultiSig Wallet/Forwarder.sol\":4006:4051  target.call{ value: value }(... */\n      mload(0x40)\n      tag_180\n      swap3\n      swap2\n      swap1\n      tag_181\n      jump\t// in\n    tag_180:\n      0x00\n      mload(0x40)\n      dup1\n      dup4\n      sub\n      dup2\n      dup6\n      dup8\n      gas\n      call\n      swap3\n      pop\n      pop\n      pop\n      returndatasize\n      dup1\n      0x00\n      dup2\n      eq\n      tag_184\n      jumpi\n      mload(0x40)\n      swap2\n      pop\n      and(add(returndatasize, 0x3f), not(0x1f))\n      dup3\n      add\n      0x40\n      mstore\n      returndatasize\n      dup3\n      mstore\n      returndatasize\n      0x00\n      0x20\n      dup5\n      add\n      returndatacopy\n      jump(tag_183)\n    tag_184:\n      0x60\n      swap2\n      pop\n    tag_183:\n      pop\n        /* \"contracts/MultiSig Wallet/Forwarder.sol\":3962:4051  (bool success, bytes memory returnedData) = target.call{ value: value }(... */\n      swap2\n      pop\n      swap2\n      pop\n        /* \"contracts/MultiSig Wallet/Forwarder.sol\":4065:4072  success */\n      dup2\n        /* \"contracts/MultiSig Wallet/Forwarder.sol\":4057:4105  require(success, 'Parent call execution failed') */\n      tag_185\n      jumpi\n      mload(0x40)\n      0x08c379a000000000000000000000000000000000000000000000000000000000\n      dup2\n      mstore\n      0x04\n      add\n      tag_186\n      swap1\n      tag_187\n      jump\t// in\n    tag_186:\n      mload(0x40)\n      dup1\n      swap2\n      sub\n      swap1\n      revert\n    tag_185:\n        /* \"contracts/MultiSig Wallet/Forwarder.sol\":4119:4131  returnedData */\n      dup1\n        /* \"contracts/MultiSig Wallet/Forwarder.sol\":4112:4131  return returnedData */\n      swap3\n      pop\n      pop\n      pop\n        /* \"contracts/MultiSig Wallet/Forwarder.sol\":3821:4136  function callFromParent(... */\n      swap5\n      swap4\n      pop\n      pop\n      pop\n      pop\n      jump\t// out\n        /* \"contracts/MultiSig Wallet/Forwarder.sol\":6426:7015  function flushERC1155Tokens(address tokenContractAddress, uint256 tokenId)... */\n    tag_70:\n        /* \"contracts/MultiSig Wallet/Forwarder.sol\":1854:1867  parentAddress */\n      0x00\n      dup1\n      sload\n      swap1\n      0x0100\n      exp\n      swap1\n      div\n      0xffffffffffffffffffffffffffffffffffffffff\n      and\n        /* \"contracts/MultiSig Wallet/Forwarder.sol\":1840:1867  msg.sender == parentAddress */\n      0xffffffffffffffffffffffffffffffffffffffff\n      and\n        /* \"contracts/MultiSig Wallet/Forwarder.sol\":1840:1850  msg.sender */\n      caller\n        /* \"contracts/MultiSig Wallet/Forwarder.sol\":1840:1867  msg.sender == parentAddress */\n      0xffffffffffffffffffffffffffffffffffffffff\n      and\n      eq\n        /* \"contracts/MultiSig Wallet/Forwarder.sol\":1832:1883  require(msg.sender == parentAddress, 'Only Parent') */\n      tag_189\n      jumpi\n      mload(0x40)\n      0x08c379a000000000000000000000000000000000000000000000000000000000\n      dup2\n      mstore\n      0x04\n      add\n      tag_190\n      swap1\n      tag_144\n      jump\t// in\n    tag_190:\n      mload(0x40)\n      dup1\n      swap2\n      sub\n      swap1\n      revert\n    tag_189:\n        /* \"contracts/MultiSig Wallet/Forwarder.sol\":6562:6579  IERC1155 instance */\n      0x00\n        /* \"contracts/MultiSig Wallet/Forwarder.sol\":6591:6611  tokenContractAddress */\n      dup3\n        /* \"contracts/MultiSig Wallet/Forwarder.sol\":6562:6612  IERC1155 instance = IERC1155(tokenContractAddress) */\n      swap1\n      pop\n        /* \"contracts/MultiSig Wallet/Forwarder.sol\":6633:6641  instance */\n      dup1\n        /* \"contracts/MultiSig Wallet/Forwarder.sol\":6633:6659  instance.supportsInterface */\n      0xffffffffffffffffffffffffffffffffffffffff\n      and\n      0x01ffc9a7\n        /* \"contracts/MultiSig Wallet/Forwarder.sol\":6660:6686  type(IERC1155).interfaceId */\n      0xd9b67a2600000000000000000000000000000000000000000000000000000000\n        /* \"contracts/MultiSig Wallet/Forwarder.sol\":6633:6687  instance.supportsInterface(type(IERC1155).interfaceId) */\n      mload(0x40)\n      dup3\n      0xffffffff\n      and\n      0xe0\n      shl\n      dup2\n      mstore\n      0x04\n      add\n      tag_192\n      swap2\n      swap1\n      tag_47\n      jump\t// in\n    tag_192:\n      0x20\n      mload(0x40)\n      dup1\n      dup4\n      sub\n      dup2\n      dup7\n      gas\n      staticcall\n      iszero\n      dup1\n      iszero\n      tag_194\n      jumpi\n      returndatasize\n      0x00\n      dup1\n      returndatacopy\n      revert(0x00, returndatasize)\n    tag_194:\n      pop\n      pop\n      pop\n      pop\n      mload(0x40)\n      returndatasize\n      not(0x1f)\n      0x1f\n      dup3\n      add\n      and\n      dup3\n      add\n      dup1\n      0x40\n      mstore\n      pop\n      dup2\n      add\n      swap1\n      tag_195\n      swap2\n      swap1\n      tag_132\n      jump\t// in\n    tag_195:\n        /* \"contracts/MultiSig Wallet/Forwarder.sol\":6618:6753  require(... */\n      tag_196\n      jumpi\n      mload(0x40)\n      0x08c379a000000000000000000000000000000000000000000000000000000000\n      dup2\n      mstore\n      0x04\n      add\n      tag_197\n      swap1\n      tag_198\n      jump\t// in\n    tag_197:\n      mload(0x40)\n      dup1\n      swap2\n      sub\n      swap1\n      revert\n    tag_196:\n        /* \"contracts/MultiSig Wallet/Forwarder.sol\":6760:6784  address forwarderAddress */\n      0x00\n        /* \"contracts/MultiSig Wallet/Forwarder.sol\":6795:6799  this */\n      address\n        /* \"contracts/MultiSig Wallet/Forwarder.sol\":6760:6800  address forwarderAddress = address(this) */\n      swap1\n      pop\n        /* \"contracts/MultiSig Wallet/Forwarder.sol\":6806:6830  uint256 forwarderBalance */\n      0x00\n        /* \"contracts/MultiSig Wallet/Forwarder.sol\":6833:6841  instance */\n      dup3\n        /* \"contracts/MultiSig Wallet/Forwarder.sol\":6833:6851  instance.balanceOf */\n      0xffffffffffffffffffffffffffffffffffffffff\n      and\n      0xfdd58e\n        /* \"contracts/MultiSig Wallet/Forwarder.sol\":6852:6868  forwarderAddress */\n      dup4\n        /* \"contracts/MultiSig Wallet/Forwarder.sol\":6870:6877  tokenId */\n      dup7\n        /* \"contracts/MultiSig Wallet/Forwarder.sol\":6833:6878  instance.balanceOf(forwarderAddress, tokenId) */\n      mload(0x40)\n      dup4\n      0xffffffff\n      and\n      0xe0\n      shl\n      dup2\n      mstore\n      0x04\n      add\n      tag_199\n      swap3\n      swap2\n      swap1\n      tag_200\n      jump\t// in\n    tag_199:\n      0x20\n      mload(0x40)\n      dup1\n      dup4\n      sub\n      dup2\n      dup7\n      gas\n      staticcall\n      iszero\n      dup1\n      iszero\n      tag_202\n      jumpi\n      returndatasize\n      0x00\n      dup1\n      returndatacopy\n      revert(0x00, returndatasize)\n    tag_202:\n      pop\n      pop\n      pop\n      pop\n      mload(0x40)\n      returndatasize\n      not(0x1f)\n      0x1f\n      dup3\n      add\n      and\n      dup3\n      add\n      dup1\n      0x40\n      mstore\n      pop\n      dup2\n      add\n      swap1\n      tag_203\n      swap2\n      swap1\n      tag_172\n      jump\t// in\n    tag_203:\n        /* \"contracts/MultiSig Wallet/Forwarder.sol\":6806:6878  uint256 forwarderBalance = instance.balanceOf(forwarderAddress, tokenId) */\n      swap1\n      pop\n        /* \"contracts/MultiSig Wallet/Forwarder.sol\":6885:6893  instance */\n      dup3\n        /* \"contracts/MultiSig Wallet/Forwarder.sol\":6885:6910  instance.safeTransferFrom */\n      0xffffffffffffffffffffffffffffffffffffffff\n      and\n      0xf242432a\n        /* \"contracts/MultiSig Wallet/Forwarder.sol\":6918:6934  forwarderAddress */\n      dup4\n        /* \"contracts/MultiSig Wallet/Forwarder.sol\":6942:6955  parentAddress */\n      0x00\n      dup1\n      sload\n      swap1\n      0x0100\n      exp\n      swap1\n      div\n      0xffffffffffffffffffffffffffffffffffffffff\n      and\n        /* \"contracts/MultiSig Wallet/Forwarder.sol\":6963:6970  tokenId */\n      dup8\n        /* \"contracts/MultiSig Wallet/Forwarder.sol\":6978:6994  forwarderBalance */\n      dup6\n        /* \"contracts/MultiSig Wallet/Forwarder.sol\":6885:7010  instance.safeTransferFrom(... */\n      mload(0x40)\n      dup6\n      0xffffffff\n      and\n      0xe0\n      shl\n      dup2\n      mstore\n      0x04\n      add\n      tag_204\n      swap5\n      swap4\n      swap3\n      swap2\n      swap1\n      tag_205\n      jump\t// in\n    tag_204:\n      0x00\n      mload(0x40)\n      dup1\n      dup4\n      sub\n      dup2\n      0x00\n      dup8\n      dup1\n      extcodesize\n      iszero\n      dup1\n      iszero\n      tag_206\n      jumpi\n      0x00\n      dup1\n      revert\n    tag_206:\n      pop\n      gas\n      call\n      iszero\n      dup1\n      iszero\n      tag_208\n      jumpi\n      returndatasize\n      0x00\n      dup1\n      returndatacopy\n      revert(0x00, returndatasize)\n    tag_208:\n      pop\n      pop\n      pop\n      pop\n        /* \"contracts/MultiSig Wallet/Forwarder.sol\":6556:7015  {... */\n      pop\n      pop\n      pop\n        /* \"contracts/MultiSig Wallet/Forwarder.sol\":6426:7015  function flushERC1155Tokens(address tokenContractAddress, uint256 tokenId)... */\n      pop\n      pop\n      jump\t// out\n        /* \"contracts/MultiSig Wallet/Forwarder.sol\":2663:2796  function setAutoFlush1155(bool autoFlush)... */\n    tag_75:\n        /* \"contracts/MultiSig Wallet/Forwarder.sol\":1854:1867  parentAddress */\n      0x00\n      dup1\n      sload\n      swap1\n      0x0100\n      exp\n      swap1\n      div\n      0xffffffffffffffffffffffffffffffffffffffff\n      and\n        /* \"contracts/MultiSig Wallet/Forwarder.sol\":1840:1867  msg.sender == parentAddress */\n      0xffffffffffffffffffffffffffffffffffffffff\n      and\n        /* \"contracts/MultiSig Wallet/Forwarder.sol\":1840:1850  msg.sender */\n      caller\n        /* \"contracts/MultiSig Wallet/Forwarder.sol\":1840:1867  msg.sender == parentAddress */\n      0xffffffffffffffffffffffffffffffffffffffff\n      and\n      eq\n        /* \"contracts/MultiSig Wallet/Forwarder.sol\":1832:1883  require(msg.sender == parentAddress, 'Only Parent') */\n      tag_210\n      jumpi\n      mload(0x40)\n      0x08c379a000000000000000000000000000000000000000000000000000000000\n      dup2\n      mstore\n      0x04\n      add\n      tag_211\n      swap1\n      tag_144\n      jump\t// in\n    tag_211:\n      mload(0x40)\n      dup1\n      swap2\n      sub\n      swap1\n      revert\n    tag_210:\n        /* \"contracts/MultiSig Wallet/Forwarder.sol\":2782:2791  autoFlush */\n      dup1\n        /* \"contracts/MultiSig Wallet/Forwarder.sol\":2766:2779  autoFlush1155 */\n      0x00\n      0x15\n        /* \"contracts/MultiSig Wallet/Forwarder.sol\":2766:2791  autoFlush1155 = autoFlush */\n      0x0100\n      exp\n      dup2\n      sload\n      dup2\n      0xff\n      mul\n      not\n      and\n      swap1\n      dup4\n      iszero\n      iszero\n      mul\n      or\n      swap1\n      sstore\n      pop\n        /* \"contracts/MultiSig Wallet/Forwarder.sol\":2663:2796  function setAutoFlush1155(bool autoFlush)... */\n      pop\n      jump\t// out\n        /* \"contracts/MultiSig Wallet/Forwarder.sol\":715:747  bool public autoFlush1155 = true */\n    tag_78:\n      0x00\n      0x15\n      swap1\n      sload\n      swap1\n      0x0100\n      exp\n      swap1\n      div\n      0xff\n      and\n      dup2\n      jump\t// out\n        /* \"contracts/MultiSig Wallet/Forwarder.sol\":4761:5375  function onERC1155BatchReceived(... */\n    tag_84:\n        /* \"contracts/MultiSig Wallet/Forwarder.sol\":4958:4964  bytes4 */\n      0x00\n        /* \"contracts/MultiSig Wallet/Forwarder.sol\":4972:4989  IERC1155 instance */\n      dup1\n        /* \"contracts/MultiSig Wallet/Forwarder.sol\":5001:5011  msg.sender */\n      caller\n        /* \"contracts/MultiSig Wallet/Forwarder.sol\":4972:5012  IERC1155 instance = IERC1155(msg.sender) */\n      swap1\n      pop\n        /* \"contracts/MultiSig Wallet/Forwarder.sol\":5033:5041  instance */\n      dup1\n        /* \"contracts/MultiSig Wallet/Forwarder.sol\":5033:5059  instance.supportsInterface */\n      0xffffffffffffffffffffffffffffffffffffffff\n      and\n      0x01ffc9a7\n        /* \"contracts/MultiSig Wallet/Forwarder.sol\":5060:5086  type(IERC1155).interfaceId */\n      0xd9b67a2600000000000000000000000000000000000000000000000000000000\n        /* \"contracts/MultiSig Wallet/Forwarder.sol\":5033:5087  instance.supportsInterface(type(IERC1155).interfaceId) */\n      mload(0x40)\n      dup3\n      0xffffffff\n      and\n      0xe0\n      shl\n      dup2\n      mstore\n      0x04\n      add\n      tag_214\n      swap2\n      swap1\n      tag_47\n      jump\t// in\n    tag_214:\n      0x20\n      mload(0x40)\n      dup1\n      dup4\n      sub\n      dup2\n      dup7\n      gas\n      staticcall\n      iszero\n      dup1\n      iszero\n      tag_216\n      jumpi\n      returndatasize\n      0x00\n      dup1\n      returndatacopy\n      revert(0x00, returndatasize)\n    tag_216:\n      pop\n      pop\n      pop\n      pop\n      mload(0x40)\n      returndatasize\n      not(0x1f)\n      0x1f\n      dup3\n      add\n      and\n      dup3\n      add\n      dup1\n      0x40\n      mstore\n      pop\n      dup2\n      add\n      swap1\n      tag_217\n      swap2\n      swap1\n      tag_132\n      jump\t// in\n    tag_217:\n        /* \"contracts/MultiSig Wallet/Forwarder.sol\":5018:5153  require(... */\n      tag_218\n      jumpi\n      mload(0x40)\n      0x08c379a000000000000000000000000000000000000000000000000000000000\n      dup2\n      mstore\n      0x04\n      add\n      tag_219\n      swap1\n      tag_198\n      jump\t// in\n    tag_219:\n      mload(0x40)\n      dup1\n      swap2\n      sub\n      swap1\n      revert\n    tag_218:\n        /* \"contracts/MultiSig Wallet/Forwarder.sol\":5164:5177  autoFlush1155 */\n      0x00\n      0x15\n      swap1\n      sload\n      swap1\n      0x0100\n      exp\n      swap1\n      div\n      0xff\n      and\n        /* \"contracts/MultiSig Wallet/Forwarder.sol\":5160:5321  if (autoFlush1155) {... */\n      iszero\n      tag_220\n      jumpi\n        /* \"contracts/MultiSig Wallet/Forwarder.sol\":5187:5195  instance */\n      dup1\n        /* \"contracts/MultiSig Wallet/Forwarder.sol\":5187:5217  instance.safeBatchTransferFrom */\n      0xffffffffffffffffffffffffffffffffffffffff\n      and\n      0x2eb2c2d6\n        /* \"contracts/MultiSig Wallet/Forwarder.sol\":5235:5239  this */\n      address\n        /* \"contracts/MultiSig Wallet/Forwarder.sol\":5250:5263  parentAddress */\n      0x00\n      dup1\n      sload\n      swap1\n      0x0100\n      exp\n      swap1\n      div\n      0xffffffffffffffffffffffffffffffffffffffff\n      and\n        /* \"contracts/MultiSig Wallet/Forwarder.sol\":5273:5276  ids */\n      dup12\n      dup12\n        /* \"contracts/MultiSig Wallet/Forwarder.sol\":5286:5292  values */\n      dup12\n      dup12\n        /* \"contracts/MultiSig Wallet/Forwarder.sol\":5302:5306  data */\n      dup12\n      dup12\n        /* \"contracts/MultiSig Wallet/Forwarder.sol\":5187:5314  instance.safeBatchTransferFrom(... */\n      mload(0x40)\n      dup10\n      0xffffffff\n      and\n      0xe0\n      shl\n      dup2\n      mstore\n      0x04\n      add\n      tag_221\n      swap9\n      swap8\n      swap7\n      swap6\n      swap5\n      swap4\n      swap3\n      swap2\n      swap1\n      tag_222\n      jump\t// in\n    tag_221:\n      0x00\n      mload(0x40)\n      dup1\n      dup4\n      sub\n      dup2\n      0x00\n      dup8\n      dup1\n      extcodesize\n      iszero\n      dup1\n      iszero\n      tag_223\n      jumpi\n      0x00\n      dup1\n      revert\n    tag_223:\n      pop\n      gas\n      call\n      iszero\n      dup1\n      iszero\n      tag_225\n      jumpi\n      returndatasize\n      0x00\n      dup1\n      returndatacopy\n      revert(0x00, returndatasize)\n    tag_225:\n      pop\n      pop\n      pop\n      pop\n        /* \"contracts/MultiSig Wallet/Forwarder.sol\":5160:5321  if (autoFlush1155) {... */\n    tag_220:\n        /* \"contracts/MultiSig Wallet/Forwarder.sol\":5334:5370  this.onERC1155BatchReceived.selector */\n      shl(0xe0, 0xbc197c81)\n        /* \"contracts/MultiSig Wallet/Forwarder.sol\":5327:5370  return this.onERC1155BatchReceived.selector */\n      swap2\n      pop\n      pop\n        /* \"contracts/MultiSig Wallet/Forwarder.sol\":4761:5375  function onERC1155BatchReceived(... */\n      swap9\n      swap8\n      pop\n      pop\n      pop\n      pop\n      pop\n      pop\n      pop\n      pop\n      jump\t// out\n        /* \"contracts/MultiSig Wallet/Forwarder.sol\":920:1697  function init(... */\n    tag_90:\n        /* \"contracts/MultiSig Wallet/Forwarder.sol\":2079:2082  0x0 */\n      0x00\n        /* \"contracts/MultiSig Wallet/Forwarder.sol\":2054:2083  parentAddress == address(0x0) */\n      0xffffffffffffffffffffffffffffffffffffffff\n      and\n        /* \"contracts/MultiSig Wallet/Forwarder.sol\":2054:2067  parentAddress */\n      0x00\n      dup1\n      sload\n      swap1\n      0x0100\n      exp\n      swap1\n      div\n      0xffffffffffffffffffffffffffffffffffffffff\n      and\n        /* \"contracts/MultiSig Wallet/Forwarder.sol\":2054:2083  parentAddress == address(0x0) */\n      0xffffffffffffffffffffffffffffffffffffffff\n      and\n      eq\n        /* \"contracts/MultiSig Wallet/Forwarder.sol\":2046:2107  require(parentAddress == address(0x0), 'Already initialized') */\n      tag_227\n      jumpi\n      mload(0x40)\n      0x08c379a000000000000000000000000000000000000000000000000000000000\n      dup2\n      mstore\n      0x04\n      add\n      tag_228\n      swap1\n      tag_229\n      jump\t// in\n    tag_228:\n      mload(0x40)\n      dup1\n      swap2\n      sub\n      swap1\n      revert\n    tag_227:\n        /* \"contracts/MultiSig Wallet/Forwarder.sol\":1064:1078  _parentAddress */\n      dup3\n        /* \"contracts/MultiSig Wallet/Forwarder.sol\":1048:1061  parentAddress */\n      0x00\n      dup1\n        /* \"contracts/MultiSig Wallet/Forwarder.sol\":1048:1078  parentAddress = _parentAddress */\n      0x0100\n      exp\n      dup2\n      sload\n      dup2\n      0xffffffffffffffffffffffffffffffffffffffff\n      mul\n      not\n      and\n      swap1\n      dup4\n      0xffffffffffffffffffffffffffffffffffffffff\n      and\n      mul\n      or\n      swap1\n      sstore\n      pop\n        /* \"contracts/MultiSig Wallet/Forwarder.sol\":1084:1097  uint256 value */\n      0x00\n        /* \"contracts/MultiSig Wallet/Forwarder.sol\":1100:1121  address(this).balance */\n      selfbalance\n        /* \"contracts/MultiSig Wallet/Forwarder.sol\":1084:1121  uint256 value = address(this).balance */\n      swap1\n      pop\n        /* \"contracts/MultiSig Wallet/Forwarder.sol\":1222:1235  _autoFlush721 */\n      dup3\n        /* \"contracts/MultiSig Wallet/Forwarder.sol\":1207:1219  autoFlush721 */\n      0x00\n      0x14\n        /* \"contracts/MultiSig Wallet/Forwarder.sol\":1207:1235  autoFlush721 = _autoFlush721 */\n      0x0100\n      exp\n      dup2\n      sload\n      dup2\n      0xff\n      mul\n      not\n      and\n      swap1\n      dup4\n      iszero\n      iszero\n      mul\n      or\n      swap1\n      sstore\n      pop\n        /* \"contracts/MultiSig Wallet/Forwarder.sol\":1257:1271  _autoFlush1155 */\n      dup2\n        /* \"contracts/MultiSig Wallet/Forwarder.sol\":1241:1254  autoFlush1155 */\n      0x00\n      0x15\n        /* \"contracts/MultiSig Wallet/Forwarder.sol\":1241:1271  autoFlush1155 = _autoFlush1155 */\n      0x0100\n      exp\n      dup2\n      sload\n      dup2\n      0xff\n      mul\n      not\n      and\n      swap1\n      dup4\n      iszero\n      iszero\n      mul\n      or\n      swap1\n      sstore\n      pop\n        /* \"contracts/MultiSig Wallet/Forwarder.sol\":1291:1292  0 */\n      0x00\n        /* \"contracts/MultiSig Wallet/Forwarder.sol\":1282:1287  value */\n      dup2\n        /* \"contracts/MultiSig Wallet/Forwarder.sol\":1282:1292  value == 0 */\n      eq\n        /* \"contracts/MultiSig Wallet/Forwarder.sol\":1278:1315  if (value == 0) {... */\n      iszero\n      tag_231\n      jumpi\n        /* \"contracts/MultiSig Wallet/Forwarder.sol\":1302:1309  return; */\n      pop\n      jump(tag_230)\n        /* \"contracts/MultiSig Wallet/Forwarder.sol\":1278:1315  if (value == 0) {... */\n    tag_231:\n        /* \"contracts/MultiSig Wallet/Forwarder.sol\":1322:1334  bool success */\n      0x00\n        /* \"contracts/MultiSig Wallet/Forwarder.sol\":1340:1353  parentAddress */\n      dup1\n      0x00\n      swap1\n      sload\n      swap1\n      0x0100\n      exp\n      swap1\n      div\n      0xffffffffffffffffffffffffffffffffffffffff\n      and\n        /* \"contracts/MultiSig Wallet/Forwarder.sol\":1340:1358  parentAddress.call */\n      0xffffffffffffffffffffffffffffffffffffffff\n      and\n        /* \"contracts/MultiSig Wallet/Forwarder.sol\":1367:1372  value */\n      dup3\n        /* \"contracts/MultiSig Wallet/Forwarder.sol\":1340:1378  parentAddress.call{ value: value }('') */\n      mload(0x40)\n      tag_232\n      swap1\n      tag_113\n      jump\t// in\n    tag_232:\n      0x00\n      mload(0x40)\n      dup1\n      dup4\n      sub\n      dup2\n      dup6\n      dup8\n      gas\n      call\n      swap3\n      pop\n      pop\n      pop\n      returndatasize\n      dup1\n      0x00\n      dup2\n      eq\n      tag_235\n      jumpi\n      mload(0x40)\n      swap2\n      pop\n      and(add(returndatasize, 0x3f), not(0x1f))\n      dup3\n      add\n      0x40\n      mstore\n      returndatasize\n      dup3\n      mstore\n      returndatasize\n      0x00\n      0x20\n      dup5\n      add\n      returndatacopy\n      jump(tag_234)\n    tag_235:\n      0x60\n      swap2\n      pop\n    tag_234:\n      pop\n        /* \"contracts/MultiSig Wallet/Forwarder.sol\":1321:1378  (bool success, ) = parentAddress.call{ value: value }('') */\n      pop\n      swap1\n      pop\n        /* \"contracts/MultiSig Wallet/Forwarder.sol\":1392:1399  success */\n      dup1\n        /* \"contracts/MultiSig Wallet/Forwarder.sol\":1384:1416  require(success, 'Flush failed') */\n      tag_236\n      jumpi\n      mload(0x40)\n      0x08c379a000000000000000000000000000000000000000000000000000000000\n      dup2\n      mstore\n      0x04\n      add\n      tag_237\n      swap1\n      tag_119\n      jump\t// in\n    tag_237:\n      mload(0x40)\n      dup1\n      swap2\n      sub\n      swap1\n      revert\n    tag_236:\n        /* \"contracts/MultiSig Wallet/Forwarder.sol\":1642:1692  ForwarderDeposited(address(this), value, msg.data) */\n      0x69b31548dea9b3b707b4dff357d326e3e9348b24e7a6080a218a6edeeec48f9b\n        /* \"contracts/MultiSig Wallet/Forwarder.sol\":1669:1673  this */\n      address\n        /* \"contracts/MultiSig Wallet/Forwarder.sol\":1676:1681  value */\n      dup4\n        /* \"contracts/MultiSig Wallet/Forwarder.sol\":1683:1691  msg.data */\n      0x00\n      calldatasize\n        /* \"contracts/MultiSig Wallet/Forwarder.sol\":1642:1692  ForwarderDeposited(address(this), value, msg.data) */\n      mload(0x40)\n      tag_238\n      swap5\n      swap4\n      swap3\n      swap2\n      swap1\n      tag_121\n      jump\t// in\n    tag_238:\n      mload(0x40)\n      dup1\n      swap2\n      sub\n      swap1\n      log1\n        /* \"contracts/MultiSig Wallet/Forwarder.sol\":1042:1697  {... */\n      pop\n      pop\n        /* \"contracts/MultiSig Wallet/Forwarder.sol\":2113:2114  _ */\n    tag_230:\n        /* \"contracts/MultiSig Wallet/Forwarder.sol\":920:1697  function init(... */\n      pop\n      pop\n      pop\n      jump\t// out\n        /* \"contracts/MultiSig Wallet/Forwarder.sol\":2488:2619  function setAutoFlush721(bool autoFlush)... */\n    tag_94:\n        /* \"contracts/MultiSig Wallet/Forwarder.sol\":1854:1867  parentAddress */\n      0x00\n      dup1\n      sload\n      swap1\n      0x0100\n      exp\n      swap1\n      div\n      0xffffffffffffffffffffffffffffffffffffffff\n      and\n        /* \"contracts/MultiSig Wallet/Forwarder.sol\":1840:1867  msg.sender == parentAddress */\n      0xffffffffffffffffffffffffffffffffffffffff\n      and\n        /* \"contracts/MultiSig Wallet/Forwarder.sol\":1840:1850  msg.sender */\n      caller\n        /* \"contracts/MultiSig Wallet/Forwarder.sol\":1840:1867  msg.sender == parentAddress */\n      0xffffffffffffffffffffffffffffffffffffffff\n      and\n      eq\n        /* \"contracts/MultiSig Wallet/Forwarder.sol\":1832:1883  require(msg.sender == parentAddress, 'Only Parent') */\n      tag_240\n      jumpi\n      mload(0x40)\n      0x08c379a000000000000000000000000000000000000000000000000000000000\n      dup2\n      mstore\n      0x04\n      add\n      tag_241\n      swap1\n      tag_144\n      jump\t// in\n    tag_241:\n      mload(0x40)\n      dup1\n      swap2\n      sub\n      swap1\n      revert\n    tag_240:\n        /* \"contracts/MultiSig Wallet/Forwarder.sol\":2605:2614  autoFlush */\n      dup1\n        /* \"contracts/MultiSig Wallet/Forwarder.sol\":2590:2602  autoFlush721 */\n      0x00\n      0x14\n        /* \"contracts/MultiSig Wallet/Forwarder.sol\":2590:2614  autoFlush721 = autoFlush */\n      0x0100\n      exp\n      dup2\n      sload\n      dup2\n      0xff\n      mul\n      not\n      and\n      swap1\n      dup4\n      iszero\n      iszero\n      mul\n      or\n      swap1\n      sstore\n      pop\n        /* \"contracts/MultiSig Wallet/Forwarder.sol\":2488:2619  function setAutoFlush721(bool autoFlush)... */\n      pop\n      jump\t// out\n        /* \"contracts/MultiSig Wallet/Forwarder.sol\":7059:7769  function batchFlushERC1155Tokens(... */\n    tag_99:\n        /* \"contracts/MultiSig Wallet/Forwarder.sol\":1854:1867  parentAddress */\n      0x00\n      dup1\n      sload\n      swap1\n      0x0100\n      exp\n      swap1\n      div\n      0xffffffffffffffffffffffffffffffffffffffff\n      and\n        /* \"contracts/MultiSig Wallet/Forwarder.sol\":1840:1867  msg.sender == parentAddress */\n      0xffffffffffffffffffffffffffffffffffffffff\n      and\n        /* \"contracts/MultiSig Wallet/Forwarder.sol\":1840:1850  msg.sender */\n      caller\n        /* \"contracts/MultiSig Wallet/Forwarder.sol\":1840:1867  msg.sender == parentAddress */\n      0xffffffffffffffffffffffffffffffffffffffff\n      and\n      eq\n        /* \"contracts/MultiSig Wallet/Forwarder.sol\":1832:1883  require(msg.sender == parentAddress, 'Only Parent') */\n      tag_244\n      jumpi\n      mload(0x40)\n      0x08c379a000000000000000000000000000000000000000000000000000000000\n      dup2\n      mstore\n      0x04\n      add\n      tag_245\n      swap1\n      tag_144\n      jump\t// in\n    tag_245:\n      mload(0x40)\n      dup1\n      swap2\n      sub\n      swap1\n      revert\n    tag_244:\n        /* \"contracts/MultiSig Wallet/Forwarder.sol\":7206:7223  IERC1155 instance */\n      0x00\n        /* \"contracts/MultiSig Wallet/Forwarder.sol\":7235:7255  tokenContractAddress */\n      dup4\n        /* \"contracts/MultiSig Wallet/Forwarder.sol\":7206:7256  IERC1155 instance = IERC1155(tokenContractAddress) */\n      swap1\n      pop\n        /* \"contracts/MultiSig Wallet/Forwarder.sol\":7277:7285  instance */\n      dup1\n        /* \"contracts/MultiSig Wallet/Forwarder.sol\":7277:7303  instance.supportsInterface */\n      0xffffffffffffffffffffffffffffffffffffffff\n      and\n      0x01ffc9a7\n        /* \"contracts/MultiSig Wallet/Forwarder.sol\":7304:7330  type(IERC1155).interfaceId */\n      0xd9b67a2600000000000000000000000000000000000000000000000000000000\n        /* \"contracts/MultiSig Wallet/Forwarder.sol\":7277:7331  instance.supportsInterface(type(IERC1155).interfaceId) */\n      mload(0x40)\n      dup3\n      0xffffffff\n      and\n      0xe0\n      shl\n      dup2\n      mstore\n      0x04\n      add\n      tag_247\n      swap2\n      swap1\n      tag_47\n      jump\t// in\n    tag_247:\n      0x20\n      mload(0x40)\n      dup1\n      dup4\n      sub\n      dup2\n      dup7\n      gas\n      staticcall\n      iszero\n      dup1\n      iszero\n      tag_249\n      jumpi\n      returndatasize\n      0x00\n      dup1\n      returndatacopy\n      revert(0x00, returndatasize)\n    tag_249:\n      pop\n      pop\n      pop\n      pop\n      mload(0x40)\n      returndatasize\n      not(0x1f)\n      0x1f\n      dup3\n      add\n      and\n      dup3\n      add\n      dup1\n      0x40\n      mstore\n      pop\n      dup2\n      add\n      swap1\n      tag_250\n      swap2\n      swap1\n      tag_132\n      jump\t// in\n    tag_250:\n        /* \"contracts/MultiSig Wallet/Forwarder.sol\":7262:7397  require(... */\n      tag_251\n      jumpi\n      mload(0x40)\n      0x08c379a000000000000000000000000000000000000000000000000000000000\n      dup2\n      mstore\n      0x04\n      add\n      tag_252\n      swap1\n      tag_198\n      jump\t// in\n    tag_252:\n      mload(0x40)\n      dup1\n      swap2\n      sub\n      swap1\n      revert\n    tag_251:\n        /* \"contracts/MultiSig Wallet/Forwarder.sol\":7404:7428  address forwarderAddress */\n      0x00\n        /* \"contracts/MultiSig Wallet/Forwarder.sol\":7439:7443  this */\n      address\n        /* \"contracts/MultiSig Wallet/Forwarder.sol\":7404:7444  address forwarderAddress = address(this) */\n      swap1\n      pop\n        /* \"contracts/MultiSig Wallet/Forwarder.sol\":7450:7474  uint256[] memory amounts */\n      0x00\n        /* \"contracts/MultiSig Wallet/Forwarder.sol\":7491:7499  tokenIds */\n      dup5\n      dup5\n        /* \"contracts/MultiSig Wallet/Forwarder.sol\":7491:7506  tokenIds.length */\n      swap1\n      pop\n        /* \"contracts/MultiSig Wallet/Forwarder.sol\":7477:7507  new uint256[](tokenIds.length) */\n      0xffffffffffffffff\n      dup2\n      gt\n      iszero\n      tag_253\n      jumpi\n      tag_254\n      tag_255\n      jump\t// in\n    tag_254:\n    tag_253:\n      mload(0x40)\n      swap1\n      dup1\n      dup3\n      mstore\n      dup1\n      0x20\n      mul\n      0x20\n      add\n      dup3\n      add\n      0x40\n      mstore\n      dup1\n      iszero\n      tag_256\n      jumpi\n      dup2\n      0x20\n      add\n      0x20\n      dup3\n      mul\n      dup1\n      calldatasize\n      dup4\n      calldatacopy\n      dup1\n      dup3\n      add\n      swap2\n      pop\n      pop\n      swap1\n      pop\n    tag_256:\n      pop\n        /* \"contracts/MultiSig Wallet/Forwarder.sol\":7450:7507  uint256[] memory amounts = new uint256[](tokenIds.length) */\n      swap1\n      pop\n        /* \"contracts/MultiSig Wallet/Forwarder.sol\":7518:7527  uint256 i */\n      0x00\n        /* \"contracts/MultiSig Wallet/Forwarder.sol\":7513:7636  for (uint256 i = 0; i < tokenIds.length; i++) {... */\n    tag_257:\n        /* \"contracts/MultiSig Wallet/Forwarder.sol\":7537:7545  tokenIds */\n      dup6\n      dup6\n        /* \"contracts/MultiSig Wallet/Forwarder.sol\":7537:7552  tokenIds.length */\n      swap1\n      pop\n        /* \"contracts/MultiSig Wallet/Forwarder.sol\":7533:7534  i */\n      dup2\n        /* \"contracts/MultiSig Wallet/Forwarder.sol\":7533:7552  i < tokenIds.length */\n      lt\n        /* \"contracts/MultiSig Wallet/Forwarder.sol\":7513:7636  for (uint256 i = 0; i < tokenIds.length; i++) {... */\n      iszero\n      tag_258\n      jumpi\n        /* \"contracts/MultiSig Wallet/Forwarder.sol\":7580:7588  instance */\n      dup4\n        /* \"contracts/MultiSig Wallet/Forwarder.sol\":7580:7598  instance.balanceOf */\n      0xffffffffffffffffffffffffffffffffffffffff\n      and\n      0xfdd58e\n        /* \"contracts/MultiSig Wallet/Forwarder.sol\":7599:7615  forwarderAddress */\n      dup5\n        /* \"contracts/MultiSig Wallet/Forwarder.sol\":7617:7625  tokenIds */\n      dup9\n      dup9\n        /* \"contracts/MultiSig Wallet/Forwarder.sol\":7626:7627  i */\n      dup6\n        /* \"contracts/MultiSig Wallet/Forwarder.sol\":7617:7628  tokenIds[i] */\n      dup2\n      dup2\n      lt\n      tag_260\n      jumpi\n      tag_261\n      tag_262\n      jump\t// in\n    tag_261:\n    tag_260:\n      swap1\n      pop\n      0x20\n      mul\n      add\n      calldataload\n        /* \"contracts/MultiSig Wallet/Forwarder.sol\":7580:7629  instance.balanceOf(forwarderAddress, tokenIds[i]) */\n      mload(0x40)\n      dup4\n      0xffffffff\n      and\n      0xe0\n      shl\n      dup2\n      mstore\n      0x04\n      add\n      tag_263\n      swap3\n      swap2\n      swap1\n      tag_200\n      jump\t// in\n    tag_263:\n      0x20\n      mload(0x40)\n      dup1\n      dup4\n      sub\n      dup2\n      dup7\n      gas\n      staticcall\n      iszero\n      dup1\n      iszero\n      tag_265\n      jumpi\n      returndatasize\n      0x00\n      dup1\n      returndatacopy\n      revert(0x00, returndatasize)\n    tag_265:\n      pop\n      pop\n      pop\n      pop\n      mload(0x40)\n      returndatasize\n      not(0x1f)\n      0x1f\n      dup3\n      add\n      and\n      dup3\n      add\n      dup1\n      0x40\n      mstore\n      pop\n      dup2\n      add\n      swap1\n      tag_266\n      swap2\n      swap1\n      tag_172\n      jump\t// in\n    tag_266:\n        /* \"contracts/MultiSig Wallet/Forwarder.sol\":7567:7574  amounts */\n      dup3\n        /* \"contracts/MultiSig Wallet/Forwarder.sol\":7575:7576  i */\n      dup3\n        /* \"contracts/MultiSig Wallet/Forwarder.sol\":7567:7577  amounts[i] */\n      dup2\n      mload\n      dup2\n      lt\n      tag_267\n      jumpi\n      tag_268\n      tag_262\n      jump\t// in\n    tag_268:\n    tag_267:\n      0x20\n      mul\n      0x20\n      add\n      add\n        /* \"contracts/MultiSig Wallet/Forwarder.sol\":7567:7629  amounts[i] = instance.balanceOf(forwarderAddress, tokenIds[i]) */\n      dup2\n      dup2\n      mstore\n      pop\n      pop\n        /* \"contracts/MultiSig Wallet/Forwarder.sol\":7554:7557  i++ */\n      dup1\n      dup1\n      tag_269\n      swap1\n      tag_270\n      jump\t// in\n    tag_269:\n      swap2\n      pop\n      pop\n        /* \"contracts/MultiSig Wallet/Forwarder.sol\":7513:7636  for (uint256 i = 0; i < tokenIds.length; i++) {... */\n      jump(tag_257)\n    tag_258:\n      pop\n        /* \"contracts/MultiSig Wallet/Forwarder.sol\":7642:7650  instance */\n      dup3\n        /* \"contracts/MultiSig Wallet/Forwarder.sol\":7642:7672  instance.safeBatchTransferFrom */\n      0xffffffffffffffffffffffffffffffffffffffff\n      and\n      0x2eb2c2d6\n        /* \"contracts/MultiSig Wallet/Forwarder.sol\":7680:7696  forwarderAddress */\n      dup4\n        /* \"contracts/MultiSig Wallet/Forwarder.sol\":7704:7717  parentAddress */\n      0x00\n      dup1\n      sload\n      swap1\n      0x0100\n      exp\n      swap1\n      div\n      0xffffffffffffffffffffffffffffffffffffffff\n      and\n        /* \"contracts/MultiSig Wallet/Forwarder.sol\":7725:7733  tokenIds */\n      dup9\n      dup9\n        /* \"contracts/MultiSig Wallet/Forwarder.sol\":7741:7748  amounts */\n      dup7\n        /* \"contracts/MultiSig Wallet/Forwarder.sol\":7642:7764  instance.safeBatchTransferFrom(... */\n      mload(0x40)\n      dup7\n      0xffffffff\n      and\n      0xe0\n      shl\n      dup2\n      mstore\n      0x04\n      add\n      tag_271\n      swap6\n      swap5\n      swap4\n      swap3\n      swap2\n      swap1\n      tag_272\n      jump\t// in\n    tag_271:\n      0x00\n      mload(0x40)\n      dup1\n      dup4\n      sub\n      dup2\n      0x00\n      dup8\n      dup1\n      extcodesize\n      iszero\n      dup1\n      iszero\n      tag_273\n      jumpi\n      0x00\n      dup1\n      revert\n    tag_273:\n      pop\n      gas\n      call\n      iszero\n      dup1\n      iszero\n      tag_275\n      jumpi\n      returndatasize\n      0x00\n      dup1\n      returndatacopy\n      revert(0x00, returndatasize)\n    tag_275:\n      pop\n      pop\n      pop\n      pop\n        /* \"contracts/MultiSig Wallet/Forwarder.sol\":7200:7769  {... */\n      pop\n      pop\n      pop\n        /* \"contracts/MultiSig Wallet/Forwarder.sol\":7059:7769  function batchFlushERC1155Tokens(... */\n      pop\n      pop\n      pop\n      jump\t// out\n        /* \"contracts/MultiSig Wallet/Forwarder.sol\":4186:4711  function onERC1155Received(... */\n    tag_104:\n        /* \"contracts/MultiSig Wallet/Forwarder.sol\":4354:4360  bytes4 */\n      0x00\n        /* \"contracts/MultiSig Wallet/Forwarder.sol\":4368:4385  IERC1155 instance */\n      dup1\n        /* \"contracts/MultiSig Wallet/Forwarder.sol\":4397:4407  msg.sender */\n      caller\n        /* \"contracts/MultiSig Wallet/Forwarder.sol\":4368:4408  IERC1155 instance = IERC1155(msg.sender) */\n      swap1\n      pop\n        /* \"contracts/MultiSig Wallet/Forwarder.sol\":4429:4437  instance */\n      dup1\n        /* \"contracts/MultiSig Wallet/Forwarder.sol\":4429:4455  instance.supportsInterface */\n      0xffffffffffffffffffffffffffffffffffffffff\n      and\n      0x01ffc9a7\n        /* \"contracts/MultiSig Wallet/Forwarder.sol\":4456:4482  type(IERC1155).interfaceId */\n      0xd9b67a2600000000000000000000000000000000000000000000000000000000\n        /* \"contracts/MultiSig Wallet/Forwarder.sol\":4429:4483  instance.supportsInterface(type(IERC1155).interfaceId) */\n      mload(0x40)\n      dup3\n      0xffffffff\n      and\n      0xe0\n      shl\n      dup2\n      mstore\n      0x04\n      add\n      tag_277\n      swap2\n      swap1\n      tag_47\n      jump\t// in\n    tag_277:\n      0x20\n      mload(0x40)\n      dup1\n      dup4\n      sub\n      dup2\n      dup7\n      gas\n      staticcall\n      iszero\n      dup1\n      iszero\n      tag_279\n      jumpi\n      returndatasize\n      0x00\n      dup1\n      returndatacopy\n      revert(0x00, returndatasize)\n    tag_279:\n      pop\n      pop\n      pop\n      pop\n      mload(0x40)\n      returndatasize\n      not(0x1f)\n      0x1f\n      dup3\n      add\n      and\n      dup3\n      add\n      dup1\n      0x40\n      mstore\n      pop\n      dup2\n      add\n      swap1\n      tag_280\n      swap2\n      swap1\n      tag_132\n      jump\t// in\n    tag_280:\n        /* \"contracts/MultiSig Wallet/Forwarder.sol\":4414:4549  require(... */\n      tag_281\n      jumpi\n      mload(0x40)\n      0x08c379a000000000000000000000000000000000000000000000000000000000\n      dup2\n      mstore\n      0x04\n      add\n      tag_282\n      swap1\n      tag_198\n      jump\t// in\n    tag_282:\n      mload(0x40)\n      dup1\n      swap2\n      sub\n      swap1\n      revert\n    tag_281:\n        /* \"contracts/MultiSig Wallet/Forwarder.sol\":4560:4573  autoFlush1155 */\n      0x00\n      0x15\n      swap1\n      sload\n      swap1\n      0x0100\n      exp\n      swap1\n      div\n      0xff\n      and\n        /* \"contracts/MultiSig Wallet/Forwarder.sol\":4556:4662  if (autoFlush1155) {... */\n      iszero\n      tag_283\n      jumpi\n        /* \"contracts/MultiSig Wallet/Forwarder.sol\":4583:4591  instance */\n      dup1\n        /* \"contracts/MultiSig Wallet/Forwarder.sol\":4583:4608  instance.safeTransferFrom */\n      0xffffffffffffffffffffffffffffffffffffffff\n      and\n      0xf242432a\n        /* \"contracts/MultiSig Wallet/Forwarder.sol\":4617:4621  this */\n      address\n        /* \"contracts/MultiSig Wallet/Forwarder.sol\":4624:4637  parentAddress */\n      0x00\n      dup1\n      sload\n      swap1\n      0x0100\n      exp\n      swap1\n      div\n      0xffffffffffffffffffffffffffffffffffffffff\n      and\n        /* \"contracts/MultiSig Wallet/Forwarder.sol\":4639:4641  id */\n      dup10\n        /* \"contracts/MultiSig Wallet/Forwarder.sol\":4643:4648  value */\n      dup10\n        /* \"contracts/MultiSig Wallet/Forwarder.sol\":4650:4654  data */\n      dup10\n      dup10\n        /* \"contracts/MultiSig Wallet/Forwarder.sol\":4583:4655  instance.safeTransferFrom(address(this), parentAddress, id, value, data) */\n      mload(0x40)\n      dup8\n      0xffffffff\n      and\n      0xe0\n      shl\n      dup2\n      mstore\n      0x04\n      add\n      tag_284\n      swap7\n      swap6\n      swap5\n      swap4\n      swap3\n      swap2\n      swap1\n      tag_285\n      jump\t// in\n    tag_284:\n      0x00\n      mload(0x40)\n      dup1\n      dup4\n      sub\n      dup2\n      0x00\n      dup8\n      dup1\n      extcodesize\n      iszero\n      dup1\n      iszero\n      tag_286\n      jumpi\n      0x00\n      dup1\n      revert\n    tag_286:\n      pop\n      gas\n      call\n      iszero\n      dup1\n      iszero\n      tag_288\n      jumpi\n      returndatasize\n      0x00\n      dup1\n      returndatacopy\n      revert(0x00, returndatasize)\n    tag_288:\n      pop\n      pop\n      pop\n      pop\n        /* \"contracts/MultiSig Wallet/Forwarder.sol\":4556:4662  if (autoFlush1155) {... */\n    tag_283:\n        /* \"contracts/MultiSig Wallet/Forwarder.sol\":4675:4706  this.onERC1155Received.selector */\n      shl(0xe0, 0xf23a6e61)\n        /* \"contracts/MultiSig Wallet/Forwarder.sol\":4668:4706  return this.onERC1155Received.selector */\n      swap2\n      pop\n      pop\n        /* \"contracts/MultiSig Wallet/Forwarder.sol\":4186:4711  function onERC1155Received(... */\n      swap7\n      swap6\n      pop\n      pop\n      pop\n      pop\n      pop\n      pop\n      jump\t// out\n        /* \"contracts/MultiSig Wallet/Forwarder.sol\":680:711  bool public autoFlush721 = true */\n    tag_108:\n      0x00\n      0x14\n      swap1\n      sload\n      swap1\n      0x0100\n      exp\n      swap1\n      div\n      0xff\n      and\n      dup2\n      jump\t// out\n        /* \"@openzeppelin/contracts/token/ERC1155/utils/ERC1155Receiver.sol\":387:608  function supportsInterface(bytes4 interfaceId) public view virtual override(ERC165, IERC165) returns (bool) {... */\n    tag_125:\n        /* \"@openzeppelin/contracts/token/ERC1155/utils/ERC1155Receiver.sol\":489:493  bool */\n      0x00\n        /* \"@openzeppelin/contracts/token/ERC1155/utils/ERC1155Receiver.sol\":527:561  type(IERC1155Receiver).interfaceId */\n      0x4e2312e000000000000000000000000000000000000000000000000000000000\n        /* \"@openzeppelin/contracts/token/ERC1155/utils/ERC1155Receiver.sol\":512:561  interfaceId == type(IERC1155Receiver).interfaceId */\n      not(0xffffffffffffffffffffffffffffffffffffffffffffffffffffffff)\n      and\n        /* \"@openzeppelin/contracts/token/ERC1155/utils/ERC1155Receiver.sol\":512:523  interfaceId */\n      dup3\n        /* \"@openzeppelin/contracts/token/ERC1155/utils/ERC1155Receiver.sol\":512:561  interfaceId == type(IERC1155Receiver).interfaceId */\n      not(0xffffffffffffffffffffffffffffffffffffffffffffffffffffffff)\n      and\n      eq\n        /* \"@openzeppelin/contracts/token/ERC1155/utils/ERC1155Receiver.sol\":512:601  interfaceId == type(IERC1155Receiver).interfaceId || super.supportsInterface(interfaceId) */\n      dup1\n      tag_290\n      jumpi\n      pop\n        /* \"@openzeppelin/contracts/token/ERC1155/utils/ERC1155Receiver.sol\":565:601  super.supportsInterface(interfaceId) */\n      tag_291\n        /* \"@openzeppelin/contracts/token/ERC1155/utils/ERC1155Receiver.sol\":589:600  interfaceId */\n      dup3\n        /* \"@openzeppelin/contracts/token/ERC1155/utils/ERC1155Receiver.sol\":565:588  super.supportsInterface */\n      tag_292\n        /* \"@openzeppelin/contracts/token/ERC1155/utils/ERC1155Receiver.sol\":565:601  super.supportsInterface(interfaceId) */\n      jump\t// in\n    tag_291:\n        /* \"@openzeppelin/contracts/token/ERC1155/utils/ERC1155Receiver.sol\":512:601  interfaceId == type(IERC1155Receiver).interfaceId || super.supportsInterface(interfaceId) */\n    tag_290:\n        /* \"@openzeppelin/contracts/token/ERC1155/utils/ERC1155Receiver.sol\":505:601  return interfaceId == type(IERC1155Receiver).interfaceId || super.supportsInterface(interfaceId) */\n      swap1\n      pop\n        /* \"@openzeppelin/contracts/token/ERC1155/utils/ERC1155Receiver.sol\":387:608  function supportsInterface(bytes4 interfaceId) public view virtual override(ERC165, IERC165) returns (bool) {... */\n      swap2\n      swap1\n      pop\n      jump\t// out\n        /* \"contracts/MultiSig Wallet/TransferHelper.sol\":363:769  function safeTransfer(... */\n    tag_175:\n        /* \"contracts/MultiSig Wallet/TransferHelper.sol\":521:533  bool success */\n      0x00\n        /* \"contracts/MultiSig Wallet/TransferHelper.sol\":535:552  bytes memory data */\n      dup1\n        /* \"contracts/MultiSig Wallet/TransferHelper.sol\":556:561  token */\n      dup5\n        /* \"contracts/MultiSig Wallet/TransferHelper.sol\":556:566  token.call */\n      0xffffffffffffffffffffffffffffffffffffffff\n      and\n        /* \"contracts/MultiSig Wallet/TransferHelper.sol\":597:607  0xa9059cbb */\n      0xa9059cbb\n        /* \"contracts/MultiSig Wallet/TransferHelper.sol\":609:611  to */\n      dup6\n        /* \"contracts/MultiSig Wallet/TransferHelper.sol\":613:618  value */\n      dup6\n        /* \"contracts/MultiSig Wallet/TransferHelper.sol\":574:619  abi.encodeWithSelector(0xa9059cbb, to, value) */\n      add(0x24, mload(0x40))\n      tag_294\n      swap3\n      swap2\n      swap1\n      tag_200\n      jump\t// in\n    tag_294:\n      mload(0x40)\n      0x20\n      dup2\n      dup4\n      sub\n      sub\n      dup2\n      mstore\n      swap1\n      0x40\n      mstore\n      swap1\n      0xe0\n      shl\n      0x20\n      dup3\n      add\n      dup1\n      mload\n      0xffffffffffffffffffffffffffffffffffffffffffffffffffffffff\n      dup4\n      dup2\n      dup4\n      and\n      or\n      dup4\n      mstore\n      pop\n      pop\n      pop\n      pop\n        /* \"contracts/MultiSig Wallet/TransferHelper.sol\":556:625  token.call(... */\n      mload(0x40)\n      tag_295\n      swap2\n      swap1\n      tag_296\n      jump\t// in\n    tag_295:\n      0x00\n      mload(0x40)\n      dup1\n      dup4\n      sub\n      dup2\n      0x00\n      dup7\n      gas\n      call\n      swap2\n      pop\n      pop\n      returndatasize\n      dup1\n      0x00\n      dup2\n      eq\n      tag_299\n      jumpi\n      mload(0x40)\n      swap2\n      pop\n      and(add(returndatasize, 0x3f), not(0x1f))\n      dup3\n      add\n      0x40\n      mstore\n      returndatasize\n      dup3\n      mstore\n      returndatasize\n      0x00\n      0x20\n      dup5\n      add\n      returndatacopy\n      jump(tag_298)\n    tag_299:\n      0x60\n      swap2\n      pop\n    tag_298:\n      pop\n        /* \"contracts/MultiSig Wallet/TransferHelper.sol\":520:625  (bool success, bytes memory data) = token.call(... */\n      swap2\n      pop\n      swap2\n      pop\n        /* \"contracts/MultiSig Wallet/TransferHelper.sol\":646:653  success */\n      dup2\n        /* \"contracts/MultiSig Wallet/TransferHelper.sol\":646:703  success && (data.length == 0 || abi.decode(data, (bool))) */\n      dup1\n      iszero\n      tag_300\n      jumpi\n      pop\n        /* \"contracts/MultiSig Wallet/TransferHelper.sol\":673:674  0 */\n      0x00\n        /* \"contracts/MultiSig Wallet/TransferHelper.sol\":658:662  data */\n      dup2\n        /* \"contracts/MultiSig Wallet/TransferHelper.sol\":658:669  data.length */\n      mload\n        /* \"contracts/MultiSig Wallet/TransferHelper.sol\":658:674  data.length == 0 */\n      eq\n        /* \"contracts/MultiSig Wallet/TransferHelper.sol\":658:702  data.length == 0 || abi.decode(data, (bool)) */\n      dup1\n      tag_301\n      jumpi\n      pop\n        /* \"contracts/MultiSig Wallet/TransferHelper.sol\":689:693  data */\n      dup1\n        /* \"contracts/MultiSig Wallet/TransferHelper.sol\":678:702  abi.decode(data, (bool)) */\n      dup1\n      0x20\n      add\n      swap1\n      mload\n      dup2\n      add\n      swap1\n      tag_302\n      swap2\n      swap1\n      tag_132\n      jump\t// in\n    tag_302:\n        /* \"contracts/MultiSig Wallet/TransferHelper.sol\":658:702  data.length == 0 || abi.decode(data, (bool)) */\n    tag_301:\n        /* \"contracts/MultiSig Wallet/TransferHelper.sol\":646:703  success && (data.length == 0 || abi.decode(data, (bool))) */\n    tag_300:\n        /* \"contracts/MultiSig Wallet/TransferHelper.sol\":631:764  require(... */\n      tag_303\n      jumpi\n      mload(0x40)\n      0x08c379a000000000000000000000000000000000000000000000000000000000\n      dup2\n      mstore\n      0x04\n      add\n      tag_304\n      swap1\n      tag_305\n      jump\t// in\n    tag_304:\n      mload(0x40)\n      dup1\n      swap2\n      sub\n      swap1\n      revert\n    tag_303:\n        /* \"contracts/MultiSig Wallet/TransferHelper.sol\":452:769  {... */\n      pop\n      pop\n        /* \"contracts/MultiSig Wallet/TransferHelper.sol\":363:769  function safeTransfer(... */\n      pop\n      pop\n      pop\n      jump\t// out\n        /* \"@openzeppelin/contracts/utils/introspection/ERC165.sol\":829:984  function supportsInterface(bytes4 interfaceId) public view virtual override returns (bool) {... */\n    tag_292:\n        /* \"@openzeppelin/contracts/utils/introspection/ERC165.sol\":914:918  bool */\n      0x00\n        /* \"@openzeppelin/contracts/utils/introspection/ERC165.sol\":952:977  type(IERC165).interfaceId */\n      0x01ffc9a700000000000000000000000000000000000000000000000000000000\n        /* \"@openzeppelin/contracts/utils/introspection/ERC165.sol\":937:977  interfaceId == type(IERC165).interfaceId */\n      not(0xffffffffffffffffffffffffffffffffffffffffffffffffffffffff)\n      and\n        /* \"@openzeppelin/contracts/utils/introspection/ERC165.sol\":937:948  interfaceId */\n      dup3\n        /* \"@openzeppelin/contracts/utils/introspection/ERC165.sol\":937:977  interfaceId == type(IERC165).interfaceId */\n      not(0xffffffffffffffffffffffffffffffffffffffffffffffffffffffff)\n      and\n      eq\n        /* \"@openzeppelin/contracts/utils/introspection/ERC165.sol\":930:977  return interfaceId == type(IERC165).interfaceId */\n      swap1\n      pop\n        /* \"@openzeppelin/contracts/utils/introspection/ERC165.sol\":829:984  function supportsInterface(bytes4 interfaceId) public view virtual override returns (bool) {... */\n      swap2\n      swap1\n      pop\n      jump\t// out\n        /* \"#utility.yul\":7:133   */\n    tag_307:\n        /* \"#utility.yul\":44:51   */\n      0x00\n        /* \"#utility.yul\":84:126   */\n      0xffffffffffffffffffffffffffffffffffffffff\n        /* \"#utility.yul\":77:82   */\n      dup3\n        /* \"#utility.yul\":73:127   */\n      and\n        /* \"#utility.yul\":62:127   */\n      swap1\n      pop\n        /* \"#utility.yul\":7:133   */\n      swap2\n      swap1\n      pop\n      jump\t// out\n        /* \"#utility.yul\":139:235   */\n    tag_308:\n        /* \"#utility.yul\":176:183   */\n      0x00\n        /* \"#utility.yul\":205:229   */\n      tag_384\n        /* \"#utility.yul\":223:228   */\n      dup3\n        /* \"#utility.yul\":205:229   */\n      tag_307\n      jump\t// in\n    tag_384:\n        /* \"#utility.yul\":194:229   */\n      swap1\n      pop\n        /* \"#utility.yul\":139:235   */\n      swap2\n      swap1\n      pop\n      jump\t// out\n        /* \"#utility.yul\":241:359   */\n    tag_309:\n        /* \"#utility.yul\":328:352   */\n      tag_386\n        /* \"#utility.yul\":346:351   */\n      dup2\n        /* \"#utility.yul\":328:352   */\n      tag_308\n      jump\t// in\n    tag_386:\n        /* \"#utility.yul\":323:326   */\n      dup3\n        /* \"#utility.yul\":316:353   */\n      mstore\n        /* \"#utility.yul\":241:359   */\n      pop\n      pop\n      jump\t// out\n        /* \"#utility.yul\":365:587   */\n    tag_33:\n        /* \"#utility.yul\":458:462   */\n      0x00\n        /* \"#utility.yul\":496:498   */\n      0x20\n        /* \"#utility.yul\":485:494   */\n      dup3\n        /* \"#utility.yul\":481:499   */\n      add\n        /* \"#utility.yul\":473:499   */\n      swap1\n      pop\n        /* \"#utility.yul\":509:580   */\n      tag_388\n        /* \"#utility.yul\":577:578   */\n      0x00\n        /* \"#utility.yul\":566:575   */\n      dup4\n        /* \"#utility.yul\":562:579   */\n      add\n        /* \"#utility.yul\":553:559   */\n      dup5\n        /* \"#utility.yul\":509:580   */\n      tag_309\n      jump\t// in\n    tag_388:\n        /* \"#utility.yul\":365:587   */\n      swap3\n      swap2\n      pop\n      pop\n      jump\t// out\n        /* \"#utility.yul\":593:668   */\n    tag_310:\n        /* \"#utility.yul\":626:632   */\n      0x00\n        /* \"#utility.yul\":659:661   */\n      0x40\n        /* \"#utility.yul\":653:662   */\n      mload\n        /* \"#utility.yul\":643:662   */\n      swap1\n      pop\n        /* \"#utility.yul\":593:668   */\n      swap1\n      jump\t// out\n        /* \"#utility.yul\":674:791   */\n    tag_311:\n        /* \"#utility.yul\":783:784   */\n      0x00\n        /* \"#utility.yul\":780:781   */\n      dup1\n        /* \"#utility.yul\":773:785   */\n      revert\n        /* \"#utility.yul\":797:914   */\n    tag_312:\n        /* \"#utility.yul\":906:907   */\n      0x00\n        /* \"#utility.yul\":903:904   */\n      dup1\n        /* \"#utility.yul\":896:908   */\n      revert\n        /* \"#utility.yul\":920:1069   */\n    tag_313:\n        /* \"#utility.yul\":956:963   */\n      0x00\n        /* \"#utility.yul\":996:1062   */\n      0xffffffff00000000000000000000000000000000000000000000000000000000\n        /* \"#utility.yul\":989:994   */\n      dup3\n        /* \"#utility.yul\":985:1063   */\n      and\n        /* \"#utility.yul\":974:1063   */\n      swap1\n      pop\n        /* \"#utility.yul\":920:1069   */\n      swap2\n      swap1\n      pop\n      jump\t// out\n        /* \"#utility.yul\":1075:1195   */\n    tag_314:\n        /* \"#utility.yul\":1147:1170   */\n      tag_394\n        /* \"#utility.yul\":1164:1169   */\n      dup2\n        /* \"#utility.yul\":1147:1170   */\n      tag_313\n      jump\t// in\n    tag_394:\n        /* \"#utility.yul\":1140:1145   */\n      dup2\n        /* \"#utility.yul\":1137:1171   */\n      eq\n        /* \"#utility.yul\":1127:1189   */\n      tag_395\n      jumpi\n        /* \"#utility.yul\":1185:1186   */\n      0x00\n        /* \"#utility.yul\":1182:1183   */\n      dup1\n        /* \"#utility.yul\":1175:1187   */\n      revert\n        /* \"#utility.yul\":1127:1189   */\n    tag_395:\n        /* \"#utility.yul\":1075:1195   */\n      pop\n      jump\t// out\n        /* \"#utility.yul\":1201:1338   */\n    tag_315:\n        /* \"#utility.yul\":1246:1251   */\n      0x00\n        /* \"#utility.yul\":1284:1290   */\n      dup2\n        /* \"#utility.yul\":1271:1291   */\n      calldataload\n        /* \"#utility.yul\":1262:1291   */\n      swap1\n      pop\n        /* \"#utility.yul\":1300:1332   */\n      tag_397\n        /* \"#utility.yul\":1326:1331   */\n      dup2\n        /* \"#utility.yul\":1300:1332   */\n      tag_314\n      jump\t// in\n    tag_397:\n        /* \"#utility.yul\":1201:1338   */\n      swap3\n      swap2\n      pop\n      pop\n      jump\t// out\n        /* \"#utility.yul\":1344:1671   */\n    tag_37:\n        /* \"#utility.yul\":1402:1408   */\n      0x00\n        /* \"#utility.yul\":1451:1453   */\n      0x20\n        /* \"#utility.yul\":1439:1448   */\n      dup3\n        /* \"#utility.yul\":1430:1437   */\n      dup5\n        /* \"#utility.yul\":1426:1449   */\n      sub\n        /* \"#utility.yul\":1422:1454   */\n      slt\n        /* \"#utility.yul\":1419:1538   */\n      iszero\n      tag_399\n      jumpi\n        /* \"#utility.yul\":1457:1536   */\n      tag_400\n      tag_311\n      jump\t// in\n    tag_400:\n        /* \"#utility.yul\":1419:1538   */\n    tag_399:\n        /* \"#utility.yul\":1577:1578   */\n      0x00\n        /* \"#utility.yul\":1602:1654   */\n      tag_401\n        /* \"#utility.yul\":1646:1653   */\n      dup5\n        /* \"#utility.yul\":1637:1643   */\n      dup3\n        /* \"#utility.yul\":1626:1635   */\n      dup6\n        /* \"#utility.yul\":1622:1644   */\n      add\n        /* \"#utility.yul\":1602:1654   */\n      tag_315\n      jump\t// in\n    tag_401:\n        /* \"#utility.yul\":1592:1654   */\n      swap2\n      pop\n        /* \"#utility.yul\":1548:1664   */\n      pop\n        /* \"#utility.yul\":1344:1671   */\n      swap3\n      swap2\n      pop\n      pop\n      jump\t// out\n        /* \"#utility.yul\":1677:1767   */\n    tag_316:\n        /* \"#utility.yul\":1711:1718   */\n      0x00\n        /* \"#utility.yul\":1754:1759   */\n      dup2\n        /* \"#utility.yul\":1747:1760   */\n      iszero\n        /* \"#utility.yul\":1740:1761   */\n      iszero\n        /* \"#utility.yul\":1729:1761   */\n      swap1\n      pop\n        /* \"#utility.yul\":1677:1767   */\n      swap2\n      swap1\n      pop\n      jump\t// out\n        /* \"#utility.yul\":1773:1882   */\n    tag_317:\n        /* \"#utility.yul\":1854:1875   */\n      tag_404\n        /* \"#utility.yul\":1869:1874   */\n      dup2\n        /* \"#utility.yul\":1854:1875   */\n      tag_316\n      jump\t// in\n    tag_404:\n        /* \"#utility.yul\":1849:1852   */\n      dup3\n        /* \"#utility.yul\":1842:1876   */\n      mstore\n        /* \"#utility.yul\":1773:1882   */\n      pop\n      pop\n      jump\t// out\n        /* \"#utility.yul\":1888:2098   */\n    tag_40:\n        /* \"#utility.yul\":1975:1979   */\n      0x00\n        /* \"#utility.yul\":2013:2015   */\n      0x20\n        /* \"#utility.yul\":2002:2011   */\n      dup3\n        /* \"#utility.yul\":1998:2016   */\n      add\n        /* \"#utility.yul\":1990:2016   */\n      swap1\n      pop\n        /* \"#utility.yul\":2026:2091   */\n      tag_406\n        /* \"#utility.yul\":2088:2089   */\n      0x00\n        /* \"#utility.yul\":2077:2086   */\n      dup4\n        /* \"#utility.yul\":2073:2090   */\n      add\n        /* \"#utility.yul\":2064:2070   */\n      dup5\n        /* \"#utility.yul\":2026:2091   */\n      tag_317\n      jump\t// in\n    tag_406:\n        /* \"#utility.yul\":1888:2098   */\n      swap3\n      swap2\n      pop\n      pop\n      jump\t// out\n        /* \"#utility.yul\":2104:2226   */\n    tag_318:\n        /* \"#utility.yul\":2177:2201   */\n      tag_408\n        /* \"#utility.yul\":2195:2200   */\n      dup2\n        /* \"#utility.yul\":2177:2201   */\n      tag_308\n      jump\t// in\n    tag_408:\n        /* \"#utility.yul\":2170:2175   */\n      dup2\n        /* \"#utility.yul\":2167:2202   */\n      eq\n        /* \"#utility.yul\":2157:2220   */\n      tag_409\n      jumpi\n        /* \"#utility.yul\":2216:2217   */\n      0x00\n        /* \"#utility.yul\":2213:2214   */\n      dup1\n        /* \"#utility.yul\":2206:2218   */\n      revert\n        /* \"#utility.yul\":2157:2220   */\n    tag_409:\n        /* \"#utility.yul\":2104:2226   */\n      pop\n      jump\t// out\n        /* \"#utility.yul\":2232:2371   */\n    tag_319:\n        /* \"#utility.yul\":2278:2283   */\n      0x00\n        /* \"#utility.yul\":2316:2322   */\n      dup2\n        /* \"#utility.yul\":2303:2323   */\n      calldataload\n        /* \"#utility.yul\":2294:2323   */\n      swap1\n      pop\n        /* \"#utility.yul\":2332:2365   */\n      tag_411\n        /* \"#utility.yul\":2359:2364   */\n      dup2\n        /* \"#utility.yul\":2332:2365   */\n      tag_318\n      jump\t// in\n    tag_411:\n        /* \"#utility.yul\":2232:2371   */\n      swap3\n      swap2\n      pop\n      pop\n      jump\t// out\n        /* \"#utility.yul\":2377:2454   */\n    tag_320:\n        /* \"#utility.yul\":2414:2421   */\n      0x00\n        /* \"#utility.yul\":2443:2448   */\n      dup2\n        /* \"#utility.yul\":2432:2448   */\n      swap1\n      pop\n        /* \"#utility.yul\":2377:2454   */\n      swap2\n      swap1\n      pop\n      jump\t// out\n        /* \"#utility.yul\":2460:2582   */\n    tag_321:\n        /* \"#utility.yul\":2533:2557   */\n      tag_414\n        /* \"#utility.yul\":2551:2556   */\n      dup2\n        /* \"#utility.yul\":2533:2557   */\n      tag_320\n      jump\t// in\n    tag_414:\n        /* \"#utility.yul\":2526:2531   */\n      dup2\n        /* \"#utility.yul\":2523:2558   */\n      eq\n        /* \"#utility.yul\":2513:2576   */\n      tag_415\n      jumpi\n        /* \"#utility.yul\":2572:2573   */\n      0x00\n        /* \"#utility.yul\":2569:2570   */\n      dup1\n        /* \"#utility.yul\":2562:2574   */\n      revert\n        /* \"#utility.yul\":2513:2576   */\n    tag_415:\n        /* \"#utility.yul\":2460:2582   */\n      pop\n      jump\t// out\n        /* \"#utility.yul\":2588:2727   */\n    tag_322:\n        /* \"#utility.yul\":2634:2639   */\n      0x00\n        /* \"#utility.yul\":2672:2678   */\n      dup2\n        /* \"#utility.yul\":2659:2679   */\n      calldataload\n        /* \"#utility.yul\":2650:2679   */\n      swap1\n      pop\n        /* \"#utility.yul\":2688:2721   */\n      tag_417\n        /* \"#utility.yul\":2715:2720   */\n      dup2\n        /* \"#utility.yul\":2688:2721   */\n      tag_321\n      jump\t// in\n    tag_417:\n        /* \"#utility.yul\":2588:2727   */\n      swap3\n      swap2\n      pop\n      pop\n      jump\t// out\n        /* \"#utility.yul\":2733:2850   */\n    tag_323:\n        /* \"#utility.yul\":2842:2843   */\n      0x00\n        /* \"#utility.yul\":2839:2840   */\n      dup1\n        /* \"#utility.yul\":2832:2844   */\n      revert\n        /* \"#utility.yul\":2856:2973   */\n    tag_324:\n        /* \"#utility.yul\":2965:2966   */\n      0x00\n        /* \"#utility.yul\":2962:2963   */\n      dup1\n        /* \"#utility.yul\":2955:2967   */\n      revert\n        /* \"#utility.yul\":2979:3081   */\n    tag_325:\n        /* \"#utility.yul\":3020:3026   */\n      0x00\n        /* \"#utility.yul\":3071:3073   */\n      0x1f\n        /* \"#utility.yul\":3067:3074   */\n      not\n        /* \"#utility.yul\":3062:3064   */\n      0x1f\n        /* \"#utility.yul\":3055:3060   */\n      dup4\n        /* \"#utility.yul\":3051:3065   */\n      add\n        /* \"#utility.yul\":3047:3075   */\n      and\n        /* \"#utility.yul\":3037:3075   */\n      swap1\n      pop\n        /* \"#utility.yul\":2979:3081   */\n      swap2\n      swap1\n      pop\n      jump\t// out\n        /* \"#utility.yul\":3087:3267   */\n    tag_255:\n        /* \"#utility.yul\":3135:3212   */\n      0x4e487b7100000000000000000000000000000000000000000000000000000000\n        /* \"#utility.yul\":3132:3133   */\n      0x00\n        /* \"#utility.yul\":3125:3213   */\n      mstore\n        /* \"#utility.yul\":3232:3236   */\n      0x41\n        /* \"#utility.yul\":3229:3230   */\n      0x04\n        /* \"#utility.yul\":3222:3237   */\n      mstore\n        /* \"#utility.yul\":3256:3260   */\n      0x24\n        /* \"#utility.yul\":3253:3254   */\n      0x00\n        /* \"#utility.yul\":3246:3261   */\n      revert\n        /* \"#utility.yul\":3273:3554   */\n    tag_326:\n        /* \"#utility.yul\":3356:3383   */\n      tag_423\n        /* \"#utility.yul\":3378:3382   */\n      dup3\n        /* \"#utility.yul\":3356:3383   */\n      tag_325\n      jump\t// in\n    tag_423:\n        /* \"#utility.yul\":3348:3354   */\n      dup2\n        /* \"#utility.yul\":3344:3384   */\n      add\n        /* \"#utility.yul\":3486:3492   */\n      dup2\n        /* \"#utility.yul\":3474:3484   */\n      dup2\n        /* \"#utility.yul\":3471:3493   */\n      lt\n        /* \"#utility.yul\":3450:3468   */\n      0xffffffffffffffff\n        /* \"#utility.yul\":3438:3448   */\n      dup3\n        /* \"#utility.yul\":3435:3469   */\n      gt\n        /* \"#utility.yul\":3432:3494   */\n      or\n        /* \"#utility.yul\":3429:3517   */\n      iszero\n      tag_424\n      jumpi\n        /* \"#utility.yul\":3497:3515   */\n      tag_425\n      tag_255\n      jump\t// in\n    tag_425:\n        /* \"#utility.yul\":3429:3517   */\n    tag_424:\n        /* \"#utility.yul\":3537:3547   */\n      dup1\n        /* \"#utility.yul\":3533:3535   */\n      0x40\n        /* \"#utility.yul\":3526:3548   */\n      mstore\n        /* \"#utility.yul\":3316:3554   */\n      pop\n        /* \"#utility.yul\":3273:3554   */\n      pop\n      pop\n      jump\t// out\n        /* \"#utility.yul\":3560:3689   */\n    tag_327:\n        /* \"#utility.yul\":3594:3600   */\n      0x00\n        /* \"#utility.yul\":3621:3641   */\n      tag_427\n      tag_310\n      jump\t// in\n    tag_427:\n        /* \"#utility.yul\":3611:3641   */\n      swap1\n      pop\n        /* \"#utility.yul\":3650:3683   */\n      tag_428\n        /* \"#utility.yul\":3678:3682   */\n      dup3\n        /* \"#utility.yul\":3670:3676   */\n      dup3\n        /* \"#utility.yul\":3650:3683   */\n      tag_326\n      jump\t// in\n    tag_428:\n        /* \"#utility.yul\":3560:3689   */\n      swap2\n      swap1\n      pop\n      jump\t// out\n        /* \"#utility.yul\":3695:4002   */\n    tag_328:\n        /* \"#utility.yul\":3756:3760   */\n      0x00\n        /* \"#utility.yul\":3846:3864   */\n      0xffffffffffffffff\n        /* \"#utility.yul\":3838:3844   */\n      dup3\n        /* \"#utility.yul\":3835:3865   */\n      gt\n        /* \"#utility.yul\":3832:3888   */\n      iszero\n      tag_430\n      jumpi\n        /* \"#utility.yul\":3868:3886   */\n      tag_431\n      tag_255\n      jump\t// in\n    tag_431:\n        /* \"#utility.yul\":3832:3888   */\n    tag_430:\n        /* \"#utility.yul\":3906:3935   */\n      tag_432\n        /* \"#utility.yul\":3928:3934   */\n      dup3\n        /* \"#utility.yul\":3906:3935   */\n      tag_325\n      jump\t// in\n    tag_432:\n        /* \"#utility.yul\":3898:3935   */\n      swap1\n      pop\n        /* \"#utility.yul\":3990:3994   */\n      0x20\n        /* \"#utility.yul\":3984:3988   */\n      dup2\n        /* \"#utility.yul\":3980:3995   */\n      add\n        /* \"#utility.yul\":3972:3995   */\n      swap1\n      pop\n        /* \"#utility.yul\":3695:4002   */\n      swap2\n      swap1\n      pop\n      jump\t// out\n        /* \"#utility.yul\":4008:4162   */\n    tag_329:\n        /* \"#utility.yul\":4092:4098   */\n      dup3\n        /* \"#utility.yul\":4087:4090   */\n      dup2\n        /* \"#utility.yul\":4082:4085   */\n      dup4\n        /* \"#utility.yul\":4069:4099   */\n      calldatacopy\n        /* \"#utility.yul\":4154:4155   */\n      0x00\n        /* \"#utility.yul\":4145:4151   */\n      dup4\n        /* \"#utility.yul\":4140:4143   */\n      dup4\n        /* \"#utility.yul\":4136:4152   */\n      add\n        /* \"#utility.yul\":4129:4156   */\n      mstore\n        /* \"#utility.yul\":4008:4162   */\n      pop\n      pop\n      pop\n      jump\t// out\n        /* \"#utility.yul\":4168:4578   */\n    tag_330:\n        /* \"#utility.yul\":4245:4250   */\n      0x00\n        /* \"#utility.yul\":4270:4335   */\n      tag_435\n        /* \"#utility.yul\":4286:4334   */\n      tag_436\n        /* \"#utility.yul\":4327:4333   */\n      dup5\n        /* \"#utility.yul\":4286:4334   */\n      tag_328\n      jump\t// in\n    tag_436:\n        /* \"#utility.yul\":4270:4335   */\n      tag_327\n      jump\t// in\n    tag_435:\n        /* \"#utility.yul\":4261:4335   */\n      swap1\n      pop\n        /* \"#utility.yul\":4358:4364   */\n      dup3\n        /* \"#utility.yul\":4351:4356   */\n      dup2\n        /* \"#utility.yul\":4344:4365   */\n      mstore\n        /* \"#utility.yul\":4396:4400   */\n      0x20\n        /* \"#utility.yul\":4389:4394   */\n      dup2\n        /* \"#utility.yul\":4385:4401   */\n      add\n        /* \"#utility.yul\":4434:4437   */\n      dup5\n        /* \"#utility.yul\":4425:4431   */\n      dup5\n        /* \"#utility.yul\":4420:4423   */\n      dup5\n        /* \"#utility.yul\":4416:4432   */\n      add\n        /* \"#utility.yul\":4413:4438   */\n      gt\n        /* \"#utility.yul\":4410:4522   */\n      iszero\n      tag_437\n      jumpi\n        /* \"#utility.yul\":4441:4520   */\n      tag_438\n      tag_324\n      jump\t// in\n    tag_438:\n        /* \"#utility.yul\":4410:4522   */\n    tag_437:\n        /* \"#utility.yul\":4531:4572   */\n      tag_439\n        /* \"#utility.yul\":4565:4571   */\n      dup5\n        /* \"#utility.yul\":4560:4563   */\n      dup3\n        /* \"#utility.yul\":4555:4558   */\n      dup6\n        /* \"#utility.yul\":4531:4572   */\n      tag_329\n      jump\t// in\n    tag_439:\n        /* \"#utility.yul\":4251:4578   */\n      pop\n        /* \"#utility.yul\":4168:4578   */\n      swap4\n      swap3\n      pop\n      pop\n      pop\n      jump\t// out\n        /* \"#utility.yul\":4597:4935   */\n    tag_331:\n        /* \"#utility.yul\":4652:4657   */\n      0x00\n        /* \"#utility.yul\":4701:4704   */\n      dup3\n        /* \"#utility.yul\":4694:4698   */\n      0x1f\n        /* \"#utility.yul\":4686:4692   */\n      dup4\n        /* \"#utility.yul\":4682:4699   */\n      add\n        /* \"#utility.yul\":4678:4705   */\n      slt\n        /* \"#utility.yul\":4668:4790   */\n      tag_441\n      jumpi\n        /* \"#utility.yul\":4709:4788   */\n      tag_442\n      tag_323\n      jump\t// in\n    tag_442:\n        /* \"#utility.yul\":4668:4790   */\n    tag_441:\n        /* \"#utility.yul\":4826:4832   */\n      dup2\n        /* \"#utility.yul\":4813:4833   */\n      calldataload\n        /* \"#utility.yul\":4851:4929   */\n      tag_443\n        /* \"#utility.yul\":4925:4928   */\n      dup5\n        /* \"#utility.yul\":4917:4923   */\n      dup3\n        /* \"#utility.yul\":4910:4914   */\n      0x20\n        /* \"#utility.yul\":4902:4908   */\n      dup7\n        /* \"#utility.yul\":4898:4915   */\n      add\n        /* \"#utility.yul\":4851:4929   */\n      tag_330\n      jump\t// in\n    tag_443:\n        /* \"#utility.yul\":4842:4929   */\n      swap2\n      pop\n        /* \"#utility.yul\":4658:4935   */\n      pop\n        /* \"#utility.yul\":4597:4935   */\n      swap3\n      swap2\n      pop\n      pop\n      jump\t// out\n        /* \"#utility.yul\":4941:5884   */\n    tag_44:\n        /* \"#utility.yul\":5036:5042   */\n      0x00\n        /* \"#utility.yul\":5044:5050   */\n      dup1\n        /* \"#utility.yul\":5052:5058   */\n      0x00\n        /* \"#utility.yul\":5060:5066   */\n      dup1\n        /* \"#utility.yul\":5109:5112   */\n      0x80\n        /* \"#utility.yul\":5097:5106   */\n      dup6\n        /* \"#utility.yul\":5088:5095   */\n      dup8\n        /* \"#utility.yul\":5084:5107   */\n      sub\n        /* \"#utility.yul\":5080:5113   */\n      slt\n        /* \"#utility.yul\":5077:5197   */\n      iszero\n      tag_445\n      jumpi\n        /* \"#utility.yul\":5116:5195   */\n      tag_446\n      tag_311\n      jump\t// in\n    tag_446:\n        /* \"#utility.yul\":5077:5197   */\n    tag_445:\n        /* \"#utility.yul\":5236:5237   */\n      0x00\n        /* \"#utility.yul\":5261:5314   */\n      tag_447\n        /* \"#utility.yul\":5306:5313   */\n      dup8\n        /* \"#utility.yul\":5297:5303   */\n      dup3\n        /* \"#utility.yul\":5286:5295   */\n      dup9\n        /* \"#utility.yul\":5282:5304   */\n      add\n        /* \"#utility.yul\":5261:5314   */\n      tag_319\n      jump\t// in\n    tag_447:\n        /* \"#utility.yul\":5251:5314   */\n      swap5\n      pop\n        /* \"#utility.yul\":5207:5324   */\n      pop\n        /* \"#utility.yul\":5363:5365   */\n      0x20\n        /* \"#utility.yul\":5389:5442   */\n      tag_448\n        /* \"#utility.yul\":5434:5441   */\n      dup8\n        /* \"#utility.yul\":5425:5431   */\n      dup3\n        /* \"#utility.yul\":5414:5423   */\n      dup9\n        /* \"#utility.yul\":5410:5432   */\n      add\n        /* \"#utility.yul\":5389:5442   */\n      tag_319\n      jump\t// in\n    tag_448:\n        /* \"#utility.yul\":5379:5442   */\n      swap4\n      pop\n        /* \"#utility.yul\":5334:5452   */\n      pop\n        /* \"#utility.yul\":5491:5493   */\n      0x40\n        /* \"#utility.yul\":5517:5570   */\n      tag_449\n        /* \"#utility.yul\":5562:5569   */\n      dup8\n        /* \"#utility.yul\":5553:5559   */\n      dup3\n        /* \"#utility.yul\":5542:5551   */\n      dup9\n        /* \"#utility.yul\":5538:5560   */\n      add\n        /* \"#utility.yul\":5517:5570   */\n      tag_322\n      jump\t// in\n    tag_449:\n        /* \"#utility.yul\":5507:5570   */\n      swap3\n      pop\n        /* \"#utility.yul\":5462:5580   */\n      pop\n        /* \"#utility.yul\":5647:5649   */\n      0x60\n        /* \"#utility.yul\":5636:5645   */\n      dup6\n        /* \"#utility.yul\":5632:5650   */\n      add\n        /* \"#utility.yul\":5619:5651   */\n      calldataload\n        /* \"#utility.yul\":5678:5696   */\n      0xffffffffffffffff\n        /* \"#utility.yul\":5670:5676   */\n      dup2\n        /* \"#utility.yul\":5667:5697   */\n      gt\n        /* \"#utility.yul\":5664:5781   */\n      iszero\n      tag_450\n      jumpi\n        /* \"#utility.yul\":5700:5779   */\n      tag_451\n      tag_312\n      jump\t// in\n    tag_451:\n        /* \"#utility.yul\":5664:5781   */\n    tag_450:\n        /* \"#utility.yul\":5805:5867   */\n      tag_452\n        /* \"#utility.yul\":5859:5866   */\n      dup8\n        /* \"#utility.yul\":5850:5856   */\n      dup3\n        /* \"#utility.yul\":5839:5848   */\n      dup9\n        /* \"#utility.yul\":5835:5857   */\n      add\n        /* \"#utility.yul\":5805:5867   */\n      tag_331\n      jump\t// in\n    tag_452:\n        /* \"#utility.yul\":5795:5867   */\n      swap2\n      pop\n        /* \"#utility.yul\":5590:5877   */\n      pop\n        /* \"#utility.yul\":4941:5884   */\n      swap3\n      swap6\n      swap2\n      swap5\n      pop\n      swap3\n      pop\n      jump\t// out\n        /* \"#utility.yul\":5890:6005   */\n    tag_332:\n        /* \"#utility.yul\":5975:5998   */\n      tag_454\n        /* \"#utility.yul\":5992:5997   */\n      dup2\n        /* \"#utility.yul\":5975:5998   */\n      tag_313\n      jump\t// in\n    tag_454:\n        /* \"#utility.yul\":5970:5973   */\n      dup3\n        /* \"#utility.yul\":5963:5999   */\n      mstore\n        /* \"#utility.yul\":5890:6005   */\n      pop\n      pop\n      jump\t// out\n        /* \"#utility.yul\":6011:6229   */\n    tag_47:\n        /* \"#utility.yul\":6102:6106   */\n      0x00\n        /* \"#utility.yul\":6140:6142   */\n      0x20\n        /* \"#utility.yul\":6129:6138   */\n      dup3\n        /* \"#utility.yul\":6125:6143   */\n      add\n        /* \"#utility.yul\":6117:6143   */\n      swap1\n      pop\n        /* \"#utility.yul\":6153:6222   */\n      tag_456\n        /* \"#utility.yul\":6219:6220   */\n      0x00\n        /* \"#utility.yul\":6208:6217   */\n      dup4\n        /* \"#utility.yul\":6204:6221   */\n      add\n        /* \"#utility.yul\":6195:6201   */\n      dup5\n        /* \"#utility.yul\":6153:6222   */\n      tag_332\n      jump\t// in\n    tag_456:\n        /* \"#utility.yul\":6011:6229   */\n      swap3\n      swap2\n      pop\n      pop\n      jump\t// out\n        /* \"#utility.yul\":6235:6709   */\n    tag_51:\n        /* \"#utility.yul\":6303:6309   */\n      0x00\n        /* \"#utility.yul\":6311:6317   */\n      dup1\n        /* \"#utility.yul\":6360:6362   */\n      0x40\n        /* \"#utility.yul\":6348:6357   */\n      dup4\n        /* \"#utility.yul\":6339:6346   */\n      dup6\n        /* \"#utility.yul\":6335:6358   */\n      sub\n        /* \"#utility.yul\":6331:6363   */\n      slt\n        /* \"#utility.yul\":6328:6447   */\n      iszero\n      tag_458\n      jumpi\n        /* \"#utility.yul\":6366:6445   */\n      tag_459\n      tag_311\n      jump\t// in\n    tag_459:\n        /* \"#utility.yul\":6328:6447   */\n    tag_458:\n        /* \"#utility.yul\":6486:6487   */\n      0x00\n        /* \"#utility.yul\":6511:6564   */\n      tag_460\n        /* \"#utility.yul\":6556:6563   */\n      dup6\n        /* \"#utility.yul\":6547:6553   */\n      dup3\n        /* \"#utility.yul\":6536:6545   */\n      dup7\n        /* \"#utility.yul\":6532:6554   */\n      add\n        /* \"#utility.yul\":6511:6564   */\n      tag_319\n      jump\t// in\n    tag_460:\n        /* \"#utility.yul\":6501:6564   */\n      swap3\n      pop\n        /* \"#utility.yul\":6457:6574   */\n      pop\n        /* \"#utility.yul\":6613:6615   */\n      0x20\n        /* \"#utility.yul\":6639:6692   */\n      tag_461\n        /* \"#utility.yul\":6684:6691   */\n      dup6\n        /* \"#utility.yul\":6675:6681   */\n      dup3\n        /* \"#utility.yul\":6664:6673   */\n      dup7\n        /* \"#utility.yul\":6660:6682   */\n      add\n        /* \"#utility.yul\":6639:6692   */\n      tag_322\n      jump\t// in\n    tag_461:\n        /* \"#utility.yul\":6629:6692   */\n      swap2\n      pop\n        /* \"#utility.yul\":6584:6702   */\n      pop\n        /* \"#utility.yul\":6235:6709   */\n      swap3\n      pop\n      swap3\n      swap1\n      pop\n      jump\t// out\n        /* \"#utility.yul\":6715:7044   */\n    tag_56:\n        /* \"#utility.yul\":6774:6780   */\n      0x00\n        /* \"#utility.yul\":6823:6825   */\n      0x20\n        /* \"#utility.yul\":6811:6820   */\n      dup3\n        /* \"#utility.yul\":6802:6809   */\n      dup5\n        /* \"#utility.yul\":6798:6821   */\n      sub\n        /* \"#utility.yul\":6794:6826   */\n      slt\n        /* \"#utility.yul\":6791:6910   */\n      iszero\n      tag_463\n      jumpi\n        /* \"#utility.yul\":6829:6908   */\n      tag_464\n      tag_311\n      jump\t// in\n    tag_464:\n        /* \"#utility.yul\":6791:6910   */\n    tag_463:\n        /* \"#utility.yul\":6949:6950   */\n      0x00\n        /* \"#utility.yul\":6974:7027   */\n      tag_465\n        /* \"#utility.yul\":7019:7026   */\n      dup5\n        /* \"#utility.yul\":7010:7016   */\n      dup3\n        /* \"#utility.yul\":6999:7008   */\n      dup6\n        /* \"#utility.yul\":6995:7017   */\n      add\n        /* \"#utility.yul\":6974:7027   */\n      tag_319\n      jump\t// in\n    tag_465:\n        /* \"#utility.yul\":6964:7027   */\n      swap2\n      pop\n        /* \"#utility.yul\":6920:7037   */\n      pop\n        /* \"#utility.yul\":6715:7044   */\n      swap3\n      swap2\n      pop\n      pop\n      jump\t// out\n        /* \"#utility.yul\":7050:7167   */\n    tag_333:\n        /* \"#utility.yul\":7159:7160   */\n      0x00\n        /* \"#utility.yul\":7156:7157   */\n      dup1\n        /* \"#utility.yul\":7149:7161   */\n      revert\n        /* \"#utility.yul\":7173:7290   */\n    tag_334:\n        /* \"#utility.yul\":7282:7283   */\n      0x00\n        /* \"#utility.yul\":7279:7280   */\n      dup1\n        /* \"#utility.yul\":7272:7284   */\n      revert\n        /* \"#utility.yul\":7309:7861   */\n    tag_335:\n        /* \"#utility.yul\":7366:7374   */\n      0x00\n        /* \"#utility.yul\":7376:7382   */\n      dup1\n        /* \"#utility.yul\":7426:7429   */\n      dup4\n        /* \"#utility.yul\":7419:7423   */\n      0x1f\n        /* \"#utility.yul\":7411:7417   */\n      dup5\n        /* \"#utility.yul\":7407:7424   */\n      add\n        /* \"#utility.yul\":7403:7430   */\n      slt\n        /* \"#utility.yul\":7393:7515   */\n      tag_469\n      jumpi\n        /* \"#utility.yul\":7434:7513   */\n      tag_470\n      tag_323\n      jump\t// in\n    tag_470:\n        /* \"#utility.yul\":7393:7515   */\n    tag_469:\n        /* \"#utility.yul\":7547:7553   */\n      dup3\n        /* \"#utility.yul\":7534:7554   */\n      calldataload\n        /* \"#utility.yul\":7524:7554   */\n      swap1\n      pop\n        /* \"#utility.yul\":7577:7595   */\n      0xffffffffffffffff\n        /* \"#utility.yul\":7569:7575   */\n      dup2\n        /* \"#utility.yul\":7566:7596   */\n      gt\n        /* \"#utility.yul\":7563:7680   */\n      iszero\n      tag_471\n      jumpi\n        /* \"#utility.yul\":7599:7678   */\n      tag_472\n      tag_333\n      jump\t// in\n    tag_472:\n        /* \"#utility.yul\":7563:7680   */\n    tag_471:\n        /* \"#utility.yul\":7713:7717   */\n      0x20\n        /* \"#utility.yul\":7705:7711   */\n      dup4\n        /* \"#utility.yul\":7701:7718   */\n      add\n        /* \"#utility.yul\":7689:7718   */\n      swap2\n      pop\n        /* \"#utility.yul\":7767:7770   */\n      dup4\n        /* \"#utility.yul\":7759:7763   */\n      0x01\n        /* \"#utility.yul\":7751:7757   */\n      dup3\n        /* \"#utility.yul\":7747:7764   */\n      mul\n        /* \"#utility.yul\":7737:7745   */\n      dup4\n        /* \"#utility.yul\":7733:7765   */\n      add\n        /* \"#utility.yul\":7730:7771   */\n      gt\n        /* \"#utility.yul\":7727:7855   */\n      iszero\n      tag_473\n      jumpi\n        /* \"#utility.yul\":7774:7853   */\n      tag_474\n      tag_334\n      jump\t// in\n    tag_474:\n        /* \"#utility.yul\":7727:7855   */\n    tag_473:\n        /* \"#utility.yul\":7309:7861   */\n      swap3\n      pop\n      swap3\n      swap1\n      pop\n      jump\t// out\n        /* \"#utility.yul\":7867:8684   */\n    tag_63:\n        /* \"#utility.yul\":7955:7961   */\n      0x00\n        /* \"#utility.yul\":7963:7969   */\n      dup1\n        /* \"#utility.yul\":7971:7977   */\n      0x00\n        /* \"#utility.yul\":7979:7985   */\n      dup1\n        /* \"#utility.yul\":8028:8030   */\n      0x60\n        /* \"#utility.yul\":8016:8025   */\n      dup6\n        /* \"#utility.yul\":8007:8014   */\n      dup8\n        /* \"#utility.yul\":8003:8026   */\n      sub\n        /* \"#utility.yul\":7999:8031   */\n      slt\n        /* \"#utility.yul\":7996:8115   */\n      iszero\n      tag_476\n      jumpi\n        /* \"#utility.yul\":8034:8113   */\n      tag_477\n      tag_311\n      jump\t// in\n    tag_477:\n        /* \"#utility.yul\":7996:8115   */\n    tag_476:\n        /* \"#utility.yul\":8154:8155   */\n      0x00\n        /* \"#utility.yul\":8179:8232   */\n      tag_478\n        /* \"#utility.yul\":8224:8231   */\n      dup8\n        /* \"#utility.yul\":8215:8221   */\n      dup3\n        /* \"#utility.yul\":8204:8213   */\n      dup9\n        /* \"#utility.yul\":8200:8222   */\n      add\n        /* \"#utility.yul\":8179:8232   */\n      tag_319\n      jump\t// in\n    tag_478:\n        /* \"#utility.yul\":8169:8232   */\n      swap5\n      pop\n        /* \"#utility.yul\":8125:8242   */\n      pop\n        /* \"#utility.yul\":8281:8283   */\n      0x20\n        /* \"#utility.yul\":8307:8360   */\n      tag_479\n        /* \"#utility.yul\":8352:8359   */\n      dup8\n        /* \"#utility.yul\":8343:8349   */\n      dup3\n        /* \"#utility.yul\":8332:8341   */\n      dup9\n        /* \"#utility.yul\":8328:8350   */\n      add\n        /* \"#utility.yul\":8307:8360   */\n      tag_322\n      jump\t// in\n    tag_479:\n        /* \"#utility.yul\":8297:8360   */\n      swap4\n      pop\n        /* \"#utility.yul\":8252:8370   */\n      pop\n        /* \"#utility.yul\":8437:8439   */\n      0x40\n        /* \"#utility.yul\":8426:8435   */\n      dup6\n        /* \"#utility.yul\":8422:8440   */\n      add\n        /* \"#utility.yul\":8409:8441   */\n      calldataload\n        /* \"#utility.yul\":8468:8486   */\n      0xffffffffffffffff\n        /* \"#utility.yul\":8460:8466   */\n      dup2\n        /* \"#utility.yul\":8457:8487   */\n      gt\n        /* \"#utility.yul\":8454:8571   */\n      iszero\n      tag_480\n      jumpi\n        /* \"#utility.yul\":8490:8569   */\n      tag_481\n      tag_312\n      jump\t// in\n    tag_481:\n        /* \"#utility.yul\":8454:8571   */\n    tag_480:\n        /* \"#utility.yul\":8603:8667   */\n      tag_482\n        /* \"#utility.yul\":8659:8666   */\n      dup8\n        /* \"#utility.yul\":8650:8656   */\n      dup3\n        /* \"#utility.yul\":8639:8648   */\n      dup9\n        /* \"#utility.yul\":8635:8657   */\n      add\n        /* \"#utility.yul\":8603:8667   */\n      tag_335\n      jump\t// in\n    tag_482:\n        /* \"#utility.yul\":8585:8667   */\n      swap3\n      pop\n      swap3\n      pop\n        /* \"#utility.yul\":8380:8677   */\n      pop\n        /* \"#utility.yul\":7867:8684   */\n      swap3\n      swap6\n      swap2\n      swap5\n      pop\n      swap3\n      pop\n      jump\t// out\n        /* \"#utility.yul\":8690:8788   */\n    tag_336:\n        /* \"#utility.yul\":8741:8747   */\n      0x00\n        /* \"#utility.yul\":8775:8780   */\n      dup2\n        /* \"#utility.yul\":8769:8781   */\n      mload\n        /* \"#utility.yul\":8759:8781   */\n      swap1\n      pop\n        /* \"#utility.yul\":8690:8788   */\n      swap2\n      swap1\n      pop\n      jump\t// out\n        /* \"#utility.yul\":8794:8962   */\n    tag_337:\n        /* \"#utility.yul\":8877:8888   */\n      0x00\n        /* \"#utility.yul\":8911:8917   */\n      dup3\n        /* \"#utility.yul\":8906:8909   */\n      dup3\n        /* \"#utility.yul\":8899:8918   */\n      mstore\n        /* \"#utility.yul\":8951:8955   */\n      0x20\n        /* \"#utility.yul\":8946:8949   */\n      dup3\n        /* \"#utility.yul\":8942:8956   */\n      add\n        /* \"#utility.yul\":8927:8956   */\n      swap1\n      pop\n        /* \"#utility.yul\":8794:8962   */\n      swap3\n      swap2\n      pop\n      pop\n      jump\t// out\n        /* \"#utility.yul\":8968:9275   */\n    tag_338:\n        /* \"#utility.yul\":9036:9037   */\n      0x00\n        /* \"#utility.yul\":9046:9159   */\n    tag_486:\n        /* \"#utility.yul\":9060:9066   */\n      dup4\n        /* \"#utility.yul\":9057:9058   */\n      dup2\n        /* \"#utility.yul\":9054:9067   */\n      lt\n        /* \"#utility.yul\":9046:9159   */\n      iszero\n      tag_488\n      jumpi\n        /* \"#utility.yul\":9145:9146   */\n      dup1\n        /* \"#utility.yul\":9140:9143   */\n      dup3\n        /* \"#utility.yul\":9136:9147   */\n      add\n        /* \"#utility.yul\":9130:9148   */\n      mload\n        /* \"#utility.yul\":9126:9127   */\n      dup2\n        /* \"#utility.yul\":9121:9124   */\n      dup5\n        /* \"#utility.yul\":9117:9128   */\n      add\n        /* \"#utility.yul\":9110:9149   */\n      mstore\n        /* \"#utility.yul\":9082:9084   */\n      0x20\n        /* \"#utility.yul\":9079:9080   */\n      dup2\n        /* \"#utility.yul\":9075:9085   */\n      add\n        /* \"#utility.yul\":9070:9085   */\n      swap1\n      pop\n        /* \"#utility.yul\":9046:9159   */\n      jump(tag_486)\n    tag_488:\n        /* \"#utility.yul\":9177:9183   */\n      dup4\n        /* \"#utility.yul\":9174:9175   */\n      dup2\n        /* \"#utility.yul\":9171:9184   */\n      gt\n        /* \"#utility.yul\":9168:9269   */\n      iszero\n      tag_489\n      jumpi\n        /* \"#utility.yul\":9257:9258   */\n      0x00\n        /* \"#utility.yul\":9248:9254   */\n      dup5\n        /* \"#utility.yul\":9243:9246   */\n      dup5\n        /* \"#utility.yul\":9239:9255   */\n      add\n        /* \"#utility.yul\":9232:9259   */\n      mstore\n        /* \"#utility.yul\":9168:9269   */\n    tag_489:\n        /* \"#utility.yul\":9017:9275   */\n      pop\n        /* \"#utility.yul\":8968:9275   */\n      pop\n      pop\n      pop\n      jump\t// out\n        /* \"#utility.yul\":9281:9641   */\n    tag_339:\n        /* \"#utility.yul\":9367:9370   */\n      0x00\n        /* \"#utility.yul\":9395:9433   */\n      tag_491\n        /* \"#utility.yul\":9427:9432   */\n      dup3\n        /* \"#utility.yul\":9395:9433   */\n      tag_336\n      jump\t// in\n    tag_491:\n        /* \"#utility.yul\":9449:9519   */\n      tag_492\n        /* \"#utility.yul\":9512:9518   */\n      dup2\n        /* \"#utility.yul\":9507:9510   */\n      dup6\n        /* \"#utility.yul\":9449:9519   */\n      tag_337\n      jump\t// in\n    tag_492:\n        /* \"#utility.yul\":9442:9519   */\n      swap4\n      pop\n        /* \"#utility.yul\":9528:9580   */\n      tag_493\n        /* \"#utility.yul\":9573:9579   */\n      dup2\n        /* \"#utility.yul\":9568:9571   */\n      dup6\n        /* \"#utility.yul\":9561:9565   */\n      0x20\n        /* \"#utility.yul\":9554:9559   */\n      dup7\n        /* \"#utility.yul\":9550:9566   */\n      add\n        /* \"#utility.yul\":9528:9580   */\n      tag_338\n      jump\t// in\n    tag_493:\n        /* \"#utility.yul\":9605:9634   */\n      tag_494\n        /* \"#utility.yul\":9627:9633   */\n      dup2\n        /* \"#utility.yul\":9605:9634   */\n      tag_325\n      jump\t// in\n    tag_494:\n        /* \"#utility.yul\":9600:9603   */\n      dup5\n        /* \"#utility.yul\":9596:9635   */\n      add\n        /* \"#utility.yul\":9589:9635   */\n      swap2\n      pop\n        /* \"#utility.yul\":9371:9641   */\n      pop\n        /* \"#utility.yul\":9281:9641   */\n      swap3\n      swap2\n      pop\n      pop\n      jump\t// out\n        /* \"#utility.yul\":9647:9956   */\n    tag_66:\n        /* \"#utility.yul\":9758:9762   */\n      0x00\n        /* \"#utility.yul\":9796:9798   */\n      0x20\n        /* \"#utility.yul\":9785:9794   */\n      dup3\n        /* \"#utility.yul\":9781:9799   */\n      add\n        /* \"#utility.yul\":9773:9799   */\n      swap1\n      pop\n        /* \"#utility.yul\":9845:9854   */\n      dup2\n        /* \"#utility.yul\":9839:9843   */\n      dup2\n        /* \"#utility.yul\":9835:9855   */\n      sub\n        /* \"#utility.yul\":9831:9832   */\n      0x00\n        /* \"#utility.yul\":9820:9829   */\n      dup4\n        /* \"#utility.yul\":9816:9833   */\n      add\n        /* \"#utility.yul\":9809:9856   */\n      mstore\n        /* \"#utility.yul\":9873:9949   */\n      tag_496\n        /* \"#utility.yul\":9944:9948   */\n      dup2\n        /* \"#utility.yul\":9935:9941   */\n      dup5\n        /* \"#utility.yul\":9873:9949   */\n      tag_339\n      jump\t// in\n    tag_496:\n        /* \"#utility.yul\":9865:9949   */\n      swap1\n      pop\n        /* \"#utility.yul\":9647:9956   */\n      swap3\n      swap2\n      pop\n      pop\n      jump\t// out\n        /* \"#utility.yul\":9962:10078   */\n    tag_340:\n        /* \"#utility.yul\":10032:10053   */\n      tag_498\n        /* \"#utility.yul\":10047:10052   */\n      dup2\n        /* \"#utility.yul\":10032:10053   */\n      tag_316\n      jump\t// in\n    tag_498:\n        /* \"#utility.yul\":10025:10030   */\n      dup2\n        /* \"#utility.yul\":10022:10054   */\n      eq\n        /* \"#utility.yul\":10012:10072   */\n      tag_499\n      jumpi\n        /* \"#utility.yul\":10068:10069   */\n      0x00\n        /* \"#utility.yul\":10065:10066   */\n      dup1\n        /* \"#utility.yul\":10058:10070   */\n      revert\n        /* \"#utility.yul\":10012:10072   */\n    tag_499:\n        /* \"#utility.yul\":9962:10078   */\n      pop\n      jump\t// out\n        /* \"#utility.yul\":10084:10217   */\n    tag_341:\n        /* \"#utility.yul\":10127:10132   */\n      0x00\n        /* \"#utility.yul\":10165:10171   */\n      dup2\n        /* \"#utility.yul\":10152:10172   */\n      calldataload\n        /* \"#utility.yul\":10143:10172   */\n      swap1\n      pop\n        /* \"#utility.yul\":10181:10211   */\n      tag_501\n        /* \"#utility.yul\":10205:10210   */\n      dup2\n        /* \"#utility.yul\":10181:10211   */\n      tag_340\n      jump\t// in\n    tag_501:\n        /* \"#utility.yul\":10084:10217   */\n      swap3\n      swap2\n      pop\n      pop\n      jump\t// out\n        /* \"#utility.yul\":10223:10546   */\n    tag_74:\n        /* \"#utility.yul\":10279:10285   */\n      0x00\n        /* \"#utility.yul\":10328:10330   */\n      0x20\n        /* \"#utility.yul\":10316:10325   */\n      dup3\n        /* \"#utility.yul\":10307:10314   */\n      dup5\n        /* \"#utility.yul\":10303:10326   */\n      sub\n        /* \"#utility.yul\":10299:10331   */\n      slt\n        /* \"#utility.yul\":10296:10415   */\n      iszero\n      tag_503\n      jumpi\n        /* \"#utility.yul\":10334:10413   */\n      tag_504\n      tag_311\n      jump\t// in\n    tag_504:\n        /* \"#utility.yul\":10296:10415   */\n    tag_503:\n        /* \"#utility.yul\":10454:10455   */\n      0x00\n        /* \"#utility.yul\":10479:10529   */\n      tag_505\n        /* \"#utility.yul\":10521:10528   */\n      dup5\n        /* \"#utility.yul\":10512:10518   */\n      dup3\n        /* \"#utility.yul\":10501:10510   */\n      dup6\n        /* \"#utility.yul\":10497:10519   */\n      add\n        /* \"#utility.yul\":10479:10529   */\n      tag_341\n      jump\t// in\n    tag_505:\n        /* \"#utility.yul\":10469:10529   */\n      swap2\n      pop\n        /* \"#utility.yul\":10425:10539   */\n      pop\n        /* \"#utility.yul\":10223:10546   */\n      swap3\n      swap2\n      pop\n      pop\n      jump\t// out\n        /* \"#utility.yul\":10569:11137   */\n    tag_342:\n        /* \"#utility.yul\":10642:10650   */\n      0x00\n        /* \"#utility.yul\":10652:10658   */\n      dup1\n        /* \"#utility.yul\":10702:10705   */\n      dup4\n        /* \"#utility.yul\":10695:10699   */\n      0x1f\n        /* \"#utility.yul\":10687:10693   */\n      dup5\n        /* \"#utility.yul\":10683:10700   */\n      add\n        /* \"#utility.yul\":10679:10706   */\n      slt\n        /* \"#utility.yul\":10669:10791   */\n      tag_507\n      jumpi\n        /* \"#utility.yul\":10710:10789   */\n      tag_508\n      tag_323\n      jump\t// in\n    tag_508:\n        /* \"#utility.yul\":10669:10791   */\n    tag_507:\n        /* \"#utility.yul\":10823:10829   */\n      dup3\n        /* \"#utility.yul\":10810:10830   */\n      calldataload\n        /* \"#utility.yul\":10800:10830   */\n      swap1\n      pop\n        /* \"#utility.yul\":10853:10871   */\n      0xffffffffffffffff\n        /* \"#utility.yul\":10845:10851   */\n      dup2\n        /* \"#utility.yul\":10842:10872   */\n      gt\n        /* \"#utility.yul\":10839:10956   */\n      iszero\n      tag_509\n      jumpi\n        /* \"#utility.yul\":10875:10954   */\n      tag_510\n      tag_333\n      jump\t// in\n    tag_510:\n        /* \"#utility.yul\":10839:10956   */\n    tag_509:\n        /* \"#utility.yul\":10989:10993   */\n      0x20\n        /* \"#utility.yul\":10981:10987   */\n      dup4\n        /* \"#utility.yul\":10977:10994   */\n      add\n        /* \"#utility.yul\":10965:10994   */\n      swap2\n      pop\n        /* \"#utility.yul\":11043:11046   */\n      dup4\n        /* \"#utility.yul\":11035:11039   */\n      0x20\n        /* \"#utility.yul\":11027:11033   */\n      dup3\n        /* \"#utility.yul\":11023:11040   */\n      mul\n        /* \"#utility.yul\":11013:11021   */\n      dup4\n        /* \"#utility.yul\":11009:11041   */\n      add\n        /* \"#utility.yul\":11006:11047   */\n      gt\n        /* \"#utility.yul\":11003:11131   */\n      iszero\n      tag_511\n      jumpi\n        /* \"#utility.yul\":11050:11129   */\n      tag_512\n      tag_334\n      jump\t// in\n    tag_512:\n        /* \"#utility.yul\":11003:11131   */\n    tag_511:\n        /* \"#utility.yul\":10569:11137   */\n      swap3\n      pop\n      swap3\n      swap1\n      pop\n      jump\t// out\n        /* \"#utility.yul\":11143:12712   */\n    tag_83:\n        /* \"#utility.yul\":11303:11309   */\n      0x00\n        /* \"#utility.yul\":11311:11317   */\n      dup1\n        /* \"#utility.yul\":11319:11325   */\n      0x00\n        /* \"#utility.yul\":11327:11333   */\n      dup1\n        /* \"#utility.yul\":11335:11341   */\n      0x00\n        /* \"#utility.yul\":11343:11349   */\n      dup1\n        /* \"#utility.yul\":11351:11357   */\n      0x00\n        /* \"#utility.yul\":11359:11365   */\n      dup1\n        /* \"#utility.yul\":11408:11411   */\n      0xa0\n        /* \"#utility.yul\":11396:11405   */\n      dup10\n        /* \"#utility.yul\":11387:11394   */\n      dup12\n        /* \"#utility.yul\":11383:11406   */\n      sub\n        /* \"#utility.yul\":11379:11412   */\n      slt\n        /* \"#utility.yul\":11376:11496   */\n      iszero\n      tag_514\n      jumpi\n        /* \"#utility.yul\":11415:11494   */\n      tag_515\n      tag_311\n      jump\t// in\n    tag_515:\n        /* \"#utility.yul\":11376:11496   */\n    tag_514:\n        /* \"#utility.yul\":11535:11536   */\n      0x00\n        /* \"#utility.yul\":11560:11613   */\n      tag_516\n        /* \"#utility.yul\":11605:11612   */\n      dup12\n        /* \"#utility.yul\":11596:11602   */\n      dup3\n        /* \"#utility.yul\":11585:11594   */\n      dup13\n        /* \"#utility.yul\":11581:11603   */\n      add\n        /* \"#utility.yul\":11560:11613   */\n      tag_319\n      jump\t// in\n    tag_516:\n        /* \"#utility.yul\":11550:11613   */\n      swap9\n      pop\n        /* \"#utility.yul\":11506:11623   */\n      pop\n        /* \"#utility.yul\":11662:11664   */\n      0x20\n        /* \"#utility.yul\":11688:11741   */\n      tag_517\n        /* \"#utility.yul\":11733:11740   */\n      dup12\n        /* \"#utility.yul\":11724:11730   */\n      dup3\n        /* \"#utility.yul\":11713:11722   */\n      dup13\n        /* \"#utility.yul\":11709:11731   */\n      add\n        /* \"#utility.yul\":11688:11741   */\n      tag_319\n      jump\t// in\n    tag_517:\n        /* \"#utility.yul\":11678:11741   */\n      swap8\n      pop\n        /* \"#utility.yul\":11633:11751   */\n      pop\n        /* \"#utility.yul\":11818:11820   */\n      0x40\n        /* \"#utility.yul\":11807:11816   */\n      dup10\n        /* \"#utility.yul\":11803:11821   */\n      add\n        /* \"#utility.yul\":11790:11822   */\n      calldataload\n        /* \"#utility.yul\":11849:11867   */\n      0xffffffffffffffff\n        /* \"#utility.yul\":11841:11847   */\n      dup2\n        /* \"#utility.yul\":11838:11868   */\n      gt\n        /* \"#utility.yul\":11835:11952   */\n      iszero\n      tag_518\n      jumpi\n        /* \"#utility.yul\":11871:11950   */\n      tag_519\n      tag_312\n      jump\t// in\n    tag_519:\n        /* \"#utility.yul\":11835:11952   */\n    tag_518:\n        /* \"#utility.yul\":11984:12064   */\n      tag_520\n        /* \"#utility.yul\":12056:12063   */\n      dup12\n        /* \"#utility.yul\":12047:12053   */\n      dup3\n        /* \"#utility.yul\":12036:12045   */\n      dup13\n        /* \"#utility.yul\":12032:12054   */\n      add\n        /* \"#utility.yul\":11984:12064   */\n      tag_342\n      jump\t// in\n    tag_520:\n        /* \"#utility.yul\":11966:12064   */\n      swap7\n      pop\n      swap7\n      pop\n        /* \"#utility.yul\":11761:12074   */\n      pop\n        /* \"#utility.yul\":12141:12143   */\n      0x60\n        /* \"#utility.yul\":12130:12139   */\n      dup10\n        /* \"#utility.yul\":12126:12144   */\n      add\n        /* \"#utility.yul\":12113:12145   */\n      calldataload\n        /* \"#utility.yul\":12172:12190   */\n      0xffffffffffffffff\n        /* \"#utility.yul\":12164:12170   */\n      dup2\n        /* \"#utility.yul\":12161:12191   */\n      gt\n        /* \"#utility.yul\":12158:12275   */\n      iszero\n      tag_521\n      jumpi\n        /* \"#utility.yul\":12194:12273   */\n      tag_522\n      tag_312\n      jump\t// in\n    tag_522:\n        /* \"#utility.yul\":12158:12275   */\n    tag_521:\n        /* \"#utility.yul\":12307:12387   */\n      tag_523\n        /* \"#utility.yul\":12379:12386   */\n      dup12\n        /* \"#utility.yul\":12370:12376   */\n      dup3\n        /* \"#utility.yul\":12359:12368   */\n      dup13\n        /* \"#utility.yul\":12355:12377   */\n      add\n        /* \"#utility.yul\":12307:12387   */\n      tag_342\n      jump\t// in\n    tag_523:\n        /* \"#utility.yul\":12289:12387   */\n      swap5\n      pop\n      swap5\n      pop\n        /* \"#utility.yul\":12084:12397   */\n      pop\n        /* \"#utility.yul\":12464:12467   */\n      0x80\n        /* \"#utility.yul\":12453:12462   */\n      dup10\n        /* \"#utility.yul\":12449:12468   */\n      add\n        /* \"#utility.yul\":12436:12469   */\n      calldataload\n        /* \"#utility.yul\":12496:12514   */\n      0xffffffffffffffff\n        /* \"#utility.yul\":12488:12494   */\n      dup2\n        /* \"#utility.yul\":12485:12515   */\n      gt\n        /* \"#utility.yul\":12482:12599   */\n      iszero\n      tag_524\n      jumpi\n        /* \"#utility.yul\":12518:12597   */\n      tag_525\n      tag_312\n      jump\t// in\n    tag_525:\n        /* \"#utility.yul\":12482:12599   */\n    tag_524:\n        /* \"#utility.yul\":12631:12695   */\n      tag_526\n        /* \"#utility.yul\":12687:12694   */\n      dup12\n        /* \"#utility.yul\":12678:12684   */\n      dup3\n        /* \"#utility.yul\":12667:12676   */\n      dup13\n        /* \"#utility.yul\":12663:12685   */\n      add\n        /* \"#utility.yul\":12631:12695   */\n      tag_335\n      jump\t// in\n    tag_526:\n        /* \"#utility.yul\":12613:12695   */\n      swap3\n      pop\n      swap3\n      pop\n        /* \"#utility.yul\":12407:12705   */\n      pop\n        /* \"#utility.yul\":11143:12712   */\n      swap3\n      swap6\n      swap9\n      pop\n      swap3\n      swap6\n      swap9\n      swap1\n      swap4\n      swap7\n      pop\n      jump\t// out\n        /* \"#utility.yul\":12718:13325   */\n    tag_89:\n        /* \"#utility.yul\":12789:12795   */\n      0x00\n        /* \"#utility.yul\":12797:12803   */\n      dup1\n        /* \"#utility.yul\":12805:12811   */\n      0x00\n        /* \"#utility.yul\":12854:12856   */\n      0x60\n        /* \"#utility.yul\":12842:12851   */\n      dup5\n        /* \"#utility.yul\":12833:12840   */\n      dup7\n        /* \"#utility.yul\":12829:12852   */\n      sub\n        /* \"#utility.yul\":12825:12857   */\n      slt\n        /* \"#utility.yul\":12822:12941   */\n      iszero\n      tag_528\n      jumpi\n        /* \"#utility.yul\":12860:12939   */\n      tag_529\n      tag_311\n      jump\t// in\n    tag_529:\n        /* \"#utility.yul\":12822:12941   */\n    tag_528:\n        /* \"#utility.yul\":12980:12981   */\n      0x00\n        /* \"#utility.yul\":13005:13058   */\n      tag_530\n        /* \"#utility.yul\":13050:13057   */\n      dup7\n        /* \"#utility.yul\":13041:13047   */\n      dup3\n        /* \"#utility.yul\":13030:13039   */\n      dup8\n        /* \"#utility.yul\":13026:13048   */\n      add\n        /* \"#utility.yul\":13005:13058   */\n      tag_319\n      jump\t// in\n    tag_530:\n        /* \"#utility.yul\":12995:13058   */\n      swap4\n      pop\n        /* \"#utility.yul\":12951:13068   */\n      pop\n        /* \"#utility.yul\":13107:13109   */\n      0x20\n        /* \"#utility.yul\":13133:13183   */\n      tag_531\n        /* \"#utility.yul\":13175:13182   */\n      dup7\n        /* \"#utility.yul\":13166:13172   */\n      dup3\n        /* \"#utility.yul\":13155:13164   */\n      dup8\n        /* \"#utility.yul\":13151:13173   */\n      add\n        /* \"#utility.yul\":13133:13183   */\n      tag_341\n      jump\t// in\n    tag_531:\n        /* \"#utility.yul\":13123:13183   */\n      swap3\n      pop\n        /* \"#utility.yul\":13078:13193   */\n      pop\n        /* \"#utility.yul\":13232:13234   */\n      0x40\n        /* \"#utility.yul\":13258:13308   */\n      tag_532\n        /* \"#utility.yul\":13300:13307   */\n      dup7\n        /* \"#utility.yul\":13291:13297   */\n      dup3\n        /* \"#utility.yul\":13280:13289   */\n      dup8\n        /* \"#utility.yul\":13276:13298   */\n      add\n        /* \"#utility.yul\":13258:13308   */\n      tag_341\n      jump\t// in\n    tag_532:\n        /* \"#utility.yul\":13248:13308   */\n      swap2\n      pop\n        /* \"#utility.yul\":13203:13318   */\n      pop\n        /* \"#utility.yul\":12718:13325   */\n      swap3\n      pop\n      swap3\n      pop\n      swap3\n      jump\t// out\n        /* \"#utility.yul\":13331:14035   */\n    tag_98:\n        /* \"#utility.yul\":13426:13432   */\n      0x00\n        /* \"#utility.yul\":13434:13440   */\n      dup1\n        /* \"#utility.yul\":13442:13448   */\n      0x00\n        /* \"#utility.yul\":13491:13493   */\n      0x40\n        /* \"#utility.yul\":13479:13488   */\n      dup5\n        /* \"#utility.yul\":13470:13477   */\n      dup7\n        /* \"#utility.yul\":13466:13489   */\n      sub\n        /* \"#utility.yul\":13462:13494   */\n      slt\n        /* \"#utility.yul\":13459:13578   */\n      iszero\n      tag_534\n      jumpi\n        /* \"#utility.yul\":13497:13576   */\n      tag_535\n      tag_311\n      jump\t// in\n    tag_535:\n        /* \"#utility.yul\":13459:13578   */\n    tag_534:\n        /* \"#utility.yul\":13617:13618   */\n      0x00\n        /* \"#utility.yul\":13642:13695   */\n      tag_536\n        /* \"#utility.yul\":13687:13694   */\n      dup7\n        /* \"#utility.yul\":13678:13684   */\n      dup3\n        /* \"#utility.yul\":13667:13676   */\n      dup8\n        /* \"#utility.yul\":13663:13685   */\n      add\n        /* \"#utility.yul\":13642:13695   */\n      tag_319\n      jump\t// in\n    tag_536:\n        /* \"#utility.yul\":13632:13695   */\n      swap4\n      pop\n        /* \"#utility.yul\":13588:13705   */\n      pop\n        /* \"#utility.yul\":13772:13774   */\n      0x20\n        /* \"#utility.yul\":13761:13770   */\n      dup5\n        /* \"#utility.yul\":13757:13775   */\n      add\n        /* \"#utility.yul\":13744:13776   */\n      calldataload\n        /* \"#utility.yul\":13803:13821   */\n      0xffffffffffffffff\n        /* \"#utility.yul\":13795:13801   */\n      dup2\n        /* \"#utility.yul\":13792:13822   */\n      gt\n        /* \"#utility.yul\":13789:13906   */\n      iszero\n      tag_537\n      jumpi\n        /* \"#utility.yul\":13825:13904   */\n      tag_538\n      tag_312\n      jump\t// in\n    tag_538:\n        /* \"#utility.yul\":13789:13906   */\n    tag_537:\n        /* \"#utility.yul\":13938:14018   */\n      tag_539\n        /* \"#utility.yul\":14010:14017   */\n      dup7\n        /* \"#utility.yul\":14001:14007   */\n      dup3\n        /* \"#utility.yul\":13990:13999   */\n      dup8\n        /* \"#utility.yul\":13986:14008   */\n      add\n        /* \"#utility.yul\":13938:14018   */\n      tag_342\n      jump\t// in\n    tag_539:\n        /* \"#utility.yul\":13920:14018   */\n      swap3\n      pop\n      swap3\n      pop\n        /* \"#utility.yul\":13715:14028   */\n      pop\n        /* \"#utility.yul\":13331:14035   */\n      swap3\n      pop\n      swap3\n      pop\n      swap3\n      jump\t// out\n        /* \"#utility.yul\":14041:15150   */\n    tag_103:\n        /* \"#utility.yul\":14147:14153   */\n      0x00\n        /* \"#utility.yul\":14155:14161   */\n      dup1\n        /* \"#utility.yul\":14163:14169   */\n      0x00\n        /* \"#utility.yul\":14171:14177   */\n      dup1\n        /* \"#utility.yul\":14179:14185   */\n      0x00\n        /* \"#utility.yul\":14187:14193   */\n      dup1\n        /* \"#utility.yul\":14236:14239   */\n      0xa0\n        /* \"#utility.yul\":14224:14233   */\n      dup8\n        /* \"#utility.yul\":14215:14222   */\n      dup10\n        /* \"#utility.yul\":14211:14234   */\n      sub\n        /* \"#utility.yul\":14207:14240   */\n      slt\n        /* \"#utility.yul\":14204:14324   */\n      iszero\n      tag_541\n      jumpi\n        /* \"#utility.yul\":14243:14322   */\n      tag_542\n      tag_311\n      jump\t// in\n    tag_542:\n        /* \"#utility.yul\":14204:14324   */\n    tag_541:\n        /* \"#utility.yul\":14363:14364   */\n      0x00\n        /* \"#utility.yul\":14388:14441   */\n      tag_543\n        /* \"#utility.yul\":14433:14440   */\n      dup10\n        /* \"#utility.yul\":14424:14430   */\n      dup3\n        /* \"#utility.yul\":14413:14422   */\n      dup11\n        /* \"#utility.yul\":14409:14431   */\n      add\n        /* \"#utility.yul\":14388:14441   */\n      tag_319\n      jump\t// in\n    tag_543:\n        /* \"#utility.yul\":14378:14441   */\n      swap7\n      pop\n        /* \"#utility.yul\":14334:14451   */\n      pop\n        /* \"#utility.yul\":14490:14492   */\n      0x20\n        /* \"#utility.yul\":14516:14569   */\n      tag_544\n        /* \"#utility.yul\":14561:14568   */\n      dup10\n        /* \"#utility.yul\":14552:14558   */\n      dup3\n        /* \"#utility.yul\":14541:14550   */\n      dup11\n        /* \"#utility.yul\":14537:14559   */\n      add\n        /* \"#utility.yul\":14516:14569   */\n      tag_319\n      jump\t// in\n    tag_544:\n        /* \"#utility.yul\":14506:14569   */\n      swap6\n      pop\n        /* \"#utility.yul\":14461:14579   */\n      pop\n        /* \"#utility.yul\":14618:14620   */\n      0x40\n        /* \"#utility.yul\":14644:14697   */\n      tag_545\n        /* \"#utility.yul\":14689:14696   */\n      dup10\n        /* \"#utility.yul\":14680:14686   */\n      dup3\n        /* \"#utility.yul\":14669:14678   */\n      dup11\n        /* \"#utility.yul\":14665:14687   */\n      add\n        /* \"#utility.yul\":14644:14697   */\n      tag_322\n      jump\t// in\n    tag_545:\n        /* \"#utility.yul\":14634:14697   */\n      swap5\n      pop\n        /* \"#utility.yul\":14589:14707   */\n      pop\n        /* \"#utility.yul\":14746:14748   */\n      0x60\n        /* \"#utility.yul\":14772:14825   */\n      tag_546\n        /* \"#utility.yul\":14817:14824   */\n      dup10\n        /* \"#utility.yul\":14808:14814   */\n      dup3\n        /* \"#utility.yul\":14797:14806   */\n      dup11\n        /* \"#utility.yul\":14793:14815   */\n      add\n        /* \"#utility.yul\":14772:14825   */\n      tag_322\n      jump\t// in\n    tag_546:\n        /* \"#utility.yul\":14762:14825   */\n      swap4\n      pop\n        /* \"#utility.yul\":14717:14835   */\n      pop\n        /* \"#utility.yul\":14902:14905   */\n      0x80\n        /* \"#utility.yul\":14891:14900   */\n      dup8\n        /* \"#utility.yul\":14887:14906   */\n      add\n        /* \"#utility.yul\":14874:14907   */\n      calldataload\n        /* \"#utility.yul\":14934:14952   */\n      0xffffffffffffffff\n        /* \"#utility.yul\":14926:14932   */\n      dup2\n        /* \"#utility.yul\":14923:14953   */\n      gt\n        /* \"#utility.yul\":14920:15037   */\n      iszero\n      tag_547\n      jumpi\n        /* \"#utility.yul\":14956:15035   */\n      tag_548\n      tag_312\n      jump\t// in\n    tag_548:\n        /* \"#utility.yul\":14920:15037   */\n    tag_547:\n        /* \"#utility.yul\":15069:15133   */\n      tag_549\n        /* \"#utility.yul\":15125:15132   */\n      dup10\n        /* \"#utility.yul\":15116:15122   */\n      dup3\n        /* \"#utility.yul\":15105:15114   */\n      dup11\n        /* \"#utility.yul\":15101:15123   */\n      add\n        /* \"#utility.yul\":15069:15133   */\n      tag_335\n      jump\t// in\n    tag_549:\n        /* \"#utility.yul\":15051:15133   */\n      swap3\n      pop\n      swap3\n      pop\n        /* \"#utility.yul\":14845:15143   */\n      pop\n        /* \"#utility.yul\":14041:15150   */\n      swap3\n      swap6\n      pop\n      swap3\n      swap6\n      pop\n      swap3\n      swap6\n      jump\t// out\n        /* \"#utility.yul\":15156:15303   */\n    tag_343:\n        /* \"#utility.yul\":15257:15268   */\n      0x00\n        /* \"#utility.yul\":15294:15297   */\n      dup2\n        /* \"#utility.yul\":15279:15297   */\n      swap1\n      pop\n        /* \"#utility.yul\":15156:15303   */\n      swap3\n      swap2\n      pop\n      pop\n      jump\t// out\n        /* \"#utility.yul\":15309:15423   */\n    tag_344:\n      pop\n      jump\t// out\n        /* \"#utility.yul\":15429:15827   */\n    tag_345:\n        /* \"#utility.yul\":15588:15591   */\n      0x00\n        /* \"#utility.yul\":15609:15692   */\n      tag_553\n        /* \"#utility.yul\":15690:15691   */\n      0x00\n        /* \"#utility.yul\":15685:15688   */\n      dup4\n        /* \"#utility.yul\":15609:15692   */\n      tag_343\n      jump\t// in\n    tag_553:\n        /* \"#utility.yul\":15602:15692   */\n      swap2\n      pop\n        /* \"#utility.yul\":15701:15794   */\n      tag_554\n        /* \"#utility.yul\":15790:15793   */\n      dup3\n        /* \"#utility.yul\":15701:15794   */\n      tag_344\n      jump\t// in\n    tag_554:\n        /* \"#utility.yul\":15819:15820   */\n      0x00\n        /* \"#utility.yul\":15814:15817   */\n      dup3\n        /* \"#utility.yul\":15810:15821   */\n      add\n        /* \"#utility.yul\":15803:15821   */\n      swap1\n      pop\n        /* \"#utility.yul\":15429:15827   */\n      swap2\n      swap1\n      pop\n      jump\t// out\n        /* \"#utility.yul\":15833:16212   */\n    tag_113:\n        /* \"#utility.yul\":16017:16020   */\n      0x00\n        /* \"#utility.yul\":16039:16186   */\n      tag_556\n        /* \"#utility.yul\":16182:16185   */\n      dup3\n        /* \"#utility.yul\":16039:16186   */\n      tag_345\n      jump\t// in\n    tag_556:\n        /* \"#utility.yul\":16032:16186   */\n      swap2\n      pop\n        /* \"#utility.yul\":16203:16206   */\n      dup2\n        /* \"#utility.yul\":16196:16206   */\n      swap1\n      pop\n        /* \"#utility.yul\":15833:16212   */\n      swap2\n      swap1\n      pop\n      jump\t// out\n        /* \"#utility.yul\":16218:16387   */\n    tag_346:\n        /* \"#utility.yul\":16302:16313   */\n      0x00\n        /* \"#utility.yul\":16336:16342   */\n      dup3\n        /* \"#utility.yul\":16331:16334   */\n      dup3\n        /* \"#utility.yul\":16324:16343   */\n      mstore\n        /* \"#utility.yul\":16376:16380   */\n      0x20\n        /* \"#utility.yul\":16371:16374   */\n      dup3\n        /* \"#utility.yul\":16367:16381   */\n      add\n        /* \"#utility.yul\":16352:16381   */\n      swap1\n      pop\n        /* \"#utility.yul\":16218:16387   */\n      swap3\n      swap2\n      pop\n      pop\n      jump\t// out\n        /* \"#utility.yul\":16393:16555   */\n    tag_347:\n        /* \"#utility.yul\":16533:16547   */\n      0x466c757368206661696c65640000000000000000000000000000000000000000\n        /* \"#utility.yul\":16529:16530   */\n      0x00\n        /* \"#utility.yul\":16521:16527   */\n      dup3\n        /* \"#utility.yul\":16517:16531   */\n      add\n        /* \"#utility.yul\":16510:16548   */\n      mstore\n        /* \"#utility.yul\":16393:16555   */\n      pop\n      jump\t// out\n        /* \"#utility.yul\":16561:16927   */\n    tag_348:\n        /* \"#utility.yul\":16703:16706   */\n      0x00\n        /* \"#utility.yul\":16724:16791   */\n      tag_560\n        /* \"#utility.yul\":16788:16790   */\n      0x0c\n        /* \"#utility.yul\":16783:16786   */\n      dup4\n        /* \"#utility.yul\":16724:16791   */\n      tag_346\n      jump\t// in\n    tag_560:\n        /* \"#utility.yul\":16717:16791   */\n      swap2\n      pop\n        /* \"#utility.yul\":16800:16893   */\n      tag_561\n        /* \"#utility.yul\":16889:16892   */\n      dup3\n        /* \"#utility.yul\":16800:16893   */\n      tag_347\n      jump\t// in\n    tag_561:\n        /* \"#utility.yul\":16918:16920   */\n      0x20\n        /* \"#utility.yul\":16913:16916   */\n      dup3\n        /* \"#utility.yul\":16909:16921   */\n      add\n        /* \"#utility.yul\":16902:16921   */\n      swap1\n      pop\n        /* \"#utility.yul\":16561:16927   */\n      swap2\n      swap1\n      pop\n      jump\t// out\n        /* \"#utility.yul\":16933:17352   */\n    tag_119:\n        /* \"#utility.yul\":17099:17103   */\n      0x00\n        /* \"#utility.yul\":17137:17139   */\n      0x20\n        /* \"#utility.yul\":17126:17135   */\n      dup3\n        /* \"#utility.yul\":17122:17140   */\n      add\n        /* \"#utility.yul\":17114:17140   */\n      swap1\n      pop\n        /* \"#utility.yul\":17186:17195   */\n      dup2\n        /* \"#utility.yul\":17180:17184   */\n      dup2\n        /* \"#utility.yul\":17176:17196   */\n      sub\n        /* \"#utility.yul\":17172:17173   */\n      0x00\n        /* \"#utility.yul\":17161:17170   */\n      dup4\n        /* \"#utility.yul\":17157:17174   */\n      add\n        /* \"#utility.yul\":17150:17197   */\n      mstore\n        /* \"#utility.yul\":17214:17345   */\n      tag_563\n        /* \"#utility.yul\":17340:17344   */\n      dup2\n        /* \"#utility.yul\":17214:17345   */\n      tag_348\n      jump\t// in\n    tag_563:\n        /* \"#utility.yul\":17206:17345   */\n      swap1\n      pop\n        /* \"#utility.yul\":16933:17352   */\n      swap2\n      swap1\n      pop\n      jump\t// out\n        /* \"#utility.yul\":17358:17476   */\n    tag_349:\n        /* \"#utility.yul\":17445:17469   */\n      tag_565\n        /* \"#utility.yul\":17463:17468   */\n      dup2\n        /* \"#utility.yul\":17445:17469   */\n      tag_320\n      jump\t// in\n    tag_565:\n        /* \"#utility.yul\":17440:17443   */\n      dup3\n        /* \"#utility.yul\":17433:17470   */\n      mstore\n        /* \"#utility.yul\":17358:17476   */\n      pop\n      pop\n      jump\t// out\n        /* \"#utility.yul\":17504:17805   */\n    tag_350:\n        /* \"#utility.yul\":17600:17603   */\n      0x00\n        /* \"#utility.yul\":17621:17691   */\n      tag_567\n        /* \"#utility.yul\":17684:17690   */\n      dup4\n        /* \"#utility.yul\":17679:17682   */\n      dup6\n        /* \"#utility.yul\":17621:17691   */\n      tag_337\n      jump\t// in\n    tag_567:\n        /* \"#utility.yul\":17614:17691   */\n      swap4\n      pop\n        /* \"#utility.yul\":17701:17744   */\n      tag_568\n        /* \"#utility.yul\":17737:17743   */\n      dup4\n        /* \"#utility.yul\":17732:17735   */\n      dup6\n        /* \"#utility.yul\":17725:17730   */\n      dup5\n        /* \"#utility.yul\":17701:17744   */\n      tag_329\n      jump\t// in\n    tag_568:\n        /* \"#utility.yul\":17769:17798   */\n      tag_569\n        /* \"#utility.yul\":17791:17797   */\n      dup4\n        /* \"#utility.yul\":17769:17798   */\n      tag_325\n      jump\t// in\n    tag_569:\n        /* \"#utility.yul\":17764:17767   */\n      dup5\n        /* \"#utility.yul\":17760:17799   */\n      add\n        /* \"#utility.yul\":17753:17799   */\n      swap1\n      pop\n        /* \"#utility.yul\":17504:17805   */\n      swap4\n      swap3\n      pop\n      pop\n      pop\n      jump\t// out\n        /* \"#utility.yul\":17811:18360   */\n    tag_121:\n        /* \"#utility.yul\":17988:17992   */\n      0x00\n        /* \"#utility.yul\":18026:18028   */\n      0x60\n        /* \"#utility.yul\":18015:18024   */\n      dup3\n        /* \"#utility.yul\":18011:18029   */\n      add\n        /* \"#utility.yul\":18003:18029   */\n      swap1\n      pop\n        /* \"#utility.yul\":18039:18110   */\n      tag_571\n        /* \"#utility.yul\":18107:18108   */\n      0x00\n        /* \"#utility.yul\":18096:18105   */\n      dup4\n        /* \"#utility.yul\":18092:18109   */\n      add\n        /* \"#utility.yul\":18083:18089   */\n      dup8\n        /* \"#utility.yul\":18039:18110   */\n      tag_309\n      jump\t// in\n    tag_571:\n        /* \"#utility.yul\":18120:18192   */\n      tag_572\n        /* \"#utility.yul\":18188:18190   */\n      0x20\n        /* \"#utility.yul\":18177:18186   */\n      dup4\n        /* \"#utility.yul\":18173:18191   */\n      add\n        /* \"#utility.yul\":18164:18170   */\n      dup7\n        /* \"#utility.yul\":18120:18192   */\n      tag_349\n      jump\t// in\n    tag_572:\n        /* \"#utility.yul\":18239:18248   */\n      dup2\n        /* \"#utility.yul\":18233:18237   */\n      dup2\n        /* \"#utility.yul\":18229:18249   */\n      sub\n        /* \"#utility.yul\":18224:18226   */\n      0x40\n        /* \"#utility.yul\":18213:18222   */\n      dup4\n        /* \"#utility.yul\":18209:18227   */\n      add\n        /* \"#utility.yul\":18202:18250   */\n      mstore\n        /* \"#utility.yul\":18267:18353   */\n      tag_573\n        /* \"#utility.yul\":18348:18352   */\n      dup2\n        /* \"#utility.yul\":18339:18345   */\n      dup5\n        /* \"#utility.yul\":18331:18337   */\n      dup7\n        /* \"#utility.yul\":18267:18353   */\n      tag_350\n      jump\t// in\n    tag_573:\n        /* \"#utility.yul\":18259:18353   */\n      swap1\n      pop\n        /* \"#utility.yul\":17811:18360   */\n      swap6\n      swap5\n      pop\n      pop\n      pop\n      pop\n      pop\n      jump\t// out\n        /* \"#utility.yul\":18366:18503   */\n    tag_351:\n        /* \"#utility.yul\":18420:18425   */\n      0x00\n        /* \"#utility.yul\":18451:18457   */\n      dup2\n        /* \"#utility.yul\":18445:18458   */\n      mload\n        /* \"#utility.yul\":18436:18458   */\n      swap1\n      pop\n        /* \"#utility.yul\":18467:18497   */\n      tag_575\n        /* \"#utility.yul\":18491:18496   */\n      dup2\n        /* \"#utility.yul\":18467:18497   */\n      tag_340\n      jump\t// in\n    tag_575:\n        /* \"#utility.yul\":18366:18503   */\n      swap3\n      swap2\n      pop\n      pop\n      jump\t// out\n        /* \"#utility.yul\":18509:18854   */\n    tag_132:\n        /* \"#utility.yul\":18576:18582   */\n      0x00\n        /* \"#utility.yul\":18625:18627   */\n      0x20\n        /* \"#utility.yul\":18613:18622   */\n      dup3\n        /* \"#utility.yul\":18604:18611   */\n      dup5\n        /* \"#utility.yul\":18600:18623   */\n      sub\n        /* \"#utility.yul\":18596:18628   */\n      slt\n        /* \"#utility.yul\":18593:18712   */\n      iszero\n      tag_577\n      jumpi\n        /* \"#utility.yul\":18631:18710   */\n      tag_578\n      tag_311\n      jump\t// in\n    tag_578:\n        /* \"#utility.yul\":18593:18712   */\n    tag_577:\n        /* \"#utility.yul\":18751:18752   */\n      0x00\n        /* \"#utility.yul\":18776:18837   */\n      tag_579\n        /* \"#utility.yul\":18829:18836   */\n      dup5\n        /* \"#utility.yul\":18820:18826   */\n      dup3\n        /* \"#utility.yul\":18809:18818   */\n      dup6\n        /* \"#utility.yul\":18805:18827   */\n      add\n        /* \"#utility.yul\":18776:18837   */\n      tag_351\n      jump\t// in\n    tag_579:\n        /* \"#utility.yul\":18766:18837   */\n      swap2\n      pop\n        /* \"#utility.yul\":18722:18847   */\n      pop\n        /* \"#utility.yul\":18509:18854   */\n      swap3\n      swap2\n      pop\n      pop\n      jump\t// out\n        /* \"#utility.yul\":18860:19095   */\n    tag_352:\n        /* \"#utility.yul\":19000:19034   */\n      0x5468652063616c6c657220646f6573206e6f7420737570706f72742074686520\n        /* \"#utility.yul\":18996:18997   */\n      0x00\n        /* \"#utility.yul\":18988:18994   */\n      dup3\n        /* \"#utility.yul\":18984:18998   */\n      add\n        /* \"#utility.yul\":18977:19035   */\n      mstore\n        /* \"#utility.yul\":19069:19087   */\n      0x45524337323120696e7465726661636500000000000000000000000000000000\n        /* \"#utility.yul\":19064:19066   */\n      0x20\n        /* \"#utility.yul\":19056:19062   */\n      dup3\n        /* \"#utility.yul\":19052:19067   */\n      add\n        /* \"#utility.yul\":19045:19088   */\n      mstore\n        /* \"#utility.yul\":18860:19095   */\n      pop\n      jump\t// out\n        /* \"#utility.yul\":19101:19467   */\n    tag_353:\n        /* \"#utility.yul\":19243:19246   */\n      0x00\n        /* \"#utility.yul\":19264:19331   */\n      tag_582\n        /* \"#utility.yul\":19328:19330   */\n      0x30\n        /* \"#utility.yul\":19323:19326   */\n      dup4\n        /* \"#utility.yul\":19264:19331   */\n      tag_346\n      jump\t// in\n    tag_582:\n        /* \"#utility.yul\":19257:19331   */\n      swap2\n      pop\n        /* \"#utility.yul\":19340:19433   */\n      tag_583\n        /* \"#utility.yul\":19429:19432   */\n      dup3\n        /* \"#utility.yul\":19340:19433   */\n      tag_352\n      jump\t// in\n    tag_583:\n        /* \"#utility.yul\":19458:19460   */\n      0x40\n        /* \"#utility.yul\":19453:19456   */\n      dup3\n        /* \"#utility.yul\":19449:19461   */\n      add\n        /* \"#utility.yul\":19442:19461   */\n      swap1\n      pop\n        /* \"#utility.yul\":19101:19467   */\n      swap2\n      swap1\n      pop\n      jump\t// out\n        /* \"#utility.yul\":19473:19892   */\n    tag_135:\n        /* \"#utility.yul\":19639:19643   */\n      0x00\n        /* \"#utility.yul\":19677:19679   */\n      0x20\n        /* \"#utility.yul\":19666:19675   */\n      dup3\n        /* \"#utility.yul\":19662:19680   */\n      add\n        /* \"#utility.yul\":19654:19680   */\n      swap1\n      pop\n        /* \"#utility.yul\":19726:19735   */\n      dup2\n        /* \"#utility.yul\":19720:19724   */\n      dup2\n        /* \"#utility.yul\":19716:19736   */\n      sub\n        /* \"#utility.yul\":19712:19713   */\n      0x00\n        /* \"#utility.yul\":19701:19710   */\n      dup4\n        /* \"#utility.yul\":19697:19714   */\n      add\n        /* \"#utility.yul\":19690:19737   */\n      mstore\n        /* \"#utility.yul\":19754:19885   */\n      tag_585\n        /* \"#utility.yul\":19880:19884   */\n      dup2\n        /* \"#utility.yul\":19754:19885   */\n      tag_353\n      jump\t// in\n    tag_585:\n        /* \"#utility.yul\":19746:19885   */\n      swap1\n      pop\n        /* \"#utility.yul\":19473:19892   */\n      swap2\n      swap1\n      pop\n      jump\t// out\n        /* \"#utility.yul\":19898:20538   */\n    tag_137:\n        /* \"#utility.yul\":20093:20097   */\n      0x00\n        /* \"#utility.yul\":20131:20134   */\n      0x80\n        /* \"#utility.yul\":20120:20129   */\n      dup3\n        /* \"#utility.yul\":20116:20135   */\n      add\n        /* \"#utility.yul\":20108:20135   */\n      swap1\n      pop\n        /* \"#utility.yul\":20145:20216   */\n      tag_587\n        /* \"#utility.yul\":20213:20214   */\n      0x00\n        /* \"#utility.yul\":20202:20211   */\n      dup4\n        /* \"#utility.yul\":20198:20215   */\n      add\n        /* \"#utility.yul\":20189:20195   */\n      dup8\n        /* \"#utility.yul\":20145:20216   */\n      tag_309\n      jump\t// in\n    tag_587:\n        /* \"#utility.yul\":20226:20298   */\n      tag_588\n        /* \"#utility.yul\":20294:20296   */\n      0x20\n        /* \"#utility.yul\":20283:20292   */\n      dup4\n        /* \"#utility.yul\":20279:20297   */\n      add\n        /* \"#utility.yul\":20270:20276   */\n      dup7\n        /* \"#utility.yul\":20226:20298   */\n      tag_309\n      jump\t// in\n    tag_588:\n        /* \"#utility.yul\":20308:20380   */\n      tag_589\n        /* \"#utility.yul\":20376:20378   */\n      0x40\n        /* \"#utility.yul\":20365:20374   */\n      dup4\n        /* \"#utility.yul\":20361:20379   */\n      add\n        /* \"#utility.yul\":20352:20358   */\n      dup6\n        /* \"#utility.yul\":20308:20380   */\n      tag_349\n      jump\t// in\n    tag_589:\n        /* \"#utility.yul\":20427:20436   */\n      dup2\n        /* \"#utility.yul\":20421:20425   */\n      dup2\n        /* \"#utility.yul\":20417:20437   */\n      sub\n        /* \"#utility.yul\":20412:20414   */\n      0x60\n        /* \"#utility.yul\":20401:20410   */\n      dup4\n        /* \"#utility.yul\":20397:20415   */\n      add\n        /* \"#utility.yul\":20390:20438   */\n      mstore\n        /* \"#utility.yul\":20455:20531   */\n      tag_590\n        /* \"#utility.yul\":20526:20530   */\n      dup2\n        /* \"#utility.yul\":20517:20523   */\n      dup5\n        /* \"#utility.yul\":20455:20531   */\n      tag_339\n      jump\t// in\n    tag_590:\n        /* \"#utility.yul\":20447:20531   */\n      swap1\n      pop\n        /* \"#utility.yul\":19898:20538   */\n      swap6\n      swap5\n      pop\n      pop\n      pop\n      pop\n      pop\n      jump\t// out\n        /* \"#utility.yul\":20544:20705   */\n    tag_354:\n        /* \"#utility.yul\":20684:20697   */\n      0x4f6e6c7920506172656e74000000000000000000000000000000000000000000\n        /* \"#utility.yul\":20680:20681   */\n      0x00\n        /* \"#utility.yul\":20672:20678   */\n      dup3\n        /* \"#utility.yul\":20668:20682   */\n      add\n        /* \"#utility.yul\":20661:20698   */\n      mstore\n        /* \"#utility.yul\":20544:20705   */\n      pop\n      jump\t// out\n        /* \"#utility.yul\":20711:21077   */\n    tag_355:\n        /* \"#utility.yul\":20853:20856   */\n      0x00\n        /* \"#utility.yul\":20874:20941   */\n      tag_593\n        /* \"#utility.yul\":20938:20940   */\n      0x0b\n        /* \"#utility.yul\":20933:20936   */\n      dup4\n        /* \"#utility.yul\":20874:20941   */\n      tag_346\n      jump\t// in\n    tag_593:\n        /* \"#utility.yul\":20867:20941   */\n      swap2\n      pop\n        /* \"#utility.yul\":20950:21043   */\n      tag_594\n        /* \"#utility.yul\":21039:21042   */\n      dup3\n        /* \"#utility.yul\":20950:21043   */\n      tag_354\n      jump\t// in\n    tag_594:\n        /* \"#utility.yul\":21068:21070   */\n      0x20\n        /* \"#utility.yul\":21063:21066   */\n      dup3\n        /* \"#utility.yul\":21059:21071   */\n      add\n        /* \"#utility.yul\":21052:21071   */\n      swap1\n      pop\n        /* \"#utility.yul\":20711:21077   */\n      swap2\n      swap1\n      pop\n      jump\t// out\n        /* \"#utility.yul\":21083:21502   */\n    tag_144:\n        /* \"#utility.yul\":21249:21253   */\n      0x00\n        /* \"#utility.yul\":21287:21289   */\n      0x20\n        /* \"#utility.yul\":21276:21285   */\n      dup3\n        /* \"#utility.yul\":21272:21290   */\n      add\n        /* \"#utility.yul\":21264:21290   */\n      swap1\n      pop\n        /* \"#utility.yul\":21336:21345   */\n      dup2\n        /* \"#utility.yul\":21330:21334   */\n      dup2\n        /* \"#utility.yul\":21326:21346   */\n      sub\n        /* \"#utility.yul\":21322:21323   */\n      0x00\n        /* \"#utility.yul\":21311:21320   */\n      dup4\n        /* \"#utility.yul\":21307:21324   */\n      add\n        /* \"#utility.yul\":21300:21347   */\n      mstore\n        /* \"#utility.yul\":21364:21495   */\n      tag_596\n        /* \"#utility.yul\":21490:21494   */\n      dup2\n        /* \"#utility.yul\":21364:21495   */\n      tag_355\n      jump\t// in\n    tag_596:\n        /* \"#utility.yul\":21356:21495   */\n      swap1\n      pop\n        /* \"#utility.yul\":21083:21502   */\n      swap2\n      swap1\n      pop\n      jump\t// out\n        /* \"#utility.yul\":21508:21757   */\n    tag_356:\n        /* \"#utility.yul\":21648:21682   */\n      0x54686520746f6b656e436f6e74726163744164647265737320646f6573206e6f\n        /* \"#utility.yul\":21644:21645   */\n      0x00\n        /* \"#utility.yul\":21636:21642   */\n      dup3\n        /* \"#utility.yul\":21632:21646   */\n      add\n        /* \"#utility.yul\":21625:21683   */\n      mstore\n        /* \"#utility.yul\":21717:21749   */\n      0x7420737570706f7274207468652045524337323120696e746572666163650000\n        /* \"#utility.yul\":21712:21714   */\n      0x20\n        /* \"#utility.yul\":21704:21710   */\n      dup3\n        /* \"#utility.yul\":21700:21715   */\n      add\n        /* \"#utility.yul\":21693:21750   */\n      mstore\n        /* \"#utility.yul\":21508:21757   */\n      pop\n      jump\t// out\n        /* \"#utility.yul\":21763:22129   */\n    tag_357:\n        /* \"#utility.yul\":21905:21908   */\n      0x00\n        /* \"#utility.yul\":21926:21993   */\n      tag_599\n        /* \"#utility.yul\":21990:21992   */\n      0x3e\n        /* \"#utility.yul\":21985:21988   */\n      dup4\n        /* \"#utility.yul\":21926:21993   */\n      tag_346\n      jump\t// in\n    tag_599:\n        /* \"#utility.yul\":21919:21993   */\n      swap2\n      pop\n        /* \"#utility.yul\":22002:22095   */\n      tag_600\n        /* \"#utility.yul\":22091:22094   */\n      dup3\n        /* \"#utility.yul\":22002:22095   */\n      tag_356\n      jump\t// in\n    tag_600:\n        /* \"#utility.yul\":22120:22122   */\n      0x40\n        /* \"#utility.yul\":22115:22118   */\n      dup3\n        /* \"#utility.yul\":22111:22123   */\n      add\n        /* \"#utility.yul\":22104:22123   */\n      swap1\n      pop\n        /* \"#utility.yul\":21763:22129   */\n      swap2\n      swap1\n      pop\n      jump\t// out\n        /* \"#utility.yul\":22135:22554   */\n    tag_152:\n        /* \"#utility.yul\":22301:22305   */\n      0x00\n        /* \"#utility.yul\":22339:22341   */\n      0x20\n        /* \"#utility.yul\":22328:22337   */\n      dup3\n        /* \"#utility.yul\":22324:22342   */\n      add\n        /* \"#utility.yul\":22316:22342   */\n      swap1\n      pop\n        /* \"#utility.yul\":22388:22397   */\n      dup2\n        /* \"#utility.yul\":22382:22386   */\n      dup2\n        /* \"#utility.yul\":22378:22398   */\n      sub\n        /* \"#utility.yul\":22374:22375   */\n      0x00\n        /* \"#utility.yul\":22363:22372   */\n      dup4\n        /* \"#utility.yul\":22359:22376   */\n      add\n        /* \"#utility.yul\":22352:22399   */\n      mstore\n        /* \"#utility.yul\":22416:22547   */\n      tag_602\n        /* \"#utility.yul\":22542:22546   */\n      dup2\n        /* \"#utility.yul\":22416:22547   */\n      tag_357\n      jump\t// in\n    tag_602:\n        /* \"#utility.yul\":22408:22547   */\n      swap1\n      pop\n        /* \"#utility.yul\":22135:22554   */\n      swap2\n      swap1\n      pop\n      jump\t// out\n        /* \"#utility.yul\":22560:22782   */\n    tag_154:\n        /* \"#utility.yul\":22653:22657   */\n      0x00\n        /* \"#utility.yul\":22691:22693   */\n      0x20\n        /* \"#utility.yul\":22680:22689   */\n      dup3\n        /* \"#utility.yul\":22676:22694   */\n      add\n        /* \"#utility.yul\":22668:22694   */\n      swap1\n      pop\n        /* \"#utility.yul\":22704:22775   */\n      tag_604\n        /* \"#utility.yul\":22772:22773   */\n      0x00\n        /* \"#utility.yul\":22761:22770   */\n      dup4\n        /* \"#utility.yul\":22757:22774   */\n      add\n        /* \"#utility.yul\":22748:22754   */\n      dup5\n        /* \"#utility.yul\":22704:22775   */\n      tag_349\n      jump\t// in\n    tag_604:\n        /* \"#utility.yul\":22560:22782   */\n      swap3\n      swap2\n      pop\n      pop\n      jump\t// out\n        /* \"#utility.yul\":22788:22931   */\n    tag_358:\n        /* \"#utility.yul\":22845:22850   */\n      0x00\n        /* \"#utility.yul\":22876:22882   */\n      dup2\n        /* \"#utility.yul\":22870:22883   */\n      mload\n        /* \"#utility.yul\":22861:22883   */\n      swap1\n      pop\n        /* \"#utility.yul\":22892:22925   */\n      tag_606\n        /* \"#utility.yul\":22919:22924   */\n      dup2\n        /* \"#utility.yul\":22892:22925   */\n      tag_318\n      jump\t// in\n    tag_606:\n        /* \"#utility.yul\":22788:22931   */\n      swap3\n      swap2\n      pop\n      pop\n      jump\t// out\n        /* \"#utility.yul\":22937:23288   */\n    tag_158:\n        /* \"#utility.yul\":23007:23013   */\n      0x00\n        /* \"#utility.yul\":23056:23058   */\n      0x20\n        /* \"#utility.yul\":23044:23053   */\n      dup3\n        /* \"#utility.yul\":23035:23042   */\n      dup5\n        /* \"#utility.yul\":23031:23054   */\n      sub\n        /* \"#utility.yul\":23027:23059   */\n      slt\n        /* \"#utility.yul\":23024:23143   */\n      iszero\n      tag_608\n      jumpi\n        /* \"#utility.yul\":23062:23141   */\n      tag_609\n      tag_311\n      jump\t// in\n    tag_609:\n        /* \"#utility.yul\":23024:23143   */\n    tag_608:\n        /* \"#utility.yul\":23182:23183   */\n      0x00\n        /* \"#utility.yul\":23207:23271   */\n      tag_610\n        /* \"#utility.yul\":23263:23270   */\n      dup5\n        /* \"#utility.yul\":23254:23260   */\n      dup3\n        /* \"#utility.yul\":23243:23252   */\n      dup6\n        /* \"#utility.yul\":23239:23261   */\n      add\n        /* \"#utility.yul\":23207:23271   */\n      tag_358\n      jump\t// in\n    tag_610:\n        /* \"#utility.yul\":23197:23271   */\n      swap2\n      pop\n        /* \"#utility.yul\":23153:23281   */\n      pop\n        /* \"#utility.yul\":22937:23288   */\n      swap3\n      swap2\n      pop\n      pop\n      jump\t// out\n        /* \"#utility.yul\":23294:23736   */\n    tag_160:\n        /* \"#utility.yul\":23443:23447   */\n      0x00\n        /* \"#utility.yul\":23481:23483   */\n      0x60\n        /* \"#utility.yul\":23470:23479   */\n      dup3\n        /* \"#utility.yul\":23466:23484   */\n      add\n        /* \"#utility.yul\":23458:23484   */\n      swap1\n      pop\n        /* \"#utility.yul\":23494:23565   */\n      tag_612\n        /* \"#utility.yul\":23562:23563   */\n      0x00\n        /* \"#utility.yul\":23551:23560   */\n      dup4\n        /* \"#utility.yul\":23547:23564   */\n      add\n        /* \"#utility.yul\":23538:23544   */\n      dup7\n        /* \"#utility.yul\":23494:23565   */\n      tag_309\n      jump\t// in\n    tag_612:\n        /* \"#utility.yul\":23575:23647   */\n      tag_613\n        /* \"#utility.yul\":23643:23645   */\n      0x20\n        /* \"#utility.yul\":23632:23641   */\n      dup4\n        /* \"#utility.yul\":23628:23646   */\n      add\n        /* \"#utility.yul\":23619:23625   */\n      dup6\n        /* \"#utility.yul\":23575:23647   */\n      tag_309\n      jump\t// in\n    tag_613:\n        /* \"#utility.yul\":23657:23729   */\n      tag_614\n        /* \"#utility.yul\":23725:23727   */\n      0x40\n        /* \"#utility.yul\":23714:23723   */\n      dup4\n        /* \"#utility.yul\":23710:23728   */\n      add\n        /* \"#utility.yul\":23701:23707   */\n      dup5\n        /* \"#utility.yul\":23657:23729   */\n      tag_349\n      jump\t// in\n    tag_614:\n        /* \"#utility.yul\":23294:23736   */\n      swap5\n      swap4\n      pop\n      pop\n      pop\n      pop\n      jump\t// out\n        /* \"#utility.yul\":23742:23885   */\n    tag_359:\n        /* \"#utility.yul\":23799:23804   */\n      0x00\n        /* \"#utility.yul\":23830:23836   */\n      dup2\n        /* \"#utility.yul\":23824:23837   */\n      mload\n        /* \"#utility.yul\":23815:23837   */\n      swap1\n      pop\n        /* \"#utility.yul\":23846:23879   */\n      tag_616\n        /* \"#utility.yul\":23873:23878   */\n      dup2\n        /* \"#utility.yul\":23846:23879   */\n      tag_321\n      jump\t// in\n    tag_616:\n        /* \"#utility.yul\":23742:23885   */\n      swap3\n      swap2\n      pop\n      pop\n      jump\t// out\n        /* \"#utility.yul\":23891:24242   */\n    tag_172:\n        /* \"#utility.yul\":23961:23967   */\n      0x00\n        /* \"#utility.yul\":24010:24012   */\n      0x20\n        /* \"#utility.yul\":23998:24007   */\n      dup3\n        /* \"#utility.yul\":23989:23996   */\n      dup5\n        /* \"#utility.yul\":23985:24008   */\n      sub\n        /* \"#utility.yul\":23981:24013   */\n      slt\n        /* \"#utility.yul\":23978:24097   */\n      iszero\n      tag_618\n      jumpi\n        /* \"#utility.yul\":24016:24095   */\n      tag_619\n      tag_311\n      jump\t// in\n    tag_619:\n        /* \"#utility.yul\":23978:24097   */\n    tag_618:\n        /* \"#utility.yul\":24136:24137   */\n      0x00\n        /* \"#utility.yul\":24161:24225   */\n      tag_620\n        /* \"#utility.yul\":24217:24224   */\n      dup5\n        /* \"#utility.yul\":24208:24214   */\n      dup3\n        /* \"#utility.yul\":24197:24206   */\n      dup6\n        /* \"#utility.yul\":24193:24215   */\n      add\n        /* \"#utility.yul\":24161:24225   */\n      tag_359\n      jump\t// in\n    tag_620:\n        /* \"#utility.yul\":24151:24225   */\n      swap2\n      pop\n        /* \"#utility.yul\":24107:24235   */\n      pop\n        /* \"#utility.yul\":23891:24242   */\n      swap3\n      swap2\n      pop\n      pop\n      jump\t// out\n        /* \"#utility.yul\":24270:24584   */\n    tag_360:\n        /* \"#utility.yul\":24384:24387   */\n      0x00\n        /* \"#utility.yul\":24405:24493   */\n      tag_622\n        /* \"#utility.yul\":24486:24492   */\n      dup4\n        /* \"#utility.yul\":24481:24484   */\n      dup6\n        /* \"#utility.yul\":24405:24493   */\n      tag_343\n      jump\t// in\n    tag_622:\n        /* \"#utility.yul\":24398:24493   */\n      swap4\n      pop\n        /* \"#utility.yul\":24503:24546   */\n      tag_623\n        /* \"#utility.yul\":24539:24545   */\n      dup4\n        /* \"#utility.yul\":24534:24537   */\n      dup6\n        /* \"#utility.yul\":24527:24532   */\n      dup5\n        /* \"#utility.yul\":24503:24546   */\n      tag_329\n      jump\t// in\n    tag_623:\n        /* \"#utility.yul\":24571:24577   */\n      dup3\n        /* \"#utility.yul\":24566:24569   */\n      dup5\n        /* \"#utility.yul\":24562:24578   */\n      add\n        /* \"#utility.yul\":24555:24578   */\n      swap1\n      pop\n        /* \"#utility.yul\":24270:24584   */\n      swap4\n      swap3\n      pop\n      pop\n      pop\n      jump\t// out\n        /* \"#utility.yul\":24590:24881   */\n    tag_181:\n        /* \"#utility.yul\":24730:24733   */\n      0x00\n        /* \"#utility.yul\":24752:24855   */\n      tag_625\n        /* \"#utility.yul\":24851:24854   */\n      dup3\n        /* \"#utility.yul\":24842:24848   */\n      dup5\n        /* \"#utility.yul\":24834:24840   */\n      dup7\n        /* \"#utility.yul\":24752:24855   */\n      tag_360\n      jump\t// in\n    tag_625:\n        /* \"#utility.yul\":24745:24855   */\n      swap2\n      pop\n        /* \"#utility.yul\":24872:24875   */\n      dup2\n        /* \"#utility.yul\":24865:24875   */\n      swap1\n      pop\n        /* \"#utility.yul\":24590:24881   */\n      swap4\n      swap3\n      pop\n      pop\n      pop\n      jump\t// out\n        /* \"#utility.yul\":24887:25065   */\n    tag_361:\n        /* \"#utility.yul\":25027:25057   */\n      0x506172656e742063616c6c20657865637574696f6e206661696c656400000000\n        /* \"#utility.yul\":25023:25024   */\n      0x00\n        /* \"#utility.yul\":25015:25021   */\n      dup3\n        /* \"#utility.yul\":25011:25025   */\n      add\n        /* \"#utility.yul\":25004:25058   */\n      mstore\n        /* \"#utility.yul\":24887:25065   */\n      pop\n      jump\t// out\n        /* \"#utility.yul\":25071:25437   */\n    tag_362:\n        /* \"#utility.yul\":25213:25216   */\n      0x00\n        /* \"#utility.yul\":25234:25301   */\n      tag_628\n        /* \"#utility.yul\":25298:25300   */\n      0x1c\n        /* \"#utility.yul\":25293:25296   */\n      dup4\n        /* \"#utility.yul\":25234:25301   */\n      tag_346\n      jump\t// in\n    tag_628:\n        /* \"#utility.yul\":25227:25301   */\n      swap2\n      pop\n        /* \"#utility.yul\":25310:25403   */\n      tag_629\n        /* \"#utility.yul\":25399:25402   */\n      dup3\n        /* \"#utility.yul\":25310:25403   */\n      tag_361\n      jump\t// in\n    tag_629:\n        /* \"#utility.yul\":25428:25430   */\n      0x20\n        /* \"#utility.yul\":25423:25426   */\n      dup3\n        /* \"#utility.yul\":25419:25431   */\n      add\n        /* \"#utility.yul\":25412:25431   */\n      swap1\n      pop\n        /* \"#utility.yul\":25071:25437   */\n      swap2\n      swap1\n      pop\n      jump\t// out\n        /* \"#utility.yul\":25443:25862   */\n    tag_187:\n        /* \"#utility.yul\":25609:25613   */\n      0x00\n        /* \"#utility.yul\":25647:25649   */\n      0x20\n        /* \"#utility.yul\":25636:25645   */\n      dup3\n        /* \"#utility.yul\":25632:25650   */\n      add\n        /* \"#utility.yul\":25624:25650   */\n      swap1\n      pop\n        /* \"#utility.yul\":25696:25705   */\n      dup2\n        /* \"#utility.yul\":25690:25694   */\n      dup2\n        /* \"#utility.yul\":25686:25706   */\n      sub\n        /* \"#utility.yul\":25682:25683   */\n      0x00\n        /* \"#utility.yul\":25671:25680   */\n      dup4\n        /* \"#utility.yul\":25667:25684   */\n      add\n        /* \"#utility.yul\":25660:25707   */\n      mstore\n        /* \"#utility.yul\":25724:25855   */\n      tag_631\n        /* \"#utility.yul\":25850:25854   */\n      dup2\n        /* \"#utility.yul\":25724:25855   */\n      tag_362\n      jump\t// in\n    tag_631:\n        /* \"#utility.yul\":25716:25855   */\n      swap1\n      pop\n        /* \"#utility.yul\":25443:25862   */\n      swap2\n      swap1\n      pop\n      jump\t// out\n        /* \"#utility.yul\":25868:26105   */\n    tag_363:\n        /* \"#utility.yul\":26008:26042   */\n      0x5468652063616c6c657220646f6573206e6f7420737570706f72742074686520\n        /* \"#utility.yul\":26004:26005   */\n      0x00\n        /* \"#utility.yul\":25996:26002   */\n      dup3\n        /* \"#utility.yul\":25992:26006   */\n      add\n        /* \"#utility.yul\":25985:26043   */\n      mstore\n        /* \"#utility.yul\":26077:26097   */\n      0x494552433131353520696e746572666163650000000000000000000000000000\n        /* \"#utility.yul\":26072:26074   */\n      0x20\n        /* \"#utility.yul\":26064:26070   */\n      dup3\n        /* \"#utility.yul\":26060:26075   */\n      add\n        /* \"#utility.yul\":26053:26098   */\n      mstore\n        /* \"#utility.yul\":25868:26105   */\n      pop\n      jump\t// out\n        /* \"#utility.yul\":26111:26477   */\n    tag_364:\n        /* \"#utility.yul\":26253:26256   */\n      0x00\n        /* \"#utility.yul\":26274:26341   */\n      tag_634\n        /* \"#utility.yul\":26338:26340   */\n      0x32\n        /* \"#utility.yul\":26333:26336   */\n      dup4\n        /* \"#utility.yul\":26274:26341   */\n      tag_346\n      jump\t// in\n    tag_634:\n        /* \"#utility.yul\":26267:26341   */\n      swap2\n      pop\n        /* \"#utility.yul\":26350:26443   */\n      tag_635\n        /* \"#utility.yul\":26439:26442   */\n      dup3\n        /* \"#utility.yul\":26350:26443   */\n      tag_363\n      jump\t// in\n    tag_635:\n        /* \"#utility.yul\":26468:26470   */\n      0x40\n        /* \"#utility.yul\":26463:26466   */\n      dup3\n        /* \"#utility.yul\":26459:26471   */\n      add\n        /* \"#utility.yul\":26452:26471   */\n      swap1\n      pop\n        /* \"#utility.yul\":26111:26477   */\n      swap2\n      swap1\n      pop\n      jump\t// out\n        /* \"#utility.yul\":26483:26902   */\n    tag_198:\n        /* \"#utility.yul\":26649:26653   */\n      0x00\n        /* \"#utility.yul\":26687:26689   */\n      0x20\n        /* \"#utility.yul\":26676:26685   */\n      dup3\n        /* \"#utility.yul\":26672:26690   */\n      add\n        /* \"#utility.yul\":26664:26690   */\n      swap1\n      pop\n        /* \"#utility.yul\":26736:26745   */\n      dup2\n        /* \"#utility.yul\":26730:26734   */\n      dup2\n        /* \"#utility.yul\":26726:26746   */\n      sub\n        /* \"#utility.yul\":26722:26723   */\n      0x00\n        /* \"#utility.yul\":26711:26720   */\n      dup4\n        /* \"#utility.yul\":26707:26724   */\n      add\n        /* \"#utility.yul\":26700:26747   */\n      mstore\n        /* \"#utility.yul\":26764:26895   */\n      tag_637\n        /* \"#utility.yul\":26890:26894   */\n      dup2\n        /* \"#utility.yul\":26764:26895   */\n      tag_364\n      jump\t// in\n    tag_637:\n        /* \"#utility.yul\":26756:26895   */\n      swap1\n      pop\n        /* \"#utility.yul\":26483:26902   */\n      swap2\n      swap1\n      pop\n      jump\t// out\n        /* \"#utility.yul\":26908:27240   */\n    tag_200:\n        /* \"#utility.yul\":27029:27033   */\n      0x00\n        /* \"#utility.yul\":27067:27069   */\n      0x40\n        /* \"#utility.yul\":27056:27065   */\n      dup3\n        /* \"#utility.yul\":27052:27070   */\n      add\n        /* \"#utility.yul\":27044:27070   */\n      swap1\n      pop\n        /* \"#utility.yul\":27080:27151   */\n      tag_639\n        /* \"#utility.yul\":27148:27149   */\n      0x00\n        /* \"#utility.yul\":27137:27146   */\n      dup4\n        /* \"#utility.yul\":27133:27150   */\n      add\n        /* \"#utility.yul\":27124:27130   */\n      dup6\n        /* \"#utility.yul\":27080:27151   */\n      tag_309\n      jump\t// in\n    tag_639:\n        /* \"#utility.yul\":27161:27233   */\n      tag_640\n        /* \"#utility.yul\":27229:27231   */\n      0x20\n        /* \"#utility.yul\":27218:27227   */\n      dup4\n        /* \"#utility.yul\":27214:27232   */\n      add\n        /* \"#utility.yul\":27205:27211   */\n      dup5\n        /* \"#utility.yul\":27161:27233   */\n      tag_349\n      jump\t// in\n    tag_640:\n        /* \"#utility.yul\":26908:27240   */\n      swap4\n      swap3\n      pop\n      pop\n      pop\n      jump\t// out\n        /* \"#utility.yul\":27246:27608   */\n    tag_365:\n        /* \"#utility.yul\":27387:27390   */\n      0x00\n        /* \"#utility.yul\":27408:27473   */\n      tag_642\n        /* \"#utility.yul\":27471:27472   */\n      0x00\n        /* \"#utility.yul\":27466:27469   */\n      dup4\n        /* \"#utility.yul\":27408:27473   */\n      tag_337\n      jump\t// in\n    tag_642:\n        /* \"#utility.yul\":27401:27473   */\n      swap2\n      pop\n        /* \"#utility.yul\":27482:27575   */\n      tag_643\n        /* \"#utility.yul\":27571:27574   */\n      dup3\n        /* \"#utility.yul\":27482:27575   */\n      tag_344\n      jump\t// in\n    tag_643:\n        /* \"#utility.yul\":27600:27601   */\n      0x00\n        /* \"#utility.yul\":27595:27598   */\n      dup3\n        /* \"#utility.yul\":27591:27602   */\n      add\n        /* \"#utility.yul\":27584:27602   */\n      swap1\n      pop\n        /* \"#utility.yul\":27246:27608   */\n      swap2\n      swap1\n      pop\n      jump\t// out\n        /* \"#utility.yul\":27614:28473   */\n    tag_205:\n        /* \"#utility.yul\":27891:27895   */\n      0x00\n        /* \"#utility.yul\":27929:27932   */\n      0xa0\n        /* \"#utility.yul\":27918:27927   */\n      dup3\n        /* \"#utility.yul\":27914:27933   */\n      add\n        /* \"#utility.yul\":27906:27933   */\n      swap1\n      pop\n        /* \"#utility.yul\":27943:28014   */\n      tag_645\n        /* \"#utility.yul\":28011:28012   */\n      0x00\n        /* \"#utility.yul\":28000:28009   */\n      dup4\n        /* \"#utility.yul\":27996:28013   */\n      add\n        /* \"#utility.yul\":27987:27993   */\n      dup8\n        /* \"#utility.yul\":27943:28014   */\n      tag_309\n      jump\t// in\n    tag_645:\n        /* \"#utility.yul\":28024:28096   */\n      tag_646\n        /* \"#utility.yul\":28092:28094   */\n      0x20\n        /* \"#utility.yul\":28081:28090   */\n      dup4\n        /* \"#utility.yul\":28077:28095   */\n      add\n        /* \"#utility.yul\":28068:28074   */\n      dup7\n        /* \"#utility.yul\":28024:28096   */\n      tag_309\n      jump\t// in\n    tag_646:\n        /* \"#utility.yul\":28106:28178   */\n      tag_647\n        /* \"#utility.yul\":28174:28176   */\n      0x40\n        /* \"#utility.yul\":28163:28172   */\n      dup4\n        /* \"#utility.yul\":28159:28177   */\n      add\n        /* \"#utility.yul\":28150:28156   */\n      dup6\n        /* \"#utility.yul\":28106:28178   */\n      tag_349\n      jump\t// in\n    tag_647:\n        /* \"#utility.yul\":28188:28260   */\n      tag_648\n        /* \"#utility.yul\":28256:28258   */\n      0x60\n        /* \"#utility.yul\":28245:28254   */\n      dup4\n        /* \"#utility.yul\":28241:28259   */\n      add\n        /* \"#utility.yul\":28232:28238   */\n      dup5\n        /* \"#utility.yul\":28188:28260   */\n      tag_349\n      jump\t// in\n    tag_648:\n        /* \"#utility.yul\":28308:28317   */\n      dup2\n        /* \"#utility.yul\":28302:28306   */\n      dup2\n        /* \"#utility.yul\":28298:28318   */\n      sub\n        /* \"#utility.yul\":28292:28295   */\n      0x80\n        /* \"#utility.yul\":28281:28290   */\n      dup4\n        /* \"#utility.yul\":28277:28296   */\n      add\n        /* \"#utility.yul\":28270:28319   */\n      mstore\n        /* \"#utility.yul\":28336:28466   */\n      tag_649\n        /* \"#utility.yul\":28461:28465   */\n      dup2\n        /* \"#utility.yul\":28336:28466   */\n      tag_365\n      jump\t// in\n    tag_649:\n        /* \"#utility.yul\":28328:28466   */\n      swap1\n      pop\n        /* \"#utility.yul\":27614:28473   */\n      swap6\n      swap5\n      pop\n      pop\n      pop\n      pop\n      pop\n      jump\t// out\n        /* \"#utility.yul\":28479:28663   */\n    tag_366:\n        /* \"#utility.yul\":28578:28589   */\n      0x00\n        /* \"#utility.yul\":28612:28618   */\n      dup3\n        /* \"#utility.yul\":28607:28610   */\n      dup3\n        /* \"#utility.yul\":28600:28619   */\n      mstore\n        /* \"#utility.yul\":28652:28656   */\n      0x20\n        /* \"#utility.yul\":28647:28650   */\n      dup3\n        /* \"#utility.yul\":28643:28657   */\n      add\n        /* \"#utility.yul\":28628:28657   */\n      swap1\n      pop\n        /* \"#utility.yul\":28479:28663   */\n      swap3\n      swap2\n      pop\n      pop\n      jump\t// out\n        /* \"#utility.yul\":28669:28786   */\n    tag_367:\n        /* \"#utility.yul\":28778:28779   */\n      0x00\n        /* \"#utility.yul\":28775:28776   */\n      dup1\n        /* \"#utility.yul\":28768:28780   */\n      revert\n        /* \"#utility.yul\":28822:29359   */\n    tag_368:\n        /* \"#utility.yul\":28950:28953   */\n      0x00\n        /* \"#utility.yul\":28971:29057   */\n      tag_653\n        /* \"#utility.yul\":29050:29056   */\n      dup4\n        /* \"#utility.yul\":29045:29048   */\n      dup6\n        /* \"#utility.yul\":28971:29057   */\n      tag_366\n      jump\t// in\n    tag_653:\n        /* \"#utility.yul\":28964:29057   */\n      swap4\n      pop\n        /* \"#utility.yul\":29081:29147   */\n      0x07ffffffffffffffffffffffffffffffffffffffffffffffffffffffffffffff\n        /* \"#utility.yul\":29073:29079   */\n      dup4\n        /* \"#utility.yul\":29070:29148   */\n      gt\n        /* \"#utility.yul\":29067:29232   */\n      iszero\n      tag_654\n      jumpi\n        /* \"#utility.yul\":29151:29230   */\n      tag_655\n      tag_367\n      jump\t// in\n    tag_655:\n        /* \"#utility.yul\":29067:29232   */\n    tag_654:\n        /* \"#utility.yul\":29263:29267   */\n      0x20\n        /* \"#utility.yul\":29255:29261   */\n      dup4\n        /* \"#utility.yul\":29251:29268   */\n      mul\n        /* \"#utility.yul\":29241:29268   */\n      swap3\n      pop\n        /* \"#utility.yul\":29278:29321   */\n      tag_656\n        /* \"#utility.yul\":29314:29320   */\n      dup4\n        /* \"#utility.yul\":29309:29312   */\n      dup6\n        /* \"#utility.yul\":29302:29307   */\n      dup5\n        /* \"#utility.yul\":29278:29321   */\n      tag_329\n      jump\t// in\n    tag_656:\n        /* \"#utility.yul\":29346:29352   */\n      dup3\n        /* \"#utility.yul\":29341:29344   */\n      dup5\n        /* \"#utility.yul\":29337:29353   */\n      add\n        /* \"#utility.yul\":29330:29353   */\n      swap1\n      pop\n        /* \"#utility.yul\":28822:29359   */\n      swap4\n      swap3\n      pop\n      pop\n      pop\n      jump\t// out\n        /* \"#utility.yul\":29365:30478   */\n    tag_222:\n        /* \"#utility.yul\":29718:29722   */\n      0x00\n        /* \"#utility.yul\":29756:29759   */\n      0xa0\n        /* \"#utility.yul\":29745:29754   */\n      dup3\n        /* \"#utility.yul\":29741:29760   */\n      add\n        /* \"#utility.yul\":29733:29760   */\n      swap1\n      pop\n        /* \"#utility.yul\":29770:29841   */\n      tag_658\n        /* \"#utility.yul\":29838:29839   */\n      0x00\n        /* \"#utility.yul\":29827:29836   */\n      dup4\n        /* \"#utility.yul\":29823:29840   */\n      add\n        /* \"#utility.yul\":29814:29820   */\n      dup12\n        /* \"#utility.yul\":29770:29841   */\n      tag_309\n      jump\t// in\n    tag_658:\n        /* \"#utility.yul\":29851:29923   */\n      tag_659\n        /* \"#utility.yul\":29919:29921   */\n      0x20\n        /* \"#utility.yul\":29908:29917   */\n      dup4\n        /* \"#utility.yul\":29904:29922   */\n      add\n        /* \"#utility.yul\":29895:29901   */\n      dup11\n        /* \"#utility.yul\":29851:29923   */\n      tag_309\n      jump\t// in\n    tag_659:\n        /* \"#utility.yul\":29970:29979   */\n      dup2\n        /* \"#utility.yul\":29964:29968   */\n      dup2\n        /* \"#utility.yul\":29960:29980   */\n      sub\n        /* \"#utility.yul\":29955:29957   */\n      0x40\n        /* \"#utility.yul\":29944:29953   */\n      dup4\n        /* \"#utility.yul\":29940:29958   */\n      add\n        /* \"#utility.yul\":29933:29981   */\n      mstore\n        /* \"#utility.yul\":29998:30116   */\n      tag_660\n        /* \"#utility.yul\":30111:30115   */\n      dup2\n        /* \"#utility.yul\":30102:30108   */\n      dup9\n        /* \"#utility.yul\":30094:30100   */\n      dup11\n        /* \"#utility.yul\":29998:30116   */\n      tag_368\n      jump\t// in\n    tag_660:\n        /* \"#utility.yul\":29990:30116   */\n      swap1\n      pop\n        /* \"#utility.yul\":30163:30172   */\n      dup2\n        /* \"#utility.yul\":30157:30161   */\n      dup2\n        /* \"#utility.yul\":30153:30173   */\n      sub\n        /* \"#utility.yul\":30148:30150   */\n      0x60\n        /* \"#utility.yul\":30137:30146   */\n      dup4\n        /* \"#utility.yul\":30133:30151   */\n      add\n        /* \"#utility.yul\":30126:30174   */\n      mstore\n        /* \"#utility.yul\":30191:30309   */\n      tag_661\n        /* \"#utility.yul\":30304:30308   */\n      dup2\n        /* \"#utility.yul\":30295:30301   */\n      dup7\n        /* \"#utility.yul\":30287:30293   */\n      dup9\n        /* \"#utility.yul\":30191:30309   */\n      tag_368\n      jump\t// in\n    tag_661:\n        /* \"#utility.yul\":30183:30309   */\n      swap1\n      pop\n        /* \"#utility.yul\":30357:30366   */\n      dup2\n        /* \"#utility.yul\":30351:30355   */\n      dup2\n        /* \"#utility.yul\":30347:30367   */\n      sub\n        /* \"#utility.yul\":30341:30344   */\n      0x80\n        /* \"#utility.yul\":30330:30339   */\n      dup4\n        /* \"#utility.yul\":30326:30345   */\n      add\n        /* \"#utility.yul\":30319:30368   */\n      mstore\n        /* \"#utility.yul\":30385:30471   */\n      tag_662\n        /* \"#utility.yul\":30466:30470   */\n      dup2\n        /* \"#utility.yul\":30457:30463   */\n      dup5\n        /* \"#utility.yul\":30449:30455   */\n      dup7\n        /* \"#utility.yul\":30385:30471   */\n      tag_350\n      jump\t// in\n    tag_662:\n        /* \"#utility.yul\":30377:30471   */\n      swap1\n      pop\n        /* \"#utility.yul\":29365:30478   */\n      swap10\n      swap9\n      pop\n      pop\n      pop\n      pop\n      pop\n      pop\n      pop\n      pop\n      pop\n      jump\t// out\n        /* \"#utility.yul\":30484:30653   */\n    tag_369:\n        /* \"#utility.yul\":30624:30645   */\n      0x416c726561647920696e697469616c697a656400000000000000000000000000\n        /* \"#utility.yul\":30620:30621   */\n      0x00\n        /* \"#utility.yul\":30612:30618   */\n      dup3\n        /* \"#utility.yul\":30608:30622   */\n      add\n        /* \"#utility.yul\":30601:30646   */\n      mstore\n        /* \"#utility.yul\":30484:30653   */\n      pop\n      jump\t// out\n        /* \"#utility.yul\":30659:31025   */\n    tag_370:\n        /* \"#utility.yul\":30801:30804   */\n      0x00\n        /* \"#utility.yul\":30822:30889   */\n      tag_665\n        /* \"#utility.yul\":30886:30888   */\n      0x13\n        /* \"#utility.yul\":30881:30884   */\n      dup4\n        /* \"#utility.yul\":30822:30889   */\n      tag_346\n      jump\t// in\n    tag_665:\n        /* \"#utility.yul\":30815:30889   */\n      swap2\n      pop\n        /* \"#utility.yul\":30898:30991   */\n      tag_666\n        /* \"#utility.yul\":30987:30990   */\n      dup3\n        /* \"#utility.yul\":30898:30991   */\n      tag_369\n      jump\t// in\n    tag_666:\n        /* \"#utility.yul\":31016:31018   */\n      0x20\n        /* \"#utility.yul\":31011:31014   */\n      dup3\n        /* \"#utility.yul\":31007:31019   */\n      add\n        /* \"#utility.yul\":31000:31019   */\n      swap1\n      pop\n        /* \"#utility.yul\":30659:31025   */\n      swap2\n      swap1\n      pop\n      jump\t// out\n        /* \"#utility.yul\":31031:31450   */\n    tag_229:\n        /* \"#utility.yul\":31197:31201   */\n      0x00\n        /* \"#utility.yul\":31235:31237   */\n      0x20\n        /* \"#utility.yul\":31224:31233   */\n      dup3\n        /* \"#utility.yul\":31220:31238   */\n      add\n        /* \"#utility.yul\":31212:31238   */\n      swap1\n      pop\n        /* \"#utility.yul\":31284:31293   */\n      dup2\n        /* \"#utility.yul\":31278:31282   */\n      dup2\n        /* \"#utility.yul\":31274:31294   */\n      sub\n        /* \"#utility.yul\":31270:31271   */\n      0x00\n        /* \"#utility.yul\":31259:31268   */\n      dup4\n        /* \"#utility.yul\":31255:31272   */\n      add\n        /* \"#utility.yul\":31248:31295   */\n      mstore\n        /* \"#utility.yul\":31312:31443   */\n      tag_668\n        /* \"#utility.yul\":31438:31442   */\n      dup2\n        /* \"#utility.yul\":31312:31443   */\n      tag_370\n      jump\t// in\n    tag_668:\n        /* \"#utility.yul\":31304:31443   */\n      swap1\n      pop\n        /* \"#utility.yul\":31031:31450   */\n      swap2\n      swap1\n      pop\n      jump\t// out\n        /* \"#utility.yul\":31456:31636   */\n    tag_262:\n        /* \"#utility.yul\":31504:31581   */\n      0x4e487b7100000000000000000000000000000000000000000000000000000000\n        /* \"#utility.yul\":31501:31502   */\n      0x00\n        /* \"#utility.yul\":31494:31582   */\n      mstore\n        /* \"#utility.yul\":31601:31605   */\n      0x32\n        /* \"#utility.yul\":31598:31599   */\n      0x04\n        /* \"#utility.yul\":31591:31606   */\n      mstore\n        /* \"#utility.yul\":31625:31629   */\n      0x24\n        /* \"#utility.yul\":31622:31623   */\n      0x00\n        /* \"#utility.yul\":31615:31630   */\n      revert\n        /* \"#utility.yul\":31642:31822   */\n    tag_371:\n        /* \"#utility.yul\":31690:31767   */\n      0x4e487b7100000000000000000000000000000000000000000000000000000000\n        /* \"#utility.yul\":31687:31688   */\n      0x00\n        /* \"#utility.yul\":31680:31768   */\n      mstore\n        /* \"#utility.yul\":31787:31791   */\n      0x11\n        /* \"#utility.yul\":31784:31785   */\n      0x04\n        /* \"#utility.yul\":31777:31792   */\n      mstore\n        /* \"#utility.yul\":31811:31815   */\n      0x24\n        /* \"#utility.yul\":31808:31809   */\n      0x00\n        /* \"#utility.yul\":31801:31816   */\n      revert\n        /* \"#utility.yul\":31828:32061   */\n    tag_270:\n        /* \"#utility.yul\":31867:31870   */\n      0x00\n        /* \"#utility.yul\":31890:31914   */\n      tag_672\n        /* \"#utility.yul\":31908:31913   */\n      dup3\n        /* \"#utility.yul\":31890:31914   */\n      tag_320\n      jump\t// in\n    tag_672:\n        /* \"#utility.yul\":31881:31914   */\n      swap2\n      pop\n        /* \"#utility.yul\":31936:32002   */\n      0xffffffffffffffffffffffffffffffffffffffffffffffffffffffffffffffff\n        /* \"#utility.yul\":31929:31934   */\n      dup3\n        /* \"#utility.yul\":31926:32003   */\n      eq\n        /* \"#utility.yul\":31923:32026   */\n      iszero\n      tag_673\n      jumpi\n        /* \"#utility.yul\":32006:32024   */\n      tag_674\n      tag_371\n      jump\t// in\n    tag_674:\n        /* \"#utility.yul\":31923:32026   */\n    tag_673:\n        /* \"#utility.yul\":32053:32054   */\n      0x01\n        /* \"#utility.yul\":32046:32051   */\n      dup3\n        /* \"#utility.yul\":32042:32055   */\n      add\n        /* \"#utility.yul\":32035:32055   */\n      swap1\n      pop\n        /* \"#utility.yul\":31828:32061   */\n      swap2\n      swap1\n      pop\n      jump\t// out\n        /* \"#utility.yul\":32067:32181   */\n    tag_372:\n        /* \"#utility.yul\":32134:32140   */\n      0x00\n        /* \"#utility.yul\":32168:32173   */\n      dup2\n        /* \"#utility.yul\":32162:32174   */\n      mload\n        /* \"#utility.yul\":32152:32174   */\n      swap1\n      pop\n        /* \"#utility.yul\":32067:32181   */\n      swap2\n      swap1\n      pop\n      jump\t// out\n        /* \"#utility.yul\":32187:32319   */\n    tag_373:\n        /* \"#utility.yul\":32254:32258   */\n      0x00\n        /* \"#utility.yul\":32277:32280   */\n      dup2\n        /* \"#utility.yul\":32269:32280   */\n      swap1\n      pop\n        /* \"#utility.yul\":32307:32311   */\n      0x20\n        /* \"#utility.yul\":32302:32305   */\n      dup3\n        /* \"#utility.yul\":32298:32312   */\n      add\n        /* \"#utility.yul\":32290:32312   */\n      swap1\n      pop\n        /* \"#utility.yul\":32187:32319   */\n      swap2\n      swap1\n      pop\n      jump\t// out\n        /* \"#utility.yul\":32325:32433   */\n    tag_374:\n        /* \"#utility.yul\":32402:32426   */\n      tag_678\n        /* \"#utility.yul\":32420:32425   */\n      dup2\n        /* \"#utility.yul\":32402:32426   */\n      tag_320\n      jump\t// in\n    tag_678:\n        /* \"#utility.yul\":32397:32400   */\n      dup3\n        /* \"#utility.yul\":32390:32427   */\n      mstore\n        /* \"#utility.yul\":32325:32433   */\n      pop\n      pop\n      jump\t// out\n        /* \"#utility.yul\":32439:32618   */\n    tag_375:\n        /* \"#utility.yul\":32508:32518   */\n      0x00\n        /* \"#utility.yul\":32529:32575   */\n      tag_680\n        /* \"#utility.yul\":32571:32574   */\n      dup4\n        /* \"#utility.yul\":32563:32569   */\n      dup4\n        /* \"#utility.yul\":32529:32575   */\n      tag_374\n      jump\t// in\n    tag_680:\n        /* \"#utility.yul\":32607:32611   */\n      0x20\n        /* \"#utility.yul\":32602:32605   */\n      dup4\n        /* \"#utility.yul\":32598:32612   */\n      add\n        /* \"#utility.yul\":32584:32612   */\n      swap1\n      pop\n        /* \"#utility.yul\":32439:32618   */\n      swap3\n      swap2\n      pop\n      pop\n      jump\t// out\n        /* \"#utility.yul\":32624:32737   */\n    tag_376:\n        /* \"#utility.yul\":32694:32698   */\n      0x00\n        /* \"#utility.yul\":32726:32730   */\n      0x20\n        /* \"#utility.yul\":32721:32724   */\n      dup3\n        /* \"#utility.yul\":32717:32731   */\n      add\n        /* \"#utility.yul\":32709:32731   */\n      swap1\n      pop\n        /* \"#utility.yul\":32624:32737   */\n      swap2\n      swap1\n      pop\n      jump\t// out\n        /* \"#utility.yul\":32773:33505   */\n    tag_377:\n        /* \"#utility.yul\":32892:32895   */\n      0x00\n        /* \"#utility.yul\":32921:32975   */\n      tag_683\n        /* \"#utility.yul\":32969:32974   */\n      dup3\n        /* \"#utility.yul\":32921:32975   */\n      tag_372\n      jump\t// in\n    tag_683:\n        /* \"#utility.yul\":32991:33077   */\n      tag_684\n        /* \"#utility.yul\":33070:33076   */\n      dup2\n        /* \"#utility.yul\":33065:33068   */\n      dup6\n        /* \"#utility.yul\":32991:33077   */\n      tag_366\n      jump\t// in\n    tag_684:\n        /* \"#utility.yul\":32984:33077   */\n      swap4\n      pop\n        /* \"#utility.yul\":33101:33157   */\n      tag_685\n        /* \"#utility.yul\":33151:33156   */\n      dup4\n        /* \"#utility.yul\":33101:33157   */\n      tag_373\n      jump\t// in\n    tag_685:\n        /* \"#utility.yul\":33180:33187   */\n      dup1\n        /* \"#utility.yul\":33211:33212   */\n      0x00\n        /* \"#utility.yul\":33196:33480   */\n    tag_686:\n        /* \"#utility.yul\":33221:33227   */\n      dup4\n        /* \"#utility.yul\":33218:33219   */\n      dup2\n        /* \"#utility.yul\":33215:33228   */\n      lt\n        /* \"#utility.yul\":33196:33480   */\n      iszero\n      tag_688\n      jumpi\n        /* \"#utility.yul\":33297:33303   */\n      dup2\n        /* \"#utility.yul\":33291:33304   */\n      mload\n        /* \"#utility.yul\":33324:33387   */\n      tag_689\n        /* \"#utility.yul\":33383:33386   */\n      dup9\n        /* \"#utility.yul\":33368:33381   */\n      dup3\n        /* \"#utility.yul\":33324:33387   */\n      tag_375\n      jump\t// in\n    tag_689:\n        /* \"#utility.yul\":33317:33387   */\n      swap8\n      pop\n        /* \"#utility.yul\":33410:33470   */\n      tag_690\n        /* \"#utility.yul\":33463:33469   */\n      dup4\n        /* \"#utility.yul\":33410:33470   */\n      tag_376\n      jump\t// in\n    tag_690:\n        /* \"#utility.yul\":33400:33470   */\n      swap3\n      pop\n        /* \"#utility.yul\":33256:33480   */\n      pop\n        /* \"#utility.yul\":33243:33244   */\n      0x01\n        /* \"#utility.yul\":33240:33241   */\n      dup2\n        /* \"#utility.yul\":33236:33245   */\n      add\n        /* \"#utility.yul\":33231:33245   */\n      swap1\n      pop\n        /* \"#utility.yul\":33196:33480   */\n      jump(tag_686)\n    tag_688:\n        /* \"#utility.yul\":33200:33214   */\n      pop\n        /* \"#utility.yul\":33496:33499   */\n      dup6\n        /* \"#utility.yul\":33489:33499   */\n      swap4\n      pop\n        /* \"#utility.yul\":32897:33505   */\n      pop\n      pop\n      pop\n        /* \"#utility.yul\":32773:33505   */\n      swap3\n      swap2\n      pop\n      pop\n      jump\t// out\n        /* \"#utility.yul\":33511:34692   */\n    tag_272:\n        /* \"#utility.yul\":33898:33902   */\n      0x00\n        /* \"#utility.yul\":33936:33939   */\n      0xa0\n        /* \"#utility.yul\":33925:33934   */\n      dup3\n        /* \"#utility.yul\":33921:33940   */\n      add\n        /* \"#utility.yul\":33913:33940   */\n      swap1\n      pop\n        /* \"#utility.yul\":33950:34021   */\n      tag_692\n        /* \"#utility.yul\":34018:34019   */\n      0x00\n        /* \"#utility.yul\":34007:34016   */\n      dup4\n        /* \"#utility.yul\":34003:34020   */\n      add\n        /* \"#utility.yul\":33994:34000   */\n      dup9\n        /* \"#utility.yul\":33950:34021   */\n      tag_309\n      jump\t// in\n    tag_692:\n        /* \"#utility.yul\":34031:34103   */\n      tag_693\n        /* \"#utility.yul\":34099:34101   */\n      0x20\n        /* \"#utility.yul\":34088:34097   */\n      dup4\n        /* \"#utility.yul\":34084:34102   */\n      add\n        /* \"#utility.yul\":34075:34081   */\n      dup8\n        /* \"#utility.yul\":34031:34103   */\n      tag_309\n      jump\t// in\n    tag_693:\n        /* \"#utility.yul\":34150:34159   */\n      dup2\n        /* \"#utility.yul\":34144:34148   */\n      dup2\n        /* \"#utility.yul\":34140:34160   */\n      sub\n        /* \"#utility.yul\":34135:34137   */\n      0x40\n        /* \"#utility.yul\":34124:34133   */\n      dup4\n        /* \"#utility.yul\":34120:34138   */\n      add\n        /* \"#utility.yul\":34113:34161   */\n      mstore\n        /* \"#utility.yul\":34178:34296   */\n      tag_694\n        /* \"#utility.yul\":34291:34295   */\n      dup2\n        /* \"#utility.yul\":34282:34288   */\n      dup6\n        /* \"#utility.yul\":34274:34280   */\n      dup8\n        /* \"#utility.yul\":34178:34296   */\n      tag_368\n      jump\t// in\n    tag_694:\n        /* \"#utility.yul\":34170:34296   */\n      swap1\n      pop\n        /* \"#utility.yul\":34343:34352   */\n      dup2\n        /* \"#utility.yul\":34337:34341   */\n      dup2\n        /* \"#utility.yul\":34333:34353   */\n      sub\n        /* \"#utility.yul\":34328:34330   */\n      0x60\n        /* \"#utility.yul\":34317:34326   */\n      dup4\n        /* \"#utility.yul\":34313:34331   */\n      add\n        /* \"#utility.yul\":34306:34354   */\n      mstore\n        /* \"#utility.yul\":34371:34479   */\n      tag_695\n        /* \"#utility.yul\":34474:34478   */\n      dup2\n        /* \"#utility.yul\":34465:34471   */\n      dup5\n        /* \"#utility.yul\":34371:34479   */\n      tag_377\n      jump\t// in\n    tag_695:\n        /* \"#utility.yul\":34363:34479   */\n      swap1\n      pop\n        /* \"#utility.yul\":34527:34536   */\n      dup2\n        /* \"#utility.yul\":34521:34525   */\n      dup2\n        /* \"#utility.yul\":34517:34537   */\n      sub\n        /* \"#utility.yul\":34511:34514   */\n      0x80\n        /* \"#utility.yul\":34500:34509   */\n      dup4\n        /* \"#utility.yul\":34496:34515   */\n      add\n        /* \"#utility.yul\":34489:34538   */\n      mstore\n        /* \"#utility.yul\":34555:34685   */\n      tag_696\n        /* \"#utility.yul\":34680:34684   */\n      dup2\n        /* \"#utility.yul\":34555:34685   */\n      tag_365\n      jump\t// in\n    tag_696:\n        /* \"#utility.yul\":34547:34685   */\n      swap1\n      pop\n        /* \"#utility.yul\":33511:34692   */\n      swap7\n      swap6\n      pop\n      pop\n      pop\n      pop\n      pop\n      pop\n      jump\t// out\n        /* \"#utility.yul\":34698:35469   */\n    tag_285:\n        /* \"#utility.yul\":34931:34935   */\n      0x00\n        /* \"#utility.yul\":34969:34972   */\n      0xa0\n        /* \"#utility.yul\":34958:34967   */\n      dup3\n        /* \"#utility.yul\":34954:34973   */\n      add\n        /* \"#utility.yul\":34946:34973   */\n      swap1\n      pop\n        /* \"#utility.yul\":34983:35054   */\n      tag_698\n        /* \"#utility.yul\":35051:35052   */\n      0x00\n        /* \"#utility.yul\":35040:35049   */\n      dup4\n        /* \"#utility.yul\":35036:35053   */\n      add\n        /* \"#utility.yul\":35027:35033   */\n      dup10\n        /* \"#utility.yul\":34983:35054   */\n      tag_309\n      jump\t// in\n    tag_698:\n        /* \"#utility.yul\":35064:35136   */\n      tag_699\n        /* \"#utility.yul\":35132:35134   */\n      0x20\n        /* \"#utility.yul\":35121:35130   */\n      dup4\n        /* \"#utility.yul\":35117:35135   */\n      add\n        /* \"#utility.yul\":35108:35114   */\n      dup9\n        /* \"#utility.yul\":35064:35136   */\n      tag_309\n      jump\t// in\n    tag_699:\n        /* \"#utility.yul\":35146:35218   */\n      tag_700\n        /* \"#utility.yul\":35214:35216   */\n      0x40\n        /* \"#utility.yul\":35203:35212   */\n      dup4\n        /* \"#utility.yul\":35199:35217   */\n      add\n        /* \"#utility.yul\":35190:35196   */\n      dup8\n        /* \"#utility.yul\":35146:35218   */\n      tag_349\n      jump\t// in\n    tag_700:\n        /* \"#utility.yul\":35228:35300   */\n      tag_701\n        /* \"#utility.yul\":35296:35298   */\n      0x60\n        /* \"#utility.yul\":35285:35294   */\n      dup4\n        /* \"#utility.yul\":35281:35299   */\n      add\n        /* \"#utility.yul\":35272:35278   */\n      dup7\n        /* \"#utility.yul\":35228:35300   */\n      tag_349\n      jump\t// in\n    tag_701:\n        /* \"#utility.yul\":35348:35357   */\n      dup2\n        /* \"#utility.yul\":35342:35346   */\n      dup2\n        /* \"#utility.yul\":35338:35358   */\n      sub\n        /* \"#utility.yul\":35332:35335   */\n      0x80\n        /* \"#utility.yul\":35321:35330   */\n      dup4\n        /* \"#utility.yul\":35317:35336   */\n      add\n        /* \"#utility.yul\":35310:35359   */\n      mstore\n        /* \"#utility.yul\":35376:35462   */\n      tag_702\n        /* \"#utility.yul\":35457:35461   */\n      dup2\n        /* \"#utility.yul\":35448:35454   */\n      dup5\n        /* \"#utility.yul\":35440:35446   */\n      dup7\n        /* \"#utility.yul\":35376:35462   */\n      tag_350\n      jump\t// in\n    tag_702:\n        /* \"#utility.yul\":35368:35462   */\n      swap1\n      pop\n        /* \"#utility.yul\":34698:35469   */\n      swap8\n      swap7\n      pop\n      pop\n      pop\n      pop\n      pop\n      pop\n      pop\n      jump\t// out\n        /* \"#utility.yul\":35475:35848   */\n    tag_378:\n        /* \"#utility.yul\":35579:35582   */\n      0x00\n        /* \"#utility.yul\":35607:35645   */\n      tag_704\n        /* \"#utility.yul\":35639:35644   */\n      dup3\n        /* \"#utility.yul\":35607:35645   */\n      tag_336\n      jump\t// in\n    tag_704:\n        /* \"#utility.yul\":35661:35749   */\n      tag_705\n        /* \"#utility.yul\":35742:35748   */\n      dup2\n        /* \"#utility.yul\":35737:35740   */\n      dup6\n        /* \"#utility.yul\":35661:35749   */\n      tag_343\n      jump\t// in\n    tag_705:\n        /* \"#utility.yul\":35654:35749   */\n      swap4\n      pop\n        /* \"#utility.yul\":35758:35810   */\n      tag_706\n        /* \"#utility.yul\":35803:35809   */\n      dup2\n        /* \"#utility.yul\":35798:35801   */\n      dup6\n        /* \"#utility.yul\":35791:35795   */\n      0x20\n        /* \"#utility.yul\":35784:35789   */\n      dup7\n        /* \"#utility.yul\":35780:35796   */\n      add\n        /* \"#utility.yul\":35758:35810   */\n      tag_338\n      jump\t// in\n    tag_706:\n        /* \"#utility.yul\":35835:35841   */\n      dup1\n        /* \"#utility.yul\":35830:35833   */\n      dup5\n        /* \"#utility.yul\":35826:35842   */\n      add\n        /* \"#utility.yul\":35819:35842   */\n      swap2\n      pop\n        /* \"#utility.yul\":35583:35848   */\n      pop\n        /* \"#utility.yul\":35475:35848   */\n      swap3\n      swap2\n      pop\n      pop\n      jump\t// out\n        /* \"#utility.yul\":35854:36125   */\n    tag_296:\n        /* \"#utility.yul\":35984:35987   */\n      0x00\n        /* \"#utility.yul\":36006:36099   */\n      tag_708\n        /* \"#utility.yul\":36095:36098   */\n      dup3\n        /* \"#utility.yul\":36086:36092   */\n      dup5\n        /* \"#utility.yul\":36006:36099   */\n      tag_378\n      jump\t// in\n    tag_708:\n        /* \"#utility.yul\":35999:36099   */\n      swap2\n      pop\n        /* \"#utility.yul\":36116:36119   */\n      dup2\n        /* \"#utility.yul\":36109:36119   */\n      swap1\n      pop\n        /* \"#utility.yul\":35854:36125   */\n      swap3\n      swap2\n      pop\n      pop\n      jump\t// out\n        /* \"#utility.yul\":36131:36363   */\n    tag_379:\n        /* \"#utility.yul\":36271:36305   */\n      0x5472616e7366657248656c7065723a3a736166655472616e736665723a207472\n        /* \"#utility.yul\":36267:36268   */\n      0x00\n        /* \"#utility.yul\":36259:36265   */\n      dup3\n        /* \"#utility.yul\":36255:36269   */\n      add\n        /* \"#utility.yul\":36248:36306   */\n      mstore\n        /* \"#utility.yul\":36340:36355   */\n      0x616e73666572206661696c656400000000000000000000000000000000000000\n        /* \"#utility.yul\":36335:36337   */\n      0x20\n        /* \"#utility.yul\":36327:36333   */\n      dup3\n        /* \"#utility.yul\":36323:36338   */\n      add\n        /* \"#utility.yul\":36316:36356   */\n      mstore\n        /* \"#utility.yul\":36131:36363   */\n      pop\n      jump\t// out\n        /* \"#utility.yul\":36369:36735   */\n    tag_380:\n        /* \"#utility.yul\":36511:36514   */\n      0x00\n        /* \"#utility.yul\":36532:36599   */\n      tag_711\n        /* \"#utility.yul\":36596:36598   */\n      0x2d\n        /* \"#utility.yul\":36591:36594   */\n      dup4\n        /* \"#utility.yul\":36532:36599   */\n      tag_346\n      jump\t// in\n    tag_711:\n        /* \"#utility.yul\":36525:36599   */\n      swap2\n      pop\n        /* \"#utility.yul\":36608:36701   */\n      tag_712\n        /* \"#utility.yul\":36697:36700   */\n      dup3\n        /* \"#utility.yul\":36608:36701   */\n      tag_379\n      jump\t// in\n    tag_712:\n        /* \"#utility.yul\":36726:36728   */\n      0x40\n        /* \"#utility.yul\":36721:36724   */\n      dup3\n        /* \"#utility.yul\":36717:36729   */\n      add\n        /* \"#utility.yul\":36710:36729   */\n      swap1\n      pop\n        /* \"#utility.yul\":36369:36735   */\n      swap2\n      swap1\n      pop\n      jump\t// out\n        /* \"#utility.yul\":36741:37160   */\n    tag_305:\n        /* \"#utility.yul\":36907:36911   */\n      0x00\n        /* \"#utility.yul\":36945:36947   */\n      0x20\n        /* \"#utility.yul\":36934:36943   */\n      dup3\n        /* \"#utility.yul\":36930:36948   */\n      add\n        /* \"#utility.yul\":36922:36948   */\n      swap1\n      pop\n        /* \"#utility.yul\":36994:37003   */\n      dup2\n        /* \"#utility.yul\":36988:36992   */\n      dup2\n        /* \"#utility.yul\":36984:37004   */\n      sub\n        /* \"#utility.yul\":36980:36981   */\n      0x00\n        /* \"#utility.yul\":36969:36978   */\n      dup4\n        /* \"#utility.yul\":36965:36982   */\n      add\n        /* \"#utility.yul\":36958:37005   */\n      mstore\n        /* \"#utility.yul\":37022:37153   */\n      tag_714\n        /* \"#utility.yul\":37148:37152   */\n      dup2\n        /* \"#utility.yul\":37022:37153   */\n      tag_380\n      jump\t// in\n    tag_714:\n        /* \"#utility.yul\":37014:37153   */\n      swap1\n      pop\n        /* \"#utility.yul\":36741:37160   */\n      swap2\n      swap1\n      pop\n      jump\t// out\n\n    auxdata: 0xa2646970667358221220e8221c400028cc62662330f7a8d595ac4a846e3c778df3dbc02449e81b61be3864736f6c634300080a0033\n}\n",
				"bytecode": {
					"linkReferences": {},
					"object": "60806040526001600060146101000a81548160ff0219169083151502179055506001600060156101000a81548160ff02191690831515021790555034801561004657600080fd5b50612e00806100566000396000f3fe6080604052600436106100f65760003560e01c80638acc01be1161008a578063c59f9f1911610059578063c59f9f191461033d578063c6a2dd2414610366578063f23a6e611461038f578063f684e1ed146103cc57610105565b80638acc01be14610283578063bad23ab9146102ac578063bc197c81146102d7578063bee3e6761461031457610105565b80633ef13367116100c65780633ef13367146101dd5780636b9f96ea1461020657806377e60b351461021d5780638972c17c1461025a57610105565b8062821de31461010f57806301ffc9a71461013a578063150b7a0214610177578063159e44d7146101b457610105565b36610105576101036103f7565b005b61010d6103f7565b005b34801561011b57600080fd5b5061012461051b565b6040516101319190611b77565b60405180910390f35b34801561014657600080fd5b50610161600480360381019061015c9190611bfe565b61053f565b60405161016e9190611c46565b60405180910390f35b34801561018357600080fd5b5061019e60048036038101906101999190611e09565b6105b9565b6040516101ab9190611e9b565b60405180910390f35b3480156101c057600080fd5b506101db60048036038101906101d69190611eb6565b610752565b005b3480156101e957600080fd5b5061020460048036038101906101ff9190611ef6565b6109d1565b005b34801561021257600080fd5b5061021b6103f7565b005b34801561022957600080fd5b50610244600480360381019061023f9190611f83565b610b2a565b604051610251919061207f565b60405180910390f35b34801561026657600080fd5b50610281600480360381019061027c9190611eb6565b610c79565b005b34801561028f57600080fd5b506102aa60048036038101906102a591906120cd565b610f01565b005b3480156102b857600080fd5b506102c1610fac565b6040516102ce9190611c46565b60405180910390f35b3480156102e357600080fd5b506102fe60048036038101906102f99190612150565b610fbf565b60405161030b9190611e9b565b60405180910390f35b34801561032057600080fd5b5061033b6004803603810190610336919061222c565b611164565b005b34801561034957600080fd5b50610364600480360381019061035f91906120cd565b61138e565b005b34801561037257600080fd5b5061038d6004803603810190610388919061227f565b611439565b005b34801561039b57600080fd5b506103b660048036038101906103b191906122df565b61176a565b6040516103c39190611e9b565b60405180910390f35b3480156103d857600080fd5b506103e1611909565b6040516103ee9190611c46565b60405180910390f35b6000479050600081141561040b5750610519565b60008060009054906101000a900473ffffffffffffffffffffffffffffffffffffffff1673ffffffffffffffffffffffffffffffffffffffff1682604051610452906123aa565b60006040518083038185875af1925050503d806000811461048f576040519150601f19603f3d011682016040523d82523d6000602084013e610494565b606091505b50509050806104d8576040517f08c379a00000000000000000000000000000000000000000000000000000000081526004016104cf9061241c565b60405180910390fd5b7f69b31548dea9b3b707b4dff357d326e3e9348b24e7a6080a218a6edeeec48f9b338360003660405161050e9493929190612478565b60405180910390a150505b565b60008054906101000a900473ffffffffffffffffffffffffffffffffffffffff1681565b60007f2becf54f000000000000000000000000000000000000000000000000000000007bffffffffffffffffffffffffffffffffffffffffffffffffffffffff1916827bffffffffffffffffffffffffffffffffffffffffffffffffffffffff191614806105b257506105b18261191c565b5b9050919050565b60008060149054906101000a900460ff16156107405760003390508073ffffffffffffffffffffffffffffffffffffffff166301ffc9a77f80ac58cd000000000000000000000000000000000000000000000000000000006040518263ffffffff1660e01b815260040161062d9190611e9b565b602060405180830381865afa15801561064a573d6000803e3d6000fd5b505050506040513d601f19601f8201168201806040525081019061066e91906124cd565b6106ad576040517f08c379a00000000000000000000000000000000000000000000000000000000081526004016106a49061256c565b60405180910390fd5b8073ffffffffffffffffffffffffffffffffffffffff1663b88d4fde3060008054906101000a900473ffffffffffffffffffffffffffffffffffffffff1687876040518563ffffffff1660e01b815260040161070c949392919061258c565b600060405180830381600087803b15801561072657600080fd5b505af115801561073a573d6000803e3d6000fd5b50505050505b63150b7a0260e01b9050949350505050565b60008054906101000a900473ffffffffffffffffffffffffffffffffffffffff1673ffffffffffffffffffffffffffffffffffffffff163373ffffffffffffffffffffffffffffffffffffffff16146107e0576040517f08c379a00000000000000000000000000000000000000000000000000000000081526004016107d790612624565b60405180910390fd5b60008290508073ffffffffffffffffffffffffffffffffffffffff166301ffc9a77f80ac58cd000000000000000000000000000000000000000000000000000000006040518263ffffffff1660e01b815260040161083e9190611e9b565b602060405180830381865afa15801561085b573d6000803e3d6000fd5b505050506040513d601f19601f8201168201806040525081019061087f91906124cd565b6108be576040517f08c379a00000000000000000000000000000000000000000000000000000000081526004016108b5906126b6565b60405180910390fd5b60008173ffffffffffffffffffffffffffffffffffffffff16636352211e846040518263ffffffff1660e01b81526004016108f991906126d6565b602060405180830381865afa158015610916573d6000803e3d6000fd5b505050506040513d601f19601f8201168201806040525081019061093a9190612706565b90508173ffffffffffffffffffffffffffffffffffffffff166323b872dd8260008054906101000a900473ffffffffffffffffffffffffffffffffffffffff16866040518463ffffffff1660e01b815260040161099993929190612733565b600060405180830381600087803b1580156109b357600080fd5b505af11580156109c7573d6000803e3d6000fd5b5050505050505050565b60008054906101000a900473ffffffffffffffffffffffffffffffffffffffff1673ffffffffffffffffffffffffffffffffffffffff163373ffffffffffffffffffffffffffffffffffffffff1614610a5f576040517f08c379a0000000000000000000000000000000000000000000000000000000008152600401610a5690612624565b60405180910390fd5b6000819050600030905060008273ffffffffffffffffffffffffffffffffffffffff166370a08231836040518263ffffffff1660e01b8152600401610aa49190611b77565b602060405180830381865afa158015610ac1573d6000803e3d6000fd5b505050506040513d601f19601f82011682018060405250810190610ae5919061277f565b90506000811415610af857505050610b27565b610b238460008054906101000a900473ffffffffffffffffffffffffffffffffffffffff1683611996565b5050505b50565b606060008054906101000a900473ffffffffffffffffffffffffffffffffffffffff1673ffffffffffffffffffffffffffffffffffffffff163373ffffffffffffffffffffffffffffffffffffffff1614610bba576040517f08c379a0000000000000000000000000000000000000000000000000000000008152600401610bb190612624565b60405180910390fd5b6000808673ffffffffffffffffffffffffffffffffffffffff16868686604051610be59291906127d1565b60006040518083038185875af1925050503d8060008114610c22576040519150601f19603f3d011682016040523d82523d6000602084013e610c27565b606091505b509150915081610c6c576040517f08c379a0000000000000000000000000000000000000000000000000000000008152600401610c6390612836565b60405180910390fd5b8092505050949350505050565b60008054906101000a900473ffffffffffffffffffffffffffffffffffffffff1673ffffffffffffffffffffffffffffffffffffffff163373ffffffffffffffffffffffffffffffffffffffff1614610d07576040517f08c379a0000000000000000000000000000000000000000000000000000000008152600401610cfe90612624565b60405180910390fd5b60008290508073ffffffffffffffffffffffffffffffffffffffff166301ffc9a77fd9b67a26000000000000000000000000000000000000000000000000000000006040518263ffffffff1660e01b8152600401610d659190611e9b565b602060405180830381865afa158015610d82573d6000803e3d6000fd5b505050506040513d601f19601f82011682018060405250810190610da691906124cd565b610de5576040517f08c379a0000000000000000000000000000000000000000000000000000000008152600401610ddc906128c8565b60405180910390fd5b600030905060008273ffffffffffffffffffffffffffffffffffffffff1662fdd58e83866040518363ffffffff1660e01b8152600401610e269291906128e8565b602060405180830381865afa158015610e43573d6000803e3d6000fd5b505050506040513d601f19601f82011682018060405250810190610e67919061277f565b90508273ffffffffffffffffffffffffffffffffffffffff1663f242432a8360008054906101000a900473ffffffffffffffffffffffffffffffffffffffff1687856040518563ffffffff1660e01b8152600401610ec89493929190612934565b600060405180830381600087803b158015610ee257600080fd5b505af1158015610ef6573d6000803e3d6000fd5b505050505050505050565b60008054906101000a900473ffffffffffffffffffffffffffffffffffffffff1673ffffffffffffffffffffffffffffffffffffffff163373ffffffffffffffffffffffffffffffffffffffff1614610f8f576040517f08c379a0000000000000000000000000000000000000000000000000000000008152600401610f8690612624565b60405180910390fd5b80600060156101000a81548160ff02191690831515021790555050565b600060159054906101000a900460ff1681565b6000803390508073ffffffffffffffffffffffffffffffffffffffff166301ffc9a77fd9b67a26000000000000000000000000000000000000000000000000000000006040518263ffffffff1660e01b815260040161101e9190611e9b565b602060405180830381865afa15801561103b573d6000803e3d6000fd5b505050506040513d601f19601f8201168201806040525081019061105f91906124cd565b61109e576040517f08c379a0000000000000000000000000000000000000000000000000000000008152600401611095906128c8565b60405180910390fd5b600060159054906101000a900460ff161561114d578073ffffffffffffffffffffffffffffffffffffffff16632eb2c2d63060008054906101000a900473ffffffffffffffffffffffffffffffffffffffff168b8b8b8b8b8b6040518963ffffffff1660e01b815260040161111a9897969594939291906129fe565b600060405180830381600087803b15801561113457600080fd5b505af1158015611148573d6000803e3d6000fd5b505050505b63bc197c8160e01b91505098975050505050505050565b600073ffffffffffffffffffffffffffffffffffffffff1660008054906101000a900473ffffffffffffffffffffffffffffffffffffffff1673ffffffffffffffffffffffffffffffffffffffff16146111f3576040517f08c379a00000000000000000000000000000000000000000000000000000000081526004016111ea90612ab8565b60405180910390fd5b826000806101000a81548173ffffffffffffffffffffffffffffffffffffffff021916908373ffffffffffffffffffffffffffffffffffffffff160217905550600047905082600060146101000a81548160ff02191690831515021790555081600060156101000a81548160ff021916908315150217905550600081141561127b5750611389565b60008060009054906101000a900473ffffffffffffffffffffffffffffffffffffffff1673ffffffffffffffffffffffffffffffffffffffff16826040516112c2906123aa565b60006040518083038185875af1925050503d80600081146112ff576040519150601f19603f3d011682016040523d82523d6000602084013e611304565b606091505b5050905080611348576040517f08c379a000000000000000000000000000000000000000000000000000000000815260040161133f9061241c565b60405180910390fd5b7f69b31548dea9b3b707b4dff357d326e3e9348b24e7a6080a218a6edeeec48f9b308360003660405161137e9493929190612478565b60405180910390a150505b505050565b60008054906101000a900473ffffffffffffffffffffffffffffffffffffffff1673ffffffffffffffffffffffffffffffffffffffff163373ffffffffffffffffffffffffffffffffffffffff161461141c576040517f08c379a000000000000000000000000000000000000000000000000000000000815260040161141390612624565b60405180910390fd5b80600060146101000a81548160ff02191690831515021790555050565b60008054906101000a900473ffffffffffffffffffffffffffffffffffffffff1673ffffffffffffffffffffffffffffffffffffffff163373ffffffffffffffffffffffffffffffffffffffff16146114c7576040517f08c379a00000000000000000000000000000000000000000000000000000000081526004016114be90612624565b60405180910390fd5b60008390508073ffffffffffffffffffffffffffffffffffffffff166301ffc9a77fd9b67a26000000000000000000000000000000000000000000000000000000006040518263ffffffff1660e01b81526004016115259190611e9b565b602060405180830381865afa158015611542573d6000803e3d6000fd5b505050506040513d601f19601f8201168201806040525081019061156691906124cd565b6115a5576040517f08c379a000000000000000000000000000000000000000000000000000000000815260040161159c906128c8565b60405180910390fd5b600030905060008484905067ffffffffffffffff8111156115c9576115c8611cde565b5b6040519080825280602002602001820160405280156115f75781602001602082028036833780820191505090505b50905060005b858590508110156116ce578373ffffffffffffffffffffffffffffffffffffffff1662fdd58e8488888581811061163757611636612ad8565b5b905060200201356040518363ffffffff1660e01b815260040161165b9291906128e8565b602060405180830381865afa158015611678573d6000803e3d6000fd5b505050506040513d601f19601f8201168201806040525081019061169c919061277f565b8282815181106116af576116ae612ad8565b5b60200260200101818152505080806116c690612b36565b9150506115fd565b508273ffffffffffffffffffffffffffffffffffffffff16632eb2c2d68360008054906101000a900473ffffffffffffffffffffffffffffffffffffffff168888866040518663ffffffff1660e01b8152600401611730959493929190612c2c565b600060405180830381600087803b15801561174a57600080fd5b505af115801561175e573d6000803e3d6000fd5b50505050505050505050565b6000803390508073ffffffffffffffffffffffffffffffffffffffff166301ffc9a77fd9b67a26000000000000000000000000000000000000000000000000000000006040518263ffffffff1660e01b81526004016117c99190611e9b565b602060405180830381865afa1580156117e6573d6000803e3d6000fd5b505050506040513d601f19601f8201168201806040525081019061180a91906124cd565b611849576040517f08c379a0000000000000000000000000000000000000000000000000000000008152600401611840906128c8565b60405180910390fd5b600060159054906101000a900460ff16156118f4578073ffffffffffffffffffffffffffffffffffffffff1663f242432a3060008054906101000a900473ffffffffffffffffffffffffffffffffffffffff16898989896040518763ffffffff1660e01b81526004016118c196959493929190612c94565b600060405180830381600087803b1580156118db57600080fd5b505af11580156118ef573d6000803e3d6000fd5b505050505b63f23a6e6160e01b9150509695505050505050565b600060149054906101000a900460ff1681565b60007f4e2312e0000000000000000000000000000000000000000000000000000000007bffffffffffffffffffffffffffffffffffffffffffffffffffffffff1916827bffffffffffffffffffffffffffffffffffffffffffffffffffffffff1916148061198f575061198e82611acc565b5b9050919050565b6000808473ffffffffffffffffffffffffffffffffffffffff1663a9059cbb85856040516024016119c89291906128e8565b6040516020818303038152906040529060e01b6020820180517bffffffffffffffffffffffffffffffffffffffffffffffffffffffff8381831617835250505050604051611a169190612d21565b6000604051808303816000865af19150503d8060008114611a53576040519150601f19603f3d011682016040523d82523d6000602084013e611a58565b606091505b5091509150818015611a865750600081511480611a85575080806020019051810190611a8491906124cd565b5b5b611ac5576040517f08c379a0000000000000000000000000000000000000000000000000000000008152600401611abc90612daa565b60405180910390fd5b5050505050565b60007f01ffc9a7000000000000000000000000000000000000000000000000000000007bffffffffffffffffffffffffffffffffffffffffffffffffffffffff1916827bffffffffffffffffffffffffffffffffffffffffffffffffffffffff1916149050919050565b600073ffffffffffffffffffffffffffffffffffffffff82169050919050565b6000611b6182611b36565b9050919050565b611b7181611b56565b82525050565b6000602082019050611b8c6000830184611b68565b92915050565b6000604051905090565b600080fd5b600080fd5b60007fffffffff0000000000000000000000000000000000000000000000000000000082169050919050565b611bdb81611ba6565b8114611be657600080fd5b50565b600081359050611bf881611bd2565b92915050565b600060208284031215611c1457611c13611b9c565b5b6000611c2284828501611be9565b91505092915050565b60008115159050919050565b611c4081611c2b565b82525050565b6000602082019050611c5b6000830184611c37565b92915050565b611c6a81611b56565b8114611c7557600080fd5b50565b600081359050611c8781611c61565b92915050565b6000819050919050565b611ca081611c8d565b8114611cab57600080fd5b50565b600081359050611cbd81611c97565b92915050565b600080fd5b600080fd5b6000601f19601f8301169050919050565b7f4e487b7100000000000000000000000000000000000000000000000000000000600052604160045260246000fd5b611d1682611ccd565b810181811067ffffffffffffffff82111715611d3557611d34611cde565b5b80604052505050565b6000611d48611b92565b9050611d548282611d0d565b919050565b600067ffffffffffffffff821115611d7457611d73611cde565b5b611d7d82611ccd565b9050602081019050919050565b82818337600083830152505050565b6000611dac611da784611d59565b611d3e565b905082815260208101848484011115611dc857611dc7611cc8565b5b611dd3848285611d8a565b509392505050565b600082601f830112611df057611def611cc3565b5b8135611e00848260208601611d99565b91505092915050565b60008060008060808587031215611e2357611e22611b9c565b5b6000611e3187828801611c78565b9450506020611e4287828801611c78565b9350506040611e5387828801611cae565b925050606085013567ffffffffffffffff811115611e7457611e73611ba1565b5b611e8087828801611ddb565b91505092959194509250565b611e9581611ba6565b82525050565b6000602082019050611eb06000830184611e8c565b92915050565b60008060408385031215611ecd57611ecc611b9c565b5b6000611edb85828601611c78565b9250506020611eec85828601611cae565b9150509250929050565b600060208284031215611f0c57611f0b611b9c565b5b6000611f1a84828501611c78565b91505092915050565b600080fd5b600080fd5b60008083601f840112611f4357611f42611cc3565b5b8235905067ffffffffffffffff811115611f6057611f5f611f23565b5b602083019150836001820283011115611f7c57611f7b611f28565b5b9250929050565b60008060008060608587031215611f9d57611f9c611b9c565b5b6000611fab87828801611c78565b9450506020611fbc87828801611cae565b935050604085013567ffffffffffffffff811115611fdd57611fdc611ba1565b5b611fe987828801611f2d565b925092505092959194509250565b600081519050919050565b600082825260208201905092915050565b60005b83811015612031578082015181840152602081019050612016565b83811115612040576000848401525b50505050565b600061205182611ff7565b61205b8185612002565b935061206b818560208601612013565b61207481611ccd565b840191505092915050565b600060208201905081810360008301526120998184612046565b905092915050565b6120aa81611c2b565b81146120b557600080fd5b50565b6000813590506120c7816120a1565b92915050565b6000602082840312156120e3576120e2611b9c565b5b60006120f1848285016120b8565b91505092915050565b60008083601f8401126121105761210f611cc3565b5b8235905067ffffffffffffffff81111561212d5761212c611f23565b5b60208301915083602082028301111561214957612148611f28565b5b9250929050565b60008060008060008060008060a0898b0312156121705761216f611b9c565b5b600061217e8b828c01611c78565b985050602061218f8b828c01611c78565b975050604089013567ffffffffffffffff8111156121b0576121af611ba1565b5b6121bc8b828c016120fa565b9650965050606089013567ffffffffffffffff8111156121df576121de611ba1565b5b6121eb8b828c016120fa565b9450945050608089013567ffffffffffffffff81111561220e5761220d611ba1565b5b61221a8b828c01611f2d565b92509250509295985092959890939650565b60008060006060848603121561224557612244611b9c565b5b600061225386828701611c78565b9350506020612264868287016120b8565b9250506040612275868287016120b8565b9150509250925092565b60008060006040848603121561229857612297611b9c565b5b60006122a686828701611c78565b935050602084013567ffffffffffffffff8111156122c7576122c6611ba1565b5b6122d3868287016120fa565b92509250509250925092565b60008060008060008060a087890312156122fc576122fb611b9c565b5b600061230a89828a01611c78565b965050602061231b89828a01611c78565b955050604061232c89828a01611cae565b945050606061233d89828a01611cae565b935050608087013567ffffffffffffffff81111561235e5761235d611ba1565b5b61236a89828a01611f2d565b92509250509295509295509295565b600081905092915050565b50565b6000612394600083612379565b915061239f82612384565b600082019050919050565b60006123b582612387565b9150819050919050565b600082825260208201905092915050565b7f466c757368206661696c65640000000000000000000000000000000000000000600082015250565b6000612406600c836123bf565b9150612411826123d0565b602082019050919050565b60006020820190508181036000830152612435816123f9565b9050919050565b61244581611c8d565b82525050565b60006124578385612002565b9350612464838584611d8a565b61246d83611ccd565b840190509392505050565b600060608201905061248d6000830187611b68565b61249a602083018661243c565b81810360408301526124ad81848661244b565b905095945050505050565b6000815190506124c7816120a1565b92915050565b6000602082840312156124e3576124e2611b9c565b5b60006124f1848285016124b8565b91505092915050565b7f5468652063616c6c657220646f6573206e6f7420737570706f7274207468652060008201527f45524337323120696e7465726661636500000000000000000000000000000000602082015250565b60006125566030836123bf565b9150612561826124fa565b604082019050919050565b6000602082019050818103600083015261258581612549565b9050919050565b60006080820190506125a16000830187611b68565b6125ae6020830186611b68565b6125bb604083018561243c565b81810360608301526125cd8184612046565b905095945050505050565b7f4f6e6c7920506172656e74000000000000000000000000000000000000000000600082015250565b600061260e600b836123bf565b9150612619826125d8565b602082019050919050565b6000602082019050818103600083015261263d81612601565b9050919050565b7f54686520746f6b656e436f6e74726163744164647265737320646f6573206e6f60008201527f7420737570706f7274207468652045524337323120696e746572666163650000602082015250565b60006126a0603e836123bf565b91506126ab82612644565b604082019050919050565b600060208201905081810360008301526126cf81612693565b9050919050565b60006020820190506126eb600083018461243c565b92915050565b60008151905061270081611c61565b92915050565b60006020828403121561271c5761271b611b9c565b5b600061272a848285016126f1565b91505092915050565b60006060820190506127486000830186611b68565b6127556020830185611b68565b612762604083018461243c565b949350505050565b60008151905061277981611c97565b92915050565b60006020828403121561279557612794611b9c565b5b60006127a38482850161276a565b91505092915050565b60006127b88385612379565b93506127c5838584611d8a565b82840190509392505050565b60006127de8284866127ac565b91508190509392505050565b7f506172656e742063616c6c20657865637574696f6e206661696c656400000000600082015250565b6000612820601c836123bf565b915061282b826127ea565b602082019050919050565b6000602082019050818103600083015261284f81612813565b9050919050565b7f5468652063616c6c657220646f6573206e6f7420737570706f7274207468652060008201527f494552433131353520696e746572666163650000000000000000000000000000602082015250565b60006128b26032836123bf565b91506128bd82612856565b604082019050919050565b600060208201905081810360008301526128e1816128a5565b9050919050565b60006040820190506128fd6000830185611b68565b61290a602083018461243c565b9392505050565b600061291e600083612002565b915061292982612384565b600082019050919050565b600060a0820190506129496000830187611b68565b6129566020830186611b68565b612963604083018561243c565b612970606083018461243c565b818103608083015261298181612911565b905095945050505050565b600082825260208201905092915050565b600080fd5b60006129ae838561298c565b93507f07ffffffffffffffffffffffffffffffffffffffffffffffffffffffffffffff8311156129e1576129e061299d565b5b6020830292506129f2838584611d8a565b82840190509392505050565b600060a082019050612a13600083018b611b68565b612a20602083018a611b68565b8181036040830152612a3381888a6129a2565b90508181036060830152612a488186886129a2565b90508181036080830152612a5d81848661244b565b90509998505050505050505050565b7f416c726561647920696e697469616c697a656400000000000000000000000000600082015250565b6000612aa26013836123bf565b9150612aad82612a6c565b602082019050919050565b60006020820190508181036000830152612ad181612a95565b9050919050565b7f4e487b7100000000000000000000000000000000000000000000000000000000600052603260045260246000fd5b7f4e487b7100000000000000000000000000000000000000000000000000000000600052601160045260246000fd5b6000612b4182611c8d565b91507fffffffffffffffffffffffffffffffffffffffffffffffffffffffffffffffff821415612b7457612b73612b07565b5b600182019050919050565b600081519050919050565b6000819050602082019050919050565b612ba381611c8d565b82525050565b6000612bb58383612b9a565b60208301905092915050565b6000602082019050919050565b6000612bd982612b7f565b612be3818561298c565b9350612bee83612b8a565b8060005b83811015612c1f578151612c068882612ba9565b9750612c1183612bc1565b925050600181019050612bf2565b5085935050505092915050565b600060a082019050612c416000830188611b68565b612c4e6020830187611b68565b8181036040830152612c618185876129a2565b90508181036060830152612c758184612bce565b90508181036080830152612c8881612911565b90509695505050505050565b600060a082019050612ca96000830189611b68565b612cb66020830188611b68565b612cc3604083018761243c565b612cd0606083018661243c565b8181036080830152612ce381848661244b565b9050979650505050505050565b6000612cfb82611ff7565b612d058185612379565b9350612d15818560208601612013565b80840191505092915050565b6000612d2d8284612cf0565b915081905092915050565b7f5472616e7366657248656c7065723a3a736166655472616e736665723a20747260008201527f616e73666572206661696c656400000000000000000000000000000000000000602082015250565b6000612d94602d836123bf565b9150612d9f82612d38565b604082019050919050565b60006020820190508181036000830152612dc381612d87565b905091905056fea2646970667358221220e8221c400028cc62662330f7a8d595ac4a846e3c778df3dbc02449e81b61be3864736f6c634300080a0033",
					"opcodes": "PUSH1 0x80 PUSH1 0x40 MSTORE PUSH1 0x1 PUSH1 0x0 PUSH1 0x14 PUSH2 0x100 EXP DUP2 SLOAD DUP2 PUSH1 0xFF MUL NOT AND SWAP1 DUP4 ISZERO ISZERO MUL OR SWAP1 SSTORE POP PUSH1 0x1 PUSH1 0x0 PUSH1 0x15 PUSH2 0x100 EXP DUP2 SLOAD DUP2 PUSH1 0xFF MUL NOT AND SWAP1 DUP4 ISZERO ISZERO MUL OR SWAP1 SSTORE POP CALLVALUE DUP1 ISZERO PUSH2 0x46 JUMPI PUSH1 0x0 DUP1 REVERT JUMPDEST POP PUSH2 0x2E00 DUP1 PUSH2 0x56 PUSH1 0x0 CODECOPY PUSH1 0x0 RETURN INVALID PUSH1 0x80 PUSH1 0x40 MSTORE PUSH1 0x4 CALLDATASIZE LT PUSH2 0xF6 JUMPI PUSH1 0x0 CALLDATALOAD PUSH1 0xE0 SHR DUP1 PUSH4 0x8ACC01BE GT PUSH2 0x8A JUMPI DUP1 PUSH4 0xC59F9F19 GT PUSH2 0x59 JUMPI DUP1 PUSH4 0xC59F9F19 EQ PUSH2 0x33D JUMPI DUP1 PUSH4 0xC6A2DD24 EQ PUSH2 0x366 JUMPI DUP1 PUSH4 0xF23A6E61 EQ PUSH2 0x38F JUMPI DUP1 PUSH4 0xF684E1ED EQ PUSH2 0x3CC JUMPI PUSH2 0x105 JUMP JUMPDEST DUP1 PUSH4 0x8ACC01BE EQ PUSH2 0x283 JUMPI DUP1 PUSH4 0xBAD23AB9 EQ PUSH2 0x2AC JUMPI DUP1 PUSH4 0xBC197C81 EQ PUSH2 0x2D7 JUMPI DUP1 PUSH4 0xBEE3E676 EQ PUSH2 0x314 JUMPI PUSH2 0x105 JUMP JUMPDEST DUP1 PUSH4 0x3EF13367 GT PUSH2 0xC6 JUMPI DUP1 PUSH4 0x3EF13367 EQ PUSH2 0x1DD JUMPI DUP1 PUSH4 0x6B9F96EA EQ PUSH2 0x206 JUMPI DUP1 PUSH4 0x77E60B35 EQ PUSH2 0x21D JUMPI DUP1 PUSH4 0x8972C17C EQ PUSH2 0x25A JUMPI PUSH2 0x105 JUMP JUMPDEST DUP1 PUSH3 0x821DE3 EQ PUSH2 0x10F JUMPI DUP1 PUSH4 0x1FFC9A7 EQ PUSH2 0x13A JUMPI DUP1 PUSH4 0x150B7A02 EQ PUSH2 0x177 JUMPI DUP1 PUSH4 0x159E44D7 EQ PUSH2 0x1B4 JUMPI PUSH2 0x105 JUMP JUMPDEST CALLDATASIZE PUSH2 0x105 JUMPI PUSH2 0x103 PUSH2 0x3F7 JUMP JUMPDEST STOP JUMPDEST PUSH2 0x10D PUSH2 0x3F7 JUMP JUMPDEST STOP JUMPDEST CALLVALUE DUP1 ISZERO PUSH2 0x11B JUMPI PUSH1 0x0 DUP1 REVERT JUMPDEST POP PUSH2 0x124 PUSH2 0x51B JUMP JUMPDEST PUSH1 0x40 MLOAD PUSH2 0x131 SWAP2 SWAP1 PUSH2 0x1B77 JUMP JUMPDEST PUSH1 0x40 MLOAD DUP1 SWAP2 SUB SWAP1 RETURN JUMPDEST CALLVALUE DUP1 ISZERO PUSH2 0x146 JUMPI PUSH1 0x0 DUP1 REVERT JUMPDEST POP PUSH2 0x161 PUSH1 0x4 DUP1 CALLDATASIZE SUB DUP2 ADD SWAP1 PUSH2 0x15C SWAP2 SWAP1 PUSH2 0x1BFE JUMP JUMPDEST PUSH2 0x53F JUMP JUMPDEST PUSH1 0x40 MLOAD PUSH2 0x16E SWAP2 SWAP1 PUSH2 0x1C46 JUMP JUMPDEST PUSH1 0x40 MLOAD DUP1 SWAP2 SUB SWAP1 RETURN JUMPDEST CALLVALUE DUP1 ISZERO PUSH2 0x183 JUMPI PUSH1 0x0 DUP1 REVERT JUMPDEST POP PUSH2 0x19E PUSH1 0x4 DUP1 CALLDATASIZE SUB DUP2 ADD SWAP1 PUSH2 0x199 SWAP2 SWAP1 PUSH2 0x1E09 JUMP JUMPDEST PUSH2 0x5B9 JUMP JUMPDEST PUSH1 0x40 MLOAD PUSH2 0x1AB SWAP2 SWAP1 PUSH2 0x1E9B JUMP JUMPDEST PUSH1 0x40 MLOAD DUP1 SWAP2 SUB SWAP1 RETURN JUMPDEST CALLVALUE DUP1 ISZERO PUSH2 0x1C0 JUMPI PUSH1 0x0 DUP1 REVERT JUMPDEST POP PUSH2 0x1DB PUSH1 0x4 DUP1 CALLDATASIZE SUB DUP2 ADD SWAP1 PUSH2 0x1D6 SWAP2 SWAP1 PUSH2 0x1EB6 JUMP JUMPDEST PUSH2 0x752 JUMP JUMPDEST STOP JUMPDEST CALLVALUE DUP1 ISZERO PUSH2 0x1E9 JUMPI PUSH1 0x0 DUP1 REVERT JUMPDEST POP PUSH2 0x204 PUSH1 0x4 DUP1 CALLDATASIZE SUB DUP2 ADD SWAP1 PUSH2 0x1FF SWAP2 SWAP1 PUSH2 0x1EF6 JUMP JUMPDEST PUSH2 0x9D1 JUMP JUMPDEST STOP JUMPDEST CALLVALUE DUP1 ISZERO PUSH2 0x212 JUMPI PUSH1 0x0 DUP1 REVERT JUMPDEST POP PUSH2 0x21B PUSH2 0x3F7 JUMP JUMPDEST STOP JUMPDEST CALLVALUE DUP1 ISZERO PUSH2 0x229 JUMPI PUSH1 0x0 DUP1 REVERT JUMPDEST POP PUSH2 0x244 PUSH1 0x4 DUP1 CALLDATASIZE SUB DUP2 ADD SWAP1 PUSH2 0x23F SWAP2 SWAP1 PUSH2 0x1F83 JUMP JUMPDEST PUSH2 0xB2A JUMP JUMPDEST PUSH1 0x40 MLOAD PUSH2 0x251 SWAP2 SWAP1 PUSH2 0x207F JUMP JUMPDEST PUSH1 0x40 MLOAD DUP1 SWAP2 SUB SWAP1 RETURN JUMPDEST CALLVALUE DUP1 ISZERO PUSH2 0x266 JUMPI PUSH1 0x0 DUP1 REVERT JUMPDEST POP PUSH2 0x281 PUSH1 0x4 DUP1 CALLDATASIZE SUB DUP2 ADD SWAP1 PUSH2 0x27C SWAP2 SWAP1 PUSH2 0x1EB6 JUMP JUMPDEST PUSH2 0xC79 JUMP JUMPDEST STOP JUMPDEST CALLVALUE DUP1 ISZERO PUSH2 0x28F JUMPI PUSH1 0x0 DUP1 REVERT JUMPDEST POP PUSH2 0x2AA PUSH1 0x4 DUP1 CALLDATASIZE SUB DUP2 ADD SWAP1 PUSH2 0x2A5 SWAP2 SWAP1 PUSH2 0x20CD JUMP JUMPDEST PUSH2 0xF01 JUMP JUMPDEST STOP JUMPDEST CALLVALUE DUP1 ISZERO PUSH2 0x2B8 JUMPI PUSH1 0x0 DUP1 REVERT JUMPDEST POP PUSH2 0x2C1 PUSH2 0xFAC JUMP JUMPDEST PUSH1 0x40 MLOAD PUSH2 0x2CE SWAP2 SWAP1 PUSH2 0x1C46 JUMP JUMPDEST PUSH1 0x40 MLOAD DUP1 SWAP2 SUB SWAP1 RETURN JUMPDEST CALLVALUE DUP1 ISZERO PUSH2 0x2E3 JUMPI PUSH1 0x0 DUP1 REVERT JUMPDEST POP PUSH2 0x2FE PUSH1 0x4 DUP1 CALLDATASIZE SUB DUP2 ADD SWAP1 PUSH2 0x2F9 SWAP2 SWAP1 PUSH2 0x2150 JUMP JUMPDEST PUSH2 0xFBF JUMP JUMPDEST PUSH1 0x40 MLOAD PUSH2 0x30B SWAP2 SWAP1 PUSH2 0x1E9B JUMP JUMPDEST PUSH1 0x40 MLOAD DUP1 SWAP2 SUB SWAP1 RETURN JUMPDEST CALLVALUE DUP1 ISZERO PUSH2 0x320 JUMPI PUSH1 0x0 DUP1 REVERT JUMPDEST POP PUSH2 0x33B PUSH1 0x4 DUP1 CALLDATASIZE SUB DUP2 ADD SWAP1 PUSH2 0x336 SWAP2 SWAP1 PUSH2 0x222C JUMP JUMPDEST PUSH2 0x1164 JUMP JUMPDEST STOP JUMPDEST CALLVALUE DUP1 ISZERO PUSH2 0x349 JUMPI PUSH1 0x0 DUP1 REVERT JUMPDEST POP PUSH2 0x364 PUSH1 0x4 DUP1 CALLDATASIZE SUB DUP2 ADD SWAP1 PUSH2 0x35F SWAP2 SWAP1 PUSH2 0x20CD JUMP JUMPDEST PUSH2 0x138E JUMP JUMPDEST STOP JUMPDEST CALLVALUE DUP1 ISZERO PUSH2 0x372 JUMPI PUSH1 0x0 DUP1 REVERT JUMPDEST POP PUSH2 0x38D PUSH1 0x4 DUP1 CALLDATASIZE SUB DUP2 ADD SWAP1 PUSH2 0x388 SWAP2 SWAP1 PUSH2 0x227F JUMP JUMPDEST PUSH2 0x1439 JUMP JUMPDEST STOP JUMPDEST CALLVALUE DUP1 ISZERO PUSH2 0x39B JUMPI PUSH1 0x0 DUP1 REVERT JUMPDEST POP PUSH2 0x3B6 PUSH1 0x4 DUP1 CALLDATASIZE SUB DUP2 ADD SWAP1 PUSH2 0x3B1 SWAP2 SWAP1 PUSH2 0x22DF JUMP JUMPDEST PUSH2 0x176A JUMP JUMPDEST PUSH1 0x40 MLOAD PUSH2 0x3C3 SWAP2 SWAP1 PUSH2 0x1E9B JUMP JUMPDEST PUSH1 0x40 MLOAD DUP1 SWAP2 SUB SWAP1 RETURN JUMPDEST CALLVALUE DUP1 ISZERO PUSH2 0x3D8 JUMPI PUSH1 0x0 DUP1 REVERT JUMPDEST POP PUSH2 0x3E1 PUSH2 0x1909 JUMP JUMPDEST PUSH1 0x40 MLOAD PUSH2 0x3EE SWAP2 SWAP1 PUSH2 0x1C46 JUMP JUMPDEST PUSH1 0x40 MLOAD DUP1 SWAP2 SUB SWAP1 RETURN JUMPDEST PUSH1 0x0 SELFBALANCE SWAP1 POP PUSH1 0x0 DUP2 EQ ISZERO PUSH2 0x40B JUMPI POP PUSH2 0x519 JUMP JUMPDEST PUSH1 0x0 DUP1 PUSH1 0x0 SWAP1 SLOAD SWAP1 PUSH2 0x100 EXP SWAP1 DIV PUSH20 0xFFFFFFFFFFFFFFFFFFFFFFFFFFFFFFFFFFFFFFFF AND PUSH20 0xFFFFFFFFFFFFFFFFFFFFFFFFFFFFFFFFFFFFFFFF AND DUP3 PUSH1 0x40 MLOAD PUSH2 0x452 SWAP1 PUSH2 0x23AA JUMP JUMPDEST PUSH1 0x0 PUSH1 0x40 MLOAD DUP1 DUP4 SUB DUP2 DUP6 DUP8 GAS CALL SWAP3 POP POP POP RETURNDATASIZE DUP1 PUSH1 0x0 DUP2 EQ PUSH2 0x48F JUMPI PUSH1 0x40 MLOAD SWAP2 POP PUSH1 0x1F NOT PUSH1 0x3F RETURNDATASIZE ADD AND DUP3 ADD PUSH1 0x40 MSTORE RETURNDATASIZE DUP3 MSTORE RETURNDATASIZE PUSH1 0x0 PUSH1 0x20 DUP5 ADD RETURNDATACOPY PUSH2 0x494 JUMP JUMPDEST PUSH1 0x60 SWAP2 POP JUMPDEST POP POP SWAP1 POP DUP1 PUSH2 0x4D8 JUMPI PUSH1 0x40 MLOAD PUSH32 0x8C379A000000000000000000000000000000000000000000000000000000000 DUP2 MSTORE PUSH1 0x4 ADD PUSH2 0x4CF SWAP1 PUSH2 0x241C JUMP JUMPDEST PUSH1 0x40 MLOAD DUP1 SWAP2 SUB SWAP1 REVERT JUMPDEST PUSH32 0x69B31548DEA9B3B707B4DFF357D326E3E9348B24E7A6080A218A6EDEEEC48F9B CALLER DUP4 PUSH1 0x0 CALLDATASIZE PUSH1 0x40 MLOAD PUSH2 0x50E SWAP5 SWAP4 SWAP3 SWAP2 SWAP1 PUSH2 0x2478 JUMP JUMPDEST PUSH1 0x40 MLOAD DUP1 SWAP2 SUB SWAP1 LOG1 POP POP JUMPDEST JUMP JUMPDEST PUSH1 0x0 DUP1 SLOAD SWAP1 PUSH2 0x100 EXP SWAP1 DIV PUSH20 0xFFFFFFFFFFFFFFFFFFFFFFFFFFFFFFFFFFFFFFFF AND DUP2 JUMP JUMPDEST PUSH1 0x0 PUSH32 0x2BECF54F00000000000000000000000000000000000000000000000000000000 PUSH28 0xFFFFFFFFFFFFFFFFFFFFFFFFFFFFFFFFFFFFFFFFFFFFFFFFFFFFFFFF NOT AND DUP3 PUSH28 0xFFFFFFFFFFFFFFFFFFFFFFFFFFFFFFFFFFFFFFFFFFFFFFFFFFFFFFFF NOT AND EQ DUP1 PUSH2 0x5B2 JUMPI POP PUSH2 0x5B1 DUP3 PUSH2 0x191C JUMP JUMPDEST JUMPDEST SWAP1 POP SWAP2 SWAP1 POP JUMP JUMPDEST PUSH1 0x0 DUP1 PUSH1 0x14 SWAP1 SLOAD SWAP1 PUSH2 0x100 EXP SWAP1 DIV PUSH1 0xFF AND ISZERO PUSH2 0x740 JUMPI PUSH1 0x0 CALLER SWAP1 POP DUP1 PUSH20 0xFFFFFFFFFFFFFFFFFFFFFFFFFFFFFFFFFFFFFFFF AND PUSH4 0x1FFC9A7 PUSH32 0x80AC58CD00000000000000000000000000000000000000000000000000000000 PUSH1 0x40 MLOAD DUP3 PUSH4 0xFFFFFFFF AND PUSH1 0xE0 SHL DUP2 MSTORE PUSH1 0x4 ADD PUSH2 0x62D SWAP2 SWAP1 PUSH2 0x1E9B JUMP JUMPDEST PUSH1 0x20 PUSH1 0x40 MLOAD DUP1 DUP4 SUB DUP2 DUP7 GAS STATICCALL ISZERO DUP1 ISZERO PUSH2 0x64A JUMPI RETURNDATASIZE PUSH1 0x0 DUP1 RETURNDATACOPY RETURNDATASIZE PUSH1 0x0 REVERT JUMPDEST POP POP POP POP PUSH1 0x40 MLOAD RETURNDATASIZE PUSH1 0x1F NOT PUSH1 0x1F DUP3 ADD AND DUP3 ADD DUP1 PUSH1 0x40 MSTORE POP DUP2 ADD SWAP1 PUSH2 0x66E SWAP2 SWAP1 PUSH2 0x24CD JUMP JUMPDEST PUSH2 0x6AD JUMPI PUSH1 0x40 MLOAD PUSH32 0x8C379A000000000000000000000000000000000000000000000000000000000 DUP2 MSTORE PUSH1 0x4 ADD PUSH2 0x6A4 SWAP1 PUSH2 0x256C JUMP JUMPDEST PUSH1 0x40 MLOAD DUP1 SWAP2 SUB SWAP1 REVERT JUMPDEST DUP1 PUSH20 0xFFFFFFFFFFFFFFFFFFFFFFFFFFFFFFFFFFFFFFFF AND PUSH4 0xB88D4FDE ADDRESS PUSH1 0x0 DUP1 SLOAD SWAP1 PUSH2 0x100 EXP SWAP1 DIV PUSH20 0xFFFFFFFFFFFFFFFFFFFFFFFFFFFFFFFFFFFFFFFF AND DUP8 DUP8 PUSH1 0x40 MLOAD DUP6 PUSH4 0xFFFFFFFF AND PUSH1 0xE0 SHL DUP2 MSTORE PUSH1 0x4 ADD PUSH2 0x70C SWAP5 SWAP4 SWAP3 SWAP2 SWAP1 PUSH2 0x258C JUMP JUMPDEST PUSH1 0x0 PUSH1 0x40 MLOAD DUP1 DUP4 SUB DUP2 PUSH1 0x0 DUP8 DUP1 EXTCODESIZE ISZERO DUP1 ISZERO PUSH2 0x726 JUMPI PUSH1 0x0 DUP1 REVERT JUMPDEST POP GAS CALL ISZERO DUP1 ISZERO PUSH2 0x73A JUMPI RETURNDATASIZE PUSH1 0x0 DUP1 RETURNDATACOPY RETURNDATASIZE PUSH1 0x0 REVERT JUMPDEST POP POP POP POP POP JUMPDEST PUSH4 0x150B7A02 PUSH1 0xE0 SHL SWAP1 POP SWAP5 SWAP4 POP POP POP POP JUMP JUMPDEST PUSH1 0x0 DUP1 SLOAD SWAP1 PUSH2 0x100 EXP SWAP1 DIV PUSH20 0xFFFFFFFFFFFFFFFFFFFFFFFFFFFFFFFFFFFFFFFF AND PUSH20 0xFFFFFFFFFFFFFFFFFFFFFFFFFFFFFFFFFFFFFFFF AND CALLER PUSH20 0xFFFFFFFFFFFFFFFFFFFFFFFFFFFFFFFFFFFFFFFF AND EQ PUSH2 0x7E0 JUMPI PUSH1 0x40 MLOAD PUSH32 0x8C379A000000000000000000000000000000000000000000000000000000000 DUP2 MSTORE PUSH1 0x4 ADD PUSH2 0x7D7 SWAP1 PUSH2 0x2624 JUMP JUMPDEST PUSH1 0x40 MLOAD DUP1 SWAP2 SUB SWAP1 REVERT JUMPDEST PUSH1 0x0 DUP3 SWAP1 POP DUP1 PUSH20 0xFFFFFFFFFFFFFFFFFFFFFFFFFFFFFFFFFFFFFFFF AND PUSH4 0x1FFC9A7 PUSH32 0x80AC58CD00000000000000000000000000000000000000000000000000000000 PUSH1 0x40 MLOAD DUP3 PUSH4 0xFFFFFFFF AND PUSH1 0xE0 SHL DUP2 MSTORE PUSH1 0x4 ADD PUSH2 0x83E SWAP2 SWAP1 PUSH2 0x1E9B JUMP JUMPDEST PUSH1 0x20 PUSH1 0x40 MLOAD DUP1 DUP4 SUB DUP2 DUP7 GAS STATICCALL ISZERO DUP1 ISZERO PUSH2 0x85B JUMPI RETURNDATASIZE PUSH1 0x0 DUP1 RETURNDATACOPY RETURNDATASIZE PUSH1 0x0 REVERT JUMPDEST POP POP POP POP PUSH1 0x40 MLOAD RETURNDATASIZE PUSH1 0x1F NOT PUSH1 0x1F DUP3 ADD AND DUP3 ADD DUP1 PUSH1 0x40 MSTORE POP DUP2 ADD SWAP1 PUSH2 0x87F SWAP2 SWAP1 PUSH2 0x24CD JUMP JUMPDEST PUSH2 0x8BE JUMPI PUSH1 0x40 MLOAD PUSH32 0x8C379A000000000000000000000000000000000000000000000000000000000 DUP2 MSTORE PUSH1 0x4 ADD PUSH2 0x8B5 SWAP1 PUSH2 0x26B6 JUMP JUMPDEST PUSH1 0x40 MLOAD DUP1 SWAP2 SUB SWAP1 REVERT JUMPDEST PUSH1 0x0 DUP2 PUSH20 0xFFFFFFFFFFFFFFFFFFFFFFFFFFFFFFFFFFFFFFFF AND PUSH4 0x6352211E DUP5 PUSH1 0x40 MLOAD DUP3 PUSH4 0xFFFFFFFF AND PUSH1 0xE0 SHL DUP2 MSTORE PUSH1 0x4 ADD PUSH2 0x8F9 SWAP2 SWAP1 PUSH2 0x26D6 JUMP JUMPDEST PUSH1 0x20 PUSH1 0x40 MLOAD DUP1 DUP4 SUB DUP2 DUP7 GAS STATICCALL ISZERO DUP1 ISZERO PUSH2 0x916 JUMPI RETURNDATASIZE PUSH1 0x0 DUP1 RETURNDATACOPY RETURNDATASIZE PUSH1 0x0 REVERT JUMPDEST POP POP POP POP PUSH1 0x40 MLOAD RETURNDATASIZE PUSH1 0x1F NOT PUSH1 0x1F DUP3 ADD AND DUP3 ADD DUP1 PUSH1 0x40 MSTORE POP DUP2 ADD SWAP1 PUSH2 0x93A SWAP2 SWAP1 PUSH2 0x2706 JUMP JUMPDEST SWAP1 POP DUP2 PUSH20 0xFFFFFFFFFFFFFFFFFFFFFFFFFFFFFFFFFFFFFFFF AND PUSH4 0x23B872DD DUP3 PUSH1 0x0 DUP1 SLOAD SWAP1 PUSH2 0x100 EXP SWAP1 DIV PUSH20 0xFFFFFFFFFFFFFFFFFFFFFFFFFFFFFFFFFFFFFFFF AND DUP7 PUSH1 0x40 MLOAD DUP5 PUSH4 0xFFFFFFFF AND PUSH1 0xE0 SHL DUP2 MSTORE PUSH1 0x4 ADD PUSH2 0x999 SWAP4 SWAP3 SWAP2 SWAP1 PUSH2 0x2733 JUMP JUMPDEST PUSH1 0x0 PUSH1 0x40 MLOAD DUP1 DUP4 SUB DUP2 PUSH1 0x0 DUP8 DUP1 EXTCODESIZE ISZERO DUP1 ISZERO PUSH2 0x9B3 JUMPI PUSH1 0x0 DUP1 REVERT JUMPDEST POP GAS CALL ISZERO DUP1 ISZERO PUSH2 0x9C7 JUMPI RETURNDATASIZE PUSH1 0x0 DUP1 RETURNDATACOPY RETURNDATASIZE PUSH1 0x0 REVERT JUMPDEST POP POP POP POP POP POP POP POP JUMP JUMPDEST PUSH1 0x0 DUP1 SLOAD SWAP1 PUSH2 0x100 EXP SWAP1 DIV PUSH20 0xFFFFFFFFFFFFFFFFFFFFFFFFFFFFFFFFFFFFFFFF AND PUSH20 0xFFFFFFFFFFFFFFFFFFFFFFFFFFFFFFFFFFFFFFFF AND CALLER PUSH20 0xFFFFFFFFFFFFFFFFFFFFFFFFFFFFFFFFFFFFFFFF AND EQ PUSH2 0xA5F JUMPI PUSH1 0x40 MLOAD PUSH32 0x8C379A000000000000000000000000000000000000000000000000000000000 DUP2 MSTORE PUSH1 0x4 ADD PUSH2 0xA56 SWAP1 PUSH2 0x2624 JUMP JUMPDEST PUSH1 0x40 MLOAD DUP1 SWAP2 SUB SWAP1 REVERT JUMPDEST PUSH1 0x0 DUP2 SWAP1 POP PUSH1 0x0 ADDRESS SWAP1 POP PUSH1 0x0 DUP3 PUSH20 0xFFFFFFFFFFFFFFFFFFFFFFFFFFFFFFFFFFFFFFFF AND PUSH4 0x70A08231 DUP4 PUSH1 0x40 MLOAD DUP3 PUSH4 0xFFFFFFFF AND PUSH1 0xE0 SHL DUP2 MSTORE PUSH1 0x4 ADD PUSH2 0xAA4 SWAP2 SWAP1 PUSH2 0x1B77 JUMP JUMPDEST PUSH1 0x20 PUSH1 0x40 MLOAD DUP1 DUP4 SUB DUP2 DUP7 GAS STATICCALL ISZERO DUP1 ISZERO PUSH2 0xAC1 JUMPI RETURNDATASIZE PUSH1 0x0 DUP1 RETURNDATACOPY RETURNDATASIZE PUSH1 0x0 REVERT JUMPDEST POP POP POP POP PUSH1 0x40 MLOAD RETURNDATASIZE PUSH1 0x1F NOT PUSH1 0x1F DUP3 ADD AND DUP3 ADD DUP1 PUSH1 0x40 MSTORE POP DUP2 ADD SWAP1 PUSH2 0xAE5 SWAP2 SWAP1 PUSH2 0x277F JUMP JUMPDEST SWAP1 POP PUSH1 0x0 DUP2 EQ ISZERO PUSH2 0xAF8 JUMPI POP POP POP PUSH2 0xB27 JUMP JUMPDEST PUSH2 0xB23 DUP5 PUSH1 0x0 DUP1 SLOAD SWAP1 PUSH2 0x100 EXP SWAP1 DIV PUSH20 0xFFFFFFFFFFFFFFFFFFFFFFFFFFFFFFFFFFFFFFFF AND DUP4 PUSH2 0x1996 JUMP JUMPDEST POP POP POP JUMPDEST POP JUMP JUMPDEST PUSH1 0x60 PUSH1 0x0 DUP1 SLOAD SWAP1 PUSH2 0x100 EXP SWAP1 DIV PUSH20 0xFFFFFFFFFFFFFFFFFFFFFFFFFFFFFFFFFFFFFFFF AND PUSH20 0xFFFFFFFFFFFFFFFFFFFFFFFFFFFFFFFFFFFFFFFF AND CALLER PUSH20 0xFFFFFFFFFFFFFFFFFFFFFFFFFFFFFFFFFFFFFFFF AND EQ PUSH2 0xBBA JUMPI PUSH1 0x40 MLOAD PUSH32 0x8C379A000000000000000000000000000000000000000000000000000000000 DUP2 MSTORE PUSH1 0x4 ADD PUSH2 0xBB1 SWAP1 PUSH2 0x2624 JUMP JUMPDEST PUSH1 0x40 MLOAD DUP1 SWAP2 SUB SWAP1 REVERT JUMPDEST PUSH1 0x0 DUP1 DUP7 PUSH20 0xFFFFFFFFFFFFFFFFFFFFFFFFFFFFFFFFFFFFFFFF AND DUP7 DUP7 DUP7 PUSH1 0x40 MLOAD PUSH2 0xBE5 SWAP3 SWAP2 SWAP1 PUSH2 0x27D1 JUMP JUMPDEST PUSH1 0x0 PUSH1 0x40 MLOAD DUP1 DUP4 SUB DUP2 DUP6 DUP8 GAS CALL SWAP3 POP POP POP RETURNDATASIZE DUP1 PUSH1 0x0 DUP2 EQ PUSH2 0xC22 JUMPI PUSH1 0x40 MLOAD SWAP2 POP PUSH1 0x1F NOT PUSH1 0x3F RETURNDATASIZE ADD AND DUP3 ADD PUSH1 0x40 MSTORE RETURNDATASIZE DUP3 MSTORE RETURNDATASIZE PUSH1 0x0 PUSH1 0x20 DUP5 ADD RETURNDATACOPY PUSH2 0xC27 JUMP JUMPDEST PUSH1 0x60 SWAP2 POP JUMPDEST POP SWAP2 POP SWAP2 POP DUP2 PUSH2 0xC6C JUMPI PUSH1 0x40 MLOAD PUSH32 0x8C379A000000000000000000000000000000000000000000000000000000000 DUP2 MSTORE PUSH1 0x4 ADD PUSH2 0xC63 SWAP1 PUSH2 0x2836 JUMP JUMPDEST PUSH1 0x40 MLOAD DUP1 SWAP2 SUB SWAP1 REVERT JUMPDEST DUP1 SWAP3 POP POP POP SWAP5 SWAP4 POP POP POP POP JUMP JUMPDEST PUSH1 0x0 DUP1 SLOAD SWAP1 PUSH2 0x100 EXP SWAP1 DIV PUSH20 0xFFFFFFFFFFFFFFFFFFFFFFFFFFFFFFFFFFFFFFFF AND PUSH20 0xFFFFFFFFFFFFFFFFFFFFFFFFFFFFFFFFFFFFFFFF AND CALLER PUSH20 0xFFFFFFFFFFFFFFFFFFFFFFFFFFFFFFFFFFFFFFFF AND EQ PUSH2 0xD07 JUMPI PUSH1 0x40 MLOAD PUSH32 0x8C379A000000000000000000000000000000000000000000000000000000000 DUP2 MSTORE PUSH1 0x4 ADD PUSH2 0xCFE SWAP1 PUSH2 0x2624 JUMP JUMPDEST PUSH1 0x40 MLOAD DUP1 SWAP2 SUB SWAP1 REVERT JUMPDEST PUSH1 0x0 DUP3 SWAP1 POP DUP1 PUSH20 0xFFFFFFFFFFFFFFFFFFFFFFFFFFFFFFFFFFFFFFFF AND PUSH4 0x1FFC9A7 PUSH32 0xD9B67A2600000000000000000000000000000000000000000000000000000000 PUSH1 0x40 MLOAD DUP3 PUSH4 0xFFFFFFFF AND PUSH1 0xE0 SHL DUP2 MSTORE PUSH1 0x4 ADD PUSH2 0xD65 SWAP2 SWAP1 PUSH2 0x1E9B JUMP JUMPDEST PUSH1 0x20 PUSH1 0x40 MLOAD DUP1 DUP4 SUB DUP2 DUP7 GAS STATICCALL ISZERO DUP1 ISZERO PUSH2 0xD82 JUMPI RETURNDATASIZE PUSH1 0x0 DUP1 RETURNDATACOPY RETURNDATASIZE PUSH1 0x0 REVERT JUMPDEST POP POP POP POP PUSH1 0x40 MLOAD RETURNDATASIZE PUSH1 0x1F NOT PUSH1 0x1F DUP3 ADD AND DUP3 ADD DUP1 PUSH1 0x40 MSTORE POP DUP2 ADD SWAP1 PUSH2 0xDA6 SWAP2 SWAP1 PUSH2 0x24CD JUMP JUMPDEST PUSH2 0xDE5 JUMPI PUSH1 0x40 MLOAD PUSH32 0x8C379A000000000000000000000000000000000000000000000000000000000 DUP2 MSTORE PUSH1 0x4 ADD PUSH2 0xDDC SWAP1 PUSH2 0x28C8 JUMP JUMPDEST PUSH1 0x40 MLOAD DUP1 SWAP2 SUB SWAP1 REVERT JUMPDEST PUSH1 0x0 ADDRESS SWAP1 POP PUSH1 0x0 DUP3 PUSH20 0xFFFFFFFFFFFFFFFFFFFFFFFFFFFFFFFFFFFFFFFF AND PUSH3 0xFDD58E DUP4 DUP7 PUSH1 0x40 MLOAD DUP4 PUSH4 0xFFFFFFFF AND PUSH1 0xE0 SHL DUP2 MSTORE PUSH1 0x4 ADD PUSH2 0xE26 SWAP3 SWAP2 SWAP1 PUSH2 0x28E8 JUMP JUMPDEST PUSH1 0x20 PUSH1 0x40 MLOAD DUP1 DUP4 SUB DUP2 DUP7 GAS STATICCALL ISZERO DUP1 ISZERO PUSH2 0xE43 JUMPI RETURNDATASIZE PUSH1 0x0 DUP1 RETURNDATACOPY RETURNDATASIZE PUSH1 0x0 REVERT JUMPDEST POP POP POP POP PUSH1 0x40 MLOAD RETURNDATASIZE PUSH1 0x1F NOT PUSH1 0x1F DUP3 ADD AND DUP3 ADD DUP1 PUSH1 0x40 MSTORE POP DUP2 ADD SWAP1 PUSH2 0xE67 SWAP2 SWAP1 PUSH2 0x277F JUMP JUMPDEST SWAP1 POP DUP3 PUSH20 0xFFFFFFFFFFFFFFFFFFFFFFFFFFFFFFFFFFFFFFFF AND PUSH4 0xF242432A DUP4 PUSH1 0x0 DUP1 SLOAD SWAP1 PUSH2 0x100 EXP SWAP1 DIV PUSH20 0xFFFFFFFFFFFFFFFFFFFFFFFFFFFFFFFFFFFFFFFF AND DUP8 DUP6 PUSH1 0x40 MLOAD DUP6 PUSH4 0xFFFFFFFF AND PUSH1 0xE0 SHL DUP2 MSTORE PUSH1 0x4 ADD PUSH2 0xEC8 SWAP5 SWAP4 SWAP3 SWAP2 SWAP1 PUSH2 0x2934 JUMP JUMPDEST PUSH1 0x0 PUSH1 0x40 MLOAD DUP1 DUP4 SUB DUP2 PUSH1 0x0 DUP8 DUP1 EXTCODESIZE ISZERO DUP1 ISZERO PUSH2 0xEE2 JUMPI PUSH1 0x0 DUP1 REVERT JUMPDEST POP GAS CALL ISZERO DUP1 ISZERO PUSH2 0xEF6 JUMPI RETURNDATASIZE PUSH1 0x0 DUP1 RETURNDATACOPY RETURNDATASIZE PUSH1 0x0 REVERT JUMPDEST POP POP POP POP POP POP POP POP POP JUMP JUMPDEST PUSH1 0x0 DUP1 SLOAD SWAP1 PUSH2 0x100 EXP SWAP1 DIV PUSH20 0xFFFFFFFFFFFFFFFFFFFFFFFFFFFFFFFFFFFFFFFF AND PUSH20 0xFFFFFFFFFFFFFFFFFFFFFFFFFFFFFFFFFFFFFFFF AND CALLER PUSH20 0xFFFFFFFFFFFFFFFFFFFFFFFFFFFFFFFFFFFFFFFF AND EQ PUSH2 0xF8F JUMPI PUSH1 0x40 MLOAD PUSH32 0x8C379A000000000000000000000000000000000000000000000000000000000 DUP2 MSTORE PUSH1 0x4 ADD PUSH2 0xF86 SWAP1 PUSH2 0x2624 JUMP JUMPDEST PUSH1 0x40 MLOAD DUP1 SWAP2 SUB SWAP1 REVERT JUMPDEST DUP1 PUSH1 0x0 PUSH1 0x15 PUSH2 0x100 EXP DUP2 SLOAD DUP2 PUSH1 0xFF MUL NOT AND SWAP1 DUP4 ISZERO ISZERO MUL OR SWAP1 SSTORE POP POP JUMP JUMPDEST PUSH1 0x0 PUSH1 0x15 SWAP1 SLOAD SWAP1 PUSH2 0x100 EXP SWAP1 DIV PUSH1 0xFF AND DUP2 JUMP JUMPDEST PUSH1 0x0 DUP1 CALLER SWAP1 POP DUP1 PUSH20 0xFFFFFFFFFFFFFFFFFFFFFFFFFFFFFFFFFFFFFFFF AND PUSH4 0x1FFC9A7 PUSH32 0xD9B67A2600000000000000000000000000000000000000000000000000000000 PUSH1 0x40 MLOAD DUP3 PUSH4 0xFFFFFFFF AND PUSH1 0xE0 SHL DUP2 MSTORE PUSH1 0x4 ADD PUSH2 0x101E SWAP2 SWAP1 PUSH2 0x1E9B JUMP JUMPDEST PUSH1 0x20 PUSH1 0x40 MLOAD DUP1 DUP4 SUB DUP2 DUP7 GAS STATICCALL ISZERO DUP1 ISZERO PUSH2 0x103B JUMPI RETURNDATASIZE PUSH1 0x0 DUP1 RETURNDATACOPY RETURNDATASIZE PUSH1 0x0 REVERT JUMPDEST POP POP POP POP PUSH1 0x40 MLOAD RETURNDATASIZE PUSH1 0x1F NOT PUSH1 0x1F DUP3 ADD AND DUP3 ADD DUP1 PUSH1 0x40 MSTORE POP DUP2 ADD SWAP1 PUSH2 0x105F SWAP2 SWAP1 PUSH2 0x24CD JUMP JUMPDEST PUSH2 0x109E JUMPI PUSH1 0x40 MLOAD PUSH32 0x8C379A000000000000000000000000000000000000000000000000000000000 DUP2 MSTORE PUSH1 0x4 ADD PUSH2 0x1095 SWAP1 PUSH2 0x28C8 JUMP JUMPDEST PUSH1 0x40 MLOAD DUP1 SWAP2 SUB SWAP1 REVERT JUMPDEST PUSH1 0x0 PUSH1 0x15 SWAP1 SLOAD SWAP1 PUSH2 0x100 EXP SWAP1 DIV PUSH1 0xFF AND ISZERO PUSH2 0x114D JUMPI DUP1 PUSH20 0xFFFFFFFFFFFFFFFFFFFFFFFFFFFFFFFFFFFFFFFF AND PUSH4 0x2EB2C2D6 ADDRESS PUSH1 0x0 DUP1 SLOAD SWAP1 PUSH2 0x100 EXP SWAP1 DIV PUSH20 0xFFFFFFFFFFFFFFFFFFFFFFFFFFFFFFFFFFFFFFFF AND DUP12 DUP12 DUP12 DUP12 DUP12 DUP12 PUSH1 0x40 MLOAD DUP10 PUSH4 0xFFFFFFFF AND PUSH1 0xE0 SHL DUP2 MSTORE PUSH1 0x4 ADD PUSH2 0x111A SWAP9 SWAP8 SWAP7 SWAP6 SWAP5 SWAP4 SWAP3 SWAP2 SWAP1 PUSH2 0x29FE JUMP JUMPDEST PUSH1 0x0 PUSH1 0x40 MLOAD DUP1 DUP4 SUB DUP2 PUSH1 0x0 DUP8 DUP1 EXTCODESIZE ISZERO DUP1 ISZERO PUSH2 0x1134 JUMPI PUSH1 0x0 DUP1 REVERT JUMPDEST POP GAS CALL ISZERO DUP1 ISZERO PUSH2 0x1148 JUMPI RETURNDATASIZE PUSH1 0x0 DUP1 RETURNDATACOPY RETURNDATASIZE PUSH1 0x0 REVERT JUMPDEST POP POP POP POP JUMPDEST PUSH4 0xBC197C81 PUSH1 0xE0 SHL SWAP2 POP POP SWAP9 SWAP8 POP POP POP POP POP POP POP POP JUMP JUMPDEST PUSH1 0x0 PUSH20 0xFFFFFFFFFFFFFFFFFFFFFFFFFFFFFFFFFFFFFFFF AND PUSH1 0x0 DUP1 SLOAD SWAP1 PUSH2 0x100 EXP SWAP1 DIV PUSH20 0xFFFFFFFFFFFFFFFFFFFFFFFFFFFFFFFFFFFFFFFF AND PUSH20 0xFFFFFFFFFFFFFFFFFFFFFFFFFFFFFFFFFFFFFFFF AND EQ PUSH2 0x11F3 JUMPI PUSH1 0x40 MLOAD PUSH32 0x8C379A000000000000000000000000000000000000000000000000000000000 DUP2 MSTORE PUSH1 0x4 ADD PUSH2 0x11EA SWAP1 PUSH2 0x2AB8 JUMP JUMPDEST PUSH1 0x40 MLOAD DUP1 SWAP2 SUB SWAP1 REVERT JUMPDEST DUP3 PUSH1 0x0 DUP1 PUSH2 0x100 EXP DUP2 SLOAD DUP2 PUSH20 0xFFFFFFFFFFFFFFFFFFFFFFFFFFFFFFFFFFFFFFFF MUL NOT AND SWAP1 DUP4 PUSH20 0xFFFFFFFFFFFFFFFFFFFFFFFFFFFFFFFFFFFFFFFF AND MUL OR SWAP1 SSTORE POP PUSH1 0x0 SELFBALANCE SWAP1 POP DUP3 PUSH1 0x0 PUSH1 0x14 PUSH2 0x100 EXP DUP2 SLOAD DUP2 PUSH1 0xFF MUL NOT AND SWAP1 DUP4 ISZERO ISZERO MUL OR SWAP1 SSTORE POP DUP2 PUSH1 0x0 PUSH1 0x15 PUSH2 0x100 EXP DUP2 SLOAD DUP2 PUSH1 0xFF MUL NOT AND SWAP1 DUP4 ISZERO ISZERO MUL OR SWAP1 SSTORE POP PUSH1 0x0 DUP2 EQ ISZERO PUSH2 0x127B JUMPI POP PUSH2 0x1389 JUMP JUMPDEST PUSH1 0x0 DUP1 PUSH1 0x0 SWAP1 SLOAD SWAP1 PUSH2 0x100 EXP SWAP1 DIV PUSH20 0xFFFFFFFFFFFFFFFFFFFFFFFFFFFFFFFFFFFFFFFF AND PUSH20 0xFFFFFFFFFFFFFFFFFFFFFFFFFFFFFFFFFFFFFFFF AND DUP3 PUSH1 0x40 MLOAD PUSH2 0x12C2 SWAP1 PUSH2 0x23AA JUMP JUMPDEST PUSH1 0x0 PUSH1 0x40 MLOAD DUP1 DUP4 SUB DUP2 DUP6 DUP8 GAS CALL SWAP3 POP POP POP RETURNDATASIZE DUP1 PUSH1 0x0 DUP2 EQ PUSH2 0x12FF JUMPI PUSH1 0x40 MLOAD SWAP2 POP PUSH1 0x1F NOT PUSH1 0x3F RETURNDATASIZE ADD AND DUP3 ADD PUSH1 0x40 MSTORE RETURNDATASIZE DUP3 MSTORE RETURNDATASIZE PUSH1 0x0 PUSH1 0x20 DUP5 ADD RETURNDATACOPY PUSH2 0x1304 JUMP JUMPDEST PUSH1 0x60 SWAP2 POP JUMPDEST POP POP SWAP1 POP DUP1 PUSH2 0x1348 JUMPI PUSH1 0x40 MLOAD PUSH32 0x8C379A000000000000000000000000000000000000000000000000000000000 DUP2 MSTORE PUSH1 0x4 ADD PUSH2 0x133F SWAP1 PUSH2 0x241C JUMP JUMPDEST PUSH1 0x40 MLOAD DUP1 SWAP2 SUB SWAP1 REVERT JUMPDEST PUSH32 0x69B31548DEA9B3B707B4DFF357D326E3E9348B24E7A6080A218A6EDEEEC48F9B ADDRESS DUP4 PUSH1 0x0 CALLDATASIZE PUSH1 0x40 MLOAD PUSH2 0x137E SWAP5 SWAP4 SWAP3 SWAP2 SWAP1 PUSH2 0x2478 JUMP JUMPDEST PUSH1 0x40 MLOAD DUP1 SWAP2 SUB SWAP1 LOG1 POP POP JUMPDEST POP POP POP JUMP JUMPDEST PUSH1 0x0 DUP1 SLOAD SWAP1 PUSH2 0x100 EXP SWAP1 DIV PUSH20 0xFFFFFFFFFFFFFFFFFFFFFFFFFFFFFFFFFFFFFFFF AND PUSH20 0xFFFFFFFFFFFFFFFFFFFFFFFFFFFFFFFFFFFFFFFF AND CALLER PUSH20 0xFFFFFFFFFFFFFFFFFFFFFFFFFFFFFFFFFFFFFFFF AND EQ PUSH2 0x141C JUMPI PUSH1 0x40 MLOAD PUSH32 0x8C379A000000000000000000000000000000000000000000000000000000000 DUP2 MSTORE PUSH1 0x4 ADD PUSH2 0x1413 SWAP1 PUSH2 0x2624 JUMP JUMPDEST PUSH1 0x40 MLOAD DUP1 SWAP2 SUB SWAP1 REVERT JUMPDEST DUP1 PUSH1 0x0 PUSH1 0x14 PUSH2 0x100 EXP DUP2 SLOAD DUP2 PUSH1 0xFF MUL NOT AND SWAP1 DUP4 ISZERO ISZERO MUL OR SWAP1 SSTORE POP POP JUMP JUMPDEST PUSH1 0x0 DUP1 SLOAD SWAP1 PUSH2 0x100 EXP SWAP1 DIV PUSH20 0xFFFFFFFFFFFFFFFFFFFFFFFFFFFFFFFFFFFFFFFF AND PUSH20 0xFFFFFFFFFFFFFFFFFFFFFFFFFFFFFFFFFFFFFFFF AND CALLER PUSH20 0xFFFFFFFFFFFFFFFFFFFFFFFFFFFFFFFFFFFFFFFF AND EQ PUSH2 0x14C7 JUMPI PUSH1 0x40 MLOAD PUSH32 0x8C379A000000000000000000000000000000000000000000000000000000000 DUP2 MSTORE PUSH1 0x4 ADD PUSH2 0x14BE SWAP1 PUSH2 0x2624 JUMP JUMPDEST PUSH1 0x40 MLOAD DUP1 SWAP2 SUB SWAP1 REVERT JUMPDEST PUSH1 0x0 DUP4 SWAP1 POP DUP1 PUSH20 0xFFFFFFFFFFFFFFFFFFFFFFFFFFFFFFFFFFFFFFFF AND PUSH4 0x1FFC9A7 PUSH32 0xD9B67A2600000000000000000000000000000000000000000000000000000000 PUSH1 0x40 MLOAD DUP3 PUSH4 0xFFFFFFFF AND PUSH1 0xE0 SHL DUP2 MSTORE PUSH1 0x4 ADD PUSH2 0x1525 SWAP2 SWAP1 PUSH2 0x1E9B JUMP JUMPDEST PUSH1 0x20 PUSH1 0x40 MLOAD DUP1 DUP4 SUB DUP2 DUP7 GAS STATICCALL ISZERO DUP1 ISZERO PUSH2 0x1542 JUMPI RETURNDATASIZE PUSH1 0x0 DUP1 RETURNDATACOPY RETURNDATASIZE PUSH1 0x0 REVERT JUMPDEST POP POP POP POP PUSH1 0x40 MLOAD RETURNDATASIZE PUSH1 0x1F NOT PUSH1 0x1F DUP3 ADD AND DUP3 ADD DUP1 PUSH1 0x40 MSTORE POP DUP2 ADD SWAP1 PUSH2 0x1566 SWAP2 SWAP1 PUSH2 0x24CD JUMP JUMPDEST PUSH2 0x15A5 JUMPI PUSH1 0x40 MLOAD PUSH32 0x8C379A000000000000000000000000000000000000000000000000000000000 DUP2 MSTORE PUSH1 0x4 ADD PUSH2 0x159C SWAP1 PUSH2 0x28C8 JUMP JUMPDEST PUSH1 0x40 MLOAD DUP1 SWAP2 SUB SWAP1 REVERT JUMPDEST PUSH1 0x0 ADDRESS SWAP1 POP PUSH1 0x0 DUP5 DUP5 SWAP1 POP PUSH8 0xFFFFFFFFFFFFFFFF DUP2 GT ISZERO PUSH2 0x15C9 JUMPI PUSH2 0x15C8 PUSH2 0x1CDE JUMP JUMPDEST JUMPDEST PUSH1 0x40 MLOAD SWAP1 DUP1 DUP3 MSTORE DUP1 PUSH1 0x20 MUL PUSH1 0x20 ADD DUP3 ADD PUSH1 0x40 MSTORE DUP1 ISZERO PUSH2 0x15F7 JUMPI DUP2 PUSH1 0x20 ADD PUSH1 0x20 DUP3 MUL DUP1 CALLDATASIZE DUP4 CALLDATACOPY DUP1 DUP3 ADD SWAP2 POP POP SWAP1 POP JUMPDEST POP SWAP1 POP PUSH1 0x0 JUMPDEST DUP6 DUP6 SWAP1 POP DUP2 LT ISZERO PUSH2 0x16CE JUMPI DUP4 PUSH20 0xFFFFFFFFFFFFFFFFFFFFFFFFFFFFFFFFFFFFFFFF AND PUSH3 0xFDD58E DUP5 DUP9 DUP9 DUP6 DUP2 DUP2 LT PUSH2 0x1637 JUMPI PUSH2 0x1636 PUSH2 0x2AD8 JUMP JUMPDEST JUMPDEST SWAP1 POP PUSH1 0x20 MUL ADD CALLDATALOAD PUSH1 0x40 MLOAD DUP4 PUSH4 0xFFFFFFFF AND PUSH1 0xE0 SHL DUP2 MSTORE PUSH1 0x4 ADD PUSH2 0x165B SWAP3 SWAP2 SWAP1 PUSH2 0x28E8 JUMP JUMPDEST PUSH1 0x20 PUSH1 0x40 MLOAD DUP1 DUP4 SUB DUP2 DUP7 GAS STATICCALL ISZERO DUP1 ISZERO PUSH2 0x1678 JUMPI RETURNDATASIZE PUSH1 0x0 DUP1 RETURNDATACOPY RETURNDATASIZE PUSH1 0x0 REVERT JUMPDEST POP POP POP POP PUSH1 0x40 MLOAD RETURNDATASIZE PUSH1 0x1F NOT PUSH1 0x1F DUP3 ADD AND DUP3 ADD DUP1 PUSH1 0x40 MSTORE POP DUP2 ADD SWAP1 PUSH2 0x169C SWAP2 SWAP1 PUSH2 0x277F JUMP JUMPDEST DUP3 DUP3 DUP2 MLOAD DUP2 LT PUSH2 0x16AF JUMPI PUSH2 0x16AE PUSH2 0x2AD8 JUMP JUMPDEST JUMPDEST PUSH1 0x20 MUL PUSH1 0x20 ADD ADD DUP2 DUP2 MSTORE POP POP DUP1 DUP1 PUSH2 0x16C6 SWAP1 PUSH2 0x2B36 JUMP JUMPDEST SWAP2 POP POP PUSH2 0x15FD JUMP JUMPDEST POP DUP3 PUSH20 0xFFFFFFFFFFFFFFFFFFFFFFFFFFFFFFFFFFFFFFFF AND PUSH4 0x2EB2C2D6 DUP4 PUSH1 0x0 DUP1 SLOAD SWAP1 PUSH2 0x100 EXP SWAP1 DIV PUSH20 0xFFFFFFFFFFFFFFFFFFFFFFFFFFFFFFFFFFFFFFFF AND DUP9 DUP9 DUP7 PUSH1 0x40 MLOAD DUP7 PUSH4 0xFFFFFFFF AND PUSH1 0xE0 SHL DUP2 MSTORE PUSH1 0x4 ADD PUSH2 0x1730 SWAP6 SWAP5 SWAP4 SWAP3 SWAP2 SWAP1 PUSH2 0x2C2C JUMP JUMPDEST PUSH1 0x0 PUSH1 0x40 MLOAD DUP1 DUP4 SUB DUP2 PUSH1 0x0 DUP8 DUP1 EXTCODESIZE ISZERO DUP1 ISZERO PUSH2 0x174A JUMPI PUSH1 0x0 DUP1 REVERT JUMPDEST POP GAS CALL ISZERO DUP1 ISZERO PUSH2 0x175E JUMPI RETURNDATASIZE PUSH1 0x0 DUP1 RETURNDATACOPY RETURNDATASIZE PUSH1 0x0 REVERT JUMPDEST POP POP POP POP POP POP POP POP POP POP JUMP JUMPDEST PUSH1 0x0 DUP1 CALLER SWAP1 POP DUP1 PUSH20 0xFFFFFFFFFFFFFFFFFFFFFFFFFFFFFFFFFFFFFFFF AND PUSH4 0x1FFC9A7 PUSH32 0xD9B67A2600000000000000000000000000000000000000000000000000000000 PUSH1 0x40 MLOAD DUP3 PUSH4 0xFFFFFFFF AND PUSH1 0xE0 SHL DUP2 MSTORE PUSH1 0x4 ADD PUSH2 0x17C9 SWAP2 SWAP1 PUSH2 0x1E9B JUMP JUMPDEST PUSH1 0x20 PUSH1 0x40 MLOAD DUP1 DUP4 SUB DUP2 DUP7 GAS STATICCALL ISZERO DUP1 ISZERO PUSH2 0x17E6 JUMPI RETURNDATASIZE PUSH1 0x0 DUP1 RETURNDATACOPY RETURNDATASIZE PUSH1 0x0 REVERT JUMPDEST POP POP POP POP PUSH1 0x40 MLOAD RETURNDATASIZE PUSH1 0x1F NOT PUSH1 0x1F DUP3 ADD AND DUP3 ADD DUP1 PUSH1 0x40 MSTORE POP DUP2 ADD SWAP1 PUSH2 0x180A SWAP2 SWAP1 PUSH2 0x24CD JUMP JUMPDEST PUSH2 0x1849 JUMPI PUSH1 0x40 MLOAD PUSH32 0x8C379A000000000000000000000000000000000000000000000000000000000 DUP2 MSTORE PUSH1 0x4 ADD PUSH2 0x1840 SWAP1 PUSH2 0x28C8 JUMP JUMPDEST PUSH1 0x40 MLOAD DUP1 SWAP2 SUB SWAP1 REVERT JUMPDEST PUSH1 0x0 PUSH1 0x15 SWAP1 SLOAD SWAP1 PUSH2 0x100 EXP SWAP1 DIV PUSH1 0xFF AND ISZERO PUSH2 0x18F4 JUMPI DUP1 PUSH20 0xFFFFFFFFFFFFFFFFFFFFFFFFFFFFFFFFFFFFFFFF AND PUSH4 0xF242432A ADDRESS PUSH1 0x0 DUP1 SLOAD SWAP1 PUSH2 0x100 EXP SWAP1 DIV PUSH20 0xFFFFFFFFFFFFFFFFFFFFFFFFFFFFFFFFFFFFFFFF AND DUP10 DUP10 DUP10 DUP10 PUSH1 0x40 MLOAD DUP8 PUSH4 0xFFFFFFFF AND PUSH1 0xE0 SHL DUP2 MSTORE PUSH1 0x4 ADD PUSH2 0x18C1 SWAP7 SWAP6 SWAP5 SWAP4 SWAP3 SWAP2 SWAP1 PUSH2 0x2C94 JUMP JUMPDEST PUSH1 0x0 PUSH1 0x40 MLOAD DUP1 DUP4 SUB DUP2 PUSH1 0x0 DUP8 DUP1 EXTCODESIZE ISZERO DUP1 ISZERO PUSH2 0x18DB JUMPI PUSH1 0x0 DUP1 REVERT JUMPDEST POP GAS CALL ISZERO DUP1 ISZERO PUSH2 0x18EF JUMPI RETURNDATASIZE PUSH1 0x0 DUP1 RETURNDATACOPY RETURNDATASIZE PUSH1 0x0 REVERT JUMPDEST POP POP POP POP JUMPDEST PUSH4 0xF23A6E61 PUSH1 0xE0 SHL SWAP2 POP POP SWAP7 SWAP6 POP POP POP POP POP POP JUMP JUMPDEST PUSH1 0x0 PUSH1 0x14 SWAP1 SLOAD SWAP1 PUSH2 0x100 EXP SWAP1 DIV PUSH1 0xFF AND DUP2 JUMP JUMPDEST PUSH1 0x0 PUSH32 0x4E2312E000000000000000000000000000000000000000000000000000000000 PUSH28 0xFFFFFFFFFFFFFFFFFFFFFFFFFFFFFFFFFFFFFFFFFFFFFFFFFFFFFFFF NOT AND DUP3 PUSH28 0xFFFFFFFFFFFFFFFFFFFFFFFFFFFFFFFFFFFFFFFFFFFFFFFFFFFFFFFF NOT AND EQ DUP1 PUSH2 0x198F JUMPI POP PUSH2 0x198E DUP3 PUSH2 0x1ACC JUMP JUMPDEST JUMPDEST SWAP1 POP SWAP2 SWAP1 POP JUMP JUMPDEST PUSH1 0x0 DUP1 DUP5 PUSH20 0xFFFFFFFFFFFFFFFFFFFFFFFFFFFFFFFFFFFFFFFF AND PUSH4 0xA9059CBB DUP6 DUP6 PUSH1 0x40 MLOAD PUSH1 0x24 ADD PUSH2 0x19C8 SWAP3 SWAP2 SWAP1 PUSH2 0x28E8 JUMP JUMPDEST PUSH1 0x40 MLOAD PUSH1 0x20 DUP2 DUP4 SUB SUB DUP2 MSTORE SWAP1 PUSH1 0x40 MSTORE SWAP1 PUSH1 0xE0 SHL PUSH1 0x20 DUP3 ADD DUP1 MLOAD PUSH28 0xFFFFFFFFFFFFFFFFFFFFFFFFFFFFFFFFFFFFFFFFFFFFFFFFFFFFFFFF DUP4 DUP2 DUP4 AND OR DUP4 MSTORE POP POP POP POP PUSH1 0x40 MLOAD PUSH2 0x1A16 SWAP2 SWAP1 PUSH2 0x2D21 JUMP JUMPDEST PUSH1 0x0 PUSH1 0x40 MLOAD DUP1 DUP4 SUB DUP2 PUSH1 0x0 DUP7 GAS CALL SWAP2 POP POP RETURNDATASIZE DUP1 PUSH1 0x0 DUP2 EQ PUSH2 0x1A53 JUMPI PUSH1 0x40 MLOAD SWAP2 POP PUSH1 0x1F NOT PUSH1 0x3F RETURNDATASIZE ADD AND DUP3 ADD PUSH1 0x40 MSTORE RETURNDATASIZE DUP3 MSTORE RETURNDATASIZE PUSH1 0x0 PUSH1 0x20 DUP5 ADD RETURNDATACOPY PUSH2 0x1A58 JUMP JUMPDEST PUSH1 0x60 SWAP2 POP JUMPDEST POP SWAP2 POP SWAP2 POP DUP2 DUP1 ISZERO PUSH2 0x1A86 JUMPI POP PUSH1 0x0 DUP2 MLOAD EQ DUP1 PUSH2 0x1A85 JUMPI POP DUP1 DUP1 PUSH1 0x20 ADD SWAP1 MLOAD DUP2 ADD SWAP1 PUSH2 0x1A84 SWAP2 SWAP1 PUSH2 0x24CD JUMP JUMPDEST JUMPDEST JUMPDEST PUSH2 0x1AC5 JUMPI PUSH1 0x40 MLOAD PUSH32 0x8C379A000000000000000000000000000000000000000000000000000000000 DUP2 MSTORE PUSH1 0x4 ADD PUSH2 0x1ABC SWAP1 PUSH2 0x2DAA JUMP JUMPDEST PUSH1 0x40 MLOAD DUP1 SWAP2 SUB SWAP1 REVERT JUMPDEST POP POP POP POP POP JUMP JUMPDEST PUSH1 0x0 PUSH32 0x1FFC9A700000000000000000000000000000000000000000000000000000000 PUSH28 0xFFFFFFFFFFFFFFFFFFFFFFFFFFFFFFFFFFFFFFFFFFFFFFFFFFFFFFFF NOT AND DUP3 PUSH28 0xFFFFFFFFFFFFFFFFFFFFFFFFFFFFFFFFFFFFFFFFFFFFFFFFFFFFFFFF NOT AND EQ SWAP1 POP SWAP2 SWAP1 POP JUMP JUMPDEST PUSH1 0x0 PUSH20 0xFFFFFFFFFFFFFFFFFFFFFFFFFFFFFFFFFFFFFFFF DUP3 AND SWAP1 POP SWAP2 SWAP1 POP JUMP JUMPDEST PUSH1 0x0 PUSH2 0x1B61 DUP3 PUSH2 0x1B36 JUMP JUMPDEST SWAP1 POP SWAP2 SWAP1 POP JUMP JUMPDEST PUSH2 0x1B71 DUP2 PUSH2 0x1B56 JUMP JUMPDEST DUP3 MSTORE POP POP JUMP JUMPDEST PUSH1 0x0 PUSH1 0x20 DUP3 ADD SWAP1 POP PUSH2 0x1B8C PUSH1 0x0 DUP4 ADD DUP5 PUSH2 0x1B68 JUMP JUMPDEST SWAP3 SWAP2 POP POP JUMP JUMPDEST PUSH1 0x0 PUSH1 0x40 MLOAD SWAP1 POP SWAP1 JUMP JUMPDEST PUSH1 0x0 DUP1 REVERT JUMPDEST PUSH1 0x0 DUP1 REVERT JUMPDEST PUSH1 0x0 PUSH32 0xFFFFFFFF00000000000000000000000000000000000000000000000000000000 DUP3 AND SWAP1 POP SWAP2 SWAP1 POP JUMP JUMPDEST PUSH2 0x1BDB DUP2 PUSH2 0x1BA6 JUMP JUMPDEST DUP2 EQ PUSH2 0x1BE6 JUMPI PUSH1 0x0 DUP1 REVERT JUMPDEST POP JUMP JUMPDEST PUSH1 0x0 DUP2 CALLDATALOAD SWAP1 POP PUSH2 0x1BF8 DUP2 PUSH2 0x1BD2 JUMP JUMPDEST SWAP3 SWAP2 POP POP JUMP JUMPDEST PUSH1 0x0 PUSH1 0x20 DUP3 DUP5 SUB SLT ISZERO PUSH2 0x1C14 JUMPI PUSH2 0x1C13 PUSH2 0x1B9C JUMP JUMPDEST JUMPDEST PUSH1 0x0 PUSH2 0x1C22 DUP5 DUP3 DUP6 ADD PUSH2 0x1BE9 JUMP JUMPDEST SWAP2 POP POP SWAP3 SWAP2 POP POP JUMP JUMPDEST PUSH1 0x0 DUP2 ISZERO ISZERO SWAP1 POP SWAP2 SWAP1 POP JUMP JUMPDEST PUSH2 0x1C40 DUP2 PUSH2 0x1C2B JUMP JUMPDEST DUP3 MSTORE POP POP JUMP JUMPDEST PUSH1 0x0 PUSH1 0x20 DUP3 ADD SWAP1 POP PUSH2 0x1C5B PUSH1 0x0 DUP4 ADD DUP5 PUSH2 0x1C37 JUMP JUMPDEST SWAP3 SWAP2 POP POP JUMP JUMPDEST PUSH2 0x1C6A DUP2 PUSH2 0x1B56 JUMP JUMPDEST DUP2 EQ PUSH2 0x1C75 JUMPI PUSH1 0x0 DUP1 REVERT JUMPDEST POP JUMP JUMPDEST PUSH1 0x0 DUP2 CALLDATALOAD SWAP1 POP PUSH2 0x1C87 DUP2 PUSH2 0x1C61 JUMP JUMPDEST SWAP3 SWAP2 POP POP JUMP JUMPDEST PUSH1 0x0 DUP2 SWAP1 POP SWAP2 SWAP1 POP JUMP JUMPDEST PUSH2 0x1CA0 DUP2 PUSH2 0x1C8D JUMP JUMPDEST DUP2 EQ PUSH2 0x1CAB JUMPI PUSH1 0x0 DUP1 REVERT JUMPDEST POP JUMP JUMPDEST PUSH1 0x0 DUP2 CALLDATALOAD SWAP1 POP PUSH2 0x1CBD DUP2 PUSH2 0x1C97 JUMP JUMPDEST SWAP3 SWAP2 POP POP JUMP JUMPDEST PUSH1 0x0 DUP1 REVERT JUMPDEST PUSH1 0x0 DUP1 REVERT JUMPDEST PUSH1 0x0 PUSH1 0x1F NOT PUSH1 0x1F DUP4 ADD AND SWAP1 POP SWAP2 SWAP1 POP JUMP JUMPDEST PUSH32 0x4E487B7100000000000000000000000000000000000000000000000000000000 PUSH1 0x0 MSTORE PUSH1 0x41 PUSH1 0x4 MSTORE PUSH1 0x24 PUSH1 0x0 REVERT JUMPDEST PUSH2 0x1D16 DUP3 PUSH2 0x1CCD JUMP JUMPDEST DUP2 ADD DUP2 DUP2 LT PUSH8 0xFFFFFFFFFFFFFFFF DUP3 GT OR ISZERO PUSH2 0x1D35 JUMPI PUSH2 0x1D34 PUSH2 0x1CDE JUMP JUMPDEST JUMPDEST DUP1 PUSH1 0x40 MSTORE POP POP POP JUMP JUMPDEST PUSH1 0x0 PUSH2 0x1D48 PUSH2 0x1B92 JUMP JUMPDEST SWAP1 POP PUSH2 0x1D54 DUP3 DUP3 PUSH2 0x1D0D JUMP JUMPDEST SWAP2 SWAP1 POP JUMP JUMPDEST PUSH1 0x0 PUSH8 0xFFFFFFFFFFFFFFFF DUP3 GT ISZERO PUSH2 0x1D74 JUMPI PUSH2 0x1D73 PUSH2 0x1CDE JUMP JUMPDEST JUMPDEST PUSH2 0x1D7D DUP3 PUSH2 0x1CCD JUMP JUMPDEST SWAP1 POP PUSH1 0x20 DUP2 ADD SWAP1 POP SWAP2 SWAP1 POP JUMP JUMPDEST DUP3 DUP2 DUP4 CALLDATACOPY PUSH1 0x0 DUP4 DUP4 ADD MSTORE POP POP POP JUMP JUMPDEST PUSH1 0x0 PUSH2 0x1DAC PUSH2 0x1DA7 DUP5 PUSH2 0x1D59 JUMP JUMPDEST PUSH2 0x1D3E JUMP JUMPDEST SWAP1 POP DUP3 DUP2 MSTORE PUSH1 0x20 DUP2 ADD DUP5 DUP5 DUP5 ADD GT ISZERO PUSH2 0x1DC8 JUMPI PUSH2 0x1DC7 PUSH2 0x1CC8 JUMP JUMPDEST JUMPDEST PUSH2 0x1DD3 DUP5 DUP3 DUP6 PUSH2 0x1D8A JUMP JUMPDEST POP SWAP4 SWAP3 POP POP POP JUMP JUMPDEST PUSH1 0x0 DUP3 PUSH1 0x1F DUP4 ADD SLT PUSH2 0x1DF0 JUMPI PUSH2 0x1DEF PUSH2 0x1CC3 JUMP JUMPDEST JUMPDEST DUP2 CALLDATALOAD PUSH2 0x1E00 DUP5 DUP3 PUSH1 0x20 DUP7 ADD PUSH2 0x1D99 JUMP JUMPDEST SWAP2 POP POP SWAP3 SWAP2 POP POP JUMP JUMPDEST PUSH1 0x0 DUP1 PUSH1 0x0 DUP1 PUSH1 0x80 DUP6 DUP8 SUB SLT ISZERO PUSH2 0x1E23 JUMPI PUSH2 0x1E22 PUSH2 0x1B9C JUMP JUMPDEST JUMPDEST PUSH1 0x0 PUSH2 0x1E31 DUP8 DUP3 DUP9 ADD PUSH2 0x1C78 JUMP JUMPDEST SWAP5 POP POP PUSH1 0x20 PUSH2 0x1E42 DUP8 DUP3 DUP9 ADD PUSH2 0x1C78 JUMP JUMPDEST SWAP4 POP POP PUSH1 0x40 PUSH2 0x1E53 DUP8 DUP3 DUP9 ADD PUSH2 0x1CAE JUMP JUMPDEST SWAP3 POP POP PUSH1 0x60 DUP6 ADD CALLDATALOAD PUSH8 0xFFFFFFFFFFFFFFFF DUP2 GT ISZERO PUSH2 0x1E74 JUMPI PUSH2 0x1E73 PUSH2 0x1BA1 JUMP JUMPDEST JUMPDEST PUSH2 0x1E80 DUP8 DUP3 DUP9 ADD PUSH2 0x1DDB JUMP JUMPDEST SWAP2 POP POP SWAP3 SWAP6 SWAP2 SWAP5 POP SWAP3 POP JUMP JUMPDEST PUSH2 0x1E95 DUP2 PUSH2 0x1BA6 JUMP JUMPDEST DUP3 MSTORE POP POP JUMP JUMPDEST PUSH1 0x0 PUSH1 0x20 DUP3 ADD SWAP1 POP PUSH2 0x1EB0 PUSH1 0x0 DUP4 ADD DUP5 PUSH2 0x1E8C JUMP JUMPDEST SWAP3 SWAP2 POP POP JUMP JUMPDEST PUSH1 0x0 DUP1 PUSH1 0x40 DUP4 DUP6 SUB SLT ISZERO PUSH2 0x1ECD JUMPI PUSH2 0x1ECC PUSH2 0x1B9C JUMP JUMPDEST JUMPDEST PUSH1 0x0 PUSH2 0x1EDB DUP6 DUP3 DUP7 ADD PUSH2 0x1C78 JUMP JUMPDEST SWAP3 POP POP PUSH1 0x20 PUSH2 0x1EEC DUP6 DUP3 DUP7 ADD PUSH2 0x1CAE JUMP JUMPDEST SWAP2 POP POP SWAP3 POP SWAP3 SWAP1 POP JUMP JUMPDEST PUSH1 0x0 PUSH1 0x20 DUP3 DUP5 SUB SLT ISZERO PUSH2 0x1F0C JUMPI PUSH2 0x1F0B PUSH2 0x1B9C JUMP JUMPDEST JUMPDEST PUSH1 0x0 PUSH2 0x1F1A DUP5 DUP3 DUP6 ADD PUSH2 0x1C78 JUMP JUMPDEST SWAP2 POP POP SWAP3 SWAP2 POP POP JUMP JUMPDEST PUSH1 0x0 DUP1 REVERT JUMPDEST PUSH1 0x0 DUP1 REVERT JUMPDEST PUSH1 0x0 DUP1 DUP4 PUSH1 0x1F DUP5 ADD SLT PUSH2 0x1F43 JUMPI PUSH2 0x1F42 PUSH2 0x1CC3 JUMP JUMPDEST JUMPDEST DUP3 CALLDATALOAD SWAP1 POP PUSH8 0xFFFFFFFFFFFFFFFF DUP2 GT ISZERO PUSH2 0x1F60 JUMPI PUSH2 0x1F5F PUSH2 0x1F23 JUMP JUMPDEST JUMPDEST PUSH1 0x20 DUP4 ADD SWAP2 POP DUP4 PUSH1 0x1 DUP3 MUL DUP4 ADD GT ISZERO PUSH2 0x1F7C JUMPI PUSH2 0x1F7B PUSH2 0x1F28 JUMP JUMPDEST JUMPDEST SWAP3 POP SWAP3 SWAP1 POP JUMP JUMPDEST PUSH1 0x0 DUP1 PUSH1 0x0 DUP1 PUSH1 0x60 DUP6 DUP8 SUB SLT ISZERO PUSH2 0x1F9D JUMPI PUSH2 0x1F9C PUSH2 0x1B9C JUMP JUMPDEST JUMPDEST PUSH1 0x0 PUSH2 0x1FAB DUP8 DUP3 DUP9 ADD PUSH2 0x1C78 JUMP JUMPDEST SWAP5 POP POP PUSH1 0x20 PUSH2 0x1FBC DUP8 DUP3 DUP9 ADD PUSH2 0x1CAE JUMP JUMPDEST SWAP4 POP POP PUSH1 0x40 DUP6 ADD CALLDATALOAD PUSH8 0xFFFFFFFFFFFFFFFF DUP2 GT ISZERO PUSH2 0x1FDD JUMPI PUSH2 0x1FDC PUSH2 0x1BA1 JUMP JUMPDEST JUMPDEST PUSH2 0x1FE9 DUP8 DUP3 DUP9 ADD PUSH2 0x1F2D JUMP JUMPDEST SWAP3 POP SWAP3 POP POP SWAP3 SWAP6 SWAP2 SWAP5 POP SWAP3 POP JUMP JUMPDEST PUSH1 0x0 DUP2 MLOAD SWAP1 POP SWAP2 SWAP1 POP JUMP JUMPDEST PUSH1 0x0 DUP3 DUP3 MSTORE PUSH1 0x20 DUP3 ADD SWAP1 POP SWAP3 SWAP2 POP POP JUMP JUMPDEST PUSH1 0x0 JUMPDEST DUP4 DUP2 LT ISZERO PUSH2 0x2031 JUMPI DUP1 DUP3 ADD MLOAD DUP2 DUP5 ADD MSTORE PUSH1 0x20 DUP2 ADD SWAP1 POP PUSH2 0x2016 JUMP JUMPDEST DUP4 DUP2 GT ISZERO PUSH2 0x2040 JUMPI PUSH1 0x0 DUP5 DUP5 ADD MSTORE JUMPDEST POP POP POP POP JUMP JUMPDEST PUSH1 0x0 PUSH2 0x2051 DUP3 PUSH2 0x1FF7 JUMP JUMPDEST PUSH2 0x205B DUP2 DUP6 PUSH2 0x2002 JUMP JUMPDEST SWAP4 POP PUSH2 0x206B DUP2 DUP6 PUSH1 0x20 DUP7 ADD PUSH2 0x2013 JUMP JUMPDEST PUSH2 0x2074 DUP2 PUSH2 0x1CCD JUMP JUMPDEST DUP5 ADD SWAP2 POP POP SWAP3 SWAP2 POP POP JUMP JUMPDEST PUSH1 0x0 PUSH1 0x20 DUP3 ADD SWAP1 POP DUP2 DUP2 SUB PUSH1 0x0 DUP4 ADD MSTORE PUSH2 0x2099 DUP2 DUP5 PUSH2 0x2046 JUMP JUMPDEST SWAP1 POP SWAP3 SWAP2 POP POP JUMP JUMPDEST PUSH2 0x20AA DUP2 PUSH2 0x1C2B JUMP JUMPDEST DUP2 EQ PUSH2 0x20B5 JUMPI PUSH1 0x0 DUP1 REVERT JUMPDEST POP JUMP JUMPDEST PUSH1 0x0 DUP2 CALLDATALOAD SWAP1 POP PUSH2 0x20C7 DUP2 PUSH2 0x20A1 JUMP JUMPDEST SWAP3 SWAP2 POP POP JUMP JUMPDEST PUSH1 0x0 PUSH1 0x20 DUP3 DUP5 SUB SLT ISZERO PUSH2 0x20E3 JUMPI PUSH2 0x20E2 PUSH2 0x1B9C JUMP JUMPDEST JUMPDEST PUSH1 0x0 PUSH2 0x20F1 DUP5 DUP3 DUP6 ADD PUSH2 0x20B8 JUMP JUMPDEST SWAP2 POP POP SWAP3 SWAP2 POP POP JUMP JUMPDEST PUSH1 0x0 DUP1 DUP4 PUSH1 0x1F DUP5 ADD SLT PUSH2 0x2110 JUMPI PUSH2 0x210F PUSH2 0x1CC3 JUMP JUMPDEST JUMPDEST DUP3 CALLDATALOAD SWAP1 POP PUSH8 0xFFFFFFFFFFFFFFFF DUP2 GT ISZERO PUSH2 0x212D JUMPI PUSH2 0x212C PUSH2 0x1F23 JUMP JUMPDEST JUMPDEST PUSH1 0x20 DUP4 ADD SWAP2 POP DUP4 PUSH1 0x20 DUP3 MUL DUP4 ADD GT ISZERO PUSH2 0x2149 JUMPI PUSH2 0x2148 PUSH2 0x1F28 JUMP JUMPDEST JUMPDEST SWAP3 POP SWAP3 SWAP1 POP JUMP JUMPDEST PUSH1 0x0 DUP1 PUSH1 0x0 DUP1 PUSH1 0x0 DUP1 PUSH1 0x0 DUP1 PUSH1 0xA0 DUP10 DUP12 SUB SLT ISZERO PUSH2 0x2170 JUMPI PUSH2 0x216F PUSH2 0x1B9C JUMP JUMPDEST JUMPDEST PUSH1 0x0 PUSH2 0x217E DUP12 DUP3 DUP13 ADD PUSH2 0x1C78 JUMP JUMPDEST SWAP9 POP POP PUSH1 0x20 PUSH2 0x218F DUP12 DUP3 DUP13 ADD PUSH2 0x1C78 JUMP JUMPDEST SWAP8 POP POP PUSH1 0x40 DUP10 ADD CALLDATALOAD PUSH8 0xFFFFFFFFFFFFFFFF DUP2 GT ISZERO PUSH2 0x21B0 JUMPI PUSH2 0x21AF PUSH2 0x1BA1 JUMP JUMPDEST JUMPDEST PUSH2 0x21BC DUP12 DUP3 DUP13 ADD PUSH2 0x20FA JUMP JUMPDEST SWAP7 POP SWAP7 POP POP PUSH1 0x60 DUP10 ADD CALLDATALOAD PUSH8 0xFFFFFFFFFFFFFFFF DUP2 GT ISZERO PUSH2 0x21DF JUMPI PUSH2 0x21DE PUSH2 0x1BA1 JUMP JUMPDEST JUMPDEST PUSH2 0x21EB DUP12 DUP3 DUP13 ADD PUSH2 0x20FA JUMP JUMPDEST SWAP5 POP SWAP5 POP POP PUSH1 0x80 DUP10 ADD CALLDATALOAD PUSH8 0xFFFFFFFFFFFFFFFF DUP2 GT ISZERO PUSH2 0x220E JUMPI PUSH2 0x220D PUSH2 0x1BA1 JUMP JUMPDEST JUMPDEST PUSH2 0x221A DUP12 DUP3 DUP13 ADD PUSH2 0x1F2D JUMP JUMPDEST SWAP3 POP SWAP3 POP POP SWAP3 SWAP6 SWAP9 POP SWAP3 SWAP6 SWAP9 SWAP1 SWAP4 SWAP7 POP JUMP JUMPDEST PUSH1 0x0 DUP1 PUSH1 0x0 PUSH1 0x60 DUP5 DUP7 SUB SLT ISZERO PUSH2 0x2245 JUMPI PUSH2 0x2244 PUSH2 0x1B9C JUMP JUMPDEST JUMPDEST PUSH1 0x0 PUSH2 0x2253 DUP7 DUP3 DUP8 ADD PUSH2 0x1C78 JUMP JUMPDEST SWAP4 POP POP PUSH1 0x20 PUSH2 0x2264 DUP7 DUP3 DUP8 ADD PUSH2 0x20B8 JUMP JUMPDEST SWAP3 POP POP PUSH1 0x40 PUSH2 0x2275 DUP7 DUP3 DUP8 ADD PUSH2 0x20B8 JUMP JUMPDEST SWAP2 POP POP SWAP3 POP SWAP3 POP SWAP3 JUMP JUMPDEST PUSH1 0x0 DUP1 PUSH1 0x0 PUSH1 0x40 DUP5 DUP7 SUB SLT ISZERO PUSH2 0x2298 JUMPI PUSH2 0x2297 PUSH2 0x1B9C JUMP JUMPDEST JUMPDEST PUSH1 0x0 PUSH2 0x22A6 DUP7 DUP3 DUP8 ADD PUSH2 0x1C78 JUMP JUMPDEST SWAP4 POP POP PUSH1 0x20 DUP5 ADD CALLDATALOAD PUSH8 0xFFFFFFFFFFFFFFFF DUP2 GT ISZERO PUSH2 0x22C7 JUMPI PUSH2 0x22C6 PUSH2 0x1BA1 JUMP JUMPDEST JUMPDEST PUSH2 0x22D3 DUP7 DUP3 DUP8 ADD PUSH2 0x20FA JUMP JUMPDEST SWAP3 POP SWAP3 POP POP SWAP3 POP SWAP3 POP SWAP3 JUMP JUMPDEST PUSH1 0x0 DUP1 PUSH1 0x0 DUP1 PUSH1 0x0 DUP1 PUSH1 0xA0 DUP8 DUP10 SUB SLT ISZERO PUSH2 0x22FC JUMPI PUSH2 0x22FB PUSH2 0x1B9C JUMP JUMPDEST JUMPDEST PUSH1 0x0 PUSH2 0x230A DUP10 DUP3 DUP11 ADD PUSH2 0x1C78 JUMP JUMPDEST SWAP7 POP POP PUSH1 0x20 PUSH2 0x231B DUP10 DUP3 DUP11 ADD PUSH2 0x1C78 JUMP JUMPDEST SWAP6 POP POP PUSH1 0x40 PUSH2 0x232C DUP10 DUP3 DUP11 ADD PUSH2 0x1CAE JUMP JUMPDEST SWAP5 POP POP PUSH1 0x60 PUSH2 0x233D DUP10 DUP3 DUP11 ADD PUSH2 0x1CAE JUMP JUMPDEST SWAP4 POP POP PUSH1 0x80 DUP8 ADD CALLDATALOAD PUSH8 0xFFFFFFFFFFFFFFFF DUP2 GT ISZERO PUSH2 0x235E JUMPI PUSH2 0x235D PUSH2 0x1BA1 JUMP JUMPDEST JUMPDEST PUSH2 0x236A DUP10 DUP3 DUP11 ADD PUSH2 0x1F2D JUMP JUMPDEST SWAP3 POP SWAP3 POP POP SWAP3 SWAP6 POP SWAP3 SWAP6 POP SWAP3 SWAP6 JUMP JUMPDEST PUSH1 0x0 DUP2 SWAP1 POP SWAP3 SWAP2 POP POP JUMP JUMPDEST POP JUMP JUMPDEST PUSH1 0x0 PUSH2 0x2394 PUSH1 0x0 DUP4 PUSH2 0x2379 JUMP JUMPDEST SWAP2 POP PUSH2 0x239F DUP3 PUSH2 0x2384 JUMP JUMPDEST PUSH1 0x0 DUP3 ADD SWAP1 POP SWAP2 SWAP1 POP JUMP JUMPDEST PUSH1 0x0 PUSH2 0x23B5 DUP3 PUSH2 0x2387 JUMP JUMPDEST SWAP2 POP DUP2 SWAP1 POP SWAP2 SWAP1 POP JUMP JUMPDEST PUSH1 0x0 DUP3 DUP3 MSTORE PUSH1 0x20 DUP3 ADD SWAP1 POP SWAP3 SWAP2 POP POP JUMP JUMPDEST PUSH32 0x466C757368206661696C65640000000000000000000000000000000000000000 PUSH1 0x0 DUP3 ADD MSTORE POP JUMP JUMPDEST PUSH1 0x0 PUSH2 0x2406 PUSH1 0xC DUP4 PUSH2 0x23BF JUMP JUMPDEST SWAP2 POP PUSH2 0x2411 DUP3 PUSH2 0x23D0 JUMP JUMPDEST PUSH1 0x20 DUP3 ADD SWAP1 POP SWAP2 SWAP1 POP JUMP JUMPDEST PUSH1 0x0 PUSH1 0x20 DUP3 ADD SWAP1 POP DUP2 DUP2 SUB PUSH1 0x0 DUP4 ADD MSTORE PUSH2 0x2435 DUP2 PUSH2 0x23F9 JUMP JUMPDEST SWAP1 POP SWAP2 SWAP1 POP JUMP JUMPDEST PUSH2 0x2445 DUP2 PUSH2 0x1C8D JUMP JUMPDEST DUP3 MSTORE POP POP JUMP JUMPDEST PUSH1 0x0 PUSH2 0x2457 DUP4 DUP6 PUSH2 0x2002 JUMP JUMPDEST SWAP4 POP PUSH2 0x2464 DUP4 DUP6 DUP5 PUSH2 0x1D8A JUMP JUMPDEST PUSH2 0x246D DUP4 PUSH2 0x1CCD JUMP JUMPDEST DUP5 ADD SWAP1 POP SWAP4 SWAP3 POP POP POP JUMP JUMPDEST PUSH1 0x0 PUSH1 0x60 DUP3 ADD SWAP1 POP PUSH2 0x248D PUSH1 0x0 DUP4 ADD DUP8 PUSH2 0x1B68 JUMP JUMPDEST PUSH2 0x249A PUSH1 0x20 DUP4 ADD DUP7 PUSH2 0x243C JUMP JUMPDEST DUP2 DUP2 SUB PUSH1 0x40 DUP4 ADD MSTORE PUSH2 0x24AD DUP2 DUP5 DUP7 PUSH2 0x244B JUMP JUMPDEST SWAP1 POP SWAP6 SWAP5 POP POP POP POP POP JUMP JUMPDEST PUSH1 0x0 DUP2 MLOAD SWAP1 POP PUSH2 0x24C7 DUP2 PUSH2 0x20A1 JUMP JUMPDEST SWAP3 SWAP2 POP POP JUMP JUMPDEST PUSH1 0x0 PUSH1 0x20 DUP3 DUP5 SUB SLT ISZERO PUSH2 0x24E3 JUMPI PUSH2 0x24E2 PUSH2 0x1B9C JUMP JUMPDEST JUMPDEST PUSH1 0x0 PUSH2 0x24F1 DUP5 DUP3 DUP6 ADD PUSH2 0x24B8 JUMP JUMPDEST SWAP2 POP POP SWAP3 SWAP2 POP POP JUMP JUMPDEST PUSH32 0x5468652063616C6C657220646F6573206E6F7420737570706F72742074686520 PUSH1 0x0 DUP3 ADD MSTORE PUSH32 0x45524337323120696E7465726661636500000000000000000000000000000000 PUSH1 0x20 DUP3 ADD MSTORE POP JUMP JUMPDEST PUSH1 0x0 PUSH2 0x2556 PUSH1 0x30 DUP4 PUSH2 0x23BF JUMP JUMPDEST SWAP2 POP PUSH2 0x2561 DUP3 PUSH2 0x24FA JUMP JUMPDEST PUSH1 0x40 DUP3 ADD SWAP1 POP SWAP2 SWAP1 POP JUMP JUMPDEST PUSH1 0x0 PUSH1 0x20 DUP3 ADD SWAP1 POP DUP2 DUP2 SUB PUSH1 0x0 DUP4 ADD MSTORE PUSH2 0x2585 DUP2 PUSH2 0x2549 JUMP JUMPDEST SWAP1 POP SWAP2 SWAP1 POP JUMP JUMPDEST PUSH1 0x0 PUSH1 0x80 DUP3 ADD SWAP1 POP PUSH2 0x25A1 PUSH1 0x0 DUP4 ADD DUP8 PUSH2 0x1B68 JUMP JUMPDEST PUSH2 0x25AE PUSH1 0x20 DUP4 ADD DUP7 PUSH2 0x1B68 JUMP JUMPDEST PUSH2 0x25BB PUSH1 0x40 DUP4 ADD DUP6 PUSH2 0x243C JUMP JUMPDEST DUP2 DUP2 SUB PUSH1 0x60 DUP4 ADD MSTORE PUSH2 0x25CD DUP2 DUP5 PUSH2 0x2046 JUMP JUMPDEST SWAP1 POP SWAP6 SWAP5 POP POP POP POP POP JUMP JUMPDEST PUSH32 0x4F6E6C7920506172656E74000000000000000000000000000000000000000000 PUSH1 0x0 DUP3 ADD MSTORE POP JUMP JUMPDEST PUSH1 0x0 PUSH2 0x260E PUSH1 0xB DUP4 PUSH2 0x23BF JUMP JUMPDEST SWAP2 POP PUSH2 0x2619 DUP3 PUSH2 0x25D8 JUMP JUMPDEST PUSH1 0x20 DUP3 ADD SWAP1 POP SWAP2 SWAP1 POP JUMP JUMPDEST PUSH1 0x0 PUSH1 0x20 DUP3 ADD SWAP1 POP DUP2 DUP2 SUB PUSH1 0x0 DUP4 ADD MSTORE PUSH2 0x263D DUP2 PUSH2 0x2601 JUMP JUMPDEST SWAP1 POP SWAP2 SWAP1 POP JUMP JUMPDEST PUSH32 0x54686520746F6B656E436F6E74726163744164647265737320646F6573206E6F PUSH1 0x0 DUP3 ADD MSTORE PUSH32 0x7420737570706F7274207468652045524337323120696E746572666163650000 PUSH1 0x20 DUP3 ADD MSTORE POP JUMP JUMPDEST PUSH1 0x0 PUSH2 0x26A0 PUSH1 0x3E DUP4 PUSH2 0x23BF JUMP JUMPDEST SWAP2 POP PUSH2 0x26AB DUP3 PUSH2 0x2644 JUMP JUMPDEST PUSH1 0x40 DUP3 ADD SWAP1 POP SWAP2 SWAP1 POP JUMP JUMPDEST PUSH1 0x0 PUSH1 0x20 DUP3 ADD SWAP1 POP DUP2 DUP2 SUB PUSH1 0x0 DUP4 ADD MSTORE PUSH2 0x26CF DUP2 PUSH2 0x2693 JUMP JUMPDEST SWAP1 POP SWAP2 SWAP1 POP JUMP JUMPDEST PUSH1 0x0 PUSH1 0x20 DUP3 ADD SWAP1 POP PUSH2 0x26EB PUSH1 0x0 DUP4 ADD DUP5 PUSH2 0x243C JUMP JUMPDEST SWAP3 SWAP2 POP POP JUMP JUMPDEST PUSH1 0x0 DUP2 MLOAD SWAP1 POP PUSH2 0x2700 DUP2 PUSH2 0x1C61 JUMP JUMPDEST SWAP3 SWAP2 POP POP JUMP JUMPDEST PUSH1 0x0 PUSH1 0x20 DUP3 DUP5 SUB SLT ISZERO PUSH2 0x271C JUMPI PUSH2 0x271B PUSH2 0x1B9C JUMP JUMPDEST JUMPDEST PUSH1 0x0 PUSH2 0x272A DUP5 DUP3 DUP6 ADD PUSH2 0x26F1 JUMP JUMPDEST SWAP2 POP POP SWAP3 SWAP2 POP POP JUMP JUMPDEST PUSH1 0x0 PUSH1 0x60 DUP3 ADD SWAP1 POP PUSH2 0x2748 PUSH1 0x0 DUP4 ADD DUP7 PUSH2 0x1B68 JUMP JUMPDEST PUSH2 0x2755 PUSH1 0x20 DUP4 ADD DUP6 PUSH2 0x1B68 JUMP JUMPDEST PUSH2 0x2762 PUSH1 0x40 DUP4 ADD DUP5 PUSH2 0x243C JUMP JUMPDEST SWAP5 SWAP4 POP POP POP POP JUMP JUMPDEST PUSH1 0x0 DUP2 MLOAD SWAP1 POP PUSH2 0x2779 DUP2 PUSH2 0x1C97 JUMP JUMPDEST SWAP3 SWAP2 POP POP JUMP JUMPDEST PUSH1 0x0 PUSH1 0x20 DUP3 DUP5 SUB SLT ISZERO PUSH2 0x2795 JUMPI PUSH2 0x2794 PUSH2 0x1B9C JUMP JUMPDEST JUMPDEST PUSH1 0x0 PUSH2 0x27A3 DUP5 DUP3 DUP6 ADD PUSH2 0x276A JUMP JUMPDEST SWAP2 POP POP SWAP3 SWAP2 POP POP JUMP JUMPDEST PUSH1 0x0 PUSH2 0x27B8 DUP4 DUP6 PUSH2 0x2379 JUMP JUMPDEST SWAP4 POP PUSH2 0x27C5 DUP4 DUP6 DUP5 PUSH2 0x1D8A JUMP JUMPDEST DUP3 DUP5 ADD SWAP1 POP SWAP4 SWAP3 POP POP POP JUMP JUMPDEST PUSH1 0x0 PUSH2 0x27DE DUP3 DUP5 DUP7 PUSH2 0x27AC JUMP JUMPDEST SWAP2 POP DUP2 SWAP1 POP SWAP4 SWAP3 POP POP POP JUMP JUMPDEST PUSH32 0x506172656E742063616C6C20657865637574696F6E206661696C656400000000 PUSH1 0x0 DUP3 ADD MSTORE POP JUMP JUMPDEST PUSH1 0x0 PUSH2 0x2820 PUSH1 0x1C DUP4 PUSH2 0x23BF JUMP JUMPDEST SWAP2 POP PUSH2 0x282B DUP3 PUSH2 0x27EA JUMP JUMPDEST PUSH1 0x20 DUP3 ADD SWAP1 POP SWAP2 SWAP1 POP JUMP JUMPDEST PUSH1 0x0 PUSH1 0x20 DUP3 ADD SWAP1 POP DUP2 DUP2 SUB PUSH1 0x0 DUP4 ADD MSTORE PUSH2 0x284F DUP2 PUSH2 0x2813 JUMP JUMPDEST SWAP1 POP SWAP2 SWAP1 POP JUMP JUMPDEST PUSH32 0x5468652063616C6C657220646F6573206E6F7420737570706F72742074686520 PUSH1 0x0 DUP3 ADD MSTORE PUSH32 0x494552433131353520696E746572666163650000000000000000000000000000 PUSH1 0x20 DUP3 ADD MSTORE POP JUMP JUMPDEST PUSH1 0x0 PUSH2 0x28B2 PUSH1 0x32 DUP4 PUSH2 0x23BF JUMP JUMPDEST SWAP2 POP PUSH2 0x28BD DUP3 PUSH2 0x2856 JUMP JUMPDEST PUSH1 0x40 DUP3 ADD SWAP1 POP SWAP2 SWAP1 POP JUMP JUMPDEST PUSH1 0x0 PUSH1 0x20 DUP3 ADD SWAP1 POP DUP2 DUP2 SUB PUSH1 0x0 DUP4 ADD MSTORE PUSH2 0x28E1 DUP2 PUSH2 0x28A5 JUMP JUMPDEST SWAP1 POP SWAP2 SWAP1 POP JUMP JUMPDEST PUSH1 0x0 PUSH1 0x40 DUP3 ADD SWAP1 POP PUSH2 0x28FD PUSH1 0x0 DUP4 ADD DUP6 PUSH2 0x1B68 JUMP JUMPDEST PUSH2 0x290A PUSH1 0x20 DUP4 ADD DUP5 PUSH2 0x243C JUMP JUMPDEST SWAP4 SWAP3 POP POP POP JUMP JUMPDEST PUSH1 0x0 PUSH2 0x291E PUSH1 0x0 DUP4 PUSH2 0x2002 JUMP JUMPDEST SWAP2 POP PUSH2 0x2929 DUP3 PUSH2 0x2384 JUMP JUMPDEST PUSH1 0x0 DUP3 ADD SWAP1 POP SWAP2 SWAP1 POP JUMP JUMPDEST PUSH1 0x0 PUSH1 0xA0 DUP3 ADD SWAP1 POP PUSH2 0x2949 PUSH1 0x0 DUP4 ADD DUP8 PUSH2 0x1B68 JUMP JUMPDEST PUSH2 0x2956 PUSH1 0x20 DUP4 ADD DUP7 PUSH2 0x1B68 JUMP JUMPDEST PUSH2 0x2963 PUSH1 0x40 DUP4 ADD DUP6 PUSH2 0x243C JUMP JUMPDEST PUSH2 0x2970 PUSH1 0x60 DUP4 ADD DUP5 PUSH2 0x243C JUMP JUMPDEST DUP2 DUP2 SUB PUSH1 0x80 DUP4 ADD MSTORE PUSH2 0x2981 DUP2 PUSH2 0x2911 JUMP JUMPDEST SWAP1 POP SWAP6 SWAP5 POP POP POP POP POP JUMP JUMPDEST PUSH1 0x0 DUP3 DUP3 MSTORE PUSH1 0x20 DUP3 ADD SWAP1 POP SWAP3 SWAP2 POP POP JUMP JUMPDEST PUSH1 0x0 DUP1 REVERT JUMPDEST PUSH1 0x0 PUSH2 0x29AE DUP4 DUP6 PUSH2 0x298C JUMP JUMPDEST SWAP4 POP PUSH32 0x7FFFFFFFFFFFFFFFFFFFFFFFFFFFFFFFFFFFFFFFFFFFFFFFFFFFFFFFFFFFFFF DUP4 GT ISZERO PUSH2 0x29E1 JUMPI PUSH2 0x29E0 PUSH2 0x299D JUMP JUMPDEST JUMPDEST PUSH1 0x20 DUP4 MUL SWAP3 POP PUSH2 0x29F2 DUP4 DUP6 DUP5 PUSH2 0x1D8A JUMP JUMPDEST DUP3 DUP5 ADD SWAP1 POP SWAP4 SWAP3 POP POP POP JUMP JUMPDEST PUSH1 0x0 PUSH1 0xA0 DUP3 ADD SWAP1 POP PUSH2 0x2A13 PUSH1 0x0 DUP4 ADD DUP12 PUSH2 0x1B68 JUMP JUMPDEST PUSH2 0x2A20 PUSH1 0x20 DUP4 ADD DUP11 PUSH2 0x1B68 JUMP JUMPDEST DUP2 DUP2 SUB PUSH1 0x40 DUP4 ADD MSTORE PUSH2 0x2A33 DUP2 DUP9 DUP11 PUSH2 0x29A2 JUMP JUMPDEST SWAP1 POP DUP2 DUP2 SUB PUSH1 0x60 DUP4 ADD MSTORE PUSH2 0x2A48 DUP2 DUP7 DUP9 PUSH2 0x29A2 JUMP JUMPDEST SWAP1 POP DUP2 DUP2 SUB PUSH1 0x80 DUP4 ADD MSTORE PUSH2 0x2A5D DUP2 DUP5 DUP7 PUSH2 0x244B JUMP JUMPDEST SWAP1 POP SWAP10 SWAP9 POP POP POP POP POP POP POP POP POP JUMP JUMPDEST PUSH32 0x416C726561647920696E697469616C697A656400000000000000000000000000 PUSH1 0x0 DUP3 ADD MSTORE POP JUMP JUMPDEST PUSH1 0x0 PUSH2 0x2AA2 PUSH1 0x13 DUP4 PUSH2 0x23BF JUMP JUMPDEST SWAP2 POP PUSH2 0x2AAD DUP3 PUSH2 0x2A6C JUMP JUMPDEST PUSH1 0x20 DUP3 ADD SWAP1 POP SWAP2 SWAP1 POP JUMP JUMPDEST PUSH1 0x0 PUSH1 0x20 DUP3 ADD SWAP1 POP DUP2 DUP2 SUB PUSH1 0x0 DUP4 ADD MSTORE PUSH2 0x2AD1 DUP2 PUSH2 0x2A95 JUMP JUMPDEST SWAP1 POP SWAP2 SWAP1 POP JUMP JUMPDEST PUSH32 0x4E487B7100000000000000000000000000000000000000000000000000000000 PUSH1 0x0 MSTORE PUSH1 0x32 PUSH1 0x4 MSTORE PUSH1 0x24 PUSH1 0x0 REVERT JUMPDEST PUSH32 0x4E487B7100000000000000000000000000000000000000000000000000000000 PUSH1 0x0 MSTORE PUSH1 0x11 PUSH1 0x4 MSTORE PUSH1 0x24 PUSH1 0x0 REVERT JUMPDEST PUSH1 0x0 PUSH2 0x2B41 DUP3 PUSH2 0x1C8D JUMP JUMPDEST SWAP2 POP PUSH32 0xFFFFFFFFFFFFFFFFFFFFFFFFFFFFFFFFFFFFFFFFFFFFFFFFFFFFFFFFFFFFFFFF DUP3 EQ ISZERO PUSH2 0x2B74 JUMPI PUSH2 0x2B73 PUSH2 0x2B07 JUMP JUMPDEST JUMPDEST PUSH1 0x1 DUP3 ADD SWAP1 POP SWAP2 SWAP1 POP JUMP JUMPDEST PUSH1 0x0 DUP2 MLOAD SWAP1 POP SWAP2 SWAP1 POP JUMP JUMPDEST PUSH1 0x0 DUP2 SWAP1 POP PUSH1 0x20 DUP3 ADD SWAP1 POP SWAP2 SWAP1 POP JUMP JUMPDEST PUSH2 0x2BA3 DUP2 PUSH2 0x1C8D JUMP JUMPDEST DUP3 MSTORE POP POP JUMP JUMPDEST PUSH1 0x0 PUSH2 0x2BB5 DUP4 DUP4 PUSH2 0x2B9A JUMP JUMPDEST PUSH1 0x20 DUP4 ADD SWAP1 POP SWAP3 SWAP2 POP POP JUMP JUMPDEST PUSH1 0x0 PUSH1 0x20 DUP3 ADD SWAP1 POP SWAP2 SWAP1 POP JUMP JUMPDEST PUSH1 0x0 PUSH2 0x2BD9 DUP3 PUSH2 0x2B7F JUMP JUMPDEST PUSH2 0x2BE3 DUP2 DUP6 PUSH2 0x298C JUMP JUMPDEST SWAP4 POP PUSH2 0x2BEE DUP4 PUSH2 0x2B8A JUMP JUMPDEST DUP1 PUSH1 0x0 JUMPDEST DUP4 DUP2 LT ISZERO PUSH2 0x2C1F JUMPI DUP2 MLOAD PUSH2 0x2C06 DUP9 DUP3 PUSH2 0x2BA9 JUMP JUMPDEST SWAP8 POP PUSH2 0x2C11 DUP4 PUSH2 0x2BC1 JUMP JUMPDEST SWAP3 POP POP PUSH1 0x1 DUP2 ADD SWAP1 POP PUSH2 0x2BF2 JUMP JUMPDEST POP DUP6 SWAP4 POP POP POP POP SWAP3 SWAP2 POP POP JUMP JUMPDEST PUSH1 0x0 PUSH1 0xA0 DUP3 ADD SWAP1 POP PUSH2 0x2C41 PUSH1 0x0 DUP4 ADD DUP9 PUSH2 0x1B68 JUMP JUMPDEST PUSH2 0x2C4E PUSH1 0x20 DUP4 ADD DUP8 PUSH2 0x1B68 JUMP JUMPDEST DUP2 DUP2 SUB PUSH1 0x40 DUP4 ADD MSTORE PUSH2 0x2C61 DUP2 DUP6 DUP8 PUSH2 0x29A2 JUMP JUMPDEST SWAP1 POP DUP2 DUP2 SUB PUSH1 0x60 DUP4 ADD MSTORE PUSH2 0x2C75 DUP2 DUP5 PUSH2 0x2BCE JUMP JUMPDEST SWAP1 POP DUP2 DUP2 SUB PUSH1 0x80 DUP4 ADD MSTORE PUSH2 0x2C88 DUP2 PUSH2 0x2911 JUMP JUMPDEST SWAP1 POP SWAP7 SWAP6 POP POP POP POP POP POP JUMP JUMPDEST PUSH1 0x0 PUSH1 0xA0 DUP3 ADD SWAP1 POP PUSH2 0x2CA9 PUSH1 0x0 DUP4 ADD DUP10 PUSH2 0x1B68 JUMP JUMPDEST PUSH2 0x2CB6 PUSH1 0x20 DUP4 ADD DUP9 PUSH2 0x1B68 JUMP JUMPDEST PUSH2 0x2CC3 PUSH1 0x40 DUP4 ADD DUP8 PUSH2 0x243C JUMP JUMPDEST PUSH2 0x2CD0 PUSH1 0x60 DUP4 ADD DUP7 PUSH2 0x243C JUMP JUMPDEST DUP2 DUP2 SUB PUSH1 0x80 DUP4 ADD MSTORE PUSH2 0x2CE3 DUP2 DUP5 DUP7 PUSH2 0x244B JUMP JUMPDEST SWAP1 POP SWAP8 SWAP7 POP POP POP POP POP POP POP JUMP JUMPDEST PUSH1 0x0 PUSH2 0x2CFB DUP3 PUSH2 0x1FF7 JUMP JUMPDEST PUSH2 0x2D05 DUP2 DUP6 PUSH2 0x2379 JUMP JUMPDEST SWAP4 POP PUSH2 0x2D15 DUP2 DUP6 PUSH1 0x20 DUP7 ADD PUSH2 0x2013 JUMP JUMPDEST DUP1 DUP5 ADD SWAP2 POP POP SWAP3 SWAP2 POP POP JUMP JUMPDEST PUSH1 0x0 PUSH2 0x2D2D DUP3 DUP5 PUSH2 0x2CF0 JUMP JUMPDEST SWAP2 POP DUP2 SWAP1 POP SWAP3 SWAP2 POP POP JUMP JUMPDEST PUSH32 0x5472616E7366657248656C7065723A3A736166655472616E736665723A207472 PUSH1 0x0 DUP3 ADD MSTORE PUSH32 0x616E73666572206661696C656400000000000000000000000000000000000000 PUSH1 0x20 DUP3 ADD MSTORE POP JUMP JUMPDEST PUSH1 0x0 PUSH2 0x2D94 PUSH1 0x2D DUP4 PUSH2 0x23BF JUMP JUMPDEST SWAP2 POP PUSH2 0x2D9F DUP3 PUSH2 0x2D38 JUMP JUMPDEST PUSH1 0x40 DUP3 ADD SWAP1 POP SWAP2 SWAP1 POP JUMP JUMPDEST PUSH1 0x0 PUSH1 0x20 DUP3 ADD SWAP1 POP DUP2 DUP2 SUB PUSH1 0x0 DUP4 ADD MSTORE PUSH2 0x2DC3 DUP2 PUSH2 0x2D87 JUMP JUMPDEST SWAP1 POP SWAP2 SWAP1 POP JUMP INVALID LOG2 PUSH5 0x6970667358 0x22 SLT KECCAK256 0xE8 0x22 SHR BLOCKHASH STOP 0x28 0xCC PUSH3 0x662330 0xF7 0xA8 0xD5 SWAP6 0xAC 0x4A DUP5 PUSH15 0x3C778DF3DBC02449E81B61BE386473 PUSH16 0x6C634300080A00330000000000000000 "
				},
				"gasEstimates": {
					"creation": {
						"codeDepositCost": "2355200",
						"executionCost": "51157",
						"totalCost": "2406357"
					},
					"external": {
						"": "infinite",
						"autoFlush1155()": "2566",
						"autoFlush721()": "2609",
						"batchFlushERC1155Tokens(address,uint256[])": "infinite",
						"callFromParent(address,uint256,bytes)": "infinite",
						"flush()": "infinite",
						"flushERC1155Tokens(address,uint256)": "infinite",
						"flushERC721Token(address,uint256)": "infinite",
						"flushTokens(address)": "infinite",
						"init(address,bool,bool)": "infinite",
						"onERC1155BatchReceived(address,address,uint256[],uint256[],bytes)": "infinite",
						"onERC1155Received(address,address,uint256,uint256,bytes)": "infinite",
						"onERC721Received(address,address,uint256,bytes)": "infinite",
						"parentAddress()": "2535",
						"setAutoFlush1155(bool)": "26919",
						"setAutoFlush721(bool)": "26918",
						"supportsInterface(bytes4)": "862"
					}
				},
				"methodIdentifiers": {
					"autoFlush1155()": "bad23ab9",
					"autoFlush721()": "f684e1ed",
					"batchFlushERC1155Tokens(address,uint256[])": "c6a2dd24",
					"callFromParent(address,uint256,bytes)": "77e60b35",
					"flush()": "6b9f96ea",
					"flushERC1155Tokens(address,uint256)": "8972c17c",
					"flushERC721Token(address,uint256)": "159e44d7",
					"flushTokens(address)": "3ef13367",
					"init(address,bool,bool)": "bee3e676",
					"onERC1155BatchReceived(address,address,uint256[],uint256[],bytes)": "bc197c81",
					"onERC1155Received(address,address,uint256,uint256,bytes)": "f23a6e61",
					"onERC721Received(address,address,uint256,bytes)": "150b7a02",
					"parentAddress()": "00821de3",
					"setAutoFlush1155(bool)": "8acc01be",
					"setAutoFlush721(bool)": "c59f9f19",
					"supportsInterface(bytes4)": "01ffc9a7"
				}
			},
			"storageLayout": {
				"storage": [
					{
						"astId": 773,
						"contract": "contracts/MultiSig Wallet/Forwarder.sol:Forwarder",
						"label": "parentAddress",
						"offset": 0,
						"slot": "0",
						"type": "t_address"
					},
					{
						"astId": 776,
						"contract": "contracts/MultiSig Wallet/Forwarder.sol:Forwarder",
						"label": "autoFlush721",
						"offset": 20,
						"slot": "0",
						"type": "t_bool"
					},
					{
						"astId": 779,
						"contract": "contracts/MultiSig Wallet/Forwarder.sol:Forwarder",
						"label": "autoFlush1155",
						"offset": 21,
						"slot": "0",
						"type": "t_bool"
					}
				],
				"types": {
					"t_address": {
						"encoding": "inplace",
						"label": "address",
						"numberOfBytes": "20"
					},
					"t_bool": {
						"encoding": "inplace",
						"label": "bool",
						"numberOfBytes": "1"
					}
				}
			},
			"userdoc": {
				"kind": "user",
				"methods": {
					"batchFlushERC1155Tokens(address,uint256[])": {
						"notice": "Execute a batch nft transfer from the forwarder to the parent address."
					},
					"flush()": {
						"notice": "Flush the entire balance of the contract to the parent address."
					},
					"flushERC1155Tokens(address,uint256)": {
						"notice": "Execute a nft transfer from the forwarder to the parent address."
					},
					"flushERC721Token(address,uint256)": {
						"notice": "Execute a nft transfer from the forwarder to the parent address"
					},
					"flushTokens(address)": {
						"notice": "Execute a token transfer of the full balance from the forwarder token to the parent address"
					},
					"init(address,bool,bool)": {
						"notice": "Initialize the contract, and sets the destination address to that of the creator"
					},
					"onERC721Received(address,address,uint256,bytes)": {
						"notice": "ERC721 standard callback function for when a ERC721 is transfered. The forwarder will send the nft to the base wallet once the nft contract invokes this method after transfering the nft."
					},
					"setAutoFlush1155(bool)": {
						"notice": "Sets the autoflush1155 parameter."
					},
					"setAutoFlush721(bool)": {
						"notice": "Sets the autoflush721 parameter."
					}
				},
				"notice": "Contract that will forward any incoming Ether to the creator of the contract",
				"version": 1
			}
		}
	}
}